{
	"Will.sol": {
		"Will": {
			"abi": [
				{
					"inputs": [
						{
							"internalType": "address",
							"name": "initialOwner",
							"type": "address"
						},
						{
							"internalType": "uint256",
							"name": "_interval",
							"type": "uint256"
						},
						{
							"internalType": "address",
							"name": "_sourceContract",
							"type": "address"
						},
						{
							"internalType": "uint256",
							"name": "_terminationFee",
							"type": "uint256"
						},
						{
							"internalType": "bool",
							"name": "_hasDiary",
							"type": "bool"
						},
						{
							"internalType": "address",
							"name": "_executorAddress",
							"type": "address"
						}
					],
					"stateMutability": "payable",
					"type": "constructor"
				},
				{
					"inputs": [
						{
							"internalType": "address",
							"name": "owner",
							"type": "address"
						}
					],
					"name": "OwnableInvalidOwner",
					"type": "error"
				},
				{
					"inputs": [
						{
							"internalType": "address",
							"name": "account",
							"type": "address"
						}
					],
					"name": "OwnableUnauthorizedAccount",
					"type": "error"
				},
				{
					"inputs": [],
					"name": "ReentrancyGuardReentrantCall",
					"type": "error"
				},
				{
					"anonymous": false,
					"inputs": [
						{
							"indexed": false,
							"internalType": "uint256",
							"name": "feePaid",
							"type": "uint256"
						}
					],
					"name": "Cancelled",
					"type": "event"
				},
				{
					"anonymous": false,
					"inputs": [
						{
							"indexed": false,
							"internalType": "address",
							"name": "executor",
							"type": "address"
						},
						{
							"indexed": false,
							"internalType": "uint256",
							"name": "ethFee",
							"type": "uint256"
						},
						{
							"indexed": false,
							"internalType": "address",
							"name": "feeRecipient",
							"type": "address"
						}
					],
					"name": "Executed",
					"type": "event"
				},
				{
					"anonymous": false,
					"inputs": [
						{
							"indexed": true,
							"internalType": "address",
							"name": "previousOwner",
							"type": "address"
						},
						{
							"indexed": true,
							"internalType": "address",
							"name": "newOwner",
							"type": "address"
						}
					],
					"name": "OwnershipTransferred",
					"type": "event"
				},
				{
					"anonymous": false,
					"inputs": [
						{
							"indexed": false,
							"internalType": "uint256",
							"name": "newLastUpdate",
							"type": "uint256"
						}
					],
					"name": "Ping",
					"type": "event"
				},
				{
					"anonymous": false,
					"inputs": [
						{
							"indexed": true,
							"internalType": "address",
							"name": "owner",
							"type": "address"
						}
					],
					"name": "WillConfigured",
					"type": "event"
				},
				{
					"anonymous": false,
					"inputs": [
						{
							"indexed": true,
							"internalType": "address",
							"name": "owner",
							"type": "address"
						}
					],
					"name": "WillEmptied",
					"type": "event"
				},
				{
					"inputs": [],
					"name": "EXECUTION_FEE_BPS",
					"outputs": [
						{
							"internalType": "uint256",
							"name": "",
							"type": "uint256"
						}
					],
					"stateMutability": "view",
					"type": "function"
				},
				{
					"inputs": [],
					"name": "cancelAndWithdraw",
					"outputs": [],
					"stateMutability": "nonpayable",
					"type": "function"
				},
				{
					"inputs": [],
					"name": "currentState",
					"outputs": [
						{
							"internalType": "enum Will.WillState",
							"name": "",
							"type": "uint8"
						}
					],
					"stateMutability": "view",
					"type": "function"
				},
				{
					"inputs": [
						{
							"internalType": "uint256",
							"name": "",
							"type": "uint256"
						}
					],
					"name": "distributionPercentages",
					"outputs": [
						{
							"internalType": "uint256",
							"name": "",
							"type": "uint256"
						}
					],
					"stateMutability": "view",
					"type": "function"
				},
				{
					"inputs": [],
					"name": "emptyWillForEdit",
					"outputs": [],
					"stateMutability": "nonpayable",
					"type": "function"
				},
				{
					"inputs": [
						{
							"internalType": "uint256",
							"name": "",
							"type": "uint256"
						}
					],
					"name": "erc20Assets",
					"outputs": [
						{
							"internalType": "contract IERC20",
							"name": "token",
							"type": "address"
						}
					],
					"stateMutability": "view",
					"type": "function"
				},
				{
					"inputs": [
						{
							"internalType": "uint256",
							"name": "",
							"type": "uint256"
						}
					],
					"name": "erc721Assets",
					"outputs": [
						{
							"internalType": "contract IERC721",
							"name": "token",
							"type": "address"
						},
						{
							"internalType": "uint256",
							"name": "tokenId",
							"type": "uint256"
						},
						{
							"internalType": "address",
							"name": "heir",
							"type": "address"
						}
					],
					"stateMutability": "view",
					"type": "function"
				},
				{
					"inputs": [],
					"name": "execute",
					"outputs": [],
					"stateMutability": "nonpayable",
					"type": "function"
				},
				{
					"inputs": [],
					"name": "executorAddress",
					"outputs": [
						{
							"internalType": "address",
							"name": "",
							"type": "address"
						}
					],
					"stateMutability": "view",
					"type": "function"
				},
				{
					"inputs": [
						{
							"internalType": "address[]",
							"name": "_heirs",
							"type": "address[]"
						},
						{
							"internalType": "uint256[]",
							"name": "_distro",
							"type": "uint256[]"
						},
						{
							"components": [
								{
									"internalType": "address",
									"name": "tokenContract",
									"type": "address"
								},
								{
									"internalType": "uint256",
									"name": "amount",
									"type": "uint256"
								}
							],
							"internalType": "struct Will.Erc20Distribution[]",
							"name": "_erc20s",
							"type": "tuple[]"
						},
						{
							"components": [
								{
									"internalType": "address",
									"name": "tokenContract",
									"type": "address"
								},
								{
									"internalType": "uint256",
									"name": "tokenId",
									"type": "uint256"
								},
								{
									"internalType": "address",
									"name": "heir",
									"type": "address"
								}
							],
							"internalType": "struct Will.NftDistribution[]",
							"name": "_nfts",
							"type": "tuple[]"
						}
					],
					"name": "fundAndConfigure",
					"outputs": [],
					"stateMutability": "payable",
					"type": "function"
				},
				{
					"inputs": [],
					"name": "getWillDetails",
					"outputs": [
						{
							"components": [
								{
									"internalType": "address",
									"name": "owner",
									"type": "address"
								},
								{
									"internalType": "uint256",
									"name": "interval",
									"type": "uint256"
								},
								{
									"internalType": "uint256",
									"name": "lastUpdate",
									"type": "uint256"
								},
								{
									"internalType": "bool",
									"name": "executed",
									"type": "bool"
								},
								{
									"internalType": "bool",
									"name": "hasDiary",
									"type": "bool"
								},
								{
									"internalType": "uint256",
									"name": "ethBalance",
									"type": "uint256"
								},
								{
									"internalType": "address[]",
									"name": "heirs",
									"type": "address[]"
								},
								{
									"internalType": "uint256[]",
									"name": "distributionPercentages",
									"type": "uint256[]"
								},
								{
									"components": [
										{
											"internalType": "address",
											"name": "tokenContract",
											"type": "address"
										},
										{
											"internalType": "uint256",
											"name": "balance",
											"type": "uint256"
										}
									],
									"internalType": "struct Erc20Detail[]",
									"name": "erc20Details",
									"type": "tuple[]"
								},
								{
									"components": [
										{
											"internalType": "address",
											"name": "tokenContract",
											"type": "address"
										},
										{
											"internalType": "uint256",
											"name": "tokenId",
											"type": "uint256"
										},
										{
											"internalType": "address",
											"name": "heir",
											"type": "address"
										}
									],
									"internalType": "struct Erc721Detail[]",
									"name": "erc721Details",
									"type": "tuple[]"
								}
							],
							"internalType": "struct WillDetails",
							"name": "",
							"type": "tuple"
						}
					],
					"stateMutability": "view",
					"type": "function"
				},
				{
					"inputs": [],
					"name": "hasDiary",
					"outputs": [
						{
							"internalType": "bool",
							"name": "",
							"type": "bool"
						}
					],
					"stateMutability": "view",
					"type": "function"
				},
				{
					"inputs": [
						{
							"internalType": "uint256",
							"name": "",
							"type": "uint256"
						}
					],
					"name": "heirs",
					"outputs": [
						{
							"internalType": "address",
							"name": "",
							"type": "address"
						}
					],
					"stateMutability": "view",
					"type": "function"
				},
				{
					"inputs": [
						{
							"internalType": "address[]",
							"name": "_heirs",
							"type": "address[]"
						},
						{
							"internalType": "uint256[]",
							"name": "_distro",
							"type": "uint256[]"
						},
						{
							"components": [
								{
									"internalType": "address",
									"name": "tokenContract",
									"type": "address"
								},
								{
									"internalType": "uint256",
									"name": "amount",
									"type": "uint256"
								}
							],
							"internalType": "struct Will.Erc20Distribution[]",
							"name": "_erc20s",
							"type": "tuple[]"
						},
						{
							"components": [
								{
									"internalType": "address",
									"name": "tokenContract",
									"type": "address"
								},
								{
									"internalType": "uint256",
									"name": "tokenId",
									"type": "uint256"
								},
								{
									"internalType": "address",
									"name": "heir",
									"type": "address"
								}
							],
							"internalType": "struct Will.NftDistribution[]",
							"name": "_nfts",
							"type": "tuple[]"
						}
					],
					"name": "initialize",
					"outputs": [],
					"stateMutability": "nonpayable",
					"type": "function"
				},
				{
					"inputs": [],
					"name": "interval",
					"outputs": [
						{
							"internalType": "uint256",
							"name": "",
							"type": "uint256"
						}
					],
					"stateMutability": "view",
					"type": "function"
				},
				{
					"inputs": [],
					"name": "lastUpdate",
					"outputs": [
						{
							"internalType": "uint256",
							"name": "",
							"type": "uint256"
						}
					],
					"stateMutability": "view",
					"type": "function"
				},
				{
					"inputs": [],
					"name": "owner",
					"outputs": [
						{
							"internalType": "address",
							"name": "",
							"type": "address"
						}
					],
					"stateMutability": "view",
					"type": "function"
				},
				{
					"inputs": [],
					"name": "ping",
					"outputs": [],
					"stateMutability": "nonpayable",
					"type": "function"
				},
				{
					"inputs": [],
					"name": "renounceOwnership",
					"outputs": [],
					"stateMutability": "nonpayable",
					"type": "function"
				},
				{
					"inputs": [],
					"name": "sourceContract",
					"outputs": [
						{
							"internalType": "address",
							"name": "",
							"type": "address"
						}
					],
					"stateMutability": "view",
					"type": "function"
				},
				{
					"inputs": [],
					"name": "terminationFee",
					"outputs": [
						{
							"internalType": "uint256",
							"name": "",
							"type": "uint256"
						}
					],
					"stateMutability": "view",
					"type": "function"
				},
				{
					"inputs": [
						{
							"internalType": "address",
							"name": "newOwner",
							"type": "address"
						}
					],
					"name": "transferOwnership",
					"outputs": [],
					"stateMutability": "nonpayable",
					"type": "function"
				}
			],
			"devdoc": {
				"errors": {
					"OwnableInvalidOwner(address)": [
						{
							"details": "The owner is not a valid owner account. (eg. `address(0)`)"
						}
					],
					"OwnableUnauthorizedAccount(address)": [
						{
							"details": "The caller account is not authorized to perform an operation."
						}
					]
				},
				"kind": "dev",
				"methods": {
					"owner()": {
						"details": "Returns the address of the current owner."
					},
					"renounceOwnership()": {
						"details": "Leaves the contract without owner. It will not be possible to call `onlyOwner` functions. Can only be called by the current owner. NOTE: Renouncing ownership will leave the contract without an owner, thereby disabling any functionality that is only available to the owner."
					},
					"transferOwnership(address)": {
						"details": "Transfers ownership of the contract to a new account (`newOwner`). Can only be called by the current owner."
					}
				},
				"version": 1
			},
			"evm": {
				"assembly": "    /* \"Will.sol\":1301:10534  contract Will is Ownable, ReentrancyGuard {... */\n  mstore(0x40, 0x0120)\n    /* \"Will.sol\":2636:3114  constructor(... */\n  mload(0x40)\n  sub(codesize, bytecodeSize)\n  dup1\n  bytecodeSize\n  dup4\n  codecopy\n  dup2\n  add\n  0x40\n  dup2\n  swap1\n  mstore\n  tag_1\n  swap2\n  tag_2\n  jump\t// in\ntag_1:\n    /* \"Will.sol\":2858:2870  initialOwner */\n  dup6\n  sub(shl(0xa0, 0x01), 0x01)\n    /* \"@openzeppelin/contracts/access/Ownable.sol\":1273:1299  initialOwner == address(0) */\n  dup2\n  and\n    /* \"@openzeppelin/contracts/access/Ownable.sol\":1269:1364  if (initialOwner == address(0)) {... */\n  tag_7\n  jumpi\n    /* \"@openzeppelin/contracts/access/Ownable.sol\":1322:1353  OwnableInvalidOwner(address(0)) */\n  mload(0x40)\n  shl(0xe0, 0x1e4fbdf7)\n  dup2\n  mstore\n    /* \"@openzeppelin/contracts/access/Ownable.sol\":1350:1351  0 */\n  0x00\n    /* \"@openzeppelin/contracts/access/Ownable.sol\":1322:1353  OwnableInvalidOwner(address(0)) */\n  0x04\n  dup3\n  add\n    /* \"#utility.yul\":1004:1055   */\n  mstore\n    /* \"#utility.yul\":977:995   */\n  0x24\n  add\n    /* \"@openzeppelin/contracts/access/Ownable.sol\":1322:1353  OwnableInvalidOwner(address(0)) */\n  mload(0x40)\n  dup1\n  swap2\n  sub\n  swap1\n  revert\n    /* \"@openzeppelin/contracts/access/Ownable.sol\":1269:1364  if (initialOwner == address(0)) {... */\ntag_7:\n    /* \"@openzeppelin/contracts/access/Ownable.sol\":1373:1405  _transferOwnership(initialOwner) */\n  tag_10\n    /* \"@openzeppelin/contracts/access/Ownable.sol\":1392:1404  initialOwner */\n  dup2\n    /* \"@openzeppelin/contracts/access/Ownable.sol\":1373:1391  _transferOwnership */\n  tag_11\n    /* \"@openzeppelin/contracts/access/Ownable.sol\":1373:1405  _transferOwnership(initialOwner) */\n  jump\t// in\ntag_10:\n  pop\n    /* \"Will.sol\":397:398  1 */\n  0x01\n    /* \"Will.sol\":495:517  _status = _NOT_ENTERED */\n  dup1\n  sstore\n    /* \"Will.sol\":2883:2903  interval = _interval */\n  0x80\n  swap5\n  swap1\n  swap5\n  mstore\n  sub(shl(0xa0, 0x01), 0x01)\n    /* \"Will.sol\":2914:2946  sourceContract = _sourceContract */\n  swap3\n  dup4\n  and\n  0xa0\n  mstore\n    /* \"Will.sol\":2957:2989  terminationFee = _terminationFee */\n  0xc0\n  swap2\n  swap1\n  swap2\n  mstore\n    /* \"Will.sol\":3000:3020  hasDiary = _hasDiary */\n  iszero\n  iszero\n  0xe0\n  mstore\n    /* \"Will.sol\":3031:3065  executorAddress = _executorAddress */\n  and\n  0x0100\n  mstore\n  pop\n    /* \"Will.sol\":3076:3088  currentState */\n  0x02\n    /* \"Will.sol\":3076:3106  currentState = WillState.Empty */\n  dup1\n  sload\n  not(0xff)\n  and\n  swap1\n  sstore\n    /* \"Will.sol\":1301:10534  contract Will is Ownable, ReentrancyGuard {... */\n  jump(tag_20)\n    /* \"@openzeppelin/contracts/access/Ownable.sol\":2912:3099  function _transferOwnership(address newOwner) internal virtual {... */\ntag_11:\n    /* \"@openzeppelin/contracts/access/Ownable.sol\":2985:3001  address oldOwner */\n  0x00\n    /* \"@openzeppelin/contracts/access/Ownable.sol\":3004:3010  _owner */\n  dup1\n  sload\n  sub(shl(0xa0, 0x01), 0x01)\n    /* \"@openzeppelin/contracts/access/Ownable.sol\":3020:3037  _owner = newOwner */\n  dup4\n  dup2\n  and\n  not(sub(shl(0xa0, 0x01), 0x01))\n  dup4\n  and\n  dup2\n  or\n  dup5\n  sstore\n    /* \"@openzeppelin/contracts/access/Ownable.sol\":3052:3092  OwnershipTransferred(oldOwner, newOwner) */\n  mload(0x40)\n    /* \"@openzeppelin/contracts/access/Ownable.sol\":3004:3010  _owner */\n  swap2\n  swap1\n  swap3\n  and\n  swap3\n  dup4\n  swap2\n    /* \"@openzeppelin/contracts/access/Ownable.sol\":3052:3092  OwnershipTransferred(oldOwner, newOwner) */\n  0x8be0079c531659141344cd1fd0a4f28419497f9722a3daafe3b4186f6b6457e0\n  swap2\n    /* \"@openzeppelin/contracts/access/Ownable.sol\":2985:3001  address oldOwner */\n  swap1\n    /* \"@openzeppelin/contracts/access/Ownable.sol\":3052:3092  OwnershipTransferred(oldOwner, newOwner) */\n  log3\n    /* \"@openzeppelin/contracts/access/Ownable.sol\":2975:3099  {... */\n  pop\n    /* \"@openzeppelin/contracts/access/Ownable.sol\":2912:3099  function _transferOwnership(address newOwner) internal virtual {... */\n  pop\n  jump\t// out\n    /* \"#utility.yul\":14:191   */\ntag_19:\n    /* \"#utility.yul\":93:106   */\n  dup1\n  mload\n  sub(shl(0xa0, 0x01), 0x01)\n    /* \"#utility.yul\":135:166   */\n  dup2\n  and\n    /* \"#utility.yul\":125:167   */\n  dup2\n  eq\n    /* \"#utility.yul\":115:185   */\n  tag_22\n  jumpi\n    /* \"#utility.yul\":181:182   */\n  0x00\n    /* \"#utility.yul\":178:179   */\n  dup1\n    /* \"#utility.yul\":171:183   */\n  revert\n    /* \"#utility.yul\":115:185   */\ntag_22:\n    /* \"#utility.yul\":14:191   */\n  swap2\n  swap1\n  pop\n  jump\t// out\n    /* \"#utility.yul\":196:853   */\ntag_2:\n    /* \"#utility.yul\":308:314   */\n  0x00\n    /* \"#utility.yul\":316:322   */\n  dup1\n    /* \"#utility.yul\":324:330   */\n  0x00\n    /* \"#utility.yul\":332:338   */\n  dup1\n    /* \"#utility.yul\":340:346   */\n  0x00\n    /* \"#utility.yul\":348:354   */\n  dup1\n    /* \"#utility.yul\":401:404   */\n  0xc0\n    /* \"#utility.yul\":389:398   */\n  dup8\n    /* \"#utility.yul\":380:387   */\n  dup10\n    /* \"#utility.yul\":376:399   */\n  sub\n    /* \"#utility.yul\":372:405   */\n  slt\n    /* \"#utility.yul\":369:422   */\n  iszero\n  tag_24\n  jumpi\n    /* \"#utility.yul\":418:419   */\n  0x00\n    /* \"#utility.yul\":415:416   */\n  dup1\n    /* \"#utility.yul\":408:420   */\n  revert\n    /* \"#utility.yul\":369:422   */\ntag_24:\n    /* \"#utility.yul\":441:481   */\n  tag_25\n    /* \"#utility.yul\":471:480   */\n  dup8\n    /* \"#utility.yul\":441:481   */\n  tag_19\n  jump\t// in\ntag_25:\n    /* \"#utility.yul\":431:481   */\n  swap6\n  pop\n    /* \"#utility.yul\":521:523   */\n  0x20\n    /* \"#utility.yul\":510:519   */\n  dup8\n    /* \"#utility.yul\":506:524   */\n  add\n    /* \"#utility.yul\":500:525   */\n  mload\n    /* \"#utility.yul\":490:525   */\n  swap5\n  pop\n    /* \"#utility.yul\":544:593   */\n  tag_26\n    /* \"#utility.yul\":589:591   */\n  0x40\n    /* \"#utility.yul\":578:587   */\n  dup9\n    /* \"#utility.yul\":574:592   */\n  add\n    /* \"#utility.yul\":544:593   */\n  tag_19\n  jump\t// in\ntag_26:\n    /* \"#utility.yul\":534:593   */\n  swap4\n  pop\n    /* \"#utility.yul\":633:635   */\n  0x60\n    /* \"#utility.yul\":622:631   */\n  dup8\n    /* \"#utility.yul\":618:636   */\n  add\n    /* \"#utility.yul\":612:637   */\n  mload\n    /* \"#utility.yul\":602:637   */\n  swap3\n  pop\n    /* \"#utility.yul\":680:683   */\n  0x80\n    /* \"#utility.yul\":669:678   */\n  dup8\n    /* \"#utility.yul\":665:684   */\n  add\n    /* \"#utility.yul\":659:685   */\n  mload\n    /* \"#utility.yul\":728:733   */\n  dup1\n    /* \"#utility.yul\":721:734   */\n  iszero\n    /* \"#utility.yul\":714:735   */\n  iszero\n    /* \"#utility.yul\":707:712   */\n  dup2\n    /* \"#utility.yul\":704:736   */\n  eq\n    /* \"#utility.yul\":694:754   */\n  tag_27\n  jumpi\n    /* \"#utility.yul\":750:751   */\n  0x00\n    /* \"#utility.yul\":747:748   */\n  dup1\n    /* \"#utility.yul\":740:752   */\n  revert\n    /* \"#utility.yul\":694:754   */\ntag_27:\n    /* \"#utility.yul\":773:778   */\n  swap2\n  pop\n    /* \"#utility.yul\":797:847   */\n  tag_28\n    /* \"#utility.yul\":842:845   */\n  0xa0\n    /* \"#utility.yul\":827:846   */\n  dup9\n  add\n    /* \"#utility.yul\":797:847   */\n  tag_19\n  jump\t// in\ntag_28:\n    /* \"#utility.yul\":787:847   */\n  swap1\n  pop\n    /* \"#utility.yul\":196:853   */\n  swap3\n  swap6\n  pop\n  swap3\n  swap6\n  pop\n  swap3\n  swap6\n  jump\t// out\n    /* \"#utility.yul\":1066:1193   */\ntag_20:\n    /* \"Will.sol\":1301:10534  contract Will is Ownable, ReentrancyGuard {... */\n  mload(0x80)\n  mload(0xa0)\n  mload(0xc0)\n  mload(0xe0)\n  mload(0x0100)\n  codecopy(0x00, dataOffset(sub_0), dataSize(sub_0))\n  0x00\n  assignImmutable(\"0xacd088948164483a37f73989f1c27b47a5586ebd1d004d9f6dfdcef17082f275\")\n  0x00\n  assignImmutable(\"0x8e831a88d8106460d1544aa376ec6155091b50c6145ad03273db7938ca17c5b1\")\n  0x00\n  assignImmutable(\"0xf149c9166005b187f5af29ceb397e7b9b5ab7e3a911adc91a9ebb826b208930e\")\n  0x00\n  assignImmutable(\"0xd094ef07eef1924f3d7fe3d896f6ebece97bd5683077be90743b91a72d59db67\")\n  0x00\n  assignImmutable(\"0xc40f7608bb89a6dc7aa17f3e1230f56b2e6b59319af129191c75cf59e69bfe22\")\n  return(0x00, dataSize(sub_0))\nstop\n\nsub_0: assembly {\n        /* \"Will.sol\":1301:10534  contract Will is Ownable, ReentrancyGuard {... */\n      mstore(0x40, 0x80)\n      jumpi(tag_1, lt(calldatasize, 0x04))\n      shr(0xe0, calldataload(0x00))\n      dup1\n      0x9379f517\n      gt\n      tag_24\n      jumpi\n      dup1\n      0xc0463711\n      gt\n      tag_25\n      jumpi\n      dup1\n      0xc0463711\n      eq\n      tag_18\n      jumpi\n      dup1\n      0xc7c85baa\n      eq\n      tag_19\n      jumpi\n      dup1\n      0xcc4f9d5b\n      eq\n      tag_20\n      jumpi\n      dup1\n      0xe15724a5\n      eq\n      tag_21\n      jumpi\n      dup1\n      0xeed35fea\n      eq\n      tag_22\n      jumpi\n      dup1\n      0xf2fde38b\n      eq\n      tag_23\n      jumpi\n      0x00\n      dup1\n      revert\n    tag_25:\n      dup1\n      0x9379f517\n      eq\n      tag_13\n      jumpi\n      dup1\n      0x947a36fb\n      eq\n      tag_14\n      jumpi\n      dup1\n      0xa444ae41\n      eq\n      tag_15\n      jumpi\n      dup1\n      0xa8e9a539\n      eq\n      tag_16\n      jumpi\n      dup1\n      0xabe21b59\n      eq\n      tag_17\n      jumpi\n      0x00\n      dup1\n      revert\n    tag_24:\n      dup1\n      0x5c36b186\n      gt\n      tag_26\n      jumpi\n      dup1\n      0x5c36b186\n      eq\n      tag_7\n      jumpi\n      dup1\n      0x61461954\n      eq\n      tag_8\n      jumpi\n      dup1\n      0x6b892b22\n      eq\n      tag_9\n      jumpi\n      dup1\n      0x715018a6\n      eq\n      tag_10\n      jumpi\n      dup1\n      0x8bf58f79\n      eq\n      tag_11\n      jumpi\n      dup1\n      0x8da5cb5b\n      eq\n      tag_12\n      jumpi\n      0x00\n      dup1\n      revert\n    tag_26:\n      dup1\n      0x0c3f6acf\n      eq\n      tag_2\n      jumpi\n      dup1\n      0x1c0795c3\n      eq\n      tag_3\n      jumpi\n      dup1\n      0x1f99966a\n      eq\n      tag_4\n      jumpi\n      dup1\n      0x2395d975\n      eq\n      tag_5\n      jumpi\n      dup1\n      0x3027439c\n      eq\n      tag_6\n      jumpi\n    tag_1:\n      0x00\n      dup1\n      revert\n        /* \"Will.sol\":1678:1707  WillState public currentState */\n    tag_2:\n      callvalue\n      dup1\n      iszero\n      tag_27\n      jumpi\n      0x00\n      dup1\n      revert\n    tag_27:\n      pop\n      sload(0x02)\n      tag_28\n      swap1\n      0xff\n      and\n      dup2\n      jump\n    tag_28:\n      mload(0x40)\n      tag_30\n      swap2\n      swap1\n      tag_31\n      jump\t// in\n    tag_30:\n      mload(0x40)\n      dup1\n      swap2\n      sub\n      swap1\n      return\n        /* \"Will.sol\":2075:2097  address[] public heirs */\n    tag_3:\n      callvalue\n      dup1\n      iszero\n      tag_32\n      jumpi\n      0x00\n      dup1\n      revert\n    tag_32:\n      pop\n      tag_33\n      tag_34\n      calldatasize\n      0x04\n      tag_35\n      jump\t// in\n    tag_34:\n      tag_36\n      jump\t// in\n    tag_33:\n      mload(0x40)\n      sub(shl(0xa0, 0x01), 0x01)\n        /* \"#utility.yul\":950:982   */\n      swap1\n      swap2\n      and\n        /* \"#utility.yul\":932:983   */\n      dup2\n      mstore\n        /* \"#utility.yul\":920:922   */\n      0x20\n        /* \"#utility.yul\":905:923   */\n      add\n        /* \"Will.sol\":2075:2097  address[] public heirs */\n      tag_30\n        /* \"#utility.yul\":786:989   */\n      jump\n        /* \"Will.sol\":2104:2144  uint256[] public distributionPercentages */\n    tag_4:\n      callvalue\n      dup1\n      iszero\n      tag_39\n      jumpi\n      0x00\n      dup1\n      revert\n    tag_39:\n      pop\n      tag_40\n      tag_41\n      calldatasize\n      0x04\n      tag_35\n      jump\t// in\n    tag_41:\n      tag_42\n      jump\t// in\n    tag_40:\n      mload(0x40)\n        /* \"#utility.yul\":1140:1165   */\n      swap1\n      dup2\n      mstore\n        /* \"#utility.yul\":1128:1130   */\n      0x20\n        /* \"#utility.yul\":1113:1131   */\n      add\n        /* \"Will.sol\":2104:2144  uint256[] public distributionPercentages */\n      tag_30\n        /* \"#utility.yul\":994:1171   */\n      jump\n        /* \"Will.sol\":1772:1818  uint256 public constant EXECUTION_FEE_BPS = 50 */\n    tag_5:\n      callvalue\n      dup1\n      iszero\n      tag_45\n      jumpi\n      0x00\n      dup1\n      revert\n    tag_45:\n      pop\n      tag_40\n        /* \"Will.sol\":1816:1818  50 */\n      0x32\n        /* \"Will.sol\":1772:1818  uint256 public constant EXECUTION_FEE_BPS = 50 */\n      dup2\n      jump\n        /* \"Will.sol\":4470:4799  function emptyWillForEdit() external onlyOwner requiresState(WillState.Active) nonReentrant {... */\n    tag_6:\n      callvalue\n      dup1\n      iszero\n      tag_49\n      jumpi\n      0x00\n      dup1\n      revert\n    tag_49:\n      pop\n      tag_50\n      tag_51\n      jump\t// in\n    tag_50:\n      stop\n        /* \"Will.sol\":5437:5583  function ping() external onlyOwner requiresState(WillState.Active) {... */\n    tag_7:\n      callvalue\n      dup1\n      iszero\n      tag_52\n      jumpi\n      0x00\n      dup1\n      revert\n    tag_52:\n      pop\n      tag_50\n      tag_54\n      jump\t// in\n        /* \"Will.sol\":5591:7872  function execute() external requiresState(WillState.Active) nonReentrant {... */\n    tag_8:\n      callvalue\n      dup1\n      iszero\n      tag_55\n      jumpi\n      0x00\n      dup1\n      revert\n    tag_55:\n      pop\n      tag_50\n      tag_57\n      jump\t// in\n        /* \"Will.sol\":4807:5425  function cancelAndWithdraw() external onlyOwner requiresState(WillState.Active) nonReentrant {... */\n    tag_9:\n      callvalue\n      dup1\n      iszero\n      tag_58\n      jumpi\n      0x00\n      dup1\n      revert\n    tag_58:\n      pop\n      tag_50\n      tag_60\n      jump\t// in\n        /* \"@openzeppelin/contracts/access/Ownable.sol\":2293:2394  function renounceOwnership() public virtual onlyOwner {... */\n    tag_10:\n      callvalue\n      dup1\n      iszero\n      tag_61\n      jumpi\n      0x00\n      dup1\n      revert\n    tag_61:\n      pop\n      tag_50\n      tag_63\n      jump\t// in\n        /* \"Will.sol\":3629:4458  function fundAndConfigure(... */\n    tag_11:\n      tag_50\n      tag_65\n      calldatasize\n      0x04\n      tag_66\n      jump\t// in\n    tag_65:\n      tag_67\n      jump\t// in\n        /* \"@openzeppelin/contracts/access/Ownable.sol\":1638:1723  function owner() public view virtual returns (address) {... */\n    tag_12:\n      callvalue\n      dup1\n      iszero\n      tag_68\n      jumpi\n      0x00\n      dup1\n      revert\n    tag_68:\n      pop\n        /* \"@openzeppelin/contracts/access/Ownable.sol\":1684:1691  address */\n      0x00\n        /* \"@openzeppelin/contracts/access/Ownable.sol\":1710:1716  _owner */\n      sload\n      sub(shl(0xa0, 0x01), 0x01)\n      and\n        /* \"@openzeppelin/contracts/access/Ownable.sol\":1638:1723  function owner() public view virtual returns (address) {... */\n      jump(tag_33)\n        /* \"Will.sol\":2151:2182  Erc20Asset[] public erc20Assets */\n    tag_13:\n      callvalue\n      dup1\n      iszero\n      tag_72\n      jumpi\n      0x00\n      dup1\n      revert\n    tag_72:\n      pop\n      tag_33\n      tag_74\n      calldatasize\n      0x04\n      tag_35\n      jump\t// in\n    tag_74:\n      tag_75\n      jump\t// in\n        /* \"Will.sol\":1859:1892  uint256 public immutable interval */\n    tag_14:\n      callvalue\n      dup1\n      iszero\n      tag_78\n      jumpi\n      0x00\n      dup1\n      revert\n    tag_78:\n      pop\n      tag_40\n      immutable(\"0xc40f7608bb89a6dc7aa17f3e1230f56b2e6b59319af129191c75cf59e69bfe22\")\n      dup2\n      jump\n        /* \"Will.sol\":1899:1938  address public immutable sourceContract */\n    tag_15:\n      callvalue\n      dup1\n      iszero\n      tag_82\n      jumpi\n      0x00\n      dup1\n      revert\n    tag_82:\n      pop\n      tag_33\n      immutable(\"0xd094ef07eef1924f3d7fe3d896f6ebece97bd5683077be90743b91a72d59db67\")\n      dup2\n      jump\n        /* \"Will.sol\":2028:2068  address public immutable executorAddress */\n    tag_16:\n      callvalue\n      dup1\n      iszero\n      tag_86\n      jumpi\n      0x00\n      dup1\n      revert\n    tag_86:\n      pop\n      tag_33\n      immutable(\"0xacd088948164483a37f73989f1c27b47a5586ebd1d004d9f6dfdcef17082f275\")\n      dup2\n      jump\n        /* \"Will.sol\":3126:3617  function initialize(... */\n    tag_17:\n      callvalue\n      dup1\n      iszero\n      tag_90\n      jumpi\n      0x00\n      dup1\n      revert\n    tag_90:\n      pop\n      tag_50\n      tag_92\n      calldatasize\n      0x04\n      tag_66\n      jump\t// in\n    tag_92:\n      tag_93\n      jump\t// in\n        /* \"Will.sol\":1827:1852  uint256 public lastUpdate */\n    tag_18:\n      callvalue\n      dup1\n      iszero\n      tag_94\n      jumpi\n      0x00\n      dup1\n      revert\n    tag_94:\n      pop\n      tag_40\n      sload(0x03)\n      dup2\n      jump\n        /* \"Will.sol\":1945:1984  uint256 public immutable terminationFee */\n    tag_19:\n      callvalue\n      dup1\n      iszero\n      tag_98\n      jumpi\n      0x00\n      dup1\n      revert\n    tag_98:\n      pop\n      tag_40\n      immutable(\"0xf149c9166005b187f5af29ceb397e7b9b5ab7e3a911adc91a9ebb826b208930e\")\n      dup2\n      jump\n        /* \"Will.sol\":9603:10531  function getWillDetails() external view returns (WillDetails memory) {... */\n    tag_20:\n      callvalue\n      dup1\n      iszero\n      tag_102\n      jumpi\n      0x00\n      dup1\n      revert\n    tag_102:\n      pop\n      tag_103\n      tag_104\n      jump\t// in\n    tag_103:\n      mload(0x40)\n      tag_30\n      swap2\n      swap1\n      tag_106\n      jump\t// in\n        /* \"Will.sol\":2189:2222  Erc721Asset[] public erc721Assets */\n    tag_21:\n      callvalue\n      dup1\n      iszero\n      tag_107\n      jumpi\n      0x00\n      dup1\n      revert\n    tag_107:\n      pop\n      tag_108\n      tag_109\n      calldatasize\n      0x04\n      tag_35\n      jump\t// in\n    tag_109:\n      tag_110\n      jump\t// in\n    tag_108:\n      0x40\n      dup1\n      mload\n      sub(shl(0xa0, 0x01), 0x01)\n        /* \"#utility.yul\":9630:9645   */\n      swap5\n      dup6\n      and\n        /* \"#utility.yul\":9612:9646   */\n      dup2\n      mstore\n        /* \"#utility.yul\":9677:9679   */\n      0x20\n        /* \"#utility.yul\":9662:9680   */\n      dup2\n      add\n        /* \"#utility.yul\":9655:9689   */\n      swap4\n      swap1\n      swap4\n      mstore\n        /* \"#utility.yul\":9725:9740   */\n      swap3\n      and\n        /* \"#utility.yul\":9705:9723   */\n      swap2\n      dup2\n      add\n        /* \"#utility.yul\":9698:9741   */\n      swap2\n      swap1\n      swap2\n      mstore\n        /* \"#utility.yul\":9562:9564   */\n      0x60\n        /* \"#utility.yul\":9547:9565   */\n      add\n        /* \"Will.sol\":2189:2222  Erc721Asset[] public erc721Assets */\n      tag_30\n        /* \"#utility.yul\":9357:9747   */\n      jump\n        /* \"Will.sol\":1991:2021  bool public immutable hasDiary */\n    tag_22:\n      callvalue\n      dup1\n      iszero\n      tag_113\n      jumpi\n      0x00\n      dup1\n      revert\n    tag_113:\n      pop\n      tag_114\n      immutable(\"0x8e831a88d8106460d1544aa376ec6155091b50c6145ad03273db7938ca17c5b1\")\n      dup2\n      jump\n    tag_114:\n      mload(0x40)\n        /* \"#utility.yul\":9917:9931   */\n      swap1\n      iszero\n        /* \"#utility.yul\":9910:9932   */\n      iszero\n        /* \"#utility.yul\":9892:9933   */\n      dup2\n      mstore\n        /* \"#utility.yul\":9880:9882   */\n      0x20\n        /* \"#utility.yul\":9865:9883   */\n      add\n        /* \"Will.sol\":1991:2021  bool public immutable hasDiary */\n      tag_30\n        /* \"#utility.yul\":9752:9939   */\n      jump\n        /* \"@openzeppelin/contracts/access/Ownable.sol\":2543:2758  function transferOwnership(address newOwner) public virtual onlyOwner {... */\n    tag_23:\n      callvalue\n      dup1\n      iszero\n      tag_118\n      jumpi\n      0x00\n      dup1\n      revert\n    tag_118:\n      pop\n      tag_50\n      tag_120\n      calldatasize\n      0x04\n      tag_121\n      jump\t// in\n    tag_120:\n      tag_122\n      jump\t// in\n        /* \"Will.sol\":2075:2097  address[] public heirs */\n    tag_36:\n      0x04\n      dup2\n      dup2\n      sload\n      dup2\n      lt\n      tag_123\n      jumpi\n      0x00\n      dup1\n      revert\n    tag_123:\n      0x00\n      swap2\n      dup3\n      mstore\n      0x20\n      swap1\n      swap2\n      keccak256\n      add\n      sload\n      sub(shl(0xa0, 0x01), 0x01)\n      and\n      swap1\n      pop\n      dup2\n      jump\t// out\n        /* \"Will.sol\":2104:2144  uint256[] public distributionPercentages */\n    tag_42:\n      0x05\n      dup2\n      dup2\n      sload\n      dup2\n      lt\n      tag_125\n      jumpi\n      0x00\n      dup1\n      revert\n    tag_125:\n      0x00\n      swap2\n      dup3\n      mstore\n      0x20\n      swap1\n      swap2\n      keccak256\n      add\n      sload\n      swap1\n      pop\n      dup2\n      jump\t// out\n        /* \"Will.sol\":4470:4799  function emptyWillForEdit() external onlyOwner requiresState(WillState.Active) nonReentrant {... */\n    tag_51:\n        /* \"@openzeppelin/contracts/access/Ownable.sol\":1531:1544  _checkOwner() */\n      tag_128\n        /* \"@openzeppelin/contracts/access/Ownable.sol\":1531:1542  _checkOwner */\n      tag_129\n        /* \"@openzeppelin/contracts/access/Ownable.sol\":1531:1544  _checkOwner() */\n      jump\t// in\n    tag_128:\n        /* \"Will.sol\":4531:4547  WillState.Active */\n      0x01\n      dup1\n        /* \"Will.sol\":2546:2558  currentState */\n      0x02\n      dup1\n      sload\n      0xff\n      and\n      swap1\n        /* \"Will.sol\":2546:2568  currentState == _state */\n      dup2\n      gt\n      iszero\n      tag_135\n      jumpi\n      tag_135\n      tag_133\n      jump\t// in\n    tag_135:\n      eq\n        /* \"Will.sol\":2538:2608  require(currentState == _state, \"Will: Invalid state for this action\") */\n      tag_136\n      jumpi\n      mload(0x40)\n      shl(0xe5, 0x461bcd)\n      dup2\n      mstore\n      0x04\n      add\n      tag_137\n      swap1\n      tag_138\n      jump\t// in\n    tag_137:\n      mload(0x40)\n      dup1\n      swap2\n      sub\n      swap1\n      revert\n    tag_136:\n        /* \"Will.sol\":561:579  _preReentryCheck() */\n      tag_140\n        /* \"Will.sol\":561:577  _preReentryCheck */\n      tag_141\n        /* \"Will.sol\":561:579  _preReentryCheck() */\n      jump\t// in\n    tag_140:\n        /* \"Will.sol\":441:442  2 */\n      0x02\n        /* \"Will.sol\":590:597  _status */\n      0x01\n        /* \"Will.sol\":590:608  _status = _ENTERED */\n      sstore\n        /* \"Will.sol\":4573:4591  _returnAllAssets() */\n      tag_143\n        /* \"Will.sol\":4573:4589  _returnAllAssets */\n      tag_144\n        /* \"Will.sol\":4573:4591  _returnAllAssets() */\n      jump\t// in\n    tag_143:\n        /* \"Will.sol\":4602:4614  delete heirs */\n      tag_145\n        /* \"Will.sol\":4609:4614  heirs */\n      0x04\n      0x00\n        /* \"Will.sol\":4602:4614  delete heirs */\n      tag_146\n      jump\t// in\n    tag_145:\n        /* \"Will.sol\":4625:4655  delete distributionPercentages */\n      tag_147\n        /* \"Will.sol\":4632:4655  distributionPercentages */\n      0x05\n      0x00\n        /* \"Will.sol\":4625:4655  delete distributionPercentages */\n      tag_146\n      jump\t// in\n    tag_147:\n        /* \"Will.sol\":4666:4684  delete erc20Assets */\n      tag_149\n        /* \"Will.sol\":4673:4684  erc20Assets */\n      0x06\n      0x00\n        /* \"Will.sol\":4666:4684  delete erc20Assets */\n      tag_150\n      jump\t// in\n    tag_149:\n        /* \"Will.sol\":4695:4714  delete erc721Assets */\n      tag_151\n        /* \"Will.sol\":4702:4714  erc721Assets */\n      0x07\n      0x00\n        /* \"Will.sol\":4695:4714  delete erc721Assets */\n      tag_152\n      jump\t// in\n    tag_151:\n        /* \"Will.sol\":4725:4737  currentState */\n      0x02\n        /* \"Will.sol\":4725:4755  currentState = WillState.Empty */\n      dup1\n      sload\n      not(0xff)\n      and\n      swap1\n      sstore\n      0x00\n        /* \"@openzeppelin/contracts/access/Ownable.sol\":1710:1716  _owner */\n      dup1\n      sload\n        /* \"Will.sol\":4771:4791  WillEmptied(owner()) */\n      mload(0x40)\n      sub(shl(0xa0, 0x01), 0x01)\n        /* \"@openzeppelin/contracts/access/Ownable.sol\":1710:1716  _owner */\n      swap1\n      swap2\n      and\n      swap2\n        /* \"Will.sol\":4771:4791  WillEmptied(owner()) */\n      0x5af2b6dcdccc1dd52ee38632afee0bc3ac6def619ed4132f2f9a40ff48ec74f2\n      swap2\n      log2\n      pop\n        /* \"Will.sol\":397:398  1 */\n      0x01\n        /* \"Will.sol\":631:653  _status = _NOT_ENTERED */\n      dup1\n      sstore\n        /* \"Will.sol\":4470:4799  function emptyWillForEdit() external onlyOwner requiresState(WillState.Active) nonReentrant {... */\n      jump\t// out\n        /* \"Will.sol\":5437:5583  function ping() external onlyOwner requiresState(WillState.Active) {... */\n    tag_54:\n        /* \"@openzeppelin/contracts/access/Ownable.sol\":1531:1544  _checkOwner() */\n      tag_157\n        /* \"@openzeppelin/contracts/access/Ownable.sol\":1531:1542  _checkOwner */\n      tag_129\n        /* \"@openzeppelin/contracts/access/Ownable.sol\":1531:1544  _checkOwner() */\n      jump\t// in\n    tag_157:\n        /* \"Will.sol\":5486:5502  WillState.Active */\n      0x01\n      dup1\n        /* \"Will.sol\":2546:2558  currentState */\n      0x02\n      dup1\n      sload\n      0xff\n      and\n      swap1\n        /* \"Will.sol\":2546:2568  currentState == _state */\n      dup2\n      gt\n      iszero\n      tag_162\n      jumpi\n      tag_162\n      tag_133\n      jump\t// in\n    tag_162:\n      eq\n        /* \"Will.sol\":2538:2608  require(currentState == _state, \"Will: Invalid state for this action\") */\n      tag_163\n      jumpi\n      mload(0x40)\n      shl(0xe5, 0x461bcd)\n      dup2\n      mstore\n      0x04\n      add\n      tag_137\n      swap1\n      tag_138\n      jump\t// in\n    tag_163:\n        /* \"Will.sol\":5528:5543  block.timestamp */\n      timestamp\n        /* \"Will.sol\":5515:5525  lastUpdate */\n      0x03\n        /* \"Will.sol\":5515:5543  lastUpdate = block.timestamp */\n      dup2\n      swap1\n      sstore\n        /* \"Will.sol\":5559:5575  Ping(lastUpdate) */\n      mload(0x40)\n        /* \"#utility.yul\":1140:1165   */\n      swap1\n      dup2\n      mstore\n        /* \"Will.sol\":5559:5575  Ping(lastUpdate) */\n      0x48257dc961b6f792c2b78a080dacfed693b660960a702de21cee364e20270e2f\n      swap1\n        /* \"#utility.yul\":1128:1130   */\n      0x20\n        /* \"#utility.yul\":1113:1131   */\n      add\n        /* \"Will.sol\":5559:5575  Ping(lastUpdate) */\n      mload(0x40)\n      dup1\n      swap2\n      sub\n      swap1\n      log1\n        /* \"@openzeppelin/contracts/access/Ownable.sol\":1554:1555  _ */\n      pop\n        /* \"Will.sol\":5437:5583  function ping() external onlyOwner requiresState(WillState.Active) {... */\n      jump\t// out\n        /* \"Will.sol\":5591:7872  function execute() external requiresState(WillState.Active) nonReentrant {... */\n    tag_57:\n        /* \"Will.sol\":5633:5649  WillState.Active */\n      0x01\n      dup1\n        /* \"Will.sol\":2546:2558  currentState */\n      0x02\n      dup1\n      sload\n      0xff\n      and\n      swap1\n        /* \"Will.sol\":2546:2568  currentState == _state */\n      dup2\n      gt\n      iszero\n      tag_171\n      jumpi\n      tag_171\n      tag_133\n      jump\t// in\n    tag_171:\n      eq\n        /* \"Will.sol\":2538:2608  require(currentState == _state, \"Will: Invalid state for this action\") */\n      tag_172\n      jumpi\n      mload(0x40)\n      shl(0xe5, 0x461bcd)\n      dup2\n      mstore\n      0x04\n      add\n      tag_137\n      swap1\n      tag_138\n      jump\t// in\n    tag_172:\n        /* \"Will.sol\":561:579  _preReentryCheck() */\n      tag_175\n        /* \"Will.sol\":561:577  _preReentryCheck */\n      tag_141\n        /* \"Will.sol\":561:579  _preReentryCheck() */\n      jump\t// in\n    tag_175:\n        /* \"Will.sol\":441:442  2 */\n      0x02\n        /* \"Will.sol\":590:597  _status */\n      0x01\n        /* \"Will.sol\":590:608  _status = _ENTERED */\n      sstore\n        /* \"Will.sol\":5700:5710  lastUpdate */\n      sload(0x03)\n        /* \"Will.sol\":5675:5697  uint256 gracePeriodEnd */\n      0x00\n      swap1\n        /* \"Will.sol\":5700:5721  lastUpdate + interval */\n      tag_177\n      swap1\n        /* \"Will.sol\":5713:5721  interval */\n      immutable(\"0xc40f7608bb89a6dc7aa17f3e1230f56b2e6b59319af129191c75cf59e69bfe22\")\n      swap1\n        /* \"Will.sol\":5700:5721  lastUpdate + interval */\n      tag_178\n      jump\t// in\n    tag_177:\n        /* \"Will.sol\":5675:5721  uint256 gracePeriodEnd = lastUpdate + interval */\n      swap1\n      pop\n        /* \"Will.sol\":5759:5773  gracePeriodEnd */\n      dup1\n        /* \"Will.sol\":5740:5755  block.timestamp */\n      timestamp\n        /* \"Will.sol\":5740:5773  block.timestamp >= gracePeriodEnd */\n      lt\n      iszero\n        /* \"Will.sol\":5732:5805  require(block.timestamp >= gracePeriodEnd, \"Grace period has not ended.\") */\n      tag_179\n      jumpi\n      mload(0x40)\n      shl(0xe5, 0x461bcd)\n      dup2\n      mstore\n        /* \"#utility.yul\":11003:11005   */\n      0x20\n        /* \"Will.sol\":5732:5805  require(block.timestamp >= gracePeriodEnd, \"Grace period has not ended.\") */\n      0x04\n      dup3\n      add\n        /* \"#utility.yul\":10985:11006   */\n      mstore\n        /* \"#utility.yul\":11042:11044   */\n      0x1b\n        /* \"#utility.yul\":11022:11040   */\n      0x24\n      dup3\n      add\n        /* \"#utility.yul\":11015:11045   */\n      mstore\n        /* \"#utility.yul\":11081:11110   */\n      0x477261636520706572696f6420686173206e6f7420656e6465642e0000000000\n        /* \"#utility.yul\":11061:11079   */\n      0x44\n      dup3\n      add\n        /* \"#utility.yul\":11054:11111   */\n      mstore\n        /* \"#utility.yul\":11128:11146   */\n      0x64\n      add\n        /* \"Will.sol\":5732:5805  require(block.timestamp >= gracePeriodEnd, \"Grace period has not ended.\") */\n      tag_137\n        /* \"#utility.yul\":10801:11152   */\n      jump\n        /* \"Will.sol\":5732:5805  require(block.timestamp >= gracePeriodEnd, \"Grace period has not ended.\") */\n    tag_179:\n        /* \"Will.sol\":5816:5841  uint256 executorPeriodEnd */\n      0x00\n        /* \"Will.sol\":5844:5876  gracePeriodEnd + EXECUTOR_WINDOW */\n      tag_182\n        /* \"Will.sol\":1759:1765  1 days */\n      0x015180\n        /* \"Will.sol\":5844:5858  gracePeriodEnd */\n      dup4\n        /* \"Will.sol\":5844:5876  gracePeriodEnd + EXECUTOR_WINDOW */\n      tag_178\n      jump\t// in\n    tag_182:\n        /* \"Will.sol\":5816:5876  uint256 executorPeriodEnd = gracePeriodEnd + EXECUTOR_WINDOW */\n      swap1\n      pop\n        /* \"Will.sol\":5909:5926  executorPeriodEnd */\n      dup1\n        /* \"Will.sol\":5891:5906  block.timestamp */\n      timestamp\n        /* \"Will.sol\":5891:5926  block.timestamp < executorPeriodEnd */\n      lt\n        /* \"Will.sol\":5887:6012  if (block.timestamp < executorPeriodEnd) { require(msg.sender == executorAddress, \"Only designated executor can call now\"); } */\n      iszero\n      tag_184\n      jumpi\n        /* \"Will.sol\":5938:5948  msg.sender */\n      caller\n      sub(shl(0xa0, 0x01), 0x01)\n        /* \"Will.sol\":5952:5967  executorAddress */\n      immutable(\"0xacd088948164483a37f73989f1c27b47a5586ebd1d004d9f6dfdcef17082f275\")\n        /* \"Will.sol\":5938:5967  msg.sender == executorAddress */\n      and\n      eq\n        /* \"Will.sol\":5930:6009  require(msg.sender == executorAddress, \"Only designated executor can call now\") */\n      tag_184\n      jumpi\n      mload(0x40)\n      shl(0xe5, 0x461bcd)\n      dup2\n      mstore\n        /* \"#utility.yul\":11359:11361   */\n      0x20\n        /* \"Will.sol\":5930:6009  require(msg.sender == executorAddress, \"Only designated executor can call now\") */\n      0x04\n      dup3\n      add\n        /* \"#utility.yul\":11341:11362   */\n      mstore\n        /* \"#utility.yul\":11398:11400   */\n      0x25\n        /* \"#utility.yul\":11378:11396   */\n      0x24\n      dup3\n      add\n        /* \"#utility.yul\":11371:11401   */\n      mstore\n        /* \"#utility.yul\":11437:11471   */\n      0x4f6e6c792064657369676e61746564206578656375746f722063616e2063616c\n        /* \"#utility.yul\":11417:11435   */\n      0x44\n      dup3\n      add\n        /* \"#utility.yul\":11410:11472   */\n      mstore\n      shl(0xd8, 0x6c206e6f77)\n        /* \"#utility.yul\":11488:11506   */\n      0x64\n      dup3\n      add\n        /* \"#utility.yul\":11481:11516   */\n      mstore\n        /* \"#utility.yul\":11533:11552   */\n      0x84\n      add\n        /* \"Will.sol\":5930:6009  require(msg.sender == executorAddress, \"Only designated executor can call now\") */\n      tag_137\n        /* \"#utility.yul\":11157:11558   */\n      jump\n        /* \"Will.sol\":5930:6009  require(msg.sender == executorAddress, \"Only designated executor can call now\") */\n    tag_184:\n        /* \"Will.sol\":6047:6065  WillState.Executed */\n      0x02\n        /* \"Will.sol\":6032:6065  currentState = WillState.Executed */\n      dup1\n      sload\n      not(0xff)\n      and\n      dup2\n      or\n      swap1\n      sstore\n      0x00\n        /* \"Will.sol\":6100:6115  block.timestamp */\n      timestamp\n        /* \"Will.sol\":6100:6135  block.timestamp < executorPeriodEnd */\n      dup3\n      gt\n        /* \"Will.sol\":6099:6166  (block.timestamp < executorPeriodEnd) ? sourceContract : msg.sender */\n      tag_189\n      jumpi\n        /* \"Will.sol\":6156:6166  msg.sender */\n      caller\n        /* \"Will.sol\":6099:6166  (block.timestamp < executorPeriodEnd) ? sourceContract : msg.sender */\n      jump(tag_190)\n    tag_189:\n        /* \"Will.sol\":6139:6153  sourceContract */\n      immutable(\"0xd094ef07eef1924f3d7fe3d896f6ebece97bd5683077be90743b91a72d59db67\")\n        /* \"Will.sol\":6099:6166  (block.timestamp < executorPeriodEnd) ? sourceContract : msg.sender */\n    tag_190:\n        /* \"Will.sol\":6076:6166  address feeRecipient = (block.timestamp < executorPeriodEnd) ? sourceContract : msg.sender */\n      swap1\n      pop\n        /* \"Will.sol\":6177:6196  uint256 totalEthFee */\n      0x00\n        /* \"Will.sol\":6230:6251  address(this).balance */\n      selfbalance\n        /* \"Will.sol\":6266:6278  totalEth > 0 */\n      dup1\n      iszero\n        /* \"Will.sol\":6262:6880  if (totalEth > 0) {... */\n      tag_191\n      jumpi\n        /* \"Will.sol\":6295:6309  uint256 ethFee */\n      0x00\n        /* \"Will.sol\":6345:6350  10000 */\n      0x2710\n        /* \"Will.sol\":6313:6341  totalEth * EXECUTION_FEE_BPS */\n      tag_192\n        /* \"Will.sol\":1816:1818  50 */\n      0x32\n        /* \"Will.sol\":6313:6321  totalEth */\n      dup5\n        /* \"Will.sol\":6313:6341  totalEth * EXECUTION_FEE_BPS */\n      tag_193\n      jump\t// in\n    tag_192:\n        /* \"Will.sol\":6312:6350  (totalEth * EXECUTION_FEE_BPS) / 10000 */\n      tag_194\n      swap2\n      swap1\n      tag_195\n      jump\t// in\n    tag_194:\n        /* \"Will.sol\":6295:6350  uint256 ethFee = (totalEth * EXECUTION_FEE_BPS) / 10000 */\n      swap3\n      pop\n      dup3\n      swap1\n      pop\n        /* \"Will.sol\":6400:6424  uint256 distributableEth */\n      0x00\n        /* \"Will.sol\":6427:6444  totalEth - ethFee */\n      tag_196\n        /* \"Will.sol\":6295:6350  uint256 ethFee = (totalEth * EXECUTION_FEE_BPS) / 10000 */\n      dup3\n        /* \"Will.sol\":6427:6435  totalEth */\n      dup5\n        /* \"Will.sol\":6427:6444  totalEth - ethFee */\n      tag_197\n      jump\t// in\n    tag_196:\n        /* \"Will.sol\":6400:6444  uint256 distributableEth = totalEth - ethFee */\n      swap1\n      pop\n        /* \"Will.sol\":6463:6473  ethFee > 0 */\n      dup2\n      iszero\n        /* \"Will.sol\":6459:6577  if (ethFee > 0) { (bool s, ) = payable(feeRecipient).call{value: ethFee}(\"\"); require(s, \"ETH fee transfer failed\"); } */\n      tag_198\n      jumpi\n        /* \"Will.sol\":6478:6484  bool s */\n      0x00\n        /* \"Will.sol\":6498:6510  feeRecipient */\n      dup6\n      sub(shl(0xa0, 0x01), 0x01)\n        /* \"Will.sol\":6490:6516  payable(feeRecipient).call */\n      and\n        /* \"Will.sol\":6524:6530  ethFee */\n      dup4\n        /* \"Will.sol\":6490:6535  payable(feeRecipient).call{value: ethFee}(\"\") */\n      mload(0x40)\n      0x00\n      mload(0x40)\n      dup1\n      dup4\n      sub\n      dup2\n      dup6\n      dup8\n      gas\n      call\n      swap3\n      pop\n      pop\n      pop\n      returndatasize\n      dup1\n      0x00\n      dup2\n      eq\n      tag_203\n      jumpi\n      mload(0x40)\n      swap2\n      pop\n      and(add(returndatasize, 0x3f), not(0x1f))\n      dup3\n      add\n      0x40\n      mstore\n      returndatasize\n      dup3\n      mstore\n      returndatasize\n      0x00\n      0x20\n      dup5\n      add\n      returndatacopy\n      jump(tag_202)\n    tag_203:\n      0x60\n      swap2\n      pop\n    tag_202:\n      pop\n        /* \"Will.sol\":6477:6535  (bool s, ) = payable(feeRecipient).call{value: ethFee}(\"\") */\n      pop\n      swap1\n      pop\n        /* \"Will.sol\":6545:6546  s */\n      dup1\n        /* \"Will.sol\":6537:6574  require(s, \"ETH fee transfer failed\") */\n      tag_204\n      jumpi\n      mload(0x40)\n      shl(0xe5, 0x461bcd)\n      dup2\n      mstore\n        /* \"#utility.yul\":12503:12505   */\n      0x20\n        /* \"Will.sol\":6537:6574  require(s, \"ETH fee transfer failed\") */\n      0x04\n      dup3\n      add\n        /* \"#utility.yul\":12485:12506   */\n      mstore\n        /* \"#utility.yul\":12542:12544   */\n      0x17\n        /* \"#utility.yul\":12522:12540   */\n      0x24\n      dup3\n      add\n        /* \"#utility.yul\":12515:12545   */\n      mstore\n        /* \"#utility.yul\":12581:12606   */\n      0x45544820666565207472616e73666572206661696c6564000000000000000000\n        /* \"#utility.yul\":12561:12579   */\n      0x44\n      dup3\n      add\n        /* \"#utility.yul\":12554:12607   */\n      mstore\n        /* \"#utility.yul\":12624:12642   */\n      0x64\n      add\n        /* \"Will.sol\":6537:6574  require(s, \"ETH fee transfer failed\") */\n      tag_137\n        /* \"#utility.yul\":12301:12648   */\n      jump\n        /* \"Will.sol\":6537:6574  require(s, \"ETH fee transfer failed\") */\n    tag_204:\n        /* \"Will.sol\":6475:6577  { (bool s, ) = payable(feeRecipient).call{value: ethFee}(\"\"); require(s, \"ETH fee transfer failed\"); } */\n      pop\n        /* \"Will.sol\":6459:6577  if (ethFee > 0) { (bool s, ) = payable(feeRecipient).call{value: ethFee}(\"\"); require(s, \"ETH fee transfer failed\"); } */\n    tag_198:\n        /* \"Will.sol\":6596:6602  uint i */\n      0x00\n        /* \"Will.sol\":6591:6869  for (uint i = 0; i < heirs.length; i++) {... */\n    tag_207:\n        /* \"Will.sol\":6612:6617  heirs */\n      0x04\n        /* \"Will.sol\":6612:6624  heirs.length */\n      sload\n        /* \"Will.sol\":6608:6624  i < heirs.length */\n      dup2\n      lt\n        /* \"Will.sol\":6591:6869  for (uint i = 0; i < heirs.length; i++) {... */\n      iszero\n      tag_208\n      jumpi\n        /* \"Will.sol\":6650:6663  uint256 share */\n      0x00\n        /* \"Will.sol\":6716:6719  100 */\n      0x64\n        /* \"Will.sol\":6686:6709  distributionPercentages */\n      0x05\n        /* \"Will.sol\":6710:6711  i */\n      dup4\n        /* \"Will.sol\":6686:6712  distributionPercentages[i] */\n      dup2\n      sload\n      dup2\n      lt\n      tag_211\n      jumpi\n      tag_211\n      tag_212\n      jump\t// in\n    tag_211:\n      swap1\n      0x00\n      mstore\n      keccak256(0x00, 0x20)\n      add\n      sload\n        /* \"Will.sol\":6667:6683  distributableEth */\n      dup5\n        /* \"Will.sol\":6667:6712  distributableEth * distributionPercentages[i] */\n      tag_214\n      swap2\n      swap1\n      tag_193\n      jump\t// in\n    tag_214:\n        /* \"Will.sol\":6666:6719  (distributableEth * distributionPercentages[i]) / 100 */\n      tag_215\n      swap2\n      swap1\n      tag_195\n      jump\t// in\n    tag_215:\n        /* \"Will.sol\":6650:6719  uint256 share = (distributableEth * distributionPercentages[i]) / 100 */\n      swap1\n      pop\n        /* \"Will.sol\":6742:6751  share > 0 */\n      dup1\n      iszero\n        /* \"Will.sol\":6738:6854  if (share > 0) { (bool s, ) = payable(heirs[i]).call{value: share}(\"\"); require(s, \"ETH transfer to heir failed\"); } */\n      tag_216\n      jumpi\n        /* \"Will.sol\":6756:6762  bool s */\n      0x00\n        /* \"Will.sol\":6776:6781  heirs */\n      0x04\n        /* \"Will.sol\":6782:6783  i */\n      dup4\n        /* \"Will.sol\":6776:6784  heirs[i] */\n      dup2\n      sload\n      dup2\n      lt\n      tag_218\n      jumpi\n      tag_218\n      tag_212\n      jump\t// in\n    tag_218:\n      0x00\n      swap2\n      dup3\n      mstore\n      0x20\n      dup3\n      keccak256\n      add\n      sload\n        /* \"Will.sol\":6768:6808  payable(heirs[i]).call{value: share}(\"\") */\n      mload(0x40)\n      sub(shl(0xa0, 0x01), 0x01)\n        /* \"Will.sol\":6776:6784  heirs[i] */\n      swap1\n      swap2\n      and\n      swap2\n        /* \"Will.sol\":6798:6803  share */\n      dup5\n      swap2\n        /* \"Will.sol\":6768:6808  payable(heirs[i]).call{value: share}(\"\") */\n      swap1\n      dup2\n        /* \"Will.sol\":6776:6784  heirs[i] */\n      dup2\n        /* \"Will.sol\":6768:6808  payable(heirs[i]).call{value: share}(\"\") */\n      dup2\n        /* \"Will.sol\":6798:6803  share */\n      dup6\n        /* \"Will.sol\":6776:6784  heirs[i] */\n      dup8\n        /* \"Will.sol\":6768:6808  payable(heirs[i]).call{value: share}(\"\") */\n      gas\n      call\n      swap3\n      pop\n      pop\n      pop\n      returndatasize\n      dup1\n      0x00\n      dup2\n      eq\n      tag_223\n      jumpi\n      mload(0x40)\n      swap2\n      pop\n      and(add(returndatasize, 0x3f), not(0x1f))\n      dup3\n      add\n      0x40\n      mstore\n      returndatasize\n      dup3\n      mstore\n      returndatasize\n      0x00\n      0x20\n      dup5\n      add\n      returndatacopy\n      jump(tag_222)\n    tag_223:\n      0x60\n      swap2\n      pop\n    tag_222:\n      pop\n        /* \"Will.sol\":6755:6808  (bool s, ) = payable(heirs[i]).call{value: share}(\"\") */\n      pop\n      swap1\n      pop\n        /* \"Will.sol\":6818:6819  s */\n      dup1\n        /* \"Will.sol\":6810:6851  require(s, \"ETH transfer to heir failed\") */\n      tag_224\n      jumpi\n      mload(0x40)\n      shl(0xe5, 0x461bcd)\n      dup2\n      mstore\n        /* \"#utility.yul\":12987:12989   */\n      0x20\n        /* \"Will.sol\":6810:6851  require(s, \"ETH transfer to heir failed\") */\n      0x04\n      dup3\n      add\n        /* \"#utility.yul\":12969:12990   */\n      mstore\n        /* \"#utility.yul\":13026:13028   */\n      0x1b\n        /* \"#utility.yul\":13006:13024   */\n      0x24\n      dup3\n      add\n        /* \"#utility.yul\":12999:13029   */\n      mstore\n        /* \"#utility.yul\":13065:13094   */\n      0x455448207472616e7366657220746f2068656972206661696c65640000000000\n        /* \"#utility.yul\":13045:13063   */\n      0x44\n      dup3\n      add\n        /* \"#utility.yul\":13038:13095   */\n      mstore\n        /* \"#utility.yul\":13112:13130   */\n      0x64\n      add\n        /* \"Will.sol\":6810:6851  require(s, \"ETH transfer to heir failed\") */\n      tag_137\n        /* \"#utility.yul\":12785:13136   */\n      jump\n        /* \"Will.sol\":6810:6851  require(s, \"ETH transfer to heir failed\") */\n    tag_224:\n        /* \"Will.sol\":6753:6854  { (bool s, ) = payable(heirs[i]).call{value: share}(\"\"); require(s, \"ETH transfer to heir failed\"); } */\n      pop\n        /* \"Will.sol\":6738:6854  if (share > 0) { (bool s, ) = payable(heirs[i]).call{value: share}(\"\"); require(s, \"ETH transfer to heir failed\"); } */\n    tag_216:\n      pop\n        /* \"Will.sol\":6626:6629  i++ */\n      0x01\n      add\n        /* \"Will.sol\":6591:6869  for (uint i = 0; i < heirs.length; i++) {... */\n      jump(tag_207)\n    tag_208:\n      pop\n        /* \"Will.sol\":6280:6880  {... */\n      pop\n      pop\n        /* \"Will.sol\":6262:6880  if (totalEth > 0) {... */\n    tag_191:\n        /* \"Will.sol\":6895:6901  uint i */\n      0x00\n        /* \"Will.sol\":6890:7591  for (uint i = 0; i < erc20Assets.length; i++) {... */\n    tag_227:\n        /* \"Will.sol\":6911:6922  erc20Assets */\n      0x06\n        /* \"Will.sol\":6911:6929  erc20Assets.length */\n      sload\n        /* \"Will.sol\":6907:6929  i < erc20Assets.length */\n      dup2\n      lt\n        /* \"Will.sol\":6890:7591  for (uint i = 0; i < erc20Assets.length; i++) {... */\n      iszero\n      tag_228\n      jumpi\n        /* \"Will.sol\":6951:6963  IERC20 token */\n      0x00\n        /* \"Will.sol\":6966:6977  erc20Assets */\n      0x06\n        /* \"Will.sol\":6978:6979  i */\n      dup3\n        /* \"Will.sol\":6966:6980  erc20Assets[i] */\n      dup2\n      sload\n      dup2\n      lt\n      tag_231\n      jumpi\n      tag_231\n      tag_212\n      jump\t// in\n    tag_231:\n      0x00\n      swap2\n      dup3\n      mstore\n      0x20\n      dup3\n      keccak256\n      add\n        /* \"Will.sol\":6966:6986  erc20Assets[i].token */\n      sload\n        /* \"Will.sol\":7023:7053  token.balanceOf(address(this)) */\n      mload(0x40)\n      shl(0xe0, 0x70a08231)\n      dup2\n      mstore\n        /* \"Will.sol\":7047:7051  this */\n      address\n        /* \"Will.sol\":7023:7053  token.balanceOf(address(this)) */\n      0x04\n      dup3\n      add\n        /* \"#utility.yul\":932:983   */\n      mstore\n      sub(shl(0xa0, 0x01), 0x01)\n        /* \"Will.sol\":6966:6986  erc20Assets[i].token */\n      swap1\n      swap2\n      and\n      swap3\n      pop\n      dup3\n      swap1\n        /* \"Will.sol\":7023:7038  token.balanceOf */\n      0x70a08231\n      swap1\n        /* \"#utility.yul\":905:923   */\n      0x24\n      add\n        /* \"Will.sol\":7023:7053  token.balanceOf(address(this)) */\n      0x20\n      mload(0x40)\n      dup1\n      dup4\n      sub\n      dup2\n      dup7\n      gas\n      staticcall\n      iszero\n      dup1\n      iszero\n      tag_235\n      jumpi\n      returndatasize\n      0x00\n      dup1\n      returndatacopy\n      revert(0x00, returndatasize)\n    tag_235:\n      pop\n      pop\n      pop\n      pop\n      mload(0x40)\n      returndatasize\n      not(0x1f)\n      0x1f\n      dup3\n      add\n      and\n      dup3\n      add\n      dup1\n      0x40\n      mstore\n      pop\n      dup2\n      add\n      swap1\n      tag_236\n      swap2\n      swap1\n      tag_237\n      jump\t// in\n    tag_236:\n        /* \"Will.sol\":7001:7053  uint256 totalTokens = token.balanceOf(address(this)) */\n      swap1\n      pop\n        /* \"Will.sol\":7072:7087  totalTokens > 0 */\n      dup1\n      iszero\n        /* \"Will.sol\":7068:7580  if (totalTokens > 0) {... */\n      tag_238\n      jumpi\n        /* \"Will.sol\":7108:7124  uint256 tokenFee */\n      0x00\n        /* \"Will.sol\":7163:7168  10000 */\n      0x2710\n        /* \"Will.sol\":7128:7159  totalTokens * EXECUTION_FEE_BPS */\n      tag_239\n        /* \"Will.sol\":1816:1818  50 */\n      0x32\n        /* \"Will.sol\":7128:7139  totalTokens */\n      dup5\n        /* \"Will.sol\":7128:7159  totalTokens * EXECUTION_FEE_BPS */\n      tag_193\n      jump\t// in\n    tag_239:\n        /* \"Will.sol\":7127:7168  (totalTokens * EXECUTION_FEE_BPS) / 10000 */\n      tag_240\n      swap2\n      swap1\n      tag_195\n      jump\t// in\n    tag_240:\n        /* \"Will.sol\":7108:7168  uint256 tokenFee = (totalTokens * EXECUTION_FEE_BPS) / 10000 */\n      swap1\n      pop\n        /* \"Will.sol\":7187:7214  uint256 distributableTokens */\n      0x00\n        /* \"Will.sol\":7217:7239  totalTokens - tokenFee */\n      tag_241\n        /* \"Will.sol\":7108:7168  uint256 tokenFee = (totalTokens * EXECUTION_FEE_BPS) / 10000 */\n      dup3\n        /* \"Will.sol\":7217:7228  totalTokens */\n      dup5\n        /* \"Will.sol\":7217:7239  totalTokens - tokenFee */\n      tag_197\n      jump\t// in\n    tag_241:\n        /* \"Will.sol\":7187:7239  uint256 distributableTokens = totalTokens - tokenFee */\n      swap1\n      pop\n        /* \"Will.sol\":7262:7274  tokenFee > 0 */\n      dup2\n      iszero\n        /* \"Will.sol\":7258:7319  if (tokenFee > 0) { token.transfer(feeRecipient, tokenFee); } */\n      tag_242\n      jumpi\n        /* \"Will.sol\":7278:7316  token.transfer(feeRecipient, tokenFee) */\n      mload(0x40)\n      shl(0xe0, 0xa9059cbb)\n      dup2\n      mstore\n      sub(shl(0xa0, 0x01), 0x01)\n        /* \"#utility.yul\":13522:13554   */\n      dup10\n      dup2\n      and\n        /* \"Will.sol\":7278:7316  token.transfer(feeRecipient, tokenFee) */\n      0x04\n      dup4\n      add\n        /* \"#utility.yul\":13504:13555   */\n      mstore\n        /* \"#utility.yul\":13571:13589   */\n      0x24\n      dup3\n      add\n        /* \"#utility.yul\":13564:13598   */\n      dup5\n      swap1\n      mstore\n        /* \"Will.sol\":7278:7292  token.transfer */\n      dup6\n      and\n      swap1\n      0xa9059cbb\n      swap1\n        /* \"#utility.yul\":13477:13495   */\n      0x44\n      add\n        /* \"Will.sol\":7278:7316  token.transfer(feeRecipient, tokenFee) */\n      0x20\n      mload(0x40)\n      dup1\n      dup4\n      sub\n      dup2\n      0x00\n      dup8\n      gas\n      call\n      iszero\n      dup1\n      iszero\n      tag_246\n      jumpi\n      returndatasize\n      0x00\n      dup1\n      returndatacopy\n      revert(0x00, returndatasize)\n    tag_246:\n      pop\n      pop\n      pop\n      pop\n      mload(0x40)\n      returndatasize\n      not(0x1f)\n      0x1f\n      dup3\n      add\n      and\n      dup3\n      add\n      dup1\n      0x40\n      mstore\n      pop\n      dup2\n      add\n      swap1\n      tag_247\n      swap2\n      swap1\n      tag_248\n      jump\t// in\n    tag_247:\n      pop\n        /* \"Will.sol\":7258:7319  if (tokenFee > 0) { token.transfer(feeRecipient, tokenFee); } */\n    tag_242:\n        /* \"Will.sol\":7342:7348  uint j */\n      0x00\n        /* \"Will.sol\":7337:7565  for (uint j = 0; j < heirs.length; j++) {... */\n    tag_249:\n        /* \"Will.sol\":7358:7363  heirs */\n      0x04\n        /* \"Will.sol\":7358:7370  heirs.length */\n      sload\n        /* \"Will.sol\":7354:7370  j < heirs.length */\n      dup2\n      lt\n        /* \"Will.sol\":7337:7565  for (uint j = 0; j < heirs.length; j++) {... */\n      iszero\n      tag_250\n      jumpi\n        /* \"Will.sol\":7400:7413  uint256 share */\n      0x00\n        /* \"Will.sol\":7469:7472  100 */\n      0x64\n        /* \"Will.sol\":7439:7462  distributionPercentages */\n      0x05\n        /* \"Will.sol\":7463:7464  j */\n      dup4\n        /* \"Will.sol\":7439:7465  distributionPercentages[j] */\n      dup2\n      sload\n      dup2\n      lt\n      tag_253\n      jumpi\n      tag_253\n      tag_212\n      jump\t// in\n    tag_253:\n      swap1\n      0x00\n      mstore\n      keccak256(0x00, 0x20)\n      add\n      sload\n        /* \"Will.sol\":7417:7436  distributableTokens */\n      dup5\n        /* \"Will.sol\":7417:7465  distributableTokens * distributionPercentages[j] */\n      tag_255\n      swap2\n      swap1\n      tag_193\n      jump\t// in\n    tag_255:\n        /* \"Will.sol\":7416:7472  (distributableTokens * distributionPercentages[j]) / 100 */\n      tag_256\n      swap2\n      swap1\n      tag_195\n      jump\t// in\n    tag_256:\n        /* \"Will.sol\":7400:7472  uint256 share = (distributableTokens * distributionPercentages[j]) / 100 */\n      swap1\n      pop\n        /* \"Will.sol\":7499:7508  share > 0 */\n      dup1\n      iszero\n        /* \"Will.sol\":7495:7546  if (share > 0) { token.transfer(heirs[j], share); } */\n      tag_257\n      jumpi\n        /* \"Will.sol\":7512:7517  token */\n      dup6\n      sub(shl(0xa0, 0x01), 0x01)\n        /* \"Will.sol\":7512:7526  token.transfer */\n      and\n      0xa9059cbb\n        /* \"Will.sol\":7527:7532  heirs */\n      0x04\n        /* \"Will.sol\":7533:7534  j */\n      dup5\n        /* \"Will.sol\":7527:7535  heirs[j] */\n      dup2\n      sload\n      dup2\n      lt\n      tag_259\n      jumpi\n      tag_259\n      tag_212\n      jump\t// in\n    tag_259:\n      0x00\n      swap2\n      dup3\n      mstore\n      0x20\n      swap1\n      swap2\n      keccak256\n      add\n      sload\n        /* \"Will.sol\":7512:7543  token.transfer(heirs[j], share) */\n      mload(0x40)\n      0xe0\n      dup4\n      swap1\n      shl\n      not(sub(shl(0xe0, 0x01), 0x01))\n      and\n      dup2\n      mstore\n      sub(shl(0xa0, 0x01), 0x01)\n        /* \"Will.sol\":7527:7535  heirs[j] */\n      swap1\n      swap2\n      and\n        /* \"Will.sol\":7512:7543  token.transfer(heirs[j], share) */\n      0x04\n      dup3\n      add\n        /* \"#utility.yul\":13504:13555   */\n      mstore\n        /* \"#utility.yul\":13571:13589   */\n      0x24\n      dup2\n      add\n        /* \"#utility.yul\":13564:13598   */\n      dup5\n      swap1\n      mstore\n        /* \"#utility.yul\":13477:13495   */\n      0x44\n      add\n        /* \"Will.sol\":7512:7543  token.transfer(heirs[j], share) */\n      0x20\n      mload(0x40)\n      dup1\n      dup4\n      sub\n      dup2\n      0x00\n      dup8\n      gas\n      call\n      iszero\n      dup1\n      iszero\n      tag_263\n      jumpi\n      returndatasize\n      0x00\n      dup1\n      returndatacopy\n      revert(0x00, returndatasize)\n    tag_263:\n      pop\n      pop\n      pop\n      pop\n      mload(0x40)\n      returndatasize\n      not(0x1f)\n      0x1f\n      dup3\n      add\n      and\n      dup3\n      add\n      dup1\n      0x40\n      mstore\n      pop\n      dup2\n      add\n      swap1\n      tag_264\n      swap2\n      swap1\n      tag_248\n      jump\t// in\n    tag_264:\n      pop\n        /* \"Will.sol\":7495:7546  if (share > 0) { token.transfer(heirs[j], share); } */\n    tag_257:\n      pop\n        /* \"Will.sol\":7372:7375  j++ */\n      0x01\n      add\n        /* \"Will.sol\":7337:7565  for (uint j = 0; j < heirs.length; j++) {... */\n      jump(tag_249)\n    tag_250:\n      pop\n        /* \"Will.sol\":7089:7580  {... */\n      pop\n      pop\n        /* \"Will.sol\":7068:7580  if (totalTokens > 0) {... */\n    tag_238:\n      pop\n      pop\n        /* \"Will.sol\":6931:6934  i++ */\n      0x01\n      add\n        /* \"Will.sol\":6890:7591  for (uint i = 0; i < erc20Assets.length; i++) {... */\n      jump(tag_227)\n    tag_228:\n      pop\n        /* \"Will.sol\":7606:7612  uint i */\n      0x00\n        /* \"Will.sol\":7601:7802  for (uint i = 0; i < erc721Assets.length; i++) {... */\n    tag_265:\n        /* \"Will.sol\":7622:7634  erc721Assets */\n      0x07\n        /* \"Will.sol\":7622:7641  erc721Assets.length */\n      sload\n        /* \"Will.sol\":7618:7641  i < erc721Assets.length */\n      dup2\n      lt\n        /* \"Will.sol\":7601:7802  for (uint i = 0; i < erc721Assets.length; i++) {... */\n      iszero\n      tag_266\n      jumpi\n        /* \"Will.sol\":7663:7687  Erc721Asset memory asset */\n      0x00\n        /* \"Will.sol\":7690:7702  erc721Assets */\n      0x07\n        /* \"Will.sol\":7703:7704  i */\n      dup3\n        /* \"Will.sol\":7690:7705  erc721Assets[i] */\n      dup2\n      sload\n      dup2\n      lt\n      tag_269\n      jumpi\n      tag_269\n      tag_212\n      jump\t// in\n    tag_269:\n      0x00\n      swap2\n      dup3\n      mstore\n      0x20\n      swap2\n      dup3\n      swap1\n      keccak256\n        /* \"Will.sol\":7663:7705  Erc721Asset memory asset = erc721Assets[i] */\n      0x40\n      dup1\n      mload\n      0x60\n      dup2\n      add\n      dup3\n      mstore\n        /* \"Will.sol\":7690:7705  erc721Assets[i] */\n      0x03\n      swap1\n      swap4\n      mul\n      swap1\n      swap2\n      add\n        /* \"Will.sol\":7663:7705  Erc721Asset memory asset = erc721Assets[i] */\n      dup1\n      sload\n      sub(shl(0xa0, 0x01), 0x01)\n      swap1\n      dup2\n      and\n      dup1\n      dup6\n      mstore\n      0x01\n      dup4\n      add\n      sload\n      swap6\n      dup6\n      add\n      dup7\n      swap1\n      mstore\n      0x02\n      swap1\n      swap3\n      add\n      sload\n      and\n      dup4\n      dup4\n      add\n      dup2\n      swap1\n      mstore\n        /* \"Will.sol\":7720:7790  asset.token.safeTransferFrom(address(this), asset.heir, asset.tokenId) */\n      swap2\n      mload\n      shl(0xe1, 0x21421707)\n      dup2\n      mstore\n        /* \"Will.sol\":7663:7705  Erc721Asset memory asset = erc721Assets[i] */\n      swap3\n      swap5\n      pop\n      swap3\n        /* \"Will.sol\":7720:7748  asset.token.safeTransferFrom */\n      0x42842e0e\n      swap3\n        /* \"Will.sol\":7720:7790  asset.token.safeTransferFrom(address(this), asset.heir, asset.tokenId) */\n      tag_271\n      swap3\n        /* \"Will.sol\":7757:7761  this */\n      address\n      swap3\n        /* \"Will.sol\":7663:7705  Erc721Asset memory asset = erc721Assets[i] */\n      swap1\n      swap2\n        /* \"Will.sol\":7720:7790  asset.token.safeTransferFrom(address(this), asset.heir, asset.tokenId) */\n      0x04\n      add\n      tag_272\n      jump\t// in\n    tag_271:\n      0x00\n      mload(0x40)\n      dup1\n      dup4\n      sub\n      dup2\n      0x00\n      dup8\n      dup1\n      extcodesize\n      iszero\n      dup1\n      iszero\n      tag_273\n      jumpi\n      0x00\n      dup1\n      revert\n    tag_273:\n      pop\n      gas\n      call\n      iszero\n      dup1\n      iszero\n      tag_275\n      jumpi\n      returndatasize\n      0x00\n      dup1\n      returndatacopy\n      revert(0x00, returndatasize)\n    tag_275:\n      pop\n      pop\n        /* \"Will.sol\":7643:7646  i++ */\n      0x01\n      swap1\n      swap4\n      add\n      swap3\n      pop\n        /* \"Will.sol\":7601:7802  for (uint i = 0; i < erc721Assets.length; i++) {... */\n      tag_265\n      swap2\n      pop\n      pop\n      jump\n    tag_266:\n      pop\n        /* \"Will.sol\":7817:7864  Executed(msg.sender, totalEthFee, feeRecipient) */\n      0x40\n      dup1\n      mload\n        /* \"Will.sol\":7826:7836  msg.sender */\n      caller\n        /* \"#utility.yul\":9612:9646   */\n      dup2\n      mstore\n        /* \"#utility.yul\":9677:9679   */\n      0x20\n        /* \"#utility.yul\":9662:9680   */\n      dup2\n      add\n        /* \"#utility.yul\":9655:9689   */\n      dup5\n      swap1\n      mstore\n      sub(shl(0xa0, 0x01), 0x01)\n        /* \"#utility.yul\":9725:9740   */\n      dup6\n      and\n        /* \"#utility.yul\":9705:9723   */\n      dup2\n      dup4\n      add\n        /* \"#utility.yul\":9698:9741   */\n      mstore\n        /* \"Will.sol\":7817:7864  Executed(msg.sender, totalEthFee, feeRecipient) */\n      swap1\n      mload\n      0x52ba16c8b985eff690a9de92094bd7486f89340e06e385ffb26de9c6eea384dc\n      swap2\n      dup2\n      swap1\n      sub\n        /* \"#utility.yul\":9562:9564   */\n      0x60\n        /* \"Will.sol\":7817:7864  Executed(msg.sender, totalEthFee, feeRecipient) */\n      add\n      swap1\n      log1\n      pop\n      pop\n        /* \"Will.sol\":397:398  1 */\n      0x01\n        /* \"Will.sol\":631:653  _status = _NOT_ENTERED */\n      dup1\n      sstore\n      pop\n      pop\n      pop\n      pop\n        /* \"Will.sol\":5591:7872  function execute() external requiresState(WillState.Active) nonReentrant {... */\n      jump\t// out\n        /* \"Will.sol\":4807:5425  function cancelAndWithdraw() external onlyOwner requiresState(WillState.Active) nonReentrant {... */\n    tag_60:\n        /* \"@openzeppelin/contracts/access/Ownable.sol\":1531:1544  _checkOwner() */\n      tag_279\n        /* \"@openzeppelin/contracts/access/Ownable.sol\":1531:1542  _checkOwner */\n      tag_129\n        /* \"@openzeppelin/contracts/access/Ownable.sol\":1531:1544  _checkOwner() */\n      jump\t// in\n    tag_279:\n        /* \"Will.sol\":4869:4885  WillState.Active */\n      0x01\n      dup1\n        /* \"Will.sol\":2546:2558  currentState */\n      0x02\n      dup1\n      sload\n      0xff\n      and\n      swap1\n        /* \"Will.sol\":2546:2568  currentState == _state */\n      dup2\n      gt\n      iszero\n      tag_284\n      jumpi\n      tag_284\n      tag_133\n      jump\t// in\n    tag_284:\n      eq\n        /* \"Will.sol\":2538:2608  require(currentState == _state, \"Will: Invalid state for this action\") */\n      tag_285\n      jumpi\n      mload(0x40)\n      shl(0xe5, 0x461bcd)\n      dup2\n      mstore\n      0x04\n      add\n      tag_137\n      swap1\n      tag_138\n      jump\t// in\n    tag_285:\n        /* \"Will.sol\":561:579  _preReentryCheck() */\n      tag_288\n        /* \"Will.sol\":561:577  _preReentryCheck */\n      tag_141\n        /* \"Will.sol\":561:579  _preReentryCheck() */\n      jump\t// in\n    tag_288:\n        /* \"Will.sol\":441:442  2 */\n      0x02\n        /* \"Will.sol\":590:597  _status */\n      0x01\n        /* \"Will.sol\":590:608  _status = _ENTERED */\n      sstore\n        /* \"Will.sol\":4941:4962  address(this).balance */\n      selfbalance\n        /* \"Will.sol\":4973:4991  _returnAllAssets() */\n      tag_290\n        /* \"Will.sol\":4973:4989  _returnAllAssets */\n      tag_144\n        /* \"Will.sol\":4973:4991  _returnAllAssets() */\n      jump\t// in\n    tag_290:\n        /* \"Will.sol\":5006:5020  terminationFee */\n      immutable(\"0xf149c9166005b187f5af29ceb397e7b9b5ab7e3a911adc91a9ebb826b208930e\")\n        /* \"Will.sol\":5006:5024  terminationFee > 0 */\n      iszero\n        /* \"Will.sol\":5002:5274  if (terminationFee > 0) {... */\n      tag_291\n      jumpi\n        /* \"Will.sol\":5072:5086  terminationFee */\n      immutable(\"0xf149c9166005b187f5af29ceb397e7b9b5ab7e3a911adc91a9ebb826b208930e\")\n        /* \"Will.sol\":5049:5068  balanceBeforeReturn */\n      dup2\n        /* \"Will.sol\":5049:5086  balanceBeforeReturn >= terminationFee */\n      lt\n      iszero\n        /* \"Will.sol\":5041:5115  require(balanceBeforeReturn >= terminationFee, \"Insufficient ETH for fee\") */\n      tag_292\n      jumpi\n      mload(0x40)\n      shl(0xe5, 0x461bcd)\n      dup2\n      mstore\n        /* \"#utility.yul\":14853:14855   */\n      0x20\n        /* \"Will.sol\":5041:5115  require(balanceBeforeReturn >= terminationFee, \"Insufficient ETH for fee\") */\n      0x04\n      dup3\n      add\n        /* \"#utility.yul\":14835:14856   */\n      mstore\n        /* \"#utility.yul\":14892:14894   */\n      0x18\n        /* \"#utility.yul\":14872:14890   */\n      0x24\n      dup3\n      add\n        /* \"#utility.yul\":14865:14895   */\n      mstore\n        /* \"#utility.yul\":14931:14957   */\n      0x496e73756666696369656e742045544820666f72206665650000000000000000\n        /* \"#utility.yul\":14911:14929   */\n      0x44\n      dup3\n      add\n        /* \"#utility.yul\":14904:14958   */\n      mstore\n        /* \"#utility.yul\":14975:14993   */\n      0x64\n      add\n        /* \"Will.sol\":5041:5115  require(balanceBeforeReturn >= terminationFee, \"Insufficient ETH for fee\") */\n      tag_137\n        /* \"#utility.yul\":14651:14999   */\n      jump\n        /* \"Will.sol\":5041:5115  require(balanceBeforeReturn >= terminationFee, \"Insufficient ETH for fee\") */\n    tag_292:\n        /* \"Will.sol\":5131:5143  bool success */\n      0x00\n        /* \"Will.sol\":5149:5163  sourceContract */\n      immutable(\"0xd094ef07eef1924f3d7fe3d896f6ebece97bd5683077be90743b91a72d59db67\")\n      sub(shl(0xa0, 0x01), 0x01)\n        /* \"Will.sol\":5149:5168  sourceContract.call */\n      and\n        /* \"Will.sol\":5176:5190  terminationFee */\n      immutable(\"0xf149c9166005b187f5af29ceb397e7b9b5ab7e3a911adc91a9ebb826b208930e\")\n        /* \"Will.sol\":5149:5195  sourceContract.call{value: terminationFee}(\"\") */\n      mload(0x40)\n      0x00\n      mload(0x40)\n      dup1\n      dup4\n      sub\n      dup2\n      dup6\n      dup8\n      gas\n      call\n      swap3\n      pop\n      pop\n      pop\n      returndatasize\n      dup1\n      0x00\n      dup2\n      eq\n      tag_298\n      jumpi\n      mload(0x40)\n      swap2\n      pop\n      and(add(returndatasize, 0x3f), not(0x1f))\n      dup3\n      add\n      0x40\n      mstore\n      returndatasize\n      dup3\n      mstore\n      returndatasize\n      0x00\n      0x20\n      dup5\n      add\n      returndatacopy\n      jump(tag_297)\n    tag_298:\n      0x60\n      swap2\n      pop\n    tag_297:\n      pop\n        /* \"Will.sol\":5130:5195  (bool success, ) = sourceContract.call{value: terminationFee}(\"\") */\n      pop\n      swap1\n      pop\n        /* \"Will.sol\":5218:5225  success */\n      dup1\n        /* \"Will.sol\":5210:5262  require(success, \"Termination fee transfer failed.\") */\n      tag_299\n      jumpi\n      mload(0x40)\n      shl(0xe5, 0x461bcd)\n      dup2\n      mstore\n        /* \"#utility.yul\":15206:15208   */\n      0x20\n        /* \"Will.sol\":5210:5262  require(success, \"Termination fee transfer failed.\") */\n      0x04\n      dup3\n      add\n        /* \"#utility.yul\":15188:15209   */\n      dup2\n      swap1\n      mstore\n        /* \"#utility.yul\":15225:15243   */\n      0x24\n      dup3\n      add\n        /* \"#utility.yul\":15218:15248   */\n      mstore\n        /* \"#utility.yul\":15284:15318   */\n      0x5465726d696e6174696f6e20666565207472616e73666572206661696c65642e\n        /* \"#utility.yul\":15264:15282   */\n      0x44\n      dup3\n      add\n        /* \"#utility.yul\":15257:15319   */\n      mstore\n        /* \"#utility.yul\":15336:15354   */\n      0x64\n      add\n        /* \"Will.sol\":5210:5262  require(success, \"Termination fee transfer failed.\") */\n      tag_137\n        /* \"#utility.yul\":15004:15360   */\n      jump\n        /* \"Will.sol\":5210:5262  require(success, \"Termination fee transfer failed.\") */\n    tag_299:\n        /* \"Will.sol\":5026:5274  {... */\n      pop\n        /* \"Will.sol\":5002:5274  if (terminationFee > 0) {... */\n    tag_291:\n        /* \"Will.sol\":5292:5306  sourceContract */\n      immutable(\"0xd094ef07eef1924f3d7fe3d896f6ebece97bd5683077be90743b91a72d59db67\")\n      sub(shl(0xa0, 0x01), 0x01)\n        /* \"Will.sol\":5284:5323  ISource(sourceContract).clearWillRecord */\n      and\n      0xa658dd6b\n        /* \"Will.sol\":5324:5331  owner() */\n      tag_302\n        /* \"@openzeppelin/contracts/access/Ownable.sol\":1684:1691  address */\n      0x00\n        /* \"@openzeppelin/contracts/access/Ownable.sol\":1710:1716  _owner */\n      sload\n      sub(shl(0xa0, 0x01), 0x01)\n      and\n      swap1\n        /* \"@openzeppelin/contracts/access/Ownable.sol\":1638:1723  function owner() public view virtual returns (address) {... */\n      jump\n        /* \"Will.sol\":5324:5331  owner() */\n    tag_302:\n        /* \"Will.sol\":5284:5332  ISource(sourceContract).clearWillRecord(owner()) */\n      mload(0x40)\n      not(sub(shl(0xe0, 0x01), 0x01))\n      0xe0\n      dup5\n      swap1\n      shl\n      and\n      dup2\n      mstore\n      sub(shl(0xa0, 0x01), 0x01)\n        /* \"#utility.yul\":950:982   */\n      swap1\n      swap2\n      and\n        /* \"Will.sol\":5284:5332  ISource(sourceContract).clearWillRecord(owner()) */\n      0x04\n      dup3\n      add\n        /* \"#utility.yul\":932:983   */\n      mstore\n        /* \"#utility.yul\":905:923   */\n      0x24\n      add\n        /* \"Will.sol\":5284:5332  ISource(sourceContract).clearWillRecord(owner()) */\n      0x00\n      mload(0x40)\n      dup1\n      dup4\n      sub\n      dup2\n      0x00\n      dup8\n      dup1\n      extcodesize\n      iszero\n      dup1\n      iszero\n      tag_304\n      jumpi\n      0x00\n      dup1\n      revert\n    tag_304:\n      pop\n      gas\n      call\n      iszero\n      dup1\n      iszero\n      tag_306\n      jumpi\n      returndatasize\n      0x00\n      dup1\n      returndatacopy\n      revert(0x00, returndatasize)\n    tag_306:\n      pop\n      pop\n        /* \"Will.sol\":5358:5376  WillState.Executed */\n      0x02\n        /* \"Will.sol\":5343:5376  currentState = WillState.Executed */\n      dup1\n      sload\n      not(0xff)\n      and\n      dup2\n      or\n      swap1\n      sstore\n      pop\n      pop\n        /* \"Will.sol\":5392:5417  Cancelled(terminationFee) */\n      mload(0x40)\n        /* \"Will.sol\":5402:5416  terminationFee */\n      immutable(\"0xf149c9166005b187f5af29ceb397e7b9b5ab7e3a911adc91a9ebb826b208930e\")\n        /* \"#utility.yul\":1140:1165   */\n      dup2\n      mstore\n        /* \"Will.sol\":5392:5417  Cancelled(terminationFee) */\n      0xc41d93b8bfbf9fd7cf5bfe271fd649ab6a6fec0ea101c23b82a2a28eca2533a9\n      swap1\n        /* \"#utility.yul\":1128:1130   */\n      0x20\n        /* \"#utility.yul\":1113:1131   */\n      add\n        /* \"Will.sol\":5392:5417  Cancelled(terminationFee) */\n      mload(0x40)\n      dup1\n      swap2\n      sub\n      swap1\n      log1\n      pop\n      pop\n        /* \"Will.sol\":397:398  1 */\n      0x01\n        /* \"Will.sol\":631:653  _status = _NOT_ENTERED */\n      dup1\n      sstore\n        /* \"Will.sol\":4807:5425  function cancelAndWithdraw() external onlyOwner requiresState(WillState.Active) nonReentrant {... */\n      jump\t// out\n        /* \"@openzeppelin/contracts/access/Ownable.sol\":2293:2394  function renounceOwnership() public virtual onlyOwner {... */\n    tag_63:\n        /* \"@openzeppelin/contracts/access/Ownable.sol\":1531:1544  _checkOwner() */\n      tag_311\n        /* \"@openzeppelin/contracts/access/Ownable.sol\":1531:1542  _checkOwner */\n      tag_129\n        /* \"@openzeppelin/contracts/access/Ownable.sol\":1531:1544  _checkOwner() */\n      jump\t// in\n    tag_311:\n        /* \"@openzeppelin/contracts/access/Ownable.sol\":2357:2387  _transferOwnership(address(0)) */\n      tag_313\n        /* \"@openzeppelin/contracts/access/Ownable.sol\":2384:2385  0 */\n      0x00\n        /* \"@openzeppelin/contracts/access/Ownable.sol\":2357:2375  _transferOwnership */\n      tag_314\n        /* \"@openzeppelin/contracts/access/Ownable.sol\":2357:2387  _transferOwnership(address(0)) */\n      jump\t// in\n    tag_313:\n        /* \"@openzeppelin/contracts/access/Ownable.sol\":2293:2394  function renounceOwnership() public virtual onlyOwner {... */\n      jump\t// out\n        /* \"Will.sol\":3629:4458  function fundAndConfigure(... */\n    tag_67:\n        /* \"@openzeppelin/contracts/access/Ownable.sol\":1531:1544  _checkOwner() */\n      tag_316\n        /* \"@openzeppelin/contracts/access/Ownable.sol\":1531:1542  _checkOwner */\n      tag_129\n        /* \"@openzeppelin/contracts/access/Ownable.sol\":1531:1544  _checkOwner() */\n      jump\t// in\n    tag_316:\n        /* \"Will.sol\":3862:3877  WillState.Empty */\n      0x00\n      dup1\n        /* \"Will.sol\":2546:2558  currentState */\n      0x02\n      dup1\n      sload\n      0xff\n      and\n      swap1\n        /* \"Will.sol\":2546:2568  currentState == _state */\n      dup2\n      gt\n      iszero\n      tag_321\n      jumpi\n      tag_321\n      tag_133\n      jump\t// in\n    tag_321:\n      eq\n        /* \"Will.sol\":2538:2608  require(currentState == _state, \"Will: Invalid state for this action\") */\n      tag_322\n      jumpi\n      mload(0x40)\n      shl(0xe5, 0x461bcd)\n      dup2\n      mstore\n      0x04\n      add\n      tag_137\n      swap1\n      tag_138\n      jump\t// in\n    tag_322:\n        /* \"Will.sol\":3895:3901  uint i */\n      0x00\n        /* \"Will.sol\":3890:4111  for (uint i = 0; i < _erc20s.length; i++) {... */\n    tag_325:\n        /* \"Will.sol\":3907:3925  i < _erc20s.length */\n      dup5\n      dup2\n      lt\n        /* \"Will.sol\":3890:4111  for (uint i = 0; i < _erc20s.length; i++) {... */\n      iszero\n      tag_326\n      jumpi\n        /* \"Will.sol\":3971:3972  0 */\n      0x00\n        /* \"Will.sol\":3951:3958  _erc20s */\n      dup7\n      dup7\n        /* \"Will.sol\":3959:3960  i */\n      dup4\n        /* \"Will.sol\":3951:3961  _erc20s[i] */\n      dup2\n      dup2\n      lt\n      tag_329\n      jumpi\n      tag_329\n      tag_212\n      jump\t// in\n    tag_329:\n      swap1\n      pop\n      0x40\n      mul\n      add\n        /* \"Will.sol\":3951:3968  _erc20s[i].amount */\n      0x20\n      add\n      calldataload\n        /* \"Will.sol\":3951:3972  _erc20s[i].amount > 0 */\n      gt\n        /* \"Will.sol\":3947:4100  if (_erc20s[i].amount > 0) {... */\n      iszero\n      tag_330\n      jumpi\n        /* \"Will.sol\":4000:4007  _erc20s */\n      dup6\n      dup6\n        /* \"Will.sol\":4008:4009  i */\n      dup3\n        /* \"Will.sol\":4000:4010  _erc20s[i] */\n      dup2\n      dup2\n      lt\n      tag_332\n      jumpi\n      tag_332\n      tag_212\n      jump\t// in\n    tag_332:\n        /* \"Will.sol\":4000:4024  _erc20s[i].tokenContract */\n      tag_333\n      swap3\n      0x20\n        /* \"Will.sol\":4000:4010  _erc20s[i] */\n      0x40\n      swap1\n      swap3\n      mul\n      add\n        /* \"Will.sol\":4000:4024  _erc20s[i].tokenContract */\n      swap1\n      dup2\n      add\n      swap2\n      pop\n      tag_121\n      jump\t// in\n    tag_333:\n      sub(shl(0xa0, 0x01), 0x01)\n        /* \"Will.sol\":3993:4038  IERC20(_erc20s[i].tokenContract).transferFrom */\n      and\n      0x23b872dd\n        /* \"Will.sol\":4039:4049  msg.sender */\n      caller\n        /* \"Will.sol\":4059:4063  this */\n      address\n        /* \"Will.sol\":4066:4073  _erc20s */\n      dup10\n      dup10\n        /* \"Will.sol\":4074:4075  i */\n      dup7\n        /* \"Will.sol\":4066:4076  _erc20s[i] */\n      dup2\n      dup2\n      lt\n      tag_335\n      jumpi\n      tag_335\n      tag_212\n      jump\t// in\n    tag_335:\n      swap1\n      pop\n      0x40\n      mul\n      add\n        /* \"Will.sol\":4066:4083  _erc20s[i].amount */\n      0x20\n      add\n      calldataload\n        /* \"Will.sol\":3993:4084  IERC20(_erc20s[i].tokenContract).transferFrom(msg.sender, address(this), _erc20s[i].amount) */\n      mload(0x40)\n      dup5\n      0xffffffff\n      and\n      0xe0\n      shl\n      dup2\n      mstore\n      0x04\n      add\n      tag_336\n      swap4\n      swap3\n      swap2\n      swap1\n      tag_272\n      jump\t// in\n    tag_336:\n      0x20\n      mload(0x40)\n      dup1\n      dup4\n      sub\n      dup2\n      0x00\n      dup8\n      gas\n      call\n      iszero\n      dup1\n      iszero\n      tag_338\n      jumpi\n      returndatasize\n      0x00\n      dup1\n      returndatacopy\n      revert(0x00, returndatasize)\n    tag_338:\n      pop\n      pop\n      pop\n      pop\n      mload(0x40)\n      returndatasize\n      not(0x1f)\n      0x1f\n      dup3\n      add\n      and\n      dup3\n      add\n      dup1\n      0x40\n      mstore\n      pop\n      dup2\n      add\n      swap1\n      tag_339\n      swap2\n      swap1\n      tag_248\n      jump\t// in\n    tag_339:\n      pop\n        /* \"Will.sol\":3947:4100  if (_erc20s[i].amount > 0) {... */\n    tag_330:\n        /* \"Will.sol\":3927:3930  i++ */\n      0x01\n      add\n        /* \"Will.sol\":3890:4111  for (uint i = 0; i < _erc20s.length; i++) {... */\n      jump(tag_325)\n    tag_326:\n      pop\n        /* \"Will.sol\":4126:4132  uint i */\n      0x00\n        /* \"Will.sol\":4121:4277  for (uint i = 0; i < _nfts.length; i++) {... */\n    tag_340:\n        /* \"Will.sol\":4138:4154  i < _nfts.length */\n      dup3\n      dup2\n      lt\n        /* \"Will.sol\":4121:4277  for (uint i = 0; i < _nfts.length; i++) {... */\n      iszero\n      tag_341\n      jumpi\n        /* \"Will.sol\":4184:4189  _nfts */\n      dup4\n      dup4\n        /* \"Will.sol\":4190:4191  i */\n      dup3\n        /* \"Will.sol\":4184:4192  _nfts[i] */\n      dup2\n      dup2\n      lt\n      tag_344\n      jumpi\n      tag_344\n      tag_212\n      jump\t// in\n    tag_344:\n        /* \"Will.sol\":4184:4206  _nfts[i].tokenContract */\n      tag_345\n      swap3\n      0x20\n        /* \"Will.sol\":4184:4192  _nfts[i] */\n      0x60\n      swap1\n      swap3\n      mul\n      add\n        /* \"Will.sol\":4184:4206  _nfts[i].tokenContract */\n      swap1\n      dup2\n      add\n      swap2\n      pop\n      tag_121\n      jump\t// in\n    tag_345:\n      sub(shl(0xa0, 0x01), 0x01)\n        /* \"Will.sol\":4176:4220  IERC721(_nfts[i].tokenContract).transferFrom */\n      and\n      0x23b872dd\n        /* \"Will.sol\":4221:4231  msg.sender */\n      caller\n        /* \"Will.sol\":4241:4245  this */\n      address\n        /* \"Will.sol\":4248:4253  _nfts */\n      dup8\n      dup8\n        /* \"Will.sol\":4254:4255  i */\n      dup7\n        /* \"Will.sol\":4248:4256  _nfts[i] */\n      dup2\n      dup2\n      lt\n      tag_347\n      jumpi\n      tag_347\n      tag_212\n      jump\t// in\n    tag_347:\n      swap1\n      pop\n      0x60\n      mul\n      add\n        /* \"Will.sol\":4248:4264  _nfts[i].tokenId */\n      0x20\n      add\n      calldataload\n        /* \"Will.sol\":4176:4265  IERC721(_nfts[i].tokenContract).transferFrom(msg.sender, address(this), _nfts[i].tokenId) */\n      mload(0x40)\n      dup5\n      0xffffffff\n      and\n      0xe0\n      shl\n      dup2\n      mstore\n      0x04\n      add\n      tag_348\n      swap4\n      swap3\n      swap2\n      swap1\n      tag_272\n      jump\t// in\n    tag_348:\n      0x00\n      mload(0x40)\n      dup1\n      dup4\n      sub\n      dup2\n      0x00\n      dup8\n      dup1\n      extcodesize\n      iszero\n      dup1\n      iszero\n      tag_349\n      jumpi\n      0x00\n      dup1\n      revert\n    tag_349:\n      pop\n      gas\n      call\n      iszero\n      dup1\n      iszero\n      tag_351\n      jumpi\n      returndatasize\n      0x00\n      dup1\n      returndatacopy\n      revert(0x00, returndatasize)\n    tag_351:\n      pop\n      pop\n        /* \"Will.sol\":4156:4159  i++ */\n      0x01\n      swap1\n      swap3\n      add\n      swap2\n      pop\n        /* \"Will.sol\":4121:4277  for (uint i = 0; i < _nfts.length; i++) {... */\n      tag_340\n      swap1\n      pop\n      jump\n    tag_341:\n      pop\n        /* \"Will.sol\":4287:4330  _configure(_heirs, _distro, _erc20s, _nfts) */\n      tag_352\n        /* \"Will.sol\":4298:4304  _heirs */\n      dup8\n        /* \"Will.sol\":4306:4313  _distro */\n      dup8\n        /* \"Will.sol\":4315:4322  _erc20s */\n      dup8\n      dup8\n        /* \"Will.sol\":4324:4329  _nfts */\n      dup8\n      dup8\n        /* \"Will.sol\":4287:4297  _configure */\n      tag_353\n        /* \"Will.sol\":4287:4330  _configure(_heirs, _distro, _erc20s, _nfts) */\n      jump\t// in\n    tag_352:\n        /* \"Will.sol\":4341:4353  currentState */\n      0x02\n        /* \"Will.sol\":4341:4372  currentState = WillState.Active */\n      dup1\n      sload\n      not(0xff)\n      and\n        /* \"Will.sol\":4356:4372  WillState.Active */\n      0x01\n        /* \"Will.sol\":4341:4372  currentState = WillState.Active */\n      or\n      swap1\n      sstore\n        /* \"Will.sol\":4396:4411  block.timestamp */\n      timestamp\n        /* \"Will.sol\":4383:4393  lastUpdate */\n      0x03\n        /* \"Will.sol\":4383:4411  lastUpdate = block.timestamp */\n      sstore\n      0x00\n        /* \"@openzeppelin/contracts/access/Ownable.sol\":1710:1716  _owner */\n      dup1\n      sload\n        /* \"Will.sol\":4427:4450  WillConfigured(owner()) */\n      mload(0x40)\n      sub(shl(0xa0, 0x01), 0x01)\n        /* \"@openzeppelin/contracts/access/Ownable.sol\":1710:1716  _owner */\n      swap1\n      swap2\n      and\n      swap2\n        /* \"Will.sol\":4427:4450  WillConfigured(owner()) */\n      0xbbf74fb4e3c300bf9f00e1603668149fd64853bfcd5f194270d2b043d9bdbc61\n      swap2\n      log2\n        /* \"@openzeppelin/contracts/access/Ownable.sol\":1554:1555  _ */\n      pop\n        /* \"Will.sol\":3629:4458  function fundAndConfigure(... */\n      pop\n      pop\n      pop\n      pop\n      pop\n      pop\n      jump\t// out\n        /* \"Will.sol\":2151:2182  Erc20Asset[] public erc20Assets */\n    tag_75:\n      0x06\n      dup2\n      dup2\n      sload\n      dup2\n      lt\n      tag_123\n      jumpi\n      0x00\n      dup1\n      revert\n        /* \"Will.sol\":3126:3617  function initialize(... */\n    tag_93:\n        /* \"Will.sol\":3335:3350  WillState.Empty */\n      0x00\n      dup1\n        /* \"Will.sol\":2546:2558  currentState */\n      0x02\n      dup1\n      sload\n      0xff\n      and\n      swap1\n        /* \"Will.sol\":2546:2568  currentState == _state */\n      dup2\n      gt\n      iszero\n      tag_364\n      jumpi\n      tag_364\n      tag_133\n      jump\t// in\n    tag_364:\n      eq\n        /* \"Will.sol\":2538:2608  require(currentState == _state, \"Will: Invalid state for this action\") */\n      tag_365\n      jumpi\n      mload(0x40)\n      shl(0xe5, 0x461bcd)\n      dup2\n      mstore\n      0x04\n      add\n      tag_137\n      swap1\n      tag_138\n      jump\t// in\n    tag_365:\n        /* \"Will.sol\":3371:3381  msg.sender */\n      caller\n      sub(shl(0xa0, 0x01), 0x01)\n        /* \"Will.sol\":3385:3399  sourceContract */\n      immutable(\"0xd094ef07eef1924f3d7fe3d896f6ebece97bd5683077be90743b91a72d59db67\")\n        /* \"Will.sol\":3371:3399  msg.sender == sourceContract */\n      and\n      eq\n        /* \"Will.sol\":3363:3435  require(msg.sender == sourceContract, \"Will: Not authorized by factory\") */\n      tag_368\n      jumpi\n      mload(0x40)\n      shl(0xe5, 0x461bcd)\n      dup2\n      mstore\n        /* \"#utility.yul\":15567:15569   */\n      0x20\n        /* \"Will.sol\":3363:3435  require(msg.sender == sourceContract, \"Will: Not authorized by factory\") */\n      0x04\n      dup3\n      add\n        /* \"#utility.yul\":15549:15570   */\n      mstore\n        /* \"#utility.yul\":15606:15608   */\n      0x1f\n        /* \"#utility.yul\":15586:15604   */\n      0x24\n      dup3\n      add\n        /* \"#utility.yul\":15579:15609   */\n      mstore\n        /* \"#utility.yul\":15645:15678   */\n      0x57696c6c3a204e6f7420617574686f72697a656420627920666163746f727900\n        /* \"#utility.yul\":15625:15643   */\n      0x44\n      dup3\n      add\n        /* \"#utility.yul\":15618:15679   */\n      mstore\n        /* \"#utility.yul\":15696:15714   */\n      0x64\n      add\n        /* \"Will.sol\":3363:3435  require(msg.sender == sourceContract, \"Will: Not authorized by factory\") */\n      tag_137\n        /* \"#utility.yul\":15365:15720   */\n      jump\n        /* \"Will.sol\":3363:3435  require(msg.sender == sourceContract, \"Will: Not authorized by factory\") */\n    tag_368:\n        /* \"Will.sol\":3446:3489  _configure(_heirs, _distro, _erc20s, _nfts) */\n      tag_352\n        /* \"Will.sol\":3457:3463  _heirs */\n      dup8\n        /* \"Will.sol\":3465:3472  _distro */\n      dup8\n        /* \"Will.sol\":3474:3481  _erc20s */\n      dup8\n      dup8\n        /* \"Will.sol\":3483:3488  _nfts */\n      dup8\n      dup8\n        /* \"Will.sol\":3446:3456  _configure */\n      tag_353\n        /* \"Will.sol\":3446:3489  _configure(_heirs, _distro, _erc20s, _nfts) */\n      jump\t// in\n        /* \"Will.sol\":9603:10531  function getWillDetails() external view returns (WillDetails memory) {... */\n    tag_104:\n        /* \"Will.sol\":9652:9670  WillDetails memory */\n      tag_375\n      mload(0x40)\n      dup1\n      0x0140\n      add\n      0x40\n      mstore\n      dup1\n      and(sub(shl(0xa0, 0x01), 0x01), 0x00)\n      dup2\n      mstore\n      0x20\n      add\n      0x00\n      dup2\n      mstore\n      0x20\n      add\n      0x00\n      dup2\n      mstore\n      0x20\n      add\n      iszero(iszero(0x00))\n      dup2\n      mstore\n      0x20\n      add\n      iszero(iszero(0x00))\n      dup2\n      mstore\n      0x20\n      add\n      0x00\n      dup2\n      mstore\n      0x20\n      add\n      0x60\n      dup2\n      mstore\n      0x20\n      add\n      0x60\n      dup2\n      mstore\n      0x20\n      add\n      0x60\n      dup2\n      mstore\n      0x20\n      add\n      0x60\n      dup2\n      mstore\n      pop\n      swap1\n      jump\n    tag_375:\n        /* \"Will.sol\":9738:9749  erc20Assets */\n      0x06\n        /* \"Will.sol\":9738:9756  erc20Assets.length */\n      sload\n        /* \"Will.sol\":9683:9717  Erc20Detail[] memory _erc20Details */\n      0x00\n      swap1\n        /* \"Will.sol\":9720:9757  new Erc20Detail[](erc20Assets.length) */\n      0xffffffffffffffff\n      dup2\n      gt\n      iszero\n      tag_379\n      jumpi\n      tag_379\n      tag_380\n      jump\t// in\n    tag_379:\n      mload(0x40)\n      swap1\n      dup1\n      dup3\n      mstore\n      dup1\n      0x20\n      mul\n      0x20\n      add\n      dup3\n      add\n      0x40\n      mstore\n      dup1\n      iszero\n      tag_381\n      jumpi\n      dup2\n      0x20\n      add\n    tag_382:\n      0x40\n      dup1\n      mload\n      dup1\n      dup3\n      add\n      swap1\n      swap2\n      mstore\n      0x00\n      dup1\n      dup3\n      mstore\n      0x20\n      dup3\n      add\n      mstore\n      dup2\n      mstore\n      0x20\n      add\n      swap1\n      0x01\n      swap1\n      sub\n      swap1\n      dup2\n      tag_382\n      jumpi\n      swap1\n      pop\n    tag_381:\n      pop\n        /* \"Will.sol\":9683:9757  Erc20Detail[] memory _erc20Details = new Erc20Detail[](erc20Assets.length) */\n      swap1\n      pop\n        /* \"Will.sol\":9773:9779  uint i */\n      0x00\n        /* \"Will.sol\":9768:9969  for (uint i = 0; i < erc20Assets.length; i++) {... */\n    tag_385:\n        /* \"Will.sol\":9789:9800  erc20Assets */\n      0x06\n        /* \"Will.sol\":9789:9807  erc20Assets.length */\n      sload\n        /* \"Will.sol\":9785:9807  i < erc20Assets.length */\n      dup2\n      lt\n        /* \"Will.sol\":9768:9969  for (uint i = 0; i < erc20Assets.length; i++) {... */\n      iszero\n      tag_386\n      jumpi\n        /* \"Will.sol\":9829:9841  IERC20 token */\n      0x00\n        /* \"Will.sol\":9844:9855  erc20Assets */\n      0x06\n        /* \"Will.sol\":9856:9857  i */\n      dup3\n        /* \"Will.sol\":9844:9858  erc20Assets[i] */\n      dup2\n      sload\n      dup2\n      lt\n      tag_389\n      jumpi\n      tag_389\n      tag_212\n      jump\t// in\n    tag_389:\n      0x00\n      swap2\n      dup3\n      mstore\n      0x20\n      swap2\n      dup3\n      swap1\n      keccak256\n      add\n        /* \"Will.sol\":9844:9864  erc20Assets[i].token */\n      sload\n        /* \"Will.sol\":9898:9957  Erc20Detail(address(token), token.balanceOf(address(this))) */\n      0x40\n      dup1\n      mload\n      dup1\n      dup3\n      add\n      dup3\n      mstore\n      sub(shl(0xa0, 0x01), 0x01)\n        /* \"Will.sol\":9844:9864  erc20Assets[i].token */\n      swap1\n      swap3\n      and\n        /* \"Will.sol\":9898:9957  Erc20Detail(address(token), token.balanceOf(address(this))) */\n      dup1\n      dup4\n      mstore\n        /* \"Will.sol\":9926:9956  token.balanceOf(address(this)) */\n      swap1\n      mload\n      shl(0xe0, 0x70a08231)\n      dup2\n      mstore\n        /* \"Will.sol\":9950:9954  this */\n      address\n        /* \"Will.sol\":9926:9956  token.balanceOf(address(this)) */\n      0x04\n      dup3\n      add\n        /* \"#utility.yul\":932:983   */\n      mstore\n        /* \"Will.sol\":9844:9864  erc20Assets[i].token */\n      swap1\n      swap4\n      pop\n        /* \"Will.sol\":9898:9957  Erc20Detail(address(token), token.balanceOf(address(this))) */\n      swap1\n      swap2\n      dup3\n      add\n      swap1\n        /* \"Will.sol\":9844:9864  erc20Assets[i].token */\n      dup4\n      swap1\n        /* \"Will.sol\":9926:9941  token.balanceOf */\n      0x70a08231\n      swap1\n        /* \"#utility.yul\":905:923   */\n      0x24\n      add\n        /* \"Will.sol\":9926:9956  token.balanceOf(address(this)) */\n      0x20\n      mload(0x40)\n      dup1\n      dup4\n      sub\n      dup2\n      dup7\n      gas\n      staticcall\n      iszero\n      dup1\n      iszero\n      tag_393\n      jumpi\n      returndatasize\n      0x00\n      dup1\n      returndatacopy\n      revert(0x00, returndatasize)\n    tag_393:\n      pop\n      pop\n      pop\n      pop\n      mload(0x40)\n      returndatasize\n      not(0x1f)\n      0x1f\n      dup3\n      add\n      and\n      dup3\n      add\n      dup1\n      0x40\n      mstore\n      pop\n      dup2\n      add\n      swap1\n      tag_394\n      swap2\n      swap1\n      tag_237\n      jump\t// in\n    tag_394:\n        /* \"Will.sol\":9898:9957  Erc20Detail(address(token), token.balanceOf(address(this))) */\n      dup2\n      mstore\n      pop\n        /* \"Will.sol\":9879:9892  _erc20Details */\n      dup4\n        /* \"Will.sol\":9893:9894  i */\n      dup4\n        /* \"Will.sol\":9879:9895  _erc20Details[i] */\n      dup2\n      mload\n      dup2\n      lt\n      tag_396\n      jumpi\n      tag_396\n      tag_212\n      jump\t// in\n    tag_396:\n      0x20\n      swap1\n      dup2\n      mul\n      swap2\n      swap1\n      swap2\n      add\n      add\n        /* \"Will.sol\":9879:9957  _erc20Details[i] = Erc20Detail(address(token), token.balanceOf(address(this))) */\n      mstore\n      pop\n        /* \"Will.sol\":9809:9812  i++ */\n      0x01\n      add\n        /* \"Will.sol\":9768:9969  for (uint i = 0; i < erc20Assets.length; i++) {... */\n      jump(tag_385)\n    tag_386:\n      pop\n        /* \"Will.sol\":10037:10049  erc721Assets */\n      0x07\n        /* \"Will.sol\":10037:10056  erc721Assets.length */\n      sload\n        /* \"Will.sol\":9979:10015  Erc721Detail[] memory _erc721Details */\n      0x00\n      swap1\n        /* \"Will.sol\":10018:10057  new Erc721Detail[](erc721Assets.length) */\n      0xffffffffffffffff\n      dup2\n      gt\n      iszero\n      tag_398\n      jumpi\n      tag_398\n      tag_380\n      jump\t// in\n    tag_398:\n      mload(0x40)\n      swap1\n      dup1\n      dup3\n      mstore\n      dup1\n      0x20\n      mul\n      0x20\n      add\n      dup3\n      add\n      0x40\n      mstore\n      dup1\n      iszero\n      tag_399\n      jumpi\n      dup2\n      0x20\n      add\n    tag_400:\n      0x40\n      dup1\n      mload\n      0x60\n      dup2\n      add\n      dup3\n      mstore\n      0x00\n      dup1\n      dup3\n      mstore\n      0x20\n      dup1\n      dup4\n      add\n      dup3\n      swap1\n      mstore\n      swap3\n      dup3\n      add\n      mstore\n      dup3\n      mstore\n      not(0x00)\n      swap1\n      swap3\n      add\n      swap2\n      add\n      dup2\n      tag_400\n      jumpi\n      swap1\n      pop\n    tag_399:\n      pop\n        /* \"Will.sol\":9979:10057  Erc721Detail[] memory _erc721Details = new Erc721Detail[](erc721Assets.length) */\n      swap1\n      pop\n        /* \"Will.sol\":10073:10079  uint i */\n      0x00\n        /* \"Will.sol\":10068:10280  for (uint i = 0; i < erc721Assets.length; i++) {... */\n    tag_403:\n        /* \"Will.sol\":10089:10101  erc721Assets */\n      0x07\n        /* \"Will.sol\":10089:10108  erc721Assets.length */\n      sload\n        /* \"Will.sol\":10085:10108  i < erc721Assets.length */\n      dup2\n      lt\n        /* \"Will.sol\":10068:10280  for (uint i = 0; i < erc721Assets.length; i++) {... */\n      iszero\n      tag_404\n      jumpi\n        /* \"Will.sol\":10130:10154  Erc721Asset memory asset */\n      0x00\n        /* \"Will.sol\":10157:10169  erc721Assets */\n      0x07\n        /* \"Will.sol\":10170:10171  i */\n      dup3\n        /* \"Will.sol\":10157:10172  erc721Assets[i] */\n      dup2\n      sload\n      dup2\n      lt\n      tag_407\n      jumpi\n      tag_407\n      tag_212\n      jump\t// in\n    tag_407:\n      0x00\n      swap2\n      dup3\n      mstore\n      0x20\n      swap2\n      dup3\n      swap1\n      keccak256\n        /* \"Will.sol\":10130:10172  Erc721Asset memory asset = erc721Assets[i] */\n      0x40\n      dup1\n      mload\n      0x60\n      dup1\n      dup3\n      add\n      dup4\n      mstore\n        /* \"Will.sol\":10157:10172  erc721Assets[i] */\n      0x03\n      swap1\n      swap5\n      mul\n      swap1\n      swap3\n      add\n        /* \"Will.sol\":10130:10172  Erc721Asset memory asset = erc721Assets[i] */\n      dup1\n      sload\n      sub(shl(0xa0, 0x01), 0x01)\n      swap1\n      dup2\n      and\n      dup5\n      mstore\n      0x01\n      dup3\n      add\n      sload\n      dup5\n      dup8\n      add\n      swap1\n      dup2\n      mstore\n      0x02\n      swap1\n      swap3\n      add\n      sload\n      dup2\n      and\n      dup5\n      dup5\n      add\n      swap1\n      dup2\n      mstore\n        /* \"Will.sol\":10207:10268  Erc721Detail(address(asset.token), asset.tokenId, asset.heir) */\n      dup4\n      mload\n      swap6\n      dup7\n      add\n      dup5\n      mstore\n        /* \"Will.sol\":10228:10239  asset.token */\n      dup5\n      mload\n        /* \"Will.sol\":10207:10268  Erc721Detail(address(asset.token), asset.tokenId, asset.heir) */\n      dup3\n      and\n      dup7\n      mstore\n        /* \"Will.sol\":10242:10255  asset.tokenId */\n      swap2\n      mload\n        /* \"Will.sol\":10207:10268  Erc721Detail(address(asset.token), asset.tokenId, asset.heir) */\n      swap6\n      dup6\n      add\n      swap6\n      swap1\n      swap6\n      mstore\n        /* \"Will.sol\":10257:10267  asset.heir */\n      mload\n        /* \"Will.sol\":10207:10268  Erc721Detail(address(asset.token), asset.tokenId, asset.heir) */\n      swap1\n      swap4\n      and\n      swap3\n      dup3\n      add\n      swap3\n      swap1\n      swap3\n      mstore\n        /* \"Will.sol\":10187:10204  _erc721Details[i] */\n      dup5\n      mload\n        /* \"Will.sol\":10130:10172  Erc721Asset memory asset = erc721Assets[i] */\n      swap2\n      swap3\n      pop\n        /* \"Will.sol\":10207:10268  Erc721Detail(address(asset.token), asset.tokenId, asset.heir) */\n      swap1\n        /* \"Will.sol\":10187:10201  _erc721Details */\n      dup5\n      swap1\n        /* \"Will.sol\":10202:10203  i */\n      dup5\n      swap1\n        /* \"Will.sol\":10187:10204  _erc721Details[i] */\n      dup2\n      lt\n      tag_410\n      jumpi\n      tag_410\n      tag_212\n      jump\t// in\n    tag_410:\n      0x20\n      swap1\n      dup2\n      mul\n      swap2\n      swap1\n      swap2\n      add\n      add\n        /* \"Will.sol\":10187:10268  _erc721Details[i] = Erc721Detail(address(asset.token), asset.tokenId, asset.heir) */\n      mstore\n      pop\n        /* \"Will.sol\":10110:10113  i++ */\n      0x01\n      add\n        /* \"Will.sol\":10068:10280  for (uint i = 0; i < erc721Assets.length; i++) {... */\n      jump(tag_403)\n    tag_404:\n      pop\n        /* \"Will.sol\":10297:10523  WillDetails(... */\n      mload(0x40)\n      dup1\n      0x0140\n      add\n      0x40\n      mstore\n      dup1\n        /* \"Will.sol\":10323:10330  owner() */\n      tag_411\n        /* \"@openzeppelin/contracts/access/Ownable.sol\":1684:1691  address */\n      0x00\n        /* \"@openzeppelin/contracts/access/Ownable.sol\":1710:1716  _owner */\n      sload\n      sub(shl(0xa0, 0x01), 0x01)\n      and\n      swap1\n        /* \"@openzeppelin/contracts/access/Ownable.sol\":1638:1723  function owner() public view virtual returns (address) {... */\n      jump\n        /* \"Will.sol\":10323:10330  owner() */\n    tag_411:\n      sub(shl(0xa0, 0x01), 0x01)\n        /* \"Will.sol\":10297:10523  WillDetails(... */\n      and\n      dup2\n      mstore\n        /* \"Will.sol\":10332:10340  interval */\n      immutable(\"0xc40f7608bb89a6dc7aa17f3e1230f56b2e6b59319af129191c75cf59e69bfe22\")\n        /* \"Will.sol\":10297:10523  WillDetails(... */\n      0x20\n      dup3\n      add\n      mstore\n        /* \"Will.sol\":10342:10352  lastUpdate */\n      sload(0x03)\n        /* \"Will.sol\":10297:10523  WillDetails(... */\n      0x40\n      dup3\n      add\n      mstore\n      0x60\n      add\n        /* \"Will.sol\":10371:10389  WillState.Executed */\n      0x02\n        /* \"Will.sol\":10355:10367  currentState */\n      dup1\n      dup1\n      sload\n      0xff\n      and\n      swap1\n        /* \"Will.sol\":10355:10389  currentState == WillState.Executed */\n      dup2\n      gt\n      iszero\n      tag_415\n      jumpi\n      tag_415\n      tag_133\n      jump\t// in\n    tag_415:\n      eq\n        /* \"Will.sol\":10297:10523  WillDetails(... */\n      iszero\n      iszero\n      dup2\n      mstore\n      0x20\n      add\n        /* \"Will.sol\":10405:10413  hasDiary */\n      immutable(\"0x8e831a88d8106460d1544aa376ec6155091b50c6145ad03273db7938ca17c5b1\")\n        /* \"Will.sol\":10297:10523  WillDetails(... */\n      iszero\n      iszero\n      dup2\n      mstore\n      0x20\n      add\n        /* \"Will.sol\":10415:10436  address(this).balance */\n      selfbalance\n        /* \"Will.sol\":10297:10523  WillDetails(... */\n      dup2\n      mstore\n      0x20\n      add\n        /* \"Will.sol\":10438:10443  heirs */\n      0x04\n        /* \"Will.sol\":10297:10523  WillDetails(... */\n      dup1\n      sload\n      dup1\n      0x20\n      mul\n      0x20\n      add\n      mload(0x40)\n      swap1\n      dup2\n      add\n      0x40\n      mstore\n      dup1\n      swap3\n      swap2\n      swap1\n      dup2\n      dup2\n      mstore\n      0x20\n      add\n      dup3\n      dup1\n      sload\n      dup1\n      iszero\n      tag_416\n      jumpi\n      0x20\n      mul\n      dup3\n      add\n      swap2\n      swap1\n      0x00\n      mstore\n      keccak256(0x00, 0x20)\n      swap1\n    tag_417:\n      dup2\n      sload\n      sub(shl(0xa0, 0x01), 0x01)\n      and\n      dup2\n      mstore\n      0x01\n      swap1\n      swap2\n      add\n      swap1\n      0x20\n      add\n      dup1\n      dup4\n      gt\n      tag_417\n      jumpi\n    tag_416:\n      pop\n      pop\n      pop\n      pop\n      pop\n      dup2\n      mstore\n      0x20\n      add\n        /* \"Will.sol\":10445:10468  distributionPercentages */\n      0x05\n        /* \"Will.sol\":10297:10523  WillDetails(... */\n      dup1\n      sload\n      dup1\n      0x20\n      mul\n      0x20\n      add\n      mload(0x40)\n      swap1\n      dup2\n      add\n      0x40\n      mstore\n      dup1\n      swap3\n      swap2\n      swap1\n      dup2\n      dup2\n      mstore\n      0x20\n      add\n      dup3\n      dup1\n      sload\n      dup1\n      iszero\n      tag_418\n      jumpi\n      0x20\n      mul\n      dup3\n      add\n      swap2\n      swap1\n      0x00\n      mstore\n      keccak256(0x00, 0x20)\n      swap1\n    tag_419:\n      dup2\n      sload\n      dup2\n      mstore\n      0x20\n      add\n      swap1\n      0x01\n      add\n      swap1\n      dup1\n      dup4\n      gt\n      tag_419\n      jumpi\n    tag_418:\n      pop\n      pop\n      pop\n      pop\n      pop\n      dup2\n      mstore\n      0x20\n      add\n        /* \"Will.sol\":10483:10496  _erc20Details */\n      dup4\n        /* \"Will.sol\":10297:10523  WillDetails(... */\n      dup2\n      mstore\n      0x20\n      add\n        /* \"Will.sol\":10498:10512  _erc721Details */\n      dup3\n        /* \"Will.sol\":10297:10523  WillDetails(... */\n      dup2\n      mstore\n      pop\n        /* \"Will.sol\":10290:10523  return WillDetails(... */\n      swap3\n      pop\n      pop\n      pop\n        /* \"Will.sol\":9603:10531  function getWillDetails() external view returns (WillDetails memory) {... */\n      swap1\n      jump\t// out\n        /* \"Will.sol\":2189:2222  Erc721Asset[] public erc721Assets */\n    tag_110:\n      0x07\n      dup2\n      dup2\n      sload\n      dup2\n      lt\n      tag_420\n      jumpi\n      0x00\n      dup1\n      revert\n    tag_420:\n      0x00\n      swap2\n      dup3\n      mstore\n      0x20\n      swap1\n      swap2\n      keccak256\n      0x03\n      swap1\n      swap2\n      mul\n      add\n      dup1\n      sload\n      0x01\n      dup3\n      add\n      sload\n      0x02\n      swap1\n      swap3\n      add\n      sload\n      sub(shl(0xa0, 0x01), 0x01)\n      swap2\n      dup3\n      and\n      swap4\n      pop\n      and\n      dup4\n      jump\t// out\n        /* \"@openzeppelin/contracts/access/Ownable.sol\":2543:2758  function transferOwnership(address newOwner) public virtual onlyOwner {... */\n    tag_122:\n        /* \"@openzeppelin/contracts/access/Ownable.sol\":1531:1544  _checkOwner() */\n      tag_423\n        /* \"@openzeppelin/contracts/access/Ownable.sol\":1531:1542  _checkOwner */\n      tag_129\n        /* \"@openzeppelin/contracts/access/Ownable.sol\":1531:1544  _checkOwner() */\n      jump\t// in\n    tag_423:\n      sub(shl(0xa0, 0x01), 0x01)\n        /* \"@openzeppelin/contracts/access/Ownable.sol\":2627:2649  newOwner == address(0) */\n      dup2\n      and\n        /* \"@openzeppelin/contracts/access/Ownable.sol\":2623:2714  if (newOwner == address(0)) {... */\n      tag_425\n      jumpi\n        /* \"@openzeppelin/contracts/access/Ownable.sol\":2672:2703  OwnableInvalidOwner(address(0)) */\n      mload(0x40)\n      shl(0xe0, 0x1e4fbdf7)\n      dup2\n      mstore\n        /* \"@openzeppelin/contracts/access/Ownable.sol\":2700:2701  0 */\n      0x00\n        /* \"@openzeppelin/contracts/access/Ownable.sol\":2672:2703  OwnableInvalidOwner(address(0)) */\n      0x04\n      dup3\n      add\n        /* \"#utility.yul\":932:983   */\n      mstore\n        /* \"#utility.yul\":905:923   */\n      0x24\n      add\n        /* \"@openzeppelin/contracts/access/Ownable.sol\":2672:2703  OwnableInvalidOwner(address(0)) */\n      tag_137\n        /* \"#utility.yul\":786:989   */\n      jump\n        /* \"@openzeppelin/contracts/access/Ownable.sol\":2623:2714  if (newOwner == address(0)) {... */\n    tag_425:\n        /* \"@openzeppelin/contracts/access/Ownable.sol\":2723:2751  _transferOwnership(newOwner) */\n      tag_427\n        /* \"@openzeppelin/contracts/access/Ownable.sol\":2742:2750  newOwner */\n      dup2\n        /* \"@openzeppelin/contracts/access/Ownable.sol\":2723:2741  _transferOwnership */\n      tag_314\n        /* \"@openzeppelin/contracts/access/Ownable.sol\":2723:2751  _transferOwnership(newOwner) */\n      jump\t// in\n    tag_427:\n        /* \"@openzeppelin/contracts/access/Ownable.sol\":2543:2758  function transferOwnership(address newOwner) public virtual onlyOwner {... */\n      pop\n      jump\t// out\n        /* \"@openzeppelin/contracts/access/Ownable.sol\":1796:1958  function _checkOwner() internal view virtual {... */\n    tag_129:\n        /* \"@openzeppelin/contracts/access/Ownable.sol\":1684:1691  address */\n      0x00\n        /* \"@openzeppelin/contracts/access/Ownable.sol\":1710:1716  _owner */\n      sload\n      sub(shl(0xa0, 0x01), 0x01)\n      and\n        /* \"@openzeppelin/contracts/utils/Context.sol\":735:745  msg.sender */\n      caller\n        /* \"@openzeppelin/contracts/access/Ownable.sol\":1855:1878  owner() != _msgSender() */\n      eq\n        /* \"@openzeppelin/contracts/access/Ownable.sol\":1851:1952  if (owner() != _msgSender()) {... */\n      tag_313\n      jumpi\n        /* \"@openzeppelin/contracts/access/Ownable.sol\":1901:1941  OwnableUnauthorizedAccount(_msgSender()) */\n      mload(0x40)\n      shl(0xe0, 0x118cdaa7)\n      dup2\n      mstore\n        /* \"@openzeppelin/contracts/utils/Context.sol\":735:745  msg.sender */\n      caller\n        /* \"@openzeppelin/contracts/access/Ownable.sol\":1901:1941  OwnableUnauthorizedAccount(_msgSender()) */\n      0x04\n      dup3\n      add\n        /* \"#utility.yul\":932:983   */\n      mstore\n        /* \"#utility.yul\":905:923   */\n      0x24\n      add\n        /* \"@openzeppelin/contracts/access/Ownable.sol\":1901:1941  OwnableUnauthorizedAccount(_msgSender()) */\n      tag_137\n        /* \"#utility.yul\":786:989   */\n      jump\n        /* \"Will.sol\":667:779  function _preReentryCheck() private view { if (_status == _ENTERED) { revert ReentrancyGuardReentrantCall(); } } */\n    tag_141:\n        /* \"Will.sol\":441:442  2 */\n      0x02\n        /* \"Will.sol\":714:721  _status */\n      sload(0x01)\n        /* \"Will.sol\":714:733  _status == _ENTERED */\n      sub\n        /* \"Will.sol\":710:777  if (_status == _ENTERED) { revert ReentrancyGuardReentrantCall(); } */\n      tag_313\n      jumpi\n        /* \"Will.sol\":744:774  ReentrancyGuardReentrantCall() */\n      mload(0x40)\n      shl(0xe0, 0x3ee5aeb5)\n      dup2\n      mstore\n      0x04\n      add\n      mload(0x40)\n      dup1\n      swap2\n      sub\n      swap1\n      revert\n        /* \"Will.sol\":8819:9595  function _returnAllAssets() internal {... */\n    tag_144:\n        /* \"Will.sol\":8867:8889  address payable _owner */\n      0x00\n        /* \"@openzeppelin/contracts/access/Ownable.sol\":1710:1716  _owner */\n      dup1\n      sload\n      sub(shl(0xa0, 0x01), 0x01)\n      and\n      swap1\n        /* \"Will.sol\":8919:9157  for (uint i = 0; i < erc20Assets.length; i++) {... */\n    tag_439:\n        /* \"Will.sol\":8940:8951  erc20Assets */\n      0x06\n        /* \"Will.sol\":8940:8958  erc20Assets.length */\n      sload\n        /* \"Will.sol\":8936:8958  i < erc20Assets.length */\n      dup2\n      lt\n        /* \"Will.sol\":8919:9157  for (uint i = 0; i < erc20Assets.length; i++) {... */\n      iszero\n      tag_440\n      jumpi\n        /* \"Will.sol\":8980:8992  IERC20 token */\n      0x00\n        /* \"Will.sol\":8995:9006  erc20Assets */\n      0x06\n        /* \"Will.sol\":9007:9008  i */\n      dup3\n        /* \"Will.sol\":8995:9009  erc20Assets[i] */\n      dup2\n      sload\n      dup2\n      lt\n      tag_443\n      jumpi\n      tag_443\n      tag_212\n      jump\t// in\n    tag_443:\n      0x00\n      swap2\n      dup3\n      mstore\n      0x20\n      dup3\n      keccak256\n      add\n        /* \"Will.sol\":8995:9015  erc20Assets[i].token */\n      sload\n        /* \"Will.sol\":9048:9078  token.balanceOf(address(this)) */\n      mload(0x40)\n      shl(0xe0, 0x70a08231)\n      dup2\n      mstore\n        /* \"Will.sol\":9072:9076  this */\n      address\n        /* \"Will.sol\":9048:9078  token.balanceOf(address(this)) */\n      0x04\n      dup3\n      add\n        /* \"#utility.yul\":932:983   */\n      mstore\n      sub(shl(0xa0, 0x01), 0x01)\n        /* \"Will.sol\":8995:9015  erc20Assets[i].token */\n      swap1\n      swap2\n      and\n      swap3\n      pop\n      dup3\n      swap1\n        /* \"Will.sol\":9048:9063  token.balanceOf */\n      0x70a08231\n      swap1\n        /* \"#utility.yul\":905:923   */\n      0x24\n      add\n        /* \"Will.sol\":9048:9078  token.balanceOf(address(this)) */\n      0x20\n      mload(0x40)\n      dup1\n      dup4\n      sub\n      dup2\n      dup7\n      gas\n      staticcall\n      iszero\n      dup1\n      iszero\n      tag_447\n      jumpi\n      returndatasize\n      0x00\n      dup1\n      returndatacopy\n      revert(0x00, returndatasize)\n    tag_447:\n      pop\n      pop\n      pop\n      pop\n      mload(0x40)\n      returndatasize\n      not(0x1f)\n      0x1f\n      dup3\n      add\n      and\n      dup3\n      add\n      dup1\n      0x40\n      mstore\n      pop\n      dup2\n      add\n      swap1\n      tag_448\n      swap2\n      swap1\n      tag_237\n      jump\t// in\n    tag_448:\n        /* \"Will.sol\":9030:9078  uint256 balance = token.balanceOf(address(this)) */\n      swap1\n      pop\n        /* \"Will.sol\":9097:9108  balance > 0 */\n      dup1\n      iszero\n        /* \"Will.sol\":9093:9146  if (balance > 0) { token.transfer(_owner, balance); } */\n      tag_449\n      jumpi\n        /* \"Will.sol\":9112:9143  token.transfer(_owner, balance) */\n      mload(0x40)\n      shl(0xe0, 0xa9059cbb)\n      dup2\n      mstore\n      sub(shl(0xa0, 0x01), 0x01)\n        /* \"#utility.yul\":13522:13554   */\n      dup6\n      dup2\n      and\n        /* \"Will.sol\":9112:9143  token.transfer(_owner, balance) */\n      0x04\n      dup4\n      add\n        /* \"#utility.yul\":13504:13555   */\n      mstore\n        /* \"#utility.yul\":13571:13589   */\n      0x24\n      dup3\n      add\n        /* \"#utility.yul\":13564:13598   */\n      dup4\n      swap1\n      mstore\n        /* \"Will.sol\":9112:9126  token.transfer */\n      dup4\n      and\n      swap1\n      0xa9059cbb\n      swap1\n        /* \"#utility.yul\":13477:13495   */\n      0x44\n      add\n        /* \"Will.sol\":9112:9143  token.transfer(_owner, balance) */\n      0x20\n      mload(0x40)\n      dup1\n      dup4\n      sub\n      dup2\n      0x00\n      dup8\n      gas\n      call\n      iszero\n      dup1\n      iszero\n      tag_453\n      jumpi\n      returndatasize\n      0x00\n      dup1\n      returndatacopy\n      revert(0x00, returndatasize)\n    tag_453:\n      pop\n      pop\n      pop\n      pop\n      mload(0x40)\n      returndatasize\n      not(0x1f)\n      0x1f\n      dup3\n      add\n      and\n      dup3\n      add\n      dup1\n      0x40\n      mstore\n      pop\n      dup2\n      add\n      swap1\n      tag_454\n      swap2\n      swap1\n      tag_248\n      jump\t// in\n    tag_454:\n      pop\n        /* \"Will.sol\":9093:9146  if (balance > 0) { token.transfer(_owner, balance); } */\n    tag_449:\n      pop\n      pop\n        /* \"Will.sol\":8960:8963  i++ */\n      0x01\n      add\n        /* \"Will.sol\":8919:9157  for (uint i = 0; i < erc20Assets.length; i++) {... */\n      jump(tag_439)\n    tag_440:\n      pop\n        /* \"Will.sol\":9172:9178  uint i */\n      0x00\n        /* \"Will.sol\":9167:9364  for (uint i = 0; i < erc721Assets.length; i++) {... */\n    tag_455:\n        /* \"Will.sol\":9188:9200  erc721Assets */\n      0x07\n        /* \"Will.sol\":9188:9207  erc721Assets.length */\n      sload\n        /* \"Will.sol\":9184:9207  i < erc721Assets.length */\n      dup2\n      lt\n        /* \"Will.sol\":9167:9364  for (uint i = 0; i < erc721Assets.length; i++) {... */\n      iszero\n      tag_456\n      jumpi\n        /* \"Will.sol\":9229:9253  Erc721Asset memory asset */\n      0x00\n        /* \"Will.sol\":9256:9268  erc721Assets */\n      0x07\n        /* \"Will.sol\":9269:9270  i */\n      dup3\n        /* \"Will.sol\":9256:9271  erc721Assets[i] */\n      dup2\n      sload\n      dup2\n      lt\n      tag_459\n      jumpi\n      tag_459\n      tag_212\n      jump\t// in\n    tag_459:\n      0x00\n      swap2\n      dup3\n      mstore\n      0x20\n      swap2\n      dup3\n      swap1\n      keccak256\n        /* \"Will.sol\":9229:9271  Erc721Asset memory asset = erc721Assets[i] */\n      0x40\n      dup1\n      mload\n      0x60\n      dup2\n      add\n      dup3\n      mstore\n        /* \"Will.sol\":9256:9271  erc721Assets[i] */\n      0x03\n      swap1\n      swap4\n      mul\n      swap1\n      swap2\n      add\n        /* \"Will.sol\":9229:9271  Erc721Asset memory asset = erc721Assets[i] */\n      dup1\n      sload\n      sub(shl(0xa0, 0x01), 0x01)\n      swap1\n      dup2\n      and\n      dup1\n      dup6\n      mstore\n      0x01\n      dup4\n      add\n      sload\n      swap6\n      dup6\n      add\n      dup7\n      swap1\n      mstore\n      0x02\n      swap1\n      swap3\n      add\n      sload\n      and\n      dup4\n      dup4\n      add\n      mstore\n        /* \"Will.sol\":9286:9352  asset.token.safeTransferFrom(address(this), _owner, asset.tokenId) */\n      swap1\n      mload\n      shl(0xe1, 0x21421707)\n      dup2\n      mstore\n        /* \"Will.sol\":9229:9271  Erc721Asset memory asset = erc721Assets[i] */\n      swap2\n      swap4\n      pop\n      swap2\n        /* \"Will.sol\":9286:9314  asset.token.safeTransferFrom */\n      0x42842e0e\n      swap2\n        /* \"Will.sol\":9286:9352  asset.token.safeTransferFrom(address(this), _owner, asset.tokenId) */\n      tag_461\n      swap2\n        /* \"Will.sol\":9323:9327  this */\n      address\n      swap2\n        /* \"Will.sol\":9330:9336  _owner */\n      dup9\n      swap2\n        /* \"Will.sol\":9229:9271  Erc721Asset memory asset = erc721Assets[i] */\n      swap1\n        /* \"Will.sol\":9286:9352  asset.token.safeTransferFrom(address(this), _owner, asset.tokenId) */\n      0x04\n      add\n      tag_272\n      jump\t// in\n    tag_461:\n      0x00\n      mload(0x40)\n      dup1\n      dup4\n      sub\n      dup2\n      0x00\n      dup8\n      dup1\n      extcodesize\n      iszero\n      dup1\n      iszero\n      tag_463\n      jumpi\n      0x00\n      dup1\n      revert\n    tag_463:\n      pop\n      gas\n      call\n      iszero\n      dup1\n      iszero\n      tag_465\n      jumpi\n      returndatasize\n      0x00\n      dup1\n      returndatacopy\n      revert(0x00, returndatasize)\n    tag_465:\n      pop\n      pop\n        /* \"Will.sol\":9209:9212  i++ */\n      0x01\n      swap1\n      swap4\n      add\n      swap3\n      pop\n        /* \"Will.sol\":9167:9364  for (uint i = 0; i < erc721Assets.length; i++) {... */\n      tag_455\n      swap2\n      pop\n      pop\n      jump\n    tag_456:\n      pop\n        /* \"Will.sol\":9397:9418  address(this).balance */\n      selfbalance\n        /* \"Will.sol\":9433:9449  remainingEth > 0 */\n      dup1\n      iszero\n        /* \"Will.sol\":9429:9588  if (remainingEth > 0) {... */\n      tag_466\n      jumpi\n        /* \"Will.sol\":9467:9479  bool success */\n      0x00\n        /* \"Will.sol\":9485:9491  _owner */\n      dup3\n      sub(shl(0xa0, 0x01), 0x01)\n        /* \"Will.sol\":9485:9496  _owner.call */\n      and\n        /* \"Will.sol\":9504:9516  remainingEth */\n      dup3\n        /* \"Will.sol\":9485:9521  _owner.call{value: remainingEth}(\"\") */\n      mload(0x40)\n      0x00\n      mload(0x40)\n      dup1\n      dup4\n      sub\n      dup2\n      dup6\n      dup8\n      gas\n      call\n      swap3\n      pop\n      pop\n      pop\n      returndatasize\n      dup1\n      0x00\n      dup2\n      eq\n      tag_470\n      jumpi\n      mload(0x40)\n      swap2\n      pop\n      and(add(returndatasize, 0x3f), not(0x1f))\n      dup3\n      add\n      0x40\n      mstore\n      returndatasize\n      dup3\n      mstore\n      returndatasize\n      0x00\n      0x20\n      dup5\n      add\n      returndatacopy\n      jump(tag_469)\n    tag_470:\n      0x60\n      swap2\n      pop\n    tag_469:\n      pop\n        /* \"Will.sol\":9466:9521  (bool success, ) = _owner.call{value: remainingEth}(\"\") */\n      pop\n      swap1\n      pop\n        /* \"Will.sol\":9544:9551  success */\n      dup1\n        /* \"Will.sol\":9536:9576  require(success, \"ETH transfer failed.\") */\n      tag_471\n      jumpi\n      mload(0x40)\n      shl(0xe5, 0x461bcd)\n      dup2\n      mstore\n        /* \"#utility.yul\":16602:16604   */\n      0x20\n        /* \"Will.sol\":9536:9576  require(success, \"ETH transfer failed.\") */\n      0x04\n      dup3\n      add\n        /* \"#utility.yul\":16584:16605   */\n      mstore\n        /* \"#utility.yul\":16641:16643   */\n      0x14\n        /* \"#utility.yul\":16621:16639   */\n      0x24\n      dup3\n      add\n        /* \"#utility.yul\":16614:16644   */\n      mstore\n      shl(0x61, 0x22aa24103a3930b739b332b9103330b4b632b217)\n        /* \"#utility.yul\":16660:16678   */\n      0x44\n      dup3\n      add\n        /* \"#utility.yul\":16653:16703   */\n      mstore\n        /* \"#utility.yul\":16720:16738   */\n      0x64\n      add\n        /* \"Will.sol\":9536:9576  require(success, \"ETH transfer failed.\") */\n      tag_137\n        /* \"#utility.yul\":16400:16744   */\n      jump\n        /* \"Will.sol\":9536:9576  require(success, \"ETH transfer failed.\") */\n    tag_471:\n        /* \"Will.sol\":9451:9588  {... */\n      pop\n        /* \"Will.sol\":9429:9588  if (remainingEth > 0) {... */\n    tag_466:\n        /* \"Will.sol\":8856:9595  {... */\n      pop\n      pop\n        /* \"Will.sol\":8819:9595  function _returnAllAssets() internal {... */\n      jump\t// out\n        /* \"@openzeppelin/contracts/access/Ownable.sol\":2912:3099  function _transferOwnership(address newOwner) internal virtual {... */\n    tag_314:\n        /* \"@openzeppelin/contracts/access/Ownable.sol\":2985:3001  address oldOwner */\n      0x00\n        /* \"@openzeppelin/contracts/access/Ownable.sol\":3004:3010  _owner */\n      dup1\n      sload\n      sub(shl(0xa0, 0x01), 0x01)\n        /* \"@openzeppelin/contracts/access/Ownable.sol\":3020:3037  _owner = newOwner */\n      dup4\n      dup2\n      and\n      not(sub(shl(0xa0, 0x01), 0x01))\n      dup4\n      and\n      dup2\n      or\n      dup5\n      sstore\n        /* \"@openzeppelin/contracts/access/Ownable.sol\":3052:3092  OwnershipTransferred(oldOwner, newOwner) */\n      mload(0x40)\n        /* \"@openzeppelin/contracts/access/Ownable.sol\":3004:3010  _owner */\n      swap2\n      swap1\n      swap3\n      and\n      swap3\n      dup4\n      swap2\n        /* \"@openzeppelin/contracts/access/Ownable.sol\":3052:3092  OwnershipTransferred(oldOwner, newOwner) */\n      0x8be0079c531659141344cd1fd0a4f28419497f9722a3daafe3b4186f6b6457e0\n      swap2\n        /* \"@openzeppelin/contracts/access/Ownable.sol\":2985:3001  address oldOwner */\n      swap1\n        /* \"@openzeppelin/contracts/access/Ownable.sol\":3052:3092  OwnershipTransferred(oldOwner, newOwner) */\n      log3\n        /* \"@openzeppelin/contracts/access/Ownable.sol\":2975:3099  {... */\n      pop\n        /* \"@openzeppelin/contracts/access/Ownable.sol\":2912:3099  function _transferOwnership(address newOwner) internal virtual {... */\n      pop\n      jump\t// out\n        /* \"Will.sol\":7880:8807  function _configure(... */\n    tag_353:\n        /* \"Will.sol\":8111:8118  _distro */\n      dup5\n        /* \"Will.sol\":8111:8125  _distro.length */\n      mload\n        /* \"Will.sol\":8094:8100  _heirs */\n      dup7\n        /* \"Will.sol\":8094:8107  _heirs.length */\n      mload\n        /* \"Will.sol\":8094:8125  _heirs.length == _distro.length */\n      eq\n        /* \"Will.sol\":8086:8158  require(_heirs.length == _distro.length, \"Heirs/distributions mismatch\") */\n      tag_476\n      jumpi\n      mload(0x40)\n      shl(0xe5, 0x461bcd)\n      dup2\n      mstore\n        /* \"#utility.yul\":16951:16953   */\n      0x20\n        /* \"Will.sol\":8086:8158  require(_heirs.length == _distro.length, \"Heirs/distributions mismatch\") */\n      0x04\n      dup3\n      add\n        /* \"#utility.yul\":16933:16954   */\n      mstore\n        /* \"#utility.yul\":16990:16992   */\n      0x1c\n        /* \"#utility.yul\":16970:16988   */\n      0x24\n      dup3\n      add\n        /* \"#utility.yul\":16963:16993   */\n      mstore\n        /* \"#utility.yul\":17029:17059   */\n      0x48656972732f646973747269627574696f6e73206d69736d6174636800000000\n        /* \"#utility.yul\":17009:17027   */\n      0x44\n      dup3\n      add\n        /* \"#utility.yul\":17002:17060   */\n      mstore\n        /* \"#utility.yul\":17077:17095   */\n      0x64\n      add\n        /* \"Will.sol\":8086:8158  require(_heirs.length == _distro.length, \"Heirs/distributions mismatch\") */\n      tag_137\n        /* \"#utility.yul\":16749:17101   */\n      jump\n        /* \"Will.sol\":8086:8158  require(_heirs.length == _distro.length, \"Heirs/distributions mismatch\") */\n    tag_476:\n        /* \"Will.sol\":8173:8186  _heirs.length */\n      dup6\n      mload\n        /* \"Will.sol\":8173:8190  _heirs.length > 0 */\n      iszero\n        /* \"Will.sol\":8169:8417  if (_heirs.length > 0) {... */\n      tag_479\n      jumpi\n        /* \"Will.sol\":8207:8230  uint256 totalPercentage */\n      0x00\n        /* \"Will.sol\":8254:8263  uint256 i */\n      dup1\n        /* \"Will.sol\":8249:8328  for (uint256 i = 0; i < _distro.length; i++) { totalPercentage += _distro[i]; } */\n    tag_480:\n        /* \"Will.sol\":8273:8280  _distro */\n      dup7\n        /* \"Will.sol\":8273:8287  _distro.length */\n      mload\n        /* \"Will.sol\":8269:8270  i */\n      dup2\n        /* \"Will.sol\":8269:8287  i < _distro.length */\n      lt\n        /* \"Will.sol\":8249:8328  for (uint256 i = 0; i < _distro.length; i++) { totalPercentage += _distro[i]; } */\n      iszero\n      tag_481\n      jumpi\n        /* \"Will.sol\":8315:8322  _distro */\n      dup7\n        /* \"Will.sol\":8323:8324  i */\n      dup2\n        /* \"Will.sol\":8315:8325  _distro[i] */\n      dup2\n      mload\n      dup2\n      lt\n      tag_484\n      jumpi\n      tag_484\n      tag_212\n      jump\t// in\n    tag_484:\n      0x20\n      mul\n      0x20\n      add\n      add\n      mload\n        /* \"Will.sol\":8296:8325  totalPercentage += _distro[i] */\n      dup3\n      tag_485\n      swap2\n      swap1\n      tag_178\n      jump\t// in\n    tag_485:\n      swap2\n      pop\n        /* \"Will.sol\":8289:8292  i++ */\n      0x01\n      add\n        /* \"Will.sol\":8249:8328  for (uint256 i = 0; i < _distro.length; i++) { totalPercentage += _distro[i]; } */\n      jump(tag_480)\n    tag_481:\n      pop\n        /* \"Will.sol\":8350:8365  totalPercentage */\n      dup1\n        /* \"Will.sol\":8369:8372  100 */\n      0x64\n        /* \"Will.sol\":8350:8372  totalPercentage == 100 */\n      eq\n        /* \"Will.sol\":8342:8405  require(totalPercentage == 100, \"Distribution must sum to 100\") */\n      tag_486\n      jumpi\n      mload(0x40)\n      shl(0xe5, 0x461bcd)\n      dup2\n      mstore\n        /* \"#utility.yul\":17308:17310   */\n      0x20\n        /* \"Will.sol\":8342:8405  require(totalPercentage == 100, \"Distribution must sum to 100\") */\n      0x04\n      dup3\n      add\n        /* \"#utility.yul\":17290:17311   */\n      mstore\n        /* \"#utility.yul\":17347:17349   */\n      0x1c\n        /* \"#utility.yul\":17327:17345   */\n      0x24\n      dup3\n      add\n        /* \"#utility.yul\":17320:17350   */\n      mstore\n        /* \"#utility.yul\":17386:17416   */\n      0x446973747269627574696f6e206d7573742073756d20746f2031303000000000\n        /* \"#utility.yul\":17366:17384   */\n      0x44\n      dup3\n      add\n        /* \"#utility.yul\":17359:17417   */\n      mstore\n        /* \"#utility.yul\":17434:17452   */\n      0x64\n      add\n        /* \"Will.sol\":8342:8405  require(totalPercentage == 100, \"Distribution must sum to 100\") */\n      tag_137\n        /* \"#utility.yul\":17106:17458   */\n      jump\n        /* \"Will.sol\":8342:8405  require(totalPercentage == 100, \"Distribution must sum to 100\") */\n    tag_486:\n        /* \"Will.sol\":8192:8417  {... */\n      pop\n        /* \"Will.sol\":8169:8417  if (_heirs.length > 0) {... */\n    tag_479:\n        /* \"Will.sol\":8427:8441  heirs = _heirs */\n      dup6\n      mload\n      tag_489\n      swap1\n        /* \"Will.sol\":8427:8432  heirs */\n      0x04\n      swap1\n        /* \"Will.sol\":8427:8441  heirs = _heirs */\n      0x20\n      dup10\n      add\n      swap1\n      tag_490\n      jump\t// in\n    tag_489:\n      pop\n        /* \"Will.sol\":8452:8485  distributionPercentages = _distro */\n      dup5\n      mload\n      tag_491\n      swap1\n        /* \"Will.sol\":8452:8475  distributionPercentages */\n      0x05\n      swap1\n        /* \"Will.sol\":8452:8485  distributionPercentages = _distro */\n      0x20\n      dup9\n      add\n      swap1\n      tag_492\n      jump\t// in\n    tag_491:\n      pop\n        /* \"Will.sol\":8501:8507  uint i */\n      0x00\n        /* \"Will.sol\":8496:8627  for (uint i = 0; i < _erc20s.length; i++) {... */\n    tag_493:\n        /* \"Will.sol\":8513:8531  i < _erc20s.length */\n      dup4\n      dup2\n      lt\n        /* \"Will.sol\":8496:8627  for (uint i = 0; i < _erc20s.length; i++) {... */\n      iszero\n      tag_494\n      jumpi\n        /* \"Will.sol\":8553:8564  erc20Assets */\n      0x06\n        /* \"Will.sol\":8570:8614  Erc20Asset(IERC20(_erc20s[i].tokenContract)) */\n      mload(0x40)\n      dup1\n      0x20\n      add\n      0x40\n      mstore\n      dup1\n        /* \"Will.sol\":8588:8595  _erc20s */\n      dup8\n      dup8\n        /* \"Will.sol\":8596:8597  i */\n      dup6\n        /* \"Will.sol\":8588:8598  _erc20s[i] */\n      dup2\n      dup2\n      lt\n      tag_497\n      jumpi\n      tag_497\n      tag_212\n      jump\t// in\n    tag_497:\n        /* \"Will.sol\":8588:8612  _erc20s[i].tokenContract */\n      tag_498\n      swap3\n      0x20\n        /* \"Will.sol\":8588:8598  _erc20s[i] */\n      0x40\n      swap1\n      swap3\n      mul\n      add\n        /* \"Will.sol\":8588:8612  _erc20s[i].tokenContract */\n      swap1\n      dup2\n      add\n      swap2\n      pop\n      tag_121\n      jump\t// in\n    tag_498:\n      sub(shl(0xa0, 0x01), 0x01)\n        /* \"Will.sol\":8570:8614  Erc20Asset(IERC20(_erc20s[i].tokenContract)) */\n      swap1\n      dup2\n      and\n      swap1\n      swap2\n      mstore\n        /* \"Will.sol\":8553:8615  erc20Assets.push(Erc20Asset(IERC20(_erc20s[i].tokenContract))) */\n      dup3\n      sload\n      0x01\n      dup1\n      dup3\n      add\n      dup6\n      sstore\n      0x00\n      swap5\n      dup6\n      mstore\n      0x20\n      swap1\n      swap5\n      keccak256\n      swap3\n      mload\n      swap3\n      add\n      dup1\n      sload\n      not(sub(shl(0xa0, 0x01), 0x01))\n      and\n      swap3\n      swap1\n      swap2\n      and\n      swap2\n      swap1\n      swap2\n      or\n      swap1\n      sstore\n        /* \"Will.sol\":8533:8536  i++ */\n      add\n        /* \"Will.sol\":8496:8627  for (uint i = 0; i < _erc20s.length; i++) {... */\n      jump(tag_493)\n    tag_494:\n      pop\n        /* \"Will.sol\":8642:8648  uint i */\n      0x00\n        /* \"Will.sol\":8637:8800  for (uint i = 0; i < _nfts.length; i++) {... */\n    tag_500:\n        /* \"Will.sol\":8654:8670  i < _nfts.length */\n      dup2\n      dup2\n      lt\n        /* \"Will.sol\":8637:8800  for (uint i = 0; i < _nfts.length; i++) {... */\n      iszero\n      tag_501\n      jumpi\n        /* \"Will.sol\":8692:8704  erc721Assets */\n      0x07\n        /* \"Will.sol\":8710:8787  Erc721Asset(IERC721(_nfts[i].tokenContract), _nfts[i].tokenId, _nfts[i].heir) */\n      mload(0x40)\n      dup1\n      0x60\n      add\n      0x40\n      mstore\n      dup1\n        /* \"Will.sol\":8730:8735  _nfts */\n      dup6\n      dup6\n        /* \"Will.sol\":8736:8737  i */\n      dup6\n        /* \"Will.sol\":8730:8738  _nfts[i] */\n      dup2\n      dup2\n      lt\n      tag_504\n      jumpi\n      tag_504\n      tag_212\n      jump\t// in\n    tag_504:\n        /* \"Will.sol\":8730:8752  _nfts[i].tokenContract */\n      tag_505\n      swap3\n      0x20\n        /* \"Will.sol\":8730:8738  _nfts[i] */\n      0x60\n      swap1\n      swap3\n      mul\n      add\n        /* \"Will.sol\":8730:8752  _nfts[i].tokenContract */\n      swap1\n      dup2\n      add\n      swap2\n      pop\n      tag_121\n      jump\t// in\n    tag_505:\n      sub(shl(0xa0, 0x01), 0x01)\n        /* \"Will.sol\":8710:8787  Erc721Asset(IERC721(_nfts[i].tokenContract), _nfts[i].tokenId, _nfts[i].heir) */\n      and\n      dup2\n      mstore\n      0x20\n      add\n        /* \"Will.sol\":8755:8760  _nfts */\n      dup6\n      dup6\n        /* \"Will.sol\":8761:8762  i */\n      dup6\n        /* \"Will.sol\":8755:8763  _nfts[i] */\n      dup2\n      dup2\n      lt\n      tag_507\n      jumpi\n      tag_507\n      tag_212\n      jump\t// in\n    tag_507:\n      swap1\n      pop\n      0x60\n      mul\n      add\n        /* \"Will.sol\":8755:8771  _nfts[i].tokenId */\n      0x20\n      add\n      calldataload\n        /* \"Will.sol\":8710:8787  Erc721Asset(IERC721(_nfts[i].tokenContract), _nfts[i].tokenId, _nfts[i].heir) */\n      dup2\n      mstore\n      0x20\n      add\n        /* \"Will.sol\":8773:8778  _nfts */\n      dup6\n      dup6\n        /* \"Will.sol\":8779:8780  i */\n      dup6\n        /* \"Will.sol\":8773:8781  _nfts[i] */\n      dup2\n      dup2\n      lt\n      tag_509\n      jumpi\n      tag_509\n      tag_212\n      jump\t// in\n    tag_509:\n      swap1\n      pop\n      0x60\n      mul\n      add\n        /* \"Will.sol\":8773:8786  _nfts[i].heir */\n      0x40\n      add\n      0x20\n      dup2\n      add\n      swap1\n      tag_510\n      swap2\n      swap1\n      tag_121\n      jump\t// in\n    tag_510:\n      sub(shl(0xa0, 0x01), 0x01)\n        /* \"Will.sol\":8710:8787  Erc721Asset(IERC721(_nfts[i].tokenContract), _nfts[i].tokenId, _nfts[i].heir) */\n      swap1\n      dup2\n      and\n      swap1\n      swap2\n      mstore\n        /* \"Will.sol\":8692:8788  erc721Assets.push(Erc721Asset(IERC721(_nfts[i].tokenContract), _nfts[i].tokenId, _nfts[i].heir)) */\n      dup3\n      sload\n      0x01\n      dup2\n      dup2\n      add\n      dup6\n      sstore\n      0x00\n      swap5\n      dup6\n      mstore\n      0x20\n      swap5\n      dup6\n      swap1\n      keccak256\n      dup5\n      mload\n      0x03\n      swap1\n      swap4\n      mul\n      add\n      dup1\n      sload\n      swap3\n      dup5\n      and\n      not(sub(shl(0xa0, 0x01), 0x01))\n      swap4\n      dup5\n      and\n      or\n      dup2\n      sstore\n      swap5\n      dup5\n      add\n      mload\n      dup6\n      dup3\n      add\n      sstore\n      0x40\n      swap1\n      swap4\n      add\n      mload\n      0x02\n      swap1\n      swap5\n      add\n      dup1\n      sload\n      swap5\n      swap1\n      swap3\n      and\n      swap4\n      and\n      swap3\n      swap1\n      swap3\n      or\n      swap1\n      swap2\n      sstore\n        /* \"Will.sol\":8672:8675  i++ */\n      add\n        /* \"Will.sol\":8637:8800  for (uint i = 0; i < _nfts.length; i++) {... */\n      jump(tag_500)\n    tag_501:\n      pop\n        /* \"Will.sol\":7880:8807  function _configure(... */\n      pop\n      pop\n      pop\n      pop\n      pop\n      pop\n      jump\t// out\n    tag_146:\n      pop\n      dup1\n      sload\n      0x00\n      dup3\n      sstore\n      swap1\n      0x00\n      mstore\n      keccak256(0x00, 0x20)\n      swap1\n      dup2\n      add\n      swap1\n      tag_427\n      swap2\n      swap1\n      tag_515\n      jump\t// in\n    tag_150:\n      pop\n      dup1\n      sload\n      0x00\n      dup3\n      sstore\n      swap1\n      0x00\n      mstore\n      keccak256(0x00, 0x20)\n      swap1\n      dup2\n      add\n      swap1\n      tag_427\n      swap2\n      swap1\n      tag_520\n      jump\t// in\n    tag_152:\n      pop\n      dup1\n      sload\n      0x00\n      dup3\n      sstore\n      0x03\n      mul\n      swap1\n      0x00\n      mstore\n      keccak256(0x00, 0x20)\n      swap1\n      dup2\n      add\n      swap1\n      tag_427\n      swap2\n      swap1\n      tag_523\n      jump\t// in\n    tag_490:\n      dup3\n      dup1\n      sload\n      dup3\n      dup3\n      sstore\n      swap1\n      0x00\n      mstore\n      keccak256(0x00, 0x20)\n      swap1\n      dup2\n      add\n      swap3\n      dup3\n      iszero\n      tag_526\n      jumpi\n      swap2\n      0x20\n      mul\n      dup3\n      add\n    tag_525:\n      dup3\n      dup2\n      gt\n      iszero\n      tag_526\n      jumpi\n      dup3\n      mload\n      dup3\n      sload\n      not(sub(shl(0xa0, 0x01), 0x01))\n      and\n      sub(shl(0xa0, 0x01), 0x01)\n      swap1\n      swap2\n      and\n      or\n      dup3\n      sstore\n      0x20\n      swap1\n      swap3\n      add\n      swap2\n      0x01\n      swap1\n      swap2\n      add\n      swap1\n      jump(tag_525)\n    tag_526:\n      pop\n      tag_527\n      swap3\n      swap2\n      pop\n      tag_515\n      jump\t// in\n    tag_527:\n      pop\n      swap1\n      jump\t// out\n    tag_492:\n      dup3\n      dup1\n      sload\n      dup3\n      dup3\n      sstore\n      swap1\n      0x00\n      mstore\n      keccak256(0x00, 0x20)\n      swap1\n      dup2\n      add\n      swap3\n      dup3\n      iszero\n      tag_526\n      jumpi\n      swap2\n      0x20\n      mul\n      dup3\n      add\n    tag_529:\n      dup3\n      dup2\n      gt\n      iszero\n      tag_526\n      jumpi\n      dup3\n      mload\n      dup3\n      sstore\n      swap2\n      0x20\n      add\n      swap2\n      swap1\n      0x01\n      add\n      swap1\n      jump(tag_529)\n    tag_515:\n    tag_532:\n      dup1\n      dup3\n      gt\n      iszero\n      tag_527\n      jumpi\n      0x00\n      dup2\n      sstore\n      0x01\n      add\n      jump(tag_532)\n    tag_520:\n    tag_534:\n      dup1\n      dup3\n      gt\n      iszero\n      tag_527\n      jumpi\n      dup1\n      sload\n      not(sub(shl(0xa0, 0x01), 0x01))\n      and\n      dup2\n      sstore\n      0x01\n      add\n      jump(tag_534)\n    tag_523:\n    tag_536:\n      dup1\n      dup3\n      gt\n      iszero\n      tag_527\n      jumpi\n      dup1\n      sload\n      not(sub(shl(0xa0, 0x01), 0x01))\n      swap1\n      dup2\n      and\n      dup3\n      sstore\n      0x00\n      0x01\n      dup4\n      add\n      sstore\n      0x02\n      dup3\n      add\n      dup1\n      sload\n      swap1\n      swap2\n      and\n      swap1\n      sstore\n      0x03\n      add\n      jump(tag_536)\n        /* \"#utility.yul\":14:141   */\n    tag_133:\n        /* \"#utility.yul\":75:85   */\n      0x4e487b71\n        /* \"#utility.yul\":70:73   */\n      0xe0\n        /* \"#utility.yul\":66:86   */\n      shl\n        /* \"#utility.yul\":63:64   */\n      0x00\n        /* \"#utility.yul\":56:87   */\n      mstore\n        /* \"#utility.yul\":106:110   */\n      0x21\n        /* \"#utility.yul\":103:104   */\n      0x04\n        /* \"#utility.yul\":96:111   */\n      mstore\n        /* \"#utility.yul\":130:134   */\n      0x24\n        /* \"#utility.yul\":127:128   */\n      0x00\n        /* \"#utility.yul\":120:135   */\n      revert\n        /* \"#utility.yul\":146:487   */\n    tag_31:\n        /* \"#utility.yul\":291:293   */\n      0x20\n        /* \"#utility.yul\":276:294   */\n      dup2\n      add\n        /* \"#utility.yul\":324:325   */\n      0x03\n        /* \"#utility.yul\":313:326   */\n      dup4\n      lt\n        /* \"#utility.yul\":303:447   */\n      tag_554\n      jumpi\n        /* \"#utility.yul\":369:379   */\n      0x4e487b71\n        /* \"#utility.yul\":364:367   */\n      0xe0\n        /* \"#utility.yul\":360:380   */\n      shl\n        /* \"#utility.yul\":357:358   */\n      0x00\n        /* \"#utility.yul\":350:381   */\n      mstore\n        /* \"#utility.yul\":404:408   */\n      0x21\n        /* \"#utility.yul\":401:402   */\n      0x04\n        /* \"#utility.yul\":394:409   */\n      mstore\n        /* \"#utility.yul\":432:436   */\n      0x24\n        /* \"#utility.yul\":429:430   */\n      0x00\n        /* \"#utility.yul\":422:437   */\n      revert\n        /* \"#utility.yul\":303:447   */\n    tag_554:\n        /* \"#utility.yul\":456:481   */\n      swap2\n      swap1\n      mstore\n        /* \"#utility.yul\":146:487   */\n      swap1\n      jump\t// out\n        /* \"#utility.yul\":492:672   */\n    tag_35:\n        /* \"#utility.yul\":551:557   */\n      0x00\n        /* \"#utility.yul\":604:606   */\n      0x20\n        /* \"#utility.yul\":592:601   */\n      dup3\n        /* \"#utility.yul\":583:590   */\n      dup5\n        /* \"#utility.yul\":579:602   */\n      sub\n        /* \"#utility.yul\":575:607   */\n      slt\n        /* \"#utility.yul\":572:624   */\n      iszero\n      tag_556\n      jumpi\n        /* \"#utility.yul\":620:621   */\n      0x00\n        /* \"#utility.yul\":617:618   */\n      dup1\n        /* \"#utility.yul\":610:622   */\n      revert\n        /* \"#utility.yul\":572:624   */\n    tag_556:\n      pop\n        /* \"#utility.yul\":643:666   */\n      calldataload\n      swap2\n        /* \"#utility.yul\":492:672   */\n      swap1\n      pop\n      jump\t// out\n        /* \"#utility.yul\":1176:1303   */\n    tag_380:\n        /* \"#utility.yul\":1237:1247   */\n      0x4e487b71\n        /* \"#utility.yul\":1232:1235   */\n      0xe0\n        /* \"#utility.yul\":1228:1248   */\n      shl\n        /* \"#utility.yul\":1225:1226   */\n      0x00\n        /* \"#utility.yul\":1218:1249   */\n      mstore\n        /* \"#utility.yul\":1268:1272   */\n      0x41\n        /* \"#utility.yul\":1265:1266   */\n      0x04\n        /* \"#utility.yul\":1258:1273   */\n      mstore\n        /* \"#utility.yul\":1292:1296   */\n      0x24\n        /* \"#utility.yul\":1289:1290   */\n      0x00\n        /* \"#utility.yul\":1282:1297   */\n      revert\n        /* \"#utility.yul\":1308:1583   */\n    tag_539:\n        /* \"#utility.yul\":1379:1381   */\n      0x40\n        /* \"#utility.yul\":1373:1382   */\n      mload\n        /* \"#utility.yul\":1444:1446   */\n      0x1f\n        /* \"#utility.yul\":1425:1438   */\n      dup3\n      add\n      not(0x1f)\n        /* \"#utility.yul\":1421:1448   */\n      and\n        /* \"#utility.yul\":1409:1449   */\n      dup2\n      add\n        /* \"#utility.yul\":1479:1497   */\n      0xffffffffffffffff\n        /* \"#utility.yul\":1464:1498   */\n      dup2\n      gt\n        /* \"#utility.yul\":1500:1522   */\n      dup3\n      dup3\n      lt\n        /* \"#utility.yul\":1461:1523   */\n      or\n        /* \"#utility.yul\":1458:1546   */\n      iszero\n      tag_563\n      jumpi\n        /* \"#utility.yul\":1526:1544   */\n      tag_563\n      tag_380\n      jump\t// in\n    tag_563:\n        /* \"#utility.yul\":1562:1564   */\n      0x40\n        /* \"#utility.yul\":1555:1577   */\n      mstore\n        /* \"#utility.yul\":1308:1583   */\n      swap2\n      swap1\n      pop\n      jump\t// out\n        /* \"#utility.yul\":1588:1771   */\n    tag_540:\n        /* \"#utility.yul\":1648:1652   */\n      0x00\n        /* \"#utility.yul\":1681:1699   */\n      0xffffffffffffffff\n        /* \"#utility.yul\":1673:1679   */\n      dup3\n        /* \"#utility.yul\":1670:1700   */\n      gt\n        /* \"#utility.yul\":1667:1723   */\n      iszero\n      tag_566\n      jumpi\n        /* \"#utility.yul\":1703:1721   */\n      tag_566\n      tag_380\n      jump\t// in\n    tag_566:\n      pop\n        /* \"#utility.yul\":1748:1749   */\n      0x05\n        /* \"#utility.yul\":1744:1758   */\n      shl\n        /* \"#utility.yul\":1760:1764   */\n      0x20\n        /* \"#utility.yul\":1740:1765   */\n      add\n      swap1\n        /* \"#utility.yul\":1588:1771   */\n      jump\t// out\n        /* \"#utility.yul\":1776:1949   */\n    tag_541:\n        /* \"#utility.yul\":1844:1864   */\n      dup1\n      calldataload\n      sub(shl(0xa0, 0x01), 0x01)\n        /* \"#utility.yul\":1893:1924   */\n      dup2\n      and\n        /* \"#utility.yul\":1883:1925   */\n      dup2\n      eq\n        /* \"#utility.yul\":1873:1943   */\n      tag_568\n      jumpi\n        /* \"#utility.yul\":1939:1940   */\n      0x00\n        /* \"#utility.yul\":1936:1937   */\n      dup1\n        /* \"#utility.yul\":1929:1941   */\n      revert\n        /* \"#utility.yul\":1873:1943   */\n    tag_568:\n        /* \"#utility.yul\":1776:1949   */\n      swap2\n      swap1\n      pop\n      jump\t// out\n        /* \"#utility.yul\":1954:2622   */\n    tag_542:\n        /* \"#utility.yul\":2008:2013   */\n      0x00\n        /* \"#utility.yul\":2061:2064   */\n      dup3\n        /* \"#utility.yul\":2054:2058   */\n      0x1f\n        /* \"#utility.yul\":2046:2052   */\n      dup4\n        /* \"#utility.yul\":2042:2059   */\n      add\n        /* \"#utility.yul\":2038:2065   */\n      slt\n        /* \"#utility.yul\":2028:2083   */\n      tag_570\n      jumpi\n        /* \"#utility.yul\":2079:2080   */\n      0x00\n        /* \"#utility.yul\":2076:2077   */\n      dup1\n        /* \"#utility.yul\":2069:2081   */\n      revert\n        /* \"#utility.yul\":2028:2083   */\n    tag_570:\n        /* \"#utility.yul\":2115:2121   */\n      dup2\n        /* \"#utility.yul\":2102:2122   */\n      calldataload\n        /* \"#utility.yul\":2141:2145   */\n      0x20\n        /* \"#utility.yul\":2165:2225   */\n      tag_571\n        /* \"#utility.yul\":2181:2224   */\n      tag_572\n        /* \"#utility.yul\":2221:2223   */\n      dup4\n        /* \"#utility.yul\":2181:2224   */\n      tag_540\n      jump\t// in\n    tag_572:\n        /* \"#utility.yul\":2165:2225   */\n      tag_539\n      jump\t// in\n    tag_571:\n        /* \"#utility.yul\":2247:2250   */\n      dup1\n        /* \"#utility.yul\":2271:2273   */\n      dup4\n        /* \"#utility.yul\":2266:2269   */\n      dup3\n        /* \"#utility.yul\":2259:2274   */\n      mstore\n        /* \"#utility.yul\":2299:2303   */\n      0x20\n        /* \"#utility.yul\":2294:2297   */\n      dup3\n        /* \"#utility.yul\":2290:2304   */\n      add\n        /* \"#utility.yul\":2283:2304   */\n      swap2\n      pop\n        /* \"#utility.yul\":2356:2360   */\n      0x20\n        /* \"#utility.yul\":2350:2352   */\n      dup5\n        /* \"#utility.yul\":2347:2348   */\n      0x05\n        /* \"#utility.yul\":2343:2353   */\n      shl\n        /* \"#utility.yul\":2335:2341   */\n      dup8\n        /* \"#utility.yul\":2331:2354   */\n      add\n        /* \"#utility.yul\":2327:2361   */\n      add\n        /* \"#utility.yul\":2313:2361   */\n      swap4\n      pop\n        /* \"#utility.yul\":2384:2387   */\n      dup7\n        /* \"#utility.yul\":2376:2382   */\n      dup5\n        /* \"#utility.yul\":2373:2388   */\n      gt\n        /* \"#utility.yul\":2370:2405   */\n      iszero\n      tag_573\n      jumpi\n        /* \"#utility.yul\":2401:2402   */\n      0x00\n        /* \"#utility.yul\":2398:2399   */\n      dup1\n        /* \"#utility.yul\":2391:2403   */\n      revert\n        /* \"#utility.yul\":2370:2405   */\n    tag_573:\n        /* \"#utility.yul\":2437:2441   */\n      0x20\n        /* \"#utility.yul\":2429:2435   */\n      dup7\n        /* \"#utility.yul\":2425:2442   */\n      add\n        /* \"#utility.yul\":2451:2593   */\n    tag_574:\n        /* \"#utility.yul\":2467:2473   */\n      dup5\n        /* \"#utility.yul\":2462:2465   */\n      dup2\n        /* \"#utility.yul\":2459:2474   */\n      lt\n        /* \"#utility.yul\":2451:2593   */\n      iszero\n      tag_576\n      jumpi\n        /* \"#utility.yul\":2533:2550   */\n      dup1\n      calldataload\n        /* \"#utility.yul\":2521:2551   */\n      dup4\n      mstore\n        /* \"#utility.yul\":2571:2583   */\n      swap2\n      dup4\n      add\n      swap2\n        /* \"#utility.yul\":2484:2496   */\n      dup4\n      add\n        /* \"#utility.yul\":2451:2593   */\n      jump(tag_574)\n    tag_576:\n      pop\n        /* \"#utility.yul\":2611:2616   */\n      swap7\n        /* \"#utility.yul\":1954:2622   */\n      swap6\n      pop\n      pop\n      pop\n      pop\n      pop\n      pop\n      jump\t// out\n        /* \"#utility.yul\":2627:3020   */\n    tag_543:\n        /* \"#utility.yul\":2716:2724   */\n      0x00\n        /* \"#utility.yul\":2726:2732   */\n      dup1\n        /* \"#utility.yul\":2780:2783   */\n      dup4\n        /* \"#utility.yul\":2773:2777   */\n      0x1f\n        /* \"#utility.yul\":2765:2771   */\n      dup5\n        /* \"#utility.yul\":2761:2778   */\n      add\n        /* \"#utility.yul\":2757:2784   */\n      slt\n        /* \"#utility.yul\":2747:2802   */\n      tag_578\n      jumpi\n        /* \"#utility.yul\":2798:2799   */\n      0x00\n        /* \"#utility.yul\":2795:2796   */\n      dup1\n        /* \"#utility.yul\":2788:2800   */\n      revert\n        /* \"#utility.yul\":2747:2802   */\n    tag_578:\n      pop\n        /* \"#utility.yul\":2821:2841   */\n      dup2\n      calldataload\n        /* \"#utility.yul\":2864:2882   */\n      0xffffffffffffffff\n        /* \"#utility.yul\":2853:2883   */\n      dup2\n      gt\n        /* \"#utility.yul\":2850:2900   */\n      iszero\n      tag_579\n      jumpi\n        /* \"#utility.yul\":2896:2897   */\n      0x00\n        /* \"#utility.yul\":2893:2894   */\n      dup1\n        /* \"#utility.yul\":2886:2898   */\n      revert\n        /* \"#utility.yul\":2850:2900   */\n    tag_579:\n        /* \"#utility.yul\":2933:2937   */\n      0x20\n        /* \"#utility.yul\":2925:2931   */\n      dup4\n        /* \"#utility.yul\":2921:2938   */\n      add\n        /* \"#utility.yul\":2909:2938   */\n      swap2\n      pop\n        /* \"#utility.yul\":2993:2996   */\n      dup4\n        /* \"#utility.yul\":2986:2990   */\n      0x20\n        /* \"#utility.yul\":2976:2982   */\n      dup3\n        /* \"#utility.yul\":2973:2974   */\n      0x06\n        /* \"#utility.yul\":2969:2983   */\n      shl\n        /* \"#utility.yul\":2961:2967   */\n      dup6\n        /* \"#utility.yul\":2957:2984   */\n      add\n        /* \"#utility.yul\":2953:2991   */\n      add\n        /* \"#utility.yul\":2950:2997   */\n      gt\n        /* \"#utility.yul\":2947:3014   */\n      iszero\n      tag_580\n      jumpi\n        /* \"#utility.yul\":3010:3011   */\n      0x00\n        /* \"#utility.yul\":3007:3008   */\n      dup1\n        /* \"#utility.yul\":3000:3012   */\n      revert\n        /* \"#utility.yul\":2947:3014   */\n    tag_580:\n        /* \"#utility.yul\":2627:3020   */\n      swap3\n      pop\n      swap3\n      swap1\n      pop\n      jump\t// out\n        /* \"#utility.yul\":3025:3419   */\n    tag_544:\n        /* \"#utility.yul\":3112:3120   */\n      0x00\n        /* \"#utility.yul\":3122:3128   */\n      dup1\n        /* \"#utility.yul\":3176:3179   */\n      dup4\n        /* \"#utility.yul\":3169:3173   */\n      0x1f\n        /* \"#utility.yul\":3161:3167   */\n      dup5\n        /* \"#utility.yul\":3157:3174   */\n      add\n        /* \"#utility.yul\":3153:3180   */\n      slt\n        /* \"#utility.yul\":3143:3198   */\n      tag_582\n      jumpi\n        /* \"#utility.yul\":3194:3195   */\n      0x00\n        /* \"#utility.yul\":3191:3192   */\n      dup1\n        /* \"#utility.yul\":3184:3196   */\n      revert\n        /* \"#utility.yul\":3143:3198   */\n    tag_582:\n      pop\n        /* \"#utility.yul\":3217:3237   */\n      dup2\n      calldataload\n        /* \"#utility.yul\":3260:3278   */\n      0xffffffffffffffff\n        /* \"#utility.yul\":3249:3279   */\n      dup2\n      gt\n        /* \"#utility.yul\":3246:3296   */\n      iszero\n      tag_583\n      jumpi\n        /* \"#utility.yul\":3292:3293   */\n      0x00\n        /* \"#utility.yul\":3289:3290   */\n      dup1\n        /* \"#utility.yul\":3282:3294   */\n      revert\n        /* \"#utility.yul\":3246:3296   */\n    tag_583:\n        /* \"#utility.yul\":3329:3333   */\n      0x20\n        /* \"#utility.yul\":3321:3327   */\n      dup4\n        /* \"#utility.yul\":3317:3334   */\n      add\n        /* \"#utility.yul\":3305:3334   */\n      swap2\n      pop\n        /* \"#utility.yul\":3392:3395   */\n      dup4\n        /* \"#utility.yul\":3385:3389   */\n      0x20\n        /* \"#utility.yul\":3377:3381   */\n      0x60\n        /* \"#utility.yul\":3369:3375   */\n      dup4\n        /* \"#utility.yul\":3365:3382   */\n      mul\n        /* \"#utility.yul\":3357:3363   */\n      dup6\n        /* \"#utility.yul\":3353:3383   */\n      add\n        /* \"#utility.yul\":3349:3390   */\n      add\n        /* \"#utility.yul\":3346:3396   */\n      gt\n        /* \"#utility.yul\":3343:3413   */\n      iszero\n      tag_580\n      jumpi\n        /* \"#utility.yul\":3409:3410   */\n      0x00\n        /* \"#utility.yul\":3406:3407   */\n      dup1\n        /* \"#utility.yul\":3399:3411   */\n      revert\n        /* \"#utility.yul\":3424:5321   */\n    tag_66:\n        /* \"#utility.yul\":3684:3690   */\n      0x00\n        /* \"#utility.yul\":3692:3698   */\n      dup1\n        /* \"#utility.yul\":3700:3706   */\n      0x00\n        /* \"#utility.yul\":3708:3714   */\n      dup1\n        /* \"#utility.yul\":3716:3722   */\n      0x00\n        /* \"#utility.yul\":3724:3730   */\n      dup1\n        /* \"#utility.yul\":3777:3780   */\n      0x80\n        /* \"#utility.yul\":3765:3774   */\n      dup8\n        /* \"#utility.yul\":3756:3763   */\n      dup10\n        /* \"#utility.yul\":3752:3775   */\n      sub\n        /* \"#utility.yul\":3748:3781   */\n      slt\n        /* \"#utility.yul\":3745:3798   */\n      iszero\n      tag_586\n      jumpi\n        /* \"#utility.yul\":3794:3795   */\n      0x00\n        /* \"#utility.yul\":3791:3792   */\n      dup1\n        /* \"#utility.yul\":3784:3796   */\n      revert\n        /* \"#utility.yul\":3745:3798   */\n    tag_586:\n        /* \"#utility.yul\":3834:3843   */\n      dup7\n        /* \"#utility.yul\":3821:3844   */\n      calldataload\n        /* \"#utility.yul\":3863:3881   */\n      0xffffffffffffffff\n        /* \"#utility.yul\":3904:3906   */\n      dup1\n        /* \"#utility.yul\":3896:3902   */\n      dup3\n        /* \"#utility.yul\":3893:3907   */\n      gt\n        /* \"#utility.yul\":3890:3924   */\n      iszero\n      tag_587\n      jumpi\n        /* \"#utility.yul\":3920:3921   */\n      0x00\n        /* \"#utility.yul\":3917:3918   */\n      dup1\n        /* \"#utility.yul\":3910:3922   */\n      revert\n        /* \"#utility.yul\":3890:3924   */\n    tag_587:\n        /* \"#utility.yul\":3958:3964   */\n      dup2\n        /* \"#utility.yul\":3947:3956   */\n      dup10\n        /* \"#utility.yul\":3943:3965   */\n      add\n        /* \"#utility.yul\":3933:3965   */\n      swap2\n      pop\n        /* \"#utility.yul\":4003:4010   */\n      dup10\n        /* \"#utility.yul\":3996:4000   */\n      0x1f\n        /* \"#utility.yul\":3992:3994   */\n      dup4\n        /* \"#utility.yul\":3988:4001   */\n      add\n        /* \"#utility.yul\":3984:4011   */\n      slt\n        /* \"#utility.yul\":3974:4029   */\n      tag_588\n      jumpi\n        /* \"#utility.yul\":4025:4026   */\n      0x00\n        /* \"#utility.yul\":4022:4023   */\n      dup1\n        /* \"#utility.yul\":4015:4027   */\n      revert\n        /* \"#utility.yul\":3974:4029   */\n    tag_588:\n        /* \"#utility.yul\":4061:4063   */\n      dup2\n        /* \"#utility.yul\":4048:4064   */\n      calldataload\n        /* \"#utility.yul\":4083:4087   */\n      0x20\n        /* \"#utility.yul\":4107:4167   */\n      tag_589\n        /* \"#utility.yul\":4123:4166   */\n      tag_572\n        /* \"#utility.yul\":4163:4165   */\n      dup4\n        /* \"#utility.yul\":4123:4166   */\n      tag_540\n      jump\t// in\n        /* \"#utility.yul\":4107:4167   */\n    tag_589:\n        /* \"#utility.yul\":4201:4216   */\n      dup3\n      dup2\n      mstore\n        /* \"#utility.yul\":4283:4284   */\n      0x05\n        /* \"#utility.yul\":4279:4289   */\n      swap3\n      swap1\n      swap3\n      shl\n        /* \"#utility.yul\":4271:4290   */\n      dup5\n      add\n        /* \"#utility.yul\":4267:4295   */\n      dup2\n      add\n      swap2\n        /* \"#utility.yul\":4232:4244   */\n      dup2\n      dup2\n      add\n      swap1\n        /* \"#utility.yul\":4307:4326   */\n      dup14\n      dup5\n      gt\n        /* \"#utility.yul\":4304:4343   */\n      iszero\n      tag_591\n      jumpi\n        /* \"#utility.yul\":4339:4340   */\n      0x00\n        /* \"#utility.yul\":4336:4337   */\n      dup1\n        /* \"#utility.yul\":4329:4341   */\n      revert\n        /* \"#utility.yul\":4304:4343   */\n    tag_591:\n        /* \"#utility.yul\":4363:4374   */\n      swap5\n      dup3\n      add\n      swap5\n        /* \"#utility.yul\":4383:4531   */\n    tag_592:\n        /* \"#utility.yul\":4399:4405   */\n      dup4\n        /* \"#utility.yul\":4394:4397   */\n      dup7\n        /* \"#utility.yul\":4391:4406   */\n      lt\n        /* \"#utility.yul\":4383:4531   */\n      iszero\n      tag_594\n      jumpi\n        /* \"#utility.yul\":4465:4488   */\n      tag_595\n        /* \"#utility.yul\":4484:4487   */\n      dup7\n        /* \"#utility.yul\":4465:4488   */\n      tag_541\n      jump\t// in\n    tag_595:\n        /* \"#utility.yul\":4453:4489   */\n      dup3\n      mstore\n        /* \"#utility.yul\":4416:4428   */\n      swap5\n      dup3\n      add\n      swap5\n        /* \"#utility.yul\":4509:4521   */\n      swap1\n      dup3\n      add\n      swap1\n        /* \"#utility.yul\":4383:4531   */\n      jump(tag_592)\n    tag_594:\n        /* \"#utility.yul\":4550:4555   */\n      swap11\n      pop\n      pop\n        /* \"#utility.yul\":4593:4611   */\n      dup11\n      add\n        /* \"#utility.yul\":4580:4612   */\n      calldataload\n      swap3\n      pop\n      pop\n        /* \"#utility.yul\":4624:4640   */\n      dup1\n      dup3\n      gt\n        /* \"#utility.yul\":4621:4657   */\n      iszero\n      tag_596\n      jumpi\n        /* \"#utility.yul\":4653:4654   */\n      0x00\n        /* \"#utility.yul\":4650:4651   */\n      dup1\n        /* \"#utility.yul\":4643:4655   */\n      revert\n        /* \"#utility.yul\":4621:4657   */\n    tag_596:\n        /* \"#utility.yul\":4676:4739   */\n      tag_597\n        /* \"#utility.yul\":4731:4738   */\n      dup11\n        /* \"#utility.yul\":4720:4728   */\n      dup4\n        /* \"#utility.yul\":4709:4718   */\n      dup12\n        /* \"#utility.yul\":4705:4729   */\n      add\n        /* \"#utility.yul\":4676:4739   */\n      tag_542\n      jump\t// in\n    tag_597:\n        /* \"#utility.yul\":4666:4739   */\n      swap7\n      pop\n        /* \"#utility.yul\":4792:4794   */\n      0x40\n        /* \"#utility.yul\":4781:4790   */\n      dup10\n        /* \"#utility.yul\":4777:4795   */\n      add\n        /* \"#utility.yul\":4764:4796   */\n      calldataload\n        /* \"#utility.yul\":4748:4796   */\n      swap2\n      pop\n        /* \"#utility.yul\":4821:4823   */\n      dup1\n        /* \"#utility.yul\":4811:4819   */\n      dup3\n        /* \"#utility.yul\":4808:4824   */\n      gt\n        /* \"#utility.yul\":4805:4841   */\n      iszero\n      tag_598\n      jumpi\n        /* \"#utility.yul\":4837:4838   */\n      0x00\n        /* \"#utility.yul\":4834:4835   */\n      dup1\n        /* \"#utility.yul\":4827:4839   */\n      revert\n        /* \"#utility.yul\":4805:4841   */\n    tag_598:\n        /* \"#utility.yul\":4876:4974   */\n      tag_599\n        /* \"#utility.yul\":4966:4973   */\n      dup11\n        /* \"#utility.yul\":4955:4963   */\n      dup4\n        /* \"#utility.yul\":4944:4953   */\n      dup12\n        /* \"#utility.yul\":4940:4964   */\n      add\n        /* \"#utility.yul\":4876:4974   */\n      tag_543\n      jump\t// in\n    tag_599:\n        /* \"#utility.yul\":4993:5001   */\n      swap1\n      swap7\n      pop\n        /* \"#utility.yul\":4850:4974   */\n      swap5\n      pop\n        /* \"#utility.yul\":5081:5083   */\n      0x60\n        /* \"#utility.yul\":5066:5084   */\n      dup10\n      add\n        /* \"#utility.yul\":5053:5085   */\n      calldataload\n      swap2\n      pop\n        /* \"#utility.yul\":5097:5113   */\n      dup1\n      dup3\n      gt\n        /* \"#utility.yul\":5094:5130   */\n      iszero\n      tag_600\n      jumpi\n        /* \"#utility.yul\":5126:5127   */\n      0x00\n        /* \"#utility.yul\":5123:5124   */\n      dup1\n        /* \"#utility.yul\":5116:5128   */\n      revert\n        /* \"#utility.yul\":5094:5130   */\n    tag_600:\n      pop\n        /* \"#utility.yul\":5165:5261   */\n      tag_601\n        /* \"#utility.yul\":5253:5260   */\n      dup10\n        /* \"#utility.yul\":5242:5250   */\n      dup3\n        /* \"#utility.yul\":5231:5240   */\n      dup11\n        /* \"#utility.yul\":5227:5251   */\n      add\n        /* \"#utility.yul\":5165:5261   */\n      tag_544\n      jump\t// in\n    tag_601:\n        /* \"#utility.yul\":3424:5321   */\n      swap8\n      swap11\n      swap7\n      swap10\n      pop\n      swap5\n      swap8\n      pop\n      swap3\n      swap6\n        /* \"#utility.yul\":5280:5288   */\n      swap4\n      swap5\n        /* \"#utility.yul\":3424:5321   */\n      swap3\n      pop\n      pop\n      pop\n      jump\t// out\n        /* \"#utility.yul\":5644:6109   */\n    tag_546:\n        /* \"#utility.yul\":5697:5700   */\n      0x00\n        /* \"#utility.yul\":5735:5740   */\n      dup2\n        /* \"#utility.yul\":5729:5741   */\n      mload\n        /* \"#utility.yul\":5762:5768   */\n      dup1\n        /* \"#utility.yul\":5757:5760   */\n      dup5\n        /* \"#utility.yul\":5750:5769   */\n      mstore\n        /* \"#utility.yul\":5788:5792   */\n      0x20\n        /* \"#utility.yul\":5817:5821   */\n      dup1\n        /* \"#utility.yul\":5812:5815   */\n      dup6\n        /* \"#utility.yul\":5808:5822   */\n      add\n        /* \"#utility.yul\":5801:5822   */\n      swap5\n      pop\n        /* \"#utility.yul\":5856:5860   */\n      0x20\n        /* \"#utility.yul\":5849:5854   */\n      dup5\n        /* \"#utility.yul\":5845:5861   */\n      add\n        /* \"#utility.yul\":5879:5880   */\n      0x00\n        /* \"#utility.yul\":5889:6084   */\n    tag_605:\n        /* \"#utility.yul\":5903:5909   */\n      dup4\n        /* \"#utility.yul\":5900:5901   */\n      dup2\n        /* \"#utility.yul\":5897:5910   */\n      lt\n        /* \"#utility.yul\":5889:6084   */\n      iszero\n      tag_607\n      jumpi\n        /* \"#utility.yul\":5968:5981   */\n      dup2\n      mload\n      sub(shl(0xa0, 0x01), 0x01)\n        /* \"#utility.yul\":5964:6003   */\n      and\n        /* \"#utility.yul\":5952:6004   */\n      dup8\n      mstore\n        /* \"#utility.yul\":6024:6036   */\n      swap6\n      dup3\n      add\n      swap6\n        /* \"#utility.yul\":6059:6074   */\n      swap1\n      dup3\n      add\n      swap1\n        /* \"#utility.yul\":6000:6001   */\n      0x01\n        /* \"#utility.yul\":5918:5927   */\n      add\n        /* \"#utility.yul\":5889:6084   */\n      jump(tag_605)\n    tag_607:\n      pop\n        /* \"#utility.yul\":6100:6103   */\n      swap5\n      swap6\n        /* \"#utility.yul\":5644:6109   */\n      swap5\n      pop\n      pop\n      pop\n      pop\n      pop\n      jump\t// out\n        /* \"#utility.yul\":6114:6553   */\n    tag_547:\n        /* \"#utility.yul\":6167:6170   */\n      0x00\n        /* \"#utility.yul\":6205:6210   */\n      dup2\n        /* \"#utility.yul\":6199:6211   */\n      mload\n        /* \"#utility.yul\":6232:6238   */\n      dup1\n        /* \"#utility.yul\":6227:6230   */\n      dup5\n        /* \"#utility.yul\":6220:6239   */\n      mstore\n        /* \"#utility.yul\":6258:6262   */\n      0x20\n        /* \"#utility.yul\":6287:6291   */\n      dup1\n        /* \"#utility.yul\":6282:6285   */\n      dup6\n        /* \"#utility.yul\":6278:6292   */\n      add\n        /* \"#utility.yul\":6271:6292   */\n      swap5\n      pop\n        /* \"#utility.yul\":6326:6330   */\n      0x20\n        /* \"#utility.yul\":6319:6324   */\n      dup5\n        /* \"#utility.yul\":6315:6331   */\n      add\n        /* \"#utility.yul\":6349:6350   */\n      0x00\n        /* \"#utility.yul\":6359:6528   */\n    tag_609:\n        /* \"#utility.yul\":6373:6379   */\n      dup4\n        /* \"#utility.yul\":6370:6371   */\n      dup2\n        /* \"#utility.yul\":6367:6380   */\n      lt\n        /* \"#utility.yul\":6359:6528   */\n      iszero\n      tag_607\n      jumpi\n        /* \"#utility.yul\":6434:6447   */\n      dup2\n      mload\n        /* \"#utility.yul\":6422:6448   */\n      dup8\n      mstore\n        /* \"#utility.yul\":6468:6480   */\n      swap6\n      dup3\n      add\n      swap6\n        /* \"#utility.yul\":6503:6518   */\n      swap1\n      dup3\n      add\n      swap1\n        /* \"#utility.yul\":6395:6396   */\n      0x01\n        /* \"#utility.yul\":6388:6397   */\n      add\n        /* \"#utility.yul\":6359:6528   */\n      jump(tag_609)\n        /* \"#utility.yul\":6558:7121   */\n    tag_548:\n        /* \"#utility.yul\":6622:6625   */\n      0x00\n        /* \"#utility.yul\":6660:6665   */\n      dup2\n        /* \"#utility.yul\":6654:6666   */\n      mload\n        /* \"#utility.yul\":6687:6693   */\n      dup1\n        /* \"#utility.yul\":6682:6685   */\n      dup5\n        /* \"#utility.yul\":6675:6694   */\n      mstore\n        /* \"#utility.yul\":6713:6717   */\n      0x20\n        /* \"#utility.yul\":6742:6746   */\n      dup1\n        /* \"#utility.yul\":6737:6740   */\n      dup6\n        /* \"#utility.yul\":6733:6747   */\n      add\n        /* \"#utility.yul\":6726:6747   */\n      swap5\n      pop\n        /* \"#utility.yul\":6781:6785   */\n      0x20\n        /* \"#utility.yul\":6774:6779   */\n      dup5\n        /* \"#utility.yul\":6770:6786   */\n      add\n        /* \"#utility.yul\":6804:6805   */\n      0x00\n        /* \"#utility.yul\":6814:7096   */\n    tag_613:\n        /* \"#utility.yul\":6828:6834   */\n      dup4\n        /* \"#utility.yul\":6825:6826   */\n      dup2\n        /* \"#utility.yul\":6822:6835   */\n      lt\n        /* \"#utility.yul\":6814:7096   */\n      iszero\n      tag_607\n      jumpi\n        /* \"#utility.yul\":6887:6900   */\n      dup2\n      mload\n        /* \"#utility.yul\":6929:6938   */\n      dup1\n      mload\n      sub(shl(0xa0, 0x01), 0x01)\n        /* \"#utility.yul\":6925:6960   */\n      and\n        /* \"#utility.yul\":6913:6961   */\n      dup9\n      mstore\n        /* \"#utility.yul\":7001:7012   */\n      dup4\n      add\n        /* \"#utility.yul\":6995:7013   */\n      mload\n        /* \"#utility.yul\":6981:6993   */\n      dup4\n      dup9\n      add\n        /* \"#utility.yul\":6974:7014   */\n      mstore\n        /* \"#utility.yul\":7043:7047   */\n      0x40\n        /* \"#utility.yul\":7034:7048   */\n      swap1\n      swap7\n      add\n      swap6\n        /* \"#utility.yul\":7071:7086   */\n      swap1\n      dup3\n      add\n      swap1\n        /* \"#utility.yul\":6957:6958   */\n      0x01\n        /* \"#utility.yul\":6843:6852   */\n      add\n        /* \"#utility.yul\":6814:7096   */\n      jump(tag_613)\n        /* \"#utility.yul\":7126:7804   */\n    tag_549:\n        /* \"#utility.yul\":7191:7194   */\n      0x00\n        /* \"#utility.yul\":7229:7234   */\n      dup2\n        /* \"#utility.yul\":7223:7235   */\n      mload\n        /* \"#utility.yul\":7256:7262   */\n      dup1\n        /* \"#utility.yul\":7251:7254   */\n      dup5\n        /* \"#utility.yul\":7244:7263   */\n      mstore\n        /* \"#utility.yul\":7282:7286   */\n      0x20\n        /* \"#utility.yul\":7311:7315   */\n      dup1\n        /* \"#utility.yul\":7306:7309   */\n      dup6\n        /* \"#utility.yul\":7302:7316   */\n      add\n        /* \"#utility.yul\":7295:7316   */\n      swap5\n      pop\n        /* \"#utility.yul\":7350:7354   */\n      0x20\n        /* \"#utility.yul\":7343:7348   */\n      dup5\n        /* \"#utility.yul\":7339:7355   */\n      add\n        /* \"#utility.yul\":7373:7374   */\n      0x00\n        /* \"#utility.yul\":7383:7779   */\n    tag_617:\n        /* \"#utility.yul\":7397:7403   */\n      dup4\n        /* \"#utility.yul\":7394:7395   */\n      dup2\n        /* \"#utility.yul\":7391:7404   */\n      lt\n        /* \"#utility.yul\":7383:7779   */\n      iszero\n      tag_607\n      jumpi\n        /* \"#utility.yul\":7456:7469   */\n      dup2\n      mload\n        /* \"#utility.yul\":7540:7549   */\n      dup1\n      mload\n      sub(shl(0xa0, 0x01), 0x01)\n        /* \"#utility.yul\":7536:7554   */\n      swap1\n      dup2\n      and\n        /* \"#utility.yul\":7524:7555   */\n      dup10\n      mstore\n        /* \"#utility.yul\":7595:7606   */\n      dup5\n      dup3\n      add\n        /* \"#utility.yul\":7589:7607   */\n      mload\n        /* \"#utility.yul\":7575:7587   */\n      dup6\n      dup11\n      add\n        /* \"#utility.yul\":7568:7608   */\n      mstore\n        /* \"#utility.yul\":7631:7635   */\n      0x40\n        /* \"#utility.yul\":7679:7690   */\n      swap2\n      dup3\n      add\n        /* \"#utility.yul\":7673:7691   */\n      mload\n        /* \"#utility.yul\":7669:7696   */\n      and\n        /* \"#utility.yul\":7655:7667   */\n      swap1\n      dup9\n      add\n        /* \"#utility.yul\":7648:7697   */\n      mstore\n        /* \"#utility.yul\":7726:7730   */\n      0x60\n        /* \"#utility.yul\":7717:7731   */\n      swap1\n      swap7\n      add\n      swap6\n        /* \"#utility.yul\":7754:7769   */\n      swap1\n      dup3\n      add\n      swap1\n        /* \"#utility.yul\":7509:7510   */\n      0x01\n        /* \"#utility.yul\":7412:7421   */\n      add\n        /* \"#utility.yul\":7383:7779   */\n      jump(tag_617)\n        /* \"#utility.yul\":7809:9352   */\n    tag_106:\n        /* \"#utility.yul\":7994:7996   */\n      0x20\n        /* \"#utility.yul\":7983:7992   */\n      dup2\n        /* \"#utility.yul\":7976:7997   */\n      mstore\n        /* \"#utility.yul\":8006:8059   */\n      tag_621\n        /* \"#utility.yul\":8055:8057   */\n      0x20\n        /* \"#utility.yul\":8044:8053   */\n      dup3\n        /* \"#utility.yul\":8040:8058   */\n      add\n        /* \"#utility.yul\":8031:8037   */\n      dup4\n        /* \"#utility.yul\":8025:8038   */\n      mload\n      sub(shl(0xa0, 0x01), 0x01)\n        /* \"#utility.yul\":743:774   */\n      and\n        /* \"#utility.yul\":731:775   */\n      swap1\n      mstore\n        /* \"#utility.yul\":677:781   */\n      jump\n        /* \"#utility.yul\":8006:8059   */\n    tag_621:\n        /* \"#utility.yul\":8113:8115   */\n      0x20\n        /* \"#utility.yul\":8105:8111   */\n      dup3\n        /* \"#utility.yul\":8101:8116   */\n      add\n        /* \"#utility.yul\":8095:8117   */\n      mload\n        /* \"#utility.yul\":8090:8092   */\n      0x40\n        /* \"#utility.yul\":8079:8088   */\n      dup3\n        /* \"#utility.yul\":8075:8093   */\n      add\n        /* \"#utility.yul\":8068:8118   */\n      mstore\n        /* \"#utility.yul\":8172:8174   */\n      0x40\n        /* \"#utility.yul\":8164:8170   */\n      dup3\n        /* \"#utility.yul\":8160:8175   */\n      add\n        /* \"#utility.yul\":8154:8176   */\n      mload\n        /* \"#utility.yul\":8149:8151   */\n      0x60\n        /* \"#utility.yul\":8138:8147   */\n      dup3\n        /* \"#utility.yul\":8134:8152   */\n      add\n        /* \"#utility.yul\":8127:8177   */\n      mstore\n        /* \"#utility.yul\":7957:7961   */\n      0x00\n        /* \"#utility.yul\":8224:8226   */\n      0x60\n        /* \"#utility.yul\":8216:8222   */\n      dup4\n        /* \"#utility.yul\":8212:8227   */\n      add\n        /* \"#utility.yul\":8206:8228   */\n      mload\n        /* \"#utility.yul\":8237:8287   */\n      tag_622\n        /* \"#utility.yul\":8282:8285   */\n      0x80\n        /* \"#utility.yul\":8271:8280   */\n      dup5\n        /* \"#utility.yul\":8267:8286   */\n      add\n        /* \"#utility.yul\":8253:8265   */\n      dup3\n        /* \"#utility.yul\":5618:5631   */\n      iszero\n        /* \"#utility.yul\":5611:5632   */\n      iszero\n        /* \"#utility.yul\":5599:5633   */\n      swap1\n      mstore\n        /* \"#utility.yul\":5548:5639   */\n      jump\n        /* \"#utility.yul\":8237:8287   */\n    tag_622:\n      pop\n        /* \"#utility.yul\":8336:8339   */\n      0x80\n        /* \"#utility.yul\":8324:8340   */\n      dup4\n      add\n        /* \"#utility.yul\":8318:8341   */\n      mload\n        /* \"#utility.yul\":5618:5631   */\n      dup1\n      iszero\n        /* \"#utility.yul\":5611:5632   */\n      iszero\n        /* \"#utility.yul\":8397:8400   */\n      0xa0\n        /* \"#utility.yul\":8382:8401   */\n      dup5\n      add\n        /* \"#utility.yul\":5599:5633   */\n      mstore\n        /* \"#utility.yul\":8350:8402   */\n      pop\n        /* \"#utility.yul\":8457:8460   */\n      0xa0\n        /* \"#utility.yul\":8449:8455   */\n      dup4\n        /* \"#utility.yul\":8445:8461   */\n      add\n        /* \"#utility.yul\":8439:8462   */\n      mload\n        /* \"#utility.yul\":8433:8436   */\n      0xc0\n        /* \"#utility.yul\":8422:8431   */\n      dup4\n        /* \"#utility.yul\":8418:8437   */\n      add\n        /* \"#utility.yul\":8411:8463   */\n      mstore\n        /* \"#utility.yul\":8512:8515   */\n      0xc0\n        /* \"#utility.yul\":8504:8510   */\n      dup4\n        /* \"#utility.yul\":8500:8516   */\n      add\n        /* \"#utility.yul\":8494:8517   */\n      mload\n        /* \"#utility.yul\":8536:8542   */\n      0x0140\n        /* \"#utility.yul\":8579:8581   */\n      dup1\n        /* \"#utility.yul\":8573:8576   */\n      0xe0\n        /* \"#utility.yul\":8562:8571   */\n      dup6\n        /* \"#utility.yul\":8558:8577   */\n      add\n        /* \"#utility.yul\":8551:8582   */\n      mstore\n        /* \"#utility.yul\":8605:8670   */\n      tag_624\n        /* \"#utility.yul\":8665:8668   */\n      0x0160\n        /* \"#utility.yul\":8654:8663   */\n      dup6\n        /* \"#utility.yul\":8650:8669   */\n      add\n        /* \"#utility.yul\":8634:8648   */\n      dup4\n        /* \"#utility.yul\":8605:8670   */\n      tag_546\n      jump\t// in\n    tag_624:\n        /* \"#utility.yul\":8591:8670   */\n      swap2\n      pop\n        /* \"#utility.yul\":8719:8722   */\n      0xe0\n        /* \"#utility.yul\":8711:8717   */\n      dup6\n        /* \"#utility.yul\":8707:8723   */\n      add\n        /* \"#utility.yul\":8701:8724   */\n      mload\n        /* \"#utility.yul\":8747:8749   */\n      0x1f\n        /* \"#utility.yul\":8743:8750   */\n      not\n        /* \"#utility.yul\":8769:8772   */\n      0x0100\n        /* \"#utility.yul\":8836:8838   */\n      dup2\n        /* \"#utility.yul\":8824:8833   */\n      dup8\n        /* \"#utility.yul\":8816:8822   */\n      dup7\n        /* \"#utility.yul\":8812:8834   */\n      sub\n        /* \"#utility.yul\":8808:8839   */\n      add\n        /* \"#utility.yul\":8803:8805   */\n      dup2\n        /* \"#utility.yul\":8792:8801   */\n      dup9\n        /* \"#utility.yul\":8788:8806   */\n      add\n        /* \"#utility.yul\":8781:8840   */\n      mstore\n        /* \"#utility.yul\":8863:8915   */\n      tag_625\n        /* \"#utility.yul\":8908:8914   */\n      dup6\n        /* \"#utility.yul\":8892:8906   */\n      dup5\n        /* \"#utility.yul\":8863:8915   */\n      tag_547\n      jump\t// in\n    tag_625:\n        /* \"#utility.yul\":8849:8915   */\n      swap5\n      pop\n        /* \"#utility.yul\":8964:8966   */\n      dup1\n        /* \"#utility.yul\":8956:8962   */\n      dup9\n        /* \"#utility.yul\":8952:8967   */\n      add\n        /* \"#utility.yul\":8946:8968   */\n      mload\n        /* \"#utility.yul\":8924:8968   */\n      swap3\n      pop\n      pop\n        /* \"#utility.yul\":8987:8990   */\n      0x0120\n        /* \"#utility.yul\":9054:9056   */\n      dup2\n        /* \"#utility.yul\":9042:9051   */\n      dup8\n        /* \"#utility.yul\":9034:9040   */\n      dup7\n        /* \"#utility.yul\":9030:9052   */\n      sub\n        /* \"#utility.yul\":9026:9057   */\n      add\n        /* \"#utility.yul\":9021:9023   */\n      dup2\n        /* \"#utility.yul\":9010:9019   */\n      dup9\n        /* \"#utility.yul\":9006:9024   */\n      add\n        /* \"#utility.yul\":8999:9058   */\n      mstore\n        /* \"#utility.yul\":9081:9144   */\n      tag_626\n        /* \"#utility.yul\":9137:9143   */\n      dup6\n        /* \"#utility.yul\":9121:9135   */\n      dup5\n        /* \"#utility.yul\":9081:9144   */\n      tag_548\n      jump\t// in\n    tag_626:\n        /* \"#utility.yul\":9181:9196   */\n      swap1\n      dup9\n      add\n        /* \"#utility.yul\":9175:9197   */\n      mload\n        /* \"#utility.yul\":9237:9259   */\n      dup8\n      dup3\n      sub\n        /* \"#utility.yul\":9233:9264   */\n      swap1\n      swap3\n      add\n        /* \"#utility.yul\":9213:9231   */\n      dup5\n      dup9\n      add\n        /* \"#utility.yul\":9206:9265   */\n      mstore\n        /* \"#utility.yul\":9067:9144   */\n      swap4\n      pop\n        /* \"#utility.yul\":9175:9197   */\n      swap1\n      pop\n        /* \"#utility.yul\":9282:9346   */\n      tag_627\n        /* \"#utility.yul\":9067:9144   */\n      dup4\n        /* \"#utility.yul\":9175:9197   */\n      dup3\n        /* \"#utility.yul\":9282:9346   */\n      tag_549\n      jump\t// in\n    tag_627:\n        /* \"#utility.yul\":9274:9346   */\n      swap7\n        /* \"#utility.yul\":7809:9352   */\n      swap6\n      pop\n      pop\n      pop\n      pop\n      pop\n      pop\n      jump\t// out\n        /* \"#utility.yul\":9944:10130   */\n    tag_121:\n        /* \"#utility.yul\":10003:10009   */\n      0x00\n        /* \"#utility.yul\":10056:10058   */\n      0x20\n        /* \"#utility.yul\":10044:10053   */\n      dup3\n        /* \"#utility.yul\":10035:10042   */\n      dup5\n        /* \"#utility.yul\":10031:10054   */\n      sub\n        /* \"#utility.yul\":10027:10059   */\n      slt\n        /* \"#utility.yul\":10024:10076   */\n      iszero\n      tag_631\n      jumpi\n        /* \"#utility.yul\":10072:10073   */\n      0x00\n        /* \"#utility.yul\":10069:10070   */\n      dup1\n        /* \"#utility.yul\":10062:10074   */\n      revert\n        /* \"#utility.yul\":10024:10076   */\n    tag_631:\n        /* \"#utility.yul\":10095:10124   */\n      tag_632\n        /* \"#utility.yul\":10114:10123   */\n      dup3\n        /* \"#utility.yul\":10095:10124   */\n      tag_541\n      jump\t// in\n    tag_632:\n        /* \"#utility.yul\":10085:10124   */\n      swap4\n        /* \"#utility.yul\":9944:10130   */\n      swap3\n      pop\n      pop\n      pop\n      jump\t// out\n        /* \"#utility.yul\":10135:10534   */\n    tag_138:\n        /* \"#utility.yul\":10337:10339   */\n      0x20\n        /* \"#utility.yul\":10319:10340   */\n      dup1\n      dup3\n      mstore\n        /* \"#utility.yul\":10376:10378   */\n      0x23\n        /* \"#utility.yul\":10356:10374   */\n      swap1\n      dup3\n      add\n        /* \"#utility.yul\":10349:10379   */\n      mstore\n        /* \"#utility.yul\":10415:10449   */\n      0x57696c6c3a20496e76616c696420737461746520666f72207468697320616374\n        /* \"#utility.yul\":10410:10412   */\n      0x40\n        /* \"#utility.yul\":10395:10413   */\n      dup3\n      add\n        /* \"#utility.yul\":10388:10450   */\n      mstore\n      shl(0xe9, 0x34b7b7)\n        /* \"#utility.yul\":10481:10483   */\n      0x60\n        /* \"#utility.yul\":10466:10484   */\n      dup3\n      add\n        /* \"#utility.yul\":10459:10492   */\n      mstore\n        /* \"#utility.yul\":10524:10527   */\n      0x80\n        /* \"#utility.yul\":10509:10528   */\n      add\n      swap1\n        /* \"#utility.yul\":10135:10534   */\n      jump\t// out\n        /* \"#utility.yul\":10539:10666   */\n    tag_550:\n        /* \"#utility.yul\":10600:10610   */\n      0x4e487b71\n        /* \"#utility.yul\":10595:10598   */\n      0xe0\n        /* \"#utility.yul\":10591:10611   */\n      shl\n        /* \"#utility.yul\":10588:10589   */\n      0x00\n        /* \"#utility.yul\":10581:10612   */\n      mstore\n        /* \"#utility.yul\":10631:10635   */\n      0x11\n        /* \"#utility.yul\":10628:10629   */\n      0x04\n        /* \"#utility.yul\":10621:10636   */\n      mstore\n        /* \"#utility.yul\":10655:10659   */\n      0x24\n        /* \"#utility.yul\":10652:10653   */\n      0x00\n        /* \"#utility.yul\":10645:10660   */\n      revert\n        /* \"#utility.yul\":10671:10796   */\n    tag_178:\n        /* \"#utility.yul\":10736:10745   */\n      dup1\n      dup3\n      add\n        /* \"#utility.yul\":10757:10767   */\n      dup1\n      dup3\n      gt\n        /* \"#utility.yul\":10754:10790   */\n      iszero\n      tag_637\n      jumpi\n        /* \"#utility.yul\":10770:10788   */\n      tag_637\n      tag_550\n      jump\t// in\n    tag_637:\n        /* \"#utility.yul\":10671:10796   */\n      swap3\n      swap2\n      pop\n      pop\n      jump\t// out\n        /* \"#utility.yul\":11563:11731   */\n    tag_193:\n        /* \"#utility.yul\":11636:11645   */\n      dup1\n      dup3\n      mul\n        /* \"#utility.yul\":11667:11676   */\n      dup2\n      iszero\n        /* \"#utility.yul\":11684:11699   */\n      dup3\n      dup3\n      div\n        /* \"#utility.yul\":11678:11700   */\n      dup5\n      eq\n        /* \"#utility.yul\":11664:11701   */\n      or\n        /* \"#utility.yul\":11654:11725   */\n      tag_637\n      jumpi\n        /* \"#utility.yul\":11705:11723   */\n      tag_637\n      tag_550\n      jump\t// in\n        /* \"#utility.yul\":11736:11953   */\n    tag_195:\n        /* \"#utility.yul\":11776:11777   */\n      0x00\n        /* \"#utility.yul\":11802:11803   */\n      dup3\n        /* \"#utility.yul\":11792:11924   */\n      tag_644\n      jumpi\n        /* \"#utility.yul\":11846:11856   */\n      0x4e487b71\n        /* \"#utility.yul\":11841:11844   */\n      0xe0\n        /* \"#utility.yul\":11837:11857   */\n      shl\n        /* \"#utility.yul\":11834:11835   */\n      0x00\n        /* \"#utility.yul\":11827:11858   */\n      mstore\n        /* \"#utility.yul\":11881:11885   */\n      0x12\n        /* \"#utility.yul\":11878:11879   */\n      0x04\n        /* \"#utility.yul\":11871:11886   */\n      mstore\n        /* \"#utility.yul\":11909:11913   */\n      0x24\n        /* \"#utility.yul\":11906:11907   */\n      0x00\n        /* \"#utility.yul\":11899:11914   */\n      revert\n        /* \"#utility.yul\":11792:11924   */\n    tag_644:\n      pop\n        /* \"#utility.yul\":11938:11947   */\n      div\n      swap1\n        /* \"#utility.yul\":11736:11953   */\n      jump\t// out\n        /* \"#utility.yul\":11958:12086   */\n    tag_197:\n        /* \"#utility.yul\":12025:12034   */\n      dup2\n      dup2\n      sub\n        /* \"#utility.yul\":12046:12057   */\n      dup2\n      dup2\n      gt\n        /* \"#utility.yul\":12043:12080   */\n      iszero\n      tag_637\n      jumpi\n        /* \"#utility.yul\":12060:12078   */\n      tag_637\n      tag_550\n      jump\t// in\n        /* \"#utility.yul\":12653:12780   */\n    tag_212:\n        /* \"#utility.yul\":12714:12724   */\n      0x4e487b71\n        /* \"#utility.yul\":12709:12712   */\n      0xe0\n        /* \"#utility.yul\":12705:12725   */\n      shl\n        /* \"#utility.yul\":12702:12703   */\n      0x00\n        /* \"#utility.yul\":12695:12726   */\n      mstore\n        /* \"#utility.yul\":12745:12749   */\n      0x32\n        /* \"#utility.yul\":12742:12743   */\n      0x04\n        /* \"#utility.yul\":12735:12750   */\n      mstore\n        /* \"#utility.yul\":12769:12773   */\n      0x24\n        /* \"#utility.yul\":12766:12767   */\n      0x00\n        /* \"#utility.yul\":12759:12774   */\n      revert\n        /* \"#utility.yul\":13141:13325   */\n    tag_237:\n        /* \"#utility.yul\":13211:13217   */\n      0x00\n        /* \"#utility.yul\":13264:13266   */\n      0x20\n        /* \"#utility.yul\":13252:13261   */\n      dup3\n        /* \"#utility.yul\":13243:13250   */\n      dup5\n        /* \"#utility.yul\":13239:13262   */\n      sub\n        /* \"#utility.yul\":13235:13267   */\n      slt\n        /* \"#utility.yul\":13232:13284   */\n      iszero\n      tag_653\n      jumpi\n        /* \"#utility.yul\":13280:13281   */\n      0x00\n        /* \"#utility.yul\":13277:13278   */\n      dup1\n        /* \"#utility.yul\":13270:13282   */\n      revert\n        /* \"#utility.yul\":13232:13284   */\n    tag_653:\n      pop\n        /* \"#utility.yul\":13303:13319   */\n      mload\n      swap2\n        /* \"#utility.yul\":13141:13325   */\n      swap1\n      pop\n      jump\t// out\n        /* \"#utility.yul\":13609:13886   */\n    tag_248:\n        /* \"#utility.yul\":13676:13682   */\n      0x00\n        /* \"#utility.yul\":13729:13731   */\n      0x20\n        /* \"#utility.yul\":13717:13726   */\n      dup3\n        /* \"#utility.yul\":13708:13715   */\n      dup5\n        /* \"#utility.yul\":13704:13727   */\n      sub\n        /* \"#utility.yul\":13700:13732   */\n      slt\n        /* \"#utility.yul\":13697:13749   */\n      iszero\n      tag_656\n      jumpi\n        /* \"#utility.yul\":13745:13746   */\n      0x00\n        /* \"#utility.yul\":13742:13743   */\n      dup1\n        /* \"#utility.yul\":13735:13747   */\n      revert\n        /* \"#utility.yul\":13697:13749   */\n    tag_656:\n        /* \"#utility.yul\":13777:13786   */\n      dup2\n        /* \"#utility.yul\":13771:13787   */\n      mload\n        /* \"#utility.yul\":13830:13835   */\n      dup1\n        /* \"#utility.yul\":13823:13836   */\n      iszero\n        /* \"#utility.yul\":13816:13837   */\n      iszero\n        /* \"#utility.yul\":13809:13814   */\n      dup2\n        /* \"#utility.yul\":13806:13838   */\n      eq\n        /* \"#utility.yul\":13796:13856   */\n      tag_632\n      jumpi\n        /* \"#utility.yul\":13852:13853   */\n      0x00\n        /* \"#utility.yul\":13849:13850   */\n      dup1\n        /* \"#utility.yul\":13842:13854   */\n      revert\n        /* \"#utility.yul\":13891:14266   */\n    tag_272:\n      sub(shl(0xa0, 0x01), 0x01)\n        /* \"#utility.yul\":14149:14164   */\n      swap4\n      dup5\n      and\n        /* \"#utility.yul\":14131:14165   */\n      dup2\n      mstore\n        /* \"#utility.yul\":14201:14216   */\n      swap2\n      swap1\n      swap3\n      and\n        /* \"#utility.yul\":14196:14198   */\n      0x20\n        /* \"#utility.yul\":14181:14199   */\n      dup3\n      add\n        /* \"#utility.yul\":14174:14217   */\n      mstore\n        /* \"#utility.yul\":14248:14250   */\n      0x40\n        /* \"#utility.yul\":14233:14251   */\n      dup2\n      add\n        /* \"#utility.yul\":14226:14260   */\n      swap2\n      swap1\n      swap2\n      mstore\n        /* \"#utility.yul\":14081:14083   */\n      0x60\n        /* \"#utility.yul\":14066:14084   */\n      add\n      swap1\n        /* \"#utility.yul\":13891:14266   */\n      jump\t// out\n\n    auxdata: 0xa264697066735822122040fac4298b297b88fe3f8e1cf73a29cc3b140b9172c7ab2bb92ef746969f35a264736f6c63430008180033\n}\n",
				"bytecode": {
					"linkReferences": {},
					"object": "6101206040526040516200268c3803806200268c833981016040819052620000279162000106565b856001600160a01b0381166200005657604051631e4fbdf760e01b81525f600482015260240160405180910390fd5b62000061816200009b565b50600180556080949094526001600160a01b0392831660a05260c091909152151560e0521661010052506002805460ff1916905562000176565b5f80546001600160a01b038381166001600160a01b0319831681178455604051919092169283917f8be0079c531659141344cd1fd0a4f28419497f9722a3daafe3b4186f6b6457e09190a35050565b80516001600160a01b038116811462000101575f80fd5b919050565b5f805f805f8060c087890312156200011c575f80fd5b6200012787620000ea565b9550602087015194506200013e60408801620000ea565b935060608701519250608087015180151581146200015a575f80fd5b91506200016a60a08801620000ea565b90509295509295509295565b60805160a05160c05160e05161010051612484620002085f395f818161030701526106d601525f818161040b01526115d601525f818161036e01528181610d2401528181610d4a01528181610de50152610f3e01525f81816102d40152818161076d01528181610dbb01528181610e9b015261123201525f81816102a10152818161063c015261158501526124845ff3fe608060405260043610610131575f3560e01c80639379f517116100a8578063c04637111161006d578063c046371114610348578063c7c85baa1461035d578063cc4f9d5b14610390578063e15724a5146103b1578063eed35fea146103fa578063f2fde38b1461043d575f80fd5b80639379f51714610271578063947a36fb14610290578063a444ae41146102c3578063a8e9a539146102f6578063abe21b5914610329575f80fd5b80635c36b186116100f95780635c36b186146101f257806361461954146102065780636b892b221461021a578063715018a61461022e5780638bf58f79146102425780638da5cb5b14610255575f80fd5b80630c3f6acf146101355780631c0795c3146101645780631f99966a1461019b5780632395d975146101c85780633027439c146101dc575b5f80fd5b348015610140575f80fd5b5060025461014e9060ff1681565b60405161015b9190611e65565b60405180910390f35b34801561016f575f80fd5b5061018361017e366004611e8b565b61045c565b6040516001600160a01b03909116815260200161015b565b3480156101a6575f80fd5b506101ba6101b5366004611e8b565b610484565b60405190815260200161015b565b3480156101d3575f80fd5b506101ba603281565b3480156101e7575f80fd5b506101f06104a3565b005b3480156101fd575f80fd5b506101f0610572565b348015610211575f80fd5b506101f06105ed565b348015610225575f80fd5b506101f0610ccd565b348015610239575f80fd5b506101f0610f94565b6101f061025036600461201a565b610fa7565b348015610260575f80fd5b505f546001600160a01b0316610183565b34801561027c575f80fd5b5061018361028b366004611e8b565b6111e2565b34801561029b575f80fd5b506101ba7f000000000000000000000000000000000000000000000000000000000000000081565b3480156102ce575f80fd5b506101837f000000000000000000000000000000000000000000000000000000000000000081565b348015610301575f80fd5b506101837f000000000000000000000000000000000000000000000000000000000000000081565b348015610334575f80fd5b506101f061034336600461201a565b6111f1565b348015610353575f80fd5b506101ba60035481565b348015610368575f80fd5b506101ba7f000000000000000000000000000000000000000000000000000000000000000081565b34801561039b575f80fd5b506103a46112ad565b60405161015b919061222b565b3480156103bc575f80fd5b506103d06103cb366004611e8b565b6116c5565b604080516001600160a01b039485168152602081019390935292169181019190915260600161015b565b348015610405575f80fd5b5061042d7f000000000000000000000000000000000000000000000000000000000000000081565b604051901515815260200161015b565b348015610448575f80fd5b506101f0610457366004612307565b611701565b6004818154811061046b575f80fd5b5f918252602090912001546001600160a01b0316905081565b60058181548110610493575f80fd5b5f91825260209091200154905081565b6104ab61173e565b6001806002805460ff16908111156104c5576104c5611e51565b146104eb5760405162461bcd60e51b81526004016104e290612327565b60405180910390fd5b6104f361176a565b600260015561050061178d565b61050b60045f611cfc565b61051660055f611cfc565b61052160065f611d17565b61052c60075f611d32565b6002805460ff191690555f80546040516001600160a01b03909116917f5af2b6dcdccc1dd52ee38632afee0bc3ac6def619ed4132f2f9a40ff48ec74f291a25060018055565b61057a61173e565b6001806002805460ff169081111561059457610594611e51565b146105b15760405162461bcd60e51b81526004016104e290612327565b4260038190556040519081527f48257dc961b6f792c2b78a080dacfed693b660960a702de21cee364e20270e2f9060200160405180910390a150565b6001806002805460ff169081111561060757610607611e51565b146106245760405162461bcd60e51b81526004016104e290612327565b61062c61176a565b60026001556003545f90610661907f00000000000000000000000000000000000000000000000000000000000000009061237e565b9050804210156106b35760405162461bcd60e51b815260206004820152601b60248201527f477261636520706572696f6420686173206e6f7420656e6465642e000000000060448201526064016104e2565b5f6106c1620151808361237e565b90508042101561075157336001600160a01b037f000000000000000000000000000000000000000000000000000000000000000016146107515760405162461bcd60e51b815260206004820152602560248201527f4f6e6c792064657369676e61746564206578656375746f722063616e2063616c6044820152646c206e6f7760d81b60648201526084016104e2565b6002805460ff1916811790555f42821161076b573361078d565b7f00000000000000000000000000000000000000000000000000000000000000005b90505f47801561097b575f6127106107a6603284612397565b6107b091906123ae565b92508290505f6107c082846123cd565b90508115610869575f856001600160a01b0316836040515f6040518083038185875af1925050503d805f8114610811576040519150601f19603f3d011682016040523d82523d5f602084013e610816565b606091505b50509050806108675760405162461bcd60e51b815260206004820152601760248201527f45544820666565207472616e73666572206661696c656400000000000000000060448201526064016104e2565b505b5f5b600454811015610977575f60646005838154811061088b5761088b6123e0565b905f5260205f2001548461089f9190612397565b6108a991906123ae565b9050801561096e575f600483815481106108c5576108c56123e0565b5f9182526020822001546040516001600160a01b039091169184919081818185875af1925050503d805f8114610916576040519150601f19603f3d011682016040523d82523d5f602084013e61091b565b606091505b505090508061096c5760405162461bcd60e51b815260206004820152601b60248201527f455448207472616e7366657220746f2068656972206661696c6564000000000060448201526064016104e2565b505b5060010161086b565b5050505b5f5b600654811015610bb3575f6006828154811061099b5761099b6123e0565b5f9182526020822001546040516370a0823160e01b81523060048201526001600160a01b03909116925082906370a0823190602401602060405180830381865afa1580156109eb573d5f803e3d5ffd5b505050506040513d601f19601f82011682018060405250810190610a0f91906123f4565b90508015610ba9575f612710610a26603284612397565b610a3091906123ae565b90505f610a3d82846123cd565b90508115610ab75760405163a9059cbb60e01b81526001600160a01b0389811660048301526024820184905285169063a9059cbb906044016020604051808303815f875af1158015610a91573d5f803e3d5ffd5b505050506040513d601f19601f82011682018060405250810190610ab5919061240b565b505b5f5b600454811015610ba5575f606460058381548110610ad957610ad96123e0565b905f5260205f20015484610aed9190612397565b610af791906123ae565b90508015610b9c57856001600160a01b031663a9059cbb60048481548110610b2157610b216123e0565b5f9182526020909120015460405160e083901b6001600160e01b03191681526001600160a01b039091166004820152602481018490526044016020604051808303815f875af1158015610b76573d5f803e3d5ffd5b505050506040513d601f19601f82011682018060405250810190610b9a919061240b565b505b50600101610ab9565b5050505b505060010161097d565b505f5b600754811015610c78575f60078281548110610bd457610bd46123e0565b5f91825260209182902060408051606081018252600390930290910180546001600160a01b039081168085526001830154958501869052600290920154168383018190529151632142170760e11b8152929450926342842e0e92610c3e923092909160040161242a565b5f604051808303815f87803b158015610c55575f80fd5b505af1158015610c67573d5f803e3d5ffd5b505060019093019250610bb6915050565b5060408051338152602081018490526001600160a01b0385168183015290517f52ba16c8b985eff690a9de92094bd7486f89340e06e385ffb26de9c6eea384dc9181900360600190a150506001805550505050565b610cd561173e565b6001806002805460ff1690811115610cef57610cef611e51565b14610d0c5760405162461bcd60e51b81526004016104e290612327565b610d1461176a565b600260015547610d2261178d565b7f000000000000000000000000000000000000000000000000000000000000000015610e99577f0000000000000000000000000000000000000000000000000000000000000000811015610db85760405162461bcd60e51b815260206004820152601860248201527f496e73756666696369656e742045544820666f7220666565000000000000000060448201526064016104e2565b5f7f00000000000000000000000000000000000000000000000000000000000000006001600160a01b03167f00000000000000000000000000000000000000000000000000000000000000006040515f6040518083038185875af1925050503d805f8114610e41576040519150601f19603f3d011682016040523d82523d5f602084013e610e46565b606091505b5050905080610e975760405162461bcd60e51b815260206004820181905260248201527f5465726d696e6174696f6e20666565207472616e73666572206661696c65642e60448201526064016104e2565b505b7f00000000000000000000000000000000000000000000000000000000000000006001600160a01b031663a658dd6b610ed95f546001600160a01b031690565b6040516001600160e01b031960e084901b1681526001600160a01b0390911660048201526024015f604051808303815f87803b158015610f17575f80fd5b505af1158015610f29573d5f803e3d5ffd5b50506002805460ff19168117905550506040517f000000000000000000000000000000000000000000000000000000000000000081527fc41d93b8bfbf9fd7cf5bfe271fd649ab6a6fec0ea101c23b82a2a28eca2533a99060200160405180910390a1505060018055565b610f9c61173e565b610fa55f611a19565b565b610faf61173e565b5f806002805460ff1690811115610fc857610fc8611e51565b14610fe55760405162461bcd60e51b81526004016104e290612327565b5f5b848110156110ce575f868683818110611002576110026123e0565b9050604002016020013511156110c657858582818110611024576110246123e0565b61103a9260206040909202019081019150612307565b6001600160a01b03166323b872dd333089898681811061105c5761105c6123e0565b905060400201602001356040518463ffffffff1660e01b81526004016110849392919061242a565b6020604051808303815f875af11580156110a0573d5f803e3d5ffd5b505050506040513d601f19601f820116820180604052508101906110c4919061240b565b505b600101610fe7565b505f5b82811015611184578383828181106110eb576110eb6123e0565b6111019260206060909202019081019150612307565b6001600160a01b03166323b872dd3330878786818110611123576111236123e0565b905060600201602001356040518463ffffffff1660e01b815260040161114b9392919061242a565b5f604051808303815f87803b158015611162575f80fd5b505af1158015611174573d5f803e3d5ffd5b5050600190920191506110d19050565b50611193878787878787611a68565b6002805460ff19166001179055426003555f80546040516001600160a01b03909116917fbbf74fb4e3c300bf9f00e1603668149fd64853bfcd5f194270d2b043d9bdbc6191a250505050505050565b6006818154811061046b575f80fd5b5f806002805460ff169081111561120a5761120a611e51565b146112275760405162461bcd60e51b81526004016104e290612327565b336001600160a01b037f0000000000000000000000000000000000000000000000000000000000000000161461129f5760405162461bcd60e51b815260206004820152601f60248201527f57696c6c3a204e6f7420617574686f72697a656420627920666163746f72790060448201526064016104e2565b611193878787878787611a68565b61130a6040518061014001604052805f6001600160a01b031681526020015f81526020015f81526020015f151581526020015f151581526020015f8152602001606081526020016060815260200160608152602001606081525090565b6006545f9067ffffffffffffffff81111561132757611327611ea2565b60405190808252806020026020018201604052801561136b57816020015b604080518082019091525f80825260208201528152602001906001900390816113455790505b5090505f5b60065481101561143e575f6006828154811061138e5761138e6123e0565b5f91825260209182902001546040805180820182526001600160a01b0390921680835290516370a0823160e01b8152306004820152909350909182019083906370a0823190602401602060405180830381865afa1580156113f1573d5f803e3d5ffd5b505050506040513d601f19601f8201168201806040525081019061141591906123f4565b81525083838151811061142a5761142a6123e0565b602090810291909101015250600101611370565b506007545f9067ffffffffffffffff81111561145c5761145c611ea2565b6040519080825280602002602001820160405280156114a557816020015b604080516060810182525f80825260208083018290529282015282525f1990920191018161147a5790505b5090505f5b60075481101561155a575f600782815481106114c8576114c86123e0565b5f9182526020918290206040805160608082018352600390940290920180546001600160a01b03908116845260018201548487019081526002909201548116848401908152835195860184528451821686529151958501959095525190931692820192909252845191925090849084908110611546576115466123e0565b6020908102919091010152506001016114aa565b506040518061014001604052806115785f546001600160a01b031690565b6001600160a01b031681527f000000000000000000000000000000000000000000000000000000000000000060208201526003546040820152606001600280805460ff16908111156115cc576115cc611e51565b14151581526020017f000000000000000000000000000000000000000000000000000000000000000015158152602001478152602001600480548060200260200160405190810160405280929190818152602001828054801561165657602002820191905f5260205f20905b81546001600160a01b03168152600190910190602001808311611638575b5050505050815260200160058054806020026020016040519081016040528092919081815260200182805480156116aa57602002820191905f5260205f20905b815481526020019060010190808311611696575b50505050508152602001838152602001828152509250505090565b600781815481106116d4575f80fd5b5f9182526020909120600390910201805460018201546002909201546001600160a01b0391821693501683565b61170961173e565b6001600160a01b03811661173257604051631e4fbdf760e01b81525f60048201526024016104e2565b61173b81611a19565b50565b5f546001600160a01b03163314610fa55760405163118cdaa760e01b81523360048201526024016104e2565b600260015403610fa557604051633ee5aeb560e01b815260040160405180910390fd5b5f80546001600160a01b0316905b6006548110156118b1575f600682815481106117b9576117b96123e0565b5f9182526020822001546040516370a0823160e01b81523060048201526001600160a01b03909116925082906370a0823190602401602060405180830381865afa158015611809573d5f803e3d5ffd5b505050506040513d601f19601f8201168201806040525081019061182d91906123f4565b905080156118a75760405163a9059cbb60e01b81526001600160a01b0385811660048301526024820183905283169063a9059cbb906044016020604051808303815f875af1158015611881573d5f803e3d5ffd5b505050506040513d601f19601f820116820180604052508101906118a5919061240b565b505b505060010161179b565b505f5b600754811015611975575f600782815481106118d2576118d26123e0565b5f91825260209182902060408051606081018252600390930290910180546001600160a01b03908116808552600183015495850186905260029092015416838301529051632142170760e11b8152919350916342842e0e9161193b91309188919060040161242a565b5f604051808303815f87803b158015611952575f80fd5b505af1158015611964573d5f803e3d5ffd5b5050600190930192506118b4915050565b50478015611a15575f826001600160a01b0316826040515f6040518083038185875af1925050503d805f81146119c6576040519150601f19603f3d011682016040523d82523d5f602084013e6119cb565b606091505b5050905080611a135760405162461bcd60e51b815260206004820152601460248201527322aa24103a3930b739b332b9103330b4b632b21760611b60448201526064016104e2565b505b5050565b5f80546001600160a01b038381166001600160a01b0319831681178455604051919092169283917f8be0079c531659141344cd1fd0a4f28419497f9722a3daafe3b4186f6b6457e09190a35050565b8451865114611ab95760405162461bcd60e51b815260206004820152601c60248201527f48656972732f646973747269627574696f6e73206d69736d617463680000000060448201526064016104e2565b855115611b4e575f805b8651811015611afb57868181518110611ade57611ade6123e0565b602002602001015182611af1919061237e565b9150600101611ac3565b5080606414611b4c5760405162461bcd60e51b815260206004820152601c60248201527f446973747269627574696f6e206d7573742073756d20746f203130300000000060448201526064016104e2565b505b8551611b61906004906020890190611d50565b508451611b75906005906020880190611db3565b505f5b83811015611bf55760066040518060200160405280878785818110611b9f57611b9f6123e0565b611bb59260206040909202019081019150612307565b6001600160a01b039081169091528254600180820185555f94855260209094209251920180546001600160a01b0319169290911691909117905501611b78565b505f5b81811015611cf35760076040518060600160405280858585818110611c1f57611c1f6123e0565b611c359260206060909202019081019150612307565b6001600160a01b03168152602001858585818110611c5557611c556123e0565b905060600201602001358152602001858585818110611c7657611c766123e0565b9050606002016040016020810190611c8e9190612307565b6001600160a01b039081169091528254600181810185555f948552602094859020845160039093020180549284166001600160a01b03199384161781559484015185820155604090930151600290940180549490921693169290921790915501611bf8565b50505050505050565b5080545f8255905f5260205f209081019061173b9190611dec565b5080545f8255905f5260205f209081019061173b9190611e00565b5080545f8255600302905f5260205f209081019061173b9190611e1f565b828054828255905f5260205f20908101928215611da3579160200282015b82811115611da357825182546001600160a01b0319166001600160a01b03909116178255602090920191600190910190611d6e565b50611daf929150611dec565b5090565b828054828255905f5260205f20908101928215611da3579160200282015b82811115611da3578251825591602001919060010190611dd1565b5b80821115611daf575f8155600101611ded565b5b80821115611daf5780546001600160a01b0319168155600101611e01565b5b80821115611daf5780546001600160a01b031990811682555f60018301556002820180549091169055600301611e20565b634e487b7160e01b5f52602160045260245ffd5b6020810160038310611e8557634e487b7160e01b5f52602160045260245ffd5b91905290565b5f60208284031215611e9b575f80fd5b5035919050565b634e487b7160e01b5f52604160045260245ffd5b604051601f8201601f1916810167ffffffffffffffff81118282101715611edf57611edf611ea2565b604052919050565b5f67ffffffffffffffff821115611f0057611f00611ea2565b5060051b60200190565b80356001600160a01b0381168114611f20575f80fd5b919050565b5f82601f830112611f34575f80fd5b81356020611f49611f4483611ee7565b611eb6565b8083825260208201915060208460051b870101935086841115611f6a575f80fd5b602086015b84811015611f865780358352918301918301611f6f565b509695505050505050565b5f8083601f840112611fa1575f80fd5b50813567ffffffffffffffff811115611fb8575f80fd5b6020830191508360208260061b8501011115611fd2575f80fd5b9250929050565b5f8083601f840112611fe9575f80fd5b50813567ffffffffffffffff811115612000575f80fd5b602083019150836020606083028501011115611fd2575f80fd5b5f805f805f806080878903121561202f575f80fd5b863567ffffffffffffffff80821115612046575f80fd5b818901915089601f830112612059575f80fd5b81356020612069611f4483611ee7565b82815260059290921b8401810191818101908d841115612087575f80fd5b948201945b838610156120ac5761209d86611f0a565b8252948201949082019061208c565b9a50508a0135925050808211156120c1575f80fd5b6120cd8a838b01611f25565b965060408901359150808211156120e2575f80fd5b6120ee8a838b01611f91565b90965094506060890135915080821115612106575f80fd5b5061211389828a01611fd9565b979a9699509497509295939492505050565b5f815180845260208085019450602084015f5b8381101561215d5781516001600160a01b031687529582019590820190600101612138565b509495945050505050565b5f815180845260208085019450602084015f5b8381101561215d5781518752958201959082019060010161217b565b5f815180845260208085019450602084015f5b8381101561215d57815180516001600160a01b0316885283015183880152604090960195908201906001016121aa565b5f815180845260208085019450602084015f5b8381101561215d57815180516001600160a01b03908116895284820151858a01526040918201511690880152606090960195908201906001016121ed565b602081526122456020820183516001600160a01b03169052565b60208201516040820152604082015160608201525f606083015161226d608084018215159052565b50608083015180151560a08401525060a083015160c083015260c08301516101408060e08501526122a2610160850183612125565b915060e0850151601f196101008187860301818801526122c28584612168565b9450808801519250506101208187860301818801526122e18584612197565b9088015187820390920184880152935090506122fd83826121da565b9695505050505050565b5f60208284031215612317575f80fd5b61232082611f0a565b9392505050565b60208082526023908201527f57696c6c3a20496e76616c696420737461746520666f7220746869732061637460408201526234b7b760e91b606082015260800190565b634e487b7160e01b5f52601160045260245ffd5b808201808211156123915761239161236a565b92915050565b80820281158282048414176123915761239161236a565b5f826123c857634e487b7160e01b5f52601260045260245ffd5b500490565b818103818111156123915761239161236a565b634e487b7160e01b5f52603260045260245ffd5b5f60208284031215612404575f80fd5b5051919050565b5f6020828403121561241b575f80fd5b81518015158114612320575f80fd5b6001600160a01b03938416815291909216602082015260408101919091526060019056fea264697066735822122040fac4298b297b88fe3f8e1cf73a29cc3b140b9172c7ab2bb92ef746969f35a264736f6c63430008180033",
					"opcodes": "PUSH2 0x120 PUSH1 0x40 MSTORE PUSH1 0x40 MLOAD PUSH3 0x268C CODESIZE SUB DUP1 PUSH3 0x268C DUP4 CODECOPY DUP2 ADD PUSH1 0x40 DUP2 SWAP1 MSTORE PUSH3 0x27 SWAP2 PUSH3 0x106 JUMP JUMPDEST DUP6 PUSH1 0x1 PUSH1 0x1 PUSH1 0xA0 SHL SUB DUP2 AND PUSH3 0x56 JUMPI PUSH1 0x40 MLOAD PUSH4 0x1E4FBDF7 PUSH1 0xE0 SHL DUP2 MSTORE PUSH0 PUSH1 0x4 DUP3 ADD MSTORE PUSH1 0x24 ADD PUSH1 0x40 MLOAD DUP1 SWAP2 SUB SWAP1 REVERT JUMPDEST PUSH3 0x61 DUP2 PUSH3 0x9B JUMP JUMPDEST POP PUSH1 0x1 DUP1 SSTORE PUSH1 0x80 SWAP5 SWAP1 SWAP5 MSTORE PUSH1 0x1 PUSH1 0x1 PUSH1 0xA0 SHL SUB SWAP3 DUP4 AND PUSH1 0xA0 MSTORE PUSH1 0xC0 SWAP2 SWAP1 SWAP2 MSTORE ISZERO ISZERO PUSH1 0xE0 MSTORE AND PUSH2 0x100 MSTORE POP PUSH1 0x2 DUP1 SLOAD PUSH1 0xFF NOT AND SWAP1 SSTORE PUSH3 0x176 JUMP JUMPDEST PUSH0 DUP1 SLOAD PUSH1 0x1 PUSH1 0x1 PUSH1 0xA0 SHL SUB DUP4 DUP2 AND PUSH1 0x1 PUSH1 0x1 PUSH1 0xA0 SHL SUB NOT DUP4 AND DUP2 OR DUP5 SSTORE PUSH1 0x40 MLOAD SWAP2 SWAP1 SWAP3 AND SWAP3 DUP4 SWAP2 PUSH32 0x8BE0079C531659141344CD1FD0A4F28419497F9722A3DAAFE3B4186F6B6457E0 SWAP2 SWAP1 LOG3 POP POP JUMP JUMPDEST DUP1 MLOAD PUSH1 0x1 PUSH1 0x1 PUSH1 0xA0 SHL SUB DUP2 AND DUP2 EQ PUSH3 0x101 JUMPI PUSH0 DUP1 REVERT JUMPDEST SWAP2 SWAP1 POP JUMP JUMPDEST PUSH0 DUP1 PUSH0 DUP1 PUSH0 DUP1 PUSH1 0xC0 DUP8 DUP10 SUB SLT ISZERO PUSH3 0x11C JUMPI PUSH0 DUP1 REVERT JUMPDEST PUSH3 0x127 DUP8 PUSH3 0xEA JUMP JUMPDEST SWAP6 POP PUSH1 0x20 DUP8 ADD MLOAD SWAP5 POP PUSH3 0x13E PUSH1 0x40 DUP9 ADD PUSH3 0xEA JUMP JUMPDEST SWAP4 POP PUSH1 0x60 DUP8 ADD MLOAD SWAP3 POP PUSH1 0x80 DUP8 ADD MLOAD DUP1 ISZERO ISZERO DUP2 EQ PUSH3 0x15A JUMPI PUSH0 DUP1 REVERT JUMPDEST SWAP2 POP PUSH3 0x16A PUSH1 0xA0 DUP9 ADD PUSH3 0xEA JUMP JUMPDEST SWAP1 POP SWAP3 SWAP6 POP SWAP3 SWAP6 POP SWAP3 SWAP6 JUMP JUMPDEST PUSH1 0x80 MLOAD PUSH1 0xA0 MLOAD PUSH1 0xC0 MLOAD PUSH1 0xE0 MLOAD PUSH2 0x100 MLOAD PUSH2 0x2484 PUSH3 0x208 PUSH0 CODECOPY PUSH0 DUP2 DUP2 PUSH2 0x307 ADD MSTORE PUSH2 0x6D6 ADD MSTORE PUSH0 DUP2 DUP2 PUSH2 0x40B ADD MSTORE PUSH2 0x15D6 ADD MSTORE PUSH0 DUP2 DUP2 PUSH2 0x36E ADD MSTORE DUP2 DUP2 PUSH2 0xD24 ADD MSTORE DUP2 DUP2 PUSH2 0xD4A ADD MSTORE DUP2 DUP2 PUSH2 0xDE5 ADD MSTORE PUSH2 0xF3E ADD MSTORE PUSH0 DUP2 DUP2 PUSH2 0x2D4 ADD MSTORE DUP2 DUP2 PUSH2 0x76D ADD MSTORE DUP2 DUP2 PUSH2 0xDBB ADD MSTORE DUP2 DUP2 PUSH2 0xE9B ADD MSTORE PUSH2 0x1232 ADD MSTORE PUSH0 DUP2 DUP2 PUSH2 0x2A1 ADD MSTORE DUP2 DUP2 PUSH2 0x63C ADD MSTORE PUSH2 0x1585 ADD MSTORE PUSH2 0x2484 PUSH0 RETURN INVALID PUSH1 0x80 PUSH1 0x40 MSTORE PUSH1 0x4 CALLDATASIZE LT PUSH2 0x131 JUMPI PUSH0 CALLDATALOAD PUSH1 0xE0 SHR DUP1 PUSH4 0x9379F517 GT PUSH2 0xA8 JUMPI DUP1 PUSH4 0xC0463711 GT PUSH2 0x6D JUMPI DUP1 PUSH4 0xC0463711 EQ PUSH2 0x348 JUMPI DUP1 PUSH4 0xC7C85BAA EQ PUSH2 0x35D JUMPI DUP1 PUSH4 0xCC4F9D5B EQ PUSH2 0x390 JUMPI DUP1 PUSH4 0xE15724A5 EQ PUSH2 0x3B1 JUMPI DUP1 PUSH4 0xEED35FEA EQ PUSH2 0x3FA JUMPI DUP1 PUSH4 0xF2FDE38B EQ PUSH2 0x43D JUMPI PUSH0 DUP1 REVERT JUMPDEST DUP1 PUSH4 0x9379F517 EQ PUSH2 0x271 JUMPI DUP1 PUSH4 0x947A36FB EQ PUSH2 0x290 JUMPI DUP1 PUSH4 0xA444AE41 EQ PUSH2 0x2C3 JUMPI DUP1 PUSH4 0xA8E9A539 EQ PUSH2 0x2F6 JUMPI DUP1 PUSH4 0xABE21B59 EQ PUSH2 0x329 JUMPI PUSH0 DUP1 REVERT JUMPDEST DUP1 PUSH4 0x5C36B186 GT PUSH2 0xF9 JUMPI DUP1 PUSH4 0x5C36B186 EQ PUSH2 0x1F2 JUMPI DUP1 PUSH4 0x61461954 EQ PUSH2 0x206 JUMPI DUP1 PUSH4 0x6B892B22 EQ PUSH2 0x21A JUMPI DUP1 PUSH4 0x715018A6 EQ PUSH2 0x22E JUMPI DUP1 PUSH4 0x8BF58F79 EQ PUSH2 0x242 JUMPI DUP1 PUSH4 0x8DA5CB5B EQ PUSH2 0x255 JUMPI PUSH0 DUP1 REVERT JUMPDEST DUP1 PUSH4 0xC3F6ACF EQ PUSH2 0x135 JUMPI DUP1 PUSH4 0x1C0795C3 EQ PUSH2 0x164 JUMPI DUP1 PUSH4 0x1F99966A EQ PUSH2 0x19B JUMPI DUP1 PUSH4 0x2395D975 EQ PUSH2 0x1C8 JUMPI DUP1 PUSH4 0x3027439C EQ PUSH2 0x1DC JUMPI JUMPDEST PUSH0 DUP1 REVERT JUMPDEST CALLVALUE DUP1 ISZERO PUSH2 0x140 JUMPI PUSH0 DUP1 REVERT JUMPDEST POP PUSH1 0x2 SLOAD PUSH2 0x14E SWAP1 PUSH1 0xFF AND DUP2 JUMP JUMPDEST PUSH1 0x40 MLOAD PUSH2 0x15B SWAP2 SWAP1 PUSH2 0x1E65 JUMP JUMPDEST PUSH1 0x40 MLOAD DUP1 SWAP2 SUB SWAP1 RETURN JUMPDEST CALLVALUE DUP1 ISZERO PUSH2 0x16F JUMPI PUSH0 DUP1 REVERT JUMPDEST POP PUSH2 0x183 PUSH2 0x17E CALLDATASIZE PUSH1 0x4 PUSH2 0x1E8B JUMP JUMPDEST PUSH2 0x45C JUMP JUMPDEST PUSH1 0x40 MLOAD PUSH1 0x1 PUSH1 0x1 PUSH1 0xA0 SHL SUB SWAP1 SWAP2 AND DUP2 MSTORE PUSH1 0x20 ADD PUSH2 0x15B JUMP JUMPDEST CALLVALUE DUP1 ISZERO PUSH2 0x1A6 JUMPI PUSH0 DUP1 REVERT JUMPDEST POP PUSH2 0x1BA PUSH2 0x1B5 CALLDATASIZE PUSH1 0x4 PUSH2 0x1E8B JUMP JUMPDEST PUSH2 0x484 JUMP JUMPDEST PUSH1 0x40 MLOAD SWAP1 DUP2 MSTORE PUSH1 0x20 ADD PUSH2 0x15B JUMP JUMPDEST CALLVALUE DUP1 ISZERO PUSH2 0x1D3 JUMPI PUSH0 DUP1 REVERT JUMPDEST POP PUSH2 0x1BA PUSH1 0x32 DUP2 JUMP JUMPDEST CALLVALUE DUP1 ISZERO PUSH2 0x1E7 JUMPI PUSH0 DUP1 REVERT JUMPDEST POP PUSH2 0x1F0 PUSH2 0x4A3 JUMP JUMPDEST STOP JUMPDEST CALLVALUE DUP1 ISZERO PUSH2 0x1FD JUMPI PUSH0 DUP1 REVERT JUMPDEST POP PUSH2 0x1F0 PUSH2 0x572 JUMP JUMPDEST CALLVALUE DUP1 ISZERO PUSH2 0x211 JUMPI PUSH0 DUP1 REVERT JUMPDEST POP PUSH2 0x1F0 PUSH2 0x5ED JUMP JUMPDEST CALLVALUE DUP1 ISZERO PUSH2 0x225 JUMPI PUSH0 DUP1 REVERT JUMPDEST POP PUSH2 0x1F0 PUSH2 0xCCD JUMP JUMPDEST CALLVALUE DUP1 ISZERO PUSH2 0x239 JUMPI PUSH0 DUP1 REVERT JUMPDEST POP PUSH2 0x1F0 PUSH2 0xF94 JUMP JUMPDEST PUSH2 0x1F0 PUSH2 0x250 CALLDATASIZE PUSH1 0x4 PUSH2 0x201A JUMP JUMPDEST PUSH2 0xFA7 JUMP JUMPDEST CALLVALUE DUP1 ISZERO PUSH2 0x260 JUMPI PUSH0 DUP1 REVERT JUMPDEST POP PUSH0 SLOAD PUSH1 0x1 PUSH1 0x1 PUSH1 0xA0 SHL SUB AND PUSH2 0x183 JUMP JUMPDEST CALLVALUE DUP1 ISZERO PUSH2 0x27C JUMPI PUSH0 DUP1 REVERT JUMPDEST POP PUSH2 0x183 PUSH2 0x28B CALLDATASIZE PUSH1 0x4 PUSH2 0x1E8B JUMP JUMPDEST PUSH2 0x11E2 JUMP JUMPDEST CALLVALUE DUP1 ISZERO PUSH2 0x29B JUMPI PUSH0 DUP1 REVERT JUMPDEST POP PUSH2 0x1BA PUSH32 0x0 DUP2 JUMP JUMPDEST CALLVALUE DUP1 ISZERO PUSH2 0x2CE JUMPI PUSH0 DUP1 REVERT JUMPDEST POP PUSH2 0x183 PUSH32 0x0 DUP2 JUMP JUMPDEST CALLVALUE DUP1 ISZERO PUSH2 0x301 JUMPI PUSH0 DUP1 REVERT JUMPDEST POP PUSH2 0x183 PUSH32 0x0 DUP2 JUMP JUMPDEST CALLVALUE DUP1 ISZERO PUSH2 0x334 JUMPI PUSH0 DUP1 REVERT JUMPDEST POP PUSH2 0x1F0 PUSH2 0x343 CALLDATASIZE PUSH1 0x4 PUSH2 0x201A JUMP JUMPDEST PUSH2 0x11F1 JUMP JUMPDEST CALLVALUE DUP1 ISZERO PUSH2 0x353 JUMPI PUSH0 DUP1 REVERT JUMPDEST POP PUSH2 0x1BA PUSH1 0x3 SLOAD DUP2 JUMP JUMPDEST CALLVALUE DUP1 ISZERO PUSH2 0x368 JUMPI PUSH0 DUP1 REVERT JUMPDEST POP PUSH2 0x1BA PUSH32 0x0 DUP2 JUMP JUMPDEST CALLVALUE DUP1 ISZERO PUSH2 0x39B JUMPI PUSH0 DUP1 REVERT JUMPDEST POP PUSH2 0x3A4 PUSH2 0x12AD JUMP JUMPDEST PUSH1 0x40 MLOAD PUSH2 0x15B SWAP2 SWAP1 PUSH2 0x222B JUMP JUMPDEST CALLVALUE DUP1 ISZERO PUSH2 0x3BC JUMPI PUSH0 DUP1 REVERT JUMPDEST POP PUSH2 0x3D0 PUSH2 0x3CB CALLDATASIZE PUSH1 0x4 PUSH2 0x1E8B JUMP JUMPDEST PUSH2 0x16C5 JUMP JUMPDEST PUSH1 0x40 DUP1 MLOAD PUSH1 0x1 PUSH1 0x1 PUSH1 0xA0 SHL SUB SWAP5 DUP6 AND DUP2 MSTORE PUSH1 0x20 DUP2 ADD SWAP4 SWAP1 SWAP4 MSTORE SWAP3 AND SWAP2 DUP2 ADD SWAP2 SWAP1 SWAP2 MSTORE PUSH1 0x60 ADD PUSH2 0x15B JUMP JUMPDEST CALLVALUE DUP1 ISZERO PUSH2 0x405 JUMPI PUSH0 DUP1 REVERT JUMPDEST POP PUSH2 0x42D PUSH32 0x0 DUP2 JUMP JUMPDEST PUSH1 0x40 MLOAD SWAP1 ISZERO ISZERO DUP2 MSTORE PUSH1 0x20 ADD PUSH2 0x15B JUMP JUMPDEST CALLVALUE DUP1 ISZERO PUSH2 0x448 JUMPI PUSH0 DUP1 REVERT JUMPDEST POP PUSH2 0x1F0 PUSH2 0x457 CALLDATASIZE PUSH1 0x4 PUSH2 0x2307 JUMP JUMPDEST PUSH2 0x1701 JUMP JUMPDEST PUSH1 0x4 DUP2 DUP2 SLOAD DUP2 LT PUSH2 0x46B JUMPI PUSH0 DUP1 REVERT JUMPDEST PUSH0 SWAP2 DUP3 MSTORE PUSH1 0x20 SWAP1 SWAP2 KECCAK256 ADD SLOAD PUSH1 0x1 PUSH1 0x1 PUSH1 0xA0 SHL SUB AND SWAP1 POP DUP2 JUMP JUMPDEST PUSH1 0x5 DUP2 DUP2 SLOAD DUP2 LT PUSH2 0x493 JUMPI PUSH0 DUP1 REVERT JUMPDEST PUSH0 SWAP2 DUP3 MSTORE PUSH1 0x20 SWAP1 SWAP2 KECCAK256 ADD SLOAD SWAP1 POP DUP2 JUMP JUMPDEST PUSH2 0x4AB PUSH2 0x173E JUMP JUMPDEST PUSH1 0x1 DUP1 PUSH1 0x2 DUP1 SLOAD PUSH1 0xFF AND SWAP1 DUP2 GT ISZERO PUSH2 0x4C5 JUMPI PUSH2 0x4C5 PUSH2 0x1E51 JUMP JUMPDEST EQ PUSH2 0x4EB JUMPI PUSH1 0x40 MLOAD PUSH3 0x461BCD PUSH1 0xE5 SHL DUP2 MSTORE PUSH1 0x4 ADD PUSH2 0x4E2 SWAP1 PUSH2 0x2327 JUMP JUMPDEST PUSH1 0x40 MLOAD DUP1 SWAP2 SUB SWAP1 REVERT JUMPDEST PUSH2 0x4F3 PUSH2 0x176A JUMP JUMPDEST PUSH1 0x2 PUSH1 0x1 SSTORE PUSH2 0x500 PUSH2 0x178D JUMP JUMPDEST PUSH2 0x50B PUSH1 0x4 PUSH0 PUSH2 0x1CFC JUMP JUMPDEST PUSH2 0x516 PUSH1 0x5 PUSH0 PUSH2 0x1CFC JUMP JUMPDEST PUSH2 0x521 PUSH1 0x6 PUSH0 PUSH2 0x1D17 JUMP JUMPDEST PUSH2 0x52C PUSH1 0x7 PUSH0 PUSH2 0x1D32 JUMP JUMPDEST PUSH1 0x2 DUP1 SLOAD PUSH1 0xFF NOT AND SWAP1 SSTORE PUSH0 DUP1 SLOAD PUSH1 0x40 MLOAD PUSH1 0x1 PUSH1 0x1 PUSH1 0xA0 SHL SUB SWAP1 SWAP2 AND SWAP2 PUSH32 0x5AF2B6DCDCCC1DD52EE38632AFEE0BC3AC6DEF619ED4132F2F9A40FF48EC74F2 SWAP2 LOG2 POP PUSH1 0x1 DUP1 SSTORE JUMP JUMPDEST PUSH2 0x57A PUSH2 0x173E JUMP JUMPDEST PUSH1 0x1 DUP1 PUSH1 0x2 DUP1 SLOAD PUSH1 0xFF AND SWAP1 DUP2 GT ISZERO PUSH2 0x594 JUMPI PUSH2 0x594 PUSH2 0x1E51 JUMP JUMPDEST EQ PUSH2 0x5B1 JUMPI PUSH1 0x40 MLOAD PUSH3 0x461BCD PUSH1 0xE5 SHL DUP2 MSTORE PUSH1 0x4 ADD PUSH2 0x4E2 SWAP1 PUSH2 0x2327 JUMP JUMPDEST TIMESTAMP PUSH1 0x3 DUP2 SWAP1 SSTORE PUSH1 0x40 MLOAD SWAP1 DUP2 MSTORE PUSH32 0x48257DC961B6F792C2B78A080DACFED693B660960A702DE21CEE364E20270E2F SWAP1 PUSH1 0x20 ADD PUSH1 0x40 MLOAD DUP1 SWAP2 SUB SWAP1 LOG1 POP JUMP JUMPDEST PUSH1 0x1 DUP1 PUSH1 0x2 DUP1 SLOAD PUSH1 0xFF AND SWAP1 DUP2 GT ISZERO PUSH2 0x607 JUMPI PUSH2 0x607 PUSH2 0x1E51 JUMP JUMPDEST EQ PUSH2 0x624 JUMPI PUSH1 0x40 MLOAD PUSH3 0x461BCD PUSH1 0xE5 SHL DUP2 MSTORE PUSH1 0x4 ADD PUSH2 0x4E2 SWAP1 PUSH2 0x2327 JUMP JUMPDEST PUSH2 0x62C PUSH2 0x176A JUMP JUMPDEST PUSH1 0x2 PUSH1 0x1 SSTORE PUSH1 0x3 SLOAD PUSH0 SWAP1 PUSH2 0x661 SWAP1 PUSH32 0x0 SWAP1 PUSH2 0x237E JUMP JUMPDEST SWAP1 POP DUP1 TIMESTAMP LT ISZERO PUSH2 0x6B3 JUMPI PUSH1 0x40 MLOAD PUSH3 0x461BCD PUSH1 0xE5 SHL DUP2 MSTORE PUSH1 0x20 PUSH1 0x4 DUP3 ADD MSTORE PUSH1 0x1B PUSH1 0x24 DUP3 ADD MSTORE PUSH32 0x477261636520706572696F6420686173206E6F7420656E6465642E0000000000 PUSH1 0x44 DUP3 ADD MSTORE PUSH1 0x64 ADD PUSH2 0x4E2 JUMP JUMPDEST PUSH0 PUSH2 0x6C1 PUSH3 0x15180 DUP4 PUSH2 0x237E JUMP JUMPDEST SWAP1 POP DUP1 TIMESTAMP LT ISZERO PUSH2 0x751 JUMPI CALLER PUSH1 0x1 PUSH1 0x1 PUSH1 0xA0 SHL SUB PUSH32 0x0 AND EQ PUSH2 0x751 JUMPI PUSH1 0x40 MLOAD PUSH3 0x461BCD PUSH1 0xE5 SHL DUP2 MSTORE PUSH1 0x20 PUSH1 0x4 DUP3 ADD MSTORE PUSH1 0x25 PUSH1 0x24 DUP3 ADD MSTORE PUSH32 0x4F6E6C792064657369676E61746564206578656375746F722063616E2063616C PUSH1 0x44 DUP3 ADD MSTORE PUSH5 0x6C206E6F77 PUSH1 0xD8 SHL PUSH1 0x64 DUP3 ADD MSTORE PUSH1 0x84 ADD PUSH2 0x4E2 JUMP JUMPDEST PUSH1 0x2 DUP1 SLOAD PUSH1 0xFF NOT AND DUP2 OR SWAP1 SSTORE PUSH0 TIMESTAMP DUP3 GT PUSH2 0x76B JUMPI CALLER PUSH2 0x78D JUMP JUMPDEST PUSH32 0x0 JUMPDEST SWAP1 POP PUSH0 SELFBALANCE DUP1 ISZERO PUSH2 0x97B JUMPI PUSH0 PUSH2 0x2710 PUSH2 0x7A6 PUSH1 0x32 DUP5 PUSH2 0x2397 JUMP JUMPDEST PUSH2 0x7B0 SWAP2 SWAP1 PUSH2 0x23AE JUMP JUMPDEST SWAP3 POP DUP3 SWAP1 POP PUSH0 PUSH2 0x7C0 DUP3 DUP5 PUSH2 0x23CD JUMP JUMPDEST SWAP1 POP DUP2 ISZERO PUSH2 0x869 JUMPI PUSH0 DUP6 PUSH1 0x1 PUSH1 0x1 PUSH1 0xA0 SHL SUB AND DUP4 PUSH1 0x40 MLOAD PUSH0 PUSH1 0x40 MLOAD DUP1 DUP4 SUB DUP2 DUP6 DUP8 GAS CALL SWAP3 POP POP POP RETURNDATASIZE DUP1 PUSH0 DUP2 EQ PUSH2 0x811 JUMPI PUSH1 0x40 MLOAD SWAP2 POP PUSH1 0x1F NOT PUSH1 0x3F RETURNDATASIZE ADD AND DUP3 ADD PUSH1 0x40 MSTORE RETURNDATASIZE DUP3 MSTORE RETURNDATASIZE PUSH0 PUSH1 0x20 DUP5 ADD RETURNDATACOPY PUSH2 0x816 JUMP JUMPDEST PUSH1 0x60 SWAP2 POP JUMPDEST POP POP SWAP1 POP DUP1 PUSH2 0x867 JUMPI PUSH1 0x40 MLOAD PUSH3 0x461BCD PUSH1 0xE5 SHL DUP2 MSTORE PUSH1 0x20 PUSH1 0x4 DUP3 ADD MSTORE PUSH1 0x17 PUSH1 0x24 DUP3 ADD MSTORE PUSH32 0x45544820666565207472616E73666572206661696C6564000000000000000000 PUSH1 0x44 DUP3 ADD MSTORE PUSH1 0x64 ADD PUSH2 0x4E2 JUMP JUMPDEST POP JUMPDEST PUSH0 JUMPDEST PUSH1 0x4 SLOAD DUP2 LT ISZERO PUSH2 0x977 JUMPI PUSH0 PUSH1 0x64 PUSH1 0x5 DUP4 DUP2 SLOAD DUP2 LT PUSH2 0x88B JUMPI PUSH2 0x88B PUSH2 0x23E0 JUMP JUMPDEST SWAP1 PUSH0 MSTORE PUSH1 0x20 PUSH0 KECCAK256 ADD SLOAD DUP5 PUSH2 0x89F SWAP2 SWAP1 PUSH2 0x2397 JUMP JUMPDEST PUSH2 0x8A9 SWAP2 SWAP1 PUSH2 0x23AE JUMP JUMPDEST SWAP1 POP DUP1 ISZERO PUSH2 0x96E JUMPI PUSH0 PUSH1 0x4 DUP4 DUP2 SLOAD DUP2 LT PUSH2 0x8C5 JUMPI PUSH2 0x8C5 PUSH2 0x23E0 JUMP JUMPDEST PUSH0 SWAP2 DUP3 MSTORE PUSH1 0x20 DUP3 KECCAK256 ADD SLOAD PUSH1 0x40 MLOAD PUSH1 0x1 PUSH1 0x1 PUSH1 0xA0 SHL SUB SWAP1 SWAP2 AND SWAP2 DUP5 SWAP2 SWAP1 DUP2 DUP2 DUP2 DUP6 DUP8 GAS CALL SWAP3 POP POP POP RETURNDATASIZE DUP1 PUSH0 DUP2 EQ PUSH2 0x916 JUMPI PUSH1 0x40 MLOAD SWAP2 POP PUSH1 0x1F NOT PUSH1 0x3F RETURNDATASIZE ADD AND DUP3 ADD PUSH1 0x40 MSTORE RETURNDATASIZE DUP3 MSTORE RETURNDATASIZE PUSH0 PUSH1 0x20 DUP5 ADD RETURNDATACOPY PUSH2 0x91B JUMP JUMPDEST PUSH1 0x60 SWAP2 POP JUMPDEST POP POP SWAP1 POP DUP1 PUSH2 0x96C JUMPI PUSH1 0x40 MLOAD PUSH3 0x461BCD PUSH1 0xE5 SHL DUP2 MSTORE PUSH1 0x20 PUSH1 0x4 DUP3 ADD MSTORE PUSH1 0x1B PUSH1 0x24 DUP3 ADD MSTORE PUSH32 0x455448207472616E7366657220746F2068656972206661696C65640000000000 PUSH1 0x44 DUP3 ADD MSTORE PUSH1 0x64 ADD PUSH2 0x4E2 JUMP JUMPDEST POP JUMPDEST POP PUSH1 0x1 ADD PUSH2 0x86B JUMP JUMPDEST POP POP POP JUMPDEST PUSH0 JUMPDEST PUSH1 0x6 SLOAD DUP2 LT ISZERO PUSH2 0xBB3 JUMPI PUSH0 PUSH1 0x6 DUP3 DUP2 SLOAD DUP2 LT PUSH2 0x99B JUMPI PUSH2 0x99B PUSH2 0x23E0 JUMP JUMPDEST PUSH0 SWAP2 DUP3 MSTORE PUSH1 0x20 DUP3 KECCAK256 ADD SLOAD PUSH1 0x40 MLOAD PUSH4 0x70A08231 PUSH1 0xE0 SHL DUP2 MSTORE ADDRESS PUSH1 0x4 DUP3 ADD MSTORE PUSH1 0x1 PUSH1 0x1 PUSH1 0xA0 SHL SUB SWAP1 SWAP2 AND SWAP3 POP DUP3 SWAP1 PUSH4 0x70A08231 SWAP1 PUSH1 0x24 ADD PUSH1 0x20 PUSH1 0x40 MLOAD DUP1 DUP4 SUB DUP2 DUP7 GAS STATICCALL ISZERO DUP1 ISZERO PUSH2 0x9EB JUMPI RETURNDATASIZE PUSH0 DUP1 RETURNDATACOPY RETURNDATASIZE PUSH0 REVERT JUMPDEST POP POP POP POP PUSH1 0x40 MLOAD RETURNDATASIZE PUSH1 0x1F NOT PUSH1 0x1F DUP3 ADD AND DUP3 ADD DUP1 PUSH1 0x40 MSTORE POP DUP2 ADD SWAP1 PUSH2 0xA0F SWAP2 SWAP1 PUSH2 0x23F4 JUMP JUMPDEST SWAP1 POP DUP1 ISZERO PUSH2 0xBA9 JUMPI PUSH0 PUSH2 0x2710 PUSH2 0xA26 PUSH1 0x32 DUP5 PUSH2 0x2397 JUMP JUMPDEST PUSH2 0xA30 SWAP2 SWAP1 PUSH2 0x23AE JUMP JUMPDEST SWAP1 POP PUSH0 PUSH2 0xA3D DUP3 DUP5 PUSH2 0x23CD JUMP JUMPDEST SWAP1 POP DUP2 ISZERO PUSH2 0xAB7 JUMPI PUSH1 0x40 MLOAD PUSH4 0xA9059CBB PUSH1 0xE0 SHL DUP2 MSTORE PUSH1 0x1 PUSH1 0x1 PUSH1 0xA0 SHL SUB DUP10 DUP2 AND PUSH1 0x4 DUP4 ADD MSTORE PUSH1 0x24 DUP3 ADD DUP5 SWAP1 MSTORE DUP6 AND SWAP1 PUSH4 0xA9059CBB SWAP1 PUSH1 0x44 ADD PUSH1 0x20 PUSH1 0x40 MLOAD DUP1 DUP4 SUB DUP2 PUSH0 DUP8 GAS CALL ISZERO DUP1 ISZERO PUSH2 0xA91 JUMPI RETURNDATASIZE PUSH0 DUP1 RETURNDATACOPY RETURNDATASIZE PUSH0 REVERT JUMPDEST POP POP POP POP PUSH1 0x40 MLOAD RETURNDATASIZE PUSH1 0x1F NOT PUSH1 0x1F DUP3 ADD AND DUP3 ADD DUP1 PUSH1 0x40 MSTORE POP DUP2 ADD SWAP1 PUSH2 0xAB5 SWAP2 SWAP1 PUSH2 0x240B JUMP JUMPDEST POP JUMPDEST PUSH0 JUMPDEST PUSH1 0x4 SLOAD DUP2 LT ISZERO PUSH2 0xBA5 JUMPI PUSH0 PUSH1 0x64 PUSH1 0x5 DUP4 DUP2 SLOAD DUP2 LT PUSH2 0xAD9 JUMPI PUSH2 0xAD9 PUSH2 0x23E0 JUMP JUMPDEST SWAP1 PUSH0 MSTORE PUSH1 0x20 PUSH0 KECCAK256 ADD SLOAD DUP5 PUSH2 0xAED SWAP2 SWAP1 PUSH2 0x2397 JUMP JUMPDEST PUSH2 0xAF7 SWAP2 SWAP1 PUSH2 0x23AE JUMP JUMPDEST SWAP1 POP DUP1 ISZERO PUSH2 0xB9C JUMPI DUP6 PUSH1 0x1 PUSH1 0x1 PUSH1 0xA0 SHL SUB AND PUSH4 0xA9059CBB PUSH1 0x4 DUP5 DUP2 SLOAD DUP2 LT PUSH2 0xB21 JUMPI PUSH2 0xB21 PUSH2 0x23E0 JUMP JUMPDEST PUSH0 SWAP2 DUP3 MSTORE PUSH1 0x20 SWAP1 SWAP2 KECCAK256 ADD SLOAD PUSH1 0x40 MLOAD PUSH1 0xE0 DUP4 SWAP1 SHL PUSH1 0x1 PUSH1 0x1 PUSH1 0xE0 SHL SUB NOT AND DUP2 MSTORE PUSH1 0x1 PUSH1 0x1 PUSH1 0xA0 SHL SUB SWAP1 SWAP2 AND PUSH1 0x4 DUP3 ADD MSTORE PUSH1 0x24 DUP2 ADD DUP5 SWAP1 MSTORE PUSH1 0x44 ADD PUSH1 0x20 PUSH1 0x40 MLOAD DUP1 DUP4 SUB DUP2 PUSH0 DUP8 GAS CALL ISZERO DUP1 ISZERO PUSH2 0xB76 JUMPI RETURNDATASIZE PUSH0 DUP1 RETURNDATACOPY RETURNDATASIZE PUSH0 REVERT JUMPDEST POP POP POP POP PUSH1 0x40 MLOAD RETURNDATASIZE PUSH1 0x1F NOT PUSH1 0x1F DUP3 ADD AND DUP3 ADD DUP1 PUSH1 0x40 MSTORE POP DUP2 ADD SWAP1 PUSH2 0xB9A SWAP2 SWAP1 PUSH2 0x240B JUMP JUMPDEST POP JUMPDEST POP PUSH1 0x1 ADD PUSH2 0xAB9 JUMP JUMPDEST POP POP POP JUMPDEST POP POP PUSH1 0x1 ADD PUSH2 0x97D JUMP JUMPDEST POP PUSH0 JUMPDEST PUSH1 0x7 SLOAD DUP2 LT ISZERO PUSH2 0xC78 JUMPI PUSH0 PUSH1 0x7 DUP3 DUP2 SLOAD DUP2 LT PUSH2 0xBD4 JUMPI PUSH2 0xBD4 PUSH2 0x23E0 JUMP JUMPDEST PUSH0 SWAP2 DUP3 MSTORE PUSH1 0x20 SWAP2 DUP3 SWAP1 KECCAK256 PUSH1 0x40 DUP1 MLOAD PUSH1 0x60 DUP2 ADD DUP3 MSTORE PUSH1 0x3 SWAP1 SWAP4 MUL SWAP1 SWAP2 ADD DUP1 SLOAD PUSH1 0x1 PUSH1 0x1 PUSH1 0xA0 SHL SUB SWAP1 DUP2 AND DUP1 DUP6 MSTORE PUSH1 0x1 DUP4 ADD SLOAD SWAP6 DUP6 ADD DUP7 SWAP1 MSTORE PUSH1 0x2 SWAP1 SWAP3 ADD SLOAD AND DUP4 DUP4 ADD DUP2 SWAP1 MSTORE SWAP2 MLOAD PUSH4 0x21421707 PUSH1 0xE1 SHL DUP2 MSTORE SWAP3 SWAP5 POP SWAP3 PUSH4 0x42842E0E SWAP3 PUSH2 0xC3E SWAP3 ADDRESS SWAP3 SWAP1 SWAP2 PUSH1 0x4 ADD PUSH2 0x242A JUMP JUMPDEST PUSH0 PUSH1 0x40 MLOAD DUP1 DUP4 SUB DUP2 PUSH0 DUP8 DUP1 EXTCODESIZE ISZERO DUP1 ISZERO PUSH2 0xC55 JUMPI PUSH0 DUP1 REVERT JUMPDEST POP GAS CALL ISZERO DUP1 ISZERO PUSH2 0xC67 JUMPI RETURNDATASIZE PUSH0 DUP1 RETURNDATACOPY RETURNDATASIZE PUSH0 REVERT JUMPDEST POP POP PUSH1 0x1 SWAP1 SWAP4 ADD SWAP3 POP PUSH2 0xBB6 SWAP2 POP POP JUMP JUMPDEST POP PUSH1 0x40 DUP1 MLOAD CALLER DUP2 MSTORE PUSH1 0x20 DUP2 ADD DUP5 SWAP1 MSTORE PUSH1 0x1 PUSH1 0x1 PUSH1 0xA0 SHL SUB DUP6 AND DUP2 DUP4 ADD MSTORE SWAP1 MLOAD PUSH32 0x52BA16C8B985EFF690A9DE92094BD7486F89340E06E385FFB26DE9C6EEA384DC SWAP2 DUP2 SWAP1 SUB PUSH1 0x60 ADD SWAP1 LOG1 POP POP PUSH1 0x1 DUP1 SSTORE POP POP POP POP JUMP JUMPDEST PUSH2 0xCD5 PUSH2 0x173E JUMP JUMPDEST PUSH1 0x1 DUP1 PUSH1 0x2 DUP1 SLOAD PUSH1 0xFF AND SWAP1 DUP2 GT ISZERO PUSH2 0xCEF JUMPI PUSH2 0xCEF PUSH2 0x1E51 JUMP JUMPDEST EQ PUSH2 0xD0C JUMPI PUSH1 0x40 MLOAD PUSH3 0x461BCD PUSH1 0xE5 SHL DUP2 MSTORE PUSH1 0x4 ADD PUSH2 0x4E2 SWAP1 PUSH2 0x2327 JUMP JUMPDEST PUSH2 0xD14 PUSH2 0x176A JUMP JUMPDEST PUSH1 0x2 PUSH1 0x1 SSTORE SELFBALANCE PUSH2 0xD22 PUSH2 0x178D JUMP JUMPDEST PUSH32 0x0 ISZERO PUSH2 0xE99 JUMPI PUSH32 0x0 DUP2 LT ISZERO PUSH2 0xDB8 JUMPI PUSH1 0x40 MLOAD PUSH3 0x461BCD PUSH1 0xE5 SHL DUP2 MSTORE PUSH1 0x20 PUSH1 0x4 DUP3 ADD MSTORE PUSH1 0x18 PUSH1 0x24 DUP3 ADD MSTORE PUSH32 0x496E73756666696369656E742045544820666F72206665650000000000000000 PUSH1 0x44 DUP3 ADD MSTORE PUSH1 0x64 ADD PUSH2 0x4E2 JUMP JUMPDEST PUSH0 PUSH32 0x0 PUSH1 0x1 PUSH1 0x1 PUSH1 0xA0 SHL SUB AND PUSH32 0x0 PUSH1 0x40 MLOAD PUSH0 PUSH1 0x40 MLOAD DUP1 DUP4 SUB DUP2 DUP6 DUP8 GAS CALL SWAP3 POP POP POP RETURNDATASIZE DUP1 PUSH0 DUP2 EQ PUSH2 0xE41 JUMPI PUSH1 0x40 MLOAD SWAP2 POP PUSH1 0x1F NOT PUSH1 0x3F RETURNDATASIZE ADD AND DUP3 ADD PUSH1 0x40 MSTORE RETURNDATASIZE DUP3 MSTORE RETURNDATASIZE PUSH0 PUSH1 0x20 DUP5 ADD RETURNDATACOPY PUSH2 0xE46 JUMP JUMPDEST PUSH1 0x60 SWAP2 POP JUMPDEST POP POP SWAP1 POP DUP1 PUSH2 0xE97 JUMPI PUSH1 0x40 MLOAD PUSH3 0x461BCD PUSH1 0xE5 SHL DUP2 MSTORE PUSH1 0x20 PUSH1 0x4 DUP3 ADD DUP2 SWAP1 MSTORE PUSH1 0x24 DUP3 ADD MSTORE PUSH32 0x5465726D696E6174696F6E20666565207472616E73666572206661696C65642E PUSH1 0x44 DUP3 ADD MSTORE PUSH1 0x64 ADD PUSH2 0x4E2 JUMP JUMPDEST POP JUMPDEST PUSH32 0x0 PUSH1 0x1 PUSH1 0x1 PUSH1 0xA0 SHL SUB AND PUSH4 0xA658DD6B PUSH2 0xED9 PUSH0 SLOAD PUSH1 0x1 PUSH1 0x1 PUSH1 0xA0 SHL SUB AND SWAP1 JUMP JUMPDEST PUSH1 0x40 MLOAD PUSH1 0x1 PUSH1 0x1 PUSH1 0xE0 SHL SUB NOT PUSH1 0xE0 DUP5 SWAP1 SHL AND DUP2 MSTORE PUSH1 0x1 PUSH1 0x1 PUSH1 0xA0 SHL SUB SWAP1 SWAP2 AND PUSH1 0x4 DUP3 ADD MSTORE PUSH1 0x24 ADD PUSH0 PUSH1 0x40 MLOAD DUP1 DUP4 SUB DUP2 PUSH0 DUP8 DUP1 EXTCODESIZE ISZERO DUP1 ISZERO PUSH2 0xF17 JUMPI PUSH0 DUP1 REVERT JUMPDEST POP GAS CALL ISZERO DUP1 ISZERO PUSH2 0xF29 JUMPI RETURNDATASIZE PUSH0 DUP1 RETURNDATACOPY RETURNDATASIZE PUSH0 REVERT JUMPDEST POP POP PUSH1 0x2 DUP1 SLOAD PUSH1 0xFF NOT AND DUP2 OR SWAP1 SSTORE POP POP PUSH1 0x40 MLOAD PUSH32 0x0 DUP2 MSTORE PUSH32 0xC41D93B8BFBF9FD7CF5BFE271FD649AB6A6FEC0EA101C23B82A2A28ECA2533A9 SWAP1 PUSH1 0x20 ADD PUSH1 0x40 MLOAD DUP1 SWAP2 SUB SWAP1 LOG1 POP POP PUSH1 0x1 DUP1 SSTORE JUMP JUMPDEST PUSH2 0xF9C PUSH2 0x173E JUMP JUMPDEST PUSH2 0xFA5 PUSH0 PUSH2 0x1A19 JUMP JUMPDEST JUMP JUMPDEST PUSH2 0xFAF PUSH2 0x173E JUMP JUMPDEST PUSH0 DUP1 PUSH1 0x2 DUP1 SLOAD PUSH1 0xFF AND SWAP1 DUP2 GT ISZERO PUSH2 0xFC8 JUMPI PUSH2 0xFC8 PUSH2 0x1E51 JUMP JUMPDEST EQ PUSH2 0xFE5 JUMPI PUSH1 0x40 MLOAD PUSH3 0x461BCD PUSH1 0xE5 SHL DUP2 MSTORE PUSH1 0x4 ADD PUSH2 0x4E2 SWAP1 PUSH2 0x2327 JUMP JUMPDEST PUSH0 JUMPDEST DUP5 DUP2 LT ISZERO PUSH2 0x10CE JUMPI PUSH0 DUP7 DUP7 DUP4 DUP2 DUP2 LT PUSH2 0x1002 JUMPI PUSH2 0x1002 PUSH2 0x23E0 JUMP JUMPDEST SWAP1 POP PUSH1 0x40 MUL ADD PUSH1 0x20 ADD CALLDATALOAD GT ISZERO PUSH2 0x10C6 JUMPI DUP6 DUP6 DUP3 DUP2 DUP2 LT PUSH2 0x1024 JUMPI PUSH2 0x1024 PUSH2 0x23E0 JUMP JUMPDEST PUSH2 0x103A SWAP3 PUSH1 0x20 PUSH1 0x40 SWAP1 SWAP3 MUL ADD SWAP1 DUP2 ADD SWAP2 POP PUSH2 0x2307 JUMP JUMPDEST PUSH1 0x1 PUSH1 0x1 PUSH1 0xA0 SHL SUB AND PUSH4 0x23B872DD CALLER ADDRESS DUP10 DUP10 DUP7 DUP2 DUP2 LT PUSH2 0x105C JUMPI PUSH2 0x105C PUSH2 0x23E0 JUMP JUMPDEST SWAP1 POP PUSH1 0x40 MUL ADD PUSH1 0x20 ADD CALLDATALOAD PUSH1 0x40 MLOAD DUP5 PUSH4 0xFFFFFFFF AND PUSH1 0xE0 SHL DUP2 MSTORE PUSH1 0x4 ADD PUSH2 0x1084 SWAP4 SWAP3 SWAP2 SWAP1 PUSH2 0x242A JUMP JUMPDEST PUSH1 0x20 PUSH1 0x40 MLOAD DUP1 DUP4 SUB DUP2 PUSH0 DUP8 GAS CALL ISZERO DUP1 ISZERO PUSH2 0x10A0 JUMPI RETURNDATASIZE PUSH0 DUP1 RETURNDATACOPY RETURNDATASIZE PUSH0 REVERT JUMPDEST POP POP POP POP PUSH1 0x40 MLOAD RETURNDATASIZE PUSH1 0x1F NOT PUSH1 0x1F DUP3 ADD AND DUP3 ADD DUP1 PUSH1 0x40 MSTORE POP DUP2 ADD SWAP1 PUSH2 0x10C4 SWAP2 SWAP1 PUSH2 0x240B JUMP JUMPDEST POP JUMPDEST PUSH1 0x1 ADD PUSH2 0xFE7 JUMP JUMPDEST POP PUSH0 JUMPDEST DUP3 DUP2 LT ISZERO PUSH2 0x1184 JUMPI DUP4 DUP4 DUP3 DUP2 DUP2 LT PUSH2 0x10EB JUMPI PUSH2 0x10EB PUSH2 0x23E0 JUMP JUMPDEST PUSH2 0x1101 SWAP3 PUSH1 0x20 PUSH1 0x60 SWAP1 SWAP3 MUL ADD SWAP1 DUP2 ADD SWAP2 POP PUSH2 0x2307 JUMP JUMPDEST PUSH1 0x1 PUSH1 0x1 PUSH1 0xA0 SHL SUB AND PUSH4 0x23B872DD CALLER ADDRESS DUP8 DUP8 DUP7 DUP2 DUP2 LT PUSH2 0x1123 JUMPI PUSH2 0x1123 PUSH2 0x23E0 JUMP JUMPDEST SWAP1 POP PUSH1 0x60 MUL ADD PUSH1 0x20 ADD CALLDATALOAD PUSH1 0x40 MLOAD DUP5 PUSH4 0xFFFFFFFF AND PUSH1 0xE0 SHL DUP2 MSTORE PUSH1 0x4 ADD PUSH2 0x114B SWAP4 SWAP3 SWAP2 SWAP1 PUSH2 0x242A JUMP JUMPDEST PUSH0 PUSH1 0x40 MLOAD DUP1 DUP4 SUB DUP2 PUSH0 DUP8 DUP1 EXTCODESIZE ISZERO DUP1 ISZERO PUSH2 0x1162 JUMPI PUSH0 DUP1 REVERT JUMPDEST POP GAS CALL ISZERO DUP1 ISZERO PUSH2 0x1174 JUMPI RETURNDATASIZE PUSH0 DUP1 RETURNDATACOPY RETURNDATASIZE PUSH0 REVERT JUMPDEST POP POP PUSH1 0x1 SWAP1 SWAP3 ADD SWAP2 POP PUSH2 0x10D1 SWAP1 POP JUMP JUMPDEST POP PUSH2 0x1193 DUP8 DUP8 DUP8 DUP8 DUP8 DUP8 PUSH2 0x1A68 JUMP JUMPDEST PUSH1 0x2 DUP1 SLOAD PUSH1 0xFF NOT AND PUSH1 0x1 OR SWAP1 SSTORE TIMESTAMP PUSH1 0x3 SSTORE PUSH0 DUP1 SLOAD PUSH1 0x40 MLOAD PUSH1 0x1 PUSH1 0x1 PUSH1 0xA0 SHL SUB SWAP1 SWAP2 AND SWAP2 PUSH32 0xBBF74FB4E3C300BF9F00E1603668149FD64853BFCD5F194270D2B043D9BDBC61 SWAP2 LOG2 POP POP POP POP POP POP POP JUMP JUMPDEST PUSH1 0x6 DUP2 DUP2 SLOAD DUP2 LT PUSH2 0x46B JUMPI PUSH0 DUP1 REVERT JUMPDEST PUSH0 DUP1 PUSH1 0x2 DUP1 SLOAD PUSH1 0xFF AND SWAP1 DUP2 GT ISZERO PUSH2 0x120A JUMPI PUSH2 0x120A PUSH2 0x1E51 JUMP JUMPDEST EQ PUSH2 0x1227 JUMPI PUSH1 0x40 MLOAD PUSH3 0x461BCD PUSH1 0xE5 SHL DUP2 MSTORE PUSH1 0x4 ADD PUSH2 0x4E2 SWAP1 PUSH2 0x2327 JUMP JUMPDEST CALLER PUSH1 0x1 PUSH1 0x1 PUSH1 0xA0 SHL SUB PUSH32 0x0 AND EQ PUSH2 0x129F JUMPI PUSH1 0x40 MLOAD PUSH3 0x461BCD PUSH1 0xE5 SHL DUP2 MSTORE PUSH1 0x20 PUSH1 0x4 DUP3 ADD MSTORE PUSH1 0x1F PUSH1 0x24 DUP3 ADD MSTORE PUSH32 0x57696C6C3A204E6F7420617574686F72697A656420627920666163746F727900 PUSH1 0x44 DUP3 ADD MSTORE PUSH1 0x64 ADD PUSH2 0x4E2 JUMP JUMPDEST PUSH2 0x1193 DUP8 DUP8 DUP8 DUP8 DUP8 DUP8 PUSH2 0x1A68 JUMP JUMPDEST PUSH2 0x130A PUSH1 0x40 MLOAD DUP1 PUSH2 0x140 ADD PUSH1 0x40 MSTORE DUP1 PUSH0 PUSH1 0x1 PUSH1 0x1 PUSH1 0xA0 SHL SUB AND DUP2 MSTORE PUSH1 0x20 ADD PUSH0 DUP2 MSTORE PUSH1 0x20 ADD PUSH0 DUP2 MSTORE PUSH1 0x20 ADD PUSH0 ISZERO ISZERO DUP2 MSTORE PUSH1 0x20 ADD PUSH0 ISZERO ISZERO DUP2 MSTORE PUSH1 0x20 ADD PUSH0 DUP2 MSTORE PUSH1 0x20 ADD PUSH1 0x60 DUP2 MSTORE PUSH1 0x20 ADD PUSH1 0x60 DUP2 MSTORE PUSH1 0x20 ADD PUSH1 0x60 DUP2 MSTORE PUSH1 0x20 ADD PUSH1 0x60 DUP2 MSTORE POP SWAP1 JUMP JUMPDEST PUSH1 0x6 SLOAD PUSH0 SWAP1 PUSH8 0xFFFFFFFFFFFFFFFF DUP2 GT ISZERO PUSH2 0x1327 JUMPI PUSH2 0x1327 PUSH2 0x1EA2 JUMP JUMPDEST PUSH1 0x40 MLOAD SWAP1 DUP1 DUP3 MSTORE DUP1 PUSH1 0x20 MUL PUSH1 0x20 ADD DUP3 ADD PUSH1 0x40 MSTORE DUP1 ISZERO PUSH2 0x136B JUMPI DUP2 PUSH1 0x20 ADD JUMPDEST PUSH1 0x40 DUP1 MLOAD DUP1 DUP3 ADD SWAP1 SWAP2 MSTORE PUSH0 DUP1 DUP3 MSTORE PUSH1 0x20 DUP3 ADD MSTORE DUP2 MSTORE PUSH1 0x20 ADD SWAP1 PUSH1 0x1 SWAP1 SUB SWAP1 DUP2 PUSH2 0x1345 JUMPI SWAP1 POP JUMPDEST POP SWAP1 POP PUSH0 JUMPDEST PUSH1 0x6 SLOAD DUP2 LT ISZERO PUSH2 0x143E JUMPI PUSH0 PUSH1 0x6 DUP3 DUP2 SLOAD DUP2 LT PUSH2 0x138E JUMPI PUSH2 0x138E PUSH2 0x23E0 JUMP JUMPDEST PUSH0 SWAP2 DUP3 MSTORE PUSH1 0x20 SWAP2 DUP3 SWAP1 KECCAK256 ADD SLOAD PUSH1 0x40 DUP1 MLOAD DUP1 DUP3 ADD DUP3 MSTORE PUSH1 0x1 PUSH1 0x1 PUSH1 0xA0 SHL SUB SWAP1 SWAP3 AND DUP1 DUP4 MSTORE SWAP1 MLOAD PUSH4 0x70A08231 PUSH1 0xE0 SHL DUP2 MSTORE ADDRESS PUSH1 0x4 DUP3 ADD MSTORE SWAP1 SWAP4 POP SWAP1 SWAP2 DUP3 ADD SWAP1 DUP4 SWAP1 PUSH4 0x70A08231 SWAP1 PUSH1 0x24 ADD PUSH1 0x20 PUSH1 0x40 MLOAD DUP1 DUP4 SUB DUP2 DUP7 GAS STATICCALL ISZERO DUP1 ISZERO PUSH2 0x13F1 JUMPI RETURNDATASIZE PUSH0 DUP1 RETURNDATACOPY RETURNDATASIZE PUSH0 REVERT JUMPDEST POP POP POP POP PUSH1 0x40 MLOAD RETURNDATASIZE PUSH1 0x1F NOT PUSH1 0x1F DUP3 ADD AND DUP3 ADD DUP1 PUSH1 0x40 MSTORE POP DUP2 ADD SWAP1 PUSH2 0x1415 SWAP2 SWAP1 PUSH2 0x23F4 JUMP JUMPDEST DUP2 MSTORE POP DUP4 DUP4 DUP2 MLOAD DUP2 LT PUSH2 0x142A JUMPI PUSH2 0x142A PUSH2 0x23E0 JUMP JUMPDEST PUSH1 0x20 SWAP1 DUP2 MUL SWAP2 SWAP1 SWAP2 ADD ADD MSTORE POP PUSH1 0x1 ADD PUSH2 0x1370 JUMP JUMPDEST POP PUSH1 0x7 SLOAD PUSH0 SWAP1 PUSH8 0xFFFFFFFFFFFFFFFF DUP2 GT ISZERO PUSH2 0x145C JUMPI PUSH2 0x145C PUSH2 0x1EA2 JUMP JUMPDEST PUSH1 0x40 MLOAD SWAP1 DUP1 DUP3 MSTORE DUP1 PUSH1 0x20 MUL PUSH1 0x20 ADD DUP3 ADD PUSH1 0x40 MSTORE DUP1 ISZERO PUSH2 0x14A5 JUMPI DUP2 PUSH1 0x20 ADD JUMPDEST PUSH1 0x40 DUP1 MLOAD PUSH1 0x60 DUP2 ADD DUP3 MSTORE PUSH0 DUP1 DUP3 MSTORE PUSH1 0x20 DUP1 DUP4 ADD DUP3 SWAP1 MSTORE SWAP3 DUP3 ADD MSTORE DUP3 MSTORE PUSH0 NOT SWAP1 SWAP3 ADD SWAP2 ADD DUP2 PUSH2 0x147A JUMPI SWAP1 POP JUMPDEST POP SWAP1 POP PUSH0 JUMPDEST PUSH1 0x7 SLOAD DUP2 LT ISZERO PUSH2 0x155A JUMPI PUSH0 PUSH1 0x7 DUP3 DUP2 SLOAD DUP2 LT PUSH2 0x14C8 JUMPI PUSH2 0x14C8 PUSH2 0x23E0 JUMP JUMPDEST PUSH0 SWAP2 DUP3 MSTORE PUSH1 0x20 SWAP2 DUP3 SWAP1 KECCAK256 PUSH1 0x40 DUP1 MLOAD PUSH1 0x60 DUP1 DUP3 ADD DUP4 MSTORE PUSH1 0x3 SWAP1 SWAP5 MUL SWAP1 SWAP3 ADD DUP1 SLOAD PUSH1 0x1 PUSH1 0x1 PUSH1 0xA0 SHL SUB SWAP1 DUP2 AND DUP5 MSTORE PUSH1 0x1 DUP3 ADD SLOAD DUP5 DUP8 ADD SWAP1 DUP2 MSTORE PUSH1 0x2 SWAP1 SWAP3 ADD SLOAD DUP2 AND DUP5 DUP5 ADD SWAP1 DUP2 MSTORE DUP4 MLOAD SWAP6 DUP7 ADD DUP5 MSTORE DUP5 MLOAD DUP3 AND DUP7 MSTORE SWAP2 MLOAD SWAP6 DUP6 ADD SWAP6 SWAP1 SWAP6 MSTORE MLOAD SWAP1 SWAP4 AND SWAP3 DUP3 ADD SWAP3 SWAP1 SWAP3 MSTORE DUP5 MLOAD SWAP2 SWAP3 POP SWAP1 DUP5 SWAP1 DUP5 SWAP1 DUP2 LT PUSH2 0x1546 JUMPI PUSH2 0x1546 PUSH2 0x23E0 JUMP JUMPDEST PUSH1 0x20 SWAP1 DUP2 MUL SWAP2 SWAP1 SWAP2 ADD ADD MSTORE POP PUSH1 0x1 ADD PUSH2 0x14AA JUMP JUMPDEST POP PUSH1 0x40 MLOAD DUP1 PUSH2 0x140 ADD PUSH1 0x40 MSTORE DUP1 PUSH2 0x1578 PUSH0 SLOAD PUSH1 0x1 PUSH1 0x1 PUSH1 0xA0 SHL SUB AND SWAP1 JUMP JUMPDEST PUSH1 0x1 PUSH1 0x1 PUSH1 0xA0 SHL SUB AND DUP2 MSTORE PUSH32 0x0 PUSH1 0x20 DUP3 ADD MSTORE PUSH1 0x3 SLOAD PUSH1 0x40 DUP3 ADD MSTORE PUSH1 0x60 ADD PUSH1 0x2 DUP1 DUP1 SLOAD PUSH1 0xFF AND SWAP1 DUP2 GT ISZERO PUSH2 0x15CC JUMPI PUSH2 0x15CC PUSH2 0x1E51 JUMP JUMPDEST EQ ISZERO ISZERO DUP2 MSTORE PUSH1 0x20 ADD PUSH32 0x0 ISZERO ISZERO DUP2 MSTORE PUSH1 0x20 ADD SELFBALANCE DUP2 MSTORE PUSH1 0x20 ADD PUSH1 0x4 DUP1 SLOAD DUP1 PUSH1 0x20 MUL PUSH1 0x20 ADD PUSH1 0x40 MLOAD SWAP1 DUP2 ADD PUSH1 0x40 MSTORE DUP1 SWAP3 SWAP2 SWAP1 DUP2 DUP2 MSTORE PUSH1 0x20 ADD DUP3 DUP1 SLOAD DUP1 ISZERO PUSH2 0x1656 JUMPI PUSH1 0x20 MUL DUP3 ADD SWAP2 SWAP1 PUSH0 MSTORE PUSH1 0x20 PUSH0 KECCAK256 SWAP1 JUMPDEST DUP2 SLOAD PUSH1 0x1 PUSH1 0x1 PUSH1 0xA0 SHL SUB AND DUP2 MSTORE PUSH1 0x1 SWAP1 SWAP2 ADD SWAP1 PUSH1 0x20 ADD DUP1 DUP4 GT PUSH2 0x1638 JUMPI JUMPDEST POP POP POP POP POP DUP2 MSTORE PUSH1 0x20 ADD PUSH1 0x5 DUP1 SLOAD DUP1 PUSH1 0x20 MUL PUSH1 0x20 ADD PUSH1 0x40 MLOAD SWAP1 DUP2 ADD PUSH1 0x40 MSTORE DUP1 SWAP3 SWAP2 SWAP1 DUP2 DUP2 MSTORE PUSH1 0x20 ADD DUP3 DUP1 SLOAD DUP1 ISZERO PUSH2 0x16AA JUMPI PUSH1 0x20 MUL DUP3 ADD SWAP2 SWAP1 PUSH0 MSTORE PUSH1 0x20 PUSH0 KECCAK256 SWAP1 JUMPDEST DUP2 SLOAD DUP2 MSTORE PUSH1 0x20 ADD SWAP1 PUSH1 0x1 ADD SWAP1 DUP1 DUP4 GT PUSH2 0x1696 JUMPI JUMPDEST POP POP POP POP POP DUP2 MSTORE PUSH1 0x20 ADD DUP4 DUP2 MSTORE PUSH1 0x20 ADD DUP3 DUP2 MSTORE POP SWAP3 POP POP POP SWAP1 JUMP JUMPDEST PUSH1 0x7 DUP2 DUP2 SLOAD DUP2 LT PUSH2 0x16D4 JUMPI PUSH0 DUP1 REVERT JUMPDEST PUSH0 SWAP2 DUP3 MSTORE PUSH1 0x20 SWAP1 SWAP2 KECCAK256 PUSH1 0x3 SWAP1 SWAP2 MUL ADD DUP1 SLOAD PUSH1 0x1 DUP3 ADD SLOAD PUSH1 0x2 SWAP1 SWAP3 ADD SLOAD PUSH1 0x1 PUSH1 0x1 PUSH1 0xA0 SHL SUB SWAP2 DUP3 AND SWAP4 POP AND DUP4 JUMP JUMPDEST PUSH2 0x1709 PUSH2 0x173E JUMP JUMPDEST PUSH1 0x1 PUSH1 0x1 PUSH1 0xA0 SHL SUB DUP2 AND PUSH2 0x1732 JUMPI PUSH1 0x40 MLOAD PUSH4 0x1E4FBDF7 PUSH1 0xE0 SHL DUP2 MSTORE PUSH0 PUSH1 0x4 DUP3 ADD MSTORE PUSH1 0x24 ADD PUSH2 0x4E2 JUMP JUMPDEST PUSH2 0x173B DUP2 PUSH2 0x1A19 JUMP JUMPDEST POP JUMP JUMPDEST PUSH0 SLOAD PUSH1 0x1 PUSH1 0x1 PUSH1 0xA0 SHL SUB AND CALLER EQ PUSH2 0xFA5 JUMPI PUSH1 0x40 MLOAD PUSH4 0x118CDAA7 PUSH1 0xE0 SHL DUP2 MSTORE CALLER PUSH1 0x4 DUP3 ADD MSTORE PUSH1 0x24 ADD PUSH2 0x4E2 JUMP JUMPDEST PUSH1 0x2 PUSH1 0x1 SLOAD SUB PUSH2 0xFA5 JUMPI PUSH1 0x40 MLOAD PUSH4 0x3EE5AEB5 PUSH1 0xE0 SHL DUP2 MSTORE PUSH1 0x4 ADD PUSH1 0x40 MLOAD DUP1 SWAP2 SUB SWAP1 REVERT JUMPDEST PUSH0 DUP1 SLOAD PUSH1 0x1 PUSH1 0x1 PUSH1 0xA0 SHL SUB AND SWAP1 JUMPDEST PUSH1 0x6 SLOAD DUP2 LT ISZERO PUSH2 0x18B1 JUMPI PUSH0 PUSH1 0x6 DUP3 DUP2 SLOAD DUP2 LT PUSH2 0x17B9 JUMPI PUSH2 0x17B9 PUSH2 0x23E0 JUMP JUMPDEST PUSH0 SWAP2 DUP3 MSTORE PUSH1 0x20 DUP3 KECCAK256 ADD SLOAD PUSH1 0x40 MLOAD PUSH4 0x70A08231 PUSH1 0xE0 SHL DUP2 MSTORE ADDRESS PUSH1 0x4 DUP3 ADD MSTORE PUSH1 0x1 PUSH1 0x1 PUSH1 0xA0 SHL SUB SWAP1 SWAP2 AND SWAP3 POP DUP3 SWAP1 PUSH4 0x70A08231 SWAP1 PUSH1 0x24 ADD PUSH1 0x20 PUSH1 0x40 MLOAD DUP1 DUP4 SUB DUP2 DUP7 GAS STATICCALL ISZERO DUP1 ISZERO PUSH2 0x1809 JUMPI RETURNDATASIZE PUSH0 DUP1 RETURNDATACOPY RETURNDATASIZE PUSH0 REVERT JUMPDEST POP POP POP POP PUSH1 0x40 MLOAD RETURNDATASIZE PUSH1 0x1F NOT PUSH1 0x1F DUP3 ADD AND DUP3 ADD DUP1 PUSH1 0x40 MSTORE POP DUP2 ADD SWAP1 PUSH2 0x182D SWAP2 SWAP1 PUSH2 0x23F4 JUMP JUMPDEST SWAP1 POP DUP1 ISZERO PUSH2 0x18A7 JUMPI PUSH1 0x40 MLOAD PUSH4 0xA9059CBB PUSH1 0xE0 SHL DUP2 MSTORE PUSH1 0x1 PUSH1 0x1 PUSH1 0xA0 SHL SUB DUP6 DUP2 AND PUSH1 0x4 DUP4 ADD MSTORE PUSH1 0x24 DUP3 ADD DUP4 SWAP1 MSTORE DUP4 AND SWAP1 PUSH4 0xA9059CBB SWAP1 PUSH1 0x44 ADD PUSH1 0x20 PUSH1 0x40 MLOAD DUP1 DUP4 SUB DUP2 PUSH0 DUP8 GAS CALL ISZERO DUP1 ISZERO PUSH2 0x1881 JUMPI RETURNDATASIZE PUSH0 DUP1 RETURNDATACOPY RETURNDATASIZE PUSH0 REVERT JUMPDEST POP POP POP POP PUSH1 0x40 MLOAD RETURNDATASIZE PUSH1 0x1F NOT PUSH1 0x1F DUP3 ADD AND DUP3 ADD DUP1 PUSH1 0x40 MSTORE POP DUP2 ADD SWAP1 PUSH2 0x18A5 SWAP2 SWAP1 PUSH2 0x240B JUMP JUMPDEST POP JUMPDEST POP POP PUSH1 0x1 ADD PUSH2 0x179B JUMP JUMPDEST POP PUSH0 JUMPDEST PUSH1 0x7 SLOAD DUP2 LT ISZERO PUSH2 0x1975 JUMPI PUSH0 PUSH1 0x7 DUP3 DUP2 SLOAD DUP2 LT PUSH2 0x18D2 JUMPI PUSH2 0x18D2 PUSH2 0x23E0 JUMP JUMPDEST PUSH0 SWAP2 DUP3 MSTORE PUSH1 0x20 SWAP2 DUP3 SWAP1 KECCAK256 PUSH1 0x40 DUP1 MLOAD PUSH1 0x60 DUP2 ADD DUP3 MSTORE PUSH1 0x3 SWAP1 SWAP4 MUL SWAP1 SWAP2 ADD DUP1 SLOAD PUSH1 0x1 PUSH1 0x1 PUSH1 0xA0 SHL SUB SWAP1 DUP2 AND DUP1 DUP6 MSTORE PUSH1 0x1 DUP4 ADD SLOAD SWAP6 DUP6 ADD DUP7 SWAP1 MSTORE PUSH1 0x2 SWAP1 SWAP3 ADD SLOAD AND DUP4 DUP4 ADD MSTORE SWAP1 MLOAD PUSH4 0x21421707 PUSH1 0xE1 SHL DUP2 MSTORE SWAP2 SWAP4 POP SWAP2 PUSH4 0x42842E0E SWAP2 PUSH2 0x193B SWAP2 ADDRESS SWAP2 DUP9 SWAP2 SWAP1 PUSH1 0x4 ADD PUSH2 0x242A JUMP JUMPDEST PUSH0 PUSH1 0x40 MLOAD DUP1 DUP4 SUB DUP2 PUSH0 DUP8 DUP1 EXTCODESIZE ISZERO DUP1 ISZERO PUSH2 0x1952 JUMPI PUSH0 DUP1 REVERT JUMPDEST POP GAS CALL ISZERO DUP1 ISZERO PUSH2 0x1964 JUMPI RETURNDATASIZE PUSH0 DUP1 RETURNDATACOPY RETURNDATASIZE PUSH0 REVERT JUMPDEST POP POP PUSH1 0x1 SWAP1 SWAP4 ADD SWAP3 POP PUSH2 0x18B4 SWAP2 POP POP JUMP JUMPDEST POP SELFBALANCE DUP1 ISZERO PUSH2 0x1A15 JUMPI PUSH0 DUP3 PUSH1 0x1 PUSH1 0x1 PUSH1 0xA0 SHL SUB AND DUP3 PUSH1 0x40 MLOAD PUSH0 PUSH1 0x40 MLOAD DUP1 DUP4 SUB DUP2 DUP6 DUP8 GAS CALL SWAP3 POP POP POP RETURNDATASIZE DUP1 PUSH0 DUP2 EQ PUSH2 0x19C6 JUMPI PUSH1 0x40 MLOAD SWAP2 POP PUSH1 0x1F NOT PUSH1 0x3F RETURNDATASIZE ADD AND DUP3 ADD PUSH1 0x40 MSTORE RETURNDATASIZE DUP3 MSTORE RETURNDATASIZE PUSH0 PUSH1 0x20 DUP5 ADD RETURNDATACOPY PUSH2 0x19CB JUMP JUMPDEST PUSH1 0x60 SWAP2 POP JUMPDEST POP POP SWAP1 POP DUP1 PUSH2 0x1A13 JUMPI PUSH1 0x40 MLOAD PUSH3 0x461BCD PUSH1 0xE5 SHL DUP2 MSTORE PUSH1 0x20 PUSH1 0x4 DUP3 ADD MSTORE PUSH1 0x14 PUSH1 0x24 DUP3 ADD MSTORE PUSH20 0x22AA24103A3930B739B332B9103330B4B632B217 PUSH1 0x61 SHL PUSH1 0x44 DUP3 ADD MSTORE PUSH1 0x64 ADD PUSH2 0x4E2 JUMP JUMPDEST POP JUMPDEST POP POP JUMP JUMPDEST PUSH0 DUP1 SLOAD PUSH1 0x1 PUSH1 0x1 PUSH1 0xA0 SHL SUB DUP4 DUP2 AND PUSH1 0x1 PUSH1 0x1 PUSH1 0xA0 SHL SUB NOT DUP4 AND DUP2 OR DUP5 SSTORE PUSH1 0x40 MLOAD SWAP2 SWAP1 SWAP3 AND SWAP3 DUP4 SWAP2 PUSH32 0x8BE0079C531659141344CD1FD0A4F28419497F9722A3DAAFE3B4186F6B6457E0 SWAP2 SWAP1 LOG3 POP POP JUMP JUMPDEST DUP5 MLOAD DUP7 MLOAD EQ PUSH2 0x1AB9 JUMPI PUSH1 0x40 MLOAD PUSH3 0x461BCD PUSH1 0xE5 SHL DUP2 MSTORE PUSH1 0x20 PUSH1 0x4 DUP3 ADD MSTORE PUSH1 0x1C PUSH1 0x24 DUP3 ADD MSTORE PUSH32 0x48656972732F646973747269627574696F6E73206D69736D6174636800000000 PUSH1 0x44 DUP3 ADD MSTORE PUSH1 0x64 ADD PUSH2 0x4E2 JUMP JUMPDEST DUP6 MLOAD ISZERO PUSH2 0x1B4E JUMPI PUSH0 DUP1 JUMPDEST DUP7 MLOAD DUP2 LT ISZERO PUSH2 0x1AFB JUMPI DUP7 DUP2 DUP2 MLOAD DUP2 LT PUSH2 0x1ADE JUMPI PUSH2 0x1ADE PUSH2 0x23E0 JUMP JUMPDEST PUSH1 0x20 MUL PUSH1 0x20 ADD ADD MLOAD DUP3 PUSH2 0x1AF1 SWAP2 SWAP1 PUSH2 0x237E JUMP JUMPDEST SWAP2 POP PUSH1 0x1 ADD PUSH2 0x1AC3 JUMP JUMPDEST POP DUP1 PUSH1 0x64 EQ PUSH2 0x1B4C JUMPI PUSH1 0x40 MLOAD PUSH3 0x461BCD PUSH1 0xE5 SHL DUP2 MSTORE PUSH1 0x20 PUSH1 0x4 DUP3 ADD MSTORE PUSH1 0x1C PUSH1 0x24 DUP3 ADD MSTORE PUSH32 0x446973747269627574696F6E206D7573742073756D20746F2031303000000000 PUSH1 0x44 DUP3 ADD MSTORE PUSH1 0x64 ADD PUSH2 0x4E2 JUMP JUMPDEST POP JUMPDEST DUP6 MLOAD PUSH2 0x1B61 SWAP1 PUSH1 0x4 SWAP1 PUSH1 0x20 DUP10 ADD SWAP1 PUSH2 0x1D50 JUMP JUMPDEST POP DUP5 MLOAD PUSH2 0x1B75 SWAP1 PUSH1 0x5 SWAP1 PUSH1 0x20 DUP9 ADD SWAP1 PUSH2 0x1DB3 JUMP JUMPDEST POP PUSH0 JUMPDEST DUP4 DUP2 LT ISZERO PUSH2 0x1BF5 JUMPI PUSH1 0x6 PUSH1 0x40 MLOAD DUP1 PUSH1 0x20 ADD PUSH1 0x40 MSTORE DUP1 DUP8 DUP8 DUP6 DUP2 DUP2 LT PUSH2 0x1B9F JUMPI PUSH2 0x1B9F PUSH2 0x23E0 JUMP JUMPDEST PUSH2 0x1BB5 SWAP3 PUSH1 0x20 PUSH1 0x40 SWAP1 SWAP3 MUL ADD SWAP1 DUP2 ADD SWAP2 POP PUSH2 0x2307 JUMP JUMPDEST PUSH1 0x1 PUSH1 0x1 PUSH1 0xA0 SHL SUB SWAP1 DUP2 AND SWAP1 SWAP2 MSTORE DUP3 SLOAD PUSH1 0x1 DUP1 DUP3 ADD DUP6 SSTORE PUSH0 SWAP5 DUP6 MSTORE PUSH1 0x20 SWAP1 SWAP5 KECCAK256 SWAP3 MLOAD SWAP3 ADD DUP1 SLOAD PUSH1 0x1 PUSH1 0x1 PUSH1 0xA0 SHL SUB NOT AND SWAP3 SWAP1 SWAP2 AND SWAP2 SWAP1 SWAP2 OR SWAP1 SSTORE ADD PUSH2 0x1B78 JUMP JUMPDEST POP PUSH0 JUMPDEST DUP2 DUP2 LT ISZERO PUSH2 0x1CF3 JUMPI PUSH1 0x7 PUSH1 0x40 MLOAD DUP1 PUSH1 0x60 ADD PUSH1 0x40 MSTORE DUP1 DUP6 DUP6 DUP6 DUP2 DUP2 LT PUSH2 0x1C1F JUMPI PUSH2 0x1C1F PUSH2 0x23E0 JUMP JUMPDEST PUSH2 0x1C35 SWAP3 PUSH1 0x20 PUSH1 0x60 SWAP1 SWAP3 MUL ADD SWAP1 DUP2 ADD SWAP2 POP PUSH2 0x2307 JUMP JUMPDEST PUSH1 0x1 PUSH1 0x1 PUSH1 0xA0 SHL SUB AND DUP2 MSTORE PUSH1 0x20 ADD DUP6 DUP6 DUP6 DUP2 DUP2 LT PUSH2 0x1C55 JUMPI PUSH2 0x1C55 PUSH2 0x23E0 JUMP JUMPDEST SWAP1 POP PUSH1 0x60 MUL ADD PUSH1 0x20 ADD CALLDATALOAD DUP2 MSTORE PUSH1 0x20 ADD DUP6 DUP6 DUP6 DUP2 DUP2 LT PUSH2 0x1C76 JUMPI PUSH2 0x1C76 PUSH2 0x23E0 JUMP JUMPDEST SWAP1 POP PUSH1 0x60 MUL ADD PUSH1 0x40 ADD PUSH1 0x20 DUP2 ADD SWAP1 PUSH2 0x1C8E SWAP2 SWAP1 PUSH2 0x2307 JUMP JUMPDEST PUSH1 0x1 PUSH1 0x1 PUSH1 0xA0 SHL SUB SWAP1 DUP2 AND SWAP1 SWAP2 MSTORE DUP3 SLOAD PUSH1 0x1 DUP2 DUP2 ADD DUP6 SSTORE PUSH0 SWAP5 DUP6 MSTORE PUSH1 0x20 SWAP5 DUP6 SWAP1 KECCAK256 DUP5 MLOAD PUSH1 0x3 SWAP1 SWAP4 MUL ADD DUP1 SLOAD SWAP3 DUP5 AND PUSH1 0x1 PUSH1 0x1 PUSH1 0xA0 SHL SUB NOT SWAP4 DUP5 AND OR DUP2 SSTORE SWAP5 DUP5 ADD MLOAD DUP6 DUP3 ADD SSTORE PUSH1 0x40 SWAP1 SWAP4 ADD MLOAD PUSH1 0x2 SWAP1 SWAP5 ADD DUP1 SLOAD SWAP5 SWAP1 SWAP3 AND SWAP4 AND SWAP3 SWAP1 SWAP3 OR SWAP1 SWAP2 SSTORE ADD PUSH2 0x1BF8 JUMP JUMPDEST POP POP POP POP POP POP POP JUMP JUMPDEST POP DUP1 SLOAD PUSH0 DUP3 SSTORE SWAP1 PUSH0 MSTORE PUSH1 0x20 PUSH0 KECCAK256 SWAP1 DUP2 ADD SWAP1 PUSH2 0x173B SWAP2 SWAP1 PUSH2 0x1DEC JUMP JUMPDEST POP DUP1 SLOAD PUSH0 DUP3 SSTORE SWAP1 PUSH0 MSTORE PUSH1 0x20 PUSH0 KECCAK256 SWAP1 DUP2 ADD SWAP1 PUSH2 0x173B SWAP2 SWAP1 PUSH2 0x1E00 JUMP JUMPDEST POP DUP1 SLOAD PUSH0 DUP3 SSTORE PUSH1 0x3 MUL SWAP1 PUSH0 MSTORE PUSH1 0x20 PUSH0 KECCAK256 SWAP1 DUP2 ADD SWAP1 PUSH2 0x173B SWAP2 SWAP1 PUSH2 0x1E1F JUMP JUMPDEST DUP3 DUP1 SLOAD DUP3 DUP3 SSTORE SWAP1 PUSH0 MSTORE PUSH1 0x20 PUSH0 KECCAK256 SWAP1 DUP2 ADD SWAP3 DUP3 ISZERO PUSH2 0x1DA3 JUMPI SWAP2 PUSH1 0x20 MUL DUP3 ADD JUMPDEST DUP3 DUP2 GT ISZERO PUSH2 0x1DA3 JUMPI DUP3 MLOAD DUP3 SLOAD PUSH1 0x1 PUSH1 0x1 PUSH1 0xA0 SHL SUB NOT AND PUSH1 0x1 PUSH1 0x1 PUSH1 0xA0 SHL SUB SWAP1 SWAP2 AND OR DUP3 SSTORE PUSH1 0x20 SWAP1 SWAP3 ADD SWAP2 PUSH1 0x1 SWAP1 SWAP2 ADD SWAP1 PUSH2 0x1D6E JUMP JUMPDEST POP PUSH2 0x1DAF SWAP3 SWAP2 POP PUSH2 0x1DEC JUMP JUMPDEST POP SWAP1 JUMP JUMPDEST DUP3 DUP1 SLOAD DUP3 DUP3 SSTORE SWAP1 PUSH0 MSTORE PUSH1 0x20 PUSH0 KECCAK256 SWAP1 DUP2 ADD SWAP3 DUP3 ISZERO PUSH2 0x1DA3 JUMPI SWAP2 PUSH1 0x20 MUL DUP3 ADD JUMPDEST DUP3 DUP2 GT ISZERO PUSH2 0x1DA3 JUMPI DUP3 MLOAD DUP3 SSTORE SWAP2 PUSH1 0x20 ADD SWAP2 SWAP1 PUSH1 0x1 ADD SWAP1 PUSH2 0x1DD1 JUMP JUMPDEST JUMPDEST DUP1 DUP3 GT ISZERO PUSH2 0x1DAF JUMPI PUSH0 DUP2 SSTORE PUSH1 0x1 ADD PUSH2 0x1DED JUMP JUMPDEST JUMPDEST DUP1 DUP3 GT ISZERO PUSH2 0x1DAF JUMPI DUP1 SLOAD PUSH1 0x1 PUSH1 0x1 PUSH1 0xA0 SHL SUB NOT AND DUP2 SSTORE PUSH1 0x1 ADD PUSH2 0x1E01 JUMP JUMPDEST JUMPDEST DUP1 DUP3 GT ISZERO PUSH2 0x1DAF JUMPI DUP1 SLOAD PUSH1 0x1 PUSH1 0x1 PUSH1 0xA0 SHL SUB NOT SWAP1 DUP2 AND DUP3 SSTORE PUSH0 PUSH1 0x1 DUP4 ADD SSTORE PUSH1 0x2 DUP3 ADD DUP1 SLOAD SWAP1 SWAP2 AND SWAP1 SSTORE PUSH1 0x3 ADD PUSH2 0x1E20 JUMP JUMPDEST PUSH4 0x4E487B71 PUSH1 0xE0 SHL PUSH0 MSTORE PUSH1 0x21 PUSH1 0x4 MSTORE PUSH1 0x24 PUSH0 REVERT JUMPDEST PUSH1 0x20 DUP2 ADD PUSH1 0x3 DUP4 LT PUSH2 0x1E85 JUMPI PUSH4 0x4E487B71 PUSH1 0xE0 SHL PUSH0 MSTORE PUSH1 0x21 PUSH1 0x4 MSTORE PUSH1 0x24 PUSH0 REVERT JUMPDEST SWAP2 SWAP1 MSTORE SWAP1 JUMP JUMPDEST PUSH0 PUSH1 0x20 DUP3 DUP5 SUB SLT ISZERO PUSH2 0x1E9B JUMPI PUSH0 DUP1 REVERT JUMPDEST POP CALLDATALOAD SWAP2 SWAP1 POP JUMP JUMPDEST PUSH4 0x4E487B71 PUSH1 0xE0 SHL PUSH0 MSTORE PUSH1 0x41 PUSH1 0x4 MSTORE PUSH1 0x24 PUSH0 REVERT JUMPDEST PUSH1 0x40 MLOAD PUSH1 0x1F DUP3 ADD PUSH1 0x1F NOT AND DUP2 ADD PUSH8 0xFFFFFFFFFFFFFFFF DUP2 GT DUP3 DUP3 LT OR ISZERO PUSH2 0x1EDF JUMPI PUSH2 0x1EDF PUSH2 0x1EA2 JUMP JUMPDEST PUSH1 0x40 MSTORE SWAP2 SWAP1 POP JUMP JUMPDEST PUSH0 PUSH8 0xFFFFFFFFFFFFFFFF DUP3 GT ISZERO PUSH2 0x1F00 JUMPI PUSH2 0x1F00 PUSH2 0x1EA2 JUMP JUMPDEST POP PUSH1 0x5 SHL PUSH1 0x20 ADD SWAP1 JUMP JUMPDEST DUP1 CALLDATALOAD PUSH1 0x1 PUSH1 0x1 PUSH1 0xA0 SHL SUB DUP2 AND DUP2 EQ PUSH2 0x1F20 JUMPI PUSH0 DUP1 REVERT JUMPDEST SWAP2 SWAP1 POP JUMP JUMPDEST PUSH0 DUP3 PUSH1 0x1F DUP4 ADD SLT PUSH2 0x1F34 JUMPI PUSH0 DUP1 REVERT JUMPDEST DUP2 CALLDATALOAD PUSH1 0x20 PUSH2 0x1F49 PUSH2 0x1F44 DUP4 PUSH2 0x1EE7 JUMP JUMPDEST PUSH2 0x1EB6 JUMP JUMPDEST DUP1 DUP4 DUP3 MSTORE PUSH1 0x20 DUP3 ADD SWAP2 POP PUSH1 0x20 DUP5 PUSH1 0x5 SHL DUP8 ADD ADD SWAP4 POP DUP7 DUP5 GT ISZERO PUSH2 0x1F6A JUMPI PUSH0 DUP1 REVERT JUMPDEST PUSH1 0x20 DUP7 ADD JUMPDEST DUP5 DUP2 LT ISZERO PUSH2 0x1F86 JUMPI DUP1 CALLDATALOAD DUP4 MSTORE SWAP2 DUP4 ADD SWAP2 DUP4 ADD PUSH2 0x1F6F JUMP JUMPDEST POP SWAP7 SWAP6 POP POP POP POP POP POP JUMP JUMPDEST PUSH0 DUP1 DUP4 PUSH1 0x1F DUP5 ADD SLT PUSH2 0x1FA1 JUMPI PUSH0 DUP1 REVERT JUMPDEST POP DUP2 CALLDATALOAD PUSH8 0xFFFFFFFFFFFFFFFF DUP2 GT ISZERO PUSH2 0x1FB8 JUMPI PUSH0 DUP1 REVERT JUMPDEST PUSH1 0x20 DUP4 ADD SWAP2 POP DUP4 PUSH1 0x20 DUP3 PUSH1 0x6 SHL DUP6 ADD ADD GT ISZERO PUSH2 0x1FD2 JUMPI PUSH0 DUP1 REVERT JUMPDEST SWAP3 POP SWAP3 SWAP1 POP JUMP JUMPDEST PUSH0 DUP1 DUP4 PUSH1 0x1F DUP5 ADD SLT PUSH2 0x1FE9 JUMPI PUSH0 DUP1 REVERT JUMPDEST POP DUP2 CALLDATALOAD PUSH8 0xFFFFFFFFFFFFFFFF DUP2 GT ISZERO PUSH2 0x2000 JUMPI PUSH0 DUP1 REVERT JUMPDEST PUSH1 0x20 DUP4 ADD SWAP2 POP DUP4 PUSH1 0x20 PUSH1 0x60 DUP4 MUL DUP6 ADD ADD GT ISZERO PUSH2 0x1FD2 JUMPI PUSH0 DUP1 REVERT JUMPDEST PUSH0 DUP1 PUSH0 DUP1 PUSH0 DUP1 PUSH1 0x80 DUP8 DUP10 SUB SLT ISZERO PUSH2 0x202F JUMPI PUSH0 DUP1 REVERT JUMPDEST DUP7 CALLDATALOAD PUSH8 0xFFFFFFFFFFFFFFFF DUP1 DUP3 GT ISZERO PUSH2 0x2046 JUMPI PUSH0 DUP1 REVERT JUMPDEST DUP2 DUP10 ADD SWAP2 POP DUP10 PUSH1 0x1F DUP4 ADD SLT PUSH2 0x2059 JUMPI PUSH0 DUP1 REVERT JUMPDEST DUP2 CALLDATALOAD PUSH1 0x20 PUSH2 0x2069 PUSH2 0x1F44 DUP4 PUSH2 0x1EE7 JUMP JUMPDEST DUP3 DUP2 MSTORE PUSH1 0x5 SWAP3 SWAP1 SWAP3 SHL DUP5 ADD DUP2 ADD SWAP2 DUP2 DUP2 ADD SWAP1 DUP14 DUP5 GT ISZERO PUSH2 0x2087 JUMPI PUSH0 DUP1 REVERT JUMPDEST SWAP5 DUP3 ADD SWAP5 JUMPDEST DUP4 DUP7 LT ISZERO PUSH2 0x20AC JUMPI PUSH2 0x209D DUP7 PUSH2 0x1F0A JUMP JUMPDEST DUP3 MSTORE SWAP5 DUP3 ADD SWAP5 SWAP1 DUP3 ADD SWAP1 PUSH2 0x208C JUMP JUMPDEST SWAP11 POP POP DUP11 ADD CALLDATALOAD SWAP3 POP POP DUP1 DUP3 GT ISZERO PUSH2 0x20C1 JUMPI PUSH0 DUP1 REVERT JUMPDEST PUSH2 0x20CD DUP11 DUP4 DUP12 ADD PUSH2 0x1F25 JUMP JUMPDEST SWAP7 POP PUSH1 0x40 DUP10 ADD CALLDATALOAD SWAP2 POP DUP1 DUP3 GT ISZERO PUSH2 0x20E2 JUMPI PUSH0 DUP1 REVERT JUMPDEST PUSH2 0x20EE DUP11 DUP4 DUP12 ADD PUSH2 0x1F91 JUMP JUMPDEST SWAP1 SWAP7 POP SWAP5 POP PUSH1 0x60 DUP10 ADD CALLDATALOAD SWAP2 POP DUP1 DUP3 GT ISZERO PUSH2 0x2106 JUMPI PUSH0 DUP1 REVERT JUMPDEST POP PUSH2 0x2113 DUP10 DUP3 DUP11 ADD PUSH2 0x1FD9 JUMP JUMPDEST SWAP8 SWAP11 SWAP7 SWAP10 POP SWAP5 SWAP8 POP SWAP3 SWAP6 SWAP4 SWAP5 SWAP3 POP POP POP JUMP JUMPDEST PUSH0 DUP2 MLOAD DUP1 DUP5 MSTORE PUSH1 0x20 DUP1 DUP6 ADD SWAP5 POP PUSH1 0x20 DUP5 ADD PUSH0 JUMPDEST DUP4 DUP2 LT ISZERO PUSH2 0x215D JUMPI DUP2 MLOAD PUSH1 0x1 PUSH1 0x1 PUSH1 0xA0 SHL SUB AND DUP8 MSTORE SWAP6 DUP3 ADD SWAP6 SWAP1 DUP3 ADD SWAP1 PUSH1 0x1 ADD PUSH2 0x2138 JUMP JUMPDEST POP SWAP5 SWAP6 SWAP5 POP POP POP POP POP JUMP JUMPDEST PUSH0 DUP2 MLOAD DUP1 DUP5 MSTORE PUSH1 0x20 DUP1 DUP6 ADD SWAP5 POP PUSH1 0x20 DUP5 ADD PUSH0 JUMPDEST DUP4 DUP2 LT ISZERO PUSH2 0x215D JUMPI DUP2 MLOAD DUP8 MSTORE SWAP6 DUP3 ADD SWAP6 SWAP1 DUP3 ADD SWAP1 PUSH1 0x1 ADD PUSH2 0x217B JUMP JUMPDEST PUSH0 DUP2 MLOAD DUP1 DUP5 MSTORE PUSH1 0x20 DUP1 DUP6 ADD SWAP5 POP PUSH1 0x20 DUP5 ADD PUSH0 JUMPDEST DUP4 DUP2 LT ISZERO PUSH2 0x215D JUMPI DUP2 MLOAD DUP1 MLOAD PUSH1 0x1 PUSH1 0x1 PUSH1 0xA0 SHL SUB AND DUP9 MSTORE DUP4 ADD MLOAD DUP4 DUP9 ADD MSTORE PUSH1 0x40 SWAP1 SWAP7 ADD SWAP6 SWAP1 DUP3 ADD SWAP1 PUSH1 0x1 ADD PUSH2 0x21AA JUMP JUMPDEST PUSH0 DUP2 MLOAD DUP1 DUP5 MSTORE PUSH1 0x20 DUP1 DUP6 ADD SWAP5 POP PUSH1 0x20 DUP5 ADD PUSH0 JUMPDEST DUP4 DUP2 LT ISZERO PUSH2 0x215D JUMPI DUP2 MLOAD DUP1 MLOAD PUSH1 0x1 PUSH1 0x1 PUSH1 0xA0 SHL SUB SWAP1 DUP2 AND DUP10 MSTORE DUP5 DUP3 ADD MLOAD DUP6 DUP11 ADD MSTORE PUSH1 0x40 SWAP2 DUP3 ADD MLOAD AND SWAP1 DUP9 ADD MSTORE PUSH1 0x60 SWAP1 SWAP7 ADD SWAP6 SWAP1 DUP3 ADD SWAP1 PUSH1 0x1 ADD PUSH2 0x21ED JUMP JUMPDEST PUSH1 0x20 DUP2 MSTORE PUSH2 0x2245 PUSH1 0x20 DUP3 ADD DUP4 MLOAD PUSH1 0x1 PUSH1 0x1 PUSH1 0xA0 SHL SUB AND SWAP1 MSTORE JUMP JUMPDEST PUSH1 0x20 DUP3 ADD MLOAD PUSH1 0x40 DUP3 ADD MSTORE PUSH1 0x40 DUP3 ADD MLOAD PUSH1 0x60 DUP3 ADD MSTORE PUSH0 PUSH1 0x60 DUP4 ADD MLOAD PUSH2 0x226D PUSH1 0x80 DUP5 ADD DUP3 ISZERO ISZERO SWAP1 MSTORE JUMP JUMPDEST POP PUSH1 0x80 DUP4 ADD MLOAD DUP1 ISZERO ISZERO PUSH1 0xA0 DUP5 ADD MSTORE POP PUSH1 0xA0 DUP4 ADD MLOAD PUSH1 0xC0 DUP4 ADD MSTORE PUSH1 0xC0 DUP4 ADD MLOAD PUSH2 0x140 DUP1 PUSH1 0xE0 DUP6 ADD MSTORE PUSH2 0x22A2 PUSH2 0x160 DUP6 ADD DUP4 PUSH2 0x2125 JUMP JUMPDEST SWAP2 POP PUSH1 0xE0 DUP6 ADD MLOAD PUSH1 0x1F NOT PUSH2 0x100 DUP2 DUP8 DUP7 SUB ADD DUP2 DUP9 ADD MSTORE PUSH2 0x22C2 DUP6 DUP5 PUSH2 0x2168 JUMP JUMPDEST SWAP5 POP DUP1 DUP9 ADD MLOAD SWAP3 POP POP PUSH2 0x120 DUP2 DUP8 DUP7 SUB ADD DUP2 DUP9 ADD MSTORE PUSH2 0x22E1 DUP6 DUP5 PUSH2 0x2197 JUMP JUMPDEST SWAP1 DUP9 ADD MLOAD DUP8 DUP3 SUB SWAP1 SWAP3 ADD DUP5 DUP9 ADD MSTORE SWAP4 POP SWAP1 POP PUSH2 0x22FD DUP4 DUP3 PUSH2 0x21DA JUMP JUMPDEST SWAP7 SWAP6 POP POP POP POP POP POP JUMP JUMPDEST PUSH0 PUSH1 0x20 DUP3 DUP5 SUB SLT ISZERO PUSH2 0x2317 JUMPI PUSH0 DUP1 REVERT JUMPDEST PUSH2 0x2320 DUP3 PUSH2 0x1F0A JUMP JUMPDEST SWAP4 SWAP3 POP POP POP JUMP JUMPDEST PUSH1 0x20 DUP1 DUP3 MSTORE PUSH1 0x23 SWAP1 DUP3 ADD MSTORE PUSH32 0x57696C6C3A20496E76616C696420737461746520666F72207468697320616374 PUSH1 0x40 DUP3 ADD MSTORE PUSH3 0x34B7B7 PUSH1 0xE9 SHL PUSH1 0x60 DUP3 ADD MSTORE PUSH1 0x80 ADD SWAP1 JUMP JUMPDEST PUSH4 0x4E487B71 PUSH1 0xE0 SHL PUSH0 MSTORE PUSH1 0x11 PUSH1 0x4 MSTORE PUSH1 0x24 PUSH0 REVERT JUMPDEST DUP1 DUP3 ADD DUP1 DUP3 GT ISZERO PUSH2 0x2391 JUMPI PUSH2 0x2391 PUSH2 0x236A JUMP JUMPDEST SWAP3 SWAP2 POP POP JUMP JUMPDEST DUP1 DUP3 MUL DUP2 ISZERO DUP3 DUP3 DIV DUP5 EQ OR PUSH2 0x2391 JUMPI PUSH2 0x2391 PUSH2 0x236A JUMP JUMPDEST PUSH0 DUP3 PUSH2 0x23C8 JUMPI PUSH4 0x4E487B71 PUSH1 0xE0 SHL PUSH0 MSTORE PUSH1 0x12 PUSH1 0x4 MSTORE PUSH1 0x24 PUSH0 REVERT JUMPDEST POP DIV SWAP1 JUMP JUMPDEST DUP2 DUP2 SUB DUP2 DUP2 GT ISZERO PUSH2 0x2391 JUMPI PUSH2 0x2391 PUSH2 0x236A JUMP JUMPDEST PUSH4 0x4E487B71 PUSH1 0xE0 SHL PUSH0 MSTORE PUSH1 0x32 PUSH1 0x4 MSTORE PUSH1 0x24 PUSH0 REVERT JUMPDEST PUSH0 PUSH1 0x20 DUP3 DUP5 SUB SLT ISZERO PUSH2 0x2404 JUMPI PUSH0 DUP1 REVERT JUMPDEST POP MLOAD SWAP2 SWAP1 POP JUMP JUMPDEST PUSH0 PUSH1 0x20 DUP3 DUP5 SUB SLT ISZERO PUSH2 0x241B JUMPI PUSH0 DUP1 REVERT JUMPDEST DUP2 MLOAD DUP1 ISZERO ISZERO DUP2 EQ PUSH2 0x2320 JUMPI PUSH0 DUP1 REVERT JUMPDEST PUSH1 0x1 PUSH1 0x1 PUSH1 0xA0 SHL SUB SWAP4 DUP5 AND DUP2 MSTORE SWAP2 SWAP1 SWAP3 AND PUSH1 0x20 DUP3 ADD MSTORE PUSH1 0x40 DUP2 ADD SWAP2 SWAP1 SWAP2 MSTORE PUSH1 0x60 ADD SWAP1 JUMP INVALID LOG2 PUSH5 0x6970667358 0x22 SLT KECCAK256 BLOCKHASH STATICCALL 0xC4 0x29 DUP12 0x29 PUSH28 0x88FE3F8E1CF73A29CC3B140B9172C7AB2BB92EF746969F35A264736F PUSH13 0x63430008180033000000000000 "
				},
				"gasEstimates": {
					"creation": {
						"codeDepositCost": "1869600",
						"executionCost": "infinite",
						"totalCost": "infinite"
					},
					"external": {
						"EXECUTION_FEE_BPS()": "284",
						"cancelAndWithdraw()": "infinite",
						"currentState()": "2374",
						"distributionPercentages(uint256)": "4640",
						"emptyWillForEdit()": "infinite",
						"erc20Assets(uint256)": "4634",
						"erc721Assets(uint256)": "9003",
						"execute()": "infinite",
						"executorAddress()": "infinite",
						"fundAndConfigure(address[],uint256[],(address,uint256)[],(address,uint256,address)[])": "infinite",
						"getWillDetails()": "infinite",
						"hasDiary()": "infinite",
						"heirs(uint256)": "4657",
						"initialize(address[],uint256[],(address,uint256)[],(address,uint256,address)[])": "infinite",
						"interval()": "infinite",
						"lastUpdate()": "2316",
						"owner()": "2462",
						"ping()": "27660",
						"renounceOwnership()": "infinite",
						"sourceContract()": "infinite",
						"terminationFee()": "infinite",
						"transferOwnership(address)": "28461"
					},
					"internal": {
						"_configure(address[] memory,uint256[] memory,struct Will.Erc20Distribution calldata[] calldata,struct Will.NftDistribution calldata[] calldata)": "infinite",
						"_returnAllAssets()": "infinite"
					}
				},
				"methodIdentifiers": {
					"EXECUTION_FEE_BPS()": "2395d975",
					"cancelAndWithdraw()": "6b892b22",
					"currentState()": "0c3f6acf",
					"distributionPercentages(uint256)": "1f99966a",
					"emptyWillForEdit()": "3027439c",
					"erc20Assets(uint256)": "9379f517",
					"erc721Assets(uint256)": "e15724a5",
					"execute()": "61461954",
					"executorAddress()": "a8e9a539",
					"fundAndConfigure(address[],uint256[],(address,uint256)[],(address,uint256,address)[])": "8bf58f79",
					"getWillDetails()": "cc4f9d5b",
					"hasDiary()": "eed35fea",
					"heirs(uint256)": "1c0795c3",
					"initialize(address[],uint256[],(address,uint256)[],(address,uint256,address)[])": "abe21b59",
					"interval()": "947a36fb",
					"lastUpdate()": "c0463711",
					"owner()": "8da5cb5b",
					"ping()": "5c36b186",
					"renounceOwnership()": "715018a6",
					"sourceContract()": "a444ae41",
					"terminationFee()": "c7c85baa",
					"transferOwnership(address)": "f2fde38b"
				}
			},
			"storageLayout": {
				"storage": [
					{
						"astId": 8,
						"contract": "Will.sol:Will",
						"label": "_owner",
						"offset": 0,
						"slot": "0",
						"type": "t_address"
					},
					{
						"astId": 398,
						"contract": "Will.sol:Will",
						"label": "_status",
						"offset": 0,
						"slot": "1",
						"type": "t_uint256"
					},
					{
						"astId": 510,
						"contract": "Will.sol:Will",
						"label": "currentState",
						"offset": 0,
						"slot": "2",
						"type": "t_enum(WillState)507"
					},
					{
						"astId": 518,
						"contract": "Will.sol:Will",
						"label": "lastUpdate",
						"offset": 0,
						"slot": "3",
						"type": "t_uint256"
					},
					{
						"astId": 531,
						"contract": "Will.sol:Will",
						"label": "heirs",
						"offset": 0,
						"slot": "4",
						"type": "t_array(t_address)dyn_storage"
					},
					{
						"astId": 534,
						"contract": "Will.sol:Will",
						"label": "distributionPercentages",
						"offset": 0,
						"slot": "5",
						"type": "t_array(t_uint256)dyn_storage"
					},
					{
						"astId": 538,
						"contract": "Will.sol:Will",
						"label": "erc20Assets",
						"offset": 0,
						"slot": "6",
						"type": "t_array(t_struct(Erc20Asset)483_storage)dyn_storage"
					},
					{
						"astId": 542,
						"contract": "Will.sol:Will",
						"label": "erc721Assets",
						"offset": 0,
						"slot": "7",
						"type": "t_array(t_struct(Erc721Asset)491_storage)dyn_storage"
					}
				],
				"types": {
					"t_address": {
						"encoding": "inplace",
						"label": "address",
						"numberOfBytes": "20"
					},
					"t_array(t_address)dyn_storage": {
						"base": "t_address",
						"encoding": "dynamic_array",
						"label": "address[]",
						"numberOfBytes": "32"
					},
					"t_array(t_struct(Erc20Asset)483_storage)dyn_storage": {
						"base": "t_struct(Erc20Asset)483_storage",
						"encoding": "dynamic_array",
						"label": "struct Will.Erc20Asset[]",
						"numberOfBytes": "32"
					},
					"t_array(t_struct(Erc721Asset)491_storage)dyn_storage": {
						"base": "t_struct(Erc721Asset)491_storage",
						"encoding": "dynamic_array",
						"label": "struct Will.Erc721Asset[]",
						"numberOfBytes": "32"
					},
					"t_array(t_uint256)dyn_storage": {
						"base": "t_uint256",
						"encoding": "dynamic_array",
						"label": "uint256[]",
						"numberOfBytes": "32"
					},
					"t_contract(IERC20)225": {
						"encoding": "inplace",
						"label": "contract IERC20",
						"numberOfBytes": "20"
					},
					"t_contract(IERC721)342": {
						"encoding": "inplace",
						"label": "contract IERC721",
						"numberOfBytes": "20"
					},
					"t_enum(WillState)507": {
						"encoding": "inplace",
						"label": "enum Will.WillState",
						"numberOfBytes": "1"
					},
					"t_struct(Erc20Asset)483_storage": {
						"encoding": "inplace",
						"label": "struct Will.Erc20Asset",
						"members": [
							{
								"astId": 482,
								"contract": "Will.sol:Will",
								"label": "token",
								"offset": 0,
								"slot": "0",
								"type": "t_contract(IERC20)225"
							}
						],
						"numberOfBytes": "32"
					},
					"t_struct(Erc721Asset)491_storage": {
						"encoding": "inplace",
						"label": "struct Will.Erc721Asset",
						"members": [
							{
								"astId": 486,
								"contract": "Will.sol:Will",
								"label": "token",
								"offset": 0,
								"slot": "0",
								"type": "t_contract(IERC721)342"
							},
							{
								"astId": 488,
								"contract": "Will.sol:Will",
								"label": "tokenId",
								"offset": 0,
								"slot": "1",
								"type": "t_uint256"
							},
							{
								"astId": 490,
								"contract": "Will.sol:Will",
								"label": "heir",
								"offset": 0,
								"slot": "2",
								"type": "t_address"
							}
						],
						"numberOfBytes": "96"
					},
					"t_uint256": {
						"encoding": "inplace",
						"label": "uint256",
						"numberOfBytes": "32"
					}
				}
			},
			"userdoc": {
				"kind": "user",
				"methods": {},
				"version": 1
			}
		}
	}
}