{
	"Will.sol": {
		"Will": {
			"abi": [
				{
					"inputs": [
						{
							"internalType": "address",
							"name": "initialOwner",
							"type": "address"
						},
						{
							"internalType": "uint256",
							"name": "_interval",
							"type": "uint256"
						},
						{
							"internalType": "address",
							"name": "_sourceContract",
							"type": "address"
						},
						{
							"internalType": "uint256",
							"name": "_terminationFee",
							"type": "uint256"
						},
						{
							"internalType": "bool",
							"name": "_hasDiary",
							"type": "bool"
						},
						{
							"internalType": "address",
							"name": "_executorAddress",
							"type": "address"
						}
					],
					"stateMutability": "payable",
					"type": "constructor"
				},
				{
					"inputs": [
						{
							"internalType": "address",
							"name": "owner",
							"type": "address"
						}
					],
					"name": "OwnableInvalidOwner",
					"type": "error"
				},
				{
					"inputs": [
						{
							"internalType": "address",
							"name": "account",
							"type": "address"
						}
					],
					"name": "OwnableUnauthorizedAccount",
					"type": "error"
				},
				{
					"inputs": [],
					"name": "ReentrancyGuardReentrantCall",
					"type": "error"
				},
				{
					"anonymous": false,
					"inputs": [
						{
							"indexed": false,
							"internalType": "uint256",
							"name": "feePaid",
							"type": "uint256"
						}
					],
					"name": "Cancelled",
					"type": "event"
				},
				{
					"anonymous": false,
					"inputs": [
						{
							"indexed": false,
							"internalType": "address",
							"name": "executor",
							"type": "address"
						},
						{
							"indexed": false,
							"internalType": "uint256",
							"name": "ethFee",
							"type": "uint256"
						},
						{
							"indexed": false,
							"internalType": "address",
							"name": "feeRecipient",
							"type": "address"
						}
					],
					"name": "Executed",
					"type": "event"
				},
				{
					"anonymous": false,
					"inputs": [
						{
							"indexed": true,
							"internalType": "address",
							"name": "previousOwner",
							"type": "address"
						},
						{
							"indexed": true,
							"internalType": "address",
							"name": "newOwner",
							"type": "address"
						}
					],
					"name": "OwnershipTransferred",
					"type": "event"
				},
				{
					"anonymous": false,
					"inputs": [
						{
							"indexed": false,
							"internalType": "uint256",
							"name": "newLastUpdate",
							"type": "uint256"
						}
					],
					"name": "Ping",
					"type": "event"
				},
				{
					"inputs": [],
					"name": "EXECUTION_FEE_BPS",
					"outputs": [
						{
							"internalType": "uint256",
							"name": "",
							"type": "uint256"
						}
					],
					"stateMutability": "view",
					"type": "function"
				},
				{
					"inputs": [],
					"name": "cancelAndWithdraw",
					"outputs": [],
					"stateMutability": "nonpayable",
					"type": "function"
				},
				{
					"inputs": [
						{
							"internalType": "uint256",
							"name": "",
							"type": "uint256"
						}
					],
					"name": "distributionPercentages",
					"outputs": [
						{
							"internalType": "uint256",
							"name": "",
							"type": "uint256"
						}
					],
					"stateMutability": "view",
					"type": "function"
				},
				{
					"inputs": [
						{
							"internalType": "uint256",
							"name": "",
							"type": "uint256"
						}
					],
					"name": "erc20Assets",
					"outputs": [
						{
							"internalType": "contract IERC20",
							"name": "token",
							"type": "address"
						}
					],
					"stateMutability": "view",
					"type": "function"
				},
				{
					"inputs": [
						{
							"internalType": "uint256",
							"name": "",
							"type": "uint256"
						}
					],
					"name": "erc721Assets",
					"outputs": [
						{
							"internalType": "contract IERC721",
							"name": "token",
							"type": "address"
						},
						{
							"internalType": "uint256",
							"name": "tokenId",
							"type": "uint256"
						},
						{
							"internalType": "address",
							"name": "heir",
							"type": "address"
						}
					],
					"stateMutability": "view",
					"type": "function"
				},
				{
					"inputs": [],
					"name": "execute",
					"outputs": [],
					"stateMutability": "nonpayable",
					"type": "function"
				},
				{
					"inputs": [],
					"name": "executed",
					"outputs": [
						{
							"internalType": "bool",
							"name": "",
							"type": "bool"
						}
					],
					"stateMutability": "view",
					"type": "function"
				},
				{
					"inputs": [],
					"name": "executorAddress",
					"outputs": [
						{
							"internalType": "address",
							"name": "",
							"type": "address"
						}
					],
					"stateMutability": "view",
					"type": "function"
				},
				{
					"inputs": [],
					"name": "getWillDetails",
					"outputs": [
						{
							"components": [
								{
									"internalType": "address",
									"name": "owner",
									"type": "address"
								},
								{
									"internalType": "uint256",
									"name": "interval",
									"type": "uint256"
								},
								{
									"internalType": "uint256",
									"name": "lastUpdate",
									"type": "uint256"
								},
								{
									"internalType": "bool",
									"name": "executed",
									"type": "bool"
								},
								{
									"internalType": "bool",
									"name": "hasDiary",
									"type": "bool"
								},
								{
									"internalType": "uint256",
									"name": "ethBalance",
									"type": "uint256"
								},
								{
									"internalType": "address[]",
									"name": "heirs",
									"type": "address[]"
								},
								{
									"internalType": "uint256[]",
									"name": "distributionPercentages",
									"type": "uint256[]"
								},
								{
									"components": [
										{
											"internalType": "address",
											"name": "tokenContract",
											"type": "address"
										},
										{
											"internalType": "uint256",
											"name": "balance",
											"type": "uint256"
										}
									],
									"internalType": "struct Erc20Detail[]",
									"name": "erc20Details",
									"type": "tuple[]"
								},
								{
									"components": [
										{
											"internalType": "address",
											"name": "tokenContract",
											"type": "address"
										},
										{
											"internalType": "uint256",
											"name": "tokenId",
											"type": "uint256"
										},
										{
											"internalType": "address",
											"name": "heir",
											"type": "address"
										}
									],
									"internalType": "struct Erc721Detail[]",
									"name": "erc721Details",
									"type": "tuple[]"
								}
							],
							"internalType": "struct WillDetails",
							"name": "",
							"type": "tuple"
						}
					],
					"stateMutability": "view",
					"type": "function"
				},
				{
					"inputs": [],
					"name": "hasDiary",
					"outputs": [
						{
							"internalType": "bool",
							"name": "",
							"type": "bool"
						}
					],
					"stateMutability": "view",
					"type": "function"
				},
				{
					"inputs": [
						{
							"internalType": "uint256",
							"name": "",
							"type": "uint256"
						}
					],
					"name": "heirs",
					"outputs": [
						{
							"internalType": "address",
							"name": "",
							"type": "address"
						}
					],
					"stateMutability": "view",
					"type": "function"
				},
				{
					"inputs": [
						{
							"internalType": "address[]",
							"name": "_heirs",
							"type": "address[]"
						},
						{
							"internalType": "uint256[]",
							"name": "_distro",
							"type": "uint256[]"
						},
						{
							"components": [
								{
									"internalType": "address",
									"name": "tokenContract",
									"type": "address"
								},
								{
									"internalType": "uint256",
									"name": "amount",
									"type": "uint256"
								}
							],
							"internalType": "struct Will.Erc20Distribution[]",
							"name": "_erc20s",
							"type": "tuple[]"
						},
						{
							"components": [
								{
									"internalType": "address",
									"name": "tokenContract",
									"type": "address"
								},
								{
									"internalType": "uint256",
									"name": "tokenId",
									"type": "uint256"
								},
								{
									"internalType": "address",
									"name": "heir",
									"type": "address"
								}
							],
							"internalType": "struct Will.NftDistribution[]",
							"name": "_nfts",
							"type": "tuple[]"
						}
					],
					"name": "initialize",
					"outputs": [],
					"stateMutability": "nonpayable",
					"type": "function"
				},
				{
					"inputs": [],
					"name": "interval",
					"outputs": [
						{
							"internalType": "uint256",
							"name": "",
							"type": "uint256"
						}
					],
					"stateMutability": "view",
					"type": "function"
				},
				{
					"inputs": [],
					"name": "lastUpdate",
					"outputs": [
						{
							"internalType": "uint256",
							"name": "",
							"type": "uint256"
						}
					],
					"stateMutability": "view",
					"type": "function"
				},
				{
					"inputs": [],
					"name": "owner",
					"outputs": [
						{
							"internalType": "address",
							"name": "",
							"type": "address"
						}
					],
					"stateMutability": "view",
					"type": "function"
				},
				{
					"inputs": [],
					"name": "ping",
					"outputs": [],
					"stateMutability": "nonpayable",
					"type": "function"
				},
				{
					"inputs": [],
					"name": "renounceOwnership",
					"outputs": [],
					"stateMutability": "nonpayable",
					"type": "function"
				},
				{
					"inputs": [],
					"name": "sourceContract",
					"outputs": [
						{
							"internalType": "address",
							"name": "",
							"type": "address"
						}
					],
					"stateMutability": "view",
					"type": "function"
				},
				{
					"inputs": [],
					"name": "terminationFee",
					"outputs": [
						{
							"internalType": "uint256",
							"name": "",
							"type": "uint256"
						}
					],
					"stateMutability": "view",
					"type": "function"
				},
				{
					"inputs": [
						{
							"internalType": "address",
							"name": "newOwner",
							"type": "address"
						}
					],
					"name": "transferOwnership",
					"outputs": [],
					"stateMutability": "nonpayable",
					"type": "function"
				}
			],
			"devdoc": {
				"errors": {
					"OwnableInvalidOwner(address)": [
						{
							"details": "The owner is not a valid owner account. (eg. `address(0)`)"
						}
					],
					"OwnableUnauthorizedAccount(address)": [
						{
							"details": "The caller account is not authorized to perform an operation."
						}
					]
				},
				"kind": "dev",
				"methods": {
					"owner()": {
						"details": "Returns the address of the current owner."
					},
					"renounceOwnership()": {
						"details": "Leaves the contract without owner. It will not be possible to call `onlyOwner` functions. Can only be called by the current owner. NOTE: Renouncing ownership will leave the contract without an owner, thereby disabling any functionality that is only available to the owner."
					},
					"transferOwnership(address)": {
						"details": "Transfers ownership of the contract to a new account (`newOwner`). Can only be called by the current owner."
					}
				},
				"title": "Will",
				"version": 1
			},
			"evm": {
				"assembly": "    /* \"Will.sol\":1486:10140  contract Will is Ownable, ReentrancyGuard {... */\n  mstore(0x40, 0x0120)\n    /* \"Will.sol\":3508:3945  constructor(... */\n  mload(0x40)\n  sub(codesize, bytecodeSize)\n  dup1\n  bytecodeSize\n  dup4\n  codecopy\n  dup2\n  add\n  0x40\n  dup2\n  swap1\n  mstore\n  tag_1\n  swap2\n  tag_2\n  jump\t// in\ntag_1:\n    /* \"Will.sol\":3730:3742  initialOwner */\n  dup6\n  sub(shl(0xa0, 0x01), 0x01)\n    /* \"@openzeppelin/contracts/access/Ownable.sol\":1273:1299  initialOwner == address(0) */\n  dup2\n  and\n    /* \"@openzeppelin/contracts/access/Ownable.sol\":1269:1364  if (initialOwner == address(0)) {... */\n  tag_7\n  jumpi\n    /* \"@openzeppelin/contracts/access/Ownable.sol\":1322:1353  OwnableInvalidOwner(address(0)) */\n  mload(0x40)\n  shl(0xe0, 0x1e4fbdf7)\n  dup2\n  mstore\n    /* \"@openzeppelin/contracts/access/Ownable.sol\":1350:1351  0 */\n  0x00\n    /* \"@openzeppelin/contracts/access/Ownable.sol\":1322:1353  OwnableInvalidOwner(address(0)) */\n  0x04\n  dup3\n  add\n    /* \"#utility.yul\":1004:1055   */\n  mstore\n    /* \"#utility.yul\":977:995   */\n  0x24\n  add\n    /* \"@openzeppelin/contracts/access/Ownable.sol\":1322:1353  OwnableInvalidOwner(address(0)) */\n  mload(0x40)\n  dup1\n  swap2\n  sub\n  swap1\n  revert\n    /* \"@openzeppelin/contracts/access/Ownable.sol\":1269:1364  if (initialOwner == address(0)) {... */\ntag_7:\n    /* \"@openzeppelin/contracts/access/Ownable.sol\":1373:1405  _transferOwnership(initialOwner) */\n  tag_10\n    /* \"@openzeppelin/contracts/access/Ownable.sol\":1392:1404  initialOwner */\n  dup2\n    /* \"@openzeppelin/contracts/access/Ownable.sol\":1373:1391  _transferOwnership */\n  tag_11\n    /* \"@openzeppelin/contracts/access/Ownable.sol\":1373:1405  _transferOwnership(initialOwner) */\n  jump\t// in\ntag_10:\n  pop\n    /* \"Will.sol\":361:362  1 */\n  0x01\n    /* \"Will.sol\":459:481  _status = _NOT_ENTERED */\n  dup1\n  sstore\n    /* \"Will.sol\":3755:3775  interval = _interval */\n  0x80\n  swap5\n  swap1\n  swap5\n  mstore\n  sub(shl(0xa0, 0x01), 0x01)\n    /* \"Will.sol\":3786:3818  sourceContract = _sourceContract */\n  swap3\n  dup4\n  and\n  0xa0\n  mstore\n    /* \"Will.sol\":3829:3861  terminationFee = _terminationFee */\n  0xc0\n  swap2\n  swap1\n  swap2\n  mstore\n    /* \"Will.sol\":3872:3892  hasDiary = _hasDiary */\n  iszero\n  iszero\n  0xe0\n  mstore\n    /* \"Will.sol\":3903:3937  executorAddress = _executorAddress */\n  and\n  0x0100\n  mstore\n  pop\n    /* \"Will.sol\":1486:10140  contract Will is Ownable, ReentrancyGuard {... */\n  jump(tag_17)\n    /* \"@openzeppelin/contracts/access/Ownable.sol\":2912:3099  function _transferOwnership(address newOwner) internal virtual {... */\ntag_11:\n    /* \"@openzeppelin/contracts/access/Ownable.sol\":2985:3001  address oldOwner */\n  0x00\n    /* \"@openzeppelin/contracts/access/Ownable.sol\":3004:3010  _owner */\n  dup1\n  sload\n  sub(shl(0xa0, 0x01), 0x01)\n    /* \"@openzeppelin/contracts/access/Ownable.sol\":3020:3037  _owner = newOwner */\n  dup4\n  dup2\n  and\n  not(sub(shl(0xa0, 0x01), 0x01))\n  dup4\n  and\n  dup2\n  or\n  dup5\n  sstore\n    /* \"@openzeppelin/contracts/access/Ownable.sol\":3052:3092  OwnershipTransferred(oldOwner, newOwner) */\n  mload(0x40)\n    /* \"@openzeppelin/contracts/access/Ownable.sol\":3004:3010  _owner */\n  swap2\n  swap1\n  swap3\n  and\n  swap3\n  dup4\n  swap2\n    /* \"@openzeppelin/contracts/access/Ownable.sol\":3052:3092  OwnershipTransferred(oldOwner, newOwner) */\n  0x8be0079c531659141344cd1fd0a4f28419497f9722a3daafe3b4186f6b6457e0\n  swap2\n    /* \"@openzeppelin/contracts/access/Ownable.sol\":2985:3001  address oldOwner */\n  swap1\n    /* \"@openzeppelin/contracts/access/Ownable.sol\":3052:3092  OwnershipTransferred(oldOwner, newOwner) */\n  log3\n    /* \"@openzeppelin/contracts/access/Ownable.sol\":2975:3099  {... */\n  pop\n    /* \"@openzeppelin/contracts/access/Ownable.sol\":2912:3099  function _transferOwnership(address newOwner) internal virtual {... */\n  pop\n  jump\t// out\n    /* \"#utility.yul\":14:191   */\ntag_16:\n    /* \"#utility.yul\":93:106   */\n  dup1\n  mload\n  sub(shl(0xa0, 0x01), 0x01)\n    /* \"#utility.yul\":135:166   */\n  dup2\n  and\n    /* \"#utility.yul\":125:167   */\n  dup2\n  eq\n    /* \"#utility.yul\":115:185   */\n  tag_19\n  jumpi\n    /* \"#utility.yul\":181:182   */\n  0x00\n    /* \"#utility.yul\":178:179   */\n  dup1\n    /* \"#utility.yul\":171:183   */\n  revert\n    /* \"#utility.yul\":115:185   */\ntag_19:\n    /* \"#utility.yul\":14:191   */\n  swap2\n  swap1\n  pop\n  jump\t// out\n    /* \"#utility.yul\":196:853   */\ntag_2:\n    /* \"#utility.yul\":308:314   */\n  0x00\n    /* \"#utility.yul\":316:322   */\n  dup1\n    /* \"#utility.yul\":324:330   */\n  0x00\n    /* \"#utility.yul\":332:338   */\n  dup1\n    /* \"#utility.yul\":340:346   */\n  0x00\n    /* \"#utility.yul\":348:354   */\n  dup1\n    /* \"#utility.yul\":401:404   */\n  0xc0\n    /* \"#utility.yul\":389:398   */\n  dup8\n    /* \"#utility.yul\":380:387   */\n  dup10\n    /* \"#utility.yul\":376:399   */\n  sub\n    /* \"#utility.yul\":372:405   */\n  slt\n    /* \"#utility.yul\":369:422   */\n  iszero\n  tag_21\n  jumpi\n    /* \"#utility.yul\":418:419   */\n  0x00\n    /* \"#utility.yul\":415:416   */\n  dup1\n    /* \"#utility.yul\":408:420   */\n  revert\n    /* \"#utility.yul\":369:422   */\ntag_21:\n    /* \"#utility.yul\":441:481   */\n  tag_22\n    /* \"#utility.yul\":471:480   */\n  dup8\n    /* \"#utility.yul\":441:481   */\n  tag_16\n  jump\t// in\ntag_22:\n    /* \"#utility.yul\":431:481   */\n  swap6\n  pop\n    /* \"#utility.yul\":521:523   */\n  0x20\n    /* \"#utility.yul\":510:519   */\n  dup8\n    /* \"#utility.yul\":506:524   */\n  add\n    /* \"#utility.yul\":500:525   */\n  mload\n    /* \"#utility.yul\":490:525   */\n  swap5\n  pop\n    /* \"#utility.yul\":544:593   */\n  tag_23\n    /* \"#utility.yul\":589:591   */\n  0x40\n    /* \"#utility.yul\":578:587   */\n  dup9\n    /* \"#utility.yul\":574:592   */\n  add\n    /* \"#utility.yul\":544:593   */\n  tag_16\n  jump\t// in\ntag_23:\n    /* \"#utility.yul\":534:593   */\n  swap4\n  pop\n    /* \"#utility.yul\":633:635   */\n  0x60\n    /* \"#utility.yul\":622:631   */\n  dup8\n    /* \"#utility.yul\":618:636   */\n  add\n    /* \"#utility.yul\":612:637   */\n  mload\n    /* \"#utility.yul\":602:637   */\n  swap3\n  pop\n    /* \"#utility.yul\":680:683   */\n  0x80\n    /* \"#utility.yul\":669:678   */\n  dup8\n    /* \"#utility.yul\":665:684   */\n  add\n    /* \"#utility.yul\":659:685   */\n  mload\n    /* \"#utility.yul\":728:733   */\n  dup1\n    /* \"#utility.yul\":721:734   */\n  iszero\n    /* \"#utility.yul\":714:735   */\n  iszero\n    /* \"#utility.yul\":707:712   */\n  dup2\n    /* \"#utility.yul\":704:736   */\n  eq\n    /* \"#utility.yul\":694:754   */\n  tag_24\n  jumpi\n    /* \"#utility.yul\":750:751   */\n  0x00\n    /* \"#utility.yul\":747:748   */\n  dup1\n    /* \"#utility.yul\":740:752   */\n  revert\n    /* \"#utility.yul\":694:754   */\ntag_24:\n    /* \"#utility.yul\":773:778   */\n  swap2\n  pop\n    /* \"#utility.yul\":797:847   */\n  tag_25\n    /* \"#utility.yul\":842:845   */\n  0xa0\n    /* \"#utility.yul\":827:846   */\n  dup9\n  add\n    /* \"#utility.yul\":797:847   */\n  tag_16\n  jump\t// in\ntag_25:\n    /* \"#utility.yul\":787:847   */\n  swap1\n  pop\n    /* \"#utility.yul\":196:853   */\n  swap3\n  swap6\n  pop\n  swap3\n  swap6\n  pop\n  swap3\n  swap6\n  jump\t// out\n    /* \"#utility.yul\":858:1061   */\ntag_17:\n    /* \"Will.sol\":1486:10140  contract Will is Ownable, ReentrancyGuard {... */\n  mload(0x80)\n  mload(0xa0)\n  mload(0xc0)\n  mload(0xe0)\n  mload(0x0100)\n  codecopy(0x00, dataOffset(sub_0), dataSize(sub_0))\n  0x00\n  assignImmutable(\"0x26253e4b9754d7b70fa53c504adf7cef3bf444a45077af864d39a1233fe15035\")\n  0x00\n  assignImmutable(\"0x89b941ac507936813383287e3bdf5ed02eb8ad2c46d6681eed1aed470bac2b05\")\n  0x00\n  assignImmutable(\"0x23191c4af8dc2a4aa44ffc7c4c9e4691c315520583859b69168aa9d748d0fff0\")\n  0x00\n  assignImmutable(\"0x810f1a571b970c259340236d5a1f662d74036291e3b89e8fd81c15e26f520968\")\n  0x00\n  assignImmutable(\"0xc1046e5cedf659668d6ea8caef915bd064d1f8813020432511627c810367b50c\")\n  return(0x00, dataSize(sub_0))\nstop\n\nsub_0: assembly {\n        /* \"Will.sol\":1486:10140  contract Will is Ownable, ReentrancyGuard {... */\n      mstore(0x40, 0x80)\n      callvalue\n      dup1\n      iszero\n      tag_1\n      jumpi\n      0x00\n      dup1\n      revert\n    tag_1:\n      pop\n      jumpi(tag_2, lt(calldatasize, 0x04))\n      shr(0xe0, calldataload(0x00))\n      dup1\n      0x947a36fb\n      gt\n      tag_23\n      jumpi\n      dup1\n      0xc7c85baa\n      gt\n      tag_24\n      jumpi\n      dup1\n      0xc7c85baa\n      eq\n      tag_18\n      jumpi\n      dup1\n      0xcc4f9d5b\n      eq\n      tag_19\n      jumpi\n      dup1\n      0xe15724a5\n      eq\n      tag_20\n      jumpi\n      dup1\n      0xeed35fea\n      eq\n      tag_21\n      jumpi\n      dup1\n      0xf2fde38b\n      eq\n      tag_22\n      jumpi\n      0x00\n      dup1\n      revert\n    tag_24:\n      dup1\n      0x947a36fb\n      eq\n      tag_13\n      jumpi\n      dup1\n      0xa444ae41\n      eq\n      tag_14\n      jumpi\n      dup1\n      0xa8e9a539\n      eq\n      tag_15\n      jumpi\n      dup1\n      0xabe21b59\n      eq\n      tag_16\n      jumpi\n      dup1\n      0xc0463711\n      eq\n      tag_17\n      jumpi\n      0x00\n      dup1\n      revert\n    tag_23:\n      dup1\n      0x61461954\n      gt\n      tag_25\n      jumpi\n      dup1\n      0x61461954\n      eq\n      tag_8\n      jumpi\n      dup1\n      0x6b892b22\n      eq\n      tag_9\n      jumpi\n      dup1\n      0x715018a6\n      eq\n      tag_10\n      jumpi\n      dup1\n      0x8da5cb5b\n      eq\n      tag_11\n      jumpi\n      dup1\n      0x9379f517\n      eq\n      tag_12\n      jumpi\n      0x00\n      dup1\n      revert\n    tag_25:\n      dup1\n      0x1c0795c3\n      eq\n      tag_3\n      jumpi\n      dup1\n      0x1f99966a\n      eq\n      tag_4\n      jumpi\n      dup1\n      0x2395d975\n      eq\n      tag_5\n      jumpi\n      dup1\n      0x31a38c89\n      eq\n      tag_6\n      jumpi\n      dup1\n      0x5c36b186\n      eq\n      tag_7\n      jumpi\n    tag_2:\n      0x00\n      dup1\n      revert\n        /* \"Will.sol\":2365:2387  address[] public heirs */\n    tag_3:\n      tag_26\n      tag_27\n      calldatasize\n      0x04\n      tag_28\n      jump\t// in\n    tag_27:\n      tag_29\n      jump\t// in\n    tag_26:\n      mload(0x40)\n      sub(shl(0xa0, 0x01), 0x01)\n        /* \"#utility.yul\":472:504   */\n      swap1\n      swap2\n      and\n        /* \"#utility.yul\":454:505   */\n      dup2\n      mstore\n        /* \"#utility.yul\":442:444   */\n      0x20\n        /* \"#utility.yul\":427:445   */\n      add\n        /* \"Will.sol\":2365:2387  address[] public heirs */\n    tag_30:\n      mload(0x40)\n      dup1\n      swap2\n      sub\n      swap1\n      return\n        /* \"Will.sol\":2394:2434  uint256[] public distributionPercentages */\n    tag_4:\n      tag_32\n      tag_33\n      calldatasize\n      0x04\n      tag_28\n      jump\t// in\n    tag_33:\n      tag_34\n      jump\t// in\n    tag_32:\n      mload(0x40)\n        /* \"#utility.yul\":662:687   */\n      swap1\n      dup2\n      mstore\n        /* \"#utility.yul\":650:652   */\n      0x20\n        /* \"#utility.yul\":635:653   */\n      add\n        /* \"Will.sol\":2394:2434  uint256[] public distributionPercentages */\n      tag_30\n        /* \"#utility.yul\":516:693   */\n      jump\n        /* \"Will.sol\":1971:2017  uint256 public constant EXECUTION_FEE_BPS = 50 */\n    tag_5:\n      tag_32\n        /* \"Will.sol\":2015:2017  50 */\n      0x32\n        /* \"Will.sol\":1971:2017  uint256 public constant EXECUTION_FEE_BPS = 50 */\n      dup2\n      jump\n        /* \"Will.sol\":2058:2078  bool public executed */\n    tag_6:\n      sload(0x02)\n      tag_40\n      swap1\n      0xff\n      and\n      dup2\n      jump\n    tag_40:\n      mload(0x40)\n        /* \"#utility.yul\":959:973   */\n      swap1\n      iszero\n        /* \"#utility.yul\":952:974   */\n      iszero\n        /* \"#utility.yul\":934:975   */\n      dup2\n      mstore\n        /* \"#utility.yul\":922:924   */\n      0x20\n        /* \"#utility.yul\":907:925   */\n      add\n        /* \"Will.sol\":2058:2078  bool public executed */\n      tag_30\n        /* \"#utility.yul\":794:981   */\n      jump\n        /* \"Will.sol\":5235:5359  function ping() external onlyOwnerWhenActive {... */\n    tag_7:\n      tag_44\n      tag_45\n      jump\t// in\n    tag_44:\n      stop\n        /* \"Will.sol\":6645:8806  function execute() external nonReentrant canExecute {... */\n    tag_8:\n      tag_44\n      tag_47\n      jump\t// in\n        /* \"Will.sol\":5365:6602  function cancelAndWithdraw() external onlyOwnerWhenActive nonReentrant {... */\n    tag_9:\n      tag_44\n      tag_49\n      jump\t// in\n        /* \"@openzeppelin/contracts/access/Ownable.sol\":2293:2394  function renounceOwnership() public virtual onlyOwner {... */\n    tag_10:\n      tag_44\n      tag_51\n      jump\t// in\n        /* \"@openzeppelin/contracts/access/Ownable.sol\":1638:1723  function owner() public view virtual returns (address) {... */\n    tag_11:\n        /* \"@openzeppelin/contracts/access/Ownable.sol\":1684:1691  address */\n      0x00\n        /* \"@openzeppelin/contracts/access/Ownable.sol\":1710:1716  _owner */\n      sload\n      sub(shl(0xa0, 0x01), 0x01)\n      and\n        /* \"@openzeppelin/contracts/access/Ownable.sol\":1638:1723  function owner() public view virtual returns (address) {... */\n      jump(tag_26)\n        /* \"Will.sol\":2441:2472  Erc20Asset[] public erc20Assets */\n    tag_12:\n      tag_26\n      tag_56\n      calldatasize\n      0x04\n      tag_28\n      jump\t// in\n    tag_56:\n      tag_57\n      jump\t// in\n        /* \"Will.sol\":2117:2150  uint256 public immutable interval */\n    tag_13:\n      tag_32\n      immutable(\"0xc1046e5cedf659668d6ea8caef915bd064d1f8813020432511627c810367b50c\")\n      dup2\n      jump\n        /* \"Will.sol\":2157:2196  address public immutable sourceContract */\n    tag_14:\n      tag_26\n      immutable(\"0x810f1a571b970c259340236d5a1f662d74036291e3b89e8fd81c15e26f520968\")\n      dup2\n      jump\n        /* \"Will.sol\":2286:2326  address public immutable executorAddress */\n    tag_15:\n      tag_26\n      immutable(\"0x26253e4b9754d7b70fa53c504adf7cef3bf444a45077af864d39a1233fe15035\")\n      dup2\n      jump\n        /* \"Will.sol\":4001:5195  function initialize(... */\n    tag_16:\n      tag_44\n      tag_70\n      calldatasize\n      0x04\n      tag_71\n      jump\t// in\n    tag_70:\n      tag_72\n      jump\t// in\n        /* \"Will.sol\":2085:2110  uint256 public lastUpdate */\n    tag_17:\n      tag_32\n      sload(0x03)\n      dup2\n      jump\n        /* \"Will.sol\":2203:2242  uint256 public immutable terminationFee */\n    tag_18:\n      tag_32\n      immutable(\"0x23191c4af8dc2a4aa44ffc7c4c9e4691c315520583859b69168aa9d748d0fff0\")\n      dup2\n      jump\n        /* \"Will.sol\":8849:10137  function getWillDetails() external view returns (WillDetails memory) {... */\n    tag_19:\n      tag_79\n      tag_80\n      jump\t// in\n    tag_79:\n      mload(0x40)\n      tag_30\n      swap2\n      swap1\n      tag_82\n      jump\t// in\n        /* \"Will.sol\":2479:2512  Erc721Asset[] public erc721Assets */\n    tag_20:\n      tag_83\n      tag_84\n      calldatasize\n      0x04\n      tag_28\n      jump\t// in\n    tag_84:\n      tag_85\n      jump\t// in\n    tag_83:\n      0x40\n      dup1\n      mload\n      sub(shl(0xa0, 0x01), 0x01)\n        /* \"#utility.yul\":10767:10782   */\n      swap5\n      dup6\n      and\n        /* \"#utility.yul\":10749:10783   */\n      dup2\n      mstore\n        /* \"#utility.yul\":10814:10816   */\n      0x20\n        /* \"#utility.yul\":10799:10817   */\n      dup2\n      add\n        /* \"#utility.yul\":10792:10826   */\n      swap4\n      swap1\n      swap4\n      mstore\n        /* \"#utility.yul\":10862:10877   */\n      swap3\n      and\n        /* \"#utility.yul\":10842:10860   */\n      swap2\n      dup2\n      add\n        /* \"#utility.yul\":10835:10878   */\n      swap2\n      swap1\n      swap2\n      mstore\n        /* \"#utility.yul\":10699:10701   */\n      0x60\n        /* \"#utility.yul\":10684:10702   */\n      add\n        /* \"Will.sol\":2479:2512  Erc721Asset[] public erc721Assets */\n      tag_30\n        /* \"#utility.yul\":10494:10884   */\n      jump\n        /* \"Will.sol\":2249:2279  bool public immutable hasDiary */\n    tag_21:\n      tag_40\n      immutable(\"0x89b941ac507936813383287e3bdf5ed02eb8ad2c46d6681eed1aed470bac2b05\")\n      dup2\n      jump\n        /* \"@openzeppelin/contracts/access/Ownable.sol\":2543:2758  function transferOwnership(address newOwner) public virtual onlyOwner {... */\n    tag_22:\n      tag_44\n      tag_92\n      calldatasize\n      0x04\n      tag_93\n      jump\t// in\n    tag_92:\n      tag_94\n      jump\t// in\n        /* \"Will.sol\":2365:2387  address[] public heirs */\n    tag_29:\n      0x04\n      dup2\n      dup2\n      sload\n      dup2\n      lt\n      tag_95\n      jumpi\n      0x00\n      dup1\n      revert\n    tag_95:\n      0x00\n      swap2\n      dup3\n      mstore\n      0x20\n      swap1\n      swap2\n      keccak256\n      add\n      sload\n      sub(shl(0xa0, 0x01), 0x01)\n      and\n      swap1\n      pop\n      dup2\n      jump\t// out\n        /* \"Will.sol\":2394:2434  uint256[] public distributionPercentages */\n    tag_34:\n      0x05\n      dup2\n      dup2\n      sload\n      dup2\n      lt\n      tag_97\n      jumpi\n      0x00\n      dup1\n      revert\n    tag_97:\n      0x00\n      swap2\n      dup3\n      mstore\n      0x20\n      swap1\n      swap2\n      keccak256\n      add\n      sload\n      swap1\n      pop\n      dup2\n      jump\t// out\n        /* \"Will.sol\":5235:5359  function ping() external onlyOwnerWhenActive {... */\n    tag_45:\n        /* \"Will.sol\":2811:2819  executed */\n      and(0xff, sload(0x02))\n        /* \"Will.sol\":2810:2819  !executed */\n      iszero\n        /* \"Will.sol\":2802:2860  require(!executed, \"Will has been executed or cancelled.\") */\n      tag_100\n      jumpi\n      mload(0x40)\n      shl(0xe5, 0x461bcd)\n      dup2\n      mstore\n      0x04\n      add\n      tag_101\n      swap1\n      tag_102\n      jump\t// in\n    tag_101:\n      mload(0x40)\n      dup1\n      swap2\n      sub\n      swap1\n      revert\n    tag_100:\n        /* \"Will.sol\":2890:2900  msg.sender */\n      caller\n        /* \"Will.sol\":2879:2886  owner() */\n      tag_103\n        /* \"@openzeppelin/contracts/access/Ownable.sol\":1684:1691  address */\n      0x00\n        /* \"@openzeppelin/contracts/access/Ownable.sol\":1710:1716  _owner */\n      sload\n      sub(shl(0xa0, 0x01), 0x01)\n      and\n      swap1\n        /* \"@openzeppelin/contracts/access/Ownable.sol\":1638:1723  function owner() public view virtual returns (address) {... */\n      jump\n        /* \"Will.sol\":2879:2886  owner() */\n    tag_103:\n      sub(shl(0xa0, 0x01), 0x01)\n        /* \"Will.sol\":2879:2900  owner() == msg.sender */\n      and\n      eq\n        /* \"Will.sol\":2871:2943  require(owner() == msg.sender, \"Only the owner can call this function.\") */\n      tag_104\n      jumpi\n      mload(0x40)\n      shl(0xe5, 0x461bcd)\n      dup2\n      mstore\n      0x04\n      add\n      tag_101\n      swap1\n      tag_106\n      jump\t// in\n    tag_104:\n        /* \"Will.sol\":5304:5319  block.timestamp */\n      timestamp\n        /* \"Will.sol\":5291:5301  lastUpdate */\n      0x03\n        /* \"Will.sol\":5291:5319  lastUpdate = block.timestamp */\n      dup2\n      swap1\n      sstore\n        /* \"Will.sol\":5335:5351  Ping(lastUpdate) */\n      mload(0x40)\n        /* \"#utility.yul\":662:687   */\n      swap1\n      dup2\n      mstore\n        /* \"Will.sol\":5335:5351  Ping(lastUpdate) */\n      0x48257dc961b6f792c2b78a080dacfed693b660960a702de21cee364e20270e2f\n      swap1\n        /* \"#utility.yul\":650:652   */\n      0x20\n        /* \"#utility.yul\":635:653   */\n      add\n        /* \"Will.sol\":5335:5351  Ping(lastUpdate) */\n      mload(0x40)\n      dup1\n      swap2\n      sub\n      swap1\n      log1\n        /* \"Will.sol\":5235:5359  function ping() external onlyOwnerWhenActive {... */\n      jump\t// out\n        /* \"Will.sol\":6645:8806  function execute() external nonReentrant canExecute {... */\n    tag_47:\n        /* \"Will.sol\":525:543  _preReentryCheck() */\n      tag_110\n        /* \"Will.sol\":525:541  _preReentryCheck */\n      tag_111\n        /* \"Will.sol\":525:543  _preReentryCheck() */\n      jump\t// in\n    tag_110:\n        /* \"Will.sol\":405:406  2 */\n      0x02\n        /* \"Will.sol\":554:561  _status */\n      0x01\n        /* \"Will.sol\":554:572  _status = _ENTERED */\n      dup2\n      swap1\n      sstore\n        /* \"Will.sol\":3011:3019  executed */\n      sload\n      0xff\n      and\n        /* \"Will.sol\":3010:3019  !executed */\n      iszero\n        /* \"Will.sol\":3002:3060  require(!executed, \"Will has been executed or cancelled.\") */\n      tag_113\n      jumpi\n      mload(0x40)\n      shl(0xe5, 0x461bcd)\n      dup2\n      mstore\n      0x04\n      add\n      tag_101\n      swap1\n      tag_102\n      jump\t// in\n    tag_113:\n        /* \"Will.sol\":3071:3093  uint256 gracePeriodEnd */\n      0x00\n        /* \"Will.sol\":3109:3117  interval */\n      immutable(\"0xc1046e5cedf659668d6ea8caef915bd064d1f8813020432511627c810367b50c\")\n        /* \"Will.sol\":3096:3106  lastUpdate */\n      sload(0x03)\n        /* \"Will.sol\":3096:3117  lastUpdate + interval */\n      tag_115\n      swap2\n      swap1\n      tag_116\n      jump\t// in\n    tag_115:\n        /* \"Will.sol\":3071:3117  uint256 gracePeriodEnd = lastUpdate + interval */\n      swap1\n      pop\n        /* \"Will.sol\":3155:3169  gracePeriodEnd */\n      dup1\n        /* \"Will.sol\":3136:3151  block.timestamp */\n      timestamp\n        /* \"Will.sol\":3136:3169  block.timestamp >= gracePeriodEnd */\n      lt\n      iszero\n        /* \"Will.sol\":3128:3201  require(block.timestamp >= gracePeriodEnd, \"Grace period has not ended.\") */\n      tag_117\n      jumpi\n      mload(0x40)\n      shl(0xe5, 0x461bcd)\n      dup2\n      mstore\n        /* \"#utility.yul\":12356:12358   */\n      0x20\n        /* \"Will.sol\":3128:3201  require(block.timestamp >= gracePeriodEnd, \"Grace period has not ended.\") */\n      0x04\n      dup3\n      add\n        /* \"#utility.yul\":12338:12359   */\n      mstore\n        /* \"#utility.yul\":12395:12397   */\n      0x1b\n        /* \"#utility.yul\":12375:12393   */\n      0x24\n      dup3\n      add\n        /* \"#utility.yul\":12368:12398   */\n      mstore\n        /* \"#utility.yul\":12434:12463   */\n      0x477261636520706572696f6420686173206e6f7420656e6465642e0000000000\n        /* \"#utility.yul\":12414:12432   */\n      0x44\n      dup3\n      add\n        /* \"#utility.yul\":12407:12464   */\n      mstore\n        /* \"#utility.yul\":12481:12499   */\n      0x64\n      add\n        /* \"Will.sol\":3128:3201  require(block.timestamp >= gracePeriodEnd, \"Grace period has not ended.\") */\n      tag_101\n        /* \"#utility.yul\":12154:12505   */\n      jump\n        /* \"Will.sol\":3128:3201  require(block.timestamp >= gracePeriodEnd, \"Grace period has not ended.\") */\n    tag_117:\n        /* \"Will.sol\":3212:3237  uint256 executorPeriodEnd */\n      0x00\n        /* \"Will.sol\":3240:3272  gracePeriodEnd + EXECUTOR_WINDOW */\n      tag_120\n        /* \"Will.sol\":1958:1964  1 days */\n      0x015180\n        /* \"Will.sol\":3240:3254  gracePeriodEnd */\n      dup4\n        /* \"Will.sol\":3240:3272  gracePeriodEnd + EXECUTOR_WINDOW */\n      tag_116\n      jump\t// in\n    tag_120:\n        /* \"Will.sol\":3212:3272  uint256 executorPeriodEnd = gracePeriodEnd + EXECUTOR_WINDOW */\n      swap1\n      pop\n        /* \"Will.sol\":3305:3322  executorPeriodEnd */\n      dup1\n        /* \"Will.sol\":3287:3302  block.timestamp */\n      timestamp\n        /* \"Will.sol\":3287:3322  block.timestamp < executorPeriodEnd */\n      lt\n        /* \"Will.sol\":3283:3440  if (block.timestamp < executorPeriodEnd) {... */\n      iszero\n      tag_122\n      jumpi\n        /* \"Will.sol\":3347:3357  msg.sender */\n      caller\n      sub(shl(0xa0, 0x01), 0x01)\n        /* \"Will.sol\":3361:3376  executorAddress */\n      immutable(\"0x26253e4b9754d7b70fa53c504adf7cef3bf444a45077af864d39a1233fe15035\")\n        /* \"Will.sol\":3347:3376  msg.sender == executorAddress */\n      and\n      eq\n        /* \"Will.sol\":3339:3428  require(msg.sender == executorAddress, \"Only the designated executor can call this now.\") */\n      tag_122\n      jumpi\n      mload(0x40)\n      shl(0xe5, 0x461bcd)\n      dup2\n      mstore\n        /* \"#utility.yul\":12712:12714   */\n      0x20\n        /* \"Will.sol\":3339:3428  require(msg.sender == executorAddress, \"Only the designated executor can call this now.\") */\n      0x04\n      dup3\n      add\n        /* \"#utility.yul\":12694:12715   */\n      mstore\n        /* \"#utility.yul\":12751:12753   */\n      0x2f\n        /* \"#utility.yul\":12731:12749   */\n      0x24\n      dup3\n      add\n        /* \"#utility.yul\":12724:12754   */\n      mstore\n        /* \"#utility.yul\":12790:12824   */\n      0x4f6e6c79207468652064657369676e61746564206578656375746f722063616e\n        /* \"#utility.yul\":12770:12788   */\n      0x44\n      dup3\n      add\n        /* \"#utility.yul\":12763:12825   */\n      mstore\n      shl(0x89, 0x1031b0b636103a3434b9903737bb97)\n        /* \"#utility.yul\":12841:12859   */\n      0x64\n      dup3\n      add\n        /* \"#utility.yul\":12834:12879   */\n      mstore\n        /* \"#utility.yul\":12896:12915   */\n      0x84\n      add\n        /* \"Will.sol\":3339:3428  require(msg.sender == executorAddress, \"Only the designated executor can call this now.\") */\n      tag_101\n        /* \"#utility.yul\":12510:12921   */\n      jump\n        /* \"Will.sol\":3339:3428  require(msg.sender == executorAddress, \"Only the designated executor can call this now.\") */\n    tag_122:\n        /* \"Will.sol\":6708:6716  executed */\n      0x02\n        /* \"Will.sol\":6708:6723  executed = true */\n      dup1\n      sload\n      not(0xff)\n      and\n        /* \"Will.sol\":6719:6723  true */\n      0x01\n        /* \"Will.sol\":6708:6723  executed = true */\n      or\n      swap1\n      sstore\n        /* \"Will.sol\":6761:6771  lastUpdate */\n      sload(0x03)\n        /* \"Will.sol\":6708:6716  executed */\n      0x00\n      swap1\n        /* \"Will.sol\":6761:6782  lastUpdate + interval */\n      tag_126\n      swap1\n        /* \"Will.sol\":6774:6782  interval */\n      immutable(\"0xc1046e5cedf659668d6ea8caef915bd064d1f8813020432511627c810367b50c\")\n      swap1\n        /* \"Will.sol\":6761:6782  lastUpdate + interval */\n      tag_116\n      jump\t// in\n    tag_126:\n        /* \"Will.sol\":6736:6782  uint256 gracePeriodEnd = lastUpdate + interval */\n      swap1\n      pop\n        /* \"Will.sol\":6793:6818  uint256 executorPeriodEnd */\n      0x00\n        /* \"Will.sol\":6821:6853  gracePeriodEnd + EXECUTOR_WINDOW */\n      tag_127\n        /* \"Will.sol\":1958:1964  1 days */\n      0x015180\n        /* \"Will.sol\":6736:6782  uint256 gracePeriodEnd = lastUpdate + interval */\n      dup4\n        /* \"Will.sol\":6821:6853  gracePeriodEnd + EXECUTOR_WINDOW */\n      tag_116\n      jump\t// in\n    tag_127:\n        /* \"Will.sol\":6793:6853  uint256 executorPeriodEnd = gracePeriodEnd + EXECUTOR_WINDOW */\n      swap1\n      pop\n        /* \"Will.sol\":6864:6884  address feeRecipient */\n      0x00\n        /* \"Will.sol\":6906:6923  executorPeriodEnd */\n      dup2\n        /* \"Will.sol\":6888:6903  block.timestamp */\n      timestamp\n        /* \"Will.sol\":6888:6923  block.timestamp < executorPeriodEnd */\n      lt\n        /* \"Will.sol\":6887:6954  (block.timestamp < executorPeriodEnd) ? sourceContract : msg.sender */\n      tag_128\n      jumpi\n        /* \"Will.sol\":6944:6954  msg.sender */\n      caller\n        /* \"Will.sol\":6887:6954  (block.timestamp < executorPeriodEnd) ? sourceContract : msg.sender */\n      jump(tag_129)\n    tag_128:\n        /* \"Will.sol\":6927:6941  sourceContract */\n      immutable(\"0x810f1a571b970c259340236d5a1f662d74036291e3b89e8fd81c15e26f520968\")\n        /* \"Will.sol\":6887:6954  (block.timestamp < executorPeriodEnd) ? sourceContract : msg.sender */\n    tag_129:\n        /* \"Will.sol\":6864:6954  address feeRecipient = (block.timestamp < executorPeriodEnd) ? sourceContract : msg.sender */\n      swap1\n      pop\n        /* \"Will.sol\":6975:6994  uint256 totalEthFee */\n      0x00\n        /* \"Will.sol\":7028:7049  address(this).balance */\n      selfbalance\n        /* \"Will.sol\":7064:7076  totalEth > 0 */\n      dup1\n      iszero\n        /* \"Will.sol\":7060:7810  if (totalEth > 0) {... */\n      tag_130\n      jumpi\n        /* \"Will.sol\":7093:7107  uint256 ethFee */\n      0x00\n        /* \"Will.sol\":7143:7148  10000 */\n      0x2710\n        /* \"Will.sol\":7111:7139  totalEth * EXECUTION_FEE_BPS */\n      tag_131\n        /* \"Will.sol\":2015:2017  50 */\n      0x32\n        /* \"Will.sol\":7111:7119  totalEth */\n      dup5\n        /* \"Will.sol\":7111:7139  totalEth * EXECUTION_FEE_BPS */\n      tag_132\n      jump\t// in\n    tag_131:\n        /* \"Will.sol\":7110:7148  (totalEth * EXECUTION_FEE_BPS) / 10000 */\n      tag_133\n      swap2\n      swap1\n      tag_134\n      jump\t// in\n    tag_133:\n        /* \"Will.sol\":7093:7148  uint256 ethFee = (totalEth * EXECUTION_FEE_BPS) / 10000 */\n      swap3\n      pop\n      dup3\n      swap1\n      pop\n        /* \"Will.sol\":7198:7222  uint256 distributableEth */\n      0x00\n        /* \"Will.sol\":7225:7242  totalEth - ethFee */\n      tag_135\n        /* \"Will.sol\":7093:7148  uint256 ethFee = (totalEth * EXECUTION_FEE_BPS) / 10000 */\n      dup3\n        /* \"Will.sol\":7225:7233  totalEth */\n      dup5\n        /* \"Will.sol\":7225:7242  totalEth - ethFee */\n      tag_136\n      jump\t// in\n    tag_135:\n        /* \"Will.sol\":7198:7242  uint256 distributableEth = totalEth - ethFee */\n      swap1\n      pop\n        /* \"Will.sol\":7261:7271  ethFee > 0 */\n      dup2\n      iszero\n        /* \"Will.sol\":7257:7435  if (ethFee > 0) {... */\n      tag_137\n      jumpi\n        /* \"Will.sol\":7293:7305  bool success */\n      0x00\n        /* \"Will.sol\":7319:7331  feeRecipient */\n      dup6\n      sub(shl(0xa0, 0x01), 0x01)\n        /* \"Will.sol\":7311:7337  payable(feeRecipient).call */\n      and\n        /* \"Will.sol\":7345:7351  ethFee */\n      dup4\n        /* \"Will.sol\":7311:7356  payable(feeRecipient).call{value: ethFee}(\"\") */\n      mload(0x40)\n      0x00\n      mload(0x40)\n      dup1\n      dup4\n      sub\n      dup2\n      dup6\n      dup8\n      gas\n      call\n      swap3\n      pop\n      pop\n      pop\n      returndatasize\n      dup1\n      0x00\n      dup2\n      eq\n      tag_142\n      jumpi\n      mload(0x40)\n      swap2\n      pop\n      and(add(returndatasize, 0x3f), not(0x1f))\n      dup3\n      add\n      0x40\n      mstore\n      returndatasize\n      dup3\n      mstore\n      returndatasize\n      0x00\n      0x20\n      dup5\n      add\n      returndatacopy\n      jump(tag_141)\n    tag_142:\n      0x60\n      swap2\n      pop\n    tag_141:\n      pop\n        /* \"Will.sol\":7292:7356  (bool success, ) = payable(feeRecipient).call{value: ethFee}(\"\") */\n      pop\n      swap1\n      pop\n        /* \"Will.sol\":7383:7390  success */\n      dup1\n        /* \"Will.sol\":7375:7419  require(success, \"ETH fee transfer failed.\") */\n      tag_143\n      jumpi\n      mload(0x40)\n      shl(0xe5, 0x461bcd)\n      dup2\n      mstore\n        /* \"#utility.yul\":13866:13868   */\n      0x20\n        /* \"Will.sol\":7375:7419  require(success, \"ETH fee transfer failed.\") */\n      0x04\n      dup3\n      add\n        /* \"#utility.yul\":13848:13869   */\n      mstore\n        /* \"#utility.yul\":13905:13907   */\n      0x18\n        /* \"#utility.yul\":13885:13903   */\n      0x24\n      dup3\n      add\n        /* \"#utility.yul\":13878:13908   */\n      mstore\n        /* \"#utility.yul\":13944:13970   */\n      0x45544820666565207472616e73666572206661696c65642e0000000000000000\n        /* \"#utility.yul\":13924:13942   */\n      0x44\n      dup3\n      add\n        /* \"#utility.yul\":13917:13971   */\n      mstore\n        /* \"#utility.yul\":13988:14006   */\n      0x64\n      add\n        /* \"Will.sol\":7375:7419  require(success, \"ETH fee transfer failed.\") */\n      tag_101\n        /* \"#utility.yul\":13664:14012   */\n      jump\n        /* \"Will.sol\":7375:7419  require(success, \"ETH fee transfer failed.\") */\n    tag_143:\n        /* \"Will.sol\":7273:7435  {... */\n      pop\n        /* \"Will.sol\":7257:7435  if (ethFee > 0) {... */\n    tag_137:\n        /* \"Will.sol\":7454:7460  uint i */\n      0x00\n        /* \"Will.sol\":7449:7799  for (uint i = 0; i < heirs.length; i++) {... */\n    tag_146:\n        /* \"Will.sol\":7470:7475  heirs */\n      0x04\n        /* \"Will.sol\":7470:7482  heirs.length */\n      sload\n        /* \"Will.sol\":7466:7482  i < heirs.length */\n      dup2\n      lt\n        /* \"Will.sol\":7449:7799  for (uint i = 0; i < heirs.length; i++) {... */\n      iszero\n      tag_147\n      jumpi\n        /* \"Will.sol\":7508:7521  uint256 share */\n      0x00\n        /* \"Will.sol\":7574:7577  100 */\n      0x64\n        /* \"Will.sol\":7544:7567  distributionPercentages */\n      0x05\n        /* \"Will.sol\":7568:7569  i */\n      dup4\n        /* \"Will.sol\":7544:7570  distributionPercentages[i] */\n      dup2\n      sload\n      dup2\n      lt\n      tag_150\n      jumpi\n      tag_150\n      tag_151\n      jump\t// in\n    tag_150:\n      swap1\n      0x00\n      mstore\n      keccak256(0x00, 0x20)\n      add\n      sload\n        /* \"Will.sol\":7525:7541  distributableEth */\n      dup5\n        /* \"Will.sol\":7525:7570  distributableEth * distributionPercentages[i] */\n      tag_153\n      swap2\n      swap1\n      tag_132\n      jump\t// in\n    tag_153:\n        /* \"Will.sol\":7524:7577  (distributableEth * distributionPercentages[i]) / 100 */\n      tag_154\n      swap2\n      swap1\n      tag_134\n      jump\t// in\n    tag_154:\n        /* \"Will.sol\":7508:7577  uint256 share = (distributableEth * distributionPercentages[i]) / 100 */\n      swap1\n      pop\n        /* \"Will.sol\":7600:7609  share > 0 */\n      dup1\n      iszero\n        /* \"Will.sol\":7596:7784  if (share > 0) {... */\n      tag_155\n      jumpi\n        /* \"Will.sol\":7635:7647  bool success */\n      0x00\n        /* \"Will.sol\":7661:7666  heirs */\n      0x04\n        /* \"Will.sol\":7667:7668  i */\n      dup4\n        /* \"Will.sol\":7661:7669  heirs[i] */\n      dup2\n      sload\n      dup2\n      lt\n      tag_157\n      jumpi\n      tag_157\n      tag_151\n      jump\t// in\n    tag_157:\n      0x00\n      swap2\n      dup3\n      mstore\n      0x20\n      dup3\n      keccak256\n      add\n      sload\n        /* \"Will.sol\":7653:7693  payable(heirs[i]).call{value: share}(\"\") */\n      mload(0x40)\n      sub(shl(0xa0, 0x01), 0x01)\n        /* \"Will.sol\":7661:7669  heirs[i] */\n      swap1\n      swap2\n      and\n      swap2\n        /* \"Will.sol\":7683:7688  share */\n      dup5\n      swap2\n        /* \"Will.sol\":7653:7693  payable(heirs[i]).call{value: share}(\"\") */\n      swap1\n      dup2\n        /* \"Will.sol\":7661:7669  heirs[i] */\n      dup2\n        /* \"Will.sol\":7653:7693  payable(heirs[i]).call{value: share}(\"\") */\n      dup2\n        /* \"Will.sol\":7683:7688  share */\n      dup6\n        /* \"Will.sol\":7661:7669  heirs[i] */\n      dup8\n        /* \"Will.sol\":7653:7693  payable(heirs[i]).call{value: share}(\"\") */\n      gas\n      call\n      swap3\n      pop\n      pop\n      pop\n      returndatasize\n      dup1\n      0x00\n      dup2\n      eq\n      tag_162\n      jumpi\n      mload(0x40)\n      swap2\n      pop\n      and(add(returndatasize, 0x3f), not(0x1f))\n      dup3\n      add\n      0x40\n      mstore\n      returndatasize\n      dup3\n      mstore\n      returndatasize\n      0x00\n      0x20\n      dup5\n      add\n      returndatacopy\n      jump(tag_161)\n    tag_162:\n      0x60\n      swap2\n      pop\n    tag_161:\n      pop\n        /* \"Will.sol\":7634:7693  (bool success, ) = payable(heirs[i]).call{value: share}(\"\") */\n      pop\n      swap1\n      pop\n        /* \"Will.sol\":7724:7731  success */\n      dup1\n        /* \"Will.sol\":7716:7764  require(success, \"ETH transfer to heir failed.\") */\n      tag_163\n      jumpi\n      mload(0x40)\n      shl(0xe5, 0x461bcd)\n      dup2\n      mstore\n        /* \"#utility.yul\":14351:14353   */\n      0x20\n        /* \"Will.sol\":7716:7764  require(success, \"ETH transfer to heir failed.\") */\n      0x04\n      dup3\n      add\n        /* \"#utility.yul\":14333:14354   */\n      mstore\n        /* \"#utility.yul\":14390:14392   */\n      0x1c\n        /* \"#utility.yul\":14370:14388   */\n      0x24\n      dup3\n      add\n        /* \"#utility.yul\":14363:14393   */\n      mstore\n        /* \"#utility.yul\":14429:14459   */\n      0x455448207472616e7366657220746f2068656972206661696c65642e00000000\n        /* \"#utility.yul\":14409:14427   */\n      0x44\n      dup3\n      add\n        /* \"#utility.yul\":14402:14460   */\n      mstore\n        /* \"#utility.yul\":14477:14495   */\n      0x64\n      add\n        /* \"Will.sol\":7716:7764  require(success, \"ETH transfer to heir failed.\") */\n      tag_101\n        /* \"#utility.yul\":14149:14501   */\n      jump\n        /* \"Will.sol\":7716:7764  require(success, \"ETH transfer to heir failed.\") */\n    tag_163:\n        /* \"Will.sol\":7611:7784  {... */\n      pop\n        /* \"Will.sol\":7596:7784  if (share > 0) {... */\n    tag_155:\n      pop\n        /* \"Will.sol\":7484:7487  i++ */\n      0x01\n      add\n        /* \"Will.sol\":7449:7799  for (uint i = 0; i < heirs.length; i++) {... */\n      jump(tag_146)\n    tag_147:\n      pop\n        /* \"Will.sol\":7078:7810  {... */\n      pop\n      pop\n        /* \"Will.sol\":7060:7810  if (totalEth > 0) {... */\n    tag_130:\n        /* \"Will.sol\":7827:7833  uint i */\n      0x00\n        /* \"Will.sol\":7822:8523  for (uint i = 0; i < erc20Assets.length; i++) {... */\n    tag_166:\n        /* \"Will.sol\":7843:7854  erc20Assets */\n      0x06\n        /* \"Will.sol\":7843:7861  erc20Assets.length */\n      sload\n        /* \"Will.sol\":7839:7861  i < erc20Assets.length */\n      dup2\n      lt\n        /* \"Will.sol\":7822:8523  for (uint i = 0; i < erc20Assets.length; i++) {... */\n      iszero\n      tag_167\n      jumpi\n        /* \"Will.sol\":7883:7895  IERC20 token */\n      0x00\n        /* \"Will.sol\":7898:7909  erc20Assets */\n      0x06\n        /* \"Will.sol\":7910:7911  i */\n      dup3\n        /* \"Will.sol\":7898:7912  erc20Assets[i] */\n      dup2\n      sload\n      dup2\n      lt\n      tag_170\n      jumpi\n      tag_170\n      tag_151\n      jump\t// in\n    tag_170:\n      0x00\n      swap2\n      dup3\n      mstore\n      0x20\n      dup3\n      keccak256\n      add\n        /* \"Will.sol\":7898:7918  erc20Assets[i].token */\n      sload\n        /* \"Will.sol\":7955:7985  token.balanceOf(address(this)) */\n      mload(0x40)\n      shl(0xe0, 0x70a08231)\n      dup2\n      mstore\n        /* \"Will.sol\":7979:7983  this */\n      address\n        /* \"Will.sol\":7955:7985  token.balanceOf(address(this)) */\n      0x04\n      dup3\n      add\n        /* \"#utility.yul\":454:505   */\n      mstore\n      sub(shl(0xa0, 0x01), 0x01)\n        /* \"Will.sol\":7898:7918  erc20Assets[i].token */\n      swap1\n      swap2\n      and\n      swap3\n      pop\n      dup3\n      swap1\n        /* \"Will.sol\":7955:7970  token.balanceOf */\n      0x70a08231\n      swap1\n        /* \"#utility.yul\":427:445   */\n      0x24\n      add\n        /* \"Will.sol\":7955:7985  token.balanceOf(address(this)) */\n      0x20\n      mload(0x40)\n      dup1\n      dup4\n      sub\n      dup2\n      dup7\n      gas\n      staticcall\n      iszero\n      dup1\n      iszero\n      tag_174\n      jumpi\n      returndatasize\n      0x00\n      dup1\n      returndatacopy\n      revert(0x00, returndatasize)\n    tag_174:\n      pop\n      pop\n      pop\n      pop\n      mload(0x40)\n      returndatasize\n      not(0x1f)\n      0x1f\n      dup3\n      add\n      and\n      dup3\n      add\n      dup1\n      0x40\n      mstore\n      pop\n      dup2\n      add\n      swap1\n      tag_175\n      swap2\n      swap1\n      tag_176\n      jump\t// in\n    tag_175:\n        /* \"Will.sol\":7933:7985  uint256 totalTokens = token.balanceOf(address(this)) */\n      swap1\n      pop\n        /* \"Will.sol\":8004:8019  totalTokens > 0 */\n      dup1\n      iszero\n        /* \"Will.sol\":8000:8512  if (totalTokens > 0) {... */\n      tag_177\n      jumpi\n        /* \"Will.sol\":8040:8056  uint256 tokenFee */\n      0x00\n        /* \"Will.sol\":8095:8100  10000 */\n      0x2710\n        /* \"Will.sol\":8060:8091  totalTokens * EXECUTION_FEE_BPS */\n      tag_178\n        /* \"Will.sol\":2015:2017  50 */\n      0x32\n        /* \"Will.sol\":8060:8071  totalTokens */\n      dup5\n        /* \"Will.sol\":8060:8091  totalTokens * EXECUTION_FEE_BPS */\n      tag_132\n      jump\t// in\n    tag_178:\n        /* \"Will.sol\":8059:8100  (totalTokens * EXECUTION_FEE_BPS) / 10000 */\n      tag_179\n      swap2\n      swap1\n      tag_134\n      jump\t// in\n    tag_179:\n        /* \"Will.sol\":8040:8100  uint256 tokenFee = (totalTokens * EXECUTION_FEE_BPS) / 10000 */\n      swap1\n      pop\n        /* \"Will.sol\":8119:8146  uint256 distributableTokens */\n      0x00\n        /* \"Will.sol\":8149:8171  totalTokens - tokenFee */\n      tag_180\n        /* \"Will.sol\":8040:8100  uint256 tokenFee = (totalTokens * EXECUTION_FEE_BPS) / 10000 */\n      dup3\n        /* \"Will.sol\":8149:8160  totalTokens */\n      dup5\n        /* \"Will.sol\":8149:8171  totalTokens - tokenFee */\n      tag_136\n      jump\t// in\n    tag_180:\n        /* \"Will.sol\":8119:8171  uint256 distributableTokens = totalTokens - tokenFee */\n      swap1\n      pop\n        /* \"Will.sol\":8194:8206  tokenFee > 0 */\n      dup2\n      iszero\n        /* \"Will.sol\":8190:8251  if (tokenFee > 0) { token.transfer(feeRecipient, tokenFee); } */\n      tag_181\n      jumpi\n        /* \"Will.sol\":8210:8248  token.transfer(feeRecipient, tokenFee) */\n      mload(0x40)\n      shl(0xe0, 0xa9059cbb)\n      dup2\n      mstore\n      sub(shl(0xa0, 0x01), 0x01)\n        /* \"#utility.yul\":14887:14919   */\n      dup10\n      dup2\n      and\n        /* \"Will.sol\":8210:8248  token.transfer(feeRecipient, tokenFee) */\n      0x04\n      dup4\n      add\n        /* \"#utility.yul\":14869:14920   */\n      mstore\n        /* \"#utility.yul\":14936:14954   */\n      0x24\n      dup3\n      add\n        /* \"#utility.yul\":14929:14963   */\n      dup5\n      swap1\n      mstore\n        /* \"Will.sol\":8210:8224  token.transfer */\n      dup6\n      and\n      swap1\n      0xa9059cbb\n      swap1\n        /* \"#utility.yul\":14842:14860   */\n      0x44\n      add\n        /* \"Will.sol\":8210:8248  token.transfer(feeRecipient, tokenFee) */\n      0x20\n      mload(0x40)\n      dup1\n      dup4\n      sub\n      dup2\n      0x00\n      dup8\n      gas\n      call\n      iszero\n      dup1\n      iszero\n      tag_185\n      jumpi\n      returndatasize\n      0x00\n      dup1\n      returndatacopy\n      revert(0x00, returndatasize)\n    tag_185:\n      pop\n      pop\n      pop\n      pop\n      mload(0x40)\n      returndatasize\n      not(0x1f)\n      0x1f\n      dup3\n      add\n      and\n      dup3\n      add\n      dup1\n      0x40\n      mstore\n      pop\n      dup2\n      add\n      swap1\n      tag_186\n      swap2\n      swap1\n      tag_187\n      jump\t// in\n    tag_186:\n      pop\n        /* \"Will.sol\":8190:8251  if (tokenFee > 0) { token.transfer(feeRecipient, tokenFee); } */\n    tag_181:\n        /* \"Will.sol\":8274:8280  uint j */\n      0x00\n        /* \"Will.sol\":8269:8497  for (uint j = 0; j < heirs.length; j++) {... */\n    tag_188:\n        /* \"Will.sol\":8290:8295  heirs */\n      0x04\n        /* \"Will.sol\":8290:8302  heirs.length */\n      sload\n        /* \"Will.sol\":8286:8302  j < heirs.length */\n      dup2\n      lt\n        /* \"Will.sol\":8269:8497  for (uint j = 0; j < heirs.length; j++) {... */\n      iszero\n      tag_189\n      jumpi\n        /* \"Will.sol\":8332:8345  uint256 share */\n      0x00\n        /* \"Will.sol\":8401:8404  100 */\n      0x64\n        /* \"Will.sol\":8371:8394  distributionPercentages */\n      0x05\n        /* \"Will.sol\":8395:8396  j */\n      dup4\n        /* \"Will.sol\":8371:8397  distributionPercentages[j] */\n      dup2\n      sload\n      dup2\n      lt\n      tag_192\n      jumpi\n      tag_192\n      tag_151\n      jump\t// in\n    tag_192:\n      swap1\n      0x00\n      mstore\n      keccak256(0x00, 0x20)\n      add\n      sload\n        /* \"Will.sol\":8349:8368  distributableTokens */\n      dup5\n        /* \"Will.sol\":8349:8397  distributableTokens * distributionPercentages[j] */\n      tag_194\n      swap2\n      swap1\n      tag_132\n      jump\t// in\n    tag_194:\n        /* \"Will.sol\":8348:8404  (distributableTokens * distributionPercentages[j]) / 100 */\n      tag_195\n      swap2\n      swap1\n      tag_134\n      jump\t// in\n    tag_195:\n        /* \"Will.sol\":8332:8404  uint256 share = (distributableTokens * distributionPercentages[j]) / 100 */\n      swap1\n      pop\n        /* \"Will.sol\":8431:8440  share > 0 */\n      dup1\n      iszero\n        /* \"Will.sol\":8427:8478  if (share > 0) { token.transfer(heirs[j], share); } */\n      tag_196\n      jumpi\n        /* \"Will.sol\":8444:8449  token */\n      dup6\n      sub(shl(0xa0, 0x01), 0x01)\n        /* \"Will.sol\":8444:8458  token.transfer */\n      and\n      0xa9059cbb\n        /* \"Will.sol\":8459:8464  heirs */\n      0x04\n        /* \"Will.sol\":8465:8466  j */\n      dup5\n        /* \"Will.sol\":8459:8467  heirs[j] */\n      dup2\n      sload\n      dup2\n      lt\n      tag_198\n      jumpi\n      tag_198\n      tag_151\n      jump\t// in\n    tag_198:\n      0x00\n      swap2\n      dup3\n      mstore\n      0x20\n      swap1\n      swap2\n      keccak256\n      add\n      sload\n        /* \"Will.sol\":8444:8475  token.transfer(heirs[j], share) */\n      mload(0x40)\n      0xe0\n      dup4\n      swap1\n      shl\n      not(sub(shl(0xe0, 0x01), 0x01))\n      and\n      dup2\n      mstore\n      sub(shl(0xa0, 0x01), 0x01)\n        /* \"Will.sol\":8459:8467  heirs[j] */\n      swap1\n      swap2\n      and\n        /* \"Will.sol\":8444:8475  token.transfer(heirs[j], share) */\n      0x04\n      dup3\n      add\n        /* \"#utility.yul\":14869:14920   */\n      mstore\n        /* \"#utility.yul\":14936:14954   */\n      0x24\n      dup2\n      add\n        /* \"#utility.yul\":14929:14963   */\n      dup5\n      swap1\n      mstore\n        /* \"#utility.yul\":14842:14860   */\n      0x44\n      add\n        /* \"Will.sol\":8444:8475  token.transfer(heirs[j], share) */\n      0x20\n      mload(0x40)\n      dup1\n      dup4\n      sub\n      dup2\n      0x00\n      dup8\n      gas\n      call\n      iszero\n      dup1\n      iszero\n      tag_202\n      jumpi\n      returndatasize\n      0x00\n      dup1\n      returndatacopy\n      revert(0x00, returndatasize)\n    tag_202:\n      pop\n      pop\n      pop\n      pop\n      mload(0x40)\n      returndatasize\n      not(0x1f)\n      0x1f\n      dup3\n      add\n      and\n      dup3\n      add\n      dup1\n      0x40\n      mstore\n      pop\n      dup2\n      add\n      swap1\n      tag_203\n      swap2\n      swap1\n      tag_187\n      jump\t// in\n    tag_203:\n      pop\n        /* \"Will.sol\":8427:8478  if (share > 0) { token.transfer(heirs[j], share); } */\n    tag_196:\n      pop\n        /* \"Will.sol\":8304:8307  j++ */\n      0x01\n      add\n        /* \"Will.sol\":8269:8497  for (uint j = 0; j < heirs.length; j++) {... */\n      jump(tag_188)\n    tag_189:\n      pop\n        /* \"Will.sol\":8021:8512  {... */\n      pop\n      pop\n        /* \"Will.sol\":8000:8512  if (totalTokens > 0) {... */\n    tag_177:\n      pop\n      pop\n        /* \"Will.sol\":7863:7866  i++ */\n      0x01\n      add\n        /* \"Will.sol\":7822:8523  for (uint i = 0; i < erc20Assets.length; i++) {... */\n      jump(tag_166)\n    tag_167:\n      pop\n        /* \"Will.sol\":8540:8546  uint i */\n      0x00\n        /* \"Will.sol\":8535:8736  for (uint i = 0; i < erc721Assets.length; i++) {... */\n    tag_204:\n        /* \"Will.sol\":8556:8568  erc721Assets */\n      0x07\n        /* \"Will.sol\":8556:8575  erc721Assets.length */\n      sload\n        /* \"Will.sol\":8552:8575  i < erc721Assets.length */\n      dup2\n      lt\n        /* \"Will.sol\":8535:8736  for (uint i = 0; i < erc721Assets.length; i++) {... */\n      iszero\n      tag_205\n      jumpi\n        /* \"Will.sol\":8597:8621  Erc721Asset memory asset */\n      0x00\n        /* \"Will.sol\":8624:8636  erc721Assets */\n      0x07\n        /* \"Will.sol\":8637:8638  i */\n      dup3\n        /* \"Will.sol\":8624:8639  erc721Assets[i] */\n      dup2\n      sload\n      dup2\n      lt\n      tag_208\n      jumpi\n      tag_208\n      tag_151\n      jump\t// in\n    tag_208:\n      0x00\n      swap2\n      dup3\n      mstore\n      0x20\n      swap2\n      dup3\n      swap1\n      keccak256\n        /* \"Will.sol\":8597:8639  Erc721Asset memory asset = erc721Assets[i] */\n      0x40\n      dup1\n      mload\n      0x60\n      dup2\n      add\n      dup3\n      mstore\n        /* \"Will.sol\":8624:8639  erc721Assets[i] */\n      0x03\n      swap4\n      swap1\n      swap4\n      mul\n      swap1\n      swap2\n      add\n        /* \"Will.sol\":8597:8639  Erc721Asset memory asset = erc721Assets[i] */\n      dup1\n      sload\n      sub(shl(0xa0, 0x01), 0x01)\n      swap1\n      dup2\n      and\n      dup1\n      dup6\n      mstore\n      0x01\n      dup4\n      add\n      sload\n      swap6\n      dup6\n      add\n      dup7\n      swap1\n      mstore\n      0x02\n      swap1\n      swap3\n      add\n      sload\n      and\n      dup4\n      dup4\n      add\n      dup2\n      swap1\n      mstore\n        /* \"Will.sol\":8654:8724  asset.token.safeTransferFrom(address(this), asset.heir, asset.tokenId) */\n      swap2\n      mload\n      shl(0xe1, 0x21421707)\n      dup2\n      mstore\n        /* \"Will.sol\":8691:8695  this */\n      address\n        /* \"Will.sol\":8654:8724  asset.token.safeTransferFrom(address(this), asset.heir, asset.tokenId) */\n      0x04\n      dup3\n      add\n        /* \"#utility.yul\":15496:15530   */\n      mstore\n        /* \"#utility.yul\":15546:15564   */\n      0x24\n      dup2\n      add\n        /* \"#utility.yul\":15539:15582   */\n      swap3\n      swap1\n      swap3\n      mstore\n        /* \"#utility.yul\":15598:15616   */\n      0x44\n      dup3\n      add\n        /* \"#utility.yul\":15591:15625   */\n      swap4\n      swap1\n      swap4\n      mstore\n        /* \"Will.sol\":8597:8639  Erc721Asset memory asset = erc721Assets[i] */\n      swap1\n      swap3\n      pop\n        /* \"Will.sol\":8654:8682  asset.token.safeTransferFrom */\n      0x42842e0e\n      swap1\n        /* \"#utility.yul\":15431:15449   */\n      0x64\n      add\n        /* \"Will.sol\":8654:8724  asset.token.safeTransferFrom(address(this), asset.heir, asset.tokenId) */\n      0x00\n      mload(0x40)\n      dup1\n      dup4\n      sub\n      dup2\n      0x00\n      dup8\n      dup1\n      extcodesize\n      iszero\n      dup1\n      iszero\n      tag_212\n      jumpi\n      0x00\n      dup1\n      revert\n    tag_212:\n      pop\n      gas\n      call\n      iszero\n      dup1\n      iszero\n      tag_214\n      jumpi\n      returndatasize\n      0x00\n      dup1\n      returndatacopy\n      revert(0x00, returndatasize)\n    tag_214:\n      pop\n      pop\n        /* \"Will.sol\":8577:8580  i++ */\n      0x01\n      swap1\n      swap4\n      add\n      swap3\n      pop\n        /* \"Will.sol\":8535:8736  for (uint i = 0; i < erc721Assets.length; i++) {... */\n      tag_204\n      swap2\n      pop\n      pop\n      jump\n    tag_205:\n      pop\n        /* \"Will.sol\":8751:8798  Executed(msg.sender, totalEthFee, feeRecipient) */\n      0x40\n      dup1\n      mload\n        /* \"Will.sol\":8760:8770  msg.sender */\n      caller\n        /* \"#utility.yul\":10749:10783   */\n      dup2\n      mstore\n        /* \"#utility.yul\":10814:10816   */\n      0x20\n        /* \"#utility.yul\":10799:10817   */\n      dup2\n      add\n        /* \"#utility.yul\":10792:10826   */\n      dup5\n      swap1\n      mstore\n      sub(shl(0xa0, 0x01), 0x01)\n        /* \"#utility.yul\":10862:10877   */\n      dup6\n      and\n        /* \"#utility.yul\":10842:10860   */\n      dup2\n      dup4\n      add\n        /* \"#utility.yul\":10835:10878   */\n      mstore\n        /* \"Will.sol\":8751:8798  Executed(msg.sender, totalEthFee, feeRecipient) */\n      swap1\n      mload\n      0x52ba16c8b985eff690a9de92094bd7486f89340e06e385ffb26de9c6eea384dc\n      swap2\n      dup2\n      swap1\n      sub\n        /* \"#utility.yul\":10699:10701   */\n      0x60\n        /* \"Will.sol\":8751:8798  Executed(msg.sender, totalEthFee, feeRecipient) */\n      add\n      swap1\n      log1\n      pop\n      pop\n        /* \"Will.sol\":361:362  1 */\n      0x01\n        /* \"Will.sol\":595:617  _status = _NOT_ENTERED */\n      dup1\n      sstore\n      pop\n      pop\n      pop\n      pop\n      pop\n        /* \"Will.sol\":6645:8806  function execute() external nonReentrant canExecute {... */\n      jump\t// out\n        /* \"Will.sol\":5365:6602  function cancelAndWithdraw() external onlyOwnerWhenActive nonReentrant {... */\n    tag_49:\n        /* \"Will.sol\":2811:2819  executed */\n      and(0xff, sload(0x02))\n        /* \"Will.sol\":2810:2819  !executed */\n      iszero\n        /* \"Will.sol\":2802:2860  require(!executed, \"Will has been executed or cancelled.\") */\n      tag_218\n      jumpi\n      mload(0x40)\n      shl(0xe5, 0x461bcd)\n      dup2\n      mstore\n      0x04\n      add\n      tag_101\n      swap1\n      tag_102\n      jump\t// in\n    tag_218:\n        /* \"Will.sol\":2890:2900  msg.sender */\n      caller\n        /* \"Will.sol\":2879:2886  owner() */\n      tag_220\n        /* \"@openzeppelin/contracts/access/Ownable.sol\":1684:1691  address */\n      0x00\n        /* \"@openzeppelin/contracts/access/Ownable.sol\":1710:1716  _owner */\n      sload\n      sub(shl(0xa0, 0x01), 0x01)\n      and\n      swap1\n        /* \"@openzeppelin/contracts/access/Ownable.sol\":1638:1723  function owner() public view virtual returns (address) {... */\n      jump\n        /* \"Will.sol\":2879:2886  owner() */\n    tag_220:\n      sub(shl(0xa0, 0x01), 0x01)\n        /* \"Will.sol\":2879:2900  owner() == msg.sender */\n      and\n      eq\n        /* \"Will.sol\":2871:2943  require(owner() == msg.sender, \"Only the owner can call this function.\") */\n      tag_221\n      jumpi\n      mload(0x40)\n      shl(0xe5, 0x461bcd)\n      dup2\n      mstore\n      0x04\n      add\n      tag_101\n      swap1\n      tag_106\n      jump\t// in\n    tag_221:\n        /* \"Will.sol\":525:543  _preReentryCheck() */\n      tag_224\n        /* \"Will.sol\":525:541  _preReentryCheck */\n      tag_111\n        /* \"Will.sol\":525:543  _preReentryCheck() */\n      jump\t// in\n    tag_224:\n        /* \"Will.sol\":405:406  2 */\n      0x02\n        /* \"Will.sol\":554:561  _status */\n      0x01\n        /* \"Will.sol\":554:572  _status = _ENTERED */\n      dup2\n      dup2\n      sstore\n        /* \"Will.sol\":5447:5462  executed = true */\n      dup2\n      sload\n      not(0xff)\n      and\n      or\n      swap1\n      sstore\n      0x00\n        /* \"@openzeppelin/contracts/access/Ownable.sol\":1710:1716  _owner */\n      sload\n      sub(shl(0xa0, 0x01), 0x01)\n      and\n        /* \"Will.sol\":5532:5546  terminationFee */\n      immutable(\"0x23191c4af8dc2a4aa44ffc7c4c9e4691c315520583859b69168aa9d748d0fff0\")\n        /* \"Will.sol\":5532:5550  terminationFee > 0 */\n      iszero\n        /* \"Will.sol\":5528:5815  if (terminationFee > 0) {... */\n      tag_227\n      jumpi\n        /* \"Will.sol\":5600:5614  terminationFee */\n      immutable(\"0x23191c4af8dc2a4aa44ffc7c4c9e4691c315520583859b69168aa9d748d0fff0\")\n        /* \"Will.sol\":5575:5596  address(this).balance */\n      selfbalance\n        /* \"Will.sol\":5575:5614  address(this).balance >= terminationFee */\n      lt\n      iszero\n        /* \"Will.sol\":5567:5656  require(address(this).balance >= terminationFee, \"Insufficient ETH for termination fee.\") */\n      tag_228\n      jumpi\n      mload(0x40)\n      shl(0xe5, 0x461bcd)\n      dup2\n      mstore\n        /* \"#utility.yul\":16218:16220   */\n      0x20\n        /* \"Will.sol\":5567:5656  require(address(this).balance >= terminationFee, \"Insufficient ETH for termination fee.\") */\n      0x04\n      dup3\n      add\n        /* \"#utility.yul\":16200:16221   */\n      mstore\n        /* \"#utility.yul\":16257:16259   */\n      0x25\n        /* \"#utility.yul\":16237:16255   */\n      0x24\n      dup3\n      add\n        /* \"#utility.yul\":16230:16260   */\n      mstore\n        /* \"#utility.yul\":16296:16330   */\n      0x496e73756666696369656e742045544820666f72207465726d696e6174696f6e\n        /* \"#utility.yul\":16276:16294   */\n      0x44\n      dup3\n      add\n        /* \"#utility.yul\":16269:16331   */\n      mstore\n      shl(0xd9, 0x103332b297)\n        /* \"#utility.yul\":16347:16365   */\n      0x64\n      dup3\n      add\n        /* \"#utility.yul\":16340:16375   */\n      mstore\n        /* \"#utility.yul\":16392:16411   */\n      0x84\n      add\n        /* \"Will.sol\":5567:5656  require(address(this).balance >= terminationFee, \"Insufficient ETH for termination fee.\") */\n      tag_101\n        /* \"#utility.yul\":16016:16417   */\n      jump\n        /* \"Will.sol\":5567:5656  require(address(this).balance >= terminationFee, \"Insufficient ETH for termination fee.\") */\n    tag_228:\n        /* \"Will.sol\":5672:5684  bool success */\n      0x00\n        /* \"Will.sol\":5690:5704  sourceContract */\n      immutable(\"0x810f1a571b970c259340236d5a1f662d74036291e3b89e8fd81c15e26f520968\")\n      sub(shl(0xa0, 0x01), 0x01)\n        /* \"Will.sol\":5690:5709  sourceContract.call */\n      and\n        /* \"Will.sol\":5717:5731  terminationFee */\n      immutable(\"0x23191c4af8dc2a4aa44ffc7c4c9e4691c315520583859b69168aa9d748d0fff0\")\n        /* \"Will.sol\":5690:5736  sourceContract.call{value: terminationFee}(\"\") */\n      mload(0x40)\n      0x00\n      mload(0x40)\n      dup1\n      dup4\n      sub\n      dup2\n      dup6\n      dup8\n      gas\n      call\n      swap3\n      pop\n      pop\n      pop\n      returndatasize\n      dup1\n      0x00\n      dup2\n      eq\n      tag_234\n      jumpi\n      mload(0x40)\n      swap2\n      pop\n      and(add(returndatasize, 0x3f), not(0x1f))\n      dup3\n      add\n      0x40\n      mstore\n      returndatasize\n      dup3\n      mstore\n      returndatasize\n      0x00\n      0x20\n      dup5\n      add\n      returndatacopy\n      jump(tag_233)\n    tag_234:\n      0x60\n      swap2\n      pop\n    tag_233:\n      pop\n        /* \"Will.sol\":5671:5736  (bool success, ) = sourceContract.call{value: terminationFee}(\"\") */\n      pop\n      swap1\n      pop\n        /* \"Will.sol\":5759:5766  success */\n      dup1\n        /* \"Will.sol\":5751:5803  require(success, \"Termination fee transfer failed.\") */\n      tag_235\n      jumpi\n      mload(0x40)\n      shl(0xe5, 0x461bcd)\n      dup2\n      mstore\n        /* \"#utility.yul\":16624:16626   */\n      0x20\n        /* \"Will.sol\":5751:5803  require(success, \"Termination fee transfer failed.\") */\n      0x04\n      dup3\n      add\n        /* \"#utility.yul\":16606:16627   */\n      dup2\n      swap1\n      mstore\n        /* \"#utility.yul\":16643:16661   */\n      0x24\n      dup3\n      add\n        /* \"#utility.yul\":16636:16666   */\n      mstore\n        /* \"#utility.yul\":16702:16736   */\n      0x5465726d696e6174696f6e20666565207472616e73666572206661696c65642e\n        /* \"#utility.yul\":16682:16700   */\n      0x44\n      dup3\n      add\n        /* \"#utility.yul\":16675:16737   */\n      mstore\n        /* \"#utility.yul\":16754:16772   */\n      0x64\n      add\n        /* \"Will.sol\":5751:5803  require(success, \"Termination fee transfer failed.\") */\n      tag_101\n        /* \"#utility.yul\":16422:16778   */\n      jump\n        /* \"Will.sol\":5751:5803  require(success, \"Termination fee transfer failed.\") */\n    tag_235:\n        /* \"Will.sol\":5552:5815  {... */\n      pop\n        /* \"Will.sol\":5528:5815  if (terminationFee > 0) {... */\n    tag_227:\n        /* \"Will.sol\":5825:5872  ISource(sourceContract).clearWillRecord(_owner) */\n      mload(0x40)\n      shl(0xe0, 0xa658dd6b)\n      dup2\n      mstore\n      sub(shl(0xa0, 0x01), 0x01)\n        /* \"#utility.yul\":472:504   */\n      dup3\n      dup2\n      and\n        /* \"Will.sol\":5825:5872  ISource(sourceContract).clearWillRecord(_owner) */\n      0x04\n      dup4\n      add\n        /* \"#utility.yul\":454:505   */\n      mstore\n        /* \"Will.sol\":5833:5847  sourceContract */\n      immutable(\"0x810f1a571b970c259340236d5a1f662d74036291e3b89e8fd81c15e26f520968\")\n        /* \"Will.sol\":5825:5864  ISource(sourceContract).clearWillRecord */\n      and\n      swap1\n      0xa658dd6b\n      swap1\n        /* \"#utility.yul\":427:445   */\n      0x24\n      add\n        /* \"Will.sol\":5825:5872  ISource(sourceContract).clearWillRecord(_owner) */\n      0x00\n      mload(0x40)\n      dup1\n      dup4\n      sub\n      dup2\n      0x00\n      dup8\n      dup1\n      extcodesize\n      iszero\n      dup1\n      iszero\n      tag_240\n      jumpi\n      0x00\n      dup1\n      revert\n    tag_240:\n      pop\n      gas\n      call\n      iszero\n      dup1\n      iszero\n      tag_242\n      jumpi\n      returndatasize\n      0x00\n      dup1\n      returndatacopy\n      revert(0x00, returndatasize)\n    tag_242:\n      pop\n      pop\n      pop\n      pop\n        /* \"Will.sol\":5890:5896  uint i */\n      0x00\n        /* \"Will.sol\":5885:6123  for (uint i = 0; i < erc20Assets.length; i++) {... */\n    tag_243:\n        /* \"Will.sol\":5906:5917  erc20Assets */\n      0x06\n        /* \"Will.sol\":5906:5924  erc20Assets.length */\n      sload\n        /* \"Will.sol\":5902:5924  i < erc20Assets.length */\n      dup2\n      lt\n        /* \"Will.sol\":5885:6123  for (uint i = 0; i < erc20Assets.length; i++) {... */\n      iszero\n      tag_244\n      jumpi\n        /* \"Will.sol\":5946:5958  IERC20 token */\n      0x00\n        /* \"Will.sol\":5961:5972  erc20Assets */\n      0x06\n        /* \"Will.sol\":5973:5974  i */\n      dup3\n        /* \"Will.sol\":5961:5975  erc20Assets[i] */\n      dup2\n      sload\n      dup2\n      lt\n      tag_247\n      jumpi\n      tag_247\n      tag_151\n      jump\t// in\n    tag_247:\n      0x00\n      swap2\n      dup3\n      mstore\n      0x20\n      dup3\n      keccak256\n      add\n        /* \"Will.sol\":5961:5981  erc20Assets[i].token */\n      sload\n        /* \"Will.sol\":6014:6044  token.balanceOf(address(this)) */\n      mload(0x40)\n      shl(0xe0, 0x70a08231)\n      dup2\n      mstore\n        /* \"Will.sol\":6038:6042  this */\n      address\n        /* \"Will.sol\":6014:6044  token.balanceOf(address(this)) */\n      0x04\n      dup3\n      add\n        /* \"#utility.yul\":454:505   */\n      mstore\n      sub(shl(0xa0, 0x01), 0x01)\n        /* \"Will.sol\":5961:5981  erc20Assets[i].token */\n      swap1\n      swap2\n      and\n      swap3\n      pop\n      dup3\n      swap1\n        /* \"Will.sol\":6014:6029  token.balanceOf */\n      0x70a08231\n      swap1\n        /* \"#utility.yul\":427:445   */\n      0x24\n      add\n        /* \"Will.sol\":6014:6044  token.balanceOf(address(this)) */\n      0x20\n      mload(0x40)\n      dup1\n      dup4\n      sub\n      dup2\n      dup7\n      gas\n      staticcall\n      iszero\n      dup1\n      iszero\n      tag_251\n      jumpi\n      returndatasize\n      0x00\n      dup1\n      returndatacopy\n      revert(0x00, returndatasize)\n    tag_251:\n      pop\n      pop\n      pop\n      pop\n      mload(0x40)\n      returndatasize\n      not(0x1f)\n      0x1f\n      dup3\n      add\n      and\n      dup3\n      add\n      dup1\n      0x40\n      mstore\n      pop\n      dup2\n      add\n      swap1\n      tag_252\n      swap2\n      swap1\n      tag_176\n      jump\t// in\n    tag_252:\n        /* \"Will.sol\":5996:6044  uint256 balance = token.balanceOf(address(this)) */\n      swap1\n      pop\n        /* \"Will.sol\":6063:6074  balance > 0 */\n      dup1\n      iszero\n        /* \"Will.sol\":6059:6112  if (balance > 0) { token.transfer(_owner, balance); } */\n      tag_253\n      jumpi\n        /* \"Will.sol\":6078:6109  token.transfer(_owner, balance) */\n      mload(0x40)\n      shl(0xe0, 0xa9059cbb)\n      dup2\n      mstore\n      sub(shl(0xa0, 0x01), 0x01)\n        /* \"#utility.yul\":14887:14919   */\n      dup6\n      dup2\n      and\n        /* \"Will.sol\":6078:6109  token.transfer(_owner, balance) */\n      0x04\n      dup4\n      add\n        /* \"#utility.yul\":14869:14920   */\n      mstore\n        /* \"#utility.yul\":14936:14954   */\n      0x24\n      dup3\n      add\n        /* \"#utility.yul\":14929:14963   */\n      dup4\n      swap1\n      mstore\n        /* \"Will.sol\":6078:6092  token.transfer */\n      dup4\n      and\n      swap1\n      0xa9059cbb\n      swap1\n        /* \"#utility.yul\":14842:14860   */\n      0x44\n      add\n        /* \"Will.sol\":6078:6109  token.transfer(_owner, balance) */\n      0x20\n      mload(0x40)\n      dup1\n      dup4\n      sub\n      dup2\n      0x00\n      dup8\n      gas\n      call\n      iszero\n      dup1\n      iszero\n      tag_257\n      jumpi\n      returndatasize\n      0x00\n      dup1\n      returndatacopy\n      revert(0x00, returndatasize)\n    tag_257:\n      pop\n      pop\n      pop\n      pop\n      mload(0x40)\n      returndatasize\n      not(0x1f)\n      0x1f\n      dup3\n      add\n      and\n      dup3\n      add\n      dup1\n      0x40\n      mstore\n      pop\n      dup2\n      add\n      swap1\n      tag_258\n      swap2\n      swap1\n      tag_187\n      jump\t// in\n    tag_258:\n      pop\n        /* \"Will.sol\":6059:6112  if (balance > 0) { token.transfer(_owner, balance); } */\n    tag_253:\n      pop\n      pop\n        /* \"Will.sol\":5926:5929  i++ */\n      0x01\n      add\n        /* \"Will.sol\":5885:6123  for (uint i = 0; i < erc20Assets.length; i++) {... */\n      jump(tag_243)\n    tag_244:\n      pop\n        /* \"Will.sol\":6138:6144  uint i */\n      0x00\n        /* \"Will.sol\":6133:6330  for (uint i = 0; i < erc721Assets.length; i++) {... */\n    tag_259:\n        /* \"Will.sol\":6154:6166  erc721Assets */\n      0x07\n        /* \"Will.sol\":6154:6173  erc721Assets.length */\n      sload\n        /* \"Will.sol\":6150:6173  i < erc721Assets.length */\n      dup2\n      lt\n        /* \"Will.sol\":6133:6330  for (uint i = 0; i < erc721Assets.length; i++) {... */\n      iszero\n      tag_260\n      jumpi\n        /* \"Will.sol\":6195:6219  Erc721Asset memory asset */\n      0x00\n        /* \"Will.sol\":6222:6234  erc721Assets */\n      0x07\n        /* \"Will.sol\":6235:6236  i */\n      dup3\n        /* \"Will.sol\":6222:6237  erc721Assets[i] */\n      dup2\n      sload\n      dup2\n      lt\n      tag_263\n      jumpi\n      tag_263\n      tag_151\n      jump\t// in\n    tag_263:\n      0x00\n      swap2\n      dup3\n      mstore\n      0x20\n      swap2\n      dup3\n      swap1\n      keccak256\n        /* \"Will.sol\":6195:6237  Erc721Asset memory asset = erc721Assets[i] */\n      0x40\n      dup1\n      mload\n      0x60\n      dup2\n      add\n      dup3\n      mstore\n        /* \"Will.sol\":6222:6237  erc721Assets[i] */\n      0x03\n      swap4\n      swap1\n      swap4\n      mul\n      swap1\n      swap2\n      add\n        /* \"Will.sol\":6195:6237  Erc721Asset memory asset = erc721Assets[i] */\n      dup1\n      sload\n      sub(shl(0xa0, 0x01), 0x01)\n      swap1\n      dup2\n      and\n      dup1\n      dup6\n      mstore\n      0x01\n      dup4\n      add\n      sload\n      swap6\n      dup6\n      add\n      dup7\n      swap1\n      mstore\n      0x02\n      swap1\n      swap3\n      add\n      sload\n      dup2\n      and\n      dup5\n      dup5\n      add\n      mstore\n        /* \"Will.sol\":6252:6318  asset.token.safeTransferFrom(address(this), _owner, asset.tokenId) */\n      swap2\n      mload\n      shl(0xe1, 0x21421707)\n      dup2\n      mstore\n        /* \"Will.sol\":6289:6293  this */\n      address\n        /* \"Will.sol\":6252:6318  asset.token.safeTransferFrom(address(this), _owner, asset.tokenId) */\n      0x04\n      dup3\n      add\n        /* \"#utility.yul\":15496:15530   */\n      mstore\n        /* \"#utility.yul\":15566:15581   */\n      swap2\n      dup8\n      and\n        /* \"#utility.yul\":15546:15564   */\n      0x24\n      dup4\n      add\n        /* \"#utility.yul\":15539:15582   */\n      mstore\n        /* \"#utility.yul\":15598:15616   */\n      0x44\n      dup3\n      add\n        /* \"#utility.yul\":15591:15625   */\n      swap4\n      swap1\n      swap4\n      mstore\n        /* \"Will.sol\":6195:6237  Erc721Asset memory asset = erc721Assets[i] */\n      swap1\n      swap3\n      pop\n        /* \"Will.sol\":6252:6280  asset.token.safeTransferFrom */\n      0x42842e0e\n      swap1\n        /* \"#utility.yul\":15431:15449   */\n      0x64\n      add\n        /* \"Will.sol\":6252:6318  asset.token.safeTransferFrom(address(this), _owner, asset.tokenId) */\n      0x00\n      mload(0x40)\n      dup1\n      dup4\n      sub\n      dup2\n      0x00\n      dup8\n      dup1\n      extcodesize\n      iszero\n      dup1\n      iszero\n      tag_267\n      jumpi\n      0x00\n      dup1\n      revert\n    tag_267:\n      pop\n      gas\n      call\n      iszero\n      dup1\n      iszero\n      tag_269\n      jumpi\n      returndatasize\n      0x00\n      dup1\n      returndatacopy\n      revert(0x00, returndatasize)\n    tag_269:\n      pop\n      pop\n        /* \"Will.sol\":6175:6178  i++ */\n      0x01\n      swap1\n      swap4\n      add\n      swap3\n      pop\n        /* \"Will.sol\":6133:6330  for (uint i = 0; i < erc721Assets.length; i++) {... */\n      tag_259\n      swap2\n      pop\n      pop\n      jump\n    tag_260:\n      pop\n        /* \"Will.sol\":6363:6384  address(this).balance */\n      selfbalance\n        /* \"Will.sol\":6399:6415  remainingEth > 0 */\n      dup1\n      iszero\n        /* \"Will.sol\":6395:6554  if (remainingEth > 0) {... */\n      tag_270\n      jumpi\n        /* \"Will.sol\":6433:6445  bool success */\n      0x00\n        /* \"Will.sol\":6451:6457  _owner */\n      dup3\n      sub(shl(0xa0, 0x01), 0x01)\n        /* \"Will.sol\":6451:6462  _owner.call */\n      and\n        /* \"Will.sol\":6470:6482  remainingEth */\n      dup3\n        /* \"Will.sol\":6451:6487  _owner.call{value: remainingEth}(\"\") */\n      mload(0x40)\n      0x00\n      mload(0x40)\n      dup1\n      dup4\n      sub\n      dup2\n      dup6\n      dup8\n      gas\n      call\n      swap3\n      pop\n      pop\n      pop\n      returndatasize\n      dup1\n      0x00\n      dup2\n      eq\n      tag_274\n      jumpi\n      mload(0x40)\n      swap2\n      pop\n      and(add(returndatasize, 0x3f), not(0x1f))\n      dup3\n      add\n      0x40\n      mstore\n      returndatasize\n      dup3\n      mstore\n      returndatasize\n      0x00\n      0x20\n      dup5\n      add\n      returndatacopy\n      jump(tag_273)\n    tag_274:\n      0x60\n      swap2\n      pop\n    tag_273:\n      pop\n        /* \"Will.sol\":6432:6487  (bool success, ) = _owner.call{value: remainingEth}(\"\") */\n      pop\n      swap1\n      pop\n        /* \"Will.sol\":6510:6517  success */\n      dup1\n        /* \"Will.sol\":6502:6542  require(success, \"ETH transfer failed.\") */\n      tag_275\n      jumpi\n      mload(0x40)\n      shl(0xe5, 0x461bcd)\n      dup2\n      mstore\n        /* \"#utility.yul\":17876:17878   */\n      0x20\n        /* \"Will.sol\":6502:6542  require(success, \"ETH transfer failed.\") */\n      0x04\n      dup3\n      add\n        /* \"#utility.yul\":17858:17879   */\n      mstore\n        /* \"#utility.yul\":17915:17917   */\n      0x14\n        /* \"#utility.yul\":17895:17913   */\n      0x24\n      dup3\n      add\n        /* \"#utility.yul\":17888:17918   */\n      mstore\n      shl(0x61, 0x22aa24103a3930b739b332b9103330b4b632b217)\n        /* \"#utility.yul\":17934:17952   */\n      0x44\n      dup3\n      add\n        /* \"#utility.yul\":17927:17977   */\n      mstore\n        /* \"#utility.yul\":17994:18012   */\n      0x64\n      add\n        /* \"Will.sol\":6502:6542  require(success, \"ETH transfer failed.\") */\n      tag_101\n        /* \"#utility.yul\":17674:18018   */\n      jump\n        /* \"Will.sol\":6502:6542  require(success, \"ETH transfer failed.\") */\n    tag_275:\n        /* \"Will.sol\":6417:6554  {... */\n      pop\n        /* \"Will.sol\":6395:6554  if (remainingEth > 0) {... */\n    tag_270:\n        /* \"Will.sol\":6569:6594  Cancelled(terminationFee) */\n      mload(0x40)\n        /* \"Will.sol\":6579:6593  terminationFee */\n      immutable(\"0x23191c4af8dc2a4aa44ffc7c4c9e4691c315520583859b69168aa9d748d0fff0\")\n        /* \"#utility.yul\":662:687   */\n      dup2\n      mstore\n        /* \"Will.sol\":6569:6594  Cancelled(terminationFee) */\n      0xc41d93b8bfbf9fd7cf5bfe271fd649ab6a6fec0ea101c23b82a2a28eca2533a9\n      swap1\n        /* \"#utility.yul\":650:652   */\n      0x20\n        /* \"#utility.yul\":635:653   */\n      add\n        /* \"Will.sol\":6569:6594  Cancelled(terminationFee) */\n      mload(0x40)\n      dup1\n      swap2\n      sub\n      swap1\n      log1\n      pop\n      pop\n        /* \"Will.sol\":361:362  1 */\n      0x01\n        /* \"Will.sol\":595:617  _status = _NOT_ENTERED */\n      dup1\n      sstore\n        /* \"Will.sol\":5365:6602  function cancelAndWithdraw() external onlyOwnerWhenActive nonReentrant {... */\n      jump\t// out\n        /* \"@openzeppelin/contracts/access/Ownable.sol\":2293:2394  function renounceOwnership() public virtual onlyOwner {... */\n    tag_51:\n        /* \"@openzeppelin/contracts/access/Ownable.sol\":1531:1544  _checkOwner() */\n      tag_280\n        /* \"@openzeppelin/contracts/access/Ownable.sol\":1531:1542  _checkOwner */\n      tag_281\n        /* \"@openzeppelin/contracts/access/Ownable.sol\":1531:1544  _checkOwner() */\n      jump\t// in\n    tag_280:\n        /* \"@openzeppelin/contracts/access/Ownable.sol\":2357:2387  _transferOwnership(address(0)) */\n      tag_283\n        /* \"@openzeppelin/contracts/access/Ownable.sol\":2384:2385  0 */\n      0x00\n        /* \"@openzeppelin/contracts/access/Ownable.sol\":2357:2375  _transferOwnership */\n      tag_284\n        /* \"@openzeppelin/contracts/access/Ownable.sol\":2357:2387  _transferOwnership(address(0)) */\n      jump\t// in\n    tag_283:\n        /* \"@openzeppelin/contracts/access/Ownable.sol\":2293:2394  function renounceOwnership() public virtual onlyOwner {... */\n      jump\t// out\n        /* \"Will.sol\":2441:2472  Erc20Asset[] public erc20Assets */\n    tag_57:\n      0x06\n      dup2\n      dup2\n      sload\n      dup2\n      lt\n      tag_95\n      jumpi\n      0x00\n      dup1\n      revert\n        /* \"Will.sol\":4001:5195  function initialize(... */\n    tag_72:\n        /* \"Will.sol\":4212:4224  _initialized */\n      and(0xff, sload(0x08))\n        /* \"Will.sol\":4211:4224  !_initialized */\n      iszero\n        /* \"Will.sol\":4203:4254  require(!_initialized, \"Will: already initialized\") */\n      tag_289\n      jumpi\n      mload(0x40)\n      shl(0xe5, 0x461bcd)\n      dup2\n      mstore\n        /* \"#utility.yul\":18225:18227   */\n      0x20\n        /* \"Will.sol\":4203:4254  require(!_initialized, \"Will: already initialized\") */\n      0x04\n      dup3\n      add\n        /* \"#utility.yul\":18207:18228   */\n      mstore\n        /* \"#utility.yul\":18264:18266   */\n      0x19\n        /* \"#utility.yul\":18244:18262   */\n      0x24\n      dup3\n      add\n        /* \"#utility.yul\":18237:18267   */\n      mstore\n        /* \"#utility.yul\":18303:18330   */\n      0x57696c6c3a20616c726561647920696e697469616c697a656400000000000000\n        /* \"#utility.yul\":18283:18301   */\n      0x44\n      dup3\n      add\n        /* \"#utility.yul\":18276:18331   */\n      mstore\n        /* \"#utility.yul\":18348:18366   */\n      0x64\n      add\n        /* \"Will.sol\":4203:4254  require(!_initialized, \"Will: already initialized\") */\n      tag_101\n        /* \"#utility.yul\":18023:18372   */\n      jump\n        /* \"Will.sol\":4203:4254  require(!_initialized, \"Will: already initialized\") */\n    tag_289:\n        /* \"Will.sol\":4273:4283  msg.sender */\n      caller\n      sub(shl(0xa0, 0x01), 0x01)\n        /* \"Will.sol\":4287:4301  sourceContract */\n      immutable(\"0x810f1a571b970c259340236d5a1f662d74036291e3b89e8fd81c15e26f520968\")\n        /* \"Will.sol\":4273:4301  msg.sender == sourceContract */\n      and\n      eq\n        /* \"Will.sol\":4265:4333  require(msg.sender == sourceContract, \"Will: not called by factory\") */\n      tag_292\n      jumpi\n      mload(0x40)\n      shl(0xe5, 0x461bcd)\n      dup2\n      mstore\n        /* \"#utility.yul\":18579:18581   */\n      0x20\n        /* \"Will.sol\":4265:4333  require(msg.sender == sourceContract, \"Will: not called by factory\") */\n      0x04\n      dup3\n      add\n        /* \"#utility.yul\":18561:18582   */\n      mstore\n        /* \"#utility.yul\":18618:18620   */\n      0x1b\n        /* \"#utility.yul\":18598:18616   */\n      0x24\n      dup3\n      add\n        /* \"#utility.yul\":18591:18621   */\n      mstore\n        /* \"#utility.yul\":18657:18686   */\n      0x57696c6c3a206e6f742063616c6c656420627920666163746f72790000000000\n        /* \"#utility.yul\":18637:18655   */\n      0x44\n      dup3\n      add\n        /* \"#utility.yul\":18630:18687   */\n      mstore\n        /* \"#utility.yul\":18704:18722   */\n      0x64\n      add\n        /* \"Will.sol\":4265:4333  require(msg.sender == sourceContract, \"Will: not called by factory\") */\n      tag_101\n        /* \"#utility.yul\":18377:18728   */\n      jump\n        /* \"Will.sol\":4265:4333  require(msg.sender == sourceContract, \"Will: not called by factory\") */\n    tag_292:\n        /* \"Will.sol\":4344:4356  _initialized */\n      0x08\n        /* \"Will.sol\":4344:4363  _initialized = true */\n      dup1\n      sload\n      not(0xff)\n      and\n        /* \"Will.sol\":4359:4363  true */\n      0x01\n        /* \"Will.sol\":4344:4363  _initialized = true */\n      or\n      swap1\n      sstore\n        /* \"Will.sol\":4401:4415  _distro.length */\n      dup3\n      mload\n        /* \"Will.sol\":4384:4397  _heirs.length */\n      dup5\n      mload\n        /* \"Will.sol\":4384:4415  _heirs.length == _distro.length */\n      eq\n        /* \"Will.sol\":4376:4460  require(_heirs.length == _distro.length, \"Heirs and distributions length mismatch.\") */\n      tag_295\n      jumpi\n      mload(0x40)\n      shl(0xe5, 0x461bcd)\n      dup2\n      mstore\n        /* \"#utility.yul\":18935:18937   */\n      0x20\n        /* \"Will.sol\":4376:4460  require(_heirs.length == _distro.length, \"Heirs and distributions length mismatch.\") */\n      0x04\n      dup3\n      add\n        /* \"#utility.yul\":18917:18938   */\n      mstore\n        /* \"#utility.yul\":18974:18976   */\n      0x28\n        /* \"#utility.yul\":18954:18972   */\n      0x24\n      dup3\n      add\n        /* \"#utility.yul\":18947:18977   */\n      mstore\n        /* \"#utility.yul\":19013:19047   */\n      0x486569727320616e6420646973747269627574696f6e73206c656e677468206d\n        /* \"#utility.yul\":18993:19011   */\n      0x44\n      dup3\n      add\n        /* \"#utility.yul\":18986:19048   */\n      mstore\n      shl(0xc1, 0x34b9b6b0ba31b417)\n        /* \"#utility.yul\":19064:19082   */\n      0x64\n      dup3\n      add\n        /* \"#utility.yul\":19057:19095   */\n      mstore\n        /* \"#utility.yul\":19112:19131   */\n      0x84\n      add\n        /* \"Will.sol\":4376:4460  require(_heirs.length == _distro.length, \"Heirs and distributions length mismatch.\") */\n      tag_101\n        /* \"#utility.yul\":18733:19137   */\n      jump\n        /* \"Will.sol\":4376:4460  require(_heirs.length == _distro.length, \"Heirs and distributions length mismatch.\") */\n    tag_295:\n        /* \"Will.sol\":4495:4496  0 */\n      0x00\n        /* \"Will.sol\":4479:4485  _heirs */\n      dup5\n        /* \"Will.sol\":4479:4492  _heirs.length */\n      mload\n        /* \"Will.sol\":4479:4496  _heirs.length > 0 */\n      gt\n        /* \"Will.sol\":4471:4523  require(_heirs.length > 0, \"Heirs cannot be empty.\") */\n      tag_298\n      jumpi\n      mload(0x40)\n      shl(0xe5, 0x461bcd)\n      dup2\n      mstore\n        /* \"#utility.yul\":19344:19346   */\n      0x20\n        /* \"Will.sol\":4471:4523  require(_heirs.length > 0, \"Heirs cannot be empty.\") */\n      0x04\n      dup3\n      add\n        /* \"#utility.yul\":19326:19347   */\n      mstore\n        /* \"#utility.yul\":19383:19385   */\n      0x16\n        /* \"#utility.yul\":19363:19381   */\n      0x24\n      dup3\n      add\n        /* \"#utility.yul\":19356:19386   */\n      mstore\n      shl(0x51, 0x2432b4b9399031b0b73737ba1031329032b6b83a3c97)\n        /* \"#utility.yul\":19402:19420   */\n      0x44\n      dup3\n      add\n        /* \"#utility.yul\":19395:19447   */\n      mstore\n        /* \"#utility.yul\":19464:19482   */\n      0x64\n      add\n        /* \"Will.sol\":4471:4523  require(_heirs.length > 0, \"Heirs cannot be empty.\") */\n      tag_101\n        /* \"#utility.yul\":19142:19488   */\n      jump\n        /* \"Will.sol\":4471:4523  require(_heirs.length > 0, \"Heirs cannot be empty.\") */\n    tag_298:\n        /* \"Will.sol\":4536:4559  uint256 totalPercentage */\n      0x00\n        /* \"Will.sol\":4579:4588  uint256 i */\n      dup1\n        /* \"Will.sol\":4574:4675  for (uint256 i = 0; i < _distro.length; i++) {... */\n    tag_301:\n        /* \"Will.sol\":4598:4605  _distro */\n      dup5\n        /* \"Will.sol\":4598:4612  _distro.length */\n      mload\n        /* \"Will.sol\":4594:4595  i */\n      dup2\n        /* \"Will.sol\":4594:4612  i < _distro.length */\n      lt\n        /* \"Will.sol\":4574:4675  for (uint256 i = 0; i < _distro.length; i++) {... */\n      iszero\n      tag_302\n      jumpi\n        /* \"Will.sol\":4653:4660  _distro */\n      dup5\n        /* \"Will.sol\":4661:4662  i */\n      dup2\n        /* \"Will.sol\":4653:4663  _distro[i] */\n      dup2\n      mload\n      dup2\n      lt\n      tag_305\n      jumpi\n      tag_305\n      tag_151\n      jump\t// in\n    tag_305:\n      0x20\n      mul\n      0x20\n      add\n      add\n      mload\n        /* \"Will.sol\":4634:4663  totalPercentage += _distro[i] */\n      dup3\n      tag_306\n      swap2\n      swap1\n      tag_116\n      jump\t// in\n    tag_306:\n      swap2\n      pop\n        /* \"Will.sol\":4614:4617  i++ */\n      0x01\n      add\n        /* \"Will.sol\":4574:4675  for (uint256 i = 0; i < _distro.length; i++) {... */\n      jump(tag_301)\n    tag_302:\n      pop\n        /* \"Will.sol\":4693:4708  totalPercentage */\n      dup1\n        /* \"Will.sol\":4712:4715  100 */\n      0x64\n        /* \"Will.sol\":4693:4715  totalPercentage == 100 */\n      eq\n        /* \"Will.sol\":4685:4761  require(totalPercentage == 100, \"Distribution percentages must sum to 100.\") */\n      tag_307\n      jumpi\n      mload(0x40)\n      shl(0xe5, 0x461bcd)\n      dup2\n      mstore\n        /* \"#utility.yul\":19695:19697   */\n      0x20\n        /* \"Will.sol\":4685:4761  require(totalPercentage == 100, \"Distribution percentages must sum to 100.\") */\n      0x04\n      dup3\n      add\n        /* \"#utility.yul\":19677:19698   */\n      mstore\n        /* \"#utility.yul\":19734:19736   */\n      0x29\n        /* \"#utility.yul\":19714:19732   */\n      0x24\n      dup3\n      add\n        /* \"#utility.yul\":19707:19737   */\n      mstore\n        /* \"#utility.yul\":19773:19807   */\n      0x446973747269627574696f6e2070657263656e7461676573206d757374207375\n        /* \"#utility.yul\":19753:19771   */\n      0x44\n      dup3\n      add\n        /* \"#utility.yul\":19746:19808   */\n      mstore\n      shl(0xb9, 0x36903a379018981817)\n        /* \"#utility.yul\":19824:19842   */\n      0x64\n      dup3\n      add\n        /* \"#utility.yul\":19817:19856   */\n      mstore\n        /* \"#utility.yul\":19873:19892   */\n      0x84\n      add\n        /* \"Will.sol\":4685:4761  require(totalPercentage == 100, \"Distribution percentages must sum to 100.\") */\n      tag_101\n        /* \"#utility.yul\":19493:19898   */\n      jump\n        /* \"Will.sol\":4685:4761  require(totalPercentage == 100, \"Distribution percentages must sum to 100.\") */\n    tag_307:\n        /* \"Will.sol\":4787:4802  block.timestamp */\n      timestamp\n        /* \"Will.sol\":4774:4784  lastUpdate */\n      0x03\n        /* \"Will.sol\":4774:4802  lastUpdate = block.timestamp */\n      sstore\n        /* \"Will.sol\":4813:4827  heirs = _heirs */\n      dup5\n      mload\n      tag_310\n      swap1\n        /* \"Will.sol\":4813:4818  heirs */\n      0x04\n      swap1\n        /* \"Will.sol\":4813:4827  heirs = _heirs */\n      0x20\n      dup9\n      add\n      swap1\n      tag_311\n      jump\t// in\n    tag_310:\n      pop\n        /* \"Will.sol\":4838:4871  distributionPercentages = _distro */\n      dup4\n      mload\n      tag_312\n      swap1\n        /* \"Will.sol\":4838:4861  distributionPercentages */\n      0x05\n      swap1\n        /* \"Will.sol\":4838:4871  distributionPercentages = _distro */\n      0x20\n      dup8\n      add\n      swap1\n      tag_313\n      jump\t// in\n    tag_312:\n      pop\n        /* \"Will.sol\":4889:4895  uint i */\n      0x00\n        /* \"Will.sol\":4884:5015  for (uint i = 0; i < _erc20s.length; i++) {... */\n    tag_314:\n        /* \"Will.sol\":4905:4912  _erc20s */\n      dup4\n        /* \"Will.sol\":4905:4919  _erc20s.length */\n      mload\n        /* \"Will.sol\":4901:4902  i */\n      dup2\n        /* \"Will.sol\":4901:4919  i < _erc20s.length */\n      lt\n        /* \"Will.sol\":4884:5015  for (uint i = 0; i < _erc20s.length; i++) {... */\n      iszero\n      tag_315\n      jumpi\n        /* \"Will.sol\":4941:4952  erc20Assets */\n      0x06\n        /* \"Will.sol\":4958:5002  Erc20Asset(IERC20(_erc20s[i].tokenContract)) */\n      mload(0x40)\n      dup1\n      0x20\n      add\n      0x40\n      mstore\n      dup1\n        /* \"Will.sol\":4976:4983  _erc20s */\n      dup7\n        /* \"Will.sol\":4984:4985  i */\n      dup5\n        /* \"Will.sol\":4976:4986  _erc20s[i] */\n      dup2\n      mload\n      dup2\n      lt\n      tag_318\n      jumpi\n      tag_318\n      tag_151\n      jump\t// in\n    tag_318:\n      0x20\n      swap1\n      dup2\n      mul\n      swap2\n      swap1\n      swap2\n      add\n      dup2\n      add\n      mload\n        /* \"Will.sol\":4976:5000  _erc20s[i].tokenContract */\n      mload\n      sub(shl(0xa0, 0x01), 0x01)\n        /* \"Will.sol\":4958:5002  Erc20Asset(IERC20(_erc20s[i].tokenContract)) */\n      swap1\n      dup2\n      and\n      swap1\n      swap3\n      mstore\n        /* \"Will.sol\":4941:5003  erc20Assets.push(Erc20Asset(IERC20(_erc20s[i].tokenContract))) */\n      dup4\n      sload\n      0x01\n      dup1\n      dup3\n      add\n      dup7\n      sstore\n      0x00\n      swap6\n      dup7\n      mstore\n      swap2\n      swap1\n      swap5\n      keccak256\n      swap3\n      mload\n      swap3\n      swap1\n      swap4\n      add\n      dup1\n      sload\n      not(sub(shl(0xa0, 0x01), 0x01))\n      and\n      swap3\n      swap1\n      swap2\n      and\n      swap2\n      swap1\n      swap2\n      or\n      swap1\n      sstore\n        /* \"Will.sol\":4921:4924  i++ */\n      add\n        /* \"Will.sol\":4884:5015  for (uint i = 0; i < _erc20s.length; i++) {... */\n      jump(tag_314)\n    tag_315:\n      pop\n        /* \"Will.sol\":5030:5036  uint i */\n      0x00\n        /* \"Will.sol\":5025:5188  for (uint i = 0; i < _nfts.length; i++) {... */\n    tag_320:\n        /* \"Will.sol\":5046:5051  _nfts */\n      dup3\n        /* \"Will.sol\":5046:5058  _nfts.length */\n      mload\n        /* \"Will.sol\":5042:5043  i */\n      dup2\n        /* \"Will.sol\":5042:5058  i < _nfts.length */\n      lt\n        /* \"Will.sol\":5025:5188  for (uint i = 0; i < _nfts.length; i++) {... */\n      iszero\n      tag_321\n      jumpi\n        /* \"Will.sol\":5080:5092  erc721Assets */\n      0x07\n        /* \"Will.sol\":5098:5175  Erc721Asset(IERC721(_nfts[i].tokenContract), _nfts[i].tokenId, _nfts[i].heir) */\n      mload(0x40)\n      dup1\n      0x60\n      add\n      0x40\n      mstore\n      dup1\n        /* \"Will.sol\":5118:5123  _nfts */\n      dup6\n        /* \"Will.sol\":5124:5125  i */\n      dup5\n        /* \"Will.sol\":5118:5126  _nfts[i] */\n      dup2\n      mload\n      dup2\n      lt\n      tag_324\n      jumpi\n      tag_324\n      tag_151\n      jump\t// in\n    tag_324:\n      0x20\n      mul\n      0x20\n      add\n      add\n      mload\n        /* \"Will.sol\":5118:5140  _nfts[i].tokenContract */\n      0x00\n      add\n      mload\n      sub(shl(0xa0, 0x01), 0x01)\n        /* \"Will.sol\":5098:5175  Erc721Asset(IERC721(_nfts[i].tokenContract), _nfts[i].tokenId, _nfts[i].heir) */\n      and\n      dup2\n      mstore\n      0x20\n      add\n        /* \"Will.sol\":5143:5148  _nfts */\n      dup6\n        /* \"Will.sol\":5149:5150  i */\n      dup5\n        /* \"Will.sol\":5143:5151  _nfts[i] */\n      dup2\n      mload\n      dup2\n      lt\n      tag_326\n      jumpi\n      tag_326\n      tag_151\n      jump\t// in\n    tag_326:\n      0x20\n      mul\n      0x20\n      add\n      add\n      mload\n        /* \"Will.sol\":5143:5159  _nfts[i].tokenId */\n      0x20\n      add\n      mload\n        /* \"Will.sol\":5098:5175  Erc721Asset(IERC721(_nfts[i].tokenContract), _nfts[i].tokenId, _nfts[i].heir) */\n      dup2\n      mstore\n      0x20\n      add\n        /* \"Will.sol\":5161:5166  _nfts */\n      dup6\n        /* \"Will.sol\":5167:5168  i */\n      dup5\n        /* \"Will.sol\":5161:5169  _nfts[i] */\n      dup2\n      mload\n      dup2\n      lt\n      tag_328\n      jumpi\n      tag_328\n      tag_151\n      jump\t// in\n    tag_328:\n      0x20\n      swap1\n      dup2\n      mul\n      swap2\n      swap1\n      swap2\n      add\n      dup2\n      add\n      mload\n        /* \"Will.sol\":5161:5174  _nfts[i].heir */\n      0x40\n      swap1\n      dup2\n      add\n      mload\n      sub(shl(0xa0, 0x01), 0x01)\n        /* \"Will.sol\":5098:5175  Erc721Asset(IERC721(_nfts[i].tokenContract), _nfts[i].tokenId, _nfts[i].heir) */\n      swap1\n      dup2\n      and\n      swap1\n      swap4\n      mstore\n        /* \"Will.sol\":5080:5176  erc721Assets.push(Erc721Asset(IERC721(_nfts[i].tokenContract), _nfts[i].tokenId, _nfts[i].heir)) */\n      dup5\n      sload\n      0x01\n      dup1\n      dup3\n      add\n      dup8\n      sstore\n      0x00\n      swap7\n      dup8\n      mstore\n      swap6\n      dup4\n      swap1\n      keccak256\n      dup6\n      mload\n      0x03\n      swap1\n      swap3\n      mul\n      add\n      dup1\n      sload\n      not(sub(shl(0xa0, 0x01), 0x01))\n      swap1\n      dup2\n      and\n      swap3\n      dup7\n      and\n      swap3\n      swap1\n      swap3\n      or\n      dup2\n      sstore\n      swap3\n      dup6\n      add\n      mload\n      dup4\n      dup8\n      add\n      sstore\n      swap4\n      add\n      mload\n      0x02\n      swap1\n      swap2\n      add\n      dup1\n      sload\n      swap1\n      swap4\n      and\n      swap2\n      and\n      or\n      swap1\n      sstore\n        /* \"Will.sol\":5060:5063  i++ */\n      add\n        /* \"Will.sol\":5025:5188  for (uint i = 0; i < _nfts.length; i++) {... */\n      jump(tag_320)\n    tag_321:\n      pop\n        /* \"Will.sol\":4192:5195  {... */\n      pop\n        /* \"Will.sol\":4001:5195  function initialize(... */\n      pop\n      pop\n      pop\n      pop\n      jump\t// out\n        /* \"Will.sol\":8849:10137  function getWillDetails() external view returns (WillDetails memory) {... */\n    tag_80:\n        /* \"Will.sol\":8898:8916  WillDetails memory */\n      tag_330\n      mload(0x40)\n      dup1\n      0x0140\n      add\n      0x40\n      mstore\n      dup1\n      and(sub(shl(0xa0, 0x01), 0x01), 0x00)\n      dup2\n      mstore\n      0x20\n      add\n      0x00\n      dup2\n      mstore\n      0x20\n      add\n      0x00\n      dup2\n      mstore\n      0x20\n      add\n      iszero(iszero(0x00))\n      dup2\n      mstore\n      0x20\n      add\n      iszero(iszero(0x00))\n      dup2\n      mstore\n      0x20\n      add\n      0x00\n      dup2\n      mstore\n      0x20\n      add\n      0x60\n      dup2\n      mstore\n      0x20\n      add\n      0x60\n      dup2\n      mstore\n      0x20\n      add\n      0x60\n      dup2\n      mstore\n      0x20\n      add\n      0x60\n      dup2\n      mstore\n      pop\n      swap1\n      jump\n    tag_330:\n        /* \"Will.sol\":8984:8995  erc20Assets */\n      0x06\n        /* \"Will.sol\":8984:9002  erc20Assets.length */\n      sload\n        /* \"Will.sol\":8929:8963  Erc20Detail[] memory _erc20Details */\n      0x00\n      swap1\n        /* \"Will.sol\":8966:9003  new Erc20Detail[](erc20Assets.length) */\n      0xffffffffffffffff\n      dup2\n      gt\n      iszero\n      tag_334\n      jumpi\n      tag_334\n      tag_335\n      jump\t// in\n    tag_334:\n      mload(0x40)\n      swap1\n      dup1\n      dup3\n      mstore\n      dup1\n      0x20\n      mul\n      0x20\n      add\n      dup3\n      add\n      0x40\n      mstore\n      dup1\n      iszero\n      tag_336\n      jumpi\n      dup2\n      0x20\n      add\n    tag_337:\n      0x40\n      dup1\n      mload\n      dup1\n      dup3\n      add\n      swap1\n      swap2\n      mstore\n      0x00\n      dup1\n      dup3\n      mstore\n      0x20\n      dup3\n      add\n      mstore\n      dup2\n      mstore\n      0x20\n      add\n      swap1\n      0x01\n      swap1\n      sub\n      swap1\n      dup2\n      tag_337\n      jumpi\n      swap1\n      pop\n    tag_336:\n      pop\n        /* \"Will.sol\":8929:9003  Erc20Detail[] memory _erc20Details = new Erc20Detail[](erc20Assets.length) */\n      swap1\n      pop\n        /* \"Will.sol\":9019:9025  uint i */\n      0x00\n        /* \"Will.sol\":9014:9290  for (uint i = 0; i < erc20Assets.length; i++) {... */\n    tag_340:\n        /* \"Will.sol\":9035:9046  erc20Assets */\n      0x06\n        /* \"Will.sol\":9035:9053  erc20Assets.length */\n      sload\n        /* \"Will.sol\":9031:9053  i < erc20Assets.length */\n      dup2\n      lt\n        /* \"Will.sol\":9014:9290  for (uint i = 0; i < erc20Assets.length; i++) {... */\n      iszero\n      tag_341\n      jumpi\n        /* \"Will.sol\":9075:9087  IERC20 token */\n      0x00\n        /* \"Will.sol\":9090:9101  erc20Assets */\n      0x06\n        /* \"Will.sol\":9102:9103  i */\n      dup3\n        /* \"Will.sol\":9090:9104  erc20Assets[i] */\n      dup2\n      sload\n      dup2\n      lt\n      tag_344\n      jumpi\n      tag_344\n      tag_151\n      jump\t// in\n    tag_344:\n      0x00\n      swap2\n      dup3\n      mstore\n      0x20\n      swap2\n      dup3\n      swap1\n      keccak256\n      add\n        /* \"Will.sol\":9090:9110  erc20Assets[i].token */\n      sload\n        /* \"Will.sol\":9144:9278  Erc20Detail({... */\n      0x40\n      dup1\n      mload\n      dup1\n      dup3\n      add\n      dup3\n      mstore\n      sub(shl(0xa0, 0x01), 0x01)\n        /* \"Will.sol\":9090:9110  erc20Assets[i].token */\n      swap1\n      swap3\n      and\n        /* \"Will.sol\":9144:9278  Erc20Detail({... */\n      dup1\n      dup4\n      mstore\n        /* \"Will.sol\":9232:9262  token.balanceOf(address(this)) */\n      swap1\n      mload\n      shl(0xe0, 0x70a08231)\n      dup2\n      mstore\n        /* \"Will.sol\":9256:9260  this */\n      address\n        /* \"Will.sol\":9232:9262  token.balanceOf(address(this)) */\n      0x04\n      dup3\n      add\n        /* \"#utility.yul\":454:505   */\n      mstore\n        /* \"Will.sol\":9090:9110  erc20Assets[i].token */\n      swap1\n      swap4\n      pop\n        /* \"Will.sol\":9144:9278  Erc20Detail({... */\n      swap1\n      swap2\n      dup3\n      add\n      swap1\n        /* \"Will.sol\":9090:9110  erc20Assets[i].token */\n      dup4\n      swap1\n        /* \"Will.sol\":9232:9247  token.balanceOf */\n      0x70a08231\n      swap1\n        /* \"#utility.yul\":427:445   */\n      0x24\n      add\n        /* \"Will.sol\":9232:9262  token.balanceOf(address(this)) */\n      0x20\n      mload(0x40)\n      dup1\n      dup4\n      sub\n      dup2\n      dup7\n      gas\n      staticcall\n      iszero\n      dup1\n      iszero\n      tag_348\n      jumpi\n      returndatasize\n      0x00\n      dup1\n      returndatacopy\n      revert(0x00, returndatasize)\n    tag_348:\n      pop\n      pop\n      pop\n      pop\n      mload(0x40)\n      returndatasize\n      not(0x1f)\n      0x1f\n      dup3\n      add\n      and\n      dup3\n      add\n      dup1\n      0x40\n      mstore\n      pop\n      dup2\n      add\n      swap1\n      tag_349\n      swap2\n      swap1\n      tag_176\n      jump\t// in\n    tag_349:\n        /* \"Will.sol\":9144:9278  Erc20Detail({... */\n      dup2\n      mstore\n      pop\n        /* \"Will.sol\":9125:9138  _erc20Details */\n      dup4\n        /* \"Will.sol\":9139:9140  i */\n      dup4\n        /* \"Will.sol\":9125:9141  _erc20Details[i] */\n      dup2\n      mload\n      dup2\n      lt\n      tag_351\n      jumpi\n      tag_351\n      tag_151\n      jump\t// in\n    tag_351:\n      0x20\n      swap1\n      dup2\n      mul\n      swap2\n      swap1\n      swap2\n      add\n      add\n        /* \"Will.sol\":9125:9278  _erc20Details[i] = Erc20Detail({... */\n      mstore\n      pop\n        /* \"Will.sol\":9055:9058  i++ */\n      0x01\n      add\n        /* \"Will.sol\":9014:9290  for (uint i = 0; i < erc20Assets.length; i++) {... */\n      jump(tag_340)\n    tag_341:\n      pop\n        /* \"Will.sol\":9358:9370  erc721Assets */\n      0x07\n        /* \"Will.sol\":9358:9377  erc721Assets.length */\n      sload\n        /* \"Will.sol\":9300:9336  Erc721Detail[] memory _erc721Details */\n      0x00\n      swap1\n        /* \"Will.sol\":9339:9378  new Erc721Detail[](erc721Assets.length) */\n      0xffffffffffffffff\n      dup2\n      gt\n      iszero\n      tag_353\n      jumpi\n      tag_353\n      tag_335\n      jump\t// in\n    tag_353:\n      mload(0x40)\n      swap1\n      dup1\n      dup3\n      mstore\n      dup1\n      0x20\n      mul\n      0x20\n      add\n      dup3\n      add\n      0x40\n      mstore\n      dup1\n      iszero\n      tag_354\n      jumpi\n      dup2\n      0x20\n      add\n    tag_355:\n      0x40\n      dup1\n      mload\n      0x60\n      dup2\n      add\n      dup3\n      mstore\n      0x00\n      dup1\n      dup3\n      mstore\n      0x20\n      dup1\n      dup4\n      add\n      dup3\n      swap1\n      mstore\n      swap3\n      dup3\n      add\n      mstore\n      dup3\n      mstore\n      not(0x00)\n      swap1\n      swap3\n      add\n      swap2\n      add\n      dup2\n      tag_355\n      jumpi\n      swap1\n      pop\n    tag_354:\n      pop\n        /* \"Will.sol\":9300:9378  Erc721Detail[] memory _erc721Details = new Erc721Detail[](erc721Assets.length) */\n      swap1\n      pop\n        /* \"Will.sol\":9394:9400  uint i */\n      0x00\n        /* \"Will.sol\":9389:9699  for (uint i = 0; i < erc721Assets.length; i++) {... */\n    tag_358:\n        /* \"Will.sol\":9410:9422  erc721Assets */\n      0x07\n        /* \"Will.sol\":9410:9429  erc721Assets.length */\n      sload\n        /* \"Will.sol\":9406:9429  i < erc721Assets.length */\n      dup2\n      lt\n        /* \"Will.sol\":9389:9699  for (uint i = 0; i < erc721Assets.length; i++) {... */\n      iszero\n      tag_359\n      jumpi\n        /* \"Will.sol\":9451:9475  Erc721Asset memory asset */\n      0x00\n        /* \"Will.sol\":9478:9490  erc721Assets */\n      0x07\n        /* \"Will.sol\":9491:9492  i */\n      dup3\n        /* \"Will.sol\":9478:9493  erc721Assets[i] */\n      dup2\n      sload\n      dup2\n      lt\n      tag_362\n      jumpi\n      tag_362\n      tag_151\n      jump\t// in\n    tag_362:\n      0x00\n      swap2\n      dup3\n      mstore\n      0x20\n      swap2\n      dup3\n      swap1\n      keccak256\n        /* \"Will.sol\":9451:9493  Erc721Asset memory asset = erc721Assets[i] */\n      0x40\n      dup1\n      mload\n      0x60\n      dup1\n      dup3\n      add\n      dup4\n      mstore\n        /* \"Will.sol\":9478:9493  erc721Assets[i] */\n      0x03\n      swap1\n      swap5\n      mul\n      swap1\n      swap3\n      add\n        /* \"Will.sol\":9451:9493  Erc721Asset memory asset = erc721Assets[i] */\n      dup1\n      sload\n      sub(shl(0xa0, 0x01), 0x01)\n      swap1\n      dup2\n      and\n      dup5\n      mstore\n      0x01\n      dup3\n      add\n      sload\n      dup5\n      dup8\n      add\n      swap1\n      dup2\n      mstore\n      0x02\n      swap1\n      swap3\n      add\n      sload\n      dup2\n      and\n      dup5\n      dup5\n      add\n      swap1\n      dup2\n      mstore\n        /* \"Will.sol\":9528:9687  Erc721Detail({... */\n      dup4\n      mload\n      swap6\n      dup7\n      add\n      dup5\n      mstore\n        /* \"Will.sol\":9583:9594  asset.token */\n      dup5\n      mload\n        /* \"Will.sol\":9528:9687  Erc721Detail({... */\n      dup3\n      and\n      dup7\n      mstore\n        /* \"Will.sol\":9623:9636  asset.tokenId */\n      swap2\n      mload\n        /* \"Will.sol\":9528:9687  Erc721Detail({... */\n      swap6\n      dup6\n      add\n      swap6\n      swap1\n      swap6\n      mstore\n        /* \"Will.sol\":9661:9671  asset.heir */\n      mload\n        /* \"Will.sol\":9528:9687  Erc721Detail({... */\n      swap1\n      swap4\n      and\n      swap3\n      dup3\n      add\n      swap3\n      swap1\n      swap3\n      mstore\n        /* \"Will.sol\":9508:9525  _erc721Details[i] */\n      dup5\n      mload\n        /* \"Will.sol\":9451:9493  Erc721Asset memory asset = erc721Assets[i] */\n      swap2\n      swap3\n      pop\n        /* \"Will.sol\":9528:9687  Erc721Detail({... */\n      swap1\n        /* \"Will.sol\":9508:9522  _erc721Details */\n      dup5\n      swap1\n        /* \"Will.sol\":9523:9524  i */\n      dup5\n      swap1\n        /* \"Will.sol\":9508:9525  _erc721Details[i] */\n      dup2\n      lt\n      tag_365\n      jumpi\n      tag_365\n      tag_151\n      jump\t// in\n    tag_365:\n      0x20\n      swap1\n      dup2\n      mul\n      swap2\n      swap1\n      swap2\n      add\n      add\n        /* \"Will.sol\":9508:9687  _erc721Details[i] = Erc721Detail({... */\n      mstore\n      pop\n        /* \"Will.sol\":9431:9434  i++ */\n      0x01\n      add\n        /* \"Will.sol\":9389:9699  for (uint i = 0; i < erc721Assets.length; i++) {... */\n      jump(tag_358)\n    tag_359:\n      pop\n        /* \"Will.sol\":9716:10129  WillDetails({... */\n      mload(0x40)\n      dup1\n      0x0140\n      add\n      0x40\n      mstore\n      dup1\n        /* \"Will.sol\":9750:9757  owner() */\n      tag_366\n        /* \"@openzeppelin/contracts/access/Ownable.sol\":1684:1691  address */\n      0x00\n        /* \"@openzeppelin/contracts/access/Ownable.sol\":1710:1716  _owner */\n      sload\n      sub(shl(0xa0, 0x01), 0x01)\n      and\n      swap1\n        /* \"@openzeppelin/contracts/access/Ownable.sol\":1638:1723  function owner() public view virtual returns (address) {... */\n      jump\n        /* \"Will.sol\":9750:9757  owner() */\n    tag_366:\n      sub(shl(0xa0, 0x01), 0x01)\n        /* \"Will.sol\":9716:10129  WillDetails({... */\n      and\n      dup2\n      mstore\n      0x20\n      add\n        /* \"Will.sol\":9782:9790  interval */\n      immutable(\"0xc1046e5cedf659668d6ea8caef915bd064d1f8813020432511627c810367b50c\")\n        /* \"Will.sol\":9716:10129  WillDetails({... */\n      dup2\n      mstore\n      0x20\n      add\n        /* \"Will.sol\":9817:9827  lastUpdate */\n      sload(0x03)\n        /* \"Will.sol\":9716:10129  WillDetails({... */\n      dup2\n      mstore\n      0x20\n      add\n        /* \"Will.sol\":9852:9860  executed */\n      0x02\n      0x00\n      swap1\n      sload\n      swap1\n      0x0100\n      exp\n      swap1\n      div\n      0xff\n      and\n        /* \"Will.sol\":9716:10129  WillDetails({... */\n      iszero\n      iszero\n      dup2\n      mstore\n      0x20\n      add\n        /* \"Will.sol\":9885:9893  hasDiary */\n      immutable(\"0x89b941ac507936813383287e3bdf5ed02eb8ad2c46d6681eed1aed470bac2b05\")\n        /* \"Will.sol\":9716:10129  WillDetails({... */\n      iszero\n      iszero\n      dup2\n      mstore\n      0x20\n      add\n        /* \"Will.sol\":9920:9941  address(this).balance */\n      selfbalance\n        /* \"Will.sol\":9716:10129  WillDetails({... */\n      dup2\n      mstore\n      0x20\n      add\n        /* \"Will.sol\":9963:9968  heirs */\n      0x04\n        /* \"Will.sol\":9716:10129  WillDetails({... */\n      dup1\n      sload\n      dup1\n      0x20\n      mul\n      0x20\n      add\n      mload(0x40)\n      swap1\n      dup2\n      add\n      0x40\n      mstore\n      dup1\n      swap3\n      swap2\n      swap1\n      dup2\n      dup2\n      mstore\n      0x20\n      add\n      dup3\n      dup1\n      sload\n      dup1\n      iszero\n      tag_367\n      jumpi\n      0x20\n      mul\n      dup3\n      add\n      swap2\n      swap1\n      0x00\n      mstore\n      keccak256(0x00, 0x20)\n      swap1\n    tag_368:\n      dup2\n      sload\n      sub(shl(0xa0, 0x01), 0x01)\n      and\n      dup2\n      mstore\n      0x01\n      swap1\n      swap2\n      add\n      swap1\n      0x20\n      add\n      dup1\n      dup4\n      gt\n      tag_368\n      jumpi\n    tag_367:\n      pop\n      pop\n      pop\n      pop\n      pop\n      dup2\n      mstore\n      0x20\n      add\n        /* \"Will.sol\":10008:10031  distributionPercentages */\n      0x05\n        /* \"Will.sol\":9716:10129  WillDetails({... */\n      dup1\n      sload\n      dup1\n      0x20\n      mul\n      0x20\n      add\n      mload(0x40)\n      swap1\n      dup2\n      add\n      0x40\n      mstore\n      dup1\n      swap3\n      swap2\n      swap1\n      dup2\n      dup2\n      mstore\n      0x20\n      add\n      dup3\n      dup1\n      sload\n      dup1\n      iszero\n      tag_369\n      jumpi\n      0x20\n      mul\n      dup3\n      add\n      swap2\n      swap1\n      0x00\n      mstore\n      keccak256(0x00, 0x20)\n      swap1\n    tag_370:\n      dup2\n      sload\n      dup2\n      mstore\n      0x20\n      add\n      swap1\n      0x01\n      add\n      swap1\n      dup1\n      dup4\n      gt\n      tag_370\n      jumpi\n    tag_369:\n      pop\n      pop\n      pop\n      pop\n      pop\n      dup2\n      mstore\n      0x20\n      add\n        /* \"Will.sol\":10060:10073  _erc20Details */\n      dup4\n        /* \"Will.sol\":9716:10129  WillDetails({... */\n      dup2\n      mstore\n      0x20\n      add\n        /* \"Will.sol\":10103:10117  _erc721Details */\n      dup3\n        /* \"Will.sol\":9716:10129  WillDetails({... */\n      dup2\n      mstore\n      pop\n        /* \"Will.sol\":9709:10129  return WillDetails({... */\n      swap3\n      pop\n      pop\n      pop\n        /* \"Will.sol\":8849:10137  function getWillDetails() external view returns (WillDetails memory) {... */\n      swap1\n      jump\t// out\n        /* \"Will.sol\":2479:2512  Erc721Asset[] public erc721Assets */\n    tag_85:\n      0x07\n      dup2\n      dup2\n      sload\n      dup2\n      lt\n      tag_371\n      jumpi\n      0x00\n      dup1\n      revert\n    tag_371:\n      0x00\n      swap2\n      dup3\n      mstore\n      0x20\n      swap1\n      swap2\n      keccak256\n      0x03\n      swap1\n      swap2\n      mul\n      add\n      dup1\n      sload\n      0x01\n      dup3\n      add\n      sload\n      0x02\n      swap1\n      swap3\n      add\n      sload\n      sub(shl(0xa0, 0x01), 0x01)\n      swap2\n      dup3\n      and\n      swap4\n      pop\n      and\n      dup4\n      jump\t// out\n        /* \"@openzeppelin/contracts/access/Ownable.sol\":2543:2758  function transferOwnership(address newOwner) public virtual onlyOwner {... */\n    tag_94:\n        /* \"@openzeppelin/contracts/access/Ownable.sol\":1531:1544  _checkOwner() */\n      tag_374\n        /* \"@openzeppelin/contracts/access/Ownable.sol\":1531:1542  _checkOwner */\n      tag_281\n        /* \"@openzeppelin/contracts/access/Ownable.sol\":1531:1544  _checkOwner() */\n      jump\t// in\n    tag_374:\n      sub(shl(0xa0, 0x01), 0x01)\n        /* \"@openzeppelin/contracts/access/Ownable.sol\":2627:2649  newOwner == address(0) */\n      dup2\n      and\n        /* \"@openzeppelin/contracts/access/Ownable.sol\":2623:2714  if (newOwner == address(0)) {... */\n      tag_376\n      jumpi\n        /* \"@openzeppelin/contracts/access/Ownable.sol\":2672:2703  OwnableInvalidOwner(address(0)) */\n      mload(0x40)\n      shl(0xe0, 0x1e4fbdf7)\n      dup2\n      mstore\n        /* \"@openzeppelin/contracts/access/Ownable.sol\":2700:2701  0 */\n      0x00\n        /* \"@openzeppelin/contracts/access/Ownable.sol\":2672:2703  OwnableInvalidOwner(address(0)) */\n      0x04\n      dup3\n      add\n        /* \"#utility.yul\":454:505   */\n      mstore\n        /* \"#utility.yul\":427:445   */\n      0x24\n      add\n        /* \"@openzeppelin/contracts/access/Ownable.sol\":2672:2703  OwnableInvalidOwner(address(0)) */\n      tag_101\n        /* \"#utility.yul\":308:511   */\n      jump\n        /* \"@openzeppelin/contracts/access/Ownable.sol\":2623:2714  if (newOwner == address(0)) {... */\n    tag_376:\n        /* \"@openzeppelin/contracts/access/Ownable.sol\":2723:2751  _transferOwnership(newOwner) */\n      tag_378\n        /* \"@openzeppelin/contracts/access/Ownable.sol\":2742:2750  newOwner */\n      dup2\n        /* \"@openzeppelin/contracts/access/Ownable.sol\":2723:2741  _transferOwnership */\n      tag_284\n        /* \"@openzeppelin/contracts/access/Ownable.sol\":2723:2751  _transferOwnership(newOwner) */\n      jump\t// in\n    tag_378:\n        /* \"@openzeppelin/contracts/access/Ownable.sol\":2543:2758  function transferOwnership(address newOwner) public virtual onlyOwner {... */\n      pop\n      jump\t// out\n        /* \"Will.sol\":631:743  function _preReentryCheck() private view { if (_status == _ENTERED) { revert ReentrancyGuardReentrantCall(); } } */\n    tag_111:\n        /* \"Will.sol\":405:406  2 */\n      0x02\n        /* \"Will.sol\":678:685  _status */\n      sload(0x01)\n        /* \"Will.sol\":678:697  _status == _ENTERED */\n      sub\n        /* \"Will.sol\":674:741  if (_status == _ENTERED) { revert ReentrancyGuardReentrantCall(); } */\n      tag_283\n      jumpi\n        /* \"Will.sol\":708:738  ReentrancyGuardReentrantCall() */\n      mload(0x40)\n      shl(0xe0, 0x3ee5aeb5)\n      dup2\n      mstore\n      0x04\n      add\n      mload(0x40)\n      dup1\n      swap2\n      sub\n      swap1\n      revert\n        /* \"@openzeppelin/contracts/access/Ownable.sol\":1796:1958  function _checkOwner() internal view virtual {... */\n    tag_281:\n        /* \"@openzeppelin/contracts/access/Ownable.sol\":1684:1691  address */\n      0x00\n        /* \"@openzeppelin/contracts/access/Ownable.sol\":1710:1716  _owner */\n      sload\n      sub(shl(0xa0, 0x01), 0x01)\n      and\n        /* \"@openzeppelin/contracts/utils/Context.sol\":735:745  msg.sender */\n      caller\n        /* \"@openzeppelin/contracts/access/Ownable.sol\":1855:1878  owner() != _msgSender() */\n      eq\n        /* \"@openzeppelin/contracts/access/Ownable.sol\":1851:1952  if (owner() != _msgSender()) {... */\n      tag_283\n      jumpi\n        /* \"@openzeppelin/contracts/access/Ownable.sol\":1901:1941  OwnableUnauthorizedAccount(_msgSender()) */\n      mload(0x40)\n      shl(0xe0, 0x118cdaa7)\n      dup2\n      mstore\n        /* \"@openzeppelin/contracts/utils/Context.sol\":735:745  msg.sender */\n      caller\n        /* \"@openzeppelin/contracts/access/Ownable.sol\":1901:1941  OwnableUnauthorizedAccount(_msgSender()) */\n      0x04\n      dup3\n      add\n        /* \"#utility.yul\":454:505   */\n      mstore\n        /* \"#utility.yul\":427:445   */\n      0x24\n      add\n        /* \"@openzeppelin/contracts/access/Ownable.sol\":1901:1941  OwnableUnauthorizedAccount(_msgSender()) */\n      tag_101\n        /* \"#utility.yul\":308:511   */\n      jump\n        /* \"@openzeppelin/contracts/access/Ownable.sol\":2912:3099  function _transferOwnership(address newOwner) internal virtual {... */\n    tag_284:\n        /* \"@openzeppelin/contracts/access/Ownable.sol\":2985:3001  address oldOwner */\n      0x00\n        /* \"@openzeppelin/contracts/access/Ownable.sol\":3004:3010  _owner */\n      dup1\n      sload\n      sub(shl(0xa0, 0x01), 0x01)\n        /* \"@openzeppelin/contracts/access/Ownable.sol\":3020:3037  _owner = newOwner */\n      dup4\n      dup2\n      and\n      not(sub(shl(0xa0, 0x01), 0x01))\n      dup4\n      and\n      dup2\n      or\n      dup5\n      sstore\n        /* \"@openzeppelin/contracts/access/Ownable.sol\":3052:3092  OwnershipTransferred(oldOwner, newOwner) */\n      mload(0x40)\n        /* \"@openzeppelin/contracts/access/Ownable.sol\":3004:3010  _owner */\n      swap2\n      swap1\n      swap3\n      and\n      swap3\n      dup4\n      swap2\n        /* \"@openzeppelin/contracts/access/Ownable.sol\":3052:3092  OwnershipTransferred(oldOwner, newOwner) */\n      0x8be0079c531659141344cd1fd0a4f28419497f9722a3daafe3b4186f6b6457e0\n      swap2\n        /* \"@openzeppelin/contracts/access/Ownable.sol\":2985:3001  address oldOwner */\n      swap1\n        /* \"@openzeppelin/contracts/access/Ownable.sol\":3052:3092  OwnershipTransferred(oldOwner, newOwner) */\n      log3\n        /* \"@openzeppelin/contracts/access/Ownable.sol\":2975:3099  {... */\n      pop\n        /* \"@openzeppelin/contracts/access/Ownable.sol\":2912:3099  function _transferOwnership(address newOwner) internal virtual {... */\n      pop\n      jump\t// out\n    tag_311:\n      dup3\n      dup1\n      sload\n      dup3\n      dup3\n      sstore\n      swap1\n      0x00\n      mstore\n      keccak256(0x00, 0x20)\n      swap1\n      dup2\n      add\n      swap3\n      dup3\n      iszero\n      tag_392\n      jumpi\n      swap2\n      0x20\n      mul\n      dup3\n      add\n    tag_391:\n      dup3\n      dup2\n      gt\n      iszero\n      tag_392\n      jumpi\n      dup3\n      mload\n      dup3\n      sload\n      not(sub(shl(0xa0, 0x01), 0x01))\n      and\n      sub(shl(0xa0, 0x01), 0x01)\n      swap1\n      swap2\n      and\n      or\n      dup3\n      sstore\n      0x20\n      swap1\n      swap3\n      add\n      swap2\n      0x01\n      swap1\n      swap2\n      add\n      swap1\n      jump(tag_391)\n    tag_392:\n      pop\n      tag_393\n      swap3\n      swap2\n      pop\n      tag_394\n      jump\t// in\n    tag_393:\n      pop\n      swap1\n      jump\t// out\n    tag_313:\n      dup3\n      dup1\n      sload\n      dup3\n      dup3\n      sstore\n      swap1\n      0x00\n      mstore\n      keccak256(0x00, 0x20)\n      swap1\n      dup2\n      add\n      swap3\n      dup3\n      iszero\n      tag_392\n      jumpi\n      swap2\n      0x20\n      mul\n      dup3\n      add\n    tag_396:\n      dup3\n      dup2\n      gt\n      iszero\n      tag_392\n      jumpi\n      dup3\n      mload\n      dup3\n      sstore\n      swap2\n      0x20\n      add\n      swap2\n      swap1\n      0x01\n      add\n      swap1\n      jump(tag_396)\n    tag_394:\n    tag_399:\n      dup1\n      dup3\n      gt\n      iszero\n      tag_393\n      jumpi\n      0x00\n      dup2\n      sstore\n      0x01\n      add\n      jump(tag_399)\n        /* \"#utility.yul\":14:194   */\n    tag_28:\n        /* \"#utility.yul\":73:79   */\n      0x00\n        /* \"#utility.yul\":126:128   */\n      0x20\n        /* \"#utility.yul\":114:123   */\n      dup3\n        /* \"#utility.yul\":105:112   */\n      dup5\n        /* \"#utility.yul\":101:124   */\n      sub\n        /* \"#utility.yul\":97:129   */\n      slt\n        /* \"#utility.yul\":94:146   */\n      iszero\n      tag_418\n      jumpi\n        /* \"#utility.yul\":142:143   */\n      0x00\n        /* \"#utility.yul\":139:140   */\n      dup1\n        /* \"#utility.yul\":132:144   */\n      revert\n        /* \"#utility.yul\":94:146   */\n    tag_418:\n      pop\n        /* \"#utility.yul\":165:188   */\n      calldataload\n      swap2\n        /* \"#utility.yul\":14:194   */\n      swap1\n      pop\n      jump\t// out\n        /* \"#utility.yul\":1208:1335   */\n    tag_335:\n        /* \"#utility.yul\":1269:1279   */\n      0x4e487b71\n        /* \"#utility.yul\":1264:1267   */\n      0xe0\n        /* \"#utility.yul\":1260:1280   */\n      shl\n        /* \"#utility.yul\":1257:1258   */\n      0x00\n        /* \"#utility.yul\":1250:1281   */\n      mstore\n        /* \"#utility.yul\":1300:1304   */\n      0x41\n        /* \"#utility.yul\":1297:1298   */\n      0x04\n        /* \"#utility.yul\":1290:1305   */\n      mstore\n        /* \"#utility.yul\":1324:1328   */\n      0x24\n        /* \"#utility.yul\":1321:1322   */\n      0x00\n        /* \"#utility.yul\":1314:1329   */\n      revert\n        /* \"#utility.yul\":1340:1597   */\n    tag_403:\n        /* \"#utility.yul\":1412:1416   */\n      0x40\n        /* \"#utility.yul\":1406:1417   */\n      dup1\n      mload\n      swap1\n        /* \"#utility.yul\":1444:1461   */\n      dup2\n      add\n        /* \"#utility.yul\":1491:1509   */\n      0xffffffffffffffff\n        /* \"#utility.yul\":1476:1510   */\n      dup2\n      gt\n        /* \"#utility.yul\":1512:1534   */\n      dup3\n      dup3\n      lt\n        /* \"#utility.yul\":1473:1535   */\n      or\n        /* \"#utility.yul\":1470:1558   */\n      iszero\n      tag_428\n      jumpi\n        /* \"#utility.yul\":1538:1556   */\n      tag_428\n      tag_335\n      jump\t// in\n    tag_428:\n        /* \"#utility.yul\":1574:1578   */\n      0x40\n        /* \"#utility.yul\":1567:1591   */\n      mstore\n        /* \"#utility.yul\":1340:1597   */\n      swap1\n      jump\t// out\n        /* \"#utility.yul\":1602:1855   */\n    tag_404:\n        /* \"#utility.yul\":1674:1676   */\n      0x40\n        /* \"#utility.yul\":1668:1677   */\n      mload\n        /* \"#utility.yul\":1716:1720   */\n      0x60\n        /* \"#utility.yul\":1704:1721   */\n      dup2\n      add\n        /* \"#utility.yul\":1751:1769   */\n      0xffffffffffffffff\n        /* \"#utility.yul\":1736:1770   */\n      dup2\n      gt\n        /* \"#utility.yul\":1772:1794   */\n      dup3\n      dup3\n      lt\n        /* \"#utility.yul\":1733:1795   */\n      or\n        /* \"#utility.yul\":1730:1818   */\n      iszero\n      tag_428\n      jumpi\n        /* \"#utility.yul\":1798:1816   */\n      tag_428\n      tag_335\n      jump\t// in\n        /* \"#utility.yul\":1860:2135   */\n    tag_405:\n        /* \"#utility.yul\":1931:1933   */\n      0x40\n        /* \"#utility.yul\":1925:1934   */\n      mload\n        /* \"#utility.yul\":1996:1998   */\n      0x1f\n        /* \"#utility.yul\":1977:1990   */\n      dup3\n      add\n      not(0x1f)\n        /* \"#utility.yul\":1973:2000   */\n      and\n        /* \"#utility.yul\":1961:2001   */\n      dup2\n      add\n        /* \"#utility.yul\":2031:2049   */\n      0xffffffffffffffff\n        /* \"#utility.yul\":2016:2050   */\n      dup2\n      gt\n        /* \"#utility.yul\":2052:2074   */\n      dup3\n      dup3\n      lt\n        /* \"#utility.yul\":2013:2075   */\n      or\n        /* \"#utility.yul\":2010:2098   */\n      iszero\n      tag_434\n      jumpi\n        /* \"#utility.yul\":2078:2096   */\n      tag_434\n      tag_335\n      jump\t// in\n    tag_434:\n        /* \"#utility.yul\":2114:2116   */\n      0x40\n        /* \"#utility.yul\":2107:2129   */\n      mstore\n        /* \"#utility.yul\":1860:2135   */\n      swap2\n      swap1\n      pop\n      jump\t// out\n        /* \"#utility.yul\":2140:2323   */\n    tag_406:\n        /* \"#utility.yul\":2200:2204   */\n      0x00\n        /* \"#utility.yul\":2233:2251   */\n      0xffffffffffffffff\n        /* \"#utility.yul\":2225:2231   */\n      dup3\n        /* \"#utility.yul\":2222:2252   */\n      gt\n        /* \"#utility.yul\":2219:2275   */\n      iszero\n      tag_437\n      jumpi\n        /* \"#utility.yul\":2255:2273   */\n      tag_437\n      tag_335\n      jump\t// in\n    tag_437:\n      pop\n        /* \"#utility.yul\":2300:2301   */\n      0x05\n        /* \"#utility.yul\":2296:2310   */\n      shl\n        /* \"#utility.yul\":2312:2316   */\n      0x20\n        /* \"#utility.yul\":2292:2317   */\n      add\n      swap1\n        /* \"#utility.yul\":2140:2323   */\n      jump\t// out\n        /* \"#utility.yul\":2328:2501   */\n    tag_407:\n        /* \"#utility.yul\":2396:2416   */\n      dup1\n      calldataload\n      sub(shl(0xa0, 0x01), 0x01)\n        /* \"#utility.yul\":2445:2476   */\n      dup2\n      and\n        /* \"#utility.yul\":2435:2477   */\n      dup2\n      eq\n        /* \"#utility.yul\":2425:2495   */\n      tag_439\n      jumpi\n        /* \"#utility.yul\":2491:2492   */\n      0x00\n        /* \"#utility.yul\":2488:2489   */\n      dup1\n        /* \"#utility.yul\":2481:2493   */\n      revert\n        /* \"#utility.yul\":2425:2495   */\n    tag_439:\n        /* \"#utility.yul\":2328:2501   */\n      swap2\n      swap1\n      pop\n      jump\t// out\n        /* \"#utility.yul\":2506:3174   */\n    tag_408:\n        /* \"#utility.yul\":2560:2565   */\n      0x00\n        /* \"#utility.yul\":2613:2616   */\n      dup3\n        /* \"#utility.yul\":2606:2610   */\n      0x1f\n        /* \"#utility.yul\":2598:2604   */\n      dup4\n        /* \"#utility.yul\":2594:2611   */\n      add\n        /* \"#utility.yul\":2590:2617   */\n      slt\n        /* \"#utility.yul\":2580:2635   */\n      tag_441\n      jumpi\n        /* \"#utility.yul\":2631:2632   */\n      0x00\n        /* \"#utility.yul\":2628:2629   */\n      dup1\n        /* \"#utility.yul\":2621:2633   */\n      revert\n        /* \"#utility.yul\":2580:2635   */\n    tag_441:\n        /* \"#utility.yul\":2667:2673   */\n      dup2\n        /* \"#utility.yul\":2654:2674   */\n      calldataload\n        /* \"#utility.yul\":2693:2697   */\n      0x20\n        /* \"#utility.yul\":2717:2777   */\n      tag_442\n        /* \"#utility.yul\":2733:2776   */\n      tag_443\n        /* \"#utility.yul\":2773:2775   */\n      dup4\n        /* \"#utility.yul\":2733:2776   */\n      tag_406\n      jump\t// in\n    tag_443:\n        /* \"#utility.yul\":2717:2777   */\n      tag_405\n      jump\t// in\n    tag_442:\n        /* \"#utility.yul\":2799:2802   */\n      dup1\n        /* \"#utility.yul\":2823:2825   */\n      dup4\n        /* \"#utility.yul\":2818:2821   */\n      dup3\n        /* \"#utility.yul\":2811:2826   */\n      mstore\n        /* \"#utility.yul\":2851:2855   */\n      0x20\n        /* \"#utility.yul\":2846:2849   */\n      dup3\n        /* \"#utility.yul\":2842:2856   */\n      add\n        /* \"#utility.yul\":2835:2856   */\n      swap2\n      pop\n        /* \"#utility.yul\":2908:2912   */\n      0x20\n        /* \"#utility.yul\":2902:2904   */\n      dup5\n        /* \"#utility.yul\":2899:2900   */\n      0x05\n        /* \"#utility.yul\":2895:2905   */\n      shl\n        /* \"#utility.yul\":2887:2893   */\n      dup8\n        /* \"#utility.yul\":2883:2906   */\n      add\n        /* \"#utility.yul\":2879:2913   */\n      add\n        /* \"#utility.yul\":2865:2913   */\n      swap4\n      pop\n        /* \"#utility.yul\":2936:2939   */\n      dup7\n        /* \"#utility.yul\":2928:2934   */\n      dup5\n        /* \"#utility.yul\":2925:2940   */\n      gt\n        /* \"#utility.yul\":2922:2957   */\n      iszero\n      tag_444\n      jumpi\n        /* \"#utility.yul\":2953:2954   */\n      0x00\n        /* \"#utility.yul\":2950:2951   */\n      dup1\n        /* \"#utility.yul\":2943:2955   */\n      revert\n        /* \"#utility.yul\":2922:2957   */\n    tag_444:\n        /* \"#utility.yul\":2989:2993   */\n      0x20\n        /* \"#utility.yul\":2981:2987   */\n      dup7\n        /* \"#utility.yul\":2977:2994   */\n      add\n        /* \"#utility.yul\":3003:3145   */\n    tag_445:\n        /* \"#utility.yul\":3019:3025   */\n      dup5\n        /* \"#utility.yul\":3014:3017   */\n      dup2\n        /* \"#utility.yul\":3011:3026   */\n      lt\n        /* \"#utility.yul\":3003:3145   */\n      iszero\n      tag_447\n      jumpi\n        /* \"#utility.yul\":3085:3102   */\n      dup1\n      calldataload\n        /* \"#utility.yul\":3073:3103   */\n      dup4\n      mstore\n        /* \"#utility.yul\":3123:3135   */\n      swap2\n      dup4\n      add\n      swap2\n        /* \"#utility.yul\":3036:3048   */\n      dup4\n      add\n        /* \"#utility.yul\":3003:3145   */\n      jump(tag_445)\n    tag_447:\n      pop\n        /* \"#utility.yul\":3163:3168   */\n      swap7\n        /* \"#utility.yul\":2506:3174   */\n      swap6\n      pop\n      pop\n      pop\n      pop\n      pop\n      pop\n      jump\t// out\n        /* \"#utility.yul\":3179:4067   */\n    tag_409:\n        /* \"#utility.yul\":3250:3255   */\n      0x00\n        /* \"#utility.yul\":3303:3306   */\n      dup3\n        /* \"#utility.yul\":3296:3300   */\n      0x1f\n        /* \"#utility.yul\":3288:3294   */\n      dup4\n        /* \"#utility.yul\":3284:3301   */\n      add\n        /* \"#utility.yul\":3280:3307   */\n      slt\n        /* \"#utility.yul\":3270:3325   */\n      tag_449\n      jumpi\n        /* \"#utility.yul\":3321:3322   */\n      0x00\n        /* \"#utility.yul\":3318:3319   */\n      dup1\n        /* \"#utility.yul\":3311:3323   */\n      revert\n        /* \"#utility.yul\":3270:3325   */\n    tag_449:\n        /* \"#utility.yul\":3357:3363   */\n      dup2\n        /* \"#utility.yul\":3344:3364   */\n      calldataload\n        /* \"#utility.yul\":3383:3387   */\n      0x20\n        /* \"#utility.yul\":3407:3467   */\n      tag_450\n        /* \"#utility.yul\":3423:3466   */\n      tag_443\n        /* \"#utility.yul\":3463:3465   */\n      dup4\n        /* \"#utility.yul\":3423:3466   */\n      tag_406\n      jump\t// in\n        /* \"#utility.yul\":3407:3467   */\n    tag_450:\n        /* \"#utility.yul\":3501:3516   */\n      dup3\n      dup2\n      mstore\n        /* \"#utility.yul\":3587:3588   */\n      0x06\n        /* \"#utility.yul\":3583:3593   */\n      swap3\n      swap1\n      swap3\n      shl\n        /* \"#utility.yul\":3571:3594   */\n      dup5\n      add\n        /* \"#utility.yul\":3567:3599   */\n      dup2\n      add\n      swap2\n        /* \"#utility.yul\":3532:3544   */\n      dup2\n      dup2\n      add\n      swap1\n        /* \"#utility.yul\":3611:3626   */\n      dup7\n      dup5\n      gt\n        /* \"#utility.yul\":3608:3643   */\n      iszero\n      tag_452\n      jumpi\n        /* \"#utility.yul\":3639:3640   */\n      0x00\n        /* \"#utility.yul\":3636:3637   */\n      dup1\n        /* \"#utility.yul\":3629:3641   */\n      revert\n        /* \"#utility.yul\":3608:3643   */\n    tag_452:\n        /* \"#utility.yul\":3675:3677   */\n      dup3\n        /* \"#utility.yul\":3667:3673   */\n      dup7\n        /* \"#utility.yul\":3663:3678   */\n      add\n        /* \"#utility.yul\":3687:4038   */\n    tag_453:\n        /* \"#utility.yul\":3703:3709   */\n      dup5\n        /* \"#utility.yul\":3698:3701   */\n      dup2\n        /* \"#utility.yul\":3695:3710   */\n      lt\n        /* \"#utility.yul\":3687:4038   */\n      iszero\n      tag_447\n      jumpi\n        /* \"#utility.yul\":3781:3785   */\n      0x40\n        /* \"#utility.yul\":3775:3778   */\n      dup2\n        /* \"#utility.yul\":3770:3773   */\n      dup10\n        /* \"#utility.yul\":3766:3779   */\n      sub\n        /* \"#utility.yul\":3762:3786   */\n      slt\n        /* \"#utility.yul\":3759:3803   */\n      iszero\n      tag_456\n      jumpi\n        /* \"#utility.yul\":3799:3800   */\n      0x00\n        /* \"#utility.yul\":3796:3797   */\n      dup1\n        /* \"#utility.yul\":3789:3801   */\n      revert\n        /* \"#utility.yul\":3759:3803   */\n    tag_456:\n        /* \"#utility.yul\":3829:3851   */\n      tag_457\n      tag_403\n      jump\t// in\n    tag_457:\n        /* \"#utility.yul\":3878:3901   */\n      tag_458\n        /* \"#utility.yul\":3897:3900   */\n      dup3\n        /* \"#utility.yul\":3878:3901   */\n      tag_407\n      jump\t// in\n    tag_458:\n        /* \"#utility.yul\":3864:3902   */\n      dup2\n      mstore\n        /* \"#utility.yul\":3951:3963   */\n      dup2\n      dup6\n      add\n        /* \"#utility.yul\":3938:3964   */\n      calldataload\n        /* \"#utility.yul\":3922:3936   */\n      dup6\n      dup3\n      add\n        /* \"#utility.yul\":3915:3965   */\n      mstore\n        /* \"#utility.yul\":3978:3996   */\n      dup4\n      mstore\n        /* \"#utility.yul\":4016:4028   */\n      swap2\n      dup4\n      add\n      swap2\n        /* \"#utility.yul\":3729:3733   */\n      0x40\n        /* \"#utility.yul\":3720:3734   */\n      add\n        /* \"#utility.yul\":3687:4038   */\n      jump(tag_453)\n        /* \"#utility.yul\":4072:5074   */\n    tag_410:\n        /* \"#utility.yul\":4141:4146   */\n      0x00\n        /* \"#utility.yul\":4194:4197   */\n      dup3\n        /* \"#utility.yul\":4187:4191   */\n      0x1f\n        /* \"#utility.yul\":4179:4185   */\n      dup4\n        /* \"#utility.yul\":4175:4192   */\n      add\n        /* \"#utility.yul\":4171:4198   */\n      slt\n        /* \"#utility.yul\":4161:4216   */\n      tag_460\n      jumpi\n        /* \"#utility.yul\":4212:4213   */\n      0x00\n        /* \"#utility.yul\":4209:4210   */\n      dup1\n        /* \"#utility.yul\":4202:4214   */\n      revert\n        /* \"#utility.yul\":4161:4216   */\n    tag_460:\n        /* \"#utility.yul\":4248:4254   */\n      dup2\n        /* \"#utility.yul\":4235:4255   */\n      calldataload\n        /* \"#utility.yul\":4274:4278   */\n      0x20\n        /* \"#utility.yul\":4298:4358   */\n      tag_461\n        /* \"#utility.yul\":4314:4357   */\n      tag_443\n        /* \"#utility.yul\":4354:4356   */\n      dup4\n        /* \"#utility.yul\":4314:4357   */\n      tag_406\n      jump\t// in\n        /* \"#utility.yul\":4298:4358   */\n    tag_461:\n        /* \"#utility.yul\":4392:4407   */\n      dup3\n      dup2\n      mstore\n        /* \"#utility.yul\":4454:4458   */\n      0x60\n        /* \"#utility.yul\":4497:4510   */\n      swap3\n      dup4\n      mul\n        /* \"#utility.yul\":4485:4511   */\n      dup6\n      add\n        /* \"#utility.yul\":4481:4516   */\n      dup3\n      add\n      swap3\n        /* \"#utility.yul\":4423:4435   */\n      dup3\n      dup3\n      add\n      swap2\n        /* \"#utility.yul\":4380:4383   */\n      swap1\n        /* \"#utility.yul\":4528:4543   */\n      dup8\n      dup6\n      gt\n        /* \"#utility.yul\":4525:4560   */\n      iszero\n      tag_463\n      jumpi\n        /* \"#utility.yul\":4556:4557   */\n      0x00\n        /* \"#utility.yul\":4553:4554   */\n      dup1\n        /* \"#utility.yul\":4546:4558   */\n      revert\n        /* \"#utility.yul\":4525:4560   */\n    tag_463:\n        /* \"#utility.yul\":4592:4594   */\n      dup4\n        /* \"#utility.yul\":4584:4590   */\n      dup8\n        /* \"#utility.yul\":4580:4595   */\n      add\n        /* \"#utility.yul\":4604:5045   */\n    tag_464:\n        /* \"#utility.yul\":4620:4626   */\n      dup6\n        /* \"#utility.yul\":4615:4618   */\n      dup2\n        /* \"#utility.yul\":4612:4627   */\n      lt\n        /* \"#utility.yul\":4604:5045   */\n      iszero\n      tag_466\n      jumpi\n        /* \"#utility.yul\":4696:4698   */\n      dup2\n        /* \"#utility.yul\":4690:4693   */\n      dup2\n        /* \"#utility.yul\":4685:4688   */\n      dup11\n        /* \"#utility.yul\":4681:4694   */\n      sub\n        /* \"#utility.yul\":4677:4699   */\n      slt\n        /* \"#utility.yul\":4674:4716   */\n      iszero\n      tag_467\n      jumpi\n        /* \"#utility.yul\":4712:4713   */\n      0x00\n        /* \"#utility.yul\":4709:4710   */\n      dup1\n        /* \"#utility.yul\":4702:4714   */\n      revert\n        /* \"#utility.yul\":4674:4716   */\n    tag_467:\n        /* \"#utility.yul\":4742:4764   */\n      tag_468\n      tag_404\n      jump\t// in\n    tag_468:\n        /* \"#utility.yul\":4791:4814   */\n      tag_469\n        /* \"#utility.yul\":4810:4813   */\n      dup3\n        /* \"#utility.yul\":4791:4814   */\n      tag_407\n      jump\t// in\n    tag_469:\n        /* \"#utility.yul\":4784:4789   */\n      dup2\n        /* \"#utility.yul\":4777:4815   */\n      mstore\n        /* \"#utility.yul\":4873:4875   */\n      dup6\n        /* \"#utility.yul\":4868:4871   */\n      dup3\n        /* \"#utility.yul\":4864:4876   */\n      add\n        /* \"#utility.yul\":4851:4877   */\n      calldataload\n        /* \"#utility.yul\":4846:4848   */\n      dup7\n        /* \"#utility.yul\":4839:4844   */\n      dup3\n        /* \"#utility.yul\":4835:4849   */\n      add\n        /* \"#utility.yul\":4828:4878   */\n      mstore\n        /* \"#utility.yul\":4901:4903   */\n      0x40\n        /* \"#utility.yul\":4939:4971   */\n      tag_470\n        /* \"#utility.yul\":4967:4969   */\n      dup2\n        /* \"#utility.yul\":4962:4965   */\n      dup5\n        /* \"#utility.yul\":4958:4970   */\n      add\n        /* \"#utility.yul\":4939:4971   */\n      tag_407\n      jump\t// in\n    tag_470:\n        /* \"#utility.yul\":4923:4937   */\n      swap1\n      dup3\n      add\n        /* \"#utility.yul\":4916:4972   */\n      mstore\n        /* \"#utility.yul\":4985:5003   */\n      dup5\n      mstore\n        /* \"#utility.yul\":5023:5035   */\n      swap3\n      dup5\n      add\n      swap3\n        /* \"#utility.yul\":4637:4649   */\n      dup2\n      add\n        /* \"#utility.yul\":4604:5045   */\n      jump(tag_464)\n    tag_466:\n      pop\n        /* \"#utility.yul\":5063:5068   */\n      swap1\n      swap8\n        /* \"#utility.yul\":4072:5074   */\n      swap7\n      pop\n      pop\n      pop\n      pop\n      pop\n      pop\n      pop\n      jump\t// out\n        /* \"#utility.yul\":5079:6776   */\n    tag_71:\n        /* \"#utility.yul\":5331:5337   */\n      0x00\n        /* \"#utility.yul\":5339:5345   */\n      dup1\n        /* \"#utility.yul\":5347:5353   */\n      0x00\n        /* \"#utility.yul\":5355:5361   */\n      dup1\n        /* \"#utility.yul\":5408:5411   */\n      0x80\n        /* \"#utility.yul\":5396:5405   */\n      dup6\n        /* \"#utility.yul\":5387:5394   */\n      dup8\n        /* \"#utility.yul\":5383:5406   */\n      sub\n        /* \"#utility.yul\":5379:5412   */\n      slt\n        /* \"#utility.yul\":5376:5429   */\n      iszero\n      tag_472\n      jumpi\n        /* \"#utility.yul\":5425:5426   */\n      0x00\n        /* \"#utility.yul\":5422:5423   */\n      dup1\n        /* \"#utility.yul\":5415:5427   */\n      revert\n        /* \"#utility.yul\":5376:5429   */\n    tag_472:\n        /* \"#utility.yul\":5465:5474   */\n      dup5\n        /* \"#utility.yul\":5452:5475   */\n      calldataload\n        /* \"#utility.yul\":5494:5512   */\n      0xffffffffffffffff\n        /* \"#utility.yul\":5535:5537   */\n      dup1\n        /* \"#utility.yul\":5527:5533   */\n      dup3\n        /* \"#utility.yul\":5524:5538   */\n      gt\n        /* \"#utility.yul\":5521:5555   */\n      iszero\n      tag_473\n      jumpi\n        /* \"#utility.yul\":5551:5552   */\n      0x00\n        /* \"#utility.yul\":5548:5549   */\n      dup1\n        /* \"#utility.yul\":5541:5553   */\n      revert\n        /* \"#utility.yul\":5521:5555   */\n    tag_473:\n        /* \"#utility.yul\":5589:5595   */\n      dup2\n        /* \"#utility.yul\":5578:5587   */\n      dup8\n        /* \"#utility.yul\":5574:5596   */\n      add\n        /* \"#utility.yul\":5564:5596   */\n      swap2\n      pop\n        /* \"#utility.yul\":5634:5641   */\n      dup8\n        /* \"#utility.yul\":5627:5631   */\n      0x1f\n        /* \"#utility.yul\":5623:5625   */\n      dup4\n        /* \"#utility.yul\":5619:5632   */\n      add\n        /* \"#utility.yul\":5615:5642   */\n      slt\n        /* \"#utility.yul\":5605:5660   */\n      tag_474\n      jumpi\n        /* \"#utility.yul\":5656:5657   */\n      0x00\n        /* \"#utility.yul\":5653:5654   */\n      dup1\n        /* \"#utility.yul\":5646:5658   */\n      revert\n        /* \"#utility.yul\":5605:5660   */\n    tag_474:\n        /* \"#utility.yul\":5692:5694   */\n      dup2\n        /* \"#utility.yul\":5679:5695   */\n      calldataload\n        /* \"#utility.yul\":5714:5718   */\n      0x20\n        /* \"#utility.yul\":5738:5798   */\n      tag_475\n        /* \"#utility.yul\":5754:5797   */\n      tag_443\n        /* \"#utility.yul\":5794:5796   */\n      dup4\n        /* \"#utility.yul\":5754:5797   */\n      tag_406\n      jump\t// in\n        /* \"#utility.yul\":5738:5798   */\n    tag_475:\n        /* \"#utility.yul\":5832:5847   */\n      dup3\n      dup2\n      mstore\n        /* \"#utility.yul\":5914:5915   */\n      0x05\n        /* \"#utility.yul\":5910:5920   */\n      swap3\n      swap1\n      swap3\n      shl\n        /* \"#utility.yul\":5902:5921   */\n      dup5\n      add\n        /* \"#utility.yul\":5898:5926   */\n      dup2\n      add\n      swap2\n        /* \"#utility.yul\":5863:5875   */\n      dup2\n      dup2\n      add\n      swap1\n        /* \"#utility.yul\":5938:5957   */\n      dup12\n      dup5\n      gt\n        /* \"#utility.yul\":5935:5974   */\n      iszero\n      tag_477\n      jumpi\n        /* \"#utility.yul\":5970:5971   */\n      0x00\n        /* \"#utility.yul\":5967:5968   */\n      dup1\n        /* \"#utility.yul\":5960:5972   */\n      revert\n        /* \"#utility.yul\":5935:5974   */\n    tag_477:\n        /* \"#utility.yul\":5994:6005   */\n      swap5\n      dup3\n      add\n      swap5\n        /* \"#utility.yul\":6014:6162   */\n    tag_478:\n        /* \"#utility.yul\":6030:6036   */\n      dup4\n        /* \"#utility.yul\":6025:6028   */\n      dup7\n        /* \"#utility.yul\":6022:6037   */\n      lt\n        /* \"#utility.yul\":6014:6162   */\n      iszero\n      tag_480\n      jumpi\n        /* \"#utility.yul\":6096:6119   */\n      tag_481\n        /* \"#utility.yul\":6115:6118   */\n      dup7\n        /* \"#utility.yul\":6096:6119   */\n      tag_407\n      jump\t// in\n    tag_481:\n        /* \"#utility.yul\":6084:6120   */\n      dup3\n      mstore\n        /* \"#utility.yul\":6047:6059   */\n      swap5\n      dup3\n      add\n      swap5\n        /* \"#utility.yul\":6140:6152   */\n      swap1\n      dup3\n      add\n      swap1\n        /* \"#utility.yul\":6014:6162   */\n      jump(tag_478)\n    tag_480:\n        /* \"#utility.yul\":6181:6186   */\n      swap9\n      pop\n      pop\n        /* \"#utility.yul\":6224:6242   */\n      dup9\n      add\n        /* \"#utility.yul\":6211:6243   */\n      calldataload\n      swap3\n      pop\n      pop\n        /* \"#utility.yul\":6255:6271   */\n      dup1\n      dup3\n      gt\n        /* \"#utility.yul\":6252:6288   */\n      iszero\n      tag_482\n      jumpi\n        /* \"#utility.yul\":6284:6285   */\n      0x00\n        /* \"#utility.yul\":6281:6282   */\n      dup1\n        /* \"#utility.yul\":6274:6286   */\n      revert\n        /* \"#utility.yul\":6252:6288   */\n    tag_482:\n        /* \"#utility.yul\":6307:6370   */\n      tag_483\n        /* \"#utility.yul\":6362:6369   */\n      dup9\n        /* \"#utility.yul\":6351:6359   */\n      dup4\n        /* \"#utility.yul\":6340:6349   */\n      dup10\n        /* \"#utility.yul\":6336:6360   */\n      add\n        /* \"#utility.yul\":6307:6370   */\n      tag_408\n      jump\t// in\n    tag_483:\n        /* \"#utility.yul\":6297:6370   */\n      swap5\n      pop\n        /* \"#utility.yul\":6423:6425   */\n      0x40\n        /* \"#utility.yul\":6412:6421   */\n      dup8\n        /* \"#utility.yul\":6408:6426   */\n      add\n        /* \"#utility.yul\":6395:6427   */\n      calldataload\n        /* \"#utility.yul\":6379:6427   */\n      swap2\n      pop\n        /* \"#utility.yul\":6452:6454   */\n      dup1\n        /* \"#utility.yul\":6442:6450   */\n      dup3\n        /* \"#utility.yul\":6439:6455   */\n      gt\n        /* \"#utility.yul\":6436:6472   */\n      iszero\n      tag_484\n      jumpi\n        /* \"#utility.yul\":6468:6469   */\n      0x00\n        /* \"#utility.yul\":6465:6466   */\n      dup1\n        /* \"#utility.yul\":6458:6470   */\n      revert\n        /* \"#utility.yul\":6436:6472   */\n    tag_484:\n        /* \"#utility.yul\":6491:6571   */\n      tag_485\n        /* \"#utility.yul\":6563:6570   */\n      dup9\n        /* \"#utility.yul\":6552:6560   */\n      dup4\n        /* \"#utility.yul\":6541:6550   */\n      dup10\n        /* \"#utility.yul\":6537:6561   */\n      add\n        /* \"#utility.yul\":6491:6571   */\n      tag_409\n      jump\t// in\n    tag_485:\n        /* \"#utility.yul\":6481:6571   */\n      swap4\n      pop\n        /* \"#utility.yul\":6624:6626   */\n      0x60\n        /* \"#utility.yul\":6613:6622   */\n      dup8\n        /* \"#utility.yul\":6609:6627   */\n      add\n        /* \"#utility.yul\":6596:6628   */\n      calldataload\n        /* \"#utility.yul\":6580:6628   */\n      swap2\n      pop\n        /* \"#utility.yul\":6653:6655   */\n      dup1\n        /* \"#utility.yul\":6643:6651   */\n      dup3\n        /* \"#utility.yul\":6640:6656   */\n      gt\n        /* \"#utility.yul\":6637:6673   */\n      iszero\n      tag_486\n      jumpi\n        /* \"#utility.yul\":6669:6670   */\n      0x00\n        /* \"#utility.yul\":6666:6667   */\n      dup1\n        /* \"#utility.yul\":6659:6671   */\n      revert\n        /* \"#utility.yul\":6637:6673   */\n    tag_486:\n      pop\n        /* \"#utility.yul\":6692:6770   */\n      tag_487\n        /* \"#utility.yul\":6762:6769   */\n      dup8\n        /* \"#utility.yul\":6751:6759   */\n      dup3\n        /* \"#utility.yul\":6740:6749   */\n      dup9\n        /* \"#utility.yul\":6736:6760   */\n      add\n        /* \"#utility.yul\":6692:6770   */\n      tag_410\n      jump\t// in\n    tag_487:\n        /* \"#utility.yul\":6682:6770   */\n      swap2\n      pop\n      pop\n        /* \"#utility.yul\":5079:6776   */\n      swap3\n      swap6\n      swap2\n      swap5\n      pop\n      swap3\n      pop\n      jump\t// out\n        /* \"#utility.yul\":6781:7246   */\n    tag_411:\n        /* \"#utility.yul\":6834:6837   */\n      0x00\n        /* \"#utility.yul\":6872:6877   */\n      dup2\n        /* \"#utility.yul\":6866:6878   */\n      mload\n        /* \"#utility.yul\":6899:6905   */\n      dup1\n        /* \"#utility.yul\":6894:6897   */\n      dup5\n        /* \"#utility.yul\":6887:6906   */\n      mstore\n        /* \"#utility.yul\":6925:6929   */\n      0x20\n        /* \"#utility.yul\":6954:6958   */\n      dup1\n        /* \"#utility.yul\":6949:6952   */\n      dup6\n        /* \"#utility.yul\":6945:6959   */\n      add\n        /* \"#utility.yul\":6938:6959   */\n      swap5\n      pop\n        /* \"#utility.yul\":6993:6997   */\n      0x20\n        /* \"#utility.yul\":6986:6991   */\n      dup5\n        /* \"#utility.yul\":6982:6998   */\n      add\n        /* \"#utility.yul\":7016:7017   */\n      0x00\n        /* \"#utility.yul\":7026:7221   */\n    tag_489:\n        /* \"#utility.yul\":7040:7046   */\n      dup4\n        /* \"#utility.yul\":7037:7038   */\n      dup2\n        /* \"#utility.yul\":7034:7047   */\n      lt\n        /* \"#utility.yul\":7026:7221   */\n      iszero\n      tag_491\n      jumpi\n        /* \"#utility.yul\":7105:7118   */\n      dup2\n      mload\n      sub(shl(0xa0, 0x01), 0x01)\n        /* \"#utility.yul\":7101:7140   */\n      and\n        /* \"#utility.yul\":7089:7141   */\n      dup8\n      mstore\n        /* \"#utility.yul\":7161:7173   */\n      swap6\n      dup3\n      add\n      swap6\n        /* \"#utility.yul\":7196:7211   */\n      swap1\n      dup3\n      add\n      swap1\n        /* \"#utility.yul\":7137:7138   */\n      0x01\n        /* \"#utility.yul\":7055:7064   */\n      add\n        /* \"#utility.yul\":7026:7221   */\n      jump(tag_489)\n    tag_491:\n      pop\n        /* \"#utility.yul\":7237:7240   */\n      swap5\n      swap6\n        /* \"#utility.yul\":6781:7246   */\n      swap5\n      pop\n      pop\n      pop\n      pop\n      pop\n      jump\t// out\n        /* \"#utility.yul\":7251:7690   */\n    tag_412:\n        /* \"#utility.yul\":7304:7307   */\n      0x00\n        /* \"#utility.yul\":7342:7347   */\n      dup2\n        /* \"#utility.yul\":7336:7348   */\n      mload\n        /* \"#utility.yul\":7369:7375   */\n      dup1\n        /* \"#utility.yul\":7364:7367   */\n      dup5\n        /* \"#utility.yul\":7357:7376   */\n      mstore\n        /* \"#utility.yul\":7395:7399   */\n      0x20\n        /* \"#utility.yul\":7424:7428   */\n      dup1\n        /* \"#utility.yul\":7419:7422   */\n      dup6\n        /* \"#utility.yul\":7415:7429   */\n      add\n        /* \"#utility.yul\":7408:7429   */\n      swap5\n      pop\n        /* \"#utility.yul\":7463:7467   */\n      0x20\n        /* \"#utility.yul\":7456:7461   */\n      dup5\n        /* \"#utility.yul\":7452:7468   */\n      add\n        /* \"#utility.yul\":7486:7487   */\n      0x00\n        /* \"#utility.yul\":7496:7665   */\n    tag_493:\n        /* \"#utility.yul\":7510:7516   */\n      dup4\n        /* \"#utility.yul\":7507:7508   */\n      dup2\n        /* \"#utility.yul\":7504:7517   */\n      lt\n        /* \"#utility.yul\":7496:7665   */\n      iszero\n      tag_491\n      jumpi\n        /* \"#utility.yul\":7571:7584   */\n      dup2\n      mload\n        /* \"#utility.yul\":7559:7585   */\n      dup8\n      mstore\n        /* \"#utility.yul\":7605:7617   */\n      swap6\n      dup3\n      add\n      swap6\n        /* \"#utility.yul\":7640:7655   */\n      swap1\n      dup3\n      add\n      swap1\n        /* \"#utility.yul\":7532:7533   */\n      0x01\n        /* \"#utility.yul\":7525:7534   */\n      add\n        /* \"#utility.yul\":7496:7665   */\n      jump(tag_493)\n        /* \"#utility.yul\":7695:8258   */\n    tag_413:\n        /* \"#utility.yul\":7759:7762   */\n      0x00\n        /* \"#utility.yul\":7797:7802   */\n      dup2\n        /* \"#utility.yul\":7791:7803   */\n      mload\n        /* \"#utility.yul\":7824:7830   */\n      dup1\n        /* \"#utility.yul\":7819:7822   */\n      dup5\n        /* \"#utility.yul\":7812:7831   */\n      mstore\n        /* \"#utility.yul\":7850:7854   */\n      0x20\n        /* \"#utility.yul\":7879:7883   */\n      dup1\n        /* \"#utility.yul\":7874:7877   */\n      dup6\n        /* \"#utility.yul\":7870:7884   */\n      add\n        /* \"#utility.yul\":7863:7884   */\n      swap5\n      pop\n        /* \"#utility.yul\":7918:7922   */\n      0x20\n        /* \"#utility.yul\":7911:7916   */\n      dup5\n        /* \"#utility.yul\":7907:7923   */\n      add\n        /* \"#utility.yul\":7941:7942   */\n      0x00\n        /* \"#utility.yul\":7951:8233   */\n    tag_497:\n        /* \"#utility.yul\":7965:7971   */\n      dup4\n        /* \"#utility.yul\":7962:7963   */\n      dup2\n        /* \"#utility.yul\":7959:7972   */\n      lt\n        /* \"#utility.yul\":7951:8233   */\n      iszero\n      tag_491\n      jumpi\n        /* \"#utility.yul\":8024:8037   */\n      dup2\n      mload\n        /* \"#utility.yul\":8066:8075   */\n      dup1\n      mload\n      sub(shl(0xa0, 0x01), 0x01)\n        /* \"#utility.yul\":8062:8097   */\n      and\n        /* \"#utility.yul\":8050:8098   */\n      dup9\n      mstore\n        /* \"#utility.yul\":8138:8149   */\n      dup4\n      add\n        /* \"#utility.yul\":8132:8150   */\n      mload\n        /* \"#utility.yul\":8118:8130   */\n      dup4\n      dup9\n      add\n        /* \"#utility.yul\":8111:8151   */\n      mstore\n        /* \"#utility.yul\":8180:8184   */\n      0x40\n        /* \"#utility.yul\":8171:8185   */\n      swap1\n      swap7\n      add\n      swap6\n        /* \"#utility.yul\":8208:8223   */\n      swap1\n      dup3\n      add\n      swap1\n        /* \"#utility.yul\":8094:8095   */\n      0x01\n        /* \"#utility.yul\":7980:7989   */\n      add\n        /* \"#utility.yul\":7951:8233   */\n      jump(tag_497)\n        /* \"#utility.yul\":8263:8941   */\n    tag_414:\n        /* \"#utility.yul\":8328:8331   */\n      0x00\n        /* \"#utility.yul\":8366:8371   */\n      dup2\n        /* \"#utility.yul\":8360:8372   */\n      mload\n        /* \"#utility.yul\":8393:8399   */\n      dup1\n        /* \"#utility.yul\":8388:8391   */\n      dup5\n        /* \"#utility.yul\":8381:8400   */\n      mstore\n        /* \"#utility.yul\":8419:8423   */\n      0x20\n        /* \"#utility.yul\":8448:8452   */\n      dup1\n        /* \"#utility.yul\":8443:8446   */\n      dup6\n        /* \"#utility.yul\":8439:8453   */\n      add\n        /* \"#utility.yul\":8432:8453   */\n      swap5\n      pop\n        /* \"#utility.yul\":8487:8491   */\n      0x20\n        /* \"#utility.yul\":8480:8485   */\n      dup5\n        /* \"#utility.yul\":8476:8492   */\n      add\n        /* \"#utility.yul\":8510:8511   */\n      0x00\n        /* \"#utility.yul\":8520:8916   */\n    tag_501:\n        /* \"#utility.yul\":8534:8540   */\n      dup4\n        /* \"#utility.yul\":8531:8532   */\n      dup2\n        /* \"#utility.yul\":8528:8541   */\n      lt\n        /* \"#utility.yul\":8520:8916   */\n      iszero\n      tag_491\n      jumpi\n        /* \"#utility.yul\":8593:8606   */\n      dup2\n      mload\n        /* \"#utility.yul\":8677:8686   */\n      dup1\n      mload\n      sub(shl(0xa0, 0x01), 0x01)\n        /* \"#utility.yul\":8673:8691   */\n      swap1\n      dup2\n      and\n        /* \"#utility.yul\":8661:8692   */\n      dup10\n      mstore\n        /* \"#utility.yul\":8732:8743   */\n      dup5\n      dup3\n      add\n        /* \"#utility.yul\":8726:8744   */\n      mload\n        /* \"#utility.yul\":8712:8724   */\n      dup6\n      dup11\n      add\n        /* \"#utility.yul\":8705:8745   */\n      mstore\n        /* \"#utility.yul\":8768:8772   */\n      0x40\n        /* \"#utility.yul\":8816:8827   */\n      swap2\n      dup3\n      add\n        /* \"#utility.yul\":8810:8828   */\n      mload\n        /* \"#utility.yul\":8806:8833   */\n      and\n        /* \"#utility.yul\":8792:8804   */\n      swap1\n      dup9\n      add\n        /* \"#utility.yul\":8785:8834   */\n      mstore\n        /* \"#utility.yul\":8863:8867   */\n      0x60\n        /* \"#utility.yul\":8854:8868   */\n      swap1\n      swap7\n      add\n      swap6\n        /* \"#utility.yul\":8891:8906   */\n      swap1\n      dup3\n      add\n      swap1\n        /* \"#utility.yul\":8646:8647   */\n      0x01\n        /* \"#utility.yul\":8549:8558   */\n      add\n        /* \"#utility.yul\":8520:8916   */\n      jump(tag_501)\n        /* \"#utility.yul\":8946:10489   */\n    tag_82:\n        /* \"#utility.yul\":9131:9133   */\n      0x20\n        /* \"#utility.yul\":9120:9129   */\n      dup2\n        /* \"#utility.yul\":9113:9134   */\n      mstore\n        /* \"#utility.yul\":9143:9196   */\n      tag_505\n        /* \"#utility.yul\":9192:9194   */\n      0x20\n        /* \"#utility.yul\":9181:9190   */\n      dup3\n        /* \"#utility.yul\":9177:9195   */\n      add\n        /* \"#utility.yul\":9168:9174   */\n      dup4\n        /* \"#utility.yul\":9162:9175   */\n      mload\n      sub(shl(0xa0, 0x01), 0x01)\n        /* \"#utility.yul\":265:296   */\n      and\n        /* \"#utility.yul\":253:297   */\n      swap1\n      mstore\n        /* \"#utility.yul\":199:303   */\n      jump\n        /* \"#utility.yul\":9143:9196   */\n    tag_505:\n        /* \"#utility.yul\":9250:9252   */\n      0x20\n        /* \"#utility.yul\":9242:9248   */\n      dup3\n        /* \"#utility.yul\":9238:9253   */\n      add\n        /* \"#utility.yul\":9232:9254   */\n      mload\n        /* \"#utility.yul\":9227:9229   */\n      0x40\n        /* \"#utility.yul\":9216:9225   */\n      dup3\n        /* \"#utility.yul\":9212:9230   */\n      add\n        /* \"#utility.yul\":9205:9255   */\n      mstore\n        /* \"#utility.yul\":9309:9311   */\n      0x40\n        /* \"#utility.yul\":9301:9307   */\n      dup3\n        /* \"#utility.yul\":9297:9312   */\n      add\n        /* \"#utility.yul\":9291:9313   */\n      mload\n        /* \"#utility.yul\":9286:9288   */\n      0x60\n        /* \"#utility.yul\":9275:9284   */\n      dup3\n        /* \"#utility.yul\":9271:9289   */\n      add\n        /* \"#utility.yul\":9264:9314   */\n      mstore\n        /* \"#utility.yul\":9094:9098   */\n      0x00\n        /* \"#utility.yul\":9361:9363   */\n      0x60\n        /* \"#utility.yul\":9353:9359   */\n      dup4\n        /* \"#utility.yul\":9349:9364   */\n      add\n        /* \"#utility.yul\":9343:9365   */\n      mload\n        /* \"#utility.yul\":9374:9424   */\n      tag_506\n        /* \"#utility.yul\":9419:9422   */\n      0x80\n        /* \"#utility.yul\":9408:9417   */\n      dup5\n        /* \"#utility.yul\":9404:9423   */\n      add\n        /* \"#utility.yul\":9390:9402   */\n      dup3\n        /* \"#utility.yul\":768:781   */\n      iszero\n        /* \"#utility.yul\":761:782   */\n      iszero\n        /* \"#utility.yul\":749:783   */\n      swap1\n      mstore\n        /* \"#utility.yul\":698:789   */\n      jump\n        /* \"#utility.yul\":9374:9424   */\n    tag_506:\n      pop\n        /* \"#utility.yul\":9473:9476   */\n      0x80\n        /* \"#utility.yul\":9461:9477   */\n      dup4\n      add\n        /* \"#utility.yul\":9455:9478   */\n      mload\n        /* \"#utility.yul\":768:781   */\n      dup1\n      iszero\n        /* \"#utility.yul\":761:782   */\n      iszero\n        /* \"#utility.yul\":9534:9537   */\n      0xa0\n        /* \"#utility.yul\":9519:9538   */\n      dup5\n      add\n        /* \"#utility.yul\":749:783   */\n      mstore\n        /* \"#utility.yul\":9487:9539   */\n      pop\n        /* \"#utility.yul\":9594:9597   */\n      0xa0\n        /* \"#utility.yul\":9586:9592   */\n      dup4\n        /* \"#utility.yul\":9582:9598   */\n      add\n        /* \"#utility.yul\":9576:9599   */\n      mload\n        /* \"#utility.yul\":9570:9573   */\n      0xc0\n        /* \"#utility.yul\":9559:9568   */\n      dup4\n        /* \"#utility.yul\":9555:9574   */\n      add\n        /* \"#utility.yul\":9548:9600   */\n      mstore\n        /* \"#utility.yul\":9649:9652   */\n      0xc0\n        /* \"#utility.yul\":9641:9647   */\n      dup4\n        /* \"#utility.yul\":9637:9653   */\n      add\n        /* \"#utility.yul\":9631:9654   */\n      mload\n        /* \"#utility.yul\":9673:9679   */\n      0x0140\n        /* \"#utility.yul\":9716:9718   */\n      dup1\n        /* \"#utility.yul\":9710:9713   */\n      0xe0\n        /* \"#utility.yul\":9699:9708   */\n      dup6\n        /* \"#utility.yul\":9695:9714   */\n      add\n        /* \"#utility.yul\":9688:9719   */\n      mstore\n        /* \"#utility.yul\":9742:9807   */\n      tag_508\n        /* \"#utility.yul\":9802:9805   */\n      0x0160\n        /* \"#utility.yul\":9791:9800   */\n      dup6\n        /* \"#utility.yul\":9787:9806   */\n      add\n        /* \"#utility.yul\":9771:9785   */\n      dup4\n        /* \"#utility.yul\":9742:9807   */\n      tag_411\n      jump\t// in\n    tag_508:\n        /* \"#utility.yul\":9728:9807   */\n      swap2\n      pop\n        /* \"#utility.yul\":9856:9859   */\n      0xe0\n        /* \"#utility.yul\":9848:9854   */\n      dup6\n        /* \"#utility.yul\":9844:9860   */\n      add\n        /* \"#utility.yul\":9838:9861   */\n      mload\n        /* \"#utility.yul\":9884:9886   */\n      0x1f\n        /* \"#utility.yul\":9880:9887   */\n      not\n        /* \"#utility.yul\":9906:9909   */\n      0x0100\n        /* \"#utility.yul\":9973:9975   */\n      dup2\n        /* \"#utility.yul\":9961:9970   */\n      dup8\n        /* \"#utility.yul\":9953:9959   */\n      dup7\n        /* \"#utility.yul\":9949:9971   */\n      sub\n        /* \"#utility.yul\":9945:9976   */\n      add\n        /* \"#utility.yul\":9940:9942   */\n      dup2\n        /* \"#utility.yul\":9929:9938   */\n      dup9\n        /* \"#utility.yul\":9925:9943   */\n      add\n        /* \"#utility.yul\":9918:9977   */\n      mstore\n        /* \"#utility.yul\":10000:10052   */\n      tag_509\n        /* \"#utility.yul\":10045:10051   */\n      dup6\n        /* \"#utility.yul\":10029:10043   */\n      dup5\n        /* \"#utility.yul\":10000:10052   */\n      tag_412\n      jump\t// in\n    tag_509:\n        /* \"#utility.yul\":9986:10052   */\n      swap5\n      pop\n        /* \"#utility.yul\":10101:10103   */\n      dup1\n        /* \"#utility.yul\":10093:10099   */\n      dup9\n        /* \"#utility.yul\":10089:10104   */\n      add\n        /* \"#utility.yul\":10083:10105   */\n      mload\n        /* \"#utility.yul\":10061:10105   */\n      swap3\n      pop\n      pop\n        /* \"#utility.yul\":10124:10127   */\n      0x0120\n        /* \"#utility.yul\":10191:10193   */\n      dup2\n        /* \"#utility.yul\":10179:10188   */\n      dup8\n        /* \"#utility.yul\":10171:10177   */\n      dup7\n        /* \"#utility.yul\":10167:10189   */\n      sub\n        /* \"#utility.yul\":10163:10194   */\n      add\n        /* \"#utility.yul\":10158:10160   */\n      dup2\n        /* \"#utility.yul\":10147:10156   */\n      dup9\n        /* \"#utility.yul\":10143:10161   */\n      add\n        /* \"#utility.yul\":10136:10195   */\n      mstore\n        /* \"#utility.yul\":10218:10281   */\n      tag_510\n        /* \"#utility.yul\":10274:10280   */\n      dup6\n        /* \"#utility.yul\":10258:10272   */\n      dup5\n        /* \"#utility.yul\":10218:10281   */\n      tag_413\n      jump\t// in\n    tag_510:\n        /* \"#utility.yul\":10318:10333   */\n      swap1\n      dup9\n      add\n        /* \"#utility.yul\":10312:10334   */\n      mload\n        /* \"#utility.yul\":10374:10396   */\n      dup8\n      dup3\n      sub\n        /* \"#utility.yul\":10370:10401   */\n      swap1\n      swap3\n      add\n        /* \"#utility.yul\":10350:10368   */\n      dup5\n      dup9\n      add\n        /* \"#utility.yul\":10343:10402   */\n      mstore\n        /* \"#utility.yul\":10204:10281   */\n      swap4\n      pop\n        /* \"#utility.yul\":10312:10334   */\n      swap1\n      pop\n        /* \"#utility.yul\":10419:10483   */\n      tag_511\n        /* \"#utility.yul\":10204:10281   */\n      dup4\n        /* \"#utility.yul\":10312:10334   */\n      dup3\n        /* \"#utility.yul\":10419:10483   */\n      tag_414\n      jump\t// in\n    tag_511:\n        /* \"#utility.yul\":10411:10483   */\n      swap7\n        /* \"#utility.yul\":8946:10489   */\n      swap6\n      pop\n      pop\n      pop\n      pop\n      pop\n      pop\n      jump\t// out\n        /* \"#utility.yul\":10889:11075   */\n    tag_93:\n        /* \"#utility.yul\":10948:10954   */\n      0x00\n        /* \"#utility.yul\":11001:11003   */\n      0x20\n        /* \"#utility.yul\":10989:10998   */\n      dup3\n        /* \"#utility.yul\":10980:10987   */\n      dup5\n        /* \"#utility.yul\":10976:10999   */\n      sub\n        /* \"#utility.yul\":10972:11004   */\n      slt\n        /* \"#utility.yul\":10969:11021   */\n      iszero\n      tag_514\n      jumpi\n        /* \"#utility.yul\":11017:11018   */\n      0x00\n        /* \"#utility.yul\":11014:11015   */\n      dup1\n        /* \"#utility.yul\":11007:11019   */\n      revert\n        /* \"#utility.yul\":10969:11021   */\n    tag_514:\n        /* \"#utility.yul\":11040:11069   */\n      tag_515\n        /* \"#utility.yul\":11059:11068   */\n      dup3\n        /* \"#utility.yul\":11040:11069   */\n      tag_407\n      jump\t// in\n    tag_515:\n        /* \"#utility.yul\":11030:11069   */\n      swap4\n        /* \"#utility.yul\":10889:11075   */\n      swap3\n      pop\n      pop\n      pop\n      jump\t// out\n        /* \"#utility.yul\":11080:11480   */\n    tag_102:\n        /* \"#utility.yul\":11282:11284   */\n      0x20\n        /* \"#utility.yul\":11264:11285   */\n      dup1\n      dup3\n      mstore\n        /* \"#utility.yul\":11321:11323   */\n      0x24\n        /* \"#utility.yul\":11301:11319   */\n      swap1\n      dup3\n      add\n        /* \"#utility.yul\":11294:11324   */\n      mstore\n        /* \"#utility.yul\":11360:11394   */\n      0x57696c6c20686173206265656e206578656375746564206f722063616e63656c\n        /* \"#utility.yul\":11355:11357   */\n      0x40\n        /* \"#utility.yul\":11340:11358   */\n      dup3\n      add\n        /* \"#utility.yul\":11333:11395   */\n      mstore\n      shl(0xe1, 0x3632b217)\n        /* \"#utility.yul\":11426:11428   */\n      0x60\n        /* \"#utility.yul\":11411:11429   */\n      dup3\n      add\n        /* \"#utility.yul\":11404:11438   */\n      mstore\n        /* \"#utility.yul\":11470:11473   */\n      0x80\n        /* \"#utility.yul\":11455:11474   */\n      add\n      swap1\n        /* \"#utility.yul\":11080:11480   */\n      jump\t// out\n        /* \"#utility.yul\":11485:11887   */\n    tag_106:\n        /* \"#utility.yul\":11687:11689   */\n      0x20\n        /* \"#utility.yul\":11669:11690   */\n      dup1\n      dup3\n      mstore\n        /* \"#utility.yul\":11726:11728   */\n      0x26\n        /* \"#utility.yul\":11706:11724   */\n      swap1\n      dup3\n      add\n        /* \"#utility.yul\":11699:11729   */\n      mstore\n        /* \"#utility.yul\":11765:11799   */\n      0x4f6e6c7920746865206f776e65722063616e2063616c6c20746869732066756e\n        /* \"#utility.yul\":11760:11762   */\n      0x40\n        /* \"#utility.yul\":11745:11763   */\n      dup3\n      add\n        /* \"#utility.yul\":11738:11800   */\n      mstore\n      shl(0xd1, 0x31ba34b7b717)\n        /* \"#utility.yul\":11831:11833   */\n      0x60\n        /* \"#utility.yul\":11816:11834   */\n      dup3\n      add\n        /* \"#utility.yul\":11809:11845   */\n      mstore\n        /* \"#utility.yul\":11877:11880   */\n      0x80\n        /* \"#utility.yul\":11862:11881   */\n      add\n      swap1\n        /* \"#utility.yul\":11485:11887   */\n      jump\t// out\n        /* \"#utility.yul\":11892:12019   */\n    tag_415:\n        /* \"#utility.yul\":11953:11963   */\n      0x4e487b71\n        /* \"#utility.yul\":11948:11951   */\n      0xe0\n        /* \"#utility.yul\":11944:11964   */\n      shl\n        /* \"#utility.yul\":11941:11942   */\n      0x00\n        /* \"#utility.yul\":11934:11965   */\n      mstore\n        /* \"#utility.yul\":11984:11988   */\n      0x11\n        /* \"#utility.yul\":11981:11982   */\n      0x04\n        /* \"#utility.yul\":11974:11989   */\n      mstore\n        /* \"#utility.yul\":12008:12012   */\n      0x24\n        /* \"#utility.yul\":12005:12006   */\n      0x00\n        /* \"#utility.yul\":11998:12013   */\n      revert\n        /* \"#utility.yul\":12024:12149   */\n    tag_116:\n        /* \"#utility.yul\":12089:12098   */\n      dup1\n      dup3\n      add\n        /* \"#utility.yul\":12110:12120   */\n      dup1\n      dup3\n      gt\n        /* \"#utility.yul\":12107:12143   */\n      iszero\n      tag_521\n      jumpi\n        /* \"#utility.yul\":12123:12141   */\n      tag_521\n      tag_415\n      jump\t// in\n    tag_521:\n        /* \"#utility.yul\":12024:12149   */\n      swap3\n      swap2\n      pop\n      pop\n      jump\t// out\n        /* \"#utility.yul\":12926:13094   */\n    tag_132:\n        /* \"#utility.yul\":12999:13008   */\n      dup1\n      dup3\n      mul\n        /* \"#utility.yul\":13030:13039   */\n      dup2\n      iszero\n        /* \"#utility.yul\":13047:13062   */\n      dup3\n      dup3\n      div\n        /* \"#utility.yul\":13041:13063   */\n      dup5\n      eq\n        /* \"#utility.yul\":13027:13064   */\n      or\n        /* \"#utility.yul\":13017:13088   */\n      tag_521\n      jumpi\n        /* \"#utility.yul\":13068:13086   */\n      tag_521\n      tag_415\n      jump\t// in\n        /* \"#utility.yul\":13099:13316   */\n    tag_134:\n        /* \"#utility.yul\":13139:13140   */\n      0x00\n        /* \"#utility.yul\":13165:13166   */\n      dup3\n        /* \"#utility.yul\":13155:13287   */\n      tag_528\n      jumpi\n        /* \"#utility.yul\":13209:13219   */\n      0x4e487b71\n        /* \"#utility.yul\":13204:13207   */\n      0xe0\n        /* \"#utility.yul\":13200:13220   */\n      shl\n        /* \"#utility.yul\":13197:13198   */\n      0x00\n        /* \"#utility.yul\":13190:13221   */\n      mstore\n        /* \"#utility.yul\":13244:13248   */\n      0x12\n        /* \"#utility.yul\":13241:13242   */\n      0x04\n        /* \"#utility.yul\":13234:13249   */\n      mstore\n        /* \"#utility.yul\":13272:13276   */\n      0x24\n        /* \"#utility.yul\":13269:13270   */\n      0x00\n        /* \"#utility.yul\":13262:13277   */\n      revert\n        /* \"#utility.yul\":13155:13287   */\n    tag_528:\n      pop\n        /* \"#utility.yul\":13301:13310   */\n      div\n      swap1\n        /* \"#utility.yul\":13099:13316   */\n      jump\t// out\n        /* \"#utility.yul\":13321:13449   */\n    tag_136:\n        /* \"#utility.yul\":13388:13397   */\n      dup2\n      dup2\n      sub\n        /* \"#utility.yul\":13409:13420   */\n      dup2\n      dup2\n      gt\n        /* \"#utility.yul\":13406:13443   */\n      iszero\n      tag_521\n      jumpi\n        /* \"#utility.yul\":13423:13441   */\n      tag_521\n      tag_415\n      jump\t// in\n        /* \"#utility.yul\":14017:14144   */\n    tag_151:\n        /* \"#utility.yul\":14078:14088   */\n      0x4e487b71\n        /* \"#utility.yul\":14073:14076   */\n      0xe0\n        /* \"#utility.yul\":14069:14089   */\n      shl\n        /* \"#utility.yul\":14066:14067   */\n      0x00\n        /* \"#utility.yul\":14059:14090   */\n      mstore\n        /* \"#utility.yul\":14109:14113   */\n      0x32\n        /* \"#utility.yul\":14106:14107   */\n      0x04\n        /* \"#utility.yul\":14099:14114   */\n      mstore\n        /* \"#utility.yul\":14133:14137   */\n      0x24\n        /* \"#utility.yul\":14130:14131   */\n      0x00\n        /* \"#utility.yul\":14123:14138   */\n      revert\n        /* \"#utility.yul\":14506:14690   */\n    tag_176:\n        /* \"#utility.yul\":14576:14582   */\n      0x00\n        /* \"#utility.yul\":14629:14631   */\n      0x20\n        /* \"#utility.yul\":14617:14626   */\n      dup3\n        /* \"#utility.yul\":14608:14615   */\n      dup5\n        /* \"#utility.yul\":14604:14627   */\n      sub\n        /* \"#utility.yul\":14600:14632   */\n      slt\n        /* \"#utility.yul\":14597:14649   */\n      iszero\n      tag_537\n      jumpi\n        /* \"#utility.yul\":14645:14646   */\n      0x00\n        /* \"#utility.yul\":14642:14643   */\n      dup1\n        /* \"#utility.yul\":14635:14647   */\n      revert\n        /* \"#utility.yul\":14597:14649   */\n    tag_537:\n      pop\n        /* \"#utility.yul\":14668:14684   */\n      mload\n      swap2\n        /* \"#utility.yul\":14506:14690   */\n      swap1\n      pop\n      jump\t// out\n        /* \"#utility.yul\":14974:15251   */\n    tag_187:\n        /* \"#utility.yul\":15041:15047   */\n      0x00\n        /* \"#utility.yul\":15094:15096   */\n      0x20\n        /* \"#utility.yul\":15082:15091   */\n      dup3\n        /* \"#utility.yul\":15073:15080   */\n      dup5\n        /* \"#utility.yul\":15069:15092   */\n      sub\n        /* \"#utility.yul\":15065:15097   */\n      slt\n        /* \"#utility.yul\":15062:15114   */\n      iszero\n      tag_540\n      jumpi\n        /* \"#utility.yul\":15110:15111   */\n      0x00\n        /* \"#utility.yul\":15107:15108   */\n      dup1\n        /* \"#utility.yul\":15100:15112   */\n      revert\n        /* \"#utility.yul\":15062:15114   */\n    tag_540:\n        /* \"#utility.yul\":15142:15151   */\n      dup2\n        /* \"#utility.yul\":15136:15152   */\n      mload\n        /* \"#utility.yul\":15195:15200   */\n      dup1\n        /* \"#utility.yul\":15188:15201   */\n      iszero\n        /* \"#utility.yul\":15181:15202   */\n      iszero\n        /* \"#utility.yul\":15174:15179   */\n      dup2\n        /* \"#utility.yul\":15171:15203   */\n      eq\n        /* \"#utility.yul\":15161:15221   */\n      tag_515\n      jumpi\n        /* \"#utility.yul\":15217:15218   */\n      0x00\n        /* \"#utility.yul\":15214:15215   */\n      dup1\n        /* \"#utility.yul\":15207:15219   */\n      revert\n\n    auxdata: 0xa26469706673582212204fb0e8bbbf8280d99906b9526b26aadc5c63063f0a9c1112b70563a96164275a64736f6c63430008180033\n}\n",
				"bytecode": {
					"linkReferences": {},
					"object": "6101206040526040516200232f3803806200232f8339810160408190526200002791620000fc565b856001600160a01b0381166200005657604051631e4fbdf760e01b81525f600482015260240160405180910390fd5b620000618162000091565b50600180556080949094526001600160a01b0392831660a05260c091909152151560e0521661010052506200016c565b5f80546001600160a01b038381166001600160a01b0319831681178455604051919092169283917f8be0079c531659141344cd1fd0a4f28419497f9722a3daafe3b4186f6b6457e09190a35050565b80516001600160a01b0381168114620000f7575f80fd5b919050565b5f805f805f8060c0878903121562000112575f80fd5b6200011d87620000e0565b9550602087015194506200013460408801620000e0565b9350606087015192506080870151801515811462000150575f80fd5b91506200016060a08801620000e0565b90509295509295509295565b60805160a05160c05160e0516101005161212a620002055f395f818161023901526104e401525f81816102f5015261178201525f818161027c01528181610bb201528181610bd801528181610c81015261103501525f8181610212015281816105c801528181610c5701528181610d54015261110b01525f81816101eb0152818161044301528181610581015261173e015261212a5ff3fe608060405234801561000f575f80fd5b5060043610610127575f3560e01c8063947a36fb116100a9578063c7c85baa1161006e578063c7c85baa14610277578063cc4f9d5b1461029e578063e15724a5146102b3578063eed35fea146102f0578063f2fde38b14610317575f80fd5b8063947a36fb146101e6578063a444ae411461020d578063a8e9a53914610234578063abe21b591461025b578063c04637111461026e575f80fd5b806361461954116100ef57806361461954146101ab5780636b892b22146101b3578063715018a6146101bb5780638da5cb5b146101c35780639379f517146101d3575f80fd5b80631c0795c31461012b5780631f99966a1461015b5780632395d9751461017c57806331a38c89146101845780635c36b186146101a1575b5f80fd5b61013e610139366004611a38565b61032a565b6040516001600160a01b0390911681526020015b60405180910390f35b61016e610169366004611a38565b610352565b604051908152602001610152565b61016e603281565b6002546101919060ff1681565b6040519015158152602001610152565b6101a9610371565b005b6101a9610410565b6101a9610b32565b6101a961108b565b5f546001600160a01b031661013e565b61013e6101e1366004611a38565b61109e565b61016e7f000000000000000000000000000000000000000000000000000000000000000081565b61013e7f000000000000000000000000000000000000000000000000000000000000000081565b61013e7f000000000000000000000000000000000000000000000000000000000000000081565b6101a9610269366004611ca8565b6110ad565b61016e60035481565b61016e7f000000000000000000000000000000000000000000000000000000000000000081565b6102a6611463565b6040516101529190611eae565b6102c66102c1366004611a38565b611871565b604080516001600160a01b0394851681526020810193909352921691810191909152606001610152565b6101917f000000000000000000000000000000000000000000000000000000000000000081565b6101a9610325366004611f8a565b6118ad565b60048181548110610339575f80fd5b5f918252602090912001546001600160a01b0316905081565b60058181548110610361575f80fd5b5f91825260209091200154905081565b60025460ff161561039d5760405162461bcd60e51b815260040161039490611faa565b60405180910390fd5b336103af5f546001600160a01b031690565b6001600160a01b0316146103d55760405162461bcd60e51b815260040161039490611fee565b4260038190556040519081527f48257dc961b6f792c2b78a080dacfed693b660960a702de21cee364e20270e2f9060200160405180910390a1565b6104186118ea565b600260018190555460ff16156104405760405162461bcd60e51b815260040161039490611faa565b5f7f000000000000000000000000000000000000000000000000000000000000000060035461046f9190612048565b9050804210156104c15760405162461bcd60e51b815260206004820152601b60248201527f477261636520706572696f6420686173206e6f7420656e6465642e00000000006044820152606401610394565b5f6104cf6201518083612048565b90508042101561056957336001600160a01b037f000000000000000000000000000000000000000000000000000000000000000016146105695760405162461bcd60e51b815260206004820152602f60248201527f4f6e6c79207468652064657369676e61746564206578656375746f722063616e60448201526e1031b0b636103a3434b9903737bb9760891b6064820152608401610394565b6002805460ff191660011790556003545f906105a6907f000000000000000000000000000000000000000000000000000000000000000090612048565b90505f6105b66201518083612048565b90505f8142106105c657336105e8565b7f00000000000000000000000000000000000000000000000000000000000000005b90505f4780156107d6575f612710610601603284612061565b61060b9190612078565b92508290505f61061b8284612097565b905081156106c4575f856001600160a01b0316836040515f6040518083038185875af1925050503d805f811461066c576040519150601f19603f3d011682016040523d82523d5f602084013e610671565b606091505b50509050806106c25760405162461bcd60e51b815260206004820152601860248201527f45544820666565207472616e73666572206661696c65642e00000000000000006044820152606401610394565b505b5f5b6004548110156107d2575f6064600583815481106106e6576106e66120aa565b905f5260205f200154846106fa9190612061565b6107049190612078565b905080156107c9575f60048381548110610720576107206120aa565b5f9182526020822001546040516001600160a01b039091169184919081818185875af1925050503d805f8114610771576040519150601f19603f3d011682016040523d82523d5f602084013e610776565b606091505b50509050806107c75760405162461bcd60e51b815260206004820152601c60248201527f455448207472616e7366657220746f2068656972206661696c65642e000000006044820152606401610394565b505b506001016106c6565b5050505b5f5b600654811015610a0e575f600682815481106107f6576107f66120aa565b5f9182526020822001546040516370a0823160e01b81523060048201526001600160a01b03909116925082906370a0823190602401602060405180830381865afa158015610846573d5f803e3d5ffd5b505050506040513d601f19601f8201168201806040525081019061086a91906120be565b90508015610a04575f612710610881603284612061565b61088b9190612078565b90505f6108988284612097565b905081156109125760405163a9059cbb60e01b81526001600160a01b0389811660048301526024820184905285169063a9059cbb906044016020604051808303815f875af11580156108ec573d5f803e3d5ffd5b505050506040513d601f19601f8201168201806040525081019061091091906120d5565b505b5f5b600454811015610a00575f606460058381548110610934576109346120aa565b905f5260205f200154846109489190612061565b6109529190612078565b905080156109f757856001600160a01b031663a9059cbb6004848154811061097c5761097c6120aa565b5f9182526020909120015460405160e083901b6001600160e01b03191681526001600160a01b039091166004820152602481018490526044016020604051808303815f875af11580156109d1573d5f803e3d5ffd5b505050506040513d601f19601f820116820180604052508101906109f591906120d5565b505b50600101610914565b5050505b50506001016107d8565b505f5b600754811015610adc575f60078281548110610a2f57610a2f6120aa565b5f9182526020918290206040805160608101825260039390930290910180546001600160a01b039081168085526001830154958501869052600290920154168383018190529151632142170760e11b8152306004820152602481019290925260448201939093529092506342842e0e906064015f604051808303815f87803b158015610ab9575f80fd5b505af1158015610acb573d5f803e3d5ffd5b505060019093019250610a11915050565b5060408051338152602081018490526001600160a01b0385168183015290517f52ba16c8b985eff690a9de92094bd7486f89340e06e385ffb26de9c6eea384dc9181900360600190a15050600180555050505050565b60025460ff1615610b555760405162461bcd60e51b815260040161039490611faa565b33610b675f546001600160a01b031690565b6001600160a01b031614610b8d5760405162461bcd60e51b815260040161039490611fee565b610b956118ea565b60026001818155815460ff19161790555f546001600160a01b03167f000000000000000000000000000000000000000000000000000000000000000015610d35577f0000000000000000000000000000000000000000000000000000000000000000471015610c545760405162461bcd60e51b815260206004820152602560248201527f496e73756666696369656e742045544820666f72207465726d696e6174696f6e604482015264103332b29760d91b6064820152608401610394565b5f7f00000000000000000000000000000000000000000000000000000000000000006001600160a01b03167f00000000000000000000000000000000000000000000000000000000000000006040515f6040518083038185875af1925050503d805f8114610cdd576040519150601f19603f3d011682016040523d82523d5f602084013e610ce2565b606091505b5050905080610d335760405162461bcd60e51b815260206004820181905260248201527f5465726d696e6174696f6e20666565207472616e73666572206661696c65642e6044820152606401610394565b505b60405163a658dd6b60e01b81526001600160a01b0382811660048301527f0000000000000000000000000000000000000000000000000000000000000000169063a658dd6b906024015f604051808303815f87803b158015610d95575f80fd5b505af1158015610da7573d5f803e3d5ffd5b505050505f5b600654811015610ec3575f60068281548110610dcb57610dcb6120aa565b5f9182526020822001546040516370a0823160e01b81523060048201526001600160a01b03909116925082906370a0823190602401602060405180830381865afa158015610e1b573d5f803e3d5ffd5b505050506040513d601f19601f82011682018060405250810190610e3f91906120be565b90508015610eb95760405163a9059cbb60e01b81526001600160a01b0385811660048301526024820183905283169063a9059cbb906044016020604051808303815f875af1158015610e93573d5f803e3d5ffd5b505050506040513d601f19601f82011682018060405250810190610eb791906120d5565b505b5050600101610dad565b505f5b600754811015610f90575f60078281548110610ee457610ee46120aa565b5f9182526020918290206040805160608101825260039390930290910180546001600160a01b0390811680855260018301549585018690526002909201548116848401529151632142170760e11b8152306004820152918716602483015260448201939093529092506342842e0e906064015f604051808303815f87803b158015610f6d575f80fd5b505af1158015610f7f573d5f803e3d5ffd5b505060019093019250610ec6915050565b50478015611030575f826001600160a01b0316826040515f6040518083038185875af1925050503d805f8114610fe1576040519150601f19603f3d011682016040523d82523d5f602084013e610fe6565b606091505b505090508061102e5760405162461bcd60e51b815260206004820152601460248201527322aa24103a3930b739b332b9103330b4b632b21760611b6044820152606401610394565b505b6040517f000000000000000000000000000000000000000000000000000000000000000081527fc41d93b8bfbf9fd7cf5bfe271fd649ab6a6fec0ea101c23b82a2a28eca2533a99060200160405180910390a1505060018055565b61109361190d565b61109c5f611939565b565b60068181548110610339575f80fd5b60085460ff16156111005760405162461bcd60e51b815260206004820152601960248201527f57696c6c3a20616c726561647920696e697469616c697a6564000000000000006044820152606401610394565b336001600160a01b037f000000000000000000000000000000000000000000000000000000000000000016146111785760405162461bcd60e51b815260206004820152601b60248201527f57696c6c3a206e6f742063616c6c656420627920666163746f727900000000006044820152606401610394565b6008805460ff1916600117905582518451146111e75760405162461bcd60e51b815260206004820152602860248201527f486569727320616e6420646973747269627574696f6e73206c656e677468206d60448201526734b9b6b0ba31b41760c11b6064820152608401610394565b5f8451116112305760405162461bcd60e51b81526020600482015260166024820152752432b4b9399031b0b73737ba1031329032b6b83a3c9760511b6044820152606401610394565b5f805b845181101561126b5784818151811061124e5761124e6120aa565b6020026020010151826112619190612048565b9150600101611233565b50806064146112ce5760405162461bcd60e51b815260206004820152602960248201527f446973747269627574696f6e2070657263656e7461676573206d75737420737560448201526836903a37901898181760b91b6064820152608401610394565b4260035584516112e5906004906020880190611988565b5083516112f99060059060208701906119eb565b505f5b83518110156113725760066040518060200160405280868481518110611324576113246120aa565b602090810291909101810151516001600160a01b039081169092528354600180820186555f9586529190942092519290930180546001600160a01b03191692909116919091179055016112fc565b505f5b825181101561145b576007604051806060016040528085848151811061139d5761139d6120aa565b60200260200101515f01516001600160a01b031681526020018584815181106113c8576113c86120aa565b60200260200101516020015181526020018584815181106113eb576113eb6120aa565b6020908102919091018101516040908101516001600160a01b039081169093528454600180820187555f96875295839020855160039092020180546001600160a01b0319908116928616929092178155928501518387015593015160029091018054909316911617905501611375565b505050505050565b6114c06040518061014001604052805f6001600160a01b031681526020015f81526020015f81526020015f151581526020015f151581526020015f8152602001606081526020016060815260200160608152602001606081525090565b6006545f9067ffffffffffffffff8111156114dd576114dd611a4f565b60405190808252806020026020018201604052801561152157816020015b604080518082019091525f80825260208201528152602001906001900390816114fb5790505b5090505f5b6006548110156115f4575f60068281548110611544576115446120aa565b5f91825260209182902001546040805180820182526001600160a01b0390921680835290516370a0823160e01b8152306004820152909350909182019083906370a0823190602401602060405180830381865afa1580156115a7573d5f803e3d5ffd5b505050506040513d601f19601f820116820180604052508101906115cb91906120be565b8152508383815181106115e0576115e06120aa565b602090810291909101015250600101611526565b506007545f9067ffffffffffffffff81111561161257611612611a4f565b60405190808252806020026020018201604052801561165b57816020015b604080516060810182525f80825260208083018290529282015282525f199092019101816116305790505b5090505f5b600754811015611710575f6007828154811061167e5761167e6120aa565b5f9182526020918290206040805160608082018352600390940290920180546001600160a01b039081168452600182015484870190815260029092015481168484019081528351958601845284518216865291519585019590955251909316928201929092528451919250908490849081106116fc576116fc6120aa565b602090810291909101015250600101611660565b5060405180610140016040528061172e5f546001600160a01b031690565b6001600160a01b031681526020017f00000000000000000000000000000000000000000000000000000000000000008152602001600354815260200160025f9054906101000a900460ff16151581526020017f000000000000000000000000000000000000000000000000000000000000000015158152602001478152602001600480548060200260200160405190810160405280929190818152602001828054801561180257602002820191905f5260205f20905b81546001600160a01b031681526001909101906020018083116117e4575b50505050508152602001600580548060200260200160405190810160405280929190818152602001828054801561185657602002820191905f5260205f20905b815481526020019060010190808311611842575b50505050508152602001838152602001828152509250505090565b60078181548110611880575f80fd5b5f9182526020909120600390910201805460018201546002909201546001600160a01b0391821693501683565b6118b561190d565b6001600160a01b0381166118de57604051631e4fbdf760e01b81525f6004820152602401610394565b6118e781611939565b50565b60026001540361109c57604051633ee5aeb560e01b815260040160405180910390fd5b5f546001600160a01b0316331461109c5760405163118cdaa760e01b8152336004820152602401610394565b5f80546001600160a01b038381166001600160a01b0319831681178455604051919092169283917f8be0079c531659141344cd1fd0a4f28419497f9722a3daafe3b4186f6b6457e09190a35050565b828054828255905f5260205f209081019282156119db579160200282015b828111156119db57825182546001600160a01b0319166001600160a01b039091161782556020909201916001909101906119a6565b506119e7929150611a24565b5090565b828054828255905f5260205f209081019282156119db579160200282015b828111156119db578251825591602001919060010190611a09565b5b808211156119e7575f8155600101611a25565b5f60208284031215611a48575f80fd5b5035919050565b634e487b7160e01b5f52604160045260245ffd5b6040805190810167ffffffffffffffff81118282101715611a8657611a86611a4f565b60405290565b6040516060810167ffffffffffffffff81118282101715611a8657611a86611a4f565b604051601f8201601f1916810167ffffffffffffffff81118282101715611ad857611ad8611a4f565b604052919050565b5f67ffffffffffffffff821115611af957611af9611a4f565b5060051b60200190565b80356001600160a01b0381168114611b19575f80fd5b919050565b5f82601f830112611b2d575f80fd5b81356020611b42611b3d83611ae0565b611aaf565b8083825260208201915060208460051b870101935086841115611b63575f80fd5b602086015b84811015611b7f5780358352918301918301611b68565b509695505050505050565b5f82601f830112611b99575f80fd5b81356020611ba9611b3d83611ae0565b82815260069290921b84018101918181019086841115611bc7575f80fd5b8286015b84811015611b7f5760408189031215611be2575f80fd5b611bea611a63565b611bf382611b03565b81528185013585820152835291830191604001611bcb565b5f82601f830112611c1a575f80fd5b81356020611c2a611b3d83611ae0565b82815260609283028501820192828201919087851115611c48575f80fd5b8387015b85811015611c9b5781818a031215611c62575f80fd5b611c6a611a8c565b611c7382611b03565b815285820135868201526040611c8a818401611b03565b908201528452928401928101611c4c565b5090979650505050505050565b5f805f8060808587031215611cbb575f80fd5b843567ffffffffffffffff80821115611cd2575f80fd5b818701915087601f830112611ce5575f80fd5b81356020611cf5611b3d83611ae0565b82815260059290921b8401810191818101908b841115611d13575f80fd5b948201945b83861015611d3857611d2986611b03565b82529482019490820190611d18565b98505088013592505080821115611d4d575f80fd5b611d5988838901611b1e565b94506040870135915080821115611d6e575f80fd5b611d7a88838901611b8a565b93506060870135915080821115611d8f575f80fd5b50611d9c87828801611c0b565b91505092959194509250565b5f815180845260208085019450602084015f5b83811015611de05781516001600160a01b031687529582019590820190600101611dbb565b509495945050505050565b5f815180845260208085019450602084015f5b83811015611de057815187529582019590820190600101611dfe565b5f815180845260208085019450602084015f5b83811015611de057815180516001600160a01b031688528301518388015260409096019590820190600101611e2d565b5f815180845260208085019450602084015f5b83811015611de057815180516001600160a01b03908116895284820151858a0152604091820151169088015260609096019590820190600101611e70565b60208152611ec86020820183516001600160a01b03169052565b60208201516040820152604082015160608201525f6060830151611ef0608084018215159052565b50608083015180151560a08401525060a083015160c083015260c08301516101408060e0850152611f25610160850183611da8565b915060e0850151601f19610100818786030181880152611f458584611deb565b945080880151925050610120818786030181880152611f648584611e1a565b908801518782039092018488015293509050611f808382611e5d565b9695505050505050565b5f60208284031215611f9a575f80fd5b611fa382611b03565b9392505050565b60208082526024908201527f57696c6c20686173206265656e206578656375746564206f722063616e63656c6040820152633632b21760e11b606082015260800190565b60208082526026908201527f4f6e6c7920746865206f776e65722063616e2063616c6c20746869732066756e60408201526531ba34b7b71760d11b606082015260800190565b634e487b7160e01b5f52601160045260245ffd5b8082018082111561205b5761205b612034565b92915050565b808202811582820484141761205b5761205b612034565b5f8261209257634e487b7160e01b5f52601260045260245ffd5b500490565b8181038181111561205b5761205b612034565b634e487b7160e01b5f52603260045260245ffd5b5f602082840312156120ce575f80fd5b5051919050565b5f602082840312156120e5575f80fd5b81518015158114611fa3575f80fdfea26469706673582212204fb0e8bbbf8280d99906b9526b26aadc5c63063f0a9c1112b70563a96164275a64736f6c63430008180033",
					"opcodes": "PUSH2 0x120 PUSH1 0x40 MSTORE PUSH1 0x40 MLOAD PUSH3 0x232F CODESIZE SUB DUP1 PUSH3 0x232F DUP4 CODECOPY DUP2 ADD PUSH1 0x40 DUP2 SWAP1 MSTORE PUSH3 0x27 SWAP2 PUSH3 0xFC JUMP JUMPDEST DUP6 PUSH1 0x1 PUSH1 0x1 PUSH1 0xA0 SHL SUB DUP2 AND PUSH3 0x56 JUMPI PUSH1 0x40 MLOAD PUSH4 0x1E4FBDF7 PUSH1 0xE0 SHL DUP2 MSTORE PUSH0 PUSH1 0x4 DUP3 ADD MSTORE PUSH1 0x24 ADD PUSH1 0x40 MLOAD DUP1 SWAP2 SUB SWAP1 REVERT JUMPDEST PUSH3 0x61 DUP2 PUSH3 0x91 JUMP JUMPDEST POP PUSH1 0x1 DUP1 SSTORE PUSH1 0x80 SWAP5 SWAP1 SWAP5 MSTORE PUSH1 0x1 PUSH1 0x1 PUSH1 0xA0 SHL SUB SWAP3 DUP4 AND PUSH1 0xA0 MSTORE PUSH1 0xC0 SWAP2 SWAP1 SWAP2 MSTORE ISZERO ISZERO PUSH1 0xE0 MSTORE AND PUSH2 0x100 MSTORE POP PUSH3 0x16C JUMP JUMPDEST PUSH0 DUP1 SLOAD PUSH1 0x1 PUSH1 0x1 PUSH1 0xA0 SHL SUB DUP4 DUP2 AND PUSH1 0x1 PUSH1 0x1 PUSH1 0xA0 SHL SUB NOT DUP4 AND DUP2 OR DUP5 SSTORE PUSH1 0x40 MLOAD SWAP2 SWAP1 SWAP3 AND SWAP3 DUP4 SWAP2 PUSH32 0x8BE0079C531659141344CD1FD0A4F28419497F9722A3DAAFE3B4186F6B6457E0 SWAP2 SWAP1 LOG3 POP POP JUMP JUMPDEST DUP1 MLOAD PUSH1 0x1 PUSH1 0x1 PUSH1 0xA0 SHL SUB DUP2 AND DUP2 EQ PUSH3 0xF7 JUMPI PUSH0 DUP1 REVERT JUMPDEST SWAP2 SWAP1 POP JUMP JUMPDEST PUSH0 DUP1 PUSH0 DUP1 PUSH0 DUP1 PUSH1 0xC0 DUP8 DUP10 SUB SLT ISZERO PUSH3 0x112 JUMPI PUSH0 DUP1 REVERT JUMPDEST PUSH3 0x11D DUP8 PUSH3 0xE0 JUMP JUMPDEST SWAP6 POP PUSH1 0x20 DUP8 ADD MLOAD SWAP5 POP PUSH3 0x134 PUSH1 0x40 DUP9 ADD PUSH3 0xE0 JUMP JUMPDEST SWAP4 POP PUSH1 0x60 DUP8 ADD MLOAD SWAP3 POP PUSH1 0x80 DUP8 ADD MLOAD DUP1 ISZERO ISZERO DUP2 EQ PUSH3 0x150 JUMPI PUSH0 DUP1 REVERT JUMPDEST SWAP2 POP PUSH3 0x160 PUSH1 0xA0 DUP9 ADD PUSH3 0xE0 JUMP JUMPDEST SWAP1 POP SWAP3 SWAP6 POP SWAP3 SWAP6 POP SWAP3 SWAP6 JUMP JUMPDEST PUSH1 0x80 MLOAD PUSH1 0xA0 MLOAD PUSH1 0xC0 MLOAD PUSH1 0xE0 MLOAD PUSH2 0x100 MLOAD PUSH2 0x212A PUSH3 0x205 PUSH0 CODECOPY PUSH0 DUP2 DUP2 PUSH2 0x239 ADD MSTORE PUSH2 0x4E4 ADD MSTORE PUSH0 DUP2 DUP2 PUSH2 0x2F5 ADD MSTORE PUSH2 0x1782 ADD MSTORE PUSH0 DUP2 DUP2 PUSH2 0x27C ADD MSTORE DUP2 DUP2 PUSH2 0xBB2 ADD MSTORE DUP2 DUP2 PUSH2 0xBD8 ADD MSTORE DUP2 DUP2 PUSH2 0xC81 ADD MSTORE PUSH2 0x1035 ADD MSTORE PUSH0 DUP2 DUP2 PUSH2 0x212 ADD MSTORE DUP2 DUP2 PUSH2 0x5C8 ADD MSTORE DUP2 DUP2 PUSH2 0xC57 ADD MSTORE DUP2 DUP2 PUSH2 0xD54 ADD MSTORE PUSH2 0x110B ADD MSTORE PUSH0 DUP2 DUP2 PUSH2 0x1EB ADD MSTORE DUP2 DUP2 PUSH2 0x443 ADD MSTORE DUP2 DUP2 PUSH2 0x581 ADD MSTORE PUSH2 0x173E ADD MSTORE PUSH2 0x212A PUSH0 RETURN INVALID PUSH1 0x80 PUSH1 0x40 MSTORE CALLVALUE DUP1 ISZERO PUSH2 0xF JUMPI PUSH0 DUP1 REVERT JUMPDEST POP PUSH1 0x4 CALLDATASIZE LT PUSH2 0x127 JUMPI PUSH0 CALLDATALOAD PUSH1 0xE0 SHR DUP1 PUSH4 0x947A36FB GT PUSH2 0xA9 JUMPI DUP1 PUSH4 0xC7C85BAA GT PUSH2 0x6E JUMPI DUP1 PUSH4 0xC7C85BAA EQ PUSH2 0x277 JUMPI DUP1 PUSH4 0xCC4F9D5B EQ PUSH2 0x29E JUMPI DUP1 PUSH4 0xE15724A5 EQ PUSH2 0x2B3 JUMPI DUP1 PUSH4 0xEED35FEA EQ PUSH2 0x2F0 JUMPI DUP1 PUSH4 0xF2FDE38B EQ PUSH2 0x317 JUMPI PUSH0 DUP1 REVERT JUMPDEST DUP1 PUSH4 0x947A36FB EQ PUSH2 0x1E6 JUMPI DUP1 PUSH4 0xA444AE41 EQ PUSH2 0x20D JUMPI DUP1 PUSH4 0xA8E9A539 EQ PUSH2 0x234 JUMPI DUP1 PUSH4 0xABE21B59 EQ PUSH2 0x25B JUMPI DUP1 PUSH4 0xC0463711 EQ PUSH2 0x26E JUMPI PUSH0 DUP1 REVERT JUMPDEST DUP1 PUSH4 0x61461954 GT PUSH2 0xEF JUMPI DUP1 PUSH4 0x61461954 EQ PUSH2 0x1AB JUMPI DUP1 PUSH4 0x6B892B22 EQ PUSH2 0x1B3 JUMPI DUP1 PUSH4 0x715018A6 EQ PUSH2 0x1BB JUMPI DUP1 PUSH4 0x8DA5CB5B EQ PUSH2 0x1C3 JUMPI DUP1 PUSH4 0x9379F517 EQ PUSH2 0x1D3 JUMPI PUSH0 DUP1 REVERT JUMPDEST DUP1 PUSH4 0x1C0795C3 EQ PUSH2 0x12B JUMPI DUP1 PUSH4 0x1F99966A EQ PUSH2 0x15B JUMPI DUP1 PUSH4 0x2395D975 EQ PUSH2 0x17C JUMPI DUP1 PUSH4 0x31A38C89 EQ PUSH2 0x184 JUMPI DUP1 PUSH4 0x5C36B186 EQ PUSH2 0x1A1 JUMPI JUMPDEST PUSH0 DUP1 REVERT JUMPDEST PUSH2 0x13E PUSH2 0x139 CALLDATASIZE PUSH1 0x4 PUSH2 0x1A38 JUMP JUMPDEST PUSH2 0x32A JUMP JUMPDEST PUSH1 0x40 MLOAD PUSH1 0x1 PUSH1 0x1 PUSH1 0xA0 SHL SUB SWAP1 SWAP2 AND DUP2 MSTORE PUSH1 0x20 ADD JUMPDEST PUSH1 0x40 MLOAD DUP1 SWAP2 SUB SWAP1 RETURN JUMPDEST PUSH2 0x16E PUSH2 0x169 CALLDATASIZE PUSH1 0x4 PUSH2 0x1A38 JUMP JUMPDEST PUSH2 0x352 JUMP JUMPDEST PUSH1 0x40 MLOAD SWAP1 DUP2 MSTORE PUSH1 0x20 ADD PUSH2 0x152 JUMP JUMPDEST PUSH2 0x16E PUSH1 0x32 DUP2 JUMP JUMPDEST PUSH1 0x2 SLOAD PUSH2 0x191 SWAP1 PUSH1 0xFF AND DUP2 JUMP JUMPDEST PUSH1 0x40 MLOAD SWAP1 ISZERO ISZERO DUP2 MSTORE PUSH1 0x20 ADD PUSH2 0x152 JUMP JUMPDEST PUSH2 0x1A9 PUSH2 0x371 JUMP JUMPDEST STOP JUMPDEST PUSH2 0x1A9 PUSH2 0x410 JUMP JUMPDEST PUSH2 0x1A9 PUSH2 0xB32 JUMP JUMPDEST PUSH2 0x1A9 PUSH2 0x108B JUMP JUMPDEST PUSH0 SLOAD PUSH1 0x1 PUSH1 0x1 PUSH1 0xA0 SHL SUB AND PUSH2 0x13E JUMP JUMPDEST PUSH2 0x13E PUSH2 0x1E1 CALLDATASIZE PUSH1 0x4 PUSH2 0x1A38 JUMP JUMPDEST PUSH2 0x109E JUMP JUMPDEST PUSH2 0x16E PUSH32 0x0 DUP2 JUMP JUMPDEST PUSH2 0x13E PUSH32 0x0 DUP2 JUMP JUMPDEST PUSH2 0x13E PUSH32 0x0 DUP2 JUMP JUMPDEST PUSH2 0x1A9 PUSH2 0x269 CALLDATASIZE PUSH1 0x4 PUSH2 0x1CA8 JUMP JUMPDEST PUSH2 0x10AD JUMP JUMPDEST PUSH2 0x16E PUSH1 0x3 SLOAD DUP2 JUMP JUMPDEST PUSH2 0x16E PUSH32 0x0 DUP2 JUMP JUMPDEST PUSH2 0x2A6 PUSH2 0x1463 JUMP JUMPDEST PUSH1 0x40 MLOAD PUSH2 0x152 SWAP2 SWAP1 PUSH2 0x1EAE JUMP JUMPDEST PUSH2 0x2C6 PUSH2 0x2C1 CALLDATASIZE PUSH1 0x4 PUSH2 0x1A38 JUMP JUMPDEST PUSH2 0x1871 JUMP JUMPDEST PUSH1 0x40 DUP1 MLOAD PUSH1 0x1 PUSH1 0x1 PUSH1 0xA0 SHL SUB SWAP5 DUP6 AND DUP2 MSTORE PUSH1 0x20 DUP2 ADD SWAP4 SWAP1 SWAP4 MSTORE SWAP3 AND SWAP2 DUP2 ADD SWAP2 SWAP1 SWAP2 MSTORE PUSH1 0x60 ADD PUSH2 0x152 JUMP JUMPDEST PUSH2 0x191 PUSH32 0x0 DUP2 JUMP JUMPDEST PUSH2 0x1A9 PUSH2 0x325 CALLDATASIZE PUSH1 0x4 PUSH2 0x1F8A JUMP JUMPDEST PUSH2 0x18AD JUMP JUMPDEST PUSH1 0x4 DUP2 DUP2 SLOAD DUP2 LT PUSH2 0x339 JUMPI PUSH0 DUP1 REVERT JUMPDEST PUSH0 SWAP2 DUP3 MSTORE PUSH1 0x20 SWAP1 SWAP2 KECCAK256 ADD SLOAD PUSH1 0x1 PUSH1 0x1 PUSH1 0xA0 SHL SUB AND SWAP1 POP DUP2 JUMP JUMPDEST PUSH1 0x5 DUP2 DUP2 SLOAD DUP2 LT PUSH2 0x361 JUMPI PUSH0 DUP1 REVERT JUMPDEST PUSH0 SWAP2 DUP3 MSTORE PUSH1 0x20 SWAP1 SWAP2 KECCAK256 ADD SLOAD SWAP1 POP DUP2 JUMP JUMPDEST PUSH1 0x2 SLOAD PUSH1 0xFF AND ISZERO PUSH2 0x39D JUMPI PUSH1 0x40 MLOAD PUSH3 0x461BCD PUSH1 0xE5 SHL DUP2 MSTORE PUSH1 0x4 ADD PUSH2 0x394 SWAP1 PUSH2 0x1FAA JUMP JUMPDEST PUSH1 0x40 MLOAD DUP1 SWAP2 SUB SWAP1 REVERT JUMPDEST CALLER PUSH2 0x3AF PUSH0 SLOAD PUSH1 0x1 PUSH1 0x1 PUSH1 0xA0 SHL SUB AND SWAP1 JUMP JUMPDEST PUSH1 0x1 PUSH1 0x1 PUSH1 0xA0 SHL SUB AND EQ PUSH2 0x3D5 JUMPI PUSH1 0x40 MLOAD PUSH3 0x461BCD PUSH1 0xE5 SHL DUP2 MSTORE PUSH1 0x4 ADD PUSH2 0x394 SWAP1 PUSH2 0x1FEE JUMP JUMPDEST TIMESTAMP PUSH1 0x3 DUP2 SWAP1 SSTORE PUSH1 0x40 MLOAD SWAP1 DUP2 MSTORE PUSH32 0x48257DC961B6F792C2B78A080DACFED693B660960A702DE21CEE364E20270E2F SWAP1 PUSH1 0x20 ADD PUSH1 0x40 MLOAD DUP1 SWAP2 SUB SWAP1 LOG1 JUMP JUMPDEST PUSH2 0x418 PUSH2 0x18EA JUMP JUMPDEST PUSH1 0x2 PUSH1 0x1 DUP2 SWAP1 SSTORE SLOAD PUSH1 0xFF AND ISZERO PUSH2 0x440 JUMPI PUSH1 0x40 MLOAD PUSH3 0x461BCD PUSH1 0xE5 SHL DUP2 MSTORE PUSH1 0x4 ADD PUSH2 0x394 SWAP1 PUSH2 0x1FAA JUMP JUMPDEST PUSH0 PUSH32 0x0 PUSH1 0x3 SLOAD PUSH2 0x46F SWAP2 SWAP1 PUSH2 0x2048 JUMP JUMPDEST SWAP1 POP DUP1 TIMESTAMP LT ISZERO PUSH2 0x4C1 JUMPI PUSH1 0x40 MLOAD PUSH3 0x461BCD PUSH1 0xE5 SHL DUP2 MSTORE PUSH1 0x20 PUSH1 0x4 DUP3 ADD MSTORE PUSH1 0x1B PUSH1 0x24 DUP3 ADD MSTORE PUSH32 0x477261636520706572696F6420686173206E6F7420656E6465642E0000000000 PUSH1 0x44 DUP3 ADD MSTORE PUSH1 0x64 ADD PUSH2 0x394 JUMP JUMPDEST PUSH0 PUSH2 0x4CF PUSH3 0x15180 DUP4 PUSH2 0x2048 JUMP JUMPDEST SWAP1 POP DUP1 TIMESTAMP LT ISZERO PUSH2 0x569 JUMPI CALLER PUSH1 0x1 PUSH1 0x1 PUSH1 0xA0 SHL SUB PUSH32 0x0 AND EQ PUSH2 0x569 JUMPI PUSH1 0x40 MLOAD PUSH3 0x461BCD PUSH1 0xE5 SHL DUP2 MSTORE PUSH1 0x20 PUSH1 0x4 DUP3 ADD MSTORE PUSH1 0x2F PUSH1 0x24 DUP3 ADD MSTORE PUSH32 0x4F6E6C79207468652064657369676E61746564206578656375746F722063616E PUSH1 0x44 DUP3 ADD MSTORE PUSH15 0x1031B0B636103A3434B9903737BB97 PUSH1 0x89 SHL PUSH1 0x64 DUP3 ADD MSTORE PUSH1 0x84 ADD PUSH2 0x394 JUMP JUMPDEST PUSH1 0x2 DUP1 SLOAD PUSH1 0xFF NOT AND PUSH1 0x1 OR SWAP1 SSTORE PUSH1 0x3 SLOAD PUSH0 SWAP1 PUSH2 0x5A6 SWAP1 PUSH32 0x0 SWAP1 PUSH2 0x2048 JUMP JUMPDEST SWAP1 POP PUSH0 PUSH2 0x5B6 PUSH3 0x15180 DUP4 PUSH2 0x2048 JUMP JUMPDEST SWAP1 POP PUSH0 DUP2 TIMESTAMP LT PUSH2 0x5C6 JUMPI CALLER PUSH2 0x5E8 JUMP JUMPDEST PUSH32 0x0 JUMPDEST SWAP1 POP PUSH0 SELFBALANCE DUP1 ISZERO PUSH2 0x7D6 JUMPI PUSH0 PUSH2 0x2710 PUSH2 0x601 PUSH1 0x32 DUP5 PUSH2 0x2061 JUMP JUMPDEST PUSH2 0x60B SWAP2 SWAP1 PUSH2 0x2078 JUMP JUMPDEST SWAP3 POP DUP3 SWAP1 POP PUSH0 PUSH2 0x61B DUP3 DUP5 PUSH2 0x2097 JUMP JUMPDEST SWAP1 POP DUP2 ISZERO PUSH2 0x6C4 JUMPI PUSH0 DUP6 PUSH1 0x1 PUSH1 0x1 PUSH1 0xA0 SHL SUB AND DUP4 PUSH1 0x40 MLOAD PUSH0 PUSH1 0x40 MLOAD DUP1 DUP4 SUB DUP2 DUP6 DUP8 GAS CALL SWAP3 POP POP POP RETURNDATASIZE DUP1 PUSH0 DUP2 EQ PUSH2 0x66C JUMPI PUSH1 0x40 MLOAD SWAP2 POP PUSH1 0x1F NOT PUSH1 0x3F RETURNDATASIZE ADD AND DUP3 ADD PUSH1 0x40 MSTORE RETURNDATASIZE DUP3 MSTORE RETURNDATASIZE PUSH0 PUSH1 0x20 DUP5 ADD RETURNDATACOPY PUSH2 0x671 JUMP JUMPDEST PUSH1 0x60 SWAP2 POP JUMPDEST POP POP SWAP1 POP DUP1 PUSH2 0x6C2 JUMPI PUSH1 0x40 MLOAD PUSH3 0x461BCD PUSH1 0xE5 SHL DUP2 MSTORE PUSH1 0x20 PUSH1 0x4 DUP3 ADD MSTORE PUSH1 0x18 PUSH1 0x24 DUP3 ADD MSTORE PUSH32 0x45544820666565207472616E73666572206661696C65642E0000000000000000 PUSH1 0x44 DUP3 ADD MSTORE PUSH1 0x64 ADD PUSH2 0x394 JUMP JUMPDEST POP JUMPDEST PUSH0 JUMPDEST PUSH1 0x4 SLOAD DUP2 LT ISZERO PUSH2 0x7D2 JUMPI PUSH0 PUSH1 0x64 PUSH1 0x5 DUP4 DUP2 SLOAD DUP2 LT PUSH2 0x6E6 JUMPI PUSH2 0x6E6 PUSH2 0x20AA JUMP JUMPDEST SWAP1 PUSH0 MSTORE PUSH1 0x20 PUSH0 KECCAK256 ADD SLOAD DUP5 PUSH2 0x6FA SWAP2 SWAP1 PUSH2 0x2061 JUMP JUMPDEST PUSH2 0x704 SWAP2 SWAP1 PUSH2 0x2078 JUMP JUMPDEST SWAP1 POP DUP1 ISZERO PUSH2 0x7C9 JUMPI PUSH0 PUSH1 0x4 DUP4 DUP2 SLOAD DUP2 LT PUSH2 0x720 JUMPI PUSH2 0x720 PUSH2 0x20AA JUMP JUMPDEST PUSH0 SWAP2 DUP3 MSTORE PUSH1 0x20 DUP3 KECCAK256 ADD SLOAD PUSH1 0x40 MLOAD PUSH1 0x1 PUSH1 0x1 PUSH1 0xA0 SHL SUB SWAP1 SWAP2 AND SWAP2 DUP5 SWAP2 SWAP1 DUP2 DUP2 DUP2 DUP6 DUP8 GAS CALL SWAP3 POP POP POP RETURNDATASIZE DUP1 PUSH0 DUP2 EQ PUSH2 0x771 JUMPI PUSH1 0x40 MLOAD SWAP2 POP PUSH1 0x1F NOT PUSH1 0x3F RETURNDATASIZE ADD AND DUP3 ADD PUSH1 0x40 MSTORE RETURNDATASIZE DUP3 MSTORE RETURNDATASIZE PUSH0 PUSH1 0x20 DUP5 ADD RETURNDATACOPY PUSH2 0x776 JUMP JUMPDEST PUSH1 0x60 SWAP2 POP JUMPDEST POP POP SWAP1 POP DUP1 PUSH2 0x7C7 JUMPI PUSH1 0x40 MLOAD PUSH3 0x461BCD PUSH1 0xE5 SHL DUP2 MSTORE PUSH1 0x20 PUSH1 0x4 DUP3 ADD MSTORE PUSH1 0x1C PUSH1 0x24 DUP3 ADD MSTORE PUSH32 0x455448207472616E7366657220746F2068656972206661696C65642E00000000 PUSH1 0x44 DUP3 ADD MSTORE PUSH1 0x64 ADD PUSH2 0x394 JUMP JUMPDEST POP JUMPDEST POP PUSH1 0x1 ADD PUSH2 0x6C6 JUMP JUMPDEST POP POP POP JUMPDEST PUSH0 JUMPDEST PUSH1 0x6 SLOAD DUP2 LT ISZERO PUSH2 0xA0E JUMPI PUSH0 PUSH1 0x6 DUP3 DUP2 SLOAD DUP2 LT PUSH2 0x7F6 JUMPI PUSH2 0x7F6 PUSH2 0x20AA JUMP JUMPDEST PUSH0 SWAP2 DUP3 MSTORE PUSH1 0x20 DUP3 KECCAK256 ADD SLOAD PUSH1 0x40 MLOAD PUSH4 0x70A08231 PUSH1 0xE0 SHL DUP2 MSTORE ADDRESS PUSH1 0x4 DUP3 ADD MSTORE PUSH1 0x1 PUSH1 0x1 PUSH1 0xA0 SHL SUB SWAP1 SWAP2 AND SWAP3 POP DUP3 SWAP1 PUSH4 0x70A08231 SWAP1 PUSH1 0x24 ADD PUSH1 0x20 PUSH1 0x40 MLOAD DUP1 DUP4 SUB DUP2 DUP7 GAS STATICCALL ISZERO DUP1 ISZERO PUSH2 0x846 JUMPI RETURNDATASIZE PUSH0 DUP1 RETURNDATACOPY RETURNDATASIZE PUSH0 REVERT JUMPDEST POP POP POP POP PUSH1 0x40 MLOAD RETURNDATASIZE PUSH1 0x1F NOT PUSH1 0x1F DUP3 ADD AND DUP3 ADD DUP1 PUSH1 0x40 MSTORE POP DUP2 ADD SWAP1 PUSH2 0x86A SWAP2 SWAP1 PUSH2 0x20BE JUMP JUMPDEST SWAP1 POP DUP1 ISZERO PUSH2 0xA04 JUMPI PUSH0 PUSH2 0x2710 PUSH2 0x881 PUSH1 0x32 DUP5 PUSH2 0x2061 JUMP JUMPDEST PUSH2 0x88B SWAP2 SWAP1 PUSH2 0x2078 JUMP JUMPDEST SWAP1 POP PUSH0 PUSH2 0x898 DUP3 DUP5 PUSH2 0x2097 JUMP JUMPDEST SWAP1 POP DUP2 ISZERO PUSH2 0x912 JUMPI PUSH1 0x40 MLOAD PUSH4 0xA9059CBB PUSH1 0xE0 SHL DUP2 MSTORE PUSH1 0x1 PUSH1 0x1 PUSH1 0xA0 SHL SUB DUP10 DUP2 AND PUSH1 0x4 DUP4 ADD MSTORE PUSH1 0x24 DUP3 ADD DUP5 SWAP1 MSTORE DUP6 AND SWAP1 PUSH4 0xA9059CBB SWAP1 PUSH1 0x44 ADD PUSH1 0x20 PUSH1 0x40 MLOAD DUP1 DUP4 SUB DUP2 PUSH0 DUP8 GAS CALL ISZERO DUP1 ISZERO PUSH2 0x8EC JUMPI RETURNDATASIZE PUSH0 DUP1 RETURNDATACOPY RETURNDATASIZE PUSH0 REVERT JUMPDEST POP POP POP POP PUSH1 0x40 MLOAD RETURNDATASIZE PUSH1 0x1F NOT PUSH1 0x1F DUP3 ADD AND DUP3 ADD DUP1 PUSH1 0x40 MSTORE POP DUP2 ADD SWAP1 PUSH2 0x910 SWAP2 SWAP1 PUSH2 0x20D5 JUMP JUMPDEST POP JUMPDEST PUSH0 JUMPDEST PUSH1 0x4 SLOAD DUP2 LT ISZERO PUSH2 0xA00 JUMPI PUSH0 PUSH1 0x64 PUSH1 0x5 DUP4 DUP2 SLOAD DUP2 LT PUSH2 0x934 JUMPI PUSH2 0x934 PUSH2 0x20AA JUMP JUMPDEST SWAP1 PUSH0 MSTORE PUSH1 0x20 PUSH0 KECCAK256 ADD SLOAD DUP5 PUSH2 0x948 SWAP2 SWAP1 PUSH2 0x2061 JUMP JUMPDEST PUSH2 0x952 SWAP2 SWAP1 PUSH2 0x2078 JUMP JUMPDEST SWAP1 POP DUP1 ISZERO PUSH2 0x9F7 JUMPI DUP6 PUSH1 0x1 PUSH1 0x1 PUSH1 0xA0 SHL SUB AND PUSH4 0xA9059CBB PUSH1 0x4 DUP5 DUP2 SLOAD DUP2 LT PUSH2 0x97C JUMPI PUSH2 0x97C PUSH2 0x20AA JUMP JUMPDEST PUSH0 SWAP2 DUP3 MSTORE PUSH1 0x20 SWAP1 SWAP2 KECCAK256 ADD SLOAD PUSH1 0x40 MLOAD PUSH1 0xE0 DUP4 SWAP1 SHL PUSH1 0x1 PUSH1 0x1 PUSH1 0xE0 SHL SUB NOT AND DUP2 MSTORE PUSH1 0x1 PUSH1 0x1 PUSH1 0xA0 SHL SUB SWAP1 SWAP2 AND PUSH1 0x4 DUP3 ADD MSTORE PUSH1 0x24 DUP2 ADD DUP5 SWAP1 MSTORE PUSH1 0x44 ADD PUSH1 0x20 PUSH1 0x40 MLOAD DUP1 DUP4 SUB DUP2 PUSH0 DUP8 GAS CALL ISZERO DUP1 ISZERO PUSH2 0x9D1 JUMPI RETURNDATASIZE PUSH0 DUP1 RETURNDATACOPY RETURNDATASIZE PUSH0 REVERT JUMPDEST POP POP POP POP PUSH1 0x40 MLOAD RETURNDATASIZE PUSH1 0x1F NOT PUSH1 0x1F DUP3 ADD AND DUP3 ADD DUP1 PUSH1 0x40 MSTORE POP DUP2 ADD SWAP1 PUSH2 0x9F5 SWAP2 SWAP1 PUSH2 0x20D5 JUMP JUMPDEST POP JUMPDEST POP PUSH1 0x1 ADD PUSH2 0x914 JUMP JUMPDEST POP POP POP JUMPDEST POP POP PUSH1 0x1 ADD PUSH2 0x7D8 JUMP JUMPDEST POP PUSH0 JUMPDEST PUSH1 0x7 SLOAD DUP2 LT ISZERO PUSH2 0xADC JUMPI PUSH0 PUSH1 0x7 DUP3 DUP2 SLOAD DUP2 LT PUSH2 0xA2F JUMPI PUSH2 0xA2F PUSH2 0x20AA JUMP JUMPDEST PUSH0 SWAP2 DUP3 MSTORE PUSH1 0x20 SWAP2 DUP3 SWAP1 KECCAK256 PUSH1 0x40 DUP1 MLOAD PUSH1 0x60 DUP2 ADD DUP3 MSTORE PUSH1 0x3 SWAP4 SWAP1 SWAP4 MUL SWAP1 SWAP2 ADD DUP1 SLOAD PUSH1 0x1 PUSH1 0x1 PUSH1 0xA0 SHL SUB SWAP1 DUP2 AND DUP1 DUP6 MSTORE PUSH1 0x1 DUP4 ADD SLOAD SWAP6 DUP6 ADD DUP7 SWAP1 MSTORE PUSH1 0x2 SWAP1 SWAP3 ADD SLOAD AND DUP4 DUP4 ADD DUP2 SWAP1 MSTORE SWAP2 MLOAD PUSH4 0x21421707 PUSH1 0xE1 SHL DUP2 MSTORE ADDRESS PUSH1 0x4 DUP3 ADD MSTORE PUSH1 0x24 DUP2 ADD SWAP3 SWAP1 SWAP3 MSTORE PUSH1 0x44 DUP3 ADD SWAP4 SWAP1 SWAP4 MSTORE SWAP1 SWAP3 POP PUSH4 0x42842E0E SWAP1 PUSH1 0x64 ADD PUSH0 PUSH1 0x40 MLOAD DUP1 DUP4 SUB DUP2 PUSH0 DUP8 DUP1 EXTCODESIZE ISZERO DUP1 ISZERO PUSH2 0xAB9 JUMPI PUSH0 DUP1 REVERT JUMPDEST POP GAS CALL ISZERO DUP1 ISZERO PUSH2 0xACB JUMPI RETURNDATASIZE PUSH0 DUP1 RETURNDATACOPY RETURNDATASIZE PUSH0 REVERT JUMPDEST POP POP PUSH1 0x1 SWAP1 SWAP4 ADD SWAP3 POP PUSH2 0xA11 SWAP2 POP POP JUMP JUMPDEST POP PUSH1 0x40 DUP1 MLOAD CALLER DUP2 MSTORE PUSH1 0x20 DUP2 ADD DUP5 SWAP1 MSTORE PUSH1 0x1 PUSH1 0x1 PUSH1 0xA0 SHL SUB DUP6 AND DUP2 DUP4 ADD MSTORE SWAP1 MLOAD PUSH32 0x52BA16C8B985EFF690A9DE92094BD7486F89340E06E385FFB26DE9C6EEA384DC SWAP2 DUP2 SWAP1 SUB PUSH1 0x60 ADD SWAP1 LOG1 POP POP PUSH1 0x1 DUP1 SSTORE POP POP POP POP POP JUMP JUMPDEST PUSH1 0x2 SLOAD PUSH1 0xFF AND ISZERO PUSH2 0xB55 JUMPI PUSH1 0x40 MLOAD PUSH3 0x461BCD PUSH1 0xE5 SHL DUP2 MSTORE PUSH1 0x4 ADD PUSH2 0x394 SWAP1 PUSH2 0x1FAA JUMP JUMPDEST CALLER PUSH2 0xB67 PUSH0 SLOAD PUSH1 0x1 PUSH1 0x1 PUSH1 0xA0 SHL SUB AND SWAP1 JUMP JUMPDEST PUSH1 0x1 PUSH1 0x1 PUSH1 0xA0 SHL SUB AND EQ PUSH2 0xB8D JUMPI PUSH1 0x40 MLOAD PUSH3 0x461BCD PUSH1 0xE5 SHL DUP2 MSTORE PUSH1 0x4 ADD PUSH2 0x394 SWAP1 PUSH2 0x1FEE JUMP JUMPDEST PUSH2 0xB95 PUSH2 0x18EA JUMP JUMPDEST PUSH1 0x2 PUSH1 0x1 DUP2 DUP2 SSTORE DUP2 SLOAD PUSH1 0xFF NOT AND OR SWAP1 SSTORE PUSH0 SLOAD PUSH1 0x1 PUSH1 0x1 PUSH1 0xA0 SHL SUB AND PUSH32 0x0 ISZERO PUSH2 0xD35 JUMPI PUSH32 0x0 SELFBALANCE LT ISZERO PUSH2 0xC54 JUMPI PUSH1 0x40 MLOAD PUSH3 0x461BCD PUSH1 0xE5 SHL DUP2 MSTORE PUSH1 0x20 PUSH1 0x4 DUP3 ADD MSTORE PUSH1 0x25 PUSH1 0x24 DUP3 ADD MSTORE PUSH32 0x496E73756666696369656E742045544820666F72207465726D696E6174696F6E PUSH1 0x44 DUP3 ADD MSTORE PUSH5 0x103332B297 PUSH1 0xD9 SHL PUSH1 0x64 DUP3 ADD MSTORE PUSH1 0x84 ADD PUSH2 0x394 JUMP JUMPDEST PUSH0 PUSH32 0x0 PUSH1 0x1 PUSH1 0x1 PUSH1 0xA0 SHL SUB AND PUSH32 0x0 PUSH1 0x40 MLOAD PUSH0 PUSH1 0x40 MLOAD DUP1 DUP4 SUB DUP2 DUP6 DUP8 GAS CALL SWAP3 POP POP POP RETURNDATASIZE DUP1 PUSH0 DUP2 EQ PUSH2 0xCDD JUMPI PUSH1 0x40 MLOAD SWAP2 POP PUSH1 0x1F NOT PUSH1 0x3F RETURNDATASIZE ADD AND DUP3 ADD PUSH1 0x40 MSTORE RETURNDATASIZE DUP3 MSTORE RETURNDATASIZE PUSH0 PUSH1 0x20 DUP5 ADD RETURNDATACOPY PUSH2 0xCE2 JUMP JUMPDEST PUSH1 0x60 SWAP2 POP JUMPDEST POP POP SWAP1 POP DUP1 PUSH2 0xD33 JUMPI PUSH1 0x40 MLOAD PUSH3 0x461BCD PUSH1 0xE5 SHL DUP2 MSTORE PUSH1 0x20 PUSH1 0x4 DUP3 ADD DUP2 SWAP1 MSTORE PUSH1 0x24 DUP3 ADD MSTORE PUSH32 0x5465726D696E6174696F6E20666565207472616E73666572206661696C65642E PUSH1 0x44 DUP3 ADD MSTORE PUSH1 0x64 ADD PUSH2 0x394 JUMP JUMPDEST POP JUMPDEST PUSH1 0x40 MLOAD PUSH4 0xA658DD6B PUSH1 0xE0 SHL DUP2 MSTORE PUSH1 0x1 PUSH1 0x1 PUSH1 0xA0 SHL SUB DUP3 DUP2 AND PUSH1 0x4 DUP4 ADD MSTORE PUSH32 0x0 AND SWAP1 PUSH4 0xA658DD6B SWAP1 PUSH1 0x24 ADD PUSH0 PUSH1 0x40 MLOAD DUP1 DUP4 SUB DUP2 PUSH0 DUP8 DUP1 EXTCODESIZE ISZERO DUP1 ISZERO PUSH2 0xD95 JUMPI PUSH0 DUP1 REVERT JUMPDEST POP GAS CALL ISZERO DUP1 ISZERO PUSH2 0xDA7 JUMPI RETURNDATASIZE PUSH0 DUP1 RETURNDATACOPY RETURNDATASIZE PUSH0 REVERT JUMPDEST POP POP POP POP PUSH0 JUMPDEST PUSH1 0x6 SLOAD DUP2 LT ISZERO PUSH2 0xEC3 JUMPI PUSH0 PUSH1 0x6 DUP3 DUP2 SLOAD DUP2 LT PUSH2 0xDCB JUMPI PUSH2 0xDCB PUSH2 0x20AA JUMP JUMPDEST PUSH0 SWAP2 DUP3 MSTORE PUSH1 0x20 DUP3 KECCAK256 ADD SLOAD PUSH1 0x40 MLOAD PUSH4 0x70A08231 PUSH1 0xE0 SHL DUP2 MSTORE ADDRESS PUSH1 0x4 DUP3 ADD MSTORE PUSH1 0x1 PUSH1 0x1 PUSH1 0xA0 SHL SUB SWAP1 SWAP2 AND SWAP3 POP DUP3 SWAP1 PUSH4 0x70A08231 SWAP1 PUSH1 0x24 ADD PUSH1 0x20 PUSH1 0x40 MLOAD DUP1 DUP4 SUB DUP2 DUP7 GAS STATICCALL ISZERO DUP1 ISZERO PUSH2 0xE1B JUMPI RETURNDATASIZE PUSH0 DUP1 RETURNDATACOPY RETURNDATASIZE PUSH0 REVERT JUMPDEST POP POP POP POP PUSH1 0x40 MLOAD RETURNDATASIZE PUSH1 0x1F NOT PUSH1 0x1F DUP3 ADD AND DUP3 ADD DUP1 PUSH1 0x40 MSTORE POP DUP2 ADD SWAP1 PUSH2 0xE3F SWAP2 SWAP1 PUSH2 0x20BE JUMP JUMPDEST SWAP1 POP DUP1 ISZERO PUSH2 0xEB9 JUMPI PUSH1 0x40 MLOAD PUSH4 0xA9059CBB PUSH1 0xE0 SHL DUP2 MSTORE PUSH1 0x1 PUSH1 0x1 PUSH1 0xA0 SHL SUB DUP6 DUP2 AND PUSH1 0x4 DUP4 ADD MSTORE PUSH1 0x24 DUP3 ADD DUP4 SWAP1 MSTORE DUP4 AND SWAP1 PUSH4 0xA9059CBB SWAP1 PUSH1 0x44 ADD PUSH1 0x20 PUSH1 0x40 MLOAD DUP1 DUP4 SUB DUP2 PUSH0 DUP8 GAS CALL ISZERO DUP1 ISZERO PUSH2 0xE93 JUMPI RETURNDATASIZE PUSH0 DUP1 RETURNDATACOPY RETURNDATASIZE PUSH0 REVERT JUMPDEST POP POP POP POP PUSH1 0x40 MLOAD RETURNDATASIZE PUSH1 0x1F NOT PUSH1 0x1F DUP3 ADD AND DUP3 ADD DUP1 PUSH1 0x40 MSTORE POP DUP2 ADD SWAP1 PUSH2 0xEB7 SWAP2 SWAP1 PUSH2 0x20D5 JUMP JUMPDEST POP JUMPDEST POP POP PUSH1 0x1 ADD PUSH2 0xDAD JUMP JUMPDEST POP PUSH0 JUMPDEST PUSH1 0x7 SLOAD DUP2 LT ISZERO PUSH2 0xF90 JUMPI PUSH0 PUSH1 0x7 DUP3 DUP2 SLOAD DUP2 LT PUSH2 0xEE4 JUMPI PUSH2 0xEE4 PUSH2 0x20AA JUMP JUMPDEST PUSH0 SWAP2 DUP3 MSTORE PUSH1 0x20 SWAP2 DUP3 SWAP1 KECCAK256 PUSH1 0x40 DUP1 MLOAD PUSH1 0x60 DUP2 ADD DUP3 MSTORE PUSH1 0x3 SWAP4 SWAP1 SWAP4 MUL SWAP1 SWAP2 ADD DUP1 SLOAD PUSH1 0x1 PUSH1 0x1 PUSH1 0xA0 SHL SUB SWAP1 DUP2 AND DUP1 DUP6 MSTORE PUSH1 0x1 DUP4 ADD SLOAD SWAP6 DUP6 ADD DUP7 SWAP1 MSTORE PUSH1 0x2 SWAP1 SWAP3 ADD SLOAD DUP2 AND DUP5 DUP5 ADD MSTORE SWAP2 MLOAD PUSH4 0x21421707 PUSH1 0xE1 SHL DUP2 MSTORE ADDRESS PUSH1 0x4 DUP3 ADD MSTORE SWAP2 DUP8 AND PUSH1 0x24 DUP4 ADD MSTORE PUSH1 0x44 DUP3 ADD SWAP4 SWAP1 SWAP4 MSTORE SWAP1 SWAP3 POP PUSH4 0x42842E0E SWAP1 PUSH1 0x64 ADD PUSH0 PUSH1 0x40 MLOAD DUP1 DUP4 SUB DUP2 PUSH0 DUP8 DUP1 EXTCODESIZE ISZERO DUP1 ISZERO PUSH2 0xF6D JUMPI PUSH0 DUP1 REVERT JUMPDEST POP GAS CALL ISZERO DUP1 ISZERO PUSH2 0xF7F JUMPI RETURNDATASIZE PUSH0 DUP1 RETURNDATACOPY RETURNDATASIZE PUSH0 REVERT JUMPDEST POP POP PUSH1 0x1 SWAP1 SWAP4 ADD SWAP3 POP PUSH2 0xEC6 SWAP2 POP POP JUMP JUMPDEST POP SELFBALANCE DUP1 ISZERO PUSH2 0x1030 JUMPI PUSH0 DUP3 PUSH1 0x1 PUSH1 0x1 PUSH1 0xA0 SHL SUB AND DUP3 PUSH1 0x40 MLOAD PUSH0 PUSH1 0x40 MLOAD DUP1 DUP4 SUB DUP2 DUP6 DUP8 GAS CALL SWAP3 POP POP POP RETURNDATASIZE DUP1 PUSH0 DUP2 EQ PUSH2 0xFE1 JUMPI PUSH1 0x40 MLOAD SWAP2 POP PUSH1 0x1F NOT PUSH1 0x3F RETURNDATASIZE ADD AND DUP3 ADD PUSH1 0x40 MSTORE RETURNDATASIZE DUP3 MSTORE RETURNDATASIZE PUSH0 PUSH1 0x20 DUP5 ADD RETURNDATACOPY PUSH2 0xFE6 JUMP JUMPDEST PUSH1 0x60 SWAP2 POP JUMPDEST POP POP SWAP1 POP DUP1 PUSH2 0x102E JUMPI PUSH1 0x40 MLOAD PUSH3 0x461BCD PUSH1 0xE5 SHL DUP2 MSTORE PUSH1 0x20 PUSH1 0x4 DUP3 ADD MSTORE PUSH1 0x14 PUSH1 0x24 DUP3 ADD MSTORE PUSH20 0x22AA24103A3930B739B332B9103330B4B632B217 PUSH1 0x61 SHL PUSH1 0x44 DUP3 ADD MSTORE PUSH1 0x64 ADD PUSH2 0x394 JUMP JUMPDEST POP JUMPDEST PUSH1 0x40 MLOAD PUSH32 0x0 DUP2 MSTORE PUSH32 0xC41D93B8BFBF9FD7CF5BFE271FD649AB6A6FEC0EA101C23B82A2A28ECA2533A9 SWAP1 PUSH1 0x20 ADD PUSH1 0x40 MLOAD DUP1 SWAP2 SUB SWAP1 LOG1 POP POP PUSH1 0x1 DUP1 SSTORE JUMP JUMPDEST PUSH2 0x1093 PUSH2 0x190D JUMP JUMPDEST PUSH2 0x109C PUSH0 PUSH2 0x1939 JUMP JUMPDEST JUMP JUMPDEST PUSH1 0x6 DUP2 DUP2 SLOAD DUP2 LT PUSH2 0x339 JUMPI PUSH0 DUP1 REVERT JUMPDEST PUSH1 0x8 SLOAD PUSH1 0xFF AND ISZERO PUSH2 0x1100 JUMPI PUSH1 0x40 MLOAD PUSH3 0x461BCD PUSH1 0xE5 SHL DUP2 MSTORE PUSH1 0x20 PUSH1 0x4 DUP3 ADD MSTORE PUSH1 0x19 PUSH1 0x24 DUP3 ADD MSTORE PUSH32 0x57696C6C3A20616C726561647920696E697469616C697A656400000000000000 PUSH1 0x44 DUP3 ADD MSTORE PUSH1 0x64 ADD PUSH2 0x394 JUMP JUMPDEST CALLER PUSH1 0x1 PUSH1 0x1 PUSH1 0xA0 SHL SUB PUSH32 0x0 AND EQ PUSH2 0x1178 JUMPI PUSH1 0x40 MLOAD PUSH3 0x461BCD PUSH1 0xE5 SHL DUP2 MSTORE PUSH1 0x20 PUSH1 0x4 DUP3 ADD MSTORE PUSH1 0x1B PUSH1 0x24 DUP3 ADD MSTORE PUSH32 0x57696C6C3A206E6F742063616C6C656420627920666163746F72790000000000 PUSH1 0x44 DUP3 ADD MSTORE PUSH1 0x64 ADD PUSH2 0x394 JUMP JUMPDEST PUSH1 0x8 DUP1 SLOAD PUSH1 0xFF NOT AND PUSH1 0x1 OR SWAP1 SSTORE DUP3 MLOAD DUP5 MLOAD EQ PUSH2 0x11E7 JUMPI PUSH1 0x40 MLOAD PUSH3 0x461BCD PUSH1 0xE5 SHL DUP2 MSTORE PUSH1 0x20 PUSH1 0x4 DUP3 ADD MSTORE PUSH1 0x28 PUSH1 0x24 DUP3 ADD MSTORE PUSH32 0x486569727320616E6420646973747269627574696F6E73206C656E677468206D PUSH1 0x44 DUP3 ADD MSTORE PUSH8 0x34B9B6B0BA31B417 PUSH1 0xC1 SHL PUSH1 0x64 DUP3 ADD MSTORE PUSH1 0x84 ADD PUSH2 0x394 JUMP JUMPDEST PUSH0 DUP5 MLOAD GT PUSH2 0x1230 JUMPI PUSH1 0x40 MLOAD PUSH3 0x461BCD PUSH1 0xE5 SHL DUP2 MSTORE PUSH1 0x20 PUSH1 0x4 DUP3 ADD MSTORE PUSH1 0x16 PUSH1 0x24 DUP3 ADD MSTORE PUSH22 0x2432B4B9399031B0B73737BA1031329032B6B83A3C97 PUSH1 0x51 SHL PUSH1 0x44 DUP3 ADD MSTORE PUSH1 0x64 ADD PUSH2 0x394 JUMP JUMPDEST PUSH0 DUP1 JUMPDEST DUP5 MLOAD DUP2 LT ISZERO PUSH2 0x126B JUMPI DUP5 DUP2 DUP2 MLOAD DUP2 LT PUSH2 0x124E JUMPI PUSH2 0x124E PUSH2 0x20AA JUMP JUMPDEST PUSH1 0x20 MUL PUSH1 0x20 ADD ADD MLOAD DUP3 PUSH2 0x1261 SWAP2 SWAP1 PUSH2 0x2048 JUMP JUMPDEST SWAP2 POP PUSH1 0x1 ADD PUSH2 0x1233 JUMP JUMPDEST POP DUP1 PUSH1 0x64 EQ PUSH2 0x12CE JUMPI PUSH1 0x40 MLOAD PUSH3 0x461BCD PUSH1 0xE5 SHL DUP2 MSTORE PUSH1 0x20 PUSH1 0x4 DUP3 ADD MSTORE PUSH1 0x29 PUSH1 0x24 DUP3 ADD MSTORE PUSH32 0x446973747269627574696F6E2070657263656E7461676573206D757374207375 PUSH1 0x44 DUP3 ADD MSTORE PUSH9 0x36903A379018981817 PUSH1 0xB9 SHL PUSH1 0x64 DUP3 ADD MSTORE PUSH1 0x84 ADD PUSH2 0x394 JUMP JUMPDEST TIMESTAMP PUSH1 0x3 SSTORE DUP5 MLOAD PUSH2 0x12E5 SWAP1 PUSH1 0x4 SWAP1 PUSH1 0x20 DUP9 ADD SWAP1 PUSH2 0x1988 JUMP JUMPDEST POP DUP4 MLOAD PUSH2 0x12F9 SWAP1 PUSH1 0x5 SWAP1 PUSH1 0x20 DUP8 ADD SWAP1 PUSH2 0x19EB JUMP JUMPDEST POP PUSH0 JUMPDEST DUP4 MLOAD DUP2 LT ISZERO PUSH2 0x1372 JUMPI PUSH1 0x6 PUSH1 0x40 MLOAD DUP1 PUSH1 0x20 ADD PUSH1 0x40 MSTORE DUP1 DUP7 DUP5 DUP2 MLOAD DUP2 LT PUSH2 0x1324 JUMPI PUSH2 0x1324 PUSH2 0x20AA JUMP JUMPDEST PUSH1 0x20 SWAP1 DUP2 MUL SWAP2 SWAP1 SWAP2 ADD DUP2 ADD MLOAD MLOAD PUSH1 0x1 PUSH1 0x1 PUSH1 0xA0 SHL SUB SWAP1 DUP2 AND SWAP1 SWAP3 MSTORE DUP4 SLOAD PUSH1 0x1 DUP1 DUP3 ADD DUP7 SSTORE PUSH0 SWAP6 DUP7 MSTORE SWAP2 SWAP1 SWAP5 KECCAK256 SWAP3 MLOAD SWAP3 SWAP1 SWAP4 ADD DUP1 SLOAD PUSH1 0x1 PUSH1 0x1 PUSH1 0xA0 SHL SUB NOT AND SWAP3 SWAP1 SWAP2 AND SWAP2 SWAP1 SWAP2 OR SWAP1 SSTORE ADD PUSH2 0x12FC JUMP JUMPDEST POP PUSH0 JUMPDEST DUP3 MLOAD DUP2 LT ISZERO PUSH2 0x145B JUMPI PUSH1 0x7 PUSH1 0x40 MLOAD DUP1 PUSH1 0x60 ADD PUSH1 0x40 MSTORE DUP1 DUP6 DUP5 DUP2 MLOAD DUP2 LT PUSH2 0x139D JUMPI PUSH2 0x139D PUSH2 0x20AA JUMP JUMPDEST PUSH1 0x20 MUL PUSH1 0x20 ADD ADD MLOAD PUSH0 ADD MLOAD PUSH1 0x1 PUSH1 0x1 PUSH1 0xA0 SHL SUB AND DUP2 MSTORE PUSH1 0x20 ADD DUP6 DUP5 DUP2 MLOAD DUP2 LT PUSH2 0x13C8 JUMPI PUSH2 0x13C8 PUSH2 0x20AA JUMP JUMPDEST PUSH1 0x20 MUL PUSH1 0x20 ADD ADD MLOAD PUSH1 0x20 ADD MLOAD DUP2 MSTORE PUSH1 0x20 ADD DUP6 DUP5 DUP2 MLOAD DUP2 LT PUSH2 0x13EB JUMPI PUSH2 0x13EB PUSH2 0x20AA JUMP JUMPDEST PUSH1 0x20 SWAP1 DUP2 MUL SWAP2 SWAP1 SWAP2 ADD DUP2 ADD MLOAD PUSH1 0x40 SWAP1 DUP2 ADD MLOAD PUSH1 0x1 PUSH1 0x1 PUSH1 0xA0 SHL SUB SWAP1 DUP2 AND SWAP1 SWAP4 MSTORE DUP5 SLOAD PUSH1 0x1 DUP1 DUP3 ADD DUP8 SSTORE PUSH0 SWAP7 DUP8 MSTORE SWAP6 DUP4 SWAP1 KECCAK256 DUP6 MLOAD PUSH1 0x3 SWAP1 SWAP3 MUL ADD DUP1 SLOAD PUSH1 0x1 PUSH1 0x1 PUSH1 0xA0 SHL SUB NOT SWAP1 DUP2 AND SWAP3 DUP7 AND SWAP3 SWAP1 SWAP3 OR DUP2 SSTORE SWAP3 DUP6 ADD MLOAD DUP4 DUP8 ADD SSTORE SWAP4 ADD MLOAD PUSH1 0x2 SWAP1 SWAP2 ADD DUP1 SLOAD SWAP1 SWAP4 AND SWAP2 AND OR SWAP1 SSTORE ADD PUSH2 0x1375 JUMP JUMPDEST POP POP POP POP POP POP JUMP JUMPDEST PUSH2 0x14C0 PUSH1 0x40 MLOAD DUP1 PUSH2 0x140 ADD PUSH1 0x40 MSTORE DUP1 PUSH0 PUSH1 0x1 PUSH1 0x1 PUSH1 0xA0 SHL SUB AND DUP2 MSTORE PUSH1 0x20 ADD PUSH0 DUP2 MSTORE PUSH1 0x20 ADD PUSH0 DUP2 MSTORE PUSH1 0x20 ADD PUSH0 ISZERO ISZERO DUP2 MSTORE PUSH1 0x20 ADD PUSH0 ISZERO ISZERO DUP2 MSTORE PUSH1 0x20 ADD PUSH0 DUP2 MSTORE PUSH1 0x20 ADD PUSH1 0x60 DUP2 MSTORE PUSH1 0x20 ADD PUSH1 0x60 DUP2 MSTORE PUSH1 0x20 ADD PUSH1 0x60 DUP2 MSTORE PUSH1 0x20 ADD PUSH1 0x60 DUP2 MSTORE POP SWAP1 JUMP JUMPDEST PUSH1 0x6 SLOAD PUSH0 SWAP1 PUSH8 0xFFFFFFFFFFFFFFFF DUP2 GT ISZERO PUSH2 0x14DD JUMPI PUSH2 0x14DD PUSH2 0x1A4F JUMP JUMPDEST PUSH1 0x40 MLOAD SWAP1 DUP1 DUP3 MSTORE DUP1 PUSH1 0x20 MUL PUSH1 0x20 ADD DUP3 ADD PUSH1 0x40 MSTORE DUP1 ISZERO PUSH2 0x1521 JUMPI DUP2 PUSH1 0x20 ADD JUMPDEST PUSH1 0x40 DUP1 MLOAD DUP1 DUP3 ADD SWAP1 SWAP2 MSTORE PUSH0 DUP1 DUP3 MSTORE PUSH1 0x20 DUP3 ADD MSTORE DUP2 MSTORE PUSH1 0x20 ADD SWAP1 PUSH1 0x1 SWAP1 SUB SWAP1 DUP2 PUSH2 0x14FB JUMPI SWAP1 POP JUMPDEST POP SWAP1 POP PUSH0 JUMPDEST PUSH1 0x6 SLOAD DUP2 LT ISZERO PUSH2 0x15F4 JUMPI PUSH0 PUSH1 0x6 DUP3 DUP2 SLOAD DUP2 LT PUSH2 0x1544 JUMPI PUSH2 0x1544 PUSH2 0x20AA JUMP JUMPDEST PUSH0 SWAP2 DUP3 MSTORE PUSH1 0x20 SWAP2 DUP3 SWAP1 KECCAK256 ADD SLOAD PUSH1 0x40 DUP1 MLOAD DUP1 DUP3 ADD DUP3 MSTORE PUSH1 0x1 PUSH1 0x1 PUSH1 0xA0 SHL SUB SWAP1 SWAP3 AND DUP1 DUP4 MSTORE SWAP1 MLOAD PUSH4 0x70A08231 PUSH1 0xE0 SHL DUP2 MSTORE ADDRESS PUSH1 0x4 DUP3 ADD MSTORE SWAP1 SWAP4 POP SWAP1 SWAP2 DUP3 ADD SWAP1 DUP4 SWAP1 PUSH4 0x70A08231 SWAP1 PUSH1 0x24 ADD PUSH1 0x20 PUSH1 0x40 MLOAD DUP1 DUP4 SUB DUP2 DUP7 GAS STATICCALL ISZERO DUP1 ISZERO PUSH2 0x15A7 JUMPI RETURNDATASIZE PUSH0 DUP1 RETURNDATACOPY RETURNDATASIZE PUSH0 REVERT JUMPDEST POP POP POP POP PUSH1 0x40 MLOAD RETURNDATASIZE PUSH1 0x1F NOT PUSH1 0x1F DUP3 ADD AND DUP3 ADD DUP1 PUSH1 0x40 MSTORE POP DUP2 ADD SWAP1 PUSH2 0x15CB SWAP2 SWAP1 PUSH2 0x20BE JUMP JUMPDEST DUP2 MSTORE POP DUP4 DUP4 DUP2 MLOAD DUP2 LT PUSH2 0x15E0 JUMPI PUSH2 0x15E0 PUSH2 0x20AA JUMP JUMPDEST PUSH1 0x20 SWAP1 DUP2 MUL SWAP2 SWAP1 SWAP2 ADD ADD MSTORE POP PUSH1 0x1 ADD PUSH2 0x1526 JUMP JUMPDEST POP PUSH1 0x7 SLOAD PUSH0 SWAP1 PUSH8 0xFFFFFFFFFFFFFFFF DUP2 GT ISZERO PUSH2 0x1612 JUMPI PUSH2 0x1612 PUSH2 0x1A4F JUMP JUMPDEST PUSH1 0x40 MLOAD SWAP1 DUP1 DUP3 MSTORE DUP1 PUSH1 0x20 MUL PUSH1 0x20 ADD DUP3 ADD PUSH1 0x40 MSTORE DUP1 ISZERO PUSH2 0x165B JUMPI DUP2 PUSH1 0x20 ADD JUMPDEST PUSH1 0x40 DUP1 MLOAD PUSH1 0x60 DUP2 ADD DUP3 MSTORE PUSH0 DUP1 DUP3 MSTORE PUSH1 0x20 DUP1 DUP4 ADD DUP3 SWAP1 MSTORE SWAP3 DUP3 ADD MSTORE DUP3 MSTORE PUSH0 NOT SWAP1 SWAP3 ADD SWAP2 ADD DUP2 PUSH2 0x1630 JUMPI SWAP1 POP JUMPDEST POP SWAP1 POP PUSH0 JUMPDEST PUSH1 0x7 SLOAD DUP2 LT ISZERO PUSH2 0x1710 JUMPI PUSH0 PUSH1 0x7 DUP3 DUP2 SLOAD DUP2 LT PUSH2 0x167E JUMPI PUSH2 0x167E PUSH2 0x20AA JUMP JUMPDEST PUSH0 SWAP2 DUP3 MSTORE PUSH1 0x20 SWAP2 DUP3 SWAP1 KECCAK256 PUSH1 0x40 DUP1 MLOAD PUSH1 0x60 DUP1 DUP3 ADD DUP4 MSTORE PUSH1 0x3 SWAP1 SWAP5 MUL SWAP1 SWAP3 ADD DUP1 SLOAD PUSH1 0x1 PUSH1 0x1 PUSH1 0xA0 SHL SUB SWAP1 DUP2 AND DUP5 MSTORE PUSH1 0x1 DUP3 ADD SLOAD DUP5 DUP8 ADD SWAP1 DUP2 MSTORE PUSH1 0x2 SWAP1 SWAP3 ADD SLOAD DUP2 AND DUP5 DUP5 ADD SWAP1 DUP2 MSTORE DUP4 MLOAD SWAP6 DUP7 ADD DUP5 MSTORE DUP5 MLOAD DUP3 AND DUP7 MSTORE SWAP2 MLOAD SWAP6 DUP6 ADD SWAP6 SWAP1 SWAP6 MSTORE MLOAD SWAP1 SWAP4 AND SWAP3 DUP3 ADD SWAP3 SWAP1 SWAP3 MSTORE DUP5 MLOAD SWAP2 SWAP3 POP SWAP1 DUP5 SWAP1 DUP5 SWAP1 DUP2 LT PUSH2 0x16FC JUMPI PUSH2 0x16FC PUSH2 0x20AA JUMP JUMPDEST PUSH1 0x20 SWAP1 DUP2 MUL SWAP2 SWAP1 SWAP2 ADD ADD MSTORE POP PUSH1 0x1 ADD PUSH2 0x1660 JUMP JUMPDEST POP PUSH1 0x40 MLOAD DUP1 PUSH2 0x140 ADD PUSH1 0x40 MSTORE DUP1 PUSH2 0x172E PUSH0 SLOAD PUSH1 0x1 PUSH1 0x1 PUSH1 0xA0 SHL SUB AND SWAP1 JUMP JUMPDEST PUSH1 0x1 PUSH1 0x1 PUSH1 0xA0 SHL SUB AND DUP2 MSTORE PUSH1 0x20 ADD PUSH32 0x0 DUP2 MSTORE PUSH1 0x20 ADD PUSH1 0x3 SLOAD DUP2 MSTORE PUSH1 0x20 ADD PUSH1 0x2 PUSH0 SWAP1 SLOAD SWAP1 PUSH2 0x100 EXP SWAP1 DIV PUSH1 0xFF AND ISZERO ISZERO DUP2 MSTORE PUSH1 0x20 ADD PUSH32 0x0 ISZERO ISZERO DUP2 MSTORE PUSH1 0x20 ADD SELFBALANCE DUP2 MSTORE PUSH1 0x20 ADD PUSH1 0x4 DUP1 SLOAD DUP1 PUSH1 0x20 MUL PUSH1 0x20 ADD PUSH1 0x40 MLOAD SWAP1 DUP2 ADD PUSH1 0x40 MSTORE DUP1 SWAP3 SWAP2 SWAP1 DUP2 DUP2 MSTORE PUSH1 0x20 ADD DUP3 DUP1 SLOAD DUP1 ISZERO PUSH2 0x1802 JUMPI PUSH1 0x20 MUL DUP3 ADD SWAP2 SWAP1 PUSH0 MSTORE PUSH1 0x20 PUSH0 KECCAK256 SWAP1 JUMPDEST DUP2 SLOAD PUSH1 0x1 PUSH1 0x1 PUSH1 0xA0 SHL SUB AND DUP2 MSTORE PUSH1 0x1 SWAP1 SWAP2 ADD SWAP1 PUSH1 0x20 ADD DUP1 DUP4 GT PUSH2 0x17E4 JUMPI JUMPDEST POP POP POP POP POP DUP2 MSTORE PUSH1 0x20 ADD PUSH1 0x5 DUP1 SLOAD DUP1 PUSH1 0x20 MUL PUSH1 0x20 ADD PUSH1 0x40 MLOAD SWAP1 DUP2 ADD PUSH1 0x40 MSTORE DUP1 SWAP3 SWAP2 SWAP1 DUP2 DUP2 MSTORE PUSH1 0x20 ADD DUP3 DUP1 SLOAD DUP1 ISZERO PUSH2 0x1856 JUMPI PUSH1 0x20 MUL DUP3 ADD SWAP2 SWAP1 PUSH0 MSTORE PUSH1 0x20 PUSH0 KECCAK256 SWAP1 JUMPDEST DUP2 SLOAD DUP2 MSTORE PUSH1 0x20 ADD SWAP1 PUSH1 0x1 ADD SWAP1 DUP1 DUP4 GT PUSH2 0x1842 JUMPI JUMPDEST POP POP POP POP POP DUP2 MSTORE PUSH1 0x20 ADD DUP4 DUP2 MSTORE PUSH1 0x20 ADD DUP3 DUP2 MSTORE POP SWAP3 POP POP POP SWAP1 JUMP JUMPDEST PUSH1 0x7 DUP2 DUP2 SLOAD DUP2 LT PUSH2 0x1880 JUMPI PUSH0 DUP1 REVERT JUMPDEST PUSH0 SWAP2 DUP3 MSTORE PUSH1 0x20 SWAP1 SWAP2 KECCAK256 PUSH1 0x3 SWAP1 SWAP2 MUL ADD DUP1 SLOAD PUSH1 0x1 DUP3 ADD SLOAD PUSH1 0x2 SWAP1 SWAP3 ADD SLOAD PUSH1 0x1 PUSH1 0x1 PUSH1 0xA0 SHL SUB SWAP2 DUP3 AND SWAP4 POP AND DUP4 JUMP JUMPDEST PUSH2 0x18B5 PUSH2 0x190D JUMP JUMPDEST PUSH1 0x1 PUSH1 0x1 PUSH1 0xA0 SHL SUB DUP2 AND PUSH2 0x18DE JUMPI PUSH1 0x40 MLOAD PUSH4 0x1E4FBDF7 PUSH1 0xE0 SHL DUP2 MSTORE PUSH0 PUSH1 0x4 DUP3 ADD MSTORE PUSH1 0x24 ADD PUSH2 0x394 JUMP JUMPDEST PUSH2 0x18E7 DUP2 PUSH2 0x1939 JUMP JUMPDEST POP JUMP JUMPDEST PUSH1 0x2 PUSH1 0x1 SLOAD SUB PUSH2 0x109C JUMPI PUSH1 0x40 MLOAD PUSH4 0x3EE5AEB5 PUSH1 0xE0 SHL DUP2 MSTORE PUSH1 0x4 ADD PUSH1 0x40 MLOAD DUP1 SWAP2 SUB SWAP1 REVERT JUMPDEST PUSH0 SLOAD PUSH1 0x1 PUSH1 0x1 PUSH1 0xA0 SHL SUB AND CALLER EQ PUSH2 0x109C JUMPI PUSH1 0x40 MLOAD PUSH4 0x118CDAA7 PUSH1 0xE0 SHL DUP2 MSTORE CALLER PUSH1 0x4 DUP3 ADD MSTORE PUSH1 0x24 ADD PUSH2 0x394 JUMP JUMPDEST PUSH0 DUP1 SLOAD PUSH1 0x1 PUSH1 0x1 PUSH1 0xA0 SHL SUB DUP4 DUP2 AND PUSH1 0x1 PUSH1 0x1 PUSH1 0xA0 SHL SUB NOT DUP4 AND DUP2 OR DUP5 SSTORE PUSH1 0x40 MLOAD SWAP2 SWAP1 SWAP3 AND SWAP3 DUP4 SWAP2 PUSH32 0x8BE0079C531659141344CD1FD0A4F28419497F9722A3DAAFE3B4186F6B6457E0 SWAP2 SWAP1 LOG3 POP POP JUMP JUMPDEST DUP3 DUP1 SLOAD DUP3 DUP3 SSTORE SWAP1 PUSH0 MSTORE PUSH1 0x20 PUSH0 KECCAK256 SWAP1 DUP2 ADD SWAP3 DUP3 ISZERO PUSH2 0x19DB JUMPI SWAP2 PUSH1 0x20 MUL DUP3 ADD JUMPDEST DUP3 DUP2 GT ISZERO PUSH2 0x19DB JUMPI DUP3 MLOAD DUP3 SLOAD PUSH1 0x1 PUSH1 0x1 PUSH1 0xA0 SHL SUB NOT AND PUSH1 0x1 PUSH1 0x1 PUSH1 0xA0 SHL SUB SWAP1 SWAP2 AND OR DUP3 SSTORE PUSH1 0x20 SWAP1 SWAP3 ADD SWAP2 PUSH1 0x1 SWAP1 SWAP2 ADD SWAP1 PUSH2 0x19A6 JUMP JUMPDEST POP PUSH2 0x19E7 SWAP3 SWAP2 POP PUSH2 0x1A24 JUMP JUMPDEST POP SWAP1 JUMP JUMPDEST DUP3 DUP1 SLOAD DUP3 DUP3 SSTORE SWAP1 PUSH0 MSTORE PUSH1 0x20 PUSH0 KECCAK256 SWAP1 DUP2 ADD SWAP3 DUP3 ISZERO PUSH2 0x19DB JUMPI SWAP2 PUSH1 0x20 MUL DUP3 ADD JUMPDEST DUP3 DUP2 GT ISZERO PUSH2 0x19DB JUMPI DUP3 MLOAD DUP3 SSTORE SWAP2 PUSH1 0x20 ADD SWAP2 SWAP1 PUSH1 0x1 ADD SWAP1 PUSH2 0x1A09 JUMP JUMPDEST JUMPDEST DUP1 DUP3 GT ISZERO PUSH2 0x19E7 JUMPI PUSH0 DUP2 SSTORE PUSH1 0x1 ADD PUSH2 0x1A25 JUMP JUMPDEST PUSH0 PUSH1 0x20 DUP3 DUP5 SUB SLT ISZERO PUSH2 0x1A48 JUMPI PUSH0 DUP1 REVERT JUMPDEST POP CALLDATALOAD SWAP2 SWAP1 POP JUMP JUMPDEST PUSH4 0x4E487B71 PUSH1 0xE0 SHL PUSH0 MSTORE PUSH1 0x41 PUSH1 0x4 MSTORE PUSH1 0x24 PUSH0 REVERT JUMPDEST PUSH1 0x40 DUP1 MLOAD SWAP1 DUP2 ADD PUSH8 0xFFFFFFFFFFFFFFFF DUP2 GT DUP3 DUP3 LT OR ISZERO PUSH2 0x1A86 JUMPI PUSH2 0x1A86 PUSH2 0x1A4F JUMP JUMPDEST PUSH1 0x40 MSTORE SWAP1 JUMP JUMPDEST PUSH1 0x40 MLOAD PUSH1 0x60 DUP2 ADD PUSH8 0xFFFFFFFFFFFFFFFF DUP2 GT DUP3 DUP3 LT OR ISZERO PUSH2 0x1A86 JUMPI PUSH2 0x1A86 PUSH2 0x1A4F JUMP JUMPDEST PUSH1 0x40 MLOAD PUSH1 0x1F DUP3 ADD PUSH1 0x1F NOT AND DUP2 ADD PUSH8 0xFFFFFFFFFFFFFFFF DUP2 GT DUP3 DUP3 LT OR ISZERO PUSH2 0x1AD8 JUMPI PUSH2 0x1AD8 PUSH2 0x1A4F JUMP JUMPDEST PUSH1 0x40 MSTORE SWAP2 SWAP1 POP JUMP JUMPDEST PUSH0 PUSH8 0xFFFFFFFFFFFFFFFF DUP3 GT ISZERO PUSH2 0x1AF9 JUMPI PUSH2 0x1AF9 PUSH2 0x1A4F JUMP JUMPDEST POP PUSH1 0x5 SHL PUSH1 0x20 ADD SWAP1 JUMP JUMPDEST DUP1 CALLDATALOAD PUSH1 0x1 PUSH1 0x1 PUSH1 0xA0 SHL SUB DUP2 AND DUP2 EQ PUSH2 0x1B19 JUMPI PUSH0 DUP1 REVERT JUMPDEST SWAP2 SWAP1 POP JUMP JUMPDEST PUSH0 DUP3 PUSH1 0x1F DUP4 ADD SLT PUSH2 0x1B2D JUMPI PUSH0 DUP1 REVERT JUMPDEST DUP2 CALLDATALOAD PUSH1 0x20 PUSH2 0x1B42 PUSH2 0x1B3D DUP4 PUSH2 0x1AE0 JUMP JUMPDEST PUSH2 0x1AAF JUMP JUMPDEST DUP1 DUP4 DUP3 MSTORE PUSH1 0x20 DUP3 ADD SWAP2 POP PUSH1 0x20 DUP5 PUSH1 0x5 SHL DUP8 ADD ADD SWAP4 POP DUP7 DUP5 GT ISZERO PUSH2 0x1B63 JUMPI PUSH0 DUP1 REVERT JUMPDEST PUSH1 0x20 DUP7 ADD JUMPDEST DUP5 DUP2 LT ISZERO PUSH2 0x1B7F JUMPI DUP1 CALLDATALOAD DUP4 MSTORE SWAP2 DUP4 ADD SWAP2 DUP4 ADD PUSH2 0x1B68 JUMP JUMPDEST POP SWAP7 SWAP6 POP POP POP POP POP POP JUMP JUMPDEST PUSH0 DUP3 PUSH1 0x1F DUP4 ADD SLT PUSH2 0x1B99 JUMPI PUSH0 DUP1 REVERT JUMPDEST DUP2 CALLDATALOAD PUSH1 0x20 PUSH2 0x1BA9 PUSH2 0x1B3D DUP4 PUSH2 0x1AE0 JUMP JUMPDEST DUP3 DUP2 MSTORE PUSH1 0x6 SWAP3 SWAP1 SWAP3 SHL DUP5 ADD DUP2 ADD SWAP2 DUP2 DUP2 ADD SWAP1 DUP7 DUP5 GT ISZERO PUSH2 0x1BC7 JUMPI PUSH0 DUP1 REVERT JUMPDEST DUP3 DUP7 ADD JUMPDEST DUP5 DUP2 LT ISZERO PUSH2 0x1B7F JUMPI PUSH1 0x40 DUP2 DUP10 SUB SLT ISZERO PUSH2 0x1BE2 JUMPI PUSH0 DUP1 REVERT JUMPDEST PUSH2 0x1BEA PUSH2 0x1A63 JUMP JUMPDEST PUSH2 0x1BF3 DUP3 PUSH2 0x1B03 JUMP JUMPDEST DUP2 MSTORE DUP2 DUP6 ADD CALLDATALOAD DUP6 DUP3 ADD MSTORE DUP4 MSTORE SWAP2 DUP4 ADD SWAP2 PUSH1 0x40 ADD PUSH2 0x1BCB JUMP JUMPDEST PUSH0 DUP3 PUSH1 0x1F DUP4 ADD SLT PUSH2 0x1C1A JUMPI PUSH0 DUP1 REVERT JUMPDEST DUP2 CALLDATALOAD PUSH1 0x20 PUSH2 0x1C2A PUSH2 0x1B3D DUP4 PUSH2 0x1AE0 JUMP JUMPDEST DUP3 DUP2 MSTORE PUSH1 0x60 SWAP3 DUP4 MUL DUP6 ADD DUP3 ADD SWAP3 DUP3 DUP3 ADD SWAP2 SWAP1 DUP8 DUP6 GT ISZERO PUSH2 0x1C48 JUMPI PUSH0 DUP1 REVERT JUMPDEST DUP4 DUP8 ADD JUMPDEST DUP6 DUP2 LT ISZERO PUSH2 0x1C9B JUMPI DUP2 DUP2 DUP11 SUB SLT ISZERO PUSH2 0x1C62 JUMPI PUSH0 DUP1 REVERT JUMPDEST PUSH2 0x1C6A PUSH2 0x1A8C JUMP JUMPDEST PUSH2 0x1C73 DUP3 PUSH2 0x1B03 JUMP JUMPDEST DUP2 MSTORE DUP6 DUP3 ADD CALLDATALOAD DUP7 DUP3 ADD MSTORE PUSH1 0x40 PUSH2 0x1C8A DUP2 DUP5 ADD PUSH2 0x1B03 JUMP JUMPDEST SWAP1 DUP3 ADD MSTORE DUP5 MSTORE SWAP3 DUP5 ADD SWAP3 DUP2 ADD PUSH2 0x1C4C JUMP JUMPDEST POP SWAP1 SWAP8 SWAP7 POP POP POP POP POP POP POP JUMP JUMPDEST PUSH0 DUP1 PUSH0 DUP1 PUSH1 0x80 DUP6 DUP8 SUB SLT ISZERO PUSH2 0x1CBB JUMPI PUSH0 DUP1 REVERT JUMPDEST DUP5 CALLDATALOAD PUSH8 0xFFFFFFFFFFFFFFFF DUP1 DUP3 GT ISZERO PUSH2 0x1CD2 JUMPI PUSH0 DUP1 REVERT JUMPDEST DUP2 DUP8 ADD SWAP2 POP DUP8 PUSH1 0x1F DUP4 ADD SLT PUSH2 0x1CE5 JUMPI PUSH0 DUP1 REVERT JUMPDEST DUP2 CALLDATALOAD PUSH1 0x20 PUSH2 0x1CF5 PUSH2 0x1B3D DUP4 PUSH2 0x1AE0 JUMP JUMPDEST DUP3 DUP2 MSTORE PUSH1 0x5 SWAP3 SWAP1 SWAP3 SHL DUP5 ADD DUP2 ADD SWAP2 DUP2 DUP2 ADD SWAP1 DUP12 DUP5 GT ISZERO PUSH2 0x1D13 JUMPI PUSH0 DUP1 REVERT JUMPDEST SWAP5 DUP3 ADD SWAP5 JUMPDEST DUP4 DUP7 LT ISZERO PUSH2 0x1D38 JUMPI PUSH2 0x1D29 DUP7 PUSH2 0x1B03 JUMP JUMPDEST DUP3 MSTORE SWAP5 DUP3 ADD SWAP5 SWAP1 DUP3 ADD SWAP1 PUSH2 0x1D18 JUMP JUMPDEST SWAP9 POP POP DUP9 ADD CALLDATALOAD SWAP3 POP POP DUP1 DUP3 GT ISZERO PUSH2 0x1D4D JUMPI PUSH0 DUP1 REVERT JUMPDEST PUSH2 0x1D59 DUP9 DUP4 DUP10 ADD PUSH2 0x1B1E JUMP JUMPDEST SWAP5 POP PUSH1 0x40 DUP8 ADD CALLDATALOAD SWAP2 POP DUP1 DUP3 GT ISZERO PUSH2 0x1D6E JUMPI PUSH0 DUP1 REVERT JUMPDEST PUSH2 0x1D7A DUP9 DUP4 DUP10 ADD PUSH2 0x1B8A JUMP JUMPDEST SWAP4 POP PUSH1 0x60 DUP8 ADD CALLDATALOAD SWAP2 POP DUP1 DUP3 GT ISZERO PUSH2 0x1D8F JUMPI PUSH0 DUP1 REVERT JUMPDEST POP PUSH2 0x1D9C DUP8 DUP3 DUP9 ADD PUSH2 0x1C0B JUMP JUMPDEST SWAP2 POP POP SWAP3 SWAP6 SWAP2 SWAP5 POP SWAP3 POP JUMP JUMPDEST PUSH0 DUP2 MLOAD DUP1 DUP5 MSTORE PUSH1 0x20 DUP1 DUP6 ADD SWAP5 POP PUSH1 0x20 DUP5 ADD PUSH0 JUMPDEST DUP4 DUP2 LT ISZERO PUSH2 0x1DE0 JUMPI DUP2 MLOAD PUSH1 0x1 PUSH1 0x1 PUSH1 0xA0 SHL SUB AND DUP8 MSTORE SWAP6 DUP3 ADD SWAP6 SWAP1 DUP3 ADD SWAP1 PUSH1 0x1 ADD PUSH2 0x1DBB JUMP JUMPDEST POP SWAP5 SWAP6 SWAP5 POP POP POP POP POP JUMP JUMPDEST PUSH0 DUP2 MLOAD DUP1 DUP5 MSTORE PUSH1 0x20 DUP1 DUP6 ADD SWAP5 POP PUSH1 0x20 DUP5 ADD PUSH0 JUMPDEST DUP4 DUP2 LT ISZERO PUSH2 0x1DE0 JUMPI DUP2 MLOAD DUP8 MSTORE SWAP6 DUP3 ADD SWAP6 SWAP1 DUP3 ADD SWAP1 PUSH1 0x1 ADD PUSH2 0x1DFE JUMP JUMPDEST PUSH0 DUP2 MLOAD DUP1 DUP5 MSTORE PUSH1 0x20 DUP1 DUP6 ADD SWAP5 POP PUSH1 0x20 DUP5 ADD PUSH0 JUMPDEST DUP4 DUP2 LT ISZERO PUSH2 0x1DE0 JUMPI DUP2 MLOAD DUP1 MLOAD PUSH1 0x1 PUSH1 0x1 PUSH1 0xA0 SHL SUB AND DUP9 MSTORE DUP4 ADD MLOAD DUP4 DUP9 ADD MSTORE PUSH1 0x40 SWAP1 SWAP7 ADD SWAP6 SWAP1 DUP3 ADD SWAP1 PUSH1 0x1 ADD PUSH2 0x1E2D JUMP JUMPDEST PUSH0 DUP2 MLOAD DUP1 DUP5 MSTORE PUSH1 0x20 DUP1 DUP6 ADD SWAP5 POP PUSH1 0x20 DUP5 ADD PUSH0 JUMPDEST DUP4 DUP2 LT ISZERO PUSH2 0x1DE0 JUMPI DUP2 MLOAD DUP1 MLOAD PUSH1 0x1 PUSH1 0x1 PUSH1 0xA0 SHL SUB SWAP1 DUP2 AND DUP10 MSTORE DUP5 DUP3 ADD MLOAD DUP6 DUP11 ADD MSTORE PUSH1 0x40 SWAP2 DUP3 ADD MLOAD AND SWAP1 DUP9 ADD MSTORE PUSH1 0x60 SWAP1 SWAP7 ADD SWAP6 SWAP1 DUP3 ADD SWAP1 PUSH1 0x1 ADD PUSH2 0x1E70 JUMP JUMPDEST PUSH1 0x20 DUP2 MSTORE PUSH2 0x1EC8 PUSH1 0x20 DUP3 ADD DUP4 MLOAD PUSH1 0x1 PUSH1 0x1 PUSH1 0xA0 SHL SUB AND SWAP1 MSTORE JUMP JUMPDEST PUSH1 0x20 DUP3 ADD MLOAD PUSH1 0x40 DUP3 ADD MSTORE PUSH1 0x40 DUP3 ADD MLOAD PUSH1 0x60 DUP3 ADD MSTORE PUSH0 PUSH1 0x60 DUP4 ADD MLOAD PUSH2 0x1EF0 PUSH1 0x80 DUP5 ADD DUP3 ISZERO ISZERO SWAP1 MSTORE JUMP JUMPDEST POP PUSH1 0x80 DUP4 ADD MLOAD DUP1 ISZERO ISZERO PUSH1 0xA0 DUP5 ADD MSTORE POP PUSH1 0xA0 DUP4 ADD MLOAD PUSH1 0xC0 DUP4 ADD MSTORE PUSH1 0xC0 DUP4 ADD MLOAD PUSH2 0x140 DUP1 PUSH1 0xE0 DUP6 ADD MSTORE PUSH2 0x1F25 PUSH2 0x160 DUP6 ADD DUP4 PUSH2 0x1DA8 JUMP JUMPDEST SWAP2 POP PUSH1 0xE0 DUP6 ADD MLOAD PUSH1 0x1F NOT PUSH2 0x100 DUP2 DUP8 DUP7 SUB ADD DUP2 DUP9 ADD MSTORE PUSH2 0x1F45 DUP6 DUP5 PUSH2 0x1DEB JUMP JUMPDEST SWAP5 POP DUP1 DUP9 ADD MLOAD SWAP3 POP POP PUSH2 0x120 DUP2 DUP8 DUP7 SUB ADD DUP2 DUP9 ADD MSTORE PUSH2 0x1F64 DUP6 DUP5 PUSH2 0x1E1A JUMP JUMPDEST SWAP1 DUP9 ADD MLOAD DUP8 DUP3 SUB SWAP1 SWAP3 ADD DUP5 DUP9 ADD MSTORE SWAP4 POP SWAP1 POP PUSH2 0x1F80 DUP4 DUP3 PUSH2 0x1E5D JUMP JUMPDEST SWAP7 SWAP6 POP POP POP POP POP POP JUMP JUMPDEST PUSH0 PUSH1 0x20 DUP3 DUP5 SUB SLT ISZERO PUSH2 0x1F9A JUMPI PUSH0 DUP1 REVERT JUMPDEST PUSH2 0x1FA3 DUP3 PUSH2 0x1B03 JUMP JUMPDEST SWAP4 SWAP3 POP POP POP JUMP JUMPDEST PUSH1 0x20 DUP1 DUP3 MSTORE PUSH1 0x24 SWAP1 DUP3 ADD MSTORE PUSH32 0x57696C6C20686173206265656E206578656375746564206F722063616E63656C PUSH1 0x40 DUP3 ADD MSTORE PUSH4 0x3632B217 PUSH1 0xE1 SHL PUSH1 0x60 DUP3 ADD MSTORE PUSH1 0x80 ADD SWAP1 JUMP JUMPDEST PUSH1 0x20 DUP1 DUP3 MSTORE PUSH1 0x26 SWAP1 DUP3 ADD MSTORE PUSH32 0x4F6E6C7920746865206F776E65722063616E2063616C6C20746869732066756E PUSH1 0x40 DUP3 ADD MSTORE PUSH6 0x31BA34B7B717 PUSH1 0xD1 SHL PUSH1 0x60 DUP3 ADD MSTORE PUSH1 0x80 ADD SWAP1 JUMP JUMPDEST PUSH4 0x4E487B71 PUSH1 0xE0 SHL PUSH0 MSTORE PUSH1 0x11 PUSH1 0x4 MSTORE PUSH1 0x24 PUSH0 REVERT JUMPDEST DUP1 DUP3 ADD DUP1 DUP3 GT ISZERO PUSH2 0x205B JUMPI PUSH2 0x205B PUSH2 0x2034 JUMP JUMPDEST SWAP3 SWAP2 POP POP JUMP JUMPDEST DUP1 DUP3 MUL DUP2 ISZERO DUP3 DUP3 DIV DUP5 EQ OR PUSH2 0x205B JUMPI PUSH2 0x205B PUSH2 0x2034 JUMP JUMPDEST PUSH0 DUP3 PUSH2 0x2092 JUMPI PUSH4 0x4E487B71 PUSH1 0xE0 SHL PUSH0 MSTORE PUSH1 0x12 PUSH1 0x4 MSTORE PUSH1 0x24 PUSH0 REVERT JUMPDEST POP DIV SWAP1 JUMP JUMPDEST DUP2 DUP2 SUB DUP2 DUP2 GT ISZERO PUSH2 0x205B JUMPI PUSH2 0x205B PUSH2 0x2034 JUMP JUMPDEST PUSH4 0x4E487B71 PUSH1 0xE0 SHL PUSH0 MSTORE PUSH1 0x32 PUSH1 0x4 MSTORE PUSH1 0x24 PUSH0 REVERT JUMPDEST PUSH0 PUSH1 0x20 DUP3 DUP5 SUB SLT ISZERO PUSH2 0x20CE JUMPI PUSH0 DUP1 REVERT JUMPDEST POP MLOAD SWAP2 SWAP1 POP JUMP JUMPDEST PUSH0 PUSH1 0x20 DUP3 DUP5 SUB SLT ISZERO PUSH2 0x20E5 JUMPI PUSH0 DUP1 REVERT JUMPDEST DUP2 MLOAD DUP1 ISZERO ISZERO DUP2 EQ PUSH2 0x1FA3 JUMPI PUSH0 DUP1 REVERT INVALID LOG2 PUSH5 0x6970667358 0x22 SLT KECCAK256 0x4F 0xB0 0xE8 0xBB 0xBF DUP3 DUP1 0xD9 SWAP10 MOD 0xB9 MSTORE PUSH12 0x26AADC5C63063F0A9C1112B7 SDIV PUSH4 0xA9616427 GAS PUSH5 0x736F6C6343 STOP ADDMOD XOR STOP CALLER "
				},
				"gasEstimates": {
					"creation": {
						"codeDepositCost": "1698000",
						"executionCost": "infinite",
						"totalCost": "infinite"
					},
					"external": {
						"EXECUTION_FEE_BPS()": "262",
						"cancelAndWithdraw()": "infinite",
						"distributionPercentages(uint256)": "4618",
						"erc20Assets(uint256)": "4711",
						"erc721Assets(uint256)": "8981",
						"execute()": "infinite",
						"executed()": "2399",
						"executorAddress()": "infinite",
						"getWillDetails()": "infinite",
						"hasDiary()": "infinite",
						"heirs(uint256)": "4624",
						"initialize(address[],uint256[],(address,uint256)[],(address,uint256,address)[])": "infinite",
						"interval()": "infinite",
						"lastUpdate()": "2405",
						"owner()": "2407",
						"ping()": "27721",
						"renounceOwnership()": "infinite",
						"sourceContract()": "infinite",
						"terminationFee()": "infinite",
						"transferOwnership(address)": "28439"
					}
				},
				"methodIdentifiers": {
					"EXECUTION_FEE_BPS()": "2395d975",
					"cancelAndWithdraw()": "6b892b22",
					"distributionPercentages(uint256)": "1f99966a",
					"erc20Assets(uint256)": "9379f517",
					"erc721Assets(uint256)": "e15724a5",
					"execute()": "61461954",
					"executed()": "31a38c89",
					"executorAddress()": "a8e9a539",
					"getWillDetails()": "cc4f9d5b",
					"hasDiary()": "eed35fea",
					"heirs(uint256)": "1c0795c3",
					"initialize(address[],uint256[],(address,uint256)[],(address,uint256,address)[])": "abe21b59",
					"interval()": "947a36fb",
					"lastUpdate()": "c0463711",
					"owner()": "8da5cb5b",
					"ping()": "5c36b186",
					"renounceOwnership()": "715018a6",
					"sourceContract()": "a444ae41",
					"terminationFee()": "c7c85baa",
					"transferOwnership(address)": "f2fde38b"
				}
			},
			"storageLayout": {
				"storage": [
					{
						"astId": 8,
						"contract": "Will.sol:Will",
						"label": "_owner",
						"offset": 0,
						"slot": "0",
						"type": "t_address"
					},
					{
						"astId": 397,
						"contract": "Will.sol:Will",
						"label": "_status",
						"offset": 0,
						"slot": "1",
						"type": "t_uint256"
					},
					{
						"astId": 517,
						"contract": "Will.sol:Will",
						"label": "executed",
						"offset": 0,
						"slot": "2",
						"type": "t_bool"
					},
					{
						"astId": 519,
						"contract": "Will.sol:Will",
						"label": "lastUpdate",
						"offset": 0,
						"slot": "3",
						"type": "t_uint256"
					},
					{
						"astId": 532,
						"contract": "Will.sol:Will",
						"label": "heirs",
						"offset": 0,
						"slot": "4",
						"type": "t_array(t_address)dyn_storage"
					},
					{
						"astId": 535,
						"contract": "Will.sol:Will",
						"label": "distributionPercentages",
						"offset": 0,
						"slot": "5",
						"type": "t_array(t_uint256)dyn_storage"
					},
					{
						"astId": 539,
						"contract": "Will.sol:Will",
						"label": "erc20Assets",
						"offset": 0,
						"slot": "6",
						"type": "t_array(t_struct(Erc20Asset)489_storage)dyn_storage"
					},
					{
						"astId": 543,
						"contract": "Will.sol:Will",
						"label": "erc721Assets",
						"offset": 0,
						"slot": "7",
						"type": "t_array(t_struct(Erc721Asset)497_storage)dyn_storage"
					},
					{
						"astId": 545,
						"contract": "Will.sol:Will",
						"label": "_initialized",
						"offset": 0,
						"slot": "8",
						"type": "t_bool"
					}
				],
				"types": {
					"t_address": {
						"encoding": "inplace",
						"label": "address",
						"numberOfBytes": "20"
					},
					"t_array(t_address)dyn_storage": {
						"base": "t_address",
						"encoding": "dynamic_array",
						"label": "address[]",
						"numberOfBytes": "32"
					},
					"t_array(t_struct(Erc20Asset)489_storage)dyn_storage": {
						"base": "t_struct(Erc20Asset)489_storage",
						"encoding": "dynamic_array",
						"label": "struct Will.Erc20Asset[]",
						"numberOfBytes": "32"
					},
					"t_array(t_struct(Erc721Asset)497_storage)dyn_storage": {
						"base": "t_struct(Erc721Asset)497_storage",
						"encoding": "dynamic_array",
						"label": "struct Will.Erc721Asset[]",
						"numberOfBytes": "32"
					},
					"t_array(t_uint256)dyn_storage": {
						"base": "t_uint256",
						"encoding": "dynamic_array",
						"label": "uint256[]",
						"numberOfBytes": "32"
					},
					"t_bool": {
						"encoding": "inplace",
						"label": "bool",
						"numberOfBytes": "1"
					},
					"t_contract(IERC20)225": {
						"encoding": "inplace",
						"label": "contract IERC20",
						"numberOfBytes": "20"
					},
					"t_contract(IERC721)342": {
						"encoding": "inplace",
						"label": "contract IERC721",
						"numberOfBytes": "20"
					},
					"t_struct(Erc20Asset)489_storage": {
						"encoding": "inplace",
						"label": "struct Will.Erc20Asset",
						"members": [
							{
								"astId": 488,
								"contract": "Will.sol:Will",
								"label": "token",
								"offset": 0,
								"slot": "0",
								"type": "t_contract(IERC20)225"
							}
						],
						"numberOfBytes": "32"
					},
					"t_struct(Erc721Asset)497_storage": {
						"encoding": "inplace",
						"label": "struct Will.Erc721Asset",
						"members": [
							{
								"astId": 492,
								"contract": "Will.sol:Will",
								"label": "token",
								"offset": 0,
								"slot": "0",
								"type": "t_contract(IERC721)342"
							},
							{
								"astId": 494,
								"contract": "Will.sol:Will",
								"label": "tokenId",
								"offset": 0,
								"slot": "1",
								"type": "t_uint256"
							},
							{
								"astId": 496,
								"contract": "Will.sol:Will",
								"label": "heir",
								"offset": 0,
								"slot": "2",
								"type": "t_address"
							}
						],
						"numberOfBytes": "96"
					},
					"t_uint256": {
						"encoding": "inplace",
						"label": "uint256",
						"numberOfBytes": "32"
					}
				}
			},
			"userdoc": {
				"kind": "user",
				"methods": {},
				"notice": "A smart contract for an individual will or estate plan.",
				"version": 1
			}
		}
	}
}