{
	"Will.sol": {
		"Will": {
			"abi": [
				{
					"inputs": [
						{
							"internalType": "address",
							"name": "initialOwner",
							"type": "address"
						},
						{
							"internalType": "uint256",
							"name": "_interval",
							"type": "uint256"
						},
						{
							"internalType": "address",
							"name": "_sourceContract",
							"type": "address"
						},
						{
							"internalType": "uint256",
							"name": "_terminationFee",
							"type": "uint256"
						},
						{
							"internalType": "bool",
							"name": "_hasDiary",
							"type": "bool"
						}
					],
					"stateMutability": "payable",
					"type": "constructor"
				},
				{
					"inputs": [
						{
							"internalType": "address",
							"name": "owner",
							"type": "address"
						}
					],
					"name": "OwnableInvalidOwner",
					"type": "error"
				},
				{
					"inputs": [
						{
							"internalType": "address",
							"name": "account",
							"type": "address"
						}
					],
					"name": "OwnableUnauthorizedAccount",
					"type": "error"
				},
				{
					"inputs": [],
					"name": "ReentrancyGuardReentrantCall",
					"type": "error"
				},
				{
					"anonymous": false,
					"inputs": [
						{
							"indexed": false,
							"internalType": "uint256",
							"name": "feePaid",
							"type": "uint256"
						}
					],
					"name": "Cancelled",
					"type": "event"
				},
				{
					"anonymous": false,
					"inputs": [
						{
							"indexed": false,
							"internalType": "address",
							"name": "executor",
							"type": "address"
						},
						{
							"indexed": false,
							"internalType": "uint256",
							"name": "ethFee",
							"type": "uint256"
						},
						{
							"indexed": false,
							"internalType": "address",
							"name": "feeRecipient",
							"type": "address"
						}
					],
					"name": "Executed",
					"type": "event"
				},
				{
					"anonymous": false,
					"inputs": [
						{
							"indexed": true,
							"internalType": "address",
							"name": "previousOwner",
							"type": "address"
						},
						{
							"indexed": true,
							"internalType": "address",
							"name": "newOwner",
							"type": "address"
						}
					],
					"name": "OwnershipTransferred",
					"type": "event"
				},
				{
					"anonymous": false,
					"inputs": [
						{
							"indexed": false,
							"internalType": "uint256",
							"name": "newLastUpdate",
							"type": "uint256"
						}
					],
					"name": "Ping",
					"type": "event"
				},
				{
					"inputs": [],
					"name": "EXECUTION_FEE_BPS",
					"outputs": [
						{
							"internalType": "uint256",
							"name": "",
							"type": "uint256"
						}
					],
					"stateMutability": "view",
					"type": "function"
				},
				{
					"inputs": [],
					"name": "cancelAndWithdraw",
					"outputs": [],
					"stateMutability": "nonpayable",
					"type": "function"
				},
				{
					"inputs": [
						{
							"internalType": "uint256",
							"name": "",
							"type": "uint256"
						}
					],
					"name": "distributionPercentages",
					"outputs": [
						{
							"internalType": "uint256",
							"name": "",
							"type": "uint256"
						}
					],
					"stateMutability": "view",
					"type": "function"
				},
				{
					"inputs": [
						{
							"internalType": "uint256",
							"name": "",
							"type": "uint256"
						}
					],
					"name": "erc20Assets",
					"outputs": [
						{
							"internalType": "contract IERC20",
							"name": "token",
							"type": "address"
						}
					],
					"stateMutability": "view",
					"type": "function"
				},
				{
					"inputs": [
						{
							"internalType": "uint256",
							"name": "",
							"type": "uint256"
						}
					],
					"name": "erc721Assets",
					"outputs": [
						{
							"internalType": "contract IERC721",
							"name": "token",
							"type": "address"
						},
						{
							"internalType": "uint256",
							"name": "tokenId",
							"type": "uint256"
						},
						{
							"internalType": "address",
							"name": "heir",
							"type": "address"
						}
					],
					"stateMutability": "view",
					"type": "function"
				},
				{
					"inputs": [],
					"name": "execute",
					"outputs": [],
					"stateMutability": "nonpayable",
					"type": "function"
				},
				{
					"inputs": [],
					"name": "executed",
					"outputs": [
						{
							"internalType": "bool",
							"name": "",
							"type": "bool"
						}
					],
					"stateMutability": "view",
					"type": "function"
				},
				{
					"inputs": [],
					"name": "getContractBalance",
					"outputs": [
						{
							"internalType": "uint256",
							"name": "",
							"type": "uint256"
						}
					],
					"stateMutability": "view",
					"type": "function"
				},
				{
					"inputs": [],
					"name": "getWillDetails",
					"outputs": [
						{
							"components": [
								{
									"internalType": "address",
									"name": "owner",
									"type": "address"
								},
								{
									"internalType": "uint256",
									"name": "interval",
									"type": "uint256"
								},
								{
									"internalType": "uint256",
									"name": "lastUpdate",
									"type": "uint256"
								},
								{
									"internalType": "bool",
									"name": "executed",
									"type": "bool"
								},
								{
									"internalType": "bool",
									"name": "hasDiary",
									"type": "bool"
								},
								{
									"internalType": "uint256",
									"name": "ethBalance",
									"type": "uint256"
								},
								{
									"internalType": "address[]",
									"name": "heirs",
									"type": "address[]"
								},
								{
									"internalType": "uint256[]",
									"name": "distributionPercentages",
									"type": "uint256[]"
								},
								{
									"components": [
										{
											"internalType": "address",
											"name": "tokenContract",
											"type": "address"
										},
										{
											"internalType": "uint256",
											"name": "balance",
											"type": "uint256"
										}
									],
									"internalType": "struct Erc20Detail[]",
									"name": "erc20Details",
									"type": "tuple[]"
								},
								{
									"components": [
										{
											"internalType": "address",
											"name": "tokenContract",
											"type": "address"
										},
										{
											"internalType": "uint256",
											"name": "tokenId",
											"type": "uint256"
										},
										{
											"internalType": "address",
											"name": "heir",
											"type": "address"
										}
									],
									"internalType": "struct Erc721Detail[]",
									"name": "erc721Details",
									"type": "tuple[]"
								}
							],
							"internalType": "struct WillDetails",
							"name": "",
							"type": "tuple"
						}
					],
					"stateMutability": "view",
					"type": "function"
				},
				{
					"inputs": [],
					"name": "hasDiary",
					"outputs": [
						{
							"internalType": "bool",
							"name": "",
							"type": "bool"
						}
					],
					"stateMutability": "view",
					"type": "function"
				},
				{
					"inputs": [
						{
							"internalType": "uint256",
							"name": "",
							"type": "uint256"
						}
					],
					"name": "heirs",
					"outputs": [
						{
							"internalType": "address",
							"name": "",
							"type": "address"
						}
					],
					"stateMutability": "view",
					"type": "function"
				},
				{
					"inputs": [
						{
							"internalType": "address[]",
							"name": "_heirs",
							"type": "address[]"
						},
						{
							"internalType": "uint256[]",
							"name": "_distro",
							"type": "uint256[]"
						},
						{
							"components": [
								{
									"internalType": "address",
									"name": "tokenContract",
									"type": "address"
								},
								{
									"internalType": "uint256",
									"name": "amount",
									"type": "uint256"
								}
							],
							"internalType": "struct Will.Erc20Distribution[]",
							"name": "_erc20s",
							"type": "tuple[]"
						},
						{
							"components": [
								{
									"internalType": "address",
									"name": "tokenContract",
									"type": "address"
								},
								{
									"internalType": "uint256",
									"name": "tokenId",
									"type": "uint256"
								},
								{
									"internalType": "address",
									"name": "heir",
									"type": "address"
								}
							],
							"internalType": "struct Will.NftDistribution[]",
							"name": "_nfts",
							"type": "tuple[]"
						}
					],
					"name": "initialize",
					"outputs": [],
					"stateMutability": "nonpayable",
					"type": "function"
				},
				{
					"inputs": [],
					"name": "interval",
					"outputs": [
						{
							"internalType": "uint256",
							"name": "",
							"type": "uint256"
						}
					],
					"stateMutability": "view",
					"type": "function"
				},
				{
					"inputs": [],
					"name": "lastUpdate",
					"outputs": [
						{
							"internalType": "uint256",
							"name": "",
							"type": "uint256"
						}
					],
					"stateMutability": "view",
					"type": "function"
				},
				{
					"inputs": [],
					"name": "owner",
					"outputs": [
						{
							"internalType": "address",
							"name": "",
							"type": "address"
						}
					],
					"stateMutability": "view",
					"type": "function"
				},
				{
					"inputs": [],
					"name": "ping",
					"outputs": [],
					"stateMutability": "nonpayable",
					"type": "function"
				},
				{
					"inputs": [],
					"name": "renounceOwnership",
					"outputs": [],
					"stateMutability": "nonpayable",
					"type": "function"
				},
				{
					"inputs": [],
					"name": "sourceContract",
					"outputs": [
						{
							"internalType": "address",
							"name": "",
							"type": "address"
						}
					],
					"stateMutability": "view",
					"type": "function"
				},
				{
					"inputs": [],
					"name": "terminationFee",
					"outputs": [
						{
							"internalType": "uint256",
							"name": "",
							"type": "uint256"
						}
					],
					"stateMutability": "view",
					"type": "function"
				},
				{
					"inputs": [
						{
							"internalType": "address",
							"name": "newOwner",
							"type": "address"
						}
					],
					"name": "transferOwnership",
					"outputs": [],
					"stateMutability": "nonpayable",
					"type": "function"
				}
			],
			"devdoc": {
				"errors": {
					"OwnableInvalidOwner(address)": [
						{
							"details": "The owner is not a valid owner account. (eg. `address(0)`)"
						}
					],
					"OwnableUnauthorizedAccount(address)": [
						{
							"details": "The caller account is not authorized to perform an operation."
						}
					]
				},
				"kind": "dev",
				"methods": {
					"owner()": {
						"details": "Returns the address of the current owner."
					},
					"renounceOwnership()": {
						"details": "Leaves the contract without owner. It will not be possible to call `onlyOwner` functions. Can only be called by the current owner. NOTE: Renouncing ownership will leave the contract without an owner, thereby disabling any functionality that is only available to the owner."
					},
					"transferOwnership(address)": {
						"details": "Transfers ownership of the contract to a new account (`newOwner`). Can only be called by the current owner."
					}
				},
				"title": "Will",
				"version": 1
			},
			"evm": {
				"assembly": "    /* \"Will.sol\":1486:10255  contract Will is Ownable, ReentrancyGuard {... */\n  mstore(0x40, 0x0100)\n    /* \"Will.sol\":3523:3880  constructor(... */\n  mload(0x40)\n  sub(codesize, bytecodeSize)\n  dup1\n  bytecodeSize\n  dup4\n  codecopy\n  dup2\n  add\n  0x40\n  dup2\n  swap1\n  mstore\n  tag_1\n  swap2\n  tag_2\n  jump\t// in\ntag_1:\n    /* \"Will.sol\":3710:3722  initialOwner */\n  dup5\n  sub(shl(0xa0, 0x01), 0x01)\n    /* \"@openzeppelin/contracts/access/Ownable.sol\":1273:1299  initialOwner == address(0) */\n  dup2\n  and\n    /* \"@openzeppelin/contracts/access/Ownable.sol\":1269:1364  if (initialOwner == address(0)) {... */\n  tag_7\n  jumpi\n    /* \"@openzeppelin/contracts/access/Ownable.sol\":1322:1353  OwnableInvalidOwner(address(0)) */\n  mload(0x40)\n  shl(0xe0, 0x1e4fbdf7)\n  dup2\n  mstore\n    /* \"@openzeppelin/contracts/access/Ownable.sol\":1350:1351  0 */\n  0x00\n    /* \"@openzeppelin/contracts/access/Ownable.sol\":1322:1353  OwnableInvalidOwner(address(0)) */\n  0x04\n  dup3\n  add\n    /* \"#utility.yul\":918:969   */\n  mstore\n    /* \"#utility.yul\":891:909   */\n  0x24\n  add\n    /* \"@openzeppelin/contracts/access/Ownable.sol\":1322:1353  OwnableInvalidOwner(address(0)) */\n  mload(0x40)\n  dup1\n  swap2\n  sub\n  swap1\n  revert\n    /* \"@openzeppelin/contracts/access/Ownable.sol\":1269:1364  if (initialOwner == address(0)) {... */\ntag_7:\n    /* \"@openzeppelin/contracts/access/Ownable.sol\":1373:1405  _transferOwnership(initialOwner) */\n  tag_10\n    /* \"@openzeppelin/contracts/access/Ownable.sol\":1392:1404  initialOwner */\n  dup2\n    /* \"@openzeppelin/contracts/access/Ownable.sol\":1373:1391  _transferOwnership */\n  tag_11\n    /* \"@openzeppelin/contracts/access/Ownable.sol\":1373:1405  _transferOwnership(initialOwner) */\n  jump\t// in\ntag_10:\n  pop\n    /* \"Will.sol\":361:362  1 */\n  0x01\n    /* \"Will.sol\":459:481  _status = _NOT_ENTERED */\n  dup1\n  sstore\n    /* \"Will.sol\":3735:3755  interval = _interval */\n  0x80\n  swap4\n  swap1\n  swap4\n  mstore\n  sub(shl(0xa0, 0x01), 0x01)\n    /* \"Will.sol\":3766:3798  sourceContract = _sourceContract */\n  swap1\n  swap2\n  and\n  0xa0\n  mstore\n    /* \"Will.sol\":3809:3841  terminationFee = _terminationFee */\n  0xc0\n  mstore\n    /* \"Will.sol\":3852:3872  hasDiary = _hasDiary */\n  iszero\n  iszero\n  0xe0\n  mstore\n  pop\n    /* \"Will.sol\":1486:10255  contract Will is Ownable, ReentrancyGuard {... */\n  jump(tag_17)\n    /* \"@openzeppelin/contracts/access/Ownable.sol\":2912:3099  function _transferOwnership(address newOwner) internal virtual {... */\ntag_11:\n    /* \"@openzeppelin/contracts/access/Ownable.sol\":2985:3001  address oldOwner */\n  0x00\n    /* \"@openzeppelin/contracts/access/Ownable.sol\":3004:3010  _owner */\n  dup1\n  sload\n  sub(shl(0xa0, 0x01), 0x01)\n    /* \"@openzeppelin/contracts/access/Ownable.sol\":3020:3037  _owner = newOwner */\n  dup4\n  dup2\n  and\n  not(sub(shl(0xa0, 0x01), 0x01))\n  dup4\n  and\n  dup2\n  or\n  dup5\n  sstore\n    /* \"@openzeppelin/contracts/access/Ownable.sol\":3052:3092  OwnershipTransferred(oldOwner, newOwner) */\n  mload(0x40)\n    /* \"@openzeppelin/contracts/access/Ownable.sol\":3004:3010  _owner */\n  swap2\n  swap1\n  swap3\n  and\n  swap3\n  dup4\n  swap2\n    /* \"@openzeppelin/contracts/access/Ownable.sol\":3052:3092  OwnershipTransferred(oldOwner, newOwner) */\n  0x8be0079c531659141344cd1fd0a4f28419497f9722a3daafe3b4186f6b6457e0\n  swap2\n    /* \"@openzeppelin/contracts/access/Ownable.sol\":2985:3001  address oldOwner */\n  swap1\n    /* \"@openzeppelin/contracts/access/Ownable.sol\":3052:3092  OwnershipTransferred(oldOwner, newOwner) */\n  log3\n    /* \"@openzeppelin/contracts/access/Ownable.sol\":2975:3099  {... */\n  pop\n    /* \"@openzeppelin/contracts/access/Ownable.sol\":2912:3099  function _transferOwnership(address newOwner) internal virtual {... */\n  pop\n  jump\t// out\n    /* \"#utility.yul\":14:191   */\ntag_16:\n    /* \"#utility.yul\":93:106   */\n  dup1\n  mload\n  sub(shl(0xa0, 0x01), 0x01)\n    /* \"#utility.yul\":135:166   */\n  dup2\n  and\n    /* \"#utility.yul\":125:167   */\n  dup2\n  eq\n    /* \"#utility.yul\":115:185   */\n  tag_19\n  jumpi\n    /* \"#utility.yul\":181:182   */\n  0x00\n    /* \"#utility.yul\":178:179   */\n  dup1\n    /* \"#utility.yul\":171:183   */\n  revert\n    /* \"#utility.yul\":115:185   */\ntag_19:\n    /* \"#utility.yul\":14:191   */\n  swap2\n  swap1\n  pop\n  jump\t// out\n    /* \"#utility.yul\":196:767   */\ntag_2:\n    /* \"#utility.yul\":299:305   */\n  0x00\n    /* \"#utility.yul\":307:313   */\n  dup1\n    /* \"#utility.yul\":315:321   */\n  0x00\n    /* \"#utility.yul\":323:329   */\n  dup1\n    /* \"#utility.yul\":331:337   */\n  0x00\n    /* \"#utility.yul\":384:387   */\n  0xa0\n    /* \"#utility.yul\":372:381   */\n  dup7\n    /* \"#utility.yul\":363:370   */\n  dup9\n    /* \"#utility.yul\":359:382   */\n  sub\n    /* \"#utility.yul\":355:388   */\n  slt\n    /* \"#utility.yul\":352:405   */\n  iszero\n  tag_21\n  jumpi\n    /* \"#utility.yul\":401:402   */\n  0x00\n    /* \"#utility.yul\":398:399   */\n  dup1\n    /* \"#utility.yul\":391:403   */\n  revert\n    /* \"#utility.yul\":352:405   */\ntag_21:\n    /* \"#utility.yul\":424:464   */\n  tag_22\n    /* \"#utility.yul\":454:463   */\n  dup7\n    /* \"#utility.yul\":424:464   */\n  tag_16\n  jump\t// in\ntag_22:\n    /* \"#utility.yul\":414:464   */\n  swap5\n  pop\n    /* \"#utility.yul\":504:506   */\n  0x20\n    /* \"#utility.yul\":493:502   */\n  dup7\n    /* \"#utility.yul\":489:507   */\n  add\n    /* \"#utility.yul\":483:508   */\n  mload\n    /* \"#utility.yul\":473:508   */\n  swap4\n  pop\n    /* \"#utility.yul\":527:576   */\n  tag_23\n    /* \"#utility.yul\":572:574   */\n  0x40\n    /* \"#utility.yul\":561:570   */\n  dup8\n    /* \"#utility.yul\":557:575   */\n  add\n    /* \"#utility.yul\":527:576   */\n  tag_16\n  jump\t// in\ntag_23:\n    /* \"#utility.yul\":517:576   */\n  swap3\n  pop\n    /* \"#utility.yul\":616:618   */\n  0x60\n    /* \"#utility.yul\":605:614   */\n  dup7\n    /* \"#utility.yul\":601:619   */\n  add\n    /* \"#utility.yul\":595:620   */\n  mload\n    /* \"#utility.yul\":585:620   */\n  swap2\n  pop\n    /* \"#utility.yul\":663:666   */\n  0x80\n    /* \"#utility.yul\":652:661   */\n  dup7\n    /* \"#utility.yul\":648:667   */\n  add\n    /* \"#utility.yul\":642:668   */\n  mload\n    /* \"#utility.yul\":711:716   */\n  dup1\n    /* \"#utility.yul\":704:717   */\n  iszero\n    /* \"#utility.yul\":697:718   */\n  iszero\n    /* \"#utility.yul\":690:695   */\n  dup2\n    /* \"#utility.yul\":687:719   */\n  eq\n    /* \"#utility.yul\":677:737   */\n  tag_24\n  jumpi\n    /* \"#utility.yul\":733:734   */\n  0x00\n    /* \"#utility.yul\":730:731   */\n  dup1\n    /* \"#utility.yul\":723:735   */\n  revert\n    /* \"#utility.yul\":677:737   */\ntag_24:\n    /* \"#utility.yul\":756:761   */\n  dup1\n    /* \"#utility.yul\":746:761   */\n  swap2\n  pop\n  pop\n    /* \"#utility.yul\":196:767   */\n  swap3\n  swap6\n  pop\n  swap3\n  swap6\n  swap1\n  swap4\n  pop\n  jump\t// out\n    /* \"#utility.yul\":772:975   */\ntag_17:\n    /* \"Will.sol\":1486:10255  contract Will is Ownable, ReentrancyGuard {... */\n  mload(0x80)\n  mload(0xa0)\n  mload(0xc0)\n  mload(0xe0)\n  codecopy(0x00, dataOffset(sub_0), dataSize(sub_0))\n  0x00\n  assignImmutable(\"0xc54ee332974d1c3b722bf69de0eb5376e86c76b9f8da5c925e6b0c3efd2d5979\")\n  0x00\n  assignImmutable(\"0xacd088948164483a37f73989f1c27b47a5586ebd1d004d9f6dfdcef17082f275\")\n  0x00\n  assignImmutable(\"0x8e831a88d8106460d1544aa376ec6155091b50c6145ad03273db7938ca17c5b1\")\n  0x00\n  assignImmutable(\"0xf149c9166005b187f5af29ceb397e7b9b5ab7e3a911adc91a9ebb826b208930e\")\n  return(0x00, dataSize(sub_0))\nstop\n\nsub_0: assembly {\n        /* \"Will.sol\":1486:10255  contract Will is Ownable, ReentrancyGuard {... */\n      mstore(0x40, 0x80)\n      callvalue\n      dup1\n      iszero\n      tag_1\n      jumpi\n      0x00\n      dup1\n      revert\n    tag_1:\n      pop\n      jumpi(tag_2, lt(calldatasize, 0x04))\n      shr(0xe0, calldataload(0x00))\n      dup1\n      0x9379f517\n      gt\n      tag_23\n      jumpi\n      dup1\n      0xc7c85baa\n      gt\n      tag_24\n      jumpi\n      dup1\n      0xc7c85baa\n      eq\n      tag_18\n      jumpi\n      dup1\n      0xcc4f9d5b\n      eq\n      tag_19\n      jumpi\n      dup1\n      0xe15724a5\n      eq\n      tag_20\n      jumpi\n      dup1\n      0xeed35fea\n      eq\n      tag_21\n      jumpi\n      dup1\n      0xf2fde38b\n      eq\n      tag_22\n      jumpi\n      0x00\n      dup1\n      revert\n    tag_24:\n      dup1\n      0x9379f517\n      eq\n      tag_13\n      jumpi\n      dup1\n      0x947a36fb\n      eq\n      tag_14\n      jumpi\n      dup1\n      0xa444ae41\n      eq\n      tag_15\n      jumpi\n      dup1\n      0xabe21b59\n      eq\n      tag_16\n      jumpi\n      dup1\n      0xc0463711\n      eq\n      tag_17\n      jumpi\n      0x00\n      dup1\n      revert\n    tag_23:\n      dup1\n      0x61461954\n      gt\n      tag_25\n      jumpi\n      dup1\n      0x61461954\n      eq\n      tag_8\n      jumpi\n      dup1\n      0x6b892b22\n      eq\n      tag_9\n      jumpi\n      dup1\n      0x6f9fb98a\n      eq\n      tag_10\n      jumpi\n      dup1\n      0x715018a6\n      eq\n      tag_11\n      jumpi\n      dup1\n      0x8da5cb5b\n      eq\n      tag_12\n      jumpi\n      0x00\n      dup1\n      revert\n    tag_25:\n      dup1\n      0x1c0795c3\n      eq\n      tag_3\n      jumpi\n      dup1\n      0x1f99966a\n      eq\n      tag_4\n      jumpi\n      dup1\n      0x2395d975\n      eq\n      tag_5\n      jumpi\n      dup1\n      0x31a38c89\n      eq\n      tag_6\n      jumpi\n      dup1\n      0x5c36b186\n      eq\n      tag_7\n      jumpi\n    tag_2:\n      0x00\n      dup1\n      revert\n        /* \"Will.sol\":2379:2401  address[] public heirs */\n    tag_3:\n      tag_26\n      tag_27\n      calldatasize\n      0x04\n      tag_28\n      jump\t// in\n    tag_27:\n      tag_29\n      jump\t// in\n    tag_26:\n      mload(0x40)\n      sub(shl(0xa0, 0x01), 0x01)\n        /* \"#utility.yul\":472:504   */\n      swap1\n      swap2\n      and\n        /* \"#utility.yul\":454:505   */\n      dup2\n      mstore\n        /* \"#utility.yul\":442:444   */\n      0x20\n        /* \"#utility.yul\":427:445   */\n      add\n        /* \"Will.sol\":2379:2401  address[] public heirs */\n    tag_30:\n      mload(0x40)\n      dup1\n      swap2\n      sub\n      swap1\n      return\n        /* \"Will.sol\":2408:2448  uint256[] public distributionPercentages */\n    tag_4:\n      tag_32\n      tag_33\n      calldatasize\n      0x04\n      tag_28\n      jump\t// in\n    tag_33:\n      tag_34\n      jump\t// in\n    tag_32:\n      mload(0x40)\n        /* \"#utility.yul\":662:687   */\n      swap1\n      dup2\n      mstore\n        /* \"#utility.yul\":650:652   */\n      0x20\n        /* \"#utility.yul\":635:653   */\n      add\n        /* \"Will.sol\":2408:2448  uint256[] public distributionPercentages */\n      tag_30\n        /* \"#utility.yul\":516:693   */\n      jump\n        /* \"Will.sol\":2064:2110  uint256 public constant EXECUTION_FEE_BPS = 50 */\n    tag_5:\n      tag_32\n        /* \"Will.sol\":2108:2110  50 */\n      0x32\n        /* \"Will.sol\":2064:2110  uint256 public constant EXECUTION_FEE_BPS = 50 */\n      dup2\n      jump\n        /* \"Will.sol\":2151:2171  bool public executed */\n    tag_6:\n      sload(0x02)\n      tag_40\n      swap1\n      0xff\n      and\n      dup2\n      jump\n    tag_40:\n      mload(0x40)\n        /* \"#utility.yul\":959:973   */\n      swap1\n      iszero\n        /* \"#utility.yul\":952:974   */\n      iszero\n        /* \"#utility.yul\":934:975   */\n      dup2\n      mstore\n        /* \"#utility.yul\":922:924   */\n      0x20\n        /* \"#utility.yul\":907:925   */\n      add\n        /* \"Will.sol\":2151:2171  bool public executed */\n      tag_30\n        /* \"#utility.yul\":794:981   */\n      jump\n        /* \"Will.sol\":5235:5359  function ping() external onlyOwnerWhenActive {... */\n    tag_7:\n      tag_44\n      tag_45\n      jump\t// in\n    tag_44:\n      stop\n        /* \"Will.sol\":6645:8806  function execute() external nonReentrant canExecute {... */\n    tag_8:\n      tag_44\n      tag_47\n      jump\t// in\n        /* \"Will.sol\":5365:6602  function cancelAndWithdraw() external onlyOwnerWhenActive nonReentrant {... */\n    tag_9:\n      tag_44\n      tag_49\n      jump\t// in\n        /* \"Will.sol\":10143:10252  function getContractBalance() external view returns (uint256) {... */\n    tag_10:\n        /* \"Will.sol\":10223:10244  address(this).balance */\n      selfbalance\n        /* \"Will.sol\":10143:10252  function getContractBalance() external view returns (uint256) {... */\n      jump(tag_32)\n        /* \"@openzeppelin/contracts/access/Ownable.sol\":2293:2394  function renounceOwnership() public virtual onlyOwner {... */\n    tag_11:\n      tag_44\n      tag_54\n      jump\t// in\n        /* \"@openzeppelin/contracts/access/Ownable.sol\":1638:1723  function owner() public view virtual returns (address) {... */\n    tag_12:\n        /* \"@openzeppelin/contracts/access/Ownable.sol\":1684:1691  address */\n      0x00\n        /* \"@openzeppelin/contracts/access/Ownable.sol\":1710:1716  _owner */\n      sload\n      sub(shl(0xa0, 0x01), 0x01)\n      and\n        /* \"@openzeppelin/contracts/access/Ownable.sol\":1638:1723  function owner() public view virtual returns (address) {... */\n      jump(tag_26)\n        /* \"Will.sol\":2455:2486  Erc20Asset[] public erc20Assets */\n    tag_13:\n      tag_26\n      tag_59\n      calldatasize\n      0x04\n      tag_28\n      jump\t// in\n    tag_59:\n      tag_60\n      jump\t// in\n        /* \"Will.sol\":2210:2243  uint256 public immutable interval */\n    tag_14:\n      tag_32\n      immutable(\"0xf149c9166005b187f5af29ceb397e7b9b5ab7e3a911adc91a9ebb826b208930e\")\n      dup2\n      jump\n        /* \"Will.sol\":2250:2289  address public immutable sourceContract */\n    tag_15:\n      tag_26\n      immutable(\"0x8e831a88d8106460d1544aa376ec6155091b50c6145ad03273db7938ca17c5b1\")\n      dup2\n      jump\n        /* \"Will.sol\":3936:5195  function initialize(... */\n    tag_16:\n      tag_44\n      tag_70\n      calldatasize\n      0x04\n      tag_71\n      jump\t// in\n    tag_70:\n      tag_72\n      jump\t// in\n        /* \"Will.sol\":2178:2203  uint256 public lastUpdate */\n    tag_17:\n      tag_32\n      sload(0x03)\n      dup2\n      jump\n        /* \"Will.sol\":2296:2335  uint256 public immutable terminationFee */\n    tag_18:\n      tag_32\n      immutable(\"0xacd088948164483a37f73989f1c27b47a5586ebd1d004d9f6dfdcef17082f275\")\n      dup2\n      jump\n        /* \"Will.sol\":8849:10137  function getWillDetails() external view returns (WillDetails memory) {... */\n    tag_19:\n      tag_79\n      tag_80\n      jump\t// in\n    tag_79:\n      mload(0x40)\n      tag_30\n      swap2\n      swap1\n      tag_82\n      jump\t// in\n        /* \"Will.sol\":2493:2526  Erc721Asset[] public erc721Assets */\n    tag_20:\n      tag_83\n      tag_84\n      calldatasize\n      0x04\n      tag_28\n      jump\t// in\n    tag_84:\n      tag_85\n      jump\t// in\n    tag_83:\n      0x40\n      dup1\n      mload\n      sub(shl(0xa0, 0x01), 0x01)\n        /* \"#utility.yul\":10767:10782   */\n      swap5\n      dup6\n      and\n        /* \"#utility.yul\":10749:10783   */\n      dup2\n      mstore\n        /* \"#utility.yul\":10814:10816   */\n      0x20\n        /* \"#utility.yul\":10799:10817   */\n      dup2\n      add\n        /* \"#utility.yul\":10792:10826   */\n      swap4\n      swap1\n      swap4\n      mstore\n        /* \"#utility.yul\":10862:10877   */\n      swap3\n      and\n        /* \"#utility.yul\":10842:10860   */\n      swap2\n      dup2\n      add\n        /* \"#utility.yul\":10835:10878   */\n      swap2\n      swap1\n      swap2\n      mstore\n        /* \"#utility.yul\":10699:10701   */\n      0x60\n        /* \"#utility.yul\":10684:10702   */\n      add\n        /* \"Will.sol\":2493:2526  Erc721Asset[] public erc721Assets */\n      tag_30\n        /* \"#utility.yul\":10494:10884   */\n      jump\n        /* \"Will.sol\":2342:2372  bool public immutable hasDiary */\n    tag_21:\n      tag_40\n      immutable(\"0xc54ee332974d1c3b722bf69de0eb5376e86c76b9f8da5c925e6b0c3efd2d5979\")\n      dup2\n      jump\n        /* \"@openzeppelin/contracts/access/Ownable.sol\":2543:2758  function transferOwnership(address newOwner) public virtual onlyOwner {... */\n    tag_22:\n      tag_44\n      tag_92\n      calldatasize\n      0x04\n      tag_93\n      jump\t// in\n    tag_92:\n      tag_94\n      jump\t// in\n        /* \"Will.sol\":2379:2401  address[] public heirs */\n    tag_29:\n      0x04\n      dup2\n      dup2\n      sload\n      dup2\n      lt\n      tag_95\n      jumpi\n      0x00\n      dup1\n      revert\n    tag_95:\n      0x00\n      swap2\n      dup3\n      mstore\n      0x20\n      swap1\n      swap2\n      keccak256\n      add\n      sload\n      sub(shl(0xa0, 0x01), 0x01)\n      and\n      swap1\n      pop\n      dup2\n      jump\t// out\n        /* \"Will.sol\":2408:2448  uint256[] public distributionPercentages */\n    tag_34:\n      0x05\n      dup2\n      dup2\n      sload\n      dup2\n      lt\n      tag_97\n      jumpi\n      0x00\n      dup1\n      revert\n    tag_97:\n      0x00\n      swap2\n      dup3\n      mstore\n      0x20\n      swap1\n      swap2\n      keccak256\n      add\n      sload\n      swap1\n      pop\n      dup2\n      jump\t// out\n        /* \"Will.sol\":5235:5359  function ping() external onlyOwnerWhenActive {... */\n    tag_45:\n        /* \"Will.sol\":2825:2833  executed */\n      and(0xff, sload(0x02))\n        /* \"Will.sol\":2824:2833  !executed */\n      iszero\n        /* \"Will.sol\":2816:2874  require(!executed, \"Will has been executed or cancelled.\") */\n      tag_100\n      jumpi\n      mload(0x40)\n      shl(0xe5, 0x461bcd)\n      dup2\n      mstore\n      0x04\n      add\n      tag_101\n      swap1\n      tag_102\n      jump\t// in\n    tag_101:\n      mload(0x40)\n      dup1\n      swap2\n      sub\n      swap1\n      revert\n    tag_100:\n        /* \"Will.sol\":2904:2914  msg.sender */\n      caller\n        /* \"Will.sol\":2893:2900  owner() */\n      tag_103\n        /* \"@openzeppelin/contracts/access/Ownable.sol\":1684:1691  address */\n      0x00\n        /* \"@openzeppelin/contracts/access/Ownable.sol\":1710:1716  _owner */\n      sload\n      sub(shl(0xa0, 0x01), 0x01)\n      and\n      swap1\n        /* \"@openzeppelin/contracts/access/Ownable.sol\":1638:1723  function owner() public view virtual returns (address) {... */\n      jump\n        /* \"Will.sol\":2893:2900  owner() */\n    tag_103:\n      sub(shl(0xa0, 0x01), 0x01)\n        /* \"Will.sol\":2893:2914  owner() == msg.sender */\n      and\n      eq\n        /* \"Will.sol\":2885:2957  require(owner() == msg.sender, \"Only the owner can call this function.\") */\n      tag_104\n      jumpi\n      mload(0x40)\n      shl(0xe5, 0x461bcd)\n      dup2\n      mstore\n      0x04\n      add\n      tag_101\n      swap1\n      tag_106\n      jump\t// in\n    tag_104:\n        /* \"Will.sol\":5304:5319  block.timestamp */\n      timestamp\n        /* \"Will.sol\":5291:5301  lastUpdate */\n      0x03\n        /* \"Will.sol\":5291:5319  lastUpdate = block.timestamp */\n      dup2\n      swap1\n      sstore\n        /* \"Will.sol\":5335:5351  Ping(lastUpdate) */\n      mload(0x40)\n        /* \"#utility.yul\":662:687   */\n      swap1\n      dup2\n      mstore\n        /* \"Will.sol\":5335:5351  Ping(lastUpdate) */\n      0x48257dc961b6f792c2b78a080dacfed693b660960a702de21cee364e20270e2f\n      swap1\n        /* \"#utility.yul\":650:652   */\n      0x20\n        /* \"#utility.yul\":635:653   */\n      add\n        /* \"Will.sol\":5335:5351  Ping(lastUpdate) */\n      mload(0x40)\n      dup1\n      swap2\n      sub\n      swap1\n      log1\n        /* \"Will.sol\":5235:5359  function ping() external onlyOwnerWhenActive {... */\n      jump\t// out\n        /* \"Will.sol\":6645:8806  function execute() external nonReentrant canExecute {... */\n    tag_47:\n        /* \"Will.sol\":525:543  _preReentryCheck() */\n      tag_110\n        /* \"Will.sol\":525:541  _preReentryCheck */\n      tag_111\n        /* \"Will.sol\":525:543  _preReentryCheck() */\n      jump\t// in\n    tag_110:\n        /* \"Will.sol\":405:406  2 */\n      0x02\n        /* \"Will.sol\":554:561  _status */\n      0x01\n        /* \"Will.sol\":554:572  _status = _ENTERED */\n      dup2\n      swap1\n      sstore\n        /* \"Will.sol\":3025:3033  executed */\n      sload\n      0xff\n      and\n        /* \"Will.sol\":3024:3033  !executed */\n      iszero\n        /* \"Will.sol\":3016:3074  require(!executed, \"Will has been executed or cancelled.\") */\n      tag_113\n      jumpi\n      mload(0x40)\n      shl(0xe5, 0x461bcd)\n      dup2\n      mstore\n      0x04\n      add\n      tag_101\n      swap1\n      tag_102\n      jump\t// in\n    tag_113:\n        /* \"Will.sol\":3085:3107  uint256 gracePeriodEnd */\n      0x00\n        /* \"Will.sol\":3123:3131  interval */\n      immutable(\"0xf149c9166005b187f5af29ceb397e7b9b5ab7e3a911adc91a9ebb826b208930e\")\n        /* \"Will.sol\":3110:3120  lastUpdate */\n      sload(0x03)\n        /* \"Will.sol\":3110:3131  lastUpdate + interval */\n      tag_115\n      swap2\n      swap1\n      tag_116\n      jump\t// in\n    tag_115:\n        /* \"Will.sol\":3085:3131  uint256 gracePeriodEnd = lastUpdate + interval */\n      swap1\n      pop\n        /* \"Will.sol\":3169:3183  gracePeriodEnd */\n      dup1\n        /* \"Will.sol\":3150:3165  block.timestamp */\n      timestamp\n        /* \"Will.sol\":3150:3183  block.timestamp >= gracePeriodEnd */\n      lt\n      iszero\n        /* \"Will.sol\":3142:3215  require(block.timestamp >= gracePeriodEnd, \"Grace period has not ended.\") */\n      tag_117\n      jumpi\n      mload(0x40)\n      shl(0xe5, 0x461bcd)\n      dup2\n      mstore\n        /* \"#utility.yul\":12356:12358   */\n      0x20\n        /* \"Will.sol\":3142:3215  require(block.timestamp >= gracePeriodEnd, \"Grace period has not ended.\") */\n      0x04\n      dup3\n      add\n        /* \"#utility.yul\":12338:12359   */\n      mstore\n        /* \"#utility.yul\":12395:12397   */\n      0x1b\n        /* \"#utility.yul\":12375:12393   */\n      0x24\n      dup3\n      add\n        /* \"#utility.yul\":12368:12398   */\n      mstore\n        /* \"#utility.yul\":12434:12463   */\n      0x477261636520706572696f6420686173206e6f7420656e6465642e0000000000\n        /* \"#utility.yul\":12414:12432   */\n      0x44\n      dup3\n      add\n        /* \"#utility.yul\":12407:12464   */\n      mstore\n        /* \"#utility.yul\":12481:12499   */\n      0x64\n      add\n        /* \"Will.sol\":3142:3215  require(block.timestamp >= gracePeriodEnd, \"Grace period has not ended.\") */\n      tag_101\n        /* \"#utility.yul\":12154:12505   */\n      jump\n        /* \"Will.sol\":3142:3215  require(block.timestamp >= gracePeriodEnd, \"Grace period has not ended.\") */\n    tag_117:\n        /* \"Will.sol\":3226:3251  uint256 executorPeriodEnd */\n      0x00\n        /* \"Will.sol\":3254:3286  gracePeriodEnd + EXECUTOR_WINDOW */\n      tag_120\n        /* \"Will.sol\":1958:1964  1 days */\n      0x015180\n        /* \"Will.sol\":3254:3268  gracePeriodEnd */\n      dup4\n        /* \"Will.sol\":3254:3286  gracePeriodEnd + EXECUTOR_WINDOW */\n      tag_116\n      jump\t// in\n    tag_120:\n        /* \"Will.sol\":3226:3286  uint256 executorPeriodEnd = gracePeriodEnd + EXECUTOR_WINDOW */\n      swap1\n      pop\n        /* \"Will.sol\":3319:3336  executorPeriodEnd */\n      dup1\n        /* \"Will.sol\":3301:3316  block.timestamp */\n      timestamp\n        /* \"Will.sol\":3301:3336  block.timestamp < executorPeriodEnd */\n      lt\n        /* \"Will.sol\":3297:3455  if (block.timestamp < executorPeriodEnd) {... */\n      iszero\n      tag_122\n      jumpi\n        /* \"Will.sol\":3361:3371  msg.sender */\n      caller\n        /* \"Will.sol\":2015:2057  0xa9F8F9C0bf3188cEDdb9684ae28655187552bAE9 */\n      0xa9f8f9c0bf3188ceddb9684ae28655187552bae9\n        /* \"Will.sol\":3361:3391  msg.sender == EXECUTOR_ADDRESS */\n      eq\n        /* \"Will.sol\":3353:3443  require(msg.sender == EXECUTOR_ADDRESS, \"Only the designated executor can call this now.\") */\n      tag_122\n      jumpi\n      mload(0x40)\n      shl(0xe5, 0x461bcd)\n      dup2\n      mstore\n        /* \"#utility.yul\":12712:12714   */\n      0x20\n        /* \"Will.sol\":3353:3443  require(msg.sender == EXECUTOR_ADDRESS, \"Only the designated executor can call this now.\") */\n      0x04\n      dup3\n      add\n        /* \"#utility.yul\":12694:12715   */\n      mstore\n        /* \"#utility.yul\":12751:12753   */\n      0x2f\n        /* \"#utility.yul\":12731:12749   */\n      0x24\n      dup3\n      add\n        /* \"#utility.yul\":12724:12754   */\n      mstore\n        /* \"#utility.yul\":12790:12824   */\n      0x4f6e6c79207468652064657369676e61746564206578656375746f722063616e\n        /* \"#utility.yul\":12770:12788   */\n      0x44\n      dup3\n      add\n        /* \"#utility.yul\":12763:12825   */\n      mstore\n      shl(0x89, 0x1031b0b636103a3434b9903737bb97)\n        /* \"#utility.yul\":12841:12859   */\n      0x64\n      dup3\n      add\n        /* \"#utility.yul\":12834:12879   */\n      mstore\n        /* \"#utility.yul\":12896:12915   */\n      0x84\n      add\n        /* \"Will.sol\":3353:3443  require(msg.sender == EXECUTOR_ADDRESS, \"Only the designated executor can call this now.\") */\n      tag_101\n        /* \"#utility.yul\":12510:12921   */\n      jump\n        /* \"Will.sol\":3353:3443  require(msg.sender == EXECUTOR_ADDRESS, \"Only the designated executor can call this now.\") */\n    tag_122:\n        /* \"Will.sol\":6708:6716  executed */\n      0x02\n        /* \"Will.sol\":6708:6723  executed = true */\n      dup1\n      sload\n      not(0xff)\n      and\n        /* \"Will.sol\":6719:6723  true */\n      0x01\n        /* \"Will.sol\":6708:6723  executed = true */\n      or\n      swap1\n      sstore\n        /* \"Will.sol\":6761:6771  lastUpdate */\n      sload(0x03)\n        /* \"Will.sol\":6708:6716  executed */\n      0x00\n      swap1\n        /* \"Will.sol\":6761:6782  lastUpdate + interval */\n      tag_126\n      swap1\n        /* \"Will.sol\":6774:6782  interval */\n      immutable(\"0xf149c9166005b187f5af29ceb397e7b9b5ab7e3a911adc91a9ebb826b208930e\")\n      swap1\n        /* \"Will.sol\":6761:6782  lastUpdate + interval */\n      tag_116\n      jump\t// in\n    tag_126:\n        /* \"Will.sol\":6736:6782  uint256 gracePeriodEnd = lastUpdate + interval */\n      swap1\n      pop\n        /* \"Will.sol\":6793:6818  uint256 executorPeriodEnd */\n      0x00\n        /* \"Will.sol\":6821:6853  gracePeriodEnd + EXECUTOR_WINDOW */\n      tag_127\n        /* \"Will.sol\":1958:1964  1 days */\n      0x015180\n        /* \"Will.sol\":6736:6782  uint256 gracePeriodEnd = lastUpdate + interval */\n      dup4\n        /* \"Will.sol\":6821:6853  gracePeriodEnd + EXECUTOR_WINDOW */\n      tag_116\n      jump\t// in\n    tag_127:\n        /* \"Will.sol\":6793:6853  uint256 executorPeriodEnd = gracePeriodEnd + EXECUTOR_WINDOW */\n      swap1\n      pop\n        /* \"Will.sol\":6864:6884  address feeRecipient */\n      0x00\n        /* \"Will.sol\":6906:6923  executorPeriodEnd */\n      dup2\n        /* \"Will.sol\":6888:6903  block.timestamp */\n      timestamp\n        /* \"Will.sol\":6888:6923  block.timestamp < executorPeriodEnd */\n      lt\n        /* \"Will.sol\":6887:6954  (block.timestamp < executorPeriodEnd) ? sourceContract : msg.sender */\n      tag_128\n      jumpi\n        /* \"Will.sol\":6944:6954  msg.sender */\n      caller\n        /* \"Will.sol\":6887:6954  (block.timestamp < executorPeriodEnd) ? sourceContract : msg.sender */\n      jump(tag_129)\n    tag_128:\n        /* \"Will.sol\":6927:6941  sourceContract */\n      immutable(\"0x8e831a88d8106460d1544aa376ec6155091b50c6145ad03273db7938ca17c5b1\")\n        /* \"Will.sol\":6887:6954  (block.timestamp < executorPeriodEnd) ? sourceContract : msg.sender */\n    tag_129:\n        /* \"Will.sol\":6864:6954  address feeRecipient = (block.timestamp < executorPeriodEnd) ? sourceContract : msg.sender */\n      swap1\n      pop\n        /* \"Will.sol\":6975:6994  uint256 totalEthFee */\n      0x00\n        /* \"Will.sol\":7028:7049  address(this).balance */\n      selfbalance\n        /* \"Will.sol\":7064:7076  totalEth > 0 */\n      dup1\n      iszero\n        /* \"Will.sol\":7060:7810  if (totalEth > 0) {... */\n      tag_130\n      jumpi\n        /* \"Will.sol\":7093:7107  uint256 ethFee */\n      0x00\n        /* \"Will.sol\":7143:7148  10000 */\n      0x2710\n        /* \"Will.sol\":7111:7139  totalEth * EXECUTION_FEE_BPS */\n      tag_131\n        /* \"Will.sol\":2108:2110  50 */\n      0x32\n        /* \"Will.sol\":7111:7119  totalEth */\n      dup5\n        /* \"Will.sol\":7111:7139  totalEth * EXECUTION_FEE_BPS */\n      tag_132\n      jump\t// in\n    tag_131:\n        /* \"Will.sol\":7110:7148  (totalEth * EXECUTION_FEE_BPS) / 10000 */\n      tag_133\n      swap2\n      swap1\n      tag_134\n      jump\t// in\n    tag_133:\n        /* \"Will.sol\":7093:7148  uint256 ethFee = (totalEth * EXECUTION_FEE_BPS) / 10000 */\n      swap3\n      pop\n      dup3\n      swap1\n      pop\n        /* \"Will.sol\":7198:7222  uint256 distributableEth */\n      0x00\n        /* \"Will.sol\":7225:7242  totalEth - ethFee */\n      tag_135\n        /* \"Will.sol\":7093:7148  uint256 ethFee = (totalEth * EXECUTION_FEE_BPS) / 10000 */\n      dup3\n        /* \"Will.sol\":7225:7233  totalEth */\n      dup5\n        /* \"Will.sol\":7225:7242  totalEth - ethFee */\n      tag_136\n      jump\t// in\n    tag_135:\n        /* \"Will.sol\":7198:7242  uint256 distributableEth = totalEth - ethFee */\n      swap1\n      pop\n        /* \"Will.sol\":7261:7271  ethFee > 0 */\n      dup2\n      iszero\n        /* \"Will.sol\":7257:7435  if (ethFee > 0) {... */\n      tag_137\n      jumpi\n        /* \"Will.sol\":7293:7305  bool success */\n      0x00\n        /* \"Will.sol\":7319:7331  feeRecipient */\n      dup6\n      sub(shl(0xa0, 0x01), 0x01)\n        /* \"Will.sol\":7311:7337  payable(feeRecipient).call */\n      and\n        /* \"Will.sol\":7345:7351  ethFee */\n      dup4\n        /* \"Will.sol\":7311:7356  payable(feeRecipient).call{value: ethFee}(\"\") */\n      mload(0x40)\n      0x00\n      mload(0x40)\n      dup1\n      dup4\n      sub\n      dup2\n      dup6\n      dup8\n      gas\n      call\n      swap3\n      pop\n      pop\n      pop\n      returndatasize\n      dup1\n      0x00\n      dup2\n      eq\n      tag_142\n      jumpi\n      mload(0x40)\n      swap2\n      pop\n      and(add(returndatasize, 0x3f), not(0x1f))\n      dup3\n      add\n      0x40\n      mstore\n      returndatasize\n      dup3\n      mstore\n      returndatasize\n      0x00\n      0x20\n      dup5\n      add\n      returndatacopy\n      jump(tag_141)\n    tag_142:\n      0x60\n      swap2\n      pop\n    tag_141:\n      pop\n        /* \"Will.sol\":7292:7356  (bool success, ) = payable(feeRecipient).call{value: ethFee}(\"\") */\n      pop\n      swap1\n      pop\n        /* \"Will.sol\":7383:7390  success */\n      dup1\n        /* \"Will.sol\":7375:7419  require(success, \"ETH fee transfer failed.\") */\n      tag_143\n      jumpi\n      mload(0x40)\n      shl(0xe5, 0x461bcd)\n      dup2\n      mstore\n        /* \"#utility.yul\":13866:13868   */\n      0x20\n        /* \"Will.sol\":7375:7419  require(success, \"ETH fee transfer failed.\") */\n      0x04\n      dup3\n      add\n        /* \"#utility.yul\":13848:13869   */\n      mstore\n        /* \"#utility.yul\":13905:13907   */\n      0x18\n        /* \"#utility.yul\":13885:13903   */\n      0x24\n      dup3\n      add\n        /* \"#utility.yul\":13878:13908   */\n      mstore\n        /* \"#utility.yul\":13944:13970   */\n      0x45544820666565207472616e73666572206661696c65642e0000000000000000\n        /* \"#utility.yul\":13924:13942   */\n      0x44\n      dup3\n      add\n        /* \"#utility.yul\":13917:13971   */\n      mstore\n        /* \"#utility.yul\":13988:14006   */\n      0x64\n      add\n        /* \"Will.sol\":7375:7419  require(success, \"ETH fee transfer failed.\") */\n      tag_101\n        /* \"#utility.yul\":13664:14012   */\n      jump\n        /* \"Will.sol\":7375:7419  require(success, \"ETH fee transfer failed.\") */\n    tag_143:\n        /* \"Will.sol\":7273:7435  {... */\n      pop\n        /* \"Will.sol\":7257:7435  if (ethFee > 0) {... */\n    tag_137:\n        /* \"Will.sol\":7454:7460  uint i */\n      0x00\n        /* \"Will.sol\":7449:7799  for (uint i = 0; i < heirs.length; i++) {... */\n    tag_146:\n        /* \"Will.sol\":7470:7475  heirs */\n      0x04\n        /* \"Will.sol\":7470:7482  heirs.length */\n      sload\n        /* \"Will.sol\":7466:7482  i < heirs.length */\n      dup2\n      lt\n        /* \"Will.sol\":7449:7799  for (uint i = 0; i < heirs.length; i++) {... */\n      iszero\n      tag_147\n      jumpi\n        /* \"Will.sol\":7508:7521  uint256 share */\n      0x00\n        /* \"Will.sol\":7574:7577  100 */\n      0x64\n        /* \"Will.sol\":7544:7567  distributionPercentages */\n      0x05\n        /* \"Will.sol\":7568:7569  i */\n      dup4\n        /* \"Will.sol\":7544:7570  distributionPercentages[i] */\n      dup2\n      sload\n      dup2\n      lt\n      tag_150\n      jumpi\n      tag_150\n      tag_151\n      jump\t// in\n    tag_150:\n      swap1\n      0x00\n      mstore\n      keccak256(0x00, 0x20)\n      add\n      sload\n        /* \"Will.sol\":7525:7541  distributableEth */\n      dup5\n        /* \"Will.sol\":7525:7570  distributableEth * distributionPercentages[i] */\n      tag_153\n      swap2\n      swap1\n      tag_132\n      jump\t// in\n    tag_153:\n        /* \"Will.sol\":7524:7577  (distributableEth * distributionPercentages[i]) / 100 */\n      tag_154\n      swap2\n      swap1\n      tag_134\n      jump\t// in\n    tag_154:\n        /* \"Will.sol\":7508:7577  uint256 share = (distributableEth * distributionPercentages[i]) / 100 */\n      swap1\n      pop\n        /* \"Will.sol\":7600:7609  share > 0 */\n      dup1\n      iszero\n        /* \"Will.sol\":7596:7784  if (share > 0) {... */\n      tag_155\n      jumpi\n        /* \"Will.sol\":7635:7647  bool success */\n      0x00\n        /* \"Will.sol\":7661:7666  heirs */\n      0x04\n        /* \"Will.sol\":7667:7668  i */\n      dup4\n        /* \"Will.sol\":7661:7669  heirs[i] */\n      dup2\n      sload\n      dup2\n      lt\n      tag_157\n      jumpi\n      tag_157\n      tag_151\n      jump\t// in\n    tag_157:\n      0x00\n      swap2\n      dup3\n      mstore\n      0x20\n      dup3\n      keccak256\n      add\n      sload\n        /* \"Will.sol\":7653:7693  payable(heirs[i]).call{value: share}(\"\") */\n      mload(0x40)\n      sub(shl(0xa0, 0x01), 0x01)\n        /* \"Will.sol\":7661:7669  heirs[i] */\n      swap1\n      swap2\n      and\n      swap2\n        /* \"Will.sol\":7683:7688  share */\n      dup5\n      swap2\n        /* \"Will.sol\":7653:7693  payable(heirs[i]).call{value: share}(\"\") */\n      swap1\n      dup2\n        /* \"Will.sol\":7661:7669  heirs[i] */\n      dup2\n        /* \"Will.sol\":7653:7693  payable(heirs[i]).call{value: share}(\"\") */\n      dup2\n        /* \"Will.sol\":7683:7688  share */\n      dup6\n        /* \"Will.sol\":7661:7669  heirs[i] */\n      dup8\n        /* \"Will.sol\":7653:7693  payable(heirs[i]).call{value: share}(\"\") */\n      gas\n      call\n      swap3\n      pop\n      pop\n      pop\n      returndatasize\n      dup1\n      0x00\n      dup2\n      eq\n      tag_162\n      jumpi\n      mload(0x40)\n      swap2\n      pop\n      and(add(returndatasize, 0x3f), not(0x1f))\n      dup3\n      add\n      0x40\n      mstore\n      returndatasize\n      dup3\n      mstore\n      returndatasize\n      0x00\n      0x20\n      dup5\n      add\n      returndatacopy\n      jump(tag_161)\n    tag_162:\n      0x60\n      swap2\n      pop\n    tag_161:\n      pop\n        /* \"Will.sol\":7634:7693  (bool success, ) = payable(heirs[i]).call{value: share}(\"\") */\n      pop\n      swap1\n      pop\n        /* \"Will.sol\":7724:7731  success */\n      dup1\n        /* \"Will.sol\":7716:7764  require(success, \"ETH transfer to heir failed.\") */\n      tag_163\n      jumpi\n      mload(0x40)\n      shl(0xe5, 0x461bcd)\n      dup2\n      mstore\n        /* \"#utility.yul\":14351:14353   */\n      0x20\n        /* \"Will.sol\":7716:7764  require(success, \"ETH transfer to heir failed.\") */\n      0x04\n      dup3\n      add\n        /* \"#utility.yul\":14333:14354   */\n      mstore\n        /* \"#utility.yul\":14390:14392   */\n      0x1c\n        /* \"#utility.yul\":14370:14388   */\n      0x24\n      dup3\n      add\n        /* \"#utility.yul\":14363:14393   */\n      mstore\n        /* \"#utility.yul\":14429:14459   */\n      0x455448207472616e7366657220746f2068656972206661696c65642e00000000\n        /* \"#utility.yul\":14409:14427   */\n      0x44\n      dup3\n      add\n        /* \"#utility.yul\":14402:14460   */\n      mstore\n        /* \"#utility.yul\":14477:14495   */\n      0x64\n      add\n        /* \"Will.sol\":7716:7764  require(success, \"ETH transfer to heir failed.\") */\n      tag_101\n        /* \"#utility.yul\":14149:14501   */\n      jump\n        /* \"Will.sol\":7716:7764  require(success, \"ETH transfer to heir failed.\") */\n    tag_163:\n        /* \"Will.sol\":7611:7784  {... */\n      pop\n        /* \"Will.sol\":7596:7784  if (share > 0) {... */\n    tag_155:\n      pop\n        /* \"Will.sol\":7484:7487  i++ */\n      0x01\n      add\n        /* \"Will.sol\":7449:7799  for (uint i = 0; i < heirs.length; i++) {... */\n      jump(tag_146)\n    tag_147:\n      pop\n        /* \"Will.sol\":7078:7810  {... */\n      pop\n      pop\n        /* \"Will.sol\":7060:7810  if (totalEth > 0) {... */\n    tag_130:\n        /* \"Will.sol\":7827:7833  uint i */\n      0x00\n        /* \"Will.sol\":7822:8523  for (uint i = 0; i < erc20Assets.length; i++) {... */\n    tag_166:\n        /* \"Will.sol\":7843:7854  erc20Assets */\n      0x06\n        /* \"Will.sol\":7843:7861  erc20Assets.length */\n      sload\n        /* \"Will.sol\":7839:7861  i < erc20Assets.length */\n      dup2\n      lt\n        /* \"Will.sol\":7822:8523  for (uint i = 0; i < erc20Assets.length; i++) {... */\n      iszero\n      tag_167\n      jumpi\n        /* \"Will.sol\":7883:7895  IERC20 token */\n      0x00\n        /* \"Will.sol\":7898:7909  erc20Assets */\n      0x06\n        /* \"Will.sol\":7910:7911  i */\n      dup3\n        /* \"Will.sol\":7898:7912  erc20Assets[i] */\n      dup2\n      sload\n      dup2\n      lt\n      tag_170\n      jumpi\n      tag_170\n      tag_151\n      jump\t// in\n    tag_170:\n      0x00\n      swap2\n      dup3\n      mstore\n      0x20\n      dup3\n      keccak256\n      add\n        /* \"Will.sol\":7898:7918  erc20Assets[i].token */\n      sload\n        /* \"Will.sol\":7955:7985  token.balanceOf(address(this)) */\n      mload(0x40)\n      shl(0xe0, 0x70a08231)\n      dup2\n      mstore\n        /* \"Will.sol\":7979:7983  this */\n      address\n        /* \"Will.sol\":7955:7985  token.balanceOf(address(this)) */\n      0x04\n      dup3\n      add\n        /* \"#utility.yul\":454:505   */\n      mstore\n      sub(shl(0xa0, 0x01), 0x01)\n        /* \"Will.sol\":7898:7918  erc20Assets[i].token */\n      swap1\n      swap2\n      and\n      swap3\n      pop\n      dup3\n      swap1\n        /* \"Will.sol\":7955:7970  token.balanceOf */\n      0x70a08231\n      swap1\n        /* \"#utility.yul\":427:445   */\n      0x24\n      add\n        /* \"Will.sol\":7955:7985  token.balanceOf(address(this)) */\n      0x20\n      mload(0x40)\n      dup1\n      dup4\n      sub\n      dup2\n      dup7\n      gas\n      staticcall\n      iszero\n      dup1\n      iszero\n      tag_174\n      jumpi\n      returndatasize\n      0x00\n      dup1\n      returndatacopy\n      revert(0x00, returndatasize)\n    tag_174:\n      pop\n      pop\n      pop\n      pop\n      mload(0x40)\n      returndatasize\n      not(0x1f)\n      0x1f\n      dup3\n      add\n      and\n      dup3\n      add\n      dup1\n      0x40\n      mstore\n      pop\n      dup2\n      add\n      swap1\n      tag_175\n      swap2\n      swap1\n      tag_176\n      jump\t// in\n    tag_175:\n        /* \"Will.sol\":7933:7985  uint256 totalTokens = token.balanceOf(address(this)) */\n      swap1\n      pop\n        /* \"Will.sol\":8004:8019  totalTokens > 0 */\n      dup1\n      iszero\n        /* \"Will.sol\":8000:8512  if (totalTokens > 0) {... */\n      tag_177\n      jumpi\n        /* \"Will.sol\":8040:8056  uint256 tokenFee */\n      0x00\n        /* \"Will.sol\":8095:8100  10000 */\n      0x2710\n        /* \"Will.sol\":8060:8091  totalTokens * EXECUTION_FEE_BPS */\n      tag_178\n        /* \"Will.sol\":2108:2110  50 */\n      0x32\n        /* \"Will.sol\":8060:8071  totalTokens */\n      dup5\n        /* \"Will.sol\":8060:8091  totalTokens * EXECUTION_FEE_BPS */\n      tag_132\n      jump\t// in\n    tag_178:\n        /* \"Will.sol\":8059:8100  (totalTokens * EXECUTION_FEE_BPS) / 10000 */\n      tag_179\n      swap2\n      swap1\n      tag_134\n      jump\t// in\n    tag_179:\n        /* \"Will.sol\":8040:8100  uint256 tokenFee = (totalTokens * EXECUTION_FEE_BPS) / 10000 */\n      swap1\n      pop\n        /* \"Will.sol\":8119:8146  uint256 distributableTokens */\n      0x00\n        /* \"Will.sol\":8149:8171  totalTokens - tokenFee */\n      tag_180\n        /* \"Will.sol\":8040:8100  uint256 tokenFee = (totalTokens * EXECUTION_FEE_BPS) / 10000 */\n      dup3\n        /* \"Will.sol\":8149:8160  totalTokens */\n      dup5\n        /* \"Will.sol\":8149:8171  totalTokens - tokenFee */\n      tag_136\n      jump\t// in\n    tag_180:\n        /* \"Will.sol\":8119:8171  uint256 distributableTokens = totalTokens - tokenFee */\n      swap1\n      pop\n        /* \"Will.sol\":8194:8206  tokenFee > 0 */\n      dup2\n      iszero\n        /* \"Will.sol\":8190:8251  if (tokenFee > 0) { token.transfer(feeRecipient, tokenFee); } */\n      tag_181\n      jumpi\n        /* \"Will.sol\":8210:8248  token.transfer(feeRecipient, tokenFee) */\n      mload(0x40)\n      shl(0xe0, 0xa9059cbb)\n      dup2\n      mstore\n      sub(shl(0xa0, 0x01), 0x01)\n        /* \"#utility.yul\":14887:14919   */\n      dup10\n      dup2\n      and\n        /* \"Will.sol\":8210:8248  token.transfer(feeRecipient, tokenFee) */\n      0x04\n      dup4\n      add\n        /* \"#utility.yul\":14869:14920   */\n      mstore\n        /* \"#utility.yul\":14936:14954   */\n      0x24\n      dup3\n      add\n        /* \"#utility.yul\":14929:14963   */\n      dup5\n      swap1\n      mstore\n        /* \"Will.sol\":8210:8224  token.transfer */\n      dup6\n      and\n      swap1\n      0xa9059cbb\n      swap1\n        /* \"#utility.yul\":14842:14860   */\n      0x44\n      add\n        /* \"Will.sol\":8210:8248  token.transfer(feeRecipient, tokenFee) */\n      0x20\n      mload(0x40)\n      dup1\n      dup4\n      sub\n      dup2\n      0x00\n      dup8\n      gas\n      call\n      iszero\n      dup1\n      iszero\n      tag_185\n      jumpi\n      returndatasize\n      0x00\n      dup1\n      returndatacopy\n      revert(0x00, returndatasize)\n    tag_185:\n      pop\n      pop\n      pop\n      pop\n      mload(0x40)\n      returndatasize\n      not(0x1f)\n      0x1f\n      dup3\n      add\n      and\n      dup3\n      add\n      dup1\n      0x40\n      mstore\n      pop\n      dup2\n      add\n      swap1\n      tag_186\n      swap2\n      swap1\n      tag_187\n      jump\t// in\n    tag_186:\n      pop\n        /* \"Will.sol\":8190:8251  if (tokenFee > 0) { token.transfer(feeRecipient, tokenFee); } */\n    tag_181:\n        /* \"Will.sol\":8274:8280  uint j */\n      0x00\n        /* \"Will.sol\":8269:8497  for (uint j = 0; j < heirs.length; j++) {... */\n    tag_188:\n        /* \"Will.sol\":8290:8295  heirs */\n      0x04\n        /* \"Will.sol\":8290:8302  heirs.length */\n      sload\n        /* \"Will.sol\":8286:8302  j < heirs.length */\n      dup2\n      lt\n        /* \"Will.sol\":8269:8497  for (uint j = 0; j < heirs.length; j++) {... */\n      iszero\n      tag_189\n      jumpi\n        /* \"Will.sol\":8332:8345  uint256 share */\n      0x00\n        /* \"Will.sol\":8401:8404  100 */\n      0x64\n        /* \"Will.sol\":8371:8394  distributionPercentages */\n      0x05\n        /* \"Will.sol\":8395:8396  j */\n      dup4\n        /* \"Will.sol\":8371:8397  distributionPercentages[j] */\n      dup2\n      sload\n      dup2\n      lt\n      tag_192\n      jumpi\n      tag_192\n      tag_151\n      jump\t// in\n    tag_192:\n      swap1\n      0x00\n      mstore\n      keccak256(0x00, 0x20)\n      add\n      sload\n        /* \"Will.sol\":8349:8368  distributableTokens */\n      dup5\n        /* \"Will.sol\":8349:8397  distributableTokens * distributionPercentages[j] */\n      tag_194\n      swap2\n      swap1\n      tag_132\n      jump\t// in\n    tag_194:\n        /* \"Will.sol\":8348:8404  (distributableTokens * distributionPercentages[j]) / 100 */\n      tag_195\n      swap2\n      swap1\n      tag_134\n      jump\t// in\n    tag_195:\n        /* \"Will.sol\":8332:8404  uint256 share = (distributableTokens * distributionPercentages[j]) / 100 */\n      swap1\n      pop\n        /* \"Will.sol\":8431:8440  share > 0 */\n      dup1\n      iszero\n        /* \"Will.sol\":8427:8478  if (share > 0) { token.transfer(heirs[j], share); } */\n      tag_196\n      jumpi\n        /* \"Will.sol\":8444:8449  token */\n      dup6\n      sub(shl(0xa0, 0x01), 0x01)\n        /* \"Will.sol\":8444:8458  token.transfer */\n      and\n      0xa9059cbb\n        /* \"Will.sol\":8459:8464  heirs */\n      0x04\n        /* \"Will.sol\":8465:8466  j */\n      dup5\n        /* \"Will.sol\":8459:8467  heirs[j] */\n      dup2\n      sload\n      dup2\n      lt\n      tag_198\n      jumpi\n      tag_198\n      tag_151\n      jump\t// in\n    tag_198:\n      0x00\n      swap2\n      dup3\n      mstore\n      0x20\n      swap1\n      swap2\n      keccak256\n      add\n      sload\n        /* \"Will.sol\":8444:8475  token.transfer(heirs[j], share) */\n      mload(0x40)\n      0xe0\n      dup4\n      swap1\n      shl\n      not(sub(shl(0xe0, 0x01), 0x01))\n      and\n      dup2\n      mstore\n      sub(shl(0xa0, 0x01), 0x01)\n        /* \"Will.sol\":8459:8467  heirs[j] */\n      swap1\n      swap2\n      and\n        /* \"Will.sol\":8444:8475  token.transfer(heirs[j], share) */\n      0x04\n      dup3\n      add\n        /* \"#utility.yul\":14869:14920   */\n      mstore\n        /* \"#utility.yul\":14936:14954   */\n      0x24\n      dup2\n      add\n        /* \"#utility.yul\":14929:14963   */\n      dup5\n      swap1\n      mstore\n        /* \"#utility.yul\":14842:14860   */\n      0x44\n      add\n        /* \"Will.sol\":8444:8475  token.transfer(heirs[j], share) */\n      0x20\n      mload(0x40)\n      dup1\n      dup4\n      sub\n      dup2\n      0x00\n      dup8\n      gas\n      call\n      iszero\n      dup1\n      iszero\n      tag_202\n      jumpi\n      returndatasize\n      0x00\n      dup1\n      returndatacopy\n      revert(0x00, returndatasize)\n    tag_202:\n      pop\n      pop\n      pop\n      pop\n      mload(0x40)\n      returndatasize\n      not(0x1f)\n      0x1f\n      dup3\n      add\n      and\n      dup3\n      add\n      dup1\n      0x40\n      mstore\n      pop\n      dup2\n      add\n      swap1\n      tag_203\n      swap2\n      swap1\n      tag_187\n      jump\t// in\n    tag_203:\n      pop\n        /* \"Will.sol\":8427:8478  if (share > 0) { token.transfer(heirs[j], share); } */\n    tag_196:\n      pop\n        /* \"Will.sol\":8304:8307  j++ */\n      0x01\n      add\n        /* \"Will.sol\":8269:8497  for (uint j = 0; j < heirs.length; j++) {... */\n      jump(tag_188)\n    tag_189:\n      pop\n        /* \"Will.sol\":8021:8512  {... */\n      pop\n      pop\n        /* \"Will.sol\":8000:8512  if (totalTokens > 0) {... */\n    tag_177:\n      pop\n      pop\n        /* \"Will.sol\":7863:7866  i++ */\n      0x01\n      add\n        /* \"Will.sol\":7822:8523  for (uint i = 0; i < erc20Assets.length; i++) {... */\n      jump(tag_166)\n    tag_167:\n      pop\n        /* \"Will.sol\":8540:8546  uint i */\n      0x00\n        /* \"Will.sol\":8535:8736  for (uint i = 0; i < erc721Assets.length; i++) {... */\n    tag_204:\n        /* \"Will.sol\":8556:8568  erc721Assets */\n      0x07\n        /* \"Will.sol\":8556:8575  erc721Assets.length */\n      sload\n        /* \"Will.sol\":8552:8575  i < erc721Assets.length */\n      dup2\n      lt\n        /* \"Will.sol\":8535:8736  for (uint i = 0; i < erc721Assets.length; i++) {... */\n      iszero\n      tag_205\n      jumpi\n        /* \"Will.sol\":8597:8621  Erc721Asset memory asset */\n      0x00\n        /* \"Will.sol\":8624:8636  erc721Assets */\n      0x07\n        /* \"Will.sol\":8637:8638  i */\n      dup3\n        /* \"Will.sol\":8624:8639  erc721Assets[i] */\n      dup2\n      sload\n      dup2\n      lt\n      tag_208\n      jumpi\n      tag_208\n      tag_151\n      jump\t// in\n    tag_208:\n      0x00\n      swap2\n      dup3\n      mstore\n      0x20\n      swap2\n      dup3\n      swap1\n      keccak256\n        /* \"Will.sol\":8597:8639  Erc721Asset memory asset = erc721Assets[i] */\n      0x40\n      dup1\n      mload\n      0x60\n      dup2\n      add\n      dup3\n      mstore\n        /* \"Will.sol\":8624:8639  erc721Assets[i] */\n      0x03\n      swap4\n      swap1\n      swap4\n      mul\n      swap1\n      swap2\n      add\n        /* \"Will.sol\":8597:8639  Erc721Asset memory asset = erc721Assets[i] */\n      dup1\n      sload\n      sub(shl(0xa0, 0x01), 0x01)\n      swap1\n      dup2\n      and\n      dup1\n      dup6\n      mstore\n      0x01\n      dup4\n      add\n      sload\n      swap6\n      dup6\n      add\n      dup7\n      swap1\n      mstore\n      0x02\n      swap1\n      swap3\n      add\n      sload\n      and\n      dup4\n      dup4\n      add\n      dup2\n      swap1\n      mstore\n        /* \"Will.sol\":8654:8724  asset.token.safeTransferFrom(address(this), asset.heir, asset.tokenId) */\n      swap2\n      mload\n      shl(0xe1, 0x21421707)\n      dup2\n      mstore\n        /* \"Will.sol\":8691:8695  this */\n      address\n        /* \"Will.sol\":8654:8724  asset.token.safeTransferFrom(address(this), asset.heir, asset.tokenId) */\n      0x04\n      dup3\n      add\n        /* \"#utility.yul\":15496:15530   */\n      mstore\n        /* \"#utility.yul\":15546:15564   */\n      0x24\n      dup2\n      add\n        /* \"#utility.yul\":15539:15582   */\n      swap3\n      swap1\n      swap3\n      mstore\n        /* \"#utility.yul\":15598:15616   */\n      0x44\n      dup3\n      add\n        /* \"#utility.yul\":15591:15625   */\n      swap4\n      swap1\n      swap4\n      mstore\n        /* \"Will.sol\":8597:8639  Erc721Asset memory asset = erc721Assets[i] */\n      swap1\n      swap3\n      pop\n        /* \"Will.sol\":8654:8682  asset.token.safeTransferFrom */\n      0x42842e0e\n      swap1\n        /* \"#utility.yul\":15431:15449   */\n      0x64\n      add\n        /* \"Will.sol\":8654:8724  asset.token.safeTransferFrom(address(this), asset.heir, asset.tokenId) */\n      0x00\n      mload(0x40)\n      dup1\n      dup4\n      sub\n      dup2\n      0x00\n      dup8\n      dup1\n      extcodesize\n      iszero\n      dup1\n      iszero\n      tag_212\n      jumpi\n      0x00\n      dup1\n      revert\n    tag_212:\n      pop\n      gas\n      call\n      iszero\n      dup1\n      iszero\n      tag_214\n      jumpi\n      returndatasize\n      0x00\n      dup1\n      returndatacopy\n      revert(0x00, returndatasize)\n    tag_214:\n      pop\n      pop\n        /* \"Will.sol\":8577:8580  i++ */\n      0x01\n      swap1\n      swap4\n      add\n      swap3\n      pop\n        /* \"Will.sol\":8535:8736  for (uint i = 0; i < erc721Assets.length; i++) {... */\n      tag_204\n      swap2\n      pop\n      pop\n      jump\n    tag_205:\n      pop\n        /* \"Will.sol\":8751:8798  Executed(msg.sender, totalEthFee, feeRecipient) */\n      0x40\n      dup1\n      mload\n        /* \"Will.sol\":8760:8770  msg.sender */\n      caller\n        /* \"#utility.yul\":10749:10783   */\n      dup2\n      mstore\n        /* \"#utility.yul\":10814:10816   */\n      0x20\n        /* \"#utility.yul\":10799:10817   */\n      dup2\n      add\n        /* \"#utility.yul\":10792:10826   */\n      dup5\n      swap1\n      mstore\n      sub(shl(0xa0, 0x01), 0x01)\n        /* \"#utility.yul\":10862:10877   */\n      dup6\n      and\n        /* \"#utility.yul\":10842:10860   */\n      dup2\n      dup4\n      add\n        /* \"#utility.yul\":10835:10878   */\n      mstore\n        /* \"Will.sol\":8751:8798  Executed(msg.sender, totalEthFee, feeRecipient) */\n      swap1\n      mload\n      0x52ba16c8b985eff690a9de92094bd7486f89340e06e385ffb26de9c6eea384dc\n      swap2\n      dup2\n      swap1\n      sub\n        /* \"#utility.yul\":10699:10701   */\n      0x60\n        /* \"Will.sol\":8751:8798  Executed(msg.sender, totalEthFee, feeRecipient) */\n      add\n      swap1\n      log1\n      pop\n      pop\n        /* \"Will.sol\":361:362  1 */\n      0x01\n        /* \"Will.sol\":595:617  _status = _NOT_ENTERED */\n      dup1\n      sstore\n      pop\n      pop\n      pop\n      pop\n      pop\n        /* \"Will.sol\":6645:8806  function execute() external nonReentrant canExecute {... */\n      jump\t// out\n        /* \"Will.sol\":5365:6602  function cancelAndWithdraw() external onlyOwnerWhenActive nonReentrant {... */\n    tag_49:\n        /* \"Will.sol\":2825:2833  executed */\n      and(0xff, sload(0x02))\n        /* \"Will.sol\":2824:2833  !executed */\n      iszero\n        /* \"Will.sol\":2816:2874  require(!executed, \"Will has been executed or cancelled.\") */\n      tag_218\n      jumpi\n      mload(0x40)\n      shl(0xe5, 0x461bcd)\n      dup2\n      mstore\n      0x04\n      add\n      tag_101\n      swap1\n      tag_102\n      jump\t// in\n    tag_218:\n        /* \"Will.sol\":2904:2914  msg.sender */\n      caller\n        /* \"Will.sol\":2893:2900  owner() */\n      tag_220\n        /* \"@openzeppelin/contracts/access/Ownable.sol\":1684:1691  address */\n      0x00\n        /* \"@openzeppelin/contracts/access/Ownable.sol\":1710:1716  _owner */\n      sload\n      sub(shl(0xa0, 0x01), 0x01)\n      and\n      swap1\n        /* \"@openzeppelin/contracts/access/Ownable.sol\":1638:1723  function owner() public view virtual returns (address) {... */\n      jump\n        /* \"Will.sol\":2893:2900  owner() */\n    tag_220:\n      sub(shl(0xa0, 0x01), 0x01)\n        /* \"Will.sol\":2893:2914  owner() == msg.sender */\n      and\n      eq\n        /* \"Will.sol\":2885:2957  require(owner() == msg.sender, \"Only the owner can call this function.\") */\n      tag_221\n      jumpi\n      mload(0x40)\n      shl(0xe5, 0x461bcd)\n      dup2\n      mstore\n      0x04\n      add\n      tag_101\n      swap1\n      tag_106\n      jump\t// in\n    tag_221:\n        /* \"Will.sol\":525:543  _preReentryCheck() */\n      tag_224\n        /* \"Will.sol\":525:541  _preReentryCheck */\n      tag_111\n        /* \"Will.sol\":525:543  _preReentryCheck() */\n      jump\t// in\n    tag_224:\n        /* \"Will.sol\":405:406  2 */\n      0x02\n        /* \"Will.sol\":554:561  _status */\n      0x01\n        /* \"Will.sol\":554:572  _status = _ENTERED */\n      dup2\n      dup2\n      sstore\n        /* \"Will.sol\":5447:5462  executed = true */\n      dup2\n      sload\n      not(0xff)\n      and\n      or\n      swap1\n      sstore\n      0x00\n        /* \"@openzeppelin/contracts/access/Ownable.sol\":1710:1716  _owner */\n      sload\n      sub(shl(0xa0, 0x01), 0x01)\n      and\n        /* \"Will.sol\":5532:5546  terminationFee */\n      immutable(\"0xacd088948164483a37f73989f1c27b47a5586ebd1d004d9f6dfdcef17082f275\")\n        /* \"Will.sol\":5532:5550  terminationFee > 0 */\n      iszero\n        /* \"Will.sol\":5528:5815  if (terminationFee > 0) {... */\n      tag_227\n      jumpi\n        /* \"Will.sol\":5600:5614  terminationFee */\n      immutable(\"0xacd088948164483a37f73989f1c27b47a5586ebd1d004d9f6dfdcef17082f275\")\n        /* \"Will.sol\":5575:5596  address(this).balance */\n      selfbalance\n        /* \"Will.sol\":5575:5614  address(this).balance >= terminationFee */\n      lt\n      iszero\n        /* \"Will.sol\":5567:5656  require(address(this).balance >= terminationFee, \"Insufficient ETH for termination fee.\") */\n      tag_228\n      jumpi\n      mload(0x40)\n      shl(0xe5, 0x461bcd)\n      dup2\n      mstore\n        /* \"#utility.yul\":16218:16220   */\n      0x20\n        /* \"Will.sol\":5567:5656  require(address(this).balance >= terminationFee, \"Insufficient ETH for termination fee.\") */\n      0x04\n      dup3\n      add\n        /* \"#utility.yul\":16200:16221   */\n      mstore\n        /* \"#utility.yul\":16257:16259   */\n      0x25\n        /* \"#utility.yul\":16237:16255   */\n      0x24\n      dup3\n      add\n        /* \"#utility.yul\":16230:16260   */\n      mstore\n        /* \"#utility.yul\":16296:16330   */\n      0x496e73756666696369656e742045544820666f72207465726d696e6174696f6e\n        /* \"#utility.yul\":16276:16294   */\n      0x44\n      dup3\n      add\n        /* \"#utility.yul\":16269:16331   */\n      mstore\n      shl(0xd9, 0x103332b297)\n        /* \"#utility.yul\":16347:16365   */\n      0x64\n      dup3\n      add\n        /* \"#utility.yul\":16340:16375   */\n      mstore\n        /* \"#utility.yul\":16392:16411   */\n      0x84\n      add\n        /* \"Will.sol\":5567:5656  require(address(this).balance >= terminationFee, \"Insufficient ETH for termination fee.\") */\n      tag_101\n        /* \"#utility.yul\":16016:16417   */\n      jump\n        /* \"Will.sol\":5567:5656  require(address(this).balance >= terminationFee, \"Insufficient ETH for termination fee.\") */\n    tag_228:\n        /* \"Will.sol\":5672:5684  bool success */\n      0x00\n        /* \"Will.sol\":5690:5704  sourceContract */\n      immutable(\"0x8e831a88d8106460d1544aa376ec6155091b50c6145ad03273db7938ca17c5b1\")\n      sub(shl(0xa0, 0x01), 0x01)\n        /* \"Will.sol\":5690:5709  sourceContract.call */\n      and\n        /* \"Will.sol\":5717:5731  terminationFee */\n      immutable(\"0xacd088948164483a37f73989f1c27b47a5586ebd1d004d9f6dfdcef17082f275\")\n        /* \"Will.sol\":5690:5736  sourceContract.call{value: terminationFee}(\"\") */\n      mload(0x40)\n      0x00\n      mload(0x40)\n      dup1\n      dup4\n      sub\n      dup2\n      dup6\n      dup8\n      gas\n      call\n      swap3\n      pop\n      pop\n      pop\n      returndatasize\n      dup1\n      0x00\n      dup2\n      eq\n      tag_234\n      jumpi\n      mload(0x40)\n      swap2\n      pop\n      and(add(returndatasize, 0x3f), not(0x1f))\n      dup3\n      add\n      0x40\n      mstore\n      returndatasize\n      dup3\n      mstore\n      returndatasize\n      0x00\n      0x20\n      dup5\n      add\n      returndatacopy\n      jump(tag_233)\n    tag_234:\n      0x60\n      swap2\n      pop\n    tag_233:\n      pop\n        /* \"Will.sol\":5671:5736  (bool success, ) = sourceContract.call{value: terminationFee}(\"\") */\n      pop\n      swap1\n      pop\n        /* \"Will.sol\":5759:5766  success */\n      dup1\n        /* \"Will.sol\":5751:5803  require(success, \"Termination fee transfer failed.\") */\n      tag_235\n      jumpi\n      mload(0x40)\n      shl(0xe5, 0x461bcd)\n      dup2\n      mstore\n        /* \"#utility.yul\":16624:16626   */\n      0x20\n        /* \"Will.sol\":5751:5803  require(success, \"Termination fee transfer failed.\") */\n      0x04\n      dup3\n      add\n        /* \"#utility.yul\":16606:16627   */\n      dup2\n      swap1\n      mstore\n        /* \"#utility.yul\":16643:16661   */\n      0x24\n      dup3\n      add\n        /* \"#utility.yul\":16636:16666   */\n      mstore\n        /* \"#utility.yul\":16702:16736   */\n      0x5465726d696e6174696f6e20666565207472616e73666572206661696c65642e\n        /* \"#utility.yul\":16682:16700   */\n      0x44\n      dup3\n      add\n        /* \"#utility.yul\":16675:16737   */\n      mstore\n        /* \"#utility.yul\":16754:16772   */\n      0x64\n      add\n        /* \"Will.sol\":5751:5803  require(success, \"Termination fee transfer failed.\") */\n      tag_101\n        /* \"#utility.yul\":16422:16778   */\n      jump\n        /* \"Will.sol\":5751:5803  require(success, \"Termination fee transfer failed.\") */\n    tag_235:\n        /* \"Will.sol\":5552:5815  {... */\n      pop\n        /* \"Will.sol\":5528:5815  if (terminationFee > 0) {... */\n    tag_227:\n        /* \"Will.sol\":5825:5872  ISource(sourceContract).clearWillRecord(_owner) */\n      mload(0x40)\n      shl(0xe0, 0xa658dd6b)\n      dup2\n      mstore\n      sub(shl(0xa0, 0x01), 0x01)\n        /* \"#utility.yul\":472:504   */\n      dup3\n      dup2\n      and\n        /* \"Will.sol\":5825:5872  ISource(sourceContract).clearWillRecord(_owner) */\n      0x04\n      dup4\n      add\n        /* \"#utility.yul\":454:505   */\n      mstore\n        /* \"Will.sol\":5833:5847  sourceContract */\n      immutable(\"0x8e831a88d8106460d1544aa376ec6155091b50c6145ad03273db7938ca17c5b1\")\n        /* \"Will.sol\":5825:5864  ISource(sourceContract).clearWillRecord */\n      and\n      swap1\n      0xa658dd6b\n      swap1\n        /* \"#utility.yul\":427:445   */\n      0x24\n      add\n        /* \"Will.sol\":5825:5872  ISource(sourceContract).clearWillRecord(_owner) */\n      0x00\n      mload(0x40)\n      dup1\n      dup4\n      sub\n      dup2\n      0x00\n      dup8\n      dup1\n      extcodesize\n      iszero\n      dup1\n      iszero\n      tag_240\n      jumpi\n      0x00\n      dup1\n      revert\n    tag_240:\n      pop\n      gas\n      call\n      iszero\n      dup1\n      iszero\n      tag_242\n      jumpi\n      returndatasize\n      0x00\n      dup1\n      returndatacopy\n      revert(0x00, returndatasize)\n    tag_242:\n      pop\n      pop\n      pop\n      pop\n        /* \"Will.sol\":5890:5896  uint i */\n      0x00\n        /* \"Will.sol\":5885:6123  for (uint i = 0; i < erc20Assets.length; i++) {... */\n    tag_243:\n        /* \"Will.sol\":5906:5917  erc20Assets */\n      0x06\n        /* \"Will.sol\":5906:5924  erc20Assets.length */\n      sload\n        /* \"Will.sol\":5902:5924  i < erc20Assets.length */\n      dup2\n      lt\n        /* \"Will.sol\":5885:6123  for (uint i = 0; i < erc20Assets.length; i++) {... */\n      iszero\n      tag_244\n      jumpi\n        /* \"Will.sol\":5946:5958  IERC20 token */\n      0x00\n        /* \"Will.sol\":5961:5972  erc20Assets */\n      0x06\n        /* \"Will.sol\":5973:5974  i */\n      dup3\n        /* \"Will.sol\":5961:5975  erc20Assets[i] */\n      dup2\n      sload\n      dup2\n      lt\n      tag_247\n      jumpi\n      tag_247\n      tag_151\n      jump\t// in\n    tag_247:\n      0x00\n      swap2\n      dup3\n      mstore\n      0x20\n      dup3\n      keccak256\n      add\n        /* \"Will.sol\":5961:5981  erc20Assets[i].token */\n      sload\n        /* \"Will.sol\":6014:6044  token.balanceOf(address(this)) */\n      mload(0x40)\n      shl(0xe0, 0x70a08231)\n      dup2\n      mstore\n        /* \"Will.sol\":6038:6042  this */\n      address\n        /* \"Will.sol\":6014:6044  token.balanceOf(address(this)) */\n      0x04\n      dup3\n      add\n        /* \"#utility.yul\":454:505   */\n      mstore\n      sub(shl(0xa0, 0x01), 0x01)\n        /* \"Will.sol\":5961:5981  erc20Assets[i].token */\n      swap1\n      swap2\n      and\n      swap3\n      pop\n      dup3\n      swap1\n        /* \"Will.sol\":6014:6029  token.balanceOf */\n      0x70a08231\n      swap1\n        /* \"#utility.yul\":427:445   */\n      0x24\n      add\n        /* \"Will.sol\":6014:6044  token.balanceOf(address(this)) */\n      0x20\n      mload(0x40)\n      dup1\n      dup4\n      sub\n      dup2\n      dup7\n      gas\n      staticcall\n      iszero\n      dup1\n      iszero\n      tag_251\n      jumpi\n      returndatasize\n      0x00\n      dup1\n      returndatacopy\n      revert(0x00, returndatasize)\n    tag_251:\n      pop\n      pop\n      pop\n      pop\n      mload(0x40)\n      returndatasize\n      not(0x1f)\n      0x1f\n      dup3\n      add\n      and\n      dup3\n      add\n      dup1\n      0x40\n      mstore\n      pop\n      dup2\n      add\n      swap1\n      tag_252\n      swap2\n      swap1\n      tag_176\n      jump\t// in\n    tag_252:\n        /* \"Will.sol\":5996:6044  uint256 balance = token.balanceOf(address(this)) */\n      swap1\n      pop\n        /* \"Will.sol\":6063:6074  balance > 0 */\n      dup1\n      iszero\n        /* \"Will.sol\":6059:6112  if (balance > 0) { token.transfer(_owner, balance); } */\n      tag_253\n      jumpi\n        /* \"Will.sol\":6078:6109  token.transfer(_owner, balance) */\n      mload(0x40)\n      shl(0xe0, 0xa9059cbb)\n      dup2\n      mstore\n      sub(shl(0xa0, 0x01), 0x01)\n        /* \"#utility.yul\":14887:14919   */\n      dup6\n      dup2\n      and\n        /* \"Will.sol\":6078:6109  token.transfer(_owner, balance) */\n      0x04\n      dup4\n      add\n        /* \"#utility.yul\":14869:14920   */\n      mstore\n        /* \"#utility.yul\":14936:14954   */\n      0x24\n      dup3\n      add\n        /* \"#utility.yul\":14929:14963   */\n      dup4\n      swap1\n      mstore\n        /* \"Will.sol\":6078:6092  token.transfer */\n      dup4\n      and\n      swap1\n      0xa9059cbb\n      swap1\n        /* \"#utility.yul\":14842:14860   */\n      0x44\n      add\n        /* \"Will.sol\":6078:6109  token.transfer(_owner, balance) */\n      0x20\n      mload(0x40)\n      dup1\n      dup4\n      sub\n      dup2\n      0x00\n      dup8\n      gas\n      call\n      iszero\n      dup1\n      iszero\n      tag_257\n      jumpi\n      returndatasize\n      0x00\n      dup1\n      returndatacopy\n      revert(0x00, returndatasize)\n    tag_257:\n      pop\n      pop\n      pop\n      pop\n      mload(0x40)\n      returndatasize\n      not(0x1f)\n      0x1f\n      dup3\n      add\n      and\n      dup3\n      add\n      dup1\n      0x40\n      mstore\n      pop\n      dup2\n      add\n      swap1\n      tag_258\n      swap2\n      swap1\n      tag_187\n      jump\t// in\n    tag_258:\n      pop\n        /* \"Will.sol\":6059:6112  if (balance > 0) { token.transfer(_owner, balance); } */\n    tag_253:\n      pop\n      pop\n        /* \"Will.sol\":5926:5929  i++ */\n      0x01\n      add\n        /* \"Will.sol\":5885:6123  for (uint i = 0; i < erc20Assets.length; i++) {... */\n      jump(tag_243)\n    tag_244:\n      pop\n        /* \"Will.sol\":6138:6144  uint i */\n      0x00\n        /* \"Will.sol\":6133:6330  for (uint i = 0; i < erc721Assets.length; i++) {... */\n    tag_259:\n        /* \"Will.sol\":6154:6166  erc721Assets */\n      0x07\n        /* \"Will.sol\":6154:6173  erc721Assets.length */\n      sload\n        /* \"Will.sol\":6150:6173  i < erc721Assets.length */\n      dup2\n      lt\n        /* \"Will.sol\":6133:6330  for (uint i = 0; i < erc721Assets.length; i++) {... */\n      iszero\n      tag_260\n      jumpi\n        /* \"Will.sol\":6195:6219  Erc721Asset memory asset */\n      0x00\n        /* \"Will.sol\":6222:6234  erc721Assets */\n      0x07\n        /* \"Will.sol\":6235:6236  i */\n      dup3\n        /* \"Will.sol\":6222:6237  erc721Assets[i] */\n      dup2\n      sload\n      dup2\n      lt\n      tag_263\n      jumpi\n      tag_263\n      tag_151\n      jump\t// in\n    tag_263:\n      0x00\n      swap2\n      dup3\n      mstore\n      0x20\n      swap2\n      dup3\n      swap1\n      keccak256\n        /* \"Will.sol\":6195:6237  Erc721Asset memory asset = erc721Assets[i] */\n      0x40\n      dup1\n      mload\n      0x60\n      dup2\n      add\n      dup3\n      mstore\n        /* \"Will.sol\":6222:6237  erc721Assets[i] */\n      0x03\n      swap4\n      swap1\n      swap4\n      mul\n      swap1\n      swap2\n      add\n        /* \"Will.sol\":6195:6237  Erc721Asset memory asset = erc721Assets[i] */\n      dup1\n      sload\n      sub(shl(0xa0, 0x01), 0x01)\n      swap1\n      dup2\n      and\n      dup1\n      dup6\n      mstore\n      0x01\n      dup4\n      add\n      sload\n      swap6\n      dup6\n      add\n      dup7\n      swap1\n      mstore\n      0x02\n      swap1\n      swap3\n      add\n      sload\n      dup2\n      and\n      dup5\n      dup5\n      add\n      mstore\n        /* \"Will.sol\":6252:6318  asset.token.safeTransferFrom(address(this), _owner, asset.tokenId) */\n      swap2\n      mload\n      shl(0xe1, 0x21421707)\n      dup2\n      mstore\n        /* \"Will.sol\":6289:6293  this */\n      address\n        /* \"Will.sol\":6252:6318  asset.token.safeTransferFrom(address(this), _owner, asset.tokenId) */\n      0x04\n      dup3\n      add\n        /* \"#utility.yul\":15496:15530   */\n      mstore\n        /* \"#utility.yul\":15566:15581   */\n      swap2\n      dup8\n      and\n        /* \"#utility.yul\":15546:15564   */\n      0x24\n      dup4\n      add\n        /* \"#utility.yul\":15539:15582   */\n      mstore\n        /* \"#utility.yul\":15598:15616   */\n      0x44\n      dup3\n      add\n        /* \"#utility.yul\":15591:15625   */\n      swap4\n      swap1\n      swap4\n      mstore\n        /* \"Will.sol\":6195:6237  Erc721Asset memory asset = erc721Assets[i] */\n      swap1\n      swap3\n      pop\n        /* \"Will.sol\":6252:6280  asset.token.safeTransferFrom */\n      0x42842e0e\n      swap1\n        /* \"#utility.yul\":15431:15449   */\n      0x64\n      add\n        /* \"Will.sol\":6252:6318  asset.token.safeTransferFrom(address(this), _owner, asset.tokenId) */\n      0x00\n      mload(0x40)\n      dup1\n      dup4\n      sub\n      dup2\n      0x00\n      dup8\n      dup1\n      extcodesize\n      iszero\n      dup1\n      iszero\n      tag_267\n      jumpi\n      0x00\n      dup1\n      revert\n    tag_267:\n      pop\n      gas\n      call\n      iszero\n      dup1\n      iszero\n      tag_269\n      jumpi\n      returndatasize\n      0x00\n      dup1\n      returndatacopy\n      revert(0x00, returndatasize)\n    tag_269:\n      pop\n      pop\n        /* \"Will.sol\":6175:6178  i++ */\n      0x01\n      swap1\n      swap4\n      add\n      swap3\n      pop\n        /* \"Will.sol\":6133:6330  for (uint i = 0; i < erc721Assets.length; i++) {... */\n      tag_259\n      swap2\n      pop\n      pop\n      jump\n    tag_260:\n      pop\n        /* \"Will.sol\":6363:6384  address(this).balance */\n      selfbalance\n        /* \"Will.sol\":6399:6415  remainingEth > 0 */\n      dup1\n      iszero\n        /* \"Will.sol\":6395:6554  if (remainingEth > 0) {... */\n      tag_270\n      jumpi\n        /* \"Will.sol\":6433:6445  bool success */\n      0x00\n        /* \"Will.sol\":6451:6457  _owner */\n      dup3\n      sub(shl(0xa0, 0x01), 0x01)\n        /* \"Will.sol\":6451:6462  _owner.call */\n      and\n        /* \"Will.sol\":6470:6482  remainingEth */\n      dup3\n        /* \"Will.sol\":6451:6487  _owner.call{value: remainingEth}(\"\") */\n      mload(0x40)\n      0x00\n      mload(0x40)\n      dup1\n      dup4\n      sub\n      dup2\n      dup6\n      dup8\n      gas\n      call\n      swap3\n      pop\n      pop\n      pop\n      returndatasize\n      dup1\n      0x00\n      dup2\n      eq\n      tag_274\n      jumpi\n      mload(0x40)\n      swap2\n      pop\n      and(add(returndatasize, 0x3f), not(0x1f))\n      dup3\n      add\n      0x40\n      mstore\n      returndatasize\n      dup3\n      mstore\n      returndatasize\n      0x00\n      0x20\n      dup5\n      add\n      returndatacopy\n      jump(tag_273)\n    tag_274:\n      0x60\n      swap2\n      pop\n    tag_273:\n      pop\n        /* \"Will.sol\":6432:6487  (bool success, ) = _owner.call{value: remainingEth}(\"\") */\n      pop\n      swap1\n      pop\n        /* \"Will.sol\":6510:6517  success */\n      dup1\n        /* \"Will.sol\":6502:6542  require(success, \"ETH transfer failed.\") */\n      tag_275\n      jumpi\n      mload(0x40)\n      shl(0xe5, 0x461bcd)\n      dup2\n      mstore\n        /* \"#utility.yul\":17876:17878   */\n      0x20\n        /* \"Will.sol\":6502:6542  require(success, \"ETH transfer failed.\") */\n      0x04\n      dup3\n      add\n        /* \"#utility.yul\":17858:17879   */\n      mstore\n        /* \"#utility.yul\":17915:17917   */\n      0x14\n        /* \"#utility.yul\":17895:17913   */\n      0x24\n      dup3\n      add\n        /* \"#utility.yul\":17888:17918   */\n      mstore\n      shl(0x61, 0x22aa24103a3930b739b332b9103330b4b632b217)\n        /* \"#utility.yul\":17934:17952   */\n      0x44\n      dup3\n      add\n        /* \"#utility.yul\":17927:17977   */\n      mstore\n        /* \"#utility.yul\":17994:18012   */\n      0x64\n      add\n        /* \"Will.sol\":6502:6542  require(success, \"ETH transfer failed.\") */\n      tag_101\n        /* \"#utility.yul\":17674:18018   */\n      jump\n        /* \"Will.sol\":6502:6542  require(success, \"ETH transfer failed.\") */\n    tag_275:\n        /* \"Will.sol\":6417:6554  {... */\n      pop\n        /* \"Will.sol\":6395:6554  if (remainingEth > 0) {... */\n    tag_270:\n        /* \"Will.sol\":6569:6594  Cancelled(terminationFee) */\n      mload(0x40)\n        /* \"Will.sol\":6579:6593  terminationFee */\n      immutable(\"0xacd088948164483a37f73989f1c27b47a5586ebd1d004d9f6dfdcef17082f275\")\n        /* \"#utility.yul\":662:687   */\n      dup2\n      mstore\n        /* \"Will.sol\":6569:6594  Cancelled(terminationFee) */\n      0xc41d93b8bfbf9fd7cf5bfe271fd649ab6a6fec0ea101c23b82a2a28eca2533a9\n      swap1\n        /* \"#utility.yul\":650:652   */\n      0x20\n        /* \"#utility.yul\":635:653   */\n      add\n        /* \"Will.sol\":6569:6594  Cancelled(terminationFee) */\n      mload(0x40)\n      dup1\n      swap2\n      sub\n      swap1\n      log1\n      pop\n      pop\n        /* \"Will.sol\":361:362  1 */\n      0x01\n        /* \"Will.sol\":595:617  _status = _NOT_ENTERED */\n      dup1\n      sstore\n        /* \"Will.sol\":5365:6602  function cancelAndWithdraw() external onlyOwnerWhenActive nonReentrant {... */\n      jump\t// out\n        /* \"@openzeppelin/contracts/access/Ownable.sol\":2293:2394  function renounceOwnership() public virtual onlyOwner {... */\n    tag_54:\n        /* \"@openzeppelin/contracts/access/Ownable.sol\":1531:1544  _checkOwner() */\n      tag_281\n        /* \"@openzeppelin/contracts/access/Ownable.sol\":1531:1542  _checkOwner */\n      tag_282\n        /* \"@openzeppelin/contracts/access/Ownable.sol\":1531:1544  _checkOwner() */\n      jump\t// in\n    tag_281:\n        /* \"@openzeppelin/contracts/access/Ownable.sol\":2357:2387  _transferOwnership(address(0)) */\n      tag_284\n        /* \"@openzeppelin/contracts/access/Ownable.sol\":2384:2385  0 */\n      0x00\n        /* \"@openzeppelin/contracts/access/Ownable.sol\":2357:2375  _transferOwnership */\n      tag_285\n        /* \"@openzeppelin/contracts/access/Ownable.sol\":2357:2387  _transferOwnership(address(0)) */\n      jump\t// in\n    tag_284:\n        /* \"@openzeppelin/contracts/access/Ownable.sol\":2293:2394  function renounceOwnership() public virtual onlyOwner {... */\n      jump\t// out\n        /* \"Will.sol\":2455:2486  Erc20Asset[] public erc20Assets */\n    tag_60:\n      0x06\n      dup2\n      dup2\n      sload\n      dup2\n      lt\n      tag_95\n      jumpi\n      0x00\n      dup1\n      revert\n        /* \"Will.sol\":3936:5195  function initialize(... */\n    tag_72:\n        /* \"Will.sol\":4147:4159  _initialized */\n      and(0xff, sload(0x08))\n        /* \"Will.sol\":4146:4159  !_initialized */\n      iszero\n        /* \"Will.sol\":4138:4189  require(!_initialized, \"Will: already initialized\") */\n      tag_290\n      jumpi\n      mload(0x40)\n      shl(0xe5, 0x461bcd)\n      dup2\n      mstore\n        /* \"#utility.yul\":18225:18227   */\n      0x20\n        /* \"Will.sol\":4138:4189  require(!_initialized, \"Will: already initialized\") */\n      0x04\n      dup3\n      add\n        /* \"#utility.yul\":18207:18228   */\n      mstore\n        /* \"#utility.yul\":18264:18266   */\n      0x19\n        /* \"#utility.yul\":18244:18262   */\n      0x24\n      dup3\n      add\n        /* \"#utility.yul\":18237:18267   */\n      mstore\n        /* \"#utility.yul\":18303:18330   */\n      0x57696c6c3a20616c726561647920696e697469616c697a656400000000000000\n        /* \"#utility.yul\":18283:18301   */\n      0x44\n      dup3\n      add\n        /* \"#utility.yul\":18276:18331   */\n      mstore\n        /* \"#utility.yul\":18348:18366   */\n      0x64\n      add\n        /* \"Will.sol\":4138:4189  require(!_initialized, \"Will: already initialized\") */\n      tag_101\n        /* \"#utility.yul\":18023:18372   */\n      jump\n        /* \"Will.sol\":4138:4189  require(!_initialized, \"Will: already initialized\") */\n    tag_290:\n        /* \"Will.sol\":4208:4218  msg.sender */\n      caller\n      sub(shl(0xa0, 0x01), 0x01)\n        /* \"Will.sol\":4222:4236  sourceContract */\n      immutable(\"0x8e831a88d8106460d1544aa376ec6155091b50c6145ad03273db7938ca17c5b1\")\n        /* \"Will.sol\":4208:4236  msg.sender == sourceContract */\n      and\n      eq\n        /* \"Will.sol\":4200:4268  require(msg.sender == sourceContract, \"Will: not called by factory\") */\n      tag_293\n      jumpi\n      mload(0x40)\n      shl(0xe5, 0x461bcd)\n      dup2\n      mstore\n        /* \"#utility.yul\":18579:18581   */\n      0x20\n        /* \"Will.sol\":4200:4268  require(msg.sender == sourceContract, \"Will: not called by factory\") */\n      0x04\n      dup3\n      add\n        /* \"#utility.yul\":18561:18582   */\n      mstore\n        /* \"#utility.yul\":18618:18620   */\n      0x1b\n        /* \"#utility.yul\":18598:18616   */\n      0x24\n      dup3\n      add\n        /* \"#utility.yul\":18591:18621   */\n      mstore\n        /* \"#utility.yul\":18657:18686   */\n      0x57696c6c3a206e6f742063616c6c656420627920666163746f72790000000000\n        /* \"#utility.yul\":18637:18655   */\n      0x44\n      dup3\n      add\n        /* \"#utility.yul\":18630:18687   */\n      mstore\n        /* \"#utility.yul\":18704:18722   */\n      0x64\n      add\n        /* \"Will.sol\":4200:4268  require(msg.sender == sourceContract, \"Will: not called by factory\") */\n      tag_101\n        /* \"#utility.yul\":18377:18728   */\n      jump\n        /* \"Will.sol\":4200:4268  require(msg.sender == sourceContract, \"Will: not called by factory\") */\n    tag_293:\n        /* \"Will.sol\":4279:4291  _initialized */\n      0x08\n        /* \"Will.sol\":4279:4298  _initialized = true */\n      dup1\n      sload\n      not(0xff)\n      and\n        /* \"Will.sol\":4294:4298  true */\n      0x01\n        /* \"Will.sol\":4279:4298  _initialized = true */\n      or\n      swap1\n      sstore\n        /* \"Will.sol\":4336:4350  _distro.length */\n      dup3\n      mload\n        /* \"Will.sol\":4319:4332  _heirs.length */\n      dup5\n      mload\n        /* \"Will.sol\":4319:4350  _heirs.length == _distro.length */\n      eq\n        /* \"Will.sol\":4311:4395  require(_heirs.length == _distro.length, \"Heirs and distributions length mismatch.\") */\n      tag_296\n      jumpi\n      mload(0x40)\n      shl(0xe5, 0x461bcd)\n      dup2\n      mstore\n        /* \"#utility.yul\":18935:18937   */\n      0x20\n        /* \"Will.sol\":4311:4395  require(_heirs.length == _distro.length, \"Heirs and distributions length mismatch.\") */\n      0x04\n      dup3\n      add\n        /* \"#utility.yul\":18917:18938   */\n      mstore\n        /* \"#utility.yul\":18974:18976   */\n      0x28\n        /* \"#utility.yul\":18954:18972   */\n      0x24\n      dup3\n      add\n        /* \"#utility.yul\":18947:18977   */\n      mstore\n        /* \"#utility.yul\":19013:19047   */\n      0x486569727320616e6420646973747269627574696f6e73206c656e677468206d\n        /* \"#utility.yul\":18993:19011   */\n      0x44\n      dup3\n      add\n        /* \"#utility.yul\":18986:19048   */\n      mstore\n      shl(0xc1, 0x34b9b6b0ba31b417)\n        /* \"#utility.yul\":19064:19082   */\n      0x64\n      dup3\n      add\n        /* \"#utility.yul\":19057:19095   */\n      mstore\n        /* \"#utility.yul\":19112:19131   */\n      0x84\n      add\n        /* \"Will.sol\":4311:4395  require(_heirs.length == _distro.length, \"Heirs and distributions length mismatch.\") */\n      tag_101\n        /* \"#utility.yul\":18733:19137   */\n      jump\n        /* \"Will.sol\":4311:4395  require(_heirs.length == _distro.length, \"Heirs and distributions length mismatch.\") */\n    tag_296:\n        /* \"Will.sol\":4430:4431  0 */\n      0x00\n        /* \"Will.sol\":4414:4420  _heirs */\n      dup5\n        /* \"Will.sol\":4414:4427  _heirs.length */\n      mload\n        /* \"Will.sol\":4414:4431  _heirs.length > 0 */\n      gt\n        /* \"Will.sol\":4406:4458  require(_heirs.length > 0, \"Heirs cannot be empty.\") */\n      tag_299\n      jumpi\n      mload(0x40)\n      shl(0xe5, 0x461bcd)\n      dup2\n      mstore\n        /* \"#utility.yul\":19344:19346   */\n      0x20\n        /* \"Will.sol\":4406:4458  require(_heirs.length > 0, \"Heirs cannot be empty.\") */\n      0x04\n      dup3\n      add\n        /* \"#utility.yul\":19326:19347   */\n      mstore\n        /* \"#utility.yul\":19383:19385   */\n      0x16\n        /* \"#utility.yul\":19363:19381   */\n      0x24\n      dup3\n      add\n        /* \"#utility.yul\":19356:19386   */\n      mstore\n      shl(0x51, 0x2432b4b9399031b0b73737ba1031329032b6b83a3c97)\n        /* \"#utility.yul\":19402:19420   */\n      0x44\n      dup3\n      add\n        /* \"#utility.yul\":19395:19447   */\n      mstore\n        /* \"#utility.yul\":19464:19482   */\n      0x64\n      add\n        /* \"Will.sol\":4406:4458  require(_heirs.length > 0, \"Heirs cannot be empty.\") */\n      tag_101\n        /* \"#utility.yul\":19142:19488   */\n      jump\n        /* \"Will.sol\":4406:4458  require(_heirs.length > 0, \"Heirs cannot be empty.\") */\n    tag_299:\n        /* \"Will.sol\":4471:4494  uint256 totalPercentage */\n      0x00\n        /* \"Will.sol\":4514:4523  uint256 i */\n      dup1\n        /* \"Will.sol\":4509:4610  for (uint256 i = 0; i < _distro.length; i++) {... */\n    tag_302:\n        /* \"Will.sol\":4533:4540  _distro */\n      dup5\n        /* \"Will.sol\":4533:4547  _distro.length */\n      mload\n        /* \"Will.sol\":4529:4530  i */\n      dup2\n        /* \"Will.sol\":4529:4547  i < _distro.length */\n      lt\n        /* \"Will.sol\":4509:4610  for (uint256 i = 0; i < _distro.length; i++) {... */\n      iszero\n      tag_303\n      jumpi\n        /* \"Will.sol\":4588:4595  _distro */\n      dup5\n        /* \"Will.sol\":4596:4597  i */\n      dup2\n        /* \"Will.sol\":4588:4598  _distro[i] */\n      dup2\n      mload\n      dup2\n      lt\n      tag_306\n      jumpi\n      tag_306\n      tag_151\n      jump\t// in\n    tag_306:\n      0x20\n      mul\n      0x20\n      add\n      add\n      mload\n        /* \"Will.sol\":4569:4598  totalPercentage += _distro[i] */\n      dup3\n      tag_307\n      swap2\n      swap1\n      tag_116\n      jump\t// in\n    tag_307:\n      swap2\n      pop\n        /* \"Will.sol\":4549:4552  i++ */\n      0x01\n      add\n        /* \"Will.sol\":4509:4610  for (uint256 i = 0; i < _distro.length; i++) {... */\n      jump(tag_302)\n    tag_303:\n      pop\n        /* \"Will.sol\":4628:4643  totalPercentage */\n      dup1\n        /* \"Will.sol\":4647:4650  100 */\n      0x64\n        /* \"Will.sol\":4628:4650  totalPercentage == 100 */\n      eq\n        /* \"Will.sol\":4620:4696  require(totalPercentage == 100, \"Distribution percentages must sum to 100.\") */\n      tag_308\n      jumpi\n      mload(0x40)\n      shl(0xe5, 0x461bcd)\n      dup2\n      mstore\n        /* \"#utility.yul\":19695:19697   */\n      0x20\n        /* \"Will.sol\":4620:4696  require(totalPercentage == 100, \"Distribution percentages must sum to 100.\") */\n      0x04\n      dup3\n      add\n        /* \"#utility.yul\":19677:19698   */\n      mstore\n        /* \"#utility.yul\":19734:19736   */\n      0x29\n        /* \"#utility.yul\":19714:19732   */\n      0x24\n      dup3\n      add\n        /* \"#utility.yul\":19707:19737   */\n      mstore\n        /* \"#utility.yul\":19773:19807   */\n      0x446973747269627574696f6e2070657263656e7461676573206d757374207375\n        /* \"#utility.yul\":19753:19771   */\n      0x44\n      dup3\n      add\n        /* \"#utility.yul\":19746:19808   */\n      mstore\n      shl(0xb9, 0x36903a379018981817)\n        /* \"#utility.yul\":19824:19842   */\n      0x64\n      dup3\n      add\n        /* \"#utility.yul\":19817:19856   */\n      mstore\n        /* \"#utility.yul\":19873:19892   */\n      0x84\n      add\n        /* \"Will.sol\":4620:4696  require(totalPercentage == 100, \"Distribution percentages must sum to 100.\") */\n      tag_101\n        /* \"#utility.yul\":19493:19898   */\n      jump\n        /* \"Will.sol\":4620:4696  require(totalPercentage == 100, \"Distribution percentages must sum to 100.\") */\n    tag_308:\n        /* \"Will.sol\":4722:4737  block.timestamp */\n      timestamp\n        /* \"Will.sol\":4709:4719  lastUpdate */\n      0x03\n        /* \"Will.sol\":4709:4737  lastUpdate = block.timestamp */\n      sstore\n        /* \"Will.sol\":4748:4762  heirs = _heirs */\n      dup5\n      mload\n      tag_311\n      swap1\n        /* \"Will.sol\":4748:4753  heirs */\n      0x04\n      swap1\n        /* \"Will.sol\":4748:4762  heirs = _heirs */\n      0x20\n      dup9\n      add\n      swap1\n      tag_312\n      jump\t// in\n    tag_311:\n      pop\n        /* \"Will.sol\":4773:4806  distributionPercentages = _distro */\n      dup4\n      mload\n      tag_313\n      swap1\n        /* \"Will.sol\":4773:4796  distributionPercentages */\n      0x05\n      swap1\n        /* \"Will.sol\":4773:4806  distributionPercentages = _distro */\n      0x20\n      dup8\n      add\n      swap1\n      tag_314\n      jump\t// in\n    tag_313:\n      pop\n        /* \"Will.sol\":4889:4895  uint i */\n      0x00\n        /* \"Will.sol\":4884:5015  for (uint i = 0; i < _erc20s.length; i++) {... */\n    tag_315:\n        /* \"Will.sol\":4905:4912  _erc20s */\n      dup4\n        /* \"Will.sol\":4905:4919  _erc20s.length */\n      mload\n        /* \"Will.sol\":4901:4902  i */\n      dup2\n        /* \"Will.sol\":4901:4919  i < _erc20s.length */\n      lt\n        /* \"Will.sol\":4884:5015  for (uint i = 0; i < _erc20s.length; i++) {... */\n      iszero\n      tag_316\n      jumpi\n        /* \"Will.sol\":4941:4952  erc20Assets */\n      0x06\n        /* \"Will.sol\":4958:5002  Erc20Asset(IERC20(_erc20s[i].tokenContract)) */\n      mload(0x40)\n      dup1\n      0x20\n      add\n      0x40\n      mstore\n      dup1\n        /* \"Will.sol\":4976:4983  _erc20s */\n      dup7\n        /* \"Will.sol\":4984:4985  i */\n      dup5\n        /* \"Will.sol\":4976:4986  _erc20s[i] */\n      dup2\n      mload\n      dup2\n      lt\n      tag_319\n      jumpi\n      tag_319\n      tag_151\n      jump\t// in\n    tag_319:\n      0x20\n      swap1\n      dup2\n      mul\n      swap2\n      swap1\n      swap2\n      add\n      dup2\n      add\n      mload\n        /* \"Will.sol\":4976:5000  _erc20s[i].tokenContract */\n      mload\n      sub(shl(0xa0, 0x01), 0x01)\n        /* \"Will.sol\":4958:5002  Erc20Asset(IERC20(_erc20s[i].tokenContract)) */\n      swap1\n      dup2\n      and\n      swap1\n      swap3\n      mstore\n        /* \"Will.sol\":4941:5003  erc20Assets.push(Erc20Asset(IERC20(_erc20s[i].tokenContract))) */\n      dup4\n      sload\n      0x01\n      dup1\n      dup3\n      add\n      dup7\n      sstore\n      0x00\n      swap6\n      dup7\n      mstore\n      swap2\n      swap1\n      swap5\n      keccak256\n      swap3\n      mload\n      swap3\n      swap1\n      swap4\n      add\n      dup1\n      sload\n      not(sub(shl(0xa0, 0x01), 0x01))\n      and\n      swap3\n      swap1\n      swap2\n      and\n      swap2\n      swap1\n      swap2\n      or\n      swap1\n      sstore\n        /* \"Will.sol\":4921:4924  i++ */\n      add\n        /* \"Will.sol\":4884:5015  for (uint i = 0; i < _erc20s.length; i++) {... */\n      jump(tag_315)\n    tag_316:\n      pop\n        /* \"Will.sol\":5030:5036  uint i */\n      0x00\n        /* \"Will.sol\":5025:5188  for (uint i = 0; i < _nfts.length; i++) {... */\n    tag_321:\n        /* \"Will.sol\":5046:5051  _nfts */\n      dup3\n        /* \"Will.sol\":5046:5058  _nfts.length */\n      mload\n        /* \"Will.sol\":5042:5043  i */\n      dup2\n        /* \"Will.sol\":5042:5058  i < _nfts.length */\n      lt\n        /* \"Will.sol\":5025:5188  for (uint i = 0; i < _nfts.length; i++) {... */\n      iszero\n      tag_322\n      jumpi\n        /* \"Will.sol\":5080:5092  erc721Assets */\n      0x07\n        /* \"Will.sol\":5098:5175  Erc721Asset(IERC721(_nfts[i].tokenContract), _nfts[i].tokenId, _nfts[i].heir) */\n      mload(0x40)\n      dup1\n      0x60\n      add\n      0x40\n      mstore\n      dup1\n        /* \"Will.sol\":5118:5123  _nfts */\n      dup6\n        /* \"Will.sol\":5124:5125  i */\n      dup5\n        /* \"Will.sol\":5118:5126  _nfts[i] */\n      dup2\n      mload\n      dup2\n      lt\n      tag_325\n      jumpi\n      tag_325\n      tag_151\n      jump\t// in\n    tag_325:\n      0x20\n      mul\n      0x20\n      add\n      add\n      mload\n        /* \"Will.sol\":5118:5140  _nfts[i].tokenContract */\n      0x00\n      add\n      mload\n      sub(shl(0xa0, 0x01), 0x01)\n        /* \"Will.sol\":5098:5175  Erc721Asset(IERC721(_nfts[i].tokenContract), _nfts[i].tokenId, _nfts[i].heir) */\n      and\n      dup2\n      mstore\n      0x20\n      add\n        /* \"Will.sol\":5143:5148  _nfts */\n      dup6\n        /* \"Will.sol\":5149:5150  i */\n      dup5\n        /* \"Will.sol\":5143:5151  _nfts[i] */\n      dup2\n      mload\n      dup2\n      lt\n      tag_327\n      jumpi\n      tag_327\n      tag_151\n      jump\t// in\n    tag_327:\n      0x20\n      mul\n      0x20\n      add\n      add\n      mload\n        /* \"Will.sol\":5143:5159  _nfts[i].tokenId */\n      0x20\n      add\n      mload\n        /* \"Will.sol\":5098:5175  Erc721Asset(IERC721(_nfts[i].tokenContract), _nfts[i].tokenId, _nfts[i].heir) */\n      dup2\n      mstore\n      0x20\n      add\n        /* \"Will.sol\":5161:5166  _nfts */\n      dup6\n        /* \"Will.sol\":5167:5168  i */\n      dup5\n        /* \"Will.sol\":5161:5169  _nfts[i] */\n      dup2\n      mload\n      dup2\n      lt\n      tag_329\n      jumpi\n      tag_329\n      tag_151\n      jump\t// in\n    tag_329:\n      0x20\n      swap1\n      dup2\n      mul\n      swap2\n      swap1\n      swap2\n      add\n      dup2\n      add\n      mload\n        /* \"Will.sol\":5161:5174  _nfts[i].heir */\n      0x40\n      swap1\n      dup2\n      add\n      mload\n      sub(shl(0xa0, 0x01), 0x01)\n        /* \"Will.sol\":5098:5175  Erc721Asset(IERC721(_nfts[i].tokenContract), _nfts[i].tokenId, _nfts[i].heir) */\n      swap1\n      dup2\n      and\n      swap1\n      swap4\n      mstore\n        /* \"Will.sol\":5080:5176  erc721Assets.push(Erc721Asset(IERC721(_nfts[i].tokenContract), _nfts[i].tokenId, _nfts[i].heir)) */\n      dup5\n      sload\n      0x01\n      dup1\n      dup3\n      add\n      dup8\n      sstore\n      0x00\n      swap7\n      dup8\n      mstore\n      swap6\n      dup4\n      swap1\n      keccak256\n      dup6\n      mload\n      0x03\n      swap1\n      swap3\n      mul\n      add\n      dup1\n      sload\n      not(sub(shl(0xa0, 0x01), 0x01))\n      swap1\n      dup2\n      and\n      swap3\n      dup7\n      and\n      swap3\n      swap1\n      swap3\n      or\n      dup2\n      sstore\n      swap3\n      dup6\n      add\n      mload\n      dup4\n      dup8\n      add\n      sstore\n      swap4\n      add\n      mload\n      0x02\n      swap1\n      swap2\n      add\n      dup1\n      sload\n      swap1\n      swap4\n      and\n      swap2\n      and\n      or\n      swap1\n      sstore\n        /* \"Will.sol\":5060:5063  i++ */\n      add\n        /* \"Will.sol\":5025:5188  for (uint i = 0; i < _nfts.length; i++) {... */\n      jump(tag_321)\n    tag_322:\n      pop\n        /* \"Will.sol\":4127:5195  {... */\n      pop\n        /* \"Will.sol\":3936:5195  function initialize(... */\n      pop\n      pop\n      pop\n      pop\n      jump\t// out\n        /* \"Will.sol\":8849:10137  function getWillDetails() external view returns (WillDetails memory) {... */\n    tag_80:\n        /* \"Will.sol\":8898:8916  WillDetails memory */\n      tag_331\n      mload(0x40)\n      dup1\n      0x0140\n      add\n      0x40\n      mstore\n      dup1\n      and(sub(shl(0xa0, 0x01), 0x01), 0x00)\n      dup2\n      mstore\n      0x20\n      add\n      0x00\n      dup2\n      mstore\n      0x20\n      add\n      0x00\n      dup2\n      mstore\n      0x20\n      add\n      iszero(iszero(0x00))\n      dup2\n      mstore\n      0x20\n      add\n      iszero(iszero(0x00))\n      dup2\n      mstore\n      0x20\n      add\n      0x00\n      dup2\n      mstore\n      0x20\n      add\n      0x60\n      dup2\n      mstore\n      0x20\n      add\n      0x60\n      dup2\n      mstore\n      0x20\n      add\n      0x60\n      dup2\n      mstore\n      0x20\n      add\n      0x60\n      dup2\n      mstore\n      pop\n      swap1\n      jump\n    tag_331:\n        /* \"Will.sol\":8984:8995  erc20Assets */\n      0x06\n        /* \"Will.sol\":8984:9002  erc20Assets.length */\n      sload\n        /* \"Will.sol\":8929:8963  Erc20Detail[] memory _erc20Details */\n      0x00\n      swap1\n        /* \"Will.sol\":8966:9003  new Erc20Detail[](erc20Assets.length) */\n      0xffffffffffffffff\n      dup2\n      gt\n      iszero\n      tag_335\n      jumpi\n      tag_335\n      tag_336\n      jump\t// in\n    tag_335:\n      mload(0x40)\n      swap1\n      dup1\n      dup3\n      mstore\n      dup1\n      0x20\n      mul\n      0x20\n      add\n      dup3\n      add\n      0x40\n      mstore\n      dup1\n      iszero\n      tag_337\n      jumpi\n      dup2\n      0x20\n      add\n    tag_338:\n      0x40\n      dup1\n      mload\n      dup1\n      dup3\n      add\n      swap1\n      swap2\n      mstore\n      0x00\n      dup1\n      dup3\n      mstore\n      0x20\n      dup3\n      add\n      mstore\n      dup2\n      mstore\n      0x20\n      add\n      swap1\n      0x01\n      swap1\n      sub\n      swap1\n      dup2\n      tag_338\n      jumpi\n      swap1\n      pop\n    tag_337:\n      pop\n        /* \"Will.sol\":8929:9003  Erc20Detail[] memory _erc20Details = new Erc20Detail[](erc20Assets.length) */\n      swap1\n      pop\n        /* \"Will.sol\":9019:9025  uint i */\n      0x00\n        /* \"Will.sol\":9014:9290  for (uint i = 0; i < erc20Assets.length; i++) {... */\n    tag_341:\n        /* \"Will.sol\":9035:9046  erc20Assets */\n      0x06\n        /* \"Will.sol\":9035:9053  erc20Assets.length */\n      sload\n        /* \"Will.sol\":9031:9053  i < erc20Assets.length */\n      dup2\n      lt\n        /* \"Will.sol\":9014:9290  for (uint i = 0; i < erc20Assets.length; i++) {... */\n      iszero\n      tag_342\n      jumpi\n        /* \"Will.sol\":9075:9087  IERC20 token */\n      0x00\n        /* \"Will.sol\":9090:9101  erc20Assets */\n      0x06\n        /* \"Will.sol\":9102:9103  i */\n      dup3\n        /* \"Will.sol\":9090:9104  erc20Assets[i] */\n      dup2\n      sload\n      dup2\n      lt\n      tag_345\n      jumpi\n      tag_345\n      tag_151\n      jump\t// in\n    tag_345:\n      0x00\n      swap2\n      dup3\n      mstore\n      0x20\n      swap2\n      dup3\n      swap1\n      keccak256\n      add\n        /* \"Will.sol\":9090:9110  erc20Assets[i].token */\n      sload\n        /* \"Will.sol\":9144:9278  Erc20Detail({... */\n      0x40\n      dup1\n      mload\n      dup1\n      dup3\n      add\n      dup3\n      mstore\n      sub(shl(0xa0, 0x01), 0x01)\n        /* \"Will.sol\":9090:9110  erc20Assets[i].token */\n      swap1\n      swap3\n      and\n        /* \"Will.sol\":9144:9278  Erc20Detail({... */\n      dup1\n      dup4\n      mstore\n        /* \"Will.sol\":9232:9262  token.balanceOf(address(this)) */\n      swap1\n      mload\n      shl(0xe0, 0x70a08231)\n      dup2\n      mstore\n        /* \"Will.sol\":9256:9260  this */\n      address\n        /* \"Will.sol\":9232:9262  token.balanceOf(address(this)) */\n      0x04\n      dup3\n      add\n        /* \"#utility.yul\":454:505   */\n      mstore\n        /* \"Will.sol\":9090:9110  erc20Assets[i].token */\n      swap1\n      swap4\n      pop\n        /* \"Will.sol\":9144:9278  Erc20Detail({... */\n      swap1\n      swap2\n      dup3\n      add\n      swap1\n        /* \"Will.sol\":9090:9110  erc20Assets[i].token */\n      dup4\n      swap1\n        /* \"Will.sol\":9232:9247  token.balanceOf */\n      0x70a08231\n      swap1\n        /* \"#utility.yul\":427:445   */\n      0x24\n      add\n        /* \"Will.sol\":9232:9262  token.balanceOf(address(this)) */\n      0x20\n      mload(0x40)\n      dup1\n      dup4\n      sub\n      dup2\n      dup7\n      gas\n      staticcall\n      iszero\n      dup1\n      iszero\n      tag_349\n      jumpi\n      returndatasize\n      0x00\n      dup1\n      returndatacopy\n      revert(0x00, returndatasize)\n    tag_349:\n      pop\n      pop\n      pop\n      pop\n      mload(0x40)\n      returndatasize\n      not(0x1f)\n      0x1f\n      dup3\n      add\n      and\n      dup3\n      add\n      dup1\n      0x40\n      mstore\n      pop\n      dup2\n      add\n      swap1\n      tag_350\n      swap2\n      swap1\n      tag_176\n      jump\t// in\n    tag_350:\n        /* \"Will.sol\":9144:9278  Erc20Detail({... */\n      dup2\n      mstore\n      pop\n        /* \"Will.sol\":9125:9138  _erc20Details */\n      dup4\n        /* \"Will.sol\":9139:9140  i */\n      dup4\n        /* \"Will.sol\":9125:9141  _erc20Details[i] */\n      dup2\n      mload\n      dup2\n      lt\n      tag_352\n      jumpi\n      tag_352\n      tag_151\n      jump\t// in\n    tag_352:\n      0x20\n      swap1\n      dup2\n      mul\n      swap2\n      swap1\n      swap2\n      add\n      add\n        /* \"Will.sol\":9125:9278  _erc20Details[i] = Erc20Detail({... */\n      mstore\n      pop\n        /* \"Will.sol\":9055:9058  i++ */\n      0x01\n      add\n        /* \"Will.sol\":9014:9290  for (uint i = 0; i < erc20Assets.length; i++) {... */\n      jump(tag_341)\n    tag_342:\n      pop\n        /* \"Will.sol\":9358:9370  erc721Assets */\n      0x07\n        /* \"Will.sol\":9358:9377  erc721Assets.length */\n      sload\n        /* \"Will.sol\":9300:9336  Erc721Detail[] memory _erc721Details */\n      0x00\n      swap1\n        /* \"Will.sol\":9339:9378  new Erc721Detail[](erc721Assets.length) */\n      0xffffffffffffffff\n      dup2\n      gt\n      iszero\n      tag_354\n      jumpi\n      tag_354\n      tag_336\n      jump\t// in\n    tag_354:\n      mload(0x40)\n      swap1\n      dup1\n      dup3\n      mstore\n      dup1\n      0x20\n      mul\n      0x20\n      add\n      dup3\n      add\n      0x40\n      mstore\n      dup1\n      iszero\n      tag_355\n      jumpi\n      dup2\n      0x20\n      add\n    tag_356:\n      0x40\n      dup1\n      mload\n      0x60\n      dup2\n      add\n      dup3\n      mstore\n      0x00\n      dup1\n      dup3\n      mstore\n      0x20\n      dup1\n      dup4\n      add\n      dup3\n      swap1\n      mstore\n      swap3\n      dup3\n      add\n      mstore\n      dup3\n      mstore\n      not(0x00)\n      swap1\n      swap3\n      add\n      swap2\n      add\n      dup2\n      tag_356\n      jumpi\n      swap1\n      pop\n    tag_355:\n      pop\n        /* \"Will.sol\":9300:9378  Erc721Detail[] memory _erc721Details = new Erc721Detail[](erc721Assets.length) */\n      swap1\n      pop\n        /* \"Will.sol\":9394:9400  uint i */\n      0x00\n        /* \"Will.sol\":9389:9699  for (uint i = 0; i < erc721Assets.length; i++) {... */\n    tag_359:\n        /* \"Will.sol\":9410:9422  erc721Assets */\n      0x07\n        /* \"Will.sol\":9410:9429  erc721Assets.length */\n      sload\n        /* \"Will.sol\":9406:9429  i < erc721Assets.length */\n      dup2\n      lt\n        /* \"Will.sol\":9389:9699  for (uint i = 0; i < erc721Assets.length; i++) {... */\n      iszero\n      tag_360\n      jumpi\n        /* \"Will.sol\":9451:9475  Erc721Asset memory asset */\n      0x00\n        /* \"Will.sol\":9478:9490  erc721Assets */\n      0x07\n        /* \"Will.sol\":9491:9492  i */\n      dup3\n        /* \"Will.sol\":9478:9493  erc721Assets[i] */\n      dup2\n      sload\n      dup2\n      lt\n      tag_363\n      jumpi\n      tag_363\n      tag_151\n      jump\t// in\n    tag_363:\n      0x00\n      swap2\n      dup3\n      mstore\n      0x20\n      swap2\n      dup3\n      swap1\n      keccak256\n        /* \"Will.sol\":9451:9493  Erc721Asset memory asset = erc721Assets[i] */\n      0x40\n      dup1\n      mload\n      0x60\n      dup1\n      dup3\n      add\n      dup4\n      mstore\n        /* \"Will.sol\":9478:9493  erc721Assets[i] */\n      0x03\n      swap1\n      swap5\n      mul\n      swap1\n      swap3\n      add\n        /* \"Will.sol\":9451:9493  Erc721Asset memory asset = erc721Assets[i] */\n      dup1\n      sload\n      sub(shl(0xa0, 0x01), 0x01)\n      swap1\n      dup2\n      and\n      dup5\n      mstore\n      0x01\n      dup3\n      add\n      sload\n      dup5\n      dup8\n      add\n      swap1\n      dup2\n      mstore\n      0x02\n      swap1\n      swap3\n      add\n      sload\n      dup2\n      and\n      dup5\n      dup5\n      add\n      swap1\n      dup2\n      mstore\n        /* \"Will.sol\":9528:9687  Erc721Detail({... */\n      dup4\n      mload\n      swap6\n      dup7\n      add\n      dup5\n      mstore\n        /* \"Will.sol\":9583:9594  asset.token */\n      dup5\n      mload\n        /* \"Will.sol\":9528:9687  Erc721Detail({... */\n      dup3\n      and\n      dup7\n      mstore\n        /* \"Will.sol\":9623:9636  asset.tokenId */\n      swap2\n      mload\n        /* \"Will.sol\":9528:9687  Erc721Detail({... */\n      swap6\n      dup6\n      add\n      swap6\n      swap1\n      swap6\n      mstore\n        /* \"Will.sol\":9661:9671  asset.heir */\n      mload\n        /* \"Will.sol\":9528:9687  Erc721Detail({... */\n      swap1\n      swap4\n      and\n      swap3\n      dup3\n      add\n      swap3\n      swap1\n      swap3\n      mstore\n        /* \"Will.sol\":9508:9525  _erc721Details[i] */\n      dup5\n      mload\n        /* \"Will.sol\":9451:9493  Erc721Asset memory asset = erc721Assets[i] */\n      swap2\n      swap3\n      pop\n        /* \"Will.sol\":9528:9687  Erc721Detail({... */\n      swap1\n        /* \"Will.sol\":9508:9522  _erc721Details */\n      dup5\n      swap1\n        /* \"Will.sol\":9523:9524  i */\n      dup5\n      swap1\n        /* \"Will.sol\":9508:9525  _erc721Details[i] */\n      dup2\n      lt\n      tag_366\n      jumpi\n      tag_366\n      tag_151\n      jump\t// in\n    tag_366:\n      0x20\n      swap1\n      dup2\n      mul\n      swap2\n      swap1\n      swap2\n      add\n      add\n        /* \"Will.sol\":9508:9687  _erc721Details[i] = Erc721Detail({... */\n      mstore\n      pop\n        /* \"Will.sol\":9431:9434  i++ */\n      0x01\n      add\n        /* \"Will.sol\":9389:9699  for (uint i = 0; i < erc721Assets.length; i++) {... */\n      jump(tag_359)\n    tag_360:\n      pop\n        /* \"Will.sol\":9716:10129  WillDetails({... */\n      mload(0x40)\n      dup1\n      0x0140\n      add\n      0x40\n      mstore\n      dup1\n        /* \"Will.sol\":9750:9757  owner() */\n      tag_367\n        /* \"@openzeppelin/contracts/access/Ownable.sol\":1684:1691  address */\n      0x00\n        /* \"@openzeppelin/contracts/access/Ownable.sol\":1710:1716  _owner */\n      sload\n      sub(shl(0xa0, 0x01), 0x01)\n      and\n      swap1\n        /* \"@openzeppelin/contracts/access/Ownable.sol\":1638:1723  function owner() public view virtual returns (address) {... */\n      jump\n        /* \"Will.sol\":9750:9757  owner() */\n    tag_367:\n      sub(shl(0xa0, 0x01), 0x01)\n        /* \"Will.sol\":9716:10129  WillDetails({... */\n      and\n      dup2\n      mstore\n      0x20\n      add\n        /* \"Will.sol\":9782:9790  interval */\n      immutable(\"0xf149c9166005b187f5af29ceb397e7b9b5ab7e3a911adc91a9ebb826b208930e\")\n        /* \"Will.sol\":9716:10129  WillDetails({... */\n      dup2\n      mstore\n      0x20\n      add\n        /* \"Will.sol\":9817:9827  lastUpdate */\n      sload(0x03)\n        /* \"Will.sol\":9716:10129  WillDetails({... */\n      dup2\n      mstore\n      0x20\n      add\n        /* \"Will.sol\":9852:9860  executed */\n      0x02\n      0x00\n      swap1\n      sload\n      swap1\n      0x0100\n      exp\n      swap1\n      div\n      0xff\n      and\n        /* \"Will.sol\":9716:10129  WillDetails({... */\n      iszero\n      iszero\n      dup2\n      mstore\n      0x20\n      add\n        /* \"Will.sol\":9885:9893  hasDiary */\n      immutable(\"0xc54ee332974d1c3b722bf69de0eb5376e86c76b9f8da5c925e6b0c3efd2d5979\")\n        /* \"Will.sol\":9716:10129  WillDetails({... */\n      iszero\n      iszero\n      dup2\n      mstore\n      0x20\n      add\n        /* \"Will.sol\":9920:9941  address(this).balance */\n      selfbalance\n        /* \"Will.sol\":9716:10129  WillDetails({... */\n      dup2\n      mstore\n      0x20\n      add\n        /* \"Will.sol\":9963:9968  heirs */\n      0x04\n        /* \"Will.sol\":9716:10129  WillDetails({... */\n      dup1\n      sload\n      dup1\n      0x20\n      mul\n      0x20\n      add\n      mload(0x40)\n      swap1\n      dup2\n      add\n      0x40\n      mstore\n      dup1\n      swap3\n      swap2\n      swap1\n      dup2\n      dup2\n      mstore\n      0x20\n      add\n      dup3\n      dup1\n      sload\n      dup1\n      iszero\n      tag_368\n      jumpi\n      0x20\n      mul\n      dup3\n      add\n      swap2\n      swap1\n      0x00\n      mstore\n      keccak256(0x00, 0x20)\n      swap1\n    tag_369:\n      dup2\n      sload\n      sub(shl(0xa0, 0x01), 0x01)\n      and\n      dup2\n      mstore\n      0x01\n      swap1\n      swap2\n      add\n      swap1\n      0x20\n      add\n      dup1\n      dup4\n      gt\n      tag_369\n      jumpi\n    tag_368:\n      pop\n      pop\n      pop\n      pop\n      pop\n      dup2\n      mstore\n      0x20\n      add\n        /* \"Will.sol\":10008:10031  distributionPercentages */\n      0x05\n        /* \"Will.sol\":9716:10129  WillDetails({... */\n      dup1\n      sload\n      dup1\n      0x20\n      mul\n      0x20\n      add\n      mload(0x40)\n      swap1\n      dup2\n      add\n      0x40\n      mstore\n      dup1\n      swap3\n      swap2\n      swap1\n      dup2\n      dup2\n      mstore\n      0x20\n      add\n      dup3\n      dup1\n      sload\n      dup1\n      iszero\n      tag_370\n      jumpi\n      0x20\n      mul\n      dup3\n      add\n      swap2\n      swap1\n      0x00\n      mstore\n      keccak256(0x00, 0x20)\n      swap1\n    tag_371:\n      dup2\n      sload\n      dup2\n      mstore\n      0x20\n      add\n      swap1\n      0x01\n      add\n      swap1\n      dup1\n      dup4\n      gt\n      tag_371\n      jumpi\n    tag_370:\n      pop\n      pop\n      pop\n      pop\n      pop\n      dup2\n      mstore\n      0x20\n      add\n        /* \"Will.sol\":10060:10073  _erc20Details */\n      dup4\n        /* \"Will.sol\":9716:10129  WillDetails({... */\n      dup2\n      mstore\n      0x20\n      add\n        /* \"Will.sol\":10103:10117  _erc721Details */\n      dup3\n        /* \"Will.sol\":9716:10129  WillDetails({... */\n      dup2\n      mstore\n      pop\n        /* \"Will.sol\":9709:10129  return WillDetails({... */\n      swap3\n      pop\n      pop\n      pop\n        /* \"Will.sol\":8849:10137  function getWillDetails() external view returns (WillDetails memory) {... */\n      swap1\n      jump\t// out\n        /* \"Will.sol\":2493:2526  Erc721Asset[] public erc721Assets */\n    tag_85:\n      0x07\n      dup2\n      dup2\n      sload\n      dup2\n      lt\n      tag_372\n      jumpi\n      0x00\n      dup1\n      revert\n    tag_372:\n      0x00\n      swap2\n      dup3\n      mstore\n      0x20\n      swap1\n      swap2\n      keccak256\n      0x03\n      swap1\n      swap2\n      mul\n      add\n      dup1\n      sload\n      0x01\n      dup3\n      add\n      sload\n      0x02\n      swap1\n      swap3\n      add\n      sload\n      sub(shl(0xa0, 0x01), 0x01)\n      swap2\n      dup3\n      and\n      swap4\n      pop\n      and\n      dup4\n      jump\t// out\n        /* \"@openzeppelin/contracts/access/Ownable.sol\":2543:2758  function transferOwnership(address newOwner) public virtual onlyOwner {... */\n    tag_94:\n        /* \"@openzeppelin/contracts/access/Ownable.sol\":1531:1544  _checkOwner() */\n      tag_375\n        /* \"@openzeppelin/contracts/access/Ownable.sol\":1531:1542  _checkOwner */\n      tag_282\n        /* \"@openzeppelin/contracts/access/Ownable.sol\":1531:1544  _checkOwner() */\n      jump\t// in\n    tag_375:\n      sub(shl(0xa0, 0x01), 0x01)\n        /* \"@openzeppelin/contracts/access/Ownable.sol\":2627:2649  newOwner == address(0) */\n      dup2\n      and\n        /* \"@openzeppelin/contracts/access/Ownable.sol\":2623:2714  if (newOwner == address(0)) {... */\n      tag_377\n      jumpi\n        /* \"@openzeppelin/contracts/access/Ownable.sol\":2672:2703  OwnableInvalidOwner(address(0)) */\n      mload(0x40)\n      shl(0xe0, 0x1e4fbdf7)\n      dup2\n      mstore\n        /* \"@openzeppelin/contracts/access/Ownable.sol\":2700:2701  0 */\n      0x00\n        /* \"@openzeppelin/contracts/access/Ownable.sol\":2672:2703  OwnableInvalidOwner(address(0)) */\n      0x04\n      dup3\n      add\n        /* \"#utility.yul\":454:505   */\n      mstore\n        /* \"#utility.yul\":427:445   */\n      0x24\n      add\n        /* \"@openzeppelin/contracts/access/Ownable.sol\":2672:2703  OwnableInvalidOwner(address(0)) */\n      tag_101\n        /* \"#utility.yul\":308:511   */\n      jump\n        /* \"@openzeppelin/contracts/access/Ownable.sol\":2623:2714  if (newOwner == address(0)) {... */\n    tag_377:\n        /* \"@openzeppelin/contracts/access/Ownable.sol\":2723:2751  _transferOwnership(newOwner) */\n      tag_379\n        /* \"@openzeppelin/contracts/access/Ownable.sol\":2742:2750  newOwner */\n      dup2\n        /* \"@openzeppelin/contracts/access/Ownable.sol\":2723:2741  _transferOwnership */\n      tag_285\n        /* \"@openzeppelin/contracts/access/Ownable.sol\":2723:2751  _transferOwnership(newOwner) */\n      jump\t// in\n    tag_379:\n        /* \"@openzeppelin/contracts/access/Ownable.sol\":2543:2758  function transferOwnership(address newOwner) public virtual onlyOwner {... */\n      pop\n      jump\t// out\n        /* \"Will.sol\":631:743  function _preReentryCheck() private view { if (_status == _ENTERED) { revert ReentrancyGuardReentrantCall(); } } */\n    tag_111:\n        /* \"Will.sol\":405:406  2 */\n      0x02\n        /* \"Will.sol\":678:685  _status */\n      sload(0x01)\n        /* \"Will.sol\":678:697  _status == _ENTERED */\n      sub\n        /* \"Will.sol\":674:741  if (_status == _ENTERED) { revert ReentrancyGuardReentrantCall(); } */\n      tag_284\n      jumpi\n        /* \"Will.sol\":708:738  ReentrancyGuardReentrantCall() */\n      mload(0x40)\n      shl(0xe0, 0x3ee5aeb5)\n      dup2\n      mstore\n      0x04\n      add\n      mload(0x40)\n      dup1\n      swap2\n      sub\n      swap1\n      revert\n        /* \"@openzeppelin/contracts/access/Ownable.sol\":1796:1958  function _checkOwner() internal view virtual {... */\n    tag_282:\n        /* \"@openzeppelin/contracts/access/Ownable.sol\":1684:1691  address */\n      0x00\n        /* \"@openzeppelin/contracts/access/Ownable.sol\":1710:1716  _owner */\n      sload\n      sub(shl(0xa0, 0x01), 0x01)\n      and\n        /* \"@openzeppelin/contracts/utils/Context.sol\":735:745  msg.sender */\n      caller\n        /* \"@openzeppelin/contracts/access/Ownable.sol\":1855:1878  owner() != _msgSender() */\n      eq\n        /* \"@openzeppelin/contracts/access/Ownable.sol\":1851:1952  if (owner() != _msgSender()) {... */\n      tag_284\n      jumpi\n        /* \"@openzeppelin/contracts/access/Ownable.sol\":1901:1941  OwnableUnauthorizedAccount(_msgSender()) */\n      mload(0x40)\n      shl(0xe0, 0x118cdaa7)\n      dup2\n      mstore\n        /* \"@openzeppelin/contracts/utils/Context.sol\":735:745  msg.sender */\n      caller\n        /* \"@openzeppelin/contracts/access/Ownable.sol\":1901:1941  OwnableUnauthorizedAccount(_msgSender()) */\n      0x04\n      dup3\n      add\n        /* \"#utility.yul\":454:505   */\n      mstore\n        /* \"#utility.yul\":427:445   */\n      0x24\n      add\n        /* \"@openzeppelin/contracts/access/Ownable.sol\":1901:1941  OwnableUnauthorizedAccount(_msgSender()) */\n      tag_101\n        /* \"#utility.yul\":308:511   */\n      jump\n        /* \"@openzeppelin/contracts/access/Ownable.sol\":2912:3099  function _transferOwnership(address newOwner) internal virtual {... */\n    tag_285:\n        /* \"@openzeppelin/contracts/access/Ownable.sol\":2985:3001  address oldOwner */\n      0x00\n        /* \"@openzeppelin/contracts/access/Ownable.sol\":3004:3010  _owner */\n      dup1\n      sload\n      sub(shl(0xa0, 0x01), 0x01)\n        /* \"@openzeppelin/contracts/access/Ownable.sol\":3020:3037  _owner = newOwner */\n      dup4\n      dup2\n      and\n      not(sub(shl(0xa0, 0x01), 0x01))\n      dup4\n      and\n      dup2\n      or\n      dup5\n      sstore\n        /* \"@openzeppelin/contracts/access/Ownable.sol\":3052:3092  OwnershipTransferred(oldOwner, newOwner) */\n      mload(0x40)\n        /* \"@openzeppelin/contracts/access/Ownable.sol\":3004:3010  _owner */\n      swap2\n      swap1\n      swap3\n      and\n      swap3\n      dup4\n      swap2\n        /* \"@openzeppelin/contracts/access/Ownable.sol\":3052:3092  OwnershipTransferred(oldOwner, newOwner) */\n      0x8be0079c531659141344cd1fd0a4f28419497f9722a3daafe3b4186f6b6457e0\n      swap2\n        /* \"@openzeppelin/contracts/access/Ownable.sol\":2985:3001  address oldOwner */\n      swap1\n        /* \"@openzeppelin/contracts/access/Ownable.sol\":3052:3092  OwnershipTransferred(oldOwner, newOwner) */\n      log3\n        /* \"@openzeppelin/contracts/access/Ownable.sol\":2975:3099  {... */\n      pop\n        /* \"@openzeppelin/contracts/access/Ownable.sol\":2912:3099  function _transferOwnership(address newOwner) internal virtual {... */\n      pop\n      jump\t// out\n    tag_312:\n      dup3\n      dup1\n      sload\n      dup3\n      dup3\n      sstore\n      swap1\n      0x00\n      mstore\n      keccak256(0x00, 0x20)\n      swap1\n      dup2\n      add\n      swap3\n      dup3\n      iszero\n      tag_393\n      jumpi\n      swap2\n      0x20\n      mul\n      dup3\n      add\n    tag_392:\n      dup3\n      dup2\n      gt\n      iszero\n      tag_393\n      jumpi\n      dup3\n      mload\n      dup3\n      sload\n      not(sub(shl(0xa0, 0x01), 0x01))\n      and\n      sub(shl(0xa0, 0x01), 0x01)\n      swap1\n      swap2\n      and\n      or\n      dup3\n      sstore\n      0x20\n      swap1\n      swap3\n      add\n      swap2\n      0x01\n      swap1\n      swap2\n      add\n      swap1\n      jump(tag_392)\n    tag_393:\n      pop\n      tag_394\n      swap3\n      swap2\n      pop\n      tag_395\n      jump\t// in\n    tag_394:\n      pop\n      swap1\n      jump\t// out\n    tag_314:\n      dup3\n      dup1\n      sload\n      dup3\n      dup3\n      sstore\n      swap1\n      0x00\n      mstore\n      keccak256(0x00, 0x20)\n      swap1\n      dup2\n      add\n      swap3\n      dup3\n      iszero\n      tag_393\n      jumpi\n      swap2\n      0x20\n      mul\n      dup3\n      add\n    tag_397:\n      dup3\n      dup2\n      gt\n      iszero\n      tag_393\n      jumpi\n      dup3\n      mload\n      dup3\n      sstore\n      swap2\n      0x20\n      add\n      swap2\n      swap1\n      0x01\n      add\n      swap1\n      jump(tag_397)\n    tag_395:\n    tag_400:\n      dup1\n      dup3\n      gt\n      iszero\n      tag_394\n      jumpi\n      0x00\n      dup2\n      sstore\n      0x01\n      add\n      jump(tag_400)\n        /* \"#utility.yul\":14:194   */\n    tag_28:\n        /* \"#utility.yul\":73:79   */\n      0x00\n        /* \"#utility.yul\":126:128   */\n      0x20\n        /* \"#utility.yul\":114:123   */\n      dup3\n        /* \"#utility.yul\":105:112   */\n      dup5\n        /* \"#utility.yul\":101:124   */\n      sub\n        /* \"#utility.yul\":97:129   */\n      slt\n        /* \"#utility.yul\":94:146   */\n      iszero\n      tag_419\n      jumpi\n        /* \"#utility.yul\":142:143   */\n      0x00\n        /* \"#utility.yul\":139:140   */\n      dup1\n        /* \"#utility.yul\":132:144   */\n      revert\n        /* \"#utility.yul\":94:146   */\n    tag_419:\n      pop\n        /* \"#utility.yul\":165:188   */\n      calldataload\n      swap2\n        /* \"#utility.yul\":14:194   */\n      swap1\n      pop\n      jump\t// out\n        /* \"#utility.yul\":1208:1335   */\n    tag_336:\n        /* \"#utility.yul\":1269:1279   */\n      0x4e487b71\n        /* \"#utility.yul\":1264:1267   */\n      0xe0\n        /* \"#utility.yul\":1260:1280   */\n      shl\n        /* \"#utility.yul\":1257:1258   */\n      0x00\n        /* \"#utility.yul\":1250:1281   */\n      mstore\n        /* \"#utility.yul\":1300:1304   */\n      0x41\n        /* \"#utility.yul\":1297:1298   */\n      0x04\n        /* \"#utility.yul\":1290:1305   */\n      mstore\n        /* \"#utility.yul\":1324:1328   */\n      0x24\n        /* \"#utility.yul\":1321:1322   */\n      0x00\n        /* \"#utility.yul\":1314:1329   */\n      revert\n        /* \"#utility.yul\":1340:1597   */\n    tag_404:\n        /* \"#utility.yul\":1412:1416   */\n      0x40\n        /* \"#utility.yul\":1406:1417   */\n      dup1\n      mload\n      swap1\n        /* \"#utility.yul\":1444:1461   */\n      dup2\n      add\n        /* \"#utility.yul\":1491:1509   */\n      0xffffffffffffffff\n        /* \"#utility.yul\":1476:1510   */\n      dup2\n      gt\n        /* \"#utility.yul\":1512:1534   */\n      dup3\n      dup3\n      lt\n        /* \"#utility.yul\":1473:1535   */\n      or\n        /* \"#utility.yul\":1470:1558   */\n      iszero\n      tag_429\n      jumpi\n        /* \"#utility.yul\":1538:1556   */\n      tag_429\n      tag_336\n      jump\t// in\n    tag_429:\n        /* \"#utility.yul\":1574:1578   */\n      0x40\n        /* \"#utility.yul\":1567:1591   */\n      mstore\n        /* \"#utility.yul\":1340:1597   */\n      swap1\n      jump\t// out\n        /* \"#utility.yul\":1602:1855   */\n    tag_405:\n        /* \"#utility.yul\":1674:1676   */\n      0x40\n        /* \"#utility.yul\":1668:1677   */\n      mload\n        /* \"#utility.yul\":1716:1720   */\n      0x60\n        /* \"#utility.yul\":1704:1721   */\n      dup2\n      add\n        /* \"#utility.yul\":1751:1769   */\n      0xffffffffffffffff\n        /* \"#utility.yul\":1736:1770   */\n      dup2\n      gt\n        /* \"#utility.yul\":1772:1794   */\n      dup3\n      dup3\n      lt\n        /* \"#utility.yul\":1733:1795   */\n      or\n        /* \"#utility.yul\":1730:1818   */\n      iszero\n      tag_429\n      jumpi\n        /* \"#utility.yul\":1798:1816   */\n      tag_429\n      tag_336\n      jump\t// in\n        /* \"#utility.yul\":1860:2135   */\n    tag_406:\n        /* \"#utility.yul\":1931:1933   */\n      0x40\n        /* \"#utility.yul\":1925:1934   */\n      mload\n        /* \"#utility.yul\":1996:1998   */\n      0x1f\n        /* \"#utility.yul\":1977:1990   */\n      dup3\n      add\n      not(0x1f)\n        /* \"#utility.yul\":1973:2000   */\n      and\n        /* \"#utility.yul\":1961:2001   */\n      dup2\n      add\n        /* \"#utility.yul\":2031:2049   */\n      0xffffffffffffffff\n        /* \"#utility.yul\":2016:2050   */\n      dup2\n      gt\n        /* \"#utility.yul\":2052:2074   */\n      dup3\n      dup3\n      lt\n        /* \"#utility.yul\":2013:2075   */\n      or\n        /* \"#utility.yul\":2010:2098   */\n      iszero\n      tag_435\n      jumpi\n        /* \"#utility.yul\":2078:2096   */\n      tag_435\n      tag_336\n      jump\t// in\n    tag_435:\n        /* \"#utility.yul\":2114:2116   */\n      0x40\n        /* \"#utility.yul\":2107:2129   */\n      mstore\n        /* \"#utility.yul\":1860:2135   */\n      swap2\n      swap1\n      pop\n      jump\t// out\n        /* \"#utility.yul\":2140:2323   */\n    tag_407:\n        /* \"#utility.yul\":2200:2204   */\n      0x00\n        /* \"#utility.yul\":2233:2251   */\n      0xffffffffffffffff\n        /* \"#utility.yul\":2225:2231   */\n      dup3\n        /* \"#utility.yul\":2222:2252   */\n      gt\n        /* \"#utility.yul\":2219:2275   */\n      iszero\n      tag_438\n      jumpi\n        /* \"#utility.yul\":2255:2273   */\n      tag_438\n      tag_336\n      jump\t// in\n    tag_438:\n      pop\n        /* \"#utility.yul\":2300:2301   */\n      0x05\n        /* \"#utility.yul\":2296:2310   */\n      shl\n        /* \"#utility.yul\":2312:2316   */\n      0x20\n        /* \"#utility.yul\":2292:2317   */\n      add\n      swap1\n        /* \"#utility.yul\":2140:2323   */\n      jump\t// out\n        /* \"#utility.yul\":2328:2501   */\n    tag_408:\n        /* \"#utility.yul\":2396:2416   */\n      dup1\n      calldataload\n      sub(shl(0xa0, 0x01), 0x01)\n        /* \"#utility.yul\":2445:2476   */\n      dup2\n      and\n        /* \"#utility.yul\":2435:2477   */\n      dup2\n      eq\n        /* \"#utility.yul\":2425:2495   */\n      tag_440\n      jumpi\n        /* \"#utility.yul\":2491:2492   */\n      0x00\n        /* \"#utility.yul\":2488:2489   */\n      dup1\n        /* \"#utility.yul\":2481:2493   */\n      revert\n        /* \"#utility.yul\":2425:2495   */\n    tag_440:\n        /* \"#utility.yul\":2328:2501   */\n      swap2\n      swap1\n      pop\n      jump\t// out\n        /* \"#utility.yul\":2506:3174   */\n    tag_409:\n        /* \"#utility.yul\":2560:2565   */\n      0x00\n        /* \"#utility.yul\":2613:2616   */\n      dup3\n        /* \"#utility.yul\":2606:2610   */\n      0x1f\n        /* \"#utility.yul\":2598:2604   */\n      dup4\n        /* \"#utility.yul\":2594:2611   */\n      add\n        /* \"#utility.yul\":2590:2617   */\n      slt\n        /* \"#utility.yul\":2580:2635   */\n      tag_442\n      jumpi\n        /* \"#utility.yul\":2631:2632   */\n      0x00\n        /* \"#utility.yul\":2628:2629   */\n      dup1\n        /* \"#utility.yul\":2621:2633   */\n      revert\n        /* \"#utility.yul\":2580:2635   */\n    tag_442:\n        /* \"#utility.yul\":2667:2673   */\n      dup2\n        /* \"#utility.yul\":2654:2674   */\n      calldataload\n        /* \"#utility.yul\":2693:2697   */\n      0x20\n        /* \"#utility.yul\":2717:2777   */\n      tag_443\n        /* \"#utility.yul\":2733:2776   */\n      tag_444\n        /* \"#utility.yul\":2773:2775   */\n      dup4\n        /* \"#utility.yul\":2733:2776   */\n      tag_407\n      jump\t// in\n    tag_444:\n        /* \"#utility.yul\":2717:2777   */\n      tag_406\n      jump\t// in\n    tag_443:\n        /* \"#utility.yul\":2799:2802   */\n      dup1\n        /* \"#utility.yul\":2823:2825   */\n      dup4\n        /* \"#utility.yul\":2818:2821   */\n      dup3\n        /* \"#utility.yul\":2811:2826   */\n      mstore\n        /* \"#utility.yul\":2851:2855   */\n      0x20\n        /* \"#utility.yul\":2846:2849   */\n      dup3\n        /* \"#utility.yul\":2842:2856   */\n      add\n        /* \"#utility.yul\":2835:2856   */\n      swap2\n      pop\n        /* \"#utility.yul\":2908:2912   */\n      0x20\n        /* \"#utility.yul\":2902:2904   */\n      dup5\n        /* \"#utility.yul\":2899:2900   */\n      0x05\n        /* \"#utility.yul\":2895:2905   */\n      shl\n        /* \"#utility.yul\":2887:2893   */\n      dup8\n        /* \"#utility.yul\":2883:2906   */\n      add\n        /* \"#utility.yul\":2879:2913   */\n      add\n        /* \"#utility.yul\":2865:2913   */\n      swap4\n      pop\n        /* \"#utility.yul\":2936:2939   */\n      dup7\n        /* \"#utility.yul\":2928:2934   */\n      dup5\n        /* \"#utility.yul\":2925:2940   */\n      gt\n        /* \"#utility.yul\":2922:2957   */\n      iszero\n      tag_445\n      jumpi\n        /* \"#utility.yul\":2953:2954   */\n      0x00\n        /* \"#utility.yul\":2950:2951   */\n      dup1\n        /* \"#utility.yul\":2943:2955   */\n      revert\n        /* \"#utility.yul\":2922:2957   */\n    tag_445:\n        /* \"#utility.yul\":2989:2993   */\n      0x20\n        /* \"#utility.yul\":2981:2987   */\n      dup7\n        /* \"#utility.yul\":2977:2994   */\n      add\n        /* \"#utility.yul\":3003:3145   */\n    tag_446:\n        /* \"#utility.yul\":3019:3025   */\n      dup5\n        /* \"#utility.yul\":3014:3017   */\n      dup2\n        /* \"#utility.yul\":3011:3026   */\n      lt\n        /* \"#utility.yul\":3003:3145   */\n      iszero\n      tag_448\n      jumpi\n        /* \"#utility.yul\":3085:3102   */\n      dup1\n      calldataload\n        /* \"#utility.yul\":3073:3103   */\n      dup4\n      mstore\n        /* \"#utility.yul\":3123:3135   */\n      swap2\n      dup4\n      add\n      swap2\n        /* \"#utility.yul\":3036:3048   */\n      dup4\n      add\n        /* \"#utility.yul\":3003:3145   */\n      jump(tag_446)\n    tag_448:\n      pop\n        /* \"#utility.yul\":3163:3168   */\n      swap7\n        /* \"#utility.yul\":2506:3174   */\n      swap6\n      pop\n      pop\n      pop\n      pop\n      pop\n      pop\n      jump\t// out\n        /* \"#utility.yul\":3179:4067   */\n    tag_410:\n        /* \"#utility.yul\":3250:3255   */\n      0x00\n        /* \"#utility.yul\":3303:3306   */\n      dup3\n        /* \"#utility.yul\":3296:3300   */\n      0x1f\n        /* \"#utility.yul\":3288:3294   */\n      dup4\n        /* \"#utility.yul\":3284:3301   */\n      add\n        /* \"#utility.yul\":3280:3307   */\n      slt\n        /* \"#utility.yul\":3270:3325   */\n      tag_450\n      jumpi\n        /* \"#utility.yul\":3321:3322   */\n      0x00\n        /* \"#utility.yul\":3318:3319   */\n      dup1\n        /* \"#utility.yul\":3311:3323   */\n      revert\n        /* \"#utility.yul\":3270:3325   */\n    tag_450:\n        /* \"#utility.yul\":3357:3363   */\n      dup2\n        /* \"#utility.yul\":3344:3364   */\n      calldataload\n        /* \"#utility.yul\":3383:3387   */\n      0x20\n        /* \"#utility.yul\":3407:3467   */\n      tag_451\n        /* \"#utility.yul\":3423:3466   */\n      tag_444\n        /* \"#utility.yul\":3463:3465   */\n      dup4\n        /* \"#utility.yul\":3423:3466   */\n      tag_407\n      jump\t// in\n        /* \"#utility.yul\":3407:3467   */\n    tag_451:\n        /* \"#utility.yul\":3501:3516   */\n      dup3\n      dup2\n      mstore\n        /* \"#utility.yul\":3587:3588   */\n      0x06\n        /* \"#utility.yul\":3583:3593   */\n      swap3\n      swap1\n      swap3\n      shl\n        /* \"#utility.yul\":3571:3594   */\n      dup5\n      add\n        /* \"#utility.yul\":3567:3599   */\n      dup2\n      add\n      swap2\n        /* \"#utility.yul\":3532:3544   */\n      dup2\n      dup2\n      add\n      swap1\n        /* \"#utility.yul\":3611:3626   */\n      dup7\n      dup5\n      gt\n        /* \"#utility.yul\":3608:3643   */\n      iszero\n      tag_453\n      jumpi\n        /* \"#utility.yul\":3639:3640   */\n      0x00\n        /* \"#utility.yul\":3636:3637   */\n      dup1\n        /* \"#utility.yul\":3629:3641   */\n      revert\n        /* \"#utility.yul\":3608:3643   */\n    tag_453:\n        /* \"#utility.yul\":3675:3677   */\n      dup3\n        /* \"#utility.yul\":3667:3673   */\n      dup7\n        /* \"#utility.yul\":3663:3678   */\n      add\n        /* \"#utility.yul\":3687:4038   */\n    tag_454:\n        /* \"#utility.yul\":3703:3709   */\n      dup5\n        /* \"#utility.yul\":3698:3701   */\n      dup2\n        /* \"#utility.yul\":3695:3710   */\n      lt\n        /* \"#utility.yul\":3687:4038   */\n      iszero\n      tag_448\n      jumpi\n        /* \"#utility.yul\":3781:3785   */\n      0x40\n        /* \"#utility.yul\":3775:3778   */\n      dup2\n        /* \"#utility.yul\":3770:3773   */\n      dup10\n        /* \"#utility.yul\":3766:3779   */\n      sub\n        /* \"#utility.yul\":3762:3786   */\n      slt\n        /* \"#utility.yul\":3759:3803   */\n      iszero\n      tag_457\n      jumpi\n        /* \"#utility.yul\":3799:3800   */\n      0x00\n        /* \"#utility.yul\":3796:3797   */\n      dup1\n        /* \"#utility.yul\":3789:3801   */\n      revert\n        /* \"#utility.yul\":3759:3803   */\n    tag_457:\n        /* \"#utility.yul\":3829:3851   */\n      tag_458\n      tag_404\n      jump\t// in\n    tag_458:\n        /* \"#utility.yul\":3878:3901   */\n      tag_459\n        /* \"#utility.yul\":3897:3900   */\n      dup3\n        /* \"#utility.yul\":3878:3901   */\n      tag_408\n      jump\t// in\n    tag_459:\n        /* \"#utility.yul\":3864:3902   */\n      dup2\n      mstore\n        /* \"#utility.yul\":3951:3963   */\n      dup2\n      dup6\n      add\n        /* \"#utility.yul\":3938:3964   */\n      calldataload\n        /* \"#utility.yul\":3922:3936   */\n      dup6\n      dup3\n      add\n        /* \"#utility.yul\":3915:3965   */\n      mstore\n        /* \"#utility.yul\":3978:3996   */\n      dup4\n      mstore\n        /* \"#utility.yul\":4016:4028   */\n      swap2\n      dup4\n      add\n      swap2\n        /* \"#utility.yul\":3729:3733   */\n      0x40\n        /* \"#utility.yul\":3720:3734   */\n      add\n        /* \"#utility.yul\":3687:4038   */\n      jump(tag_454)\n        /* \"#utility.yul\":4072:5074   */\n    tag_411:\n        /* \"#utility.yul\":4141:4146   */\n      0x00\n        /* \"#utility.yul\":4194:4197   */\n      dup3\n        /* \"#utility.yul\":4187:4191   */\n      0x1f\n        /* \"#utility.yul\":4179:4185   */\n      dup4\n        /* \"#utility.yul\":4175:4192   */\n      add\n        /* \"#utility.yul\":4171:4198   */\n      slt\n        /* \"#utility.yul\":4161:4216   */\n      tag_461\n      jumpi\n        /* \"#utility.yul\":4212:4213   */\n      0x00\n        /* \"#utility.yul\":4209:4210   */\n      dup1\n        /* \"#utility.yul\":4202:4214   */\n      revert\n        /* \"#utility.yul\":4161:4216   */\n    tag_461:\n        /* \"#utility.yul\":4248:4254   */\n      dup2\n        /* \"#utility.yul\":4235:4255   */\n      calldataload\n        /* \"#utility.yul\":4274:4278   */\n      0x20\n        /* \"#utility.yul\":4298:4358   */\n      tag_462\n        /* \"#utility.yul\":4314:4357   */\n      tag_444\n        /* \"#utility.yul\":4354:4356   */\n      dup4\n        /* \"#utility.yul\":4314:4357   */\n      tag_407\n      jump\t// in\n        /* \"#utility.yul\":4298:4358   */\n    tag_462:\n        /* \"#utility.yul\":4392:4407   */\n      dup3\n      dup2\n      mstore\n        /* \"#utility.yul\":4454:4458   */\n      0x60\n        /* \"#utility.yul\":4497:4510   */\n      swap3\n      dup4\n      mul\n        /* \"#utility.yul\":4485:4511   */\n      dup6\n      add\n        /* \"#utility.yul\":4481:4516   */\n      dup3\n      add\n      swap3\n        /* \"#utility.yul\":4423:4435   */\n      dup3\n      dup3\n      add\n      swap2\n        /* \"#utility.yul\":4380:4383   */\n      swap1\n        /* \"#utility.yul\":4528:4543   */\n      dup8\n      dup6\n      gt\n        /* \"#utility.yul\":4525:4560   */\n      iszero\n      tag_464\n      jumpi\n        /* \"#utility.yul\":4556:4557   */\n      0x00\n        /* \"#utility.yul\":4553:4554   */\n      dup1\n        /* \"#utility.yul\":4546:4558   */\n      revert\n        /* \"#utility.yul\":4525:4560   */\n    tag_464:\n        /* \"#utility.yul\":4592:4594   */\n      dup4\n        /* \"#utility.yul\":4584:4590   */\n      dup8\n        /* \"#utility.yul\":4580:4595   */\n      add\n        /* \"#utility.yul\":4604:5045   */\n    tag_465:\n        /* \"#utility.yul\":4620:4626   */\n      dup6\n        /* \"#utility.yul\":4615:4618   */\n      dup2\n        /* \"#utility.yul\":4612:4627   */\n      lt\n        /* \"#utility.yul\":4604:5045   */\n      iszero\n      tag_467\n      jumpi\n        /* \"#utility.yul\":4696:4698   */\n      dup2\n        /* \"#utility.yul\":4690:4693   */\n      dup2\n        /* \"#utility.yul\":4685:4688   */\n      dup11\n        /* \"#utility.yul\":4681:4694   */\n      sub\n        /* \"#utility.yul\":4677:4699   */\n      slt\n        /* \"#utility.yul\":4674:4716   */\n      iszero\n      tag_468\n      jumpi\n        /* \"#utility.yul\":4712:4713   */\n      0x00\n        /* \"#utility.yul\":4709:4710   */\n      dup1\n        /* \"#utility.yul\":4702:4714   */\n      revert\n        /* \"#utility.yul\":4674:4716   */\n    tag_468:\n        /* \"#utility.yul\":4742:4764   */\n      tag_469\n      tag_405\n      jump\t// in\n    tag_469:\n        /* \"#utility.yul\":4791:4814   */\n      tag_470\n        /* \"#utility.yul\":4810:4813   */\n      dup3\n        /* \"#utility.yul\":4791:4814   */\n      tag_408\n      jump\t// in\n    tag_470:\n        /* \"#utility.yul\":4784:4789   */\n      dup2\n        /* \"#utility.yul\":4777:4815   */\n      mstore\n        /* \"#utility.yul\":4873:4875   */\n      dup6\n        /* \"#utility.yul\":4868:4871   */\n      dup3\n        /* \"#utility.yul\":4864:4876   */\n      add\n        /* \"#utility.yul\":4851:4877   */\n      calldataload\n        /* \"#utility.yul\":4846:4848   */\n      dup7\n        /* \"#utility.yul\":4839:4844   */\n      dup3\n        /* \"#utility.yul\":4835:4849   */\n      add\n        /* \"#utility.yul\":4828:4878   */\n      mstore\n        /* \"#utility.yul\":4901:4903   */\n      0x40\n        /* \"#utility.yul\":4939:4971   */\n      tag_471\n        /* \"#utility.yul\":4967:4969   */\n      dup2\n        /* \"#utility.yul\":4962:4965   */\n      dup5\n        /* \"#utility.yul\":4958:4970   */\n      add\n        /* \"#utility.yul\":4939:4971   */\n      tag_408\n      jump\t// in\n    tag_471:\n        /* \"#utility.yul\":4923:4937   */\n      swap1\n      dup3\n      add\n        /* \"#utility.yul\":4916:4972   */\n      mstore\n        /* \"#utility.yul\":4985:5003   */\n      dup5\n      mstore\n        /* \"#utility.yul\":5023:5035   */\n      swap3\n      dup5\n      add\n      swap3\n        /* \"#utility.yul\":4637:4649   */\n      dup2\n      add\n        /* \"#utility.yul\":4604:5045   */\n      jump(tag_465)\n    tag_467:\n      pop\n        /* \"#utility.yul\":5063:5068   */\n      swap1\n      swap8\n        /* \"#utility.yul\":4072:5074   */\n      swap7\n      pop\n      pop\n      pop\n      pop\n      pop\n      pop\n      pop\n      jump\t// out\n        /* \"#utility.yul\":5079:6776   */\n    tag_71:\n        /* \"#utility.yul\":5331:5337   */\n      0x00\n        /* \"#utility.yul\":5339:5345   */\n      dup1\n        /* \"#utility.yul\":5347:5353   */\n      0x00\n        /* \"#utility.yul\":5355:5361   */\n      dup1\n        /* \"#utility.yul\":5408:5411   */\n      0x80\n        /* \"#utility.yul\":5396:5405   */\n      dup6\n        /* \"#utility.yul\":5387:5394   */\n      dup8\n        /* \"#utility.yul\":5383:5406   */\n      sub\n        /* \"#utility.yul\":5379:5412   */\n      slt\n        /* \"#utility.yul\":5376:5429   */\n      iszero\n      tag_473\n      jumpi\n        /* \"#utility.yul\":5425:5426   */\n      0x00\n        /* \"#utility.yul\":5422:5423   */\n      dup1\n        /* \"#utility.yul\":5415:5427   */\n      revert\n        /* \"#utility.yul\":5376:5429   */\n    tag_473:\n        /* \"#utility.yul\":5465:5474   */\n      dup5\n        /* \"#utility.yul\":5452:5475   */\n      calldataload\n        /* \"#utility.yul\":5494:5512   */\n      0xffffffffffffffff\n        /* \"#utility.yul\":5535:5537   */\n      dup1\n        /* \"#utility.yul\":5527:5533   */\n      dup3\n        /* \"#utility.yul\":5524:5538   */\n      gt\n        /* \"#utility.yul\":5521:5555   */\n      iszero\n      tag_474\n      jumpi\n        /* \"#utility.yul\":5551:5552   */\n      0x00\n        /* \"#utility.yul\":5548:5549   */\n      dup1\n        /* \"#utility.yul\":5541:5553   */\n      revert\n        /* \"#utility.yul\":5521:5555   */\n    tag_474:\n        /* \"#utility.yul\":5589:5595   */\n      dup2\n        /* \"#utility.yul\":5578:5587   */\n      dup8\n        /* \"#utility.yul\":5574:5596   */\n      add\n        /* \"#utility.yul\":5564:5596   */\n      swap2\n      pop\n        /* \"#utility.yul\":5634:5641   */\n      dup8\n        /* \"#utility.yul\":5627:5631   */\n      0x1f\n        /* \"#utility.yul\":5623:5625   */\n      dup4\n        /* \"#utility.yul\":5619:5632   */\n      add\n        /* \"#utility.yul\":5615:5642   */\n      slt\n        /* \"#utility.yul\":5605:5660   */\n      tag_475\n      jumpi\n        /* \"#utility.yul\":5656:5657   */\n      0x00\n        /* \"#utility.yul\":5653:5654   */\n      dup1\n        /* \"#utility.yul\":5646:5658   */\n      revert\n        /* \"#utility.yul\":5605:5660   */\n    tag_475:\n        /* \"#utility.yul\":5692:5694   */\n      dup2\n        /* \"#utility.yul\":5679:5695   */\n      calldataload\n        /* \"#utility.yul\":5714:5718   */\n      0x20\n        /* \"#utility.yul\":5738:5798   */\n      tag_476\n        /* \"#utility.yul\":5754:5797   */\n      tag_444\n        /* \"#utility.yul\":5794:5796   */\n      dup4\n        /* \"#utility.yul\":5754:5797   */\n      tag_407\n      jump\t// in\n        /* \"#utility.yul\":5738:5798   */\n    tag_476:\n        /* \"#utility.yul\":5832:5847   */\n      dup3\n      dup2\n      mstore\n        /* \"#utility.yul\":5914:5915   */\n      0x05\n        /* \"#utility.yul\":5910:5920   */\n      swap3\n      swap1\n      swap3\n      shl\n        /* \"#utility.yul\":5902:5921   */\n      dup5\n      add\n        /* \"#utility.yul\":5898:5926   */\n      dup2\n      add\n      swap2\n        /* \"#utility.yul\":5863:5875   */\n      dup2\n      dup2\n      add\n      swap1\n        /* \"#utility.yul\":5938:5957   */\n      dup12\n      dup5\n      gt\n        /* \"#utility.yul\":5935:5974   */\n      iszero\n      tag_478\n      jumpi\n        /* \"#utility.yul\":5970:5971   */\n      0x00\n        /* \"#utility.yul\":5967:5968   */\n      dup1\n        /* \"#utility.yul\":5960:5972   */\n      revert\n        /* \"#utility.yul\":5935:5974   */\n    tag_478:\n        /* \"#utility.yul\":5994:6005   */\n      swap5\n      dup3\n      add\n      swap5\n        /* \"#utility.yul\":6014:6162   */\n    tag_479:\n        /* \"#utility.yul\":6030:6036   */\n      dup4\n        /* \"#utility.yul\":6025:6028   */\n      dup7\n        /* \"#utility.yul\":6022:6037   */\n      lt\n        /* \"#utility.yul\":6014:6162   */\n      iszero\n      tag_481\n      jumpi\n        /* \"#utility.yul\":6096:6119   */\n      tag_482\n        /* \"#utility.yul\":6115:6118   */\n      dup7\n        /* \"#utility.yul\":6096:6119   */\n      tag_408\n      jump\t// in\n    tag_482:\n        /* \"#utility.yul\":6084:6120   */\n      dup3\n      mstore\n        /* \"#utility.yul\":6047:6059   */\n      swap5\n      dup3\n      add\n      swap5\n        /* \"#utility.yul\":6140:6152   */\n      swap1\n      dup3\n      add\n      swap1\n        /* \"#utility.yul\":6014:6162   */\n      jump(tag_479)\n    tag_481:\n        /* \"#utility.yul\":6181:6186   */\n      swap9\n      pop\n      pop\n        /* \"#utility.yul\":6224:6242   */\n      dup9\n      add\n        /* \"#utility.yul\":6211:6243   */\n      calldataload\n      swap3\n      pop\n      pop\n        /* \"#utility.yul\":6255:6271   */\n      dup1\n      dup3\n      gt\n        /* \"#utility.yul\":6252:6288   */\n      iszero\n      tag_483\n      jumpi\n        /* \"#utility.yul\":6284:6285   */\n      0x00\n        /* \"#utility.yul\":6281:6282   */\n      dup1\n        /* \"#utility.yul\":6274:6286   */\n      revert\n        /* \"#utility.yul\":6252:6288   */\n    tag_483:\n        /* \"#utility.yul\":6307:6370   */\n      tag_484\n        /* \"#utility.yul\":6362:6369   */\n      dup9\n        /* \"#utility.yul\":6351:6359   */\n      dup4\n        /* \"#utility.yul\":6340:6349   */\n      dup10\n        /* \"#utility.yul\":6336:6360   */\n      add\n        /* \"#utility.yul\":6307:6370   */\n      tag_409\n      jump\t// in\n    tag_484:\n        /* \"#utility.yul\":6297:6370   */\n      swap5\n      pop\n        /* \"#utility.yul\":6423:6425   */\n      0x40\n        /* \"#utility.yul\":6412:6421   */\n      dup8\n        /* \"#utility.yul\":6408:6426   */\n      add\n        /* \"#utility.yul\":6395:6427   */\n      calldataload\n        /* \"#utility.yul\":6379:6427   */\n      swap2\n      pop\n        /* \"#utility.yul\":6452:6454   */\n      dup1\n        /* \"#utility.yul\":6442:6450   */\n      dup3\n        /* \"#utility.yul\":6439:6455   */\n      gt\n        /* \"#utility.yul\":6436:6472   */\n      iszero\n      tag_485\n      jumpi\n        /* \"#utility.yul\":6468:6469   */\n      0x00\n        /* \"#utility.yul\":6465:6466   */\n      dup1\n        /* \"#utility.yul\":6458:6470   */\n      revert\n        /* \"#utility.yul\":6436:6472   */\n    tag_485:\n        /* \"#utility.yul\":6491:6571   */\n      tag_486\n        /* \"#utility.yul\":6563:6570   */\n      dup9\n        /* \"#utility.yul\":6552:6560   */\n      dup4\n        /* \"#utility.yul\":6541:6550   */\n      dup10\n        /* \"#utility.yul\":6537:6561   */\n      add\n        /* \"#utility.yul\":6491:6571   */\n      tag_410\n      jump\t// in\n    tag_486:\n        /* \"#utility.yul\":6481:6571   */\n      swap4\n      pop\n        /* \"#utility.yul\":6624:6626   */\n      0x60\n        /* \"#utility.yul\":6613:6622   */\n      dup8\n        /* \"#utility.yul\":6609:6627   */\n      add\n        /* \"#utility.yul\":6596:6628   */\n      calldataload\n        /* \"#utility.yul\":6580:6628   */\n      swap2\n      pop\n        /* \"#utility.yul\":6653:6655   */\n      dup1\n        /* \"#utility.yul\":6643:6651   */\n      dup3\n        /* \"#utility.yul\":6640:6656   */\n      gt\n        /* \"#utility.yul\":6637:6673   */\n      iszero\n      tag_487\n      jumpi\n        /* \"#utility.yul\":6669:6670   */\n      0x00\n        /* \"#utility.yul\":6666:6667   */\n      dup1\n        /* \"#utility.yul\":6659:6671   */\n      revert\n        /* \"#utility.yul\":6637:6673   */\n    tag_487:\n      pop\n        /* \"#utility.yul\":6692:6770   */\n      tag_488\n        /* \"#utility.yul\":6762:6769   */\n      dup8\n        /* \"#utility.yul\":6751:6759   */\n      dup3\n        /* \"#utility.yul\":6740:6749   */\n      dup9\n        /* \"#utility.yul\":6736:6760   */\n      add\n        /* \"#utility.yul\":6692:6770   */\n      tag_411\n      jump\t// in\n    tag_488:\n        /* \"#utility.yul\":6682:6770   */\n      swap2\n      pop\n      pop\n        /* \"#utility.yul\":5079:6776   */\n      swap3\n      swap6\n      swap2\n      swap5\n      pop\n      swap3\n      pop\n      jump\t// out\n        /* \"#utility.yul\":6781:7246   */\n    tag_412:\n        /* \"#utility.yul\":6834:6837   */\n      0x00\n        /* \"#utility.yul\":6872:6877   */\n      dup2\n        /* \"#utility.yul\":6866:6878   */\n      mload\n        /* \"#utility.yul\":6899:6905   */\n      dup1\n        /* \"#utility.yul\":6894:6897   */\n      dup5\n        /* \"#utility.yul\":6887:6906   */\n      mstore\n        /* \"#utility.yul\":6925:6929   */\n      0x20\n        /* \"#utility.yul\":6954:6958   */\n      dup1\n        /* \"#utility.yul\":6949:6952   */\n      dup6\n        /* \"#utility.yul\":6945:6959   */\n      add\n        /* \"#utility.yul\":6938:6959   */\n      swap5\n      pop\n        /* \"#utility.yul\":6993:6997   */\n      0x20\n        /* \"#utility.yul\":6986:6991   */\n      dup5\n        /* \"#utility.yul\":6982:6998   */\n      add\n        /* \"#utility.yul\":7016:7017   */\n      0x00\n        /* \"#utility.yul\":7026:7221   */\n    tag_490:\n        /* \"#utility.yul\":7040:7046   */\n      dup4\n        /* \"#utility.yul\":7037:7038   */\n      dup2\n        /* \"#utility.yul\":7034:7047   */\n      lt\n        /* \"#utility.yul\":7026:7221   */\n      iszero\n      tag_492\n      jumpi\n        /* \"#utility.yul\":7105:7118   */\n      dup2\n      mload\n      sub(shl(0xa0, 0x01), 0x01)\n        /* \"#utility.yul\":7101:7140   */\n      and\n        /* \"#utility.yul\":7089:7141   */\n      dup8\n      mstore\n        /* \"#utility.yul\":7161:7173   */\n      swap6\n      dup3\n      add\n      swap6\n        /* \"#utility.yul\":7196:7211   */\n      swap1\n      dup3\n      add\n      swap1\n        /* \"#utility.yul\":7137:7138   */\n      0x01\n        /* \"#utility.yul\":7055:7064   */\n      add\n        /* \"#utility.yul\":7026:7221   */\n      jump(tag_490)\n    tag_492:\n      pop\n        /* \"#utility.yul\":7237:7240   */\n      swap5\n      swap6\n        /* \"#utility.yul\":6781:7246   */\n      swap5\n      pop\n      pop\n      pop\n      pop\n      pop\n      jump\t// out\n        /* \"#utility.yul\":7251:7690   */\n    tag_413:\n        /* \"#utility.yul\":7304:7307   */\n      0x00\n        /* \"#utility.yul\":7342:7347   */\n      dup2\n        /* \"#utility.yul\":7336:7348   */\n      mload\n        /* \"#utility.yul\":7369:7375   */\n      dup1\n        /* \"#utility.yul\":7364:7367   */\n      dup5\n        /* \"#utility.yul\":7357:7376   */\n      mstore\n        /* \"#utility.yul\":7395:7399   */\n      0x20\n        /* \"#utility.yul\":7424:7428   */\n      dup1\n        /* \"#utility.yul\":7419:7422   */\n      dup6\n        /* \"#utility.yul\":7415:7429   */\n      add\n        /* \"#utility.yul\":7408:7429   */\n      swap5\n      pop\n        /* \"#utility.yul\":7463:7467   */\n      0x20\n        /* \"#utility.yul\":7456:7461   */\n      dup5\n        /* \"#utility.yul\":7452:7468   */\n      add\n        /* \"#utility.yul\":7486:7487   */\n      0x00\n        /* \"#utility.yul\":7496:7665   */\n    tag_494:\n        /* \"#utility.yul\":7510:7516   */\n      dup4\n        /* \"#utility.yul\":7507:7508   */\n      dup2\n        /* \"#utility.yul\":7504:7517   */\n      lt\n        /* \"#utility.yul\":7496:7665   */\n      iszero\n      tag_492\n      jumpi\n        /* \"#utility.yul\":7571:7584   */\n      dup2\n      mload\n        /* \"#utility.yul\":7559:7585   */\n      dup8\n      mstore\n        /* \"#utility.yul\":7605:7617   */\n      swap6\n      dup3\n      add\n      swap6\n        /* \"#utility.yul\":7640:7655   */\n      swap1\n      dup3\n      add\n      swap1\n        /* \"#utility.yul\":7532:7533   */\n      0x01\n        /* \"#utility.yul\":7525:7534   */\n      add\n        /* \"#utility.yul\":7496:7665   */\n      jump(tag_494)\n        /* \"#utility.yul\":7695:8258   */\n    tag_414:\n        /* \"#utility.yul\":7759:7762   */\n      0x00\n        /* \"#utility.yul\":7797:7802   */\n      dup2\n        /* \"#utility.yul\":7791:7803   */\n      mload\n        /* \"#utility.yul\":7824:7830   */\n      dup1\n        /* \"#utility.yul\":7819:7822   */\n      dup5\n        /* \"#utility.yul\":7812:7831   */\n      mstore\n        /* \"#utility.yul\":7850:7854   */\n      0x20\n        /* \"#utility.yul\":7879:7883   */\n      dup1\n        /* \"#utility.yul\":7874:7877   */\n      dup6\n        /* \"#utility.yul\":7870:7884   */\n      add\n        /* \"#utility.yul\":7863:7884   */\n      swap5\n      pop\n        /* \"#utility.yul\":7918:7922   */\n      0x20\n        /* \"#utility.yul\":7911:7916   */\n      dup5\n        /* \"#utility.yul\":7907:7923   */\n      add\n        /* \"#utility.yul\":7941:7942   */\n      0x00\n        /* \"#utility.yul\":7951:8233   */\n    tag_498:\n        /* \"#utility.yul\":7965:7971   */\n      dup4\n        /* \"#utility.yul\":7962:7963   */\n      dup2\n        /* \"#utility.yul\":7959:7972   */\n      lt\n        /* \"#utility.yul\":7951:8233   */\n      iszero\n      tag_492\n      jumpi\n        /* \"#utility.yul\":8024:8037   */\n      dup2\n      mload\n        /* \"#utility.yul\":8066:8075   */\n      dup1\n      mload\n      sub(shl(0xa0, 0x01), 0x01)\n        /* \"#utility.yul\":8062:8097   */\n      and\n        /* \"#utility.yul\":8050:8098   */\n      dup9\n      mstore\n        /* \"#utility.yul\":8138:8149   */\n      dup4\n      add\n        /* \"#utility.yul\":8132:8150   */\n      mload\n        /* \"#utility.yul\":8118:8130   */\n      dup4\n      dup9\n      add\n        /* \"#utility.yul\":8111:8151   */\n      mstore\n        /* \"#utility.yul\":8180:8184   */\n      0x40\n        /* \"#utility.yul\":8171:8185   */\n      swap1\n      swap7\n      add\n      swap6\n        /* \"#utility.yul\":8208:8223   */\n      swap1\n      dup3\n      add\n      swap1\n        /* \"#utility.yul\":8094:8095   */\n      0x01\n        /* \"#utility.yul\":7980:7989   */\n      add\n        /* \"#utility.yul\":7951:8233   */\n      jump(tag_498)\n        /* \"#utility.yul\":8263:8941   */\n    tag_415:\n        /* \"#utility.yul\":8328:8331   */\n      0x00\n        /* \"#utility.yul\":8366:8371   */\n      dup2\n        /* \"#utility.yul\":8360:8372   */\n      mload\n        /* \"#utility.yul\":8393:8399   */\n      dup1\n        /* \"#utility.yul\":8388:8391   */\n      dup5\n        /* \"#utility.yul\":8381:8400   */\n      mstore\n        /* \"#utility.yul\":8419:8423   */\n      0x20\n        /* \"#utility.yul\":8448:8452   */\n      dup1\n        /* \"#utility.yul\":8443:8446   */\n      dup6\n        /* \"#utility.yul\":8439:8453   */\n      add\n        /* \"#utility.yul\":8432:8453   */\n      swap5\n      pop\n        /* \"#utility.yul\":8487:8491   */\n      0x20\n        /* \"#utility.yul\":8480:8485   */\n      dup5\n        /* \"#utility.yul\":8476:8492   */\n      add\n        /* \"#utility.yul\":8510:8511   */\n      0x00\n        /* \"#utility.yul\":8520:8916   */\n    tag_502:\n        /* \"#utility.yul\":8534:8540   */\n      dup4\n        /* \"#utility.yul\":8531:8532   */\n      dup2\n        /* \"#utility.yul\":8528:8541   */\n      lt\n        /* \"#utility.yul\":8520:8916   */\n      iszero\n      tag_492\n      jumpi\n        /* \"#utility.yul\":8593:8606   */\n      dup2\n      mload\n        /* \"#utility.yul\":8677:8686   */\n      dup1\n      mload\n      sub(shl(0xa0, 0x01), 0x01)\n        /* \"#utility.yul\":8673:8691   */\n      swap1\n      dup2\n      and\n        /* \"#utility.yul\":8661:8692   */\n      dup10\n      mstore\n        /* \"#utility.yul\":8732:8743   */\n      dup5\n      dup3\n      add\n        /* \"#utility.yul\":8726:8744   */\n      mload\n        /* \"#utility.yul\":8712:8724   */\n      dup6\n      dup11\n      add\n        /* \"#utility.yul\":8705:8745   */\n      mstore\n        /* \"#utility.yul\":8768:8772   */\n      0x40\n        /* \"#utility.yul\":8816:8827   */\n      swap2\n      dup3\n      add\n        /* \"#utility.yul\":8810:8828   */\n      mload\n        /* \"#utility.yul\":8806:8833   */\n      and\n        /* \"#utility.yul\":8792:8804   */\n      swap1\n      dup9\n      add\n        /* \"#utility.yul\":8785:8834   */\n      mstore\n        /* \"#utility.yul\":8863:8867   */\n      0x60\n        /* \"#utility.yul\":8854:8868   */\n      swap1\n      swap7\n      add\n      swap6\n        /* \"#utility.yul\":8891:8906   */\n      swap1\n      dup3\n      add\n      swap1\n        /* \"#utility.yul\":8646:8647   */\n      0x01\n        /* \"#utility.yul\":8549:8558   */\n      add\n        /* \"#utility.yul\":8520:8916   */\n      jump(tag_502)\n        /* \"#utility.yul\":8946:10489   */\n    tag_82:\n        /* \"#utility.yul\":9131:9133   */\n      0x20\n        /* \"#utility.yul\":9120:9129   */\n      dup2\n        /* \"#utility.yul\":9113:9134   */\n      mstore\n        /* \"#utility.yul\":9143:9196   */\n      tag_506\n        /* \"#utility.yul\":9192:9194   */\n      0x20\n        /* \"#utility.yul\":9181:9190   */\n      dup3\n        /* \"#utility.yul\":9177:9195   */\n      add\n        /* \"#utility.yul\":9168:9174   */\n      dup4\n        /* \"#utility.yul\":9162:9175   */\n      mload\n      sub(shl(0xa0, 0x01), 0x01)\n        /* \"#utility.yul\":265:296   */\n      and\n        /* \"#utility.yul\":253:297   */\n      swap1\n      mstore\n        /* \"#utility.yul\":199:303   */\n      jump\n        /* \"#utility.yul\":9143:9196   */\n    tag_506:\n        /* \"#utility.yul\":9250:9252   */\n      0x20\n        /* \"#utility.yul\":9242:9248   */\n      dup3\n        /* \"#utility.yul\":9238:9253   */\n      add\n        /* \"#utility.yul\":9232:9254   */\n      mload\n        /* \"#utility.yul\":9227:9229   */\n      0x40\n        /* \"#utility.yul\":9216:9225   */\n      dup3\n        /* \"#utility.yul\":9212:9230   */\n      add\n        /* \"#utility.yul\":9205:9255   */\n      mstore\n        /* \"#utility.yul\":9309:9311   */\n      0x40\n        /* \"#utility.yul\":9301:9307   */\n      dup3\n        /* \"#utility.yul\":9297:9312   */\n      add\n        /* \"#utility.yul\":9291:9313   */\n      mload\n        /* \"#utility.yul\":9286:9288   */\n      0x60\n        /* \"#utility.yul\":9275:9284   */\n      dup3\n        /* \"#utility.yul\":9271:9289   */\n      add\n        /* \"#utility.yul\":9264:9314   */\n      mstore\n        /* \"#utility.yul\":9094:9098   */\n      0x00\n        /* \"#utility.yul\":9361:9363   */\n      0x60\n        /* \"#utility.yul\":9353:9359   */\n      dup4\n        /* \"#utility.yul\":9349:9364   */\n      add\n        /* \"#utility.yul\":9343:9365   */\n      mload\n        /* \"#utility.yul\":9374:9424   */\n      tag_507\n        /* \"#utility.yul\":9419:9422   */\n      0x80\n        /* \"#utility.yul\":9408:9417   */\n      dup5\n        /* \"#utility.yul\":9404:9423   */\n      add\n        /* \"#utility.yul\":9390:9402   */\n      dup3\n        /* \"#utility.yul\":768:781   */\n      iszero\n        /* \"#utility.yul\":761:782   */\n      iszero\n        /* \"#utility.yul\":749:783   */\n      swap1\n      mstore\n        /* \"#utility.yul\":698:789   */\n      jump\n        /* \"#utility.yul\":9374:9424   */\n    tag_507:\n      pop\n        /* \"#utility.yul\":9473:9476   */\n      0x80\n        /* \"#utility.yul\":9461:9477   */\n      dup4\n      add\n        /* \"#utility.yul\":9455:9478   */\n      mload\n        /* \"#utility.yul\":768:781   */\n      dup1\n      iszero\n        /* \"#utility.yul\":761:782   */\n      iszero\n        /* \"#utility.yul\":9534:9537   */\n      0xa0\n        /* \"#utility.yul\":9519:9538   */\n      dup5\n      add\n        /* \"#utility.yul\":749:783   */\n      mstore\n        /* \"#utility.yul\":9487:9539   */\n      pop\n        /* \"#utility.yul\":9594:9597   */\n      0xa0\n        /* \"#utility.yul\":9586:9592   */\n      dup4\n        /* \"#utility.yul\":9582:9598   */\n      add\n        /* \"#utility.yul\":9576:9599   */\n      mload\n        /* \"#utility.yul\":9570:9573   */\n      0xc0\n        /* \"#utility.yul\":9559:9568   */\n      dup4\n        /* \"#utility.yul\":9555:9574   */\n      add\n        /* \"#utility.yul\":9548:9600   */\n      mstore\n        /* \"#utility.yul\":9649:9652   */\n      0xc0\n        /* \"#utility.yul\":9641:9647   */\n      dup4\n        /* \"#utility.yul\":9637:9653   */\n      add\n        /* \"#utility.yul\":9631:9654   */\n      mload\n        /* \"#utility.yul\":9673:9679   */\n      0x0140\n        /* \"#utility.yul\":9716:9718   */\n      dup1\n        /* \"#utility.yul\":9710:9713   */\n      0xe0\n        /* \"#utility.yul\":9699:9708   */\n      dup6\n        /* \"#utility.yul\":9695:9714   */\n      add\n        /* \"#utility.yul\":9688:9719   */\n      mstore\n        /* \"#utility.yul\":9742:9807   */\n      tag_509\n        /* \"#utility.yul\":9802:9805   */\n      0x0160\n        /* \"#utility.yul\":9791:9800   */\n      dup6\n        /* \"#utility.yul\":9787:9806   */\n      add\n        /* \"#utility.yul\":9771:9785   */\n      dup4\n        /* \"#utility.yul\":9742:9807   */\n      tag_412\n      jump\t// in\n    tag_509:\n        /* \"#utility.yul\":9728:9807   */\n      swap2\n      pop\n        /* \"#utility.yul\":9856:9859   */\n      0xe0\n        /* \"#utility.yul\":9848:9854   */\n      dup6\n        /* \"#utility.yul\":9844:9860   */\n      add\n        /* \"#utility.yul\":9838:9861   */\n      mload\n        /* \"#utility.yul\":9884:9886   */\n      0x1f\n        /* \"#utility.yul\":9880:9887   */\n      not\n        /* \"#utility.yul\":9906:9909   */\n      0x0100\n        /* \"#utility.yul\":9973:9975   */\n      dup2\n        /* \"#utility.yul\":9961:9970   */\n      dup8\n        /* \"#utility.yul\":9953:9959   */\n      dup7\n        /* \"#utility.yul\":9949:9971   */\n      sub\n        /* \"#utility.yul\":9945:9976   */\n      add\n        /* \"#utility.yul\":9940:9942   */\n      dup2\n        /* \"#utility.yul\":9929:9938   */\n      dup9\n        /* \"#utility.yul\":9925:9943   */\n      add\n        /* \"#utility.yul\":9918:9977   */\n      mstore\n        /* \"#utility.yul\":10000:10052   */\n      tag_510\n        /* \"#utility.yul\":10045:10051   */\n      dup6\n        /* \"#utility.yul\":10029:10043   */\n      dup5\n        /* \"#utility.yul\":10000:10052   */\n      tag_413\n      jump\t// in\n    tag_510:\n        /* \"#utility.yul\":9986:10052   */\n      swap5\n      pop\n        /* \"#utility.yul\":10101:10103   */\n      dup1\n        /* \"#utility.yul\":10093:10099   */\n      dup9\n        /* \"#utility.yul\":10089:10104   */\n      add\n        /* \"#utility.yul\":10083:10105   */\n      mload\n        /* \"#utility.yul\":10061:10105   */\n      swap3\n      pop\n      pop\n        /* \"#utility.yul\":10124:10127   */\n      0x0120\n        /* \"#utility.yul\":10191:10193   */\n      dup2\n        /* \"#utility.yul\":10179:10188   */\n      dup8\n        /* \"#utility.yul\":10171:10177   */\n      dup7\n        /* \"#utility.yul\":10167:10189   */\n      sub\n        /* \"#utility.yul\":10163:10194   */\n      add\n        /* \"#utility.yul\":10158:10160   */\n      dup2\n        /* \"#utility.yul\":10147:10156   */\n      dup9\n        /* \"#utility.yul\":10143:10161   */\n      add\n        /* \"#utility.yul\":10136:10195   */\n      mstore\n        /* \"#utility.yul\":10218:10281   */\n      tag_511\n        /* \"#utility.yul\":10274:10280   */\n      dup6\n        /* \"#utility.yul\":10258:10272   */\n      dup5\n        /* \"#utility.yul\":10218:10281   */\n      tag_414\n      jump\t// in\n    tag_511:\n        /* \"#utility.yul\":10318:10333   */\n      swap1\n      dup9\n      add\n        /* \"#utility.yul\":10312:10334   */\n      mload\n        /* \"#utility.yul\":10374:10396   */\n      dup8\n      dup3\n      sub\n        /* \"#utility.yul\":10370:10401   */\n      swap1\n      swap3\n      add\n        /* \"#utility.yul\":10350:10368   */\n      dup5\n      dup9\n      add\n        /* \"#utility.yul\":10343:10402   */\n      mstore\n        /* \"#utility.yul\":10204:10281   */\n      swap4\n      pop\n        /* \"#utility.yul\":10312:10334   */\n      swap1\n      pop\n        /* \"#utility.yul\":10419:10483   */\n      tag_512\n        /* \"#utility.yul\":10204:10281   */\n      dup4\n        /* \"#utility.yul\":10312:10334   */\n      dup3\n        /* \"#utility.yul\":10419:10483   */\n      tag_415\n      jump\t// in\n    tag_512:\n        /* \"#utility.yul\":10411:10483   */\n      swap7\n        /* \"#utility.yul\":8946:10489   */\n      swap6\n      pop\n      pop\n      pop\n      pop\n      pop\n      pop\n      jump\t// out\n        /* \"#utility.yul\":10889:11075   */\n    tag_93:\n        /* \"#utility.yul\":10948:10954   */\n      0x00\n        /* \"#utility.yul\":11001:11003   */\n      0x20\n        /* \"#utility.yul\":10989:10998   */\n      dup3\n        /* \"#utility.yul\":10980:10987   */\n      dup5\n        /* \"#utility.yul\":10976:10999   */\n      sub\n        /* \"#utility.yul\":10972:11004   */\n      slt\n        /* \"#utility.yul\":10969:11021   */\n      iszero\n      tag_515\n      jumpi\n        /* \"#utility.yul\":11017:11018   */\n      0x00\n        /* \"#utility.yul\":11014:11015   */\n      dup1\n        /* \"#utility.yul\":11007:11019   */\n      revert\n        /* \"#utility.yul\":10969:11021   */\n    tag_515:\n        /* \"#utility.yul\":11040:11069   */\n      tag_516\n        /* \"#utility.yul\":11059:11068   */\n      dup3\n        /* \"#utility.yul\":11040:11069   */\n      tag_408\n      jump\t// in\n    tag_516:\n        /* \"#utility.yul\":11030:11069   */\n      swap4\n        /* \"#utility.yul\":10889:11075   */\n      swap3\n      pop\n      pop\n      pop\n      jump\t// out\n        /* \"#utility.yul\":11080:11480   */\n    tag_102:\n        /* \"#utility.yul\":11282:11284   */\n      0x20\n        /* \"#utility.yul\":11264:11285   */\n      dup1\n      dup3\n      mstore\n        /* \"#utility.yul\":11321:11323   */\n      0x24\n        /* \"#utility.yul\":11301:11319   */\n      swap1\n      dup3\n      add\n        /* \"#utility.yul\":11294:11324   */\n      mstore\n        /* \"#utility.yul\":11360:11394   */\n      0x57696c6c20686173206265656e206578656375746564206f722063616e63656c\n        /* \"#utility.yul\":11355:11357   */\n      0x40\n        /* \"#utility.yul\":11340:11358   */\n      dup3\n      add\n        /* \"#utility.yul\":11333:11395   */\n      mstore\n      shl(0xe1, 0x3632b217)\n        /* \"#utility.yul\":11426:11428   */\n      0x60\n        /* \"#utility.yul\":11411:11429   */\n      dup3\n      add\n        /* \"#utility.yul\":11404:11438   */\n      mstore\n        /* \"#utility.yul\":11470:11473   */\n      0x80\n        /* \"#utility.yul\":11455:11474   */\n      add\n      swap1\n        /* \"#utility.yul\":11080:11480   */\n      jump\t// out\n        /* \"#utility.yul\":11485:11887   */\n    tag_106:\n        /* \"#utility.yul\":11687:11689   */\n      0x20\n        /* \"#utility.yul\":11669:11690   */\n      dup1\n      dup3\n      mstore\n        /* \"#utility.yul\":11726:11728   */\n      0x26\n        /* \"#utility.yul\":11706:11724   */\n      swap1\n      dup3\n      add\n        /* \"#utility.yul\":11699:11729   */\n      mstore\n        /* \"#utility.yul\":11765:11799   */\n      0x4f6e6c7920746865206f776e65722063616e2063616c6c20746869732066756e\n        /* \"#utility.yul\":11760:11762   */\n      0x40\n        /* \"#utility.yul\":11745:11763   */\n      dup3\n      add\n        /* \"#utility.yul\":11738:11800   */\n      mstore\n      shl(0xd1, 0x31ba34b7b717)\n        /* \"#utility.yul\":11831:11833   */\n      0x60\n        /* \"#utility.yul\":11816:11834   */\n      dup3\n      add\n        /* \"#utility.yul\":11809:11845   */\n      mstore\n        /* \"#utility.yul\":11877:11880   */\n      0x80\n        /* \"#utility.yul\":11862:11881   */\n      add\n      swap1\n        /* \"#utility.yul\":11485:11887   */\n      jump\t// out\n        /* \"#utility.yul\":11892:12019   */\n    tag_416:\n        /* \"#utility.yul\":11953:11963   */\n      0x4e487b71\n        /* \"#utility.yul\":11948:11951   */\n      0xe0\n        /* \"#utility.yul\":11944:11964   */\n      shl\n        /* \"#utility.yul\":11941:11942   */\n      0x00\n        /* \"#utility.yul\":11934:11965   */\n      mstore\n        /* \"#utility.yul\":11984:11988   */\n      0x11\n        /* \"#utility.yul\":11981:11982   */\n      0x04\n        /* \"#utility.yul\":11974:11989   */\n      mstore\n        /* \"#utility.yul\":12008:12012   */\n      0x24\n        /* \"#utility.yul\":12005:12006   */\n      0x00\n        /* \"#utility.yul\":11998:12013   */\n      revert\n        /* \"#utility.yul\":12024:12149   */\n    tag_116:\n        /* \"#utility.yul\":12089:12098   */\n      dup1\n      dup3\n      add\n        /* \"#utility.yul\":12110:12120   */\n      dup1\n      dup3\n      gt\n        /* \"#utility.yul\":12107:12143   */\n      iszero\n      tag_522\n      jumpi\n        /* \"#utility.yul\":12123:12141   */\n      tag_522\n      tag_416\n      jump\t// in\n    tag_522:\n        /* \"#utility.yul\":12024:12149   */\n      swap3\n      swap2\n      pop\n      pop\n      jump\t// out\n        /* \"#utility.yul\":12926:13094   */\n    tag_132:\n        /* \"#utility.yul\":12999:13008   */\n      dup1\n      dup3\n      mul\n        /* \"#utility.yul\":13030:13039   */\n      dup2\n      iszero\n        /* \"#utility.yul\":13047:13062   */\n      dup3\n      dup3\n      div\n        /* \"#utility.yul\":13041:13063   */\n      dup5\n      eq\n        /* \"#utility.yul\":13027:13064   */\n      or\n        /* \"#utility.yul\":13017:13088   */\n      tag_522\n      jumpi\n        /* \"#utility.yul\":13068:13086   */\n      tag_522\n      tag_416\n      jump\t// in\n        /* \"#utility.yul\":13099:13316   */\n    tag_134:\n        /* \"#utility.yul\":13139:13140   */\n      0x00\n        /* \"#utility.yul\":13165:13166   */\n      dup3\n        /* \"#utility.yul\":13155:13287   */\n      tag_529\n      jumpi\n        /* \"#utility.yul\":13209:13219   */\n      0x4e487b71\n        /* \"#utility.yul\":13204:13207   */\n      0xe0\n        /* \"#utility.yul\":13200:13220   */\n      shl\n        /* \"#utility.yul\":13197:13198   */\n      0x00\n        /* \"#utility.yul\":13190:13221   */\n      mstore\n        /* \"#utility.yul\":13244:13248   */\n      0x12\n        /* \"#utility.yul\":13241:13242   */\n      0x04\n        /* \"#utility.yul\":13234:13249   */\n      mstore\n        /* \"#utility.yul\":13272:13276   */\n      0x24\n        /* \"#utility.yul\":13269:13270   */\n      0x00\n        /* \"#utility.yul\":13262:13277   */\n      revert\n        /* \"#utility.yul\":13155:13287   */\n    tag_529:\n      pop\n        /* \"#utility.yul\":13301:13310   */\n      div\n      swap1\n        /* \"#utility.yul\":13099:13316   */\n      jump\t// out\n        /* \"#utility.yul\":13321:13449   */\n    tag_136:\n        /* \"#utility.yul\":13388:13397   */\n      dup2\n      dup2\n      sub\n        /* \"#utility.yul\":13409:13420   */\n      dup2\n      dup2\n      gt\n        /* \"#utility.yul\":13406:13443   */\n      iszero\n      tag_522\n      jumpi\n        /* \"#utility.yul\":13423:13441   */\n      tag_522\n      tag_416\n      jump\t// in\n        /* \"#utility.yul\":14017:14144   */\n    tag_151:\n        /* \"#utility.yul\":14078:14088   */\n      0x4e487b71\n        /* \"#utility.yul\":14073:14076   */\n      0xe0\n        /* \"#utility.yul\":14069:14089   */\n      shl\n        /* \"#utility.yul\":14066:14067   */\n      0x00\n        /* \"#utility.yul\":14059:14090   */\n      mstore\n        /* \"#utility.yul\":14109:14113   */\n      0x32\n        /* \"#utility.yul\":14106:14107   */\n      0x04\n        /* \"#utility.yul\":14099:14114   */\n      mstore\n        /* \"#utility.yul\":14133:14137   */\n      0x24\n        /* \"#utility.yul\":14130:14131   */\n      0x00\n        /* \"#utility.yul\":14123:14138   */\n      revert\n        /* \"#utility.yul\":14506:14690   */\n    tag_176:\n        /* \"#utility.yul\":14576:14582   */\n      0x00\n        /* \"#utility.yul\":14629:14631   */\n      0x20\n        /* \"#utility.yul\":14617:14626   */\n      dup3\n        /* \"#utility.yul\":14608:14615   */\n      dup5\n        /* \"#utility.yul\":14604:14627   */\n      sub\n        /* \"#utility.yul\":14600:14632   */\n      slt\n        /* \"#utility.yul\":14597:14649   */\n      iszero\n      tag_538\n      jumpi\n        /* \"#utility.yul\":14645:14646   */\n      0x00\n        /* \"#utility.yul\":14642:14643   */\n      dup1\n        /* \"#utility.yul\":14635:14647   */\n      revert\n        /* \"#utility.yul\":14597:14649   */\n    tag_538:\n      pop\n        /* \"#utility.yul\":14668:14684   */\n      mload\n      swap2\n        /* \"#utility.yul\":14506:14690   */\n      swap1\n      pop\n      jump\t// out\n        /* \"#utility.yul\":14974:15251   */\n    tag_187:\n        /* \"#utility.yul\":15041:15047   */\n      0x00\n        /* \"#utility.yul\":15094:15096   */\n      0x20\n        /* \"#utility.yul\":15082:15091   */\n      dup3\n        /* \"#utility.yul\":15073:15080   */\n      dup5\n        /* \"#utility.yul\":15069:15092   */\n      sub\n        /* \"#utility.yul\":15065:15097   */\n      slt\n        /* \"#utility.yul\":15062:15114   */\n      iszero\n      tag_541\n      jumpi\n        /* \"#utility.yul\":15110:15111   */\n      0x00\n        /* \"#utility.yul\":15107:15108   */\n      dup1\n        /* \"#utility.yul\":15100:15112   */\n      revert\n        /* \"#utility.yul\":15062:15114   */\n    tag_541:\n        /* \"#utility.yul\":15142:15151   */\n      dup2\n        /* \"#utility.yul\":15136:15152   */\n      mload\n        /* \"#utility.yul\":15195:15200   */\n      dup1\n        /* \"#utility.yul\":15188:15201   */\n      iszero\n        /* \"#utility.yul\":15181:15202   */\n      iszero\n        /* \"#utility.yul\":15174:15179   */\n      dup2\n        /* \"#utility.yul\":15171:15203   */\n      eq\n        /* \"#utility.yul\":15161:15221   */\n      tag_516\n      jumpi\n        /* \"#utility.yul\":15217:15218   */\n      0x00\n        /* \"#utility.yul\":15214:15215   */\n      dup1\n        /* \"#utility.yul\":15207:15219   */\n      revert\n\n    auxdata: 0xa26469706673582212209b69b5cc910fc6fa9eb85850599b87514761a1e71d2a21737d1f264d8ea49e3964736f6c63430008180033\n}\n",
				"bytecode": {
					"linkReferences": {},
					"object": "610100604052604051620022d1380380620022d18339810160408190526200002791620000f4565b846001600160a01b0381166200005657604051631e4fbdf760e01b81525f600482015260240160405180910390fd5b620000618162000089565b50600180556080939093526001600160a01b0390911660a05260c052151560e0525062000155565b5f80546001600160a01b038381166001600160a01b0319831681178455604051919092169283917f8be0079c531659141344cd1fd0a4f28419497f9722a3daafe3b4186f6b6457e09190a35050565b80516001600160a01b0381168114620000ef575f80fd5b919050565b5f805f805f60a0868803121562000109575f80fd5b6200011486620000d8565b9450602086015193506200012b60408701620000d8565b9250606086015191506080860151801515811462000147575f80fd5b809150509295509295909350565b60805160a05160c05160e0516120f4620001dd5f395f81816102d4015261174c01525f818161025b01528181610b7c01528181610ba201528181610c4b0152610fff01525f81816102180152818161059201528181610c2101528181610d1e01526110d501525f81816101f1015281816104220152818161054b015261170801526120f45ff3fe608060405234801561000f575f80fd5b5060043610610127575f3560e01c80639379f517116100a9578063c7c85baa1161006e578063c7c85baa14610256578063cc4f9d5b1461027d578063e15724a514610292578063eed35fea146102cf578063f2fde38b146102f6575f80fd5b80639379f517146101d9578063947a36fb146101ec578063a444ae4114610213578063abe21b591461023a578063c04637111461024d575f80fd5b806361461954116100ef57806361461954146101ab5780636b892b22146101b35780636f9fb98a146101bb578063715018a6146101c15780638da5cb5b146101c9575f80fd5b80631c0795c31461012b5780631f99966a1461015b5780632395d9751461017c57806331a38c89146101845780635c36b186146101a1575b5f80fd5b61013e610139366004611a02565b610309565b6040516001600160a01b0390911681526020015b60405180910390f35b61016e610169366004611a02565b610331565b604051908152602001610152565b61016e603281565b6002546101919060ff1681565b6040519015158152602001610152565b6101a9610350565b005b6101a96103ef565b6101a9610afc565b4761016e565b6101a9611055565b5f546001600160a01b031661013e565b61013e6101e7366004611a02565b611068565b61016e7f000000000000000000000000000000000000000000000000000000000000000081565b61013e7f000000000000000000000000000000000000000000000000000000000000000081565b6101a9610248366004611c72565b611077565b61016e60035481565b61016e7f000000000000000000000000000000000000000000000000000000000000000081565b61028561142d565b6040516101529190611e78565b6102a56102a0366004611a02565b61183b565b604080516001600160a01b0394851681526020810193909352921691810191909152606001610152565b6101917f000000000000000000000000000000000000000000000000000000000000000081565b6101a9610304366004611f54565b611877565b60048181548110610318575f80fd5b5f918252602090912001546001600160a01b0316905081565b60058181548110610340575f80fd5b5f91825260209091200154905081565b60025460ff161561037c5760405162461bcd60e51b815260040161037390611f74565b60405180910390fd5b3361038e5f546001600160a01b031690565b6001600160a01b0316146103b45760405162461bcd60e51b815260040161037390611fb8565b4260038190556040519081527f48257dc961b6f792c2b78a080dacfed693b660960a702de21cee364e20270e2f9060200160405180910390a1565b6103f76118b4565b600260018190555460ff161561041f5760405162461bcd60e51b815260040161037390611f74565b5f7f000000000000000000000000000000000000000000000000000000000000000060035461044e9190612012565b9050804210156104a05760405162461bcd60e51b815260206004820152601b60248201527f477261636520706572696f6420686173206e6f7420656e6465642e00000000006044820152606401610373565b5f6104ae6201518083612012565b905080421015610533573373a9f8f9c0bf3188ceddb9684ae28655187552bae9146105335760405162461bcd60e51b815260206004820152602f60248201527f4f6e6c79207468652064657369676e61746564206578656375746f722063616e60448201526e1031b0b636103a3434b9903737bb9760891b6064820152608401610373565b6002805460ff191660011790556003545f90610570907f000000000000000000000000000000000000000000000000000000000000000090612012565b90505f6105806201518083612012565b90505f81421061059057336105b2565b7f00000000000000000000000000000000000000000000000000000000000000005b90505f4780156107a0575f6127106105cb60328461202b565b6105d59190612042565b92508290505f6105e58284612061565b9050811561068e575f856001600160a01b0316836040515f6040518083038185875af1925050503d805f8114610636576040519150601f19603f3d011682016040523d82523d5f602084013e61063b565b606091505b505090508061068c5760405162461bcd60e51b815260206004820152601860248201527f45544820666565207472616e73666572206661696c65642e00000000000000006044820152606401610373565b505b5f5b60045481101561079c575f6064600583815481106106b0576106b0612074565b905f5260205f200154846106c4919061202b565b6106ce9190612042565b90508015610793575f600483815481106106ea576106ea612074565b5f9182526020822001546040516001600160a01b039091169184919081818185875af1925050503d805f811461073b576040519150601f19603f3d011682016040523d82523d5f602084013e610740565b606091505b50509050806107915760405162461bcd60e51b815260206004820152601c60248201527f455448207472616e7366657220746f2068656972206661696c65642e000000006044820152606401610373565b505b50600101610690565b5050505b5f5b6006548110156109d8575f600682815481106107c0576107c0612074565b5f9182526020822001546040516370a0823160e01b81523060048201526001600160a01b03909116925082906370a0823190602401602060405180830381865afa158015610810573d5f803e3d5ffd5b505050506040513d601f19601f820116820180604052508101906108349190612088565b905080156109ce575f61271061084b60328461202b565b6108559190612042565b90505f6108628284612061565b905081156108dc5760405163a9059cbb60e01b81526001600160a01b0389811660048301526024820184905285169063a9059cbb906044016020604051808303815f875af11580156108b6573d5f803e3d5ffd5b505050506040513d601f19601f820116820180604052508101906108da919061209f565b505b5f5b6004548110156109ca575f6064600583815481106108fe576108fe612074565b905f5260205f20015484610912919061202b565b61091c9190612042565b905080156109c157856001600160a01b031663a9059cbb6004848154811061094657610946612074565b5f9182526020909120015460405160e083901b6001600160e01b03191681526001600160a01b039091166004820152602481018490526044016020604051808303815f875af115801561099b573d5f803e3d5ffd5b505050506040513d601f19601f820116820180604052508101906109bf919061209f565b505b506001016108de565b5050505b50506001016107a2565b505f5b600754811015610aa6575f600782815481106109f9576109f9612074565b5f9182526020918290206040805160608101825260039390930290910180546001600160a01b039081168085526001830154958501869052600290920154168383018190529151632142170760e11b8152306004820152602481019290925260448201939093529092506342842e0e906064015f604051808303815f87803b158015610a83575f80fd5b505af1158015610a95573d5f803e3d5ffd5b5050600190930192506109db915050565b5060408051338152602081018490526001600160a01b0385168183015290517f52ba16c8b985eff690a9de92094bd7486f89340e06e385ffb26de9c6eea384dc9181900360600190a15050600180555050505050565b60025460ff1615610b1f5760405162461bcd60e51b815260040161037390611f74565b33610b315f546001600160a01b031690565b6001600160a01b031614610b575760405162461bcd60e51b815260040161037390611fb8565b610b5f6118b4565b60026001818155815460ff19161790555f546001600160a01b03167f000000000000000000000000000000000000000000000000000000000000000015610cff577f0000000000000000000000000000000000000000000000000000000000000000471015610c1e5760405162461bcd60e51b815260206004820152602560248201527f496e73756666696369656e742045544820666f72207465726d696e6174696f6e604482015264103332b29760d91b6064820152608401610373565b5f7f00000000000000000000000000000000000000000000000000000000000000006001600160a01b03167f00000000000000000000000000000000000000000000000000000000000000006040515f6040518083038185875af1925050503d805f8114610ca7576040519150601f19603f3d011682016040523d82523d5f602084013e610cac565b606091505b5050905080610cfd5760405162461bcd60e51b815260206004820181905260248201527f5465726d696e6174696f6e20666565207472616e73666572206661696c65642e6044820152606401610373565b505b60405163a658dd6b60e01b81526001600160a01b0382811660048301527f0000000000000000000000000000000000000000000000000000000000000000169063a658dd6b906024015f604051808303815f87803b158015610d5f575f80fd5b505af1158015610d71573d5f803e3d5ffd5b505050505f5b600654811015610e8d575f60068281548110610d9557610d95612074565b5f9182526020822001546040516370a0823160e01b81523060048201526001600160a01b03909116925082906370a0823190602401602060405180830381865afa158015610de5573d5f803e3d5ffd5b505050506040513d601f19601f82011682018060405250810190610e099190612088565b90508015610e835760405163a9059cbb60e01b81526001600160a01b0385811660048301526024820183905283169063a9059cbb906044016020604051808303815f875af1158015610e5d573d5f803e3d5ffd5b505050506040513d601f19601f82011682018060405250810190610e81919061209f565b505b5050600101610d77565b505f5b600754811015610f5a575f60078281548110610eae57610eae612074565b5f9182526020918290206040805160608101825260039390930290910180546001600160a01b0390811680855260018301549585018690526002909201548116848401529151632142170760e11b8152306004820152918716602483015260448201939093529092506342842e0e906064015f604051808303815f87803b158015610f37575f80fd5b505af1158015610f49573d5f803e3d5ffd5b505060019093019250610e90915050565b50478015610ffa575f826001600160a01b0316826040515f6040518083038185875af1925050503d805f8114610fab576040519150601f19603f3d011682016040523d82523d5f602084013e610fb0565b606091505b5050905080610ff85760405162461bcd60e51b815260206004820152601460248201527322aa24103a3930b739b332b9103330b4b632b21760611b6044820152606401610373565b505b6040517f000000000000000000000000000000000000000000000000000000000000000081527fc41d93b8bfbf9fd7cf5bfe271fd649ab6a6fec0ea101c23b82a2a28eca2533a99060200160405180910390a1505060018055565b61105d6118d7565b6110665f611903565b565b60068181548110610318575f80fd5b60085460ff16156110ca5760405162461bcd60e51b815260206004820152601960248201527f57696c6c3a20616c726561647920696e697469616c697a6564000000000000006044820152606401610373565b336001600160a01b037f000000000000000000000000000000000000000000000000000000000000000016146111425760405162461bcd60e51b815260206004820152601b60248201527f57696c6c3a206e6f742063616c6c656420627920666163746f727900000000006044820152606401610373565b6008805460ff1916600117905582518451146111b15760405162461bcd60e51b815260206004820152602860248201527f486569727320616e6420646973747269627574696f6e73206c656e677468206d60448201526734b9b6b0ba31b41760c11b6064820152608401610373565b5f8451116111fa5760405162461bcd60e51b81526020600482015260166024820152752432b4b9399031b0b73737ba1031329032b6b83a3c9760511b6044820152606401610373565b5f805b84518110156112355784818151811061121857611218612074565b60200260200101518261122b9190612012565b91506001016111fd565b50806064146112985760405162461bcd60e51b815260206004820152602960248201527f446973747269627574696f6e2070657263656e7461676573206d75737420737560448201526836903a37901898181760b91b6064820152608401610373565b4260035584516112af906004906020880190611952565b5083516112c39060059060208701906119b5565b505f5b835181101561133c57600660405180602001604052808684815181106112ee576112ee612074565b602090810291909101810151516001600160a01b039081169092528354600180820186555f9586529190942092519290930180546001600160a01b03191692909116919091179055016112c6565b505f5b8251811015611425576007604051806060016040528085848151811061136757611367612074565b60200260200101515f01516001600160a01b0316815260200185848151811061139257611392612074565b60200260200101516020015181526020018584815181106113b5576113b5612074565b6020908102919091018101516040908101516001600160a01b039081169093528454600180820187555f96875295839020855160039092020180546001600160a01b031990811692861692909217815592850151838701559301516002909101805490931691161790550161133f565b505050505050565b61148a6040518061014001604052805f6001600160a01b031681526020015f81526020015f81526020015f151581526020015f151581526020015f8152602001606081526020016060815260200160608152602001606081525090565b6006545f9067ffffffffffffffff8111156114a7576114a7611a19565b6040519080825280602002602001820160405280156114eb57816020015b604080518082019091525f80825260208201528152602001906001900390816114c55790505b5090505f5b6006548110156115be575f6006828154811061150e5761150e612074565b5f91825260209182902001546040805180820182526001600160a01b0390921680835290516370a0823160e01b8152306004820152909350909182019083906370a0823190602401602060405180830381865afa158015611571573d5f803e3d5ffd5b505050506040513d601f19601f820116820180604052508101906115959190612088565b8152508383815181106115aa576115aa612074565b6020908102919091010152506001016114f0565b506007545f9067ffffffffffffffff8111156115dc576115dc611a19565b60405190808252806020026020018201604052801561162557816020015b604080516060810182525f80825260208083018290529282015282525f199092019101816115fa5790505b5090505f5b6007548110156116da575f6007828154811061164857611648612074565b5f9182526020918290206040805160608082018352600390940290920180546001600160a01b039081168452600182015484870190815260029092015481168484019081528351958601845284518216865291519585019590955251909316928201929092528451919250908490849081106116c6576116c6612074565b60209081029190910101525060010161162a565b506040518061014001604052806116f85f546001600160a01b031690565b6001600160a01b031681526020017f00000000000000000000000000000000000000000000000000000000000000008152602001600354815260200160025f9054906101000a900460ff16151581526020017f00000000000000000000000000000000000000000000000000000000000000001515815260200147815260200160048054806020026020016040519081016040528092919081815260200182805480156117cc57602002820191905f5260205f20905b81546001600160a01b031681526001909101906020018083116117ae575b50505050508152602001600580548060200260200160405190810160405280929190818152602001828054801561182057602002820191905f5260205f20905b81548152602001906001019080831161180c575b50505050508152602001838152602001828152509250505090565b6007818154811061184a575f80fd5b5f9182526020909120600390910201805460018201546002909201546001600160a01b0391821693501683565b61187f6118d7565b6001600160a01b0381166118a857604051631e4fbdf760e01b81525f6004820152602401610373565b6118b181611903565b50565b60026001540361106657604051633ee5aeb560e01b815260040160405180910390fd5b5f546001600160a01b031633146110665760405163118cdaa760e01b8152336004820152602401610373565b5f80546001600160a01b038381166001600160a01b0319831681178455604051919092169283917f8be0079c531659141344cd1fd0a4f28419497f9722a3daafe3b4186f6b6457e09190a35050565b828054828255905f5260205f209081019282156119a5579160200282015b828111156119a557825182546001600160a01b0319166001600160a01b03909116178255602090920191600190910190611970565b506119b19291506119ee565b5090565b828054828255905f5260205f209081019282156119a5579160200282015b828111156119a55782518255916020019190600101906119d3565b5b808211156119b1575f81556001016119ef565b5f60208284031215611a12575f80fd5b5035919050565b634e487b7160e01b5f52604160045260245ffd5b6040805190810167ffffffffffffffff81118282101715611a5057611a50611a19565b60405290565b6040516060810167ffffffffffffffff81118282101715611a5057611a50611a19565b604051601f8201601f1916810167ffffffffffffffff81118282101715611aa257611aa2611a19565b604052919050565b5f67ffffffffffffffff821115611ac357611ac3611a19565b5060051b60200190565b80356001600160a01b0381168114611ae3575f80fd5b919050565b5f82601f830112611af7575f80fd5b81356020611b0c611b0783611aaa565b611a79565b8083825260208201915060208460051b870101935086841115611b2d575f80fd5b602086015b84811015611b495780358352918301918301611b32565b509695505050505050565b5f82601f830112611b63575f80fd5b81356020611b73611b0783611aaa565b82815260069290921b84018101918181019086841115611b91575f80fd5b8286015b84811015611b495760408189031215611bac575f80fd5b611bb4611a2d565b611bbd82611acd565b81528185013585820152835291830191604001611b95565b5f82601f830112611be4575f80fd5b81356020611bf4611b0783611aaa565b82815260609283028501820192828201919087851115611c12575f80fd5b8387015b85811015611c655781818a031215611c2c575f80fd5b611c34611a56565b611c3d82611acd565b815285820135868201526040611c54818401611acd565b908201528452928401928101611c16565b5090979650505050505050565b5f805f8060808587031215611c85575f80fd5b843567ffffffffffffffff80821115611c9c575f80fd5b818701915087601f830112611caf575f80fd5b81356020611cbf611b0783611aaa565b82815260059290921b8401810191818101908b841115611cdd575f80fd5b948201945b83861015611d0257611cf386611acd565b82529482019490820190611ce2565b98505088013592505080821115611d17575f80fd5b611d2388838901611ae8565b94506040870135915080821115611d38575f80fd5b611d4488838901611b54565b93506060870135915080821115611d59575f80fd5b50611d6687828801611bd5565b91505092959194509250565b5f815180845260208085019450602084015f5b83811015611daa5781516001600160a01b031687529582019590820190600101611d85565b509495945050505050565b5f815180845260208085019450602084015f5b83811015611daa57815187529582019590820190600101611dc8565b5f815180845260208085019450602084015f5b83811015611daa57815180516001600160a01b031688528301518388015260409096019590820190600101611df7565b5f815180845260208085019450602084015f5b83811015611daa57815180516001600160a01b03908116895284820151858a0152604091820151169088015260609096019590820190600101611e3a565b60208152611e926020820183516001600160a01b03169052565b60208201516040820152604082015160608201525f6060830151611eba608084018215159052565b50608083015180151560a08401525060a083015160c083015260c08301516101408060e0850152611eef610160850183611d72565b915060e0850151601f19610100818786030181880152611f0f8584611db5565b945080880151925050610120818786030181880152611f2e8584611de4565b908801518782039092018488015293509050611f4a8382611e27565b9695505050505050565b5f60208284031215611f64575f80fd5b611f6d82611acd565b9392505050565b60208082526024908201527f57696c6c20686173206265656e206578656375746564206f722063616e63656c6040820152633632b21760e11b606082015260800190565b60208082526026908201527f4f6e6c7920746865206f776e65722063616e2063616c6c20746869732066756e60408201526531ba34b7b71760d11b606082015260800190565b634e487b7160e01b5f52601160045260245ffd5b8082018082111561202557612025611ffe565b92915050565b808202811582820484141761202557612025611ffe565b5f8261205c57634e487b7160e01b5f52601260045260245ffd5b500490565b8181038181111561202557612025611ffe565b634e487b7160e01b5f52603260045260245ffd5b5f60208284031215612098575f80fd5b5051919050565b5f602082840312156120af575f80fd5b81518015158114611f6d575f80fdfea26469706673582212209b69b5cc910fc6fa9eb85850599b87514761a1e71d2a21737d1f264d8ea49e3964736f6c63430008180033",
					"opcodes": "PUSH2 0x100 PUSH1 0x40 MSTORE PUSH1 0x40 MLOAD PUSH3 0x22D1 CODESIZE SUB DUP1 PUSH3 0x22D1 DUP4 CODECOPY DUP2 ADD PUSH1 0x40 DUP2 SWAP1 MSTORE PUSH3 0x27 SWAP2 PUSH3 0xF4 JUMP JUMPDEST DUP5 PUSH1 0x1 PUSH1 0x1 PUSH1 0xA0 SHL SUB DUP2 AND PUSH3 0x56 JUMPI PUSH1 0x40 MLOAD PUSH4 0x1E4FBDF7 PUSH1 0xE0 SHL DUP2 MSTORE PUSH0 PUSH1 0x4 DUP3 ADD MSTORE PUSH1 0x24 ADD PUSH1 0x40 MLOAD DUP1 SWAP2 SUB SWAP1 REVERT JUMPDEST PUSH3 0x61 DUP2 PUSH3 0x89 JUMP JUMPDEST POP PUSH1 0x1 DUP1 SSTORE PUSH1 0x80 SWAP4 SWAP1 SWAP4 MSTORE PUSH1 0x1 PUSH1 0x1 PUSH1 0xA0 SHL SUB SWAP1 SWAP2 AND PUSH1 0xA0 MSTORE PUSH1 0xC0 MSTORE ISZERO ISZERO PUSH1 0xE0 MSTORE POP PUSH3 0x155 JUMP JUMPDEST PUSH0 DUP1 SLOAD PUSH1 0x1 PUSH1 0x1 PUSH1 0xA0 SHL SUB DUP4 DUP2 AND PUSH1 0x1 PUSH1 0x1 PUSH1 0xA0 SHL SUB NOT DUP4 AND DUP2 OR DUP5 SSTORE PUSH1 0x40 MLOAD SWAP2 SWAP1 SWAP3 AND SWAP3 DUP4 SWAP2 PUSH32 0x8BE0079C531659141344CD1FD0A4F28419497F9722A3DAAFE3B4186F6B6457E0 SWAP2 SWAP1 LOG3 POP POP JUMP JUMPDEST DUP1 MLOAD PUSH1 0x1 PUSH1 0x1 PUSH1 0xA0 SHL SUB DUP2 AND DUP2 EQ PUSH3 0xEF JUMPI PUSH0 DUP1 REVERT JUMPDEST SWAP2 SWAP1 POP JUMP JUMPDEST PUSH0 DUP1 PUSH0 DUP1 PUSH0 PUSH1 0xA0 DUP7 DUP9 SUB SLT ISZERO PUSH3 0x109 JUMPI PUSH0 DUP1 REVERT JUMPDEST PUSH3 0x114 DUP7 PUSH3 0xD8 JUMP JUMPDEST SWAP5 POP PUSH1 0x20 DUP7 ADD MLOAD SWAP4 POP PUSH3 0x12B PUSH1 0x40 DUP8 ADD PUSH3 0xD8 JUMP JUMPDEST SWAP3 POP PUSH1 0x60 DUP7 ADD MLOAD SWAP2 POP PUSH1 0x80 DUP7 ADD MLOAD DUP1 ISZERO ISZERO DUP2 EQ PUSH3 0x147 JUMPI PUSH0 DUP1 REVERT JUMPDEST DUP1 SWAP2 POP POP SWAP3 SWAP6 POP SWAP3 SWAP6 SWAP1 SWAP4 POP JUMP JUMPDEST PUSH1 0x80 MLOAD PUSH1 0xA0 MLOAD PUSH1 0xC0 MLOAD PUSH1 0xE0 MLOAD PUSH2 0x20F4 PUSH3 0x1DD PUSH0 CODECOPY PUSH0 DUP2 DUP2 PUSH2 0x2D4 ADD MSTORE PUSH2 0x174C ADD MSTORE PUSH0 DUP2 DUP2 PUSH2 0x25B ADD MSTORE DUP2 DUP2 PUSH2 0xB7C ADD MSTORE DUP2 DUP2 PUSH2 0xBA2 ADD MSTORE DUP2 DUP2 PUSH2 0xC4B ADD MSTORE PUSH2 0xFFF ADD MSTORE PUSH0 DUP2 DUP2 PUSH2 0x218 ADD MSTORE DUP2 DUP2 PUSH2 0x592 ADD MSTORE DUP2 DUP2 PUSH2 0xC21 ADD MSTORE DUP2 DUP2 PUSH2 0xD1E ADD MSTORE PUSH2 0x10D5 ADD MSTORE PUSH0 DUP2 DUP2 PUSH2 0x1F1 ADD MSTORE DUP2 DUP2 PUSH2 0x422 ADD MSTORE DUP2 DUP2 PUSH2 0x54B ADD MSTORE PUSH2 0x1708 ADD MSTORE PUSH2 0x20F4 PUSH0 RETURN INVALID PUSH1 0x80 PUSH1 0x40 MSTORE CALLVALUE DUP1 ISZERO PUSH2 0xF JUMPI PUSH0 DUP1 REVERT JUMPDEST POP PUSH1 0x4 CALLDATASIZE LT PUSH2 0x127 JUMPI PUSH0 CALLDATALOAD PUSH1 0xE0 SHR DUP1 PUSH4 0x9379F517 GT PUSH2 0xA9 JUMPI DUP1 PUSH4 0xC7C85BAA GT PUSH2 0x6E JUMPI DUP1 PUSH4 0xC7C85BAA EQ PUSH2 0x256 JUMPI DUP1 PUSH4 0xCC4F9D5B EQ PUSH2 0x27D JUMPI DUP1 PUSH4 0xE15724A5 EQ PUSH2 0x292 JUMPI DUP1 PUSH4 0xEED35FEA EQ PUSH2 0x2CF JUMPI DUP1 PUSH4 0xF2FDE38B EQ PUSH2 0x2F6 JUMPI PUSH0 DUP1 REVERT JUMPDEST DUP1 PUSH4 0x9379F517 EQ PUSH2 0x1D9 JUMPI DUP1 PUSH4 0x947A36FB EQ PUSH2 0x1EC JUMPI DUP1 PUSH4 0xA444AE41 EQ PUSH2 0x213 JUMPI DUP1 PUSH4 0xABE21B59 EQ PUSH2 0x23A JUMPI DUP1 PUSH4 0xC0463711 EQ PUSH2 0x24D JUMPI PUSH0 DUP1 REVERT JUMPDEST DUP1 PUSH4 0x61461954 GT PUSH2 0xEF JUMPI DUP1 PUSH4 0x61461954 EQ PUSH2 0x1AB JUMPI DUP1 PUSH4 0x6B892B22 EQ PUSH2 0x1B3 JUMPI DUP1 PUSH4 0x6F9FB98A EQ PUSH2 0x1BB JUMPI DUP1 PUSH4 0x715018A6 EQ PUSH2 0x1C1 JUMPI DUP1 PUSH4 0x8DA5CB5B EQ PUSH2 0x1C9 JUMPI PUSH0 DUP1 REVERT JUMPDEST DUP1 PUSH4 0x1C0795C3 EQ PUSH2 0x12B JUMPI DUP1 PUSH4 0x1F99966A EQ PUSH2 0x15B JUMPI DUP1 PUSH4 0x2395D975 EQ PUSH2 0x17C JUMPI DUP1 PUSH4 0x31A38C89 EQ PUSH2 0x184 JUMPI DUP1 PUSH4 0x5C36B186 EQ PUSH2 0x1A1 JUMPI JUMPDEST PUSH0 DUP1 REVERT JUMPDEST PUSH2 0x13E PUSH2 0x139 CALLDATASIZE PUSH1 0x4 PUSH2 0x1A02 JUMP JUMPDEST PUSH2 0x309 JUMP JUMPDEST PUSH1 0x40 MLOAD PUSH1 0x1 PUSH1 0x1 PUSH1 0xA0 SHL SUB SWAP1 SWAP2 AND DUP2 MSTORE PUSH1 0x20 ADD JUMPDEST PUSH1 0x40 MLOAD DUP1 SWAP2 SUB SWAP1 RETURN JUMPDEST PUSH2 0x16E PUSH2 0x169 CALLDATASIZE PUSH1 0x4 PUSH2 0x1A02 JUMP JUMPDEST PUSH2 0x331 JUMP JUMPDEST PUSH1 0x40 MLOAD SWAP1 DUP2 MSTORE PUSH1 0x20 ADD PUSH2 0x152 JUMP JUMPDEST PUSH2 0x16E PUSH1 0x32 DUP2 JUMP JUMPDEST PUSH1 0x2 SLOAD PUSH2 0x191 SWAP1 PUSH1 0xFF AND DUP2 JUMP JUMPDEST PUSH1 0x40 MLOAD SWAP1 ISZERO ISZERO DUP2 MSTORE PUSH1 0x20 ADD PUSH2 0x152 JUMP JUMPDEST PUSH2 0x1A9 PUSH2 0x350 JUMP JUMPDEST STOP JUMPDEST PUSH2 0x1A9 PUSH2 0x3EF JUMP JUMPDEST PUSH2 0x1A9 PUSH2 0xAFC JUMP JUMPDEST SELFBALANCE PUSH2 0x16E JUMP JUMPDEST PUSH2 0x1A9 PUSH2 0x1055 JUMP JUMPDEST PUSH0 SLOAD PUSH1 0x1 PUSH1 0x1 PUSH1 0xA0 SHL SUB AND PUSH2 0x13E JUMP JUMPDEST PUSH2 0x13E PUSH2 0x1E7 CALLDATASIZE PUSH1 0x4 PUSH2 0x1A02 JUMP JUMPDEST PUSH2 0x1068 JUMP JUMPDEST PUSH2 0x16E PUSH32 0x0 DUP2 JUMP JUMPDEST PUSH2 0x13E PUSH32 0x0 DUP2 JUMP JUMPDEST PUSH2 0x1A9 PUSH2 0x248 CALLDATASIZE PUSH1 0x4 PUSH2 0x1C72 JUMP JUMPDEST PUSH2 0x1077 JUMP JUMPDEST PUSH2 0x16E PUSH1 0x3 SLOAD DUP2 JUMP JUMPDEST PUSH2 0x16E PUSH32 0x0 DUP2 JUMP JUMPDEST PUSH2 0x285 PUSH2 0x142D JUMP JUMPDEST PUSH1 0x40 MLOAD PUSH2 0x152 SWAP2 SWAP1 PUSH2 0x1E78 JUMP JUMPDEST PUSH2 0x2A5 PUSH2 0x2A0 CALLDATASIZE PUSH1 0x4 PUSH2 0x1A02 JUMP JUMPDEST PUSH2 0x183B JUMP JUMPDEST PUSH1 0x40 DUP1 MLOAD PUSH1 0x1 PUSH1 0x1 PUSH1 0xA0 SHL SUB SWAP5 DUP6 AND DUP2 MSTORE PUSH1 0x20 DUP2 ADD SWAP4 SWAP1 SWAP4 MSTORE SWAP3 AND SWAP2 DUP2 ADD SWAP2 SWAP1 SWAP2 MSTORE PUSH1 0x60 ADD PUSH2 0x152 JUMP JUMPDEST PUSH2 0x191 PUSH32 0x0 DUP2 JUMP JUMPDEST PUSH2 0x1A9 PUSH2 0x304 CALLDATASIZE PUSH1 0x4 PUSH2 0x1F54 JUMP JUMPDEST PUSH2 0x1877 JUMP JUMPDEST PUSH1 0x4 DUP2 DUP2 SLOAD DUP2 LT PUSH2 0x318 JUMPI PUSH0 DUP1 REVERT JUMPDEST PUSH0 SWAP2 DUP3 MSTORE PUSH1 0x20 SWAP1 SWAP2 KECCAK256 ADD SLOAD PUSH1 0x1 PUSH1 0x1 PUSH1 0xA0 SHL SUB AND SWAP1 POP DUP2 JUMP JUMPDEST PUSH1 0x5 DUP2 DUP2 SLOAD DUP2 LT PUSH2 0x340 JUMPI PUSH0 DUP1 REVERT JUMPDEST PUSH0 SWAP2 DUP3 MSTORE PUSH1 0x20 SWAP1 SWAP2 KECCAK256 ADD SLOAD SWAP1 POP DUP2 JUMP JUMPDEST PUSH1 0x2 SLOAD PUSH1 0xFF AND ISZERO PUSH2 0x37C JUMPI PUSH1 0x40 MLOAD PUSH3 0x461BCD PUSH1 0xE5 SHL DUP2 MSTORE PUSH1 0x4 ADD PUSH2 0x373 SWAP1 PUSH2 0x1F74 JUMP JUMPDEST PUSH1 0x40 MLOAD DUP1 SWAP2 SUB SWAP1 REVERT JUMPDEST CALLER PUSH2 0x38E PUSH0 SLOAD PUSH1 0x1 PUSH1 0x1 PUSH1 0xA0 SHL SUB AND SWAP1 JUMP JUMPDEST PUSH1 0x1 PUSH1 0x1 PUSH1 0xA0 SHL SUB AND EQ PUSH2 0x3B4 JUMPI PUSH1 0x40 MLOAD PUSH3 0x461BCD PUSH1 0xE5 SHL DUP2 MSTORE PUSH1 0x4 ADD PUSH2 0x373 SWAP1 PUSH2 0x1FB8 JUMP JUMPDEST TIMESTAMP PUSH1 0x3 DUP2 SWAP1 SSTORE PUSH1 0x40 MLOAD SWAP1 DUP2 MSTORE PUSH32 0x48257DC961B6F792C2B78A080DACFED693B660960A702DE21CEE364E20270E2F SWAP1 PUSH1 0x20 ADD PUSH1 0x40 MLOAD DUP1 SWAP2 SUB SWAP1 LOG1 JUMP JUMPDEST PUSH2 0x3F7 PUSH2 0x18B4 JUMP JUMPDEST PUSH1 0x2 PUSH1 0x1 DUP2 SWAP1 SSTORE SLOAD PUSH1 0xFF AND ISZERO PUSH2 0x41F JUMPI PUSH1 0x40 MLOAD PUSH3 0x461BCD PUSH1 0xE5 SHL DUP2 MSTORE PUSH1 0x4 ADD PUSH2 0x373 SWAP1 PUSH2 0x1F74 JUMP JUMPDEST PUSH0 PUSH32 0x0 PUSH1 0x3 SLOAD PUSH2 0x44E SWAP2 SWAP1 PUSH2 0x2012 JUMP JUMPDEST SWAP1 POP DUP1 TIMESTAMP LT ISZERO PUSH2 0x4A0 JUMPI PUSH1 0x40 MLOAD PUSH3 0x461BCD PUSH1 0xE5 SHL DUP2 MSTORE PUSH1 0x20 PUSH1 0x4 DUP3 ADD MSTORE PUSH1 0x1B PUSH1 0x24 DUP3 ADD MSTORE PUSH32 0x477261636520706572696F6420686173206E6F7420656E6465642E0000000000 PUSH1 0x44 DUP3 ADD MSTORE PUSH1 0x64 ADD PUSH2 0x373 JUMP JUMPDEST PUSH0 PUSH2 0x4AE PUSH3 0x15180 DUP4 PUSH2 0x2012 JUMP JUMPDEST SWAP1 POP DUP1 TIMESTAMP LT ISZERO PUSH2 0x533 JUMPI CALLER PUSH20 0xA9F8F9C0BF3188CEDDB9684AE28655187552BAE9 EQ PUSH2 0x533 JUMPI PUSH1 0x40 MLOAD PUSH3 0x461BCD PUSH1 0xE5 SHL DUP2 MSTORE PUSH1 0x20 PUSH1 0x4 DUP3 ADD MSTORE PUSH1 0x2F PUSH1 0x24 DUP3 ADD MSTORE PUSH32 0x4F6E6C79207468652064657369676E61746564206578656375746F722063616E PUSH1 0x44 DUP3 ADD MSTORE PUSH15 0x1031B0B636103A3434B9903737BB97 PUSH1 0x89 SHL PUSH1 0x64 DUP3 ADD MSTORE PUSH1 0x84 ADD PUSH2 0x373 JUMP JUMPDEST PUSH1 0x2 DUP1 SLOAD PUSH1 0xFF NOT AND PUSH1 0x1 OR SWAP1 SSTORE PUSH1 0x3 SLOAD PUSH0 SWAP1 PUSH2 0x570 SWAP1 PUSH32 0x0 SWAP1 PUSH2 0x2012 JUMP JUMPDEST SWAP1 POP PUSH0 PUSH2 0x580 PUSH3 0x15180 DUP4 PUSH2 0x2012 JUMP JUMPDEST SWAP1 POP PUSH0 DUP2 TIMESTAMP LT PUSH2 0x590 JUMPI CALLER PUSH2 0x5B2 JUMP JUMPDEST PUSH32 0x0 JUMPDEST SWAP1 POP PUSH0 SELFBALANCE DUP1 ISZERO PUSH2 0x7A0 JUMPI PUSH0 PUSH2 0x2710 PUSH2 0x5CB PUSH1 0x32 DUP5 PUSH2 0x202B JUMP JUMPDEST PUSH2 0x5D5 SWAP2 SWAP1 PUSH2 0x2042 JUMP JUMPDEST SWAP3 POP DUP3 SWAP1 POP PUSH0 PUSH2 0x5E5 DUP3 DUP5 PUSH2 0x2061 JUMP JUMPDEST SWAP1 POP DUP2 ISZERO PUSH2 0x68E JUMPI PUSH0 DUP6 PUSH1 0x1 PUSH1 0x1 PUSH1 0xA0 SHL SUB AND DUP4 PUSH1 0x40 MLOAD PUSH0 PUSH1 0x40 MLOAD DUP1 DUP4 SUB DUP2 DUP6 DUP8 GAS CALL SWAP3 POP POP POP RETURNDATASIZE DUP1 PUSH0 DUP2 EQ PUSH2 0x636 JUMPI PUSH1 0x40 MLOAD SWAP2 POP PUSH1 0x1F NOT PUSH1 0x3F RETURNDATASIZE ADD AND DUP3 ADD PUSH1 0x40 MSTORE RETURNDATASIZE DUP3 MSTORE RETURNDATASIZE PUSH0 PUSH1 0x20 DUP5 ADD RETURNDATACOPY PUSH2 0x63B JUMP JUMPDEST PUSH1 0x60 SWAP2 POP JUMPDEST POP POP SWAP1 POP DUP1 PUSH2 0x68C JUMPI PUSH1 0x40 MLOAD PUSH3 0x461BCD PUSH1 0xE5 SHL DUP2 MSTORE PUSH1 0x20 PUSH1 0x4 DUP3 ADD MSTORE PUSH1 0x18 PUSH1 0x24 DUP3 ADD MSTORE PUSH32 0x45544820666565207472616E73666572206661696C65642E0000000000000000 PUSH1 0x44 DUP3 ADD MSTORE PUSH1 0x64 ADD PUSH2 0x373 JUMP JUMPDEST POP JUMPDEST PUSH0 JUMPDEST PUSH1 0x4 SLOAD DUP2 LT ISZERO PUSH2 0x79C JUMPI PUSH0 PUSH1 0x64 PUSH1 0x5 DUP4 DUP2 SLOAD DUP2 LT PUSH2 0x6B0 JUMPI PUSH2 0x6B0 PUSH2 0x2074 JUMP JUMPDEST SWAP1 PUSH0 MSTORE PUSH1 0x20 PUSH0 KECCAK256 ADD SLOAD DUP5 PUSH2 0x6C4 SWAP2 SWAP1 PUSH2 0x202B JUMP JUMPDEST PUSH2 0x6CE SWAP2 SWAP1 PUSH2 0x2042 JUMP JUMPDEST SWAP1 POP DUP1 ISZERO PUSH2 0x793 JUMPI PUSH0 PUSH1 0x4 DUP4 DUP2 SLOAD DUP2 LT PUSH2 0x6EA JUMPI PUSH2 0x6EA PUSH2 0x2074 JUMP JUMPDEST PUSH0 SWAP2 DUP3 MSTORE PUSH1 0x20 DUP3 KECCAK256 ADD SLOAD PUSH1 0x40 MLOAD PUSH1 0x1 PUSH1 0x1 PUSH1 0xA0 SHL SUB SWAP1 SWAP2 AND SWAP2 DUP5 SWAP2 SWAP1 DUP2 DUP2 DUP2 DUP6 DUP8 GAS CALL SWAP3 POP POP POP RETURNDATASIZE DUP1 PUSH0 DUP2 EQ PUSH2 0x73B JUMPI PUSH1 0x40 MLOAD SWAP2 POP PUSH1 0x1F NOT PUSH1 0x3F RETURNDATASIZE ADD AND DUP3 ADD PUSH1 0x40 MSTORE RETURNDATASIZE DUP3 MSTORE RETURNDATASIZE PUSH0 PUSH1 0x20 DUP5 ADD RETURNDATACOPY PUSH2 0x740 JUMP JUMPDEST PUSH1 0x60 SWAP2 POP JUMPDEST POP POP SWAP1 POP DUP1 PUSH2 0x791 JUMPI PUSH1 0x40 MLOAD PUSH3 0x461BCD PUSH1 0xE5 SHL DUP2 MSTORE PUSH1 0x20 PUSH1 0x4 DUP3 ADD MSTORE PUSH1 0x1C PUSH1 0x24 DUP3 ADD MSTORE PUSH32 0x455448207472616E7366657220746F2068656972206661696C65642E00000000 PUSH1 0x44 DUP3 ADD MSTORE PUSH1 0x64 ADD PUSH2 0x373 JUMP JUMPDEST POP JUMPDEST POP PUSH1 0x1 ADD PUSH2 0x690 JUMP JUMPDEST POP POP POP JUMPDEST PUSH0 JUMPDEST PUSH1 0x6 SLOAD DUP2 LT ISZERO PUSH2 0x9D8 JUMPI PUSH0 PUSH1 0x6 DUP3 DUP2 SLOAD DUP2 LT PUSH2 0x7C0 JUMPI PUSH2 0x7C0 PUSH2 0x2074 JUMP JUMPDEST PUSH0 SWAP2 DUP3 MSTORE PUSH1 0x20 DUP3 KECCAK256 ADD SLOAD PUSH1 0x40 MLOAD PUSH4 0x70A08231 PUSH1 0xE0 SHL DUP2 MSTORE ADDRESS PUSH1 0x4 DUP3 ADD MSTORE PUSH1 0x1 PUSH1 0x1 PUSH1 0xA0 SHL SUB SWAP1 SWAP2 AND SWAP3 POP DUP3 SWAP1 PUSH4 0x70A08231 SWAP1 PUSH1 0x24 ADD PUSH1 0x20 PUSH1 0x40 MLOAD DUP1 DUP4 SUB DUP2 DUP7 GAS STATICCALL ISZERO DUP1 ISZERO PUSH2 0x810 JUMPI RETURNDATASIZE PUSH0 DUP1 RETURNDATACOPY RETURNDATASIZE PUSH0 REVERT JUMPDEST POP POP POP POP PUSH1 0x40 MLOAD RETURNDATASIZE PUSH1 0x1F NOT PUSH1 0x1F DUP3 ADD AND DUP3 ADD DUP1 PUSH1 0x40 MSTORE POP DUP2 ADD SWAP1 PUSH2 0x834 SWAP2 SWAP1 PUSH2 0x2088 JUMP JUMPDEST SWAP1 POP DUP1 ISZERO PUSH2 0x9CE JUMPI PUSH0 PUSH2 0x2710 PUSH2 0x84B PUSH1 0x32 DUP5 PUSH2 0x202B JUMP JUMPDEST PUSH2 0x855 SWAP2 SWAP1 PUSH2 0x2042 JUMP JUMPDEST SWAP1 POP PUSH0 PUSH2 0x862 DUP3 DUP5 PUSH2 0x2061 JUMP JUMPDEST SWAP1 POP DUP2 ISZERO PUSH2 0x8DC JUMPI PUSH1 0x40 MLOAD PUSH4 0xA9059CBB PUSH1 0xE0 SHL DUP2 MSTORE PUSH1 0x1 PUSH1 0x1 PUSH1 0xA0 SHL SUB DUP10 DUP2 AND PUSH1 0x4 DUP4 ADD MSTORE PUSH1 0x24 DUP3 ADD DUP5 SWAP1 MSTORE DUP6 AND SWAP1 PUSH4 0xA9059CBB SWAP1 PUSH1 0x44 ADD PUSH1 0x20 PUSH1 0x40 MLOAD DUP1 DUP4 SUB DUP2 PUSH0 DUP8 GAS CALL ISZERO DUP1 ISZERO PUSH2 0x8B6 JUMPI RETURNDATASIZE PUSH0 DUP1 RETURNDATACOPY RETURNDATASIZE PUSH0 REVERT JUMPDEST POP POP POP POP PUSH1 0x40 MLOAD RETURNDATASIZE PUSH1 0x1F NOT PUSH1 0x1F DUP3 ADD AND DUP3 ADD DUP1 PUSH1 0x40 MSTORE POP DUP2 ADD SWAP1 PUSH2 0x8DA SWAP2 SWAP1 PUSH2 0x209F JUMP JUMPDEST POP JUMPDEST PUSH0 JUMPDEST PUSH1 0x4 SLOAD DUP2 LT ISZERO PUSH2 0x9CA JUMPI PUSH0 PUSH1 0x64 PUSH1 0x5 DUP4 DUP2 SLOAD DUP2 LT PUSH2 0x8FE JUMPI PUSH2 0x8FE PUSH2 0x2074 JUMP JUMPDEST SWAP1 PUSH0 MSTORE PUSH1 0x20 PUSH0 KECCAK256 ADD SLOAD DUP5 PUSH2 0x912 SWAP2 SWAP1 PUSH2 0x202B JUMP JUMPDEST PUSH2 0x91C SWAP2 SWAP1 PUSH2 0x2042 JUMP JUMPDEST SWAP1 POP DUP1 ISZERO PUSH2 0x9C1 JUMPI DUP6 PUSH1 0x1 PUSH1 0x1 PUSH1 0xA0 SHL SUB AND PUSH4 0xA9059CBB PUSH1 0x4 DUP5 DUP2 SLOAD DUP2 LT PUSH2 0x946 JUMPI PUSH2 0x946 PUSH2 0x2074 JUMP JUMPDEST PUSH0 SWAP2 DUP3 MSTORE PUSH1 0x20 SWAP1 SWAP2 KECCAK256 ADD SLOAD PUSH1 0x40 MLOAD PUSH1 0xE0 DUP4 SWAP1 SHL PUSH1 0x1 PUSH1 0x1 PUSH1 0xE0 SHL SUB NOT AND DUP2 MSTORE PUSH1 0x1 PUSH1 0x1 PUSH1 0xA0 SHL SUB SWAP1 SWAP2 AND PUSH1 0x4 DUP3 ADD MSTORE PUSH1 0x24 DUP2 ADD DUP5 SWAP1 MSTORE PUSH1 0x44 ADD PUSH1 0x20 PUSH1 0x40 MLOAD DUP1 DUP4 SUB DUP2 PUSH0 DUP8 GAS CALL ISZERO DUP1 ISZERO PUSH2 0x99B JUMPI RETURNDATASIZE PUSH0 DUP1 RETURNDATACOPY RETURNDATASIZE PUSH0 REVERT JUMPDEST POP POP POP POP PUSH1 0x40 MLOAD RETURNDATASIZE PUSH1 0x1F NOT PUSH1 0x1F DUP3 ADD AND DUP3 ADD DUP1 PUSH1 0x40 MSTORE POP DUP2 ADD SWAP1 PUSH2 0x9BF SWAP2 SWAP1 PUSH2 0x209F JUMP JUMPDEST POP JUMPDEST POP PUSH1 0x1 ADD PUSH2 0x8DE JUMP JUMPDEST POP POP POP JUMPDEST POP POP PUSH1 0x1 ADD PUSH2 0x7A2 JUMP JUMPDEST POP PUSH0 JUMPDEST PUSH1 0x7 SLOAD DUP2 LT ISZERO PUSH2 0xAA6 JUMPI PUSH0 PUSH1 0x7 DUP3 DUP2 SLOAD DUP2 LT PUSH2 0x9F9 JUMPI PUSH2 0x9F9 PUSH2 0x2074 JUMP JUMPDEST PUSH0 SWAP2 DUP3 MSTORE PUSH1 0x20 SWAP2 DUP3 SWAP1 KECCAK256 PUSH1 0x40 DUP1 MLOAD PUSH1 0x60 DUP2 ADD DUP3 MSTORE PUSH1 0x3 SWAP4 SWAP1 SWAP4 MUL SWAP1 SWAP2 ADD DUP1 SLOAD PUSH1 0x1 PUSH1 0x1 PUSH1 0xA0 SHL SUB SWAP1 DUP2 AND DUP1 DUP6 MSTORE PUSH1 0x1 DUP4 ADD SLOAD SWAP6 DUP6 ADD DUP7 SWAP1 MSTORE PUSH1 0x2 SWAP1 SWAP3 ADD SLOAD AND DUP4 DUP4 ADD DUP2 SWAP1 MSTORE SWAP2 MLOAD PUSH4 0x21421707 PUSH1 0xE1 SHL DUP2 MSTORE ADDRESS PUSH1 0x4 DUP3 ADD MSTORE PUSH1 0x24 DUP2 ADD SWAP3 SWAP1 SWAP3 MSTORE PUSH1 0x44 DUP3 ADD SWAP4 SWAP1 SWAP4 MSTORE SWAP1 SWAP3 POP PUSH4 0x42842E0E SWAP1 PUSH1 0x64 ADD PUSH0 PUSH1 0x40 MLOAD DUP1 DUP4 SUB DUP2 PUSH0 DUP8 DUP1 EXTCODESIZE ISZERO DUP1 ISZERO PUSH2 0xA83 JUMPI PUSH0 DUP1 REVERT JUMPDEST POP GAS CALL ISZERO DUP1 ISZERO PUSH2 0xA95 JUMPI RETURNDATASIZE PUSH0 DUP1 RETURNDATACOPY RETURNDATASIZE PUSH0 REVERT JUMPDEST POP POP PUSH1 0x1 SWAP1 SWAP4 ADD SWAP3 POP PUSH2 0x9DB SWAP2 POP POP JUMP JUMPDEST POP PUSH1 0x40 DUP1 MLOAD CALLER DUP2 MSTORE PUSH1 0x20 DUP2 ADD DUP5 SWAP1 MSTORE PUSH1 0x1 PUSH1 0x1 PUSH1 0xA0 SHL SUB DUP6 AND DUP2 DUP4 ADD MSTORE SWAP1 MLOAD PUSH32 0x52BA16C8B985EFF690A9DE92094BD7486F89340E06E385FFB26DE9C6EEA384DC SWAP2 DUP2 SWAP1 SUB PUSH1 0x60 ADD SWAP1 LOG1 POP POP PUSH1 0x1 DUP1 SSTORE POP POP POP POP POP JUMP JUMPDEST PUSH1 0x2 SLOAD PUSH1 0xFF AND ISZERO PUSH2 0xB1F JUMPI PUSH1 0x40 MLOAD PUSH3 0x461BCD PUSH1 0xE5 SHL DUP2 MSTORE PUSH1 0x4 ADD PUSH2 0x373 SWAP1 PUSH2 0x1F74 JUMP JUMPDEST CALLER PUSH2 0xB31 PUSH0 SLOAD PUSH1 0x1 PUSH1 0x1 PUSH1 0xA0 SHL SUB AND SWAP1 JUMP JUMPDEST PUSH1 0x1 PUSH1 0x1 PUSH1 0xA0 SHL SUB AND EQ PUSH2 0xB57 JUMPI PUSH1 0x40 MLOAD PUSH3 0x461BCD PUSH1 0xE5 SHL DUP2 MSTORE PUSH1 0x4 ADD PUSH2 0x373 SWAP1 PUSH2 0x1FB8 JUMP JUMPDEST PUSH2 0xB5F PUSH2 0x18B4 JUMP JUMPDEST PUSH1 0x2 PUSH1 0x1 DUP2 DUP2 SSTORE DUP2 SLOAD PUSH1 0xFF NOT AND OR SWAP1 SSTORE PUSH0 SLOAD PUSH1 0x1 PUSH1 0x1 PUSH1 0xA0 SHL SUB AND PUSH32 0x0 ISZERO PUSH2 0xCFF JUMPI PUSH32 0x0 SELFBALANCE LT ISZERO PUSH2 0xC1E JUMPI PUSH1 0x40 MLOAD PUSH3 0x461BCD PUSH1 0xE5 SHL DUP2 MSTORE PUSH1 0x20 PUSH1 0x4 DUP3 ADD MSTORE PUSH1 0x25 PUSH1 0x24 DUP3 ADD MSTORE PUSH32 0x496E73756666696369656E742045544820666F72207465726D696E6174696F6E PUSH1 0x44 DUP3 ADD MSTORE PUSH5 0x103332B297 PUSH1 0xD9 SHL PUSH1 0x64 DUP3 ADD MSTORE PUSH1 0x84 ADD PUSH2 0x373 JUMP JUMPDEST PUSH0 PUSH32 0x0 PUSH1 0x1 PUSH1 0x1 PUSH1 0xA0 SHL SUB AND PUSH32 0x0 PUSH1 0x40 MLOAD PUSH0 PUSH1 0x40 MLOAD DUP1 DUP4 SUB DUP2 DUP6 DUP8 GAS CALL SWAP3 POP POP POP RETURNDATASIZE DUP1 PUSH0 DUP2 EQ PUSH2 0xCA7 JUMPI PUSH1 0x40 MLOAD SWAP2 POP PUSH1 0x1F NOT PUSH1 0x3F RETURNDATASIZE ADD AND DUP3 ADD PUSH1 0x40 MSTORE RETURNDATASIZE DUP3 MSTORE RETURNDATASIZE PUSH0 PUSH1 0x20 DUP5 ADD RETURNDATACOPY PUSH2 0xCAC JUMP JUMPDEST PUSH1 0x60 SWAP2 POP JUMPDEST POP POP SWAP1 POP DUP1 PUSH2 0xCFD JUMPI PUSH1 0x40 MLOAD PUSH3 0x461BCD PUSH1 0xE5 SHL DUP2 MSTORE PUSH1 0x20 PUSH1 0x4 DUP3 ADD DUP2 SWAP1 MSTORE PUSH1 0x24 DUP3 ADD MSTORE PUSH32 0x5465726D696E6174696F6E20666565207472616E73666572206661696C65642E PUSH1 0x44 DUP3 ADD MSTORE PUSH1 0x64 ADD PUSH2 0x373 JUMP JUMPDEST POP JUMPDEST PUSH1 0x40 MLOAD PUSH4 0xA658DD6B PUSH1 0xE0 SHL DUP2 MSTORE PUSH1 0x1 PUSH1 0x1 PUSH1 0xA0 SHL SUB DUP3 DUP2 AND PUSH1 0x4 DUP4 ADD MSTORE PUSH32 0x0 AND SWAP1 PUSH4 0xA658DD6B SWAP1 PUSH1 0x24 ADD PUSH0 PUSH1 0x40 MLOAD DUP1 DUP4 SUB DUP2 PUSH0 DUP8 DUP1 EXTCODESIZE ISZERO DUP1 ISZERO PUSH2 0xD5F JUMPI PUSH0 DUP1 REVERT JUMPDEST POP GAS CALL ISZERO DUP1 ISZERO PUSH2 0xD71 JUMPI RETURNDATASIZE PUSH0 DUP1 RETURNDATACOPY RETURNDATASIZE PUSH0 REVERT JUMPDEST POP POP POP POP PUSH0 JUMPDEST PUSH1 0x6 SLOAD DUP2 LT ISZERO PUSH2 0xE8D JUMPI PUSH0 PUSH1 0x6 DUP3 DUP2 SLOAD DUP2 LT PUSH2 0xD95 JUMPI PUSH2 0xD95 PUSH2 0x2074 JUMP JUMPDEST PUSH0 SWAP2 DUP3 MSTORE PUSH1 0x20 DUP3 KECCAK256 ADD SLOAD PUSH1 0x40 MLOAD PUSH4 0x70A08231 PUSH1 0xE0 SHL DUP2 MSTORE ADDRESS PUSH1 0x4 DUP3 ADD MSTORE PUSH1 0x1 PUSH1 0x1 PUSH1 0xA0 SHL SUB SWAP1 SWAP2 AND SWAP3 POP DUP3 SWAP1 PUSH4 0x70A08231 SWAP1 PUSH1 0x24 ADD PUSH1 0x20 PUSH1 0x40 MLOAD DUP1 DUP4 SUB DUP2 DUP7 GAS STATICCALL ISZERO DUP1 ISZERO PUSH2 0xDE5 JUMPI RETURNDATASIZE PUSH0 DUP1 RETURNDATACOPY RETURNDATASIZE PUSH0 REVERT JUMPDEST POP POP POP POP PUSH1 0x40 MLOAD RETURNDATASIZE PUSH1 0x1F NOT PUSH1 0x1F DUP3 ADD AND DUP3 ADD DUP1 PUSH1 0x40 MSTORE POP DUP2 ADD SWAP1 PUSH2 0xE09 SWAP2 SWAP1 PUSH2 0x2088 JUMP JUMPDEST SWAP1 POP DUP1 ISZERO PUSH2 0xE83 JUMPI PUSH1 0x40 MLOAD PUSH4 0xA9059CBB PUSH1 0xE0 SHL DUP2 MSTORE PUSH1 0x1 PUSH1 0x1 PUSH1 0xA0 SHL SUB DUP6 DUP2 AND PUSH1 0x4 DUP4 ADD MSTORE PUSH1 0x24 DUP3 ADD DUP4 SWAP1 MSTORE DUP4 AND SWAP1 PUSH4 0xA9059CBB SWAP1 PUSH1 0x44 ADD PUSH1 0x20 PUSH1 0x40 MLOAD DUP1 DUP4 SUB DUP2 PUSH0 DUP8 GAS CALL ISZERO DUP1 ISZERO PUSH2 0xE5D JUMPI RETURNDATASIZE PUSH0 DUP1 RETURNDATACOPY RETURNDATASIZE PUSH0 REVERT JUMPDEST POP POP POP POP PUSH1 0x40 MLOAD RETURNDATASIZE PUSH1 0x1F NOT PUSH1 0x1F DUP3 ADD AND DUP3 ADD DUP1 PUSH1 0x40 MSTORE POP DUP2 ADD SWAP1 PUSH2 0xE81 SWAP2 SWAP1 PUSH2 0x209F JUMP JUMPDEST POP JUMPDEST POP POP PUSH1 0x1 ADD PUSH2 0xD77 JUMP JUMPDEST POP PUSH0 JUMPDEST PUSH1 0x7 SLOAD DUP2 LT ISZERO PUSH2 0xF5A JUMPI PUSH0 PUSH1 0x7 DUP3 DUP2 SLOAD DUP2 LT PUSH2 0xEAE JUMPI PUSH2 0xEAE PUSH2 0x2074 JUMP JUMPDEST PUSH0 SWAP2 DUP3 MSTORE PUSH1 0x20 SWAP2 DUP3 SWAP1 KECCAK256 PUSH1 0x40 DUP1 MLOAD PUSH1 0x60 DUP2 ADD DUP3 MSTORE PUSH1 0x3 SWAP4 SWAP1 SWAP4 MUL SWAP1 SWAP2 ADD DUP1 SLOAD PUSH1 0x1 PUSH1 0x1 PUSH1 0xA0 SHL SUB SWAP1 DUP2 AND DUP1 DUP6 MSTORE PUSH1 0x1 DUP4 ADD SLOAD SWAP6 DUP6 ADD DUP7 SWAP1 MSTORE PUSH1 0x2 SWAP1 SWAP3 ADD SLOAD DUP2 AND DUP5 DUP5 ADD MSTORE SWAP2 MLOAD PUSH4 0x21421707 PUSH1 0xE1 SHL DUP2 MSTORE ADDRESS PUSH1 0x4 DUP3 ADD MSTORE SWAP2 DUP8 AND PUSH1 0x24 DUP4 ADD MSTORE PUSH1 0x44 DUP3 ADD SWAP4 SWAP1 SWAP4 MSTORE SWAP1 SWAP3 POP PUSH4 0x42842E0E SWAP1 PUSH1 0x64 ADD PUSH0 PUSH1 0x40 MLOAD DUP1 DUP4 SUB DUP2 PUSH0 DUP8 DUP1 EXTCODESIZE ISZERO DUP1 ISZERO PUSH2 0xF37 JUMPI PUSH0 DUP1 REVERT JUMPDEST POP GAS CALL ISZERO DUP1 ISZERO PUSH2 0xF49 JUMPI RETURNDATASIZE PUSH0 DUP1 RETURNDATACOPY RETURNDATASIZE PUSH0 REVERT JUMPDEST POP POP PUSH1 0x1 SWAP1 SWAP4 ADD SWAP3 POP PUSH2 0xE90 SWAP2 POP POP JUMP JUMPDEST POP SELFBALANCE DUP1 ISZERO PUSH2 0xFFA JUMPI PUSH0 DUP3 PUSH1 0x1 PUSH1 0x1 PUSH1 0xA0 SHL SUB AND DUP3 PUSH1 0x40 MLOAD PUSH0 PUSH1 0x40 MLOAD DUP1 DUP4 SUB DUP2 DUP6 DUP8 GAS CALL SWAP3 POP POP POP RETURNDATASIZE DUP1 PUSH0 DUP2 EQ PUSH2 0xFAB JUMPI PUSH1 0x40 MLOAD SWAP2 POP PUSH1 0x1F NOT PUSH1 0x3F RETURNDATASIZE ADD AND DUP3 ADD PUSH1 0x40 MSTORE RETURNDATASIZE DUP3 MSTORE RETURNDATASIZE PUSH0 PUSH1 0x20 DUP5 ADD RETURNDATACOPY PUSH2 0xFB0 JUMP JUMPDEST PUSH1 0x60 SWAP2 POP JUMPDEST POP POP SWAP1 POP DUP1 PUSH2 0xFF8 JUMPI PUSH1 0x40 MLOAD PUSH3 0x461BCD PUSH1 0xE5 SHL DUP2 MSTORE PUSH1 0x20 PUSH1 0x4 DUP3 ADD MSTORE PUSH1 0x14 PUSH1 0x24 DUP3 ADD MSTORE PUSH20 0x22AA24103A3930B739B332B9103330B4B632B217 PUSH1 0x61 SHL PUSH1 0x44 DUP3 ADD MSTORE PUSH1 0x64 ADD PUSH2 0x373 JUMP JUMPDEST POP JUMPDEST PUSH1 0x40 MLOAD PUSH32 0x0 DUP2 MSTORE PUSH32 0xC41D93B8BFBF9FD7CF5BFE271FD649AB6A6FEC0EA101C23B82A2A28ECA2533A9 SWAP1 PUSH1 0x20 ADD PUSH1 0x40 MLOAD DUP1 SWAP2 SUB SWAP1 LOG1 POP POP PUSH1 0x1 DUP1 SSTORE JUMP JUMPDEST PUSH2 0x105D PUSH2 0x18D7 JUMP JUMPDEST PUSH2 0x1066 PUSH0 PUSH2 0x1903 JUMP JUMPDEST JUMP JUMPDEST PUSH1 0x6 DUP2 DUP2 SLOAD DUP2 LT PUSH2 0x318 JUMPI PUSH0 DUP1 REVERT JUMPDEST PUSH1 0x8 SLOAD PUSH1 0xFF AND ISZERO PUSH2 0x10CA JUMPI PUSH1 0x40 MLOAD PUSH3 0x461BCD PUSH1 0xE5 SHL DUP2 MSTORE PUSH1 0x20 PUSH1 0x4 DUP3 ADD MSTORE PUSH1 0x19 PUSH1 0x24 DUP3 ADD MSTORE PUSH32 0x57696C6C3A20616C726561647920696E697469616C697A656400000000000000 PUSH1 0x44 DUP3 ADD MSTORE PUSH1 0x64 ADD PUSH2 0x373 JUMP JUMPDEST CALLER PUSH1 0x1 PUSH1 0x1 PUSH1 0xA0 SHL SUB PUSH32 0x0 AND EQ PUSH2 0x1142 JUMPI PUSH1 0x40 MLOAD PUSH3 0x461BCD PUSH1 0xE5 SHL DUP2 MSTORE PUSH1 0x20 PUSH1 0x4 DUP3 ADD MSTORE PUSH1 0x1B PUSH1 0x24 DUP3 ADD MSTORE PUSH32 0x57696C6C3A206E6F742063616C6C656420627920666163746F72790000000000 PUSH1 0x44 DUP3 ADD MSTORE PUSH1 0x64 ADD PUSH2 0x373 JUMP JUMPDEST PUSH1 0x8 DUP1 SLOAD PUSH1 0xFF NOT AND PUSH1 0x1 OR SWAP1 SSTORE DUP3 MLOAD DUP5 MLOAD EQ PUSH2 0x11B1 JUMPI PUSH1 0x40 MLOAD PUSH3 0x461BCD PUSH1 0xE5 SHL DUP2 MSTORE PUSH1 0x20 PUSH1 0x4 DUP3 ADD MSTORE PUSH1 0x28 PUSH1 0x24 DUP3 ADD MSTORE PUSH32 0x486569727320616E6420646973747269627574696F6E73206C656E677468206D PUSH1 0x44 DUP3 ADD MSTORE PUSH8 0x34B9B6B0BA31B417 PUSH1 0xC1 SHL PUSH1 0x64 DUP3 ADD MSTORE PUSH1 0x84 ADD PUSH2 0x373 JUMP JUMPDEST PUSH0 DUP5 MLOAD GT PUSH2 0x11FA JUMPI PUSH1 0x40 MLOAD PUSH3 0x461BCD PUSH1 0xE5 SHL DUP2 MSTORE PUSH1 0x20 PUSH1 0x4 DUP3 ADD MSTORE PUSH1 0x16 PUSH1 0x24 DUP3 ADD MSTORE PUSH22 0x2432B4B9399031B0B73737BA1031329032B6B83A3C97 PUSH1 0x51 SHL PUSH1 0x44 DUP3 ADD MSTORE PUSH1 0x64 ADD PUSH2 0x373 JUMP JUMPDEST PUSH0 DUP1 JUMPDEST DUP5 MLOAD DUP2 LT ISZERO PUSH2 0x1235 JUMPI DUP5 DUP2 DUP2 MLOAD DUP2 LT PUSH2 0x1218 JUMPI PUSH2 0x1218 PUSH2 0x2074 JUMP JUMPDEST PUSH1 0x20 MUL PUSH1 0x20 ADD ADD MLOAD DUP3 PUSH2 0x122B SWAP2 SWAP1 PUSH2 0x2012 JUMP JUMPDEST SWAP2 POP PUSH1 0x1 ADD PUSH2 0x11FD JUMP JUMPDEST POP DUP1 PUSH1 0x64 EQ PUSH2 0x1298 JUMPI PUSH1 0x40 MLOAD PUSH3 0x461BCD PUSH1 0xE5 SHL DUP2 MSTORE PUSH1 0x20 PUSH1 0x4 DUP3 ADD MSTORE PUSH1 0x29 PUSH1 0x24 DUP3 ADD MSTORE PUSH32 0x446973747269627574696F6E2070657263656E7461676573206D757374207375 PUSH1 0x44 DUP3 ADD MSTORE PUSH9 0x36903A379018981817 PUSH1 0xB9 SHL PUSH1 0x64 DUP3 ADD MSTORE PUSH1 0x84 ADD PUSH2 0x373 JUMP JUMPDEST TIMESTAMP PUSH1 0x3 SSTORE DUP5 MLOAD PUSH2 0x12AF SWAP1 PUSH1 0x4 SWAP1 PUSH1 0x20 DUP9 ADD SWAP1 PUSH2 0x1952 JUMP JUMPDEST POP DUP4 MLOAD PUSH2 0x12C3 SWAP1 PUSH1 0x5 SWAP1 PUSH1 0x20 DUP8 ADD SWAP1 PUSH2 0x19B5 JUMP JUMPDEST POP PUSH0 JUMPDEST DUP4 MLOAD DUP2 LT ISZERO PUSH2 0x133C JUMPI PUSH1 0x6 PUSH1 0x40 MLOAD DUP1 PUSH1 0x20 ADD PUSH1 0x40 MSTORE DUP1 DUP7 DUP5 DUP2 MLOAD DUP2 LT PUSH2 0x12EE JUMPI PUSH2 0x12EE PUSH2 0x2074 JUMP JUMPDEST PUSH1 0x20 SWAP1 DUP2 MUL SWAP2 SWAP1 SWAP2 ADD DUP2 ADD MLOAD MLOAD PUSH1 0x1 PUSH1 0x1 PUSH1 0xA0 SHL SUB SWAP1 DUP2 AND SWAP1 SWAP3 MSTORE DUP4 SLOAD PUSH1 0x1 DUP1 DUP3 ADD DUP7 SSTORE PUSH0 SWAP6 DUP7 MSTORE SWAP2 SWAP1 SWAP5 KECCAK256 SWAP3 MLOAD SWAP3 SWAP1 SWAP4 ADD DUP1 SLOAD PUSH1 0x1 PUSH1 0x1 PUSH1 0xA0 SHL SUB NOT AND SWAP3 SWAP1 SWAP2 AND SWAP2 SWAP1 SWAP2 OR SWAP1 SSTORE ADD PUSH2 0x12C6 JUMP JUMPDEST POP PUSH0 JUMPDEST DUP3 MLOAD DUP2 LT ISZERO PUSH2 0x1425 JUMPI PUSH1 0x7 PUSH1 0x40 MLOAD DUP1 PUSH1 0x60 ADD PUSH1 0x40 MSTORE DUP1 DUP6 DUP5 DUP2 MLOAD DUP2 LT PUSH2 0x1367 JUMPI PUSH2 0x1367 PUSH2 0x2074 JUMP JUMPDEST PUSH1 0x20 MUL PUSH1 0x20 ADD ADD MLOAD PUSH0 ADD MLOAD PUSH1 0x1 PUSH1 0x1 PUSH1 0xA0 SHL SUB AND DUP2 MSTORE PUSH1 0x20 ADD DUP6 DUP5 DUP2 MLOAD DUP2 LT PUSH2 0x1392 JUMPI PUSH2 0x1392 PUSH2 0x2074 JUMP JUMPDEST PUSH1 0x20 MUL PUSH1 0x20 ADD ADD MLOAD PUSH1 0x20 ADD MLOAD DUP2 MSTORE PUSH1 0x20 ADD DUP6 DUP5 DUP2 MLOAD DUP2 LT PUSH2 0x13B5 JUMPI PUSH2 0x13B5 PUSH2 0x2074 JUMP JUMPDEST PUSH1 0x20 SWAP1 DUP2 MUL SWAP2 SWAP1 SWAP2 ADD DUP2 ADD MLOAD PUSH1 0x40 SWAP1 DUP2 ADD MLOAD PUSH1 0x1 PUSH1 0x1 PUSH1 0xA0 SHL SUB SWAP1 DUP2 AND SWAP1 SWAP4 MSTORE DUP5 SLOAD PUSH1 0x1 DUP1 DUP3 ADD DUP8 SSTORE PUSH0 SWAP7 DUP8 MSTORE SWAP6 DUP4 SWAP1 KECCAK256 DUP6 MLOAD PUSH1 0x3 SWAP1 SWAP3 MUL ADD DUP1 SLOAD PUSH1 0x1 PUSH1 0x1 PUSH1 0xA0 SHL SUB NOT SWAP1 DUP2 AND SWAP3 DUP7 AND SWAP3 SWAP1 SWAP3 OR DUP2 SSTORE SWAP3 DUP6 ADD MLOAD DUP4 DUP8 ADD SSTORE SWAP4 ADD MLOAD PUSH1 0x2 SWAP1 SWAP2 ADD DUP1 SLOAD SWAP1 SWAP4 AND SWAP2 AND OR SWAP1 SSTORE ADD PUSH2 0x133F JUMP JUMPDEST POP POP POP POP POP POP JUMP JUMPDEST PUSH2 0x148A PUSH1 0x40 MLOAD DUP1 PUSH2 0x140 ADD PUSH1 0x40 MSTORE DUP1 PUSH0 PUSH1 0x1 PUSH1 0x1 PUSH1 0xA0 SHL SUB AND DUP2 MSTORE PUSH1 0x20 ADD PUSH0 DUP2 MSTORE PUSH1 0x20 ADD PUSH0 DUP2 MSTORE PUSH1 0x20 ADD PUSH0 ISZERO ISZERO DUP2 MSTORE PUSH1 0x20 ADD PUSH0 ISZERO ISZERO DUP2 MSTORE PUSH1 0x20 ADD PUSH0 DUP2 MSTORE PUSH1 0x20 ADD PUSH1 0x60 DUP2 MSTORE PUSH1 0x20 ADD PUSH1 0x60 DUP2 MSTORE PUSH1 0x20 ADD PUSH1 0x60 DUP2 MSTORE PUSH1 0x20 ADD PUSH1 0x60 DUP2 MSTORE POP SWAP1 JUMP JUMPDEST PUSH1 0x6 SLOAD PUSH0 SWAP1 PUSH8 0xFFFFFFFFFFFFFFFF DUP2 GT ISZERO PUSH2 0x14A7 JUMPI PUSH2 0x14A7 PUSH2 0x1A19 JUMP JUMPDEST PUSH1 0x40 MLOAD SWAP1 DUP1 DUP3 MSTORE DUP1 PUSH1 0x20 MUL PUSH1 0x20 ADD DUP3 ADD PUSH1 0x40 MSTORE DUP1 ISZERO PUSH2 0x14EB JUMPI DUP2 PUSH1 0x20 ADD JUMPDEST PUSH1 0x40 DUP1 MLOAD DUP1 DUP3 ADD SWAP1 SWAP2 MSTORE PUSH0 DUP1 DUP3 MSTORE PUSH1 0x20 DUP3 ADD MSTORE DUP2 MSTORE PUSH1 0x20 ADD SWAP1 PUSH1 0x1 SWAP1 SUB SWAP1 DUP2 PUSH2 0x14C5 JUMPI SWAP1 POP JUMPDEST POP SWAP1 POP PUSH0 JUMPDEST PUSH1 0x6 SLOAD DUP2 LT ISZERO PUSH2 0x15BE JUMPI PUSH0 PUSH1 0x6 DUP3 DUP2 SLOAD DUP2 LT PUSH2 0x150E JUMPI PUSH2 0x150E PUSH2 0x2074 JUMP JUMPDEST PUSH0 SWAP2 DUP3 MSTORE PUSH1 0x20 SWAP2 DUP3 SWAP1 KECCAK256 ADD SLOAD PUSH1 0x40 DUP1 MLOAD DUP1 DUP3 ADD DUP3 MSTORE PUSH1 0x1 PUSH1 0x1 PUSH1 0xA0 SHL SUB SWAP1 SWAP3 AND DUP1 DUP4 MSTORE SWAP1 MLOAD PUSH4 0x70A08231 PUSH1 0xE0 SHL DUP2 MSTORE ADDRESS PUSH1 0x4 DUP3 ADD MSTORE SWAP1 SWAP4 POP SWAP1 SWAP2 DUP3 ADD SWAP1 DUP4 SWAP1 PUSH4 0x70A08231 SWAP1 PUSH1 0x24 ADD PUSH1 0x20 PUSH1 0x40 MLOAD DUP1 DUP4 SUB DUP2 DUP7 GAS STATICCALL ISZERO DUP1 ISZERO PUSH2 0x1571 JUMPI RETURNDATASIZE PUSH0 DUP1 RETURNDATACOPY RETURNDATASIZE PUSH0 REVERT JUMPDEST POP POP POP POP PUSH1 0x40 MLOAD RETURNDATASIZE PUSH1 0x1F NOT PUSH1 0x1F DUP3 ADD AND DUP3 ADD DUP1 PUSH1 0x40 MSTORE POP DUP2 ADD SWAP1 PUSH2 0x1595 SWAP2 SWAP1 PUSH2 0x2088 JUMP JUMPDEST DUP2 MSTORE POP DUP4 DUP4 DUP2 MLOAD DUP2 LT PUSH2 0x15AA JUMPI PUSH2 0x15AA PUSH2 0x2074 JUMP JUMPDEST PUSH1 0x20 SWAP1 DUP2 MUL SWAP2 SWAP1 SWAP2 ADD ADD MSTORE POP PUSH1 0x1 ADD PUSH2 0x14F0 JUMP JUMPDEST POP PUSH1 0x7 SLOAD PUSH0 SWAP1 PUSH8 0xFFFFFFFFFFFFFFFF DUP2 GT ISZERO PUSH2 0x15DC JUMPI PUSH2 0x15DC PUSH2 0x1A19 JUMP JUMPDEST PUSH1 0x40 MLOAD SWAP1 DUP1 DUP3 MSTORE DUP1 PUSH1 0x20 MUL PUSH1 0x20 ADD DUP3 ADD PUSH1 0x40 MSTORE DUP1 ISZERO PUSH2 0x1625 JUMPI DUP2 PUSH1 0x20 ADD JUMPDEST PUSH1 0x40 DUP1 MLOAD PUSH1 0x60 DUP2 ADD DUP3 MSTORE PUSH0 DUP1 DUP3 MSTORE PUSH1 0x20 DUP1 DUP4 ADD DUP3 SWAP1 MSTORE SWAP3 DUP3 ADD MSTORE DUP3 MSTORE PUSH0 NOT SWAP1 SWAP3 ADD SWAP2 ADD DUP2 PUSH2 0x15FA JUMPI SWAP1 POP JUMPDEST POP SWAP1 POP PUSH0 JUMPDEST PUSH1 0x7 SLOAD DUP2 LT ISZERO PUSH2 0x16DA JUMPI PUSH0 PUSH1 0x7 DUP3 DUP2 SLOAD DUP2 LT PUSH2 0x1648 JUMPI PUSH2 0x1648 PUSH2 0x2074 JUMP JUMPDEST PUSH0 SWAP2 DUP3 MSTORE PUSH1 0x20 SWAP2 DUP3 SWAP1 KECCAK256 PUSH1 0x40 DUP1 MLOAD PUSH1 0x60 DUP1 DUP3 ADD DUP4 MSTORE PUSH1 0x3 SWAP1 SWAP5 MUL SWAP1 SWAP3 ADD DUP1 SLOAD PUSH1 0x1 PUSH1 0x1 PUSH1 0xA0 SHL SUB SWAP1 DUP2 AND DUP5 MSTORE PUSH1 0x1 DUP3 ADD SLOAD DUP5 DUP8 ADD SWAP1 DUP2 MSTORE PUSH1 0x2 SWAP1 SWAP3 ADD SLOAD DUP2 AND DUP5 DUP5 ADD SWAP1 DUP2 MSTORE DUP4 MLOAD SWAP6 DUP7 ADD DUP5 MSTORE DUP5 MLOAD DUP3 AND DUP7 MSTORE SWAP2 MLOAD SWAP6 DUP6 ADD SWAP6 SWAP1 SWAP6 MSTORE MLOAD SWAP1 SWAP4 AND SWAP3 DUP3 ADD SWAP3 SWAP1 SWAP3 MSTORE DUP5 MLOAD SWAP2 SWAP3 POP SWAP1 DUP5 SWAP1 DUP5 SWAP1 DUP2 LT PUSH2 0x16C6 JUMPI PUSH2 0x16C6 PUSH2 0x2074 JUMP JUMPDEST PUSH1 0x20 SWAP1 DUP2 MUL SWAP2 SWAP1 SWAP2 ADD ADD MSTORE POP PUSH1 0x1 ADD PUSH2 0x162A JUMP JUMPDEST POP PUSH1 0x40 MLOAD DUP1 PUSH2 0x140 ADD PUSH1 0x40 MSTORE DUP1 PUSH2 0x16F8 PUSH0 SLOAD PUSH1 0x1 PUSH1 0x1 PUSH1 0xA0 SHL SUB AND SWAP1 JUMP JUMPDEST PUSH1 0x1 PUSH1 0x1 PUSH1 0xA0 SHL SUB AND DUP2 MSTORE PUSH1 0x20 ADD PUSH32 0x0 DUP2 MSTORE PUSH1 0x20 ADD PUSH1 0x3 SLOAD DUP2 MSTORE PUSH1 0x20 ADD PUSH1 0x2 PUSH0 SWAP1 SLOAD SWAP1 PUSH2 0x100 EXP SWAP1 DIV PUSH1 0xFF AND ISZERO ISZERO DUP2 MSTORE PUSH1 0x20 ADD PUSH32 0x0 ISZERO ISZERO DUP2 MSTORE PUSH1 0x20 ADD SELFBALANCE DUP2 MSTORE PUSH1 0x20 ADD PUSH1 0x4 DUP1 SLOAD DUP1 PUSH1 0x20 MUL PUSH1 0x20 ADD PUSH1 0x40 MLOAD SWAP1 DUP2 ADD PUSH1 0x40 MSTORE DUP1 SWAP3 SWAP2 SWAP1 DUP2 DUP2 MSTORE PUSH1 0x20 ADD DUP3 DUP1 SLOAD DUP1 ISZERO PUSH2 0x17CC JUMPI PUSH1 0x20 MUL DUP3 ADD SWAP2 SWAP1 PUSH0 MSTORE PUSH1 0x20 PUSH0 KECCAK256 SWAP1 JUMPDEST DUP2 SLOAD PUSH1 0x1 PUSH1 0x1 PUSH1 0xA0 SHL SUB AND DUP2 MSTORE PUSH1 0x1 SWAP1 SWAP2 ADD SWAP1 PUSH1 0x20 ADD DUP1 DUP4 GT PUSH2 0x17AE JUMPI JUMPDEST POP POP POP POP POP DUP2 MSTORE PUSH1 0x20 ADD PUSH1 0x5 DUP1 SLOAD DUP1 PUSH1 0x20 MUL PUSH1 0x20 ADD PUSH1 0x40 MLOAD SWAP1 DUP2 ADD PUSH1 0x40 MSTORE DUP1 SWAP3 SWAP2 SWAP1 DUP2 DUP2 MSTORE PUSH1 0x20 ADD DUP3 DUP1 SLOAD DUP1 ISZERO PUSH2 0x1820 JUMPI PUSH1 0x20 MUL DUP3 ADD SWAP2 SWAP1 PUSH0 MSTORE PUSH1 0x20 PUSH0 KECCAK256 SWAP1 JUMPDEST DUP2 SLOAD DUP2 MSTORE PUSH1 0x20 ADD SWAP1 PUSH1 0x1 ADD SWAP1 DUP1 DUP4 GT PUSH2 0x180C JUMPI JUMPDEST POP POP POP POP POP DUP2 MSTORE PUSH1 0x20 ADD DUP4 DUP2 MSTORE PUSH1 0x20 ADD DUP3 DUP2 MSTORE POP SWAP3 POP POP POP SWAP1 JUMP JUMPDEST PUSH1 0x7 DUP2 DUP2 SLOAD DUP2 LT PUSH2 0x184A JUMPI PUSH0 DUP1 REVERT JUMPDEST PUSH0 SWAP2 DUP3 MSTORE PUSH1 0x20 SWAP1 SWAP2 KECCAK256 PUSH1 0x3 SWAP1 SWAP2 MUL ADD DUP1 SLOAD PUSH1 0x1 DUP3 ADD SLOAD PUSH1 0x2 SWAP1 SWAP3 ADD SLOAD PUSH1 0x1 PUSH1 0x1 PUSH1 0xA0 SHL SUB SWAP2 DUP3 AND SWAP4 POP AND DUP4 JUMP JUMPDEST PUSH2 0x187F PUSH2 0x18D7 JUMP JUMPDEST PUSH1 0x1 PUSH1 0x1 PUSH1 0xA0 SHL SUB DUP2 AND PUSH2 0x18A8 JUMPI PUSH1 0x40 MLOAD PUSH4 0x1E4FBDF7 PUSH1 0xE0 SHL DUP2 MSTORE PUSH0 PUSH1 0x4 DUP3 ADD MSTORE PUSH1 0x24 ADD PUSH2 0x373 JUMP JUMPDEST PUSH2 0x18B1 DUP2 PUSH2 0x1903 JUMP JUMPDEST POP JUMP JUMPDEST PUSH1 0x2 PUSH1 0x1 SLOAD SUB PUSH2 0x1066 JUMPI PUSH1 0x40 MLOAD PUSH4 0x3EE5AEB5 PUSH1 0xE0 SHL DUP2 MSTORE PUSH1 0x4 ADD PUSH1 0x40 MLOAD DUP1 SWAP2 SUB SWAP1 REVERT JUMPDEST PUSH0 SLOAD PUSH1 0x1 PUSH1 0x1 PUSH1 0xA0 SHL SUB AND CALLER EQ PUSH2 0x1066 JUMPI PUSH1 0x40 MLOAD PUSH4 0x118CDAA7 PUSH1 0xE0 SHL DUP2 MSTORE CALLER PUSH1 0x4 DUP3 ADD MSTORE PUSH1 0x24 ADD PUSH2 0x373 JUMP JUMPDEST PUSH0 DUP1 SLOAD PUSH1 0x1 PUSH1 0x1 PUSH1 0xA0 SHL SUB DUP4 DUP2 AND PUSH1 0x1 PUSH1 0x1 PUSH1 0xA0 SHL SUB NOT DUP4 AND DUP2 OR DUP5 SSTORE PUSH1 0x40 MLOAD SWAP2 SWAP1 SWAP3 AND SWAP3 DUP4 SWAP2 PUSH32 0x8BE0079C531659141344CD1FD0A4F28419497F9722A3DAAFE3B4186F6B6457E0 SWAP2 SWAP1 LOG3 POP POP JUMP JUMPDEST DUP3 DUP1 SLOAD DUP3 DUP3 SSTORE SWAP1 PUSH0 MSTORE PUSH1 0x20 PUSH0 KECCAK256 SWAP1 DUP2 ADD SWAP3 DUP3 ISZERO PUSH2 0x19A5 JUMPI SWAP2 PUSH1 0x20 MUL DUP3 ADD JUMPDEST DUP3 DUP2 GT ISZERO PUSH2 0x19A5 JUMPI DUP3 MLOAD DUP3 SLOAD PUSH1 0x1 PUSH1 0x1 PUSH1 0xA0 SHL SUB NOT AND PUSH1 0x1 PUSH1 0x1 PUSH1 0xA0 SHL SUB SWAP1 SWAP2 AND OR DUP3 SSTORE PUSH1 0x20 SWAP1 SWAP3 ADD SWAP2 PUSH1 0x1 SWAP1 SWAP2 ADD SWAP1 PUSH2 0x1970 JUMP JUMPDEST POP PUSH2 0x19B1 SWAP3 SWAP2 POP PUSH2 0x19EE JUMP JUMPDEST POP SWAP1 JUMP JUMPDEST DUP3 DUP1 SLOAD DUP3 DUP3 SSTORE SWAP1 PUSH0 MSTORE PUSH1 0x20 PUSH0 KECCAK256 SWAP1 DUP2 ADD SWAP3 DUP3 ISZERO PUSH2 0x19A5 JUMPI SWAP2 PUSH1 0x20 MUL DUP3 ADD JUMPDEST DUP3 DUP2 GT ISZERO PUSH2 0x19A5 JUMPI DUP3 MLOAD DUP3 SSTORE SWAP2 PUSH1 0x20 ADD SWAP2 SWAP1 PUSH1 0x1 ADD SWAP1 PUSH2 0x19D3 JUMP JUMPDEST JUMPDEST DUP1 DUP3 GT ISZERO PUSH2 0x19B1 JUMPI PUSH0 DUP2 SSTORE PUSH1 0x1 ADD PUSH2 0x19EF JUMP JUMPDEST PUSH0 PUSH1 0x20 DUP3 DUP5 SUB SLT ISZERO PUSH2 0x1A12 JUMPI PUSH0 DUP1 REVERT JUMPDEST POP CALLDATALOAD SWAP2 SWAP1 POP JUMP JUMPDEST PUSH4 0x4E487B71 PUSH1 0xE0 SHL PUSH0 MSTORE PUSH1 0x41 PUSH1 0x4 MSTORE PUSH1 0x24 PUSH0 REVERT JUMPDEST PUSH1 0x40 DUP1 MLOAD SWAP1 DUP2 ADD PUSH8 0xFFFFFFFFFFFFFFFF DUP2 GT DUP3 DUP3 LT OR ISZERO PUSH2 0x1A50 JUMPI PUSH2 0x1A50 PUSH2 0x1A19 JUMP JUMPDEST PUSH1 0x40 MSTORE SWAP1 JUMP JUMPDEST PUSH1 0x40 MLOAD PUSH1 0x60 DUP2 ADD PUSH8 0xFFFFFFFFFFFFFFFF DUP2 GT DUP3 DUP3 LT OR ISZERO PUSH2 0x1A50 JUMPI PUSH2 0x1A50 PUSH2 0x1A19 JUMP JUMPDEST PUSH1 0x40 MLOAD PUSH1 0x1F DUP3 ADD PUSH1 0x1F NOT AND DUP2 ADD PUSH8 0xFFFFFFFFFFFFFFFF DUP2 GT DUP3 DUP3 LT OR ISZERO PUSH2 0x1AA2 JUMPI PUSH2 0x1AA2 PUSH2 0x1A19 JUMP JUMPDEST PUSH1 0x40 MSTORE SWAP2 SWAP1 POP JUMP JUMPDEST PUSH0 PUSH8 0xFFFFFFFFFFFFFFFF DUP3 GT ISZERO PUSH2 0x1AC3 JUMPI PUSH2 0x1AC3 PUSH2 0x1A19 JUMP JUMPDEST POP PUSH1 0x5 SHL PUSH1 0x20 ADD SWAP1 JUMP JUMPDEST DUP1 CALLDATALOAD PUSH1 0x1 PUSH1 0x1 PUSH1 0xA0 SHL SUB DUP2 AND DUP2 EQ PUSH2 0x1AE3 JUMPI PUSH0 DUP1 REVERT JUMPDEST SWAP2 SWAP1 POP JUMP JUMPDEST PUSH0 DUP3 PUSH1 0x1F DUP4 ADD SLT PUSH2 0x1AF7 JUMPI PUSH0 DUP1 REVERT JUMPDEST DUP2 CALLDATALOAD PUSH1 0x20 PUSH2 0x1B0C PUSH2 0x1B07 DUP4 PUSH2 0x1AAA JUMP JUMPDEST PUSH2 0x1A79 JUMP JUMPDEST DUP1 DUP4 DUP3 MSTORE PUSH1 0x20 DUP3 ADD SWAP2 POP PUSH1 0x20 DUP5 PUSH1 0x5 SHL DUP8 ADD ADD SWAP4 POP DUP7 DUP5 GT ISZERO PUSH2 0x1B2D JUMPI PUSH0 DUP1 REVERT JUMPDEST PUSH1 0x20 DUP7 ADD JUMPDEST DUP5 DUP2 LT ISZERO PUSH2 0x1B49 JUMPI DUP1 CALLDATALOAD DUP4 MSTORE SWAP2 DUP4 ADD SWAP2 DUP4 ADD PUSH2 0x1B32 JUMP JUMPDEST POP SWAP7 SWAP6 POP POP POP POP POP POP JUMP JUMPDEST PUSH0 DUP3 PUSH1 0x1F DUP4 ADD SLT PUSH2 0x1B63 JUMPI PUSH0 DUP1 REVERT JUMPDEST DUP2 CALLDATALOAD PUSH1 0x20 PUSH2 0x1B73 PUSH2 0x1B07 DUP4 PUSH2 0x1AAA JUMP JUMPDEST DUP3 DUP2 MSTORE PUSH1 0x6 SWAP3 SWAP1 SWAP3 SHL DUP5 ADD DUP2 ADD SWAP2 DUP2 DUP2 ADD SWAP1 DUP7 DUP5 GT ISZERO PUSH2 0x1B91 JUMPI PUSH0 DUP1 REVERT JUMPDEST DUP3 DUP7 ADD JUMPDEST DUP5 DUP2 LT ISZERO PUSH2 0x1B49 JUMPI PUSH1 0x40 DUP2 DUP10 SUB SLT ISZERO PUSH2 0x1BAC JUMPI PUSH0 DUP1 REVERT JUMPDEST PUSH2 0x1BB4 PUSH2 0x1A2D JUMP JUMPDEST PUSH2 0x1BBD DUP3 PUSH2 0x1ACD JUMP JUMPDEST DUP2 MSTORE DUP2 DUP6 ADD CALLDATALOAD DUP6 DUP3 ADD MSTORE DUP4 MSTORE SWAP2 DUP4 ADD SWAP2 PUSH1 0x40 ADD PUSH2 0x1B95 JUMP JUMPDEST PUSH0 DUP3 PUSH1 0x1F DUP4 ADD SLT PUSH2 0x1BE4 JUMPI PUSH0 DUP1 REVERT JUMPDEST DUP2 CALLDATALOAD PUSH1 0x20 PUSH2 0x1BF4 PUSH2 0x1B07 DUP4 PUSH2 0x1AAA JUMP JUMPDEST DUP3 DUP2 MSTORE PUSH1 0x60 SWAP3 DUP4 MUL DUP6 ADD DUP3 ADD SWAP3 DUP3 DUP3 ADD SWAP2 SWAP1 DUP8 DUP6 GT ISZERO PUSH2 0x1C12 JUMPI PUSH0 DUP1 REVERT JUMPDEST DUP4 DUP8 ADD JUMPDEST DUP6 DUP2 LT ISZERO PUSH2 0x1C65 JUMPI DUP2 DUP2 DUP11 SUB SLT ISZERO PUSH2 0x1C2C JUMPI PUSH0 DUP1 REVERT JUMPDEST PUSH2 0x1C34 PUSH2 0x1A56 JUMP JUMPDEST PUSH2 0x1C3D DUP3 PUSH2 0x1ACD JUMP JUMPDEST DUP2 MSTORE DUP6 DUP3 ADD CALLDATALOAD DUP7 DUP3 ADD MSTORE PUSH1 0x40 PUSH2 0x1C54 DUP2 DUP5 ADD PUSH2 0x1ACD JUMP JUMPDEST SWAP1 DUP3 ADD MSTORE DUP5 MSTORE SWAP3 DUP5 ADD SWAP3 DUP2 ADD PUSH2 0x1C16 JUMP JUMPDEST POP SWAP1 SWAP8 SWAP7 POP POP POP POP POP POP POP JUMP JUMPDEST PUSH0 DUP1 PUSH0 DUP1 PUSH1 0x80 DUP6 DUP8 SUB SLT ISZERO PUSH2 0x1C85 JUMPI PUSH0 DUP1 REVERT JUMPDEST DUP5 CALLDATALOAD PUSH8 0xFFFFFFFFFFFFFFFF DUP1 DUP3 GT ISZERO PUSH2 0x1C9C JUMPI PUSH0 DUP1 REVERT JUMPDEST DUP2 DUP8 ADD SWAP2 POP DUP8 PUSH1 0x1F DUP4 ADD SLT PUSH2 0x1CAF JUMPI PUSH0 DUP1 REVERT JUMPDEST DUP2 CALLDATALOAD PUSH1 0x20 PUSH2 0x1CBF PUSH2 0x1B07 DUP4 PUSH2 0x1AAA JUMP JUMPDEST DUP3 DUP2 MSTORE PUSH1 0x5 SWAP3 SWAP1 SWAP3 SHL DUP5 ADD DUP2 ADD SWAP2 DUP2 DUP2 ADD SWAP1 DUP12 DUP5 GT ISZERO PUSH2 0x1CDD JUMPI PUSH0 DUP1 REVERT JUMPDEST SWAP5 DUP3 ADD SWAP5 JUMPDEST DUP4 DUP7 LT ISZERO PUSH2 0x1D02 JUMPI PUSH2 0x1CF3 DUP7 PUSH2 0x1ACD JUMP JUMPDEST DUP3 MSTORE SWAP5 DUP3 ADD SWAP5 SWAP1 DUP3 ADD SWAP1 PUSH2 0x1CE2 JUMP JUMPDEST SWAP9 POP POP DUP9 ADD CALLDATALOAD SWAP3 POP POP DUP1 DUP3 GT ISZERO PUSH2 0x1D17 JUMPI PUSH0 DUP1 REVERT JUMPDEST PUSH2 0x1D23 DUP9 DUP4 DUP10 ADD PUSH2 0x1AE8 JUMP JUMPDEST SWAP5 POP PUSH1 0x40 DUP8 ADD CALLDATALOAD SWAP2 POP DUP1 DUP3 GT ISZERO PUSH2 0x1D38 JUMPI PUSH0 DUP1 REVERT JUMPDEST PUSH2 0x1D44 DUP9 DUP4 DUP10 ADD PUSH2 0x1B54 JUMP JUMPDEST SWAP4 POP PUSH1 0x60 DUP8 ADD CALLDATALOAD SWAP2 POP DUP1 DUP3 GT ISZERO PUSH2 0x1D59 JUMPI PUSH0 DUP1 REVERT JUMPDEST POP PUSH2 0x1D66 DUP8 DUP3 DUP9 ADD PUSH2 0x1BD5 JUMP JUMPDEST SWAP2 POP POP SWAP3 SWAP6 SWAP2 SWAP5 POP SWAP3 POP JUMP JUMPDEST PUSH0 DUP2 MLOAD DUP1 DUP5 MSTORE PUSH1 0x20 DUP1 DUP6 ADD SWAP5 POP PUSH1 0x20 DUP5 ADD PUSH0 JUMPDEST DUP4 DUP2 LT ISZERO PUSH2 0x1DAA JUMPI DUP2 MLOAD PUSH1 0x1 PUSH1 0x1 PUSH1 0xA0 SHL SUB AND DUP8 MSTORE SWAP6 DUP3 ADD SWAP6 SWAP1 DUP3 ADD SWAP1 PUSH1 0x1 ADD PUSH2 0x1D85 JUMP JUMPDEST POP SWAP5 SWAP6 SWAP5 POP POP POP POP POP JUMP JUMPDEST PUSH0 DUP2 MLOAD DUP1 DUP5 MSTORE PUSH1 0x20 DUP1 DUP6 ADD SWAP5 POP PUSH1 0x20 DUP5 ADD PUSH0 JUMPDEST DUP4 DUP2 LT ISZERO PUSH2 0x1DAA JUMPI DUP2 MLOAD DUP8 MSTORE SWAP6 DUP3 ADD SWAP6 SWAP1 DUP3 ADD SWAP1 PUSH1 0x1 ADD PUSH2 0x1DC8 JUMP JUMPDEST PUSH0 DUP2 MLOAD DUP1 DUP5 MSTORE PUSH1 0x20 DUP1 DUP6 ADD SWAP5 POP PUSH1 0x20 DUP5 ADD PUSH0 JUMPDEST DUP4 DUP2 LT ISZERO PUSH2 0x1DAA JUMPI DUP2 MLOAD DUP1 MLOAD PUSH1 0x1 PUSH1 0x1 PUSH1 0xA0 SHL SUB AND DUP9 MSTORE DUP4 ADD MLOAD DUP4 DUP9 ADD MSTORE PUSH1 0x40 SWAP1 SWAP7 ADD SWAP6 SWAP1 DUP3 ADD SWAP1 PUSH1 0x1 ADD PUSH2 0x1DF7 JUMP JUMPDEST PUSH0 DUP2 MLOAD DUP1 DUP5 MSTORE PUSH1 0x20 DUP1 DUP6 ADD SWAP5 POP PUSH1 0x20 DUP5 ADD PUSH0 JUMPDEST DUP4 DUP2 LT ISZERO PUSH2 0x1DAA JUMPI DUP2 MLOAD DUP1 MLOAD PUSH1 0x1 PUSH1 0x1 PUSH1 0xA0 SHL SUB SWAP1 DUP2 AND DUP10 MSTORE DUP5 DUP3 ADD MLOAD DUP6 DUP11 ADD MSTORE PUSH1 0x40 SWAP2 DUP3 ADD MLOAD AND SWAP1 DUP9 ADD MSTORE PUSH1 0x60 SWAP1 SWAP7 ADD SWAP6 SWAP1 DUP3 ADD SWAP1 PUSH1 0x1 ADD PUSH2 0x1E3A JUMP JUMPDEST PUSH1 0x20 DUP2 MSTORE PUSH2 0x1E92 PUSH1 0x20 DUP3 ADD DUP4 MLOAD PUSH1 0x1 PUSH1 0x1 PUSH1 0xA0 SHL SUB AND SWAP1 MSTORE JUMP JUMPDEST PUSH1 0x20 DUP3 ADD MLOAD PUSH1 0x40 DUP3 ADD MSTORE PUSH1 0x40 DUP3 ADD MLOAD PUSH1 0x60 DUP3 ADD MSTORE PUSH0 PUSH1 0x60 DUP4 ADD MLOAD PUSH2 0x1EBA PUSH1 0x80 DUP5 ADD DUP3 ISZERO ISZERO SWAP1 MSTORE JUMP JUMPDEST POP PUSH1 0x80 DUP4 ADD MLOAD DUP1 ISZERO ISZERO PUSH1 0xA0 DUP5 ADD MSTORE POP PUSH1 0xA0 DUP4 ADD MLOAD PUSH1 0xC0 DUP4 ADD MSTORE PUSH1 0xC0 DUP4 ADD MLOAD PUSH2 0x140 DUP1 PUSH1 0xE0 DUP6 ADD MSTORE PUSH2 0x1EEF PUSH2 0x160 DUP6 ADD DUP4 PUSH2 0x1D72 JUMP JUMPDEST SWAP2 POP PUSH1 0xE0 DUP6 ADD MLOAD PUSH1 0x1F NOT PUSH2 0x100 DUP2 DUP8 DUP7 SUB ADD DUP2 DUP9 ADD MSTORE PUSH2 0x1F0F DUP6 DUP5 PUSH2 0x1DB5 JUMP JUMPDEST SWAP5 POP DUP1 DUP9 ADD MLOAD SWAP3 POP POP PUSH2 0x120 DUP2 DUP8 DUP7 SUB ADD DUP2 DUP9 ADD MSTORE PUSH2 0x1F2E DUP6 DUP5 PUSH2 0x1DE4 JUMP JUMPDEST SWAP1 DUP9 ADD MLOAD DUP8 DUP3 SUB SWAP1 SWAP3 ADD DUP5 DUP9 ADD MSTORE SWAP4 POP SWAP1 POP PUSH2 0x1F4A DUP4 DUP3 PUSH2 0x1E27 JUMP JUMPDEST SWAP7 SWAP6 POP POP POP POP POP POP JUMP JUMPDEST PUSH0 PUSH1 0x20 DUP3 DUP5 SUB SLT ISZERO PUSH2 0x1F64 JUMPI PUSH0 DUP1 REVERT JUMPDEST PUSH2 0x1F6D DUP3 PUSH2 0x1ACD JUMP JUMPDEST SWAP4 SWAP3 POP POP POP JUMP JUMPDEST PUSH1 0x20 DUP1 DUP3 MSTORE PUSH1 0x24 SWAP1 DUP3 ADD MSTORE PUSH32 0x57696C6C20686173206265656E206578656375746564206F722063616E63656C PUSH1 0x40 DUP3 ADD MSTORE PUSH4 0x3632B217 PUSH1 0xE1 SHL PUSH1 0x60 DUP3 ADD MSTORE PUSH1 0x80 ADD SWAP1 JUMP JUMPDEST PUSH1 0x20 DUP1 DUP3 MSTORE PUSH1 0x26 SWAP1 DUP3 ADD MSTORE PUSH32 0x4F6E6C7920746865206F776E65722063616E2063616C6C20746869732066756E PUSH1 0x40 DUP3 ADD MSTORE PUSH6 0x31BA34B7B717 PUSH1 0xD1 SHL PUSH1 0x60 DUP3 ADD MSTORE PUSH1 0x80 ADD SWAP1 JUMP JUMPDEST PUSH4 0x4E487B71 PUSH1 0xE0 SHL PUSH0 MSTORE PUSH1 0x11 PUSH1 0x4 MSTORE PUSH1 0x24 PUSH0 REVERT JUMPDEST DUP1 DUP3 ADD DUP1 DUP3 GT ISZERO PUSH2 0x2025 JUMPI PUSH2 0x2025 PUSH2 0x1FFE JUMP JUMPDEST SWAP3 SWAP2 POP POP JUMP JUMPDEST DUP1 DUP3 MUL DUP2 ISZERO DUP3 DUP3 DIV DUP5 EQ OR PUSH2 0x2025 JUMPI PUSH2 0x2025 PUSH2 0x1FFE JUMP JUMPDEST PUSH0 DUP3 PUSH2 0x205C JUMPI PUSH4 0x4E487B71 PUSH1 0xE0 SHL PUSH0 MSTORE PUSH1 0x12 PUSH1 0x4 MSTORE PUSH1 0x24 PUSH0 REVERT JUMPDEST POP DIV SWAP1 JUMP JUMPDEST DUP2 DUP2 SUB DUP2 DUP2 GT ISZERO PUSH2 0x2025 JUMPI PUSH2 0x2025 PUSH2 0x1FFE JUMP JUMPDEST PUSH4 0x4E487B71 PUSH1 0xE0 SHL PUSH0 MSTORE PUSH1 0x32 PUSH1 0x4 MSTORE PUSH1 0x24 PUSH0 REVERT JUMPDEST PUSH0 PUSH1 0x20 DUP3 DUP5 SUB SLT ISZERO PUSH2 0x2098 JUMPI PUSH0 DUP1 REVERT JUMPDEST POP MLOAD SWAP2 SWAP1 POP JUMP JUMPDEST PUSH0 PUSH1 0x20 DUP3 DUP5 SUB SLT ISZERO PUSH2 0x20AF JUMPI PUSH0 DUP1 REVERT JUMPDEST DUP2 MLOAD DUP1 ISZERO ISZERO DUP2 EQ PUSH2 0x1F6D JUMPI PUSH0 DUP1 REVERT INVALID LOG2 PUSH5 0x6970667358 0x22 SLT KECCAK256 SWAP12 PUSH10 0xB5CC910FC6FA9EB85850 MSIZE SWAP12 DUP8 MLOAD SELFBALANCE PUSH2 0xA1E7 SAR 0x2A 0x21 PUSH20 0x7D1F264D8EA49E3964736F6C6343000818003300 "
				},
				"gasEstimates": {
					"creation": {
						"codeDepositCost": "1687200",
						"executionCost": "infinite",
						"totalCost": "infinite"
					},
					"external": {
						"EXECUTION_FEE_BPS()": "262",
						"cancelAndWithdraw()": "infinite",
						"distributionPercentages(uint256)": "4618",
						"erc20Assets(uint256)": "4623",
						"erc721Assets(uint256)": "8981",
						"execute()": "infinite",
						"executed()": "2399",
						"getContractBalance()": "260",
						"getWillDetails()": "infinite",
						"hasDiary()": "infinite",
						"heirs(uint256)": "4624",
						"initialize(address[],uint256[],(address,uint256)[],(address,uint256,address)[])": "infinite",
						"interval()": "infinite",
						"lastUpdate()": "2405",
						"owner()": "2429",
						"ping()": "27721",
						"renounceOwnership()": "infinite",
						"sourceContract()": "infinite",
						"terminationFee()": "infinite",
						"transferOwnership(address)": "28439"
					}
				},
				"methodIdentifiers": {
					"EXECUTION_FEE_BPS()": "2395d975",
					"cancelAndWithdraw()": "6b892b22",
					"distributionPercentages(uint256)": "1f99966a",
					"erc20Assets(uint256)": "9379f517",
					"erc721Assets(uint256)": "e15724a5",
					"execute()": "61461954",
					"executed()": "31a38c89",
					"getContractBalance()": "6f9fb98a",
					"getWillDetails()": "cc4f9d5b",
					"hasDiary()": "eed35fea",
					"heirs(uint256)": "1c0795c3",
					"initialize(address[],uint256[],(address,uint256)[],(address,uint256,address)[])": "abe21b59",
					"interval()": "947a36fb",
					"lastUpdate()": "c0463711",
					"owner()": "8da5cb5b",
					"ping()": "5c36b186",
					"renounceOwnership()": "715018a6",
					"sourceContract()": "a444ae41",
					"terminationFee()": "c7c85baa",
					"transferOwnership(address)": "f2fde38b"
				}
			},
			"storageLayout": {
				"storage": [
					{
						"astId": 8,
						"contract": "Will.sol:Will",
						"label": "_owner",
						"offset": 0,
						"slot": "0",
						"type": "t_address"
					},
					{
						"astId": 397,
						"contract": "Will.sol:Will",
						"label": "_status",
						"offset": 0,
						"slot": "1",
						"type": "t_uint256"
					},
					{
						"astId": 520,
						"contract": "Will.sol:Will",
						"label": "executed",
						"offset": 0,
						"slot": "2",
						"type": "t_bool"
					},
					{
						"astId": 522,
						"contract": "Will.sol:Will",
						"label": "lastUpdate",
						"offset": 0,
						"slot": "3",
						"type": "t_uint256"
					},
					{
						"astId": 533,
						"contract": "Will.sol:Will",
						"label": "heirs",
						"offset": 0,
						"slot": "4",
						"type": "t_array(t_address)dyn_storage"
					},
					{
						"astId": 536,
						"contract": "Will.sol:Will",
						"label": "distributionPercentages",
						"offset": 0,
						"slot": "5",
						"type": "t_array(t_uint256)dyn_storage"
					},
					{
						"astId": 540,
						"contract": "Will.sol:Will",
						"label": "erc20Assets",
						"offset": 0,
						"slot": "6",
						"type": "t_array(t_struct(Erc20Asset)489_storage)dyn_storage"
					},
					{
						"astId": 544,
						"contract": "Will.sol:Will",
						"label": "erc721Assets",
						"offset": 0,
						"slot": "7",
						"type": "t_array(t_struct(Erc721Asset)497_storage)dyn_storage"
					},
					{
						"astId": 546,
						"contract": "Will.sol:Will",
						"label": "_initialized",
						"offset": 0,
						"slot": "8",
						"type": "t_bool"
					}
				],
				"types": {
					"t_address": {
						"encoding": "inplace",
						"label": "address",
						"numberOfBytes": "20"
					},
					"t_array(t_address)dyn_storage": {
						"base": "t_address",
						"encoding": "dynamic_array",
						"label": "address[]",
						"numberOfBytes": "32"
					},
					"t_array(t_struct(Erc20Asset)489_storage)dyn_storage": {
						"base": "t_struct(Erc20Asset)489_storage",
						"encoding": "dynamic_array",
						"label": "struct Will.Erc20Asset[]",
						"numberOfBytes": "32"
					},
					"t_array(t_struct(Erc721Asset)497_storage)dyn_storage": {
						"base": "t_struct(Erc721Asset)497_storage",
						"encoding": "dynamic_array",
						"label": "struct Will.Erc721Asset[]",
						"numberOfBytes": "32"
					},
					"t_array(t_uint256)dyn_storage": {
						"base": "t_uint256",
						"encoding": "dynamic_array",
						"label": "uint256[]",
						"numberOfBytes": "32"
					},
					"t_bool": {
						"encoding": "inplace",
						"label": "bool",
						"numberOfBytes": "1"
					},
					"t_contract(IERC20)225": {
						"encoding": "inplace",
						"label": "contract IERC20",
						"numberOfBytes": "20"
					},
					"t_contract(IERC721)342": {
						"encoding": "inplace",
						"label": "contract IERC721",
						"numberOfBytes": "20"
					},
					"t_struct(Erc20Asset)489_storage": {
						"encoding": "inplace",
						"label": "struct Will.Erc20Asset",
						"members": [
							{
								"astId": 488,
								"contract": "Will.sol:Will",
								"label": "token",
								"offset": 0,
								"slot": "0",
								"type": "t_contract(IERC20)225"
							}
						],
						"numberOfBytes": "32"
					},
					"t_struct(Erc721Asset)497_storage": {
						"encoding": "inplace",
						"label": "struct Will.Erc721Asset",
						"members": [
							{
								"astId": 492,
								"contract": "Will.sol:Will",
								"label": "token",
								"offset": 0,
								"slot": "0",
								"type": "t_contract(IERC721)342"
							},
							{
								"astId": 494,
								"contract": "Will.sol:Will",
								"label": "tokenId",
								"offset": 0,
								"slot": "1",
								"type": "t_uint256"
							},
							{
								"astId": 496,
								"contract": "Will.sol:Will",
								"label": "heir",
								"offset": 0,
								"slot": "2",
								"type": "t_address"
							}
						],
						"numberOfBytes": "96"
					},
					"t_uint256": {
						"encoding": "inplace",
						"label": "uint256",
						"numberOfBytes": "32"
					}
				}
			},
			"userdoc": {
				"kind": "user",
				"methods": {},
				"notice": "A smart contract for an individual will or estate plan.",
				"version": 1
			}
		}
	}
}