{
	"Will.sol": {
		"Will": {
			"abi": [
				{
					"inputs": [
						{
							"internalType": "address",
							"name": "initialOwner",
							"type": "address"
						},
						{
							"internalType": "address[]",
							"name": "_heirs",
							"type": "address[]"
						},
						{
							"internalType": "uint256[]",
							"name": "_distro",
							"type": "uint256[]"
						},
						{
							"internalType": "uint256",
							"name": "_interval",
							"type": "uint256"
						},
						{
							"internalType": "address[]",
							"name": "_erc20Contracts",
							"type": "address[]"
						},
						{
							"internalType": "address[]",
							"name": "_nftContracts",
							"type": "address[]"
						},
						{
							"internalType": "uint256[]",
							"name": "_nftTokenIds",
							"type": "uint256[]"
						},
						{
							"internalType": "address[]",
							"name": "_nftHeirs",
							"type": "address[]"
						},
						{
							"internalType": "address",
							"name": "_sourceContract",
							"type": "address"
						},
						{
							"internalType": "uint256",
							"name": "_terminationFee",
							"type": "uint256"
						}
					],
					"stateMutability": "payable",
					"type": "constructor"
				},
				{
					"inputs": [
						{
							"internalType": "address",
							"name": "owner",
							"type": "address"
						}
					],
					"name": "OwnableInvalidOwner",
					"type": "error"
				},
				{
					"inputs": [
						{
							"internalType": "address",
							"name": "account",
							"type": "address"
						}
					],
					"name": "OwnableUnauthorizedAccount",
					"type": "error"
				},
				{
					"inputs": [],
					"name": "ReentrancyGuardReentrantCall",
					"type": "error"
				},
				{
					"anonymous": false,
					"inputs": [
						{
							"indexed": false,
							"internalType": "uint256",
							"name": "feePaid",
							"type": "uint256"
						}
					],
					"name": "Cancelled",
					"type": "event"
				},
				{
					"anonymous": false,
					"inputs": [
						{
							"indexed": false,
							"internalType": "address",
							"name": "executor",
							"type": "address"
						},
						{
							"indexed": false,
							"internalType": "uint256",
							"name": "ethFee",
							"type": "uint256"
						},
						{
							"indexed": false,
							"internalType": "address",
							"name": "feeRecipient",
							"type": "address"
						}
					],
					"name": "Executed",
					"type": "event"
				},
				{
					"anonymous": false,
					"inputs": [
						{
							"indexed": true,
							"internalType": "address",
							"name": "previousOwner",
							"type": "address"
						},
						{
							"indexed": true,
							"internalType": "address",
							"name": "newOwner",
							"type": "address"
						}
					],
					"name": "OwnershipTransferred",
					"type": "event"
				},
				{
					"anonymous": false,
					"inputs": [
						{
							"indexed": false,
							"internalType": "uint256",
							"name": "newLastUpdate",
							"type": "uint256"
						}
					],
					"name": "Ping",
					"type": "event"
				},
				{
					"inputs": [],
					"name": "EXECUTION_FEE_BPS",
					"outputs": [
						{
							"internalType": "uint256",
							"name": "",
							"type": "uint256"
						}
					],
					"stateMutability": "view",
					"type": "function"
				},
				{
					"inputs": [],
					"name": "cancelAndWithdraw",
					"outputs": [],
					"stateMutability": "nonpayable",
					"type": "function"
				},
				{
					"inputs": [
						{
							"internalType": "uint256",
							"name": "",
							"type": "uint256"
						}
					],
					"name": "distributionPercentages",
					"outputs": [
						{
							"internalType": "uint256",
							"name": "",
							"type": "uint256"
						}
					],
					"stateMutability": "view",
					"type": "function"
				},
				{
					"inputs": [
						{
							"internalType": "uint256",
							"name": "",
							"type": "uint256"
						}
					],
					"name": "erc20Assets",
					"outputs": [
						{
							"internalType": "contract IERC20",
							"name": "token",
							"type": "address"
						}
					],
					"stateMutability": "view",
					"type": "function"
				},
				{
					"inputs": [
						{
							"internalType": "uint256",
							"name": "",
							"type": "uint256"
						}
					],
					"name": "erc721Assets",
					"outputs": [
						{
							"internalType": "contract IERC721",
							"name": "token",
							"type": "address"
						},
						{
							"internalType": "uint256",
							"name": "tokenId",
							"type": "uint256"
						},
						{
							"internalType": "address",
							"name": "heir",
							"type": "address"
						}
					],
					"stateMutability": "view",
					"type": "function"
				},
				{
					"inputs": [],
					"name": "execute",
					"outputs": [],
					"stateMutability": "nonpayable",
					"type": "function"
				},
				{
					"inputs": [],
					"name": "executed",
					"outputs": [
						{
							"internalType": "bool",
							"name": "",
							"type": "bool"
						}
					],
					"stateMutability": "view",
					"type": "function"
				},
				{
					"inputs": [],
					"name": "getContractBalance",
					"outputs": [
						{
							"internalType": "uint256",
							"name": "",
							"type": "uint256"
						}
					],
					"stateMutability": "view",
					"type": "function"
				},
				{
					"inputs": [],
					"name": "getWillDetails",
					"outputs": [
						{
							"components": [
								{
									"internalType": "address",
									"name": "owner",
									"type": "address"
								},
								{
									"internalType": "uint256",
									"name": "interval",
									"type": "uint256"
								},
								{
									"internalType": "uint256",
									"name": "lastUpdate",
									"type": "uint256"
								},
								{
									"internalType": "bool",
									"name": "executed",
									"type": "bool"
								},
								{
									"internalType": "uint256",
									"name": "ethBalance",
									"type": "uint256"
								},
								{
									"internalType": "address[]",
									"name": "heirs",
									"type": "address[]"
								},
								{
									"internalType": "uint256[]",
									"name": "distributionPercentages",
									"type": "uint256[]"
								},
								{
									"components": [
										{
											"internalType": "address",
											"name": "tokenContract",
											"type": "address"
										},
										{
											"internalType": "uint256",
											"name": "balance",
											"type": "uint256"
										}
									],
									"internalType": "struct Erc20Detail[]",
									"name": "erc20Details",
									"type": "tuple[]"
								},
								{
									"components": [
										{
											"internalType": "address",
											"name": "tokenContract",
											"type": "address"
										},
										{
											"internalType": "uint256",
											"name": "tokenId",
											"type": "uint256"
										},
										{
											"internalType": "address",
											"name": "heir",
											"type": "address"
										}
									],
									"internalType": "struct Erc721Detail[]",
									"name": "erc721Details",
									"type": "tuple[]"
								}
							],
							"internalType": "struct WillDetails",
							"name": "",
							"type": "tuple"
						}
					],
					"stateMutability": "view",
					"type": "function"
				},
				{
					"inputs": [
						{
							"internalType": "uint256",
							"name": "",
							"type": "uint256"
						}
					],
					"name": "heirs",
					"outputs": [
						{
							"internalType": "address",
							"name": "",
							"type": "address"
						}
					],
					"stateMutability": "view",
					"type": "function"
				},
				{
					"inputs": [],
					"name": "interval",
					"outputs": [
						{
							"internalType": "uint256",
							"name": "",
							"type": "uint256"
						}
					],
					"stateMutability": "view",
					"type": "function"
				},
				{
					"inputs": [],
					"name": "lastUpdate",
					"outputs": [
						{
							"internalType": "uint256",
							"name": "",
							"type": "uint256"
						}
					],
					"stateMutability": "view",
					"type": "function"
				},
				{
					"inputs": [],
					"name": "owner",
					"outputs": [
						{
							"internalType": "address",
							"name": "",
							"type": "address"
						}
					],
					"stateMutability": "view",
					"type": "function"
				},
				{
					"inputs": [],
					"name": "ping",
					"outputs": [],
					"stateMutability": "nonpayable",
					"type": "function"
				},
				{
					"inputs": [],
					"name": "renounceOwnership",
					"outputs": [],
					"stateMutability": "nonpayable",
					"type": "function"
				},
				{
					"inputs": [],
					"name": "sourceContract",
					"outputs": [
						{
							"internalType": "address",
							"name": "",
							"type": "address"
						}
					],
					"stateMutability": "view",
					"type": "function"
				},
				{
					"inputs": [],
					"name": "terminationFee",
					"outputs": [
						{
							"internalType": "uint256",
							"name": "",
							"type": "uint256"
						}
					],
					"stateMutability": "view",
					"type": "function"
				},
				{
					"inputs": [
						{
							"internalType": "address",
							"name": "newOwner",
							"type": "address"
						}
					],
					"name": "transferOwnership",
					"outputs": [],
					"stateMutability": "nonpayable",
					"type": "function"
				}
			],
			"devdoc": {
				"errors": {
					"OwnableInvalidOwner(address)": [
						{
							"details": "The owner is not a valid owner account. (eg. `address(0)`)"
						}
					],
					"OwnableUnauthorizedAccount(address)": [
						{
							"details": "The caller account is not authorized to perform an operation."
						}
					],
					"ReentrancyGuardReentrantCall()": [
						{
							"details": "This error is returned by the `nonReentrant` modifier from the {ReentrancyGuard} contract."
						}
					]
				},
				"kind": "dev",
				"methods": {
					"owner()": {
						"details": "Returns the address of the current owner."
					},
					"renounceOwnership()": {
						"details": "Leaves the contract without owner. It will not be possible to call `onlyOwner` functions. Can only be called by the current owner. NOTE: Renouncing ownership will leave the contract without an owner, thereby disabling any functionality that is only available to the owner."
					},
					"transferOwnership(address)": {
						"details": "Transfers ownership of the contract to a new account (`newOwner`). Can only be called by the current owner."
					}
				},
				"title": "Will",
				"version": 1
			},
			"evm": {
				"assembly": "    /* \"Will.sol\":3498:12801  contract Will is Ownable, ReentrancyGuard { // Inheritance remains the same... */\n  mstore(0x40, 0xe0)\n    /* \"Will.sol\":5366:6902  constructor(... */\n  mload(0x40)\n  sub(codesize, bytecodeSize)\n  dup1\n  bytecodeSize\n  dup4\n  codecopy\n  dup2\n  dup2\n  add\n  0x40\n  mstore\n  dup2\n  add\n  swap1\n  tag_1\n  swap2\n  swap1\n  tag_2\n  jump\t// in\ntag_1:\n    /* \"Will.sol\":5758:5770  initialOwner */\n  dup10\n    /* \"@openzeppelin/contracts/access/Ownable.sol\":1297:1298  0 */\n  0x00\n    /* \"@openzeppelin/contracts/access/Ownable.sol\":1273:1299  initialOwner == address(0) */\n  0xffffffffffffffffffffffffffffffffffffffff\n  and\n    /* \"@openzeppelin/contracts/access/Ownable.sol\":1273:1285  initialOwner */\n  dup2\n    /* \"@openzeppelin/contracts/access/Ownable.sol\":1273:1299  initialOwner == address(0) */\n  0xffffffffffffffffffffffffffffffffffffffff\n  and\n  sub\n    /* \"@openzeppelin/contracts/access/Ownable.sol\":1269:1364  if (initialOwner == address(0)) {... */\n  tag_7\n  jumpi\n    /* \"@openzeppelin/contracts/access/Ownable.sol\":1350:1351  0 */\n  0x00\n    /* \"@openzeppelin/contracts/access/Ownable.sol\":1322:1353  OwnableInvalidOwner(address(0)) */\n  mload(0x40)\n  0x1e4fbdf700000000000000000000000000000000000000000000000000000000\n  dup2\n  mstore\n  0x04\n  add\n  tag_8\n  swap2\n  swap1\n  tag_9\n  jump\t// in\ntag_8:\n  mload(0x40)\n  dup1\n  swap2\n  sub\n  swap1\n  revert\n    /* \"@openzeppelin/contracts/access/Ownable.sol\":1269:1364  if (initialOwner == address(0)) {... */\ntag_7:\n    /* \"@openzeppelin/contracts/access/Ownable.sol\":1373:1405  _transferOwnership(initialOwner) */\n  tag_10\n    /* \"@openzeppelin/contracts/access/Ownable.sol\":1392:1404  initialOwner */\n  dup2\n    /* \"@openzeppelin/contracts/access/Ownable.sol\":1373:1391  _transferOwnership */\n  shl(0x20, tag_11)\n    /* \"@openzeppelin/contracts/access/Ownable.sol\":1373:1405  _transferOwnership(initialOwner) */\n  0x20\n  shr\n  jump\t// in\ntag_10:\n    /* \"@openzeppelin/contracts/access/Ownable.sol\":1225:1412  constructor(address initialOwner) {... */\n  pop\n    /* \"Will.sol\":1646:1647  1 */\n  0x01\n    /* \"Will.sol\":1757:1764  _status */\n  dup1\n    /* \"Will.sol\":1757:1779  _status = _NOT_ENTERED */\n  dup2\n  swap1\n  sstore\n  pop\n    /* \"Will.sol\":5808:5815  _distro */\n  dup8\n    /* \"Will.sol\":5808:5822  _distro.length */\n  mload\n    /* \"Will.sol\":5791:5797  _heirs */\n  dup10\n    /* \"Will.sol\":5791:5804  _heirs.length */\n  mload\n    /* \"Will.sol\":5791:5822  _heirs.length == _distro.length */\n  eq\n    /* \"Will.sol\":5783:5867  require(_heirs.length == _distro.length, \"Heirs and distributions length mismatch.\") */\n  tag_14\n  jumpi\n  mload(0x40)\n  0x08c379a000000000000000000000000000000000000000000000000000000000\n  dup2\n  mstore\n  0x04\n  add\n  tag_15\n  swap1\n  tag_16\n  jump\t// in\ntag_15:\n  mload(0x40)\n  dup1\n  swap2\n  sub\n  swap1\n  revert\ntag_14:\n    /* \"Will.sol\":5902:5903  0 */\n  0x00\n    /* \"Will.sol\":5886:5892  _heirs */\n  dup10\n    /* \"Will.sol\":5886:5899  _heirs.length */\n  mload\n    /* \"Will.sol\":5886:5903  _heirs.length > 0 */\n  gt\n    /* \"Will.sol\":5878:5930  require(_heirs.length > 0, \"Heirs cannot be empty.\") */\n  tag_17\n  jumpi\n  mload(0x40)\n  0x08c379a000000000000000000000000000000000000000000000000000000000\n  dup2\n  mstore\n  0x04\n  add\n  tag_18\n  swap1\n  tag_19\n  jump\t// in\ntag_18:\n  mload(0x40)\n  dup1\n  swap2\n  sub\n  swap1\n  revert\ntag_17:\n    /* \"Will.sol\":5987:5999  _nftTokenIds */\n  dup4\n    /* \"Will.sol\":5987:6006  _nftTokenIds.length */\n  mload\n    /* \"Will.sol\":5963:5976  _nftContracts */\n  dup6\n    /* \"Will.sol\":5963:5983  _nftContracts.length */\n  mload\n    /* \"Will.sol\":5963:6006  _nftContracts.length == _nftTokenIds.length */\n  eq\n    /* \"Will.sol\":5963:6049  _nftContracts.length == _nftTokenIds.length && _nftTokenIds.length == _nftHeirs.length */\n  dup1\n  iszero\n  tag_20\n  jumpi\n  pop\n    /* \"Will.sol\":6033:6042  _nftHeirs */\n  dup3\n    /* \"Will.sol\":6033:6049  _nftHeirs.length */\n  mload\n    /* \"Will.sol\":6010:6022  _nftTokenIds */\n  dup5\n    /* \"Will.sol\":6010:6029  _nftTokenIds.length */\n  mload\n    /* \"Will.sol\":6010:6049  _nftTokenIds.length == _nftHeirs.length */\n  eq\n    /* \"Will.sol\":5963:6049  _nftContracts.length == _nftTokenIds.length && _nftTokenIds.length == _nftHeirs.length */\ntag_20:\n    /* \"Will.sol\":5941:6109  require(... */\n  tag_21\n  jumpi\n  mload(0x40)\n  0x08c379a000000000000000000000000000000000000000000000000000000000\n  dup2\n  mstore\n  0x04\n  add\n  tag_22\n  swap1\n  tag_23\n  jump\t// in\ntag_22:\n  mload(0x40)\n  dup1\n  swap2\n  sub\n  swap1\n  revert\ntag_21:\n    /* \"Will.sol\":6122:6145  uint256 totalPercentage */\n  0x00\n    /* \"Will.sol\":6148:6149  0 */\n  0x00\n    /* \"Will.sol\":6122:6149  uint256 totalPercentage = 0 */\n  swap1\n  pop\n    /* \"Will.sol\":6165:6174  uint256 i */\n  0x00\n    /* \"Will.sol\":6177:6178  0 */\n  0x00\n    /* \"Will.sol\":6165:6178  uint256 i = 0 */\n  swap1\n  pop\n    /* \"Will.sol\":6160:6261  for (uint256 i = 0; i < _distro.length; i++) {... */\ntag_24:\n    /* \"Will.sol\":6184:6191  _distro */\n  dup10\n    /* \"Will.sol\":6184:6198  _distro.length */\n  mload\n    /* \"Will.sol\":6180:6181  i */\n  dup2\n    /* \"Will.sol\":6180:6198  i < _distro.length */\n  lt\n    /* \"Will.sol\":6160:6261  for (uint256 i = 0; i < _distro.length; i++) {... */\n  iszero\n  tag_25\n  jumpi\n    /* \"Will.sol\":6239:6246  _distro */\n  dup10\n    /* \"Will.sol\":6247:6248  i */\n  dup2\n    /* \"Will.sol\":6239:6249  _distro[i] */\n  dup2\n  mload\n  dup2\n  lt\n  tag_27\n  jumpi\n  tag_28\n  tag_29\n  jump\t// in\ntag_28:\ntag_27:\n  0x20\n  mul\n  0x20\n  add\n  add\n  mload\n    /* \"Will.sol\":6220:6249  totalPercentage += _distro[i] */\n  dup3\n  tag_30\n  swap2\n  swap1\n  tag_31\n  jump\t// in\ntag_30:\n  swap2\n  pop\n    /* \"Will.sol\":6200:6203  i++ */\n  dup1\n  dup1\n  0x01\n  add\n  swap2\n  pop\n  pop\n    /* \"Will.sol\":6160:6261  for (uint256 i = 0; i < _distro.length; i++) {... */\n  jump(tag_24)\ntag_25:\n  pop\n    /* \"Will.sol\":6298:6301  100 */\n  0x64\n    /* \"Will.sol\":6279:6294  totalPercentage */\n  dup2\n    /* \"Will.sol\":6279:6301  totalPercentage == 100 */\n  eq\n    /* \"Will.sol\":6271:6347  require(totalPercentage == 100, \"Distribution percentages must sum to 100.\") */\n  tag_32\n  jumpi\n  mload(0x40)\n  0x08c379a000000000000000000000000000000000000000000000000000000000\n  dup2\n  mstore\n  0x04\n  add\n  tag_33\n  swap1\n  tag_34\n  jump\t// in\ntag_33:\n  mload(0x40)\n  dup1\n  swap2\n  sub\n  swap1\n  revert\ntag_32:\n    /* \"Will.sol\":6373:6388  block.timestamp */\n  timestamp\n    /* \"Will.sol\":6360:6370  lastUpdate */\n  0x03\n    /* \"Will.sol\":6360:6388  lastUpdate = block.timestamp */\n  dup2\n  swap1\n  sstore\n  pop\n    /* \"Will.sol\":6410:6419  _interval */\n  dup8\n    /* \"Will.sol\":6399:6419  interval = _interval */\n  0x80\n  dup2\n  dup2\n  mstore\n  pop\n  pop\n    /* \"Will.sol\":6447:6462  _sourceContract */\n  dup3\n    /* \"Will.sol\":6430:6462  sourceContract = _sourceContract */\n  0xffffffffffffffffffffffffffffffffffffffff\n  and\n  0xa0\n  dup2\n  0xffffffffffffffffffffffffffffffffffffffff\n  and\n  dup2\n  mstore\n  pop\n  pop\n    /* \"Will.sol\":6490:6505  _terminationFee */\n  dup2\n    /* \"Will.sol\":6473:6505  terminationFee = _terminationFee */\n  0xc0\n  dup2\n  dup2\n  mstore\n  pop\n  pop\n    /* \"Will.sol\":6524:6530  _heirs */\n  dup10\n    /* \"Will.sol\":6516:6521  heirs */\n  0x04\n    /* \"Will.sol\":6516:6530  heirs = _heirs */\n  swap1\n  dup1\n  mload\n  swap1\n  0x20\n  add\n  swap1\n  tag_35\n  swap3\n  swap2\n  swap1\n  tag_36\n  jump\t// in\ntag_35:\n  pop\n    /* \"Will.sol\":6567:6574  _distro */\n  dup9\n    /* \"Will.sol\":6541:6564  distributionPercentages */\n  0x05\n    /* \"Will.sol\":6541:6574  distributionPercentages = _distro */\n  swap1\n  dup1\n  mload\n  swap1\n  0x20\n  add\n  swap1\n  tag_37\n  swap3\n  swap2\n  swap1\n  tag_38\n  jump\t// in\ntag_37:\n  pop\n    /* \"Will.sol\":6592:6598  uint i */\n  0x00\n    /* \"Will.sol\":6601:6602  0 */\n  0x00\n    /* \"Will.sol\":6592:6602  uint i = 0 */\n  swap1\n  pop\n    /* \"Will.sol\":6587:6720  for (uint i = 0; i < _erc20Contracts.length; i++) {... */\ntag_39:\n    /* \"Will.sol\":6608:6623  _erc20Contracts */\n  dup8\n    /* \"Will.sol\":6608:6630  _erc20Contracts.length */\n  mload\n    /* \"Will.sol\":6604:6605  i */\n  dup2\n    /* \"Will.sol\":6604:6630  i < _erc20Contracts.length */\n  lt\n    /* \"Will.sol\":6587:6720  for (uint i = 0; i < _erc20Contracts.length; i++) {... */\n  iszero\n  tag_40\n  jumpi\n    /* \"Will.sol\":6652:6663  erc20Assets */\n  0x06\n    /* \"Will.sol\":6669:6707  Erc20Asset(IERC20(_erc20Contracts[i])) */\n  mload(0x40)\n  dup1\n  0x20\n  add\n  0x40\n  mstore\n  dup1\n    /* \"Will.sol\":6687:6702  _erc20Contracts */\n  dup11\n    /* \"Will.sol\":6703:6704  i */\n  dup5\n    /* \"Will.sol\":6687:6705  _erc20Contracts[i] */\n  dup2\n  mload\n  dup2\n  lt\n  tag_42\n  jumpi\n  tag_43\n  tag_29\n  jump\t// in\ntag_43:\ntag_42:\n  0x20\n  mul\n  0x20\n  add\n  add\n  mload\n    /* \"Will.sol\":6669:6707  Erc20Asset(IERC20(_erc20Contracts[i])) */\n  0xffffffffffffffffffffffffffffffffffffffff\n  and\n  dup2\n  mstore\n  pop\n    /* \"Will.sol\":6652:6708  erc20Assets.push(Erc20Asset(IERC20(_erc20Contracts[i]))) */\n  swap1\n  dup1\n  0x01\n  dup2\n  sload\n  add\n  dup1\n  dup3\n  sstore\n  dup1\n  swap2\n  pop\n  pop\n  0x01\n  swap1\n  sub\n  swap1\n  0x00\n  mstore\n  keccak256(0x00, 0x20)\n  add\n  0x00\n  swap1\n  swap2\n  swap1\n  swap2\n  swap1\n  swap2\n  pop\n  0x00\n  dup3\n  add\n  mload\n  dup2\n  0x00\n  add\n  exp(0x0100, 0x00)\n  dup2\n  sload\n  dup2\n  0xffffffffffffffffffffffffffffffffffffffff\n  mul\n  not\n  and\n  swap1\n  dup4\n  0xffffffffffffffffffffffffffffffffffffffff\n  and\n  mul\n  or\n  swap1\n  sstore\n  pop\n  pop\n  pop\n    /* \"Will.sol\":6632:6635  i++ */\n  dup1\n  dup1\n  0x01\n  add\n  swap2\n  pop\n  pop\n    /* \"Will.sol\":6587:6720  for (uint i = 0; i < _erc20Contracts.length; i++) {... */\n  jump(tag_39)\ntag_40:\n  pop\n    /* \"Will.sol\":6737:6743  uint i */\n  0x00\n    /* \"Will.sol\":6746:6747  0 */\n  0x00\n    /* \"Will.sol\":6737:6747  uint i = 0 */\n  swap1\n  pop\n    /* \"Will.sol\":6732:6895  for (uint i = 0; i < _nftContracts.length; i++) {... */\ntag_45:\n    /* \"Will.sol\":6753:6766  _nftContracts */\n  dup7\n    /* \"Will.sol\":6753:6773  _nftContracts.length */\n  mload\n    /* \"Will.sol\":6749:6750  i */\n  dup2\n    /* \"Will.sol\":6749:6773  i < _nftContracts.length */\n  lt\n    /* \"Will.sol\":6732:6895  for (uint i = 0; i < _nftContracts.length; i++) {... */\n  iszero\n  tag_46\n  jumpi\n    /* \"Will.sol\":6795:6807  erc721Assets */\n  0x07\n    /* \"Will.sol\":6813:6882  Erc721Asset(IERC721(_nftContracts[i]), _nftTokenIds[i], _nftHeirs[i]) */\n  mload(0x40)\n  dup1\n  0x60\n  add\n  0x40\n  mstore\n  dup1\n    /* \"Will.sol\":6833:6846  _nftContracts */\n  dup10\n    /* \"Will.sol\":6847:6848  i */\n  dup5\n    /* \"Will.sol\":6833:6849  _nftContracts[i] */\n  dup2\n  mload\n  dup2\n  lt\n  tag_48\n  jumpi\n  tag_49\n  tag_29\n  jump\t// in\ntag_49:\ntag_48:\n  0x20\n  mul\n  0x20\n  add\n  add\n  mload\n    /* \"Will.sol\":6813:6882  Erc721Asset(IERC721(_nftContracts[i]), _nftTokenIds[i], _nftHeirs[i]) */\n  0xffffffffffffffffffffffffffffffffffffffff\n  and\n  dup2\n  mstore\n  0x20\n  add\n    /* \"Will.sol\":6852:6864  _nftTokenIds */\n  dup9\n    /* \"Will.sol\":6865:6866  i */\n  dup5\n    /* \"Will.sol\":6852:6867  _nftTokenIds[i] */\n  dup2\n  mload\n  dup2\n  lt\n  tag_50\n  jumpi\n  tag_51\n  tag_29\n  jump\t// in\ntag_51:\ntag_50:\n  0x20\n  mul\n  0x20\n  add\n  add\n  mload\n    /* \"Will.sol\":6813:6882  Erc721Asset(IERC721(_nftContracts[i]), _nftTokenIds[i], _nftHeirs[i]) */\n  dup2\n  mstore\n  0x20\n  add\n    /* \"Will.sol\":6869:6878  _nftHeirs */\n  dup8\n    /* \"Will.sol\":6879:6880  i */\n  dup5\n    /* \"Will.sol\":6869:6881  _nftHeirs[i] */\n  dup2\n  mload\n  dup2\n  lt\n  tag_52\n  jumpi\n  tag_53\n  tag_29\n  jump\t// in\ntag_53:\ntag_52:\n  0x20\n  mul\n  0x20\n  add\n  add\n  mload\n    /* \"Will.sol\":6813:6882  Erc721Asset(IERC721(_nftContracts[i]), _nftTokenIds[i], _nftHeirs[i]) */\n  0xffffffffffffffffffffffffffffffffffffffff\n  and\n  dup2\n  mstore\n  pop\n    /* \"Will.sol\":6795:6883  erc721Assets.push(Erc721Asset(IERC721(_nftContracts[i]), _nftTokenIds[i], _nftHeirs[i])) */\n  swap1\n  dup1\n  0x01\n  dup2\n  sload\n  add\n  dup1\n  dup3\n  sstore\n  dup1\n  swap2\n  pop\n  pop\n  0x01\n  swap1\n  sub\n  swap1\n  0x00\n  mstore\n  keccak256(0x00, 0x20)\n  swap1\n  0x03\n  mul\n  add\n  0x00\n  swap1\n  swap2\n  swap1\n  swap2\n  swap1\n  swap2\n  pop\n  0x00\n  dup3\n  add\n  mload\n  dup2\n  0x00\n  add\n  exp(0x0100, 0x00)\n  dup2\n  sload\n  dup2\n  0xffffffffffffffffffffffffffffffffffffffff\n  mul\n  not\n  and\n  swap1\n  dup4\n  0xffffffffffffffffffffffffffffffffffffffff\n  and\n  mul\n  or\n  swap1\n  sstore\n  pop\n  0x20\n  dup3\n  add\n  mload\n  dup2\n  0x01\n  add\n  sstore\n  0x40\n  dup3\n  add\n  mload\n  dup2\n  0x02\n  add\n  exp(0x0100, 0x00)\n  dup2\n  sload\n  dup2\n  0xffffffffffffffffffffffffffffffffffffffff\n  mul\n  not\n  and\n  swap1\n  dup4\n  0xffffffffffffffffffffffffffffffffffffffff\n  and\n  mul\n  or\n  swap1\n  sstore\n  pop\n  pop\n  pop\n    /* \"Will.sol\":6775:6778  i++ */\n  dup1\n  dup1\n  0x01\n  add\n  swap2\n  pop\n  pop\n    /* \"Will.sol\":6732:6895  for (uint i = 0; i < _nftContracts.length; i++) {... */\n  jump(tag_45)\ntag_46:\n  pop\n    /* \"Will.sol\":5772:6902  {... */\n  pop\n    /* \"Will.sol\":5366:6902  constructor(... */\n  pop\n  pop\n  pop\n  pop\n  pop\n  pop\n  pop\n  pop\n  pop\n  pop\n    /* \"Will.sol\":3498:12801  contract Will is Ownable, ReentrancyGuard { // Inheritance remains the same... */\n  jump(tag_55)\n    /* \"@openzeppelin/contracts/access/Ownable.sol\":2912:3099  function _transferOwnership(address newOwner) internal virtual {... */\ntag_11:\n    /* \"@openzeppelin/contracts/access/Ownable.sol\":2985:3001  address oldOwner */\n  0x00\n    /* \"@openzeppelin/contracts/access/Ownable.sol\":3004:3010  _owner */\n  0x00\n  0x00\n  swap1\n  sload\n  swap1\n  0x0100\n  exp\n  swap1\n  div\n  0xffffffffffffffffffffffffffffffffffffffff\n  and\n    /* \"@openzeppelin/contracts/access/Ownable.sol\":2985:3010  address oldOwner = _owner */\n  swap1\n  pop\n    /* \"@openzeppelin/contracts/access/Ownable.sol\":3029:3037  newOwner */\n  dup2\n    /* \"@openzeppelin/contracts/access/Ownable.sol\":3020:3026  _owner */\n  0x00\n  0x00\n    /* \"@openzeppelin/contracts/access/Ownable.sol\":3020:3037  _owner = newOwner */\n  0x0100\n  exp\n  dup2\n  sload\n  dup2\n  0xffffffffffffffffffffffffffffffffffffffff\n  mul\n  not\n  and\n  swap1\n  dup4\n  0xffffffffffffffffffffffffffffffffffffffff\n  and\n  mul\n  or\n  swap1\n  sstore\n  pop\n    /* \"@openzeppelin/contracts/access/Ownable.sol\":3083:3091  newOwner */\n  dup2\n    /* \"@openzeppelin/contracts/access/Ownable.sol\":3052:3092  OwnershipTransferred(oldOwner, newOwner) */\n  0xffffffffffffffffffffffffffffffffffffffff\n  and\n    /* \"@openzeppelin/contracts/access/Ownable.sol\":3073:3081  oldOwner */\n  dup2\n    /* \"@openzeppelin/contracts/access/Ownable.sol\":3052:3092  OwnershipTransferred(oldOwner, newOwner) */\n  0xffffffffffffffffffffffffffffffffffffffff\n  and\n  0x8be0079c531659141344cd1fd0a4f28419497f9722a3daafe3b4186f6b6457e0\n  mload(0x40)\n  mload(0x40)\n  dup1\n  swap2\n  sub\n  swap1\n  log3\n    /* \"@openzeppelin/contracts/access/Ownable.sol\":2975:3099  {... */\n  pop\n    /* \"@openzeppelin/contracts/access/Ownable.sol\":2912:3099  function _transferOwnership(address newOwner) internal virtual {... */\n  pop\n  jump\t// out\n    /* \"Will.sol\":3498:12801  contract Will is Ownable, ReentrancyGuard { // Inheritance remains the same... */\ntag_36:\n  dup3\n  dup1\n  sload\n  dup3\n  dup3\n  sstore\n  swap1\n  0x00\n  mstore\n  keccak256(0x00, 0x20)\n  swap1\n  dup2\n  add\n  swap3\n  dup3\n  iszero\n  tag_57\n  jumpi\n  swap2\n  0x20\n  mul\n  dup3\n  add\ntag_58:\n  dup3\n  dup2\n  gt\n  iszero\n  tag_59\n  jumpi\n  dup3\n  mload\n  dup3\n  exp(0x0100, 0x00)\n  dup2\n  sload\n  dup2\n  0xffffffffffffffffffffffffffffffffffffffff\n  mul\n  not\n  and\n  swap1\n  dup4\n  0xffffffffffffffffffffffffffffffffffffffff\n  and\n  mul\n  or\n  swap1\n  sstore\n  pop\n  swap2\n  0x20\n  add\n  swap2\n  swap1\n  0x01\n  add\n  swap1\n  jump(tag_58)\ntag_59:\ntag_57:\n  pop\n  swap1\n  pop\n  tag_60\n  swap2\n  swap1\n  tag_61\n  jump\t// in\ntag_60:\n  pop\n  swap1\n  jump\t// out\ntag_38:\n  dup3\n  dup1\n  sload\n  dup3\n  dup3\n  sstore\n  swap1\n  0x00\n  mstore\n  keccak256(0x00, 0x20)\n  swap1\n  dup2\n  add\n  swap3\n  dup3\n  iszero\n  tag_62\n  jumpi\n  swap2\n  0x20\n  mul\n  dup3\n  add\ntag_63:\n  dup3\n  dup2\n  gt\n  iszero\n  tag_64\n  jumpi\n  dup3\n  mload\n  dup3\n  sstore\n  swap2\n  0x20\n  add\n  swap2\n  swap1\n  0x01\n  add\n  swap1\n  jump(tag_63)\ntag_64:\ntag_62:\n  pop\n  swap1\n  pop\n  tag_65\n  swap2\n  swap1\n  tag_61\n  jump\t// in\ntag_65:\n  pop\n  swap1\n  jump\t// out\ntag_61:\ntag_66:\n  dup1\n  dup3\n  gt\n  iszero\n  tag_67\n  jumpi\n  0x00\n  dup2\n  0x00\n  swap1\n  sstore\n  pop\n  0x01\n  add\n  jump(tag_66)\ntag_67:\n  pop\n  swap1\n  jump\t// out\n    /* \"#utility.yul\":7:82   */\ntag_68:\n    /* \"#utility.yul\":40:46   */\n  0x00\n    /* \"#utility.yul\":73:75   */\n  0x40\n    /* \"#utility.yul\":67:76   */\n  mload\n    /* \"#utility.yul\":57:76   */\n  swap1\n  pop\n    /* \"#utility.yul\":7:82   */\n  swap1\n  jump\t// out\n    /* \"#utility.yul\":88:205   */\ntag_69:\n    /* \"#utility.yul\":197:198   */\n  0x00\n    /* \"#utility.yul\":194:195   */\n  0x00\n    /* \"#utility.yul\":187:199   */\n  revert\n    /* \"#utility.yul\":211:328   */\ntag_70:\n    /* \"#utility.yul\":320:321   */\n  0x00\n    /* \"#utility.yul\":317:318   */\n  0x00\n    /* \"#utility.yul\":310:322   */\n  revert\n    /* \"#utility.yul\":334:460   */\ntag_71:\n    /* \"#utility.yul\":371:378   */\n  0x00\n    /* \"#utility.yul\":411:453   */\n  0xffffffffffffffffffffffffffffffffffffffff\n    /* \"#utility.yul\":404:409   */\n  dup3\n    /* \"#utility.yul\":400:454   */\n  and\n    /* \"#utility.yul\":389:454   */\n  swap1\n  pop\n    /* \"#utility.yul\":334:460   */\n  swap2\n  swap1\n  pop\n  jump\t// out\n    /* \"#utility.yul\":466:562   */\ntag_72:\n    /* \"#utility.yul\":503:510   */\n  0x00\n    /* \"#utility.yul\":532:556   */\n  tag_107\n    /* \"#utility.yul\":550:555   */\n  dup3\n    /* \"#utility.yul\":532:556   */\n  tag_71\n  jump\t// in\ntag_107:\n    /* \"#utility.yul\":521:556   */\n  swap1\n  pop\n    /* \"#utility.yul\":466:562   */\n  swap2\n  swap1\n  pop\n  jump\t// out\n    /* \"#utility.yul\":568:690   */\ntag_73:\n    /* \"#utility.yul\":641:665   */\n  tag_109\n    /* \"#utility.yul\":659:664   */\n  dup2\n    /* \"#utility.yul\":641:665   */\n  tag_72\n  jump\t// in\ntag_109:\n    /* \"#utility.yul\":634:639   */\n  dup2\n    /* \"#utility.yul\":631:666   */\n  eq\n    /* \"#utility.yul\":621:684   */\n  tag_110\n  jumpi\n    /* \"#utility.yul\":680:681   */\n  0x00\n    /* \"#utility.yul\":677:678   */\n  0x00\n    /* \"#utility.yul\":670:682   */\n  revert\n    /* \"#utility.yul\":621:684   */\ntag_110:\n    /* \"#utility.yul\":568:690   */\n  pop\n  jump\t// out\n    /* \"#utility.yul\":696:839   */\ntag_74:\n    /* \"#utility.yul\":753:758   */\n  0x00\n    /* \"#utility.yul\":784:790   */\n  dup2\n    /* \"#utility.yul\":778:791   */\n  mload\n    /* \"#utility.yul\":769:791   */\n  swap1\n  pop\n    /* \"#utility.yul\":800:833   */\n  tag_112\n    /* \"#utility.yul\":827:832   */\n  dup2\n    /* \"#utility.yul\":800:833   */\n  tag_73\n  jump\t// in\ntag_112:\n    /* \"#utility.yul\":696:839   */\n  swap3\n  swap2\n  pop\n  pop\n  jump\t// out\n    /* \"#utility.yul\":845:962   */\ntag_75:\n    /* \"#utility.yul\":954:955   */\n  0x00\n    /* \"#utility.yul\":951:952   */\n  0x00\n    /* \"#utility.yul\":944:956   */\n  revert\n    /* \"#utility.yul\":968:1070   */\ntag_76:\n    /* \"#utility.yul\":1009:1015   */\n  0x00\n    /* \"#utility.yul\":1060:1062   */\n  0x1f\n    /* \"#utility.yul\":1056:1063   */\n  not\n    /* \"#utility.yul\":1051:1053   */\n  0x1f\n    /* \"#utility.yul\":1044:1049   */\n  dup4\n    /* \"#utility.yul\":1040:1054   */\n  add\n    /* \"#utility.yul\":1036:1064   */\n  and\n    /* \"#utility.yul\":1026:1064   */\n  swap1\n  pop\n    /* \"#utility.yul\":968:1070   */\n  swap2\n  swap1\n  pop\n  jump\t// out\n    /* \"#utility.yul\":1076:1256   */\ntag_77:\n    /* \"#utility.yul\":1124:1201   */\n  0x4e487b7100000000000000000000000000000000000000000000000000000000\n    /* \"#utility.yul\":1121:1122   */\n  0x00\n    /* \"#utility.yul\":1114:1202   */\n  mstore\n    /* \"#utility.yul\":1221:1225   */\n  0x41\n    /* \"#utility.yul\":1218:1219   */\n  0x04\n    /* \"#utility.yul\":1211:1226   */\n  mstore\n    /* \"#utility.yul\":1245:1249   */\n  0x24\n    /* \"#utility.yul\":1242:1243   */\n  0x00\n    /* \"#utility.yul\":1235:1250   */\n  revert\n    /* \"#utility.yul\":1262:1543   */\ntag_78:\n    /* \"#utility.yul\":1345:1372   */\n  tag_117\n    /* \"#utility.yul\":1367:1371   */\n  dup3\n    /* \"#utility.yul\":1345:1372   */\n  tag_76\n  jump\t// in\ntag_117:\n    /* \"#utility.yul\":1337:1343   */\n  dup2\n    /* \"#utility.yul\":1333:1373   */\n  add\n    /* \"#utility.yul\":1475:1481   */\n  dup2\n    /* \"#utility.yul\":1463:1473   */\n  dup2\n    /* \"#utility.yul\":1460:1482   */\n  lt\n    /* \"#utility.yul\":1439:1457   */\n  0xffffffffffffffff\n    /* \"#utility.yul\":1427:1437   */\n  dup3\n    /* \"#utility.yul\":1424:1458   */\n  gt\n    /* \"#utility.yul\":1421:1483   */\n  or\n    /* \"#utility.yul\":1418:1506   */\n  iszero\n  tag_118\n  jumpi\n    /* \"#utility.yul\":1486:1504   */\n  tag_119\n  tag_77\n  jump\t// in\ntag_119:\n    /* \"#utility.yul\":1418:1506   */\ntag_118:\n    /* \"#utility.yul\":1526:1536   */\n  dup1\n    /* \"#utility.yul\":1522:1524   */\n  0x40\n    /* \"#utility.yul\":1515:1537   */\n  mstore\n    /* \"#utility.yul\":1305:1543   */\n  pop\n    /* \"#utility.yul\":1262:1543   */\n  pop\n  pop\n  jump\t// out\n    /* \"#utility.yul\":1549:1678   */\ntag_79:\n    /* \"#utility.yul\":1583:1589   */\n  0x00\n    /* \"#utility.yul\":1610:1630   */\n  tag_121\n  tag_68\n  jump\t// in\ntag_121:\n    /* \"#utility.yul\":1600:1630   */\n  swap1\n  pop\n    /* \"#utility.yul\":1639:1672   */\n  tag_122\n    /* \"#utility.yul\":1667:1671   */\n  dup3\n    /* \"#utility.yul\":1659:1665   */\n  dup3\n    /* \"#utility.yul\":1639:1672   */\n  tag_78\n  jump\t// in\ntag_122:\n    /* \"#utility.yul\":1549:1678   */\n  swap2\n  swap1\n  pop\n  jump\t// out\n    /* \"#utility.yul\":1684:1995   */\ntag_80:\n    /* \"#utility.yul\":1761:1765   */\n  0x00\n    /* \"#utility.yul\":1851:1869   */\n  0xffffffffffffffff\n    /* \"#utility.yul\":1843:1849   */\n  dup3\n    /* \"#utility.yul\":1840:1870   */\n  gt\n    /* \"#utility.yul\":1837:1893   */\n  iszero\n  tag_124\n  jumpi\n    /* \"#utility.yul\":1873:1891   */\n  tag_125\n  tag_77\n  jump\t// in\ntag_125:\n    /* \"#utility.yul\":1837:1893   */\ntag_124:\n    /* \"#utility.yul\":1923:1927   */\n  0x20\n    /* \"#utility.yul\":1915:1921   */\n  dup3\n    /* \"#utility.yul\":1911:1928   */\n  mul\n    /* \"#utility.yul\":1903:1928   */\n  swap1\n  pop\n    /* \"#utility.yul\":1983:1987   */\n  0x20\n    /* \"#utility.yul\":1977:1981   */\n  dup2\n    /* \"#utility.yul\":1973:1988   */\n  add\n    /* \"#utility.yul\":1965:1988   */\n  swap1\n  pop\n    /* \"#utility.yul\":1684:1995   */\n  swap2\n  swap1\n  pop\n  jump\t// out\n    /* \"#utility.yul\":2001:2118   */\ntag_81:\n    /* \"#utility.yul\":2110:2111   */\n  0x00\n    /* \"#utility.yul\":2107:2108   */\n  0x00\n    /* \"#utility.yul\":2100:2112   */\n  revert\n    /* \"#utility.yul\":2141:2873   */\ntag_82:\n    /* \"#utility.yul\":2248:2253   */\n  0x00\n    /* \"#utility.yul\":2273:2354   */\n  tag_128\n    /* \"#utility.yul\":2289:2353   */\n  tag_129\n    /* \"#utility.yul\":2346:2352   */\n  dup5\n    /* \"#utility.yul\":2289:2353   */\n  tag_80\n  jump\t// in\ntag_129:\n    /* \"#utility.yul\":2273:2354   */\n  tag_79\n  jump\t// in\ntag_128:\n    /* \"#utility.yul\":2264:2354   */\n  swap1\n  pop\n    /* \"#utility.yul\":2374:2379   */\n  dup1\n    /* \"#utility.yul\":2403:2409   */\n  dup4\n    /* \"#utility.yul\":2396:2401   */\n  dup3\n    /* \"#utility.yul\":2389:2410   */\n  mstore\n    /* \"#utility.yul\":2437:2441   */\n  0x20\n    /* \"#utility.yul\":2430:2435   */\n  dup3\n    /* \"#utility.yul\":2426:2442   */\n  add\n    /* \"#utility.yul\":2419:2442   */\n  swap1\n  pop\n    /* \"#utility.yul\":2490:2494   */\n  0x20\n    /* \"#utility.yul\":2482:2488   */\n  dup5\n    /* \"#utility.yul\":2478:2495   */\n  mul\n    /* \"#utility.yul\":2470:2476   */\n  dup4\n    /* \"#utility.yul\":2466:2496   */\n  add\n    /* \"#utility.yul\":2519:2522   */\n  dup6\n    /* \"#utility.yul\":2511:2517   */\n  dup2\n    /* \"#utility.yul\":2508:2523   */\n  gt\n    /* \"#utility.yul\":2505:2627   */\n  iszero\n  tag_130\n  jumpi\n    /* \"#utility.yul\":2538:2617   */\n  tag_131\n  tag_81\n  jump\t// in\ntag_131:\n    /* \"#utility.yul\":2505:2627   */\ntag_130:\n    /* \"#utility.yul\":2653:2659   */\n  dup4\n    /* \"#utility.yul\":2636:2867   */\ntag_132:\n    /* \"#utility.yul\":2670:2676   */\n  dup2\n    /* \"#utility.yul\":2665:2668   */\n  dup2\n    /* \"#utility.yul\":2662:2677   */\n  lt\n    /* \"#utility.yul\":2636:2867   */\n  iszero\n  tag_134\n  jumpi\n    /* \"#utility.yul\":2745:2748   */\n  dup1\n    /* \"#utility.yul\":2774:2822   */\n  tag_135\n    /* \"#utility.yul\":2818:2821   */\n  dup9\n    /* \"#utility.yul\":2806:2816   */\n  dup3\n    /* \"#utility.yul\":2774:2822   */\n  tag_74\n  jump\t// in\ntag_135:\n    /* \"#utility.yul\":2769:2772   */\n  dup5\n    /* \"#utility.yul\":2762:2823   */\n  mstore\n    /* \"#utility.yul\":2852:2856   */\n  0x20\n    /* \"#utility.yul\":2847:2850   */\n  dup5\n    /* \"#utility.yul\":2843:2857   */\n  add\n    /* \"#utility.yul\":2836:2857   */\n  swap4\n  pop\n    /* \"#utility.yul\":2712:2867   */\n  pop\n    /* \"#utility.yul\":2696:2700   */\n  0x20\n    /* \"#utility.yul\":2691:2694   */\n  dup2\n    /* \"#utility.yul\":2687:2701   */\n  add\n    /* \"#utility.yul\":2680:2701   */\n  swap1\n  pop\n    /* \"#utility.yul\":2636:2867   */\n  jump(tag_132)\ntag_134:\n    /* \"#utility.yul\":2640:2661   */\n  pop\n    /* \"#utility.yul\":2254:2873   */\n  pop\n  pop\n    /* \"#utility.yul\":2141:2873   */\n  swap4\n  swap3\n  pop\n  pop\n  pop\n  jump\t// out\n    /* \"#utility.yul\":2896:3281   */\ntag_83:\n    /* \"#utility.yul\":2978:2983   */\n  0x00\n    /* \"#utility.yul\":3027:3030   */\n  dup3\n    /* \"#utility.yul\":3020:3024   */\n  0x1f\n    /* \"#utility.yul\":3012:3018   */\n  dup4\n    /* \"#utility.yul\":3008:3025   */\n  add\n    /* \"#utility.yul\":3004:3031   */\n  slt\n    /* \"#utility.yul\":2994:3116   */\n  tag_137\n  jumpi\n    /* \"#utility.yul\":3035:3114   */\n  tag_138\n  tag_75\n  jump\t// in\ntag_138:\n    /* \"#utility.yul\":2994:3116   */\ntag_137:\n    /* \"#utility.yul\":3145:3151   */\n  dup2\n    /* \"#utility.yul\":3139:3152   */\n  mload\n    /* \"#utility.yul\":3170:3275   */\n  tag_139\n    /* \"#utility.yul\":3271:3274   */\n  dup5\n    /* \"#utility.yul\":3263:3269   */\n  dup3\n    /* \"#utility.yul\":3256:3260   */\n  0x20\n    /* \"#utility.yul\":3248:3254   */\n  dup7\n    /* \"#utility.yul\":3244:3261   */\n  add\n    /* \"#utility.yul\":3170:3275   */\n  tag_82\n  jump\t// in\ntag_139:\n    /* \"#utility.yul\":3161:3275   */\n  swap2\n  pop\n    /* \"#utility.yul\":2984:3281   */\n  pop\n    /* \"#utility.yul\":2896:3281   */\n  swap3\n  swap2\n  pop\n  pop\n  jump\t// out\n    /* \"#utility.yul\":3287:3598   */\ntag_84:\n    /* \"#utility.yul\":3364:3368   */\n  0x00\n    /* \"#utility.yul\":3454:3472   */\n  0xffffffffffffffff\n    /* \"#utility.yul\":3446:3452   */\n  dup3\n    /* \"#utility.yul\":3443:3473   */\n  gt\n    /* \"#utility.yul\":3440:3496   */\n  iszero\n  tag_141\n  jumpi\n    /* \"#utility.yul\":3476:3494   */\n  tag_142\n  tag_77\n  jump\t// in\ntag_142:\n    /* \"#utility.yul\":3440:3496   */\ntag_141:\n    /* \"#utility.yul\":3526:3530   */\n  0x20\n    /* \"#utility.yul\":3518:3524   */\n  dup3\n    /* \"#utility.yul\":3514:3531   */\n  mul\n    /* \"#utility.yul\":3506:3531   */\n  swap1\n  pop\n    /* \"#utility.yul\":3586:3590   */\n  0x20\n    /* \"#utility.yul\":3580:3584   */\n  dup2\n    /* \"#utility.yul\":3576:3591   */\n  add\n    /* \"#utility.yul\":3568:3591   */\n  swap1\n  pop\n    /* \"#utility.yul\":3287:3598   */\n  swap2\n  swap1\n  pop\n  jump\t// out\n    /* \"#utility.yul\":3604:3681   */\ntag_85:\n    /* \"#utility.yul\":3641:3648   */\n  0x00\n    /* \"#utility.yul\":3670:3675   */\n  dup2\n    /* \"#utility.yul\":3659:3675   */\n  swap1\n  pop\n    /* \"#utility.yul\":3604:3681   */\n  swap2\n  swap1\n  pop\n  jump\t// out\n    /* \"#utility.yul\":3687:3809   */\ntag_86:\n    /* \"#utility.yul\":3760:3784   */\n  tag_145\n    /* \"#utility.yul\":3778:3783   */\n  dup2\n    /* \"#utility.yul\":3760:3784   */\n  tag_85\n  jump\t// in\ntag_145:\n    /* \"#utility.yul\":3753:3758   */\n  dup2\n    /* \"#utility.yul\":3750:3785   */\n  eq\n    /* \"#utility.yul\":3740:3803   */\n  tag_146\n  jumpi\n    /* \"#utility.yul\":3799:3800   */\n  0x00\n    /* \"#utility.yul\":3796:3797   */\n  0x00\n    /* \"#utility.yul\":3789:3801   */\n  revert\n    /* \"#utility.yul\":3740:3803   */\ntag_146:\n    /* \"#utility.yul\":3687:3809   */\n  pop\n  jump\t// out\n    /* \"#utility.yul\":3815:3958   */\ntag_87:\n    /* \"#utility.yul\":3872:3877   */\n  0x00\n    /* \"#utility.yul\":3903:3909   */\n  dup2\n    /* \"#utility.yul\":3897:3910   */\n  mload\n    /* \"#utility.yul\":3888:3910   */\n  swap1\n  pop\n    /* \"#utility.yul\":3919:3952   */\n  tag_148\n    /* \"#utility.yul\":3946:3951   */\n  dup2\n    /* \"#utility.yul\":3919:3952   */\n  tag_86\n  jump\t// in\ntag_148:\n    /* \"#utility.yul\":3815:3958   */\n  swap3\n  swap2\n  pop\n  pop\n  jump\t// out\n    /* \"#utility.yul\":3981:4713   */\ntag_88:\n    /* \"#utility.yul\":4088:4093   */\n  0x00\n    /* \"#utility.yul\":4113:4194   */\n  tag_150\n    /* \"#utility.yul\":4129:4193   */\n  tag_151\n    /* \"#utility.yul\":4186:4192   */\n  dup5\n    /* \"#utility.yul\":4129:4193   */\n  tag_84\n  jump\t// in\ntag_151:\n    /* \"#utility.yul\":4113:4194   */\n  tag_79\n  jump\t// in\ntag_150:\n    /* \"#utility.yul\":4104:4194   */\n  swap1\n  pop\n    /* \"#utility.yul\":4214:4219   */\n  dup1\n    /* \"#utility.yul\":4243:4249   */\n  dup4\n    /* \"#utility.yul\":4236:4241   */\n  dup3\n    /* \"#utility.yul\":4229:4250   */\n  mstore\n    /* \"#utility.yul\":4277:4281   */\n  0x20\n    /* \"#utility.yul\":4270:4275   */\n  dup3\n    /* \"#utility.yul\":4266:4282   */\n  add\n    /* \"#utility.yul\":4259:4282   */\n  swap1\n  pop\n    /* \"#utility.yul\":4330:4334   */\n  0x20\n    /* \"#utility.yul\":4322:4328   */\n  dup5\n    /* \"#utility.yul\":4318:4335   */\n  mul\n    /* \"#utility.yul\":4310:4316   */\n  dup4\n    /* \"#utility.yul\":4306:4336   */\n  add\n    /* \"#utility.yul\":4359:4362   */\n  dup6\n    /* \"#utility.yul\":4351:4357   */\n  dup2\n    /* \"#utility.yul\":4348:4363   */\n  gt\n    /* \"#utility.yul\":4345:4467   */\n  iszero\n  tag_152\n  jumpi\n    /* \"#utility.yul\":4378:4457   */\n  tag_153\n  tag_81\n  jump\t// in\ntag_153:\n    /* \"#utility.yul\":4345:4467   */\ntag_152:\n    /* \"#utility.yul\":4493:4499   */\n  dup4\n    /* \"#utility.yul\":4476:4707   */\ntag_154:\n    /* \"#utility.yul\":4510:4516   */\n  dup2\n    /* \"#utility.yul\":4505:4508   */\n  dup2\n    /* \"#utility.yul\":4502:4517   */\n  lt\n    /* \"#utility.yul\":4476:4707   */\n  iszero\n  tag_156\n  jumpi\n    /* \"#utility.yul\":4585:4588   */\n  dup1\n    /* \"#utility.yul\":4614:4662   */\n  tag_157\n    /* \"#utility.yul\":4658:4661   */\n  dup9\n    /* \"#utility.yul\":4646:4656   */\n  dup3\n    /* \"#utility.yul\":4614:4662   */\n  tag_87\n  jump\t// in\ntag_157:\n    /* \"#utility.yul\":4609:4612   */\n  dup5\n    /* \"#utility.yul\":4602:4663   */\n  mstore\n    /* \"#utility.yul\":4692:4696   */\n  0x20\n    /* \"#utility.yul\":4687:4690   */\n  dup5\n    /* \"#utility.yul\":4683:4697   */\n  add\n    /* \"#utility.yul\":4676:4697   */\n  swap4\n  pop\n    /* \"#utility.yul\":4552:4707   */\n  pop\n    /* \"#utility.yul\":4536:4540   */\n  0x20\n    /* \"#utility.yul\":4531:4534   */\n  dup2\n    /* \"#utility.yul\":4527:4541   */\n  add\n    /* \"#utility.yul\":4520:4541   */\n  swap1\n  pop\n    /* \"#utility.yul\":4476:4707   */\n  jump(tag_154)\ntag_156:\n    /* \"#utility.yul\":4480:4501   */\n  pop\n    /* \"#utility.yul\":4094:4713   */\n  pop\n  pop\n    /* \"#utility.yul\":3981:4713   */\n  swap4\n  swap3\n  pop\n  pop\n  pop\n  jump\t// out\n    /* \"#utility.yul\":4736:5121   */\ntag_89:\n    /* \"#utility.yul\":4818:4823   */\n  0x00\n    /* \"#utility.yul\":4867:4870   */\n  dup3\n    /* \"#utility.yul\":4860:4864   */\n  0x1f\n    /* \"#utility.yul\":4852:4858   */\n  dup4\n    /* \"#utility.yul\":4848:4865   */\n  add\n    /* \"#utility.yul\":4844:4871   */\n  slt\n    /* \"#utility.yul\":4834:4956   */\n  tag_159\n  jumpi\n    /* \"#utility.yul\":4875:4954   */\n  tag_160\n  tag_75\n  jump\t// in\ntag_160:\n    /* \"#utility.yul\":4834:4956   */\ntag_159:\n    /* \"#utility.yul\":4985:4991   */\n  dup2\n    /* \"#utility.yul\":4979:4992   */\n  mload\n    /* \"#utility.yul\":5010:5115   */\n  tag_161\n    /* \"#utility.yul\":5111:5114   */\n  dup5\n    /* \"#utility.yul\":5103:5109   */\n  dup3\n    /* \"#utility.yul\":5096:5100   */\n  0x20\n    /* \"#utility.yul\":5088:5094   */\n  dup7\n    /* \"#utility.yul\":5084:5101   */\n  add\n    /* \"#utility.yul\":5010:5115   */\n  tag_88\n  jump\t// in\ntag_161:\n    /* \"#utility.yul\":5001:5115   */\n  swap2\n  pop\n    /* \"#utility.yul\":4824:5121   */\n  pop\n    /* \"#utility.yul\":4736:5121   */\n  swap3\n  swap2\n  pop\n  pop\n  jump\t// out\n    /* \"#utility.yul\":5127:8107   */\ntag_2:\n    /* \"#utility.yul\":5428:5434   */\n  0x00\n    /* \"#utility.yul\":5436:5442   */\n  0x00\n    /* \"#utility.yul\":5444:5450   */\n  0x00\n    /* \"#utility.yul\":5452:5458   */\n  0x00\n    /* \"#utility.yul\":5460:5466   */\n  0x00\n    /* \"#utility.yul\":5468:5474   */\n  0x00\n    /* \"#utility.yul\":5476:5482   */\n  0x00\n    /* \"#utility.yul\":5484:5490   */\n  0x00\n    /* \"#utility.yul\":5492:5498   */\n  0x00\n    /* \"#utility.yul\":5500:5506   */\n  0x00\n    /* \"#utility.yul\":5549:5552   */\n  0x0140\n    /* \"#utility.yul\":5537:5546   */\n  dup12\n    /* \"#utility.yul\":5528:5535   */\n  dup14\n    /* \"#utility.yul\":5524:5547   */\n  sub\n    /* \"#utility.yul\":5520:5553   */\n  slt\n    /* \"#utility.yul\":5517:5637   */\n  iszero\n  tag_163\n  jumpi\n    /* \"#utility.yul\":5556:5635   */\n  tag_164\n  tag_69\n  jump\t// in\ntag_164:\n    /* \"#utility.yul\":5517:5637   */\ntag_163:\n    /* \"#utility.yul\":5676:5677   */\n  0x00\n    /* \"#utility.yul\":5701:5765   */\n  tag_165\n    /* \"#utility.yul\":5757:5764   */\n  dup14\n    /* \"#utility.yul\":5748:5754   */\n  dup3\n    /* \"#utility.yul\":5737:5746   */\n  dup15\n    /* \"#utility.yul\":5733:5755   */\n  add\n    /* \"#utility.yul\":5701:5765   */\n  tag_74\n  jump\t// in\ntag_165:\n    /* \"#utility.yul\":5691:5765   */\n  swap11\n  pop\n    /* \"#utility.yul\":5647:5775   */\n  pop\n    /* \"#utility.yul\":5835:5837   */\n  0x20\n    /* \"#utility.yul\":5824:5833   */\n  dup12\n    /* \"#utility.yul\":5820:5838   */\n  add\n    /* \"#utility.yul\":5814:5839   */\n  mload\n    /* \"#utility.yul\":5866:5884   */\n  0xffffffffffffffff\n    /* \"#utility.yul\":5858:5864   */\n  dup2\n    /* \"#utility.yul\":5855:5885   */\n  gt\n    /* \"#utility.yul\":5852:5969   */\n  iszero\n  tag_166\n  jumpi\n    /* \"#utility.yul\":5888:5967   */\n  tag_167\n  tag_70\n  jump\t// in\ntag_167:\n    /* \"#utility.yul\":5852:5969   */\ntag_166:\n    /* \"#utility.yul\":5993:6082   */\n  tag_168\n    /* \"#utility.yul\":6074:6081   */\n  dup14\n    /* \"#utility.yul\":6065:6071   */\n  dup3\n    /* \"#utility.yul\":6054:6063   */\n  dup15\n    /* \"#utility.yul\":6050:6072   */\n  add\n    /* \"#utility.yul\":5993:6082   */\n  tag_83\n  jump\t// in\ntag_168:\n    /* \"#utility.yul\":5983:6082   */\n  swap10\n  pop\n    /* \"#utility.yul\":5785:6092   */\n  pop\n    /* \"#utility.yul\":6152:6154   */\n  0x40\n    /* \"#utility.yul\":6141:6150   */\n  dup12\n    /* \"#utility.yul\":6137:6155   */\n  add\n    /* \"#utility.yul\":6131:6156   */\n  mload\n    /* \"#utility.yul\":6183:6201   */\n  0xffffffffffffffff\n    /* \"#utility.yul\":6175:6181   */\n  dup2\n    /* \"#utility.yul\":6172:6202   */\n  gt\n    /* \"#utility.yul\":6169:6286   */\n  iszero\n  tag_169\n  jumpi\n    /* \"#utility.yul\":6205:6284   */\n  tag_170\n  tag_70\n  jump\t// in\ntag_170:\n    /* \"#utility.yul\":6169:6286   */\ntag_169:\n    /* \"#utility.yul\":6310:6399   */\n  tag_171\n    /* \"#utility.yul\":6391:6398   */\n  dup14\n    /* \"#utility.yul\":6382:6388   */\n  dup3\n    /* \"#utility.yul\":6371:6380   */\n  dup15\n    /* \"#utility.yul\":6367:6389   */\n  add\n    /* \"#utility.yul\":6310:6399   */\n  tag_89\n  jump\t// in\ntag_171:\n    /* \"#utility.yul\":6300:6399   */\n  swap9\n  pop\n    /* \"#utility.yul\":6102:6409   */\n  pop\n    /* \"#utility.yul\":6448:6450   */\n  0x60\n    /* \"#utility.yul\":6474:6538   */\n  tag_172\n    /* \"#utility.yul\":6530:6537   */\n  dup14\n    /* \"#utility.yul\":6521:6527   */\n  dup3\n    /* \"#utility.yul\":6510:6519   */\n  dup15\n    /* \"#utility.yul\":6506:6528   */\n  add\n    /* \"#utility.yul\":6474:6538   */\n  tag_87\n  jump\t// in\ntag_172:\n    /* \"#utility.yul\":6464:6538   */\n  swap8\n  pop\n    /* \"#utility.yul\":6419:6548   */\n  pop\n    /* \"#utility.yul\":6608:6611   */\n  0x80\n    /* \"#utility.yul\":6597:6606   */\n  dup12\n    /* \"#utility.yul\":6593:6612   */\n  add\n    /* \"#utility.yul\":6587:6613   */\n  mload\n    /* \"#utility.yul\":6640:6658   */\n  0xffffffffffffffff\n    /* \"#utility.yul\":6632:6638   */\n  dup2\n    /* \"#utility.yul\":6629:6659   */\n  gt\n    /* \"#utility.yul\":6626:6743   */\n  iszero\n  tag_173\n  jumpi\n    /* \"#utility.yul\":6662:6741   */\n  tag_174\n  tag_70\n  jump\t// in\ntag_174:\n    /* \"#utility.yul\":6626:6743   */\ntag_173:\n    /* \"#utility.yul\":6767:6856   */\n  tag_175\n    /* \"#utility.yul\":6848:6855   */\n  dup14\n    /* \"#utility.yul\":6839:6845   */\n  dup3\n    /* \"#utility.yul\":6828:6837   */\n  dup15\n    /* \"#utility.yul\":6824:6846   */\n  add\n    /* \"#utility.yul\":6767:6856   */\n  tag_83\n  jump\t// in\ntag_175:\n    /* \"#utility.yul\":6757:6856   */\n  swap7\n  pop\n    /* \"#utility.yul\":6558:6866   */\n  pop\n    /* \"#utility.yul\":6926:6929   */\n  0xa0\n    /* \"#utility.yul\":6915:6924   */\n  dup12\n    /* \"#utility.yul\":6911:6930   */\n  add\n    /* \"#utility.yul\":6905:6931   */\n  mload\n    /* \"#utility.yul\":6958:6976   */\n  0xffffffffffffffff\n    /* \"#utility.yul\":6950:6956   */\n  dup2\n    /* \"#utility.yul\":6947:6977   */\n  gt\n    /* \"#utility.yul\":6944:7061   */\n  iszero\n  tag_176\n  jumpi\n    /* \"#utility.yul\":6980:7059   */\n  tag_177\n  tag_70\n  jump\t// in\ntag_177:\n    /* \"#utility.yul\":6944:7061   */\ntag_176:\n    /* \"#utility.yul\":7085:7174   */\n  tag_178\n    /* \"#utility.yul\":7166:7173   */\n  dup14\n    /* \"#utility.yul\":7157:7163   */\n  dup3\n    /* \"#utility.yul\":7146:7155   */\n  dup15\n    /* \"#utility.yul\":7142:7164   */\n  add\n    /* \"#utility.yul\":7085:7174   */\n  tag_83\n  jump\t// in\ntag_178:\n    /* \"#utility.yul\":7075:7174   */\n  swap6\n  pop\n    /* \"#utility.yul\":6876:7184   */\n  pop\n    /* \"#utility.yul\":7244:7247   */\n  0xc0\n    /* \"#utility.yul\":7233:7242   */\n  dup12\n    /* \"#utility.yul\":7229:7248   */\n  add\n    /* \"#utility.yul\":7223:7249   */\n  mload\n    /* \"#utility.yul\":7276:7294   */\n  0xffffffffffffffff\n    /* \"#utility.yul\":7268:7274   */\n  dup2\n    /* \"#utility.yul\":7265:7295   */\n  gt\n    /* \"#utility.yul\":7262:7379   */\n  iszero\n  tag_179\n  jumpi\n    /* \"#utility.yul\":7298:7377   */\n  tag_180\n  tag_70\n  jump\t// in\ntag_180:\n    /* \"#utility.yul\":7262:7379   */\ntag_179:\n    /* \"#utility.yul\":7403:7492   */\n  tag_181\n    /* \"#utility.yul\":7484:7491   */\n  dup14\n    /* \"#utility.yul\":7475:7481   */\n  dup3\n    /* \"#utility.yul\":7464:7473   */\n  dup15\n    /* \"#utility.yul\":7460:7482   */\n  add\n    /* \"#utility.yul\":7403:7492   */\n  tag_89\n  jump\t// in\ntag_181:\n    /* \"#utility.yul\":7393:7492   */\n  swap5\n  pop\n    /* \"#utility.yul\":7194:7502   */\n  pop\n    /* \"#utility.yul\":7562:7565   */\n  0xe0\n    /* \"#utility.yul\":7551:7560   */\n  dup12\n    /* \"#utility.yul\":7547:7566   */\n  add\n    /* \"#utility.yul\":7541:7567   */\n  mload\n    /* \"#utility.yul\":7594:7612   */\n  0xffffffffffffffff\n    /* \"#utility.yul\":7586:7592   */\n  dup2\n    /* \"#utility.yul\":7583:7613   */\n  gt\n    /* \"#utility.yul\":7580:7697   */\n  iszero\n  tag_182\n  jumpi\n    /* \"#utility.yul\":7616:7695   */\n  tag_183\n  tag_70\n  jump\t// in\ntag_183:\n    /* \"#utility.yul\":7580:7697   */\ntag_182:\n    /* \"#utility.yul\":7721:7810   */\n  tag_184\n    /* \"#utility.yul\":7802:7809   */\n  dup14\n    /* \"#utility.yul\":7793:7799   */\n  dup3\n    /* \"#utility.yul\":7782:7791   */\n  dup15\n    /* \"#utility.yul\":7778:7800   */\n  add\n    /* \"#utility.yul\":7721:7810   */\n  tag_83\n  jump\t// in\ntag_184:\n    /* \"#utility.yul\":7711:7810   */\n  swap4\n  pop\n    /* \"#utility.yul\":7512:7820   */\n  pop\n    /* \"#utility.yul\":7859:7862   */\n  0x0100\n    /* \"#utility.yul\":7886:7950   */\n  tag_185\n    /* \"#utility.yul\":7942:7949   */\n  dup14\n    /* \"#utility.yul\":7933:7939   */\n  dup3\n    /* \"#utility.yul\":7922:7931   */\n  dup15\n    /* \"#utility.yul\":7918:7940   */\n  add\n    /* \"#utility.yul\":7886:7950   */\n  tag_74\n  jump\t// in\ntag_185:\n    /* \"#utility.yul\":7876:7950   */\n  swap3\n  pop\n    /* \"#utility.yul\":7830:7960   */\n  pop\n    /* \"#utility.yul\":7999:8002   */\n  0x0120\n    /* \"#utility.yul\":8026:8090   */\n  tag_186\n    /* \"#utility.yul\":8082:8089   */\n  dup14\n    /* \"#utility.yul\":8073:8079   */\n  dup3\n    /* \"#utility.yul\":8062:8071   */\n  dup15\n    /* \"#utility.yul\":8058:8080   */\n  add\n    /* \"#utility.yul\":8026:8090   */\n  tag_87\n  jump\t// in\ntag_186:\n    /* \"#utility.yul\":8016:8090   */\n  swap2\n  pop\n    /* \"#utility.yul\":7970:8100   */\n  pop\n    /* \"#utility.yul\":5127:8107   */\n  swap3\n  swap6\n  swap9\n  swap12\n  swap2\n  swap5\n  swap8\n  swap11\n  pop\n  swap3\n  swap6\n  swap9\n  pop\n  jump\t// out\n    /* \"#utility.yul\":8113:8231   */\ntag_90:\n    /* \"#utility.yul\":8200:8224   */\n  tag_188\n    /* \"#utility.yul\":8218:8223   */\n  dup2\n    /* \"#utility.yul\":8200:8224   */\n  tag_72\n  jump\t// in\ntag_188:\n    /* \"#utility.yul\":8195:8198   */\n  dup3\n    /* \"#utility.yul\":8188:8225   */\n  mstore\n    /* \"#utility.yul\":8113:8231   */\n  pop\n  pop\n  jump\t// out\n    /* \"#utility.yul\":8237:8459   */\ntag_9:\n    /* \"#utility.yul\":8330:8334   */\n  0x00\n    /* \"#utility.yul\":8368:8370   */\n  0x20\n    /* \"#utility.yul\":8357:8366   */\n  dup3\n    /* \"#utility.yul\":8353:8371   */\n  add\n    /* \"#utility.yul\":8345:8371   */\n  swap1\n  pop\n    /* \"#utility.yul\":8381:8452   */\n  tag_190\n    /* \"#utility.yul\":8449:8450   */\n  0x00\n    /* \"#utility.yul\":8438:8447   */\n  dup4\n    /* \"#utility.yul\":8434:8451   */\n  add\n    /* \"#utility.yul\":8425:8431   */\n  dup5\n    /* \"#utility.yul\":8381:8452   */\n  tag_90\n  jump\t// in\ntag_190:\n    /* \"#utility.yul\":8237:8459   */\n  swap3\n  swap2\n  pop\n  pop\n  jump\t// out\n    /* \"#utility.yul\":8465:8634   */\ntag_91:\n    /* \"#utility.yul\":8549:8560   */\n  0x00\n    /* \"#utility.yul\":8583:8589   */\n  dup3\n    /* \"#utility.yul\":8578:8581   */\n  dup3\n    /* \"#utility.yul\":8571:8590   */\n  mstore\n    /* \"#utility.yul\":8623:8627   */\n  0x20\n    /* \"#utility.yul\":8618:8621   */\n  dup3\n    /* \"#utility.yul\":8614:8628   */\n  add\n    /* \"#utility.yul\":8599:8628   */\n  swap1\n  pop\n    /* \"#utility.yul\":8465:8634   */\n  swap3\n  swap2\n  pop\n  pop\n  jump\t// out\n    /* \"#utility.yul\":8640:8867   */\ntag_92:\n    /* \"#utility.yul\":8780:8814   */\n  0x486569727320616e6420646973747269627574696f6e73206c656e677468206d\n    /* \"#utility.yul\":8776:8777   */\n  0x00\n    /* \"#utility.yul\":8768:8774   */\n  dup3\n    /* \"#utility.yul\":8764:8778   */\n  add\n    /* \"#utility.yul\":8757:8815   */\n  mstore\n    /* \"#utility.yul\":8849:8859   */\n  0x69736d617463682e000000000000000000000000000000000000000000000000\n    /* \"#utility.yul\":8844:8846   */\n  0x20\n    /* \"#utility.yul\":8836:8842   */\n  dup3\n    /* \"#utility.yul\":8832:8847   */\n  add\n    /* \"#utility.yul\":8825:8860   */\n  mstore\n    /* \"#utility.yul\":8640:8867   */\n  pop\n  jump\t// out\n    /* \"#utility.yul\":8873:9239   */\ntag_93:\n    /* \"#utility.yul\":9015:9018   */\n  0x00\n    /* \"#utility.yul\":9036:9103   */\n  tag_194\n    /* \"#utility.yul\":9100:9102   */\n  0x28\n    /* \"#utility.yul\":9095:9098   */\n  dup4\n    /* \"#utility.yul\":9036:9103   */\n  tag_91\n  jump\t// in\ntag_194:\n    /* \"#utility.yul\":9029:9103   */\n  swap2\n  pop\n    /* \"#utility.yul\":9112:9205   */\n  tag_195\n    /* \"#utility.yul\":9201:9204   */\n  dup3\n    /* \"#utility.yul\":9112:9205   */\n  tag_92\n  jump\t// in\ntag_195:\n    /* \"#utility.yul\":9230:9232   */\n  0x40\n    /* \"#utility.yul\":9225:9228   */\n  dup3\n    /* \"#utility.yul\":9221:9233   */\n  add\n    /* \"#utility.yul\":9214:9233   */\n  swap1\n  pop\n    /* \"#utility.yul\":8873:9239   */\n  swap2\n  swap1\n  pop\n  jump\t// out\n    /* \"#utility.yul\":9245:9664   */\ntag_16:\n    /* \"#utility.yul\":9411:9415   */\n  0x00\n    /* \"#utility.yul\":9449:9451   */\n  0x20\n    /* \"#utility.yul\":9438:9447   */\n  dup3\n    /* \"#utility.yul\":9434:9452   */\n  add\n    /* \"#utility.yul\":9426:9452   */\n  swap1\n  pop\n    /* \"#utility.yul\":9498:9507   */\n  dup2\n    /* \"#utility.yul\":9492:9496   */\n  dup2\n    /* \"#utility.yul\":9488:9508   */\n  sub\n    /* \"#utility.yul\":9484:9485   */\n  0x00\n    /* \"#utility.yul\":9473:9482   */\n  dup4\n    /* \"#utility.yul\":9469:9486   */\n  add\n    /* \"#utility.yul\":9462:9509   */\n  mstore\n    /* \"#utility.yul\":9526:9657   */\n  tag_197\n    /* \"#utility.yul\":9652:9656   */\n  dup2\n    /* \"#utility.yul\":9526:9657   */\n  tag_93\n  jump\t// in\ntag_197:\n    /* \"#utility.yul\":9518:9657   */\n  swap1\n  pop\n    /* \"#utility.yul\":9245:9664   */\n  swap2\n  swap1\n  pop\n  jump\t// out\n    /* \"#utility.yul\":9670:9842   */\ntag_94:\n    /* \"#utility.yul\":9810:9834   */\n  0x48656972732063616e6e6f7420626520656d7074792e00000000000000000000\n    /* \"#utility.yul\":9806:9807   */\n  0x00\n    /* \"#utility.yul\":9798:9804   */\n  dup3\n    /* \"#utility.yul\":9794:9808   */\n  add\n    /* \"#utility.yul\":9787:9835   */\n  mstore\n    /* \"#utility.yul\":9670:9842   */\n  pop\n  jump\t// out\n    /* \"#utility.yul\":9848:10214   */\ntag_95:\n    /* \"#utility.yul\":9990:9993   */\n  0x00\n    /* \"#utility.yul\":10011:10078   */\n  tag_200\n    /* \"#utility.yul\":10075:10077   */\n  0x16\n    /* \"#utility.yul\":10070:10073   */\n  dup4\n    /* \"#utility.yul\":10011:10078   */\n  tag_91\n  jump\t// in\ntag_200:\n    /* \"#utility.yul\":10004:10078   */\n  swap2\n  pop\n    /* \"#utility.yul\":10087:10180   */\n  tag_201\n    /* \"#utility.yul\":10176:10179   */\n  dup3\n    /* \"#utility.yul\":10087:10180   */\n  tag_94\n  jump\t// in\ntag_201:\n    /* \"#utility.yul\":10205:10207   */\n  0x20\n    /* \"#utility.yul\":10200:10203   */\n  dup3\n    /* \"#utility.yul\":10196:10208   */\n  add\n    /* \"#utility.yul\":10189:10208   */\n  swap1\n  pop\n    /* \"#utility.yul\":9848:10214   */\n  swap2\n  swap1\n  pop\n  jump\t// out\n    /* \"#utility.yul\":10220:10639   */\ntag_19:\n    /* \"#utility.yul\":10386:10390   */\n  0x00\n    /* \"#utility.yul\":10424:10426   */\n  0x20\n    /* \"#utility.yul\":10413:10422   */\n  dup3\n    /* \"#utility.yul\":10409:10427   */\n  add\n    /* \"#utility.yul\":10401:10427   */\n  swap1\n  pop\n    /* \"#utility.yul\":10473:10482   */\n  dup2\n    /* \"#utility.yul\":10467:10471   */\n  dup2\n    /* \"#utility.yul\":10463:10483   */\n  sub\n    /* \"#utility.yul\":10459:10460   */\n  0x00\n    /* \"#utility.yul\":10448:10457   */\n  dup4\n    /* \"#utility.yul\":10444:10461   */\n  add\n    /* \"#utility.yul\":10437:10484   */\n  mstore\n    /* \"#utility.yul\":10501:10632   */\n  tag_203\n    /* \"#utility.yul\":10627:10631   */\n  dup2\n    /* \"#utility.yul\":10501:10632   */\n  tag_95\n  jump\t// in\ntag_203:\n    /* \"#utility.yul\":10493:10632   */\n  swap1\n  pop\n    /* \"#utility.yul\":10220:10639   */\n  swap2\n  swap1\n  pop\n  jump\t// out\n    /* \"#utility.yul\":10645:10827   */\ntag_96:\n    /* \"#utility.yul\":10785:10819   */\n  0x4e46542064617461206172726179206c656e67746873206d69736d617463682e\n    /* \"#utility.yul\":10781:10782   */\n  0x00\n    /* \"#utility.yul\":10773:10779   */\n  dup3\n    /* \"#utility.yul\":10769:10783   */\n  add\n    /* \"#utility.yul\":10762:10820   */\n  mstore\n    /* \"#utility.yul\":10645:10827   */\n  pop\n  jump\t// out\n    /* \"#utility.yul\":10833:11199   */\ntag_97:\n    /* \"#utility.yul\":10975:10978   */\n  0x00\n    /* \"#utility.yul\":10996:11063   */\n  tag_206\n    /* \"#utility.yul\":11060:11062   */\n  0x20\n    /* \"#utility.yul\":11055:11058   */\n  dup4\n    /* \"#utility.yul\":10996:11063   */\n  tag_91\n  jump\t// in\ntag_206:\n    /* \"#utility.yul\":10989:11063   */\n  swap2\n  pop\n    /* \"#utility.yul\":11072:11165   */\n  tag_207\n    /* \"#utility.yul\":11161:11164   */\n  dup3\n    /* \"#utility.yul\":11072:11165   */\n  tag_96\n  jump\t// in\ntag_207:\n    /* \"#utility.yul\":11190:11192   */\n  0x20\n    /* \"#utility.yul\":11185:11188   */\n  dup3\n    /* \"#utility.yul\":11181:11193   */\n  add\n    /* \"#utility.yul\":11174:11193   */\n  swap1\n  pop\n    /* \"#utility.yul\":10833:11199   */\n  swap2\n  swap1\n  pop\n  jump\t// out\n    /* \"#utility.yul\":11205:11624   */\ntag_23:\n    /* \"#utility.yul\":11371:11375   */\n  0x00\n    /* \"#utility.yul\":11409:11411   */\n  0x20\n    /* \"#utility.yul\":11398:11407   */\n  dup3\n    /* \"#utility.yul\":11394:11412   */\n  add\n    /* \"#utility.yul\":11386:11412   */\n  swap1\n  pop\n    /* \"#utility.yul\":11458:11467   */\n  dup2\n    /* \"#utility.yul\":11452:11456   */\n  dup2\n    /* \"#utility.yul\":11448:11468   */\n  sub\n    /* \"#utility.yul\":11444:11445   */\n  0x00\n    /* \"#utility.yul\":11433:11442   */\n  dup4\n    /* \"#utility.yul\":11429:11446   */\n  add\n    /* \"#utility.yul\":11422:11469   */\n  mstore\n    /* \"#utility.yul\":11486:11617   */\n  tag_209\n    /* \"#utility.yul\":11612:11616   */\n  dup2\n    /* \"#utility.yul\":11486:11617   */\n  tag_97\n  jump\t// in\ntag_209:\n    /* \"#utility.yul\":11478:11617   */\n  swap1\n  pop\n    /* \"#utility.yul\":11205:11624   */\n  swap2\n  swap1\n  pop\n  jump\t// out\n    /* \"#utility.yul\":11630:11810   */\ntag_29:\n    /* \"#utility.yul\":11678:11755   */\n  0x4e487b7100000000000000000000000000000000000000000000000000000000\n    /* \"#utility.yul\":11675:11676   */\n  0x00\n    /* \"#utility.yul\":11668:11756   */\n  mstore\n    /* \"#utility.yul\":11775:11779   */\n  0x32\n    /* \"#utility.yul\":11772:11773   */\n  0x04\n    /* \"#utility.yul\":11765:11780   */\n  mstore\n    /* \"#utility.yul\":11799:11803   */\n  0x24\n    /* \"#utility.yul\":11796:11797   */\n  0x00\n    /* \"#utility.yul\":11789:11804   */\n  revert\n    /* \"#utility.yul\":11816:11996   */\ntag_98:\n    /* \"#utility.yul\":11864:11941   */\n  0x4e487b7100000000000000000000000000000000000000000000000000000000\n    /* \"#utility.yul\":11861:11862   */\n  0x00\n    /* \"#utility.yul\":11854:11942   */\n  mstore\n    /* \"#utility.yul\":11961:11965   */\n  0x11\n    /* \"#utility.yul\":11958:11959   */\n  0x04\n    /* \"#utility.yul\":11951:11966   */\n  mstore\n    /* \"#utility.yul\":11985:11989   */\n  0x24\n    /* \"#utility.yul\":11982:11983   */\n  0x00\n    /* \"#utility.yul\":11975:11990   */\n  revert\n    /* \"#utility.yul\":12002:12193   */\ntag_31:\n    /* \"#utility.yul\":12042:12045   */\n  0x00\n    /* \"#utility.yul\":12061:12081   */\n  tag_213\n    /* \"#utility.yul\":12079:12080   */\n  dup3\n    /* \"#utility.yul\":12061:12081   */\n  tag_85\n  jump\t// in\ntag_213:\n    /* \"#utility.yul\":12056:12081   */\n  swap2\n  pop\n    /* \"#utility.yul\":12095:12115   */\n  tag_214\n    /* \"#utility.yul\":12113:12114   */\n  dup4\n    /* \"#utility.yul\":12095:12115   */\n  tag_85\n  jump\t// in\ntag_214:\n    /* \"#utility.yul\":12090:12115   */\n  swap3\n  pop\n    /* \"#utility.yul\":12138:12139   */\n  dup3\n    /* \"#utility.yul\":12135:12136   */\n  dup3\n    /* \"#utility.yul\":12131:12140   */\n  add\n    /* \"#utility.yul\":12124:12140   */\n  swap1\n  pop\n    /* \"#utility.yul\":12159:12162   */\n  dup1\n    /* \"#utility.yul\":12156:12157   */\n  dup3\n    /* \"#utility.yul\":12153:12163   */\n  gt\n    /* \"#utility.yul\":12150:12186   */\n  iszero\n  tag_215\n  jumpi\n    /* \"#utility.yul\":12166:12184   */\n  tag_216\n  tag_98\n  jump\t// in\ntag_216:\n    /* \"#utility.yul\":12150:12186   */\ntag_215:\n    /* \"#utility.yul\":12002:12193   */\n  swap3\n  swap2\n  pop\n  pop\n  jump\t// out\n    /* \"#utility.yul\":12199:12427   */\ntag_99:\n    /* \"#utility.yul\":12339:12373   */\n  0x446973747269627574696f6e2070657263656e7461676573206d757374207375\n    /* \"#utility.yul\":12335:12336   */\n  0x00\n    /* \"#utility.yul\":12327:12333   */\n  dup3\n    /* \"#utility.yul\":12323:12337   */\n  add\n    /* \"#utility.yul\":12316:12374   */\n  mstore\n    /* \"#utility.yul\":12408:12419   */\n  0x6d20746f203130302e0000000000000000000000000000000000000000000000\n    /* \"#utility.yul\":12403:12405   */\n  0x20\n    /* \"#utility.yul\":12395:12401   */\n  dup3\n    /* \"#utility.yul\":12391:12406   */\n  add\n    /* \"#utility.yul\":12384:12420   */\n  mstore\n    /* \"#utility.yul\":12199:12427   */\n  pop\n  jump\t// out\n    /* \"#utility.yul\":12433:12799   */\ntag_100:\n    /* \"#utility.yul\":12575:12578   */\n  0x00\n    /* \"#utility.yul\":12596:12663   */\n  tag_219\n    /* \"#utility.yul\":12660:12662   */\n  0x29\n    /* \"#utility.yul\":12655:12658   */\n  dup4\n    /* \"#utility.yul\":12596:12663   */\n  tag_91\n  jump\t// in\ntag_219:\n    /* \"#utility.yul\":12589:12663   */\n  swap2\n  pop\n    /* \"#utility.yul\":12672:12765   */\n  tag_220\n    /* \"#utility.yul\":12761:12764   */\n  dup3\n    /* \"#utility.yul\":12672:12765   */\n  tag_99\n  jump\t// in\ntag_220:\n    /* \"#utility.yul\":12790:12792   */\n  0x40\n    /* \"#utility.yul\":12785:12788   */\n  dup3\n    /* \"#utility.yul\":12781:12793   */\n  add\n    /* \"#utility.yul\":12774:12793   */\n  swap1\n  pop\n    /* \"#utility.yul\":12433:12799   */\n  swap2\n  swap1\n  pop\n  jump\t// out\n    /* \"#utility.yul\":12805:13224   */\ntag_34:\n    /* \"#utility.yul\":12971:12975   */\n  0x00\n    /* \"#utility.yul\":13009:13011   */\n  0x20\n    /* \"#utility.yul\":12998:13007   */\n  dup3\n    /* \"#utility.yul\":12994:13012   */\n  add\n    /* \"#utility.yul\":12986:13012   */\n  swap1\n  pop\n    /* \"#utility.yul\":13058:13067   */\n  dup2\n    /* \"#utility.yul\":13052:13056   */\n  dup2\n    /* \"#utility.yul\":13048:13068   */\n  sub\n    /* \"#utility.yul\":13044:13045   */\n  0x00\n    /* \"#utility.yul\":13033:13042   */\n  dup4\n    /* \"#utility.yul\":13029:13046   */\n  add\n    /* \"#utility.yul\":13022:13069   */\n  mstore\n    /* \"#utility.yul\":13086:13217   */\n  tag_222\n    /* \"#utility.yul\":13212:13216   */\n  dup2\n    /* \"#utility.yul\":13086:13217   */\n  tag_100\n  jump\t// in\ntag_222:\n    /* \"#utility.yul\":13078:13217   */\n  swap1\n  pop\n    /* \"#utility.yul\":12805:13224   */\n  swap2\n  swap1\n  pop\n  jump\t// out\n    /* \"Will.sol\":3498:12801  contract Will is Ownable, ReentrancyGuard { // Inheritance remains the same... */\ntag_55:\n  mload(0x80)\n  mload(0xa0)\n  mload(0xc0)\n  codecopy(0x00, dataOffset(sub_0), dataSize(sub_0))\n  0x00\n  assignImmutable(\"0x62d593b3f307276e88778a5c8844a236ff823a094bc36579219d0f8aab42d991\")\n  0x00\n  assignImmutable(\"0x292432369508bafa441d992585f22625b04011217dd882787ad29573f5e31a1a\")\n  0x00\n  assignImmutable(\"0xca4b0db001bf2677ca5ac885bd7766c7c4b4b5d0170066d4830e0728bf019f64\")\n  return(0x00, dataSize(sub_0))\nstop\n\nsub_0: assembly {\n        /* \"Will.sol\":3498:12801  contract Will is Ownable, ReentrancyGuard { // Inheritance remains the same... */\n      mstore(0x40, 0x80)\n      callvalue\n      dup1\n      iszero\n      tag_1\n      jumpi\n      revert(0x00, 0x00)\n    tag_1:\n      pop\n      jumpi(tag_2, lt(calldatasize, 0x04))\n      shr(0xe0, calldataload(0x00))\n      dup1\n      0x8da5cb5b\n      gt\n      tag_21\n      jumpi\n      dup1\n      0xc0463711\n      gt\n      tag_22\n      jumpi\n      dup1\n      0xc0463711\n      eq\n      tag_16\n      jumpi\n      dup1\n      0xc7c85baa\n      eq\n      tag_17\n      jumpi\n      dup1\n      0xcc4f9d5b\n      eq\n      tag_18\n      jumpi\n      dup1\n      0xe15724a5\n      eq\n      tag_19\n      jumpi\n      dup1\n      0xf2fde38b\n      eq\n      tag_20\n      jumpi\n      jump(tag_2)\n    tag_22:\n      dup1\n      0x8da5cb5b\n      eq\n      tag_12\n      jumpi\n      dup1\n      0x9379f517\n      eq\n      tag_13\n      jumpi\n      dup1\n      0x947a36fb\n      eq\n      tag_14\n      jumpi\n      dup1\n      0xa444ae41\n      eq\n      tag_15\n      jumpi\n      jump(tag_2)\n    tag_21:\n      dup1\n      0x5c36b186\n      gt\n      tag_23\n      jumpi\n      dup1\n      0x5c36b186\n      eq\n      tag_7\n      jumpi\n      dup1\n      0x61461954\n      eq\n      tag_8\n      jumpi\n      dup1\n      0x6b892b22\n      eq\n      tag_9\n      jumpi\n      dup1\n      0x6f9fb98a\n      eq\n      tag_10\n      jumpi\n      dup1\n      0x715018a6\n      eq\n      tag_11\n      jumpi\n      jump(tag_2)\n    tag_23:\n      dup1\n      0x1c0795c3\n      eq\n      tag_3\n      jumpi\n      dup1\n      0x1f99966a\n      eq\n      tag_4\n      jumpi\n      dup1\n      0x2395d975\n      eq\n      tag_5\n      jumpi\n      dup1\n      0x31a38c89\n      eq\n      tag_6\n      jumpi\n    tag_2:\n      revert(0x00, 0x00)\n        /* \"Will.sol\":4261:4283  address[] public heirs */\n    tag_3:\n      tag_24\n      0x04\n      dup1\n      calldatasize\n      sub\n      dup2\n      add\n      swap1\n      tag_25\n      swap2\n      swap1\n      tag_26\n      jump\t// in\n    tag_25:\n      tag_27\n      jump\t// in\n    tag_24:\n      mload(0x40)\n      tag_28\n      swap2\n      swap1\n      tag_29\n      jump\t// in\n    tag_28:\n      mload(0x40)\n      dup1\n      swap2\n      sub\n      swap1\n      return\n        /* \"Will.sol\":4290:4330  uint256[] public distributionPercentages */\n    tag_4:\n      tag_30\n      0x04\n      dup1\n      calldatasize\n      sub\n      dup2\n      add\n      swap1\n      tag_31\n      swap2\n      swap1\n      tag_26\n      jump\t// in\n    tag_31:\n      tag_32\n      jump\t// in\n    tag_30:\n      mload(0x40)\n      tag_33\n      swap2\n      swap1\n      tag_34\n      jump\t// in\n    tag_33:\n      mload(0x40)\n      dup1\n      swap2\n      sub\n      swap1\n      return\n        /* \"Will.sol\":3943:3989  uint256 public constant EXECUTION_FEE_BPS = 50 */\n    tag_5:\n      tag_35\n      tag_36\n      jump\t// in\n    tag_35:\n      mload(0x40)\n      tag_37\n      swap2\n      swap1\n      tag_34\n      jump\t// in\n    tag_37:\n      mload(0x40)\n      dup1\n      swap2\n      sub\n      swap1\n      return\n        /* \"Will.sol\":4068:4088  bool public executed */\n    tag_6:\n      tag_38\n      tag_39\n      jump\t// in\n    tag_38:\n      mload(0x40)\n      tag_40\n      swap2\n      swap1\n      tag_41\n      jump\t// in\n    tag_40:\n      mload(0x40)\n      dup1\n      swap2\n      sub\n      swap1\n      return\n        /* \"Will.sol\":6942:7066  function ping() external onlyOwnerWhenActive {... */\n    tag_7:\n      tag_42\n      tag_43\n      jump\t// in\n    tag_42:\n      stop\n        /* \"Will.sol\":8567:11132  function execute() external nonReentrant canExecute {... */\n    tag_8:\n      tag_44\n      tag_45\n      jump\t// in\n    tag_44:\n      stop\n        /* \"Will.sol\":7074:8524  function cancelAndWithdraw() external onlyOwnerWhenActive nonReentrant {... */\n    tag_9:\n      tag_46\n      tag_47\n      jump\t// in\n    tag_46:\n      stop\n        /* \"Will.sol\":12689:12798  function getContractBalance() external view returns (uint256) {... */\n    tag_10:\n      tag_48\n      tag_49\n      jump\t// in\n    tag_48:\n      mload(0x40)\n      tag_50\n      swap2\n      swap1\n      tag_34\n      jump\t// in\n    tag_50:\n      mload(0x40)\n      dup1\n      swap2\n      sub\n      swap1\n      return\n        /* \"@openzeppelin/contracts/access/Ownable.sol\":2293:2394  function renounceOwnership() public virtual onlyOwner {... */\n    tag_11:\n      tag_51\n      tag_52\n      jump\t// in\n    tag_51:\n      stop\n        /* \"@openzeppelin/contracts/access/Ownable.sol\":1638:1723  function owner() public view virtual returns (address) {... */\n    tag_12:\n      tag_53\n      tag_54\n      jump\t// in\n    tag_53:\n      mload(0x40)\n      tag_55\n      swap2\n      swap1\n      tag_29\n      jump\t// in\n    tag_55:\n      mload(0x40)\n      dup1\n      swap2\n      sub\n      swap1\n      return\n        /* \"Will.sol\":4337:4368  Erc20Asset[] public erc20Assets */\n    tag_13:\n      tag_56\n      0x04\n      dup1\n      calldatasize\n      sub\n      dup2\n      add\n      swap1\n      tag_57\n      swap2\n      swap1\n      tag_26\n      jump\t// in\n    tag_57:\n      tag_58\n      jump\t// in\n    tag_56:\n      mload(0x40)\n      tag_59\n      swap2\n      swap1\n      tag_60\n      jump\t// in\n    tag_59:\n      mload(0x40)\n      dup1\n      swap2\n      sub\n      swap1\n      return\n        /* \"Will.sol\":4127:4160  uint256 public immutable interval */\n    tag_14:\n      tag_61\n      tag_62\n      jump\t// in\n    tag_61:\n      mload(0x40)\n      tag_63\n      swap2\n      swap1\n      tag_34\n      jump\t// in\n    tag_63:\n      mload(0x40)\n      dup1\n      swap2\n      sub\n      swap1\n      return\n        /* \"Will.sol\":4167:4206  address public immutable sourceContract */\n    tag_15:\n      tag_64\n      tag_65\n      jump\t// in\n    tag_64:\n      mload(0x40)\n      tag_66\n      swap2\n      swap1\n      tag_29\n      jump\t// in\n    tag_66:\n      mload(0x40)\n      dup1\n      swap2\n      sub\n      swap1\n      return\n        /* \"Will.sol\":4095:4120  uint256 public lastUpdate */\n    tag_16:\n      tag_67\n      tag_68\n      jump\t// in\n    tag_67:\n      mload(0x40)\n      tag_69\n      swap2\n      swap1\n      tag_34\n      jump\t// in\n    tag_69:\n      mload(0x40)\n      dup1\n      swap2\n      sub\n      swap1\n      return\n        /* \"Will.sol\":4213:4252  uint256 public immutable terminationFee */\n    tag_17:\n      tag_70\n      tag_71\n      jump\t// in\n    tag_70:\n      mload(0x40)\n      tag_72\n      swap2\n      swap1\n      tag_34\n      jump\t// in\n    tag_72:\n      mload(0x40)\n      dup1\n      swap2\n      sub\n      swap1\n      return\n        /* \"Will.sol\":11283:12681  function getWillDetails() external view returns (WillDetails memory) {... */\n    tag_18:\n      tag_73\n      tag_74\n      jump\t// in\n    tag_73:\n      mload(0x40)\n      tag_75\n      swap2\n      swap1\n      tag_76\n      jump\t// in\n    tag_75:\n      mload(0x40)\n      dup1\n      swap2\n      sub\n      swap1\n      return\n        /* \"Will.sol\":4375:4408  Erc721Asset[] public erc721Assets */\n    tag_19:\n      tag_77\n      0x04\n      dup1\n      calldatasize\n      sub\n      dup2\n      add\n      swap1\n      tag_78\n      swap2\n      swap1\n      tag_26\n      jump\t// in\n    tag_78:\n      tag_79\n      jump\t// in\n    tag_77:\n      mload(0x40)\n      tag_80\n      swap4\n      swap3\n      swap2\n      swap1\n      tag_81\n      jump\t// in\n    tag_80:\n      mload(0x40)\n      dup1\n      swap2\n      sub\n      swap1\n      return\n        /* \"@openzeppelin/contracts/access/Ownable.sol\":2543:2758  function transferOwnership(address newOwner) public virtual onlyOwner {... */\n    tag_20:\n      tag_82\n      0x04\n      dup1\n      calldatasize\n      sub\n      dup2\n      add\n      swap1\n      tag_83\n      swap2\n      swap1\n      tag_84\n      jump\t// in\n    tag_83:\n      tag_85\n      jump\t// in\n    tag_82:\n      stop\n        /* \"Will.sol\":4261:4283  address[] public heirs */\n    tag_27:\n      0x04\n      dup2\n      dup2\n      sload\n      dup2\n      lt\n      tag_86\n      jumpi\n      0x00\n      dup1\n      revert\n    tag_86:\n      swap1\n      0x00\n      mstore\n      keccak256(0x00, 0x20)\n      add\n      0x00\n      swap2\n      pop\n      sload\n      swap1\n      0x0100\n      exp\n      swap1\n      div\n      0xffffffffffffffffffffffffffffffffffffffff\n      and\n      dup2\n      jump\t// out\n        /* \"Will.sol\":4290:4330  uint256[] public distributionPercentages */\n    tag_32:\n      0x05\n      dup2\n      dup2\n      sload\n      dup2\n      lt\n      tag_88\n      jumpi\n      0x00\n      dup1\n      revert\n    tag_88:\n      swap1\n      0x00\n      mstore\n      keccak256(0x00, 0x20)\n      add\n      0x00\n      swap2\n      pop\n      swap1\n      pop\n      sload\n      dup2\n      jump\t// out\n        /* \"Will.sol\":3943:3989  uint256 public constant EXECUTION_FEE_BPS = 50 */\n    tag_36:\n        /* \"Will.sol\":3987:3989  50 */\n      0x32\n        /* \"Will.sol\":3943:3989  uint256 public constant EXECUTION_FEE_BPS = 50 */\n      dup2\n      jump\t// out\n        /* \"Will.sol\":4068:4088  bool public executed */\n    tag_39:\n      0x02\n      0x00\n      swap1\n      sload\n      swap1\n      0x0100\n      exp\n      swap1\n      div\n      0xff\n      and\n      dup2\n      jump\t// out\n        /* \"Will.sol\":6942:7066  function ping() external onlyOwnerWhenActive {... */\n    tag_43:\n        /* \"Will.sol\":4675:4683  executed */\n      0x02\n      0x00\n      swap1\n      sload\n      swap1\n      0x0100\n      exp\n      swap1\n      div\n      0xff\n      and\n        /* \"Will.sol\":4674:4683  !executed */\n      iszero\n        /* \"Will.sol\":4666:4724  require(!executed, \"Will has been executed or cancelled.\") */\n      tag_91\n      jumpi\n      mload(0x40)\n      0x08c379a000000000000000000000000000000000000000000000000000000000\n      dup2\n      mstore\n      0x04\n      add\n      tag_92\n      swap1\n      tag_93\n      jump\t// in\n    tag_92:\n      mload(0x40)\n      dup1\n      swap2\n      sub\n      swap1\n      revert\n    tag_91:\n        /* \"Will.sol\":4754:4764  msg.sender */\n      caller\n        /* \"Will.sol\":4743:4764  owner() == msg.sender */\n      0xffffffffffffffffffffffffffffffffffffffff\n      and\n        /* \"Will.sol\":4743:4750  owner() */\n      tag_94\n        /* \"Will.sol\":4743:4748  owner */\n      tag_54\n        /* \"Will.sol\":4743:4750  owner() */\n      jump\t// in\n    tag_94:\n        /* \"Will.sol\":4743:4764  owner() == msg.sender */\n      0xffffffffffffffffffffffffffffffffffffffff\n      and\n      eq\n        /* \"Will.sol\":4735:4807  require(owner() == msg.sender, \"Only the owner can call this function.\") */\n      tag_95\n      jumpi\n      mload(0x40)\n      0x08c379a000000000000000000000000000000000000000000000000000000000\n      dup2\n      mstore\n      0x04\n      add\n      tag_96\n      swap1\n      tag_97\n      jump\t// in\n    tag_96:\n      mload(0x40)\n      dup1\n      swap2\n      sub\n      swap1\n      revert\n    tag_95:\n        /* \"Will.sol\":7011:7026  block.timestamp */\n      timestamp\n        /* \"Will.sol\":6998:7008  lastUpdate */\n      0x03\n        /* \"Will.sol\":6998:7026  lastUpdate = block.timestamp */\n      dup2\n      swap1\n      sstore\n      pop\n        /* \"Will.sol\":7042:7058  Ping(lastUpdate) */\n      0x48257dc961b6f792c2b78a080dacfed693b660960a702de21cee364e20270e2f\n        /* \"Will.sol\":7047:7057  lastUpdate */\n      sload(0x03)\n        /* \"Will.sol\":7042:7058  Ping(lastUpdate) */\n      mload(0x40)\n      tag_99\n      swap2\n      swap1\n      tag_34\n      jump\t// in\n    tag_99:\n      mload(0x40)\n      dup1\n      swap2\n      sub\n      swap1\n      log1\n        /* \"Will.sol\":6942:7066  function ping() external onlyOwnerWhenActive {... */\n      jump\t// out\n        /* \"Will.sol\":8567:11132  function execute() external nonReentrant canExecute {... */\n    tag_45:\n        /* \"Will.sol\":2206:2224  _preReentryCheck() */\n      tag_101\n        /* \"Will.sol\":2206:2222  _preReentryCheck */\n      tag_102\n        /* \"Will.sol\":2206:2224  _preReentryCheck() */\n      jump\t// in\n    tag_101:\n        /* \"Will.sol\":1690:1691  2 */\n      0x02\n        /* \"Will.sol\":2235:2242  _status */\n      0x01\n        /* \"Will.sol\":2235:2253  _status = _ENTERED */\n      dup2\n      swap1\n      sstore\n      pop\n        /* \"Will.sol\":4877:4885  executed */\n      0x02\n      0x00\n      swap1\n      sload\n      swap1\n      0x0100\n      exp\n      swap1\n      div\n      0xff\n      and\n        /* \"Will.sol\":4876:4885  !executed */\n      iszero\n        /* \"Will.sol\":4868:4926  require(!executed, \"Will has been executed or cancelled.\") */\n      tag_104\n      jumpi\n      mload(0x40)\n      0x08c379a000000000000000000000000000000000000000000000000000000000\n      dup2\n      mstore\n      0x04\n      add\n      tag_105\n      swap1\n      tag_93\n      jump\t// in\n    tag_105:\n      mload(0x40)\n      dup1\n      swap2\n      sub\n      swap1\n      revert\n    tag_104:\n        /* \"Will.sol\":4937:4959  uint256 gracePeriodEnd */\n      0x00\n        /* \"Will.sol\":4975:4983  interval */\n      immutable(\"0xca4b0db001bf2677ca5ac885bd7766c7c4b4b5d0170066d4830e0728bf019f64\")\n        /* \"Will.sol\":4962:4972  lastUpdate */\n      sload(0x03)\n        /* \"Will.sol\":4962:4983  lastUpdate + interval */\n      tag_106\n      swap2\n      swap1\n      tag_107\n      jump\t// in\n    tag_106:\n        /* \"Will.sol\":4937:4983  uint256 gracePeriodEnd = lastUpdate + interval */\n      swap1\n      pop\n        /* \"Will.sol\":5021:5035  gracePeriodEnd */\n      dup1\n        /* \"Will.sol\":5002:5017  block.timestamp */\n      timestamp\n        /* \"Will.sol\":5002:5035  block.timestamp >= gracePeriodEnd */\n      lt\n      iszero\n        /* \"Will.sol\":4994:5067  require(block.timestamp >= gracePeriodEnd, \"Grace period has not ended.\") */\n      tag_108\n      jumpi\n      mload(0x40)\n      0x08c379a000000000000000000000000000000000000000000000000000000000\n      dup2\n      mstore\n      0x04\n      add\n      tag_109\n      swap1\n      tag_110\n      jump\t// in\n    tag_109:\n      mload(0x40)\n      dup1\n      swap2\n      sub\n      swap1\n      revert\n    tag_108:\n        /* \"Will.sol\":5080:5105  uint256 executorPeriodEnd */\n      0x00\n        /* \"Will.sol\":3837:3843  1 days */\n      0x015180\n        /* \"Will.sol\":5108:5122  gracePeriodEnd */\n      dup3\n        /* \"Will.sol\":5108:5140  gracePeriodEnd + EXECUTOR_WINDOW */\n      tag_111\n      swap2\n      swap1\n      tag_107\n      jump\t// in\n    tag_111:\n        /* \"Will.sol\":5080:5140  uint256 executorPeriodEnd = gracePeriodEnd + EXECUTOR_WINDOW */\n      swap1\n      pop\n        /* \"Will.sol\":5175:5192  executorPeriodEnd */\n      dup1\n        /* \"Will.sol\":5157:5172  block.timestamp */\n      timestamp\n        /* \"Will.sol\":5157:5192  block.timestamp < executorPeriodEnd */\n      lt\n        /* \"Will.sol\":5153:5311  if (block.timestamp < executorPeriodEnd) {... */\n      iszero\n      tag_112\n      jumpi\n        /* \"Will.sol\":3894:3936  0xa9F8F9C0bf3188cEDdb9684ae28655187552bAE9 */\n      0xa9f8f9c0bf3188ceddb9684ae28655187552bae9\n        /* \"Will.sol\":5217:5247  msg.sender == EXECUTOR_ADDRESS */\n      0xffffffffffffffffffffffffffffffffffffffff\n      and\n        /* \"Will.sol\":5217:5227  msg.sender */\n      caller\n        /* \"Will.sol\":5217:5247  msg.sender == EXECUTOR_ADDRESS */\n      0xffffffffffffffffffffffffffffffffffffffff\n      and\n      eq\n        /* \"Will.sol\":5209:5299  require(msg.sender == EXECUTOR_ADDRESS, \"Only the designated executor can call this now.\") */\n      tag_113\n      jumpi\n      mload(0x40)\n      0x08c379a000000000000000000000000000000000000000000000000000000000\n      dup2\n      mstore\n      0x04\n      add\n      tag_114\n      swap1\n      tag_115\n      jump\t// in\n    tag_114:\n      mload(0x40)\n      dup1\n      swap2\n      sub\n      swap1\n      revert\n    tag_113:\n        /* \"Will.sol\":5153:5311  if (block.timestamp < executorPeriodEnd) {... */\n    tag_112:\n        /* \"Will.sol\":8641:8645  true */\n      0x01\n        /* \"Will.sol\":8630:8638  executed */\n      0x02\n      0x00\n        /* \"Will.sol\":8630:8645  executed = true */\n      0x0100\n      exp\n      dup2\n      sload\n      dup2\n      0xff\n      mul\n      not\n      and\n      swap1\n      dup4\n      iszero\n      iszero\n      mul\n      or\n      swap1\n      sstore\n      pop\n        /* \"Will.sol\":8697:8719  uint256 gracePeriodEnd */\n      0x00\n        /* \"Will.sol\":8735:8743  interval */\n      immutable(\"0xca4b0db001bf2677ca5ac885bd7766c7c4b4b5d0170066d4830e0728bf019f64\")\n        /* \"Will.sol\":8722:8732  lastUpdate */\n      sload(0x03)\n        /* \"Will.sol\":8722:8743  lastUpdate + interval */\n      tag_117\n      swap2\n      swap1\n      tag_107\n      jump\t// in\n    tag_117:\n        /* \"Will.sol\":8697:8743  uint256 gracePeriodEnd = lastUpdate + interval */\n      swap1\n      pop\n        /* \"Will.sol\":8754:8779  uint256 executorPeriodEnd */\n      0x00\n        /* \"Will.sol\":3837:3843  1 days */\n      0x015180\n        /* \"Will.sol\":8782:8796  gracePeriodEnd */\n      dup3\n        /* \"Will.sol\":8782:8814  gracePeriodEnd + EXECUTOR_WINDOW */\n      tag_118\n      swap2\n      swap1\n      tag_107\n      jump\t// in\n    tag_118:\n        /* \"Will.sol\":8754:8814  uint256 executorPeriodEnd = gracePeriodEnd + EXECUTOR_WINDOW */\n      swap1\n      pop\n        /* \"Will.sol\":8825:8845  address feeRecipient */\n      0x00\n        /* \"Will.sol\":8878:8895  executorPeriodEnd */\n      dup2\n        /* \"Will.sol\":8860:8875  block.timestamp */\n      timestamp\n        /* \"Will.sol\":8860:8895  block.timestamp < executorPeriodEnd */\n      lt\n        /* \"Will.sol\":8856:9091  if (block.timestamp < executorPeriodEnd) {... */\n      iszero\n      tag_119\n      jumpi\n        /* \"Will.sol\":8927:8941  sourceContract */\n      immutable(\"0x292432369508bafa441d992585f22625b04011217dd882787ad29573f5e31a1a\")\n        /* \"Will.sol\":8912:8941  feeRecipient = sourceContract */\n      swap1\n      pop\n        /* \"Will.sol\":8856:9091  if (block.timestamp < executorPeriodEnd) {... */\n      jump(tag_120)\n    tag_119:\n        /* \"Will.sol\":9043:9053  msg.sender */\n      caller\n        /* \"Will.sol\":9028:9053  feeRecipient = msg.sender */\n      swap1\n      pop\n        /* \"Will.sol\":8856:9091  if (block.timestamp < executorPeriodEnd) {... */\n    tag_120:\n        /* \"Will.sol\":9111:9130  uint256 totalEthFee */\n      0x00\n        /* \"Will.sol\":9133:9134  0 */\n      0x00\n        /* \"Will.sol\":9111:9134  uint256 totalEthFee = 0 */\n      swap1\n      pop\n        /* \"Will.sol\":9177:9193  uint256 totalEth */\n      0x00\n        /* \"Will.sol\":9196:9217  address(this).balance */\n      selfbalance\n        /* \"Will.sol\":9177:9217  uint256 totalEth = address(this).balance */\n      swap1\n      pop\n        /* \"Will.sol\":9243:9244  0 */\n      0x00\n        /* \"Will.sol\":9232:9240  totalEth */\n      dup2\n        /* \"Will.sol\":9232:9244  totalEth > 0 */\n      gt\n        /* \"Will.sol\":9228:9982  if (totalEth > 0) {... */\n      iszero\n      tag_121\n      jumpi\n        /* \"Will.sol\":9261:9275  uint256 ethFee */\n      0x00\n        /* \"Will.sol\":9311:9316  10000 */\n      0x2710\n        /* \"Will.sol\":3987:3989  50 */\n      0x32\n        /* \"Will.sol\":9279:9287  totalEth */\n      dup4\n        /* \"Will.sol\":9279:9307  totalEth * EXECUTION_FEE_BPS */\n      tag_122\n      swap2\n      swap1\n      tag_123\n      jump\t// in\n    tag_122:\n        /* \"Will.sol\":9278:9316  (totalEth * EXECUTION_FEE_BPS) / 10000 */\n      tag_124\n      swap2\n      swap1\n      tag_125\n      jump\t// in\n    tag_124:\n        /* \"Will.sol\":9261:9316  uint256 ethFee = (totalEth * EXECUTION_FEE_BPS) / 10000 */\n      swap1\n      pop\n        /* \"Will.sol\":9345:9351  ethFee */\n      dup1\n        /* \"Will.sol\":9331:9351  totalEthFee = ethFee */\n      swap3\n      pop\n        /* \"Will.sol\":9366:9390  uint256 distributableEth */\n      0x00\n        /* \"Will.sol\":9404:9410  ethFee */\n      dup2\n        /* \"Will.sol\":9393:9401  totalEth */\n      dup4\n        /* \"Will.sol\":9393:9410  totalEth - ethFee */\n      tag_126\n      swap2\n      swap1\n      tag_127\n      jump\t// in\n    tag_126:\n        /* \"Will.sol\":9366:9410  uint256 distributableEth = totalEth - ethFee */\n      swap1\n      pop\n        /* \"Will.sol\":9440:9441  0 */\n      0x00\n        /* \"Will.sol\":9431:9437  ethFee */\n      dup3\n        /* \"Will.sol\":9431:9441  ethFee > 0 */\n      gt\n        /* \"Will.sol\":9427:9605  if (ethFee > 0) {... */\n      iszero\n      tag_128\n      jumpi\n        /* \"Will.sol\":9463:9475  bool success */\n      0x00\n        /* \"Will.sol\":9489:9501  feeRecipient */\n      dup6\n        /* \"Will.sol\":9481:9507  payable(feeRecipient).call */\n      0xffffffffffffffffffffffffffffffffffffffff\n      and\n        /* \"Will.sol\":9515:9521  ethFee */\n      dup4\n        /* \"Will.sol\":9481:9526  payable(feeRecipient).call{value: ethFee}(\"\") */\n      mload(0x40)\n      tag_129\n      swap1\n      tag_130\n      jump\t// in\n    tag_129:\n      0x00\n      mload(0x40)\n      dup1\n      dup4\n      sub\n      dup2\n      dup6\n      dup8\n      gas\n      call\n      swap3\n      pop\n      pop\n      pop\n      returndatasize\n      dup1\n      0x00\n      dup2\n      eq\n      tag_133\n      jumpi\n      mload(0x40)\n      swap2\n      pop\n      and(add(returndatasize, 0x3f), not(0x1f))\n      dup3\n      add\n      0x40\n      mstore\n      returndatasize\n      dup3\n      mstore\n      returndatasize\n      0x00\n      0x20\n      dup5\n      add\n      returndatacopy\n      jump(tag_132)\n    tag_133:\n      0x60\n      swap2\n      pop\n    tag_132:\n      pop\n        /* \"Will.sol\":9462:9526  (bool success, ) = payable(feeRecipient).call{value: ethFee}(\"\") */\n      pop\n      swap1\n      pop\n        /* \"Will.sol\":9553:9560  success */\n      dup1\n        /* \"Will.sol\":9545:9589  require(success, \"ETH fee transfer failed.\") */\n      tag_134\n      jumpi\n      mload(0x40)\n      0x08c379a000000000000000000000000000000000000000000000000000000000\n      dup2\n      mstore\n      0x04\n      add\n      tag_135\n      swap1\n      tag_136\n      jump\t// in\n    tag_135:\n      mload(0x40)\n      dup1\n      swap2\n      sub\n      swap1\n      revert\n    tag_134:\n        /* \"Will.sol\":9443:9605  {... */\n      pop\n        /* \"Will.sol\":9427:9605  if (ethFee > 0) {... */\n    tag_128:\n        /* \"Will.sol\":9626:9632  uint i */\n      0x00\n        /* \"Will.sol\":9635:9636  0 */\n      0x00\n        /* \"Will.sol\":9626:9636  uint i = 0 */\n      swap1\n      pop\n        /* \"Will.sol\":9621:9971  for (uint i = 0; i < heirs.length; i++) {... */\n    tag_137:\n        /* \"Will.sol\":9642:9647  heirs */\n      0x04\n        /* \"Will.sol\":9642:9654  heirs.length */\n      dup1\n      sload\n      swap1\n      pop\n        /* \"Will.sol\":9638:9639  i */\n      dup2\n        /* \"Will.sol\":9638:9654  i < heirs.length */\n      lt\n        /* \"Will.sol\":9621:9971  for (uint i = 0; i < heirs.length; i++) {... */\n      iszero\n      tag_138\n      jumpi\n        /* \"Will.sol\":9680:9693  uint256 share */\n      0x00\n        /* \"Will.sol\":9746:9749  100 */\n      0x64\n        /* \"Will.sol\":9716:9739  distributionPercentages */\n      0x05\n        /* \"Will.sol\":9740:9741  i */\n      dup4\n        /* \"Will.sol\":9716:9742  distributionPercentages[i] */\n      dup2\n      sload\n      dup2\n      lt\n      tag_140\n      jumpi\n      tag_141\n      tag_142\n      jump\t// in\n    tag_141:\n    tag_140:\n      swap1\n      0x00\n      mstore\n      keccak256(0x00, 0x20)\n      add\n      sload\n        /* \"Will.sol\":9697:9713  distributableEth */\n      dup5\n        /* \"Will.sol\":9697:9742  distributableEth * distributionPercentages[i] */\n      tag_144\n      swap2\n      swap1\n      tag_123\n      jump\t// in\n    tag_144:\n        /* \"Will.sol\":9696:9749  (distributableEth * distributionPercentages[i]) / 100 */\n      tag_145\n      swap2\n      swap1\n      tag_125\n      jump\t// in\n    tag_145:\n        /* \"Will.sol\":9680:9749  uint256 share = (distributableEth * distributionPercentages[i]) / 100 */\n      swap1\n      pop\n        /* \"Will.sol\":9780:9781  0 */\n      0x00\n        /* \"Will.sol\":9772:9777  share */\n      dup2\n        /* \"Will.sol\":9772:9781  share > 0 */\n      gt\n        /* \"Will.sol\":9768:9956  if (share > 0) {... */\n      iszero\n      tag_146\n      jumpi\n        /* \"Will.sol\":9807:9819  bool success */\n      0x00\n        /* \"Will.sol\":9833:9838  heirs */\n      0x04\n        /* \"Will.sol\":9839:9840  i */\n      dup4\n        /* \"Will.sol\":9833:9841  heirs[i] */\n      dup2\n      sload\n      dup2\n      lt\n      tag_147\n      jumpi\n      tag_148\n      tag_142\n      jump\t// in\n    tag_148:\n    tag_147:\n      swap1\n      0x00\n      mstore\n      keccak256(0x00, 0x20)\n      add\n      0x00\n      swap1\n      sload\n      swap1\n      0x0100\n      exp\n      swap1\n      div\n      0xffffffffffffffffffffffffffffffffffffffff\n      and\n        /* \"Will.sol\":9825:9847  payable(heirs[i]).call */\n      0xffffffffffffffffffffffffffffffffffffffff\n      and\n        /* \"Will.sol\":9855:9860  share */\n      dup3\n        /* \"Will.sol\":9825:9865  payable(heirs[i]).call{value: share}(\"\") */\n      mload(0x40)\n      tag_150\n      swap1\n      tag_130\n      jump\t// in\n    tag_150:\n      0x00\n      mload(0x40)\n      dup1\n      dup4\n      sub\n      dup2\n      dup6\n      dup8\n      gas\n      call\n      swap3\n      pop\n      pop\n      pop\n      returndatasize\n      dup1\n      0x00\n      dup2\n      eq\n      tag_153\n      jumpi\n      mload(0x40)\n      swap2\n      pop\n      and(add(returndatasize, 0x3f), not(0x1f))\n      dup3\n      add\n      0x40\n      mstore\n      returndatasize\n      dup3\n      mstore\n      returndatasize\n      0x00\n      0x20\n      dup5\n      add\n      returndatacopy\n      jump(tag_152)\n    tag_153:\n      0x60\n      swap2\n      pop\n    tag_152:\n      pop\n        /* \"Will.sol\":9806:9865  (bool success, ) = payable(heirs[i]).call{value: share}(\"\") */\n      pop\n      swap1\n      pop\n        /* \"Will.sol\":9896:9903  success */\n      dup1\n        /* \"Will.sol\":9888:9936  require(success, \"ETH transfer to heir failed.\") */\n      tag_154\n      jumpi\n      mload(0x40)\n      0x08c379a000000000000000000000000000000000000000000000000000000000\n      dup2\n      mstore\n      0x04\n      add\n      tag_155\n      swap1\n      tag_156\n      jump\t// in\n    tag_155:\n      mload(0x40)\n      dup1\n      swap2\n      sub\n      swap1\n      revert\n    tag_154:\n        /* \"Will.sol\":9783:9956  {... */\n      pop\n        /* \"Will.sol\":9768:9956  if (share > 0) {... */\n    tag_146:\n        /* \"Will.sol\":9661:9971  {... */\n      pop\n        /* \"Will.sol\":9656:9659  i++ */\n      dup1\n      dup1\n      0x01\n      add\n      swap2\n      pop\n      pop\n        /* \"Will.sol\":9621:9971  for (uint i = 0; i < heirs.length; i++) {... */\n      jump(tag_137)\n    tag_138:\n      pop\n        /* \"Will.sol\":9246:9982  {... */\n      pop\n      pop\n        /* \"Will.sol\":9228:9982  if (totalEth > 0) {... */\n    tag_121:\n        /* \"Will.sol\":10032:10038  uint i */\n      0x00\n        /* \"Will.sol\":10041:10042  0 */\n      0x00\n        /* \"Will.sol\":10032:10042  uint i = 0 */\n      swap1\n      pop\n        /* \"Will.sol\":10027:10816  for (uint i = 0; i < erc20Assets.length; i++) {... */\n    tag_157:\n        /* \"Will.sol\":10048:10059  erc20Assets */\n      0x06\n        /* \"Will.sol\":10048:10066  erc20Assets.length */\n      dup1\n      sload\n      swap1\n      pop\n        /* \"Will.sol\":10044:10045  i */\n      dup2\n        /* \"Will.sol\":10044:10066  i < erc20Assets.length */\n      lt\n        /* \"Will.sol\":10027:10816  for (uint i = 0; i < erc20Assets.length; i++) {... */\n      iszero\n      tag_158\n      jumpi\n        /* \"Will.sol\":10088:10100  IERC20 token */\n      0x00\n        /* \"Will.sol\":10103:10114  erc20Assets */\n      0x06\n        /* \"Will.sol\":10115:10116  i */\n      dup3\n        /* \"Will.sol\":10103:10117  erc20Assets[i] */\n      dup2\n      sload\n      dup2\n      lt\n      tag_160\n      jumpi\n      tag_161\n      tag_142\n      jump\t// in\n    tag_161:\n    tag_160:\n      swap1\n      0x00\n      mstore\n      keccak256(0x00, 0x20)\n      add\n        /* \"Will.sol\":10103:10123  erc20Assets[i].token */\n      0x00\n      add\n      0x00\n      swap1\n      sload\n      swap1\n      0x0100\n      exp\n      swap1\n      div\n      0xffffffffffffffffffffffffffffffffffffffff\n      and\n        /* \"Will.sol\":10088:10123  IERC20 token = erc20Assets[i].token */\n      swap1\n      pop\n        /* \"Will.sol\":10138:10157  uint256 totalTokens */\n      0x00\n        /* \"Will.sol\":10160:10165  token */\n      dup2\n        /* \"Will.sol\":10160:10175  token.balanceOf */\n      0xffffffffffffffffffffffffffffffffffffffff\n      and\n      0x70a08231\n        /* \"Will.sol\":10184:10188  this */\n      address\n        /* \"Will.sol\":10160:10190  token.balanceOf(address(this)) */\n      mload(0x40)\n      dup3\n      0xffffffff\n      and\n      0xe0\n      shl\n      dup2\n      mstore\n      0x04\n      add\n      tag_163\n      swap2\n      swap1\n      tag_29\n      jump\t// in\n    tag_163:\n      0x20\n      mload(0x40)\n      dup1\n      dup4\n      sub\n      dup2\n      dup7\n      gas\n      staticcall\n      iszero\n      dup1\n      iszero\n      tag_165\n      jumpi\n      returndatacopy(0x00, 0x00, returndatasize)\n      revert(0x00, returndatasize)\n    tag_165:\n      pop\n      pop\n      pop\n      pop\n      mload(0x40)\n      returndatasize\n      not(0x1f)\n      0x1f\n      dup3\n      add\n      and\n      dup3\n      add\n      dup1\n      0x40\n      mstore\n      pop\n      dup2\n      add\n      swap1\n      tag_166\n      swap2\n      swap1\n      tag_167\n      jump\t// in\n    tag_166:\n        /* \"Will.sol\":10138:10190  uint256 totalTokens = token.balanceOf(address(this)) */\n      swap1\n      pop\n        /* \"Will.sol\":10223:10224  0 */\n      0x00\n        /* \"Will.sol\":10209:10220  totalTokens */\n      dup2\n        /* \"Will.sol\":10209:10224  totalTokens > 0 */\n      gt\n        /* \"Will.sol\":10205:10805  if (totalTokens > 0) {... */\n      iszero\n      tag_168\n      jumpi\n        /* \"Will.sol\":10245:10261  uint256 tokenFee */\n      0x00\n        /* \"Will.sol\":10300:10305  10000 */\n      0x2710\n        /* \"Will.sol\":3987:3989  50 */\n      0x32\n        /* \"Will.sol\":10265:10276  totalTokens */\n      dup4\n        /* \"Will.sol\":10265:10296  totalTokens * EXECUTION_FEE_BPS */\n      tag_169\n      swap2\n      swap1\n      tag_123\n      jump\t// in\n    tag_169:\n        /* \"Will.sol\":10264:10305  (totalTokens * EXECUTION_FEE_BPS) / 10000 */\n      tag_170\n      swap2\n      swap1\n      tag_125\n      jump\t// in\n    tag_170:\n        /* \"Will.sol\":10245:10305  uint256 tokenFee = (totalTokens * EXECUTION_FEE_BPS) / 10000 */\n      swap1\n      pop\n        /* \"Will.sol\":10324:10351  uint256 distributableTokens */\n      0x00\n        /* \"Will.sol\":10368:10376  tokenFee */\n      dup2\n        /* \"Will.sol\":10354:10365  totalTokens */\n      dup4\n        /* \"Will.sol\":10354:10376  totalTokens - tokenFee */\n      tag_171\n      swap2\n      swap1\n      tag_127\n      jump\t// in\n    tag_171:\n        /* \"Will.sol\":10324:10376  uint256 distributableTokens = totalTokens - tokenFee */\n      swap1\n      pop\n        /* \"Will.sol\":10412:10413  0 */\n      0x00\n        /* \"Will.sol\":10401:10409  tokenFee */\n      dup3\n        /* \"Will.sol\":10401:10413  tokenFee > 0 */\n      gt\n        /* \"Will.sol\":10397:10496  if (tokenFee > 0) {... */\n      iszero\n      tag_172\n      jumpi\n        /* \"Will.sol\":10438:10443  token */\n      dup4\n        /* \"Will.sol\":10438:10452  token.transfer */\n      0xffffffffffffffffffffffffffffffffffffffff\n      and\n      0xa9059cbb\n        /* \"Will.sol\":10453:10465  feeRecipient */\n      dup10\n        /* \"Will.sol\":10467:10475  tokenFee */\n      dup5\n        /* \"Will.sol\":10438:10476  token.transfer(feeRecipient, tokenFee) */\n      mload(0x40)\n      dup4\n      0xffffffff\n      and\n      0xe0\n      shl\n      dup2\n      mstore\n      0x04\n      add\n      tag_173\n      swap3\n      swap2\n      swap1\n      tag_174\n      jump\t// in\n    tag_173:\n      0x20\n      mload(0x40)\n      dup1\n      dup4\n      sub\n      dup2\n      0x00\n      dup8\n      gas\n      call\n      iszero\n      dup1\n      iszero\n      tag_176\n      jumpi\n      returndatacopy(0x00, 0x00, returndatasize)\n      revert(0x00, returndatasize)\n    tag_176:\n      pop\n      pop\n      pop\n      pop\n      mload(0x40)\n      returndatasize\n      not(0x1f)\n      0x1f\n      dup3\n      add\n      and\n      dup3\n      add\n      dup1\n      0x40\n      mstore\n      pop\n      dup2\n      add\n      swap1\n      tag_177\n      swap2\n      swap1\n      tag_178\n      jump\t// in\n    tag_177:\n      pop\n        /* \"Will.sol\":10397:10496  if (tokenFee > 0) {... */\n    tag_172:\n        /* \"Will.sol\":10521:10527  uint j */\n      0x00\n        /* \"Will.sol\":10530:10531  0 */\n      0x00\n        /* \"Will.sol\":10521:10531  uint j = 0 */\n      swap1\n      pop\n        /* \"Will.sol\":10516:10790  for (uint j = 0; j < heirs.length; j++) {... */\n    tag_179:\n        /* \"Will.sol\":10537:10542  heirs */\n      0x04\n        /* \"Will.sol\":10537:10549  heirs.length */\n      dup1\n      sload\n      swap1\n      pop\n        /* \"Will.sol\":10533:10534  j */\n      dup2\n        /* \"Will.sol\":10533:10549  j < heirs.length */\n      lt\n        /* \"Will.sol\":10516:10790  for (uint j = 0; j < heirs.length; j++) {... */\n      iszero\n      tag_180\n      jumpi\n        /* \"Will.sol\":10579:10592  uint256 share */\n      0x00\n        /* \"Will.sol\":10648:10651  100 */\n      0x64\n        /* \"Will.sol\":10618:10641  distributionPercentages */\n      0x05\n        /* \"Will.sol\":10642:10643  j */\n      dup4\n        /* \"Will.sol\":10618:10644  distributionPercentages[j] */\n      dup2\n      sload\n      dup2\n      lt\n      tag_182\n      jumpi\n      tag_183\n      tag_142\n      jump\t// in\n    tag_183:\n    tag_182:\n      swap1\n      0x00\n      mstore\n      keccak256(0x00, 0x20)\n      add\n      sload\n        /* \"Will.sol\":10596:10615  distributableTokens */\n      dup5\n        /* \"Will.sol\":10596:10644  distributableTokens * distributionPercentages[j] */\n      tag_185\n      swap2\n      swap1\n      tag_123\n      jump\t// in\n    tag_185:\n        /* \"Will.sol\":10595:10651  (distributableTokens * distributionPercentages[j]) / 100 */\n      tag_186\n      swap2\n      swap1\n      tag_125\n      jump\t// in\n    tag_186:\n        /* \"Will.sol\":10579:10651  uint256 share = (distributableTokens * distributionPercentages[j]) / 100 */\n      swap1\n      pop\n        /* \"Will.sol\":10686:10687  0 */\n      0x00\n        /* \"Will.sol\":10678:10683  share */\n      dup2\n        /* \"Will.sol\":10678:10687  share > 0 */\n      gt\n        /* \"Will.sol\":10674:10771  if (share > 0) {... */\n      iszero\n      tag_187\n      jumpi\n        /* \"Will.sol\":10716:10721  token */\n      dup6\n        /* \"Will.sol\":10716:10730  token.transfer */\n      0xffffffffffffffffffffffffffffffffffffffff\n      and\n      0xa9059cbb\n        /* \"Will.sol\":10731:10736  heirs */\n      0x04\n        /* \"Will.sol\":10737:10738  j */\n      dup5\n        /* \"Will.sol\":10731:10739  heirs[j] */\n      dup2\n      sload\n      dup2\n      lt\n      tag_188\n      jumpi\n      tag_189\n      tag_142\n      jump\t// in\n    tag_189:\n    tag_188:\n      swap1\n      0x00\n      mstore\n      keccak256(0x00, 0x20)\n      add\n      0x00\n      swap1\n      sload\n      swap1\n      0x0100\n      exp\n      swap1\n      div\n      0xffffffffffffffffffffffffffffffffffffffff\n      and\n        /* \"Will.sol\":10741:10746  share */\n      dup4\n        /* \"Will.sol\":10716:10747  token.transfer(heirs[j], share) */\n      mload(0x40)\n      dup4\n      0xffffffff\n      and\n      0xe0\n      shl\n      dup2\n      mstore\n      0x04\n      add\n      tag_191\n      swap3\n      swap2\n      swap1\n      tag_174\n      jump\t// in\n    tag_191:\n      0x20\n      mload(0x40)\n      dup1\n      dup4\n      sub\n      dup2\n      0x00\n      dup8\n      gas\n      call\n      iszero\n      dup1\n      iszero\n      tag_193\n      jumpi\n      returndatacopy(0x00, 0x00, returndatasize)\n      revert(0x00, returndatasize)\n    tag_193:\n      pop\n      pop\n      pop\n      pop\n      mload(0x40)\n      returndatasize\n      not(0x1f)\n      0x1f\n      dup3\n      add\n      and\n      dup3\n      add\n      dup1\n      0x40\n      mstore\n      pop\n      dup2\n      add\n      swap1\n      tag_194\n      swap2\n      swap1\n      tag_178\n      jump\t// in\n    tag_194:\n      pop\n        /* \"Will.sol\":10674:10771  if (share > 0) {... */\n    tag_187:\n        /* \"Will.sol\":10556:10790  {... */\n      pop\n        /* \"Will.sol\":10551:10554  j++ */\n      dup1\n      dup1\n      0x01\n      add\n      swap2\n      pop\n      pop\n        /* \"Will.sol\":10516:10790  for (uint j = 0; j < heirs.length; j++) {... */\n      jump(tag_179)\n    tag_180:\n      pop\n        /* \"Will.sol\":10226:10805  {... */\n      pop\n      pop\n        /* \"Will.sol\":10205:10805  if (totalTokens > 0) {... */\n    tag_168:\n        /* \"Will.sol\":10073:10816  {... */\n      pop\n      pop\n        /* \"Will.sol\":10068:10071  i++ */\n      dup1\n      dup1\n      0x01\n      add\n      swap2\n      pop\n      pop\n        /* \"Will.sol\":10027:10816  for (uint i = 0; i < erc20Assets.length; i++) {... */\n      jump(tag_157)\n    tag_158:\n      pop\n        /* \"Will.sol\":10864:10870  uint i */\n      0x00\n        /* \"Will.sol\":10873:10874  0 */\n      0x00\n        /* \"Will.sol\":10864:10874  uint i = 0 */\n      swap1\n      pop\n        /* \"Will.sol\":10859:11060  for (uint i = 0; i < erc721Assets.length; i++) {... */\n    tag_195:\n        /* \"Will.sol\":10880:10892  erc721Assets */\n      0x07\n        /* \"Will.sol\":10880:10899  erc721Assets.length */\n      dup1\n      sload\n      swap1\n      pop\n        /* \"Will.sol\":10876:10877  i */\n      dup2\n        /* \"Will.sol\":10876:10899  i < erc721Assets.length */\n      lt\n        /* \"Will.sol\":10859:11060  for (uint i = 0; i < erc721Assets.length; i++) {... */\n      iszero\n      tag_196\n      jumpi\n        /* \"Will.sol\":10921:10945  Erc721Asset memory asset */\n      0x00\n        /* \"Will.sol\":10948:10960  erc721Assets */\n      0x07\n        /* \"Will.sol\":10961:10962  i */\n      dup3\n        /* \"Will.sol\":10948:10963  erc721Assets[i] */\n      dup2\n      sload\n      dup2\n      lt\n      tag_198\n      jumpi\n      tag_199\n      tag_142\n      jump\t// in\n    tag_199:\n    tag_198:\n      swap1\n      0x00\n      mstore\n      keccak256(0x00, 0x20)\n      swap1\n      0x03\n      mul\n      add\n        /* \"Will.sol\":10921:10963  Erc721Asset memory asset = erc721Assets[i] */\n      mload(0x40)\n      dup1\n      0x60\n      add\n      0x40\n      mstore\n      swap1\n      dup2\n      0x00\n      dup3\n      add\n      0x00\n      swap1\n      sload\n      swap1\n      0x0100\n      exp\n      swap1\n      div\n      0xffffffffffffffffffffffffffffffffffffffff\n      and\n      0xffffffffffffffffffffffffffffffffffffffff\n      and\n      0xffffffffffffffffffffffffffffffffffffffff\n      and\n      dup2\n      mstore\n      0x20\n      add\n      0x01\n      dup3\n      add\n      sload\n      dup2\n      mstore\n      0x20\n      add\n      0x02\n      dup3\n      add\n      0x00\n      swap1\n      sload\n      swap1\n      0x0100\n      exp\n      swap1\n      div\n      0xffffffffffffffffffffffffffffffffffffffff\n      and\n      0xffffffffffffffffffffffffffffffffffffffff\n      and\n      0xffffffffffffffffffffffffffffffffffffffff\n      and\n      dup2\n      mstore\n      pop\n      pop\n      swap1\n      pop\n        /* \"Will.sol\":10978:10983  asset */\n      dup1\n        /* \"Will.sol\":10978:10989  asset.token */\n      0x00\n      add\n      mload\n        /* \"Will.sol\":10978:11006  asset.token.safeTransferFrom */\n      0xffffffffffffffffffffffffffffffffffffffff\n      and\n      0x42842e0e\n        /* \"Will.sol\":11015:11019  this */\n      address\n        /* \"Will.sol\":11022:11027  asset */\n      dup4\n        /* \"Will.sol\":11022:11032  asset.heir */\n      0x40\n      add\n      mload\n        /* \"Will.sol\":11034:11039  asset */\n      dup5\n        /* \"Will.sol\":11034:11047  asset.tokenId */\n      0x20\n      add\n      mload\n        /* \"Will.sol\":10978:11048  asset.token.safeTransferFrom(address(this), asset.heir, asset.tokenId) */\n      mload(0x40)\n      dup5\n      0xffffffff\n      and\n      0xe0\n      shl\n      dup2\n      mstore\n      0x04\n      add\n      tag_201\n      swap4\n      swap3\n      swap2\n      swap1\n      tag_202\n      jump\t// in\n    tag_201:\n      0x00\n      mload(0x40)\n      dup1\n      dup4\n      sub\n      dup2\n      0x00\n      dup8\n      dup1\n      extcodesize\n      iszero\n      dup1\n      iszero\n      tag_203\n      jumpi\n      revert(0x00, 0x00)\n    tag_203:\n      pop\n      gas\n      call\n      iszero\n      dup1\n      iszero\n      tag_205\n      jumpi\n      returndatacopy(0x00, 0x00, returndatasize)\n      revert(0x00, returndatasize)\n    tag_205:\n      pop\n      pop\n      pop\n      pop\n        /* \"Will.sol\":10906:11060  {... */\n      pop\n        /* \"Will.sol\":10901:10904  i++ */\n      dup1\n      dup1\n      0x01\n      add\n      swap2\n      pop\n      pop\n        /* \"Will.sol\":10859:11060  for (uint i = 0; i < erc721Assets.length; i++) {... */\n      jump(tag_195)\n    tag_196:\n      pop\n        /* \"Will.sol\":11077:11124  Executed(msg.sender, totalEthFee, feeRecipient) */\n      0x52ba16c8b985eff690a9de92094bd7486f89340e06e385ffb26de9c6eea384dc\n        /* \"Will.sol\":11086:11096  msg.sender */\n      caller\n        /* \"Will.sol\":11098:11109  totalEthFee */\n      dup4\n        /* \"Will.sol\":11111:11123  feeRecipient */\n      dup6\n        /* \"Will.sol\":11077:11124  Executed(msg.sender, totalEthFee, feeRecipient) */\n      mload(0x40)\n      tag_206\n      swap4\n      swap3\n      swap2\n      swap1\n      tag_207\n      jump\t// in\n    tag_206:\n      mload(0x40)\n      dup1\n      swap2\n      sub\n      swap1\n      log1\n        /* \"Will.sol\":8619:11132  {... */\n      pop\n      pop\n      pop\n      pop\n      pop\n        /* \"Will.sol\":4857:5330  {... */\n      pop\n      pop\n        /* \"Will.sol\":1646:1647  1 */\n      0x01\n        /* \"Will.sol\":2276:2283  _status */\n      dup1\n        /* \"Will.sol\":2276:2298  _status = _NOT_ENTERED */\n      dup2\n      swap1\n      sstore\n      pop\n        /* \"Will.sol\":8567:11132  function execute() external nonReentrant canExecute {... */\n      jump\t// out\n        /* \"Will.sol\":7074:8524  function cancelAndWithdraw() external onlyOwnerWhenActive nonReentrant {... */\n    tag_47:\n        /* \"Will.sol\":4675:4683  executed */\n      0x02\n      0x00\n      swap1\n      sload\n      swap1\n      0x0100\n      exp\n      swap1\n      div\n      0xff\n      and\n        /* \"Will.sol\":4674:4683  !executed */\n      iszero\n        /* \"Will.sol\":4666:4724  require(!executed, \"Will has been executed or cancelled.\") */\n      tag_209\n      jumpi\n      mload(0x40)\n      0x08c379a000000000000000000000000000000000000000000000000000000000\n      dup2\n      mstore\n      0x04\n      add\n      tag_210\n      swap1\n      tag_93\n      jump\t// in\n    tag_210:\n      mload(0x40)\n      dup1\n      swap2\n      sub\n      swap1\n      revert\n    tag_209:\n        /* \"Will.sol\":4754:4764  msg.sender */\n      caller\n        /* \"Will.sol\":4743:4764  owner() == msg.sender */\n      0xffffffffffffffffffffffffffffffffffffffff\n      and\n        /* \"Will.sol\":4743:4750  owner() */\n      tag_211\n        /* \"Will.sol\":4743:4748  owner */\n      tag_54\n        /* \"Will.sol\":4743:4750  owner() */\n      jump\t// in\n    tag_211:\n        /* \"Will.sol\":4743:4764  owner() == msg.sender */\n      0xffffffffffffffffffffffffffffffffffffffff\n      and\n      eq\n        /* \"Will.sol\":4735:4807  require(owner() == msg.sender, \"Only the owner can call this function.\") */\n      tag_212\n      jumpi\n      mload(0x40)\n      0x08c379a000000000000000000000000000000000000000000000000000000000\n      dup2\n      mstore\n      0x04\n      add\n      tag_213\n      swap1\n      tag_97\n      jump\t// in\n    tag_213:\n      mload(0x40)\n      dup1\n      swap2\n      sub\n      swap1\n      revert\n    tag_212:\n        /* \"Will.sol\":2206:2224  _preReentryCheck() */\n      tag_215\n        /* \"Will.sol\":2206:2222  _preReentryCheck */\n      tag_102\n        /* \"Will.sol\":2206:2224  _preReentryCheck() */\n      jump\t// in\n    tag_215:\n        /* \"Will.sol\":1690:1691  2 */\n      0x02\n        /* \"Will.sol\":2235:2242  _status */\n      0x01\n        /* \"Will.sol\":2235:2253  _status = _ENTERED */\n      dup2\n      swap1\n      sstore\n      pop\n        /* \"Will.sol\":7167:7171  true */\n      0x01\n        /* \"Will.sol\":7156:7164  executed */\n      0x02\n      0x00\n        /* \"Will.sol\":7156:7171  executed = true */\n      0x0100\n      exp\n      dup2\n      sload\n      dup2\n      0xff\n      mul\n      not\n      and\n      swap1\n      dup4\n      iszero\n      iszero\n      mul\n      or\n      swap1\n      sstore\n      pop\n        /* \"Will.sol\":7229:7251  address payable _owner */\n      0x00\n        /* \"Will.sol\":7262:7269  owner() */\n      tag_217\n        /* \"Will.sol\":7262:7267  owner */\n      tag_54\n        /* \"Will.sol\":7262:7269  owner() */\n      jump\t// in\n    tag_217:\n        /* \"Will.sol\":7229:7270  address payable _owner = payable(owner()) */\n      swap1\n      pop\n        /* \"Will.sol\":7377:7378  0 */\n      0x00\n        /* \"Will.sol\":7360:7374  terminationFee */\n      immutable(\"0x62d593b3f307276e88778a5c8844a236ff823a094bc36579219d0f8aab42d991\")\n        /* \"Will.sol\":7360:7378  terminationFee > 0 */\n      gt\n        /* \"Will.sol\":7356:7643  if (terminationFee > 0) {... */\n      iszero\n      tag_218\n      jumpi\n        /* \"Will.sol\":7428:7442  terminationFee */\n      immutable(\"0x62d593b3f307276e88778a5c8844a236ff823a094bc36579219d0f8aab42d991\")\n        /* \"Will.sol\":7403:7424  address(this).balance */\n      selfbalance\n        /* \"Will.sol\":7403:7442  address(this).balance >= terminationFee */\n      lt\n      iszero\n        /* \"Will.sol\":7395:7484  require(address(this).balance >= terminationFee, \"Insufficient ETH for termination fee.\") */\n      tag_219\n      jumpi\n      mload(0x40)\n      0x08c379a000000000000000000000000000000000000000000000000000000000\n      dup2\n      mstore\n      0x04\n      add\n      tag_220\n      swap1\n      tag_221\n      jump\t// in\n    tag_220:\n      mload(0x40)\n      dup1\n      swap2\n      sub\n      swap1\n      revert\n    tag_219:\n        /* \"Will.sol\":7500:7512  bool success */\n      0x00\n        /* \"Will.sol\":7518:7532  sourceContract */\n      immutable(\"0x292432369508bafa441d992585f22625b04011217dd882787ad29573f5e31a1a\")\n        /* \"Will.sol\":7518:7537  sourceContract.call */\n      0xffffffffffffffffffffffffffffffffffffffff\n      and\n        /* \"Will.sol\":7545:7559  terminationFee */\n      immutable(\"0x62d593b3f307276e88778a5c8844a236ff823a094bc36579219d0f8aab42d991\")\n        /* \"Will.sol\":7518:7564  sourceContract.call{value: terminationFee}(\"\") */\n      mload(0x40)\n      tag_222\n      swap1\n      tag_130\n      jump\t// in\n    tag_222:\n      0x00\n      mload(0x40)\n      dup1\n      dup4\n      sub\n      dup2\n      dup6\n      dup8\n      gas\n      call\n      swap3\n      pop\n      pop\n      pop\n      returndatasize\n      dup1\n      0x00\n      dup2\n      eq\n      tag_225\n      jumpi\n      mload(0x40)\n      swap2\n      pop\n      and(add(returndatasize, 0x3f), not(0x1f))\n      dup3\n      add\n      0x40\n      mstore\n      returndatasize\n      dup3\n      mstore\n      returndatasize\n      0x00\n      0x20\n      dup5\n      add\n      returndatacopy\n      jump(tag_224)\n    tag_225:\n      0x60\n      swap2\n      pop\n    tag_224:\n      pop\n        /* \"Will.sol\":7499:7564  (bool success, ) = sourceContract.call{value: terminationFee}(\"\") */\n      pop\n      swap1\n      pop\n        /* \"Will.sol\":7587:7594  success */\n      dup1\n        /* \"Will.sol\":7579:7631  require(success, \"Termination fee transfer failed.\") */\n      tag_226\n      jumpi\n      mload(0x40)\n      0x08c379a000000000000000000000000000000000000000000000000000000000\n      dup2\n      mstore\n      0x04\n      add\n      tag_227\n      swap1\n      tag_228\n      jump\t// in\n    tag_227:\n      mload(0x40)\n      dup1\n      swap2\n      sub\n      swap1\n      revert\n    tag_226:\n        /* \"Will.sol\":7380:7643  {... */\n      pop\n        /* \"Will.sol\":7356:7643  if (terminationFee > 0) {... */\n    tag_218:\n        /* \"Will.sol\":7661:7675  sourceContract */\n      immutable(\"0x292432369508bafa441d992585f22625b04011217dd882787ad29573f5e31a1a\")\n        /* \"Will.sol\":7653:7692  ISource(sourceContract).clearWillRecord */\n      0xffffffffffffffffffffffffffffffffffffffff\n      and\n      0xa658dd6b\n        /* \"Will.sol\":7693:7699  _owner */\n      dup3\n        /* \"Will.sol\":7653:7700  ISource(sourceContract).clearWillRecord(_owner) */\n      mload(0x40)\n      dup3\n      0xffffffff\n      and\n      0xe0\n      shl\n      dup2\n      mstore\n      0x04\n      add\n      tag_229\n      swap2\n      swap1\n      tag_230\n      jump\t// in\n    tag_229:\n      0x00\n      mload(0x40)\n      dup1\n      dup4\n      sub\n      dup2\n      0x00\n      dup8\n      dup1\n      extcodesize\n      iszero\n      dup1\n      iszero\n      tag_231\n      jumpi\n      revert(0x00, 0x00)\n    tag_231:\n      pop\n      gas\n      call\n      iszero\n      dup1\n      iszero\n      tag_233\n      jumpi\n      returndatacopy(0x00, 0x00, returndatasize)\n      revert(0x00, returndatasize)\n    tag_233:\n      pop\n      pop\n      pop\n      pop\n        /* \"Will.sol\":7776:7782  uint i */\n      0x00\n        /* \"Will.sol\":7785:7786  0 */\n      0x00\n        /* \"Will.sol\":7776:7786  uint i = 0 */\n      swap1\n      pop\n        /* \"Will.sol\":7771:8039  for (uint i = 0; i < erc20Assets.length; i++) {... */\n    tag_234:\n        /* \"Will.sol\":7792:7803  erc20Assets */\n      0x06\n        /* \"Will.sol\":7792:7810  erc20Assets.length */\n      dup1\n      sload\n      swap1\n      pop\n        /* \"Will.sol\":7788:7789  i */\n      dup2\n        /* \"Will.sol\":7788:7810  i < erc20Assets.length */\n      lt\n        /* \"Will.sol\":7771:8039  for (uint i = 0; i < erc20Assets.length; i++) {... */\n      iszero\n      tag_235\n      jumpi\n        /* \"Will.sol\":7832:7844  IERC20 token */\n      0x00\n        /* \"Will.sol\":7847:7858  erc20Assets */\n      0x06\n        /* \"Will.sol\":7859:7860  i */\n      dup3\n        /* \"Will.sol\":7847:7861  erc20Assets[i] */\n      dup2\n      sload\n      dup2\n      lt\n      tag_237\n      jumpi\n      tag_238\n      tag_142\n      jump\t// in\n    tag_238:\n    tag_237:\n      swap1\n      0x00\n      mstore\n      keccak256(0x00, 0x20)\n      add\n        /* \"Will.sol\":7847:7867  erc20Assets[i].token */\n      0x00\n      add\n      0x00\n      swap1\n      sload\n      swap1\n      0x0100\n      exp\n      swap1\n      div\n      0xffffffffffffffffffffffffffffffffffffffff\n      and\n        /* \"Will.sol\":7832:7867  IERC20 token = erc20Assets[i].token */\n      swap1\n      pop\n        /* \"Will.sol\":7882:7897  uint256 balance */\n      0x00\n        /* \"Will.sol\":7900:7905  token */\n      dup2\n        /* \"Will.sol\":7900:7915  token.balanceOf */\n      0xffffffffffffffffffffffffffffffffffffffff\n      and\n      0x70a08231\n        /* \"Will.sol\":7924:7928  this */\n      address\n        /* \"Will.sol\":7900:7930  token.balanceOf(address(this)) */\n      mload(0x40)\n      dup3\n      0xffffffff\n      and\n      0xe0\n      shl\n      dup2\n      mstore\n      0x04\n      add\n      tag_240\n      swap2\n      swap1\n      tag_29\n      jump\t// in\n    tag_240:\n      0x20\n      mload(0x40)\n      dup1\n      dup4\n      sub\n      dup2\n      dup7\n      gas\n      staticcall\n      iszero\n      dup1\n      iszero\n      tag_242\n      jumpi\n      returndatacopy(0x00, 0x00, returndatasize)\n      revert(0x00, returndatasize)\n    tag_242:\n      pop\n      pop\n      pop\n      pop\n      mload(0x40)\n      returndatasize\n      not(0x1f)\n      0x1f\n      dup3\n      add\n      and\n      dup3\n      add\n      dup1\n      0x40\n      mstore\n      pop\n      dup2\n      add\n      swap1\n      tag_243\n      swap2\n      swap1\n      tag_167\n      jump\t// in\n    tag_243:\n        /* \"Will.sol\":7882:7930  uint256 balance = token.balanceOf(address(this)) */\n      swap1\n      pop\n        /* \"Will.sol\":7959:7960  0 */\n      0x00\n        /* \"Will.sol\":7949:7956  balance */\n      dup2\n        /* \"Will.sol\":7949:7960  balance > 0 */\n      gt\n        /* \"Will.sol\":7945:8028  if (balance > 0) {... */\n      iszero\n      tag_244\n      jumpi\n        /* \"Will.sol\":7981:7986  token */\n      dup2\n        /* \"Will.sol\":7981:7995  token.transfer */\n      0xffffffffffffffffffffffffffffffffffffffff\n      and\n      0xa9059cbb\n        /* \"Will.sol\":7996:8002  _owner */\n      dup6\n        /* \"Will.sol\":8004:8011  balance */\n      dup4\n        /* \"Will.sol\":7981:8012  token.transfer(_owner, balance) */\n      mload(0x40)\n      dup4\n      0xffffffff\n      and\n      0xe0\n      shl\n      dup2\n      mstore\n      0x04\n      add\n      tag_245\n      swap3\n      swap2\n      swap1\n      tag_246\n      jump\t// in\n    tag_245:\n      0x20\n      mload(0x40)\n      dup1\n      dup4\n      sub\n      dup2\n      0x00\n      dup8\n      gas\n      call\n      iszero\n      dup1\n      iszero\n      tag_248\n      jumpi\n      returndatacopy(0x00, 0x00, returndatasize)\n      revert(0x00, returndatasize)\n    tag_248:\n      pop\n      pop\n      pop\n      pop\n      mload(0x40)\n      returndatasize\n      not(0x1f)\n      0x1f\n      dup3\n      add\n      and\n      dup3\n      add\n      dup1\n      0x40\n      mstore\n      pop\n      dup2\n      add\n      swap1\n      tag_249\n      swap2\n      swap1\n      tag_178\n      jump\t// in\n    tag_249:\n      pop\n        /* \"Will.sol\":7945:8028  if (balance > 0) {... */\n    tag_244:\n        /* \"Will.sol\":7817:8039  {... */\n      pop\n      pop\n        /* \"Will.sol\":7812:7815  i++ */\n      dup1\n      dup1\n      0x01\n      add\n      swap2\n      pop\n      pop\n        /* \"Will.sol\":7771:8039  for (uint i = 0; i < erc20Assets.length; i++) {... */\n      jump(tag_234)\n    tag_235:\n      pop\n        /* \"Will.sol\":8056:8062  uint i */\n      0x00\n        /* \"Will.sol\":8065:8066  0 */\n      0x00\n        /* \"Will.sol\":8056:8066  uint i = 0 */\n      swap1\n      pop\n        /* \"Will.sol\":8051:8248  for (uint i = 0; i < erc721Assets.length; i++) {... */\n    tag_250:\n        /* \"Will.sol\":8072:8084  erc721Assets */\n      0x07\n        /* \"Will.sol\":8072:8091  erc721Assets.length */\n      dup1\n      sload\n      swap1\n      pop\n        /* \"Will.sol\":8068:8069  i */\n      dup2\n        /* \"Will.sol\":8068:8091  i < erc721Assets.length */\n      lt\n        /* \"Will.sol\":8051:8248  for (uint i = 0; i < erc721Assets.length; i++) {... */\n      iszero\n      tag_251\n      jumpi\n        /* \"Will.sol\":8113:8137  Erc721Asset memory asset */\n      0x00\n        /* \"Will.sol\":8140:8152  erc721Assets */\n      0x07\n        /* \"Will.sol\":8153:8154  i */\n      dup3\n        /* \"Will.sol\":8140:8155  erc721Assets[i] */\n      dup2\n      sload\n      dup2\n      lt\n      tag_253\n      jumpi\n      tag_254\n      tag_142\n      jump\t// in\n    tag_254:\n    tag_253:\n      swap1\n      0x00\n      mstore\n      keccak256(0x00, 0x20)\n      swap1\n      0x03\n      mul\n      add\n        /* \"Will.sol\":8113:8155  Erc721Asset memory asset = erc721Assets[i] */\n      mload(0x40)\n      dup1\n      0x60\n      add\n      0x40\n      mstore\n      swap1\n      dup2\n      0x00\n      dup3\n      add\n      0x00\n      swap1\n      sload\n      swap1\n      0x0100\n      exp\n      swap1\n      div\n      0xffffffffffffffffffffffffffffffffffffffff\n      and\n      0xffffffffffffffffffffffffffffffffffffffff\n      and\n      0xffffffffffffffffffffffffffffffffffffffff\n      and\n      dup2\n      mstore\n      0x20\n      add\n      0x01\n      dup3\n      add\n      sload\n      dup2\n      mstore\n      0x20\n      add\n      0x02\n      dup3\n      add\n      0x00\n      swap1\n      sload\n      swap1\n      0x0100\n      exp\n      swap1\n      div\n      0xffffffffffffffffffffffffffffffffffffffff\n      and\n      0xffffffffffffffffffffffffffffffffffffffff\n      and\n      0xffffffffffffffffffffffffffffffffffffffff\n      and\n      dup2\n      mstore\n      pop\n      pop\n      swap1\n      pop\n        /* \"Will.sol\":8170:8175  asset */\n      dup1\n        /* \"Will.sol\":8170:8181  asset.token */\n      0x00\n      add\n      mload\n        /* \"Will.sol\":8170:8198  asset.token.safeTransferFrom */\n      0xffffffffffffffffffffffffffffffffffffffff\n      and\n      0x42842e0e\n        /* \"Will.sol\":8207:8211  this */\n      address\n        /* \"Will.sol\":8214:8220  _owner */\n      dup6\n        /* \"Will.sol\":8222:8227  asset */\n      dup5\n        /* \"Will.sol\":8222:8235  asset.tokenId */\n      0x20\n      add\n      mload\n        /* \"Will.sol\":8170:8236  asset.token.safeTransferFrom(address(this), _owner, asset.tokenId) */\n      mload(0x40)\n      dup5\n      0xffffffff\n      and\n      0xe0\n      shl\n      dup2\n      mstore\n      0x04\n      add\n      tag_256\n      swap4\n      swap3\n      swap2\n      swap1\n      tag_257\n      jump\t// in\n    tag_256:\n      0x00\n      mload(0x40)\n      dup1\n      dup4\n      sub\n      dup2\n      0x00\n      dup8\n      dup1\n      extcodesize\n      iszero\n      dup1\n      iszero\n      tag_258\n      jumpi\n      revert(0x00, 0x00)\n    tag_258:\n      pop\n      gas\n      call\n      iszero\n      dup1\n      iszero\n      tag_260\n      jumpi\n      returndatacopy(0x00, 0x00, returndatasize)\n      revert(0x00, returndatasize)\n    tag_260:\n      pop\n      pop\n      pop\n      pop\n        /* \"Will.sol\":8098:8248  {... */\n      pop\n        /* \"Will.sol\":8093:8096  i++ */\n      dup1\n      dup1\n      0x01\n      add\n      swap2\n      pop\n      pop\n        /* \"Will.sol\":8051:8248  for (uint i = 0; i < erc721Assets.length; i++) {... */\n      jump(tag_250)\n    tag_251:\n      pop\n        /* \"Will.sol\":8260:8280  uint256 remainingEth */\n      0x00\n        /* \"Will.sol\":8283:8304  address(this).balance */\n      selfbalance\n        /* \"Will.sol\":8260:8304  uint256 remainingEth = address(this).balance */\n      swap1\n      pop\n        /* \"Will.sol\":8334:8335  0 */\n      0x00\n        /* \"Will.sol\":8319:8331  remainingEth */\n      dup2\n        /* \"Will.sol\":8319:8335  remainingEth > 0 */\n      gt\n        /* \"Will.sol\":8315:8474  if (remainingEth > 0) {... */\n      iszero\n      tag_261\n      jumpi\n        /* \"Will.sol\":8353:8365  bool success */\n      0x00\n        /* \"Will.sol\":8371:8377  _owner */\n      dup3\n        /* \"Will.sol\":8371:8382  _owner.call */\n      0xffffffffffffffffffffffffffffffffffffffff\n      and\n        /* \"Will.sol\":8390:8402  remainingEth */\n      dup3\n        /* \"Will.sol\":8371:8407  _owner.call{value: remainingEth}(\"\") */\n      mload(0x40)\n      tag_262\n      swap1\n      tag_130\n      jump\t// in\n    tag_262:\n      0x00\n      mload(0x40)\n      dup1\n      dup4\n      sub\n      dup2\n      dup6\n      dup8\n      gas\n      call\n      swap3\n      pop\n      pop\n      pop\n      returndatasize\n      dup1\n      0x00\n      dup2\n      eq\n      tag_265\n      jumpi\n      mload(0x40)\n      swap2\n      pop\n      and(add(returndatasize, 0x3f), not(0x1f))\n      dup3\n      add\n      0x40\n      mstore\n      returndatasize\n      dup3\n      mstore\n      returndatasize\n      0x00\n      0x20\n      dup5\n      add\n      returndatacopy\n      jump(tag_264)\n    tag_265:\n      0x60\n      swap2\n      pop\n    tag_264:\n      pop\n        /* \"Will.sol\":8352:8407  (bool success, ) = _owner.call{value: remainingEth}(\"\") */\n      pop\n      swap1\n      pop\n        /* \"Will.sol\":8430:8437  success */\n      dup1\n        /* \"Will.sol\":8422:8462  require(success, \"ETH transfer failed.\") */\n      tag_266\n      jumpi\n      mload(0x40)\n      0x08c379a000000000000000000000000000000000000000000000000000000000\n      dup2\n      mstore\n      0x04\n      add\n      tag_267\n      swap1\n      tag_268\n      jump\t// in\n    tag_267:\n      mload(0x40)\n      dup1\n      swap2\n      sub\n      swap1\n      revert\n    tag_266:\n        /* \"Will.sol\":8337:8474  {... */\n      pop\n        /* \"Will.sol\":8315:8474  if (remainingEth > 0) {... */\n    tag_261:\n        /* \"Will.sol\":8491:8516  Cancelled(terminationFee) */\n      0xc41d93b8bfbf9fd7cf5bfe271fd649ab6a6fec0ea101c23b82a2a28eca2533a9\n        /* \"Will.sol\":8501:8515  terminationFee */\n      immutable(\"0x62d593b3f307276e88778a5c8844a236ff823a094bc36579219d0f8aab42d991\")\n        /* \"Will.sol\":8491:8516  Cancelled(terminationFee) */\n      mload(0x40)\n      tag_269\n      swap2\n      swap1\n      tag_34\n      jump\t// in\n    tag_269:\n      mload(0x40)\n      dup1\n      swap2\n      sub\n      swap1\n      log1\n        /* \"Will.sol\":7145:8524  {... */\n      pop\n      pop\n        /* \"Will.sol\":1646:1647  1 */\n      0x01\n        /* \"Will.sol\":2276:2283  _status */\n      dup1\n        /* \"Will.sol\":2276:2298  _status = _NOT_ENTERED */\n      dup2\n      swap1\n      sstore\n      pop\n        /* \"Will.sol\":7074:8524  function cancelAndWithdraw() external onlyOwnerWhenActive nonReentrant {... */\n      jump\t// out\n        /* \"Will.sol\":12689:12798  function getContractBalance() external view returns (uint256) {... */\n    tag_49:\n        /* \"Will.sol\":12742:12749  uint256 */\n      0x00\n        /* \"Will.sol\":12769:12790  address(this).balance */\n      selfbalance\n        /* \"Will.sol\":12762:12790  return address(this).balance */\n      swap1\n      pop\n        /* \"Will.sol\":12689:12798  function getContractBalance() external view returns (uint256) {... */\n      swap1\n      jump\t// out\n        /* \"@openzeppelin/contracts/access/Ownable.sol\":2293:2394  function renounceOwnership() public virtual onlyOwner {... */\n    tag_52:\n        /* \"@openzeppelin/contracts/access/Ownable.sol\":1531:1544  _checkOwner() */\n      tag_272\n        /* \"@openzeppelin/contracts/access/Ownable.sol\":1531:1542  _checkOwner */\n      tag_273\n        /* \"@openzeppelin/contracts/access/Ownable.sol\":1531:1544  _checkOwner() */\n      jump\t// in\n    tag_272:\n        /* \"@openzeppelin/contracts/access/Ownable.sol\":2357:2387  _transferOwnership(address(0)) */\n      tag_275\n        /* \"@openzeppelin/contracts/access/Ownable.sol\":2384:2385  0 */\n      0x00\n        /* \"@openzeppelin/contracts/access/Ownable.sol\":2357:2375  _transferOwnership */\n      tag_276\n        /* \"@openzeppelin/contracts/access/Ownable.sol\":2357:2387  _transferOwnership(address(0)) */\n      jump\t// in\n    tag_275:\n        /* \"@openzeppelin/contracts/access/Ownable.sol\":2293:2394  function renounceOwnership() public virtual onlyOwner {... */\n      jump\t// out\n        /* \"@openzeppelin/contracts/access/Ownable.sol\":1638:1723  function owner() public view virtual returns (address) {... */\n    tag_54:\n        /* \"@openzeppelin/contracts/access/Ownable.sol\":1684:1691  address */\n      0x00\n        /* \"@openzeppelin/contracts/access/Ownable.sol\":1710:1716  _owner */\n      0x00\n      0x00\n      swap1\n      sload\n      swap1\n      0x0100\n      exp\n      swap1\n      div\n      0xffffffffffffffffffffffffffffffffffffffff\n      and\n        /* \"@openzeppelin/contracts/access/Ownable.sol\":1703:1716  return _owner */\n      swap1\n      pop\n        /* \"@openzeppelin/contracts/access/Ownable.sol\":1638:1723  function owner() public view virtual returns (address) {... */\n      swap1\n      jump\t// out\n        /* \"Will.sol\":4337:4368  Erc20Asset[] public erc20Assets */\n    tag_58:\n      0x06\n      dup2\n      dup2\n      sload\n      dup2\n      lt\n      tag_278\n      jumpi\n      0x00\n      dup1\n      revert\n    tag_278:\n      swap1\n      0x00\n      mstore\n      keccak256(0x00, 0x20)\n      add\n      0x00\n      swap2\n      pop\n      swap1\n      pop\n      dup1\n      0x00\n      add\n      0x00\n      swap1\n      sload\n      swap1\n      0x0100\n      exp\n      swap1\n      div\n      0xffffffffffffffffffffffffffffffffffffffff\n      and\n      swap1\n      pop\n      dup2\n      jump\t// out\n        /* \"Will.sol\":4127:4160  uint256 public immutable interval */\n    tag_62:\n      immutable(\"0xca4b0db001bf2677ca5ac885bd7766c7c4b4b5d0170066d4830e0728bf019f64\")\n      dup2\n      jump\t// out\n        /* \"Will.sol\":4167:4206  address public immutable sourceContract */\n    tag_65:\n      immutable(\"0x292432369508bafa441d992585f22625b04011217dd882787ad29573f5e31a1a\")\n      dup2\n      jump\t// out\n        /* \"Will.sol\":4095:4120  uint256 public lastUpdate */\n    tag_68:\n      sload(0x03)\n      dup2\n      jump\t// out\n        /* \"Will.sol\":4213:4252  uint256 public immutable terminationFee */\n    tag_71:\n      immutable(\"0x62d593b3f307276e88778a5c8844a236ff823a094bc36579219d0f8aab42d991\")\n      dup2\n      jump\t// out\n        /* \"Will.sol\":11283:12681  function getWillDetails() external view returns (WillDetails memory) {... */\n    tag_74:\n        /* \"Will.sol\":11332:11350  WillDetails memory */\n      tag_280\n      tag_281\n      jump\t// in\n    tag_280:\n        /* \"Will.sol\":11425:11459  Erc20Detail[] memory _erc20Details */\n      0x00\n        /* \"Will.sol\":11480:11491  erc20Assets */\n      0x06\n        /* \"Will.sol\":11480:11498  erc20Assets.length */\n      dup1\n      sload\n      swap1\n      pop\n        /* \"Will.sol\":11462:11499  new Erc20Detail[](erc20Assets.length) */\n      0xffffffffffffffff\n      dup2\n      gt\n      iszero\n      tag_283\n      jumpi\n      tag_284\n      tag_285\n      jump\t// in\n    tag_284:\n    tag_283:\n      mload(0x40)\n      swap1\n      dup1\n      dup3\n      mstore\n      dup1\n      0x20\n      mul\n      0x20\n      add\n      dup3\n      add\n      0x40\n      mstore\n      dup1\n      iszero\n      tag_286\n      jumpi\n      dup2\n      0x20\n      add\n    tag_287:\n      tag_288\n      tag_289\n      jump\t// in\n    tag_288:\n      dup2\n      mstore\n      0x20\n      add\n      swap1\n      0x01\n      swap1\n      sub\n      swap1\n      dup2\n      tag_287\n      jumpi\n      swap1\n      pop\n    tag_286:\n      pop\n        /* \"Will.sol\":11425:11499  Erc20Detail[] memory _erc20Details = new Erc20Detail[](erc20Assets.length) */\n      swap1\n      pop\n        /* \"Will.sol\":11515:11521  uint i */\n      0x00\n        /* \"Will.sol\":11524:11525  0 */\n      0x00\n        /* \"Will.sol\":11515:11525  uint i = 0 */\n      swap1\n      pop\n        /* \"Will.sol\":11510:11786  for (uint i = 0; i < erc20Assets.length; i++) {... */\n    tag_290:\n        /* \"Will.sol\":11531:11542  erc20Assets */\n      0x06\n        /* \"Will.sol\":11531:11549  erc20Assets.length */\n      dup1\n      sload\n      swap1\n      pop\n        /* \"Will.sol\":11527:11528  i */\n      dup2\n        /* \"Will.sol\":11527:11549  i < erc20Assets.length */\n      lt\n        /* \"Will.sol\":11510:11786  for (uint i = 0; i < erc20Assets.length; i++) {... */\n      iszero\n      tag_291\n      jumpi\n        /* \"Will.sol\":11571:11583  IERC20 token */\n      0x00\n        /* \"Will.sol\":11586:11597  erc20Assets */\n      0x06\n        /* \"Will.sol\":11598:11599  i */\n      dup3\n        /* \"Will.sol\":11586:11600  erc20Assets[i] */\n      dup2\n      sload\n      dup2\n      lt\n      tag_293\n      jumpi\n      tag_294\n      tag_142\n      jump\t// in\n    tag_294:\n    tag_293:\n      swap1\n      0x00\n      mstore\n      keccak256(0x00, 0x20)\n      add\n        /* \"Will.sol\":11586:11606  erc20Assets[i].token */\n      0x00\n      add\n      0x00\n      swap1\n      sload\n      swap1\n      0x0100\n      exp\n      swap1\n      div\n      0xffffffffffffffffffffffffffffffffffffffff\n      and\n        /* \"Will.sol\":11571:11606  IERC20 token = erc20Assets[i].token */\n      swap1\n      pop\n        /* \"Will.sol\":11640:11774  Erc20Detail({... */\n      mload(0x40)\n      dup1\n      0x40\n      add\n      0x40\n      mstore\n      dup1\n        /* \"Will.sol\":11694:11699  token */\n      dup3\n        /* \"Will.sol\":11640:11774  Erc20Detail({... */\n      0xffffffffffffffffffffffffffffffffffffffff\n      and\n      dup2\n      mstore\n      0x20\n      add\n        /* \"Will.sol\":11728:11733  token */\n      dup3\n        /* \"Will.sol\":11728:11743  token.balanceOf */\n      0xffffffffffffffffffffffffffffffffffffffff\n      and\n      0x70a08231\n        /* \"Will.sol\":11752:11756  this */\n      address\n        /* \"Will.sol\":11728:11758  token.balanceOf(address(this)) */\n      mload(0x40)\n      dup3\n      0xffffffff\n      and\n      0xe0\n      shl\n      dup2\n      mstore\n      0x04\n      add\n      tag_296\n      swap2\n      swap1\n      tag_29\n      jump\t// in\n    tag_296:\n      0x20\n      mload(0x40)\n      dup1\n      dup4\n      sub\n      dup2\n      dup7\n      gas\n      staticcall\n      iszero\n      dup1\n      iszero\n      tag_298\n      jumpi\n      returndatacopy(0x00, 0x00, returndatasize)\n      revert(0x00, returndatasize)\n    tag_298:\n      pop\n      pop\n      pop\n      pop\n      mload(0x40)\n      returndatasize\n      not(0x1f)\n      0x1f\n      dup3\n      add\n      and\n      dup3\n      add\n      dup1\n      0x40\n      mstore\n      pop\n      dup2\n      add\n      swap1\n      tag_299\n      swap2\n      swap1\n      tag_167\n      jump\t// in\n    tag_299:\n        /* \"Will.sol\":11640:11774  Erc20Detail({... */\n      dup2\n      mstore\n      pop\n        /* \"Will.sol\":11621:11634  _erc20Details */\n      dup4\n        /* \"Will.sol\":11635:11636  i */\n      dup4\n        /* \"Will.sol\":11621:11637  _erc20Details[i] */\n      dup2\n      mload\n      dup2\n      lt\n      tag_300\n      jumpi\n      tag_301\n      tag_142\n      jump\t// in\n    tag_301:\n    tag_300:\n      0x20\n      mul\n      0x20\n      add\n      add\n        /* \"Will.sol\":11621:11774  _erc20Details[i] = Erc20Detail({... */\n      dup2\n      swap1\n      mstore\n      pop\n        /* \"Will.sol\":11556:11786  {... */\n      pop\n        /* \"Will.sol\":11551:11554  i++ */\n      dup1\n      dup1\n      0x01\n      add\n      swap2\n      pop\n      pop\n        /* \"Will.sol\":11510:11786  for (uint i = 0; i < erc20Assets.length; i++) {... */\n      jump(tag_290)\n    tag_291:\n      pop\n        /* \"Will.sol\":11834:11870  Erc721Detail[] memory _erc721Details */\n      0x00\n        /* \"Will.sol\":11892:11904  erc721Assets */\n      0x07\n        /* \"Will.sol\":11892:11911  erc721Assets.length */\n      dup1\n      sload\n      swap1\n      pop\n        /* \"Will.sol\":11873:11912  new Erc721Detail[](erc721Assets.length) */\n      0xffffffffffffffff\n      dup2\n      gt\n      iszero\n      tag_302\n      jumpi\n      tag_303\n      tag_285\n      jump\t// in\n    tag_303:\n    tag_302:\n      mload(0x40)\n      swap1\n      dup1\n      dup3\n      mstore\n      dup1\n      0x20\n      mul\n      0x20\n      add\n      dup3\n      add\n      0x40\n      mstore\n      dup1\n      iszero\n      tag_304\n      jumpi\n      dup2\n      0x20\n      add\n    tag_305:\n      tag_306\n      tag_307\n      jump\t// in\n    tag_306:\n      dup2\n      mstore\n      0x20\n      add\n      swap1\n      0x01\n      swap1\n      sub\n      swap1\n      dup2\n      tag_305\n      jumpi\n      swap1\n      pop\n    tag_304:\n      pop\n        /* \"Will.sol\":11834:11912  Erc721Detail[] memory _erc721Details = new Erc721Detail[](erc721Assets.length) */\n      swap1\n      pop\n        /* \"Will.sol\":11928:11934  uint i */\n      0x00\n        /* \"Will.sol\":11937:11938  0 */\n      0x00\n        /* \"Will.sol\":11928:11938  uint i = 0 */\n      swap1\n      pop\n        /* \"Will.sol\":11923:12233  for (uint i = 0; i < erc721Assets.length; i++) {... */\n    tag_308:\n        /* \"Will.sol\":11944:11956  erc721Assets */\n      0x07\n        /* \"Will.sol\":11944:11963  erc721Assets.length */\n      dup1\n      sload\n      swap1\n      pop\n        /* \"Will.sol\":11940:11941  i */\n      dup2\n        /* \"Will.sol\":11940:11963  i < erc721Assets.length */\n      lt\n        /* \"Will.sol\":11923:12233  for (uint i = 0; i < erc721Assets.length; i++) {... */\n      iszero\n      tag_309\n      jumpi\n        /* \"Will.sol\":11985:12009  Erc721Asset memory asset */\n      0x00\n        /* \"Will.sol\":12012:12024  erc721Assets */\n      0x07\n        /* \"Will.sol\":12025:12026  i */\n      dup3\n        /* \"Will.sol\":12012:12027  erc721Assets[i] */\n      dup2\n      sload\n      dup2\n      lt\n      tag_311\n      jumpi\n      tag_312\n      tag_142\n      jump\t// in\n    tag_312:\n    tag_311:\n      swap1\n      0x00\n      mstore\n      keccak256(0x00, 0x20)\n      swap1\n      0x03\n      mul\n      add\n        /* \"Will.sol\":11985:12027  Erc721Asset memory asset = erc721Assets[i] */\n      mload(0x40)\n      dup1\n      0x60\n      add\n      0x40\n      mstore\n      swap1\n      dup2\n      0x00\n      dup3\n      add\n      0x00\n      swap1\n      sload\n      swap1\n      0x0100\n      exp\n      swap1\n      div\n      0xffffffffffffffffffffffffffffffffffffffff\n      and\n      0xffffffffffffffffffffffffffffffffffffffff\n      and\n      0xffffffffffffffffffffffffffffffffffffffff\n      and\n      dup2\n      mstore\n      0x20\n      add\n      0x01\n      dup3\n      add\n      sload\n      dup2\n      mstore\n      0x20\n      add\n      0x02\n      dup3\n      add\n      0x00\n      swap1\n      sload\n      swap1\n      0x0100\n      exp\n      swap1\n      div\n      0xffffffffffffffffffffffffffffffffffffffff\n      and\n      0xffffffffffffffffffffffffffffffffffffffff\n      and\n      0xffffffffffffffffffffffffffffffffffffffff\n      and\n      dup2\n      mstore\n      pop\n      pop\n      swap1\n      pop\n        /* \"Will.sol\":12062:12221  Erc721Detail({... */\n      mload(0x40)\n      dup1\n      0x60\n      add\n      0x40\n      mstore\n      dup1\n        /* \"Will.sol\":12117:12122  asset */\n      dup3\n        /* \"Will.sol\":12117:12128  asset.token */\n      0x00\n      add\n      mload\n        /* \"Will.sol\":12062:12221  Erc721Detail({... */\n      0xffffffffffffffffffffffffffffffffffffffff\n      and\n      dup2\n      mstore\n      0x20\n      add\n        /* \"Will.sol\":12157:12162  asset */\n      dup3\n        /* \"Will.sol\":12157:12170  asset.tokenId */\n      0x20\n      add\n      mload\n        /* \"Will.sol\":12062:12221  Erc721Detail({... */\n      dup2\n      mstore\n      0x20\n      add\n        /* \"Will.sol\":12195:12200  asset */\n      dup3\n        /* \"Will.sol\":12195:12205  asset.heir */\n      0x40\n      add\n      mload\n        /* \"Will.sol\":12062:12221  Erc721Detail({... */\n      0xffffffffffffffffffffffffffffffffffffffff\n      and\n      dup2\n      mstore\n      pop\n        /* \"Will.sol\":12042:12056  _erc721Details */\n      dup4\n        /* \"Will.sol\":12057:12058  i */\n      dup4\n        /* \"Will.sol\":12042:12059  _erc721Details[i] */\n      dup2\n      mload\n      dup2\n      lt\n      tag_314\n      jumpi\n      tag_315\n      tag_142\n      jump\t// in\n    tag_315:\n    tag_314:\n      0x20\n      mul\n      0x20\n      add\n      add\n        /* \"Will.sol\":12042:12221  _erc721Details[i] = Erc721Detail({... */\n      dup2\n      swap1\n      mstore\n      pop\n        /* \"Will.sol\":11970:12233  {... */\n      pop\n        /* \"Will.sol\":11965:11968  i++ */\n      dup1\n      dup1\n      0x01\n      add\n      swap2\n      pop\n      pop\n        /* \"Will.sol\":11923:12233  for (uint i = 0; i < erc721Assets.length; i++) {... */\n      jump(tag_308)\n    tag_309:\n      pop\n        /* \"Will.sol\":12293:12673  WillDetails({... */\n      mload(0x40)\n      dup1\n      0x0120\n      add\n      0x40\n      mstore\n      dup1\n        /* \"Will.sol\":12327:12334  owner() */\n      tag_316\n        /* \"Will.sol\":12327:12332  owner */\n      tag_54\n        /* \"Will.sol\":12327:12334  owner() */\n      jump\t// in\n    tag_316:\n        /* \"Will.sol\":12293:12673  WillDetails({... */\n      0xffffffffffffffffffffffffffffffffffffffff\n      and\n      dup2\n      mstore\n      0x20\n      add\n        /* \"Will.sol\":12359:12367  interval */\n      immutable(\"0xca4b0db001bf2677ca5ac885bd7766c7c4b4b5d0170066d4830e0728bf019f64\")\n        /* \"Will.sol\":12293:12673  WillDetails({... */\n      dup2\n      mstore\n      0x20\n      add\n        /* \"Will.sol\":12394:12404  lastUpdate */\n      sload(0x03)\n        /* \"Will.sol\":12293:12673  WillDetails({... */\n      dup2\n      mstore\n      0x20\n      add\n        /* \"Will.sol\":12429:12437  executed */\n      0x02\n      0x00\n      swap1\n      sload\n      swap1\n      0x0100\n      exp\n      swap1\n      div\n      0xff\n      and\n        /* \"Will.sol\":12293:12673  WillDetails({... */\n      iszero\n      iszero\n      dup2\n      mstore\n      0x20\n      add\n        /* \"Will.sol\":12464:12485  address(this).balance */\n      selfbalance\n        /* \"Will.sol\":12293:12673  WillDetails({... */\n      dup2\n      mstore\n      0x20\n      add\n        /* \"Will.sol\":12507:12512  heirs */\n      0x04\n        /* \"Will.sol\":12293:12673  WillDetails({... */\n      dup1\n      sload\n      dup1\n      0x20\n      mul\n      0x20\n      add\n      mload(0x40)\n      swap1\n      dup2\n      add\n      0x40\n      mstore\n      dup1\n      swap3\n      swap2\n      swap1\n      dup2\n      dup2\n      mstore\n      0x20\n      add\n      dup3\n      dup1\n      sload\n      dup1\n      iszero\n      tag_317\n      jumpi\n      0x20\n      mul\n      dup3\n      add\n      swap2\n      swap1\n      0x00\n      mstore\n      keccak256(0x00, 0x20)\n      swap1\n    tag_318:\n      dup2\n      0x00\n      swap1\n      sload\n      swap1\n      0x0100\n      exp\n      swap1\n      div\n      0xffffffffffffffffffffffffffffffffffffffff\n      and\n      0xffffffffffffffffffffffffffffffffffffffff\n      and\n      dup2\n      mstore\n      0x20\n      add\n      swap1\n      0x01\n      add\n      swap1\n      dup1\n      dup4\n      gt\n      tag_318\n      jumpi\n    tag_317:\n      pop\n      pop\n      pop\n      pop\n      pop\n      dup2\n      mstore\n      0x20\n      add\n        /* \"Will.sol\":12552:12575  distributionPercentages */\n      0x05\n        /* \"Will.sol\":12293:12673  WillDetails({... */\n      dup1\n      sload\n      dup1\n      0x20\n      mul\n      0x20\n      add\n      mload(0x40)\n      swap1\n      dup2\n      add\n      0x40\n      mstore\n      dup1\n      swap3\n      swap2\n      swap1\n      dup2\n      dup2\n      mstore\n      0x20\n      add\n      dup3\n      dup1\n      sload\n      dup1\n      iszero\n      tag_319\n      jumpi\n      0x20\n      mul\n      dup3\n      add\n      swap2\n      swap1\n      0x00\n      mstore\n      keccak256(0x00, 0x20)\n      swap1\n    tag_320:\n      dup2\n      sload\n      dup2\n      mstore\n      0x20\n      add\n      swap1\n      0x01\n      add\n      swap1\n      dup1\n      dup4\n      gt\n      tag_320\n      jumpi\n    tag_319:\n      pop\n      pop\n      pop\n      pop\n      pop\n      dup2\n      mstore\n      0x20\n      add\n        /* \"Will.sol\":12604:12617  _erc20Details */\n      dup4\n        /* \"Will.sol\":12293:12673  WillDetails({... */\n      dup2\n      mstore\n      0x20\n      add\n        /* \"Will.sol\":12647:12661  _erc721Details */\n      dup3\n        /* \"Will.sol\":12293:12673  WillDetails({... */\n      dup2\n      mstore\n      pop\n        /* \"Will.sol\":12286:12673  return WillDetails({... */\n      swap3\n      pop\n      pop\n      pop\n        /* \"Will.sol\":11283:12681  function getWillDetails() external view returns (WillDetails memory) {... */\n      swap1\n      jump\t// out\n        /* \"Will.sol\":4375:4408  Erc721Asset[] public erc721Assets */\n    tag_79:\n      0x07\n      dup2\n      dup2\n      sload\n      dup2\n      lt\n      tag_321\n      jumpi\n      0x00\n      dup1\n      revert\n    tag_321:\n      swap1\n      0x00\n      mstore\n      keccak256(0x00, 0x20)\n      swap1\n      0x03\n      mul\n      add\n      0x00\n      swap2\n      pop\n      swap1\n      pop\n      dup1\n      0x00\n      add\n      0x00\n      swap1\n      sload\n      swap1\n      0x0100\n      exp\n      swap1\n      div\n      0xffffffffffffffffffffffffffffffffffffffff\n      and\n      swap1\n      dup1\n      0x01\n      add\n      sload\n      swap1\n      dup1\n      0x02\n      add\n      0x00\n      swap1\n      sload\n      swap1\n      0x0100\n      exp\n      swap1\n      div\n      0xffffffffffffffffffffffffffffffffffffffff\n      and\n      swap1\n      pop\n      dup4\n      jump\t// out\n        /* \"@openzeppelin/contracts/access/Ownable.sol\":2543:2758  function transferOwnership(address newOwner) public virtual onlyOwner {... */\n    tag_85:\n        /* \"@openzeppelin/contracts/access/Ownable.sol\":1531:1544  _checkOwner() */\n      tag_324\n        /* \"@openzeppelin/contracts/access/Ownable.sol\":1531:1542  _checkOwner */\n      tag_273\n        /* \"@openzeppelin/contracts/access/Ownable.sol\":1531:1544  _checkOwner() */\n      jump\t// in\n    tag_324:\n        /* \"@openzeppelin/contracts/access/Ownable.sol\":2647:2648  0 */\n      0x00\n        /* \"@openzeppelin/contracts/access/Ownable.sol\":2627:2649  newOwner == address(0) */\n      0xffffffffffffffffffffffffffffffffffffffff\n      and\n        /* \"@openzeppelin/contracts/access/Ownable.sol\":2627:2635  newOwner */\n      dup2\n        /* \"@openzeppelin/contracts/access/Ownable.sol\":2627:2649  newOwner == address(0) */\n      0xffffffffffffffffffffffffffffffffffffffff\n      and\n      sub\n        /* \"@openzeppelin/contracts/access/Ownable.sol\":2623:2714  if (newOwner == address(0)) {... */\n      tag_326\n      jumpi\n        /* \"@openzeppelin/contracts/access/Ownable.sol\":2700:2701  0 */\n      0x00\n        /* \"@openzeppelin/contracts/access/Ownable.sol\":2672:2703  OwnableInvalidOwner(address(0)) */\n      mload(0x40)\n      0x1e4fbdf700000000000000000000000000000000000000000000000000000000\n      dup2\n      mstore\n      0x04\n      add\n      tag_327\n      swap2\n      swap1\n      tag_29\n      jump\t// in\n    tag_327:\n      mload(0x40)\n      dup1\n      swap2\n      sub\n      swap1\n      revert\n        /* \"@openzeppelin/contracts/access/Ownable.sol\":2623:2714  if (newOwner == address(0)) {... */\n    tag_326:\n        /* \"@openzeppelin/contracts/access/Ownable.sol\":2723:2751  _transferOwnership(newOwner) */\n      tag_328\n        /* \"@openzeppelin/contracts/access/Ownable.sol\":2742:2750  newOwner */\n      dup2\n        /* \"@openzeppelin/contracts/access/Ownable.sol\":2723:2741  _transferOwnership */\n      tag_276\n        /* \"@openzeppelin/contracts/access/Ownable.sol\":2723:2751  _transferOwnership(newOwner) */\n      jump\t// in\n    tag_328:\n        /* \"@openzeppelin/contracts/access/Ownable.sol\":2543:2758  function transferOwnership(address newOwner) public virtual onlyOwner {... */\n      pop\n      jump\t// out\n        /* \"Will.sol\":2314:2538  function _preReentryCheck() private view {... */\n    tag_102:\n        /* \"Will.sol\":1690:1691  2 */\n      0x02\n        /* \"Will.sol\":2446:2453  _status */\n      sload(0x01)\n        /* \"Will.sol\":2446:2465  _status == _ENTERED */\n      sub\n        /* \"Will.sol\":2442:2531  if (_status == _ENTERED) {... */\n      tag_330\n      jumpi\n        /* \"Will.sol\":2489:2519  ReentrancyGuardReentrantCall() */\n      mload(0x40)\n      0x3ee5aeb500000000000000000000000000000000000000000000000000000000\n      dup2\n      mstore\n      0x04\n      add\n      mload(0x40)\n      dup1\n      swap2\n      sub\n      swap1\n      revert\n        /* \"Will.sol\":2442:2531  if (_status == _ENTERED) {... */\n    tag_330:\n        /* \"Will.sol\":2314:2538  function _preReentryCheck() private view {... */\n      jump\t// out\n        /* \"@openzeppelin/contracts/access/Ownable.sol\":1796:1958  function _checkOwner() internal view virtual {... */\n    tag_273:\n        /* \"@openzeppelin/contracts/access/Ownable.sol\":1866:1878  _msgSender() */\n      tag_332\n        /* \"@openzeppelin/contracts/access/Ownable.sol\":1866:1876  _msgSender */\n      tag_333\n        /* \"@openzeppelin/contracts/access/Ownable.sol\":1866:1878  _msgSender() */\n      jump\t// in\n    tag_332:\n        /* \"@openzeppelin/contracts/access/Ownable.sol\":1855:1878  owner() != _msgSender() */\n      0xffffffffffffffffffffffffffffffffffffffff\n      and\n        /* \"@openzeppelin/contracts/access/Ownable.sol\":1855:1862  owner() */\n      tag_334\n        /* \"@openzeppelin/contracts/access/Ownable.sol\":1855:1860  owner */\n      tag_54\n        /* \"@openzeppelin/contracts/access/Ownable.sol\":1855:1862  owner() */\n      jump\t// in\n    tag_334:\n        /* \"@openzeppelin/contracts/access/Ownable.sol\":1855:1878  owner() != _msgSender() */\n      0xffffffffffffffffffffffffffffffffffffffff\n      and\n      eq\n        /* \"@openzeppelin/contracts/access/Ownable.sol\":1851:1952  if (owner() != _msgSender()) {... */\n      tag_335\n      jumpi\n        /* \"@openzeppelin/contracts/access/Ownable.sol\":1928:1940  _msgSender() */\n      tag_336\n        /* \"@openzeppelin/contracts/access/Ownable.sol\":1928:1938  _msgSender */\n      tag_333\n        /* \"@openzeppelin/contracts/access/Ownable.sol\":1928:1940  _msgSender() */\n      jump\t// in\n    tag_336:\n        /* \"@openzeppelin/contracts/access/Ownable.sol\":1901:1941  OwnableUnauthorizedAccount(_msgSender()) */\n      mload(0x40)\n      0x118cdaa700000000000000000000000000000000000000000000000000000000\n      dup2\n      mstore\n      0x04\n      add\n      tag_337\n      swap2\n      swap1\n      tag_29\n      jump\t// in\n    tag_337:\n      mload(0x40)\n      dup1\n      swap2\n      sub\n      swap1\n      revert\n        /* \"@openzeppelin/contracts/access/Ownable.sol\":1851:1952  if (owner() != _msgSender()) {... */\n    tag_335:\n        /* \"@openzeppelin/contracts/access/Ownable.sol\":1796:1958  function _checkOwner() internal view virtual {... */\n      jump\t// out\n        /* \"@openzeppelin/contracts/access/Ownable.sol\":2912:3099  function _transferOwnership(address newOwner) internal virtual {... */\n    tag_276:\n        /* \"@openzeppelin/contracts/access/Ownable.sol\":2985:3001  address oldOwner */\n      0x00\n        /* \"@openzeppelin/contracts/access/Ownable.sol\":3004:3010  _owner */\n      0x00\n      0x00\n      swap1\n      sload\n      swap1\n      0x0100\n      exp\n      swap1\n      div\n      0xffffffffffffffffffffffffffffffffffffffff\n      and\n        /* \"@openzeppelin/contracts/access/Ownable.sol\":2985:3010  address oldOwner = _owner */\n      swap1\n      pop\n        /* \"@openzeppelin/contracts/access/Ownable.sol\":3029:3037  newOwner */\n      dup2\n        /* \"@openzeppelin/contracts/access/Ownable.sol\":3020:3026  _owner */\n      0x00\n      0x00\n        /* \"@openzeppelin/contracts/access/Ownable.sol\":3020:3037  _owner = newOwner */\n      0x0100\n      exp\n      dup2\n      sload\n      dup2\n      0xffffffffffffffffffffffffffffffffffffffff\n      mul\n      not\n      and\n      swap1\n      dup4\n      0xffffffffffffffffffffffffffffffffffffffff\n      and\n      mul\n      or\n      swap1\n      sstore\n      pop\n        /* \"@openzeppelin/contracts/access/Ownable.sol\":3083:3091  newOwner */\n      dup2\n        /* \"@openzeppelin/contracts/access/Ownable.sol\":3052:3092  OwnershipTransferred(oldOwner, newOwner) */\n      0xffffffffffffffffffffffffffffffffffffffff\n      and\n        /* \"@openzeppelin/contracts/access/Ownable.sol\":3073:3081  oldOwner */\n      dup2\n        /* \"@openzeppelin/contracts/access/Ownable.sol\":3052:3092  OwnershipTransferred(oldOwner, newOwner) */\n      0xffffffffffffffffffffffffffffffffffffffff\n      and\n      0x8be0079c531659141344cd1fd0a4f28419497f9722a3daafe3b4186f6b6457e0\n      mload(0x40)\n      mload(0x40)\n      dup1\n      swap2\n      sub\n      swap1\n      log3\n        /* \"@openzeppelin/contracts/access/Ownable.sol\":2975:3099  {... */\n      pop\n        /* \"@openzeppelin/contracts/access/Ownable.sol\":2912:3099  function _transferOwnership(address newOwner) internal virtual {... */\n      pop\n      jump\t// out\n        /* \"@openzeppelin/contracts/utils/Context.sol\":656:752  function _msgSender() internal view virtual returns (address) {... */\n    tag_333:\n        /* \"@openzeppelin/contracts/utils/Context.sol\":709:716  address */\n      0x00\n        /* \"@openzeppelin/contracts/utils/Context.sol\":735:745  msg.sender */\n      caller\n        /* \"@openzeppelin/contracts/utils/Context.sol\":728:745  return msg.sender */\n      swap1\n      pop\n        /* \"@openzeppelin/contracts/utils/Context.sol\":656:752  function _msgSender() internal view virtual returns (address) {... */\n      swap1\n      jump\t// out\n    tag_281:\n      mload(0x40)\n      dup1\n      0x0120\n      add\n      0x40\n      mstore\n      dup1\n      and(0xffffffffffffffffffffffffffffffffffffffff, 0x00)\n      dup2\n      mstore\n      0x20\n      add\n      0x00\n      dup2\n      mstore\n      0x20\n      add\n      0x00\n      dup2\n      mstore\n      0x20\n      add\n      iszero(iszero(0x00))\n      dup2\n      mstore\n      0x20\n      add\n      0x00\n      dup2\n      mstore\n      0x20\n      add\n      0x60\n      dup2\n      mstore\n      0x20\n      add\n      0x60\n      dup2\n      mstore\n      0x20\n      add\n      0x60\n      dup2\n      mstore\n      0x20\n      add\n      0x60\n      dup2\n      mstore\n      pop\n      swap1\n      jump\t// out\n    tag_289:\n      mload(0x40)\n      dup1\n      0x40\n      add\n      0x40\n      mstore\n      dup1\n      and(0xffffffffffffffffffffffffffffffffffffffff, 0x00)\n      dup2\n      mstore\n      0x20\n      add\n      0x00\n      dup2\n      mstore\n      pop\n      swap1\n      jump\t// out\n    tag_307:\n      mload(0x40)\n      dup1\n      0x60\n      add\n      0x40\n      mstore\n      dup1\n      and(0xffffffffffffffffffffffffffffffffffffffff, 0x00)\n      dup2\n      mstore\n      0x20\n      add\n      0x00\n      dup2\n      mstore\n      0x20\n      add\n      and(0xffffffffffffffffffffffffffffffffffffffff, 0x00)\n      dup2\n      mstore\n      pop\n      swap1\n      jump\t// out\n        /* \"#utility.yul\":88:205   */\n    tag_341:\n        /* \"#utility.yul\":197:198   */\n      0x00\n        /* \"#utility.yul\":194:195   */\n      0x00\n        /* \"#utility.yul\":187:199   */\n      revert\n        /* \"#utility.yul\":334:411   */\n    tag_343:\n        /* \"#utility.yul\":371:378   */\n      0x00\n        /* \"#utility.yul\":400:405   */\n      dup2\n        /* \"#utility.yul\":389:405   */\n      swap1\n      pop\n        /* \"#utility.yul\":334:411   */\n      swap2\n      swap1\n      pop\n      jump\t// out\n        /* \"#utility.yul\":417:539   */\n    tag_344:\n        /* \"#utility.yul\":490:514   */\n      tag_426\n        /* \"#utility.yul\":508:513   */\n      dup2\n        /* \"#utility.yul\":490:514   */\n      tag_343\n      jump\t// in\n    tag_426:\n        /* \"#utility.yul\":483:488   */\n      dup2\n        /* \"#utility.yul\":480:515   */\n      eq\n        /* \"#utility.yul\":470:533   */\n      tag_427\n      jumpi\n        /* \"#utility.yul\":529:530   */\n      0x00\n        /* \"#utility.yul\":526:527   */\n      0x00\n        /* \"#utility.yul\":519:531   */\n      revert\n        /* \"#utility.yul\":470:533   */\n    tag_427:\n        /* \"#utility.yul\":417:539   */\n      pop\n      jump\t// out\n        /* \"#utility.yul\":545:684   */\n    tag_345:\n        /* \"#utility.yul\":591:596   */\n      0x00\n        /* \"#utility.yul\":629:635   */\n      dup2\n        /* \"#utility.yul\":616:636   */\n      calldataload\n        /* \"#utility.yul\":607:636   */\n      swap1\n      pop\n        /* \"#utility.yul\":645:678   */\n      tag_429\n        /* \"#utility.yul\":672:677   */\n      dup2\n        /* \"#utility.yul\":645:678   */\n      tag_344\n      jump\t// in\n    tag_429:\n        /* \"#utility.yul\":545:684   */\n      swap3\n      swap2\n      pop\n      pop\n      jump\t// out\n        /* \"#utility.yul\":690:1019   */\n    tag_26:\n        /* \"#utility.yul\":749:755   */\n      0x00\n        /* \"#utility.yul\":798:800   */\n      0x20\n        /* \"#utility.yul\":786:795   */\n      dup3\n        /* \"#utility.yul\":777:784   */\n      dup5\n        /* \"#utility.yul\":773:796   */\n      sub\n        /* \"#utility.yul\":769:801   */\n      slt\n        /* \"#utility.yul\":766:885   */\n      iszero\n      tag_431\n      jumpi\n        /* \"#utility.yul\":804:883   */\n      tag_432\n      tag_341\n      jump\t// in\n    tag_432:\n        /* \"#utility.yul\":766:885   */\n    tag_431:\n        /* \"#utility.yul\":924:925   */\n      0x00\n        /* \"#utility.yul\":949:1002   */\n      tag_433\n        /* \"#utility.yul\":994:1001   */\n      dup5\n        /* \"#utility.yul\":985:991   */\n      dup3\n        /* \"#utility.yul\":974:983   */\n      dup6\n        /* \"#utility.yul\":970:992   */\n      add\n        /* \"#utility.yul\":949:1002   */\n      tag_345\n      jump\t// in\n    tag_433:\n        /* \"#utility.yul\":939:1002   */\n      swap2\n      pop\n        /* \"#utility.yul\":895:1012   */\n      pop\n        /* \"#utility.yul\":690:1019   */\n      swap3\n      swap2\n      pop\n      pop\n      jump\t// out\n        /* \"#utility.yul\":1025:1151   */\n    tag_346:\n        /* \"#utility.yul\":1062:1069   */\n      0x00\n        /* \"#utility.yul\":1102:1144   */\n      0xffffffffffffffffffffffffffffffffffffffff\n        /* \"#utility.yul\":1095:1100   */\n      dup3\n        /* \"#utility.yul\":1091:1145   */\n      and\n        /* \"#utility.yul\":1080:1145   */\n      swap1\n      pop\n        /* \"#utility.yul\":1025:1151   */\n      swap2\n      swap1\n      pop\n      jump\t// out\n        /* \"#utility.yul\":1157:1253   */\n    tag_347:\n        /* \"#utility.yul\":1194:1201   */\n      0x00\n        /* \"#utility.yul\":1223:1247   */\n      tag_436\n        /* \"#utility.yul\":1241:1246   */\n      dup3\n        /* \"#utility.yul\":1223:1247   */\n      tag_346\n      jump\t// in\n    tag_436:\n        /* \"#utility.yul\":1212:1247   */\n      swap1\n      pop\n        /* \"#utility.yul\":1157:1253   */\n      swap2\n      swap1\n      pop\n      jump\t// out\n        /* \"#utility.yul\":1259:1377   */\n    tag_348:\n        /* \"#utility.yul\":1346:1370   */\n      tag_438\n        /* \"#utility.yul\":1364:1369   */\n      dup2\n        /* \"#utility.yul\":1346:1370   */\n      tag_347\n      jump\t// in\n    tag_438:\n        /* \"#utility.yul\":1341:1344   */\n      dup3\n        /* \"#utility.yul\":1334:1371   */\n      mstore\n        /* \"#utility.yul\":1259:1377   */\n      pop\n      pop\n      jump\t// out\n        /* \"#utility.yul\":1383:1605   */\n    tag_29:\n        /* \"#utility.yul\":1476:1480   */\n      0x00\n        /* \"#utility.yul\":1514:1516   */\n      0x20\n        /* \"#utility.yul\":1503:1512   */\n      dup3\n        /* \"#utility.yul\":1499:1517   */\n      add\n        /* \"#utility.yul\":1491:1517   */\n      swap1\n      pop\n        /* \"#utility.yul\":1527:1598   */\n      tag_440\n        /* \"#utility.yul\":1595:1596   */\n      0x00\n        /* \"#utility.yul\":1584:1593   */\n      dup4\n        /* \"#utility.yul\":1580:1597   */\n      add\n        /* \"#utility.yul\":1571:1577   */\n      dup5\n        /* \"#utility.yul\":1527:1598   */\n      tag_348\n      jump\t// in\n    tag_440:\n        /* \"#utility.yul\":1383:1605   */\n      swap3\n      swap2\n      pop\n      pop\n      jump\t// out\n        /* \"#utility.yul\":1611:1729   */\n    tag_349:\n        /* \"#utility.yul\":1698:1722   */\n      tag_442\n        /* \"#utility.yul\":1716:1721   */\n      dup2\n        /* \"#utility.yul\":1698:1722   */\n      tag_343\n      jump\t// in\n    tag_442:\n        /* \"#utility.yul\":1693:1696   */\n      dup3\n        /* \"#utility.yul\":1686:1723   */\n      mstore\n        /* \"#utility.yul\":1611:1729   */\n      pop\n      pop\n      jump\t// out\n        /* \"#utility.yul\":1735:1957   */\n    tag_34:\n        /* \"#utility.yul\":1828:1832   */\n      0x00\n        /* \"#utility.yul\":1866:1868   */\n      0x20\n        /* \"#utility.yul\":1855:1864   */\n      dup3\n        /* \"#utility.yul\":1851:1869   */\n      add\n        /* \"#utility.yul\":1843:1869   */\n      swap1\n      pop\n        /* \"#utility.yul\":1879:1950   */\n      tag_444\n        /* \"#utility.yul\":1947:1948   */\n      0x00\n        /* \"#utility.yul\":1936:1945   */\n      dup4\n        /* \"#utility.yul\":1932:1949   */\n      add\n        /* \"#utility.yul\":1923:1929   */\n      dup5\n        /* \"#utility.yul\":1879:1950   */\n      tag_349\n      jump\t// in\n    tag_444:\n        /* \"#utility.yul\":1735:1957   */\n      swap3\n      swap2\n      pop\n      pop\n      jump\t// out\n        /* \"#utility.yul\":1963:2053   */\n    tag_350:\n        /* \"#utility.yul\":1997:2004   */\n      0x00\n        /* \"#utility.yul\":2040:2045   */\n      dup2\n        /* \"#utility.yul\":2033:2046   */\n      iszero\n        /* \"#utility.yul\":2026:2047   */\n      iszero\n        /* \"#utility.yul\":2015:2047   */\n      swap1\n      pop\n        /* \"#utility.yul\":1963:2053   */\n      swap2\n      swap1\n      pop\n      jump\t// out\n        /* \"#utility.yul\":2059:2168   */\n    tag_351:\n        /* \"#utility.yul\":2140:2161   */\n      tag_447\n        /* \"#utility.yul\":2155:2160   */\n      dup2\n        /* \"#utility.yul\":2140:2161   */\n      tag_350\n      jump\t// in\n    tag_447:\n        /* \"#utility.yul\":2135:2138   */\n      dup3\n        /* \"#utility.yul\":2128:2162   */\n      mstore\n        /* \"#utility.yul\":2059:2168   */\n      pop\n      pop\n      jump\t// out\n        /* \"#utility.yul\":2174:2384   */\n    tag_41:\n        /* \"#utility.yul\":2261:2265   */\n      0x00\n        /* \"#utility.yul\":2299:2301   */\n      0x20\n        /* \"#utility.yul\":2288:2297   */\n      dup3\n        /* \"#utility.yul\":2284:2302   */\n      add\n        /* \"#utility.yul\":2276:2302   */\n      swap1\n      pop\n        /* \"#utility.yul\":2312:2377   */\n      tag_449\n        /* \"#utility.yul\":2374:2375   */\n      0x00\n        /* \"#utility.yul\":2363:2372   */\n      dup4\n        /* \"#utility.yul\":2359:2376   */\n      add\n        /* \"#utility.yul\":2350:2356   */\n      dup5\n        /* \"#utility.yul\":2312:2377   */\n      tag_351\n      jump\t// in\n    tag_449:\n        /* \"#utility.yul\":2174:2384   */\n      swap3\n      swap2\n      pop\n      pop\n      jump\t// out\n        /* \"#utility.yul\":2390:2450   */\n    tag_352:\n        /* \"#utility.yul\":2418:2421   */\n      0x00\n        /* \"#utility.yul\":2439:2444   */\n      dup2\n        /* \"#utility.yul\":2432:2444   */\n      swap1\n      pop\n        /* \"#utility.yul\":2390:2450   */\n      swap2\n      swap1\n      pop\n      jump\t// out\n        /* \"#utility.yul\":2456:2598   */\n    tag_353:\n        /* \"#utility.yul\":2506:2515   */\n      0x00\n        /* \"#utility.yul\":2539:2592   */\n      tag_452\n        /* \"#utility.yul\":2557:2591   */\n      tag_453\n        /* \"#utility.yul\":2566:2590   */\n      tag_454\n        /* \"#utility.yul\":2584:2589   */\n      dup5\n        /* \"#utility.yul\":2566:2590   */\n      tag_346\n      jump\t// in\n    tag_454:\n        /* \"#utility.yul\":2557:2591   */\n      tag_352\n      jump\t// in\n    tag_453:\n        /* \"#utility.yul\":2539:2592   */\n      tag_346\n      jump\t// in\n    tag_452:\n        /* \"#utility.yul\":2526:2592   */\n      swap1\n      pop\n        /* \"#utility.yul\":2456:2598   */\n      swap2\n      swap1\n      pop\n      jump\t// out\n        /* \"#utility.yul\":2604:2730   */\n    tag_354:\n        /* \"#utility.yul\":2654:2663   */\n      0x00\n        /* \"#utility.yul\":2687:2724   */\n      tag_456\n        /* \"#utility.yul\":2718:2723   */\n      dup3\n        /* \"#utility.yul\":2687:2724   */\n      tag_353\n      jump\t// in\n    tag_456:\n        /* \"#utility.yul\":2674:2724   */\n      swap1\n      pop\n        /* \"#utility.yul\":2604:2730   */\n      swap2\n      swap1\n      pop\n      jump\t// out\n        /* \"#utility.yul\":2736:2876   */\n    tag_355:\n        /* \"#utility.yul\":2800:2809   */\n      0x00\n        /* \"#utility.yul\":2833:2870   */\n      tag_458\n        /* \"#utility.yul\":2864:2869   */\n      dup3\n        /* \"#utility.yul\":2833:2870   */\n      tag_354\n      jump\t// in\n    tag_458:\n        /* \"#utility.yul\":2820:2870   */\n      swap1\n      pop\n        /* \"#utility.yul\":2736:2876   */\n      swap2\n      swap1\n      pop\n      jump\t// out\n        /* \"#utility.yul\":2882:3041   */\n    tag_356:\n        /* \"#utility.yul\":2983:3034   */\n      tag_460\n        /* \"#utility.yul\":3028:3033   */\n      dup2\n        /* \"#utility.yul\":2983:3034   */\n      tag_355\n      jump\t// in\n    tag_460:\n        /* \"#utility.yul\":2978:2981   */\n      dup3\n        /* \"#utility.yul\":2971:3035   */\n      mstore\n        /* \"#utility.yul\":2882:3041   */\n      pop\n      pop\n      jump\t// out\n        /* \"#utility.yul\":3047:3297   */\n    tag_60:\n        /* \"#utility.yul\":3154:3158   */\n      0x00\n        /* \"#utility.yul\":3192:3194   */\n      0x20\n        /* \"#utility.yul\":3181:3190   */\n      dup3\n        /* \"#utility.yul\":3177:3195   */\n      add\n        /* \"#utility.yul\":3169:3195   */\n      swap1\n      pop\n        /* \"#utility.yul\":3205:3290   */\n      tag_462\n        /* \"#utility.yul\":3287:3288   */\n      0x00\n        /* \"#utility.yul\":3276:3285   */\n      dup4\n        /* \"#utility.yul\":3272:3289   */\n      add\n        /* \"#utility.yul\":3263:3269   */\n      dup5\n        /* \"#utility.yul\":3205:3290   */\n      tag_356\n      jump\t// in\n    tag_462:\n        /* \"#utility.yul\":3047:3297   */\n      swap3\n      swap2\n      pop\n      pop\n      jump\t// out\n        /* \"#utility.yul\":3303:3411   */\n    tag_357:\n        /* \"#utility.yul\":3380:3404   */\n      tag_464\n        /* \"#utility.yul\":3398:3403   */\n      dup2\n        /* \"#utility.yul\":3380:3404   */\n      tag_347\n      jump\t// in\n    tag_464:\n        /* \"#utility.yul\":3375:3378   */\n      dup3\n        /* \"#utility.yul\":3368:3405   */\n      mstore\n        /* \"#utility.yul\":3303:3411   */\n      pop\n      pop\n      jump\t// out\n        /* \"#utility.yul\":3417:3525   */\n    tag_358:\n        /* \"#utility.yul\":3494:3518   */\n      tag_466\n        /* \"#utility.yul\":3512:3517   */\n      dup2\n        /* \"#utility.yul\":3494:3518   */\n      tag_343\n      jump\t// in\n    tag_466:\n        /* \"#utility.yul\":3489:3492   */\n      dup3\n        /* \"#utility.yul\":3482:3519   */\n      mstore\n        /* \"#utility.yul\":3417:3525   */\n      pop\n      pop\n      jump\t// out\n        /* \"#utility.yul\":3531:3630   */\n    tag_359:\n        /* \"#utility.yul\":3602:3623   */\n      tag_468\n        /* \"#utility.yul\":3617:3622   */\n      dup2\n        /* \"#utility.yul\":3602:3623   */\n      tag_350\n      jump\t// in\n    tag_468:\n        /* \"#utility.yul\":3597:3600   */\n      dup3\n        /* \"#utility.yul\":3590:3624   */\n      mstore\n        /* \"#utility.yul\":3531:3630   */\n      pop\n      pop\n      jump\t// out\n        /* \"#utility.yul\":3636:3750   */\n    tag_360:\n        /* \"#utility.yul\":3703:3709   */\n      0x00\n        /* \"#utility.yul\":3737:3742   */\n      dup2\n        /* \"#utility.yul\":3731:3743   */\n      mload\n        /* \"#utility.yul\":3721:3743   */\n      swap1\n      pop\n        /* \"#utility.yul\":3636:3750   */\n      swap2\n      swap1\n      pop\n      jump\t// out\n        /* \"#utility.yul\":3756:3930   */\n    tag_361:\n        /* \"#utility.yul\":3845:3856   */\n      0x00\n        /* \"#utility.yul\":3879:3885   */\n      dup3\n        /* \"#utility.yul\":3874:3877   */\n      dup3\n        /* \"#utility.yul\":3867:3886   */\n      mstore\n        /* \"#utility.yul\":3919:3923   */\n      0x20\n        /* \"#utility.yul\":3914:3917   */\n      dup3\n        /* \"#utility.yul\":3910:3924   */\n      add\n        /* \"#utility.yul\":3895:3924   */\n      swap1\n      pop\n        /* \"#utility.yul\":3756:3930   */\n      swap3\n      swap2\n      pop\n      pop\n      jump\t// out\n        /* \"#utility.yul\":3936:4068   */\n    tag_362:\n        /* \"#utility.yul\":4003:4007   */\n      0x00\n        /* \"#utility.yul\":4026:4029   */\n      dup2\n        /* \"#utility.yul\":4018:4029   */\n      swap1\n      pop\n        /* \"#utility.yul\":4056:4060   */\n      0x20\n        /* \"#utility.yul\":4051:4054   */\n      dup3\n        /* \"#utility.yul\":4047:4061   */\n      add\n        /* \"#utility.yul\":4039:4061   */\n      swap1\n      pop\n        /* \"#utility.yul\":3936:4068   */\n      swap2\n      swap1\n      pop\n      jump\t// out\n        /* \"#utility.yul\":4074:4253   */\n    tag_363:\n        /* \"#utility.yul\":4143:4153   */\n      0x00\n        /* \"#utility.yul\":4164:4210   */\n      tag_473\n        /* \"#utility.yul\":4206:4209   */\n      dup4\n        /* \"#utility.yul\":4198:4204   */\n      dup4\n        /* \"#utility.yul\":4164:4210   */\n      tag_357\n      jump\t// in\n    tag_473:\n        /* \"#utility.yul\":4242:4246   */\n      0x20\n        /* \"#utility.yul\":4237:4240   */\n      dup4\n        /* \"#utility.yul\":4233:4247   */\n      add\n        /* \"#utility.yul\":4219:4247   */\n      swap1\n      pop\n        /* \"#utility.yul\":4074:4253   */\n      swap3\n      swap2\n      pop\n      pop\n      jump\t// out\n        /* \"#utility.yul\":4259:4372   */\n    tag_364:\n        /* \"#utility.yul\":4329:4333   */\n      0x00\n        /* \"#utility.yul\":4361:4365   */\n      0x20\n        /* \"#utility.yul\":4356:4359   */\n      dup3\n        /* \"#utility.yul\":4352:4366   */\n      add\n        /* \"#utility.yul\":4344:4366   */\n      swap1\n      pop\n        /* \"#utility.yul\":4259:4372   */\n      swap2\n      swap1\n      pop\n      jump\t// out\n        /* \"#utility.yul\":4408:5120   */\n    tag_365:\n        /* \"#utility.yul\":4517:4520   */\n      0x00\n        /* \"#utility.yul\":4546:4600   */\n      tag_476\n        /* \"#utility.yul\":4594:4599   */\n      dup3\n        /* \"#utility.yul\":4546:4600   */\n      tag_360\n      jump\t// in\n    tag_476:\n        /* \"#utility.yul\":4616:4692   */\n      tag_477\n        /* \"#utility.yul\":4685:4691   */\n      dup2\n        /* \"#utility.yul\":4680:4683   */\n      dup6\n        /* \"#utility.yul\":4616:4692   */\n      tag_361\n      jump\t// in\n    tag_477:\n        /* \"#utility.yul\":4609:4692   */\n      swap4\n      pop\n        /* \"#utility.yul\":4716:4772   */\n      tag_478\n        /* \"#utility.yul\":4766:4771   */\n      dup4\n        /* \"#utility.yul\":4716:4772   */\n      tag_362\n      jump\t// in\n    tag_478:\n        /* \"#utility.yul\":4795:4802   */\n      dup1\n        /* \"#utility.yul\":4826:4827   */\n      0x00\n        /* \"#utility.yul\":4811:5095   */\n    tag_479:\n        /* \"#utility.yul\":4836:4842   */\n      dup4\n        /* \"#utility.yul\":4833:4834   */\n      dup2\n        /* \"#utility.yul\":4830:4843   */\n      lt\n        /* \"#utility.yul\":4811:5095   */\n      iszero\n      tag_481\n      jumpi\n        /* \"#utility.yul\":4912:4918   */\n      dup2\n        /* \"#utility.yul\":4906:4919   */\n      mload\n        /* \"#utility.yul\":4939:5002   */\n      tag_482\n        /* \"#utility.yul\":4998:5001   */\n      dup9\n        /* \"#utility.yul\":4983:4996   */\n      dup3\n        /* \"#utility.yul\":4939:5002   */\n      tag_363\n      jump\t// in\n    tag_482:\n        /* \"#utility.yul\":4932:5002   */\n      swap8\n      pop\n        /* \"#utility.yul\":5025:5085   */\n      tag_483\n        /* \"#utility.yul\":5078:5084   */\n      dup4\n        /* \"#utility.yul\":5025:5085   */\n      tag_364\n      jump\t// in\n    tag_483:\n        /* \"#utility.yul\":5015:5085   */\n      swap3\n      pop\n        /* \"#utility.yul\":4871:5095   */\n      pop\n        /* \"#utility.yul\":4858:4859   */\n      0x01\n        /* \"#utility.yul\":4855:4856   */\n      dup2\n        /* \"#utility.yul\":4851:4860   */\n      add\n        /* \"#utility.yul\":4846:4860   */\n      swap1\n      pop\n        /* \"#utility.yul\":4811:5095   */\n      jump(tag_479)\n    tag_481:\n        /* \"#utility.yul\":4815:4829   */\n      pop\n        /* \"#utility.yul\":5111:5114   */\n      dup6\n        /* \"#utility.yul\":5104:5114   */\n      swap4\n      pop\n        /* \"#utility.yul\":4522:5120   */\n      pop\n      pop\n      pop\n        /* \"#utility.yul\":4408:5120   */\n      swap3\n      swap2\n      pop\n      pop\n      jump\t// out\n        /* \"#utility.yul\":5126:5240   */\n    tag_366:\n        /* \"#utility.yul\":5193:5199   */\n      0x00\n        /* \"#utility.yul\":5227:5232   */\n      dup2\n        /* \"#utility.yul\":5221:5233   */\n      mload\n        /* \"#utility.yul\":5211:5233   */\n      swap1\n      pop\n        /* \"#utility.yul\":5126:5240   */\n      swap2\n      swap1\n      pop\n      jump\t// out\n        /* \"#utility.yul\":5246:5420   */\n    tag_367:\n        /* \"#utility.yul\":5335:5346   */\n      0x00\n        /* \"#utility.yul\":5369:5375   */\n      dup3\n        /* \"#utility.yul\":5364:5367   */\n      dup3\n        /* \"#utility.yul\":5357:5376   */\n      mstore\n        /* \"#utility.yul\":5409:5413   */\n      0x20\n        /* \"#utility.yul\":5404:5407   */\n      dup3\n        /* \"#utility.yul\":5400:5414   */\n      add\n        /* \"#utility.yul\":5385:5414   */\n      swap1\n      pop\n        /* \"#utility.yul\":5246:5420   */\n      swap3\n      swap2\n      pop\n      pop\n      jump\t// out\n        /* \"#utility.yul\":5426:5558   */\n    tag_368:\n        /* \"#utility.yul\":5493:5497   */\n      0x00\n        /* \"#utility.yul\":5516:5519   */\n      dup2\n        /* \"#utility.yul\":5508:5519   */\n      swap1\n      pop\n        /* \"#utility.yul\":5546:5550   */\n      0x20\n        /* \"#utility.yul\":5541:5544   */\n      dup3\n        /* \"#utility.yul\":5537:5551   */\n      add\n        /* \"#utility.yul\":5529:5551   */\n      swap1\n      pop\n        /* \"#utility.yul\":5426:5558   */\n      swap2\n      swap1\n      pop\n      jump\t// out\n        /* \"#utility.yul\":5564:5743   */\n    tag_369:\n        /* \"#utility.yul\":5633:5643   */\n      0x00\n        /* \"#utility.yul\":5654:5700   */\n      tag_488\n        /* \"#utility.yul\":5696:5699   */\n      dup4\n        /* \"#utility.yul\":5688:5694   */\n      dup4\n        /* \"#utility.yul\":5654:5700   */\n      tag_358\n      jump\t// in\n    tag_488:\n        /* \"#utility.yul\":5732:5736   */\n      0x20\n        /* \"#utility.yul\":5727:5730   */\n      dup4\n        /* \"#utility.yul\":5723:5737   */\n      add\n        /* \"#utility.yul\":5709:5737   */\n      swap1\n      pop\n        /* \"#utility.yul\":5564:5743   */\n      swap3\n      swap2\n      pop\n      pop\n      jump\t// out\n        /* \"#utility.yul\":5749:5862   */\n    tag_370:\n        /* \"#utility.yul\":5819:5823   */\n      0x00\n        /* \"#utility.yul\":5851:5855   */\n      0x20\n        /* \"#utility.yul\":5846:5849   */\n      dup3\n        /* \"#utility.yul\":5842:5856   */\n      add\n        /* \"#utility.yul\":5834:5856   */\n      swap1\n      pop\n        /* \"#utility.yul\":5749:5862   */\n      swap2\n      swap1\n      pop\n      jump\t// out\n        /* \"#utility.yul\":5898:6610   */\n    tag_371:\n        /* \"#utility.yul\":6007:6010   */\n      0x00\n        /* \"#utility.yul\":6036:6090   */\n      tag_491\n        /* \"#utility.yul\":6084:6089   */\n      dup3\n        /* \"#utility.yul\":6036:6090   */\n      tag_366\n      jump\t// in\n    tag_491:\n        /* \"#utility.yul\":6106:6182   */\n      tag_492\n        /* \"#utility.yul\":6175:6181   */\n      dup2\n        /* \"#utility.yul\":6170:6173   */\n      dup6\n        /* \"#utility.yul\":6106:6182   */\n      tag_367\n      jump\t// in\n    tag_492:\n        /* \"#utility.yul\":6099:6182   */\n      swap4\n      pop\n        /* \"#utility.yul\":6206:6262   */\n      tag_493\n        /* \"#utility.yul\":6256:6261   */\n      dup4\n        /* \"#utility.yul\":6206:6262   */\n      tag_368\n      jump\t// in\n    tag_493:\n        /* \"#utility.yul\":6285:6292   */\n      dup1\n        /* \"#utility.yul\":6316:6317   */\n      0x00\n        /* \"#utility.yul\":6301:6585   */\n    tag_494:\n        /* \"#utility.yul\":6326:6332   */\n      dup4\n        /* \"#utility.yul\":6323:6324   */\n      dup2\n        /* \"#utility.yul\":6320:6333   */\n      lt\n        /* \"#utility.yul\":6301:6585   */\n      iszero\n      tag_496\n      jumpi\n        /* \"#utility.yul\":6402:6408   */\n      dup2\n        /* \"#utility.yul\":6396:6409   */\n      mload\n        /* \"#utility.yul\":6429:6492   */\n      tag_497\n        /* \"#utility.yul\":6488:6491   */\n      dup9\n        /* \"#utility.yul\":6473:6486   */\n      dup3\n        /* \"#utility.yul\":6429:6492   */\n      tag_369\n      jump\t// in\n    tag_497:\n        /* \"#utility.yul\":6422:6492   */\n      swap8\n      pop\n        /* \"#utility.yul\":6515:6575   */\n      tag_498\n        /* \"#utility.yul\":6568:6574   */\n      dup4\n        /* \"#utility.yul\":6515:6575   */\n      tag_370\n      jump\t// in\n    tag_498:\n        /* \"#utility.yul\":6505:6575   */\n      swap3\n      pop\n        /* \"#utility.yul\":6361:6585   */\n      pop\n        /* \"#utility.yul\":6348:6349   */\n      0x01\n        /* \"#utility.yul\":6345:6346   */\n      dup2\n        /* \"#utility.yul\":6341:6350   */\n      add\n        /* \"#utility.yul\":6336:6350   */\n      swap1\n      pop\n        /* \"#utility.yul\":6301:6585   */\n      jump(tag_494)\n    tag_496:\n        /* \"#utility.yul\":6305:6319   */\n      pop\n        /* \"#utility.yul\":6601:6604   */\n      dup6\n        /* \"#utility.yul\":6594:6604   */\n      swap4\n      pop\n        /* \"#utility.yul\":6012:6610   */\n      pop\n      pop\n      pop\n        /* \"#utility.yul\":5898:6610   */\n      swap3\n      swap2\n      pop\n      pop\n      jump\t// out\n        /* \"#utility.yul\":6616:6758   */\n    tag_372:\n        /* \"#utility.yul\":6711:6717   */\n      0x00\n        /* \"#utility.yul\":6745:6750   */\n      dup2\n        /* \"#utility.yul\":6739:6751   */\n      mload\n        /* \"#utility.yul\":6729:6751   */\n      swap1\n      pop\n        /* \"#utility.yul\":6616:6758   */\n      swap2\n      swap1\n      pop\n      jump\t// out\n        /* \"#utility.yul\":6764:6966   */\n    tag_373:\n        /* \"#utility.yul\":6881:6892   */\n      0x00\n        /* \"#utility.yul\":6915:6921   */\n      dup3\n        /* \"#utility.yul\":6910:6913   */\n      dup3\n        /* \"#utility.yul\":6903:6922   */\n      mstore\n        /* \"#utility.yul\":6955:6959   */\n      0x20\n        /* \"#utility.yul\":6950:6953   */\n      dup3\n        /* \"#utility.yul\":6946:6960   */\n      add\n        /* \"#utility.yul\":6931:6960   */\n      swap1\n      pop\n        /* \"#utility.yul\":6764:6966   */\n      swap3\n      swap2\n      pop\n      pop\n      jump\t// out\n        /* \"#utility.yul\":6972:7132   */\n    tag_374:\n        /* \"#utility.yul\":7067:7071   */\n      0x00\n        /* \"#utility.yul\":7090:7093   */\n      dup2\n        /* \"#utility.yul\":7082:7093   */\n      swap1\n      pop\n        /* \"#utility.yul\":7120:7124   */\n      0x20\n        /* \"#utility.yul\":7115:7118   */\n      dup3\n        /* \"#utility.yul\":7111:7125   */\n      add\n        /* \"#utility.yul\":7103:7125   */\n      swap1\n      pop\n        /* \"#utility.yul\":6972:7132   */\n      swap2\n      swap1\n      pop\n      jump\t// out\n        /* \"#utility.yul\":7186:7701   */\n    tag_375:\n        /* \"#utility.yul\":7329:7333   */\n      0x40\n        /* \"#utility.yul\":7324:7327   */\n      dup3\n        /* \"#utility.yul\":7320:7334   */\n      add\n        /* \"#utility.yul\":7425:7429   */\n      0x00\n        /* \"#utility.yul\":7418:7423   */\n      dup3\n        /* \"#utility.yul\":7414:7430   */\n      add\n        /* \"#utility.yul\":7408:7431   */\n      mload\n        /* \"#utility.yul\":7444:7507   */\n      tag_503\n        /* \"#utility.yul\":7501:7505   */\n      0x00\n        /* \"#utility.yul\":7496:7499   */\n      dup6\n        /* \"#utility.yul\":7492:7506   */\n      add\n        /* \"#utility.yul\":7478:7490   */\n      dup3\n        /* \"#utility.yul\":7444:7507   */\n      tag_357\n      jump\t// in\n    tag_503:\n        /* \"#utility.yul\":7344:7517   */\n      pop\n        /* \"#utility.yul\":7602:7606   */\n      0x20\n        /* \"#utility.yul\":7595:7600   */\n      dup3\n        /* \"#utility.yul\":7591:7607   */\n      add\n        /* \"#utility.yul\":7585:7608   */\n      mload\n        /* \"#utility.yul\":7621:7684   */\n      tag_504\n        /* \"#utility.yul\":7678:7682   */\n      0x20\n        /* \"#utility.yul\":7673:7676   */\n      dup6\n        /* \"#utility.yul\":7669:7683   */\n      add\n        /* \"#utility.yul\":7655:7667   */\n      dup3\n        /* \"#utility.yul\":7621:7684   */\n      tag_358\n      jump\t// in\n    tag_504:\n        /* \"#utility.yul\":7527:7694   */\n      pop\n        /* \"#utility.yul\":7298:7701   */\n      pop\n        /* \"#utility.yul\":7186:7701   */\n      pop\n      pop\n      jump\t// out\n        /* \"#utility.yul\":7707:7998   */\n    tag_376:\n        /* \"#utility.yul\":7832:7842   */\n      0x00\n        /* \"#utility.yul\":7853:7955   */\n      tag_506\n        /* \"#utility.yul\":7951:7954   */\n      dup4\n        /* \"#utility.yul\":7943:7949   */\n      dup4\n        /* \"#utility.yul\":7853:7955   */\n      tag_375\n      jump\t// in\n    tag_506:\n        /* \"#utility.yul\":7987:7991   */\n      0x40\n        /* \"#utility.yul\":7982:7985   */\n      dup4\n        /* \"#utility.yul\":7978:7992   */\n      add\n        /* \"#utility.yul\":7964:7992   */\n      swap1\n      pop\n        /* \"#utility.yul\":7707:7998   */\n      swap3\n      swap2\n      pop\n      pop\n      jump\t// out\n        /* \"#utility.yul\":8004:8145   */\n    tag_377:\n        /* \"#utility.yul\":8102:8106   */\n      0x00\n        /* \"#utility.yul\":8134:8138   */\n      0x20\n        /* \"#utility.yul\":8129:8132   */\n      dup3\n        /* \"#utility.yul\":8125:8139   */\n      add\n        /* \"#utility.yul\":8117:8139   */\n      swap1\n      pop\n        /* \"#utility.yul\":8004:8145   */\n      swap2\n      swap1\n      pop\n      jump\t// out\n        /* \"#utility.yul\":8203:9139   */\n    tag_378:\n        /* \"#utility.yul\":8368:8371   */\n      0x00\n        /* \"#utility.yul\":8397:8479   */\n      tag_509\n        /* \"#utility.yul\":8473:8478   */\n      dup3\n        /* \"#utility.yul\":8397:8479   */\n      tag_372\n      jump\t// in\n    tag_509:\n        /* \"#utility.yul\":8495:8599   */\n      tag_510\n        /* \"#utility.yul\":8592:8598   */\n      dup2\n        /* \"#utility.yul\":8587:8590   */\n      dup6\n        /* \"#utility.yul\":8495:8599   */\n      tag_373\n      jump\t// in\n    tag_510:\n        /* \"#utility.yul\":8488:8599   */\n      swap4\n      pop\n        /* \"#utility.yul\":8623:8707   */\n      tag_511\n        /* \"#utility.yul\":8701:8706   */\n      dup4\n        /* \"#utility.yul\":8623:8707   */\n      tag_374\n      jump\t// in\n    tag_511:\n        /* \"#utility.yul\":8730:8737   */\n      dup1\n        /* \"#utility.yul\":8761:8762   */\n      0x00\n        /* \"#utility.yul\":8746:9114   */\n    tag_512:\n        /* \"#utility.yul\":8771:8777   */\n      dup4\n        /* \"#utility.yul\":8768:8769   */\n      dup2\n        /* \"#utility.yul\":8765:8778   */\n      lt\n        /* \"#utility.yul\":8746:9114   */\n      iszero\n      tag_514\n      jumpi\n        /* \"#utility.yul\":8847:8853   */\n      dup2\n        /* \"#utility.yul\":8841:8854   */\n      mload\n        /* \"#utility.yul\":8874:8993   */\n      tag_515\n        /* \"#utility.yul\":8989:8992   */\n      dup9\n        /* \"#utility.yul\":8974:8987   */\n      dup3\n        /* \"#utility.yul\":8874:8993   */\n      tag_376\n      jump\t// in\n    tag_515:\n        /* \"#utility.yul\":8867:8993   */\n      swap8\n      pop\n        /* \"#utility.yul\":9016:9104   */\n      tag_516\n        /* \"#utility.yul\":9097:9103   */\n      dup4\n        /* \"#utility.yul\":9016:9104   */\n      tag_377\n      jump\t// in\n    tag_516:\n        /* \"#utility.yul\":9006:9104   */\n      swap3\n      pop\n        /* \"#utility.yul\":8806:9114   */\n      pop\n        /* \"#utility.yul\":8793:8794   */\n      0x01\n        /* \"#utility.yul\":8790:8791   */\n      dup2\n        /* \"#utility.yul\":8786:8795   */\n      add\n        /* \"#utility.yul\":8781:8795   */\n      swap1\n      pop\n        /* \"#utility.yul\":8746:9114   */\n      jump(tag_512)\n    tag_514:\n        /* \"#utility.yul\":8750:8764   */\n      pop\n        /* \"#utility.yul\":9130:9133   */\n      dup6\n        /* \"#utility.yul\":9123:9133   */\n      swap4\n      pop\n        /* \"#utility.yul\":8373:9139   */\n      pop\n      pop\n      pop\n        /* \"#utility.yul\":8203:9139   */\n      swap3\n      swap2\n      pop\n      pop\n      jump\t// out\n        /* \"#utility.yul\":9145:9288   */\n    tag_379:\n        /* \"#utility.yul\":9241:9247   */\n      0x00\n        /* \"#utility.yul\":9275:9280   */\n      dup2\n        /* \"#utility.yul\":9269:9281   */\n      mload\n        /* \"#utility.yul\":9259:9281   */\n      swap1\n      pop\n        /* \"#utility.yul\":9145:9288   */\n      swap2\n      swap1\n      pop\n      jump\t// out\n        /* \"#utility.yul\":9294:9497   */\n    tag_380:\n        /* \"#utility.yul\":9412:9423   */\n      0x00\n        /* \"#utility.yul\":9446:9452   */\n      dup3\n        /* \"#utility.yul\":9441:9444   */\n      dup3\n        /* \"#utility.yul\":9434:9453   */\n      mstore\n        /* \"#utility.yul\":9486:9490   */\n      0x20\n        /* \"#utility.yul\":9481:9484   */\n      dup3\n        /* \"#utility.yul\":9477:9491   */\n      add\n        /* \"#utility.yul\":9462:9491   */\n      swap1\n      pop\n        /* \"#utility.yul\":9294:9497   */\n      swap3\n      swap2\n      pop\n      pop\n      jump\t// out\n        /* \"#utility.yul\":9503:9664   */\n    tag_381:\n        /* \"#utility.yul\":9599:9603   */\n      0x00\n        /* \"#utility.yul\":9622:9625   */\n      dup2\n        /* \"#utility.yul\":9614:9625   */\n      swap1\n      pop\n        /* \"#utility.yul\":9652:9656   */\n      0x20\n        /* \"#utility.yul\":9647:9650   */\n      dup3\n        /* \"#utility.yul\":9643:9657   */\n      add\n        /* \"#utility.yul\":9635:9657   */\n      swap1\n      pop\n        /* \"#utility.yul\":9503:9664   */\n      swap2\n      swap1\n      pop\n      jump\t// out\n        /* \"#utility.yul\":9720:10411   */\n    tag_382:\n        /* \"#utility.yul\":9865:9869   */\n      0x60\n        /* \"#utility.yul\":9860:9863   */\n      dup3\n        /* \"#utility.yul\":9856:9870   */\n      add\n        /* \"#utility.yul\":9961:9965   */\n      0x00\n        /* \"#utility.yul\":9954:9959   */\n      dup3\n        /* \"#utility.yul\":9950:9966   */\n      add\n        /* \"#utility.yul\":9944:9967   */\n      mload\n        /* \"#utility.yul\":9980:10043   */\n      tag_521\n        /* \"#utility.yul\":10037:10041   */\n      0x00\n        /* \"#utility.yul\":10032:10035   */\n      dup6\n        /* \"#utility.yul\":10028:10042   */\n      add\n        /* \"#utility.yul\":10014:10026   */\n      dup3\n        /* \"#utility.yul\":9980:10043   */\n      tag_357\n      jump\t// in\n    tag_521:\n        /* \"#utility.yul\":9880:10053   */\n      pop\n        /* \"#utility.yul\":10138:10142   */\n      0x20\n        /* \"#utility.yul\":10131:10136   */\n      dup3\n        /* \"#utility.yul\":10127:10143   */\n      add\n        /* \"#utility.yul\":10121:10144   */\n      mload\n        /* \"#utility.yul\":10157:10220   */\n      tag_522\n        /* \"#utility.yul\":10214:10218   */\n      0x20\n        /* \"#utility.yul\":10209:10212   */\n      dup6\n        /* \"#utility.yul\":10205:10219   */\n      add\n        /* \"#utility.yul\":10191:10203   */\n      dup3\n        /* \"#utility.yul\":10157:10220   */\n      tag_358\n      jump\t// in\n    tag_522:\n        /* \"#utility.yul\":10063:10230   */\n      pop\n        /* \"#utility.yul\":10312:10316   */\n      0x40\n        /* \"#utility.yul\":10305:10310   */\n      dup3\n        /* \"#utility.yul\":10301:10317   */\n      add\n        /* \"#utility.yul\":10295:10318   */\n      mload\n        /* \"#utility.yul\":10331:10394   */\n      tag_523\n        /* \"#utility.yul\":10388:10392   */\n      0x40\n        /* \"#utility.yul\":10383:10386   */\n      dup6\n        /* \"#utility.yul\":10379:10393   */\n      add\n        /* \"#utility.yul\":10365:10377   */\n      dup3\n        /* \"#utility.yul\":10331:10394   */\n      tag_357\n      jump\t// in\n    tag_523:\n        /* \"#utility.yul\":10240:10404   */\n      pop\n        /* \"#utility.yul\":9834:10411   */\n      pop\n        /* \"#utility.yul\":9720:10411   */\n      pop\n      pop\n      jump\t// out\n        /* \"#utility.yul\":10417:10712   */\n    tag_383:\n        /* \"#utility.yul\":10544:10554   */\n      0x00\n        /* \"#utility.yul\":10565:10669   */\n      tag_525\n        /* \"#utility.yul\":10665:10668   */\n      dup4\n        /* \"#utility.yul\":10657:10663   */\n      dup4\n        /* \"#utility.yul\":10565:10669   */\n      tag_382\n      jump\t// in\n    tag_525:\n        /* \"#utility.yul\":10701:10705   */\n      0x60\n        /* \"#utility.yul\":10696:10699   */\n      dup4\n        /* \"#utility.yul\":10692:10706   */\n      add\n        /* \"#utility.yul\":10678:10706   */\n      swap1\n      pop\n        /* \"#utility.yul\":10417:10712   */\n      swap3\n      swap2\n      pop\n      pop\n      jump\t// out\n        /* \"#utility.yul\":10718:10860   */\n    tag_384:\n        /* \"#utility.yul\":10817:10821   */\n      0x00\n        /* \"#utility.yul\":10849:10853   */\n      0x20\n        /* \"#utility.yul\":10844:10847   */\n      dup3\n        /* \"#utility.yul\":10840:10854   */\n      add\n        /* \"#utility.yul\":10832:10854   */\n      swap1\n      pop\n        /* \"#utility.yul\":10718:10860   */\n      swap2\n      swap1\n      pop\n      jump\t// out\n        /* \"#utility.yul\":10920:11864   */\n    tag_385:\n        /* \"#utility.yul\":11087:11090   */\n      0x00\n        /* \"#utility.yul\":11116:11199   */\n      tag_528\n        /* \"#utility.yul\":11193:11198   */\n      dup3\n        /* \"#utility.yul\":11116:11199   */\n      tag_379\n      jump\t// in\n    tag_528:\n        /* \"#utility.yul\":11215:11320   */\n      tag_529\n        /* \"#utility.yul\":11313:11319   */\n      dup2\n        /* \"#utility.yul\":11308:11311   */\n      dup6\n        /* \"#utility.yul\":11215:11320   */\n      tag_380\n      jump\t// in\n    tag_529:\n        /* \"#utility.yul\":11208:11320   */\n      swap4\n      pop\n        /* \"#utility.yul\":11344:11429   */\n      tag_530\n        /* \"#utility.yul\":11423:11428   */\n      dup4\n        /* \"#utility.yul\":11344:11429   */\n      tag_381\n      jump\t// in\n    tag_530:\n        /* \"#utility.yul\":11452:11459   */\n      dup1\n        /* \"#utility.yul\":11483:11484   */\n      0x00\n        /* \"#utility.yul\":11468:11839   */\n    tag_531:\n        /* \"#utility.yul\":11493:11499   */\n      dup4\n        /* \"#utility.yul\":11490:11491   */\n      dup2\n        /* \"#utility.yul\":11487:11500   */\n      lt\n        /* \"#utility.yul\":11468:11839   */\n      iszero\n      tag_533\n      jumpi\n        /* \"#utility.yul\":11569:11575   */\n      dup2\n        /* \"#utility.yul\":11563:11576   */\n      mload\n        /* \"#utility.yul\":11596:11717   */\n      tag_534\n        /* \"#utility.yul\":11713:11716   */\n      dup9\n        /* \"#utility.yul\":11698:11711   */\n      dup3\n        /* \"#utility.yul\":11596:11717   */\n      tag_383\n      jump\t// in\n    tag_534:\n        /* \"#utility.yul\":11589:11717   */\n      swap8\n      pop\n        /* \"#utility.yul\":11740:11829   */\n      tag_535\n        /* \"#utility.yul\":11822:11828   */\n      dup4\n        /* \"#utility.yul\":11740:11829   */\n      tag_384\n      jump\t// in\n    tag_535:\n        /* \"#utility.yul\":11730:11829   */\n      swap3\n      pop\n        /* \"#utility.yul\":11528:11839   */\n      pop\n        /* \"#utility.yul\":11515:11516   */\n      0x01\n        /* \"#utility.yul\":11512:11513   */\n      dup2\n        /* \"#utility.yul\":11508:11517   */\n      add\n        /* \"#utility.yul\":11503:11517   */\n      swap1\n      pop\n        /* \"#utility.yul\":11468:11839   */\n      jump(tag_531)\n    tag_533:\n        /* \"#utility.yul\":11472:11486   */\n      pop\n        /* \"#utility.yul\":11855:11858   */\n      dup6\n        /* \"#utility.yul\":11848:11858   */\n      swap4\n      pop\n        /* \"#utility.yul\":11092:11864   */\n      pop\n      pop\n      pop\n        /* \"#utility.yul\":10920:11864   */\n      swap3\n      swap2\n      pop\n      pop\n      jump\t// out\n        /* \"#utility.yul\":11918:14253   */\n    tag_386:\n        /* \"#utility.yul\":12043:12046   */\n      0x00\n        /* \"#utility.yul\":12079:12085   */\n      0x0120\n        /* \"#utility.yul\":12074:12077   */\n      dup4\n        /* \"#utility.yul\":12070:12086   */\n      add\n        /* \"#utility.yul\":12169:12173   */\n      0x00\n        /* \"#utility.yul\":12162:12167   */\n      dup4\n        /* \"#utility.yul\":12158:12174   */\n      add\n        /* \"#utility.yul\":12152:12175   */\n      mload\n        /* \"#utility.yul\":12188:12251   */\n      tag_537\n        /* \"#utility.yul\":12245:12249   */\n      0x00\n        /* \"#utility.yul\":12240:12243   */\n      dup7\n        /* \"#utility.yul\":12236:12250   */\n      add\n        /* \"#utility.yul\":12222:12234   */\n      dup3\n        /* \"#utility.yul\":12188:12251   */\n      tag_357\n      jump\t// in\n    tag_537:\n        /* \"#utility.yul\":12096:12261   */\n      pop\n        /* \"#utility.yul\":12347:12351   */\n      0x20\n        /* \"#utility.yul\":12340:12345   */\n      dup4\n        /* \"#utility.yul\":12336:12352   */\n      add\n        /* \"#utility.yul\":12330:12353   */\n      mload\n        /* \"#utility.yul\":12366:12429   */\n      tag_538\n        /* \"#utility.yul\":12423:12427   */\n      0x20\n        /* \"#utility.yul\":12418:12421   */\n      dup7\n        /* \"#utility.yul\":12414:12428   */\n      add\n        /* \"#utility.yul\":12400:12412   */\n      dup3\n        /* \"#utility.yul\":12366:12429   */\n      tag_358\n      jump\t// in\n    tag_538:\n        /* \"#utility.yul\":12271:12439   */\n      pop\n        /* \"#utility.yul\":12527:12531   */\n      0x40\n        /* \"#utility.yul\":12520:12525   */\n      dup4\n        /* \"#utility.yul\":12516:12532   */\n      add\n        /* \"#utility.yul\":12510:12533   */\n      mload\n        /* \"#utility.yul\":12546:12609   */\n      tag_539\n        /* \"#utility.yul\":12603:12607   */\n      0x40\n        /* \"#utility.yul\":12598:12601   */\n      dup7\n        /* \"#utility.yul\":12594:12608   */\n      add\n        /* \"#utility.yul\":12580:12592   */\n      dup3\n        /* \"#utility.yul\":12546:12609   */\n      tag_358\n      jump\t// in\n    tag_539:\n        /* \"#utility.yul\":12449:12619   */\n      pop\n        /* \"#utility.yul\":12705:12709   */\n      0x60\n        /* \"#utility.yul\":12698:12703   */\n      dup4\n        /* \"#utility.yul\":12694:12710   */\n      add\n        /* \"#utility.yul\":12688:12711   */\n      mload\n        /* \"#utility.yul\":12724:12781   */\n      tag_540\n        /* \"#utility.yul\":12775:12779   */\n      0x60\n        /* \"#utility.yul\":12770:12773   */\n      dup7\n        /* \"#utility.yul\":12766:12780   */\n      add\n        /* \"#utility.yul\":12752:12764   */\n      dup3\n        /* \"#utility.yul\":12724:12781   */\n      tag_359\n      jump\t// in\n    tag_540:\n        /* \"#utility.yul\":12629:12791   */\n      pop\n        /* \"#utility.yul\":12879:12883   */\n      0x80\n        /* \"#utility.yul\":12872:12877   */\n      dup4\n        /* \"#utility.yul\":12868:12884   */\n      add\n        /* \"#utility.yul\":12862:12885   */\n      mload\n        /* \"#utility.yul\":12898:12961   */\n      tag_541\n        /* \"#utility.yul\":12955:12959   */\n      0x80\n        /* \"#utility.yul\":12950:12953   */\n      dup7\n        /* \"#utility.yul\":12946:12960   */\n      add\n        /* \"#utility.yul\":12932:12944   */\n      dup3\n        /* \"#utility.yul\":12898:12961   */\n      tag_358\n      jump\t// in\n    tag_541:\n        /* \"#utility.yul\":12801:12971   */\n      pop\n        /* \"#utility.yul\":13054:13058   */\n      0xa0\n        /* \"#utility.yul\":13047:13052   */\n      dup4\n        /* \"#utility.yul\":13043:13059   */\n      add\n        /* \"#utility.yul\":13037:13060   */\n      mload\n        /* \"#utility.yul\":13107:13110   */\n      dup5\n        /* \"#utility.yul\":13101:13105   */\n      dup3\n        /* \"#utility.yul\":13097:13111   */\n      sub\n        /* \"#utility.yul\":13090:13094   */\n      0xa0\n        /* \"#utility.yul\":13085:13088   */\n      dup7\n        /* \"#utility.yul\":13081:13095   */\n      add\n        /* \"#utility.yul\":13074:13112   */\n      mstore\n        /* \"#utility.yul\":13133:13236   */\n      tag_542\n        /* \"#utility.yul\":13231:13235   */\n      dup3\n        /* \"#utility.yul\":13217:13229   */\n      dup3\n        /* \"#utility.yul\":13133:13236   */\n      tag_365\n      jump\t// in\n    tag_542:\n        /* \"#utility.yul\":13125:13236   */\n      swap2\n      pop\n        /* \"#utility.yul\":12981:13247   */\n      pop\n        /* \"#utility.yul\":13348:13352   */\n      0xc0\n        /* \"#utility.yul\":13341:13346   */\n      dup4\n        /* \"#utility.yul\":13337:13353   */\n      add\n        /* \"#utility.yul\":13331:13354   */\n      mload\n        /* \"#utility.yul\":13401:13404   */\n      dup5\n        /* \"#utility.yul\":13395:13399   */\n      dup3\n        /* \"#utility.yul\":13391:13405   */\n      sub\n        /* \"#utility.yul\":13384:13388   */\n      0xc0\n        /* \"#utility.yul\":13379:13382   */\n      dup7\n        /* \"#utility.yul\":13375:13389   */\n      add\n        /* \"#utility.yul\":13368:13406   */\n      mstore\n        /* \"#utility.yul\":13427:13530   */\n      tag_543\n        /* \"#utility.yul\":13525:13529   */\n      dup3\n        /* \"#utility.yul\":13511:13523   */\n      dup3\n        /* \"#utility.yul\":13427:13530   */\n      tag_371\n      jump\t// in\n    tag_543:\n        /* \"#utility.yul\":13419:13530   */\n      swap2\n      pop\n        /* \"#utility.yul\":13257:13541   */\n      pop\n        /* \"#utility.yul\":13631:13635   */\n      0xe0\n        /* \"#utility.yul\":13624:13629   */\n      dup4\n        /* \"#utility.yul\":13620:13636   */\n      add\n        /* \"#utility.yul\":13614:13637   */\n      mload\n        /* \"#utility.yul\":13684:13687   */\n      dup5\n        /* \"#utility.yul\":13678:13682   */\n      dup3\n        /* \"#utility.yul\":13674:13688   */\n      sub\n        /* \"#utility.yul\":13667:13671   */\n      0xe0\n        /* \"#utility.yul\":13662:13665   */\n      dup7\n        /* \"#utility.yul\":13658:13672   */\n      add\n        /* \"#utility.yul\":13651:13689   */\n      mstore\n        /* \"#utility.yul\":13710:13869   */\n      tag_544\n        /* \"#utility.yul\":13864:13868   */\n      dup3\n        /* \"#utility.yul\":13850:13862   */\n      dup3\n        /* \"#utility.yul\":13710:13869   */\n      tag_378\n      jump\t// in\n    tag_544:\n        /* \"#utility.yul\":13702:13869   */\n      swap2\n      pop\n        /* \"#utility.yul\":13551:13880   */\n      pop\n        /* \"#utility.yul\":13971:13977   */\n      0x0100\n        /* \"#utility.yul\":13964:13969   */\n      dup4\n        /* \"#utility.yul\":13960:13978   */\n      add\n        /* \"#utility.yul\":13954:13979   */\n      mload\n        /* \"#utility.yul\":14028:14031   */\n      dup5\n        /* \"#utility.yul\":14022:14026   */\n      dup3\n        /* \"#utility.yul\":14018:14032   */\n      sub\n        /* \"#utility.yul\":14009:14015   */\n      0x0100\n        /* \"#utility.yul\":14004:14007   */\n      dup7\n        /* \"#utility.yul\":14000:14016   */\n      add\n        /* \"#utility.yul\":13993:14033   */\n      mstore\n        /* \"#utility.yul\":14054:14215   */\n      tag_545\n        /* \"#utility.yul\":14210:14214   */\n      dup3\n        /* \"#utility.yul\":14196:14208   */\n      dup3\n        /* \"#utility.yul\":14054:14215   */\n      tag_385\n      jump\t// in\n    tag_545:\n        /* \"#utility.yul\":14046:14215   */\n      swap2\n      pop\n        /* \"#utility.yul\":13890:14226   */\n      pop\n        /* \"#utility.yul\":14243:14247   */\n      dup1\n        /* \"#utility.yul\":14236:14247   */\n      swap2\n      pop\n        /* \"#utility.yul\":12048:14253   */\n      pop\n        /* \"#utility.yul\":11918:14253   */\n      swap3\n      swap2\n      pop\n      pop\n      jump\t// out\n        /* \"#utility.yul\":14259:14644   */\n    tag_76:\n        /* \"#utility.yul\":14408:14412   */\n      0x00\n        /* \"#utility.yul\":14446:14448   */\n      0x20\n        /* \"#utility.yul\":14435:14444   */\n      dup3\n        /* \"#utility.yul\":14431:14449   */\n      add\n        /* \"#utility.yul\":14423:14449   */\n      swap1\n      pop\n        /* \"#utility.yul\":14495:14504   */\n      dup2\n        /* \"#utility.yul\":14489:14493   */\n      dup2\n        /* \"#utility.yul\":14485:14505   */\n      sub\n        /* \"#utility.yul\":14481:14482   */\n      0x00\n        /* \"#utility.yul\":14470:14479   */\n      dup4\n        /* \"#utility.yul\":14466:14483   */\n      add\n        /* \"#utility.yul\":14459:14506   */\n      mstore\n        /* \"#utility.yul\":14523:14637   */\n      tag_547\n        /* \"#utility.yul\":14632:14636   */\n      dup2\n        /* \"#utility.yul\":14623:14629   */\n      dup5\n        /* \"#utility.yul\":14523:14637   */\n      tag_386\n      jump\t// in\n    tag_547:\n        /* \"#utility.yul\":14515:14637   */\n      swap1\n      pop\n        /* \"#utility.yul\":14259:14644   */\n      swap3\n      swap2\n      pop\n      pop\n      jump\t// out\n        /* \"#utility.yul\":14650:14791   */\n    tag_387:\n        /* \"#utility.yul\":14715:14724   */\n      0x00\n        /* \"#utility.yul\":14748:14785   */\n      tag_549\n        /* \"#utility.yul\":14779:14784   */\n      dup3\n        /* \"#utility.yul\":14748:14785   */\n      tag_354\n      jump\t// in\n    tag_549:\n        /* \"#utility.yul\":14735:14785   */\n      swap1\n      pop\n        /* \"#utility.yul\":14650:14791   */\n      swap2\n      swap1\n      pop\n      jump\t// out\n        /* \"#utility.yul\":14797:14958   */\n    tag_388:\n        /* \"#utility.yul\":14899:14951   */\n      tag_551\n        /* \"#utility.yul\":14945:14950   */\n      dup2\n        /* \"#utility.yul\":14899:14951   */\n      tag_387\n      jump\t// in\n    tag_551:\n        /* \"#utility.yul\":14894:14897   */\n      dup3\n        /* \"#utility.yul\":14887:14952   */\n      mstore\n        /* \"#utility.yul\":14797:14958   */\n      pop\n      pop\n      jump\t// out\n        /* \"#utility.yul\":14964:15436   */\n    tag_81:\n        /* \"#utility.yul\":15128:15132   */\n      0x00\n        /* \"#utility.yul\":15166:15168   */\n      0x60\n        /* \"#utility.yul\":15155:15164   */\n      dup3\n        /* \"#utility.yul\":15151:15169   */\n      add\n        /* \"#utility.yul\":15143:15169   */\n      swap1\n      pop\n        /* \"#utility.yul\":15179:15265   */\n      tag_553\n        /* \"#utility.yul\":15262:15263   */\n      0x00\n        /* \"#utility.yul\":15251:15260   */\n      dup4\n        /* \"#utility.yul\":15247:15264   */\n      add\n        /* \"#utility.yul\":15238:15244   */\n      dup7\n        /* \"#utility.yul\":15179:15265   */\n      tag_388\n      jump\t// in\n    tag_553:\n        /* \"#utility.yul\":15275:15347   */\n      tag_554\n        /* \"#utility.yul\":15343:15345   */\n      0x20\n        /* \"#utility.yul\":15332:15341   */\n      dup4\n        /* \"#utility.yul\":15328:15346   */\n      add\n        /* \"#utility.yul\":15319:15325   */\n      dup6\n        /* \"#utility.yul\":15275:15347   */\n      tag_349\n      jump\t// in\n    tag_554:\n        /* \"#utility.yul\":15357:15429   */\n      tag_555\n        /* \"#utility.yul\":15425:15427   */\n      0x40\n        /* \"#utility.yul\":15414:15423   */\n      dup4\n        /* \"#utility.yul\":15410:15428   */\n      add\n        /* \"#utility.yul\":15401:15407   */\n      dup5\n        /* \"#utility.yul\":15357:15429   */\n      tag_348\n      jump\t// in\n    tag_555:\n        /* \"#utility.yul\":14964:15436   */\n      swap5\n      swap4\n      pop\n      pop\n      pop\n      pop\n      jump\t// out\n        /* \"#utility.yul\":15442:15564   */\n    tag_389:\n        /* \"#utility.yul\":15515:15539   */\n      tag_557\n        /* \"#utility.yul\":15533:15538   */\n      dup2\n        /* \"#utility.yul\":15515:15539   */\n      tag_347\n      jump\t// in\n    tag_557:\n        /* \"#utility.yul\":15508:15513   */\n      dup2\n        /* \"#utility.yul\":15505:15540   */\n      eq\n        /* \"#utility.yul\":15495:15558   */\n      tag_558\n      jumpi\n        /* \"#utility.yul\":15554:15555   */\n      0x00\n        /* \"#utility.yul\":15551:15552   */\n      0x00\n        /* \"#utility.yul\":15544:15556   */\n      revert\n        /* \"#utility.yul\":15495:15558   */\n    tag_558:\n        /* \"#utility.yul\":15442:15564   */\n      pop\n      jump\t// out\n        /* \"#utility.yul\":15570:15709   */\n    tag_390:\n        /* \"#utility.yul\":15616:15621   */\n      0x00\n        /* \"#utility.yul\":15654:15660   */\n      dup2\n        /* \"#utility.yul\":15641:15661   */\n      calldataload\n        /* \"#utility.yul\":15632:15661   */\n      swap1\n      pop\n        /* \"#utility.yul\":15670:15703   */\n      tag_560\n        /* \"#utility.yul\":15697:15702   */\n      dup2\n        /* \"#utility.yul\":15670:15703   */\n      tag_389\n      jump\t// in\n    tag_560:\n        /* \"#utility.yul\":15570:15709   */\n      swap3\n      swap2\n      pop\n      pop\n      jump\t// out\n        /* \"#utility.yul\":15715:16044   */\n    tag_84:\n        /* \"#utility.yul\":15774:15780   */\n      0x00\n        /* \"#utility.yul\":15823:15825   */\n      0x20\n        /* \"#utility.yul\":15811:15820   */\n      dup3\n        /* \"#utility.yul\":15802:15809   */\n      dup5\n        /* \"#utility.yul\":15798:15821   */\n      sub\n        /* \"#utility.yul\":15794:15826   */\n      slt\n        /* \"#utility.yul\":15791:15910   */\n      iszero\n      tag_562\n      jumpi\n        /* \"#utility.yul\":15829:15908   */\n      tag_563\n      tag_341\n      jump\t// in\n    tag_563:\n        /* \"#utility.yul\":15791:15910   */\n    tag_562:\n        /* \"#utility.yul\":15949:15950   */\n      0x00\n        /* \"#utility.yul\":15974:16027   */\n      tag_564\n        /* \"#utility.yul\":16019:16026   */\n      dup5\n        /* \"#utility.yul\":16010:16016   */\n      dup3\n        /* \"#utility.yul\":15999:16008   */\n      dup6\n        /* \"#utility.yul\":15995:16017   */\n      add\n        /* \"#utility.yul\":15974:16027   */\n      tag_390\n      jump\t// in\n    tag_564:\n        /* \"#utility.yul\":15964:16027   */\n      swap2\n      pop\n        /* \"#utility.yul\":15920:16037   */\n      pop\n        /* \"#utility.yul\":15715:16044   */\n      swap3\n      swap2\n      pop\n      pop\n      jump\t// out\n        /* \"#utility.yul\":16050:16219   */\n    tag_391:\n        /* \"#utility.yul\":16134:16145   */\n      0x00\n        /* \"#utility.yul\":16168:16174   */\n      dup3\n        /* \"#utility.yul\":16163:16166   */\n      dup3\n        /* \"#utility.yul\":16156:16175   */\n      mstore\n        /* \"#utility.yul\":16208:16212   */\n      0x20\n        /* \"#utility.yul\":16203:16206   */\n      dup3\n        /* \"#utility.yul\":16199:16213   */\n      add\n        /* \"#utility.yul\":16184:16213   */\n      swap1\n      pop\n        /* \"#utility.yul\":16050:16219   */\n      swap3\n      swap2\n      pop\n      pop\n      jump\t// out\n        /* \"#utility.yul\":16225:16448   */\n    tag_392:\n        /* \"#utility.yul\":16365:16399   */\n      0x57696c6c20686173206265656e206578656375746564206f722063616e63656c\n        /* \"#utility.yul\":16361:16362   */\n      0x00\n        /* \"#utility.yul\":16353:16359   */\n      dup3\n        /* \"#utility.yul\":16349:16363   */\n      add\n        /* \"#utility.yul\":16342:16400   */\n      mstore\n        /* \"#utility.yul\":16434:16440   */\n      0x6c65642e00000000000000000000000000000000000000000000000000000000\n        /* \"#utility.yul\":16429:16431   */\n      0x20\n        /* \"#utility.yul\":16421:16427   */\n      dup3\n        /* \"#utility.yul\":16417:16432   */\n      add\n        /* \"#utility.yul\":16410:16441   */\n      mstore\n        /* \"#utility.yul\":16225:16448   */\n      pop\n      jump\t// out\n        /* \"#utility.yul\":16454:16820   */\n    tag_393:\n        /* \"#utility.yul\":16596:16599   */\n      0x00\n        /* \"#utility.yul\":16617:16684   */\n      tag_568\n        /* \"#utility.yul\":16681:16683   */\n      0x24\n        /* \"#utility.yul\":16676:16679   */\n      dup4\n        /* \"#utility.yul\":16617:16684   */\n      tag_391\n      jump\t// in\n    tag_568:\n        /* \"#utility.yul\":16610:16684   */\n      swap2\n      pop\n        /* \"#utility.yul\":16693:16786   */\n      tag_569\n        /* \"#utility.yul\":16782:16785   */\n      dup3\n        /* \"#utility.yul\":16693:16786   */\n      tag_392\n      jump\t// in\n    tag_569:\n        /* \"#utility.yul\":16811:16813   */\n      0x40\n        /* \"#utility.yul\":16806:16809   */\n      dup3\n        /* \"#utility.yul\":16802:16814   */\n      add\n        /* \"#utility.yul\":16795:16814   */\n      swap1\n      pop\n        /* \"#utility.yul\":16454:16820   */\n      swap2\n      swap1\n      pop\n      jump\t// out\n        /* \"#utility.yul\":16826:17245   */\n    tag_93:\n        /* \"#utility.yul\":16992:16996   */\n      0x00\n        /* \"#utility.yul\":17030:17032   */\n      0x20\n        /* \"#utility.yul\":17019:17028   */\n      dup3\n        /* \"#utility.yul\":17015:17033   */\n      add\n        /* \"#utility.yul\":17007:17033   */\n      swap1\n      pop\n        /* \"#utility.yul\":17079:17088   */\n      dup2\n        /* \"#utility.yul\":17073:17077   */\n      dup2\n        /* \"#utility.yul\":17069:17089   */\n      sub\n        /* \"#utility.yul\":17065:17066   */\n      0x00\n        /* \"#utility.yul\":17054:17063   */\n      dup4\n        /* \"#utility.yul\":17050:17067   */\n      add\n        /* \"#utility.yul\":17043:17090   */\n      mstore\n        /* \"#utility.yul\":17107:17238   */\n      tag_571\n        /* \"#utility.yul\":17233:17237   */\n      dup2\n        /* \"#utility.yul\":17107:17238   */\n      tag_393\n      jump\t// in\n    tag_571:\n        /* \"#utility.yul\":17099:17238   */\n      swap1\n      pop\n        /* \"#utility.yul\":16826:17245   */\n      swap2\n      swap1\n      pop\n      jump\t// out\n        /* \"#utility.yul\":17251:17476   */\n    tag_394:\n        /* \"#utility.yul\":17391:17425   */\n      0x4f6e6c7920746865206f776e65722063616e2063616c6c20746869732066756e\n        /* \"#utility.yul\":17387:17388   */\n      0x00\n        /* \"#utility.yul\":17379:17385   */\n      dup3\n        /* \"#utility.yul\":17375:17389   */\n      add\n        /* \"#utility.yul\":17368:17426   */\n      mstore\n        /* \"#utility.yul\":17460:17468   */\n      0x6374696f6e2e0000000000000000000000000000000000000000000000000000\n        /* \"#utility.yul\":17455:17457   */\n      0x20\n        /* \"#utility.yul\":17447:17453   */\n      dup3\n        /* \"#utility.yul\":17443:17458   */\n      add\n        /* \"#utility.yul\":17436:17469   */\n      mstore\n        /* \"#utility.yul\":17251:17476   */\n      pop\n      jump\t// out\n        /* \"#utility.yul\":17482:17848   */\n    tag_395:\n        /* \"#utility.yul\":17624:17627   */\n      0x00\n        /* \"#utility.yul\":17645:17712   */\n      tag_574\n        /* \"#utility.yul\":17709:17711   */\n      0x26\n        /* \"#utility.yul\":17704:17707   */\n      dup4\n        /* \"#utility.yul\":17645:17712   */\n      tag_391\n      jump\t// in\n    tag_574:\n        /* \"#utility.yul\":17638:17712   */\n      swap2\n      pop\n        /* \"#utility.yul\":17721:17814   */\n      tag_575\n        /* \"#utility.yul\":17810:17813   */\n      dup3\n        /* \"#utility.yul\":17721:17814   */\n      tag_394\n      jump\t// in\n    tag_575:\n        /* \"#utility.yul\":17839:17841   */\n      0x40\n        /* \"#utility.yul\":17834:17837   */\n      dup3\n        /* \"#utility.yul\":17830:17842   */\n      add\n        /* \"#utility.yul\":17823:17842   */\n      swap1\n      pop\n        /* \"#utility.yul\":17482:17848   */\n      swap2\n      swap1\n      pop\n      jump\t// out\n        /* \"#utility.yul\":17854:18273   */\n    tag_97:\n        /* \"#utility.yul\":18020:18024   */\n      0x00\n        /* \"#utility.yul\":18058:18060   */\n      0x20\n        /* \"#utility.yul\":18047:18056   */\n      dup3\n        /* \"#utility.yul\":18043:18061   */\n      add\n        /* \"#utility.yul\":18035:18061   */\n      swap1\n      pop\n        /* \"#utility.yul\":18107:18116   */\n      dup2\n        /* \"#utility.yul\":18101:18105   */\n      dup2\n        /* \"#utility.yul\":18097:18117   */\n      sub\n        /* \"#utility.yul\":18093:18094   */\n      0x00\n        /* \"#utility.yul\":18082:18091   */\n      dup4\n        /* \"#utility.yul\":18078:18095   */\n      add\n        /* \"#utility.yul\":18071:18118   */\n      mstore\n        /* \"#utility.yul\":18135:18266   */\n      tag_577\n        /* \"#utility.yul\":18261:18265   */\n      dup2\n        /* \"#utility.yul\":18135:18266   */\n      tag_395\n      jump\t// in\n    tag_577:\n        /* \"#utility.yul\":18127:18266   */\n      swap1\n      pop\n        /* \"#utility.yul\":17854:18273   */\n      swap2\n      swap1\n      pop\n      jump\t// out\n        /* \"#utility.yul\":18279:18459   */\n    tag_396:\n        /* \"#utility.yul\":18327:18404   */\n      0x4e487b7100000000000000000000000000000000000000000000000000000000\n        /* \"#utility.yul\":18324:18325   */\n      0x00\n        /* \"#utility.yul\":18317:18405   */\n      mstore\n        /* \"#utility.yul\":18424:18428   */\n      0x11\n        /* \"#utility.yul\":18421:18422   */\n      0x04\n        /* \"#utility.yul\":18414:18429   */\n      mstore\n        /* \"#utility.yul\":18448:18452   */\n      0x24\n        /* \"#utility.yul\":18445:18446   */\n      0x00\n        /* \"#utility.yul\":18438:18453   */\n      revert\n        /* \"#utility.yul\":18465:18656   */\n    tag_107:\n        /* \"#utility.yul\":18505:18508   */\n      0x00\n        /* \"#utility.yul\":18524:18544   */\n      tag_580\n        /* \"#utility.yul\":18542:18543   */\n      dup3\n        /* \"#utility.yul\":18524:18544   */\n      tag_343\n      jump\t// in\n    tag_580:\n        /* \"#utility.yul\":18519:18544   */\n      swap2\n      pop\n        /* \"#utility.yul\":18558:18578   */\n      tag_581\n        /* \"#utility.yul\":18576:18577   */\n      dup4\n        /* \"#utility.yul\":18558:18578   */\n      tag_343\n      jump\t// in\n    tag_581:\n        /* \"#utility.yul\":18553:18578   */\n      swap3\n      pop\n        /* \"#utility.yul\":18601:18602   */\n      dup3\n        /* \"#utility.yul\":18598:18599   */\n      dup3\n        /* \"#utility.yul\":18594:18603   */\n      add\n        /* \"#utility.yul\":18587:18603   */\n      swap1\n      pop\n        /* \"#utility.yul\":18622:18625   */\n      dup1\n        /* \"#utility.yul\":18619:18620   */\n      dup3\n        /* \"#utility.yul\":18616:18626   */\n      gt\n        /* \"#utility.yul\":18613:18649   */\n      iszero\n      tag_582\n      jumpi\n        /* \"#utility.yul\":18629:18647   */\n      tag_583\n      tag_396\n      jump\t// in\n    tag_583:\n        /* \"#utility.yul\":18613:18649   */\n    tag_582:\n        /* \"#utility.yul\":18465:18656   */\n      swap3\n      swap2\n      pop\n      pop\n      jump\t// out\n        /* \"#utility.yul\":18662:18839   */\n    tag_397:\n        /* \"#utility.yul\":18802:18831   */\n      0x477261636520706572696f6420686173206e6f7420656e6465642e0000000000\n        /* \"#utility.yul\":18798:18799   */\n      0x00\n        /* \"#utility.yul\":18790:18796   */\n      dup3\n        /* \"#utility.yul\":18786:18800   */\n      add\n        /* \"#utility.yul\":18779:18832   */\n      mstore\n        /* \"#utility.yul\":18662:18839   */\n      pop\n      jump\t// out\n        /* \"#utility.yul\":18845:19211   */\n    tag_398:\n        /* \"#utility.yul\":18987:18990   */\n      0x00\n        /* \"#utility.yul\":19008:19075   */\n      tag_586\n        /* \"#utility.yul\":19072:19074   */\n      0x1b\n        /* \"#utility.yul\":19067:19070   */\n      dup4\n        /* \"#utility.yul\":19008:19075   */\n      tag_391\n      jump\t// in\n    tag_586:\n        /* \"#utility.yul\":19001:19075   */\n      swap2\n      pop\n        /* \"#utility.yul\":19084:19177   */\n      tag_587\n        /* \"#utility.yul\":19173:19176   */\n      dup3\n        /* \"#utility.yul\":19084:19177   */\n      tag_397\n      jump\t// in\n    tag_587:\n        /* \"#utility.yul\":19202:19204   */\n      0x20\n        /* \"#utility.yul\":19197:19200   */\n      dup3\n        /* \"#utility.yul\":19193:19205   */\n      add\n        /* \"#utility.yul\":19186:19205   */\n      swap1\n      pop\n        /* \"#utility.yul\":18845:19211   */\n      swap2\n      swap1\n      pop\n      jump\t// out\n        /* \"#utility.yul\":19217:19636   */\n    tag_110:\n        /* \"#utility.yul\":19383:19387   */\n      0x00\n        /* \"#utility.yul\":19421:19423   */\n      0x20\n        /* \"#utility.yul\":19410:19419   */\n      dup3\n        /* \"#utility.yul\":19406:19424   */\n      add\n        /* \"#utility.yul\":19398:19424   */\n      swap1\n      pop\n        /* \"#utility.yul\":19470:19479   */\n      dup2\n        /* \"#utility.yul\":19464:19468   */\n      dup2\n        /* \"#utility.yul\":19460:19480   */\n      sub\n        /* \"#utility.yul\":19456:19457   */\n      0x00\n        /* \"#utility.yul\":19445:19454   */\n      dup4\n        /* \"#utility.yul\":19441:19458   */\n      add\n        /* \"#utility.yul\":19434:19481   */\n      mstore\n        /* \"#utility.yul\":19498:19629   */\n      tag_589\n        /* \"#utility.yul\":19624:19628   */\n      dup2\n        /* \"#utility.yul\":19498:19629   */\n      tag_398\n      jump\t// in\n    tag_589:\n        /* \"#utility.yul\":19490:19629   */\n      swap1\n      pop\n        /* \"#utility.yul\":19217:19636   */\n      swap2\n      swap1\n      pop\n      jump\t// out\n        /* \"#utility.yul\":19642:19876   */\n    tag_399:\n        /* \"#utility.yul\":19782:19816   */\n      0x4f6e6c79207468652064657369676e61746564206578656375746f722063616e\n        /* \"#utility.yul\":19778:19779   */\n      0x00\n        /* \"#utility.yul\":19770:19776   */\n      dup3\n        /* \"#utility.yul\":19766:19780   */\n      add\n        /* \"#utility.yul\":19759:19817   */\n      mstore\n        /* \"#utility.yul\":19851:19868   */\n      0x2063616c6c2074686973206e6f772e0000000000000000000000000000000000\n        /* \"#utility.yul\":19846:19848   */\n      0x20\n        /* \"#utility.yul\":19838:19844   */\n      dup3\n        /* \"#utility.yul\":19834:19849   */\n      add\n        /* \"#utility.yul\":19827:19869   */\n      mstore\n        /* \"#utility.yul\":19642:19876   */\n      pop\n      jump\t// out\n        /* \"#utility.yul\":19882:20248   */\n    tag_400:\n        /* \"#utility.yul\":20024:20027   */\n      0x00\n        /* \"#utility.yul\":20045:20112   */\n      tag_592\n        /* \"#utility.yul\":20109:20111   */\n      0x2f\n        /* \"#utility.yul\":20104:20107   */\n      dup4\n        /* \"#utility.yul\":20045:20112   */\n      tag_391\n      jump\t// in\n    tag_592:\n        /* \"#utility.yul\":20038:20112   */\n      swap2\n      pop\n        /* \"#utility.yul\":20121:20214   */\n      tag_593\n        /* \"#utility.yul\":20210:20213   */\n      dup3\n        /* \"#utility.yul\":20121:20214   */\n      tag_399\n      jump\t// in\n    tag_593:\n        /* \"#utility.yul\":20239:20241   */\n      0x40\n        /* \"#utility.yul\":20234:20237   */\n      dup3\n        /* \"#utility.yul\":20230:20242   */\n      add\n        /* \"#utility.yul\":20223:20242   */\n      swap1\n      pop\n        /* \"#utility.yul\":19882:20248   */\n      swap2\n      swap1\n      pop\n      jump\t// out\n        /* \"#utility.yul\":20254:20673   */\n    tag_115:\n        /* \"#utility.yul\":20420:20424   */\n      0x00\n        /* \"#utility.yul\":20458:20460   */\n      0x20\n        /* \"#utility.yul\":20447:20456   */\n      dup3\n        /* \"#utility.yul\":20443:20461   */\n      add\n        /* \"#utility.yul\":20435:20461   */\n      swap1\n      pop\n        /* \"#utility.yul\":20507:20516   */\n      dup2\n        /* \"#utility.yul\":20501:20505   */\n      dup2\n        /* \"#utility.yul\":20497:20517   */\n      sub\n        /* \"#utility.yul\":20493:20494   */\n      0x00\n        /* \"#utility.yul\":20482:20491   */\n      dup4\n        /* \"#utility.yul\":20478:20495   */\n      add\n        /* \"#utility.yul\":20471:20518   */\n      mstore\n        /* \"#utility.yul\":20535:20666   */\n      tag_595\n        /* \"#utility.yul\":20661:20665   */\n      dup2\n        /* \"#utility.yul\":20535:20666   */\n      tag_400\n      jump\t// in\n    tag_595:\n        /* \"#utility.yul\":20527:20666   */\n      swap1\n      pop\n        /* \"#utility.yul\":20254:20673   */\n      swap2\n      swap1\n      pop\n      jump\t// out\n        /* \"#utility.yul\":20679:21089   */\n    tag_123:\n        /* \"#utility.yul\":20719:20726   */\n      0x00\n        /* \"#utility.yul\":20742:20762   */\n      tag_597\n        /* \"#utility.yul\":20760:20761   */\n      dup3\n        /* \"#utility.yul\":20742:20762   */\n      tag_343\n      jump\t// in\n    tag_597:\n        /* \"#utility.yul\":20737:20762   */\n      swap2\n      pop\n        /* \"#utility.yul\":20776:20796   */\n      tag_598\n        /* \"#utility.yul\":20794:20795   */\n      dup4\n        /* \"#utility.yul\":20776:20796   */\n      tag_343\n      jump\t// in\n    tag_598:\n        /* \"#utility.yul\":20771:20796   */\n      swap3\n      pop\n        /* \"#utility.yul\":20831:20832   */\n      dup3\n        /* \"#utility.yul\":20828:20829   */\n      dup3\n        /* \"#utility.yul\":20824:20833   */\n      mul\n        /* \"#utility.yul\":20853:20883   */\n      tag_599\n        /* \"#utility.yul\":20871:20882   */\n      dup2\n        /* \"#utility.yul\":20853:20883   */\n      tag_343\n      jump\t// in\n    tag_599:\n        /* \"#utility.yul\":20842:20883   */\n      swap2\n      pop\n        /* \"#utility.yul\":21032:21033   */\n      dup3\n        /* \"#utility.yul\":21023:21030   */\n      dup3\n        /* \"#utility.yul\":21019:21034   */\n      div\n        /* \"#utility.yul\":21016:21017   */\n      dup5\n        /* \"#utility.yul\":21013:21035   */\n      eq\n        /* \"#utility.yul\":20993:20994   */\n      dup4\n        /* \"#utility.yul\":20986:20995   */\n      iszero\n        /* \"#utility.yul\":20966:21049   */\n      or\n        /* \"#utility.yul\":20943:21082   */\n      tag_600\n      jumpi\n        /* \"#utility.yul\":21062:21080   */\n      tag_601\n      tag_396\n      jump\t// in\n    tag_601:\n        /* \"#utility.yul\":20943:21082   */\n    tag_600:\n        /* \"#utility.yul\":20727:21089   */\n      pop\n        /* \"#utility.yul\":20679:21089   */\n      swap3\n      swap2\n      pop\n      pop\n      jump\t// out\n        /* \"#utility.yul\":21095:21275   */\n    tag_401:\n        /* \"#utility.yul\":21143:21220   */\n      0x4e487b7100000000000000000000000000000000000000000000000000000000\n        /* \"#utility.yul\":21140:21141   */\n      0x00\n        /* \"#utility.yul\":21133:21221   */\n      mstore\n        /* \"#utility.yul\":21240:21244   */\n      0x12\n        /* \"#utility.yul\":21237:21238   */\n      0x04\n        /* \"#utility.yul\":21230:21245   */\n      mstore\n        /* \"#utility.yul\":21264:21268   */\n      0x24\n        /* \"#utility.yul\":21261:21262   */\n      0x00\n        /* \"#utility.yul\":21254:21269   */\n      revert\n        /* \"#utility.yul\":21281:21466   */\n    tag_125:\n        /* \"#utility.yul\":21321:21322   */\n      0x00\n        /* \"#utility.yul\":21338:21358   */\n      tag_604\n        /* \"#utility.yul\":21356:21357   */\n      dup3\n        /* \"#utility.yul\":21338:21358   */\n      tag_343\n      jump\t// in\n    tag_604:\n        /* \"#utility.yul\":21333:21358   */\n      swap2\n      pop\n        /* \"#utility.yul\":21372:21392   */\n      tag_605\n        /* \"#utility.yul\":21390:21391   */\n      dup4\n        /* \"#utility.yul\":21372:21392   */\n      tag_343\n      jump\t// in\n    tag_605:\n        /* \"#utility.yul\":21367:21392   */\n      swap3\n      pop\n        /* \"#utility.yul\":21411:21412   */\n      dup3\n        /* \"#utility.yul\":21401:21436   */\n      tag_606\n      jumpi\n        /* \"#utility.yul\":21416:21434   */\n      tag_607\n      tag_401\n      jump\t// in\n    tag_607:\n        /* \"#utility.yul\":21401:21436   */\n    tag_606:\n        /* \"#utility.yul\":21458:21459   */\n      dup3\n        /* \"#utility.yul\":21455:21456   */\n      dup3\n        /* \"#utility.yul\":21451:21460   */\n      div\n        /* \"#utility.yul\":21446:21460   */\n      swap1\n      pop\n        /* \"#utility.yul\":21281:21466   */\n      swap3\n      swap2\n      pop\n      pop\n      jump\t// out\n        /* \"#utility.yul\":21472:21666   */\n    tag_127:\n        /* \"#utility.yul\":21512:21516   */\n      0x00\n        /* \"#utility.yul\":21532:21552   */\n      tag_609\n        /* \"#utility.yul\":21550:21551   */\n      dup3\n        /* \"#utility.yul\":21532:21552   */\n      tag_343\n      jump\t// in\n    tag_609:\n        /* \"#utility.yul\":21527:21552   */\n      swap2\n      pop\n        /* \"#utility.yul\":21566:21586   */\n      tag_610\n        /* \"#utility.yul\":21584:21585   */\n      dup4\n        /* \"#utility.yul\":21566:21586   */\n      tag_343\n      jump\t// in\n    tag_610:\n        /* \"#utility.yul\":21561:21586   */\n      swap3\n      pop\n        /* \"#utility.yul\":21610:21611   */\n      dup3\n        /* \"#utility.yul\":21607:21608   */\n      dup3\n        /* \"#utility.yul\":21603:21612   */\n      sub\n        /* \"#utility.yul\":21595:21612   */\n      swap1\n      pop\n        /* \"#utility.yul\":21634:21635   */\n      dup2\n        /* \"#utility.yul\":21628:21632   */\n      dup2\n        /* \"#utility.yul\":21625:21636   */\n      gt\n        /* \"#utility.yul\":21622:21659   */\n      iszero\n      tag_611\n      jumpi\n        /* \"#utility.yul\":21639:21657   */\n      tag_612\n      tag_396\n      jump\t// in\n    tag_612:\n        /* \"#utility.yul\":21622:21659   */\n    tag_611:\n        /* \"#utility.yul\":21472:21666   */\n      swap3\n      swap2\n      pop\n      pop\n      jump\t// out\n        /* \"#utility.yul\":21672:21819   */\n    tag_402:\n        /* \"#utility.yul\":21773:21784   */\n      0x00\n        /* \"#utility.yul\":21810:21813   */\n      dup2\n        /* \"#utility.yul\":21795:21813   */\n      swap1\n      pop\n        /* \"#utility.yul\":21672:21819   */\n      swap3\n      swap2\n      pop\n      pop\n      jump\t// out\n        /* \"#utility.yul\":21825:21939   */\n    tag_403:\n      pop\n      jump\t// out\n        /* \"#utility.yul\":21945:22343   */\n    tag_404:\n        /* \"#utility.yul\":22104:22107   */\n      0x00\n        /* \"#utility.yul\":22125:22208   */\n      tag_616\n        /* \"#utility.yul\":22206:22207   */\n      0x00\n        /* \"#utility.yul\":22201:22204   */\n      dup4\n        /* \"#utility.yul\":22125:22208   */\n      tag_402\n      jump\t// in\n    tag_616:\n        /* \"#utility.yul\":22118:22208   */\n      swap2\n      pop\n        /* \"#utility.yul\":22217:22310   */\n      tag_617\n        /* \"#utility.yul\":22306:22309   */\n      dup3\n        /* \"#utility.yul\":22217:22310   */\n      tag_403\n      jump\t// in\n    tag_617:\n        /* \"#utility.yul\":22335:22336   */\n      0x00\n        /* \"#utility.yul\":22330:22333   */\n      dup3\n        /* \"#utility.yul\":22326:22337   */\n      add\n        /* \"#utility.yul\":22319:22337   */\n      swap1\n      pop\n        /* \"#utility.yul\":21945:22343   */\n      swap2\n      swap1\n      pop\n      jump\t// out\n        /* \"#utility.yul\":22349:22728   */\n    tag_130:\n        /* \"#utility.yul\":22533:22536   */\n      0x00\n        /* \"#utility.yul\":22555:22702   */\n      tag_619\n        /* \"#utility.yul\":22698:22701   */\n      dup3\n        /* \"#utility.yul\":22555:22702   */\n      tag_404\n      jump\t// in\n    tag_619:\n        /* \"#utility.yul\":22548:22702   */\n      swap2\n      pop\n        /* \"#utility.yul\":22719:22722   */\n      dup2\n        /* \"#utility.yul\":22712:22722   */\n      swap1\n      pop\n        /* \"#utility.yul\":22349:22728   */\n      swap2\n      swap1\n      pop\n      jump\t// out\n        /* \"#utility.yul\":22734:22908   */\n    tag_405:\n        /* \"#utility.yul\":22874:22900   */\n      0x45544820666565207472616e73666572206661696c65642e0000000000000000\n        /* \"#utility.yul\":22870:22871   */\n      0x00\n        /* \"#utility.yul\":22862:22868   */\n      dup3\n        /* \"#utility.yul\":22858:22872   */\n      add\n        /* \"#utility.yul\":22851:22901   */\n      mstore\n        /* \"#utility.yul\":22734:22908   */\n      pop\n      jump\t// out\n        /* \"#utility.yul\":22914:23280   */\n    tag_406:\n        /* \"#utility.yul\":23056:23059   */\n      0x00\n        /* \"#utility.yul\":23077:23144   */\n      tag_622\n        /* \"#utility.yul\":23141:23143   */\n      0x18\n        /* \"#utility.yul\":23136:23139   */\n      dup4\n        /* \"#utility.yul\":23077:23144   */\n      tag_391\n      jump\t// in\n    tag_622:\n        /* \"#utility.yul\":23070:23144   */\n      swap2\n      pop\n        /* \"#utility.yul\":23153:23246   */\n      tag_623\n        /* \"#utility.yul\":23242:23245   */\n      dup3\n        /* \"#utility.yul\":23153:23246   */\n      tag_405\n      jump\t// in\n    tag_623:\n        /* \"#utility.yul\":23271:23273   */\n      0x20\n        /* \"#utility.yul\":23266:23269   */\n      dup3\n        /* \"#utility.yul\":23262:23274   */\n      add\n        /* \"#utility.yul\":23255:23274   */\n      swap1\n      pop\n        /* \"#utility.yul\":22914:23280   */\n      swap2\n      swap1\n      pop\n      jump\t// out\n        /* \"#utility.yul\":23286:23705   */\n    tag_136:\n        /* \"#utility.yul\":23452:23456   */\n      0x00\n        /* \"#utility.yul\":23490:23492   */\n      0x20\n        /* \"#utility.yul\":23479:23488   */\n      dup3\n        /* \"#utility.yul\":23475:23493   */\n      add\n        /* \"#utility.yul\":23467:23493   */\n      swap1\n      pop\n        /* \"#utility.yul\":23539:23548   */\n      dup2\n        /* \"#utility.yul\":23533:23537   */\n      dup2\n        /* \"#utility.yul\":23529:23549   */\n      sub\n        /* \"#utility.yul\":23525:23526   */\n      0x00\n        /* \"#utility.yul\":23514:23523   */\n      dup4\n        /* \"#utility.yul\":23510:23527   */\n      add\n        /* \"#utility.yul\":23503:23550   */\n      mstore\n        /* \"#utility.yul\":23567:23698   */\n      tag_625\n        /* \"#utility.yul\":23693:23697   */\n      dup2\n        /* \"#utility.yul\":23567:23698   */\n      tag_406\n      jump\t// in\n    tag_625:\n        /* \"#utility.yul\":23559:23698   */\n      swap1\n      pop\n        /* \"#utility.yul\":23286:23705   */\n      swap2\n      swap1\n      pop\n      jump\t// out\n        /* \"#utility.yul\":23711:23891   */\n    tag_142:\n        /* \"#utility.yul\":23759:23836   */\n      0x4e487b7100000000000000000000000000000000000000000000000000000000\n        /* \"#utility.yul\":23756:23757   */\n      0x00\n        /* \"#utility.yul\":23749:23837   */\n      mstore\n        /* \"#utility.yul\":23856:23860   */\n      0x32\n        /* \"#utility.yul\":23853:23854   */\n      0x04\n        /* \"#utility.yul\":23846:23861   */\n      mstore\n        /* \"#utility.yul\":23880:23884   */\n      0x24\n        /* \"#utility.yul\":23877:23878   */\n      0x00\n        /* \"#utility.yul\":23870:23885   */\n      revert\n        /* \"#utility.yul\":23897:24075   */\n    tag_407:\n        /* \"#utility.yul\":24037:24067   */\n      0x455448207472616e7366657220746f2068656972206661696c65642e00000000\n        /* \"#utility.yul\":24033:24034   */\n      0x00\n        /* \"#utility.yul\":24025:24031   */\n      dup3\n        /* \"#utility.yul\":24021:24035   */\n      add\n        /* \"#utility.yul\":24014:24068   */\n      mstore\n        /* \"#utility.yul\":23897:24075   */\n      pop\n      jump\t// out\n        /* \"#utility.yul\":24081:24447   */\n    tag_408:\n        /* \"#utility.yul\":24223:24226   */\n      0x00\n        /* \"#utility.yul\":24244:24311   */\n      tag_629\n        /* \"#utility.yul\":24308:24310   */\n      0x1c\n        /* \"#utility.yul\":24303:24306   */\n      dup4\n        /* \"#utility.yul\":24244:24311   */\n      tag_391\n      jump\t// in\n    tag_629:\n        /* \"#utility.yul\":24237:24311   */\n      swap2\n      pop\n        /* \"#utility.yul\":24320:24413   */\n      tag_630\n        /* \"#utility.yul\":24409:24412   */\n      dup3\n        /* \"#utility.yul\":24320:24413   */\n      tag_407\n      jump\t// in\n    tag_630:\n        /* \"#utility.yul\":24438:24440   */\n      0x20\n        /* \"#utility.yul\":24433:24436   */\n      dup3\n        /* \"#utility.yul\":24429:24441   */\n      add\n        /* \"#utility.yul\":24422:24441   */\n      swap1\n      pop\n        /* \"#utility.yul\":24081:24447   */\n      swap2\n      swap1\n      pop\n      jump\t// out\n        /* \"#utility.yul\":24453:24872   */\n    tag_156:\n        /* \"#utility.yul\":24619:24623   */\n      0x00\n        /* \"#utility.yul\":24657:24659   */\n      0x20\n        /* \"#utility.yul\":24646:24655   */\n      dup3\n        /* \"#utility.yul\":24642:24660   */\n      add\n        /* \"#utility.yul\":24634:24660   */\n      swap1\n      pop\n        /* \"#utility.yul\":24706:24715   */\n      dup2\n        /* \"#utility.yul\":24700:24704   */\n      dup2\n        /* \"#utility.yul\":24696:24716   */\n      sub\n        /* \"#utility.yul\":24692:24693   */\n      0x00\n        /* \"#utility.yul\":24681:24690   */\n      dup4\n        /* \"#utility.yul\":24677:24694   */\n      add\n        /* \"#utility.yul\":24670:24717   */\n      mstore\n        /* \"#utility.yul\":24734:24865   */\n      tag_632\n        /* \"#utility.yul\":24860:24864   */\n      dup2\n        /* \"#utility.yul\":24734:24865   */\n      tag_408\n      jump\t// in\n    tag_632:\n        /* \"#utility.yul\":24726:24865   */\n      swap1\n      pop\n        /* \"#utility.yul\":24453:24872   */\n      swap2\n      swap1\n      pop\n      jump\t// out\n        /* \"#utility.yul\":24878:25021   */\n    tag_409:\n        /* \"#utility.yul\":24935:24940   */\n      0x00\n        /* \"#utility.yul\":24966:24972   */\n      dup2\n        /* \"#utility.yul\":24960:24973   */\n      mload\n        /* \"#utility.yul\":24951:24973   */\n      swap1\n      pop\n        /* \"#utility.yul\":24982:25015   */\n      tag_634\n        /* \"#utility.yul\":25009:25014   */\n      dup2\n        /* \"#utility.yul\":24982:25015   */\n      tag_344\n      jump\t// in\n    tag_634:\n        /* \"#utility.yul\":24878:25021   */\n      swap3\n      swap2\n      pop\n      pop\n      jump\t// out\n        /* \"#utility.yul\":25027:25378   */\n    tag_167:\n        /* \"#utility.yul\":25097:25103   */\n      0x00\n        /* \"#utility.yul\":25146:25148   */\n      0x20\n        /* \"#utility.yul\":25134:25143   */\n      dup3\n        /* \"#utility.yul\":25125:25132   */\n      dup5\n        /* \"#utility.yul\":25121:25144   */\n      sub\n        /* \"#utility.yul\":25117:25149   */\n      slt\n        /* \"#utility.yul\":25114:25233   */\n      iszero\n      tag_636\n      jumpi\n        /* \"#utility.yul\":25152:25231   */\n      tag_637\n      tag_341\n      jump\t// in\n    tag_637:\n        /* \"#utility.yul\":25114:25233   */\n    tag_636:\n        /* \"#utility.yul\":25272:25273   */\n      0x00\n        /* \"#utility.yul\":25297:25361   */\n      tag_638\n        /* \"#utility.yul\":25353:25360   */\n      dup5\n        /* \"#utility.yul\":25344:25350   */\n      dup3\n        /* \"#utility.yul\":25333:25342   */\n      dup6\n        /* \"#utility.yul\":25329:25351   */\n      add\n        /* \"#utility.yul\":25297:25361   */\n      tag_409\n      jump\t// in\n    tag_638:\n        /* \"#utility.yul\":25287:25361   */\n      swap2\n      pop\n        /* \"#utility.yul\":25243:25371   */\n      pop\n        /* \"#utility.yul\":25027:25378   */\n      swap3\n      swap2\n      pop\n      pop\n      jump\t// out\n        /* \"#utility.yul\":25384:25716   */\n    tag_174:\n        /* \"#utility.yul\":25505:25509   */\n      0x00\n        /* \"#utility.yul\":25543:25545   */\n      0x40\n        /* \"#utility.yul\":25532:25541   */\n      dup3\n        /* \"#utility.yul\":25528:25546   */\n      add\n        /* \"#utility.yul\":25520:25546   */\n      swap1\n      pop\n        /* \"#utility.yul\":25556:25627   */\n      tag_640\n        /* \"#utility.yul\":25624:25625   */\n      0x00\n        /* \"#utility.yul\":25613:25622   */\n      dup4\n        /* \"#utility.yul\":25609:25626   */\n      add\n        /* \"#utility.yul\":25600:25606   */\n      dup6\n        /* \"#utility.yul\":25556:25627   */\n      tag_348\n      jump\t// in\n    tag_640:\n        /* \"#utility.yul\":25637:25709   */\n      tag_641\n        /* \"#utility.yul\":25705:25707   */\n      0x20\n        /* \"#utility.yul\":25694:25703   */\n      dup4\n        /* \"#utility.yul\":25690:25708   */\n      add\n        /* \"#utility.yul\":25681:25687   */\n      dup5\n        /* \"#utility.yul\":25637:25709   */\n      tag_349\n      jump\t// in\n    tag_641:\n        /* \"#utility.yul\":25384:25716   */\n      swap4\n      swap3\n      pop\n      pop\n      pop\n      jump\t// out\n        /* \"#utility.yul\":25722:25838   */\n    tag_410:\n        /* \"#utility.yul\":25792:25813   */\n      tag_643\n        /* \"#utility.yul\":25807:25812   */\n      dup2\n        /* \"#utility.yul\":25792:25813   */\n      tag_350\n      jump\t// in\n    tag_643:\n        /* \"#utility.yul\":25785:25790   */\n      dup2\n        /* \"#utility.yul\":25782:25814   */\n      eq\n        /* \"#utility.yul\":25772:25832   */\n      tag_644\n      jumpi\n        /* \"#utility.yul\":25828:25829   */\n      0x00\n        /* \"#utility.yul\":25825:25826   */\n      0x00\n        /* \"#utility.yul\":25818:25830   */\n      revert\n        /* \"#utility.yul\":25772:25832   */\n    tag_644:\n        /* \"#utility.yul\":25722:25838   */\n      pop\n      jump\t// out\n        /* \"#utility.yul\":25844:25981   */\n    tag_411:\n        /* \"#utility.yul\":25898:25903   */\n      0x00\n        /* \"#utility.yul\":25929:25935   */\n      dup2\n        /* \"#utility.yul\":25923:25936   */\n      mload\n        /* \"#utility.yul\":25914:25936   */\n      swap1\n      pop\n        /* \"#utility.yul\":25945:25975   */\n      tag_646\n        /* \"#utility.yul\":25969:25974   */\n      dup2\n        /* \"#utility.yul\":25945:25975   */\n      tag_410\n      jump\t// in\n    tag_646:\n        /* \"#utility.yul\":25844:25981   */\n      swap3\n      swap2\n      pop\n      pop\n      jump\t// out\n        /* \"#utility.yul\":25987:26332   */\n    tag_178:\n        /* \"#utility.yul\":26054:26060   */\n      0x00\n        /* \"#utility.yul\":26103:26105   */\n      0x20\n        /* \"#utility.yul\":26091:26100   */\n      dup3\n        /* \"#utility.yul\":26082:26089   */\n      dup5\n        /* \"#utility.yul\":26078:26101   */\n      sub\n        /* \"#utility.yul\":26074:26106   */\n      slt\n        /* \"#utility.yul\":26071:26190   */\n      iszero\n      tag_648\n      jumpi\n        /* \"#utility.yul\":26109:26188   */\n      tag_649\n      tag_341\n      jump\t// in\n    tag_649:\n        /* \"#utility.yul\":26071:26190   */\n    tag_648:\n        /* \"#utility.yul\":26229:26230   */\n      0x00\n        /* \"#utility.yul\":26254:26315   */\n      tag_650\n        /* \"#utility.yul\":26307:26314   */\n      dup5\n        /* \"#utility.yul\":26298:26304   */\n      dup3\n        /* \"#utility.yul\":26287:26296   */\n      dup6\n        /* \"#utility.yul\":26283:26305   */\n      add\n        /* \"#utility.yul\":26254:26315   */\n      tag_411\n      jump\t// in\n    tag_650:\n        /* \"#utility.yul\":26244:26315   */\n      swap2\n      pop\n        /* \"#utility.yul\":26200:26325   */\n      pop\n        /* \"#utility.yul\":25987:26332   */\n      swap3\n      swap2\n      pop\n      pop\n      jump\t// out\n        /* \"#utility.yul\":26338:26780   */\n    tag_202:\n        /* \"#utility.yul\":26487:26491   */\n      0x00\n        /* \"#utility.yul\":26525:26527   */\n      0x60\n        /* \"#utility.yul\":26514:26523   */\n      dup3\n        /* \"#utility.yul\":26510:26528   */\n      add\n        /* \"#utility.yul\":26502:26528   */\n      swap1\n      pop\n        /* \"#utility.yul\":26538:26609   */\n      tag_652\n        /* \"#utility.yul\":26606:26607   */\n      0x00\n        /* \"#utility.yul\":26595:26604   */\n      dup4\n        /* \"#utility.yul\":26591:26608   */\n      add\n        /* \"#utility.yul\":26582:26588   */\n      dup7\n        /* \"#utility.yul\":26538:26609   */\n      tag_348\n      jump\t// in\n    tag_652:\n        /* \"#utility.yul\":26619:26691   */\n      tag_653\n        /* \"#utility.yul\":26687:26689   */\n      0x20\n        /* \"#utility.yul\":26676:26685   */\n      dup4\n        /* \"#utility.yul\":26672:26690   */\n      add\n        /* \"#utility.yul\":26663:26669   */\n      dup6\n        /* \"#utility.yul\":26619:26691   */\n      tag_348\n      jump\t// in\n    tag_653:\n        /* \"#utility.yul\":26701:26773   */\n      tag_654\n        /* \"#utility.yul\":26769:26771   */\n      0x40\n        /* \"#utility.yul\":26758:26767   */\n      dup4\n        /* \"#utility.yul\":26754:26772   */\n      add\n        /* \"#utility.yul\":26745:26751   */\n      dup5\n        /* \"#utility.yul\":26701:26773   */\n      tag_349\n      jump\t// in\n    tag_654:\n        /* \"#utility.yul\":26338:26780   */\n      swap5\n      swap4\n      pop\n      pop\n      pop\n      pop\n      jump\t// out\n        /* \"#utility.yul\":26786:27228   */\n    tag_207:\n        /* \"#utility.yul\":26935:26939   */\n      0x00\n        /* \"#utility.yul\":26973:26975   */\n      0x60\n        /* \"#utility.yul\":26962:26971   */\n      dup3\n        /* \"#utility.yul\":26958:26976   */\n      add\n        /* \"#utility.yul\":26950:26976   */\n      swap1\n      pop\n        /* \"#utility.yul\":26986:27057   */\n      tag_656\n        /* \"#utility.yul\":27054:27055   */\n      0x00\n        /* \"#utility.yul\":27043:27052   */\n      dup4\n        /* \"#utility.yul\":27039:27056   */\n      add\n        /* \"#utility.yul\":27030:27036   */\n      dup7\n        /* \"#utility.yul\":26986:27057   */\n      tag_348\n      jump\t// in\n    tag_656:\n        /* \"#utility.yul\":27067:27139   */\n      tag_657\n        /* \"#utility.yul\":27135:27137   */\n      0x20\n        /* \"#utility.yul\":27124:27133   */\n      dup4\n        /* \"#utility.yul\":27120:27138   */\n      add\n        /* \"#utility.yul\":27111:27117   */\n      dup6\n        /* \"#utility.yul\":27067:27139   */\n      tag_349\n      jump\t// in\n    tag_657:\n        /* \"#utility.yul\":27149:27221   */\n      tag_658\n        /* \"#utility.yul\":27217:27219   */\n      0x40\n        /* \"#utility.yul\":27206:27215   */\n      dup4\n        /* \"#utility.yul\":27202:27220   */\n      add\n        /* \"#utility.yul\":27193:27199   */\n      dup5\n        /* \"#utility.yul\":27149:27221   */\n      tag_348\n      jump\t// in\n    tag_658:\n        /* \"#utility.yul\":26786:27228   */\n      swap5\n      swap4\n      pop\n      pop\n      pop\n      pop\n      jump\t// out\n        /* \"#utility.yul\":27234:27458   */\n    tag_412:\n        /* \"#utility.yul\":27374:27408   */\n      0x496e73756666696369656e742045544820666f72207465726d696e6174696f6e\n        /* \"#utility.yul\":27370:27371   */\n      0x00\n        /* \"#utility.yul\":27362:27368   */\n      dup3\n        /* \"#utility.yul\":27358:27372   */\n      add\n        /* \"#utility.yul\":27351:27409   */\n      mstore\n        /* \"#utility.yul\":27443:27450   */\n      0x206665652e000000000000000000000000000000000000000000000000000000\n        /* \"#utility.yul\":27438:27440   */\n      0x20\n        /* \"#utility.yul\":27430:27436   */\n      dup3\n        /* \"#utility.yul\":27426:27441   */\n      add\n        /* \"#utility.yul\":27419:27451   */\n      mstore\n        /* \"#utility.yul\":27234:27458   */\n      pop\n      jump\t// out\n        /* \"#utility.yul\":27464:27830   */\n    tag_413:\n        /* \"#utility.yul\":27606:27609   */\n      0x00\n        /* \"#utility.yul\":27627:27694   */\n      tag_661\n        /* \"#utility.yul\":27691:27693   */\n      0x25\n        /* \"#utility.yul\":27686:27689   */\n      dup4\n        /* \"#utility.yul\":27627:27694   */\n      tag_391\n      jump\t// in\n    tag_661:\n        /* \"#utility.yul\":27620:27694   */\n      swap2\n      pop\n        /* \"#utility.yul\":27703:27796   */\n      tag_662\n        /* \"#utility.yul\":27792:27795   */\n      dup3\n        /* \"#utility.yul\":27703:27796   */\n      tag_412\n      jump\t// in\n    tag_662:\n        /* \"#utility.yul\":27821:27823   */\n      0x40\n        /* \"#utility.yul\":27816:27819   */\n      dup3\n        /* \"#utility.yul\":27812:27824   */\n      add\n        /* \"#utility.yul\":27805:27824   */\n      swap1\n      pop\n        /* \"#utility.yul\":27464:27830   */\n      swap2\n      swap1\n      pop\n      jump\t// out\n        /* \"#utility.yul\":27836:28255   */\n    tag_221:\n        /* \"#utility.yul\":28002:28006   */\n      0x00\n        /* \"#utility.yul\":28040:28042   */\n      0x20\n        /* \"#utility.yul\":28029:28038   */\n      dup3\n        /* \"#utility.yul\":28025:28043   */\n      add\n        /* \"#utility.yul\":28017:28043   */\n      swap1\n      pop\n        /* \"#utility.yul\":28089:28098   */\n      dup2\n        /* \"#utility.yul\":28083:28087   */\n      dup2\n        /* \"#utility.yul\":28079:28099   */\n      sub\n        /* \"#utility.yul\":28075:28076   */\n      0x00\n        /* \"#utility.yul\":28064:28073   */\n      dup4\n        /* \"#utility.yul\":28060:28077   */\n      add\n        /* \"#utility.yul\":28053:28100   */\n      mstore\n        /* \"#utility.yul\":28117:28248   */\n      tag_664\n        /* \"#utility.yul\":28243:28247   */\n      dup2\n        /* \"#utility.yul\":28117:28248   */\n      tag_413\n      jump\t// in\n    tag_664:\n        /* \"#utility.yul\":28109:28248   */\n      swap1\n      pop\n        /* \"#utility.yul\":27836:28255   */\n      swap2\n      swap1\n      pop\n      jump\t// out\n        /* \"#utility.yul\":28261:28443   */\n    tag_414:\n        /* \"#utility.yul\":28401:28435   */\n      0x5465726d696e6174696f6e20666565207472616e73666572206661696c65642e\n        /* \"#utility.yul\":28397:28398   */\n      0x00\n        /* \"#utility.yul\":28389:28395   */\n      dup3\n        /* \"#utility.yul\":28385:28399   */\n      add\n        /* \"#utility.yul\":28378:28436   */\n      mstore\n        /* \"#utility.yul\":28261:28443   */\n      pop\n      jump\t// out\n        /* \"#utility.yul\":28449:28815   */\n    tag_415:\n        /* \"#utility.yul\":28591:28594   */\n      0x00\n        /* \"#utility.yul\":28612:28679   */\n      tag_667\n        /* \"#utility.yul\":28676:28678   */\n      0x20\n        /* \"#utility.yul\":28671:28674   */\n      dup4\n        /* \"#utility.yul\":28612:28679   */\n      tag_391\n      jump\t// in\n    tag_667:\n        /* \"#utility.yul\":28605:28679   */\n      swap2\n      pop\n        /* \"#utility.yul\":28688:28781   */\n      tag_668\n        /* \"#utility.yul\":28777:28780   */\n      dup3\n        /* \"#utility.yul\":28688:28781   */\n      tag_414\n      jump\t// in\n    tag_668:\n        /* \"#utility.yul\":28806:28808   */\n      0x20\n        /* \"#utility.yul\":28801:28804   */\n      dup3\n        /* \"#utility.yul\":28797:28809   */\n      add\n        /* \"#utility.yul\":28790:28809   */\n      swap1\n      pop\n        /* \"#utility.yul\":28449:28815   */\n      swap2\n      swap1\n      pop\n      jump\t// out\n        /* \"#utility.yul\":28821:29240   */\n    tag_228:\n        /* \"#utility.yul\":28987:28991   */\n      0x00\n        /* \"#utility.yul\":29025:29027   */\n      0x20\n        /* \"#utility.yul\":29014:29023   */\n      dup3\n        /* \"#utility.yul\":29010:29028   */\n      add\n        /* \"#utility.yul\":29002:29028   */\n      swap1\n      pop\n        /* \"#utility.yul\":29074:29083   */\n      dup2\n        /* \"#utility.yul\":29068:29072   */\n      dup2\n        /* \"#utility.yul\":29064:29084   */\n      sub\n        /* \"#utility.yul\":29060:29061   */\n      0x00\n        /* \"#utility.yul\":29049:29058   */\n      dup4\n        /* \"#utility.yul\":29045:29062   */\n      add\n        /* \"#utility.yul\":29038:29085   */\n      mstore\n        /* \"#utility.yul\":29102:29233   */\n      tag_670\n        /* \"#utility.yul\":29228:29232   */\n      dup2\n        /* \"#utility.yul\":29102:29233   */\n      tag_415\n      jump\t// in\n    tag_670:\n        /* \"#utility.yul\":29094:29233   */\n      swap1\n      pop\n        /* \"#utility.yul\":28821:29240   */\n      swap2\n      swap1\n      pop\n      jump\t// out\n        /* \"#utility.yul\":29246:29380   */\n    tag_416:\n        /* \"#utility.yul\":29304:29313   */\n      0x00\n        /* \"#utility.yul\":29337:29374   */\n      tag_672\n        /* \"#utility.yul\":29368:29373   */\n      dup3\n        /* \"#utility.yul\":29337:29374   */\n      tag_354\n      jump\t// in\n    tag_672:\n        /* \"#utility.yul\":29324:29374   */\n      swap1\n      pop\n        /* \"#utility.yul\":29246:29380   */\n      swap2\n      swap1\n      pop\n      jump\t// out\n        /* \"#utility.yul\":29386:29533   */\n    tag_417:\n        /* \"#utility.yul\":29481:29526   */\n      tag_674\n        /* \"#utility.yul\":29520:29525   */\n      dup2\n        /* \"#utility.yul\":29481:29526   */\n      tag_416\n      jump\t// in\n    tag_674:\n        /* \"#utility.yul\":29476:29479   */\n      dup3\n        /* \"#utility.yul\":29469:29527   */\n      mstore\n        /* \"#utility.yul\":29386:29533   */\n      pop\n      pop\n      jump\t// out\n        /* \"#utility.yul\":29539:29777   */\n    tag_230:\n        /* \"#utility.yul\":29640:29644   */\n      0x00\n        /* \"#utility.yul\":29678:29680   */\n      0x20\n        /* \"#utility.yul\":29667:29676   */\n      dup3\n        /* \"#utility.yul\":29663:29681   */\n      add\n        /* \"#utility.yul\":29655:29681   */\n      swap1\n      pop\n        /* \"#utility.yul\":29691:29770   */\n      tag_676\n        /* \"#utility.yul\":29767:29768   */\n      0x00\n        /* \"#utility.yul\":29756:29765   */\n      dup4\n        /* \"#utility.yul\":29752:29769   */\n      add\n        /* \"#utility.yul\":29743:29749   */\n      dup5\n        /* \"#utility.yul\":29691:29770   */\n      tag_417\n      jump\t// in\n    tag_676:\n        /* \"#utility.yul\":29539:29777   */\n      swap3\n      swap2\n      pop\n      pop\n      jump\t// out\n        /* \"#utility.yul\":29783:30131   */\n    tag_246:\n        /* \"#utility.yul\":29912:29916   */\n      0x00\n        /* \"#utility.yul\":29950:29952   */\n      0x40\n        /* \"#utility.yul\":29939:29948   */\n      dup3\n        /* \"#utility.yul\":29935:29953   */\n      add\n        /* \"#utility.yul\":29927:29953   */\n      swap1\n      pop\n        /* \"#utility.yul\":29963:30042   */\n      tag_678\n        /* \"#utility.yul\":30039:30040   */\n      0x00\n        /* \"#utility.yul\":30028:30037   */\n      dup4\n        /* \"#utility.yul\":30024:30041   */\n      add\n        /* \"#utility.yul\":30015:30021   */\n      dup6\n        /* \"#utility.yul\":29963:30042   */\n      tag_417\n      jump\t// in\n    tag_678:\n        /* \"#utility.yul\":30052:30124   */\n      tag_679\n        /* \"#utility.yul\":30120:30122   */\n      0x20\n        /* \"#utility.yul\":30109:30118   */\n      dup4\n        /* \"#utility.yul\":30105:30123   */\n      add\n        /* \"#utility.yul\":30096:30102   */\n      dup5\n        /* \"#utility.yul\":30052:30124   */\n      tag_349\n      jump\t// in\n    tag_679:\n        /* \"#utility.yul\":29783:30131   */\n      swap4\n      swap3\n      pop\n      pop\n      pop\n      jump\t// out\n        /* \"#utility.yul\":30137:30595   */\n    tag_257:\n        /* \"#utility.yul\":30294:30298   */\n      0x00\n        /* \"#utility.yul\":30332:30334   */\n      0x60\n        /* \"#utility.yul\":30321:30330   */\n      dup3\n        /* \"#utility.yul\":30317:30335   */\n      add\n        /* \"#utility.yul\":30309:30335   */\n      swap1\n      pop\n        /* \"#utility.yul\":30345:30416   */\n      tag_681\n        /* \"#utility.yul\":30413:30414   */\n      0x00\n        /* \"#utility.yul\":30402:30411   */\n      dup4\n        /* \"#utility.yul\":30398:30415   */\n      add\n        /* \"#utility.yul\":30389:30395   */\n      dup7\n        /* \"#utility.yul\":30345:30416   */\n      tag_348\n      jump\t// in\n    tag_681:\n        /* \"#utility.yul\":30426:30506   */\n      tag_682\n        /* \"#utility.yul\":30502:30504   */\n      0x20\n        /* \"#utility.yul\":30491:30500   */\n      dup4\n        /* \"#utility.yul\":30487:30505   */\n      add\n        /* \"#utility.yul\":30478:30484   */\n      dup6\n        /* \"#utility.yul\":30426:30506   */\n      tag_417\n      jump\t// in\n    tag_682:\n        /* \"#utility.yul\":30516:30588   */\n      tag_683\n        /* \"#utility.yul\":30584:30586   */\n      0x40\n        /* \"#utility.yul\":30573:30582   */\n      dup4\n        /* \"#utility.yul\":30569:30587   */\n      add\n        /* \"#utility.yul\":30560:30566   */\n      dup5\n        /* \"#utility.yul\":30516:30588   */\n      tag_349\n      jump\t// in\n    tag_683:\n        /* \"#utility.yul\":30137:30595   */\n      swap5\n      swap4\n      pop\n      pop\n      pop\n      pop\n      jump\t// out\n        /* \"#utility.yul\":30601:30771   */\n    tag_418:\n        /* \"#utility.yul\":30741:30763   */\n      0x455448207472616e73666572206661696c65642e000000000000000000000000\n        /* \"#utility.yul\":30737:30738   */\n      0x00\n        /* \"#utility.yul\":30729:30735   */\n      dup3\n        /* \"#utility.yul\":30725:30739   */\n      add\n        /* \"#utility.yul\":30718:30764   */\n      mstore\n        /* \"#utility.yul\":30601:30771   */\n      pop\n      jump\t// out\n        /* \"#utility.yul\":30777:31143   */\n    tag_419:\n        /* \"#utility.yul\":30919:30922   */\n      0x00\n        /* \"#utility.yul\":30940:31007   */\n      tag_686\n        /* \"#utility.yul\":31004:31006   */\n      0x14\n        /* \"#utility.yul\":30999:31002   */\n      dup4\n        /* \"#utility.yul\":30940:31007   */\n      tag_391\n      jump\t// in\n    tag_686:\n        /* \"#utility.yul\":30933:31007   */\n      swap2\n      pop\n        /* \"#utility.yul\":31016:31109   */\n      tag_687\n        /* \"#utility.yul\":31105:31108   */\n      dup3\n        /* \"#utility.yul\":31016:31109   */\n      tag_418\n      jump\t// in\n    tag_687:\n        /* \"#utility.yul\":31134:31136   */\n      0x20\n        /* \"#utility.yul\":31129:31132   */\n      dup3\n        /* \"#utility.yul\":31125:31137   */\n      add\n        /* \"#utility.yul\":31118:31137   */\n      swap1\n      pop\n        /* \"#utility.yul\":30777:31143   */\n      swap2\n      swap1\n      pop\n      jump\t// out\n        /* \"#utility.yul\":31149:31568   */\n    tag_268:\n        /* \"#utility.yul\":31315:31319   */\n      0x00\n        /* \"#utility.yul\":31353:31355   */\n      0x20\n        /* \"#utility.yul\":31342:31351   */\n      dup3\n        /* \"#utility.yul\":31338:31356   */\n      add\n        /* \"#utility.yul\":31330:31356   */\n      swap1\n      pop\n        /* \"#utility.yul\":31402:31411   */\n      dup2\n        /* \"#utility.yul\":31396:31400   */\n      dup2\n        /* \"#utility.yul\":31392:31412   */\n      sub\n        /* \"#utility.yul\":31388:31389   */\n      0x00\n        /* \"#utility.yul\":31377:31386   */\n      dup4\n        /* \"#utility.yul\":31373:31390   */\n      add\n        /* \"#utility.yul\":31366:31413   */\n      mstore\n        /* \"#utility.yul\":31430:31561   */\n      tag_689\n        /* \"#utility.yul\":31556:31560   */\n      dup2\n        /* \"#utility.yul\":31430:31561   */\n      tag_419\n      jump\t// in\n    tag_689:\n        /* \"#utility.yul\":31422:31561   */\n      swap1\n      pop\n        /* \"#utility.yul\":31149:31568   */\n      swap2\n      swap1\n      pop\n      jump\t// out\n        /* \"#utility.yul\":31574:31754   */\n    tag_285:\n        /* \"#utility.yul\":31622:31699   */\n      0x4e487b7100000000000000000000000000000000000000000000000000000000\n        /* \"#utility.yul\":31619:31620   */\n      0x00\n        /* \"#utility.yul\":31612:31700   */\n      mstore\n        /* \"#utility.yul\":31719:31723   */\n      0x41\n        /* \"#utility.yul\":31716:31717   */\n      0x04\n        /* \"#utility.yul\":31709:31724   */\n      mstore\n        /* \"#utility.yul\":31743:31747   */\n      0x24\n        /* \"#utility.yul\":31740:31741   */\n      0x00\n        /* \"#utility.yul\":31733:31748   */\n      revert\n\n    auxdata: 0xa2646970667358221220a42a03de92a86cdc95e5662307e40bf93ae4d7fb805c8d6ddd58cb7815da9d2864736f6c634300081e0033\n}\n",
				"bytecode": {
					"linkReferences": {},
					"object": "60e060405260405161397d38038061397d83398181016040528101906100259190610929565b895f73ffffffffffffffffffffffffffffffffffffffff168173ffffffffffffffffffffffffffffffffffffffff1603610096575f6040517f1e4fbdf700000000000000000000000000000000000000000000000000000000815260040161008d9190610ab9565b60405180910390fd5b6100a5816104cd60201b60201c565b506001808190555087518951146100f1576040517f08c379a00000000000000000000000000000000000000000000000000000000081526004016100e890610b52565b60405180910390fd5b5f895111610134576040517f08c379a000000000000000000000000000000000000000000000000000000000815260040161012b90610bba565b60405180910390fd5b83518551148015610146575082518451145b610185576040517f08c379a000000000000000000000000000000000000000000000000000000000815260040161017c90610c22565b60405180910390fd5b5f5f90505f5f90505b89518110156101cc578981815181106101aa576101a9610c40565b5b6020026020010151826101bd9190610c9a565b9150808060010191505061018e565b5060648114610210576040517f08c379a000000000000000000000000000000000000000000000000000000000815260040161020790610d3d565b60405180910390fd5b4260038190555087608081815250508273ffffffffffffffffffffffffffffffffffffffff1660a08173ffffffffffffffffffffffffffffffffffffffff16815250508160c08181525050896004908051906020019061027192919061058e565b508860059080519060200190610288929190610615565b505f5f90505b875181101561034d57600660405180602001604052808a84815181106102b7576102b6610c40565b5b602002602001015173ffffffffffffffffffffffffffffffffffffffff16815250908060018154018082558091505060019003905f5260205f20015f909190919091505f820151815f015f6101000a81548173ffffffffffffffffffffffffffffffffffffffff021916908373ffffffffffffffffffffffffffffffffffffffff1602179055505050808060010191505061028e565b505f5f90505b86518110156104bc576007604051806060016040528089848151811061037c5761037b610c40565b5b602002602001015173ffffffffffffffffffffffffffffffffffffffff1681526020018884815181106103b2576103b1610c40565b5b602002602001015181526020018784815181106103d2576103d1610c40565b5b602002602001015173ffffffffffffffffffffffffffffffffffffffff16815250908060018154018082558091505060019003905f5260205f2090600302015f909190919091505f820151815f015f6101000a81548173ffffffffffffffffffffffffffffffffffffffff021916908373ffffffffffffffffffffffffffffffffffffffff160217905550602082015181600101556040820151816002015f6101000a81548173ffffffffffffffffffffffffffffffffffffffff021916908373ffffffffffffffffffffffffffffffffffffffff16021790555050508080600101915050610353565b505050505050505050505050610d5b565b5f5f5f9054906101000a900473ffffffffffffffffffffffffffffffffffffffff169050815f5f6101000a81548173ffffffffffffffffffffffffffffffffffffffff021916908373ffffffffffffffffffffffffffffffffffffffff1602179055508173ffffffffffffffffffffffffffffffffffffffff168173ffffffffffffffffffffffffffffffffffffffff167f8be0079c531659141344cd1fd0a4f28419497f9722a3daafe3b4186f6b6457e060405160405180910390a35050565b828054828255905f5260205f20908101928215610604579160200282015b82811115610603578251825f6101000a81548173ffffffffffffffffffffffffffffffffffffffff021916908373ffffffffffffffffffffffffffffffffffffffff160217905550916020019190600101906105ac565b5b5090506106119190610660565b5090565b828054828255905f5260205f2090810192821561064f579160200282015b8281111561064e578251825591602001919060010190610633565b5b50905061065c9190610660565b5090565b5b80821115610677575f815f905550600101610661565b5090565b5f604051905090565b5f5ffd5b5f5ffd5b5f73ffffffffffffffffffffffffffffffffffffffff82169050919050565b5f6106b58261068c565b9050919050565b6106c5816106ab565b81146106cf575f5ffd5b50565b5f815190506106e0816106bc565b92915050565b5f5ffd5b5f601f19601f8301169050919050565b7f4e487b71000000000000000000000000000000000000000000000000000000005f52604160045260245ffd5b610730826106ea565b810181811067ffffffffffffffff8211171561074f5761074e6106fa565b5b80604052505050565b5f61076161067b565b905061076d8282610727565b919050565b5f67ffffffffffffffff82111561078c5761078b6106fa565b5b602082029050602081019050919050565b5f5ffd5b5f6107b36107ae84610772565b610758565b905080838252602082019050602084028301858111156107d6576107d561079d565b5b835b818110156107ff57806107eb88826106d2565b8452602084019350506020810190506107d8565b5050509392505050565b5f82601f83011261081d5761081c6106e6565b5b815161082d8482602086016107a1565b91505092915050565b5f67ffffffffffffffff8211156108505761084f6106fa565b5b602082029050602081019050919050565b5f819050919050565b61087381610861565b811461087d575f5ffd5b50565b5f8151905061088e8161086a565b92915050565b5f6108a66108a184610836565b610758565b905080838252602082019050602084028301858111156108c9576108c861079d565b5b835b818110156108f257806108de8882610880565b8452602084019350506020810190506108cb565b5050509392505050565b5f82601f8301126109105761090f6106e6565b5b8151610920848260208601610894565b91505092915050565b5f5f5f5f5f5f5f5f5f5f6101408b8d03121561094857610947610684565b5b5f6109558d828e016106d2565b9a505060208b015167ffffffffffffffff81111561097657610975610688565b5b6109828d828e01610809565b99505060408b015167ffffffffffffffff8111156109a3576109a2610688565b5b6109af8d828e016108fc565b98505060606109c08d828e01610880565b97505060808b015167ffffffffffffffff8111156109e1576109e0610688565b5b6109ed8d828e01610809565b96505060a08b015167ffffffffffffffff811115610a0e57610a0d610688565b5b610a1a8d828e01610809565b95505060c08b015167ffffffffffffffff811115610a3b57610a3a610688565b5b610a478d828e016108fc565b94505060e08b015167ffffffffffffffff811115610a6857610a67610688565b5b610a748d828e01610809565b935050610100610a868d828e016106d2565b925050610120610a988d828e01610880565b9150509295989b9194979a5092959850565b610ab3816106ab565b82525050565b5f602082019050610acc5f830184610aaa565b92915050565b5f82825260208201905092915050565b7f486569727320616e6420646973747269627574696f6e73206c656e677468206d5f8201527f69736d617463682e000000000000000000000000000000000000000000000000602082015250565b5f610b3c602883610ad2565b9150610b4782610ae2565b604082019050919050565b5f6020820190508181035f830152610b6981610b30565b9050919050565b7f48656972732063616e6e6f7420626520656d7074792e000000000000000000005f82015250565b5f610ba4601683610ad2565b9150610baf82610b70565b602082019050919050565b5f6020820190508181035f830152610bd181610b98565b9050919050565b7f4e46542064617461206172726179206c656e67746873206d69736d617463682e5f82015250565b5f610c0c602083610ad2565b9150610c1782610bd8565b602082019050919050565b5f6020820190508181035f830152610c3981610c00565b9050919050565b7f4e487b71000000000000000000000000000000000000000000000000000000005f52603260045260245ffd5b7f4e487b71000000000000000000000000000000000000000000000000000000005f52601160045260245ffd5b5f610ca482610861565b9150610caf83610861565b9250828201905080821115610cc757610cc6610c6d565b5b92915050565b7f446973747269627574696f6e2070657263656e7461676573206d7573742073755f8201527f6d20746f203130302e0000000000000000000000000000000000000000000000602082015250565b5f610d27602983610ad2565b9150610d3282610ccd565b604082019050919050565b5f6020820190508181035f830152610d5481610d1b565b9050919050565b60805160a05160c051612bb2610dcb5f395f8181610e4f01528181610e7601528181610f11015281816113f6015261150a01525f818161067c01528181610eda01528181610fc301526114e001525f818161050601528181610631015281816114bc01526118b10152612bb25ff3fe608060405234801561000f575f5ffd5b5060043610610114575f3560e01c80638da5cb5b116100a0578063c04637111161006f578063c046371114610284578063c7c85baa146102a2578063cc4f9d5b146102c0578063e15724a5146102de578063f2fde38b1461031057610114565b80638da5cb5b146101fa5780639379f51714610218578063947a36fb14610248578063a444ae411461026657610114565b80635c36b186116100e75780635c36b186146101b457806361461954146101be5780636b892b22146101c85780636f9fb98a146101d2578063715018a6146101f057610114565b80631c0795c3146101185780631f99966a146101485780632395d9751461017857806331a38c8914610196575b5f5ffd5b610132600480360381019061012d9190611d79565b61032c565b60405161013f9190611de3565b60405180910390f35b610162600480360381019061015d9190611d79565b610367565b60405161016f9190611e0b565b60405180910390f35b610180610387565b60405161018d9190611e0b565b60405180910390f35b61019e61038c565b6040516101ab9190611e3e565b60405180910390f35b6101bc61039e565b005b6101c66104a4565b005b6101d0610d53565b005b6101da611435565b6040516101e79190611e0b565b60405180910390f35b6101f861143c565b005b61020261144f565b60405161020f9190611de3565b60405180910390f35b610232600480360381019061022d9190611d79565b611476565b60405161023f9190611eb2565b60405180910390f35b6102506114ba565b60405161025d9190611e0b565b60405180910390f35b61026e6114de565b60405161027b9190611de3565b60405180910390f35b61028c611502565b6040516102999190611e0b565b60405180910390f35b6102aa611508565b6040516102b79190611e0b565b60405180910390f35b6102c861152c565b6040516102d591906122dc565b60405180910390f35b6102f860048036038101906102f39190611d79565b6119e7565b6040516103079392919061231c565b60405180910390f35b61032a6004803603810190610325919061237b565b611a5a565b005b6004818154811061033b575f80fd5b905f5260205f20015f915054906101000a900473ffffffffffffffffffffffffffffffffffffffff1681565b60058181548110610376575f80fd5b905f5260205f20015f915090505481565b603281565b60025f9054906101000a900460ff1681565b60025f9054906101000a900460ff16156103ed576040517f08c379a00000000000000000000000000000000000000000000000000000000081526004016103e490612426565b60405180910390fd5b3373ffffffffffffffffffffffffffffffffffffffff1661040c61144f565b73ffffffffffffffffffffffffffffffffffffffff1614610462576040517f08c379a0000000000000000000000000000000000000000000000000000000008152600401610459906124b4565b60405180910390fd5b426003819055507f48257dc961b6f792c2b78a080dacfed693b660960a702de21cee364e20270e2f60035460405161049a9190611e0b565b60405180910390a1565b6104ac611ade565b600260018190555060025f9054906101000a900460ff1615610503576040517f08c379a00000000000000000000000000000000000000000000000000000000081526004016104fa90612426565b60405180910390fd5b5f7f000000000000000000000000000000000000000000000000000000000000000060035461053291906124ff565b905080421015610577576040517f08c379a000000000000000000000000000000000000000000000000000000000815260040161056e9061257c565b60405180910390fd5b5f620151808261058791906124ff565b9050804210156106145773a9f8f9c0bf3188ceddb9684ae28655187552bae973ffffffffffffffffffffffffffffffffffffffff163373ffffffffffffffffffffffffffffffffffffffff1614610613576040517f08c379a000000000000000000000000000000000000000000000000000000000815260040161060a9061260a565b60405180910390fd5b5b600160025f6101000a81548160ff0219169083151502179055505f7f000000000000000000000000000000000000000000000000000000000000000060035461065d91906124ff565b90505f620151808261066f91906124ff565b90505f814210156106a2577f000000000000000000000000000000000000000000000000000000000000000090506106a6565b3390505b5f5f90505f4790505f8111156108df575f6127106032836106c79190612628565b6106d19190612696565b90508092505f81836106e391906126c6565b90505f821115610797575f8573ffffffffffffffffffffffffffffffffffffffff168360405161071290612726565b5f6040518083038185875af1925050503d805f811461074c576040519150601f19603f3d011682016040523d82523d5f602084013e610751565b606091505b5050905080610795576040517f08c379a000000000000000000000000000000000000000000000000000000000815260040161078c90612784565b60405180910390fd5b505b5f5f90505b6004805490508110156108db575f6064600583815481106107c0576107bf6127a2565b5b905f5260205f200154846107d49190612628565b6107de9190612696565b90505f8111156108cd575f600483815481106107fd576107fc6127a2565b5b905f5260205f20015f9054906101000a900473ffffffffffffffffffffffffffffffffffffffff1673ffffffffffffffffffffffffffffffffffffffff168260405161084890612726565b5f6040518083038185875af1925050503d805f8114610882576040519150601f19603f3d011682016040523d82523d5f602084013e610887565b606091505b50509050806108cb576040517f08c379a00000000000000000000000000000000000000000000000000000000081526004016108c290612819565b60405180910390fd5b505b50808060010191505061079c565b5050505b5f5f90505b600680549050811015610b90575f60068281548110610906576109056127a2565b5b905f5260205f20015f015f9054906101000a900473ffffffffffffffffffffffffffffffffffffffff1690505f8173ffffffffffffffffffffffffffffffffffffffff166370a08231306040518263ffffffff1660e01b815260040161096c9190611de3565b602060405180830381865afa158015610987573d5f5f3e3d5ffd5b505050506040513d601f19601f820116820180604052508101906109ab919061284b565b90505f811115610b81575f6127106032836109c69190612628565b6109d09190612696565b90505f81836109df91906126c6565b90505f821115610a66578373ffffffffffffffffffffffffffffffffffffffff1663a9059cbb89846040518363ffffffff1660e01b8152600401610a24929190612876565b6020604051808303815f875af1158015610a40573d5f5f3e3d5ffd5b505050506040513d601f19601f82011682018060405250810190610a6491906128c7565b505b5f5f90505b600480549050811015610b7d575f606460058381548110610a8f57610a8e6127a2565b5b905f5260205f20015484610aa39190612628565b610aad9190612696565b90505f811115610b6f578573ffffffffffffffffffffffffffffffffffffffff1663a9059cbb60048481548110610ae757610ae66127a2565b5b905f5260205f20015f9054906101000a900473ffffffffffffffffffffffffffffffffffffffff16836040518363ffffffff1660e01b8152600401610b2d929190612876565b6020604051808303815f875af1158015610b49573d5f5f3e3d5ffd5b505050506040513d601f19601f82011682018060405250810190610b6d91906128c7565b505b508080600101915050610a6b565b5050505b505080806001019150506108e4565b505f5f90505b600780549050811015610d07575f60078281548110610bb857610bb76127a2565b5b905f5260205f2090600302016040518060600160405290815f82015f9054906101000a900473ffffffffffffffffffffffffffffffffffffffff1673ffffffffffffffffffffffffffffffffffffffff1673ffffffffffffffffffffffffffffffffffffffff16815260200160018201548152602001600282015f9054906101000a900473ffffffffffffffffffffffffffffffffffffffff1673ffffffffffffffffffffffffffffffffffffffff1673ffffffffffffffffffffffffffffffffffffffff16815250509050805f015173ffffffffffffffffffffffffffffffffffffffff166342842e0e30836040015184602001516040518463ffffffff1660e01b8152600401610ccc939291906128f2565b5f604051808303815f87803b158015610ce3575f5ffd5b505af1158015610cf5573d5f5f3e3d5ffd5b50505050508080600101915050610b96565b507f52ba16c8b985eff690a9de92094bd7486f89340e06e385ffb26de9c6eea384dc338385604051610d3b93929190612927565b60405180910390a15050505050505060018081905550565b60025f9054906101000a900460ff1615610da2576040517f08c379a0000000000000000000000000000000000000000000000000000000008152600401610d9990612426565b60405180910390fd5b3373ffffffffffffffffffffffffffffffffffffffff16610dc161144f565b73ffffffffffffffffffffffffffffffffffffffff1614610e17576040517f08c379a0000000000000000000000000000000000000000000000000000000008152600401610e0e906124b4565b60405180910390fd5b610e1f611ade565b6002600181905550600160025f6101000a81548160ff0219169083151502179055505f610e4a61144f565b90505f7f00000000000000000000000000000000000000000000000000000000000000001115610fc1577f0000000000000000000000000000000000000000000000000000000000000000471015610ed7576040517f08c379a0000000000000000000000000000000000000000000000000000000008152600401610ece906129cc565b60405180910390fd5b5f7f000000000000000000000000000000000000000000000000000000000000000073ffffffffffffffffffffffffffffffffffffffff167f0000000000000000000000000000000000000000000000000000000000000000604051610f3c90612726565b5f6040518083038185875af1925050503d805f8114610f76576040519150601f19603f3d011682016040523d82523d5f602084013e610f7b565b606091505b5050905080610fbf576040517f08c379a0000000000000000000000000000000000000000000000000000000008152600401610fb690612a34565b60405180910390fd5b505b7f000000000000000000000000000000000000000000000000000000000000000073ffffffffffffffffffffffffffffffffffffffff1663a658dd6b826040518263ffffffff1660e01b815260040161101a9190612a72565b5f604051808303815f87803b158015611031575f5ffd5b505af1158015611043573d5f5f3e3d5ffd5b505050505f5f90505b6006805490508110156111a9575f6006828154811061106e5761106d6127a2565b5b905f5260205f20015f015f9054906101000a900473ffffffffffffffffffffffffffffffffffffffff1690505f8173ffffffffffffffffffffffffffffffffffffffff166370a08231306040518263ffffffff1660e01b81526004016110d49190611de3565b602060405180830381865afa1580156110ef573d5f5f3e3d5ffd5b505050506040513d601f19601f82011682018060405250810190611113919061284b565b90505f81111561119a578173ffffffffffffffffffffffffffffffffffffffff1663a9059cbb85836040518363ffffffff1660e01b8152600401611158929190612a8b565b6020604051808303815f875af1158015611174573d5f5f3e3d5ffd5b505050506040513d601f19601f8201168201806040525081019061119891906128c7565b505b5050808060010191505061104c565b505f5f90505b60078054905081101561131c575f600782815481106111d1576111d06127a2565b5b905f5260205f2090600302016040518060600160405290815f82015f9054906101000a900473ffffffffffffffffffffffffffffffffffffffff1673ffffffffffffffffffffffffffffffffffffffff1673ffffffffffffffffffffffffffffffffffffffff16815260200160018201548152602001600282015f9054906101000a900473ffffffffffffffffffffffffffffffffffffffff1673ffffffffffffffffffffffffffffffffffffffff1673ffffffffffffffffffffffffffffffffffffffff16815250509050805f015173ffffffffffffffffffffffffffffffffffffffff166342842e0e308584602001516040518463ffffffff1660e01b81526004016112e193929190612ab2565b5f604051808303815f87803b1580156112f8575f5ffd5b505af115801561130a573d5f5f3e3d5ffd5b505050505080806001019150506111af565b505f4790505f8111156113d3575f8273ffffffffffffffffffffffffffffffffffffffff168260405161134e90612726565b5f6040518083038185875af1925050503d805f8114611388576040519150601f19603f3d011682016040523d82523d5f602084013e61138d565b606091505b50509050806113d1576040517f08c379a00000000000000000000000000000000000000000000000000000000081526004016113c890612b31565b60405180910390fd5b505b7fc41d93b8bfbf9fd7cf5bfe271fd649ab6a6fec0ea101c23b82a2a28eca2533a97f00000000000000000000000000000000000000000000000000000000000000006040516114229190611e0b565b60405180910390a1505060018081905550565b5f47905090565b611444611b1c565b61144d5f611ba3565b565b5f5f5f9054906101000a900473ffffffffffffffffffffffffffffffffffffffff16905090565b60068181548110611485575f80fd5b905f5260205f20015f91509050805f015f9054906101000a900473ffffffffffffffffffffffffffffffffffffffff16905081565b7f000000000000000000000000000000000000000000000000000000000000000081565b7f000000000000000000000000000000000000000000000000000000000000000081565b60035481565b7f000000000000000000000000000000000000000000000000000000000000000081565b611534611c6b565b5f60068054905067ffffffffffffffff81111561155457611553612b4f565b5b60405190808252806020026020018201604052801561158d57816020015b61157a611cca565b8152602001906001900390816115725790505b5090505f5f90505b6006805490508110156116b1575f600682815481106115b7576115b66127a2565b5b905f5260205f20015f015f9054906101000a900473ffffffffffffffffffffffffffffffffffffffff16905060405180604001604052808273ffffffffffffffffffffffffffffffffffffffff1681526020018273ffffffffffffffffffffffffffffffffffffffff166370a08231306040518263ffffffff1660e01b81526004016116439190611de3565b602060405180830381865afa15801561165e573d5f5f3e3d5ffd5b505050506040513d601f19601f82011682018060405250810190611682919061284b565b815250838381518110611698576116976127a2565b5b6020026020010181905250508080600101915050611595565b505f60078054905067ffffffffffffffff8111156116d2576116d1612b4f565b5b60405190808252806020026020018201604052801561170b57816020015b6116f8611cf8565b8152602001906001900390816116f05790505b5090505f5f90505b60078054905081101561187f575f60078281548110611735576117346127a2565b5b905f5260205f2090600302016040518060600160405290815f82015f9054906101000a900473ffffffffffffffffffffffffffffffffffffffff1673ffffffffffffffffffffffffffffffffffffffff1673ffffffffffffffffffffffffffffffffffffffff16815260200160018201548152602001600282015f9054906101000a900473ffffffffffffffffffffffffffffffffffffffff1673ffffffffffffffffffffffffffffffffffffffff1673ffffffffffffffffffffffffffffffffffffffff168152505090506040518060600160405280825f015173ffffffffffffffffffffffffffffffffffffffff16815260200182602001518152602001826040015173ffffffffffffffffffffffffffffffffffffffff16815250838381518110611866576118656127a2565b5b6020026020010181905250508080600101915050611713565b5060405180610120016040528061189461144f565b73ffffffffffffffffffffffffffffffffffffffff1681526020017f00000000000000000000000000000000000000000000000000000000000000008152602001600354815260200160025f9054906101000a900460ff1615158152602001478152602001600480548060200260200160405190810160405280929190818152602001828054801561197857602002820191905f5260205f20905b815f9054906101000a900473ffffffffffffffffffffffffffffffffffffffff1673ffffffffffffffffffffffffffffffffffffffff168152602001906001019080831161192f575b5050505050815260200160058054806020026020016040519081016040528092919081815260200182805480156119cc57602002820191905f5260205f20905b8154815260200190600101908083116119b8575b50505050508152602001838152602001828152509250505090565b600781815481106119f6575f80fd5b905f5260205f2090600302015f91509050805f015f9054906101000a900473ffffffffffffffffffffffffffffffffffffffff1690806001015490806002015f9054906101000a900473ffffffffffffffffffffffffffffffffffffffff16905083565b611a62611b1c565b5f73ffffffffffffffffffffffffffffffffffffffff168173ffffffffffffffffffffffffffffffffffffffff1603611ad2575f6040517f1e4fbdf7000000000000000000000000000000000000000000000000000000008152600401611ac99190611de3565b60405180910390fd5b611adb81611ba3565b50565b600260015403611b1a576040517f3ee5aeb500000000000000000000000000000000000000000000000000000000815260040160405180910390fd5b565b611b24611c64565b73ffffffffffffffffffffffffffffffffffffffff16611b4261144f565b73ffffffffffffffffffffffffffffffffffffffff1614611ba157611b65611c64565b6040517f118cdaa7000000000000000000000000000000000000000000000000000000008152600401611b989190611de3565b60405180910390fd5b565b5f5f5f9054906101000a900473ffffffffffffffffffffffffffffffffffffffff169050815f5f6101000a81548173ffffffffffffffffffffffffffffffffffffffff021916908373ffffffffffffffffffffffffffffffffffffffff1602179055508173ffffffffffffffffffffffffffffffffffffffff168173ffffffffffffffffffffffffffffffffffffffff167f8be0079c531659141344cd1fd0a4f28419497f9722a3daafe3b4186f6b6457e060405160405180910390a35050565b5f33905090565b6040518061012001604052805f73ffffffffffffffffffffffffffffffffffffffff1681526020015f81526020015f81526020015f151581526020015f8152602001606081526020016060815260200160608152602001606081525090565b60405180604001604052805f73ffffffffffffffffffffffffffffffffffffffff1681526020015f81525090565b60405180606001604052805f73ffffffffffffffffffffffffffffffffffffffff1681526020015f81526020015f73ffffffffffffffffffffffffffffffffffffffff1681525090565b5f5ffd5b5f819050919050565b611d5881611d46565b8114611d62575f5ffd5b50565b5f81359050611d7381611d4f565b92915050565b5f60208284031215611d8e57611d8d611d42565b5b5f611d9b84828501611d65565b91505092915050565b5f73ffffffffffffffffffffffffffffffffffffffff82169050919050565b5f611dcd82611da4565b9050919050565b611ddd81611dc3565b82525050565b5f602082019050611df65f830184611dd4565b92915050565b611e0581611d46565b82525050565b5f602082019050611e1e5f830184611dfc565b92915050565b5f8115159050919050565b611e3881611e24565b82525050565b5f602082019050611e515f830184611e2f565b92915050565b5f819050919050565b5f611e7a611e75611e7084611da4565b611e57565b611da4565b9050919050565b5f611e8b82611e60565b9050919050565b5f611e9c82611e81565b9050919050565b611eac81611e92565b82525050565b5f602082019050611ec55f830184611ea3565b92915050565b611ed481611dc3565b82525050565b611ee381611d46565b82525050565b611ef281611e24565b82525050565b5f81519050919050565b5f82825260208201905092915050565b5f819050602082019050919050565b5f611f2c8383611ecb565b60208301905092915050565b5f602082019050919050565b5f611f4e82611ef8565b611f588185611f02565b9350611f6383611f12565b805f5b83811015611f93578151611f7a8882611f21565b9750611f8583611f38565b925050600181019050611f66565b5085935050505092915050565b5f81519050919050565b5f82825260208201905092915050565b5f819050602082019050919050565b5f611fd48383611eda565b60208301905092915050565b5f602082019050919050565b5f611ff682611fa0565b6120008185611faa565b935061200b83611fba565b805f5b8381101561203b5781516120228882611fc9565b975061202d83611fe0565b92505060018101905061200e565b5085935050505092915050565b5f81519050919050565b5f82825260208201905092915050565b5f819050602082019050919050565b604082015f8201516120855f850182611ecb565b5060208201516120986020850182611eda565b50505050565b5f6120a98383612071565b60408301905092915050565b5f602082019050919050565b5f6120cb82612048565b6120d58185612052565b93506120e083612062565b805f5b838110156121105781516120f7888261209e565b9750612102836120b5565b9250506001810190506120e3565b5085935050505092915050565b5f81519050919050565b5f82825260208201905092915050565b5f819050602082019050919050565b606082015f82015161215a5f850182611ecb565b50602082015161216d6020850182611eda565b5060408201516121806040850182611ecb565b50505050565b5f6121918383612146565b60608301905092915050565b5f602082019050919050565b5f6121b38261211d565b6121bd8185612127565b93506121c883612137565b805f5b838110156121f85781516121df8882612186565b97506121ea8361219d565b9250506001810190506121cb565b5085935050505092915050565b5f61012083015f83015161221b5f860182611ecb565b50602083015161222e6020860182611eda565b5060408301516122416040860182611eda565b5060608301516122546060860182611ee9565b5060808301516122676080860182611eda565b5060a083015184820360a086015261227f8282611f44565b91505060c083015184820360c08601526122998282611fec565b91505060e083015184820360e08601526122b382826120c1565b9150506101008301518482036101008601526122cf82826121a9565b9150508091505092915050565b5f6020820190508181035f8301526122f48184612205565b905092915050565b5f61230682611e81565b9050919050565b612316816122fc565b82525050565b5f60608201905061232f5f83018661230d565b61233c6020830185611dfc565b6123496040830184611dd4565b949350505050565b61235a81611dc3565b8114612364575f5ffd5b50565b5f8135905061237581612351565b92915050565b5f602082840312156123905761238f611d42565b5b5f61239d84828501612367565b91505092915050565b5f82825260208201905092915050565b7f57696c6c20686173206265656e206578656375746564206f722063616e63656c5f8201527f6c65642e00000000000000000000000000000000000000000000000000000000602082015250565b5f6124106024836123a6565b915061241b826123b6565b604082019050919050565b5f6020820190508181035f83015261243d81612404565b9050919050565b7f4f6e6c7920746865206f776e65722063616e2063616c6c20746869732066756e5f8201527f6374696f6e2e0000000000000000000000000000000000000000000000000000602082015250565b5f61249e6026836123a6565b91506124a982612444565b604082019050919050565b5f6020820190508181035f8301526124cb81612492565b9050919050565b7f4e487b71000000000000000000000000000000000000000000000000000000005f52601160045260245ffd5b5f61250982611d46565b915061251483611d46565b925082820190508082111561252c5761252b6124d2565b5b92915050565b7f477261636520706572696f6420686173206e6f7420656e6465642e00000000005f82015250565b5f612566601b836123a6565b915061257182612532565b602082019050919050565b5f6020820190508181035f8301526125938161255a565b9050919050565b7f4f6e6c79207468652064657369676e61746564206578656375746f722063616e5f8201527f2063616c6c2074686973206e6f772e0000000000000000000000000000000000602082015250565b5f6125f4602f836123a6565b91506125ff8261259a565b604082019050919050565b5f6020820190508181035f830152612621816125e8565b9050919050565b5f61263282611d46565b915061263d83611d46565b925082820261264b81611d46565b91508282048414831517612662576126616124d2565b5b5092915050565b7f4e487b71000000000000000000000000000000000000000000000000000000005f52601260045260245ffd5b5f6126a082611d46565b91506126ab83611d46565b9250826126bb576126ba612669565b5b828204905092915050565b5f6126d082611d46565b91506126db83611d46565b92508282039050818111156126f3576126f26124d2565b5b92915050565b5f81905092915050565b50565b5f6127115f836126f9565b915061271c82612703565b5f82019050919050565b5f61273082612706565b9150819050919050565b7f45544820666565207472616e73666572206661696c65642e00000000000000005f82015250565b5f61276e6018836123a6565b91506127798261273a565b602082019050919050565b5f6020820190508181035f83015261279b81612762565b9050919050565b7f4e487b71000000000000000000000000000000000000000000000000000000005f52603260045260245ffd5b7f455448207472616e7366657220746f2068656972206661696c65642e000000005f82015250565b5f612803601c836123a6565b915061280e826127cf565b602082019050919050565b5f6020820190508181035f830152612830816127f7565b9050919050565b5f8151905061284581611d4f565b92915050565b5f602082840312156128605761285f611d42565b5b5f61286d84828501612837565b91505092915050565b5f6040820190506128895f830185611dd4565b6128966020830184611dfc565b9392505050565b6128a681611e24565b81146128b0575f5ffd5b50565b5f815190506128c18161289d565b92915050565b5f602082840312156128dc576128db611d42565b5b5f6128e9848285016128b3565b91505092915050565b5f6060820190506129055f830186611dd4565b6129126020830185611dd4565b61291f6040830184611dfc565b949350505050565b5f60608201905061293a5f830186611dd4565b6129476020830185611dfc565b6129546040830184611dd4565b949350505050565b7f496e73756666696369656e742045544820666f72207465726d696e6174696f6e5f8201527f206665652e000000000000000000000000000000000000000000000000000000602082015250565b5f6129b66025836123a6565b91506129c18261295c565b604082019050919050565b5f6020820190508181035f8301526129e3816129aa565b9050919050565b7f5465726d696e6174696f6e20666565207472616e73666572206661696c65642e5f82015250565b5f612a1e6020836123a6565b9150612a29826129ea565b602082019050919050565b5f6020820190508181035f830152612a4b81612a12565b9050919050565b5f612a5c82611e81565b9050919050565b612a6c81612a52565b82525050565b5f602082019050612a855f830184612a63565b92915050565b5f604082019050612a9e5f830185612a63565b612aab6020830184611dfc565b9392505050565b5f606082019050612ac55f830186611dd4565b612ad26020830185612a63565b612adf6040830184611dfc565b949350505050565b7f455448207472616e73666572206661696c65642e0000000000000000000000005f82015250565b5f612b1b6014836123a6565b9150612b2682612ae7565b602082019050919050565b5f6020820190508181035f830152612b4881612b0f565b9050919050565b7f4e487b71000000000000000000000000000000000000000000000000000000005f52604160045260245ffdfea2646970667358221220a42a03de92a86cdc95e5662307e40bf93ae4d7fb805c8d6ddd58cb7815da9d2864736f6c634300081e0033",
					"opcodes": "PUSH1 0xE0 PUSH1 0x40 MSTORE PUSH1 0x40 MLOAD PUSH2 0x397D CODESIZE SUB DUP1 PUSH2 0x397D DUP4 CODECOPY DUP2 DUP2 ADD PUSH1 0x40 MSTORE DUP2 ADD SWAP1 PUSH2 0x25 SWAP2 SWAP1 PUSH2 0x929 JUMP JUMPDEST DUP10 PUSH0 PUSH20 0xFFFFFFFFFFFFFFFFFFFFFFFFFFFFFFFFFFFFFFFF AND DUP2 PUSH20 0xFFFFFFFFFFFFFFFFFFFFFFFFFFFFFFFFFFFFFFFF AND SUB PUSH2 0x96 JUMPI PUSH0 PUSH1 0x40 MLOAD PUSH32 0x1E4FBDF700000000000000000000000000000000000000000000000000000000 DUP2 MSTORE PUSH1 0x4 ADD PUSH2 0x8D SWAP2 SWAP1 PUSH2 0xAB9 JUMP JUMPDEST PUSH1 0x40 MLOAD DUP1 SWAP2 SUB SWAP1 REVERT JUMPDEST PUSH2 0xA5 DUP2 PUSH2 0x4CD PUSH1 0x20 SHL PUSH1 0x20 SHR JUMP JUMPDEST POP PUSH1 0x1 DUP1 DUP2 SWAP1 SSTORE POP DUP8 MLOAD DUP10 MLOAD EQ PUSH2 0xF1 JUMPI PUSH1 0x40 MLOAD PUSH32 0x8C379A000000000000000000000000000000000000000000000000000000000 DUP2 MSTORE PUSH1 0x4 ADD PUSH2 0xE8 SWAP1 PUSH2 0xB52 JUMP JUMPDEST PUSH1 0x40 MLOAD DUP1 SWAP2 SUB SWAP1 REVERT JUMPDEST PUSH0 DUP10 MLOAD GT PUSH2 0x134 JUMPI PUSH1 0x40 MLOAD PUSH32 0x8C379A000000000000000000000000000000000000000000000000000000000 DUP2 MSTORE PUSH1 0x4 ADD PUSH2 0x12B SWAP1 PUSH2 0xBBA JUMP JUMPDEST PUSH1 0x40 MLOAD DUP1 SWAP2 SUB SWAP1 REVERT JUMPDEST DUP4 MLOAD DUP6 MLOAD EQ DUP1 ISZERO PUSH2 0x146 JUMPI POP DUP3 MLOAD DUP5 MLOAD EQ JUMPDEST PUSH2 0x185 JUMPI PUSH1 0x40 MLOAD PUSH32 0x8C379A000000000000000000000000000000000000000000000000000000000 DUP2 MSTORE PUSH1 0x4 ADD PUSH2 0x17C SWAP1 PUSH2 0xC22 JUMP JUMPDEST PUSH1 0x40 MLOAD DUP1 SWAP2 SUB SWAP1 REVERT JUMPDEST PUSH0 PUSH0 SWAP1 POP PUSH0 PUSH0 SWAP1 POP JUMPDEST DUP10 MLOAD DUP2 LT ISZERO PUSH2 0x1CC JUMPI DUP10 DUP2 DUP2 MLOAD DUP2 LT PUSH2 0x1AA JUMPI PUSH2 0x1A9 PUSH2 0xC40 JUMP JUMPDEST JUMPDEST PUSH1 0x20 MUL PUSH1 0x20 ADD ADD MLOAD DUP3 PUSH2 0x1BD SWAP2 SWAP1 PUSH2 0xC9A JUMP JUMPDEST SWAP2 POP DUP1 DUP1 PUSH1 0x1 ADD SWAP2 POP POP PUSH2 0x18E JUMP JUMPDEST POP PUSH1 0x64 DUP2 EQ PUSH2 0x210 JUMPI PUSH1 0x40 MLOAD PUSH32 0x8C379A000000000000000000000000000000000000000000000000000000000 DUP2 MSTORE PUSH1 0x4 ADD PUSH2 0x207 SWAP1 PUSH2 0xD3D JUMP JUMPDEST PUSH1 0x40 MLOAD DUP1 SWAP2 SUB SWAP1 REVERT JUMPDEST TIMESTAMP PUSH1 0x3 DUP2 SWAP1 SSTORE POP DUP8 PUSH1 0x80 DUP2 DUP2 MSTORE POP POP DUP3 PUSH20 0xFFFFFFFFFFFFFFFFFFFFFFFFFFFFFFFFFFFFFFFF AND PUSH1 0xA0 DUP2 PUSH20 0xFFFFFFFFFFFFFFFFFFFFFFFFFFFFFFFFFFFFFFFF AND DUP2 MSTORE POP POP DUP2 PUSH1 0xC0 DUP2 DUP2 MSTORE POP POP DUP10 PUSH1 0x4 SWAP1 DUP1 MLOAD SWAP1 PUSH1 0x20 ADD SWAP1 PUSH2 0x271 SWAP3 SWAP2 SWAP1 PUSH2 0x58E JUMP JUMPDEST POP DUP9 PUSH1 0x5 SWAP1 DUP1 MLOAD SWAP1 PUSH1 0x20 ADD SWAP1 PUSH2 0x288 SWAP3 SWAP2 SWAP1 PUSH2 0x615 JUMP JUMPDEST POP PUSH0 PUSH0 SWAP1 POP JUMPDEST DUP8 MLOAD DUP2 LT ISZERO PUSH2 0x34D JUMPI PUSH1 0x6 PUSH1 0x40 MLOAD DUP1 PUSH1 0x20 ADD PUSH1 0x40 MSTORE DUP1 DUP11 DUP5 DUP2 MLOAD DUP2 LT PUSH2 0x2B7 JUMPI PUSH2 0x2B6 PUSH2 0xC40 JUMP JUMPDEST JUMPDEST PUSH1 0x20 MUL PUSH1 0x20 ADD ADD MLOAD PUSH20 0xFFFFFFFFFFFFFFFFFFFFFFFFFFFFFFFFFFFFFFFF AND DUP2 MSTORE POP SWAP1 DUP1 PUSH1 0x1 DUP2 SLOAD ADD DUP1 DUP3 SSTORE DUP1 SWAP2 POP POP PUSH1 0x1 SWAP1 SUB SWAP1 PUSH0 MSTORE PUSH1 0x20 PUSH0 KECCAK256 ADD PUSH0 SWAP1 SWAP2 SWAP1 SWAP2 SWAP1 SWAP2 POP PUSH0 DUP3 ADD MLOAD DUP2 PUSH0 ADD PUSH0 PUSH2 0x100 EXP DUP2 SLOAD DUP2 PUSH20 0xFFFFFFFFFFFFFFFFFFFFFFFFFFFFFFFFFFFFFFFF MUL NOT AND SWAP1 DUP4 PUSH20 0xFFFFFFFFFFFFFFFFFFFFFFFFFFFFFFFFFFFFFFFF AND MUL OR SWAP1 SSTORE POP POP POP DUP1 DUP1 PUSH1 0x1 ADD SWAP2 POP POP PUSH2 0x28E JUMP JUMPDEST POP PUSH0 PUSH0 SWAP1 POP JUMPDEST DUP7 MLOAD DUP2 LT ISZERO PUSH2 0x4BC JUMPI PUSH1 0x7 PUSH1 0x40 MLOAD DUP1 PUSH1 0x60 ADD PUSH1 0x40 MSTORE DUP1 DUP10 DUP5 DUP2 MLOAD DUP2 LT PUSH2 0x37C JUMPI PUSH2 0x37B PUSH2 0xC40 JUMP JUMPDEST JUMPDEST PUSH1 0x20 MUL PUSH1 0x20 ADD ADD MLOAD PUSH20 0xFFFFFFFFFFFFFFFFFFFFFFFFFFFFFFFFFFFFFFFF AND DUP2 MSTORE PUSH1 0x20 ADD DUP9 DUP5 DUP2 MLOAD DUP2 LT PUSH2 0x3B2 JUMPI PUSH2 0x3B1 PUSH2 0xC40 JUMP JUMPDEST JUMPDEST PUSH1 0x20 MUL PUSH1 0x20 ADD ADD MLOAD DUP2 MSTORE PUSH1 0x20 ADD DUP8 DUP5 DUP2 MLOAD DUP2 LT PUSH2 0x3D2 JUMPI PUSH2 0x3D1 PUSH2 0xC40 JUMP JUMPDEST JUMPDEST PUSH1 0x20 MUL PUSH1 0x20 ADD ADD MLOAD PUSH20 0xFFFFFFFFFFFFFFFFFFFFFFFFFFFFFFFFFFFFFFFF AND DUP2 MSTORE POP SWAP1 DUP1 PUSH1 0x1 DUP2 SLOAD ADD DUP1 DUP3 SSTORE DUP1 SWAP2 POP POP PUSH1 0x1 SWAP1 SUB SWAP1 PUSH0 MSTORE PUSH1 0x20 PUSH0 KECCAK256 SWAP1 PUSH1 0x3 MUL ADD PUSH0 SWAP1 SWAP2 SWAP1 SWAP2 SWAP1 SWAP2 POP PUSH0 DUP3 ADD MLOAD DUP2 PUSH0 ADD PUSH0 PUSH2 0x100 EXP DUP2 SLOAD DUP2 PUSH20 0xFFFFFFFFFFFFFFFFFFFFFFFFFFFFFFFFFFFFFFFF MUL NOT AND SWAP1 DUP4 PUSH20 0xFFFFFFFFFFFFFFFFFFFFFFFFFFFFFFFFFFFFFFFF AND MUL OR SWAP1 SSTORE POP PUSH1 0x20 DUP3 ADD MLOAD DUP2 PUSH1 0x1 ADD SSTORE PUSH1 0x40 DUP3 ADD MLOAD DUP2 PUSH1 0x2 ADD PUSH0 PUSH2 0x100 EXP DUP2 SLOAD DUP2 PUSH20 0xFFFFFFFFFFFFFFFFFFFFFFFFFFFFFFFFFFFFFFFF MUL NOT AND SWAP1 DUP4 PUSH20 0xFFFFFFFFFFFFFFFFFFFFFFFFFFFFFFFFFFFFFFFF AND MUL OR SWAP1 SSTORE POP POP POP DUP1 DUP1 PUSH1 0x1 ADD SWAP2 POP POP PUSH2 0x353 JUMP JUMPDEST POP POP POP POP POP POP POP POP POP POP POP POP PUSH2 0xD5B JUMP JUMPDEST PUSH0 PUSH0 PUSH0 SWAP1 SLOAD SWAP1 PUSH2 0x100 EXP SWAP1 DIV PUSH20 0xFFFFFFFFFFFFFFFFFFFFFFFFFFFFFFFFFFFFFFFF AND SWAP1 POP DUP2 PUSH0 PUSH0 PUSH2 0x100 EXP DUP2 SLOAD DUP2 PUSH20 0xFFFFFFFFFFFFFFFFFFFFFFFFFFFFFFFFFFFFFFFF MUL NOT AND SWAP1 DUP4 PUSH20 0xFFFFFFFFFFFFFFFFFFFFFFFFFFFFFFFFFFFFFFFF AND MUL OR SWAP1 SSTORE POP DUP2 PUSH20 0xFFFFFFFFFFFFFFFFFFFFFFFFFFFFFFFFFFFFFFFF AND DUP2 PUSH20 0xFFFFFFFFFFFFFFFFFFFFFFFFFFFFFFFFFFFFFFFF AND PUSH32 0x8BE0079C531659141344CD1FD0A4F28419497F9722A3DAAFE3B4186F6B6457E0 PUSH1 0x40 MLOAD PUSH1 0x40 MLOAD DUP1 SWAP2 SUB SWAP1 LOG3 POP POP JUMP JUMPDEST DUP3 DUP1 SLOAD DUP3 DUP3 SSTORE SWAP1 PUSH0 MSTORE PUSH1 0x20 PUSH0 KECCAK256 SWAP1 DUP2 ADD SWAP3 DUP3 ISZERO PUSH2 0x604 JUMPI SWAP2 PUSH1 0x20 MUL DUP3 ADD JUMPDEST DUP3 DUP2 GT ISZERO PUSH2 0x603 JUMPI DUP3 MLOAD DUP3 PUSH0 PUSH2 0x100 EXP DUP2 SLOAD DUP2 PUSH20 0xFFFFFFFFFFFFFFFFFFFFFFFFFFFFFFFFFFFFFFFF MUL NOT AND SWAP1 DUP4 PUSH20 0xFFFFFFFFFFFFFFFFFFFFFFFFFFFFFFFFFFFFFFFF AND MUL OR SWAP1 SSTORE POP SWAP2 PUSH1 0x20 ADD SWAP2 SWAP1 PUSH1 0x1 ADD SWAP1 PUSH2 0x5AC JUMP JUMPDEST JUMPDEST POP SWAP1 POP PUSH2 0x611 SWAP2 SWAP1 PUSH2 0x660 JUMP JUMPDEST POP SWAP1 JUMP JUMPDEST DUP3 DUP1 SLOAD DUP3 DUP3 SSTORE SWAP1 PUSH0 MSTORE PUSH1 0x20 PUSH0 KECCAK256 SWAP1 DUP2 ADD SWAP3 DUP3 ISZERO PUSH2 0x64F JUMPI SWAP2 PUSH1 0x20 MUL DUP3 ADD JUMPDEST DUP3 DUP2 GT ISZERO PUSH2 0x64E JUMPI DUP3 MLOAD DUP3 SSTORE SWAP2 PUSH1 0x20 ADD SWAP2 SWAP1 PUSH1 0x1 ADD SWAP1 PUSH2 0x633 JUMP JUMPDEST JUMPDEST POP SWAP1 POP PUSH2 0x65C SWAP2 SWAP1 PUSH2 0x660 JUMP JUMPDEST POP SWAP1 JUMP JUMPDEST JUMPDEST DUP1 DUP3 GT ISZERO PUSH2 0x677 JUMPI PUSH0 DUP2 PUSH0 SWAP1 SSTORE POP PUSH1 0x1 ADD PUSH2 0x661 JUMP JUMPDEST POP SWAP1 JUMP JUMPDEST PUSH0 PUSH1 0x40 MLOAD SWAP1 POP SWAP1 JUMP JUMPDEST PUSH0 PUSH0 REVERT JUMPDEST PUSH0 PUSH0 REVERT JUMPDEST PUSH0 PUSH20 0xFFFFFFFFFFFFFFFFFFFFFFFFFFFFFFFFFFFFFFFF DUP3 AND SWAP1 POP SWAP2 SWAP1 POP JUMP JUMPDEST PUSH0 PUSH2 0x6B5 DUP3 PUSH2 0x68C JUMP JUMPDEST SWAP1 POP SWAP2 SWAP1 POP JUMP JUMPDEST PUSH2 0x6C5 DUP2 PUSH2 0x6AB JUMP JUMPDEST DUP2 EQ PUSH2 0x6CF JUMPI PUSH0 PUSH0 REVERT JUMPDEST POP JUMP JUMPDEST PUSH0 DUP2 MLOAD SWAP1 POP PUSH2 0x6E0 DUP2 PUSH2 0x6BC JUMP JUMPDEST SWAP3 SWAP2 POP POP JUMP JUMPDEST PUSH0 PUSH0 REVERT JUMPDEST PUSH0 PUSH1 0x1F NOT PUSH1 0x1F DUP4 ADD AND SWAP1 POP SWAP2 SWAP1 POP JUMP JUMPDEST PUSH32 0x4E487B7100000000000000000000000000000000000000000000000000000000 PUSH0 MSTORE PUSH1 0x41 PUSH1 0x4 MSTORE PUSH1 0x24 PUSH0 REVERT JUMPDEST PUSH2 0x730 DUP3 PUSH2 0x6EA JUMP JUMPDEST DUP2 ADD DUP2 DUP2 LT PUSH8 0xFFFFFFFFFFFFFFFF DUP3 GT OR ISZERO PUSH2 0x74F JUMPI PUSH2 0x74E PUSH2 0x6FA JUMP JUMPDEST JUMPDEST DUP1 PUSH1 0x40 MSTORE POP POP POP JUMP JUMPDEST PUSH0 PUSH2 0x761 PUSH2 0x67B JUMP JUMPDEST SWAP1 POP PUSH2 0x76D DUP3 DUP3 PUSH2 0x727 JUMP JUMPDEST SWAP2 SWAP1 POP JUMP JUMPDEST PUSH0 PUSH8 0xFFFFFFFFFFFFFFFF DUP3 GT ISZERO PUSH2 0x78C JUMPI PUSH2 0x78B PUSH2 0x6FA JUMP JUMPDEST JUMPDEST PUSH1 0x20 DUP3 MUL SWAP1 POP PUSH1 0x20 DUP2 ADD SWAP1 POP SWAP2 SWAP1 POP JUMP JUMPDEST PUSH0 PUSH0 REVERT JUMPDEST PUSH0 PUSH2 0x7B3 PUSH2 0x7AE DUP5 PUSH2 0x772 JUMP JUMPDEST PUSH2 0x758 JUMP JUMPDEST SWAP1 POP DUP1 DUP4 DUP3 MSTORE PUSH1 0x20 DUP3 ADD SWAP1 POP PUSH1 0x20 DUP5 MUL DUP4 ADD DUP6 DUP2 GT ISZERO PUSH2 0x7D6 JUMPI PUSH2 0x7D5 PUSH2 0x79D JUMP JUMPDEST JUMPDEST DUP4 JUMPDEST DUP2 DUP2 LT ISZERO PUSH2 0x7FF JUMPI DUP1 PUSH2 0x7EB DUP9 DUP3 PUSH2 0x6D2 JUMP JUMPDEST DUP5 MSTORE PUSH1 0x20 DUP5 ADD SWAP4 POP POP PUSH1 0x20 DUP2 ADD SWAP1 POP PUSH2 0x7D8 JUMP JUMPDEST POP POP POP SWAP4 SWAP3 POP POP POP JUMP JUMPDEST PUSH0 DUP3 PUSH1 0x1F DUP4 ADD SLT PUSH2 0x81D JUMPI PUSH2 0x81C PUSH2 0x6E6 JUMP JUMPDEST JUMPDEST DUP2 MLOAD PUSH2 0x82D DUP5 DUP3 PUSH1 0x20 DUP7 ADD PUSH2 0x7A1 JUMP JUMPDEST SWAP2 POP POP SWAP3 SWAP2 POP POP JUMP JUMPDEST PUSH0 PUSH8 0xFFFFFFFFFFFFFFFF DUP3 GT ISZERO PUSH2 0x850 JUMPI PUSH2 0x84F PUSH2 0x6FA JUMP JUMPDEST JUMPDEST PUSH1 0x20 DUP3 MUL SWAP1 POP PUSH1 0x20 DUP2 ADD SWAP1 POP SWAP2 SWAP1 POP JUMP JUMPDEST PUSH0 DUP2 SWAP1 POP SWAP2 SWAP1 POP JUMP JUMPDEST PUSH2 0x873 DUP2 PUSH2 0x861 JUMP JUMPDEST DUP2 EQ PUSH2 0x87D JUMPI PUSH0 PUSH0 REVERT JUMPDEST POP JUMP JUMPDEST PUSH0 DUP2 MLOAD SWAP1 POP PUSH2 0x88E DUP2 PUSH2 0x86A JUMP JUMPDEST SWAP3 SWAP2 POP POP JUMP JUMPDEST PUSH0 PUSH2 0x8A6 PUSH2 0x8A1 DUP5 PUSH2 0x836 JUMP JUMPDEST PUSH2 0x758 JUMP JUMPDEST SWAP1 POP DUP1 DUP4 DUP3 MSTORE PUSH1 0x20 DUP3 ADD SWAP1 POP PUSH1 0x20 DUP5 MUL DUP4 ADD DUP6 DUP2 GT ISZERO PUSH2 0x8C9 JUMPI PUSH2 0x8C8 PUSH2 0x79D JUMP JUMPDEST JUMPDEST DUP4 JUMPDEST DUP2 DUP2 LT ISZERO PUSH2 0x8F2 JUMPI DUP1 PUSH2 0x8DE DUP9 DUP3 PUSH2 0x880 JUMP JUMPDEST DUP5 MSTORE PUSH1 0x20 DUP5 ADD SWAP4 POP POP PUSH1 0x20 DUP2 ADD SWAP1 POP PUSH2 0x8CB JUMP JUMPDEST POP POP POP SWAP4 SWAP3 POP POP POP JUMP JUMPDEST PUSH0 DUP3 PUSH1 0x1F DUP4 ADD SLT PUSH2 0x910 JUMPI PUSH2 0x90F PUSH2 0x6E6 JUMP JUMPDEST JUMPDEST DUP2 MLOAD PUSH2 0x920 DUP5 DUP3 PUSH1 0x20 DUP7 ADD PUSH2 0x894 JUMP JUMPDEST SWAP2 POP POP SWAP3 SWAP2 POP POP JUMP JUMPDEST PUSH0 PUSH0 PUSH0 PUSH0 PUSH0 PUSH0 PUSH0 PUSH0 PUSH0 PUSH0 PUSH2 0x140 DUP12 DUP14 SUB SLT ISZERO PUSH2 0x948 JUMPI PUSH2 0x947 PUSH2 0x684 JUMP JUMPDEST JUMPDEST PUSH0 PUSH2 0x955 DUP14 DUP3 DUP15 ADD PUSH2 0x6D2 JUMP JUMPDEST SWAP11 POP POP PUSH1 0x20 DUP12 ADD MLOAD PUSH8 0xFFFFFFFFFFFFFFFF DUP2 GT ISZERO PUSH2 0x976 JUMPI PUSH2 0x975 PUSH2 0x688 JUMP JUMPDEST JUMPDEST PUSH2 0x982 DUP14 DUP3 DUP15 ADD PUSH2 0x809 JUMP JUMPDEST SWAP10 POP POP PUSH1 0x40 DUP12 ADD MLOAD PUSH8 0xFFFFFFFFFFFFFFFF DUP2 GT ISZERO PUSH2 0x9A3 JUMPI PUSH2 0x9A2 PUSH2 0x688 JUMP JUMPDEST JUMPDEST PUSH2 0x9AF DUP14 DUP3 DUP15 ADD PUSH2 0x8FC JUMP JUMPDEST SWAP9 POP POP PUSH1 0x60 PUSH2 0x9C0 DUP14 DUP3 DUP15 ADD PUSH2 0x880 JUMP JUMPDEST SWAP8 POP POP PUSH1 0x80 DUP12 ADD MLOAD PUSH8 0xFFFFFFFFFFFFFFFF DUP2 GT ISZERO PUSH2 0x9E1 JUMPI PUSH2 0x9E0 PUSH2 0x688 JUMP JUMPDEST JUMPDEST PUSH2 0x9ED DUP14 DUP3 DUP15 ADD PUSH2 0x809 JUMP JUMPDEST SWAP7 POP POP PUSH1 0xA0 DUP12 ADD MLOAD PUSH8 0xFFFFFFFFFFFFFFFF DUP2 GT ISZERO PUSH2 0xA0E JUMPI PUSH2 0xA0D PUSH2 0x688 JUMP JUMPDEST JUMPDEST PUSH2 0xA1A DUP14 DUP3 DUP15 ADD PUSH2 0x809 JUMP JUMPDEST SWAP6 POP POP PUSH1 0xC0 DUP12 ADD MLOAD PUSH8 0xFFFFFFFFFFFFFFFF DUP2 GT ISZERO PUSH2 0xA3B JUMPI PUSH2 0xA3A PUSH2 0x688 JUMP JUMPDEST JUMPDEST PUSH2 0xA47 DUP14 DUP3 DUP15 ADD PUSH2 0x8FC JUMP JUMPDEST SWAP5 POP POP PUSH1 0xE0 DUP12 ADD MLOAD PUSH8 0xFFFFFFFFFFFFFFFF DUP2 GT ISZERO PUSH2 0xA68 JUMPI PUSH2 0xA67 PUSH2 0x688 JUMP JUMPDEST JUMPDEST PUSH2 0xA74 DUP14 DUP3 DUP15 ADD PUSH2 0x809 JUMP JUMPDEST SWAP4 POP POP PUSH2 0x100 PUSH2 0xA86 DUP14 DUP3 DUP15 ADD PUSH2 0x6D2 JUMP JUMPDEST SWAP3 POP POP PUSH2 0x120 PUSH2 0xA98 DUP14 DUP3 DUP15 ADD PUSH2 0x880 JUMP JUMPDEST SWAP2 POP POP SWAP3 SWAP6 SWAP9 SWAP12 SWAP2 SWAP5 SWAP8 SWAP11 POP SWAP3 SWAP6 SWAP9 POP JUMP JUMPDEST PUSH2 0xAB3 DUP2 PUSH2 0x6AB JUMP JUMPDEST DUP3 MSTORE POP POP JUMP JUMPDEST PUSH0 PUSH1 0x20 DUP3 ADD SWAP1 POP PUSH2 0xACC PUSH0 DUP4 ADD DUP5 PUSH2 0xAAA JUMP JUMPDEST SWAP3 SWAP2 POP POP JUMP JUMPDEST PUSH0 DUP3 DUP3 MSTORE PUSH1 0x20 DUP3 ADD SWAP1 POP SWAP3 SWAP2 POP POP JUMP JUMPDEST PUSH32 0x486569727320616E6420646973747269627574696F6E73206C656E677468206D PUSH0 DUP3 ADD MSTORE PUSH32 0x69736D617463682E000000000000000000000000000000000000000000000000 PUSH1 0x20 DUP3 ADD MSTORE POP JUMP JUMPDEST PUSH0 PUSH2 0xB3C PUSH1 0x28 DUP4 PUSH2 0xAD2 JUMP JUMPDEST SWAP2 POP PUSH2 0xB47 DUP3 PUSH2 0xAE2 JUMP JUMPDEST PUSH1 0x40 DUP3 ADD SWAP1 POP SWAP2 SWAP1 POP JUMP JUMPDEST PUSH0 PUSH1 0x20 DUP3 ADD SWAP1 POP DUP2 DUP2 SUB PUSH0 DUP4 ADD MSTORE PUSH2 0xB69 DUP2 PUSH2 0xB30 JUMP JUMPDEST SWAP1 POP SWAP2 SWAP1 POP JUMP JUMPDEST PUSH32 0x48656972732063616E6E6F7420626520656D7074792E00000000000000000000 PUSH0 DUP3 ADD MSTORE POP JUMP JUMPDEST PUSH0 PUSH2 0xBA4 PUSH1 0x16 DUP4 PUSH2 0xAD2 JUMP JUMPDEST SWAP2 POP PUSH2 0xBAF DUP3 PUSH2 0xB70 JUMP JUMPDEST PUSH1 0x20 DUP3 ADD SWAP1 POP SWAP2 SWAP1 POP JUMP JUMPDEST PUSH0 PUSH1 0x20 DUP3 ADD SWAP1 POP DUP2 DUP2 SUB PUSH0 DUP4 ADD MSTORE PUSH2 0xBD1 DUP2 PUSH2 0xB98 JUMP JUMPDEST SWAP1 POP SWAP2 SWAP1 POP JUMP JUMPDEST PUSH32 0x4E46542064617461206172726179206C656E67746873206D69736D617463682E PUSH0 DUP3 ADD MSTORE POP JUMP JUMPDEST PUSH0 PUSH2 0xC0C PUSH1 0x20 DUP4 PUSH2 0xAD2 JUMP JUMPDEST SWAP2 POP PUSH2 0xC17 DUP3 PUSH2 0xBD8 JUMP JUMPDEST PUSH1 0x20 DUP3 ADD SWAP1 POP SWAP2 SWAP1 POP JUMP JUMPDEST PUSH0 PUSH1 0x20 DUP3 ADD SWAP1 POP DUP2 DUP2 SUB PUSH0 DUP4 ADD MSTORE PUSH2 0xC39 DUP2 PUSH2 0xC00 JUMP JUMPDEST SWAP1 POP SWAP2 SWAP1 POP JUMP JUMPDEST PUSH32 0x4E487B7100000000000000000000000000000000000000000000000000000000 PUSH0 MSTORE PUSH1 0x32 PUSH1 0x4 MSTORE PUSH1 0x24 PUSH0 REVERT JUMPDEST PUSH32 0x4E487B7100000000000000000000000000000000000000000000000000000000 PUSH0 MSTORE PUSH1 0x11 PUSH1 0x4 MSTORE PUSH1 0x24 PUSH0 REVERT JUMPDEST PUSH0 PUSH2 0xCA4 DUP3 PUSH2 0x861 JUMP JUMPDEST SWAP2 POP PUSH2 0xCAF DUP4 PUSH2 0x861 JUMP JUMPDEST SWAP3 POP DUP3 DUP3 ADD SWAP1 POP DUP1 DUP3 GT ISZERO PUSH2 0xCC7 JUMPI PUSH2 0xCC6 PUSH2 0xC6D JUMP JUMPDEST JUMPDEST SWAP3 SWAP2 POP POP JUMP JUMPDEST PUSH32 0x446973747269627574696F6E2070657263656E7461676573206D757374207375 PUSH0 DUP3 ADD MSTORE PUSH32 0x6D20746F203130302E0000000000000000000000000000000000000000000000 PUSH1 0x20 DUP3 ADD MSTORE POP JUMP JUMPDEST PUSH0 PUSH2 0xD27 PUSH1 0x29 DUP4 PUSH2 0xAD2 JUMP JUMPDEST SWAP2 POP PUSH2 0xD32 DUP3 PUSH2 0xCCD JUMP JUMPDEST PUSH1 0x40 DUP3 ADD SWAP1 POP SWAP2 SWAP1 POP JUMP JUMPDEST PUSH0 PUSH1 0x20 DUP3 ADD SWAP1 POP DUP2 DUP2 SUB PUSH0 DUP4 ADD MSTORE PUSH2 0xD54 DUP2 PUSH2 0xD1B JUMP JUMPDEST SWAP1 POP SWAP2 SWAP1 POP JUMP JUMPDEST PUSH1 0x80 MLOAD PUSH1 0xA0 MLOAD PUSH1 0xC0 MLOAD PUSH2 0x2BB2 PUSH2 0xDCB PUSH0 CODECOPY PUSH0 DUP2 DUP2 PUSH2 0xE4F ADD MSTORE DUP2 DUP2 PUSH2 0xE76 ADD MSTORE DUP2 DUP2 PUSH2 0xF11 ADD MSTORE DUP2 DUP2 PUSH2 0x13F6 ADD MSTORE PUSH2 0x150A ADD MSTORE PUSH0 DUP2 DUP2 PUSH2 0x67C ADD MSTORE DUP2 DUP2 PUSH2 0xEDA ADD MSTORE DUP2 DUP2 PUSH2 0xFC3 ADD MSTORE PUSH2 0x14E0 ADD MSTORE PUSH0 DUP2 DUP2 PUSH2 0x506 ADD MSTORE DUP2 DUP2 PUSH2 0x631 ADD MSTORE DUP2 DUP2 PUSH2 0x14BC ADD MSTORE PUSH2 0x18B1 ADD MSTORE PUSH2 0x2BB2 PUSH0 RETURN INVALID PUSH1 0x80 PUSH1 0x40 MSTORE CALLVALUE DUP1 ISZERO PUSH2 0xF JUMPI PUSH0 PUSH0 REVERT JUMPDEST POP PUSH1 0x4 CALLDATASIZE LT PUSH2 0x114 JUMPI PUSH0 CALLDATALOAD PUSH1 0xE0 SHR DUP1 PUSH4 0x8DA5CB5B GT PUSH2 0xA0 JUMPI DUP1 PUSH4 0xC0463711 GT PUSH2 0x6F JUMPI DUP1 PUSH4 0xC0463711 EQ PUSH2 0x284 JUMPI DUP1 PUSH4 0xC7C85BAA EQ PUSH2 0x2A2 JUMPI DUP1 PUSH4 0xCC4F9D5B EQ PUSH2 0x2C0 JUMPI DUP1 PUSH4 0xE15724A5 EQ PUSH2 0x2DE JUMPI DUP1 PUSH4 0xF2FDE38B EQ PUSH2 0x310 JUMPI PUSH2 0x114 JUMP JUMPDEST DUP1 PUSH4 0x8DA5CB5B EQ PUSH2 0x1FA JUMPI DUP1 PUSH4 0x9379F517 EQ PUSH2 0x218 JUMPI DUP1 PUSH4 0x947A36FB EQ PUSH2 0x248 JUMPI DUP1 PUSH4 0xA444AE41 EQ PUSH2 0x266 JUMPI PUSH2 0x114 JUMP JUMPDEST DUP1 PUSH4 0x5C36B186 GT PUSH2 0xE7 JUMPI DUP1 PUSH4 0x5C36B186 EQ PUSH2 0x1B4 JUMPI DUP1 PUSH4 0x61461954 EQ PUSH2 0x1BE JUMPI DUP1 PUSH4 0x6B892B22 EQ PUSH2 0x1C8 JUMPI DUP1 PUSH4 0x6F9FB98A EQ PUSH2 0x1D2 JUMPI DUP1 PUSH4 0x715018A6 EQ PUSH2 0x1F0 JUMPI PUSH2 0x114 JUMP JUMPDEST DUP1 PUSH4 0x1C0795C3 EQ PUSH2 0x118 JUMPI DUP1 PUSH4 0x1F99966A EQ PUSH2 0x148 JUMPI DUP1 PUSH4 0x2395D975 EQ PUSH2 0x178 JUMPI DUP1 PUSH4 0x31A38C89 EQ PUSH2 0x196 JUMPI JUMPDEST PUSH0 PUSH0 REVERT JUMPDEST PUSH2 0x132 PUSH1 0x4 DUP1 CALLDATASIZE SUB DUP2 ADD SWAP1 PUSH2 0x12D SWAP2 SWAP1 PUSH2 0x1D79 JUMP JUMPDEST PUSH2 0x32C JUMP JUMPDEST PUSH1 0x40 MLOAD PUSH2 0x13F SWAP2 SWAP1 PUSH2 0x1DE3 JUMP JUMPDEST PUSH1 0x40 MLOAD DUP1 SWAP2 SUB SWAP1 RETURN JUMPDEST PUSH2 0x162 PUSH1 0x4 DUP1 CALLDATASIZE SUB DUP2 ADD SWAP1 PUSH2 0x15D SWAP2 SWAP1 PUSH2 0x1D79 JUMP JUMPDEST PUSH2 0x367 JUMP JUMPDEST PUSH1 0x40 MLOAD PUSH2 0x16F SWAP2 SWAP1 PUSH2 0x1E0B JUMP JUMPDEST PUSH1 0x40 MLOAD DUP1 SWAP2 SUB SWAP1 RETURN JUMPDEST PUSH2 0x180 PUSH2 0x387 JUMP JUMPDEST PUSH1 0x40 MLOAD PUSH2 0x18D SWAP2 SWAP1 PUSH2 0x1E0B JUMP JUMPDEST PUSH1 0x40 MLOAD DUP1 SWAP2 SUB SWAP1 RETURN JUMPDEST PUSH2 0x19E PUSH2 0x38C JUMP JUMPDEST PUSH1 0x40 MLOAD PUSH2 0x1AB SWAP2 SWAP1 PUSH2 0x1E3E JUMP JUMPDEST PUSH1 0x40 MLOAD DUP1 SWAP2 SUB SWAP1 RETURN JUMPDEST PUSH2 0x1BC PUSH2 0x39E JUMP JUMPDEST STOP JUMPDEST PUSH2 0x1C6 PUSH2 0x4A4 JUMP JUMPDEST STOP JUMPDEST PUSH2 0x1D0 PUSH2 0xD53 JUMP JUMPDEST STOP JUMPDEST PUSH2 0x1DA PUSH2 0x1435 JUMP JUMPDEST PUSH1 0x40 MLOAD PUSH2 0x1E7 SWAP2 SWAP1 PUSH2 0x1E0B JUMP JUMPDEST PUSH1 0x40 MLOAD DUP1 SWAP2 SUB SWAP1 RETURN JUMPDEST PUSH2 0x1F8 PUSH2 0x143C JUMP JUMPDEST STOP JUMPDEST PUSH2 0x202 PUSH2 0x144F JUMP JUMPDEST PUSH1 0x40 MLOAD PUSH2 0x20F SWAP2 SWAP1 PUSH2 0x1DE3 JUMP JUMPDEST PUSH1 0x40 MLOAD DUP1 SWAP2 SUB SWAP1 RETURN JUMPDEST PUSH2 0x232 PUSH1 0x4 DUP1 CALLDATASIZE SUB DUP2 ADD SWAP1 PUSH2 0x22D SWAP2 SWAP1 PUSH2 0x1D79 JUMP JUMPDEST PUSH2 0x1476 JUMP JUMPDEST PUSH1 0x40 MLOAD PUSH2 0x23F SWAP2 SWAP1 PUSH2 0x1EB2 JUMP JUMPDEST PUSH1 0x40 MLOAD DUP1 SWAP2 SUB SWAP1 RETURN JUMPDEST PUSH2 0x250 PUSH2 0x14BA JUMP JUMPDEST PUSH1 0x40 MLOAD PUSH2 0x25D SWAP2 SWAP1 PUSH2 0x1E0B JUMP JUMPDEST PUSH1 0x40 MLOAD DUP1 SWAP2 SUB SWAP1 RETURN JUMPDEST PUSH2 0x26E PUSH2 0x14DE JUMP JUMPDEST PUSH1 0x40 MLOAD PUSH2 0x27B SWAP2 SWAP1 PUSH2 0x1DE3 JUMP JUMPDEST PUSH1 0x40 MLOAD DUP1 SWAP2 SUB SWAP1 RETURN JUMPDEST PUSH2 0x28C PUSH2 0x1502 JUMP JUMPDEST PUSH1 0x40 MLOAD PUSH2 0x299 SWAP2 SWAP1 PUSH2 0x1E0B JUMP JUMPDEST PUSH1 0x40 MLOAD DUP1 SWAP2 SUB SWAP1 RETURN JUMPDEST PUSH2 0x2AA PUSH2 0x1508 JUMP JUMPDEST PUSH1 0x40 MLOAD PUSH2 0x2B7 SWAP2 SWAP1 PUSH2 0x1E0B JUMP JUMPDEST PUSH1 0x40 MLOAD DUP1 SWAP2 SUB SWAP1 RETURN JUMPDEST PUSH2 0x2C8 PUSH2 0x152C JUMP JUMPDEST PUSH1 0x40 MLOAD PUSH2 0x2D5 SWAP2 SWAP1 PUSH2 0x22DC JUMP JUMPDEST PUSH1 0x40 MLOAD DUP1 SWAP2 SUB SWAP1 RETURN JUMPDEST PUSH2 0x2F8 PUSH1 0x4 DUP1 CALLDATASIZE SUB DUP2 ADD SWAP1 PUSH2 0x2F3 SWAP2 SWAP1 PUSH2 0x1D79 JUMP JUMPDEST PUSH2 0x19E7 JUMP JUMPDEST PUSH1 0x40 MLOAD PUSH2 0x307 SWAP4 SWAP3 SWAP2 SWAP1 PUSH2 0x231C JUMP JUMPDEST PUSH1 0x40 MLOAD DUP1 SWAP2 SUB SWAP1 RETURN JUMPDEST PUSH2 0x32A PUSH1 0x4 DUP1 CALLDATASIZE SUB DUP2 ADD SWAP1 PUSH2 0x325 SWAP2 SWAP1 PUSH2 0x237B JUMP JUMPDEST PUSH2 0x1A5A JUMP JUMPDEST STOP JUMPDEST PUSH1 0x4 DUP2 DUP2 SLOAD DUP2 LT PUSH2 0x33B JUMPI PUSH0 DUP1 REVERT JUMPDEST SWAP1 PUSH0 MSTORE PUSH1 0x20 PUSH0 KECCAK256 ADD PUSH0 SWAP2 POP SLOAD SWAP1 PUSH2 0x100 EXP SWAP1 DIV PUSH20 0xFFFFFFFFFFFFFFFFFFFFFFFFFFFFFFFFFFFFFFFF AND DUP2 JUMP JUMPDEST PUSH1 0x5 DUP2 DUP2 SLOAD DUP2 LT PUSH2 0x376 JUMPI PUSH0 DUP1 REVERT JUMPDEST SWAP1 PUSH0 MSTORE PUSH1 0x20 PUSH0 KECCAK256 ADD PUSH0 SWAP2 POP SWAP1 POP SLOAD DUP2 JUMP JUMPDEST PUSH1 0x32 DUP2 JUMP JUMPDEST PUSH1 0x2 PUSH0 SWAP1 SLOAD SWAP1 PUSH2 0x100 EXP SWAP1 DIV PUSH1 0xFF AND DUP2 JUMP JUMPDEST PUSH1 0x2 PUSH0 SWAP1 SLOAD SWAP1 PUSH2 0x100 EXP SWAP1 DIV PUSH1 0xFF AND ISZERO PUSH2 0x3ED JUMPI PUSH1 0x40 MLOAD PUSH32 0x8C379A000000000000000000000000000000000000000000000000000000000 DUP2 MSTORE PUSH1 0x4 ADD PUSH2 0x3E4 SWAP1 PUSH2 0x2426 JUMP JUMPDEST PUSH1 0x40 MLOAD DUP1 SWAP2 SUB SWAP1 REVERT JUMPDEST CALLER PUSH20 0xFFFFFFFFFFFFFFFFFFFFFFFFFFFFFFFFFFFFFFFF AND PUSH2 0x40C PUSH2 0x144F JUMP JUMPDEST PUSH20 0xFFFFFFFFFFFFFFFFFFFFFFFFFFFFFFFFFFFFFFFF AND EQ PUSH2 0x462 JUMPI PUSH1 0x40 MLOAD PUSH32 0x8C379A000000000000000000000000000000000000000000000000000000000 DUP2 MSTORE PUSH1 0x4 ADD PUSH2 0x459 SWAP1 PUSH2 0x24B4 JUMP JUMPDEST PUSH1 0x40 MLOAD DUP1 SWAP2 SUB SWAP1 REVERT JUMPDEST TIMESTAMP PUSH1 0x3 DUP2 SWAP1 SSTORE POP PUSH32 0x48257DC961B6F792C2B78A080DACFED693B660960A702DE21CEE364E20270E2F PUSH1 0x3 SLOAD PUSH1 0x40 MLOAD PUSH2 0x49A SWAP2 SWAP1 PUSH2 0x1E0B JUMP JUMPDEST PUSH1 0x40 MLOAD DUP1 SWAP2 SUB SWAP1 LOG1 JUMP JUMPDEST PUSH2 0x4AC PUSH2 0x1ADE JUMP JUMPDEST PUSH1 0x2 PUSH1 0x1 DUP2 SWAP1 SSTORE POP PUSH1 0x2 PUSH0 SWAP1 SLOAD SWAP1 PUSH2 0x100 EXP SWAP1 DIV PUSH1 0xFF AND ISZERO PUSH2 0x503 JUMPI PUSH1 0x40 MLOAD PUSH32 0x8C379A000000000000000000000000000000000000000000000000000000000 DUP2 MSTORE PUSH1 0x4 ADD PUSH2 0x4FA SWAP1 PUSH2 0x2426 JUMP JUMPDEST PUSH1 0x40 MLOAD DUP1 SWAP2 SUB SWAP1 REVERT JUMPDEST PUSH0 PUSH32 0x0 PUSH1 0x3 SLOAD PUSH2 0x532 SWAP2 SWAP1 PUSH2 0x24FF JUMP JUMPDEST SWAP1 POP DUP1 TIMESTAMP LT ISZERO PUSH2 0x577 JUMPI PUSH1 0x40 MLOAD PUSH32 0x8C379A000000000000000000000000000000000000000000000000000000000 DUP2 MSTORE PUSH1 0x4 ADD PUSH2 0x56E SWAP1 PUSH2 0x257C JUMP JUMPDEST PUSH1 0x40 MLOAD DUP1 SWAP2 SUB SWAP1 REVERT JUMPDEST PUSH0 PUSH3 0x15180 DUP3 PUSH2 0x587 SWAP2 SWAP1 PUSH2 0x24FF JUMP JUMPDEST SWAP1 POP DUP1 TIMESTAMP LT ISZERO PUSH2 0x614 JUMPI PUSH20 0xA9F8F9C0BF3188CEDDB9684AE28655187552BAE9 PUSH20 0xFFFFFFFFFFFFFFFFFFFFFFFFFFFFFFFFFFFFFFFF AND CALLER PUSH20 0xFFFFFFFFFFFFFFFFFFFFFFFFFFFFFFFFFFFFFFFF AND EQ PUSH2 0x613 JUMPI PUSH1 0x40 MLOAD PUSH32 0x8C379A000000000000000000000000000000000000000000000000000000000 DUP2 MSTORE PUSH1 0x4 ADD PUSH2 0x60A SWAP1 PUSH2 0x260A JUMP JUMPDEST PUSH1 0x40 MLOAD DUP1 SWAP2 SUB SWAP1 REVERT JUMPDEST JUMPDEST PUSH1 0x1 PUSH1 0x2 PUSH0 PUSH2 0x100 EXP DUP2 SLOAD DUP2 PUSH1 0xFF MUL NOT AND SWAP1 DUP4 ISZERO ISZERO MUL OR SWAP1 SSTORE POP PUSH0 PUSH32 0x0 PUSH1 0x3 SLOAD PUSH2 0x65D SWAP2 SWAP1 PUSH2 0x24FF JUMP JUMPDEST SWAP1 POP PUSH0 PUSH3 0x15180 DUP3 PUSH2 0x66F SWAP2 SWAP1 PUSH2 0x24FF JUMP JUMPDEST SWAP1 POP PUSH0 DUP2 TIMESTAMP LT ISZERO PUSH2 0x6A2 JUMPI PUSH32 0x0 SWAP1 POP PUSH2 0x6A6 JUMP JUMPDEST CALLER SWAP1 POP JUMPDEST PUSH0 PUSH0 SWAP1 POP PUSH0 SELFBALANCE SWAP1 POP PUSH0 DUP2 GT ISZERO PUSH2 0x8DF JUMPI PUSH0 PUSH2 0x2710 PUSH1 0x32 DUP4 PUSH2 0x6C7 SWAP2 SWAP1 PUSH2 0x2628 JUMP JUMPDEST PUSH2 0x6D1 SWAP2 SWAP1 PUSH2 0x2696 JUMP JUMPDEST SWAP1 POP DUP1 SWAP3 POP PUSH0 DUP2 DUP4 PUSH2 0x6E3 SWAP2 SWAP1 PUSH2 0x26C6 JUMP JUMPDEST SWAP1 POP PUSH0 DUP3 GT ISZERO PUSH2 0x797 JUMPI PUSH0 DUP6 PUSH20 0xFFFFFFFFFFFFFFFFFFFFFFFFFFFFFFFFFFFFFFFF AND DUP4 PUSH1 0x40 MLOAD PUSH2 0x712 SWAP1 PUSH2 0x2726 JUMP JUMPDEST PUSH0 PUSH1 0x40 MLOAD DUP1 DUP4 SUB DUP2 DUP6 DUP8 GAS CALL SWAP3 POP POP POP RETURNDATASIZE DUP1 PUSH0 DUP2 EQ PUSH2 0x74C JUMPI PUSH1 0x40 MLOAD SWAP2 POP PUSH1 0x1F NOT PUSH1 0x3F RETURNDATASIZE ADD AND DUP3 ADD PUSH1 0x40 MSTORE RETURNDATASIZE DUP3 MSTORE RETURNDATASIZE PUSH0 PUSH1 0x20 DUP5 ADD RETURNDATACOPY PUSH2 0x751 JUMP JUMPDEST PUSH1 0x60 SWAP2 POP JUMPDEST POP POP SWAP1 POP DUP1 PUSH2 0x795 JUMPI PUSH1 0x40 MLOAD PUSH32 0x8C379A000000000000000000000000000000000000000000000000000000000 DUP2 MSTORE PUSH1 0x4 ADD PUSH2 0x78C SWAP1 PUSH2 0x2784 JUMP JUMPDEST PUSH1 0x40 MLOAD DUP1 SWAP2 SUB SWAP1 REVERT JUMPDEST POP JUMPDEST PUSH0 PUSH0 SWAP1 POP JUMPDEST PUSH1 0x4 DUP1 SLOAD SWAP1 POP DUP2 LT ISZERO PUSH2 0x8DB JUMPI PUSH0 PUSH1 0x64 PUSH1 0x5 DUP4 DUP2 SLOAD DUP2 LT PUSH2 0x7C0 JUMPI PUSH2 0x7BF PUSH2 0x27A2 JUMP JUMPDEST JUMPDEST SWAP1 PUSH0 MSTORE PUSH1 0x20 PUSH0 KECCAK256 ADD SLOAD DUP5 PUSH2 0x7D4 SWAP2 SWAP1 PUSH2 0x2628 JUMP JUMPDEST PUSH2 0x7DE SWAP2 SWAP1 PUSH2 0x2696 JUMP JUMPDEST SWAP1 POP PUSH0 DUP2 GT ISZERO PUSH2 0x8CD JUMPI PUSH0 PUSH1 0x4 DUP4 DUP2 SLOAD DUP2 LT PUSH2 0x7FD JUMPI PUSH2 0x7FC PUSH2 0x27A2 JUMP JUMPDEST JUMPDEST SWAP1 PUSH0 MSTORE PUSH1 0x20 PUSH0 KECCAK256 ADD PUSH0 SWAP1 SLOAD SWAP1 PUSH2 0x100 EXP SWAP1 DIV PUSH20 0xFFFFFFFFFFFFFFFFFFFFFFFFFFFFFFFFFFFFFFFF AND PUSH20 0xFFFFFFFFFFFFFFFFFFFFFFFFFFFFFFFFFFFFFFFF AND DUP3 PUSH1 0x40 MLOAD PUSH2 0x848 SWAP1 PUSH2 0x2726 JUMP JUMPDEST PUSH0 PUSH1 0x40 MLOAD DUP1 DUP4 SUB DUP2 DUP6 DUP8 GAS CALL SWAP3 POP POP POP RETURNDATASIZE DUP1 PUSH0 DUP2 EQ PUSH2 0x882 JUMPI PUSH1 0x40 MLOAD SWAP2 POP PUSH1 0x1F NOT PUSH1 0x3F RETURNDATASIZE ADD AND DUP3 ADD PUSH1 0x40 MSTORE RETURNDATASIZE DUP3 MSTORE RETURNDATASIZE PUSH0 PUSH1 0x20 DUP5 ADD RETURNDATACOPY PUSH2 0x887 JUMP JUMPDEST PUSH1 0x60 SWAP2 POP JUMPDEST POP POP SWAP1 POP DUP1 PUSH2 0x8CB JUMPI PUSH1 0x40 MLOAD PUSH32 0x8C379A000000000000000000000000000000000000000000000000000000000 DUP2 MSTORE PUSH1 0x4 ADD PUSH2 0x8C2 SWAP1 PUSH2 0x2819 JUMP JUMPDEST PUSH1 0x40 MLOAD DUP1 SWAP2 SUB SWAP1 REVERT JUMPDEST POP JUMPDEST POP DUP1 DUP1 PUSH1 0x1 ADD SWAP2 POP POP PUSH2 0x79C JUMP JUMPDEST POP POP POP JUMPDEST PUSH0 PUSH0 SWAP1 POP JUMPDEST PUSH1 0x6 DUP1 SLOAD SWAP1 POP DUP2 LT ISZERO PUSH2 0xB90 JUMPI PUSH0 PUSH1 0x6 DUP3 DUP2 SLOAD DUP2 LT PUSH2 0x906 JUMPI PUSH2 0x905 PUSH2 0x27A2 JUMP JUMPDEST JUMPDEST SWAP1 PUSH0 MSTORE PUSH1 0x20 PUSH0 KECCAK256 ADD PUSH0 ADD PUSH0 SWAP1 SLOAD SWAP1 PUSH2 0x100 EXP SWAP1 DIV PUSH20 0xFFFFFFFFFFFFFFFFFFFFFFFFFFFFFFFFFFFFFFFF AND SWAP1 POP PUSH0 DUP2 PUSH20 0xFFFFFFFFFFFFFFFFFFFFFFFFFFFFFFFFFFFFFFFF AND PUSH4 0x70A08231 ADDRESS PUSH1 0x40 MLOAD DUP3 PUSH4 0xFFFFFFFF AND PUSH1 0xE0 SHL DUP2 MSTORE PUSH1 0x4 ADD PUSH2 0x96C SWAP2 SWAP1 PUSH2 0x1DE3 JUMP JUMPDEST PUSH1 0x20 PUSH1 0x40 MLOAD DUP1 DUP4 SUB DUP2 DUP7 GAS STATICCALL ISZERO DUP1 ISZERO PUSH2 0x987 JUMPI RETURNDATASIZE PUSH0 PUSH0 RETURNDATACOPY RETURNDATASIZE PUSH0 REVERT JUMPDEST POP POP POP POP PUSH1 0x40 MLOAD RETURNDATASIZE PUSH1 0x1F NOT PUSH1 0x1F DUP3 ADD AND DUP3 ADD DUP1 PUSH1 0x40 MSTORE POP DUP2 ADD SWAP1 PUSH2 0x9AB SWAP2 SWAP1 PUSH2 0x284B JUMP JUMPDEST SWAP1 POP PUSH0 DUP2 GT ISZERO PUSH2 0xB81 JUMPI PUSH0 PUSH2 0x2710 PUSH1 0x32 DUP4 PUSH2 0x9C6 SWAP2 SWAP1 PUSH2 0x2628 JUMP JUMPDEST PUSH2 0x9D0 SWAP2 SWAP1 PUSH2 0x2696 JUMP JUMPDEST SWAP1 POP PUSH0 DUP2 DUP4 PUSH2 0x9DF SWAP2 SWAP1 PUSH2 0x26C6 JUMP JUMPDEST SWAP1 POP PUSH0 DUP3 GT ISZERO PUSH2 0xA66 JUMPI DUP4 PUSH20 0xFFFFFFFFFFFFFFFFFFFFFFFFFFFFFFFFFFFFFFFF AND PUSH4 0xA9059CBB DUP10 DUP5 PUSH1 0x40 MLOAD DUP4 PUSH4 0xFFFFFFFF AND PUSH1 0xE0 SHL DUP2 MSTORE PUSH1 0x4 ADD PUSH2 0xA24 SWAP3 SWAP2 SWAP1 PUSH2 0x2876 JUMP JUMPDEST PUSH1 0x20 PUSH1 0x40 MLOAD DUP1 DUP4 SUB DUP2 PUSH0 DUP8 GAS CALL ISZERO DUP1 ISZERO PUSH2 0xA40 JUMPI RETURNDATASIZE PUSH0 PUSH0 RETURNDATACOPY RETURNDATASIZE PUSH0 REVERT JUMPDEST POP POP POP POP PUSH1 0x40 MLOAD RETURNDATASIZE PUSH1 0x1F NOT PUSH1 0x1F DUP3 ADD AND DUP3 ADD DUP1 PUSH1 0x40 MSTORE POP DUP2 ADD SWAP1 PUSH2 0xA64 SWAP2 SWAP1 PUSH2 0x28C7 JUMP JUMPDEST POP JUMPDEST PUSH0 PUSH0 SWAP1 POP JUMPDEST PUSH1 0x4 DUP1 SLOAD SWAP1 POP DUP2 LT ISZERO PUSH2 0xB7D JUMPI PUSH0 PUSH1 0x64 PUSH1 0x5 DUP4 DUP2 SLOAD DUP2 LT PUSH2 0xA8F JUMPI PUSH2 0xA8E PUSH2 0x27A2 JUMP JUMPDEST JUMPDEST SWAP1 PUSH0 MSTORE PUSH1 0x20 PUSH0 KECCAK256 ADD SLOAD DUP5 PUSH2 0xAA3 SWAP2 SWAP1 PUSH2 0x2628 JUMP JUMPDEST PUSH2 0xAAD SWAP2 SWAP1 PUSH2 0x2696 JUMP JUMPDEST SWAP1 POP PUSH0 DUP2 GT ISZERO PUSH2 0xB6F JUMPI DUP6 PUSH20 0xFFFFFFFFFFFFFFFFFFFFFFFFFFFFFFFFFFFFFFFF AND PUSH4 0xA9059CBB PUSH1 0x4 DUP5 DUP2 SLOAD DUP2 LT PUSH2 0xAE7 JUMPI PUSH2 0xAE6 PUSH2 0x27A2 JUMP JUMPDEST JUMPDEST SWAP1 PUSH0 MSTORE PUSH1 0x20 PUSH0 KECCAK256 ADD PUSH0 SWAP1 SLOAD SWAP1 PUSH2 0x100 EXP SWAP1 DIV PUSH20 0xFFFFFFFFFFFFFFFFFFFFFFFFFFFFFFFFFFFFFFFF AND DUP4 PUSH1 0x40 MLOAD DUP4 PUSH4 0xFFFFFFFF AND PUSH1 0xE0 SHL DUP2 MSTORE PUSH1 0x4 ADD PUSH2 0xB2D SWAP3 SWAP2 SWAP1 PUSH2 0x2876 JUMP JUMPDEST PUSH1 0x20 PUSH1 0x40 MLOAD DUP1 DUP4 SUB DUP2 PUSH0 DUP8 GAS CALL ISZERO DUP1 ISZERO PUSH2 0xB49 JUMPI RETURNDATASIZE PUSH0 PUSH0 RETURNDATACOPY RETURNDATASIZE PUSH0 REVERT JUMPDEST POP POP POP POP PUSH1 0x40 MLOAD RETURNDATASIZE PUSH1 0x1F NOT PUSH1 0x1F DUP3 ADD AND DUP3 ADD DUP1 PUSH1 0x40 MSTORE POP DUP2 ADD SWAP1 PUSH2 0xB6D SWAP2 SWAP1 PUSH2 0x28C7 JUMP JUMPDEST POP JUMPDEST POP DUP1 DUP1 PUSH1 0x1 ADD SWAP2 POP POP PUSH2 0xA6B JUMP JUMPDEST POP POP POP JUMPDEST POP POP DUP1 DUP1 PUSH1 0x1 ADD SWAP2 POP POP PUSH2 0x8E4 JUMP JUMPDEST POP PUSH0 PUSH0 SWAP1 POP JUMPDEST PUSH1 0x7 DUP1 SLOAD SWAP1 POP DUP2 LT ISZERO PUSH2 0xD07 JUMPI PUSH0 PUSH1 0x7 DUP3 DUP2 SLOAD DUP2 LT PUSH2 0xBB8 JUMPI PUSH2 0xBB7 PUSH2 0x27A2 JUMP JUMPDEST JUMPDEST SWAP1 PUSH0 MSTORE PUSH1 0x20 PUSH0 KECCAK256 SWAP1 PUSH1 0x3 MUL ADD PUSH1 0x40 MLOAD DUP1 PUSH1 0x60 ADD PUSH1 0x40 MSTORE SWAP1 DUP2 PUSH0 DUP3 ADD PUSH0 SWAP1 SLOAD SWAP1 PUSH2 0x100 EXP SWAP1 DIV PUSH20 0xFFFFFFFFFFFFFFFFFFFFFFFFFFFFFFFFFFFFFFFF AND PUSH20 0xFFFFFFFFFFFFFFFFFFFFFFFFFFFFFFFFFFFFFFFF AND PUSH20 0xFFFFFFFFFFFFFFFFFFFFFFFFFFFFFFFFFFFFFFFF AND DUP2 MSTORE PUSH1 0x20 ADD PUSH1 0x1 DUP3 ADD SLOAD DUP2 MSTORE PUSH1 0x20 ADD PUSH1 0x2 DUP3 ADD PUSH0 SWAP1 SLOAD SWAP1 PUSH2 0x100 EXP SWAP1 DIV PUSH20 0xFFFFFFFFFFFFFFFFFFFFFFFFFFFFFFFFFFFFFFFF AND PUSH20 0xFFFFFFFFFFFFFFFFFFFFFFFFFFFFFFFFFFFFFFFF AND PUSH20 0xFFFFFFFFFFFFFFFFFFFFFFFFFFFFFFFFFFFFFFFF AND DUP2 MSTORE POP POP SWAP1 POP DUP1 PUSH0 ADD MLOAD PUSH20 0xFFFFFFFFFFFFFFFFFFFFFFFFFFFFFFFFFFFFFFFF AND PUSH4 0x42842E0E ADDRESS DUP4 PUSH1 0x40 ADD MLOAD DUP5 PUSH1 0x20 ADD MLOAD PUSH1 0x40 MLOAD DUP5 PUSH4 0xFFFFFFFF AND PUSH1 0xE0 SHL DUP2 MSTORE PUSH1 0x4 ADD PUSH2 0xCCC SWAP4 SWAP3 SWAP2 SWAP1 PUSH2 0x28F2 JUMP JUMPDEST PUSH0 PUSH1 0x40 MLOAD DUP1 DUP4 SUB DUP2 PUSH0 DUP8 DUP1 EXTCODESIZE ISZERO DUP1 ISZERO PUSH2 0xCE3 JUMPI PUSH0 PUSH0 REVERT JUMPDEST POP GAS CALL ISZERO DUP1 ISZERO PUSH2 0xCF5 JUMPI RETURNDATASIZE PUSH0 PUSH0 RETURNDATACOPY RETURNDATASIZE PUSH0 REVERT JUMPDEST POP POP POP POP POP DUP1 DUP1 PUSH1 0x1 ADD SWAP2 POP POP PUSH2 0xB96 JUMP JUMPDEST POP PUSH32 0x52BA16C8B985EFF690A9DE92094BD7486F89340E06E385FFB26DE9C6EEA384DC CALLER DUP4 DUP6 PUSH1 0x40 MLOAD PUSH2 0xD3B SWAP4 SWAP3 SWAP2 SWAP1 PUSH2 0x2927 JUMP JUMPDEST PUSH1 0x40 MLOAD DUP1 SWAP2 SUB SWAP1 LOG1 POP POP POP POP POP POP POP PUSH1 0x1 DUP1 DUP2 SWAP1 SSTORE POP JUMP JUMPDEST PUSH1 0x2 PUSH0 SWAP1 SLOAD SWAP1 PUSH2 0x100 EXP SWAP1 DIV PUSH1 0xFF AND ISZERO PUSH2 0xDA2 JUMPI PUSH1 0x40 MLOAD PUSH32 0x8C379A000000000000000000000000000000000000000000000000000000000 DUP2 MSTORE PUSH1 0x4 ADD PUSH2 0xD99 SWAP1 PUSH2 0x2426 JUMP JUMPDEST PUSH1 0x40 MLOAD DUP1 SWAP2 SUB SWAP1 REVERT JUMPDEST CALLER PUSH20 0xFFFFFFFFFFFFFFFFFFFFFFFFFFFFFFFFFFFFFFFF AND PUSH2 0xDC1 PUSH2 0x144F JUMP JUMPDEST PUSH20 0xFFFFFFFFFFFFFFFFFFFFFFFFFFFFFFFFFFFFFFFF AND EQ PUSH2 0xE17 JUMPI PUSH1 0x40 MLOAD PUSH32 0x8C379A000000000000000000000000000000000000000000000000000000000 DUP2 MSTORE PUSH1 0x4 ADD PUSH2 0xE0E SWAP1 PUSH2 0x24B4 JUMP JUMPDEST PUSH1 0x40 MLOAD DUP1 SWAP2 SUB SWAP1 REVERT JUMPDEST PUSH2 0xE1F PUSH2 0x1ADE JUMP JUMPDEST PUSH1 0x2 PUSH1 0x1 DUP2 SWAP1 SSTORE POP PUSH1 0x1 PUSH1 0x2 PUSH0 PUSH2 0x100 EXP DUP2 SLOAD DUP2 PUSH1 0xFF MUL NOT AND SWAP1 DUP4 ISZERO ISZERO MUL OR SWAP1 SSTORE POP PUSH0 PUSH2 0xE4A PUSH2 0x144F JUMP JUMPDEST SWAP1 POP PUSH0 PUSH32 0x0 GT ISZERO PUSH2 0xFC1 JUMPI PUSH32 0x0 SELFBALANCE LT ISZERO PUSH2 0xED7 JUMPI PUSH1 0x40 MLOAD PUSH32 0x8C379A000000000000000000000000000000000000000000000000000000000 DUP2 MSTORE PUSH1 0x4 ADD PUSH2 0xECE SWAP1 PUSH2 0x29CC JUMP JUMPDEST PUSH1 0x40 MLOAD DUP1 SWAP2 SUB SWAP1 REVERT JUMPDEST PUSH0 PUSH32 0x0 PUSH20 0xFFFFFFFFFFFFFFFFFFFFFFFFFFFFFFFFFFFFFFFF AND PUSH32 0x0 PUSH1 0x40 MLOAD PUSH2 0xF3C SWAP1 PUSH2 0x2726 JUMP JUMPDEST PUSH0 PUSH1 0x40 MLOAD DUP1 DUP4 SUB DUP2 DUP6 DUP8 GAS CALL SWAP3 POP POP POP RETURNDATASIZE DUP1 PUSH0 DUP2 EQ PUSH2 0xF76 JUMPI PUSH1 0x40 MLOAD SWAP2 POP PUSH1 0x1F NOT PUSH1 0x3F RETURNDATASIZE ADD AND DUP3 ADD PUSH1 0x40 MSTORE RETURNDATASIZE DUP3 MSTORE RETURNDATASIZE PUSH0 PUSH1 0x20 DUP5 ADD RETURNDATACOPY PUSH2 0xF7B JUMP JUMPDEST PUSH1 0x60 SWAP2 POP JUMPDEST POP POP SWAP1 POP DUP1 PUSH2 0xFBF JUMPI PUSH1 0x40 MLOAD PUSH32 0x8C379A000000000000000000000000000000000000000000000000000000000 DUP2 MSTORE PUSH1 0x4 ADD PUSH2 0xFB6 SWAP1 PUSH2 0x2A34 JUMP JUMPDEST PUSH1 0x40 MLOAD DUP1 SWAP2 SUB SWAP1 REVERT JUMPDEST POP JUMPDEST PUSH32 0x0 PUSH20 0xFFFFFFFFFFFFFFFFFFFFFFFFFFFFFFFFFFFFFFFF AND PUSH4 0xA658DD6B DUP3 PUSH1 0x40 MLOAD DUP3 PUSH4 0xFFFFFFFF AND PUSH1 0xE0 SHL DUP2 MSTORE PUSH1 0x4 ADD PUSH2 0x101A SWAP2 SWAP1 PUSH2 0x2A72 JUMP JUMPDEST PUSH0 PUSH1 0x40 MLOAD DUP1 DUP4 SUB DUP2 PUSH0 DUP8 DUP1 EXTCODESIZE ISZERO DUP1 ISZERO PUSH2 0x1031 JUMPI PUSH0 PUSH0 REVERT JUMPDEST POP GAS CALL ISZERO DUP1 ISZERO PUSH2 0x1043 JUMPI RETURNDATASIZE PUSH0 PUSH0 RETURNDATACOPY RETURNDATASIZE PUSH0 REVERT JUMPDEST POP POP POP POP PUSH0 PUSH0 SWAP1 POP JUMPDEST PUSH1 0x6 DUP1 SLOAD SWAP1 POP DUP2 LT ISZERO PUSH2 0x11A9 JUMPI PUSH0 PUSH1 0x6 DUP3 DUP2 SLOAD DUP2 LT PUSH2 0x106E JUMPI PUSH2 0x106D PUSH2 0x27A2 JUMP JUMPDEST JUMPDEST SWAP1 PUSH0 MSTORE PUSH1 0x20 PUSH0 KECCAK256 ADD PUSH0 ADD PUSH0 SWAP1 SLOAD SWAP1 PUSH2 0x100 EXP SWAP1 DIV PUSH20 0xFFFFFFFFFFFFFFFFFFFFFFFFFFFFFFFFFFFFFFFF AND SWAP1 POP PUSH0 DUP2 PUSH20 0xFFFFFFFFFFFFFFFFFFFFFFFFFFFFFFFFFFFFFFFF AND PUSH4 0x70A08231 ADDRESS PUSH1 0x40 MLOAD DUP3 PUSH4 0xFFFFFFFF AND PUSH1 0xE0 SHL DUP2 MSTORE PUSH1 0x4 ADD PUSH2 0x10D4 SWAP2 SWAP1 PUSH2 0x1DE3 JUMP JUMPDEST PUSH1 0x20 PUSH1 0x40 MLOAD DUP1 DUP4 SUB DUP2 DUP7 GAS STATICCALL ISZERO DUP1 ISZERO PUSH2 0x10EF JUMPI RETURNDATASIZE PUSH0 PUSH0 RETURNDATACOPY RETURNDATASIZE PUSH0 REVERT JUMPDEST POP POP POP POP PUSH1 0x40 MLOAD RETURNDATASIZE PUSH1 0x1F NOT PUSH1 0x1F DUP3 ADD AND DUP3 ADD DUP1 PUSH1 0x40 MSTORE POP DUP2 ADD SWAP1 PUSH2 0x1113 SWAP2 SWAP1 PUSH2 0x284B JUMP JUMPDEST SWAP1 POP PUSH0 DUP2 GT ISZERO PUSH2 0x119A JUMPI DUP2 PUSH20 0xFFFFFFFFFFFFFFFFFFFFFFFFFFFFFFFFFFFFFFFF AND PUSH4 0xA9059CBB DUP6 DUP4 PUSH1 0x40 MLOAD DUP4 PUSH4 0xFFFFFFFF AND PUSH1 0xE0 SHL DUP2 MSTORE PUSH1 0x4 ADD PUSH2 0x1158 SWAP3 SWAP2 SWAP1 PUSH2 0x2A8B JUMP JUMPDEST PUSH1 0x20 PUSH1 0x40 MLOAD DUP1 DUP4 SUB DUP2 PUSH0 DUP8 GAS CALL ISZERO DUP1 ISZERO PUSH2 0x1174 JUMPI RETURNDATASIZE PUSH0 PUSH0 RETURNDATACOPY RETURNDATASIZE PUSH0 REVERT JUMPDEST POP POP POP POP PUSH1 0x40 MLOAD RETURNDATASIZE PUSH1 0x1F NOT PUSH1 0x1F DUP3 ADD AND DUP3 ADD DUP1 PUSH1 0x40 MSTORE POP DUP2 ADD SWAP1 PUSH2 0x1198 SWAP2 SWAP1 PUSH2 0x28C7 JUMP JUMPDEST POP JUMPDEST POP POP DUP1 DUP1 PUSH1 0x1 ADD SWAP2 POP POP PUSH2 0x104C JUMP JUMPDEST POP PUSH0 PUSH0 SWAP1 POP JUMPDEST PUSH1 0x7 DUP1 SLOAD SWAP1 POP DUP2 LT ISZERO PUSH2 0x131C JUMPI PUSH0 PUSH1 0x7 DUP3 DUP2 SLOAD DUP2 LT PUSH2 0x11D1 JUMPI PUSH2 0x11D0 PUSH2 0x27A2 JUMP JUMPDEST JUMPDEST SWAP1 PUSH0 MSTORE PUSH1 0x20 PUSH0 KECCAK256 SWAP1 PUSH1 0x3 MUL ADD PUSH1 0x40 MLOAD DUP1 PUSH1 0x60 ADD PUSH1 0x40 MSTORE SWAP1 DUP2 PUSH0 DUP3 ADD PUSH0 SWAP1 SLOAD SWAP1 PUSH2 0x100 EXP SWAP1 DIV PUSH20 0xFFFFFFFFFFFFFFFFFFFFFFFFFFFFFFFFFFFFFFFF AND PUSH20 0xFFFFFFFFFFFFFFFFFFFFFFFFFFFFFFFFFFFFFFFF AND PUSH20 0xFFFFFFFFFFFFFFFFFFFFFFFFFFFFFFFFFFFFFFFF AND DUP2 MSTORE PUSH1 0x20 ADD PUSH1 0x1 DUP3 ADD SLOAD DUP2 MSTORE PUSH1 0x20 ADD PUSH1 0x2 DUP3 ADD PUSH0 SWAP1 SLOAD SWAP1 PUSH2 0x100 EXP SWAP1 DIV PUSH20 0xFFFFFFFFFFFFFFFFFFFFFFFFFFFFFFFFFFFFFFFF AND PUSH20 0xFFFFFFFFFFFFFFFFFFFFFFFFFFFFFFFFFFFFFFFF AND PUSH20 0xFFFFFFFFFFFFFFFFFFFFFFFFFFFFFFFFFFFFFFFF AND DUP2 MSTORE POP POP SWAP1 POP DUP1 PUSH0 ADD MLOAD PUSH20 0xFFFFFFFFFFFFFFFFFFFFFFFFFFFFFFFFFFFFFFFF AND PUSH4 0x42842E0E ADDRESS DUP6 DUP5 PUSH1 0x20 ADD MLOAD PUSH1 0x40 MLOAD DUP5 PUSH4 0xFFFFFFFF AND PUSH1 0xE0 SHL DUP2 MSTORE PUSH1 0x4 ADD PUSH2 0x12E1 SWAP4 SWAP3 SWAP2 SWAP1 PUSH2 0x2AB2 JUMP JUMPDEST PUSH0 PUSH1 0x40 MLOAD DUP1 DUP4 SUB DUP2 PUSH0 DUP8 DUP1 EXTCODESIZE ISZERO DUP1 ISZERO PUSH2 0x12F8 JUMPI PUSH0 PUSH0 REVERT JUMPDEST POP GAS CALL ISZERO DUP1 ISZERO PUSH2 0x130A JUMPI RETURNDATASIZE PUSH0 PUSH0 RETURNDATACOPY RETURNDATASIZE PUSH0 REVERT JUMPDEST POP POP POP POP POP DUP1 DUP1 PUSH1 0x1 ADD SWAP2 POP POP PUSH2 0x11AF JUMP JUMPDEST POP PUSH0 SELFBALANCE SWAP1 POP PUSH0 DUP2 GT ISZERO PUSH2 0x13D3 JUMPI PUSH0 DUP3 PUSH20 0xFFFFFFFFFFFFFFFFFFFFFFFFFFFFFFFFFFFFFFFF AND DUP3 PUSH1 0x40 MLOAD PUSH2 0x134E SWAP1 PUSH2 0x2726 JUMP JUMPDEST PUSH0 PUSH1 0x40 MLOAD DUP1 DUP4 SUB DUP2 DUP6 DUP8 GAS CALL SWAP3 POP POP POP RETURNDATASIZE DUP1 PUSH0 DUP2 EQ PUSH2 0x1388 JUMPI PUSH1 0x40 MLOAD SWAP2 POP PUSH1 0x1F NOT PUSH1 0x3F RETURNDATASIZE ADD AND DUP3 ADD PUSH1 0x40 MSTORE RETURNDATASIZE DUP3 MSTORE RETURNDATASIZE PUSH0 PUSH1 0x20 DUP5 ADD RETURNDATACOPY PUSH2 0x138D JUMP JUMPDEST PUSH1 0x60 SWAP2 POP JUMPDEST POP POP SWAP1 POP DUP1 PUSH2 0x13D1 JUMPI PUSH1 0x40 MLOAD PUSH32 0x8C379A000000000000000000000000000000000000000000000000000000000 DUP2 MSTORE PUSH1 0x4 ADD PUSH2 0x13C8 SWAP1 PUSH2 0x2B31 JUMP JUMPDEST PUSH1 0x40 MLOAD DUP1 SWAP2 SUB SWAP1 REVERT JUMPDEST POP JUMPDEST PUSH32 0xC41D93B8BFBF9FD7CF5BFE271FD649AB6A6FEC0EA101C23B82A2A28ECA2533A9 PUSH32 0x0 PUSH1 0x40 MLOAD PUSH2 0x1422 SWAP2 SWAP1 PUSH2 0x1E0B JUMP JUMPDEST PUSH1 0x40 MLOAD DUP1 SWAP2 SUB SWAP1 LOG1 POP POP PUSH1 0x1 DUP1 DUP2 SWAP1 SSTORE POP JUMP JUMPDEST PUSH0 SELFBALANCE SWAP1 POP SWAP1 JUMP JUMPDEST PUSH2 0x1444 PUSH2 0x1B1C JUMP JUMPDEST PUSH2 0x144D PUSH0 PUSH2 0x1BA3 JUMP JUMPDEST JUMP JUMPDEST PUSH0 PUSH0 PUSH0 SWAP1 SLOAD SWAP1 PUSH2 0x100 EXP SWAP1 DIV PUSH20 0xFFFFFFFFFFFFFFFFFFFFFFFFFFFFFFFFFFFFFFFF AND SWAP1 POP SWAP1 JUMP JUMPDEST PUSH1 0x6 DUP2 DUP2 SLOAD DUP2 LT PUSH2 0x1485 JUMPI PUSH0 DUP1 REVERT JUMPDEST SWAP1 PUSH0 MSTORE PUSH1 0x20 PUSH0 KECCAK256 ADD PUSH0 SWAP2 POP SWAP1 POP DUP1 PUSH0 ADD PUSH0 SWAP1 SLOAD SWAP1 PUSH2 0x100 EXP SWAP1 DIV PUSH20 0xFFFFFFFFFFFFFFFFFFFFFFFFFFFFFFFFFFFFFFFF AND SWAP1 POP DUP2 JUMP JUMPDEST PUSH32 0x0 DUP2 JUMP JUMPDEST PUSH32 0x0 DUP2 JUMP JUMPDEST PUSH1 0x3 SLOAD DUP2 JUMP JUMPDEST PUSH32 0x0 DUP2 JUMP JUMPDEST PUSH2 0x1534 PUSH2 0x1C6B JUMP JUMPDEST PUSH0 PUSH1 0x6 DUP1 SLOAD SWAP1 POP PUSH8 0xFFFFFFFFFFFFFFFF DUP2 GT ISZERO PUSH2 0x1554 JUMPI PUSH2 0x1553 PUSH2 0x2B4F JUMP JUMPDEST JUMPDEST PUSH1 0x40 MLOAD SWAP1 DUP1 DUP3 MSTORE DUP1 PUSH1 0x20 MUL PUSH1 0x20 ADD DUP3 ADD PUSH1 0x40 MSTORE DUP1 ISZERO PUSH2 0x158D JUMPI DUP2 PUSH1 0x20 ADD JUMPDEST PUSH2 0x157A PUSH2 0x1CCA JUMP JUMPDEST DUP2 MSTORE PUSH1 0x20 ADD SWAP1 PUSH1 0x1 SWAP1 SUB SWAP1 DUP2 PUSH2 0x1572 JUMPI SWAP1 POP JUMPDEST POP SWAP1 POP PUSH0 PUSH0 SWAP1 POP JUMPDEST PUSH1 0x6 DUP1 SLOAD SWAP1 POP DUP2 LT ISZERO PUSH2 0x16B1 JUMPI PUSH0 PUSH1 0x6 DUP3 DUP2 SLOAD DUP2 LT PUSH2 0x15B7 JUMPI PUSH2 0x15B6 PUSH2 0x27A2 JUMP JUMPDEST JUMPDEST SWAP1 PUSH0 MSTORE PUSH1 0x20 PUSH0 KECCAK256 ADD PUSH0 ADD PUSH0 SWAP1 SLOAD SWAP1 PUSH2 0x100 EXP SWAP1 DIV PUSH20 0xFFFFFFFFFFFFFFFFFFFFFFFFFFFFFFFFFFFFFFFF AND SWAP1 POP PUSH1 0x40 MLOAD DUP1 PUSH1 0x40 ADD PUSH1 0x40 MSTORE DUP1 DUP3 PUSH20 0xFFFFFFFFFFFFFFFFFFFFFFFFFFFFFFFFFFFFFFFF AND DUP2 MSTORE PUSH1 0x20 ADD DUP3 PUSH20 0xFFFFFFFFFFFFFFFFFFFFFFFFFFFFFFFFFFFFFFFF AND PUSH4 0x70A08231 ADDRESS PUSH1 0x40 MLOAD DUP3 PUSH4 0xFFFFFFFF AND PUSH1 0xE0 SHL DUP2 MSTORE PUSH1 0x4 ADD PUSH2 0x1643 SWAP2 SWAP1 PUSH2 0x1DE3 JUMP JUMPDEST PUSH1 0x20 PUSH1 0x40 MLOAD DUP1 DUP4 SUB DUP2 DUP7 GAS STATICCALL ISZERO DUP1 ISZERO PUSH2 0x165E JUMPI RETURNDATASIZE PUSH0 PUSH0 RETURNDATACOPY RETURNDATASIZE PUSH0 REVERT JUMPDEST POP POP POP POP PUSH1 0x40 MLOAD RETURNDATASIZE PUSH1 0x1F NOT PUSH1 0x1F DUP3 ADD AND DUP3 ADD DUP1 PUSH1 0x40 MSTORE POP DUP2 ADD SWAP1 PUSH2 0x1682 SWAP2 SWAP1 PUSH2 0x284B JUMP JUMPDEST DUP2 MSTORE POP DUP4 DUP4 DUP2 MLOAD DUP2 LT PUSH2 0x1698 JUMPI PUSH2 0x1697 PUSH2 0x27A2 JUMP JUMPDEST JUMPDEST PUSH1 0x20 MUL PUSH1 0x20 ADD ADD DUP2 SWAP1 MSTORE POP POP DUP1 DUP1 PUSH1 0x1 ADD SWAP2 POP POP PUSH2 0x1595 JUMP JUMPDEST POP PUSH0 PUSH1 0x7 DUP1 SLOAD SWAP1 POP PUSH8 0xFFFFFFFFFFFFFFFF DUP2 GT ISZERO PUSH2 0x16D2 JUMPI PUSH2 0x16D1 PUSH2 0x2B4F JUMP JUMPDEST JUMPDEST PUSH1 0x40 MLOAD SWAP1 DUP1 DUP3 MSTORE DUP1 PUSH1 0x20 MUL PUSH1 0x20 ADD DUP3 ADD PUSH1 0x40 MSTORE DUP1 ISZERO PUSH2 0x170B JUMPI DUP2 PUSH1 0x20 ADD JUMPDEST PUSH2 0x16F8 PUSH2 0x1CF8 JUMP JUMPDEST DUP2 MSTORE PUSH1 0x20 ADD SWAP1 PUSH1 0x1 SWAP1 SUB SWAP1 DUP2 PUSH2 0x16F0 JUMPI SWAP1 POP JUMPDEST POP SWAP1 POP PUSH0 PUSH0 SWAP1 POP JUMPDEST PUSH1 0x7 DUP1 SLOAD SWAP1 POP DUP2 LT ISZERO PUSH2 0x187F JUMPI PUSH0 PUSH1 0x7 DUP3 DUP2 SLOAD DUP2 LT PUSH2 0x1735 JUMPI PUSH2 0x1734 PUSH2 0x27A2 JUMP JUMPDEST JUMPDEST SWAP1 PUSH0 MSTORE PUSH1 0x20 PUSH0 KECCAK256 SWAP1 PUSH1 0x3 MUL ADD PUSH1 0x40 MLOAD DUP1 PUSH1 0x60 ADD PUSH1 0x40 MSTORE SWAP1 DUP2 PUSH0 DUP3 ADD PUSH0 SWAP1 SLOAD SWAP1 PUSH2 0x100 EXP SWAP1 DIV PUSH20 0xFFFFFFFFFFFFFFFFFFFFFFFFFFFFFFFFFFFFFFFF AND PUSH20 0xFFFFFFFFFFFFFFFFFFFFFFFFFFFFFFFFFFFFFFFF AND PUSH20 0xFFFFFFFFFFFFFFFFFFFFFFFFFFFFFFFFFFFFFFFF AND DUP2 MSTORE PUSH1 0x20 ADD PUSH1 0x1 DUP3 ADD SLOAD DUP2 MSTORE PUSH1 0x20 ADD PUSH1 0x2 DUP3 ADD PUSH0 SWAP1 SLOAD SWAP1 PUSH2 0x100 EXP SWAP1 DIV PUSH20 0xFFFFFFFFFFFFFFFFFFFFFFFFFFFFFFFFFFFFFFFF AND PUSH20 0xFFFFFFFFFFFFFFFFFFFFFFFFFFFFFFFFFFFFFFFF AND PUSH20 0xFFFFFFFFFFFFFFFFFFFFFFFFFFFFFFFFFFFFFFFF AND DUP2 MSTORE POP POP SWAP1 POP PUSH1 0x40 MLOAD DUP1 PUSH1 0x60 ADD PUSH1 0x40 MSTORE DUP1 DUP3 PUSH0 ADD MLOAD PUSH20 0xFFFFFFFFFFFFFFFFFFFFFFFFFFFFFFFFFFFFFFFF AND DUP2 MSTORE PUSH1 0x20 ADD DUP3 PUSH1 0x20 ADD MLOAD DUP2 MSTORE PUSH1 0x20 ADD DUP3 PUSH1 0x40 ADD MLOAD PUSH20 0xFFFFFFFFFFFFFFFFFFFFFFFFFFFFFFFFFFFFFFFF AND DUP2 MSTORE POP DUP4 DUP4 DUP2 MLOAD DUP2 LT PUSH2 0x1866 JUMPI PUSH2 0x1865 PUSH2 0x27A2 JUMP JUMPDEST JUMPDEST PUSH1 0x20 MUL PUSH1 0x20 ADD ADD DUP2 SWAP1 MSTORE POP POP DUP1 DUP1 PUSH1 0x1 ADD SWAP2 POP POP PUSH2 0x1713 JUMP JUMPDEST POP PUSH1 0x40 MLOAD DUP1 PUSH2 0x120 ADD PUSH1 0x40 MSTORE DUP1 PUSH2 0x1894 PUSH2 0x144F JUMP JUMPDEST PUSH20 0xFFFFFFFFFFFFFFFFFFFFFFFFFFFFFFFFFFFFFFFF AND DUP2 MSTORE PUSH1 0x20 ADD PUSH32 0x0 DUP2 MSTORE PUSH1 0x20 ADD PUSH1 0x3 SLOAD DUP2 MSTORE PUSH1 0x20 ADD PUSH1 0x2 PUSH0 SWAP1 SLOAD SWAP1 PUSH2 0x100 EXP SWAP1 DIV PUSH1 0xFF AND ISZERO ISZERO DUP2 MSTORE PUSH1 0x20 ADD SELFBALANCE DUP2 MSTORE PUSH1 0x20 ADD PUSH1 0x4 DUP1 SLOAD DUP1 PUSH1 0x20 MUL PUSH1 0x20 ADD PUSH1 0x40 MLOAD SWAP1 DUP2 ADD PUSH1 0x40 MSTORE DUP1 SWAP3 SWAP2 SWAP1 DUP2 DUP2 MSTORE PUSH1 0x20 ADD DUP3 DUP1 SLOAD DUP1 ISZERO PUSH2 0x1978 JUMPI PUSH1 0x20 MUL DUP3 ADD SWAP2 SWAP1 PUSH0 MSTORE PUSH1 0x20 PUSH0 KECCAK256 SWAP1 JUMPDEST DUP2 PUSH0 SWAP1 SLOAD SWAP1 PUSH2 0x100 EXP SWAP1 DIV PUSH20 0xFFFFFFFFFFFFFFFFFFFFFFFFFFFFFFFFFFFFFFFF AND PUSH20 0xFFFFFFFFFFFFFFFFFFFFFFFFFFFFFFFFFFFFFFFF AND DUP2 MSTORE PUSH1 0x20 ADD SWAP1 PUSH1 0x1 ADD SWAP1 DUP1 DUP4 GT PUSH2 0x192F JUMPI JUMPDEST POP POP POP POP POP DUP2 MSTORE PUSH1 0x20 ADD PUSH1 0x5 DUP1 SLOAD DUP1 PUSH1 0x20 MUL PUSH1 0x20 ADD PUSH1 0x40 MLOAD SWAP1 DUP2 ADD PUSH1 0x40 MSTORE DUP1 SWAP3 SWAP2 SWAP1 DUP2 DUP2 MSTORE PUSH1 0x20 ADD DUP3 DUP1 SLOAD DUP1 ISZERO PUSH2 0x19CC JUMPI PUSH1 0x20 MUL DUP3 ADD SWAP2 SWAP1 PUSH0 MSTORE PUSH1 0x20 PUSH0 KECCAK256 SWAP1 JUMPDEST DUP2 SLOAD DUP2 MSTORE PUSH1 0x20 ADD SWAP1 PUSH1 0x1 ADD SWAP1 DUP1 DUP4 GT PUSH2 0x19B8 JUMPI JUMPDEST POP POP POP POP POP DUP2 MSTORE PUSH1 0x20 ADD DUP4 DUP2 MSTORE PUSH1 0x20 ADD DUP3 DUP2 MSTORE POP SWAP3 POP POP POP SWAP1 JUMP JUMPDEST PUSH1 0x7 DUP2 DUP2 SLOAD DUP2 LT PUSH2 0x19F6 JUMPI PUSH0 DUP1 REVERT JUMPDEST SWAP1 PUSH0 MSTORE PUSH1 0x20 PUSH0 KECCAK256 SWAP1 PUSH1 0x3 MUL ADD PUSH0 SWAP2 POP SWAP1 POP DUP1 PUSH0 ADD PUSH0 SWAP1 SLOAD SWAP1 PUSH2 0x100 EXP SWAP1 DIV PUSH20 0xFFFFFFFFFFFFFFFFFFFFFFFFFFFFFFFFFFFFFFFF AND SWAP1 DUP1 PUSH1 0x1 ADD SLOAD SWAP1 DUP1 PUSH1 0x2 ADD PUSH0 SWAP1 SLOAD SWAP1 PUSH2 0x100 EXP SWAP1 DIV PUSH20 0xFFFFFFFFFFFFFFFFFFFFFFFFFFFFFFFFFFFFFFFF AND SWAP1 POP DUP4 JUMP JUMPDEST PUSH2 0x1A62 PUSH2 0x1B1C JUMP JUMPDEST PUSH0 PUSH20 0xFFFFFFFFFFFFFFFFFFFFFFFFFFFFFFFFFFFFFFFF AND DUP2 PUSH20 0xFFFFFFFFFFFFFFFFFFFFFFFFFFFFFFFFFFFFFFFF AND SUB PUSH2 0x1AD2 JUMPI PUSH0 PUSH1 0x40 MLOAD PUSH32 0x1E4FBDF700000000000000000000000000000000000000000000000000000000 DUP2 MSTORE PUSH1 0x4 ADD PUSH2 0x1AC9 SWAP2 SWAP1 PUSH2 0x1DE3 JUMP JUMPDEST PUSH1 0x40 MLOAD DUP1 SWAP2 SUB SWAP1 REVERT JUMPDEST PUSH2 0x1ADB DUP2 PUSH2 0x1BA3 JUMP JUMPDEST POP JUMP JUMPDEST PUSH1 0x2 PUSH1 0x1 SLOAD SUB PUSH2 0x1B1A JUMPI PUSH1 0x40 MLOAD PUSH32 0x3EE5AEB500000000000000000000000000000000000000000000000000000000 DUP2 MSTORE PUSH1 0x4 ADD PUSH1 0x40 MLOAD DUP1 SWAP2 SUB SWAP1 REVERT JUMPDEST JUMP JUMPDEST PUSH2 0x1B24 PUSH2 0x1C64 JUMP JUMPDEST PUSH20 0xFFFFFFFFFFFFFFFFFFFFFFFFFFFFFFFFFFFFFFFF AND PUSH2 0x1B42 PUSH2 0x144F JUMP JUMPDEST PUSH20 0xFFFFFFFFFFFFFFFFFFFFFFFFFFFFFFFFFFFFFFFF AND EQ PUSH2 0x1BA1 JUMPI PUSH2 0x1B65 PUSH2 0x1C64 JUMP JUMPDEST PUSH1 0x40 MLOAD PUSH32 0x118CDAA700000000000000000000000000000000000000000000000000000000 DUP2 MSTORE PUSH1 0x4 ADD PUSH2 0x1B98 SWAP2 SWAP1 PUSH2 0x1DE3 JUMP JUMPDEST PUSH1 0x40 MLOAD DUP1 SWAP2 SUB SWAP1 REVERT JUMPDEST JUMP JUMPDEST PUSH0 PUSH0 PUSH0 SWAP1 SLOAD SWAP1 PUSH2 0x100 EXP SWAP1 DIV PUSH20 0xFFFFFFFFFFFFFFFFFFFFFFFFFFFFFFFFFFFFFFFF AND SWAP1 POP DUP2 PUSH0 PUSH0 PUSH2 0x100 EXP DUP2 SLOAD DUP2 PUSH20 0xFFFFFFFFFFFFFFFFFFFFFFFFFFFFFFFFFFFFFFFF MUL NOT AND SWAP1 DUP4 PUSH20 0xFFFFFFFFFFFFFFFFFFFFFFFFFFFFFFFFFFFFFFFF AND MUL OR SWAP1 SSTORE POP DUP2 PUSH20 0xFFFFFFFFFFFFFFFFFFFFFFFFFFFFFFFFFFFFFFFF AND DUP2 PUSH20 0xFFFFFFFFFFFFFFFFFFFFFFFFFFFFFFFFFFFFFFFF AND PUSH32 0x8BE0079C531659141344CD1FD0A4F28419497F9722A3DAAFE3B4186F6B6457E0 PUSH1 0x40 MLOAD PUSH1 0x40 MLOAD DUP1 SWAP2 SUB SWAP1 LOG3 POP POP JUMP JUMPDEST PUSH0 CALLER SWAP1 POP SWAP1 JUMP JUMPDEST PUSH1 0x40 MLOAD DUP1 PUSH2 0x120 ADD PUSH1 0x40 MSTORE DUP1 PUSH0 PUSH20 0xFFFFFFFFFFFFFFFFFFFFFFFFFFFFFFFFFFFFFFFF AND DUP2 MSTORE PUSH1 0x20 ADD PUSH0 DUP2 MSTORE PUSH1 0x20 ADD PUSH0 DUP2 MSTORE PUSH1 0x20 ADD PUSH0 ISZERO ISZERO DUP2 MSTORE PUSH1 0x20 ADD PUSH0 DUP2 MSTORE PUSH1 0x20 ADD PUSH1 0x60 DUP2 MSTORE PUSH1 0x20 ADD PUSH1 0x60 DUP2 MSTORE PUSH1 0x20 ADD PUSH1 0x60 DUP2 MSTORE PUSH1 0x20 ADD PUSH1 0x60 DUP2 MSTORE POP SWAP1 JUMP JUMPDEST PUSH1 0x40 MLOAD DUP1 PUSH1 0x40 ADD PUSH1 0x40 MSTORE DUP1 PUSH0 PUSH20 0xFFFFFFFFFFFFFFFFFFFFFFFFFFFFFFFFFFFFFFFF AND DUP2 MSTORE PUSH1 0x20 ADD PUSH0 DUP2 MSTORE POP SWAP1 JUMP JUMPDEST PUSH1 0x40 MLOAD DUP1 PUSH1 0x60 ADD PUSH1 0x40 MSTORE DUP1 PUSH0 PUSH20 0xFFFFFFFFFFFFFFFFFFFFFFFFFFFFFFFFFFFFFFFF AND DUP2 MSTORE PUSH1 0x20 ADD PUSH0 DUP2 MSTORE PUSH1 0x20 ADD PUSH0 PUSH20 0xFFFFFFFFFFFFFFFFFFFFFFFFFFFFFFFFFFFFFFFF AND DUP2 MSTORE POP SWAP1 JUMP JUMPDEST PUSH0 PUSH0 REVERT JUMPDEST PUSH0 DUP2 SWAP1 POP SWAP2 SWAP1 POP JUMP JUMPDEST PUSH2 0x1D58 DUP2 PUSH2 0x1D46 JUMP JUMPDEST DUP2 EQ PUSH2 0x1D62 JUMPI PUSH0 PUSH0 REVERT JUMPDEST POP JUMP JUMPDEST PUSH0 DUP2 CALLDATALOAD SWAP1 POP PUSH2 0x1D73 DUP2 PUSH2 0x1D4F JUMP JUMPDEST SWAP3 SWAP2 POP POP JUMP JUMPDEST PUSH0 PUSH1 0x20 DUP3 DUP5 SUB SLT ISZERO PUSH2 0x1D8E JUMPI PUSH2 0x1D8D PUSH2 0x1D42 JUMP JUMPDEST JUMPDEST PUSH0 PUSH2 0x1D9B DUP5 DUP3 DUP6 ADD PUSH2 0x1D65 JUMP JUMPDEST SWAP2 POP POP SWAP3 SWAP2 POP POP JUMP JUMPDEST PUSH0 PUSH20 0xFFFFFFFFFFFFFFFFFFFFFFFFFFFFFFFFFFFFFFFF DUP3 AND SWAP1 POP SWAP2 SWAP1 POP JUMP JUMPDEST PUSH0 PUSH2 0x1DCD DUP3 PUSH2 0x1DA4 JUMP JUMPDEST SWAP1 POP SWAP2 SWAP1 POP JUMP JUMPDEST PUSH2 0x1DDD DUP2 PUSH2 0x1DC3 JUMP JUMPDEST DUP3 MSTORE POP POP JUMP JUMPDEST PUSH0 PUSH1 0x20 DUP3 ADD SWAP1 POP PUSH2 0x1DF6 PUSH0 DUP4 ADD DUP5 PUSH2 0x1DD4 JUMP JUMPDEST SWAP3 SWAP2 POP POP JUMP JUMPDEST PUSH2 0x1E05 DUP2 PUSH2 0x1D46 JUMP JUMPDEST DUP3 MSTORE POP POP JUMP JUMPDEST PUSH0 PUSH1 0x20 DUP3 ADD SWAP1 POP PUSH2 0x1E1E PUSH0 DUP4 ADD DUP5 PUSH2 0x1DFC JUMP JUMPDEST SWAP3 SWAP2 POP POP JUMP JUMPDEST PUSH0 DUP2 ISZERO ISZERO SWAP1 POP SWAP2 SWAP1 POP JUMP JUMPDEST PUSH2 0x1E38 DUP2 PUSH2 0x1E24 JUMP JUMPDEST DUP3 MSTORE POP POP JUMP JUMPDEST PUSH0 PUSH1 0x20 DUP3 ADD SWAP1 POP PUSH2 0x1E51 PUSH0 DUP4 ADD DUP5 PUSH2 0x1E2F JUMP JUMPDEST SWAP3 SWAP2 POP POP JUMP JUMPDEST PUSH0 DUP2 SWAP1 POP SWAP2 SWAP1 POP JUMP JUMPDEST PUSH0 PUSH2 0x1E7A PUSH2 0x1E75 PUSH2 0x1E70 DUP5 PUSH2 0x1DA4 JUMP JUMPDEST PUSH2 0x1E57 JUMP JUMPDEST PUSH2 0x1DA4 JUMP JUMPDEST SWAP1 POP SWAP2 SWAP1 POP JUMP JUMPDEST PUSH0 PUSH2 0x1E8B DUP3 PUSH2 0x1E60 JUMP JUMPDEST SWAP1 POP SWAP2 SWAP1 POP JUMP JUMPDEST PUSH0 PUSH2 0x1E9C DUP3 PUSH2 0x1E81 JUMP JUMPDEST SWAP1 POP SWAP2 SWAP1 POP JUMP JUMPDEST PUSH2 0x1EAC DUP2 PUSH2 0x1E92 JUMP JUMPDEST DUP3 MSTORE POP POP JUMP JUMPDEST PUSH0 PUSH1 0x20 DUP3 ADD SWAP1 POP PUSH2 0x1EC5 PUSH0 DUP4 ADD DUP5 PUSH2 0x1EA3 JUMP JUMPDEST SWAP3 SWAP2 POP POP JUMP JUMPDEST PUSH2 0x1ED4 DUP2 PUSH2 0x1DC3 JUMP JUMPDEST DUP3 MSTORE POP POP JUMP JUMPDEST PUSH2 0x1EE3 DUP2 PUSH2 0x1D46 JUMP JUMPDEST DUP3 MSTORE POP POP JUMP JUMPDEST PUSH2 0x1EF2 DUP2 PUSH2 0x1E24 JUMP JUMPDEST DUP3 MSTORE POP POP JUMP JUMPDEST PUSH0 DUP2 MLOAD SWAP1 POP SWAP2 SWAP1 POP JUMP JUMPDEST PUSH0 DUP3 DUP3 MSTORE PUSH1 0x20 DUP3 ADD SWAP1 POP SWAP3 SWAP2 POP POP JUMP JUMPDEST PUSH0 DUP2 SWAP1 POP PUSH1 0x20 DUP3 ADD SWAP1 POP SWAP2 SWAP1 POP JUMP JUMPDEST PUSH0 PUSH2 0x1F2C DUP4 DUP4 PUSH2 0x1ECB JUMP JUMPDEST PUSH1 0x20 DUP4 ADD SWAP1 POP SWAP3 SWAP2 POP POP JUMP JUMPDEST PUSH0 PUSH1 0x20 DUP3 ADD SWAP1 POP SWAP2 SWAP1 POP JUMP JUMPDEST PUSH0 PUSH2 0x1F4E DUP3 PUSH2 0x1EF8 JUMP JUMPDEST PUSH2 0x1F58 DUP2 DUP6 PUSH2 0x1F02 JUMP JUMPDEST SWAP4 POP PUSH2 0x1F63 DUP4 PUSH2 0x1F12 JUMP JUMPDEST DUP1 PUSH0 JUMPDEST DUP4 DUP2 LT ISZERO PUSH2 0x1F93 JUMPI DUP2 MLOAD PUSH2 0x1F7A DUP9 DUP3 PUSH2 0x1F21 JUMP JUMPDEST SWAP8 POP PUSH2 0x1F85 DUP4 PUSH2 0x1F38 JUMP JUMPDEST SWAP3 POP POP PUSH1 0x1 DUP2 ADD SWAP1 POP PUSH2 0x1F66 JUMP JUMPDEST POP DUP6 SWAP4 POP POP POP POP SWAP3 SWAP2 POP POP JUMP JUMPDEST PUSH0 DUP2 MLOAD SWAP1 POP SWAP2 SWAP1 POP JUMP JUMPDEST PUSH0 DUP3 DUP3 MSTORE PUSH1 0x20 DUP3 ADD SWAP1 POP SWAP3 SWAP2 POP POP JUMP JUMPDEST PUSH0 DUP2 SWAP1 POP PUSH1 0x20 DUP3 ADD SWAP1 POP SWAP2 SWAP1 POP JUMP JUMPDEST PUSH0 PUSH2 0x1FD4 DUP4 DUP4 PUSH2 0x1EDA JUMP JUMPDEST PUSH1 0x20 DUP4 ADD SWAP1 POP SWAP3 SWAP2 POP POP JUMP JUMPDEST PUSH0 PUSH1 0x20 DUP3 ADD SWAP1 POP SWAP2 SWAP1 POP JUMP JUMPDEST PUSH0 PUSH2 0x1FF6 DUP3 PUSH2 0x1FA0 JUMP JUMPDEST PUSH2 0x2000 DUP2 DUP6 PUSH2 0x1FAA JUMP JUMPDEST SWAP4 POP PUSH2 0x200B DUP4 PUSH2 0x1FBA JUMP JUMPDEST DUP1 PUSH0 JUMPDEST DUP4 DUP2 LT ISZERO PUSH2 0x203B JUMPI DUP2 MLOAD PUSH2 0x2022 DUP9 DUP3 PUSH2 0x1FC9 JUMP JUMPDEST SWAP8 POP PUSH2 0x202D DUP4 PUSH2 0x1FE0 JUMP JUMPDEST SWAP3 POP POP PUSH1 0x1 DUP2 ADD SWAP1 POP PUSH2 0x200E JUMP JUMPDEST POP DUP6 SWAP4 POP POP POP POP SWAP3 SWAP2 POP POP JUMP JUMPDEST PUSH0 DUP2 MLOAD SWAP1 POP SWAP2 SWAP1 POP JUMP JUMPDEST PUSH0 DUP3 DUP3 MSTORE PUSH1 0x20 DUP3 ADD SWAP1 POP SWAP3 SWAP2 POP POP JUMP JUMPDEST PUSH0 DUP2 SWAP1 POP PUSH1 0x20 DUP3 ADD SWAP1 POP SWAP2 SWAP1 POP JUMP JUMPDEST PUSH1 0x40 DUP3 ADD PUSH0 DUP3 ADD MLOAD PUSH2 0x2085 PUSH0 DUP6 ADD DUP3 PUSH2 0x1ECB JUMP JUMPDEST POP PUSH1 0x20 DUP3 ADD MLOAD PUSH2 0x2098 PUSH1 0x20 DUP6 ADD DUP3 PUSH2 0x1EDA JUMP JUMPDEST POP POP POP POP JUMP JUMPDEST PUSH0 PUSH2 0x20A9 DUP4 DUP4 PUSH2 0x2071 JUMP JUMPDEST PUSH1 0x40 DUP4 ADD SWAP1 POP SWAP3 SWAP2 POP POP JUMP JUMPDEST PUSH0 PUSH1 0x20 DUP3 ADD SWAP1 POP SWAP2 SWAP1 POP JUMP JUMPDEST PUSH0 PUSH2 0x20CB DUP3 PUSH2 0x2048 JUMP JUMPDEST PUSH2 0x20D5 DUP2 DUP6 PUSH2 0x2052 JUMP JUMPDEST SWAP4 POP PUSH2 0x20E0 DUP4 PUSH2 0x2062 JUMP JUMPDEST DUP1 PUSH0 JUMPDEST DUP4 DUP2 LT ISZERO PUSH2 0x2110 JUMPI DUP2 MLOAD PUSH2 0x20F7 DUP9 DUP3 PUSH2 0x209E JUMP JUMPDEST SWAP8 POP PUSH2 0x2102 DUP4 PUSH2 0x20B5 JUMP JUMPDEST SWAP3 POP POP PUSH1 0x1 DUP2 ADD SWAP1 POP PUSH2 0x20E3 JUMP JUMPDEST POP DUP6 SWAP4 POP POP POP POP SWAP3 SWAP2 POP POP JUMP JUMPDEST PUSH0 DUP2 MLOAD SWAP1 POP SWAP2 SWAP1 POP JUMP JUMPDEST PUSH0 DUP3 DUP3 MSTORE PUSH1 0x20 DUP3 ADD SWAP1 POP SWAP3 SWAP2 POP POP JUMP JUMPDEST PUSH0 DUP2 SWAP1 POP PUSH1 0x20 DUP3 ADD SWAP1 POP SWAP2 SWAP1 POP JUMP JUMPDEST PUSH1 0x60 DUP3 ADD PUSH0 DUP3 ADD MLOAD PUSH2 0x215A PUSH0 DUP6 ADD DUP3 PUSH2 0x1ECB JUMP JUMPDEST POP PUSH1 0x20 DUP3 ADD MLOAD PUSH2 0x216D PUSH1 0x20 DUP6 ADD DUP3 PUSH2 0x1EDA JUMP JUMPDEST POP PUSH1 0x40 DUP3 ADD MLOAD PUSH2 0x2180 PUSH1 0x40 DUP6 ADD DUP3 PUSH2 0x1ECB JUMP JUMPDEST POP POP POP POP JUMP JUMPDEST PUSH0 PUSH2 0x2191 DUP4 DUP4 PUSH2 0x2146 JUMP JUMPDEST PUSH1 0x60 DUP4 ADD SWAP1 POP SWAP3 SWAP2 POP POP JUMP JUMPDEST PUSH0 PUSH1 0x20 DUP3 ADD SWAP1 POP SWAP2 SWAP1 POP JUMP JUMPDEST PUSH0 PUSH2 0x21B3 DUP3 PUSH2 0x211D JUMP JUMPDEST PUSH2 0x21BD DUP2 DUP6 PUSH2 0x2127 JUMP JUMPDEST SWAP4 POP PUSH2 0x21C8 DUP4 PUSH2 0x2137 JUMP JUMPDEST DUP1 PUSH0 JUMPDEST DUP4 DUP2 LT ISZERO PUSH2 0x21F8 JUMPI DUP2 MLOAD PUSH2 0x21DF DUP9 DUP3 PUSH2 0x2186 JUMP JUMPDEST SWAP8 POP PUSH2 0x21EA DUP4 PUSH2 0x219D JUMP JUMPDEST SWAP3 POP POP PUSH1 0x1 DUP2 ADD SWAP1 POP PUSH2 0x21CB JUMP JUMPDEST POP DUP6 SWAP4 POP POP POP POP SWAP3 SWAP2 POP POP JUMP JUMPDEST PUSH0 PUSH2 0x120 DUP4 ADD PUSH0 DUP4 ADD MLOAD PUSH2 0x221B PUSH0 DUP7 ADD DUP3 PUSH2 0x1ECB JUMP JUMPDEST POP PUSH1 0x20 DUP4 ADD MLOAD PUSH2 0x222E PUSH1 0x20 DUP7 ADD DUP3 PUSH2 0x1EDA JUMP JUMPDEST POP PUSH1 0x40 DUP4 ADD MLOAD PUSH2 0x2241 PUSH1 0x40 DUP7 ADD DUP3 PUSH2 0x1EDA JUMP JUMPDEST POP PUSH1 0x60 DUP4 ADD MLOAD PUSH2 0x2254 PUSH1 0x60 DUP7 ADD DUP3 PUSH2 0x1EE9 JUMP JUMPDEST POP PUSH1 0x80 DUP4 ADD MLOAD PUSH2 0x2267 PUSH1 0x80 DUP7 ADD DUP3 PUSH2 0x1EDA JUMP JUMPDEST POP PUSH1 0xA0 DUP4 ADD MLOAD DUP5 DUP3 SUB PUSH1 0xA0 DUP7 ADD MSTORE PUSH2 0x227F DUP3 DUP3 PUSH2 0x1F44 JUMP JUMPDEST SWAP2 POP POP PUSH1 0xC0 DUP4 ADD MLOAD DUP5 DUP3 SUB PUSH1 0xC0 DUP7 ADD MSTORE PUSH2 0x2299 DUP3 DUP3 PUSH2 0x1FEC JUMP JUMPDEST SWAP2 POP POP PUSH1 0xE0 DUP4 ADD MLOAD DUP5 DUP3 SUB PUSH1 0xE0 DUP7 ADD MSTORE PUSH2 0x22B3 DUP3 DUP3 PUSH2 0x20C1 JUMP JUMPDEST SWAP2 POP POP PUSH2 0x100 DUP4 ADD MLOAD DUP5 DUP3 SUB PUSH2 0x100 DUP7 ADD MSTORE PUSH2 0x22CF DUP3 DUP3 PUSH2 0x21A9 JUMP JUMPDEST SWAP2 POP POP DUP1 SWAP2 POP POP SWAP3 SWAP2 POP POP JUMP JUMPDEST PUSH0 PUSH1 0x20 DUP3 ADD SWAP1 POP DUP2 DUP2 SUB PUSH0 DUP4 ADD MSTORE PUSH2 0x22F4 DUP2 DUP5 PUSH2 0x2205 JUMP JUMPDEST SWAP1 POP SWAP3 SWAP2 POP POP JUMP JUMPDEST PUSH0 PUSH2 0x2306 DUP3 PUSH2 0x1E81 JUMP JUMPDEST SWAP1 POP SWAP2 SWAP1 POP JUMP JUMPDEST PUSH2 0x2316 DUP2 PUSH2 0x22FC JUMP JUMPDEST DUP3 MSTORE POP POP JUMP JUMPDEST PUSH0 PUSH1 0x60 DUP3 ADD SWAP1 POP PUSH2 0x232F PUSH0 DUP4 ADD DUP7 PUSH2 0x230D JUMP JUMPDEST PUSH2 0x233C PUSH1 0x20 DUP4 ADD DUP6 PUSH2 0x1DFC JUMP JUMPDEST PUSH2 0x2349 PUSH1 0x40 DUP4 ADD DUP5 PUSH2 0x1DD4 JUMP JUMPDEST SWAP5 SWAP4 POP POP POP POP JUMP JUMPDEST PUSH2 0x235A DUP2 PUSH2 0x1DC3 JUMP JUMPDEST DUP2 EQ PUSH2 0x2364 JUMPI PUSH0 PUSH0 REVERT JUMPDEST POP JUMP JUMPDEST PUSH0 DUP2 CALLDATALOAD SWAP1 POP PUSH2 0x2375 DUP2 PUSH2 0x2351 JUMP JUMPDEST SWAP3 SWAP2 POP POP JUMP JUMPDEST PUSH0 PUSH1 0x20 DUP3 DUP5 SUB SLT ISZERO PUSH2 0x2390 JUMPI PUSH2 0x238F PUSH2 0x1D42 JUMP JUMPDEST JUMPDEST PUSH0 PUSH2 0x239D DUP5 DUP3 DUP6 ADD PUSH2 0x2367 JUMP JUMPDEST SWAP2 POP POP SWAP3 SWAP2 POP POP JUMP JUMPDEST PUSH0 DUP3 DUP3 MSTORE PUSH1 0x20 DUP3 ADD SWAP1 POP SWAP3 SWAP2 POP POP JUMP JUMPDEST PUSH32 0x57696C6C20686173206265656E206578656375746564206F722063616E63656C PUSH0 DUP3 ADD MSTORE PUSH32 0x6C65642E00000000000000000000000000000000000000000000000000000000 PUSH1 0x20 DUP3 ADD MSTORE POP JUMP JUMPDEST PUSH0 PUSH2 0x2410 PUSH1 0x24 DUP4 PUSH2 0x23A6 JUMP JUMPDEST SWAP2 POP PUSH2 0x241B DUP3 PUSH2 0x23B6 JUMP JUMPDEST PUSH1 0x40 DUP3 ADD SWAP1 POP SWAP2 SWAP1 POP JUMP JUMPDEST PUSH0 PUSH1 0x20 DUP3 ADD SWAP1 POP DUP2 DUP2 SUB PUSH0 DUP4 ADD MSTORE PUSH2 0x243D DUP2 PUSH2 0x2404 JUMP JUMPDEST SWAP1 POP SWAP2 SWAP1 POP JUMP JUMPDEST PUSH32 0x4F6E6C7920746865206F776E65722063616E2063616C6C20746869732066756E PUSH0 DUP3 ADD MSTORE PUSH32 0x6374696F6E2E0000000000000000000000000000000000000000000000000000 PUSH1 0x20 DUP3 ADD MSTORE POP JUMP JUMPDEST PUSH0 PUSH2 0x249E PUSH1 0x26 DUP4 PUSH2 0x23A6 JUMP JUMPDEST SWAP2 POP PUSH2 0x24A9 DUP3 PUSH2 0x2444 JUMP JUMPDEST PUSH1 0x40 DUP3 ADD SWAP1 POP SWAP2 SWAP1 POP JUMP JUMPDEST PUSH0 PUSH1 0x20 DUP3 ADD SWAP1 POP DUP2 DUP2 SUB PUSH0 DUP4 ADD MSTORE PUSH2 0x24CB DUP2 PUSH2 0x2492 JUMP JUMPDEST SWAP1 POP SWAP2 SWAP1 POP JUMP JUMPDEST PUSH32 0x4E487B7100000000000000000000000000000000000000000000000000000000 PUSH0 MSTORE PUSH1 0x11 PUSH1 0x4 MSTORE PUSH1 0x24 PUSH0 REVERT JUMPDEST PUSH0 PUSH2 0x2509 DUP3 PUSH2 0x1D46 JUMP JUMPDEST SWAP2 POP PUSH2 0x2514 DUP4 PUSH2 0x1D46 JUMP JUMPDEST SWAP3 POP DUP3 DUP3 ADD SWAP1 POP DUP1 DUP3 GT ISZERO PUSH2 0x252C JUMPI PUSH2 0x252B PUSH2 0x24D2 JUMP JUMPDEST JUMPDEST SWAP3 SWAP2 POP POP JUMP JUMPDEST PUSH32 0x477261636520706572696F6420686173206E6F7420656E6465642E0000000000 PUSH0 DUP3 ADD MSTORE POP JUMP JUMPDEST PUSH0 PUSH2 0x2566 PUSH1 0x1B DUP4 PUSH2 0x23A6 JUMP JUMPDEST SWAP2 POP PUSH2 0x2571 DUP3 PUSH2 0x2532 JUMP JUMPDEST PUSH1 0x20 DUP3 ADD SWAP1 POP SWAP2 SWAP1 POP JUMP JUMPDEST PUSH0 PUSH1 0x20 DUP3 ADD SWAP1 POP DUP2 DUP2 SUB PUSH0 DUP4 ADD MSTORE PUSH2 0x2593 DUP2 PUSH2 0x255A JUMP JUMPDEST SWAP1 POP SWAP2 SWAP1 POP JUMP JUMPDEST PUSH32 0x4F6E6C79207468652064657369676E61746564206578656375746F722063616E PUSH0 DUP3 ADD MSTORE PUSH32 0x2063616C6C2074686973206E6F772E0000000000000000000000000000000000 PUSH1 0x20 DUP3 ADD MSTORE POP JUMP JUMPDEST PUSH0 PUSH2 0x25F4 PUSH1 0x2F DUP4 PUSH2 0x23A6 JUMP JUMPDEST SWAP2 POP PUSH2 0x25FF DUP3 PUSH2 0x259A JUMP JUMPDEST PUSH1 0x40 DUP3 ADD SWAP1 POP SWAP2 SWAP1 POP JUMP JUMPDEST PUSH0 PUSH1 0x20 DUP3 ADD SWAP1 POP DUP2 DUP2 SUB PUSH0 DUP4 ADD MSTORE PUSH2 0x2621 DUP2 PUSH2 0x25E8 JUMP JUMPDEST SWAP1 POP SWAP2 SWAP1 POP JUMP JUMPDEST PUSH0 PUSH2 0x2632 DUP3 PUSH2 0x1D46 JUMP JUMPDEST SWAP2 POP PUSH2 0x263D DUP4 PUSH2 0x1D46 JUMP JUMPDEST SWAP3 POP DUP3 DUP3 MUL PUSH2 0x264B DUP2 PUSH2 0x1D46 JUMP JUMPDEST SWAP2 POP DUP3 DUP3 DIV DUP5 EQ DUP4 ISZERO OR PUSH2 0x2662 JUMPI PUSH2 0x2661 PUSH2 0x24D2 JUMP JUMPDEST JUMPDEST POP SWAP3 SWAP2 POP POP JUMP JUMPDEST PUSH32 0x4E487B7100000000000000000000000000000000000000000000000000000000 PUSH0 MSTORE PUSH1 0x12 PUSH1 0x4 MSTORE PUSH1 0x24 PUSH0 REVERT JUMPDEST PUSH0 PUSH2 0x26A0 DUP3 PUSH2 0x1D46 JUMP JUMPDEST SWAP2 POP PUSH2 0x26AB DUP4 PUSH2 0x1D46 JUMP JUMPDEST SWAP3 POP DUP3 PUSH2 0x26BB JUMPI PUSH2 0x26BA PUSH2 0x2669 JUMP JUMPDEST JUMPDEST DUP3 DUP3 DIV SWAP1 POP SWAP3 SWAP2 POP POP JUMP JUMPDEST PUSH0 PUSH2 0x26D0 DUP3 PUSH2 0x1D46 JUMP JUMPDEST SWAP2 POP PUSH2 0x26DB DUP4 PUSH2 0x1D46 JUMP JUMPDEST SWAP3 POP DUP3 DUP3 SUB SWAP1 POP DUP2 DUP2 GT ISZERO PUSH2 0x26F3 JUMPI PUSH2 0x26F2 PUSH2 0x24D2 JUMP JUMPDEST JUMPDEST SWAP3 SWAP2 POP POP JUMP JUMPDEST PUSH0 DUP2 SWAP1 POP SWAP3 SWAP2 POP POP JUMP JUMPDEST POP JUMP JUMPDEST PUSH0 PUSH2 0x2711 PUSH0 DUP4 PUSH2 0x26F9 JUMP JUMPDEST SWAP2 POP PUSH2 0x271C DUP3 PUSH2 0x2703 JUMP JUMPDEST PUSH0 DUP3 ADD SWAP1 POP SWAP2 SWAP1 POP JUMP JUMPDEST PUSH0 PUSH2 0x2730 DUP3 PUSH2 0x2706 JUMP JUMPDEST SWAP2 POP DUP2 SWAP1 POP SWAP2 SWAP1 POP JUMP JUMPDEST PUSH32 0x45544820666565207472616E73666572206661696C65642E0000000000000000 PUSH0 DUP3 ADD MSTORE POP JUMP JUMPDEST PUSH0 PUSH2 0x276E PUSH1 0x18 DUP4 PUSH2 0x23A6 JUMP JUMPDEST SWAP2 POP PUSH2 0x2779 DUP3 PUSH2 0x273A JUMP JUMPDEST PUSH1 0x20 DUP3 ADD SWAP1 POP SWAP2 SWAP1 POP JUMP JUMPDEST PUSH0 PUSH1 0x20 DUP3 ADD SWAP1 POP DUP2 DUP2 SUB PUSH0 DUP4 ADD MSTORE PUSH2 0x279B DUP2 PUSH2 0x2762 JUMP JUMPDEST SWAP1 POP SWAP2 SWAP1 POP JUMP JUMPDEST PUSH32 0x4E487B7100000000000000000000000000000000000000000000000000000000 PUSH0 MSTORE PUSH1 0x32 PUSH1 0x4 MSTORE PUSH1 0x24 PUSH0 REVERT JUMPDEST PUSH32 0x455448207472616E7366657220746F2068656972206661696C65642E00000000 PUSH0 DUP3 ADD MSTORE POP JUMP JUMPDEST PUSH0 PUSH2 0x2803 PUSH1 0x1C DUP4 PUSH2 0x23A6 JUMP JUMPDEST SWAP2 POP PUSH2 0x280E DUP3 PUSH2 0x27CF JUMP JUMPDEST PUSH1 0x20 DUP3 ADD SWAP1 POP SWAP2 SWAP1 POP JUMP JUMPDEST PUSH0 PUSH1 0x20 DUP3 ADD SWAP1 POP DUP2 DUP2 SUB PUSH0 DUP4 ADD MSTORE PUSH2 0x2830 DUP2 PUSH2 0x27F7 JUMP JUMPDEST SWAP1 POP SWAP2 SWAP1 POP JUMP JUMPDEST PUSH0 DUP2 MLOAD SWAP1 POP PUSH2 0x2845 DUP2 PUSH2 0x1D4F JUMP JUMPDEST SWAP3 SWAP2 POP POP JUMP JUMPDEST PUSH0 PUSH1 0x20 DUP3 DUP5 SUB SLT ISZERO PUSH2 0x2860 JUMPI PUSH2 0x285F PUSH2 0x1D42 JUMP JUMPDEST JUMPDEST PUSH0 PUSH2 0x286D DUP5 DUP3 DUP6 ADD PUSH2 0x2837 JUMP JUMPDEST SWAP2 POP POP SWAP3 SWAP2 POP POP JUMP JUMPDEST PUSH0 PUSH1 0x40 DUP3 ADD SWAP1 POP PUSH2 0x2889 PUSH0 DUP4 ADD DUP6 PUSH2 0x1DD4 JUMP JUMPDEST PUSH2 0x2896 PUSH1 0x20 DUP4 ADD DUP5 PUSH2 0x1DFC JUMP JUMPDEST SWAP4 SWAP3 POP POP POP JUMP JUMPDEST PUSH2 0x28A6 DUP2 PUSH2 0x1E24 JUMP JUMPDEST DUP2 EQ PUSH2 0x28B0 JUMPI PUSH0 PUSH0 REVERT JUMPDEST POP JUMP JUMPDEST PUSH0 DUP2 MLOAD SWAP1 POP PUSH2 0x28C1 DUP2 PUSH2 0x289D JUMP JUMPDEST SWAP3 SWAP2 POP POP JUMP JUMPDEST PUSH0 PUSH1 0x20 DUP3 DUP5 SUB SLT ISZERO PUSH2 0x28DC JUMPI PUSH2 0x28DB PUSH2 0x1D42 JUMP JUMPDEST JUMPDEST PUSH0 PUSH2 0x28E9 DUP5 DUP3 DUP6 ADD PUSH2 0x28B3 JUMP JUMPDEST SWAP2 POP POP SWAP3 SWAP2 POP POP JUMP JUMPDEST PUSH0 PUSH1 0x60 DUP3 ADD SWAP1 POP PUSH2 0x2905 PUSH0 DUP4 ADD DUP7 PUSH2 0x1DD4 JUMP JUMPDEST PUSH2 0x2912 PUSH1 0x20 DUP4 ADD DUP6 PUSH2 0x1DD4 JUMP JUMPDEST PUSH2 0x291F PUSH1 0x40 DUP4 ADD DUP5 PUSH2 0x1DFC JUMP JUMPDEST SWAP5 SWAP4 POP POP POP POP JUMP JUMPDEST PUSH0 PUSH1 0x60 DUP3 ADD SWAP1 POP PUSH2 0x293A PUSH0 DUP4 ADD DUP7 PUSH2 0x1DD4 JUMP JUMPDEST PUSH2 0x2947 PUSH1 0x20 DUP4 ADD DUP6 PUSH2 0x1DFC JUMP JUMPDEST PUSH2 0x2954 PUSH1 0x40 DUP4 ADD DUP5 PUSH2 0x1DD4 JUMP JUMPDEST SWAP5 SWAP4 POP POP POP POP JUMP JUMPDEST PUSH32 0x496E73756666696369656E742045544820666F72207465726D696E6174696F6E PUSH0 DUP3 ADD MSTORE PUSH32 0x206665652E000000000000000000000000000000000000000000000000000000 PUSH1 0x20 DUP3 ADD MSTORE POP JUMP JUMPDEST PUSH0 PUSH2 0x29B6 PUSH1 0x25 DUP4 PUSH2 0x23A6 JUMP JUMPDEST SWAP2 POP PUSH2 0x29C1 DUP3 PUSH2 0x295C JUMP JUMPDEST PUSH1 0x40 DUP3 ADD SWAP1 POP SWAP2 SWAP1 POP JUMP JUMPDEST PUSH0 PUSH1 0x20 DUP3 ADD SWAP1 POP DUP2 DUP2 SUB PUSH0 DUP4 ADD MSTORE PUSH2 0x29E3 DUP2 PUSH2 0x29AA JUMP JUMPDEST SWAP1 POP SWAP2 SWAP1 POP JUMP JUMPDEST PUSH32 0x5465726D696E6174696F6E20666565207472616E73666572206661696C65642E PUSH0 DUP3 ADD MSTORE POP JUMP JUMPDEST PUSH0 PUSH2 0x2A1E PUSH1 0x20 DUP4 PUSH2 0x23A6 JUMP JUMPDEST SWAP2 POP PUSH2 0x2A29 DUP3 PUSH2 0x29EA JUMP JUMPDEST PUSH1 0x20 DUP3 ADD SWAP1 POP SWAP2 SWAP1 POP JUMP JUMPDEST PUSH0 PUSH1 0x20 DUP3 ADD SWAP1 POP DUP2 DUP2 SUB PUSH0 DUP4 ADD MSTORE PUSH2 0x2A4B DUP2 PUSH2 0x2A12 JUMP JUMPDEST SWAP1 POP SWAP2 SWAP1 POP JUMP JUMPDEST PUSH0 PUSH2 0x2A5C DUP3 PUSH2 0x1E81 JUMP JUMPDEST SWAP1 POP SWAP2 SWAP1 POP JUMP JUMPDEST PUSH2 0x2A6C DUP2 PUSH2 0x2A52 JUMP JUMPDEST DUP3 MSTORE POP POP JUMP JUMPDEST PUSH0 PUSH1 0x20 DUP3 ADD SWAP1 POP PUSH2 0x2A85 PUSH0 DUP4 ADD DUP5 PUSH2 0x2A63 JUMP JUMPDEST SWAP3 SWAP2 POP POP JUMP JUMPDEST PUSH0 PUSH1 0x40 DUP3 ADD SWAP1 POP PUSH2 0x2A9E PUSH0 DUP4 ADD DUP6 PUSH2 0x2A63 JUMP JUMPDEST PUSH2 0x2AAB PUSH1 0x20 DUP4 ADD DUP5 PUSH2 0x1DFC JUMP JUMPDEST SWAP4 SWAP3 POP POP POP JUMP JUMPDEST PUSH0 PUSH1 0x60 DUP3 ADD SWAP1 POP PUSH2 0x2AC5 PUSH0 DUP4 ADD DUP7 PUSH2 0x1DD4 JUMP JUMPDEST PUSH2 0x2AD2 PUSH1 0x20 DUP4 ADD DUP6 PUSH2 0x2A63 JUMP JUMPDEST PUSH2 0x2ADF PUSH1 0x40 DUP4 ADD DUP5 PUSH2 0x1DFC JUMP JUMPDEST SWAP5 SWAP4 POP POP POP POP JUMP JUMPDEST PUSH32 0x455448207472616E73666572206661696C65642E000000000000000000000000 PUSH0 DUP3 ADD MSTORE POP JUMP JUMPDEST PUSH0 PUSH2 0x2B1B PUSH1 0x14 DUP4 PUSH2 0x23A6 JUMP JUMPDEST SWAP2 POP PUSH2 0x2B26 DUP3 PUSH2 0x2AE7 JUMP JUMPDEST PUSH1 0x20 DUP3 ADD SWAP1 POP SWAP2 SWAP1 POP JUMP JUMPDEST PUSH0 PUSH1 0x20 DUP3 ADD SWAP1 POP DUP2 DUP2 SUB PUSH0 DUP4 ADD MSTORE PUSH2 0x2B48 DUP2 PUSH2 0x2B0F JUMP JUMPDEST SWAP1 POP SWAP2 SWAP1 POP JUMP JUMPDEST PUSH32 0x4E487B7100000000000000000000000000000000000000000000000000000000 PUSH0 MSTORE PUSH1 0x41 PUSH1 0x4 MSTORE PUSH1 0x24 PUSH0 REVERT INVALID LOG2 PUSH5 0x6970667358 0x22 SLT KECCAK256 LOG4 0x2A SUB 0xDE SWAP3 0xA8 PUSH13 0xDC95E5662307E40BF93AE4D7FB DUP1 TLOAD DUP14 PUSH14 0xDD58CB7815DA9D2864736F6C6343 STOP ADDMOD 0x1E STOP CALLER "
				},
				"gasEstimates": {
					"creation": {
						"codeDepositCost": "2237200",
						"executionCost": "infinite",
						"totalCost": "infinite"
					},
					"external": {
						"EXECUTION_FEE_BPS()": "393",
						"cancelAndWithdraw()": "infinite",
						"distributionPercentages(uint256)": "infinite",
						"erc20Assets(uint256)": "infinite",
						"erc721Assets(uint256)": "infinite",
						"execute()": "infinite",
						"executed()": "2556",
						"getContractBalance()": "423",
						"getWillDetails()": "infinite",
						"heirs(uint256)": "4968",
						"interval()": "infinite",
						"lastUpdate()": "2447",
						"owner()": "2537",
						"ping()": "29924",
						"renounceOwnership()": "infinite",
						"sourceContract()": "infinite",
						"terminationFee()": "infinite",
						"transferOwnership(address)": "infinite"
					}
				},
				"methodIdentifiers": {
					"EXECUTION_FEE_BPS()": "2395d975",
					"cancelAndWithdraw()": "6b892b22",
					"distributionPercentages(uint256)": "1f99966a",
					"erc20Assets(uint256)": "9379f517",
					"erc721Assets(uint256)": "e15724a5",
					"execute()": "61461954",
					"executed()": "31a38c89",
					"getContractBalance()": "6f9fb98a",
					"getWillDetails()": "cc4f9d5b",
					"heirs(uint256)": "1c0795c3",
					"interval()": "947a36fb",
					"lastUpdate()": "c0463711",
					"owner()": "8da5cb5b",
					"ping()": "5c36b186",
					"renounceOwnership()": "715018a6",
					"sourceContract()": "a444ae41",
					"terminationFee()": "c7c85baa",
					"transferOwnership(address)": "f2fde38b"
				}
			},
			"storageLayout": {
				"storage": [
					{
						"astId": 8,
						"contract": "Will.sol:Will",
						"label": "_owner",
						"offset": 0,
						"slot": "0",
						"type": "t_address"
					},
					{
						"astId": 398,
						"contract": "Will.sol:Will",
						"label": "_status",
						"offset": 0,
						"slot": "1",
						"type": "t_uint256"
					},
					{
						"astId": 510,
						"contract": "Will.sol:Will",
						"label": "executed",
						"offset": 0,
						"slot": "2",
						"type": "t_bool"
					},
					{
						"astId": 512,
						"contract": "Will.sol:Will",
						"label": "lastUpdate",
						"offset": 0,
						"slot": "3",
						"type": "t_uint256"
					},
					{
						"astId": 521,
						"contract": "Will.sol:Will",
						"label": "heirs",
						"offset": 0,
						"slot": "4",
						"type": "t_array(t_address)dyn_storage"
					},
					{
						"astId": 524,
						"contract": "Will.sol:Will",
						"label": "distributionPercentages",
						"offset": 0,
						"slot": "5",
						"type": "t_array(t_uint256)dyn_storage"
					},
					{
						"astId": 528,
						"contract": "Will.sol:Will",
						"label": "erc20Assets",
						"offset": 0,
						"slot": "6",
						"type": "t_array(t_struct(Erc20Asset)491_storage)dyn_storage"
					},
					{
						"astId": 532,
						"contract": "Will.sol:Will",
						"label": "erc721Assets",
						"offset": 0,
						"slot": "7",
						"type": "t_array(t_struct(Erc721Asset)499_storage)dyn_storage"
					}
				],
				"types": {
					"t_address": {
						"encoding": "inplace",
						"label": "address",
						"numberOfBytes": "20"
					},
					"t_array(t_address)dyn_storage": {
						"base": "t_address",
						"encoding": "dynamic_array",
						"label": "address[]",
						"numberOfBytes": "32"
					},
					"t_array(t_struct(Erc20Asset)491_storage)dyn_storage": {
						"base": "t_struct(Erc20Asset)491_storage",
						"encoding": "dynamic_array",
						"label": "struct Will.Erc20Asset[]",
						"numberOfBytes": "32"
					},
					"t_array(t_struct(Erc721Asset)499_storage)dyn_storage": {
						"base": "t_struct(Erc721Asset)499_storage",
						"encoding": "dynamic_array",
						"label": "struct Will.Erc721Asset[]",
						"numberOfBytes": "32"
					},
					"t_array(t_uint256)dyn_storage": {
						"base": "t_uint256",
						"encoding": "dynamic_array",
						"label": "uint256[]",
						"numberOfBytes": "32"
					},
					"t_bool": {
						"encoding": "inplace",
						"label": "bool",
						"numberOfBytes": "1"
					},
					"t_contract(IERC20)225": {
						"encoding": "inplace",
						"label": "contract IERC20",
						"numberOfBytes": "20"
					},
					"t_contract(IERC721)342": {
						"encoding": "inplace",
						"label": "contract IERC721",
						"numberOfBytes": "20"
					},
					"t_struct(Erc20Asset)491_storage": {
						"encoding": "inplace",
						"label": "struct Will.Erc20Asset",
						"members": [
							{
								"astId": 490,
								"contract": "Will.sol:Will",
								"label": "token",
								"offset": 0,
								"slot": "0",
								"type": "t_contract(IERC20)225"
							}
						],
						"numberOfBytes": "32"
					},
					"t_struct(Erc721Asset)499_storage": {
						"encoding": "inplace",
						"label": "struct Will.Erc721Asset",
						"members": [
							{
								"astId": 494,
								"contract": "Will.sol:Will",
								"label": "token",
								"offset": 0,
								"slot": "0",
								"type": "t_contract(IERC721)342"
							},
							{
								"astId": 496,
								"contract": "Will.sol:Will",
								"label": "tokenId",
								"offset": 0,
								"slot": "1",
								"type": "t_uint256"
							},
							{
								"astId": 498,
								"contract": "Will.sol:Will",
								"label": "heir",
								"offset": 0,
								"slot": "2",
								"type": "t_address"
							}
						],
						"numberOfBytes": "96"
					},
					"t_uint256": {
						"encoding": "inplace",
						"label": "uint256",
						"numberOfBytes": "32"
					}
				}
			},
			"userdoc": {
				"kind": "user",
				"methods": {
					"getWillDetails()": {
						"notice": "Returns all relevant data for a will in a single call for frontend use."
					}
				},
				"notice": "A smart contract for an individual will or estate plan.",
				"version": 1
			}
		}
	}
}