{
	"Will.sol": {
		"Will": {
			"abi": [
				{
					"inputs": [
						{
							"internalType": "address",
							"name": "initialOwner",
							"type": "address"
						},
						{
							"internalType": "address",
							"name": "_sourceContract",
							"type": "address"
						},
						{
							"internalType": "bool",
							"name": "_hasDiary",
							"type": "bool"
						},
						{
							"internalType": "address",
							"name": "_executorAddress",
							"type": "address"
						}
					],
					"stateMutability": "payable",
					"type": "constructor"
				},
				{
					"inputs": [
						{
							"internalType": "address",
							"name": "owner",
							"type": "address"
						}
					],
					"name": "OwnableInvalidOwner",
					"type": "error"
				},
				{
					"inputs": [
						{
							"internalType": "address",
							"name": "account",
							"type": "address"
						}
					],
					"name": "OwnableUnauthorizedAccount",
					"type": "error"
				},
				{
					"inputs": [],
					"name": "ReentrancyGuardReentrantCall",
					"type": "error"
				},
				{
					"anonymous": false,
					"inputs": [],
					"name": "Cancelled",
					"type": "event"
				},
				{
					"anonymous": false,
					"inputs": [
						{
							"indexed": false,
							"internalType": "address",
							"name": "executor",
							"type": "address"
						},
						{
							"indexed": false,
							"internalType": "uint256",
							"name": "ethFee",
							"type": "uint256"
						},
						{
							"indexed": false,
							"internalType": "address",
							"name": "feeRecipient",
							"type": "address"
						}
					],
					"name": "Executed",
					"type": "event"
				},
				{
					"anonymous": false,
					"inputs": [
						{
							"indexed": true,
							"internalType": "address",
							"name": "previousOwner",
							"type": "address"
						},
						{
							"indexed": true,
							"internalType": "address",
							"name": "newOwner",
							"type": "address"
						}
					],
					"name": "OwnershipTransferred",
					"type": "event"
				},
				{
					"anonymous": false,
					"inputs": [
						{
							"indexed": false,
							"internalType": "uint256",
							"name": "newLastUpdate",
							"type": "uint256"
						}
					],
					"name": "Ping",
					"type": "event"
				},
				{
					"anonymous": false,
					"inputs": [
						{
							"indexed": true,
							"internalType": "address",
							"name": "owner",
							"type": "address"
						}
					],
					"name": "WillConfigured",
					"type": "event"
				},
				{
					"anonymous": false,
					"inputs": [
						{
							"indexed": true,
							"internalType": "address",
							"name": "owner",
							"type": "address"
						}
					],
					"name": "WillEmptied",
					"type": "event"
				},
				{
					"inputs": [],
					"name": "EXECUTION_FEE_BPS",
					"outputs": [
						{
							"internalType": "uint256",
							"name": "",
							"type": "uint256"
						}
					],
					"stateMutability": "view",
					"type": "function"
				},
				{
					"inputs": [],
					"name": "cancelAndWithdraw",
					"outputs": [],
					"stateMutability": "nonpayable",
					"type": "function"
				},
				{
					"inputs": [],
					"name": "currentState",
					"outputs": [
						{
							"internalType": "enum Will.WillState",
							"name": "",
							"type": "uint8"
						}
					],
					"stateMutability": "view",
					"type": "function"
				},
				{
					"inputs": [
						{
							"internalType": "uint256",
							"name": "",
							"type": "uint256"
						}
					],
					"name": "distributionPercentages",
					"outputs": [
						{
							"internalType": "uint256",
							"name": "",
							"type": "uint256"
						}
					],
					"stateMutability": "view",
					"type": "function"
				},
				{
					"inputs": [],
					"name": "emptyWillForEdit",
					"outputs": [],
					"stateMutability": "nonpayable",
					"type": "function"
				},
				{
					"inputs": [
						{
							"internalType": "uint256",
							"name": "",
							"type": "uint256"
						}
					],
					"name": "erc20Assets",
					"outputs": [
						{
							"internalType": "contract IERC20",
							"name": "token",
							"type": "address"
						}
					],
					"stateMutability": "view",
					"type": "function"
				},
				{
					"inputs": [
						{
							"internalType": "uint256",
							"name": "",
							"type": "uint256"
						}
					],
					"name": "erc721Assets",
					"outputs": [
						{
							"internalType": "contract IERC721",
							"name": "token",
							"type": "address"
						},
						{
							"internalType": "uint256",
							"name": "tokenId",
							"type": "uint256"
						},
						{
							"internalType": "address",
							"name": "heir",
							"type": "address"
						}
					],
					"stateMutability": "view",
					"type": "function"
				},
				{
					"inputs": [],
					"name": "execute",
					"outputs": [],
					"stateMutability": "nonpayable",
					"type": "function"
				},
				{
					"inputs": [],
					"name": "executorAddress",
					"outputs": [
						{
							"internalType": "address",
							"name": "",
							"type": "address"
						}
					],
					"stateMutability": "view",
					"type": "function"
				},
				{
					"inputs": [
						{
							"internalType": "uint256",
							"name": "_interval",
							"type": "uint256"
						},
						{
							"internalType": "address[]",
							"name": "_heirs",
							"type": "address[]"
						},
						{
							"internalType": "uint256[]",
							"name": "_distro",
							"type": "uint256[]"
						},
						{
							"components": [
								{
									"internalType": "address",
									"name": "tokenContract",
									"type": "address"
								},
								{
									"internalType": "uint256",
									"name": "amount",
									"type": "uint256"
								}
							],
							"internalType": "struct Will.Erc20Distribution[]",
							"name": "_erc20s",
							"type": "tuple[]"
						},
						{
							"components": [
								{
									"internalType": "address",
									"name": "tokenContract",
									"type": "address"
								},
								{
									"internalType": "uint256",
									"name": "tokenId",
									"type": "uint256"
								},
								{
									"internalType": "address",
									"name": "heir",
									"type": "address"
								}
							],
							"internalType": "struct Will.NftDistribution[]",
							"name": "_nfts",
							"type": "tuple[]"
						}
					],
					"name": "fundAndConfigure",
					"outputs": [],
					"stateMutability": "payable",
					"type": "function"
				},
				{
					"inputs": [],
					"name": "getWillDetails",
					"outputs": [
						{
							"components": [
								{
									"internalType": "address",
									"name": "owner",
									"type": "address"
								},
								{
									"internalType": "uint256",
									"name": "interval",
									"type": "uint256"
								},
								{
									"internalType": "uint256",
									"name": "lastUpdate",
									"type": "uint256"
								},
								{
									"internalType": "bool",
									"name": "executed",
									"type": "bool"
								},
								{
									"internalType": "bool",
									"name": "hasDiary",
									"type": "bool"
								},
								{
									"internalType": "uint256",
									"name": "ethBalance",
									"type": "uint256"
								},
								{
									"internalType": "address[]",
									"name": "heirs",
									"type": "address[]"
								},
								{
									"internalType": "uint256[]",
									"name": "distributionPercentages",
									"type": "uint256[]"
								},
								{
									"components": [
										{
											"internalType": "address",
											"name": "tokenContract",
											"type": "address"
										},
										{
											"internalType": "uint256",
											"name": "balance",
											"type": "uint256"
										}
									],
									"internalType": "struct Erc20Detail[]",
									"name": "erc20Details",
									"type": "tuple[]"
								},
								{
									"components": [
										{
											"internalType": "address",
											"name": "tokenContract",
											"type": "address"
										},
										{
											"internalType": "uint256",
											"name": "tokenId",
											"type": "uint256"
										},
										{
											"internalType": "address",
											"name": "heir",
											"type": "address"
										}
									],
									"internalType": "struct Erc721Detail[]",
									"name": "erc721Details",
									"type": "tuple[]"
								}
							],
							"internalType": "struct WillDetails",
							"name": "",
							"type": "tuple"
						}
					],
					"stateMutability": "view",
					"type": "function"
				},
				{
					"inputs": [],
					"name": "hasDiary",
					"outputs": [
						{
							"internalType": "bool",
							"name": "",
							"type": "bool"
						}
					],
					"stateMutability": "view",
					"type": "function"
				},
				{
					"inputs": [
						{
							"internalType": "uint256",
							"name": "",
							"type": "uint256"
						}
					],
					"name": "heirs",
					"outputs": [
						{
							"internalType": "address",
							"name": "",
							"type": "address"
						}
					],
					"stateMutability": "view",
					"type": "function"
				},
				{
					"inputs": [
						{
							"internalType": "uint256",
							"name": "_interval",
							"type": "uint256"
						},
						{
							"internalType": "address[]",
							"name": "_heirs",
							"type": "address[]"
						},
						{
							"internalType": "uint256[]",
							"name": "_distro",
							"type": "uint256[]"
						},
						{
							"components": [
								{
									"internalType": "address",
									"name": "tokenContract",
									"type": "address"
								},
								{
									"internalType": "uint256",
									"name": "amount",
									"type": "uint256"
								}
							],
							"internalType": "struct Will.Erc20Distribution[]",
							"name": "_erc20s",
							"type": "tuple[]"
						},
						{
							"components": [
								{
									"internalType": "address",
									"name": "tokenContract",
									"type": "address"
								},
								{
									"internalType": "uint256",
									"name": "tokenId",
									"type": "uint256"
								},
								{
									"internalType": "address",
									"name": "heir",
									"type": "address"
								}
							],
							"internalType": "struct Will.NftDistribution[]",
							"name": "_nfts",
							"type": "tuple[]"
						}
					],
					"name": "initialize",
					"outputs": [],
					"stateMutability": "nonpayable",
					"type": "function"
				},
				{
					"inputs": [],
					"name": "interval",
					"outputs": [
						{
							"internalType": "uint256",
							"name": "",
							"type": "uint256"
						}
					],
					"stateMutability": "view",
					"type": "function"
				},
				{
					"inputs": [],
					"name": "lastUpdate",
					"outputs": [
						{
							"internalType": "uint256",
							"name": "",
							"type": "uint256"
						}
					],
					"stateMutability": "view",
					"type": "function"
				},
				{
					"inputs": [],
					"name": "owner",
					"outputs": [
						{
							"internalType": "address",
							"name": "",
							"type": "address"
						}
					],
					"stateMutability": "view",
					"type": "function"
				},
				{
					"inputs": [],
					"name": "ping",
					"outputs": [],
					"stateMutability": "nonpayable",
					"type": "function"
				},
				{
					"inputs": [],
					"name": "renounceOwnership",
					"outputs": [],
					"stateMutability": "nonpayable",
					"type": "function"
				},
				{
					"inputs": [],
					"name": "sourceContract",
					"outputs": [
						{
							"internalType": "address",
							"name": "",
							"type": "address"
						}
					],
					"stateMutability": "view",
					"type": "function"
				},
				{
					"inputs": [
						{
							"internalType": "address",
							"name": "newOwner",
							"type": "address"
						}
					],
					"name": "transferOwnership",
					"outputs": [],
					"stateMutability": "nonpayable",
					"type": "function"
				}
			],
			"devdoc": {
				"errors": {
					"OwnableInvalidOwner(address)": [
						{
							"details": "The owner is not a valid owner account. (eg. `address(0)`)"
						}
					],
					"OwnableUnauthorizedAccount(address)": [
						{
							"details": "The caller account is not authorized to perform an operation."
						}
					]
				},
				"kind": "dev",
				"methods": {
					"owner()": {
						"details": "Returns the address of the current owner."
					},
					"renounceOwnership()": {
						"details": "Leaves the contract without owner. It will not be possible to call `onlyOwner` functions. Can only be called by the current owner. NOTE: Renouncing ownership will leave the contract without an owner, thereby disabling any functionality that is only available to the owner."
					},
					"transferOwnership(address)": {
						"details": "Transfers ownership of the contract to a new account (`newOwner`). Can only be called by the current owner."
					}
				},
				"version": 1
			},
			"evm": {
				"assembly": "    /* \"Will.sol\":1301:10176  contract Will is Ownable, ReentrancyGuard {... */\n  mstore(0x40, 0xe0)\n    /* \"Will.sol\":2613:2955  constructor(... */\n  mload(0x40)\n  sub(codesize, bytecodeSize)\n  dup1\n  bytecodeSize\n  dup4\n  codecopy\n  dup2\n  add\n  0x40\n  dup2\n  swap1\n  mstore\n  tag_1\n  swap2\n  tag_2\n  jump\t// in\ntag_1:\n    /* \"Will.sol\":2773:2785  initialOwner */\n  dup4\n  sub(shl(0xa0, 0x01), 0x01)\n    /* \"@openzeppelin/contracts/access/Ownable.sol\":1273:1299  initialOwner == address(0) */\n  dup2\n  and\n    /* \"@openzeppelin/contracts/access/Ownable.sol\":1269:1364  if (initialOwner == address(0)) {... */\n  tag_7\n  jumpi\n    /* \"@openzeppelin/contracts/access/Ownable.sol\":1322:1353  OwnableInvalidOwner(address(0)) */\n  mload(0x40)\n  shl(0xe0, 0x1e4fbdf7)\n  dup2\n  mstore\n    /* \"@openzeppelin/contracts/access/Ownable.sol\":1350:1351  0 */\n  0x00\n    /* \"@openzeppelin/contracts/access/Ownable.sol\":1322:1353  OwnableInvalidOwner(address(0)) */\n  0x04\n  dup3\n  add\n    /* \"#utility.yul\":880:931   */\n  mstore\n    /* \"#utility.yul\":853:871   */\n  0x24\n  add\n    /* \"@openzeppelin/contracts/access/Ownable.sol\":1322:1353  OwnableInvalidOwner(address(0)) */\n  mload(0x40)\n  dup1\n  swap2\n  sub\n  swap1\n  revert\n    /* \"@openzeppelin/contracts/access/Ownable.sol\":1269:1364  if (initialOwner == address(0)) {... */\ntag_7:\n    /* \"@openzeppelin/contracts/access/Ownable.sol\":1373:1405  _transferOwnership(initialOwner) */\n  tag_10\n    /* \"@openzeppelin/contracts/access/Ownable.sol\":1392:1404  initialOwner */\n  dup2\n    /* \"@openzeppelin/contracts/access/Ownable.sol\":1373:1391  _transferOwnership */\n  tag_11\n    /* \"@openzeppelin/contracts/access/Ownable.sol\":1373:1405  _transferOwnership(initialOwner) */\n  jump\t// in\ntag_10:\n  pop\n    /* \"Will.sol\":397:398  1 */\n  0x01\n    /* \"Will.sol\":495:517  _status = _NOT_ENTERED */\n  dup1\n  sstore\n  sub(shl(0xa0, 0x01), 0x01)\n    /* \"Will.sol\":2798:2830  sourceContract = _sourceContract */\n  swap3\n  dup4\n  and\n  0x80\n  mstore\n    /* \"Will.sol\":2841:2861  hasDiary = _hasDiary */\n  swap1\n  iszero\n  iszero\n  0xa0\n  mstore\n    /* \"Will.sol\":2872:2906  executorAddress = _executorAddress */\n  and\n  0xc0\n  mstore\n  pop\n    /* \"Will.sol\":2917:2929  currentState */\n  0x02\n    /* \"Will.sol\":2917:2947  currentState = WillState.Empty */\n  dup1\n  sload\n  not(0xff)\n  and\n  swap1\n  sstore\n    /* \"Will.sol\":1301:10176  contract Will is Ownable, ReentrancyGuard {... */\n  jump(tag_20)\n    /* \"@openzeppelin/contracts/access/Ownable.sol\":2912:3099  function _transferOwnership(address newOwner) internal virtual {... */\ntag_11:\n    /* \"@openzeppelin/contracts/access/Ownable.sol\":2985:3001  address oldOwner */\n  0x00\n    /* \"@openzeppelin/contracts/access/Ownable.sol\":3004:3010  _owner */\n  dup1\n  sload\n  sub(shl(0xa0, 0x01), 0x01)\n    /* \"@openzeppelin/contracts/access/Ownable.sol\":3020:3037  _owner = newOwner */\n  dup4\n  dup2\n  and\n  not(sub(shl(0xa0, 0x01), 0x01))\n  dup4\n  and\n  dup2\n  or\n  dup5\n  sstore\n    /* \"@openzeppelin/contracts/access/Ownable.sol\":3052:3092  OwnershipTransferred(oldOwner, newOwner) */\n  mload(0x40)\n    /* \"@openzeppelin/contracts/access/Ownable.sol\":3004:3010  _owner */\n  swap2\n  swap1\n  swap3\n  and\n  swap3\n  dup4\n  swap2\n    /* \"@openzeppelin/contracts/access/Ownable.sol\":3052:3092  OwnershipTransferred(oldOwner, newOwner) */\n  0x8be0079c531659141344cd1fd0a4f28419497f9722a3daafe3b4186f6b6457e0\n  swap2\n    /* \"@openzeppelin/contracts/access/Ownable.sol\":2985:3001  address oldOwner */\n  swap1\n    /* \"@openzeppelin/contracts/access/Ownable.sol\":3052:3092  OwnershipTransferred(oldOwner, newOwner) */\n  log3\n    /* \"@openzeppelin/contracts/access/Ownable.sol\":2975:3099  {... */\n  pop\n    /* \"@openzeppelin/contracts/access/Ownable.sol\":2912:3099  function _transferOwnership(address newOwner) internal virtual {... */\n  pop\n  jump\t// out\n    /* \"#utility.yul\":14:191   */\ntag_19:\n    /* \"#utility.yul\":93:106   */\n  dup1\n  mload\n  sub(shl(0xa0, 0x01), 0x01)\n    /* \"#utility.yul\":135:166   */\n  dup2\n  and\n    /* \"#utility.yul\":125:167   */\n  dup2\n  eq\n    /* \"#utility.yul\":115:185   */\n  tag_22\n  jumpi\n    /* \"#utility.yul\":181:182   */\n  0x00\n    /* \"#utility.yul\":178:179   */\n  dup1\n    /* \"#utility.yul\":171:183   */\n  revert\n    /* \"#utility.yul\":115:185   */\ntag_22:\n    /* \"#utility.yul\":14:191   */\n  swap2\n  swap1\n  pop\n  jump\t// out\n    /* \"#utility.yul\":196:729   */\ntag_2:\n    /* \"#utility.yul\":290:296   */\n  0x00\n    /* \"#utility.yul\":298:304   */\n  dup1\n    /* \"#utility.yul\":306:312   */\n  0x00\n    /* \"#utility.yul\":314:320   */\n  dup1\n    /* \"#utility.yul\":367:370   */\n  0x80\n    /* \"#utility.yul\":355:364   */\n  dup6\n    /* \"#utility.yul\":346:353   */\n  dup8\n    /* \"#utility.yul\":342:365   */\n  sub\n    /* \"#utility.yul\":338:371   */\n  slt\n    /* \"#utility.yul\":335:388   */\n  iszero\n  tag_24\n  jumpi\n    /* \"#utility.yul\":384:385   */\n  0x00\n    /* \"#utility.yul\":381:382   */\n  dup1\n    /* \"#utility.yul\":374:386   */\n  revert\n    /* \"#utility.yul\":335:388   */\ntag_24:\n    /* \"#utility.yul\":407:447   */\n  tag_25\n    /* \"#utility.yul\":437:446   */\n  dup6\n    /* \"#utility.yul\":407:447   */\n  tag_19\n  jump\t// in\ntag_25:\n    /* \"#utility.yul\":397:447   */\n  swap4\n  pop\n    /* \"#utility.yul\":466:515   */\n  tag_26\n    /* \"#utility.yul\":511:513   */\n  0x20\n    /* \"#utility.yul\":500:509   */\n  dup7\n    /* \"#utility.yul\":496:514   */\n  add\n    /* \"#utility.yul\":466:515   */\n  tag_19\n  jump\t// in\ntag_26:\n    /* \"#utility.yul\":456:515   */\n  swap3\n  pop\n    /* \"#utility.yul\":558:560   */\n  0x40\n    /* \"#utility.yul\":547:556   */\n  dup6\n    /* \"#utility.yul\":543:561   */\n  add\n    /* \"#utility.yul\":537:562   */\n  mload\n    /* \"#utility.yul\":605:610   */\n  dup1\n    /* \"#utility.yul\":598:611   */\n  iszero\n    /* \"#utility.yul\":591:612   */\n  iszero\n    /* \"#utility.yul\":584:589   */\n  dup2\n    /* \"#utility.yul\":581:613   */\n  eq\n    /* \"#utility.yul\":571:631   */\n  tag_27\n  jumpi\n    /* \"#utility.yul\":627:628   */\n  0x00\n    /* \"#utility.yul\":624:625   */\n  dup1\n    /* \"#utility.yul\":617:629   */\n  revert\n    /* \"#utility.yul\":571:631   */\ntag_27:\n    /* \"#utility.yul\":650:655   */\n  swap2\n  pop\n    /* \"#utility.yul\":674:723   */\n  tag_28\n    /* \"#utility.yul\":719:721   */\n  0x60\n    /* \"#utility.yul\":704:722   */\n  dup7\n  add\n    /* \"#utility.yul\":674:723   */\n  tag_19\n  jump\t// in\ntag_28:\n    /* \"#utility.yul\":664:723   */\n  swap1\n  pop\n    /* \"#utility.yul\":196:729   */\n  swap3\n  swap6\n  swap2\n  swap5\n  pop\n  swap3\n  pop\n  jump\t// out\n    /* \"#utility.yul\":942:1069   */\ntag_20:\n    /* \"Will.sol\":1301:10176  contract Will is Ownable, ReentrancyGuard {... */\n  mload(0x80)\n  mload(0xa0)\n  mload(0xc0)\n  codecopy(0x00, dataOffset(sub_0), dataSize(sub_0))\n  0x00\n  assignImmutable(\"0x8e831a88d8106460d1544aa376ec6155091b50c6145ad03273db7938ca17c5b1\")\n  0x00\n  assignImmutable(\"0xf149c9166005b187f5af29ceb397e7b9b5ab7e3a911adc91a9ebb826b208930e\")\n  0x00\n  assignImmutable(\"0xd094ef07eef1924f3d7fe3d896f6ebece97bd5683077be90743b91a72d59db67\")\n  return(0x00, dataSize(sub_0))\nstop\n\nsub_0: assembly {\n        /* \"Will.sol\":1301:10176  contract Will is Ownable, ReentrancyGuard {... */\n      mstore(0x40, 0x80)\n      jumpi(tag_1, lt(calldatasize, 0x04))\n      shr(0xe0, calldataload(0x00))\n      dup1\n      0x75d33fa1\n      gt\n      tag_23\n      jumpi\n      dup1\n      0xa8e9a539\n      gt\n      tag_24\n      jumpi\n      dup1\n      0xa8e9a539\n      eq\n      tag_17\n      jumpi\n      dup1\n      0xc0463711\n      eq\n      tag_18\n      jumpi\n      dup1\n      0xcc4f9d5b\n      eq\n      tag_19\n      jumpi\n      dup1\n      0xe15724a5\n      eq\n      tag_20\n      jumpi\n      dup1\n      0xeed35fea\n      eq\n      tag_21\n      jumpi\n      dup1\n      0xf2fde38b\n      eq\n      tag_22\n      jumpi\n      0x00\n      dup1\n      revert\n    tag_24:\n      dup1\n      0x75d33fa1\n      eq\n      tag_12\n      jumpi\n      dup1\n      0x8da5cb5b\n      eq\n      tag_13\n      jumpi\n      dup1\n      0x9379f517\n      eq\n      tag_14\n      jumpi\n      dup1\n      0x947a36fb\n      eq\n      tag_15\n      jumpi\n      dup1\n      0xa444ae41\n      eq\n      tag_16\n      jumpi\n      0x00\n      dup1\n      revert\n    tag_23:\n      dup1\n      0x55952bef\n      gt\n      tag_25\n      jumpi\n      dup1\n      0x55952bef\n      eq\n      tag_7\n      jumpi\n      dup1\n      0x5c36b186\n      eq\n      tag_8\n      jumpi\n      dup1\n      0x61461954\n      eq\n      tag_9\n      jumpi\n      dup1\n      0x6b892b22\n      eq\n      tag_10\n      jumpi\n      dup1\n      0x715018a6\n      eq\n      tag_11\n      jumpi\n      0x00\n      dup1\n      revert\n    tag_25:\n      dup1\n      0x0c3f6acf\n      eq\n      tag_2\n      jumpi\n      dup1\n      0x1c0795c3\n      eq\n      tag_3\n      jumpi\n      dup1\n      0x1f99966a\n      eq\n      tag_4\n      jumpi\n      dup1\n      0x2395d975\n      eq\n      tag_5\n      jumpi\n      dup1\n      0x3027439c\n      eq\n      tag_6\n      jumpi\n    tag_1:\n      0x00\n      dup1\n      revert\n        /* \"Will.sol\":1678:1707  WillState public currentState */\n    tag_2:\n      callvalue\n      dup1\n      iszero\n      tag_26\n      jumpi\n      0x00\n      dup1\n      revert\n    tag_26:\n      pop\n      sload(0x02)\n      tag_27\n      swap1\n      0xff\n      and\n      dup2\n      jump\n    tag_27:\n      mload(0x40)\n      tag_29\n      swap2\n      swap1\n      tag_30\n      jump\t// in\n    tag_29:\n      mload(0x40)\n      dup1\n      swap2\n      sub\n      swap1\n      return\n        /* \"Will.sol\":2042:2064  address[] public heirs */\n    tag_3:\n      callvalue\n      dup1\n      iszero\n      tag_31\n      jumpi\n      0x00\n      dup1\n      revert\n    tag_31:\n      pop\n      tag_32\n      tag_33\n      calldatasize\n      0x04\n      tag_34\n      jump\t// in\n    tag_33:\n      tag_35\n      jump\t// in\n    tag_32:\n      mload(0x40)\n      sub(shl(0xa0, 0x01), 0x01)\n        /* \"#utility.yul\":950:982   */\n      swap1\n      swap2\n      and\n        /* \"#utility.yul\":932:983   */\n      dup2\n      mstore\n        /* \"#utility.yul\":920:922   */\n      0x20\n        /* \"#utility.yul\":905:923   */\n      add\n        /* \"Will.sol\":2042:2064  address[] public heirs */\n      tag_29\n        /* \"#utility.yul\":786:989   */\n      jump\n        /* \"Will.sol\":2071:2111  uint256[] public distributionPercentages */\n    tag_4:\n      callvalue\n      dup1\n      iszero\n      tag_38\n      jumpi\n      0x00\n      dup1\n      revert\n    tag_38:\n      pop\n      tag_39\n      tag_40\n      calldatasize\n      0x04\n      tag_34\n      jump\t// in\n    tag_40:\n      tag_41\n      jump\t// in\n    tag_39:\n      mload(0x40)\n        /* \"#utility.yul\":1140:1165   */\n      swap1\n      dup2\n      mstore\n        /* \"#utility.yul\":1128:1130   */\n      0x20\n        /* \"#utility.yul\":1113:1131   */\n      add\n        /* \"Will.sol\":2071:2111  uint256[] public distributionPercentages */\n      tag_29\n        /* \"#utility.yul\":994:1171   */\n      jump\n        /* \"Will.sol\":1772:1818  uint256 public constant EXECUTION_FEE_BPS = 50 */\n    tag_5:\n      callvalue\n      dup1\n      iszero\n      tag_44\n      jumpi\n      0x00\n      dup1\n      revert\n    tag_44:\n      pop\n      tag_39\n        /* \"Will.sol\":1816:1818  50 */\n      0x32\n        /* \"Will.sol\":1772:1818  uint256 public constant EXECUTION_FEE_BPS = 50 */\n      dup2\n      jump\n        /* \"Will.sol\":4429:4799  function emptyWillForEdit() external onlyOwner requiresState(WillState.Active) nonReentrant {... */\n    tag_6:\n      callvalue\n      dup1\n      iszero\n      tag_48\n      jumpi\n      0x00\n      dup1\n      revert\n    tag_48:\n      pop\n      tag_49\n      tag_50\n      jump\t// in\n    tag_49:\n      stop\n        /* \"Will.sol\":3529:4417  function fundAndConfigure(... */\n    tag_7:\n      tag_49\n      tag_52\n      calldatasize\n      0x04\n      tag_53\n      jump\t// in\n    tag_52:\n      tag_54\n      jump\t// in\n        /* \"Will.sol\":5079:5225  function ping() external onlyOwner requiresState(WillState.Active) {... */\n    tag_8:\n      callvalue\n      dup1\n      iszero\n      tag_55\n      jumpi\n      0x00\n      dup1\n      revert\n    tag_55:\n      pop\n      tag_49\n      tag_57\n      jump\t// in\n        /* \"Will.sol\":5233:7514  function execute() external requiresState(WillState.Active) nonReentrant {... */\n    tag_9:\n      callvalue\n      dup1\n      iszero\n      tag_58\n      jumpi\n      0x00\n      dup1\n      revert\n    tag_58:\n      pop\n      tag_49\n      tag_60\n      jump\t// in\n        /* \"Will.sol\":4807:5067  function cancelAndWithdraw() external onlyOwner requiresState(WillState.Active) nonReentrant {... */\n    tag_10:\n      callvalue\n      dup1\n      iszero\n      tag_61\n      jumpi\n      0x00\n      dup1\n      revert\n    tag_61:\n      pop\n      tag_49\n      tag_63\n      jump\t// in\n        /* \"@openzeppelin/contracts/access/Ownable.sol\":2293:2394  function renounceOwnership() public virtual onlyOwner {... */\n    tag_11:\n      callvalue\n      dup1\n      iszero\n      tag_64\n      jumpi\n      0x00\n      dup1\n      revert\n    tag_64:\n      pop\n      tag_49\n      tag_66\n      jump\t// in\n        /* \"Will.sol\":2967:3517  function initialize(... */\n    tag_12:\n      callvalue\n      dup1\n      iszero\n      tag_67\n      jumpi\n      0x00\n      dup1\n      revert\n    tag_67:\n      pop\n      tag_49\n      tag_69\n      calldatasize\n      0x04\n      tag_53\n      jump\t// in\n    tag_69:\n      tag_70\n      jump\t// in\n        /* \"@openzeppelin/contracts/access/Ownable.sol\":1638:1723  function owner() public view virtual returns (address) {... */\n    tag_13:\n      callvalue\n      dup1\n      iszero\n      tag_71\n      jumpi\n      0x00\n      dup1\n      revert\n    tag_71:\n      pop\n        /* \"@openzeppelin/contracts/access/Ownable.sol\":1684:1691  address */\n      0x00\n        /* \"@openzeppelin/contracts/access/Ownable.sol\":1710:1716  _owner */\n      sload\n      sub(shl(0xa0, 0x01), 0x01)\n      and\n        /* \"@openzeppelin/contracts/access/Ownable.sol\":1638:1723  function owner() public view virtual returns (address) {... */\n      jump(tag_32)\n        /* \"Will.sol\":2118:2149  Erc20Asset[] public erc20Assets */\n    tag_14:\n      callvalue\n      dup1\n      iszero\n      tag_75\n      jumpi\n      0x00\n      dup1\n      revert\n    tag_75:\n      pop\n      tag_32\n      tag_77\n      calldatasize\n      0x04\n      tag_34\n      jump\t// in\n    tag_77:\n      tag_78\n      jump\t// in\n        /* \"Will.sol\":1859:1882  uint256 public interval */\n    tag_15:\n      callvalue\n      dup1\n      iszero\n      tag_81\n      jumpi\n      0x00\n      dup1\n      revert\n    tag_81:\n      pop\n      tag_39\n      sload(0x04)\n      dup2\n      jump\n        /* \"Will.sol\":1912:1951  address public immutable sourceContract */\n    tag_16:\n      callvalue\n      dup1\n      iszero\n      tag_85\n      jumpi\n      0x00\n      dup1\n      revert\n    tag_85:\n      pop\n      tag_32\n      immutable(\"0xd094ef07eef1924f3d7fe3d896f6ebece97bd5683077be90743b91a72d59db67\")\n      dup2\n      jump\n        /* \"Will.sol\":1995:2035  address public immutable executorAddress */\n    tag_17:\n      callvalue\n      dup1\n      iszero\n      tag_89\n      jumpi\n      0x00\n      dup1\n      revert\n    tag_89:\n      pop\n      tag_32\n      immutable(\"0x8e831a88d8106460d1544aa376ec6155091b50c6145ad03273db7938ca17c5b1\")\n      dup2\n      jump\n        /* \"Will.sol\":1827:1852  uint256 public lastUpdate */\n    tag_18:\n      callvalue\n      dup1\n      iszero\n      tag_93\n      jumpi\n      0x00\n      dup1\n      revert\n    tag_93:\n      pop\n      tag_39\n      sload(0x03)\n      dup2\n      jump\n        /* \"Will.sol\":9245:10173  function getWillDetails() external view returns (WillDetails memory) {... */\n    tag_19:\n      callvalue\n      dup1\n      iszero\n      tag_97\n      jumpi\n      0x00\n      dup1\n      revert\n    tag_97:\n      pop\n      tag_98\n      tag_99\n      jump\t// in\n    tag_98:\n      mload(0x40)\n      tag_29\n      swap2\n      swap1\n      tag_101\n      jump\t// in\n        /* \"Will.sol\":2156:2189  Erc721Asset[] public erc721Assets */\n    tag_20:\n      callvalue\n      dup1\n      iszero\n      tag_102\n      jumpi\n      0x00\n      dup1\n      revert\n    tag_102:\n      pop\n      tag_103\n      tag_104\n      calldatasize\n      0x04\n      tag_34\n      jump\t// in\n    tag_104:\n      tag_105\n      jump\t// in\n    tag_103:\n      0x40\n      dup1\n      mload\n      sub(shl(0xa0, 0x01), 0x01)\n        /* \"#utility.yul\":9697:9712   */\n      swap5\n      dup6\n      and\n        /* \"#utility.yul\":9679:9713   */\n      dup2\n      mstore\n        /* \"#utility.yul\":9744:9746   */\n      0x20\n        /* \"#utility.yul\":9729:9747   */\n      dup2\n      add\n        /* \"#utility.yul\":9722:9756   */\n      swap4\n      swap1\n      swap4\n      mstore\n        /* \"#utility.yul\":9792:9807   */\n      swap3\n      and\n        /* \"#utility.yul\":9772:9790   */\n      swap2\n      dup2\n      add\n        /* \"#utility.yul\":9765:9808   */\n      swap2\n      swap1\n      swap2\n      mstore\n        /* \"#utility.yul\":9629:9631   */\n      0x60\n        /* \"#utility.yul\":9614:9632   */\n      add\n        /* \"Will.sol\":2156:2189  Erc721Asset[] public erc721Assets */\n      tag_29\n        /* \"#utility.yul\":9424:9814   */\n      jump\n        /* \"Will.sol\":1958:1988  bool public immutable hasDiary */\n    tag_21:\n      callvalue\n      dup1\n      iszero\n      tag_108\n      jumpi\n      0x00\n      dup1\n      revert\n    tag_108:\n      pop\n      tag_109\n      immutable(\"0xf149c9166005b187f5af29ceb397e7b9b5ab7e3a911adc91a9ebb826b208930e\")\n      dup2\n      jump\n    tag_109:\n      mload(0x40)\n        /* \"#utility.yul\":9984:9998   */\n      swap1\n      iszero\n        /* \"#utility.yul\":9977:9999   */\n      iszero\n        /* \"#utility.yul\":9959:10000   */\n      dup2\n      mstore\n        /* \"#utility.yul\":9947:9949   */\n      0x20\n        /* \"#utility.yul\":9932:9950   */\n      add\n        /* \"Will.sol\":1958:1988  bool public immutable hasDiary */\n      tag_29\n        /* \"#utility.yul\":9819:10006   */\n      jump\n        /* \"@openzeppelin/contracts/access/Ownable.sol\":2543:2758  function transferOwnership(address newOwner) public virtual onlyOwner {... */\n    tag_22:\n      callvalue\n      dup1\n      iszero\n      tag_113\n      jumpi\n      0x00\n      dup1\n      revert\n    tag_113:\n      pop\n      tag_49\n      tag_115\n      calldatasize\n      0x04\n      tag_116\n      jump\t// in\n    tag_115:\n      tag_117\n      jump\t// in\n        /* \"Will.sol\":2042:2064  address[] public heirs */\n    tag_35:\n      0x05\n      dup2\n      dup2\n      sload\n      dup2\n      lt\n      tag_118\n      jumpi\n      0x00\n      dup1\n      revert\n    tag_118:\n      0x00\n      swap2\n      dup3\n      mstore\n      0x20\n      swap1\n      swap2\n      keccak256\n      add\n      sload\n      sub(shl(0xa0, 0x01), 0x01)\n      and\n      swap1\n      pop\n      dup2\n      jump\t// out\n        /* \"Will.sol\":2071:2111  uint256[] public distributionPercentages */\n    tag_41:\n      0x06\n      dup2\n      dup2\n      sload\n      dup2\n      lt\n      tag_120\n      jumpi\n      0x00\n      dup1\n      revert\n    tag_120:\n      0x00\n      swap2\n      dup3\n      mstore\n      0x20\n      swap1\n      swap2\n      keccak256\n      add\n      sload\n      swap1\n      pop\n      dup2\n      jump\t// out\n        /* \"Will.sol\":4429:4799  function emptyWillForEdit() external onlyOwner requiresState(WillState.Active) nonReentrant {... */\n    tag_50:\n        /* \"@openzeppelin/contracts/access/Ownable.sol\":1531:1544  _checkOwner() */\n      tag_123\n        /* \"@openzeppelin/contracts/access/Ownable.sol\":1531:1542  _checkOwner */\n      tag_124\n        /* \"@openzeppelin/contracts/access/Ownable.sol\":1531:1544  _checkOwner() */\n      jump\t// in\n    tag_123:\n        /* \"Will.sol\":4490:4506  WillState.Active */\n      0x01\n      dup1\n        /* \"Will.sol\":2523:2535  currentState */\n      0x02\n      dup1\n      sload\n      0xff\n      and\n      swap1\n        /* \"Will.sol\":2523:2545  currentState == _state */\n      dup2\n      gt\n      iszero\n      tag_130\n      jumpi\n      tag_130\n      tag_128\n      jump\t// in\n    tag_130:\n      eq\n        /* \"Will.sol\":2515:2585  require(currentState == _state, \"Will: Invalid state for this action\") */\n      tag_131\n      jumpi\n      mload(0x40)\n      shl(0xe5, 0x461bcd)\n      dup2\n      mstore\n      0x04\n      add\n      tag_132\n      swap1\n      tag_133\n      jump\t// in\n    tag_132:\n      mload(0x40)\n      dup1\n      swap2\n      sub\n      swap1\n      revert\n    tag_131:\n        /* \"Will.sol\":561:579  _preReentryCheck() */\n      tag_135\n        /* \"Will.sol\":561:577  _preReentryCheck */\n      tag_136\n        /* \"Will.sol\":561:579  _preReentryCheck() */\n      jump\t// in\n    tag_135:\n        /* \"Will.sol\":441:442  2 */\n      0x02\n        /* \"Will.sol\":590:597  _status */\n      0x01\n        /* \"Will.sol\":590:608  _status = _ENTERED */\n      sstore\n        /* \"Will.sol\":4532:4550  _returnAllAssets() */\n      tag_138\n        /* \"Will.sol\":4532:4548  _returnAllAssets */\n      tag_139\n        /* \"Will.sol\":4532:4550  _returnAllAssets() */\n      jump\t// in\n    tag_138:\n        /* \"Will.sol\":4561:4573  delete heirs */\n      tag_140\n        /* \"Will.sol\":4568:4573  heirs */\n      0x05\n      0x00\n        /* \"Will.sol\":4561:4573  delete heirs */\n      tag_141\n      jump\t// in\n    tag_140:\n        /* \"Will.sol\":4584:4614  delete distributionPercentages */\n      tag_142\n        /* \"Will.sol\":4591:4614  distributionPercentages */\n      0x06\n      0x00\n        /* \"Will.sol\":4584:4614  delete distributionPercentages */\n      tag_141\n      jump\t// in\n    tag_142:\n        /* \"Will.sol\":4625:4643  delete erc20Assets */\n      tag_144\n        /* \"Will.sol\":4632:4643  erc20Assets */\n      0x07\n      0x00\n        /* \"Will.sol\":4625:4643  delete erc20Assets */\n      tag_145\n      jump\t// in\n    tag_144:\n        /* \"Will.sol\":4654:4673  delete erc721Assets */\n      tag_146\n        /* \"Will.sol\":4661:4673  erc721Assets */\n      0x08\n      0x00\n        /* \"Will.sol\":4654:4673  delete erc721Assets */\n      tag_147\n      jump\t// in\n    tag_146:\n        /* \"Will.sol\":4695:4696  0 */\n      0x00\n        /* \"Will.sol\":4684:4692  interval */\n      0x04\n        /* \"Will.sol\":4684:4696  interval = 0 */\n      dup2\n      swap1\n      sstore\n        /* \"Will.sol\":4725:4737  currentState */\n      0x02\n        /* \"Will.sol\":4725:4755  currentState = WillState.Empty */\n      dup1\n      sload\n      not(0xff)\n      and\n      swap1\n      sstore\n        /* \"@openzeppelin/contracts/access/Ownable.sol\":1710:1716  _owner */\n      dup1\n      sload\n        /* \"Will.sol\":4771:4791  WillEmptied(owner()) */\n      mload(0x40)\n      sub(shl(0xa0, 0x01), 0x01)\n        /* \"@openzeppelin/contracts/access/Ownable.sol\":1710:1716  _owner */\n      swap1\n      swap2\n      and\n      swap2\n        /* \"Will.sol\":4771:4791  WillEmptied(owner()) */\n      0x5af2b6dcdccc1dd52ee38632afee0bc3ac6def619ed4132f2f9a40ff48ec74f2\n      swap2\n      log2\n      pop\n        /* \"Will.sol\":397:398  1 */\n      0x01\n        /* \"Will.sol\":631:653  _status = _NOT_ENTERED */\n      dup1\n      sstore\n        /* \"Will.sol\":4429:4799  function emptyWillForEdit() external onlyOwner requiresState(WillState.Active) nonReentrant {... */\n      jump\t// out\n        /* \"Will.sol\":3529:4417  function fundAndConfigure(... */\n    tag_54:\n        /* \"@openzeppelin/contracts/access/Ownable.sol\":1531:1544  _checkOwner() */\n      tag_152\n        /* \"@openzeppelin/contracts/access/Ownable.sol\":1531:1542  _checkOwner */\n      tag_124\n        /* \"@openzeppelin/contracts/access/Ownable.sol\":1531:1544  _checkOwner() */\n      jump\t// in\n    tag_152:\n        /* \"Will.sol\":3790:3805  WillState.Empty */\n      0x00\n      dup1\n        /* \"Will.sol\":2523:2535  currentState */\n      0x02\n      dup1\n      sload\n      0xff\n      and\n      swap1\n        /* \"Will.sol\":2523:2545  currentState == _state */\n      dup2\n      gt\n      iszero\n      tag_157\n      jumpi\n      tag_157\n      tag_128\n      jump\t// in\n    tag_157:\n      eq\n        /* \"Will.sol\":2515:2585  require(currentState == _state, \"Will: Invalid state for this action\") */\n      tag_158\n      jumpi\n      mload(0x40)\n      shl(0xe5, 0x461bcd)\n      dup2\n      mstore\n      0x04\n      add\n      tag_132\n      swap1\n      tag_133\n      jump\t// in\n    tag_158:\n        /* \"Will.sol\":3818:3826  interval */\n      0x04\n        /* \"Will.sol\":3818:3838  interval = _interval */\n      dup9\n      swap1\n      sstore\n        /* \"Will.sol\":3854:3860  uint i */\n      0x00\n        /* \"Will.sol\":3849:4070  for (uint i = 0; i < _erc20s.length; i++) {... */\n    tag_161:\n        /* \"Will.sol\":3866:3884  i < _erc20s.length */\n      dup5\n      dup2\n      lt\n        /* \"Will.sol\":3849:4070  for (uint i = 0; i < _erc20s.length; i++) {... */\n      iszero\n      tag_162\n      jumpi\n        /* \"Will.sol\":3930:3931  0 */\n      0x00\n        /* \"Will.sol\":3910:3917  _erc20s */\n      dup7\n      dup7\n        /* \"Will.sol\":3918:3919  i */\n      dup4\n        /* \"Will.sol\":3910:3920  _erc20s[i] */\n      dup2\n      dup2\n      lt\n      tag_165\n      jumpi\n      tag_165\n      tag_166\n      jump\t// in\n    tag_165:\n      swap1\n      pop\n      0x40\n      mul\n      add\n        /* \"Will.sol\":3910:3927  _erc20s[i].amount */\n      0x20\n      add\n      calldataload\n        /* \"Will.sol\":3910:3931  _erc20s[i].amount > 0 */\n      gt\n        /* \"Will.sol\":3906:4059  if (_erc20s[i].amount > 0) {... */\n      iszero\n      tag_167\n      jumpi\n        /* \"Will.sol\":3959:3966  _erc20s */\n      dup6\n      dup6\n        /* \"Will.sol\":3967:3968  i */\n      dup3\n        /* \"Will.sol\":3959:3969  _erc20s[i] */\n      dup2\n      dup2\n      lt\n      tag_169\n      jumpi\n      tag_169\n      tag_166\n      jump\t// in\n    tag_169:\n        /* \"Will.sol\":3959:3983  _erc20s[i].tokenContract */\n      tag_170\n      swap3\n      0x20\n        /* \"Will.sol\":3959:3969  _erc20s[i] */\n      0x40\n      swap1\n      swap3\n      mul\n      add\n        /* \"Will.sol\":3959:3983  _erc20s[i].tokenContract */\n      swap1\n      dup2\n      add\n      swap2\n      pop\n      tag_116\n      jump\t// in\n    tag_170:\n      sub(shl(0xa0, 0x01), 0x01)\n        /* \"Will.sol\":3952:3997  IERC20(_erc20s[i].tokenContract).transferFrom */\n      and\n      0x23b872dd\n        /* \"Will.sol\":3998:4008  msg.sender */\n      caller\n        /* \"Will.sol\":4018:4022  this */\n      address\n        /* \"Will.sol\":4025:4032  _erc20s */\n      dup10\n      dup10\n        /* \"Will.sol\":4033:4034  i */\n      dup7\n        /* \"Will.sol\":4025:4035  _erc20s[i] */\n      dup2\n      dup2\n      lt\n      tag_172\n      jumpi\n      tag_172\n      tag_166\n      jump\t// in\n    tag_172:\n      swap1\n      pop\n      0x40\n      mul\n      add\n        /* \"Will.sol\":4025:4042  _erc20s[i].amount */\n      0x20\n      add\n      calldataload\n        /* \"Will.sol\":3952:4043  IERC20(_erc20s[i].tokenContract).transferFrom(msg.sender, address(this), _erc20s[i].amount) */\n      mload(0x40)\n      dup5\n      0xffffffff\n      and\n      0xe0\n      shl\n      dup2\n      mstore\n      0x04\n      add\n      tag_173\n      swap4\n      swap3\n      swap2\n      swap1\n      tag_174\n      jump\t// in\n    tag_173:\n      0x20\n      mload(0x40)\n      dup1\n      dup4\n      sub\n      dup2\n      0x00\n      dup8\n      gas\n      call\n      iszero\n      dup1\n      iszero\n      tag_176\n      jumpi\n      returndatasize\n      0x00\n      dup1\n      returndatacopy\n      revert(0x00, returndatasize)\n    tag_176:\n      pop\n      pop\n      pop\n      pop\n      mload(0x40)\n      returndatasize\n      not(0x1f)\n      0x1f\n      dup3\n      add\n      and\n      dup3\n      add\n      dup1\n      0x40\n      mstore\n      pop\n      dup2\n      add\n      swap1\n      tag_177\n      swap2\n      swap1\n      tag_178\n      jump\t// in\n    tag_177:\n      pop\n        /* \"Will.sol\":3906:4059  if (_erc20s[i].amount > 0) {... */\n    tag_167:\n        /* \"Will.sol\":3886:3889  i++ */\n      0x01\n      add\n        /* \"Will.sol\":3849:4070  for (uint i = 0; i < _erc20s.length; i++) {... */\n      jump(tag_161)\n    tag_162:\n      pop\n        /* \"Will.sol\":4085:4091  uint i */\n      0x00\n        /* \"Will.sol\":4080:4236  for (uint i = 0; i < _nfts.length; i++) {... */\n    tag_179:\n        /* \"Will.sol\":4097:4113  i < _nfts.length */\n      dup3\n      dup2\n      lt\n        /* \"Will.sol\":4080:4236  for (uint i = 0; i < _nfts.length; i++) {... */\n      iszero\n      tag_180\n      jumpi\n        /* \"Will.sol\":4143:4148  _nfts */\n      dup4\n      dup4\n        /* \"Will.sol\":4149:4150  i */\n      dup3\n        /* \"Will.sol\":4143:4151  _nfts[i] */\n      dup2\n      dup2\n      lt\n      tag_183\n      jumpi\n      tag_183\n      tag_166\n      jump\t// in\n    tag_183:\n        /* \"Will.sol\":4143:4165  _nfts[i].tokenContract */\n      tag_184\n      swap3\n      0x20\n        /* \"Will.sol\":4143:4151  _nfts[i] */\n      0x60\n      swap1\n      swap3\n      mul\n      add\n        /* \"Will.sol\":4143:4165  _nfts[i].tokenContract */\n      swap1\n      dup2\n      add\n      swap2\n      pop\n      tag_116\n      jump\t// in\n    tag_184:\n      sub(shl(0xa0, 0x01), 0x01)\n        /* \"Will.sol\":4135:4179  IERC721(_nfts[i].tokenContract).transferFrom */\n      and\n      0x23b872dd\n        /* \"Will.sol\":4180:4190  msg.sender */\n      caller\n        /* \"Will.sol\":4200:4204  this */\n      address\n        /* \"Will.sol\":4207:4212  _nfts */\n      dup8\n      dup8\n        /* \"Will.sol\":4213:4214  i */\n      dup7\n        /* \"Will.sol\":4207:4215  _nfts[i] */\n      dup2\n      dup2\n      lt\n      tag_186\n      jumpi\n      tag_186\n      tag_166\n      jump\t// in\n    tag_186:\n      swap1\n      pop\n      0x60\n      mul\n      add\n        /* \"Will.sol\":4207:4223  _nfts[i].tokenId */\n      0x20\n      add\n      calldataload\n        /* \"Will.sol\":4135:4224  IERC721(_nfts[i].tokenContract).transferFrom(msg.sender, address(this), _nfts[i].tokenId) */\n      mload(0x40)\n      dup5\n      0xffffffff\n      and\n      0xe0\n      shl\n      dup2\n      mstore\n      0x04\n      add\n      tag_187\n      swap4\n      swap3\n      swap2\n      swap1\n      tag_174\n      jump\t// in\n    tag_187:\n      0x00\n      mload(0x40)\n      dup1\n      dup4\n      sub\n      dup2\n      0x00\n      dup8\n      dup1\n      extcodesize\n      iszero\n      dup1\n      iszero\n      tag_188\n      jumpi\n      0x00\n      dup1\n      revert\n    tag_188:\n      pop\n      gas\n      call\n      iszero\n      dup1\n      iszero\n      tag_190\n      jumpi\n      returndatasize\n      0x00\n      dup1\n      returndatacopy\n      revert(0x00, returndatasize)\n    tag_190:\n      pop\n      pop\n        /* \"Will.sol\":4115:4118  i++ */\n      0x01\n      swap1\n      swap3\n      add\n      swap2\n      pop\n        /* \"Will.sol\":4080:4236  for (uint i = 0; i < _nfts.length; i++) {... */\n      tag_179\n      swap1\n      pop\n      jump\n    tag_180:\n      pop\n        /* \"Will.sol\":4246:4289  _configure(_heirs, _distro, _erc20s, _nfts) */\n      tag_191\n        /* \"Will.sol\":4257:4263  _heirs */\n      dup8\n        /* \"Will.sol\":4265:4272  _distro */\n      dup8\n        /* \"Will.sol\":4274:4281  _erc20s */\n      dup8\n      dup8\n        /* \"Will.sol\":4283:4288  _nfts */\n      dup8\n      dup8\n        /* \"Will.sol\":4246:4256  _configure */\n      tag_192\n        /* \"Will.sol\":4246:4289  _configure(_heirs, _distro, _erc20s, _nfts) */\n      jump\t// in\n    tag_191:\n        /* \"Will.sol\":4300:4312  currentState */\n      0x02\n        /* \"Will.sol\":4300:4331  currentState = WillState.Active */\n      dup1\n      sload\n      not(0xff)\n      and\n        /* \"Will.sol\":4315:4331  WillState.Active */\n      0x01\n        /* \"Will.sol\":4300:4331  currentState = WillState.Active */\n      or\n      swap1\n      sstore\n        /* \"Will.sol\":4355:4370  block.timestamp */\n      timestamp\n        /* \"Will.sol\":4342:4352  lastUpdate */\n      0x03\n        /* \"Will.sol\":4342:4370  lastUpdate = block.timestamp */\n      sstore\n      0x00\n        /* \"@openzeppelin/contracts/access/Ownable.sol\":1710:1716  _owner */\n      dup1\n      sload\n        /* \"Will.sol\":4386:4409  WillConfigured(owner()) */\n      mload(0x40)\n      sub(shl(0xa0, 0x01), 0x01)\n        /* \"@openzeppelin/contracts/access/Ownable.sol\":1710:1716  _owner */\n      swap1\n      swap2\n      and\n      swap2\n        /* \"Will.sol\":4386:4409  WillConfigured(owner()) */\n      0xbbf74fb4e3c300bf9f00e1603668149fd64853bfcd5f194270d2b043d9bdbc61\n      swap2\n      log2\n        /* \"@openzeppelin/contracts/access/Ownable.sol\":1554:1555  _ */\n      pop\n        /* \"Will.sol\":3529:4417  function fundAndConfigure(... */\n      pop\n      pop\n      pop\n      pop\n      pop\n      pop\n      pop\n      jump\t// out\n        /* \"Will.sol\":5079:5225  function ping() external onlyOwner requiresState(WillState.Active) {... */\n    tag_57:\n        /* \"@openzeppelin/contracts/access/Ownable.sol\":1531:1544  _checkOwner() */\n      tag_197\n        /* \"@openzeppelin/contracts/access/Ownable.sol\":1531:1542  _checkOwner */\n      tag_124\n        /* \"@openzeppelin/contracts/access/Ownable.sol\":1531:1544  _checkOwner() */\n      jump\t// in\n    tag_197:\n        /* \"Will.sol\":5128:5144  WillState.Active */\n      0x01\n      dup1\n        /* \"Will.sol\":2523:2535  currentState */\n      0x02\n      dup1\n      sload\n      0xff\n      and\n      swap1\n        /* \"Will.sol\":2523:2545  currentState == _state */\n      dup2\n      gt\n      iszero\n      tag_202\n      jumpi\n      tag_202\n      tag_128\n      jump\t// in\n    tag_202:\n      eq\n        /* \"Will.sol\":2515:2585  require(currentState == _state, \"Will: Invalid state for this action\") */\n      tag_203\n      jumpi\n      mload(0x40)\n      shl(0xe5, 0x461bcd)\n      dup2\n      mstore\n      0x04\n      add\n      tag_132\n      swap1\n      tag_133\n      jump\t// in\n    tag_203:\n        /* \"Will.sol\":5170:5185  block.timestamp */\n      timestamp\n        /* \"Will.sol\":5157:5167  lastUpdate */\n      0x03\n        /* \"Will.sol\":5157:5185  lastUpdate = block.timestamp */\n      dup2\n      swap1\n      sstore\n        /* \"Will.sol\":5201:5217  Ping(lastUpdate) */\n      mload(0x40)\n        /* \"#utility.yul\":1140:1165   */\n      swap1\n      dup2\n      mstore\n        /* \"Will.sol\":5201:5217  Ping(lastUpdate) */\n      0x48257dc961b6f792c2b78a080dacfed693b660960a702de21cee364e20270e2f\n      swap1\n        /* \"#utility.yul\":1128:1130   */\n      0x20\n        /* \"#utility.yul\":1113:1131   */\n      add\n        /* \"Will.sol\":5201:5217  Ping(lastUpdate) */\n      mload(0x40)\n      dup1\n      swap2\n      sub\n      swap1\n      log1\n        /* \"@openzeppelin/contracts/access/Ownable.sol\":1554:1555  _ */\n      pop\n        /* \"Will.sol\":5079:5225  function ping() external onlyOwner requiresState(WillState.Active) {... */\n      jump\t// out\n        /* \"Will.sol\":5233:7514  function execute() external requiresState(WillState.Active) nonReentrant {... */\n    tag_60:\n        /* \"Will.sol\":5275:5291  WillState.Active */\n      0x01\n      dup1\n        /* \"Will.sol\":2523:2535  currentState */\n      0x02\n      dup1\n      sload\n      0xff\n      and\n      swap1\n        /* \"Will.sol\":2523:2545  currentState == _state */\n      dup2\n      gt\n      iszero\n      tag_211\n      jumpi\n      tag_211\n      tag_128\n      jump\t// in\n    tag_211:\n      eq\n        /* \"Will.sol\":2515:2585  require(currentState == _state, \"Will: Invalid state for this action\") */\n      tag_212\n      jumpi\n      mload(0x40)\n      shl(0xe5, 0x461bcd)\n      dup2\n      mstore\n      0x04\n      add\n      tag_132\n      swap1\n      tag_133\n      jump\t// in\n    tag_212:\n        /* \"Will.sol\":561:579  _preReentryCheck() */\n      tag_215\n        /* \"Will.sol\":561:577  _preReentryCheck */\n      tag_136\n        /* \"Will.sol\":561:579  _preReentryCheck() */\n      jump\t// in\n    tag_215:\n        /* \"Will.sol\":441:442  2 */\n      0x02\n        /* \"Will.sol\":590:597  _status */\n      0x01\n        /* \"Will.sol\":590:608  _status = _ENTERED */\n      sstore\n        /* \"Will.sol\":5355:5363  interval */\n      sload(0x04)\n        /* \"Will.sol\":5342:5352  lastUpdate */\n      sload(0x03)\n        /* \"Will.sol\":5317:5339  uint256 gracePeriodEnd */\n      0x00\n      swap2\n        /* \"Will.sol\":5342:5363  lastUpdate + interval */\n      tag_217\n      swap2\n      tag_218\n      jump\t// in\n    tag_217:\n        /* \"Will.sol\":5317:5363  uint256 gracePeriodEnd = lastUpdate + interval */\n      swap1\n      pop\n        /* \"Will.sol\":5401:5415  gracePeriodEnd */\n      dup1\n        /* \"Will.sol\":5382:5397  block.timestamp */\n      timestamp\n        /* \"Will.sol\":5382:5415  block.timestamp >= gracePeriodEnd */\n      lt\n      iszero\n        /* \"Will.sol\":5374:5447  require(block.timestamp >= gracePeriodEnd, \"Grace period has not ended.\") */\n      tag_219\n      jumpi\n      mload(0x40)\n      shl(0xe5, 0x461bcd)\n      dup2\n      mstore\n        /* \"#utility.yul\":11864:11866   */\n      0x20\n        /* \"Will.sol\":5374:5447  require(block.timestamp >= gracePeriodEnd, \"Grace period has not ended.\") */\n      0x04\n      dup3\n      add\n        /* \"#utility.yul\":11846:11867   */\n      mstore\n        /* \"#utility.yul\":11903:11905   */\n      0x1b\n        /* \"#utility.yul\":11883:11901   */\n      0x24\n      dup3\n      add\n        /* \"#utility.yul\":11876:11906   */\n      mstore\n        /* \"#utility.yul\":11942:11971   */\n      0x477261636520706572696f6420686173206e6f7420656e6465642e0000000000\n        /* \"#utility.yul\":11922:11940   */\n      0x44\n      dup3\n      add\n        /* \"#utility.yul\":11915:11972   */\n      mstore\n        /* \"#utility.yul\":11989:12007   */\n      0x64\n      add\n        /* \"Will.sol\":5374:5447  require(block.timestamp >= gracePeriodEnd, \"Grace period has not ended.\") */\n      tag_132\n        /* \"#utility.yul\":11662:12013   */\n      jump\n        /* \"Will.sol\":5374:5447  require(block.timestamp >= gracePeriodEnd, \"Grace period has not ended.\") */\n    tag_219:\n        /* \"Will.sol\":5458:5483  uint256 executorPeriodEnd */\n      0x00\n        /* \"Will.sol\":5486:5518  gracePeriodEnd + EXECUTOR_WINDOW */\n      tag_222\n        /* \"Will.sol\":1759:1765  1 days */\n      0x015180\n        /* \"Will.sol\":5486:5500  gracePeriodEnd */\n      dup4\n        /* \"Will.sol\":5486:5518  gracePeriodEnd + EXECUTOR_WINDOW */\n      tag_218\n      jump\t// in\n    tag_222:\n        /* \"Will.sol\":5458:5518  uint256 executorPeriodEnd = gracePeriodEnd + EXECUTOR_WINDOW */\n      swap1\n      pop\n        /* \"Will.sol\":5551:5568  executorPeriodEnd */\n      dup1\n        /* \"Will.sol\":5533:5548  block.timestamp */\n      timestamp\n        /* \"Will.sol\":5533:5568  block.timestamp < executorPeriodEnd */\n      lt\n        /* \"Will.sol\":5529:5654  if (block.timestamp < executorPeriodEnd) { require(msg.sender == executorAddress, \"Only designated executor can call now\"); } */\n      iszero\n      tag_224\n      jumpi\n        /* \"Will.sol\":5580:5590  msg.sender */\n      caller\n      sub(shl(0xa0, 0x01), 0x01)\n        /* \"Will.sol\":5594:5609  executorAddress */\n      immutable(\"0x8e831a88d8106460d1544aa376ec6155091b50c6145ad03273db7938ca17c5b1\")\n        /* \"Will.sol\":5580:5609  msg.sender == executorAddress */\n      and\n      eq\n        /* \"Will.sol\":5572:5651  require(msg.sender == executorAddress, \"Only designated executor can call now\") */\n      tag_224\n      jumpi\n      mload(0x40)\n      shl(0xe5, 0x461bcd)\n      dup2\n      mstore\n        /* \"#utility.yul\":12220:12222   */\n      0x20\n        /* \"Will.sol\":5572:5651  require(msg.sender == executorAddress, \"Only designated executor can call now\") */\n      0x04\n      dup3\n      add\n        /* \"#utility.yul\":12202:12223   */\n      mstore\n        /* \"#utility.yul\":12259:12261   */\n      0x25\n        /* \"#utility.yul\":12239:12257   */\n      0x24\n      dup3\n      add\n        /* \"#utility.yul\":12232:12262   */\n      mstore\n        /* \"#utility.yul\":12298:12332   */\n      0x4f6e6c792064657369676e61746564206578656375746f722063616e2063616c\n        /* \"#utility.yul\":12278:12296   */\n      0x44\n      dup3\n      add\n        /* \"#utility.yul\":12271:12333   */\n      mstore\n      shl(0xd8, 0x6c206e6f77)\n        /* \"#utility.yul\":12349:12367   */\n      0x64\n      dup3\n      add\n        /* \"#utility.yul\":12342:12377   */\n      mstore\n        /* \"#utility.yul\":12394:12413   */\n      0x84\n      add\n        /* \"Will.sol\":5572:5651  require(msg.sender == executorAddress, \"Only designated executor can call now\") */\n      tag_132\n        /* \"#utility.yul\":12018:12419   */\n      jump\n        /* \"Will.sol\":5572:5651  require(msg.sender == executorAddress, \"Only designated executor can call now\") */\n    tag_224:\n        /* \"Will.sol\":5689:5707  WillState.Executed */\n      0x02\n        /* \"Will.sol\":5674:5707  currentState = WillState.Executed */\n      dup1\n      sload\n      not(0xff)\n      and\n      dup2\n      or\n      swap1\n      sstore\n      0x00\n        /* \"Will.sol\":5742:5757  block.timestamp */\n      timestamp\n        /* \"Will.sol\":5742:5777  block.timestamp < executorPeriodEnd */\n      dup3\n      gt\n        /* \"Will.sol\":5741:5808  (block.timestamp < executorPeriodEnd) ? sourceContract : msg.sender */\n      tag_229\n      jumpi\n        /* \"Will.sol\":5798:5808  msg.sender */\n      caller\n        /* \"Will.sol\":5741:5808  (block.timestamp < executorPeriodEnd) ? sourceContract : msg.sender */\n      jump(tag_230)\n    tag_229:\n        /* \"Will.sol\":5781:5795  sourceContract */\n      immutable(\"0xd094ef07eef1924f3d7fe3d896f6ebece97bd5683077be90743b91a72d59db67\")\n        /* \"Will.sol\":5741:5808  (block.timestamp < executorPeriodEnd) ? sourceContract : msg.sender */\n    tag_230:\n        /* \"Will.sol\":5718:5808  address feeRecipient = (block.timestamp < executorPeriodEnd) ? sourceContract : msg.sender */\n      swap1\n      pop\n        /* \"Will.sol\":5819:5838  uint256 totalEthFee */\n      0x00\n        /* \"Will.sol\":5872:5893  address(this).balance */\n      selfbalance\n        /* \"Will.sol\":5908:5920  totalEth > 0 */\n      dup1\n      iszero\n        /* \"Will.sol\":5904:6522  if (totalEth > 0) {... */\n      tag_231\n      jumpi\n        /* \"Will.sol\":5937:5951  uint256 ethFee */\n      0x00\n        /* \"Will.sol\":5987:5992  10000 */\n      0x2710\n        /* \"Will.sol\":5955:5983  totalEth * EXECUTION_FEE_BPS */\n      tag_232\n        /* \"Will.sol\":1816:1818  50 */\n      0x32\n        /* \"Will.sol\":5955:5963  totalEth */\n      dup5\n        /* \"Will.sol\":5955:5983  totalEth * EXECUTION_FEE_BPS */\n      tag_233\n      jump\t// in\n    tag_232:\n        /* \"Will.sol\":5954:5992  (totalEth * EXECUTION_FEE_BPS) / 10000 */\n      tag_234\n      swap2\n      swap1\n      tag_235\n      jump\t// in\n    tag_234:\n        /* \"Will.sol\":5937:5992  uint256 ethFee = (totalEth * EXECUTION_FEE_BPS) / 10000 */\n      swap3\n      pop\n      dup3\n      swap1\n      pop\n        /* \"Will.sol\":6042:6066  uint256 distributableEth */\n      0x00\n        /* \"Will.sol\":6069:6086  totalEth - ethFee */\n      tag_236\n        /* \"Will.sol\":5937:5992  uint256 ethFee = (totalEth * EXECUTION_FEE_BPS) / 10000 */\n      dup3\n        /* \"Will.sol\":6069:6077  totalEth */\n      dup5\n        /* \"Will.sol\":6069:6086  totalEth - ethFee */\n      tag_237\n      jump\t// in\n    tag_236:\n        /* \"Will.sol\":6042:6086  uint256 distributableEth = totalEth - ethFee */\n      swap1\n      pop\n        /* \"Will.sol\":6105:6115  ethFee > 0 */\n      dup2\n      iszero\n        /* \"Will.sol\":6101:6219  if (ethFee > 0) { (bool s, ) = payable(feeRecipient).call{value: ethFee}(\"\"); require(s, \"ETH fee transfer failed\"); } */\n      tag_238\n      jumpi\n        /* \"Will.sol\":6120:6126  bool s */\n      0x00\n        /* \"Will.sol\":6140:6152  feeRecipient */\n      dup6\n      sub(shl(0xa0, 0x01), 0x01)\n        /* \"Will.sol\":6132:6158  payable(feeRecipient).call */\n      and\n        /* \"Will.sol\":6166:6172  ethFee */\n      dup4\n        /* \"Will.sol\":6132:6177  payable(feeRecipient).call{value: ethFee}(\"\") */\n      mload(0x40)\n      0x00\n      mload(0x40)\n      dup1\n      dup4\n      sub\n      dup2\n      dup6\n      dup8\n      gas\n      call\n      swap3\n      pop\n      pop\n      pop\n      returndatasize\n      dup1\n      0x00\n      dup2\n      eq\n      tag_243\n      jumpi\n      mload(0x40)\n      swap2\n      pop\n      and(add(returndatasize, 0x3f), not(0x1f))\n      dup3\n      add\n      0x40\n      mstore\n      returndatasize\n      dup3\n      mstore\n      returndatasize\n      0x00\n      0x20\n      dup5\n      add\n      returndatacopy\n      jump(tag_242)\n    tag_243:\n      0x60\n      swap2\n      pop\n    tag_242:\n      pop\n        /* \"Will.sol\":6119:6177  (bool s, ) = payable(feeRecipient).call{value: ethFee}(\"\") */\n      pop\n      swap1\n      pop\n        /* \"Will.sol\":6187:6188  s */\n      dup1\n        /* \"Will.sol\":6179:6216  require(s, \"ETH fee transfer failed\") */\n      tag_244\n      jumpi\n      mload(0x40)\n      shl(0xe5, 0x461bcd)\n      dup2\n      mstore\n        /* \"#utility.yul\":13364:13366   */\n      0x20\n        /* \"Will.sol\":6179:6216  require(s, \"ETH fee transfer failed\") */\n      0x04\n      dup3\n      add\n        /* \"#utility.yul\":13346:13367   */\n      mstore\n        /* \"#utility.yul\":13403:13405   */\n      0x17\n        /* \"#utility.yul\":13383:13401   */\n      0x24\n      dup3\n      add\n        /* \"#utility.yul\":13376:13406   */\n      mstore\n        /* \"#utility.yul\":13442:13467   */\n      0x45544820666565207472616e73666572206661696c6564000000000000000000\n        /* \"#utility.yul\":13422:13440   */\n      0x44\n      dup3\n      add\n        /* \"#utility.yul\":13415:13468   */\n      mstore\n        /* \"#utility.yul\":13485:13503   */\n      0x64\n      add\n        /* \"Will.sol\":6179:6216  require(s, \"ETH fee transfer failed\") */\n      tag_132\n        /* \"#utility.yul\":13162:13509   */\n      jump\n        /* \"Will.sol\":6179:6216  require(s, \"ETH fee transfer failed\") */\n    tag_244:\n        /* \"Will.sol\":6117:6219  { (bool s, ) = payable(feeRecipient).call{value: ethFee}(\"\"); require(s, \"ETH fee transfer failed\"); } */\n      pop\n        /* \"Will.sol\":6101:6219  if (ethFee > 0) { (bool s, ) = payable(feeRecipient).call{value: ethFee}(\"\"); require(s, \"ETH fee transfer failed\"); } */\n    tag_238:\n        /* \"Will.sol\":6238:6244  uint i */\n      0x00\n        /* \"Will.sol\":6233:6511  for (uint i = 0; i < heirs.length; i++) {... */\n    tag_247:\n        /* \"Will.sol\":6254:6259  heirs */\n      0x05\n        /* \"Will.sol\":6254:6266  heirs.length */\n      sload\n        /* \"Will.sol\":6250:6266  i < heirs.length */\n      dup2\n      lt\n        /* \"Will.sol\":6233:6511  for (uint i = 0; i < heirs.length; i++) {... */\n      iszero\n      tag_248\n      jumpi\n        /* \"Will.sol\":6292:6305  uint256 share */\n      0x00\n        /* \"Will.sol\":6358:6361  100 */\n      0x64\n        /* \"Will.sol\":6328:6351  distributionPercentages */\n      0x06\n        /* \"Will.sol\":6352:6353  i */\n      dup4\n        /* \"Will.sol\":6328:6354  distributionPercentages[i] */\n      dup2\n      sload\n      dup2\n      lt\n      tag_251\n      jumpi\n      tag_251\n      tag_166\n      jump\t// in\n    tag_251:\n      swap1\n      0x00\n      mstore\n      keccak256(0x00, 0x20)\n      add\n      sload\n        /* \"Will.sol\":6309:6325  distributableEth */\n      dup5\n        /* \"Will.sol\":6309:6354  distributableEth * distributionPercentages[i] */\n      tag_253\n      swap2\n      swap1\n      tag_233\n      jump\t// in\n    tag_253:\n        /* \"Will.sol\":6308:6361  (distributableEth * distributionPercentages[i]) / 100 */\n      tag_254\n      swap2\n      swap1\n      tag_235\n      jump\t// in\n    tag_254:\n        /* \"Will.sol\":6292:6361  uint256 share = (distributableEth * distributionPercentages[i]) / 100 */\n      swap1\n      pop\n        /* \"Will.sol\":6384:6393  share > 0 */\n      dup1\n      iszero\n        /* \"Will.sol\":6380:6496  if (share > 0) { (bool s, ) = payable(heirs[i]).call{value: share}(\"\"); require(s, \"ETH transfer to heir failed\"); } */\n      tag_255\n      jumpi\n        /* \"Will.sol\":6398:6404  bool s */\n      0x00\n        /* \"Will.sol\":6418:6423  heirs */\n      0x05\n        /* \"Will.sol\":6424:6425  i */\n      dup4\n        /* \"Will.sol\":6418:6426  heirs[i] */\n      dup2\n      sload\n      dup2\n      lt\n      tag_257\n      jumpi\n      tag_257\n      tag_166\n      jump\t// in\n    tag_257:\n      0x00\n      swap2\n      dup3\n      mstore\n      0x20\n      dup3\n      keccak256\n      add\n      sload\n        /* \"Will.sol\":6410:6450  payable(heirs[i]).call{value: share}(\"\") */\n      mload(0x40)\n      sub(shl(0xa0, 0x01), 0x01)\n        /* \"Will.sol\":6418:6426  heirs[i] */\n      swap1\n      swap2\n      and\n      swap2\n        /* \"Will.sol\":6440:6445  share */\n      dup5\n      swap2\n        /* \"Will.sol\":6410:6450  payable(heirs[i]).call{value: share}(\"\") */\n      swap1\n      dup2\n        /* \"Will.sol\":6418:6426  heirs[i] */\n      dup2\n        /* \"Will.sol\":6410:6450  payable(heirs[i]).call{value: share}(\"\") */\n      dup2\n        /* \"Will.sol\":6440:6445  share */\n      dup6\n        /* \"Will.sol\":6418:6426  heirs[i] */\n      dup8\n        /* \"Will.sol\":6410:6450  payable(heirs[i]).call{value: share}(\"\") */\n      gas\n      call\n      swap3\n      pop\n      pop\n      pop\n      returndatasize\n      dup1\n      0x00\n      dup2\n      eq\n      tag_262\n      jumpi\n      mload(0x40)\n      swap2\n      pop\n      and(add(returndatasize, 0x3f), not(0x1f))\n      dup3\n      add\n      0x40\n      mstore\n      returndatasize\n      dup3\n      mstore\n      returndatasize\n      0x00\n      0x20\n      dup5\n      add\n      returndatacopy\n      jump(tag_261)\n    tag_262:\n      0x60\n      swap2\n      pop\n    tag_261:\n      pop\n        /* \"Will.sol\":6397:6450  (bool s, ) = payable(heirs[i]).call{value: share}(\"\") */\n      pop\n      swap1\n      pop\n        /* \"Will.sol\":6460:6461  s */\n      dup1\n        /* \"Will.sol\":6452:6493  require(s, \"ETH transfer to heir failed\") */\n      tag_263\n      jumpi\n      mload(0x40)\n      shl(0xe5, 0x461bcd)\n      dup2\n      mstore\n        /* \"#utility.yul\":13716:13718   */\n      0x20\n        /* \"Will.sol\":6452:6493  require(s, \"ETH transfer to heir failed\") */\n      0x04\n      dup3\n      add\n        /* \"#utility.yul\":13698:13719   */\n      mstore\n        /* \"#utility.yul\":13755:13757   */\n      0x1b\n        /* \"#utility.yul\":13735:13753   */\n      0x24\n      dup3\n      add\n        /* \"#utility.yul\":13728:13758   */\n      mstore\n        /* \"#utility.yul\":13794:13823   */\n      0x455448207472616e7366657220746f2068656972206661696c65640000000000\n        /* \"#utility.yul\":13774:13792   */\n      0x44\n      dup3\n      add\n        /* \"#utility.yul\":13767:13824   */\n      mstore\n        /* \"#utility.yul\":13841:13859   */\n      0x64\n      add\n        /* \"Will.sol\":6452:6493  require(s, \"ETH transfer to heir failed\") */\n      tag_132\n        /* \"#utility.yul\":13514:13865   */\n      jump\n        /* \"Will.sol\":6452:6493  require(s, \"ETH transfer to heir failed\") */\n    tag_263:\n        /* \"Will.sol\":6395:6496  { (bool s, ) = payable(heirs[i]).call{value: share}(\"\"); require(s, \"ETH transfer to heir failed\"); } */\n      pop\n        /* \"Will.sol\":6380:6496  if (share > 0) { (bool s, ) = payable(heirs[i]).call{value: share}(\"\"); require(s, \"ETH transfer to heir failed\"); } */\n    tag_255:\n      pop\n        /* \"Will.sol\":6268:6271  i++ */\n      0x01\n      add\n        /* \"Will.sol\":6233:6511  for (uint i = 0; i < heirs.length; i++) {... */\n      jump(tag_247)\n    tag_248:\n      pop\n        /* \"Will.sol\":5922:6522  {... */\n      pop\n      pop\n        /* \"Will.sol\":5904:6522  if (totalEth > 0) {... */\n    tag_231:\n        /* \"Will.sol\":6537:6543  uint i */\n      0x00\n        /* \"Will.sol\":6532:7233  for (uint i = 0; i < erc20Assets.length; i++) {... */\n    tag_266:\n        /* \"Will.sol\":6553:6564  erc20Assets */\n      0x07\n        /* \"Will.sol\":6553:6571  erc20Assets.length */\n      sload\n        /* \"Will.sol\":6549:6571  i < erc20Assets.length */\n      dup2\n      lt\n        /* \"Will.sol\":6532:7233  for (uint i = 0; i < erc20Assets.length; i++) {... */\n      iszero\n      tag_267\n      jumpi\n        /* \"Will.sol\":6593:6605  IERC20 token */\n      0x00\n        /* \"Will.sol\":6608:6619  erc20Assets */\n      0x07\n        /* \"Will.sol\":6620:6621  i */\n      dup3\n        /* \"Will.sol\":6608:6622  erc20Assets[i] */\n      dup2\n      sload\n      dup2\n      lt\n      tag_270\n      jumpi\n      tag_270\n      tag_166\n      jump\t// in\n    tag_270:\n      0x00\n      swap2\n      dup3\n      mstore\n      0x20\n      dup3\n      keccak256\n      add\n        /* \"Will.sol\":6608:6628  erc20Assets[i].token */\n      sload\n        /* \"Will.sol\":6665:6695  token.balanceOf(address(this)) */\n      mload(0x40)\n      shl(0xe0, 0x70a08231)\n      dup2\n      mstore\n        /* \"Will.sol\":6689:6693  this */\n      address\n        /* \"Will.sol\":6665:6695  token.balanceOf(address(this)) */\n      0x04\n      dup3\n      add\n        /* \"#utility.yul\":932:983   */\n      mstore\n      sub(shl(0xa0, 0x01), 0x01)\n        /* \"Will.sol\":6608:6628  erc20Assets[i].token */\n      swap1\n      swap2\n      and\n      swap3\n      pop\n      dup3\n      swap1\n        /* \"Will.sol\":6665:6680  token.balanceOf */\n      0x70a08231\n      swap1\n        /* \"#utility.yul\":905:923   */\n      0x24\n      add\n        /* \"Will.sol\":6665:6695  token.balanceOf(address(this)) */\n      0x20\n      mload(0x40)\n      dup1\n      dup4\n      sub\n      dup2\n      dup7\n      gas\n      staticcall\n      iszero\n      dup1\n      iszero\n      tag_274\n      jumpi\n      returndatasize\n      0x00\n      dup1\n      returndatacopy\n      revert(0x00, returndatasize)\n    tag_274:\n      pop\n      pop\n      pop\n      pop\n      mload(0x40)\n      returndatasize\n      not(0x1f)\n      0x1f\n      dup3\n      add\n      and\n      dup3\n      add\n      dup1\n      0x40\n      mstore\n      pop\n      dup2\n      add\n      swap1\n      tag_275\n      swap2\n      swap1\n      tag_276\n      jump\t// in\n    tag_275:\n        /* \"Will.sol\":6643:6695  uint256 totalTokens = token.balanceOf(address(this)) */\n      swap1\n      pop\n        /* \"Will.sol\":6714:6729  totalTokens > 0 */\n      dup1\n      iszero\n        /* \"Will.sol\":6710:7222  if (totalTokens > 0) {... */\n      tag_277\n      jumpi\n        /* \"Will.sol\":6750:6766  uint256 tokenFee */\n      0x00\n        /* \"Will.sol\":6805:6810  10000 */\n      0x2710\n        /* \"Will.sol\":6770:6801  totalTokens * EXECUTION_FEE_BPS */\n      tag_278\n        /* \"Will.sol\":1816:1818  50 */\n      0x32\n        /* \"Will.sol\":6770:6781  totalTokens */\n      dup5\n        /* \"Will.sol\":6770:6801  totalTokens * EXECUTION_FEE_BPS */\n      tag_233\n      jump\t// in\n    tag_278:\n        /* \"Will.sol\":6769:6810  (totalTokens * EXECUTION_FEE_BPS) / 10000 */\n      tag_279\n      swap2\n      swap1\n      tag_235\n      jump\t// in\n    tag_279:\n        /* \"Will.sol\":6750:6810  uint256 tokenFee = (totalTokens * EXECUTION_FEE_BPS) / 10000 */\n      swap1\n      pop\n        /* \"Will.sol\":6829:6856  uint256 distributableTokens */\n      0x00\n        /* \"Will.sol\":6859:6881  totalTokens - tokenFee */\n      tag_280\n        /* \"Will.sol\":6750:6810  uint256 tokenFee = (totalTokens * EXECUTION_FEE_BPS) / 10000 */\n      dup3\n        /* \"Will.sol\":6859:6870  totalTokens */\n      dup5\n        /* \"Will.sol\":6859:6881  totalTokens - tokenFee */\n      tag_237\n      jump\t// in\n    tag_280:\n        /* \"Will.sol\":6829:6881  uint256 distributableTokens = totalTokens - tokenFee */\n      swap1\n      pop\n        /* \"Will.sol\":6904:6916  tokenFee > 0 */\n      dup2\n      iszero\n        /* \"Will.sol\":6900:6961  if (tokenFee > 0) { token.transfer(feeRecipient, tokenFee); } */\n      tag_281\n      jumpi\n        /* \"Will.sol\":6920:6958  token.transfer(feeRecipient, tokenFee) */\n      mload(0x40)\n      shl(0xe0, 0xa9059cbb)\n      dup2\n      mstore\n      sub(shl(0xa0, 0x01), 0x01)\n        /* \"#utility.yul\":14251:14283   */\n      dup10\n      dup2\n      and\n        /* \"Will.sol\":6920:6958  token.transfer(feeRecipient, tokenFee) */\n      0x04\n      dup4\n      add\n        /* \"#utility.yul\":14233:14284   */\n      mstore\n        /* \"#utility.yul\":14300:14318   */\n      0x24\n      dup3\n      add\n        /* \"#utility.yul\":14293:14327   */\n      dup5\n      swap1\n      mstore\n        /* \"Will.sol\":6920:6934  token.transfer */\n      dup6\n      and\n      swap1\n      0xa9059cbb\n      swap1\n        /* \"#utility.yul\":14206:14224   */\n      0x44\n      add\n        /* \"Will.sol\":6920:6958  token.transfer(feeRecipient, tokenFee) */\n      0x20\n      mload(0x40)\n      dup1\n      dup4\n      sub\n      dup2\n      0x00\n      dup8\n      gas\n      call\n      iszero\n      dup1\n      iszero\n      tag_285\n      jumpi\n      returndatasize\n      0x00\n      dup1\n      returndatacopy\n      revert(0x00, returndatasize)\n    tag_285:\n      pop\n      pop\n      pop\n      pop\n      mload(0x40)\n      returndatasize\n      not(0x1f)\n      0x1f\n      dup3\n      add\n      and\n      dup3\n      add\n      dup1\n      0x40\n      mstore\n      pop\n      dup2\n      add\n      swap1\n      tag_286\n      swap2\n      swap1\n      tag_178\n      jump\t// in\n    tag_286:\n      pop\n        /* \"Will.sol\":6900:6961  if (tokenFee > 0) { token.transfer(feeRecipient, tokenFee); } */\n    tag_281:\n        /* \"Will.sol\":6984:6990  uint j */\n      0x00\n        /* \"Will.sol\":6979:7207  for (uint j = 0; j < heirs.length; j++) {... */\n    tag_287:\n        /* \"Will.sol\":7000:7005  heirs */\n      0x05\n        /* \"Will.sol\":7000:7012  heirs.length */\n      sload\n        /* \"Will.sol\":6996:7012  j < heirs.length */\n      dup2\n      lt\n        /* \"Will.sol\":6979:7207  for (uint j = 0; j < heirs.length; j++) {... */\n      iszero\n      tag_288\n      jumpi\n        /* \"Will.sol\":7042:7055  uint256 share */\n      0x00\n        /* \"Will.sol\":7111:7114  100 */\n      0x64\n        /* \"Will.sol\":7081:7104  distributionPercentages */\n      0x06\n        /* \"Will.sol\":7105:7106  j */\n      dup4\n        /* \"Will.sol\":7081:7107  distributionPercentages[j] */\n      dup2\n      sload\n      dup2\n      lt\n      tag_291\n      jumpi\n      tag_291\n      tag_166\n      jump\t// in\n    tag_291:\n      swap1\n      0x00\n      mstore\n      keccak256(0x00, 0x20)\n      add\n      sload\n        /* \"Will.sol\":7059:7078  distributableTokens */\n      dup5\n        /* \"Will.sol\":7059:7107  distributableTokens * distributionPercentages[j] */\n      tag_293\n      swap2\n      swap1\n      tag_233\n      jump\t// in\n    tag_293:\n        /* \"Will.sol\":7058:7114  (distributableTokens * distributionPercentages[j]) / 100 */\n      tag_294\n      swap2\n      swap1\n      tag_235\n      jump\t// in\n    tag_294:\n        /* \"Will.sol\":7042:7114  uint256 share = (distributableTokens * distributionPercentages[j]) / 100 */\n      swap1\n      pop\n        /* \"Will.sol\":7141:7150  share > 0 */\n      dup1\n      iszero\n        /* \"Will.sol\":7137:7188  if (share > 0) { token.transfer(heirs[j], share); } */\n      tag_295\n      jumpi\n        /* \"Will.sol\":7154:7159  token */\n      dup6\n      sub(shl(0xa0, 0x01), 0x01)\n        /* \"Will.sol\":7154:7168  token.transfer */\n      and\n      0xa9059cbb\n        /* \"Will.sol\":7169:7174  heirs */\n      0x05\n        /* \"Will.sol\":7175:7176  j */\n      dup5\n        /* \"Will.sol\":7169:7177  heirs[j] */\n      dup2\n      sload\n      dup2\n      lt\n      tag_297\n      jumpi\n      tag_297\n      tag_166\n      jump\t// in\n    tag_297:\n      0x00\n      swap2\n      dup3\n      mstore\n      0x20\n      swap1\n      swap2\n      keccak256\n      add\n      sload\n        /* \"Will.sol\":7154:7185  token.transfer(heirs[j], share) */\n      mload(0x40)\n      0xe0\n      dup4\n      swap1\n      shl\n      not(sub(shl(0xe0, 0x01), 0x01))\n      and\n      dup2\n      mstore\n      sub(shl(0xa0, 0x01), 0x01)\n        /* \"Will.sol\":7169:7177  heirs[j] */\n      swap1\n      swap2\n      and\n        /* \"Will.sol\":7154:7185  token.transfer(heirs[j], share) */\n      0x04\n      dup3\n      add\n        /* \"#utility.yul\":14233:14284   */\n      mstore\n        /* \"#utility.yul\":14300:14318   */\n      0x24\n      dup2\n      add\n        /* \"#utility.yul\":14293:14327   */\n      dup5\n      swap1\n      mstore\n        /* \"#utility.yul\":14206:14224   */\n      0x44\n      add\n        /* \"Will.sol\":7154:7185  token.transfer(heirs[j], share) */\n      0x20\n      mload(0x40)\n      dup1\n      dup4\n      sub\n      dup2\n      0x00\n      dup8\n      gas\n      call\n      iszero\n      dup1\n      iszero\n      tag_301\n      jumpi\n      returndatasize\n      0x00\n      dup1\n      returndatacopy\n      revert(0x00, returndatasize)\n    tag_301:\n      pop\n      pop\n      pop\n      pop\n      mload(0x40)\n      returndatasize\n      not(0x1f)\n      0x1f\n      dup3\n      add\n      and\n      dup3\n      add\n      dup1\n      0x40\n      mstore\n      pop\n      dup2\n      add\n      swap1\n      tag_302\n      swap2\n      swap1\n      tag_178\n      jump\t// in\n    tag_302:\n      pop\n        /* \"Will.sol\":7137:7188  if (share > 0) { token.transfer(heirs[j], share); } */\n    tag_295:\n      pop\n        /* \"Will.sol\":7014:7017  j++ */\n      0x01\n      add\n        /* \"Will.sol\":6979:7207  for (uint j = 0; j < heirs.length; j++) {... */\n      jump(tag_287)\n    tag_288:\n      pop\n        /* \"Will.sol\":6731:7222  {... */\n      pop\n      pop\n        /* \"Will.sol\":6710:7222  if (totalTokens > 0) {... */\n    tag_277:\n      pop\n      pop\n        /* \"Will.sol\":6573:6576  i++ */\n      0x01\n      add\n        /* \"Will.sol\":6532:7233  for (uint i = 0; i < erc20Assets.length; i++) {... */\n      jump(tag_266)\n    tag_267:\n      pop\n        /* \"Will.sol\":7248:7254  uint i */\n      0x00\n        /* \"Will.sol\":7243:7444  for (uint i = 0; i < erc721Assets.length; i++) {... */\n    tag_303:\n        /* \"Will.sol\":7264:7276  erc721Assets */\n      0x08\n        /* \"Will.sol\":7264:7283  erc721Assets.length */\n      sload\n        /* \"Will.sol\":7260:7283  i < erc721Assets.length */\n      dup2\n      lt\n        /* \"Will.sol\":7243:7444  for (uint i = 0; i < erc721Assets.length; i++) {... */\n      iszero\n      tag_304\n      jumpi\n        /* \"Will.sol\":7305:7329  Erc721Asset memory asset */\n      0x00\n        /* \"Will.sol\":7332:7344  erc721Assets */\n      0x08\n        /* \"Will.sol\":7345:7346  i */\n      dup3\n        /* \"Will.sol\":7332:7347  erc721Assets[i] */\n      dup2\n      sload\n      dup2\n      lt\n      tag_307\n      jumpi\n      tag_307\n      tag_166\n      jump\t// in\n    tag_307:\n      0x00\n      swap2\n      dup3\n      mstore\n      0x20\n      swap2\n      dup3\n      swap1\n      keccak256\n        /* \"Will.sol\":7305:7347  Erc721Asset memory asset = erc721Assets[i] */\n      0x40\n      dup1\n      mload\n      0x60\n      dup2\n      add\n      dup3\n      mstore\n        /* \"Will.sol\":7332:7347  erc721Assets[i] */\n      0x03\n      swap1\n      swap4\n      mul\n      swap1\n      swap2\n      add\n        /* \"Will.sol\":7305:7347  Erc721Asset memory asset = erc721Assets[i] */\n      dup1\n      sload\n      sub(shl(0xa0, 0x01), 0x01)\n      swap1\n      dup2\n      and\n      dup1\n      dup6\n      mstore\n      0x01\n      dup4\n      add\n      sload\n      swap6\n      dup6\n      add\n      dup7\n      swap1\n      mstore\n      0x02\n      swap1\n      swap3\n      add\n      sload\n      and\n      dup4\n      dup4\n      add\n      dup2\n      swap1\n      mstore\n        /* \"Will.sol\":7362:7432  asset.token.safeTransferFrom(address(this), asset.heir, asset.tokenId) */\n      swap2\n      mload\n      shl(0xe1, 0x21421707)\n      dup2\n      mstore\n        /* \"Will.sol\":7305:7347  Erc721Asset memory asset = erc721Assets[i] */\n      swap3\n      swap5\n      pop\n      swap3\n        /* \"Will.sol\":7362:7390  asset.token.safeTransferFrom */\n      0x42842e0e\n      swap3\n        /* \"Will.sol\":7362:7432  asset.token.safeTransferFrom(address(this), asset.heir, asset.tokenId) */\n      tag_309\n      swap3\n        /* \"Will.sol\":7399:7403  this */\n      address\n      swap3\n        /* \"Will.sol\":7305:7347  Erc721Asset memory asset = erc721Assets[i] */\n      swap1\n      swap2\n        /* \"Will.sol\":7362:7432  asset.token.safeTransferFrom(address(this), asset.heir, asset.tokenId) */\n      0x04\n      add\n      tag_174\n      jump\t// in\n    tag_309:\n      0x00\n      mload(0x40)\n      dup1\n      dup4\n      sub\n      dup2\n      0x00\n      dup8\n      dup1\n      extcodesize\n      iszero\n      dup1\n      iszero\n      tag_310\n      jumpi\n      0x00\n      dup1\n      revert\n    tag_310:\n      pop\n      gas\n      call\n      iszero\n      dup1\n      iszero\n      tag_312\n      jumpi\n      returndatasize\n      0x00\n      dup1\n      returndatacopy\n      revert(0x00, returndatasize)\n    tag_312:\n      pop\n      pop\n        /* \"Will.sol\":7285:7288  i++ */\n      0x01\n      swap1\n      swap4\n      add\n      swap3\n      pop\n        /* \"Will.sol\":7243:7444  for (uint i = 0; i < erc721Assets.length; i++) {... */\n      tag_303\n      swap2\n      pop\n      pop\n      jump\n    tag_304:\n      pop\n        /* \"Will.sol\":7459:7506  Executed(msg.sender, totalEthFee, feeRecipient) */\n      0x40\n      dup1\n      mload\n        /* \"Will.sol\":7468:7478  msg.sender */\n      caller\n        /* \"#utility.yul\":9679:9713   */\n      dup2\n      mstore\n        /* \"#utility.yul\":9744:9746   */\n      0x20\n        /* \"#utility.yul\":9729:9747   */\n      dup2\n      add\n        /* \"#utility.yul\":9722:9756   */\n      dup5\n      swap1\n      mstore\n      sub(shl(0xa0, 0x01), 0x01)\n        /* \"#utility.yul\":9792:9807   */\n      dup6\n      and\n        /* \"#utility.yul\":9772:9790   */\n      dup2\n      dup4\n      add\n        /* \"#utility.yul\":9765:9808   */\n      mstore\n        /* \"Will.sol\":7459:7506  Executed(msg.sender, totalEthFee, feeRecipient) */\n      swap1\n      mload\n      0x52ba16c8b985eff690a9de92094bd7486f89340e06e385ffb26de9c6eea384dc\n      swap2\n      dup2\n      swap1\n      sub\n        /* \"#utility.yul\":9629:9631   */\n      0x60\n        /* \"Will.sol\":7459:7506  Executed(msg.sender, totalEthFee, feeRecipient) */\n      add\n      swap1\n      log1\n      pop\n      pop\n        /* \"Will.sol\":397:398  1 */\n      0x01\n        /* \"Will.sol\":631:653  _status = _NOT_ENTERED */\n      dup1\n      sstore\n      pop\n      pop\n      pop\n      pop\n        /* \"Will.sol\":5233:7514  function execute() external requiresState(WillState.Active) nonReentrant {... */\n      jump\t// out\n        /* \"Will.sol\":4807:5067  function cancelAndWithdraw() external onlyOwner requiresState(WillState.Active) nonReentrant {... */\n    tag_63:\n        /* \"@openzeppelin/contracts/access/Ownable.sol\":1531:1544  _checkOwner() */\n      tag_316\n        /* \"@openzeppelin/contracts/access/Ownable.sol\":1531:1542  _checkOwner */\n      tag_124\n        /* \"@openzeppelin/contracts/access/Ownable.sol\":1531:1544  _checkOwner() */\n      jump\t// in\n    tag_316:\n        /* \"Will.sol\":4869:4885  WillState.Active */\n      0x01\n      dup1\n        /* \"Will.sol\":2523:2535  currentState */\n      0x02\n      dup1\n      sload\n      0xff\n      and\n      swap1\n        /* \"Will.sol\":2523:2545  currentState == _state */\n      dup2\n      gt\n      iszero\n      tag_321\n      jumpi\n      tag_321\n      tag_128\n      jump\t// in\n    tag_321:\n      eq\n        /* \"Will.sol\":2515:2585  require(currentState == _state, \"Will: Invalid state for this action\") */\n      tag_322\n      jumpi\n      mload(0x40)\n      shl(0xe5, 0x461bcd)\n      dup2\n      mstore\n      0x04\n      add\n      tag_132\n      swap1\n      tag_133\n      jump\t// in\n    tag_322:\n        /* \"Will.sol\":561:579  _preReentryCheck() */\n      tag_325\n        /* \"Will.sol\":561:577  _preReentryCheck */\n      tag_136\n        /* \"Will.sol\":561:579  _preReentryCheck() */\n      jump\t// in\n    tag_325:\n        /* \"Will.sol\":441:442  2 */\n      0x02\n        /* \"Will.sol\":590:597  _status */\n      0x01\n        /* \"Will.sol\":590:608  _status = _ENTERED */\n      sstore\n        /* \"Will.sol\":4911:4929  _returnAllAssets() */\n      tag_327\n        /* \"Will.sol\":4911:4927  _returnAllAssets */\n      tag_139\n        /* \"Will.sol\":4911:4929  _returnAllAssets() */\n      jump\t// in\n    tag_327:\n        /* \"Will.sol\":4948:4962  sourceContract */\n      immutable(\"0xd094ef07eef1924f3d7fe3d896f6ebece97bd5683077be90743b91a72d59db67\")\n      sub(shl(0xa0, 0x01), 0x01)\n        /* \"Will.sol\":4940:4979  ISource(sourceContract).clearWillRecord */\n      and\n      0xa658dd6b\n        /* \"Will.sol\":4980:4987  owner() */\n      tag_328\n        /* \"@openzeppelin/contracts/access/Ownable.sol\":1684:1691  address */\n      0x00\n        /* \"@openzeppelin/contracts/access/Ownable.sol\":1710:1716  _owner */\n      sload\n      sub(shl(0xa0, 0x01), 0x01)\n      and\n      swap1\n        /* \"@openzeppelin/contracts/access/Ownable.sol\":1638:1723  function owner() public view virtual returns (address) {... */\n      jump\n        /* \"Will.sol\":4980:4987  owner() */\n    tag_328:\n        /* \"Will.sol\":4940:4988  ISource(sourceContract).clearWillRecord(owner()) */\n      mload(0x40)\n      not(sub(shl(0xe0, 0x01), 0x01))\n      0xe0\n      dup5\n      swap1\n      shl\n      and\n      dup2\n      mstore\n      sub(shl(0xa0, 0x01), 0x01)\n        /* \"#utility.yul\":950:982   */\n      swap1\n      swap2\n      and\n        /* \"Will.sol\":4940:4988  ISource(sourceContract).clearWillRecord(owner()) */\n      0x04\n      dup3\n      add\n        /* \"#utility.yul\":932:983   */\n      mstore\n        /* \"#utility.yul\":905:923   */\n      0x24\n      add\n        /* \"Will.sol\":4940:4988  ISource(sourceContract).clearWillRecord(owner()) */\n      0x00\n      mload(0x40)\n      dup1\n      dup4\n      sub\n      dup2\n      0x00\n      dup8\n      dup1\n      extcodesize\n      iszero\n      dup1\n      iszero\n      tag_330\n      jumpi\n      0x00\n      dup1\n      revert\n    tag_330:\n      pop\n      gas\n      call\n      iszero\n      dup1\n      iszero\n      tag_332\n      jumpi\n      returndatasize\n      0x00\n      dup1\n      returndatacopy\n      revert(0x00, returndatasize)\n    tag_332:\n      pop\n      pop\n        /* \"Will.sol\":5014:5032  WillState.Executed */\n      0x02\n        /* \"Will.sol\":4999:5032  currentState = WillState.Executed */\n      dup1\n      sload\n      not(0xff)\n      and\n      dup2\n      or\n      swap1\n      sstore\n      pop\n      pop\n        /* \"Will.sol\":5048:5059  Cancelled() */\n      mload(0x40)\n      0x63b958841f79ab97cb5456da181454b9932c0e15a3b17f1cbd27e2a8bc610437\n      swap1\n      0x00\n      swap1\n      log1\n      pop\n        /* \"Will.sol\":397:398  1 */\n      0x01\n        /* \"Will.sol\":631:653  _status = _NOT_ENTERED */\n      dup1\n      sstore\n        /* \"Will.sol\":4807:5067  function cancelAndWithdraw() external onlyOwner requiresState(WillState.Active) nonReentrant {... */\n      jump\t// out\n        /* \"@openzeppelin/contracts/access/Ownable.sol\":2293:2394  function renounceOwnership() public virtual onlyOwner {... */\n    tag_66:\n        /* \"@openzeppelin/contracts/access/Ownable.sol\":1531:1544  _checkOwner() */\n      tag_336\n        /* \"@openzeppelin/contracts/access/Ownable.sol\":1531:1542  _checkOwner */\n      tag_124\n        /* \"@openzeppelin/contracts/access/Ownable.sol\":1531:1544  _checkOwner() */\n      jump\t// in\n    tag_336:\n        /* \"@openzeppelin/contracts/access/Ownable.sol\":2357:2387  _transferOwnership(address(0)) */\n      tag_338\n        /* \"@openzeppelin/contracts/access/Ownable.sol\":2384:2385  0 */\n      0x00\n        /* \"@openzeppelin/contracts/access/Ownable.sol\":2357:2375  _transferOwnership */\n      tag_339\n        /* \"@openzeppelin/contracts/access/Ownable.sol\":2357:2387  _transferOwnership(address(0)) */\n      jump\t// in\n    tag_338:\n        /* \"@openzeppelin/contracts/access/Ownable.sol\":2293:2394  function renounceOwnership() public virtual onlyOwner {... */\n      jump\t// out\n        /* \"Will.sol\":2967:3517  function initialize(... */\n    tag_70:\n        /* \"Will.sol\":3204:3219  WillState.Empty */\n      0x00\n      dup1\n        /* \"Will.sol\":2523:2535  currentState */\n      0x02\n      dup1\n      sload\n      0xff\n      and\n      swap1\n        /* \"Will.sol\":2523:2545  currentState == _state */\n      dup2\n      gt\n      iszero\n      tag_344\n      jumpi\n      tag_344\n      tag_128\n      jump\t// in\n    tag_344:\n      eq\n        /* \"Will.sol\":2515:2585  require(currentState == _state, \"Will: Invalid state for this action\") */\n      tag_345\n      jumpi\n      mload(0x40)\n      shl(0xe5, 0x461bcd)\n      dup2\n      mstore\n      0x04\n      add\n      tag_132\n      swap1\n      tag_133\n      jump\t// in\n    tag_345:\n        /* \"Will.sol\":3240:3250  msg.sender */\n      caller\n      sub(shl(0xa0, 0x01), 0x01)\n        /* \"Will.sol\":3254:3268  sourceContract */\n      immutable(\"0xd094ef07eef1924f3d7fe3d896f6ebece97bd5683077be90743b91a72d59db67\")\n        /* \"Will.sol\":3240:3268  msg.sender == sourceContract */\n      and\n      eq\n        /* \"Will.sol\":3232:3304  require(msg.sender == sourceContract, \"Will: Not authorized by factory\") */\n      tag_348\n      jumpi\n      mload(0x40)\n      shl(0xe5, 0x461bcd)\n      dup2\n      mstore\n        /* \"#utility.yul\":14920:14922   */\n      0x20\n        /* \"Will.sol\":3232:3304  require(msg.sender == sourceContract, \"Will: Not authorized by factory\") */\n      0x04\n      dup3\n      add\n        /* \"#utility.yul\":14902:14923   */\n      mstore\n        /* \"#utility.yul\":14959:14961   */\n      0x1f\n        /* \"#utility.yul\":14939:14957   */\n      0x24\n      dup3\n      add\n        /* \"#utility.yul\":14932:14962   */\n      mstore\n        /* \"#utility.yul\":14998:15031   */\n      0x57696c6c3a204e6f7420617574686f72697a656420627920666163746f727900\n        /* \"#utility.yul\":14978:14996   */\n      0x44\n      dup3\n      add\n        /* \"#utility.yul\":14971:15032   */\n      mstore\n        /* \"#utility.yul\":15049:15067   */\n      0x64\n      add\n        /* \"Will.sol\":3232:3304  require(msg.sender == sourceContract, \"Will: Not authorized by factory\") */\n      tag_132\n        /* \"#utility.yul\":14718:15073   */\n      jump\n        /* \"Will.sol\":3232:3304  require(msg.sender == sourceContract, \"Will: Not authorized by factory\") */\n    tag_348:\n        /* \"Will.sol\":3315:3323  interval */\n      0x04\n        /* \"Will.sol\":3315:3335  interval = _interval */\n      dup9\n      swap1\n      sstore\n        /* \"Will.sol\":3346:3389  _configure(_heirs, _distro, _erc20s, _nfts) */\n      tag_191\n        /* \"Will.sol\":3357:3363  _heirs */\n      dup8\n        /* \"Will.sol\":3365:3372  _distro */\n      dup8\n        /* \"Will.sol\":3374:3381  _erc20s */\n      dup8\n      dup8\n        /* \"Will.sol\":3383:3388  _nfts */\n      dup8\n      dup8\n        /* \"Will.sol\":3346:3356  _configure */\n      tag_192\n        /* \"Will.sol\":3346:3389  _configure(_heirs, _distro, _erc20s, _nfts) */\n      jump\t// in\n        /* \"Will.sol\":2118:2149  Erc20Asset[] public erc20Assets */\n    tag_78:\n      0x07\n      dup2\n      dup2\n      sload\n      dup2\n      lt\n      tag_118\n      jumpi\n      0x00\n      dup1\n      revert\n        /* \"Will.sol\":9245:10173  function getWillDetails() external view returns (WillDetails memory) {... */\n    tag_99:\n        /* \"Will.sol\":9294:9312  WillDetails memory */\n      tag_358\n      mload(0x40)\n      dup1\n      0x0140\n      add\n      0x40\n      mstore\n      dup1\n      and(sub(shl(0xa0, 0x01), 0x01), 0x00)\n      dup2\n      mstore\n      0x20\n      add\n      0x00\n      dup2\n      mstore\n      0x20\n      add\n      0x00\n      dup2\n      mstore\n      0x20\n      add\n      iszero(iszero(0x00))\n      dup2\n      mstore\n      0x20\n      add\n      iszero(iszero(0x00))\n      dup2\n      mstore\n      0x20\n      add\n      0x00\n      dup2\n      mstore\n      0x20\n      add\n      0x60\n      dup2\n      mstore\n      0x20\n      add\n      0x60\n      dup2\n      mstore\n      0x20\n      add\n      0x60\n      dup2\n      mstore\n      0x20\n      add\n      0x60\n      dup2\n      mstore\n      pop\n      swap1\n      jump\n    tag_358:\n        /* \"Will.sol\":9380:9391  erc20Assets */\n      0x07\n        /* \"Will.sol\":9380:9398  erc20Assets.length */\n      sload\n        /* \"Will.sol\":9325:9359  Erc20Detail[] memory _erc20Details */\n      0x00\n      swap1\n        /* \"Will.sol\":9362:9399  new Erc20Detail[](erc20Assets.length) */\n      0xffffffffffffffff\n      dup2\n      gt\n      iszero\n      tag_362\n      jumpi\n      tag_362\n      tag_363\n      jump\t// in\n    tag_362:\n      mload(0x40)\n      swap1\n      dup1\n      dup3\n      mstore\n      dup1\n      0x20\n      mul\n      0x20\n      add\n      dup3\n      add\n      0x40\n      mstore\n      dup1\n      iszero\n      tag_364\n      jumpi\n      dup2\n      0x20\n      add\n    tag_365:\n      0x40\n      dup1\n      mload\n      dup1\n      dup3\n      add\n      swap1\n      swap2\n      mstore\n      0x00\n      dup1\n      dup3\n      mstore\n      0x20\n      dup3\n      add\n      mstore\n      dup2\n      mstore\n      0x20\n      add\n      swap1\n      0x01\n      swap1\n      sub\n      swap1\n      dup2\n      tag_365\n      jumpi\n      swap1\n      pop\n    tag_364:\n      pop\n        /* \"Will.sol\":9325:9399  Erc20Detail[] memory _erc20Details = new Erc20Detail[](erc20Assets.length) */\n      swap1\n      pop\n        /* \"Will.sol\":9415:9421  uint i */\n      0x00\n        /* \"Will.sol\":9410:9611  for (uint i = 0; i < erc20Assets.length; i++) {... */\n    tag_368:\n        /* \"Will.sol\":9431:9442  erc20Assets */\n      0x07\n        /* \"Will.sol\":9431:9449  erc20Assets.length */\n      sload\n        /* \"Will.sol\":9427:9449  i < erc20Assets.length */\n      dup2\n      lt\n        /* \"Will.sol\":9410:9611  for (uint i = 0; i < erc20Assets.length; i++) {... */\n      iszero\n      tag_369\n      jumpi\n        /* \"Will.sol\":9471:9483  IERC20 token */\n      0x00\n        /* \"Will.sol\":9486:9497  erc20Assets */\n      0x07\n        /* \"Will.sol\":9498:9499  i */\n      dup3\n        /* \"Will.sol\":9486:9500  erc20Assets[i] */\n      dup2\n      sload\n      dup2\n      lt\n      tag_372\n      jumpi\n      tag_372\n      tag_166\n      jump\t// in\n    tag_372:\n      0x00\n      swap2\n      dup3\n      mstore\n      0x20\n      swap2\n      dup3\n      swap1\n      keccak256\n      add\n        /* \"Will.sol\":9486:9506  erc20Assets[i].token */\n      sload\n        /* \"Will.sol\":9540:9599  Erc20Detail(address(token), token.balanceOf(address(this))) */\n      0x40\n      dup1\n      mload\n      dup1\n      dup3\n      add\n      dup3\n      mstore\n      sub(shl(0xa0, 0x01), 0x01)\n        /* \"Will.sol\":9486:9506  erc20Assets[i].token */\n      swap1\n      swap3\n      and\n        /* \"Will.sol\":9540:9599  Erc20Detail(address(token), token.balanceOf(address(this))) */\n      dup1\n      dup4\n      mstore\n        /* \"Will.sol\":9568:9598  token.balanceOf(address(this)) */\n      swap1\n      mload\n      shl(0xe0, 0x70a08231)\n      dup2\n      mstore\n        /* \"Will.sol\":9592:9596  this */\n      address\n        /* \"Will.sol\":9568:9598  token.balanceOf(address(this)) */\n      0x04\n      dup3\n      add\n        /* \"#utility.yul\":932:983   */\n      mstore\n        /* \"Will.sol\":9486:9506  erc20Assets[i].token */\n      swap1\n      swap4\n      pop\n        /* \"Will.sol\":9540:9599  Erc20Detail(address(token), token.balanceOf(address(this))) */\n      swap1\n      swap2\n      dup3\n      add\n      swap1\n        /* \"Will.sol\":9486:9506  erc20Assets[i].token */\n      dup4\n      swap1\n        /* \"Will.sol\":9568:9583  token.balanceOf */\n      0x70a08231\n      swap1\n        /* \"#utility.yul\":905:923   */\n      0x24\n      add\n        /* \"Will.sol\":9568:9598  token.balanceOf(address(this)) */\n      0x20\n      mload(0x40)\n      dup1\n      dup4\n      sub\n      dup2\n      dup7\n      gas\n      staticcall\n      iszero\n      dup1\n      iszero\n      tag_376\n      jumpi\n      returndatasize\n      0x00\n      dup1\n      returndatacopy\n      revert(0x00, returndatasize)\n    tag_376:\n      pop\n      pop\n      pop\n      pop\n      mload(0x40)\n      returndatasize\n      not(0x1f)\n      0x1f\n      dup3\n      add\n      and\n      dup3\n      add\n      dup1\n      0x40\n      mstore\n      pop\n      dup2\n      add\n      swap1\n      tag_377\n      swap2\n      swap1\n      tag_276\n      jump\t// in\n    tag_377:\n        /* \"Will.sol\":9540:9599  Erc20Detail(address(token), token.balanceOf(address(this))) */\n      dup2\n      mstore\n      pop\n        /* \"Will.sol\":9521:9534  _erc20Details */\n      dup4\n        /* \"Will.sol\":9535:9536  i */\n      dup4\n        /* \"Will.sol\":9521:9537  _erc20Details[i] */\n      dup2\n      mload\n      dup2\n      lt\n      tag_379\n      jumpi\n      tag_379\n      tag_166\n      jump\t// in\n    tag_379:\n      0x20\n      swap1\n      dup2\n      mul\n      swap2\n      swap1\n      swap2\n      add\n      add\n        /* \"Will.sol\":9521:9599  _erc20Details[i] = Erc20Detail(address(token), token.balanceOf(address(this))) */\n      mstore\n      pop\n        /* \"Will.sol\":9451:9454  i++ */\n      0x01\n      add\n        /* \"Will.sol\":9410:9611  for (uint i = 0; i < erc20Assets.length; i++) {... */\n      jump(tag_368)\n    tag_369:\n      pop\n        /* \"Will.sol\":9679:9691  erc721Assets */\n      0x08\n        /* \"Will.sol\":9679:9698  erc721Assets.length */\n      sload\n        /* \"Will.sol\":9621:9657  Erc721Detail[] memory _erc721Details */\n      0x00\n      swap1\n        /* \"Will.sol\":9660:9699  new Erc721Detail[](erc721Assets.length) */\n      0xffffffffffffffff\n      dup2\n      gt\n      iszero\n      tag_381\n      jumpi\n      tag_381\n      tag_363\n      jump\t// in\n    tag_381:\n      mload(0x40)\n      swap1\n      dup1\n      dup3\n      mstore\n      dup1\n      0x20\n      mul\n      0x20\n      add\n      dup3\n      add\n      0x40\n      mstore\n      dup1\n      iszero\n      tag_382\n      jumpi\n      dup2\n      0x20\n      add\n    tag_383:\n      0x40\n      dup1\n      mload\n      0x60\n      dup2\n      add\n      dup3\n      mstore\n      0x00\n      dup1\n      dup3\n      mstore\n      0x20\n      dup1\n      dup4\n      add\n      dup3\n      swap1\n      mstore\n      swap3\n      dup3\n      add\n      mstore\n      dup3\n      mstore\n      not(0x00)\n      swap1\n      swap3\n      add\n      swap2\n      add\n      dup2\n      tag_383\n      jumpi\n      swap1\n      pop\n    tag_382:\n      pop\n        /* \"Will.sol\":9621:9699  Erc721Detail[] memory _erc721Details = new Erc721Detail[](erc721Assets.length) */\n      swap1\n      pop\n        /* \"Will.sol\":9715:9721  uint i */\n      0x00\n        /* \"Will.sol\":9710:9922  for (uint i = 0; i < erc721Assets.length; i++) {... */\n    tag_386:\n        /* \"Will.sol\":9731:9743  erc721Assets */\n      0x08\n        /* \"Will.sol\":9731:9750  erc721Assets.length */\n      sload\n        /* \"Will.sol\":9727:9750  i < erc721Assets.length */\n      dup2\n      lt\n        /* \"Will.sol\":9710:9922  for (uint i = 0; i < erc721Assets.length; i++) {... */\n      iszero\n      tag_387\n      jumpi\n        /* \"Will.sol\":9772:9796  Erc721Asset memory asset */\n      0x00\n        /* \"Will.sol\":9799:9811  erc721Assets */\n      0x08\n        /* \"Will.sol\":9812:9813  i */\n      dup3\n        /* \"Will.sol\":9799:9814  erc721Assets[i] */\n      dup2\n      sload\n      dup2\n      lt\n      tag_390\n      jumpi\n      tag_390\n      tag_166\n      jump\t// in\n    tag_390:\n      0x00\n      swap2\n      dup3\n      mstore\n      0x20\n      swap2\n      dup3\n      swap1\n      keccak256\n        /* \"Will.sol\":9772:9814  Erc721Asset memory asset = erc721Assets[i] */\n      0x40\n      dup1\n      mload\n      0x60\n      dup1\n      dup3\n      add\n      dup4\n      mstore\n        /* \"Will.sol\":9799:9814  erc721Assets[i] */\n      0x03\n      swap1\n      swap5\n      mul\n      swap1\n      swap3\n      add\n        /* \"Will.sol\":9772:9814  Erc721Asset memory asset = erc721Assets[i] */\n      dup1\n      sload\n      sub(shl(0xa0, 0x01), 0x01)\n      swap1\n      dup2\n      and\n      dup5\n      mstore\n      0x01\n      dup3\n      add\n      sload\n      dup5\n      dup8\n      add\n      swap1\n      dup2\n      mstore\n      0x02\n      swap1\n      swap3\n      add\n      sload\n      dup2\n      and\n      dup5\n      dup5\n      add\n      swap1\n      dup2\n      mstore\n        /* \"Will.sol\":9849:9910  Erc721Detail(address(asset.token), asset.tokenId, asset.heir) */\n      dup4\n      mload\n      swap6\n      dup7\n      add\n      dup5\n      mstore\n        /* \"Will.sol\":9870:9881  asset.token */\n      dup5\n      mload\n        /* \"Will.sol\":9849:9910  Erc721Detail(address(asset.token), asset.tokenId, asset.heir) */\n      dup3\n      and\n      dup7\n      mstore\n        /* \"Will.sol\":9884:9897  asset.tokenId */\n      swap2\n      mload\n        /* \"Will.sol\":9849:9910  Erc721Detail(address(asset.token), asset.tokenId, asset.heir) */\n      swap6\n      dup6\n      add\n      swap6\n      swap1\n      swap6\n      mstore\n        /* \"Will.sol\":9899:9909  asset.heir */\n      mload\n        /* \"Will.sol\":9849:9910  Erc721Detail(address(asset.token), asset.tokenId, asset.heir) */\n      swap1\n      swap4\n      and\n      swap3\n      dup3\n      add\n      swap3\n      swap1\n      swap3\n      mstore\n        /* \"Will.sol\":9829:9846  _erc721Details[i] */\n      dup5\n      mload\n        /* \"Will.sol\":9772:9814  Erc721Asset memory asset = erc721Assets[i] */\n      swap2\n      swap3\n      pop\n        /* \"Will.sol\":9849:9910  Erc721Detail(address(asset.token), asset.tokenId, asset.heir) */\n      swap1\n        /* \"Will.sol\":9829:9843  _erc721Details */\n      dup5\n      swap1\n        /* \"Will.sol\":9844:9845  i */\n      dup5\n      swap1\n        /* \"Will.sol\":9829:9846  _erc721Details[i] */\n      dup2\n      lt\n      tag_393\n      jumpi\n      tag_393\n      tag_166\n      jump\t// in\n    tag_393:\n      0x20\n      swap1\n      dup2\n      mul\n      swap2\n      swap1\n      swap2\n      add\n      add\n        /* \"Will.sol\":9829:9910  _erc721Details[i] = Erc721Detail(address(asset.token), asset.tokenId, asset.heir) */\n      mstore\n      pop\n        /* \"Will.sol\":9752:9755  i++ */\n      0x01\n      add\n        /* \"Will.sol\":9710:9922  for (uint i = 0; i < erc721Assets.length; i++) {... */\n      jump(tag_386)\n    tag_387:\n      pop\n        /* \"Will.sol\":9939:10165  WillDetails(... */\n      mload(0x40)\n      dup1\n      0x0140\n      add\n      0x40\n      mstore\n      dup1\n        /* \"Will.sol\":9965:9972  owner() */\n      tag_394\n        /* \"@openzeppelin/contracts/access/Ownable.sol\":1684:1691  address */\n      0x00\n        /* \"@openzeppelin/contracts/access/Ownable.sol\":1710:1716  _owner */\n      sload\n      sub(shl(0xa0, 0x01), 0x01)\n      and\n      swap1\n        /* \"@openzeppelin/contracts/access/Ownable.sol\":1638:1723  function owner() public view virtual returns (address) {... */\n      jump\n        /* \"Will.sol\":9965:9972  owner() */\n    tag_394:\n      sub(shl(0xa0, 0x01), 0x01)\n        /* \"Will.sol\":9939:10165  WillDetails(... */\n      and\n      dup2\n      mstore\n        /* \"Will.sol\":9974:9982  interval */\n      sload(0x04)\n        /* \"Will.sol\":9939:10165  WillDetails(... */\n      0x20\n      dup3\n      add\n      mstore\n        /* \"Will.sol\":9984:9994  lastUpdate */\n      sload(0x03)\n        /* \"Will.sol\":9939:10165  WillDetails(... */\n      0x40\n      dup3\n      add\n      mstore\n      0x60\n      add\n        /* \"Will.sol\":10013:10031  WillState.Executed */\n      0x02\n        /* \"Will.sol\":9997:10009  currentState */\n      dup1\n      dup1\n      sload\n      0xff\n      and\n      swap1\n        /* \"Will.sol\":9997:10031  currentState == WillState.Executed */\n      dup2\n      gt\n      iszero\n      tag_398\n      jumpi\n      tag_398\n      tag_128\n      jump\t// in\n    tag_398:\n      eq\n        /* \"Will.sol\":9939:10165  WillDetails(... */\n      iszero\n      iszero\n      dup2\n      mstore\n      0x20\n      add\n        /* \"Will.sol\":10047:10055  hasDiary */\n      immutable(\"0xf149c9166005b187f5af29ceb397e7b9b5ab7e3a911adc91a9ebb826b208930e\")\n        /* \"Will.sol\":9939:10165  WillDetails(... */\n      iszero\n      iszero\n      dup2\n      mstore\n      0x20\n      add\n        /* \"Will.sol\":10057:10078  address(this).balance */\n      selfbalance\n        /* \"Will.sol\":9939:10165  WillDetails(... */\n      dup2\n      mstore\n      0x20\n      add\n        /* \"Will.sol\":10080:10085  heirs */\n      0x05\n        /* \"Will.sol\":9939:10165  WillDetails(... */\n      dup1\n      sload\n      dup1\n      0x20\n      mul\n      0x20\n      add\n      mload(0x40)\n      swap1\n      dup2\n      add\n      0x40\n      mstore\n      dup1\n      swap3\n      swap2\n      swap1\n      dup2\n      dup2\n      mstore\n      0x20\n      add\n      dup3\n      dup1\n      sload\n      dup1\n      iszero\n      tag_399\n      jumpi\n      0x20\n      mul\n      dup3\n      add\n      swap2\n      swap1\n      0x00\n      mstore\n      keccak256(0x00, 0x20)\n      swap1\n    tag_400:\n      dup2\n      sload\n      sub(shl(0xa0, 0x01), 0x01)\n      and\n      dup2\n      mstore\n      0x01\n      swap1\n      swap2\n      add\n      swap1\n      0x20\n      add\n      dup1\n      dup4\n      gt\n      tag_400\n      jumpi\n    tag_399:\n      pop\n      pop\n      pop\n      pop\n      pop\n      dup2\n      mstore\n      0x20\n      add\n        /* \"Will.sol\":10087:10110  distributionPercentages */\n      0x06\n        /* \"Will.sol\":9939:10165  WillDetails(... */\n      dup1\n      sload\n      dup1\n      0x20\n      mul\n      0x20\n      add\n      mload(0x40)\n      swap1\n      dup2\n      add\n      0x40\n      mstore\n      dup1\n      swap3\n      swap2\n      swap1\n      dup2\n      dup2\n      mstore\n      0x20\n      add\n      dup3\n      dup1\n      sload\n      dup1\n      iszero\n      tag_401\n      jumpi\n      0x20\n      mul\n      dup3\n      add\n      swap2\n      swap1\n      0x00\n      mstore\n      keccak256(0x00, 0x20)\n      swap1\n    tag_402:\n      dup2\n      sload\n      dup2\n      mstore\n      0x20\n      add\n      swap1\n      0x01\n      add\n      swap1\n      dup1\n      dup4\n      gt\n      tag_402\n      jumpi\n    tag_401:\n      pop\n      pop\n      pop\n      pop\n      pop\n      dup2\n      mstore\n      0x20\n      add\n        /* \"Will.sol\":10125:10138  _erc20Details */\n      dup4\n        /* \"Will.sol\":9939:10165  WillDetails(... */\n      dup2\n      mstore\n      0x20\n      add\n        /* \"Will.sol\":10140:10154  _erc721Details */\n      dup3\n        /* \"Will.sol\":9939:10165  WillDetails(... */\n      dup2\n      mstore\n      pop\n        /* \"Will.sol\":9932:10165  return WillDetails(... */\n      swap3\n      pop\n      pop\n      pop\n        /* \"Will.sol\":9245:10173  function getWillDetails() external view returns (WillDetails memory) {... */\n      swap1\n      jump\t// out\n        /* \"Will.sol\":2156:2189  Erc721Asset[] public erc721Assets */\n    tag_105:\n      0x08\n      dup2\n      dup2\n      sload\n      dup2\n      lt\n      tag_403\n      jumpi\n      0x00\n      dup1\n      revert\n    tag_403:\n      0x00\n      swap2\n      dup3\n      mstore\n      0x20\n      swap1\n      swap2\n      keccak256\n      0x03\n      swap1\n      swap2\n      mul\n      add\n      dup1\n      sload\n      0x01\n      dup3\n      add\n      sload\n      0x02\n      swap1\n      swap3\n      add\n      sload\n      sub(shl(0xa0, 0x01), 0x01)\n      swap2\n      dup3\n      and\n      swap4\n      pop\n      and\n      dup4\n      jump\t// out\n        /* \"@openzeppelin/contracts/access/Ownable.sol\":2543:2758  function transferOwnership(address newOwner) public virtual onlyOwner {... */\n    tag_117:\n        /* \"@openzeppelin/contracts/access/Ownable.sol\":1531:1544  _checkOwner() */\n      tag_406\n        /* \"@openzeppelin/contracts/access/Ownable.sol\":1531:1542  _checkOwner */\n      tag_124\n        /* \"@openzeppelin/contracts/access/Ownable.sol\":1531:1544  _checkOwner() */\n      jump\t// in\n    tag_406:\n      sub(shl(0xa0, 0x01), 0x01)\n        /* \"@openzeppelin/contracts/access/Ownable.sol\":2627:2649  newOwner == address(0) */\n      dup2\n      and\n        /* \"@openzeppelin/contracts/access/Ownable.sol\":2623:2714  if (newOwner == address(0)) {... */\n      tag_408\n      jumpi\n        /* \"@openzeppelin/contracts/access/Ownable.sol\":2672:2703  OwnableInvalidOwner(address(0)) */\n      mload(0x40)\n      shl(0xe0, 0x1e4fbdf7)\n      dup2\n      mstore\n        /* \"@openzeppelin/contracts/access/Ownable.sol\":2700:2701  0 */\n      0x00\n        /* \"@openzeppelin/contracts/access/Ownable.sol\":2672:2703  OwnableInvalidOwner(address(0)) */\n      0x04\n      dup3\n      add\n        /* \"#utility.yul\":932:983   */\n      mstore\n        /* \"#utility.yul\":905:923   */\n      0x24\n      add\n        /* \"@openzeppelin/contracts/access/Ownable.sol\":2672:2703  OwnableInvalidOwner(address(0)) */\n      tag_132\n        /* \"#utility.yul\":786:989   */\n      jump\n        /* \"@openzeppelin/contracts/access/Ownable.sol\":2623:2714  if (newOwner == address(0)) {... */\n    tag_408:\n        /* \"@openzeppelin/contracts/access/Ownable.sol\":2723:2751  _transferOwnership(newOwner) */\n      tag_410\n        /* \"@openzeppelin/contracts/access/Ownable.sol\":2742:2750  newOwner */\n      dup2\n        /* \"@openzeppelin/contracts/access/Ownable.sol\":2723:2741  _transferOwnership */\n      tag_339\n        /* \"@openzeppelin/contracts/access/Ownable.sol\":2723:2751  _transferOwnership(newOwner) */\n      jump\t// in\n    tag_410:\n        /* \"@openzeppelin/contracts/access/Ownable.sol\":2543:2758  function transferOwnership(address newOwner) public virtual onlyOwner {... */\n      pop\n      jump\t// out\n        /* \"@openzeppelin/contracts/access/Ownable.sol\":1796:1958  function _checkOwner() internal view virtual {... */\n    tag_124:\n        /* \"@openzeppelin/contracts/access/Ownable.sol\":1684:1691  address */\n      0x00\n        /* \"@openzeppelin/contracts/access/Ownable.sol\":1710:1716  _owner */\n      sload\n      sub(shl(0xa0, 0x01), 0x01)\n      and\n        /* \"@openzeppelin/contracts/utils/Context.sol\":735:745  msg.sender */\n      caller\n        /* \"@openzeppelin/contracts/access/Ownable.sol\":1855:1878  owner() != _msgSender() */\n      eq\n        /* \"@openzeppelin/contracts/access/Ownable.sol\":1851:1952  if (owner() != _msgSender()) {... */\n      tag_338\n      jumpi\n        /* \"@openzeppelin/contracts/access/Ownable.sol\":1901:1941  OwnableUnauthorizedAccount(_msgSender()) */\n      mload(0x40)\n      shl(0xe0, 0x118cdaa7)\n      dup2\n      mstore\n        /* \"@openzeppelin/contracts/utils/Context.sol\":735:745  msg.sender */\n      caller\n        /* \"@openzeppelin/contracts/access/Ownable.sol\":1901:1941  OwnableUnauthorizedAccount(_msgSender()) */\n      0x04\n      dup3\n      add\n        /* \"#utility.yul\":932:983   */\n      mstore\n        /* \"#utility.yul\":905:923   */\n      0x24\n      add\n        /* \"@openzeppelin/contracts/access/Ownable.sol\":1901:1941  OwnableUnauthorizedAccount(_msgSender()) */\n      tag_132\n        /* \"#utility.yul\":786:989   */\n      jump\n        /* \"Will.sol\":667:779  function _preReentryCheck() private view { if (_status == _ENTERED) { revert ReentrancyGuardReentrantCall(); } } */\n    tag_136:\n        /* \"Will.sol\":441:442  2 */\n      0x02\n        /* \"Will.sol\":714:721  _status */\n      sload(0x01)\n        /* \"Will.sol\":714:733  _status == _ENTERED */\n      sub\n        /* \"Will.sol\":710:777  if (_status == _ENTERED) { revert ReentrancyGuardReentrantCall(); } */\n      tag_338\n      jumpi\n        /* \"Will.sol\":744:774  ReentrancyGuardReentrantCall() */\n      mload(0x40)\n      shl(0xe0, 0x3ee5aeb5)\n      dup2\n      mstore\n      0x04\n      add\n      mload(0x40)\n      dup1\n      swap2\n      sub\n      swap1\n      revert\n        /* \"Will.sol\":8461:9237  function _returnAllAssets() internal {... */\n    tag_139:\n        /* \"Will.sol\":8509:8531  address payable _owner */\n      0x00\n        /* \"@openzeppelin/contracts/access/Ownable.sol\":1710:1716  _owner */\n      dup1\n      sload\n      sub(shl(0xa0, 0x01), 0x01)\n      and\n      swap1\n        /* \"Will.sol\":8561:8799  for (uint i = 0; i < erc20Assets.length; i++) {... */\n    tag_422:\n        /* \"Will.sol\":8582:8593  erc20Assets */\n      0x07\n        /* \"Will.sol\":8582:8600  erc20Assets.length */\n      sload\n        /* \"Will.sol\":8578:8600  i < erc20Assets.length */\n      dup2\n      lt\n        /* \"Will.sol\":8561:8799  for (uint i = 0; i < erc20Assets.length; i++) {... */\n      iszero\n      tag_423\n      jumpi\n        /* \"Will.sol\":8622:8634  IERC20 token */\n      0x00\n        /* \"Will.sol\":8637:8648  erc20Assets */\n      0x07\n        /* \"Will.sol\":8649:8650  i */\n      dup3\n        /* \"Will.sol\":8637:8651  erc20Assets[i] */\n      dup2\n      sload\n      dup2\n      lt\n      tag_426\n      jumpi\n      tag_426\n      tag_166\n      jump\t// in\n    tag_426:\n      0x00\n      swap2\n      dup3\n      mstore\n      0x20\n      dup3\n      keccak256\n      add\n        /* \"Will.sol\":8637:8657  erc20Assets[i].token */\n      sload\n        /* \"Will.sol\":8690:8720  token.balanceOf(address(this)) */\n      mload(0x40)\n      shl(0xe0, 0x70a08231)\n      dup2\n      mstore\n        /* \"Will.sol\":8714:8718  this */\n      address\n        /* \"Will.sol\":8690:8720  token.balanceOf(address(this)) */\n      0x04\n      dup3\n      add\n        /* \"#utility.yul\":932:983   */\n      mstore\n      sub(shl(0xa0, 0x01), 0x01)\n        /* \"Will.sol\":8637:8657  erc20Assets[i].token */\n      swap1\n      swap2\n      and\n      swap3\n      pop\n      dup3\n      swap1\n        /* \"Will.sol\":8690:8705  token.balanceOf */\n      0x70a08231\n      swap1\n        /* \"#utility.yul\":905:923   */\n      0x24\n      add\n        /* \"Will.sol\":8690:8720  token.balanceOf(address(this)) */\n      0x20\n      mload(0x40)\n      dup1\n      dup4\n      sub\n      dup2\n      dup7\n      gas\n      staticcall\n      iszero\n      dup1\n      iszero\n      tag_430\n      jumpi\n      returndatasize\n      0x00\n      dup1\n      returndatacopy\n      revert(0x00, returndatasize)\n    tag_430:\n      pop\n      pop\n      pop\n      pop\n      mload(0x40)\n      returndatasize\n      not(0x1f)\n      0x1f\n      dup3\n      add\n      and\n      dup3\n      add\n      dup1\n      0x40\n      mstore\n      pop\n      dup2\n      add\n      swap1\n      tag_431\n      swap2\n      swap1\n      tag_276\n      jump\t// in\n    tag_431:\n        /* \"Will.sol\":8672:8720  uint256 balance = token.balanceOf(address(this)) */\n      swap1\n      pop\n        /* \"Will.sol\":8739:8750  balance > 0 */\n      dup1\n      iszero\n        /* \"Will.sol\":8735:8788  if (balance > 0) { token.transfer(_owner, balance); } */\n      tag_432\n      jumpi\n        /* \"Will.sol\":8754:8785  token.transfer(_owner, balance) */\n      mload(0x40)\n      shl(0xe0, 0xa9059cbb)\n      dup2\n      mstore\n      sub(shl(0xa0, 0x01), 0x01)\n        /* \"#utility.yul\":14251:14283   */\n      dup6\n      dup2\n      and\n        /* \"Will.sol\":8754:8785  token.transfer(_owner, balance) */\n      0x04\n      dup4\n      add\n        /* \"#utility.yul\":14233:14284   */\n      mstore\n        /* \"#utility.yul\":14300:14318   */\n      0x24\n      dup3\n      add\n        /* \"#utility.yul\":14293:14327   */\n      dup4\n      swap1\n      mstore\n        /* \"Will.sol\":8754:8768  token.transfer */\n      dup4\n      and\n      swap1\n      0xa9059cbb\n      swap1\n        /* \"#utility.yul\":14206:14224   */\n      0x44\n      add\n        /* \"Will.sol\":8754:8785  token.transfer(_owner, balance) */\n      0x20\n      mload(0x40)\n      dup1\n      dup4\n      sub\n      dup2\n      0x00\n      dup8\n      gas\n      call\n      iszero\n      dup1\n      iszero\n      tag_436\n      jumpi\n      returndatasize\n      0x00\n      dup1\n      returndatacopy\n      revert(0x00, returndatasize)\n    tag_436:\n      pop\n      pop\n      pop\n      pop\n      mload(0x40)\n      returndatasize\n      not(0x1f)\n      0x1f\n      dup3\n      add\n      and\n      dup3\n      add\n      dup1\n      0x40\n      mstore\n      pop\n      dup2\n      add\n      swap1\n      tag_437\n      swap2\n      swap1\n      tag_178\n      jump\t// in\n    tag_437:\n      pop\n        /* \"Will.sol\":8735:8788  if (balance > 0) { token.transfer(_owner, balance); } */\n    tag_432:\n      pop\n      pop\n        /* \"Will.sol\":8602:8605  i++ */\n      0x01\n      add\n        /* \"Will.sol\":8561:8799  for (uint i = 0; i < erc20Assets.length; i++) {... */\n      jump(tag_422)\n    tag_423:\n      pop\n        /* \"Will.sol\":8814:8820  uint i */\n      0x00\n        /* \"Will.sol\":8809:9006  for (uint i = 0; i < erc721Assets.length; i++) {... */\n    tag_438:\n        /* \"Will.sol\":8830:8842  erc721Assets */\n      0x08\n        /* \"Will.sol\":8830:8849  erc721Assets.length */\n      sload\n        /* \"Will.sol\":8826:8849  i < erc721Assets.length */\n      dup2\n      lt\n        /* \"Will.sol\":8809:9006  for (uint i = 0; i < erc721Assets.length; i++) {... */\n      iszero\n      tag_439\n      jumpi\n        /* \"Will.sol\":8871:8895  Erc721Asset memory asset */\n      0x00\n        /* \"Will.sol\":8898:8910  erc721Assets */\n      0x08\n        /* \"Will.sol\":8911:8912  i */\n      dup3\n        /* \"Will.sol\":8898:8913  erc721Assets[i] */\n      dup2\n      sload\n      dup2\n      lt\n      tag_442\n      jumpi\n      tag_442\n      tag_166\n      jump\t// in\n    tag_442:\n      0x00\n      swap2\n      dup3\n      mstore\n      0x20\n      swap2\n      dup3\n      swap1\n      keccak256\n        /* \"Will.sol\":8871:8913  Erc721Asset memory asset = erc721Assets[i] */\n      0x40\n      dup1\n      mload\n      0x60\n      dup2\n      add\n      dup3\n      mstore\n        /* \"Will.sol\":8898:8913  erc721Assets[i] */\n      0x03\n      swap1\n      swap4\n      mul\n      swap1\n      swap2\n      add\n        /* \"Will.sol\":8871:8913  Erc721Asset memory asset = erc721Assets[i] */\n      dup1\n      sload\n      sub(shl(0xa0, 0x01), 0x01)\n      swap1\n      dup2\n      and\n      dup1\n      dup6\n      mstore\n      0x01\n      dup4\n      add\n      sload\n      swap6\n      dup6\n      add\n      dup7\n      swap1\n      mstore\n      0x02\n      swap1\n      swap3\n      add\n      sload\n      and\n      dup4\n      dup4\n      add\n      mstore\n        /* \"Will.sol\":8928:8994  asset.token.safeTransferFrom(address(this), _owner, asset.tokenId) */\n      swap1\n      mload\n      shl(0xe1, 0x21421707)\n      dup2\n      mstore\n        /* \"Will.sol\":8871:8913  Erc721Asset memory asset = erc721Assets[i] */\n      swap2\n      swap4\n      pop\n      swap2\n        /* \"Will.sol\":8928:8956  asset.token.safeTransferFrom */\n      0x42842e0e\n      swap2\n        /* \"Will.sol\":8928:8994  asset.token.safeTransferFrom(address(this), _owner, asset.tokenId) */\n      tag_444\n      swap2\n        /* \"Will.sol\":8965:8969  this */\n      address\n      swap2\n        /* \"Will.sol\":8972:8978  _owner */\n      dup9\n      swap2\n        /* \"Will.sol\":8871:8913  Erc721Asset memory asset = erc721Assets[i] */\n      swap1\n        /* \"Will.sol\":8928:8994  asset.token.safeTransferFrom(address(this), _owner, asset.tokenId) */\n      0x04\n      add\n      tag_174\n      jump\t// in\n    tag_444:\n      0x00\n      mload(0x40)\n      dup1\n      dup4\n      sub\n      dup2\n      0x00\n      dup8\n      dup1\n      extcodesize\n      iszero\n      dup1\n      iszero\n      tag_446\n      jumpi\n      0x00\n      dup1\n      revert\n    tag_446:\n      pop\n      gas\n      call\n      iszero\n      dup1\n      iszero\n      tag_448\n      jumpi\n      returndatasize\n      0x00\n      dup1\n      returndatacopy\n      revert(0x00, returndatasize)\n    tag_448:\n      pop\n      pop\n        /* \"Will.sol\":8851:8854  i++ */\n      0x01\n      swap1\n      swap4\n      add\n      swap3\n      pop\n        /* \"Will.sol\":8809:9006  for (uint i = 0; i < erc721Assets.length; i++) {... */\n      tag_438\n      swap2\n      pop\n      pop\n      jump\n    tag_439:\n      pop\n        /* \"Will.sol\":9039:9060  address(this).balance */\n      selfbalance\n        /* \"Will.sol\":9075:9091  remainingEth > 0 */\n      dup1\n      iszero\n        /* \"Will.sol\":9071:9230  if (remainingEth > 0) {... */\n      tag_449\n      jumpi\n        /* \"Will.sol\":9109:9121  bool success */\n      0x00\n        /* \"Will.sol\":9127:9133  _owner */\n      dup3\n      sub(shl(0xa0, 0x01), 0x01)\n        /* \"Will.sol\":9127:9138  _owner.call */\n      and\n        /* \"Will.sol\":9146:9158  remainingEth */\n      dup3\n        /* \"Will.sol\":9127:9163  _owner.call{value: remainingEth}(\"\") */\n      mload(0x40)\n      0x00\n      mload(0x40)\n      dup1\n      dup4\n      sub\n      dup2\n      dup6\n      dup8\n      gas\n      call\n      swap3\n      pop\n      pop\n      pop\n      returndatasize\n      dup1\n      0x00\n      dup2\n      eq\n      tag_453\n      jumpi\n      mload(0x40)\n      swap2\n      pop\n      and(add(returndatasize, 0x3f), not(0x1f))\n      dup3\n      add\n      0x40\n      mstore\n      returndatasize\n      dup3\n      mstore\n      returndatasize\n      0x00\n      0x20\n      dup5\n      add\n      returndatacopy\n      jump(tag_452)\n    tag_453:\n      0x60\n      swap2\n      pop\n    tag_452:\n      pop\n        /* \"Will.sol\":9108:9163  (bool success, ) = _owner.call{value: remainingEth}(\"\") */\n      pop\n      swap1\n      pop\n        /* \"Will.sol\":9186:9193  success */\n      dup1\n        /* \"Will.sol\":9178:9218  require(success, \"ETH transfer failed.\") */\n      tag_454\n      jumpi\n      mload(0x40)\n      shl(0xe5, 0x461bcd)\n      dup2\n      mstore\n        /* \"#utility.yul\":15955:15957   */\n      0x20\n        /* \"Will.sol\":9178:9218  require(success, \"ETH transfer failed.\") */\n      0x04\n      dup3\n      add\n        /* \"#utility.yul\":15937:15958   */\n      mstore\n        /* \"#utility.yul\":15994:15996   */\n      0x14\n        /* \"#utility.yul\":15974:15992   */\n      0x24\n      dup3\n      add\n        /* \"#utility.yul\":15967:15997   */\n      mstore\n      shl(0x61, 0x22aa24103a3930b739b332b9103330b4b632b217)\n        /* \"#utility.yul\":16013:16031   */\n      0x44\n      dup3\n      add\n        /* \"#utility.yul\":16006:16056   */\n      mstore\n        /* \"#utility.yul\":16073:16091   */\n      0x64\n      add\n        /* \"Will.sol\":9178:9218  require(success, \"ETH transfer failed.\") */\n      tag_132\n        /* \"#utility.yul\":15753:16097   */\n      jump\n        /* \"Will.sol\":9178:9218  require(success, \"ETH transfer failed.\") */\n    tag_454:\n        /* \"Will.sol\":9093:9230  {... */\n      pop\n        /* \"Will.sol\":9071:9230  if (remainingEth > 0) {... */\n    tag_449:\n        /* \"Will.sol\":8498:9237  {... */\n      pop\n      pop\n        /* \"Will.sol\":8461:9237  function _returnAllAssets() internal {... */\n      jump\t// out\n        /* \"Will.sol\":7522:8449  function _configure(... */\n    tag_192:\n        /* \"Will.sol\":7753:7760  _distro */\n      dup5\n        /* \"Will.sol\":7753:7767  _distro.length */\n      mload\n        /* \"Will.sol\":7736:7742  _heirs */\n      dup7\n        /* \"Will.sol\":7736:7749  _heirs.length */\n      mload\n        /* \"Will.sol\":7736:7767  _heirs.length == _distro.length */\n      eq\n        /* \"Will.sol\":7728:7800  require(_heirs.length == _distro.length, \"Heirs/distributions mismatch\") */\n      tag_458\n      jumpi\n      mload(0x40)\n      shl(0xe5, 0x461bcd)\n      dup2\n      mstore\n        /* \"#utility.yul\":16304:16306   */\n      0x20\n        /* \"Will.sol\":7728:7800  require(_heirs.length == _distro.length, \"Heirs/distributions mismatch\") */\n      0x04\n      dup3\n      add\n        /* \"#utility.yul\":16286:16307   */\n      mstore\n        /* \"#utility.yul\":16343:16345   */\n      0x1c\n        /* \"#utility.yul\":16323:16341   */\n      0x24\n      dup3\n      add\n        /* \"#utility.yul\":16316:16346   */\n      mstore\n        /* \"#utility.yul\":16382:16412   */\n      0x48656972732f646973747269627574696f6e73206d69736d6174636800000000\n        /* \"#utility.yul\":16362:16380   */\n      0x44\n      dup3\n      add\n        /* \"#utility.yul\":16355:16413   */\n      mstore\n        /* \"#utility.yul\":16430:16448   */\n      0x64\n      add\n        /* \"Will.sol\":7728:7800  require(_heirs.length == _distro.length, \"Heirs/distributions mismatch\") */\n      tag_132\n        /* \"#utility.yul\":16102:16454   */\n      jump\n        /* \"Will.sol\":7728:7800  require(_heirs.length == _distro.length, \"Heirs/distributions mismatch\") */\n    tag_458:\n        /* \"Will.sol\":7815:7828  _heirs.length */\n      dup6\n      mload\n        /* \"Will.sol\":7815:7832  _heirs.length > 0 */\n      iszero\n        /* \"Will.sol\":7811:8059  if (_heirs.length > 0) {... */\n      tag_461\n      jumpi\n        /* \"Will.sol\":7849:7872  uint256 totalPercentage */\n      0x00\n        /* \"Will.sol\":7896:7905  uint256 i */\n      dup1\n        /* \"Will.sol\":7891:7970  for (uint256 i = 0; i < _distro.length; i++) { totalPercentage += _distro[i]; } */\n    tag_462:\n        /* \"Will.sol\":7915:7922  _distro */\n      dup7\n        /* \"Will.sol\":7915:7929  _distro.length */\n      mload\n        /* \"Will.sol\":7911:7912  i */\n      dup2\n        /* \"Will.sol\":7911:7929  i < _distro.length */\n      lt\n        /* \"Will.sol\":7891:7970  for (uint256 i = 0; i < _distro.length; i++) { totalPercentage += _distro[i]; } */\n      iszero\n      tag_463\n      jumpi\n        /* \"Will.sol\":7957:7964  _distro */\n      dup7\n        /* \"Will.sol\":7965:7966  i */\n      dup2\n        /* \"Will.sol\":7957:7967  _distro[i] */\n      dup2\n      mload\n      dup2\n      lt\n      tag_466\n      jumpi\n      tag_466\n      tag_166\n      jump\t// in\n    tag_466:\n      0x20\n      mul\n      0x20\n      add\n      add\n      mload\n        /* \"Will.sol\":7938:7967  totalPercentage += _distro[i] */\n      dup3\n      tag_467\n      swap2\n      swap1\n      tag_218\n      jump\t// in\n    tag_467:\n      swap2\n      pop\n        /* \"Will.sol\":7931:7934  i++ */\n      0x01\n      add\n        /* \"Will.sol\":7891:7970  for (uint256 i = 0; i < _distro.length; i++) { totalPercentage += _distro[i]; } */\n      jump(tag_462)\n    tag_463:\n      pop\n        /* \"Will.sol\":7992:8007  totalPercentage */\n      dup1\n        /* \"Will.sol\":8011:8014  100 */\n      0x64\n        /* \"Will.sol\":7992:8014  totalPercentage == 100 */\n      eq\n        /* \"Will.sol\":7984:8047  require(totalPercentage == 100, \"Distribution must sum to 100\") */\n      tag_468\n      jumpi\n      mload(0x40)\n      shl(0xe5, 0x461bcd)\n      dup2\n      mstore\n        /* \"#utility.yul\":16661:16663   */\n      0x20\n        /* \"Will.sol\":7984:8047  require(totalPercentage == 100, \"Distribution must sum to 100\") */\n      0x04\n      dup3\n      add\n        /* \"#utility.yul\":16643:16664   */\n      mstore\n        /* \"#utility.yul\":16700:16702   */\n      0x1c\n        /* \"#utility.yul\":16680:16698   */\n      0x24\n      dup3\n      add\n        /* \"#utility.yul\":16673:16703   */\n      mstore\n        /* \"#utility.yul\":16739:16769   */\n      0x446973747269627574696f6e206d7573742073756d20746f2031303000000000\n        /* \"#utility.yul\":16719:16737   */\n      0x44\n      dup3\n      add\n        /* \"#utility.yul\":16712:16770   */\n      mstore\n        /* \"#utility.yul\":16787:16805   */\n      0x64\n      add\n        /* \"Will.sol\":7984:8047  require(totalPercentage == 100, \"Distribution must sum to 100\") */\n      tag_132\n        /* \"#utility.yul\":16459:16811   */\n      jump\n        /* \"Will.sol\":7984:8047  require(totalPercentage == 100, \"Distribution must sum to 100\") */\n    tag_468:\n        /* \"Will.sol\":7834:8059  {... */\n      pop\n        /* \"Will.sol\":7811:8059  if (_heirs.length > 0) {... */\n    tag_461:\n        /* \"Will.sol\":8069:8083  heirs = _heirs */\n      dup6\n      mload\n      tag_471\n      swap1\n        /* \"Will.sol\":8069:8074  heirs */\n      0x05\n      swap1\n        /* \"Will.sol\":8069:8083  heirs = _heirs */\n      0x20\n      dup10\n      add\n      swap1\n      tag_472\n      jump\t// in\n    tag_471:\n      pop\n        /* \"Will.sol\":8094:8127  distributionPercentages = _distro */\n      dup5\n      mload\n      tag_473\n      swap1\n        /* \"Will.sol\":8094:8117  distributionPercentages */\n      0x06\n      swap1\n        /* \"Will.sol\":8094:8127  distributionPercentages = _distro */\n      0x20\n      dup9\n      add\n      swap1\n      tag_474\n      jump\t// in\n    tag_473:\n      pop\n        /* \"Will.sol\":8143:8149  uint i */\n      0x00\n        /* \"Will.sol\":8138:8269  for (uint i = 0; i < _erc20s.length; i++) {... */\n    tag_475:\n        /* \"Will.sol\":8155:8173  i < _erc20s.length */\n      dup4\n      dup2\n      lt\n        /* \"Will.sol\":8138:8269  for (uint i = 0; i < _erc20s.length; i++) {... */\n      iszero\n      tag_476\n      jumpi\n        /* \"Will.sol\":8195:8206  erc20Assets */\n      0x07\n        /* \"Will.sol\":8212:8256  Erc20Asset(IERC20(_erc20s[i].tokenContract)) */\n      mload(0x40)\n      dup1\n      0x20\n      add\n      0x40\n      mstore\n      dup1\n        /* \"Will.sol\":8230:8237  _erc20s */\n      dup8\n      dup8\n        /* \"Will.sol\":8238:8239  i */\n      dup6\n        /* \"Will.sol\":8230:8240  _erc20s[i] */\n      dup2\n      dup2\n      lt\n      tag_479\n      jumpi\n      tag_479\n      tag_166\n      jump\t// in\n    tag_479:\n        /* \"Will.sol\":8230:8254  _erc20s[i].tokenContract */\n      tag_480\n      swap3\n      0x20\n        /* \"Will.sol\":8230:8240  _erc20s[i] */\n      0x40\n      swap1\n      swap3\n      mul\n      add\n        /* \"Will.sol\":8230:8254  _erc20s[i].tokenContract */\n      swap1\n      dup2\n      add\n      swap2\n      pop\n      tag_116\n      jump\t// in\n    tag_480:\n      sub(shl(0xa0, 0x01), 0x01)\n        /* \"Will.sol\":8212:8256  Erc20Asset(IERC20(_erc20s[i].tokenContract)) */\n      swap1\n      dup2\n      and\n      swap1\n      swap2\n      mstore\n        /* \"Will.sol\":8195:8257  erc20Assets.push(Erc20Asset(IERC20(_erc20s[i].tokenContract))) */\n      dup3\n      sload\n      0x01\n      dup1\n      dup3\n      add\n      dup6\n      sstore\n      0x00\n      swap5\n      dup6\n      mstore\n      0x20\n      swap1\n      swap5\n      keccak256\n      swap3\n      mload\n      swap3\n      add\n      dup1\n      sload\n      not(sub(shl(0xa0, 0x01), 0x01))\n      and\n      swap3\n      swap1\n      swap2\n      and\n      swap2\n      swap1\n      swap2\n      or\n      swap1\n      sstore\n        /* \"Will.sol\":8175:8178  i++ */\n      add\n        /* \"Will.sol\":8138:8269  for (uint i = 0; i < _erc20s.length; i++) {... */\n      jump(tag_475)\n    tag_476:\n      pop\n        /* \"Will.sol\":8284:8290  uint i */\n      0x00\n        /* \"Will.sol\":8279:8442  for (uint i = 0; i < _nfts.length; i++) {... */\n    tag_482:\n        /* \"Will.sol\":8296:8312  i < _nfts.length */\n      dup2\n      dup2\n      lt\n        /* \"Will.sol\":8279:8442  for (uint i = 0; i < _nfts.length; i++) {... */\n      iszero\n      tag_483\n      jumpi\n        /* \"Will.sol\":8334:8346  erc721Assets */\n      0x08\n        /* \"Will.sol\":8352:8429  Erc721Asset(IERC721(_nfts[i].tokenContract), _nfts[i].tokenId, _nfts[i].heir) */\n      mload(0x40)\n      dup1\n      0x60\n      add\n      0x40\n      mstore\n      dup1\n        /* \"Will.sol\":8372:8377  _nfts */\n      dup6\n      dup6\n        /* \"Will.sol\":8378:8379  i */\n      dup6\n        /* \"Will.sol\":8372:8380  _nfts[i] */\n      dup2\n      dup2\n      lt\n      tag_486\n      jumpi\n      tag_486\n      tag_166\n      jump\t// in\n    tag_486:\n        /* \"Will.sol\":8372:8394  _nfts[i].tokenContract */\n      tag_487\n      swap3\n      0x20\n        /* \"Will.sol\":8372:8380  _nfts[i] */\n      0x60\n      swap1\n      swap3\n      mul\n      add\n        /* \"Will.sol\":8372:8394  _nfts[i].tokenContract */\n      swap1\n      dup2\n      add\n      swap2\n      pop\n      tag_116\n      jump\t// in\n    tag_487:\n      sub(shl(0xa0, 0x01), 0x01)\n        /* \"Will.sol\":8352:8429  Erc721Asset(IERC721(_nfts[i].tokenContract), _nfts[i].tokenId, _nfts[i].heir) */\n      and\n      dup2\n      mstore\n      0x20\n      add\n        /* \"Will.sol\":8397:8402  _nfts */\n      dup6\n      dup6\n        /* \"Will.sol\":8403:8404  i */\n      dup6\n        /* \"Will.sol\":8397:8405  _nfts[i] */\n      dup2\n      dup2\n      lt\n      tag_489\n      jumpi\n      tag_489\n      tag_166\n      jump\t// in\n    tag_489:\n      swap1\n      pop\n      0x60\n      mul\n      add\n        /* \"Will.sol\":8397:8413  _nfts[i].tokenId */\n      0x20\n      add\n      calldataload\n        /* \"Will.sol\":8352:8429  Erc721Asset(IERC721(_nfts[i].tokenContract), _nfts[i].tokenId, _nfts[i].heir) */\n      dup2\n      mstore\n      0x20\n      add\n        /* \"Will.sol\":8415:8420  _nfts */\n      dup6\n      dup6\n        /* \"Will.sol\":8421:8422  i */\n      dup6\n        /* \"Will.sol\":8415:8423  _nfts[i] */\n      dup2\n      dup2\n      lt\n      tag_491\n      jumpi\n      tag_491\n      tag_166\n      jump\t// in\n    tag_491:\n      swap1\n      pop\n      0x60\n      mul\n      add\n        /* \"Will.sol\":8415:8428  _nfts[i].heir */\n      0x40\n      add\n      0x20\n      dup2\n      add\n      swap1\n      tag_492\n      swap2\n      swap1\n      tag_116\n      jump\t// in\n    tag_492:\n      sub(shl(0xa0, 0x01), 0x01)\n        /* \"Will.sol\":8352:8429  Erc721Asset(IERC721(_nfts[i].tokenContract), _nfts[i].tokenId, _nfts[i].heir) */\n      swap1\n      dup2\n      and\n      swap1\n      swap2\n      mstore\n        /* \"Will.sol\":8334:8430  erc721Assets.push(Erc721Asset(IERC721(_nfts[i].tokenContract), _nfts[i].tokenId, _nfts[i].heir)) */\n      dup3\n      sload\n      0x01\n      dup2\n      dup2\n      add\n      dup6\n      sstore\n      0x00\n      swap5\n      dup6\n      mstore\n      0x20\n      swap5\n      dup6\n      swap1\n      keccak256\n      dup5\n      mload\n      0x03\n      swap1\n      swap4\n      mul\n      add\n      dup1\n      sload\n      swap3\n      dup5\n      and\n      not(sub(shl(0xa0, 0x01), 0x01))\n      swap4\n      dup5\n      and\n      or\n      dup2\n      sstore\n      swap5\n      dup5\n      add\n      mload\n      dup6\n      dup3\n      add\n      sstore\n      0x40\n      swap1\n      swap4\n      add\n      mload\n      0x02\n      swap1\n      swap5\n      add\n      dup1\n      sload\n      swap5\n      swap1\n      swap3\n      and\n      swap4\n      and\n      swap3\n      swap1\n      swap3\n      or\n      swap1\n      swap2\n      sstore\n        /* \"Will.sol\":8314:8317  i++ */\n      add\n        /* \"Will.sol\":8279:8442  for (uint i = 0; i < _nfts.length; i++) {... */\n      jump(tag_482)\n    tag_483:\n      pop\n        /* \"Will.sol\":7522:8449  function _configure(... */\n      pop\n      pop\n      pop\n      pop\n      pop\n      pop\n      jump\t// out\n        /* \"@openzeppelin/contracts/access/Ownable.sol\":2912:3099  function _transferOwnership(address newOwner) internal virtual {... */\n    tag_339:\n        /* \"@openzeppelin/contracts/access/Ownable.sol\":2985:3001  address oldOwner */\n      0x00\n        /* \"@openzeppelin/contracts/access/Ownable.sol\":3004:3010  _owner */\n      dup1\n      sload\n      sub(shl(0xa0, 0x01), 0x01)\n        /* \"@openzeppelin/contracts/access/Ownable.sol\":3020:3037  _owner = newOwner */\n      dup4\n      dup2\n      and\n      not(sub(shl(0xa0, 0x01), 0x01))\n      dup4\n      and\n      dup2\n      or\n      dup5\n      sstore\n        /* \"@openzeppelin/contracts/access/Ownable.sol\":3052:3092  OwnershipTransferred(oldOwner, newOwner) */\n      mload(0x40)\n        /* \"@openzeppelin/contracts/access/Ownable.sol\":3004:3010  _owner */\n      swap2\n      swap1\n      swap3\n      and\n      swap3\n      dup4\n      swap2\n        /* \"@openzeppelin/contracts/access/Ownable.sol\":3052:3092  OwnershipTransferred(oldOwner, newOwner) */\n      0x8be0079c531659141344cd1fd0a4f28419497f9722a3daafe3b4186f6b6457e0\n      swap2\n        /* \"@openzeppelin/contracts/access/Ownable.sol\":2985:3001  address oldOwner */\n      swap1\n        /* \"@openzeppelin/contracts/access/Ownable.sol\":3052:3092  OwnershipTransferred(oldOwner, newOwner) */\n      log3\n        /* \"@openzeppelin/contracts/access/Ownable.sol\":2975:3099  {... */\n      pop\n        /* \"@openzeppelin/contracts/access/Ownable.sol\":2912:3099  function _transferOwnership(address newOwner) internal virtual {... */\n      pop\n      jump\t// out\n    tag_141:\n      pop\n      dup1\n      sload\n      0x00\n      dup3\n      sstore\n      swap1\n      0x00\n      mstore\n      keccak256(0x00, 0x20)\n      swap1\n      dup2\n      add\n      swap1\n      tag_410\n      swap2\n      swap1\n      tag_498\n      jump\t// in\n    tag_145:\n      pop\n      dup1\n      sload\n      0x00\n      dup3\n      sstore\n      swap1\n      0x00\n      mstore\n      keccak256(0x00, 0x20)\n      swap1\n      dup2\n      add\n      swap1\n      tag_410\n      swap2\n      swap1\n      tag_503\n      jump\t// in\n    tag_147:\n      pop\n      dup1\n      sload\n      0x00\n      dup3\n      sstore\n      0x03\n      mul\n      swap1\n      0x00\n      mstore\n      keccak256(0x00, 0x20)\n      swap1\n      dup2\n      add\n      swap1\n      tag_410\n      swap2\n      swap1\n      tag_506\n      jump\t// in\n    tag_472:\n      dup3\n      dup1\n      sload\n      dup3\n      dup3\n      sstore\n      swap1\n      0x00\n      mstore\n      keccak256(0x00, 0x20)\n      swap1\n      dup2\n      add\n      swap3\n      dup3\n      iszero\n      tag_509\n      jumpi\n      swap2\n      0x20\n      mul\n      dup3\n      add\n    tag_508:\n      dup3\n      dup2\n      gt\n      iszero\n      tag_509\n      jumpi\n      dup3\n      mload\n      dup3\n      sload\n      not(sub(shl(0xa0, 0x01), 0x01))\n      and\n      sub(shl(0xa0, 0x01), 0x01)\n      swap1\n      swap2\n      and\n      or\n      dup3\n      sstore\n      0x20\n      swap1\n      swap3\n      add\n      swap2\n      0x01\n      swap1\n      swap2\n      add\n      swap1\n      jump(tag_508)\n    tag_509:\n      pop\n      tag_510\n      swap3\n      swap2\n      pop\n      tag_498\n      jump\t// in\n    tag_510:\n      pop\n      swap1\n      jump\t// out\n    tag_474:\n      dup3\n      dup1\n      sload\n      dup3\n      dup3\n      sstore\n      swap1\n      0x00\n      mstore\n      keccak256(0x00, 0x20)\n      swap1\n      dup2\n      add\n      swap3\n      dup3\n      iszero\n      tag_509\n      jumpi\n      swap2\n      0x20\n      mul\n      dup3\n      add\n    tag_512:\n      dup3\n      dup2\n      gt\n      iszero\n      tag_509\n      jumpi\n      dup3\n      mload\n      dup3\n      sstore\n      swap2\n      0x20\n      add\n      swap2\n      swap1\n      0x01\n      add\n      swap1\n      jump(tag_512)\n    tag_498:\n    tag_515:\n      dup1\n      dup3\n      gt\n      iszero\n      tag_510\n      jumpi\n      0x00\n      dup2\n      sstore\n      0x01\n      add\n      jump(tag_515)\n    tag_503:\n    tag_517:\n      dup1\n      dup3\n      gt\n      iszero\n      tag_510\n      jumpi\n      dup1\n      sload\n      not(sub(shl(0xa0, 0x01), 0x01))\n      and\n      dup2\n      sstore\n      0x01\n      add\n      jump(tag_517)\n    tag_506:\n    tag_519:\n      dup1\n      dup3\n      gt\n      iszero\n      tag_510\n      jumpi\n      dup1\n      sload\n      not(sub(shl(0xa0, 0x01), 0x01))\n      swap1\n      dup2\n      and\n      dup3\n      sstore\n      0x00\n      0x01\n      dup4\n      add\n      sstore\n      0x02\n      dup3\n      add\n      dup1\n      sload\n      swap1\n      swap2\n      and\n      swap1\n      sstore\n      0x03\n      add\n      jump(tag_519)\n        /* \"#utility.yul\":14:141   */\n    tag_128:\n        /* \"#utility.yul\":75:85   */\n      0x4e487b71\n        /* \"#utility.yul\":70:73   */\n      0xe0\n        /* \"#utility.yul\":66:86   */\n      shl\n        /* \"#utility.yul\":63:64   */\n      0x00\n        /* \"#utility.yul\":56:87   */\n      mstore\n        /* \"#utility.yul\":106:110   */\n      0x21\n        /* \"#utility.yul\":103:104   */\n      0x04\n        /* \"#utility.yul\":96:111   */\n      mstore\n        /* \"#utility.yul\":130:134   */\n      0x24\n        /* \"#utility.yul\":127:128   */\n      0x00\n        /* \"#utility.yul\":120:135   */\n      revert\n        /* \"#utility.yul\":146:487   */\n    tag_30:\n        /* \"#utility.yul\":291:293   */\n      0x20\n        /* \"#utility.yul\":276:294   */\n      dup2\n      add\n        /* \"#utility.yul\":324:325   */\n      0x03\n        /* \"#utility.yul\":313:326   */\n      dup4\n      lt\n        /* \"#utility.yul\":303:447   */\n      tag_537\n      jumpi\n        /* \"#utility.yul\":369:379   */\n      0x4e487b71\n        /* \"#utility.yul\":364:367   */\n      0xe0\n        /* \"#utility.yul\":360:380   */\n      shl\n        /* \"#utility.yul\":357:358   */\n      0x00\n        /* \"#utility.yul\":350:381   */\n      mstore\n        /* \"#utility.yul\":404:408   */\n      0x21\n        /* \"#utility.yul\":401:402   */\n      0x04\n        /* \"#utility.yul\":394:409   */\n      mstore\n        /* \"#utility.yul\":432:436   */\n      0x24\n        /* \"#utility.yul\":429:430   */\n      0x00\n        /* \"#utility.yul\":422:437   */\n      revert\n        /* \"#utility.yul\":303:447   */\n    tag_537:\n        /* \"#utility.yul\":456:481   */\n      swap2\n      swap1\n      mstore\n        /* \"#utility.yul\":146:487   */\n      swap1\n      jump\t// out\n        /* \"#utility.yul\":492:672   */\n    tag_34:\n        /* \"#utility.yul\":551:557   */\n      0x00\n        /* \"#utility.yul\":604:606   */\n      0x20\n        /* \"#utility.yul\":592:601   */\n      dup3\n        /* \"#utility.yul\":583:590   */\n      dup5\n        /* \"#utility.yul\":579:602   */\n      sub\n        /* \"#utility.yul\":575:607   */\n      slt\n        /* \"#utility.yul\":572:624   */\n      iszero\n      tag_539\n      jumpi\n        /* \"#utility.yul\":620:621   */\n      0x00\n        /* \"#utility.yul\":617:618   */\n      dup1\n        /* \"#utility.yul\":610:622   */\n      revert\n        /* \"#utility.yul\":572:624   */\n    tag_539:\n      pop\n        /* \"#utility.yul\":643:666   */\n      calldataload\n      swap2\n        /* \"#utility.yul\":492:672   */\n      swap1\n      pop\n      jump\t// out\n        /* \"#utility.yul\":1176:1303   */\n    tag_363:\n        /* \"#utility.yul\":1237:1247   */\n      0x4e487b71\n        /* \"#utility.yul\":1232:1235   */\n      0xe0\n        /* \"#utility.yul\":1228:1248   */\n      shl\n        /* \"#utility.yul\":1225:1226   */\n      0x00\n        /* \"#utility.yul\":1218:1249   */\n      mstore\n        /* \"#utility.yul\":1268:1272   */\n      0x41\n        /* \"#utility.yul\":1265:1266   */\n      0x04\n        /* \"#utility.yul\":1258:1273   */\n      mstore\n        /* \"#utility.yul\":1292:1296   */\n      0x24\n        /* \"#utility.yul\":1289:1290   */\n      0x00\n        /* \"#utility.yul\":1282:1297   */\n      revert\n        /* \"#utility.yul\":1308:1583   */\n    tag_522:\n        /* \"#utility.yul\":1379:1381   */\n      0x40\n        /* \"#utility.yul\":1373:1382   */\n      mload\n        /* \"#utility.yul\":1444:1446   */\n      0x1f\n        /* \"#utility.yul\":1425:1438   */\n      dup3\n      add\n      not(0x1f)\n        /* \"#utility.yul\":1421:1448   */\n      and\n        /* \"#utility.yul\":1409:1449   */\n      dup2\n      add\n        /* \"#utility.yul\":1479:1497   */\n      0xffffffffffffffff\n        /* \"#utility.yul\":1464:1498   */\n      dup2\n      gt\n        /* \"#utility.yul\":1500:1522   */\n      dup3\n      dup3\n      lt\n        /* \"#utility.yul\":1461:1523   */\n      or\n        /* \"#utility.yul\":1458:1546   */\n      iszero\n      tag_546\n      jumpi\n        /* \"#utility.yul\":1526:1544   */\n      tag_546\n      tag_363\n      jump\t// in\n    tag_546:\n        /* \"#utility.yul\":1562:1564   */\n      0x40\n        /* \"#utility.yul\":1555:1577   */\n      mstore\n        /* \"#utility.yul\":1308:1583   */\n      swap2\n      swap1\n      pop\n      jump\t// out\n        /* \"#utility.yul\":1588:1771   */\n    tag_523:\n        /* \"#utility.yul\":1648:1652   */\n      0x00\n        /* \"#utility.yul\":1681:1699   */\n      0xffffffffffffffff\n        /* \"#utility.yul\":1673:1679   */\n      dup3\n        /* \"#utility.yul\":1670:1700   */\n      gt\n        /* \"#utility.yul\":1667:1723   */\n      iszero\n      tag_549\n      jumpi\n        /* \"#utility.yul\":1703:1721   */\n      tag_549\n      tag_363\n      jump\t// in\n    tag_549:\n      pop\n        /* \"#utility.yul\":1748:1749   */\n      0x05\n        /* \"#utility.yul\":1744:1758   */\n      shl\n        /* \"#utility.yul\":1760:1764   */\n      0x20\n        /* \"#utility.yul\":1740:1765   */\n      add\n      swap1\n        /* \"#utility.yul\":1588:1771   */\n      jump\t// out\n        /* \"#utility.yul\":1776:1949   */\n    tag_524:\n        /* \"#utility.yul\":1844:1864   */\n      dup1\n      calldataload\n      sub(shl(0xa0, 0x01), 0x01)\n        /* \"#utility.yul\":1893:1924   */\n      dup2\n      and\n        /* \"#utility.yul\":1883:1925   */\n      dup2\n      eq\n        /* \"#utility.yul\":1873:1943   */\n      tag_551\n      jumpi\n        /* \"#utility.yul\":1939:1940   */\n      0x00\n        /* \"#utility.yul\":1936:1937   */\n      dup1\n        /* \"#utility.yul\":1929:1941   */\n      revert\n        /* \"#utility.yul\":1873:1943   */\n    tag_551:\n        /* \"#utility.yul\":1776:1949   */\n      swap2\n      swap1\n      pop\n      jump\t// out\n        /* \"#utility.yul\":1954:2622   */\n    tag_525:\n        /* \"#utility.yul\":2008:2013   */\n      0x00\n        /* \"#utility.yul\":2061:2064   */\n      dup3\n        /* \"#utility.yul\":2054:2058   */\n      0x1f\n        /* \"#utility.yul\":2046:2052   */\n      dup4\n        /* \"#utility.yul\":2042:2059   */\n      add\n        /* \"#utility.yul\":2038:2065   */\n      slt\n        /* \"#utility.yul\":2028:2083   */\n      tag_553\n      jumpi\n        /* \"#utility.yul\":2079:2080   */\n      0x00\n        /* \"#utility.yul\":2076:2077   */\n      dup1\n        /* \"#utility.yul\":2069:2081   */\n      revert\n        /* \"#utility.yul\":2028:2083   */\n    tag_553:\n        /* \"#utility.yul\":2115:2121   */\n      dup2\n        /* \"#utility.yul\":2102:2122   */\n      calldataload\n        /* \"#utility.yul\":2141:2145   */\n      0x20\n        /* \"#utility.yul\":2165:2225   */\n      tag_554\n        /* \"#utility.yul\":2181:2224   */\n      tag_555\n        /* \"#utility.yul\":2221:2223   */\n      dup4\n        /* \"#utility.yul\":2181:2224   */\n      tag_523\n      jump\t// in\n    tag_555:\n        /* \"#utility.yul\":2165:2225   */\n      tag_522\n      jump\t// in\n    tag_554:\n        /* \"#utility.yul\":2247:2250   */\n      dup1\n        /* \"#utility.yul\":2271:2273   */\n      dup4\n        /* \"#utility.yul\":2266:2269   */\n      dup3\n        /* \"#utility.yul\":2259:2274   */\n      mstore\n        /* \"#utility.yul\":2299:2303   */\n      0x20\n        /* \"#utility.yul\":2294:2297   */\n      dup3\n        /* \"#utility.yul\":2290:2304   */\n      add\n        /* \"#utility.yul\":2283:2304   */\n      swap2\n      pop\n        /* \"#utility.yul\":2356:2360   */\n      0x20\n        /* \"#utility.yul\":2350:2352   */\n      dup5\n        /* \"#utility.yul\":2347:2348   */\n      0x05\n        /* \"#utility.yul\":2343:2353   */\n      shl\n        /* \"#utility.yul\":2335:2341   */\n      dup8\n        /* \"#utility.yul\":2331:2354   */\n      add\n        /* \"#utility.yul\":2327:2361   */\n      add\n        /* \"#utility.yul\":2313:2361   */\n      swap4\n      pop\n        /* \"#utility.yul\":2384:2387   */\n      dup7\n        /* \"#utility.yul\":2376:2382   */\n      dup5\n        /* \"#utility.yul\":2373:2388   */\n      gt\n        /* \"#utility.yul\":2370:2405   */\n      iszero\n      tag_556\n      jumpi\n        /* \"#utility.yul\":2401:2402   */\n      0x00\n        /* \"#utility.yul\":2398:2399   */\n      dup1\n        /* \"#utility.yul\":2391:2403   */\n      revert\n        /* \"#utility.yul\":2370:2405   */\n    tag_556:\n        /* \"#utility.yul\":2437:2441   */\n      0x20\n        /* \"#utility.yul\":2429:2435   */\n      dup7\n        /* \"#utility.yul\":2425:2442   */\n      add\n        /* \"#utility.yul\":2451:2593   */\n    tag_557:\n        /* \"#utility.yul\":2467:2473   */\n      dup5\n        /* \"#utility.yul\":2462:2465   */\n      dup2\n        /* \"#utility.yul\":2459:2474   */\n      lt\n        /* \"#utility.yul\":2451:2593   */\n      iszero\n      tag_559\n      jumpi\n        /* \"#utility.yul\":2533:2550   */\n      dup1\n      calldataload\n        /* \"#utility.yul\":2521:2551   */\n      dup4\n      mstore\n        /* \"#utility.yul\":2571:2583   */\n      swap2\n      dup4\n      add\n      swap2\n        /* \"#utility.yul\":2484:2496   */\n      dup4\n      add\n        /* \"#utility.yul\":2451:2593   */\n      jump(tag_557)\n    tag_559:\n      pop\n        /* \"#utility.yul\":2611:2616   */\n      swap7\n        /* \"#utility.yul\":1954:2622   */\n      swap6\n      pop\n      pop\n      pop\n      pop\n      pop\n      pop\n      jump\t// out\n        /* \"#utility.yul\":2627:3020   */\n    tag_526:\n        /* \"#utility.yul\":2716:2724   */\n      0x00\n        /* \"#utility.yul\":2726:2732   */\n      dup1\n        /* \"#utility.yul\":2780:2783   */\n      dup4\n        /* \"#utility.yul\":2773:2777   */\n      0x1f\n        /* \"#utility.yul\":2765:2771   */\n      dup5\n        /* \"#utility.yul\":2761:2778   */\n      add\n        /* \"#utility.yul\":2757:2784   */\n      slt\n        /* \"#utility.yul\":2747:2802   */\n      tag_561\n      jumpi\n        /* \"#utility.yul\":2798:2799   */\n      0x00\n        /* \"#utility.yul\":2795:2796   */\n      dup1\n        /* \"#utility.yul\":2788:2800   */\n      revert\n        /* \"#utility.yul\":2747:2802   */\n    tag_561:\n      pop\n        /* \"#utility.yul\":2821:2841   */\n      dup2\n      calldataload\n        /* \"#utility.yul\":2864:2882   */\n      0xffffffffffffffff\n        /* \"#utility.yul\":2853:2883   */\n      dup2\n      gt\n        /* \"#utility.yul\":2850:2900   */\n      iszero\n      tag_562\n      jumpi\n        /* \"#utility.yul\":2896:2897   */\n      0x00\n        /* \"#utility.yul\":2893:2894   */\n      dup1\n        /* \"#utility.yul\":2886:2898   */\n      revert\n        /* \"#utility.yul\":2850:2900   */\n    tag_562:\n        /* \"#utility.yul\":2933:2937   */\n      0x20\n        /* \"#utility.yul\":2925:2931   */\n      dup4\n        /* \"#utility.yul\":2921:2938   */\n      add\n        /* \"#utility.yul\":2909:2938   */\n      swap2\n      pop\n        /* \"#utility.yul\":2993:2996   */\n      dup4\n        /* \"#utility.yul\":2986:2990   */\n      0x20\n        /* \"#utility.yul\":2976:2982   */\n      dup3\n        /* \"#utility.yul\":2973:2974   */\n      0x06\n        /* \"#utility.yul\":2969:2983   */\n      shl\n        /* \"#utility.yul\":2961:2967   */\n      dup6\n        /* \"#utility.yul\":2957:2984   */\n      add\n        /* \"#utility.yul\":2953:2991   */\n      add\n        /* \"#utility.yul\":2950:2997   */\n      gt\n        /* \"#utility.yul\":2947:3014   */\n      iszero\n      tag_563\n      jumpi\n        /* \"#utility.yul\":3010:3011   */\n      0x00\n        /* \"#utility.yul\":3007:3008   */\n      dup1\n        /* \"#utility.yul\":3000:3012   */\n      revert\n        /* \"#utility.yul\":2947:3014   */\n    tag_563:\n        /* \"#utility.yul\":2627:3020   */\n      swap3\n      pop\n      swap3\n      swap1\n      pop\n      jump\t// out\n        /* \"#utility.yul\":3025:3419   */\n    tag_527:\n        /* \"#utility.yul\":3112:3120   */\n      0x00\n        /* \"#utility.yul\":3122:3128   */\n      dup1\n        /* \"#utility.yul\":3176:3179   */\n      dup4\n        /* \"#utility.yul\":3169:3173   */\n      0x1f\n        /* \"#utility.yul\":3161:3167   */\n      dup5\n        /* \"#utility.yul\":3157:3174   */\n      add\n        /* \"#utility.yul\":3153:3180   */\n      slt\n        /* \"#utility.yul\":3143:3198   */\n      tag_565\n      jumpi\n        /* \"#utility.yul\":3194:3195   */\n      0x00\n        /* \"#utility.yul\":3191:3192   */\n      dup1\n        /* \"#utility.yul\":3184:3196   */\n      revert\n        /* \"#utility.yul\":3143:3198   */\n    tag_565:\n      pop\n        /* \"#utility.yul\":3217:3237   */\n      dup2\n      calldataload\n        /* \"#utility.yul\":3260:3278   */\n      0xffffffffffffffff\n        /* \"#utility.yul\":3249:3279   */\n      dup2\n      gt\n        /* \"#utility.yul\":3246:3296   */\n      iszero\n      tag_566\n      jumpi\n        /* \"#utility.yul\":3292:3293   */\n      0x00\n        /* \"#utility.yul\":3289:3290   */\n      dup1\n        /* \"#utility.yul\":3282:3294   */\n      revert\n        /* \"#utility.yul\":3246:3296   */\n    tag_566:\n        /* \"#utility.yul\":3329:3333   */\n      0x20\n        /* \"#utility.yul\":3321:3327   */\n      dup4\n        /* \"#utility.yul\":3317:3334   */\n      add\n        /* \"#utility.yul\":3305:3334   */\n      swap2\n      pop\n        /* \"#utility.yul\":3392:3395   */\n      dup4\n        /* \"#utility.yul\":3385:3389   */\n      0x20\n        /* \"#utility.yul\":3377:3381   */\n      0x60\n        /* \"#utility.yul\":3369:3375   */\n      dup4\n        /* \"#utility.yul\":3365:3382   */\n      mul\n        /* \"#utility.yul\":3357:3363   */\n      dup6\n        /* \"#utility.yul\":3353:3383   */\n      add\n        /* \"#utility.yul\":3349:3390   */\n      add\n        /* \"#utility.yul\":3346:3396   */\n      gt\n        /* \"#utility.yul\":3343:3413   */\n      iszero\n      tag_563\n      jumpi\n        /* \"#utility.yul\":3409:3410   */\n      0x00\n        /* \"#utility.yul\":3406:3407   */\n      dup1\n        /* \"#utility.yul\":3399:3411   */\n      revert\n        /* \"#utility.yul\":3424:5388   */\n    tag_53:\n        /* \"#utility.yul\":3693:3699   */\n      0x00\n        /* \"#utility.yul\":3701:3707   */\n      dup1\n        /* \"#utility.yul\":3709:3715   */\n      0x00\n        /* \"#utility.yul\":3717:3723   */\n      dup1\n        /* \"#utility.yul\":3725:3731   */\n      0x00\n        /* \"#utility.yul\":3733:3739   */\n      dup1\n        /* \"#utility.yul\":3741:3747   */\n      0x00\n        /* \"#utility.yul\":3794:3797   */\n      0xa0\n        /* \"#utility.yul\":3782:3791   */\n      dup9\n        /* \"#utility.yul\":3773:3780   */\n      dup11\n        /* \"#utility.yul\":3769:3792   */\n      sub\n        /* \"#utility.yul\":3765:3798   */\n      slt\n        /* \"#utility.yul\":3762:3815   */\n      iszero\n      tag_569\n      jumpi\n        /* \"#utility.yul\":3811:3812   */\n      0x00\n        /* \"#utility.yul\":3808:3809   */\n      dup1\n        /* \"#utility.yul\":3801:3813   */\n      revert\n        /* \"#utility.yul\":3762:3815   */\n    tag_569:\n        /* \"#utility.yul\":3847:3856   */\n      dup8\n        /* \"#utility.yul\":3834:3857   */\n      calldataload\n        /* \"#utility.yul\":3824:3857   */\n      swap7\n      pop\n        /* \"#utility.yul\":3876:3878   */\n      0x20\n        /* \"#utility.yul\":3929:3931   */\n      dup1\n        /* \"#utility.yul\":3918:3927   */\n      dup10\n        /* \"#utility.yul\":3914:3932   */\n      add\n        /* \"#utility.yul\":3901:3933   */\n      calldataload\n        /* \"#utility.yul\":3952:3970   */\n      0xffffffffffffffff\n        /* \"#utility.yul\":3993:3995   */\n      dup1\n        /* \"#utility.yul\":3985:3991   */\n      dup3\n        /* \"#utility.yul\":3982:3996   */\n      gt\n        /* \"#utility.yul\":3979:4013   */\n      iszero\n      tag_570\n      jumpi\n        /* \"#utility.yul\":4009:4010   */\n      0x00\n        /* \"#utility.yul\":4006:4007   */\n      dup1\n        /* \"#utility.yul\":3999:4011   */\n      revert\n        /* \"#utility.yul\":3979:4013   */\n    tag_570:\n        /* \"#utility.yul\":4047:4053   */\n      dup2\n        /* \"#utility.yul\":4036:4045   */\n      dup12\n        /* \"#utility.yul\":4032:4054   */\n      add\n        /* \"#utility.yul\":4022:4054   */\n      swap2\n      pop\n        /* \"#utility.yul\":4092:4099   */\n      dup12\n        /* \"#utility.yul\":4085:4089   */\n      0x1f\n        /* \"#utility.yul\":4081:4083   */\n      dup4\n        /* \"#utility.yul\":4077:4090   */\n      add\n        /* \"#utility.yul\":4073:4100   */\n      slt\n        /* \"#utility.yul\":4063:4118   */\n      tag_571\n      jumpi\n        /* \"#utility.yul\":4114:4115   */\n      0x00\n        /* \"#utility.yul\":4111:4112   */\n      dup1\n        /* \"#utility.yul\":4104:4116   */\n      revert\n        /* \"#utility.yul\":4063:4118   */\n    tag_571:\n        /* \"#utility.yul\":4150:4152   */\n      dup2\n        /* \"#utility.yul\":4137:4153   */\n      calldataload\n        /* \"#utility.yul\":4173:4233   */\n      tag_572\n        /* \"#utility.yul\":4189:4232   */\n      tag_555\n        /* \"#utility.yul\":4229:4231   */\n      dup3\n        /* \"#utility.yul\":4189:4232   */\n      tag_523\n      jump\t// in\n        /* \"#utility.yul\":4173:4233   */\n    tag_572:\n        /* \"#utility.yul\":4267:4282   */\n      dup2\n      dup2\n      mstore\n        /* \"#utility.yul\":4349:4350   */\n      0x05\n        /* \"#utility.yul\":4345:4355   */\n      swap2\n      swap1\n      swap2\n      shl\n        /* \"#utility.yul\":4337:4356   */\n      dup4\n      add\n        /* \"#utility.yul\":4333:4361   */\n      dup5\n      add\n      swap1\n        /* \"#utility.yul\":4298:4310   */\n      dup5\n      dup2\n      add\n      swap1\n        /* \"#utility.yul\":4373:4392   */\n      dup15\n      dup4\n      gt\n        /* \"#utility.yul\":4370:4409   */\n      iszero\n      tag_574\n      jumpi\n        /* \"#utility.yul\":4405:4406   */\n      0x00\n        /* \"#utility.yul\":4402:4403   */\n      dup1\n        /* \"#utility.yul\":4395:4407   */\n      revert\n        /* \"#utility.yul\":4370:4409   */\n    tag_574:\n        /* \"#utility.yul\":4429:4440   */\n      swap4\n      dup6\n      add\n      swap4\n        /* \"#utility.yul\":4449:4597   */\n    tag_575:\n        /* \"#utility.yul\":4465:4471   */\n      dup3\n        /* \"#utility.yul\":4460:4463   */\n      dup6\n        /* \"#utility.yul\":4457:4472   */\n      lt\n        /* \"#utility.yul\":4449:4597   */\n      iszero\n      tag_577\n      jumpi\n        /* \"#utility.yul\":4531:4554   */\n      tag_578\n        /* \"#utility.yul\":4550:4553   */\n      dup6\n        /* \"#utility.yul\":4531:4554   */\n      tag_524\n      jump\t// in\n    tag_578:\n        /* \"#utility.yul\":4519:4555   */\n      dup3\n      mstore\n        /* \"#utility.yul\":4482:4494   */\n      swap4\n      dup6\n      add\n      swap4\n        /* \"#utility.yul\":4575:4587   */\n      swap1\n      dup6\n      add\n      swap1\n        /* \"#utility.yul\":4449:4597   */\n      jump(tag_575)\n    tag_577:\n        /* \"#utility.yul\":4616:4621   */\n      swap11\n      pop\n      pop\n      pop\n        /* \"#utility.yul\":4674:4676   */\n      0x40\n        /* \"#utility.yul\":4659:4677   */\n      dup12\n      add\n        /* \"#utility.yul\":4646:4678   */\n      calldataload\n      swap3\n      pop\n        /* \"#utility.yul\":4690:4706   */\n      dup1\n      dup4\n      gt\n        /* \"#utility.yul\":4687:4723   */\n      iszero\n      tag_579\n      jumpi\n        /* \"#utility.yul\":4719:4720   */\n      0x00\n        /* \"#utility.yul\":4716:4717   */\n      dup1\n        /* \"#utility.yul\":4709:4721   */\n      revert\n        /* \"#utility.yul\":4687:4723   */\n    tag_579:\n        /* \"#utility.yul\":4742:4805   */\n      tag_580\n        /* \"#utility.yul\":4797:4804   */\n      dup13\n        /* \"#utility.yul\":4786:4794   */\n      dup5\n        /* \"#utility.yul\":4775:4784   */\n      dup14\n        /* \"#utility.yul\":4771:4795   */\n      add\n        /* \"#utility.yul\":4742:4805   */\n      tag_525\n      jump\t// in\n    tag_580:\n        /* \"#utility.yul\":4732:4805   */\n      swap8\n      pop\n        /* \"#utility.yul\":4858:4860   */\n      0x60\n        /* \"#utility.yul\":4847:4856   */\n      dup12\n        /* \"#utility.yul\":4843:4861   */\n      add\n        /* \"#utility.yul\":4830:4862   */\n      calldataload\n        /* \"#utility.yul\":4814:4862   */\n      swap3\n      pop\n        /* \"#utility.yul\":4887:4889   */\n      dup1\n        /* \"#utility.yul\":4877:4885   */\n      dup4\n        /* \"#utility.yul\":4874:4890   */\n      gt\n        /* \"#utility.yul\":4871:4907   */\n      iszero\n      tag_581\n      jumpi\n        /* \"#utility.yul\":4903:4904   */\n      0x00\n        /* \"#utility.yul\":4900:4901   */\n      dup1\n        /* \"#utility.yul\":4893:4905   */\n      revert\n        /* \"#utility.yul\":4871:4907   */\n    tag_581:\n        /* \"#utility.yul\":4942:5040   */\n      tag_582\n        /* \"#utility.yul\":5032:5039   */\n      dup13\n        /* \"#utility.yul\":5021:5029   */\n      dup5\n        /* \"#utility.yul\":5010:5019   */\n      dup14\n        /* \"#utility.yul\":5006:5030   */\n      add\n        /* \"#utility.yul\":4942:5040   */\n      tag_526\n      jump\t// in\n    tag_582:\n        /* \"#utility.yul\":4916:5040   */\n      swap1\n      swap8\n      pop\n      swap6\n      pop\n        /* \"#utility.yul\":5147:5150   */\n      0x80\n        /* \"#utility.yul\":5132:5151   */\n      dup12\n      add\n        /* \"#utility.yul\":5119:5152   */\n      calldataload\n      swap3\n      pop\n        /* \"#utility.yul\":4916:5040   */\n      dup7\n      swap2\n      pop\n        /* \"#utility.yul\":5164:5180   */\n      dup1\n      dup4\n      gt\n        /* \"#utility.yul\":5161:5197   */\n      iszero\n      tag_583\n      jumpi\n        /* \"#utility.yul\":5193:5194   */\n      0x00\n        /* \"#utility.yul\":5190:5191   */\n      dup1\n        /* \"#utility.yul\":5183:5195   */\n      revert\n        /* \"#utility.yul\":5161:5197   */\n    tag_583:\n      pop\n      pop\n        /* \"#utility.yul\":5232:5328   */\n      tag_584\n        /* \"#utility.yul\":5320:5327   */\n      dup11\n        /* \"#utility.yul\":5309:5317   */\n      dup3\n        /* \"#utility.yul\":5298:5307   */\n      dup12\n        /* \"#utility.yul\":5294:5318   */\n      add\n        /* \"#utility.yul\":5232:5328   */\n      tag_527\n      jump\t// in\n    tag_584:\n        /* \"#utility.yul\":3424:5388   */\n      swap9\n      swap12\n      swap8\n      swap11\n      pop\n      swap6\n      swap9\n      pop\n      swap4\n      swap7\n      swap3\n      swap6\n        /* \"#utility.yul\":5206:5328   */\n      swap3\n      swap4\n      pop\n      pop\n      pop\n        /* \"#utility.yul\":3424:5388   */\n      jump\t// out\n        /* \"#utility.yul\":5711:6176   */\n    tag_529:\n        /* \"#utility.yul\":5764:5767   */\n      0x00\n        /* \"#utility.yul\":5802:5807   */\n      dup2\n        /* \"#utility.yul\":5796:5808   */\n      mload\n        /* \"#utility.yul\":5829:5835   */\n      dup1\n        /* \"#utility.yul\":5824:5827   */\n      dup5\n        /* \"#utility.yul\":5817:5836   */\n      mstore\n        /* \"#utility.yul\":5855:5859   */\n      0x20\n        /* \"#utility.yul\":5884:5888   */\n      dup1\n        /* \"#utility.yul\":5879:5882   */\n      dup6\n        /* \"#utility.yul\":5875:5889   */\n      add\n        /* \"#utility.yul\":5868:5889   */\n      swap5\n      pop\n        /* \"#utility.yul\":5923:5927   */\n      0x20\n        /* \"#utility.yul\":5916:5921   */\n      dup5\n        /* \"#utility.yul\":5912:5928   */\n      add\n        /* \"#utility.yul\":5946:5947   */\n      0x00\n        /* \"#utility.yul\":5956:6151   */\n    tag_588:\n        /* \"#utility.yul\":5970:5976   */\n      dup4\n        /* \"#utility.yul\":5967:5968   */\n      dup2\n        /* \"#utility.yul\":5964:5977   */\n      lt\n        /* \"#utility.yul\":5956:6151   */\n      iszero\n      tag_590\n      jumpi\n        /* \"#utility.yul\":6035:6048   */\n      dup2\n      mload\n      sub(shl(0xa0, 0x01), 0x01)\n        /* \"#utility.yul\":6031:6070   */\n      and\n        /* \"#utility.yul\":6019:6071   */\n      dup8\n      mstore\n        /* \"#utility.yul\":6091:6103   */\n      swap6\n      dup3\n      add\n      swap6\n        /* \"#utility.yul\":6126:6141   */\n      swap1\n      dup3\n      add\n      swap1\n        /* \"#utility.yul\":6067:6068   */\n      0x01\n        /* \"#utility.yul\":5985:5994   */\n      add\n        /* \"#utility.yul\":5956:6151   */\n      jump(tag_588)\n    tag_590:\n      pop\n        /* \"#utility.yul\":6167:6170   */\n      swap5\n      swap6\n        /* \"#utility.yul\":5711:6176   */\n      swap5\n      pop\n      pop\n      pop\n      pop\n      pop\n      jump\t// out\n        /* \"#utility.yul\":6181:6620   */\n    tag_530:\n        /* \"#utility.yul\":6234:6237   */\n      0x00\n        /* \"#utility.yul\":6272:6277   */\n      dup2\n        /* \"#utility.yul\":6266:6278   */\n      mload\n        /* \"#utility.yul\":6299:6305   */\n      dup1\n        /* \"#utility.yul\":6294:6297   */\n      dup5\n        /* \"#utility.yul\":6287:6306   */\n      mstore\n        /* \"#utility.yul\":6325:6329   */\n      0x20\n        /* \"#utility.yul\":6354:6358   */\n      dup1\n        /* \"#utility.yul\":6349:6352   */\n      dup6\n        /* \"#utility.yul\":6345:6359   */\n      add\n        /* \"#utility.yul\":6338:6359   */\n      swap5\n      pop\n        /* \"#utility.yul\":6393:6397   */\n      0x20\n        /* \"#utility.yul\":6386:6391   */\n      dup5\n        /* \"#utility.yul\":6382:6398   */\n      add\n        /* \"#utility.yul\":6416:6417   */\n      0x00\n        /* \"#utility.yul\":6426:6595   */\n    tag_592:\n        /* \"#utility.yul\":6440:6446   */\n      dup4\n        /* \"#utility.yul\":6437:6438   */\n      dup2\n        /* \"#utility.yul\":6434:6447   */\n      lt\n        /* \"#utility.yul\":6426:6595   */\n      iszero\n      tag_590\n      jumpi\n        /* \"#utility.yul\":6501:6514   */\n      dup2\n      mload\n        /* \"#utility.yul\":6489:6515   */\n      dup8\n      mstore\n        /* \"#utility.yul\":6535:6547   */\n      swap6\n      dup3\n      add\n      swap6\n        /* \"#utility.yul\":6570:6585   */\n      swap1\n      dup3\n      add\n      swap1\n        /* \"#utility.yul\":6462:6463   */\n      0x01\n        /* \"#utility.yul\":6455:6464   */\n      add\n        /* \"#utility.yul\":6426:6595   */\n      jump(tag_592)\n        /* \"#utility.yul\":6625:7188   */\n    tag_531:\n        /* \"#utility.yul\":6689:6692   */\n      0x00\n        /* \"#utility.yul\":6727:6732   */\n      dup2\n        /* \"#utility.yul\":6721:6733   */\n      mload\n        /* \"#utility.yul\":6754:6760   */\n      dup1\n        /* \"#utility.yul\":6749:6752   */\n      dup5\n        /* \"#utility.yul\":6742:6761   */\n      mstore\n        /* \"#utility.yul\":6780:6784   */\n      0x20\n        /* \"#utility.yul\":6809:6813   */\n      dup1\n        /* \"#utility.yul\":6804:6807   */\n      dup6\n        /* \"#utility.yul\":6800:6814   */\n      add\n        /* \"#utility.yul\":6793:6814   */\n      swap5\n      pop\n        /* \"#utility.yul\":6848:6852   */\n      0x20\n        /* \"#utility.yul\":6841:6846   */\n      dup5\n        /* \"#utility.yul\":6837:6853   */\n      add\n        /* \"#utility.yul\":6871:6872   */\n      0x00\n        /* \"#utility.yul\":6881:7163   */\n    tag_596:\n        /* \"#utility.yul\":6895:6901   */\n      dup4\n        /* \"#utility.yul\":6892:6893   */\n      dup2\n        /* \"#utility.yul\":6889:6902   */\n      lt\n        /* \"#utility.yul\":6881:7163   */\n      iszero\n      tag_590\n      jumpi\n        /* \"#utility.yul\":6954:6967   */\n      dup2\n      mload\n        /* \"#utility.yul\":6996:7005   */\n      dup1\n      mload\n      sub(shl(0xa0, 0x01), 0x01)\n        /* \"#utility.yul\":6992:7027   */\n      and\n        /* \"#utility.yul\":6980:7028   */\n      dup9\n      mstore\n        /* \"#utility.yul\":7068:7079   */\n      dup4\n      add\n        /* \"#utility.yul\":7062:7080   */\n      mload\n        /* \"#utility.yul\":7048:7060   */\n      dup4\n      dup9\n      add\n        /* \"#utility.yul\":7041:7081   */\n      mstore\n        /* \"#utility.yul\":7110:7114   */\n      0x40\n        /* \"#utility.yul\":7101:7115   */\n      swap1\n      swap7\n      add\n      swap6\n        /* \"#utility.yul\":7138:7153   */\n      swap1\n      dup3\n      add\n      swap1\n        /* \"#utility.yul\":7024:7025   */\n      0x01\n        /* \"#utility.yul\":6910:6919   */\n      add\n        /* \"#utility.yul\":6881:7163   */\n      jump(tag_596)\n        /* \"#utility.yul\":7193:7871   */\n    tag_532:\n        /* \"#utility.yul\":7258:7261   */\n      0x00\n        /* \"#utility.yul\":7296:7301   */\n      dup2\n        /* \"#utility.yul\":7290:7302   */\n      mload\n        /* \"#utility.yul\":7323:7329   */\n      dup1\n        /* \"#utility.yul\":7318:7321   */\n      dup5\n        /* \"#utility.yul\":7311:7330   */\n      mstore\n        /* \"#utility.yul\":7349:7353   */\n      0x20\n        /* \"#utility.yul\":7378:7382   */\n      dup1\n        /* \"#utility.yul\":7373:7376   */\n      dup6\n        /* \"#utility.yul\":7369:7383   */\n      add\n        /* \"#utility.yul\":7362:7383   */\n      swap5\n      pop\n        /* \"#utility.yul\":7417:7421   */\n      0x20\n        /* \"#utility.yul\":7410:7415   */\n      dup5\n        /* \"#utility.yul\":7406:7422   */\n      add\n        /* \"#utility.yul\":7440:7441   */\n      0x00\n        /* \"#utility.yul\":7450:7846   */\n    tag_600:\n        /* \"#utility.yul\":7464:7470   */\n      dup4\n        /* \"#utility.yul\":7461:7462   */\n      dup2\n        /* \"#utility.yul\":7458:7471   */\n      lt\n        /* \"#utility.yul\":7450:7846   */\n      iszero\n      tag_590\n      jumpi\n        /* \"#utility.yul\":7523:7536   */\n      dup2\n      mload\n        /* \"#utility.yul\":7607:7616   */\n      dup1\n      mload\n      sub(shl(0xa0, 0x01), 0x01)\n        /* \"#utility.yul\":7603:7621   */\n      swap1\n      dup2\n      and\n        /* \"#utility.yul\":7591:7622   */\n      dup10\n      mstore\n        /* \"#utility.yul\":7662:7673   */\n      dup5\n      dup3\n      add\n        /* \"#utility.yul\":7656:7674   */\n      mload\n        /* \"#utility.yul\":7642:7654   */\n      dup6\n      dup11\n      add\n        /* \"#utility.yul\":7635:7675   */\n      mstore\n        /* \"#utility.yul\":7698:7702   */\n      0x40\n        /* \"#utility.yul\":7746:7757   */\n      swap2\n      dup3\n      add\n        /* \"#utility.yul\":7740:7758   */\n      mload\n        /* \"#utility.yul\":7736:7763   */\n      and\n        /* \"#utility.yul\":7722:7734   */\n      swap1\n      dup9\n      add\n        /* \"#utility.yul\":7715:7764   */\n      mstore\n        /* \"#utility.yul\":7793:7797   */\n      0x60\n        /* \"#utility.yul\":7784:7798   */\n      swap1\n      swap7\n      add\n      swap6\n        /* \"#utility.yul\":7821:7836   */\n      swap1\n      dup3\n      add\n      swap1\n        /* \"#utility.yul\":7576:7577   */\n      0x01\n        /* \"#utility.yul\":7479:7488   */\n      add\n        /* \"#utility.yul\":7450:7846   */\n      jump(tag_600)\n        /* \"#utility.yul\":7876:9419   */\n    tag_101:\n        /* \"#utility.yul\":8061:8063   */\n      0x20\n        /* \"#utility.yul\":8050:8059   */\n      dup2\n        /* \"#utility.yul\":8043:8064   */\n      mstore\n        /* \"#utility.yul\":8073:8126   */\n      tag_604\n        /* \"#utility.yul\":8122:8124   */\n      0x20\n        /* \"#utility.yul\":8111:8120   */\n      dup3\n        /* \"#utility.yul\":8107:8125   */\n      add\n        /* \"#utility.yul\":8098:8104   */\n      dup4\n        /* \"#utility.yul\":8092:8105   */\n      mload\n      sub(shl(0xa0, 0x01), 0x01)\n        /* \"#utility.yul\":743:774   */\n      and\n        /* \"#utility.yul\":731:775   */\n      swap1\n      mstore\n        /* \"#utility.yul\":677:781   */\n      jump\n        /* \"#utility.yul\":8073:8126   */\n    tag_604:\n        /* \"#utility.yul\":8180:8182   */\n      0x20\n        /* \"#utility.yul\":8172:8178   */\n      dup3\n        /* \"#utility.yul\":8168:8183   */\n      add\n        /* \"#utility.yul\":8162:8184   */\n      mload\n        /* \"#utility.yul\":8157:8159   */\n      0x40\n        /* \"#utility.yul\":8146:8155   */\n      dup3\n        /* \"#utility.yul\":8142:8160   */\n      add\n        /* \"#utility.yul\":8135:8185   */\n      mstore\n        /* \"#utility.yul\":8239:8241   */\n      0x40\n        /* \"#utility.yul\":8231:8237   */\n      dup3\n        /* \"#utility.yul\":8227:8242   */\n      add\n        /* \"#utility.yul\":8221:8243   */\n      mload\n        /* \"#utility.yul\":8216:8218   */\n      0x60\n        /* \"#utility.yul\":8205:8214   */\n      dup3\n        /* \"#utility.yul\":8201:8219   */\n      add\n        /* \"#utility.yul\":8194:8244   */\n      mstore\n        /* \"#utility.yul\":8024:8028   */\n      0x00\n        /* \"#utility.yul\":8291:8293   */\n      0x60\n        /* \"#utility.yul\":8283:8289   */\n      dup4\n        /* \"#utility.yul\":8279:8294   */\n      add\n        /* \"#utility.yul\":8273:8295   */\n      mload\n        /* \"#utility.yul\":8304:8354   */\n      tag_605\n        /* \"#utility.yul\":8349:8352   */\n      0x80\n        /* \"#utility.yul\":8338:8347   */\n      dup5\n        /* \"#utility.yul\":8334:8353   */\n      add\n        /* \"#utility.yul\":8320:8332   */\n      dup3\n        /* \"#utility.yul\":5685:5698   */\n      iszero\n        /* \"#utility.yul\":5678:5699   */\n      iszero\n        /* \"#utility.yul\":5666:5700   */\n      swap1\n      mstore\n        /* \"#utility.yul\":5615:5706   */\n      jump\n        /* \"#utility.yul\":8304:8354   */\n    tag_605:\n      pop\n        /* \"#utility.yul\":8403:8406   */\n      0x80\n        /* \"#utility.yul\":8391:8407   */\n      dup4\n      add\n        /* \"#utility.yul\":8385:8408   */\n      mload\n        /* \"#utility.yul\":5685:5698   */\n      dup1\n      iszero\n        /* \"#utility.yul\":5678:5699   */\n      iszero\n        /* \"#utility.yul\":8464:8467   */\n      0xa0\n        /* \"#utility.yul\":8449:8468   */\n      dup5\n      add\n        /* \"#utility.yul\":5666:5700   */\n      mstore\n        /* \"#utility.yul\":8417:8469   */\n      pop\n        /* \"#utility.yul\":8524:8527   */\n      0xa0\n        /* \"#utility.yul\":8516:8522   */\n      dup4\n        /* \"#utility.yul\":8512:8528   */\n      add\n        /* \"#utility.yul\":8506:8529   */\n      mload\n        /* \"#utility.yul\":8500:8503   */\n      0xc0\n        /* \"#utility.yul\":8489:8498   */\n      dup4\n        /* \"#utility.yul\":8485:8504   */\n      add\n        /* \"#utility.yul\":8478:8530   */\n      mstore\n        /* \"#utility.yul\":8579:8582   */\n      0xc0\n        /* \"#utility.yul\":8571:8577   */\n      dup4\n        /* \"#utility.yul\":8567:8583   */\n      add\n        /* \"#utility.yul\":8561:8584   */\n      mload\n        /* \"#utility.yul\":8603:8609   */\n      0x0140\n        /* \"#utility.yul\":8646:8648   */\n      dup1\n        /* \"#utility.yul\":8640:8643   */\n      0xe0\n        /* \"#utility.yul\":8629:8638   */\n      dup6\n        /* \"#utility.yul\":8625:8644   */\n      add\n        /* \"#utility.yul\":8618:8649   */\n      mstore\n        /* \"#utility.yul\":8672:8737   */\n      tag_607\n        /* \"#utility.yul\":8732:8735   */\n      0x0160\n        /* \"#utility.yul\":8721:8730   */\n      dup6\n        /* \"#utility.yul\":8717:8736   */\n      add\n        /* \"#utility.yul\":8701:8715   */\n      dup4\n        /* \"#utility.yul\":8672:8737   */\n      tag_529\n      jump\t// in\n    tag_607:\n        /* \"#utility.yul\":8658:8737   */\n      swap2\n      pop\n        /* \"#utility.yul\":8786:8789   */\n      0xe0\n        /* \"#utility.yul\":8778:8784   */\n      dup6\n        /* \"#utility.yul\":8774:8790   */\n      add\n        /* \"#utility.yul\":8768:8791   */\n      mload\n        /* \"#utility.yul\":8814:8816   */\n      0x1f\n        /* \"#utility.yul\":8810:8817   */\n      not\n        /* \"#utility.yul\":8836:8839   */\n      0x0100\n        /* \"#utility.yul\":8903:8905   */\n      dup2\n        /* \"#utility.yul\":8891:8900   */\n      dup8\n        /* \"#utility.yul\":8883:8889   */\n      dup7\n        /* \"#utility.yul\":8879:8901   */\n      sub\n        /* \"#utility.yul\":8875:8906   */\n      add\n        /* \"#utility.yul\":8870:8872   */\n      dup2\n        /* \"#utility.yul\":8859:8868   */\n      dup9\n        /* \"#utility.yul\":8855:8873   */\n      add\n        /* \"#utility.yul\":8848:8907   */\n      mstore\n        /* \"#utility.yul\":8930:8982   */\n      tag_608\n        /* \"#utility.yul\":8975:8981   */\n      dup6\n        /* \"#utility.yul\":8959:8973   */\n      dup5\n        /* \"#utility.yul\":8930:8982   */\n      tag_530\n      jump\t// in\n    tag_608:\n        /* \"#utility.yul\":8916:8982   */\n      swap5\n      pop\n        /* \"#utility.yul\":9031:9033   */\n      dup1\n        /* \"#utility.yul\":9023:9029   */\n      dup9\n        /* \"#utility.yul\":9019:9034   */\n      add\n        /* \"#utility.yul\":9013:9035   */\n      mload\n        /* \"#utility.yul\":8991:9035   */\n      swap3\n      pop\n      pop\n        /* \"#utility.yul\":9054:9057   */\n      0x0120\n        /* \"#utility.yul\":9121:9123   */\n      dup2\n        /* \"#utility.yul\":9109:9118   */\n      dup8\n        /* \"#utility.yul\":9101:9107   */\n      dup7\n        /* \"#utility.yul\":9097:9119   */\n      sub\n        /* \"#utility.yul\":9093:9124   */\n      add\n        /* \"#utility.yul\":9088:9090   */\n      dup2\n        /* \"#utility.yul\":9077:9086   */\n      dup9\n        /* \"#utility.yul\":9073:9091   */\n      add\n        /* \"#utility.yul\":9066:9125   */\n      mstore\n        /* \"#utility.yul\":9148:9211   */\n      tag_609\n        /* \"#utility.yul\":9204:9210   */\n      dup6\n        /* \"#utility.yul\":9188:9202   */\n      dup5\n        /* \"#utility.yul\":9148:9211   */\n      tag_531\n      jump\t// in\n    tag_609:\n        /* \"#utility.yul\":9248:9263   */\n      swap1\n      dup9\n      add\n        /* \"#utility.yul\":9242:9264   */\n      mload\n        /* \"#utility.yul\":9304:9326   */\n      dup8\n      dup3\n      sub\n        /* \"#utility.yul\":9300:9331   */\n      swap1\n      swap3\n      add\n        /* \"#utility.yul\":9280:9298   */\n      dup5\n      dup9\n      add\n        /* \"#utility.yul\":9273:9332   */\n      mstore\n        /* \"#utility.yul\":9134:9211   */\n      swap4\n      pop\n        /* \"#utility.yul\":9242:9264   */\n      swap1\n      pop\n        /* \"#utility.yul\":9349:9413   */\n      tag_610\n        /* \"#utility.yul\":9134:9211   */\n      dup4\n        /* \"#utility.yul\":9242:9264   */\n      dup3\n        /* \"#utility.yul\":9349:9413   */\n      tag_532\n      jump\t// in\n    tag_610:\n        /* \"#utility.yul\":9341:9413   */\n      swap7\n        /* \"#utility.yul\":7876:9419   */\n      swap6\n      pop\n      pop\n      pop\n      pop\n      pop\n      pop\n      jump\t// out\n        /* \"#utility.yul\":10011:10197   */\n    tag_116:\n        /* \"#utility.yul\":10070:10076   */\n      0x00\n        /* \"#utility.yul\":10123:10125   */\n      0x20\n        /* \"#utility.yul\":10111:10120   */\n      dup3\n        /* \"#utility.yul\":10102:10109   */\n      dup5\n        /* \"#utility.yul\":10098:10121   */\n      sub\n        /* \"#utility.yul\":10094:10126   */\n      slt\n        /* \"#utility.yul\":10091:10143   */\n      iszero\n      tag_614\n      jumpi\n        /* \"#utility.yul\":10139:10140   */\n      0x00\n        /* \"#utility.yul\":10136:10137   */\n      dup1\n        /* \"#utility.yul\":10129:10141   */\n      revert\n        /* \"#utility.yul\":10091:10143   */\n    tag_614:\n        /* \"#utility.yul\":10162:10191   */\n      tag_615\n        /* \"#utility.yul\":10181:10190   */\n      dup3\n        /* \"#utility.yul\":10162:10191   */\n      tag_524\n      jump\t// in\n    tag_615:\n        /* \"#utility.yul\":10152:10191   */\n      swap4\n        /* \"#utility.yul\":10011:10197   */\n      swap3\n      pop\n      pop\n      pop\n      jump\t// out\n        /* \"#utility.yul\":10202:10601   */\n    tag_133:\n        /* \"#utility.yul\":10404:10406   */\n      0x20\n        /* \"#utility.yul\":10386:10407   */\n      dup1\n      dup3\n      mstore\n        /* \"#utility.yul\":10443:10445   */\n      0x23\n        /* \"#utility.yul\":10423:10441   */\n      swap1\n      dup3\n      add\n        /* \"#utility.yul\":10416:10446   */\n      mstore\n        /* \"#utility.yul\":10482:10516   */\n      0x57696c6c3a20496e76616c696420737461746520666f72207468697320616374\n        /* \"#utility.yul\":10477:10479   */\n      0x40\n        /* \"#utility.yul\":10462:10480   */\n      dup3\n      add\n        /* \"#utility.yul\":10455:10517   */\n      mstore\n      shl(0xe9, 0x34b7b7)\n        /* \"#utility.yul\":10548:10550   */\n      0x60\n        /* \"#utility.yul\":10533:10551   */\n      dup3\n      add\n        /* \"#utility.yul\":10526:10559   */\n      mstore\n        /* \"#utility.yul\":10591:10594   */\n      0x80\n        /* \"#utility.yul\":10576:10595   */\n      add\n      swap1\n        /* \"#utility.yul\":10202:10601   */\n      jump\t// out\n        /* \"#utility.yul\":10606:10733   */\n    tag_166:\n        /* \"#utility.yul\":10667:10677   */\n      0x4e487b71\n        /* \"#utility.yul\":10662:10665   */\n      0xe0\n        /* \"#utility.yul\":10658:10678   */\n      shl\n        /* \"#utility.yul\":10655:10656   */\n      0x00\n        /* \"#utility.yul\":10648:10679   */\n      mstore\n        /* \"#utility.yul\":10698:10702   */\n      0x32\n        /* \"#utility.yul\":10695:10696   */\n      0x04\n        /* \"#utility.yul\":10688:10703   */\n      mstore\n        /* \"#utility.yul\":10722:10726   */\n      0x24\n        /* \"#utility.yul\":10719:10720   */\n      0x00\n        /* \"#utility.yul\":10712:10727   */\n      revert\n        /* \"#utility.yul\":10738:11113   */\n    tag_174:\n      sub(shl(0xa0, 0x01), 0x01)\n        /* \"#utility.yul\":10996:11011   */\n      swap4\n      dup5\n      and\n        /* \"#utility.yul\":10978:11012   */\n      dup2\n      mstore\n        /* \"#utility.yul\":11048:11063   */\n      swap2\n      swap1\n      swap3\n      and\n        /* \"#utility.yul\":11043:11045   */\n      0x20\n        /* \"#utility.yul\":11028:11046   */\n      dup3\n      add\n        /* \"#utility.yul\":11021:11064   */\n      mstore\n        /* \"#utility.yul\":11095:11097   */\n      0x40\n        /* \"#utility.yul\":11080:11098   */\n      dup2\n      add\n        /* \"#utility.yul\":11073:11107   */\n      swap2\n      swap1\n      swap2\n      mstore\n        /* \"#utility.yul\":10928:10930   */\n      0x60\n        /* \"#utility.yul\":10913:10931   */\n      add\n      swap1\n        /* \"#utility.yul\":10738:11113   */\n      jump\t// out\n        /* \"#utility.yul\":11118:11395   */\n    tag_178:\n        /* \"#utility.yul\":11185:11191   */\n      0x00\n        /* \"#utility.yul\":11238:11240   */\n      0x20\n        /* \"#utility.yul\":11226:11235   */\n      dup3\n        /* \"#utility.yul\":11217:11224   */\n      dup5\n        /* \"#utility.yul\":11213:11236   */\n      sub\n        /* \"#utility.yul\":11209:11241   */\n      slt\n        /* \"#utility.yul\":11206:11258   */\n      iszero\n      tag_620\n      jumpi\n        /* \"#utility.yul\":11254:11255   */\n      0x00\n        /* \"#utility.yul\":11251:11252   */\n      dup1\n        /* \"#utility.yul\":11244:11256   */\n      revert\n        /* \"#utility.yul\":11206:11258   */\n    tag_620:\n        /* \"#utility.yul\":11286:11295   */\n      dup2\n        /* \"#utility.yul\":11280:11296   */\n      mload\n        /* \"#utility.yul\":11339:11344   */\n      dup1\n        /* \"#utility.yul\":11332:11345   */\n      iszero\n        /* \"#utility.yul\":11325:11346   */\n      iszero\n        /* \"#utility.yul\":11318:11323   */\n      dup2\n        /* \"#utility.yul\":11315:11347   */\n      eq\n        /* \"#utility.yul\":11305:11365   */\n      tag_615\n      jumpi\n        /* \"#utility.yul\":11361:11362   */\n      0x00\n        /* \"#utility.yul\":11358:11359   */\n      dup1\n        /* \"#utility.yul\":11351:11363   */\n      revert\n        /* \"#utility.yul\":11400:11527   */\n    tag_533:\n        /* \"#utility.yul\":11461:11471   */\n      0x4e487b71\n        /* \"#utility.yul\":11456:11459   */\n      0xe0\n        /* \"#utility.yul\":11452:11472   */\n      shl\n        /* \"#utility.yul\":11449:11450   */\n      0x00\n        /* \"#utility.yul\":11442:11473   */\n      mstore\n        /* \"#utility.yul\":11492:11496   */\n      0x11\n        /* \"#utility.yul\":11489:11490   */\n      0x04\n        /* \"#utility.yul\":11482:11497   */\n      mstore\n        /* \"#utility.yul\":11516:11520   */\n      0x24\n        /* \"#utility.yul\":11513:11514   */\n      0x00\n        /* \"#utility.yul\":11506:11521   */\n      revert\n        /* \"#utility.yul\":11532:11657   */\n    tag_218:\n        /* \"#utility.yul\":11597:11606   */\n      dup1\n      dup3\n      add\n        /* \"#utility.yul\":11618:11628   */\n      dup1\n      dup3\n      gt\n        /* \"#utility.yul\":11615:11651   */\n      iszero\n      tag_625\n      jumpi\n        /* \"#utility.yul\":11631:11649   */\n      tag_625\n      tag_533\n      jump\t// in\n    tag_625:\n        /* \"#utility.yul\":11532:11657   */\n      swap3\n      swap2\n      pop\n      pop\n      jump\t// out\n        /* \"#utility.yul\":12424:12592   */\n    tag_233:\n        /* \"#utility.yul\":12497:12506   */\n      dup1\n      dup3\n      mul\n        /* \"#utility.yul\":12528:12537   */\n      dup2\n      iszero\n        /* \"#utility.yul\":12545:12560   */\n      dup3\n      dup3\n      div\n        /* \"#utility.yul\":12539:12561   */\n      dup5\n      eq\n        /* \"#utility.yul\":12525:12562   */\n      or\n        /* \"#utility.yul\":12515:12586   */\n      tag_625\n      jumpi\n        /* \"#utility.yul\":12566:12584   */\n      tag_625\n      tag_533\n      jump\t// in\n        /* \"#utility.yul\":12597:12814   */\n    tag_235:\n        /* \"#utility.yul\":12637:12638   */\n      0x00\n        /* \"#utility.yul\":12663:12664   */\n      dup3\n        /* \"#utility.yul\":12653:12785   */\n      tag_632\n      jumpi\n        /* \"#utility.yul\":12707:12717   */\n      0x4e487b71\n        /* \"#utility.yul\":12702:12705   */\n      0xe0\n        /* \"#utility.yul\":12698:12718   */\n      shl\n        /* \"#utility.yul\":12695:12696   */\n      0x00\n        /* \"#utility.yul\":12688:12719   */\n      mstore\n        /* \"#utility.yul\":12742:12746   */\n      0x12\n        /* \"#utility.yul\":12739:12740   */\n      0x04\n        /* \"#utility.yul\":12732:12747   */\n      mstore\n        /* \"#utility.yul\":12770:12774   */\n      0x24\n        /* \"#utility.yul\":12767:12768   */\n      0x00\n        /* \"#utility.yul\":12760:12775   */\n      revert\n        /* \"#utility.yul\":12653:12785   */\n    tag_632:\n      pop\n        /* \"#utility.yul\":12799:12808   */\n      div\n      swap1\n        /* \"#utility.yul\":12597:12814   */\n      jump\t// out\n        /* \"#utility.yul\":12819:12947   */\n    tag_237:\n        /* \"#utility.yul\":12886:12895   */\n      dup2\n      dup2\n      sub\n        /* \"#utility.yul\":12907:12918   */\n      dup2\n      dup2\n      gt\n        /* \"#utility.yul\":12904:12941   */\n      iszero\n      tag_625\n      jumpi\n        /* \"#utility.yul\":12921:12939   */\n      tag_625\n      tag_533\n      jump\t// in\n        /* \"#utility.yul\":13870:14054   */\n    tag_276:\n        /* \"#utility.yul\":13940:13946   */\n      0x00\n        /* \"#utility.yul\":13993:13995   */\n      0x20\n        /* \"#utility.yul\":13981:13990   */\n      dup3\n        /* \"#utility.yul\":13972:13979   */\n      dup5\n        /* \"#utility.yul\":13968:13991   */\n      sub\n        /* \"#utility.yul\":13964:13996   */\n      slt\n        /* \"#utility.yul\":13961:14013   */\n      iszero\n      tag_640\n      jumpi\n        /* \"#utility.yul\":14009:14010   */\n      0x00\n        /* \"#utility.yul\":14006:14007   */\n      dup1\n        /* \"#utility.yul\":13999:14011   */\n      revert\n        /* \"#utility.yul\":13961:14013   */\n    tag_640:\n      pop\n        /* \"#utility.yul\":14032:14048   */\n      mload\n      swap2\n        /* \"#utility.yul\":13870:14054   */\n      swap1\n      pop\n      jump\t// out\n\n    auxdata: 0xa2646970667358221220219a0264aa261c65d5fe94aa94d3df119ee5f4c0f7c122ff15ac43a18ffc510e64736f6c63430008180033\n}\n",
				"bytecode": {
					"linkReferences": {},
					"object": "60e06040526040516200240b3803806200240b8339810160408190526200002691620000f9565b836001600160a01b0381166200005557604051631e4fbdf760e01b81525f600482015260240160405180910390fd5b62000060816200008e565b50600180556001600160a01b0392831660805290151560a0521660c052506002805460ff1916905562000158565b5f80546001600160a01b038381166001600160a01b0319831681178455604051919092169283917f8be0079c531659141344cd1fd0a4f28419497f9722a3daafe3b4186f6b6457e09190a35050565b80516001600160a01b0381168114620000f4575f80fd5b919050565b5f805f80608085870312156200010d575f80fd5b6200011885620000dd565b93506200012860208601620000dd565b9250604085015180151581146200013d575f80fd5b91506200014d60608601620000dd565b905092959194509250565b60805160a05160c051612265620001a65f395f81816102fd01526108a101525f81816103af01526113a901525f81816102ca0152818161093801528181610eee015261100f01526122655ff3fe608060405260043610610126575f3560e01c806375d33fa1116100a8578063a8e9a5391161006d578063a8e9a539146102ec578063c04637111461031f578063cc4f9d5b14610334578063e15724a514610355578063eed35fea1461039e578063f2fde38b146103e1575f80fd5b806375d33fa11461024a5780638da5cb5b146102695780639379f51714610285578063947a36fb146102a4578063a444ae41146102b9575f80fd5b806355952bef116100ee57806355952bef146101e75780635c36b186146101fa578063614619541461020e5780636b892b2214610222578063715018a614610236575f80fd5b80630c3f6acf1461012a5780631c0795c3146101595780631f99966a146101905780632395d975146101bd5780633027439c146101d1575b5f80fd5b348015610135575f80fd5b506002546101439060ff1681565b6040516101509190611c38565b60405180910390f35b348015610164575f80fd5b50610178610173366004611c5e565b610400565b6040516001600160a01b039091168152602001610150565b34801561019b575f80fd5b506101af6101aa366004611c5e565b610428565b604051908152602001610150565b3480156101c8575f80fd5b506101af603281565b3480156101dc575f80fd5b506101e5610447565b005b6101e56101f5366004611ded565b61051b565b348015610205575f80fd5b506101e561075c565b348015610219575f80fd5b506101e56107d7565b34801561022d575f80fd5b506101e5610e98565b348015610241575f80fd5b506101e5610fbb565b348015610255575f80fd5b506101e5610264366004611ded565b610fce565b348015610274575f80fd5b505f546001600160a01b0316610178565b348015610290575f80fd5b5061017861029f366004611c5e565b61108f565b3480156102af575f80fd5b506101af60045481565b3480156102c4575f80fd5b506101787f000000000000000000000000000000000000000000000000000000000000000081565b3480156102f7575f80fd5b506101787f000000000000000000000000000000000000000000000000000000000000000081565b34801561032a575f80fd5b506101af60035481565b34801561033f575f80fd5b5061034861109e565b604051610150919061200c565b348015610360575f80fd5b5061037461036f366004611c5e565b611498565b604080516001600160a01b0394851681526020810193909352921691810191909152606001610150565b3480156103a9575f80fd5b506103d17f000000000000000000000000000000000000000000000000000000000000000081565b6040519015158152602001610150565b3480156103ec575f80fd5b506101e56103fb3660046120e8565b6114d4565b6005818154811061040f575f80fd5b5f918252602090912001546001600160a01b0316905081565b60068181548110610437575f80fd5b5f91825260209091200154905081565b61044f611511565b6001806002805460ff169081111561046957610469611c24565b1461048f5760405162461bcd60e51b815260040161048690612108565b60405180910390fd5b61049761153d565b60026001556104a4611560565b6104af60055f611acf565b6104ba60065f611acf565b6104c560075f611aea565b6104d060085f611b05565b5f60048190556002805460ff1916905580546040516001600160a01b03909116917f5af2b6dcdccc1dd52ee38632afee0bc3ac6def619ed4132f2f9a40ff48ec74f291a25060018055565b610523611511565b5f806002805460ff169081111561053c5761053c611c24565b146105595760405162461bcd60e51b815260040161048690612108565b60048890555f5b84811015610647575f86868381811061057b5761057b61214b565b90506040020160200135111561063f5785858281811061059d5761059d61214b565b6105b392602060409092020190810191506120e8565b6001600160a01b03166323b872dd33308989868181106105d5576105d561214b565b905060400201602001356040518463ffffffff1660e01b81526004016105fd9392919061215f565b6020604051808303815f875af1158015610619573d5f803e3d5ffd5b505050506040513d601f19601f8201168201806040525081019061063d9190612183565b505b600101610560565b505f5b828110156106fd578383828181106106645761066461214b565b61067a92602060609092020190810191506120e8565b6001600160a01b03166323b872dd333087878681811061069c5761069c61214b565b905060600201602001356040518463ffffffff1660e01b81526004016106c49392919061215f565b5f604051808303815f87803b1580156106db575f80fd5b505af11580156106ed573d5f803e3d5ffd5b50506001909201915061064a9050565b5061070c8787878787876117ec565b6002805460ff19166001179055426003555f80546040516001600160a01b03909116917fbbf74fb4e3c300bf9f00e1603668149fd64853bfcd5f194270d2b043d9bdbc6191a25050505050505050565b610764611511565b6001806002805460ff169081111561077e5761077e611c24565b1461079b5760405162461bcd60e51b815260040161048690612108565b4260038190556040519081527f48257dc961b6f792c2b78a080dacfed693b660960a702de21cee364e20270e2f9060200160405180910390a150565b6001806002805460ff16908111156107f1576107f1611c24565b1461080e5760405162461bcd60e51b815260040161048690612108565b61081661153d565b60026001556004546003545f9161082c916121b6565b90508042101561087e5760405162461bcd60e51b815260206004820152601b60248201527f477261636520706572696f6420686173206e6f7420656e6465642e00000000006044820152606401610486565b5f61088c62015180836121b6565b90508042101561091c57336001600160a01b037f0000000000000000000000000000000000000000000000000000000000000000161461091c5760405162461bcd60e51b815260206004820152602560248201527f4f6e6c792064657369676e61746564206578656375746f722063616e2063616c6044820152646c206e6f7760d81b6064820152608401610486565b6002805460ff1916811790555f4282116109365733610958565b7f00000000000000000000000000000000000000000000000000000000000000005b90505f478015610b46575f6127106109716032846121cf565b61097b91906121e6565b92508290505f61098b8284612205565b90508115610a34575f856001600160a01b0316836040515f6040518083038185875af1925050503d805f81146109dc576040519150601f19603f3d011682016040523d82523d5f602084013e6109e1565b606091505b5050905080610a325760405162461bcd60e51b815260206004820152601760248201527f45544820666565207472616e73666572206661696c65640000000000000000006044820152606401610486565b505b5f5b600554811015610b42575f606460068381548110610a5657610a5661214b565b905f5260205f20015484610a6a91906121cf565b610a7491906121e6565b90508015610b39575f60058381548110610a9057610a9061214b565b5f9182526020822001546040516001600160a01b039091169184919081818185875af1925050503d805f8114610ae1576040519150601f19603f3d011682016040523d82523d5f602084013e610ae6565b606091505b5050905080610b375760405162461bcd60e51b815260206004820152601b60248201527f455448207472616e7366657220746f2068656972206661696c656400000000006044820152606401610486565b505b50600101610a36565b5050505b5f5b600754811015610d7e575f60078281548110610b6657610b6661214b565b5f9182526020822001546040516370a0823160e01b81523060048201526001600160a01b03909116925082906370a0823190602401602060405180830381865afa158015610bb6573d5f803e3d5ffd5b505050506040513d601f19601f82011682018060405250810190610bda9190612218565b90508015610d74575f612710610bf16032846121cf565b610bfb91906121e6565b90505f610c088284612205565b90508115610c825760405163a9059cbb60e01b81526001600160a01b0389811660048301526024820184905285169063a9059cbb906044016020604051808303815f875af1158015610c5c573d5f803e3d5ffd5b505050506040513d601f19601f82011682018060405250810190610c809190612183565b505b5f5b600554811015610d70575f606460068381548110610ca457610ca461214b565b905f5260205f20015484610cb891906121cf565b610cc291906121e6565b90508015610d6757856001600160a01b031663a9059cbb60058481548110610cec57610cec61214b565b5f9182526020909120015460405160e083901b6001600160e01b03191681526001600160a01b039091166004820152602481018490526044016020604051808303815f875af1158015610d41573d5f803e3d5ffd5b505050506040513d601f19601f82011682018060405250810190610d659190612183565b505b50600101610c84565b5050505b5050600101610b48565b505f5b600854811015610e43575f60088281548110610d9f57610d9f61214b565b5f91825260209182902060408051606081018252600390930290910180546001600160a01b039081168085526001830154958501869052600290920154168383018190529151632142170760e11b8152929450926342842e0e92610e09923092909160040161215f565b5f604051808303815f87803b158015610e20575f80fd5b505af1158015610e32573d5f803e3d5ffd5b505060019093019250610d81915050565b5060408051338152602081018490526001600160a01b0385168183015290517f52ba16c8b985eff690a9de92094bd7486f89340e06e385ffb26de9c6eea384dc9181900360600190a150506001805550505050565b610ea0611511565b6001806002805460ff1690811115610eba57610eba611c24565b14610ed75760405162461bcd60e51b815260040161048690612108565b610edf61153d565b6002600155610eec611560565b7f00000000000000000000000000000000000000000000000000000000000000006001600160a01b031663a658dd6b610f2c5f546001600160a01b031690565b6040516001600160e01b031960e084901b1681526001600160a01b0390911660048201526024015f604051808303815f87803b158015610f6a575f80fd5b505af1158015610f7c573d5f803e3d5ffd5b50506002805460ff19168117905550506040517f63b958841f79ab97cb5456da181454b9932c0e15a3b17f1cbd27e2a8bc610437905f90a15060018055565b610fc3611511565b610fcc5f611a80565b565b5f806002805460ff1690811115610fe757610fe7611c24565b146110045760405162461bcd60e51b815260040161048690612108565b336001600160a01b037f0000000000000000000000000000000000000000000000000000000000000000161461107c5760405162461bcd60e51b815260206004820152601f60248201527f57696c6c3a204e6f7420617574686f72697a656420627920666163746f7279006044820152606401610486565b600488905561070c8787878787876117ec565b6007818154811061040f575f80fd5b6110fb6040518061014001604052805f6001600160a01b031681526020015f81526020015f81526020015f151581526020015f151581526020015f8152602001606081526020016060815260200160608152602001606081525090565b6007545f9067ffffffffffffffff81111561111857611118611c75565b60405190808252806020026020018201604052801561115c57816020015b604080518082019091525f80825260208201528152602001906001900390816111365790505b5090505f5b60075481101561122f575f6007828154811061117f5761117f61214b565b5f91825260209182902001546040805180820182526001600160a01b0390921680835290516370a0823160e01b8152306004820152909350909182019083906370a0823190602401602060405180830381865afa1580156111e2573d5f803e3d5ffd5b505050506040513d601f19601f820116820180604052508101906112069190612218565b81525083838151811061121b5761121b61214b565b602090810291909101015250600101611161565b506008545f9067ffffffffffffffff81111561124d5761124d611c75565b60405190808252806020026020018201604052801561129657816020015b604080516060810182525f80825260208083018290529282015282525f1990920191018161126b5790505b5090505f5b60085481101561134b575f600882815481106112b9576112b961214b565b5f9182526020918290206040805160608082018352600390940290920180546001600160a01b039081168452600182015484870190815260029092015481168484019081528351958601845284518216865291519585019590955251909316928201929092528451919250908490849081106113375761133761214b565b60209081029190910101525060010161129b565b506040518061014001604052806113695f546001600160a01b031690565b6001600160a01b0316815260045460208201526003546040820152606001600280805460ff169081111561139f5761139f611c24565b14151581526020017f000000000000000000000000000000000000000000000000000000000000000015158152602001478152602001600580548060200260200160405190810160405280929190818152602001828054801561142957602002820191905f5260205f20905b81546001600160a01b0316815260019091019060200180831161140b575b50505050508152602001600680548060200260200160405190810160405280929190818152602001828054801561147d57602002820191905f5260205f20905b815481526020019060010190808311611469575b50505050508152602001838152602001828152509250505090565b600881815481106114a7575f80fd5b5f9182526020909120600390910201805460018201546002909201546001600160a01b0391821693501683565b6114dc611511565b6001600160a01b03811661150557604051631e4fbdf760e01b81525f6004820152602401610486565b61150e81611a80565b50565b5f546001600160a01b03163314610fcc5760405163118cdaa760e01b8152336004820152602401610486565b600260015403610fcc57604051633ee5aeb560e01b815260040160405180910390fd5b5f80546001600160a01b0316905b600754811015611684575f6007828154811061158c5761158c61214b565b5f9182526020822001546040516370a0823160e01b81523060048201526001600160a01b03909116925082906370a0823190602401602060405180830381865afa1580156115dc573d5f803e3d5ffd5b505050506040513d601f19601f820116820180604052508101906116009190612218565b9050801561167a5760405163a9059cbb60e01b81526001600160a01b0385811660048301526024820183905283169063a9059cbb906044016020604051808303815f875af1158015611654573d5f803e3d5ffd5b505050506040513d601f19601f820116820180604052508101906116789190612183565b505b505060010161156e565b505f5b600854811015611748575f600882815481106116a5576116a561214b565b5f91825260209182902060408051606081018252600390930290910180546001600160a01b03908116808552600183015495850186905260029092015416838301529051632142170760e11b8152919350916342842e0e9161170e91309188919060040161215f565b5f604051808303815f87803b158015611725575f80fd5b505af1158015611737573d5f803e3d5ffd5b505060019093019250611687915050565b504780156117e8575f826001600160a01b0316826040515f6040518083038185875af1925050503d805f8114611799576040519150601f19603f3d011682016040523d82523d5f602084013e61179e565b606091505b50509050806117e65760405162461bcd60e51b815260206004820152601460248201527322aa24103a3930b739b332b9103330b4b632b21760611b6044820152606401610486565b505b5050565b845186511461183d5760405162461bcd60e51b815260206004820152601c60248201527f48656972732f646973747269627574696f6e73206d69736d61746368000000006044820152606401610486565b8551156118d2575f805b865181101561187f578681815181106118625761186261214b565b60200260200101518261187591906121b6565b9150600101611847565b50806064146118d05760405162461bcd60e51b815260206004820152601c60248201527f446973747269627574696f6e206d7573742073756d20746f20313030000000006044820152606401610486565b505b85516118e5906005906020890190611b23565b5084516118f9906006906020880190611b86565b505f5b8381101561197957600760405180602001604052808787858181106119235761192361214b565b61193992602060409092020190810191506120e8565b6001600160a01b039081169091528254600180820185555f94855260209094209251920180546001600160a01b03191692909116919091179055016118fc565b505f5b81811015611a7757600860405180606001604052808585858181106119a3576119a361214b565b6119b992602060609092020190810191506120e8565b6001600160a01b031681526020018585858181106119d9576119d961214b565b9050606002016020013581526020018585858181106119fa576119fa61214b565b9050606002016040016020810190611a1291906120e8565b6001600160a01b039081169091528254600181810185555f948552602094859020845160039093020180549284166001600160a01b0319938416178155948401518582015560409093015160029094018054949092169316929092179091550161197c565b50505050505050565b5f80546001600160a01b038381166001600160a01b0319831681178455604051919092169283917f8be0079c531659141344cd1fd0a4f28419497f9722a3daafe3b4186f6b6457e09190a35050565b5080545f8255905f5260205f209081019061150e9190611bbf565b5080545f8255905f5260205f209081019061150e9190611bd3565b5080545f8255600302905f5260205f209081019061150e9190611bf2565b828054828255905f5260205f20908101928215611b76579160200282015b82811115611b7657825182546001600160a01b0319166001600160a01b03909116178255602090920191600190910190611b41565b50611b82929150611bbf565b5090565b828054828255905f5260205f20908101928215611b76579160200282015b82811115611b76578251825591602001919060010190611ba4565b5b80821115611b82575f8155600101611bc0565b5b80821115611b825780546001600160a01b0319168155600101611bd4565b5b80821115611b825780546001600160a01b031990811682555f60018301556002820180549091169055600301611bf3565b634e487b7160e01b5f52602160045260245ffd5b6020810160038310611c5857634e487b7160e01b5f52602160045260245ffd5b91905290565b5f60208284031215611c6e575f80fd5b5035919050565b634e487b7160e01b5f52604160045260245ffd5b604051601f8201601f1916810167ffffffffffffffff81118282101715611cb257611cb2611c75565b604052919050565b5f67ffffffffffffffff821115611cd357611cd3611c75565b5060051b60200190565b80356001600160a01b0381168114611cf3575f80fd5b919050565b5f82601f830112611d07575f80fd5b81356020611d1c611d1783611cba565b611c89565b8083825260208201915060208460051b870101935086841115611d3d575f80fd5b602086015b84811015611d595780358352918301918301611d42565b509695505050505050565b5f8083601f840112611d74575f80fd5b50813567ffffffffffffffff811115611d8b575f80fd5b6020830191508360208260061b8501011115611da5575f80fd5b9250929050565b5f8083601f840112611dbc575f80fd5b50813567ffffffffffffffff811115611dd3575f80fd5b602083019150836020606083028501011115611da5575f80fd5b5f805f805f805f60a0888a031215611e03575f80fd5b8735965060208089013567ffffffffffffffff80821115611e22575f80fd5b818b0191508b601f830112611e35575f80fd5b8135611e43611d1782611cba565b81815260059190911b8301840190848101908e831115611e61575f80fd5b938501935b82851015611e8657611e7785611cdd565b82529385019390850190611e66565b9a50505060408b0135925080831115611e9d575f80fd5b611ea98c848d01611cf8565b975060608b0135925080831115611ebe575f80fd5b611eca8c848d01611d64565b909750955060808b0135925086915080831115611ee5575f80fd5b5050611ef38a828b01611dac565b989b979a50959850939692959293505050565b5f815180845260208085019450602084015f5b83811015611f3e5781516001600160a01b031687529582019590820190600101611f19565b509495945050505050565b5f815180845260208085019450602084015f5b83811015611f3e57815187529582019590820190600101611f5c565b5f815180845260208085019450602084015f5b83811015611f3e57815180516001600160a01b031688528301518388015260409096019590820190600101611f8b565b5f815180845260208085019450602084015f5b83811015611f3e57815180516001600160a01b03908116895284820151858a0152604091820151169088015260609096019590820190600101611fce565b602081526120266020820183516001600160a01b03169052565b60208201516040820152604082015160608201525f606083015161204e608084018215159052565b50608083015180151560a08401525060a083015160c083015260c08301516101408060e0850152612083610160850183611f06565b915060e0850151601f196101008187860301818801526120a38584611f49565b9450808801519250506101208187860301818801526120c28584611f78565b9088015187820390920184880152935090506120de8382611fbb565b9695505050505050565b5f602082840312156120f8575f80fd5b61210182611cdd565b9392505050565b60208082526023908201527f57696c6c3a20496e76616c696420737461746520666f7220746869732061637460408201526234b7b760e91b606082015260800190565b634e487b7160e01b5f52603260045260245ffd5b6001600160a01b039384168152919092166020820152604081019190915260600190565b5f60208284031215612193575f80fd5b81518015158114612101575f80fd5b634e487b7160e01b5f52601160045260245ffd5b808201808211156121c9576121c96121a2565b92915050565b80820281158282048414176121c9576121c96121a2565b5f8261220057634e487b7160e01b5f52601260045260245ffd5b500490565b818103818111156121c9576121c96121a2565b5f60208284031215612228575f80fd5b505191905056fea2646970667358221220219a0264aa261c65d5fe94aa94d3df119ee5f4c0f7c122ff15ac43a18ffc510e64736f6c63430008180033",
					"opcodes": "PUSH1 0xE0 PUSH1 0x40 MSTORE PUSH1 0x40 MLOAD PUSH3 0x240B CODESIZE SUB DUP1 PUSH3 0x240B DUP4 CODECOPY DUP2 ADD PUSH1 0x40 DUP2 SWAP1 MSTORE PUSH3 0x26 SWAP2 PUSH3 0xF9 JUMP JUMPDEST DUP4 PUSH1 0x1 PUSH1 0x1 PUSH1 0xA0 SHL SUB DUP2 AND PUSH3 0x55 JUMPI PUSH1 0x40 MLOAD PUSH4 0x1E4FBDF7 PUSH1 0xE0 SHL DUP2 MSTORE PUSH0 PUSH1 0x4 DUP3 ADD MSTORE PUSH1 0x24 ADD PUSH1 0x40 MLOAD DUP1 SWAP2 SUB SWAP1 REVERT JUMPDEST PUSH3 0x60 DUP2 PUSH3 0x8E JUMP JUMPDEST POP PUSH1 0x1 DUP1 SSTORE PUSH1 0x1 PUSH1 0x1 PUSH1 0xA0 SHL SUB SWAP3 DUP4 AND PUSH1 0x80 MSTORE SWAP1 ISZERO ISZERO PUSH1 0xA0 MSTORE AND PUSH1 0xC0 MSTORE POP PUSH1 0x2 DUP1 SLOAD PUSH1 0xFF NOT AND SWAP1 SSTORE PUSH3 0x158 JUMP JUMPDEST PUSH0 DUP1 SLOAD PUSH1 0x1 PUSH1 0x1 PUSH1 0xA0 SHL SUB DUP4 DUP2 AND PUSH1 0x1 PUSH1 0x1 PUSH1 0xA0 SHL SUB NOT DUP4 AND DUP2 OR DUP5 SSTORE PUSH1 0x40 MLOAD SWAP2 SWAP1 SWAP3 AND SWAP3 DUP4 SWAP2 PUSH32 0x8BE0079C531659141344CD1FD0A4F28419497F9722A3DAAFE3B4186F6B6457E0 SWAP2 SWAP1 LOG3 POP POP JUMP JUMPDEST DUP1 MLOAD PUSH1 0x1 PUSH1 0x1 PUSH1 0xA0 SHL SUB DUP2 AND DUP2 EQ PUSH3 0xF4 JUMPI PUSH0 DUP1 REVERT JUMPDEST SWAP2 SWAP1 POP JUMP JUMPDEST PUSH0 DUP1 PUSH0 DUP1 PUSH1 0x80 DUP6 DUP8 SUB SLT ISZERO PUSH3 0x10D JUMPI PUSH0 DUP1 REVERT JUMPDEST PUSH3 0x118 DUP6 PUSH3 0xDD JUMP JUMPDEST SWAP4 POP PUSH3 0x128 PUSH1 0x20 DUP7 ADD PUSH3 0xDD JUMP JUMPDEST SWAP3 POP PUSH1 0x40 DUP6 ADD MLOAD DUP1 ISZERO ISZERO DUP2 EQ PUSH3 0x13D JUMPI PUSH0 DUP1 REVERT JUMPDEST SWAP2 POP PUSH3 0x14D PUSH1 0x60 DUP7 ADD PUSH3 0xDD JUMP JUMPDEST SWAP1 POP SWAP3 SWAP6 SWAP2 SWAP5 POP SWAP3 POP JUMP JUMPDEST PUSH1 0x80 MLOAD PUSH1 0xA0 MLOAD PUSH1 0xC0 MLOAD PUSH2 0x2265 PUSH3 0x1A6 PUSH0 CODECOPY PUSH0 DUP2 DUP2 PUSH2 0x2FD ADD MSTORE PUSH2 0x8A1 ADD MSTORE PUSH0 DUP2 DUP2 PUSH2 0x3AF ADD MSTORE PUSH2 0x13A9 ADD MSTORE PUSH0 DUP2 DUP2 PUSH2 0x2CA ADD MSTORE DUP2 DUP2 PUSH2 0x938 ADD MSTORE DUP2 DUP2 PUSH2 0xEEE ADD MSTORE PUSH2 0x100F ADD MSTORE PUSH2 0x2265 PUSH0 RETURN INVALID PUSH1 0x80 PUSH1 0x40 MSTORE PUSH1 0x4 CALLDATASIZE LT PUSH2 0x126 JUMPI PUSH0 CALLDATALOAD PUSH1 0xE0 SHR DUP1 PUSH4 0x75D33FA1 GT PUSH2 0xA8 JUMPI DUP1 PUSH4 0xA8E9A539 GT PUSH2 0x6D JUMPI DUP1 PUSH4 0xA8E9A539 EQ PUSH2 0x2EC JUMPI DUP1 PUSH4 0xC0463711 EQ PUSH2 0x31F JUMPI DUP1 PUSH4 0xCC4F9D5B EQ PUSH2 0x334 JUMPI DUP1 PUSH4 0xE15724A5 EQ PUSH2 0x355 JUMPI DUP1 PUSH4 0xEED35FEA EQ PUSH2 0x39E JUMPI DUP1 PUSH4 0xF2FDE38B EQ PUSH2 0x3E1 JUMPI PUSH0 DUP1 REVERT JUMPDEST DUP1 PUSH4 0x75D33FA1 EQ PUSH2 0x24A JUMPI DUP1 PUSH4 0x8DA5CB5B EQ PUSH2 0x269 JUMPI DUP1 PUSH4 0x9379F517 EQ PUSH2 0x285 JUMPI DUP1 PUSH4 0x947A36FB EQ PUSH2 0x2A4 JUMPI DUP1 PUSH4 0xA444AE41 EQ PUSH2 0x2B9 JUMPI PUSH0 DUP1 REVERT JUMPDEST DUP1 PUSH4 0x55952BEF GT PUSH2 0xEE JUMPI DUP1 PUSH4 0x55952BEF EQ PUSH2 0x1E7 JUMPI DUP1 PUSH4 0x5C36B186 EQ PUSH2 0x1FA JUMPI DUP1 PUSH4 0x61461954 EQ PUSH2 0x20E JUMPI DUP1 PUSH4 0x6B892B22 EQ PUSH2 0x222 JUMPI DUP1 PUSH4 0x715018A6 EQ PUSH2 0x236 JUMPI PUSH0 DUP1 REVERT JUMPDEST DUP1 PUSH4 0xC3F6ACF EQ PUSH2 0x12A JUMPI DUP1 PUSH4 0x1C0795C3 EQ PUSH2 0x159 JUMPI DUP1 PUSH4 0x1F99966A EQ PUSH2 0x190 JUMPI DUP1 PUSH4 0x2395D975 EQ PUSH2 0x1BD JUMPI DUP1 PUSH4 0x3027439C EQ PUSH2 0x1D1 JUMPI JUMPDEST PUSH0 DUP1 REVERT JUMPDEST CALLVALUE DUP1 ISZERO PUSH2 0x135 JUMPI PUSH0 DUP1 REVERT JUMPDEST POP PUSH1 0x2 SLOAD PUSH2 0x143 SWAP1 PUSH1 0xFF AND DUP2 JUMP JUMPDEST PUSH1 0x40 MLOAD PUSH2 0x150 SWAP2 SWAP1 PUSH2 0x1C38 JUMP JUMPDEST PUSH1 0x40 MLOAD DUP1 SWAP2 SUB SWAP1 RETURN JUMPDEST CALLVALUE DUP1 ISZERO PUSH2 0x164 JUMPI PUSH0 DUP1 REVERT JUMPDEST POP PUSH2 0x178 PUSH2 0x173 CALLDATASIZE PUSH1 0x4 PUSH2 0x1C5E JUMP JUMPDEST PUSH2 0x400 JUMP JUMPDEST PUSH1 0x40 MLOAD PUSH1 0x1 PUSH1 0x1 PUSH1 0xA0 SHL SUB SWAP1 SWAP2 AND DUP2 MSTORE PUSH1 0x20 ADD PUSH2 0x150 JUMP JUMPDEST CALLVALUE DUP1 ISZERO PUSH2 0x19B JUMPI PUSH0 DUP1 REVERT JUMPDEST POP PUSH2 0x1AF PUSH2 0x1AA CALLDATASIZE PUSH1 0x4 PUSH2 0x1C5E JUMP JUMPDEST PUSH2 0x428 JUMP JUMPDEST PUSH1 0x40 MLOAD SWAP1 DUP2 MSTORE PUSH1 0x20 ADD PUSH2 0x150 JUMP JUMPDEST CALLVALUE DUP1 ISZERO PUSH2 0x1C8 JUMPI PUSH0 DUP1 REVERT JUMPDEST POP PUSH2 0x1AF PUSH1 0x32 DUP2 JUMP JUMPDEST CALLVALUE DUP1 ISZERO PUSH2 0x1DC JUMPI PUSH0 DUP1 REVERT JUMPDEST POP PUSH2 0x1E5 PUSH2 0x447 JUMP JUMPDEST STOP JUMPDEST PUSH2 0x1E5 PUSH2 0x1F5 CALLDATASIZE PUSH1 0x4 PUSH2 0x1DED JUMP JUMPDEST PUSH2 0x51B JUMP JUMPDEST CALLVALUE DUP1 ISZERO PUSH2 0x205 JUMPI PUSH0 DUP1 REVERT JUMPDEST POP PUSH2 0x1E5 PUSH2 0x75C JUMP JUMPDEST CALLVALUE DUP1 ISZERO PUSH2 0x219 JUMPI PUSH0 DUP1 REVERT JUMPDEST POP PUSH2 0x1E5 PUSH2 0x7D7 JUMP JUMPDEST CALLVALUE DUP1 ISZERO PUSH2 0x22D JUMPI PUSH0 DUP1 REVERT JUMPDEST POP PUSH2 0x1E5 PUSH2 0xE98 JUMP JUMPDEST CALLVALUE DUP1 ISZERO PUSH2 0x241 JUMPI PUSH0 DUP1 REVERT JUMPDEST POP PUSH2 0x1E5 PUSH2 0xFBB JUMP JUMPDEST CALLVALUE DUP1 ISZERO PUSH2 0x255 JUMPI PUSH0 DUP1 REVERT JUMPDEST POP PUSH2 0x1E5 PUSH2 0x264 CALLDATASIZE PUSH1 0x4 PUSH2 0x1DED JUMP JUMPDEST PUSH2 0xFCE JUMP JUMPDEST CALLVALUE DUP1 ISZERO PUSH2 0x274 JUMPI PUSH0 DUP1 REVERT JUMPDEST POP PUSH0 SLOAD PUSH1 0x1 PUSH1 0x1 PUSH1 0xA0 SHL SUB AND PUSH2 0x178 JUMP JUMPDEST CALLVALUE DUP1 ISZERO PUSH2 0x290 JUMPI PUSH0 DUP1 REVERT JUMPDEST POP PUSH2 0x178 PUSH2 0x29F CALLDATASIZE PUSH1 0x4 PUSH2 0x1C5E JUMP JUMPDEST PUSH2 0x108F JUMP JUMPDEST CALLVALUE DUP1 ISZERO PUSH2 0x2AF JUMPI PUSH0 DUP1 REVERT JUMPDEST POP PUSH2 0x1AF PUSH1 0x4 SLOAD DUP2 JUMP JUMPDEST CALLVALUE DUP1 ISZERO PUSH2 0x2C4 JUMPI PUSH0 DUP1 REVERT JUMPDEST POP PUSH2 0x178 PUSH32 0x0 DUP2 JUMP JUMPDEST CALLVALUE DUP1 ISZERO PUSH2 0x2F7 JUMPI PUSH0 DUP1 REVERT JUMPDEST POP PUSH2 0x178 PUSH32 0x0 DUP2 JUMP JUMPDEST CALLVALUE DUP1 ISZERO PUSH2 0x32A JUMPI PUSH0 DUP1 REVERT JUMPDEST POP PUSH2 0x1AF PUSH1 0x3 SLOAD DUP2 JUMP JUMPDEST CALLVALUE DUP1 ISZERO PUSH2 0x33F JUMPI PUSH0 DUP1 REVERT JUMPDEST POP PUSH2 0x348 PUSH2 0x109E JUMP JUMPDEST PUSH1 0x40 MLOAD PUSH2 0x150 SWAP2 SWAP1 PUSH2 0x200C JUMP JUMPDEST CALLVALUE DUP1 ISZERO PUSH2 0x360 JUMPI PUSH0 DUP1 REVERT JUMPDEST POP PUSH2 0x374 PUSH2 0x36F CALLDATASIZE PUSH1 0x4 PUSH2 0x1C5E JUMP JUMPDEST PUSH2 0x1498 JUMP JUMPDEST PUSH1 0x40 DUP1 MLOAD PUSH1 0x1 PUSH1 0x1 PUSH1 0xA0 SHL SUB SWAP5 DUP6 AND DUP2 MSTORE PUSH1 0x20 DUP2 ADD SWAP4 SWAP1 SWAP4 MSTORE SWAP3 AND SWAP2 DUP2 ADD SWAP2 SWAP1 SWAP2 MSTORE PUSH1 0x60 ADD PUSH2 0x150 JUMP JUMPDEST CALLVALUE DUP1 ISZERO PUSH2 0x3A9 JUMPI PUSH0 DUP1 REVERT JUMPDEST POP PUSH2 0x3D1 PUSH32 0x0 DUP2 JUMP JUMPDEST PUSH1 0x40 MLOAD SWAP1 ISZERO ISZERO DUP2 MSTORE PUSH1 0x20 ADD PUSH2 0x150 JUMP JUMPDEST CALLVALUE DUP1 ISZERO PUSH2 0x3EC JUMPI PUSH0 DUP1 REVERT JUMPDEST POP PUSH2 0x1E5 PUSH2 0x3FB CALLDATASIZE PUSH1 0x4 PUSH2 0x20E8 JUMP JUMPDEST PUSH2 0x14D4 JUMP JUMPDEST PUSH1 0x5 DUP2 DUP2 SLOAD DUP2 LT PUSH2 0x40F JUMPI PUSH0 DUP1 REVERT JUMPDEST PUSH0 SWAP2 DUP3 MSTORE PUSH1 0x20 SWAP1 SWAP2 KECCAK256 ADD SLOAD PUSH1 0x1 PUSH1 0x1 PUSH1 0xA0 SHL SUB AND SWAP1 POP DUP2 JUMP JUMPDEST PUSH1 0x6 DUP2 DUP2 SLOAD DUP2 LT PUSH2 0x437 JUMPI PUSH0 DUP1 REVERT JUMPDEST PUSH0 SWAP2 DUP3 MSTORE PUSH1 0x20 SWAP1 SWAP2 KECCAK256 ADD SLOAD SWAP1 POP DUP2 JUMP JUMPDEST PUSH2 0x44F PUSH2 0x1511 JUMP JUMPDEST PUSH1 0x1 DUP1 PUSH1 0x2 DUP1 SLOAD PUSH1 0xFF AND SWAP1 DUP2 GT ISZERO PUSH2 0x469 JUMPI PUSH2 0x469 PUSH2 0x1C24 JUMP JUMPDEST EQ PUSH2 0x48F JUMPI PUSH1 0x40 MLOAD PUSH3 0x461BCD PUSH1 0xE5 SHL DUP2 MSTORE PUSH1 0x4 ADD PUSH2 0x486 SWAP1 PUSH2 0x2108 JUMP JUMPDEST PUSH1 0x40 MLOAD DUP1 SWAP2 SUB SWAP1 REVERT JUMPDEST PUSH2 0x497 PUSH2 0x153D JUMP JUMPDEST PUSH1 0x2 PUSH1 0x1 SSTORE PUSH2 0x4A4 PUSH2 0x1560 JUMP JUMPDEST PUSH2 0x4AF PUSH1 0x5 PUSH0 PUSH2 0x1ACF JUMP JUMPDEST PUSH2 0x4BA PUSH1 0x6 PUSH0 PUSH2 0x1ACF JUMP JUMPDEST PUSH2 0x4C5 PUSH1 0x7 PUSH0 PUSH2 0x1AEA JUMP JUMPDEST PUSH2 0x4D0 PUSH1 0x8 PUSH0 PUSH2 0x1B05 JUMP JUMPDEST PUSH0 PUSH1 0x4 DUP2 SWAP1 SSTORE PUSH1 0x2 DUP1 SLOAD PUSH1 0xFF NOT AND SWAP1 SSTORE DUP1 SLOAD PUSH1 0x40 MLOAD PUSH1 0x1 PUSH1 0x1 PUSH1 0xA0 SHL SUB SWAP1 SWAP2 AND SWAP2 PUSH32 0x5AF2B6DCDCCC1DD52EE38632AFEE0BC3AC6DEF619ED4132F2F9A40FF48EC74F2 SWAP2 LOG2 POP PUSH1 0x1 DUP1 SSTORE JUMP JUMPDEST PUSH2 0x523 PUSH2 0x1511 JUMP JUMPDEST PUSH0 DUP1 PUSH1 0x2 DUP1 SLOAD PUSH1 0xFF AND SWAP1 DUP2 GT ISZERO PUSH2 0x53C JUMPI PUSH2 0x53C PUSH2 0x1C24 JUMP JUMPDEST EQ PUSH2 0x559 JUMPI PUSH1 0x40 MLOAD PUSH3 0x461BCD PUSH1 0xE5 SHL DUP2 MSTORE PUSH1 0x4 ADD PUSH2 0x486 SWAP1 PUSH2 0x2108 JUMP JUMPDEST PUSH1 0x4 DUP9 SWAP1 SSTORE PUSH0 JUMPDEST DUP5 DUP2 LT ISZERO PUSH2 0x647 JUMPI PUSH0 DUP7 DUP7 DUP4 DUP2 DUP2 LT PUSH2 0x57B JUMPI PUSH2 0x57B PUSH2 0x214B JUMP JUMPDEST SWAP1 POP PUSH1 0x40 MUL ADD PUSH1 0x20 ADD CALLDATALOAD GT ISZERO PUSH2 0x63F JUMPI DUP6 DUP6 DUP3 DUP2 DUP2 LT PUSH2 0x59D JUMPI PUSH2 0x59D PUSH2 0x214B JUMP JUMPDEST PUSH2 0x5B3 SWAP3 PUSH1 0x20 PUSH1 0x40 SWAP1 SWAP3 MUL ADD SWAP1 DUP2 ADD SWAP2 POP PUSH2 0x20E8 JUMP JUMPDEST PUSH1 0x1 PUSH1 0x1 PUSH1 0xA0 SHL SUB AND PUSH4 0x23B872DD CALLER ADDRESS DUP10 DUP10 DUP7 DUP2 DUP2 LT PUSH2 0x5D5 JUMPI PUSH2 0x5D5 PUSH2 0x214B JUMP JUMPDEST SWAP1 POP PUSH1 0x40 MUL ADD PUSH1 0x20 ADD CALLDATALOAD PUSH1 0x40 MLOAD DUP5 PUSH4 0xFFFFFFFF AND PUSH1 0xE0 SHL DUP2 MSTORE PUSH1 0x4 ADD PUSH2 0x5FD SWAP4 SWAP3 SWAP2 SWAP1 PUSH2 0x215F JUMP JUMPDEST PUSH1 0x20 PUSH1 0x40 MLOAD DUP1 DUP4 SUB DUP2 PUSH0 DUP8 GAS CALL ISZERO DUP1 ISZERO PUSH2 0x619 JUMPI RETURNDATASIZE PUSH0 DUP1 RETURNDATACOPY RETURNDATASIZE PUSH0 REVERT JUMPDEST POP POP POP POP PUSH1 0x40 MLOAD RETURNDATASIZE PUSH1 0x1F NOT PUSH1 0x1F DUP3 ADD AND DUP3 ADD DUP1 PUSH1 0x40 MSTORE POP DUP2 ADD SWAP1 PUSH2 0x63D SWAP2 SWAP1 PUSH2 0x2183 JUMP JUMPDEST POP JUMPDEST PUSH1 0x1 ADD PUSH2 0x560 JUMP JUMPDEST POP PUSH0 JUMPDEST DUP3 DUP2 LT ISZERO PUSH2 0x6FD JUMPI DUP4 DUP4 DUP3 DUP2 DUP2 LT PUSH2 0x664 JUMPI PUSH2 0x664 PUSH2 0x214B JUMP JUMPDEST PUSH2 0x67A SWAP3 PUSH1 0x20 PUSH1 0x60 SWAP1 SWAP3 MUL ADD SWAP1 DUP2 ADD SWAP2 POP PUSH2 0x20E8 JUMP JUMPDEST PUSH1 0x1 PUSH1 0x1 PUSH1 0xA0 SHL SUB AND PUSH4 0x23B872DD CALLER ADDRESS DUP8 DUP8 DUP7 DUP2 DUP2 LT PUSH2 0x69C JUMPI PUSH2 0x69C PUSH2 0x214B JUMP JUMPDEST SWAP1 POP PUSH1 0x60 MUL ADD PUSH1 0x20 ADD CALLDATALOAD PUSH1 0x40 MLOAD DUP5 PUSH4 0xFFFFFFFF AND PUSH1 0xE0 SHL DUP2 MSTORE PUSH1 0x4 ADD PUSH2 0x6C4 SWAP4 SWAP3 SWAP2 SWAP1 PUSH2 0x215F JUMP JUMPDEST PUSH0 PUSH1 0x40 MLOAD DUP1 DUP4 SUB DUP2 PUSH0 DUP8 DUP1 EXTCODESIZE ISZERO DUP1 ISZERO PUSH2 0x6DB JUMPI PUSH0 DUP1 REVERT JUMPDEST POP GAS CALL ISZERO DUP1 ISZERO PUSH2 0x6ED JUMPI RETURNDATASIZE PUSH0 DUP1 RETURNDATACOPY RETURNDATASIZE PUSH0 REVERT JUMPDEST POP POP PUSH1 0x1 SWAP1 SWAP3 ADD SWAP2 POP PUSH2 0x64A SWAP1 POP JUMP JUMPDEST POP PUSH2 0x70C DUP8 DUP8 DUP8 DUP8 DUP8 DUP8 PUSH2 0x17EC JUMP JUMPDEST PUSH1 0x2 DUP1 SLOAD PUSH1 0xFF NOT AND PUSH1 0x1 OR SWAP1 SSTORE TIMESTAMP PUSH1 0x3 SSTORE PUSH0 DUP1 SLOAD PUSH1 0x40 MLOAD PUSH1 0x1 PUSH1 0x1 PUSH1 0xA0 SHL SUB SWAP1 SWAP2 AND SWAP2 PUSH32 0xBBF74FB4E3C300BF9F00E1603668149FD64853BFCD5F194270D2B043D9BDBC61 SWAP2 LOG2 POP POP POP POP POP POP POP POP JUMP JUMPDEST PUSH2 0x764 PUSH2 0x1511 JUMP JUMPDEST PUSH1 0x1 DUP1 PUSH1 0x2 DUP1 SLOAD PUSH1 0xFF AND SWAP1 DUP2 GT ISZERO PUSH2 0x77E JUMPI PUSH2 0x77E PUSH2 0x1C24 JUMP JUMPDEST EQ PUSH2 0x79B JUMPI PUSH1 0x40 MLOAD PUSH3 0x461BCD PUSH1 0xE5 SHL DUP2 MSTORE PUSH1 0x4 ADD PUSH2 0x486 SWAP1 PUSH2 0x2108 JUMP JUMPDEST TIMESTAMP PUSH1 0x3 DUP2 SWAP1 SSTORE PUSH1 0x40 MLOAD SWAP1 DUP2 MSTORE PUSH32 0x48257DC961B6F792C2B78A080DACFED693B660960A702DE21CEE364E20270E2F SWAP1 PUSH1 0x20 ADD PUSH1 0x40 MLOAD DUP1 SWAP2 SUB SWAP1 LOG1 POP JUMP JUMPDEST PUSH1 0x1 DUP1 PUSH1 0x2 DUP1 SLOAD PUSH1 0xFF AND SWAP1 DUP2 GT ISZERO PUSH2 0x7F1 JUMPI PUSH2 0x7F1 PUSH2 0x1C24 JUMP JUMPDEST EQ PUSH2 0x80E JUMPI PUSH1 0x40 MLOAD PUSH3 0x461BCD PUSH1 0xE5 SHL DUP2 MSTORE PUSH1 0x4 ADD PUSH2 0x486 SWAP1 PUSH2 0x2108 JUMP JUMPDEST PUSH2 0x816 PUSH2 0x153D JUMP JUMPDEST PUSH1 0x2 PUSH1 0x1 SSTORE PUSH1 0x4 SLOAD PUSH1 0x3 SLOAD PUSH0 SWAP2 PUSH2 0x82C SWAP2 PUSH2 0x21B6 JUMP JUMPDEST SWAP1 POP DUP1 TIMESTAMP LT ISZERO PUSH2 0x87E JUMPI PUSH1 0x40 MLOAD PUSH3 0x461BCD PUSH1 0xE5 SHL DUP2 MSTORE PUSH1 0x20 PUSH1 0x4 DUP3 ADD MSTORE PUSH1 0x1B PUSH1 0x24 DUP3 ADD MSTORE PUSH32 0x477261636520706572696F6420686173206E6F7420656E6465642E0000000000 PUSH1 0x44 DUP3 ADD MSTORE PUSH1 0x64 ADD PUSH2 0x486 JUMP JUMPDEST PUSH0 PUSH2 0x88C PUSH3 0x15180 DUP4 PUSH2 0x21B6 JUMP JUMPDEST SWAP1 POP DUP1 TIMESTAMP LT ISZERO PUSH2 0x91C JUMPI CALLER PUSH1 0x1 PUSH1 0x1 PUSH1 0xA0 SHL SUB PUSH32 0x0 AND EQ PUSH2 0x91C JUMPI PUSH1 0x40 MLOAD PUSH3 0x461BCD PUSH1 0xE5 SHL DUP2 MSTORE PUSH1 0x20 PUSH1 0x4 DUP3 ADD MSTORE PUSH1 0x25 PUSH1 0x24 DUP3 ADD MSTORE PUSH32 0x4F6E6C792064657369676E61746564206578656375746F722063616E2063616C PUSH1 0x44 DUP3 ADD MSTORE PUSH5 0x6C206E6F77 PUSH1 0xD8 SHL PUSH1 0x64 DUP3 ADD MSTORE PUSH1 0x84 ADD PUSH2 0x486 JUMP JUMPDEST PUSH1 0x2 DUP1 SLOAD PUSH1 0xFF NOT AND DUP2 OR SWAP1 SSTORE PUSH0 TIMESTAMP DUP3 GT PUSH2 0x936 JUMPI CALLER PUSH2 0x958 JUMP JUMPDEST PUSH32 0x0 JUMPDEST SWAP1 POP PUSH0 SELFBALANCE DUP1 ISZERO PUSH2 0xB46 JUMPI PUSH0 PUSH2 0x2710 PUSH2 0x971 PUSH1 0x32 DUP5 PUSH2 0x21CF JUMP JUMPDEST PUSH2 0x97B SWAP2 SWAP1 PUSH2 0x21E6 JUMP JUMPDEST SWAP3 POP DUP3 SWAP1 POP PUSH0 PUSH2 0x98B DUP3 DUP5 PUSH2 0x2205 JUMP JUMPDEST SWAP1 POP DUP2 ISZERO PUSH2 0xA34 JUMPI PUSH0 DUP6 PUSH1 0x1 PUSH1 0x1 PUSH1 0xA0 SHL SUB AND DUP4 PUSH1 0x40 MLOAD PUSH0 PUSH1 0x40 MLOAD DUP1 DUP4 SUB DUP2 DUP6 DUP8 GAS CALL SWAP3 POP POP POP RETURNDATASIZE DUP1 PUSH0 DUP2 EQ PUSH2 0x9DC JUMPI PUSH1 0x40 MLOAD SWAP2 POP PUSH1 0x1F NOT PUSH1 0x3F RETURNDATASIZE ADD AND DUP3 ADD PUSH1 0x40 MSTORE RETURNDATASIZE DUP3 MSTORE RETURNDATASIZE PUSH0 PUSH1 0x20 DUP5 ADD RETURNDATACOPY PUSH2 0x9E1 JUMP JUMPDEST PUSH1 0x60 SWAP2 POP JUMPDEST POP POP SWAP1 POP DUP1 PUSH2 0xA32 JUMPI PUSH1 0x40 MLOAD PUSH3 0x461BCD PUSH1 0xE5 SHL DUP2 MSTORE PUSH1 0x20 PUSH1 0x4 DUP3 ADD MSTORE PUSH1 0x17 PUSH1 0x24 DUP3 ADD MSTORE PUSH32 0x45544820666565207472616E73666572206661696C6564000000000000000000 PUSH1 0x44 DUP3 ADD MSTORE PUSH1 0x64 ADD PUSH2 0x486 JUMP JUMPDEST POP JUMPDEST PUSH0 JUMPDEST PUSH1 0x5 SLOAD DUP2 LT ISZERO PUSH2 0xB42 JUMPI PUSH0 PUSH1 0x64 PUSH1 0x6 DUP4 DUP2 SLOAD DUP2 LT PUSH2 0xA56 JUMPI PUSH2 0xA56 PUSH2 0x214B JUMP JUMPDEST SWAP1 PUSH0 MSTORE PUSH1 0x20 PUSH0 KECCAK256 ADD SLOAD DUP5 PUSH2 0xA6A SWAP2 SWAP1 PUSH2 0x21CF JUMP JUMPDEST PUSH2 0xA74 SWAP2 SWAP1 PUSH2 0x21E6 JUMP JUMPDEST SWAP1 POP DUP1 ISZERO PUSH2 0xB39 JUMPI PUSH0 PUSH1 0x5 DUP4 DUP2 SLOAD DUP2 LT PUSH2 0xA90 JUMPI PUSH2 0xA90 PUSH2 0x214B JUMP JUMPDEST PUSH0 SWAP2 DUP3 MSTORE PUSH1 0x20 DUP3 KECCAK256 ADD SLOAD PUSH1 0x40 MLOAD PUSH1 0x1 PUSH1 0x1 PUSH1 0xA0 SHL SUB SWAP1 SWAP2 AND SWAP2 DUP5 SWAP2 SWAP1 DUP2 DUP2 DUP2 DUP6 DUP8 GAS CALL SWAP3 POP POP POP RETURNDATASIZE DUP1 PUSH0 DUP2 EQ PUSH2 0xAE1 JUMPI PUSH1 0x40 MLOAD SWAP2 POP PUSH1 0x1F NOT PUSH1 0x3F RETURNDATASIZE ADD AND DUP3 ADD PUSH1 0x40 MSTORE RETURNDATASIZE DUP3 MSTORE RETURNDATASIZE PUSH0 PUSH1 0x20 DUP5 ADD RETURNDATACOPY PUSH2 0xAE6 JUMP JUMPDEST PUSH1 0x60 SWAP2 POP JUMPDEST POP POP SWAP1 POP DUP1 PUSH2 0xB37 JUMPI PUSH1 0x40 MLOAD PUSH3 0x461BCD PUSH1 0xE5 SHL DUP2 MSTORE PUSH1 0x20 PUSH1 0x4 DUP3 ADD MSTORE PUSH1 0x1B PUSH1 0x24 DUP3 ADD MSTORE PUSH32 0x455448207472616E7366657220746F2068656972206661696C65640000000000 PUSH1 0x44 DUP3 ADD MSTORE PUSH1 0x64 ADD PUSH2 0x486 JUMP JUMPDEST POP JUMPDEST POP PUSH1 0x1 ADD PUSH2 0xA36 JUMP JUMPDEST POP POP POP JUMPDEST PUSH0 JUMPDEST PUSH1 0x7 SLOAD DUP2 LT ISZERO PUSH2 0xD7E JUMPI PUSH0 PUSH1 0x7 DUP3 DUP2 SLOAD DUP2 LT PUSH2 0xB66 JUMPI PUSH2 0xB66 PUSH2 0x214B JUMP JUMPDEST PUSH0 SWAP2 DUP3 MSTORE PUSH1 0x20 DUP3 KECCAK256 ADD SLOAD PUSH1 0x40 MLOAD PUSH4 0x70A08231 PUSH1 0xE0 SHL DUP2 MSTORE ADDRESS PUSH1 0x4 DUP3 ADD MSTORE PUSH1 0x1 PUSH1 0x1 PUSH1 0xA0 SHL SUB SWAP1 SWAP2 AND SWAP3 POP DUP3 SWAP1 PUSH4 0x70A08231 SWAP1 PUSH1 0x24 ADD PUSH1 0x20 PUSH1 0x40 MLOAD DUP1 DUP4 SUB DUP2 DUP7 GAS STATICCALL ISZERO DUP1 ISZERO PUSH2 0xBB6 JUMPI RETURNDATASIZE PUSH0 DUP1 RETURNDATACOPY RETURNDATASIZE PUSH0 REVERT JUMPDEST POP POP POP POP PUSH1 0x40 MLOAD RETURNDATASIZE PUSH1 0x1F NOT PUSH1 0x1F DUP3 ADD AND DUP3 ADD DUP1 PUSH1 0x40 MSTORE POP DUP2 ADD SWAP1 PUSH2 0xBDA SWAP2 SWAP1 PUSH2 0x2218 JUMP JUMPDEST SWAP1 POP DUP1 ISZERO PUSH2 0xD74 JUMPI PUSH0 PUSH2 0x2710 PUSH2 0xBF1 PUSH1 0x32 DUP5 PUSH2 0x21CF JUMP JUMPDEST PUSH2 0xBFB SWAP2 SWAP1 PUSH2 0x21E6 JUMP JUMPDEST SWAP1 POP PUSH0 PUSH2 0xC08 DUP3 DUP5 PUSH2 0x2205 JUMP JUMPDEST SWAP1 POP DUP2 ISZERO PUSH2 0xC82 JUMPI PUSH1 0x40 MLOAD PUSH4 0xA9059CBB PUSH1 0xE0 SHL DUP2 MSTORE PUSH1 0x1 PUSH1 0x1 PUSH1 0xA0 SHL SUB DUP10 DUP2 AND PUSH1 0x4 DUP4 ADD MSTORE PUSH1 0x24 DUP3 ADD DUP5 SWAP1 MSTORE DUP6 AND SWAP1 PUSH4 0xA9059CBB SWAP1 PUSH1 0x44 ADD PUSH1 0x20 PUSH1 0x40 MLOAD DUP1 DUP4 SUB DUP2 PUSH0 DUP8 GAS CALL ISZERO DUP1 ISZERO PUSH2 0xC5C JUMPI RETURNDATASIZE PUSH0 DUP1 RETURNDATACOPY RETURNDATASIZE PUSH0 REVERT JUMPDEST POP POP POP POP PUSH1 0x40 MLOAD RETURNDATASIZE PUSH1 0x1F NOT PUSH1 0x1F DUP3 ADD AND DUP3 ADD DUP1 PUSH1 0x40 MSTORE POP DUP2 ADD SWAP1 PUSH2 0xC80 SWAP2 SWAP1 PUSH2 0x2183 JUMP JUMPDEST POP JUMPDEST PUSH0 JUMPDEST PUSH1 0x5 SLOAD DUP2 LT ISZERO PUSH2 0xD70 JUMPI PUSH0 PUSH1 0x64 PUSH1 0x6 DUP4 DUP2 SLOAD DUP2 LT PUSH2 0xCA4 JUMPI PUSH2 0xCA4 PUSH2 0x214B JUMP JUMPDEST SWAP1 PUSH0 MSTORE PUSH1 0x20 PUSH0 KECCAK256 ADD SLOAD DUP5 PUSH2 0xCB8 SWAP2 SWAP1 PUSH2 0x21CF JUMP JUMPDEST PUSH2 0xCC2 SWAP2 SWAP1 PUSH2 0x21E6 JUMP JUMPDEST SWAP1 POP DUP1 ISZERO PUSH2 0xD67 JUMPI DUP6 PUSH1 0x1 PUSH1 0x1 PUSH1 0xA0 SHL SUB AND PUSH4 0xA9059CBB PUSH1 0x5 DUP5 DUP2 SLOAD DUP2 LT PUSH2 0xCEC JUMPI PUSH2 0xCEC PUSH2 0x214B JUMP JUMPDEST PUSH0 SWAP2 DUP3 MSTORE PUSH1 0x20 SWAP1 SWAP2 KECCAK256 ADD SLOAD PUSH1 0x40 MLOAD PUSH1 0xE0 DUP4 SWAP1 SHL PUSH1 0x1 PUSH1 0x1 PUSH1 0xE0 SHL SUB NOT AND DUP2 MSTORE PUSH1 0x1 PUSH1 0x1 PUSH1 0xA0 SHL SUB SWAP1 SWAP2 AND PUSH1 0x4 DUP3 ADD MSTORE PUSH1 0x24 DUP2 ADD DUP5 SWAP1 MSTORE PUSH1 0x44 ADD PUSH1 0x20 PUSH1 0x40 MLOAD DUP1 DUP4 SUB DUP2 PUSH0 DUP8 GAS CALL ISZERO DUP1 ISZERO PUSH2 0xD41 JUMPI RETURNDATASIZE PUSH0 DUP1 RETURNDATACOPY RETURNDATASIZE PUSH0 REVERT JUMPDEST POP POP POP POP PUSH1 0x40 MLOAD RETURNDATASIZE PUSH1 0x1F NOT PUSH1 0x1F DUP3 ADD AND DUP3 ADD DUP1 PUSH1 0x40 MSTORE POP DUP2 ADD SWAP1 PUSH2 0xD65 SWAP2 SWAP1 PUSH2 0x2183 JUMP JUMPDEST POP JUMPDEST POP PUSH1 0x1 ADD PUSH2 0xC84 JUMP JUMPDEST POP POP POP JUMPDEST POP POP PUSH1 0x1 ADD PUSH2 0xB48 JUMP JUMPDEST POP PUSH0 JUMPDEST PUSH1 0x8 SLOAD DUP2 LT ISZERO PUSH2 0xE43 JUMPI PUSH0 PUSH1 0x8 DUP3 DUP2 SLOAD DUP2 LT PUSH2 0xD9F JUMPI PUSH2 0xD9F PUSH2 0x214B JUMP JUMPDEST PUSH0 SWAP2 DUP3 MSTORE PUSH1 0x20 SWAP2 DUP3 SWAP1 KECCAK256 PUSH1 0x40 DUP1 MLOAD PUSH1 0x60 DUP2 ADD DUP3 MSTORE PUSH1 0x3 SWAP1 SWAP4 MUL SWAP1 SWAP2 ADD DUP1 SLOAD PUSH1 0x1 PUSH1 0x1 PUSH1 0xA0 SHL SUB SWAP1 DUP2 AND DUP1 DUP6 MSTORE PUSH1 0x1 DUP4 ADD SLOAD SWAP6 DUP6 ADD DUP7 SWAP1 MSTORE PUSH1 0x2 SWAP1 SWAP3 ADD SLOAD AND DUP4 DUP4 ADD DUP2 SWAP1 MSTORE SWAP2 MLOAD PUSH4 0x21421707 PUSH1 0xE1 SHL DUP2 MSTORE SWAP3 SWAP5 POP SWAP3 PUSH4 0x42842E0E SWAP3 PUSH2 0xE09 SWAP3 ADDRESS SWAP3 SWAP1 SWAP2 PUSH1 0x4 ADD PUSH2 0x215F JUMP JUMPDEST PUSH0 PUSH1 0x40 MLOAD DUP1 DUP4 SUB DUP2 PUSH0 DUP8 DUP1 EXTCODESIZE ISZERO DUP1 ISZERO PUSH2 0xE20 JUMPI PUSH0 DUP1 REVERT JUMPDEST POP GAS CALL ISZERO DUP1 ISZERO PUSH2 0xE32 JUMPI RETURNDATASIZE PUSH0 DUP1 RETURNDATACOPY RETURNDATASIZE PUSH0 REVERT JUMPDEST POP POP PUSH1 0x1 SWAP1 SWAP4 ADD SWAP3 POP PUSH2 0xD81 SWAP2 POP POP JUMP JUMPDEST POP PUSH1 0x40 DUP1 MLOAD CALLER DUP2 MSTORE PUSH1 0x20 DUP2 ADD DUP5 SWAP1 MSTORE PUSH1 0x1 PUSH1 0x1 PUSH1 0xA0 SHL SUB DUP6 AND DUP2 DUP4 ADD MSTORE SWAP1 MLOAD PUSH32 0x52BA16C8B985EFF690A9DE92094BD7486F89340E06E385FFB26DE9C6EEA384DC SWAP2 DUP2 SWAP1 SUB PUSH1 0x60 ADD SWAP1 LOG1 POP POP PUSH1 0x1 DUP1 SSTORE POP POP POP POP JUMP JUMPDEST PUSH2 0xEA0 PUSH2 0x1511 JUMP JUMPDEST PUSH1 0x1 DUP1 PUSH1 0x2 DUP1 SLOAD PUSH1 0xFF AND SWAP1 DUP2 GT ISZERO PUSH2 0xEBA JUMPI PUSH2 0xEBA PUSH2 0x1C24 JUMP JUMPDEST EQ PUSH2 0xED7 JUMPI PUSH1 0x40 MLOAD PUSH3 0x461BCD PUSH1 0xE5 SHL DUP2 MSTORE PUSH1 0x4 ADD PUSH2 0x486 SWAP1 PUSH2 0x2108 JUMP JUMPDEST PUSH2 0xEDF PUSH2 0x153D JUMP JUMPDEST PUSH1 0x2 PUSH1 0x1 SSTORE PUSH2 0xEEC PUSH2 0x1560 JUMP JUMPDEST PUSH32 0x0 PUSH1 0x1 PUSH1 0x1 PUSH1 0xA0 SHL SUB AND PUSH4 0xA658DD6B PUSH2 0xF2C PUSH0 SLOAD PUSH1 0x1 PUSH1 0x1 PUSH1 0xA0 SHL SUB AND SWAP1 JUMP JUMPDEST PUSH1 0x40 MLOAD PUSH1 0x1 PUSH1 0x1 PUSH1 0xE0 SHL SUB NOT PUSH1 0xE0 DUP5 SWAP1 SHL AND DUP2 MSTORE PUSH1 0x1 PUSH1 0x1 PUSH1 0xA0 SHL SUB SWAP1 SWAP2 AND PUSH1 0x4 DUP3 ADD MSTORE PUSH1 0x24 ADD PUSH0 PUSH1 0x40 MLOAD DUP1 DUP4 SUB DUP2 PUSH0 DUP8 DUP1 EXTCODESIZE ISZERO DUP1 ISZERO PUSH2 0xF6A JUMPI PUSH0 DUP1 REVERT JUMPDEST POP GAS CALL ISZERO DUP1 ISZERO PUSH2 0xF7C JUMPI RETURNDATASIZE PUSH0 DUP1 RETURNDATACOPY RETURNDATASIZE PUSH0 REVERT JUMPDEST POP POP PUSH1 0x2 DUP1 SLOAD PUSH1 0xFF NOT AND DUP2 OR SWAP1 SSTORE POP POP PUSH1 0x40 MLOAD PUSH32 0x63B958841F79AB97CB5456DA181454B9932C0E15A3B17F1CBD27E2A8BC610437 SWAP1 PUSH0 SWAP1 LOG1 POP PUSH1 0x1 DUP1 SSTORE JUMP JUMPDEST PUSH2 0xFC3 PUSH2 0x1511 JUMP JUMPDEST PUSH2 0xFCC PUSH0 PUSH2 0x1A80 JUMP JUMPDEST JUMP JUMPDEST PUSH0 DUP1 PUSH1 0x2 DUP1 SLOAD PUSH1 0xFF AND SWAP1 DUP2 GT ISZERO PUSH2 0xFE7 JUMPI PUSH2 0xFE7 PUSH2 0x1C24 JUMP JUMPDEST EQ PUSH2 0x1004 JUMPI PUSH1 0x40 MLOAD PUSH3 0x461BCD PUSH1 0xE5 SHL DUP2 MSTORE PUSH1 0x4 ADD PUSH2 0x486 SWAP1 PUSH2 0x2108 JUMP JUMPDEST CALLER PUSH1 0x1 PUSH1 0x1 PUSH1 0xA0 SHL SUB PUSH32 0x0 AND EQ PUSH2 0x107C JUMPI PUSH1 0x40 MLOAD PUSH3 0x461BCD PUSH1 0xE5 SHL DUP2 MSTORE PUSH1 0x20 PUSH1 0x4 DUP3 ADD MSTORE PUSH1 0x1F PUSH1 0x24 DUP3 ADD MSTORE PUSH32 0x57696C6C3A204E6F7420617574686F72697A656420627920666163746F727900 PUSH1 0x44 DUP3 ADD MSTORE PUSH1 0x64 ADD PUSH2 0x486 JUMP JUMPDEST PUSH1 0x4 DUP9 SWAP1 SSTORE PUSH2 0x70C DUP8 DUP8 DUP8 DUP8 DUP8 DUP8 PUSH2 0x17EC JUMP JUMPDEST PUSH1 0x7 DUP2 DUP2 SLOAD DUP2 LT PUSH2 0x40F JUMPI PUSH0 DUP1 REVERT JUMPDEST PUSH2 0x10FB PUSH1 0x40 MLOAD DUP1 PUSH2 0x140 ADD PUSH1 0x40 MSTORE DUP1 PUSH0 PUSH1 0x1 PUSH1 0x1 PUSH1 0xA0 SHL SUB AND DUP2 MSTORE PUSH1 0x20 ADD PUSH0 DUP2 MSTORE PUSH1 0x20 ADD PUSH0 DUP2 MSTORE PUSH1 0x20 ADD PUSH0 ISZERO ISZERO DUP2 MSTORE PUSH1 0x20 ADD PUSH0 ISZERO ISZERO DUP2 MSTORE PUSH1 0x20 ADD PUSH0 DUP2 MSTORE PUSH1 0x20 ADD PUSH1 0x60 DUP2 MSTORE PUSH1 0x20 ADD PUSH1 0x60 DUP2 MSTORE PUSH1 0x20 ADD PUSH1 0x60 DUP2 MSTORE PUSH1 0x20 ADD PUSH1 0x60 DUP2 MSTORE POP SWAP1 JUMP JUMPDEST PUSH1 0x7 SLOAD PUSH0 SWAP1 PUSH8 0xFFFFFFFFFFFFFFFF DUP2 GT ISZERO PUSH2 0x1118 JUMPI PUSH2 0x1118 PUSH2 0x1C75 JUMP JUMPDEST PUSH1 0x40 MLOAD SWAP1 DUP1 DUP3 MSTORE DUP1 PUSH1 0x20 MUL PUSH1 0x20 ADD DUP3 ADD PUSH1 0x40 MSTORE DUP1 ISZERO PUSH2 0x115C JUMPI DUP2 PUSH1 0x20 ADD JUMPDEST PUSH1 0x40 DUP1 MLOAD DUP1 DUP3 ADD SWAP1 SWAP2 MSTORE PUSH0 DUP1 DUP3 MSTORE PUSH1 0x20 DUP3 ADD MSTORE DUP2 MSTORE PUSH1 0x20 ADD SWAP1 PUSH1 0x1 SWAP1 SUB SWAP1 DUP2 PUSH2 0x1136 JUMPI SWAP1 POP JUMPDEST POP SWAP1 POP PUSH0 JUMPDEST PUSH1 0x7 SLOAD DUP2 LT ISZERO PUSH2 0x122F JUMPI PUSH0 PUSH1 0x7 DUP3 DUP2 SLOAD DUP2 LT PUSH2 0x117F JUMPI PUSH2 0x117F PUSH2 0x214B JUMP JUMPDEST PUSH0 SWAP2 DUP3 MSTORE PUSH1 0x20 SWAP2 DUP3 SWAP1 KECCAK256 ADD SLOAD PUSH1 0x40 DUP1 MLOAD DUP1 DUP3 ADD DUP3 MSTORE PUSH1 0x1 PUSH1 0x1 PUSH1 0xA0 SHL SUB SWAP1 SWAP3 AND DUP1 DUP4 MSTORE SWAP1 MLOAD PUSH4 0x70A08231 PUSH1 0xE0 SHL DUP2 MSTORE ADDRESS PUSH1 0x4 DUP3 ADD MSTORE SWAP1 SWAP4 POP SWAP1 SWAP2 DUP3 ADD SWAP1 DUP4 SWAP1 PUSH4 0x70A08231 SWAP1 PUSH1 0x24 ADD PUSH1 0x20 PUSH1 0x40 MLOAD DUP1 DUP4 SUB DUP2 DUP7 GAS STATICCALL ISZERO DUP1 ISZERO PUSH2 0x11E2 JUMPI RETURNDATASIZE PUSH0 DUP1 RETURNDATACOPY RETURNDATASIZE PUSH0 REVERT JUMPDEST POP POP POP POP PUSH1 0x40 MLOAD RETURNDATASIZE PUSH1 0x1F NOT PUSH1 0x1F DUP3 ADD AND DUP3 ADD DUP1 PUSH1 0x40 MSTORE POP DUP2 ADD SWAP1 PUSH2 0x1206 SWAP2 SWAP1 PUSH2 0x2218 JUMP JUMPDEST DUP2 MSTORE POP DUP4 DUP4 DUP2 MLOAD DUP2 LT PUSH2 0x121B JUMPI PUSH2 0x121B PUSH2 0x214B JUMP JUMPDEST PUSH1 0x20 SWAP1 DUP2 MUL SWAP2 SWAP1 SWAP2 ADD ADD MSTORE POP PUSH1 0x1 ADD PUSH2 0x1161 JUMP JUMPDEST POP PUSH1 0x8 SLOAD PUSH0 SWAP1 PUSH8 0xFFFFFFFFFFFFFFFF DUP2 GT ISZERO PUSH2 0x124D JUMPI PUSH2 0x124D PUSH2 0x1C75 JUMP JUMPDEST PUSH1 0x40 MLOAD SWAP1 DUP1 DUP3 MSTORE DUP1 PUSH1 0x20 MUL PUSH1 0x20 ADD DUP3 ADD PUSH1 0x40 MSTORE DUP1 ISZERO PUSH2 0x1296 JUMPI DUP2 PUSH1 0x20 ADD JUMPDEST PUSH1 0x40 DUP1 MLOAD PUSH1 0x60 DUP2 ADD DUP3 MSTORE PUSH0 DUP1 DUP3 MSTORE PUSH1 0x20 DUP1 DUP4 ADD DUP3 SWAP1 MSTORE SWAP3 DUP3 ADD MSTORE DUP3 MSTORE PUSH0 NOT SWAP1 SWAP3 ADD SWAP2 ADD DUP2 PUSH2 0x126B JUMPI SWAP1 POP JUMPDEST POP SWAP1 POP PUSH0 JUMPDEST PUSH1 0x8 SLOAD DUP2 LT ISZERO PUSH2 0x134B JUMPI PUSH0 PUSH1 0x8 DUP3 DUP2 SLOAD DUP2 LT PUSH2 0x12B9 JUMPI PUSH2 0x12B9 PUSH2 0x214B JUMP JUMPDEST PUSH0 SWAP2 DUP3 MSTORE PUSH1 0x20 SWAP2 DUP3 SWAP1 KECCAK256 PUSH1 0x40 DUP1 MLOAD PUSH1 0x60 DUP1 DUP3 ADD DUP4 MSTORE PUSH1 0x3 SWAP1 SWAP5 MUL SWAP1 SWAP3 ADD DUP1 SLOAD PUSH1 0x1 PUSH1 0x1 PUSH1 0xA0 SHL SUB SWAP1 DUP2 AND DUP5 MSTORE PUSH1 0x1 DUP3 ADD SLOAD DUP5 DUP8 ADD SWAP1 DUP2 MSTORE PUSH1 0x2 SWAP1 SWAP3 ADD SLOAD DUP2 AND DUP5 DUP5 ADD SWAP1 DUP2 MSTORE DUP4 MLOAD SWAP6 DUP7 ADD DUP5 MSTORE DUP5 MLOAD DUP3 AND DUP7 MSTORE SWAP2 MLOAD SWAP6 DUP6 ADD SWAP6 SWAP1 SWAP6 MSTORE MLOAD SWAP1 SWAP4 AND SWAP3 DUP3 ADD SWAP3 SWAP1 SWAP3 MSTORE DUP5 MLOAD SWAP2 SWAP3 POP SWAP1 DUP5 SWAP1 DUP5 SWAP1 DUP2 LT PUSH2 0x1337 JUMPI PUSH2 0x1337 PUSH2 0x214B JUMP JUMPDEST PUSH1 0x20 SWAP1 DUP2 MUL SWAP2 SWAP1 SWAP2 ADD ADD MSTORE POP PUSH1 0x1 ADD PUSH2 0x129B JUMP JUMPDEST POP PUSH1 0x40 MLOAD DUP1 PUSH2 0x140 ADD PUSH1 0x40 MSTORE DUP1 PUSH2 0x1369 PUSH0 SLOAD PUSH1 0x1 PUSH1 0x1 PUSH1 0xA0 SHL SUB AND SWAP1 JUMP JUMPDEST PUSH1 0x1 PUSH1 0x1 PUSH1 0xA0 SHL SUB AND DUP2 MSTORE PUSH1 0x4 SLOAD PUSH1 0x20 DUP3 ADD MSTORE PUSH1 0x3 SLOAD PUSH1 0x40 DUP3 ADD MSTORE PUSH1 0x60 ADD PUSH1 0x2 DUP1 DUP1 SLOAD PUSH1 0xFF AND SWAP1 DUP2 GT ISZERO PUSH2 0x139F JUMPI PUSH2 0x139F PUSH2 0x1C24 JUMP JUMPDEST EQ ISZERO ISZERO DUP2 MSTORE PUSH1 0x20 ADD PUSH32 0x0 ISZERO ISZERO DUP2 MSTORE PUSH1 0x20 ADD SELFBALANCE DUP2 MSTORE PUSH1 0x20 ADD PUSH1 0x5 DUP1 SLOAD DUP1 PUSH1 0x20 MUL PUSH1 0x20 ADD PUSH1 0x40 MLOAD SWAP1 DUP2 ADD PUSH1 0x40 MSTORE DUP1 SWAP3 SWAP2 SWAP1 DUP2 DUP2 MSTORE PUSH1 0x20 ADD DUP3 DUP1 SLOAD DUP1 ISZERO PUSH2 0x1429 JUMPI PUSH1 0x20 MUL DUP3 ADD SWAP2 SWAP1 PUSH0 MSTORE PUSH1 0x20 PUSH0 KECCAK256 SWAP1 JUMPDEST DUP2 SLOAD PUSH1 0x1 PUSH1 0x1 PUSH1 0xA0 SHL SUB AND DUP2 MSTORE PUSH1 0x1 SWAP1 SWAP2 ADD SWAP1 PUSH1 0x20 ADD DUP1 DUP4 GT PUSH2 0x140B JUMPI JUMPDEST POP POP POP POP POP DUP2 MSTORE PUSH1 0x20 ADD PUSH1 0x6 DUP1 SLOAD DUP1 PUSH1 0x20 MUL PUSH1 0x20 ADD PUSH1 0x40 MLOAD SWAP1 DUP2 ADD PUSH1 0x40 MSTORE DUP1 SWAP3 SWAP2 SWAP1 DUP2 DUP2 MSTORE PUSH1 0x20 ADD DUP3 DUP1 SLOAD DUP1 ISZERO PUSH2 0x147D JUMPI PUSH1 0x20 MUL DUP3 ADD SWAP2 SWAP1 PUSH0 MSTORE PUSH1 0x20 PUSH0 KECCAK256 SWAP1 JUMPDEST DUP2 SLOAD DUP2 MSTORE PUSH1 0x20 ADD SWAP1 PUSH1 0x1 ADD SWAP1 DUP1 DUP4 GT PUSH2 0x1469 JUMPI JUMPDEST POP POP POP POP POP DUP2 MSTORE PUSH1 0x20 ADD DUP4 DUP2 MSTORE PUSH1 0x20 ADD DUP3 DUP2 MSTORE POP SWAP3 POP POP POP SWAP1 JUMP JUMPDEST PUSH1 0x8 DUP2 DUP2 SLOAD DUP2 LT PUSH2 0x14A7 JUMPI PUSH0 DUP1 REVERT JUMPDEST PUSH0 SWAP2 DUP3 MSTORE PUSH1 0x20 SWAP1 SWAP2 KECCAK256 PUSH1 0x3 SWAP1 SWAP2 MUL ADD DUP1 SLOAD PUSH1 0x1 DUP3 ADD SLOAD PUSH1 0x2 SWAP1 SWAP3 ADD SLOAD PUSH1 0x1 PUSH1 0x1 PUSH1 0xA0 SHL SUB SWAP2 DUP3 AND SWAP4 POP AND DUP4 JUMP JUMPDEST PUSH2 0x14DC PUSH2 0x1511 JUMP JUMPDEST PUSH1 0x1 PUSH1 0x1 PUSH1 0xA0 SHL SUB DUP2 AND PUSH2 0x1505 JUMPI PUSH1 0x40 MLOAD PUSH4 0x1E4FBDF7 PUSH1 0xE0 SHL DUP2 MSTORE PUSH0 PUSH1 0x4 DUP3 ADD MSTORE PUSH1 0x24 ADD PUSH2 0x486 JUMP JUMPDEST PUSH2 0x150E DUP2 PUSH2 0x1A80 JUMP JUMPDEST POP JUMP JUMPDEST PUSH0 SLOAD PUSH1 0x1 PUSH1 0x1 PUSH1 0xA0 SHL SUB AND CALLER EQ PUSH2 0xFCC JUMPI PUSH1 0x40 MLOAD PUSH4 0x118CDAA7 PUSH1 0xE0 SHL DUP2 MSTORE CALLER PUSH1 0x4 DUP3 ADD MSTORE PUSH1 0x24 ADD PUSH2 0x486 JUMP JUMPDEST PUSH1 0x2 PUSH1 0x1 SLOAD SUB PUSH2 0xFCC JUMPI PUSH1 0x40 MLOAD PUSH4 0x3EE5AEB5 PUSH1 0xE0 SHL DUP2 MSTORE PUSH1 0x4 ADD PUSH1 0x40 MLOAD DUP1 SWAP2 SUB SWAP1 REVERT JUMPDEST PUSH0 DUP1 SLOAD PUSH1 0x1 PUSH1 0x1 PUSH1 0xA0 SHL SUB AND SWAP1 JUMPDEST PUSH1 0x7 SLOAD DUP2 LT ISZERO PUSH2 0x1684 JUMPI PUSH0 PUSH1 0x7 DUP3 DUP2 SLOAD DUP2 LT PUSH2 0x158C JUMPI PUSH2 0x158C PUSH2 0x214B JUMP JUMPDEST PUSH0 SWAP2 DUP3 MSTORE PUSH1 0x20 DUP3 KECCAK256 ADD SLOAD PUSH1 0x40 MLOAD PUSH4 0x70A08231 PUSH1 0xE0 SHL DUP2 MSTORE ADDRESS PUSH1 0x4 DUP3 ADD MSTORE PUSH1 0x1 PUSH1 0x1 PUSH1 0xA0 SHL SUB SWAP1 SWAP2 AND SWAP3 POP DUP3 SWAP1 PUSH4 0x70A08231 SWAP1 PUSH1 0x24 ADD PUSH1 0x20 PUSH1 0x40 MLOAD DUP1 DUP4 SUB DUP2 DUP7 GAS STATICCALL ISZERO DUP1 ISZERO PUSH2 0x15DC JUMPI RETURNDATASIZE PUSH0 DUP1 RETURNDATACOPY RETURNDATASIZE PUSH0 REVERT JUMPDEST POP POP POP POP PUSH1 0x40 MLOAD RETURNDATASIZE PUSH1 0x1F NOT PUSH1 0x1F DUP3 ADD AND DUP3 ADD DUP1 PUSH1 0x40 MSTORE POP DUP2 ADD SWAP1 PUSH2 0x1600 SWAP2 SWAP1 PUSH2 0x2218 JUMP JUMPDEST SWAP1 POP DUP1 ISZERO PUSH2 0x167A JUMPI PUSH1 0x40 MLOAD PUSH4 0xA9059CBB PUSH1 0xE0 SHL DUP2 MSTORE PUSH1 0x1 PUSH1 0x1 PUSH1 0xA0 SHL SUB DUP6 DUP2 AND PUSH1 0x4 DUP4 ADD MSTORE PUSH1 0x24 DUP3 ADD DUP4 SWAP1 MSTORE DUP4 AND SWAP1 PUSH4 0xA9059CBB SWAP1 PUSH1 0x44 ADD PUSH1 0x20 PUSH1 0x40 MLOAD DUP1 DUP4 SUB DUP2 PUSH0 DUP8 GAS CALL ISZERO DUP1 ISZERO PUSH2 0x1654 JUMPI RETURNDATASIZE PUSH0 DUP1 RETURNDATACOPY RETURNDATASIZE PUSH0 REVERT JUMPDEST POP POP POP POP PUSH1 0x40 MLOAD RETURNDATASIZE PUSH1 0x1F NOT PUSH1 0x1F DUP3 ADD AND DUP3 ADD DUP1 PUSH1 0x40 MSTORE POP DUP2 ADD SWAP1 PUSH2 0x1678 SWAP2 SWAP1 PUSH2 0x2183 JUMP JUMPDEST POP JUMPDEST POP POP PUSH1 0x1 ADD PUSH2 0x156E JUMP JUMPDEST POP PUSH0 JUMPDEST PUSH1 0x8 SLOAD DUP2 LT ISZERO PUSH2 0x1748 JUMPI PUSH0 PUSH1 0x8 DUP3 DUP2 SLOAD DUP2 LT PUSH2 0x16A5 JUMPI PUSH2 0x16A5 PUSH2 0x214B JUMP JUMPDEST PUSH0 SWAP2 DUP3 MSTORE PUSH1 0x20 SWAP2 DUP3 SWAP1 KECCAK256 PUSH1 0x40 DUP1 MLOAD PUSH1 0x60 DUP2 ADD DUP3 MSTORE PUSH1 0x3 SWAP1 SWAP4 MUL SWAP1 SWAP2 ADD DUP1 SLOAD PUSH1 0x1 PUSH1 0x1 PUSH1 0xA0 SHL SUB SWAP1 DUP2 AND DUP1 DUP6 MSTORE PUSH1 0x1 DUP4 ADD SLOAD SWAP6 DUP6 ADD DUP7 SWAP1 MSTORE PUSH1 0x2 SWAP1 SWAP3 ADD SLOAD AND DUP4 DUP4 ADD MSTORE SWAP1 MLOAD PUSH4 0x21421707 PUSH1 0xE1 SHL DUP2 MSTORE SWAP2 SWAP4 POP SWAP2 PUSH4 0x42842E0E SWAP2 PUSH2 0x170E SWAP2 ADDRESS SWAP2 DUP9 SWAP2 SWAP1 PUSH1 0x4 ADD PUSH2 0x215F JUMP JUMPDEST PUSH0 PUSH1 0x40 MLOAD DUP1 DUP4 SUB DUP2 PUSH0 DUP8 DUP1 EXTCODESIZE ISZERO DUP1 ISZERO PUSH2 0x1725 JUMPI PUSH0 DUP1 REVERT JUMPDEST POP GAS CALL ISZERO DUP1 ISZERO PUSH2 0x1737 JUMPI RETURNDATASIZE PUSH0 DUP1 RETURNDATACOPY RETURNDATASIZE PUSH0 REVERT JUMPDEST POP POP PUSH1 0x1 SWAP1 SWAP4 ADD SWAP3 POP PUSH2 0x1687 SWAP2 POP POP JUMP JUMPDEST POP SELFBALANCE DUP1 ISZERO PUSH2 0x17E8 JUMPI PUSH0 DUP3 PUSH1 0x1 PUSH1 0x1 PUSH1 0xA0 SHL SUB AND DUP3 PUSH1 0x40 MLOAD PUSH0 PUSH1 0x40 MLOAD DUP1 DUP4 SUB DUP2 DUP6 DUP8 GAS CALL SWAP3 POP POP POP RETURNDATASIZE DUP1 PUSH0 DUP2 EQ PUSH2 0x1799 JUMPI PUSH1 0x40 MLOAD SWAP2 POP PUSH1 0x1F NOT PUSH1 0x3F RETURNDATASIZE ADD AND DUP3 ADD PUSH1 0x40 MSTORE RETURNDATASIZE DUP3 MSTORE RETURNDATASIZE PUSH0 PUSH1 0x20 DUP5 ADD RETURNDATACOPY PUSH2 0x179E JUMP JUMPDEST PUSH1 0x60 SWAP2 POP JUMPDEST POP POP SWAP1 POP DUP1 PUSH2 0x17E6 JUMPI PUSH1 0x40 MLOAD PUSH3 0x461BCD PUSH1 0xE5 SHL DUP2 MSTORE PUSH1 0x20 PUSH1 0x4 DUP3 ADD MSTORE PUSH1 0x14 PUSH1 0x24 DUP3 ADD MSTORE PUSH20 0x22AA24103A3930B739B332B9103330B4B632B217 PUSH1 0x61 SHL PUSH1 0x44 DUP3 ADD MSTORE PUSH1 0x64 ADD PUSH2 0x486 JUMP JUMPDEST POP JUMPDEST POP POP JUMP JUMPDEST DUP5 MLOAD DUP7 MLOAD EQ PUSH2 0x183D JUMPI PUSH1 0x40 MLOAD PUSH3 0x461BCD PUSH1 0xE5 SHL DUP2 MSTORE PUSH1 0x20 PUSH1 0x4 DUP3 ADD MSTORE PUSH1 0x1C PUSH1 0x24 DUP3 ADD MSTORE PUSH32 0x48656972732F646973747269627574696F6E73206D69736D6174636800000000 PUSH1 0x44 DUP3 ADD MSTORE PUSH1 0x64 ADD PUSH2 0x486 JUMP JUMPDEST DUP6 MLOAD ISZERO PUSH2 0x18D2 JUMPI PUSH0 DUP1 JUMPDEST DUP7 MLOAD DUP2 LT ISZERO PUSH2 0x187F JUMPI DUP7 DUP2 DUP2 MLOAD DUP2 LT PUSH2 0x1862 JUMPI PUSH2 0x1862 PUSH2 0x214B JUMP JUMPDEST PUSH1 0x20 MUL PUSH1 0x20 ADD ADD MLOAD DUP3 PUSH2 0x1875 SWAP2 SWAP1 PUSH2 0x21B6 JUMP JUMPDEST SWAP2 POP PUSH1 0x1 ADD PUSH2 0x1847 JUMP JUMPDEST POP DUP1 PUSH1 0x64 EQ PUSH2 0x18D0 JUMPI PUSH1 0x40 MLOAD PUSH3 0x461BCD PUSH1 0xE5 SHL DUP2 MSTORE PUSH1 0x20 PUSH1 0x4 DUP3 ADD MSTORE PUSH1 0x1C PUSH1 0x24 DUP3 ADD MSTORE PUSH32 0x446973747269627574696F6E206D7573742073756D20746F2031303000000000 PUSH1 0x44 DUP3 ADD MSTORE PUSH1 0x64 ADD PUSH2 0x486 JUMP JUMPDEST POP JUMPDEST DUP6 MLOAD PUSH2 0x18E5 SWAP1 PUSH1 0x5 SWAP1 PUSH1 0x20 DUP10 ADD SWAP1 PUSH2 0x1B23 JUMP JUMPDEST POP DUP5 MLOAD PUSH2 0x18F9 SWAP1 PUSH1 0x6 SWAP1 PUSH1 0x20 DUP9 ADD SWAP1 PUSH2 0x1B86 JUMP JUMPDEST POP PUSH0 JUMPDEST DUP4 DUP2 LT ISZERO PUSH2 0x1979 JUMPI PUSH1 0x7 PUSH1 0x40 MLOAD DUP1 PUSH1 0x20 ADD PUSH1 0x40 MSTORE DUP1 DUP8 DUP8 DUP6 DUP2 DUP2 LT PUSH2 0x1923 JUMPI PUSH2 0x1923 PUSH2 0x214B JUMP JUMPDEST PUSH2 0x1939 SWAP3 PUSH1 0x20 PUSH1 0x40 SWAP1 SWAP3 MUL ADD SWAP1 DUP2 ADD SWAP2 POP PUSH2 0x20E8 JUMP JUMPDEST PUSH1 0x1 PUSH1 0x1 PUSH1 0xA0 SHL SUB SWAP1 DUP2 AND SWAP1 SWAP2 MSTORE DUP3 SLOAD PUSH1 0x1 DUP1 DUP3 ADD DUP6 SSTORE PUSH0 SWAP5 DUP6 MSTORE PUSH1 0x20 SWAP1 SWAP5 KECCAK256 SWAP3 MLOAD SWAP3 ADD DUP1 SLOAD PUSH1 0x1 PUSH1 0x1 PUSH1 0xA0 SHL SUB NOT AND SWAP3 SWAP1 SWAP2 AND SWAP2 SWAP1 SWAP2 OR SWAP1 SSTORE ADD PUSH2 0x18FC JUMP JUMPDEST POP PUSH0 JUMPDEST DUP2 DUP2 LT ISZERO PUSH2 0x1A77 JUMPI PUSH1 0x8 PUSH1 0x40 MLOAD DUP1 PUSH1 0x60 ADD PUSH1 0x40 MSTORE DUP1 DUP6 DUP6 DUP6 DUP2 DUP2 LT PUSH2 0x19A3 JUMPI PUSH2 0x19A3 PUSH2 0x214B JUMP JUMPDEST PUSH2 0x19B9 SWAP3 PUSH1 0x20 PUSH1 0x60 SWAP1 SWAP3 MUL ADD SWAP1 DUP2 ADD SWAP2 POP PUSH2 0x20E8 JUMP JUMPDEST PUSH1 0x1 PUSH1 0x1 PUSH1 0xA0 SHL SUB AND DUP2 MSTORE PUSH1 0x20 ADD DUP6 DUP6 DUP6 DUP2 DUP2 LT PUSH2 0x19D9 JUMPI PUSH2 0x19D9 PUSH2 0x214B JUMP JUMPDEST SWAP1 POP PUSH1 0x60 MUL ADD PUSH1 0x20 ADD CALLDATALOAD DUP2 MSTORE PUSH1 0x20 ADD DUP6 DUP6 DUP6 DUP2 DUP2 LT PUSH2 0x19FA JUMPI PUSH2 0x19FA PUSH2 0x214B JUMP JUMPDEST SWAP1 POP PUSH1 0x60 MUL ADD PUSH1 0x40 ADD PUSH1 0x20 DUP2 ADD SWAP1 PUSH2 0x1A12 SWAP2 SWAP1 PUSH2 0x20E8 JUMP JUMPDEST PUSH1 0x1 PUSH1 0x1 PUSH1 0xA0 SHL SUB SWAP1 DUP2 AND SWAP1 SWAP2 MSTORE DUP3 SLOAD PUSH1 0x1 DUP2 DUP2 ADD DUP6 SSTORE PUSH0 SWAP5 DUP6 MSTORE PUSH1 0x20 SWAP5 DUP6 SWAP1 KECCAK256 DUP5 MLOAD PUSH1 0x3 SWAP1 SWAP4 MUL ADD DUP1 SLOAD SWAP3 DUP5 AND PUSH1 0x1 PUSH1 0x1 PUSH1 0xA0 SHL SUB NOT SWAP4 DUP5 AND OR DUP2 SSTORE SWAP5 DUP5 ADD MLOAD DUP6 DUP3 ADD SSTORE PUSH1 0x40 SWAP1 SWAP4 ADD MLOAD PUSH1 0x2 SWAP1 SWAP5 ADD DUP1 SLOAD SWAP5 SWAP1 SWAP3 AND SWAP4 AND SWAP3 SWAP1 SWAP3 OR SWAP1 SWAP2 SSTORE ADD PUSH2 0x197C JUMP JUMPDEST POP POP POP POP POP POP POP JUMP JUMPDEST PUSH0 DUP1 SLOAD PUSH1 0x1 PUSH1 0x1 PUSH1 0xA0 SHL SUB DUP4 DUP2 AND PUSH1 0x1 PUSH1 0x1 PUSH1 0xA0 SHL SUB NOT DUP4 AND DUP2 OR DUP5 SSTORE PUSH1 0x40 MLOAD SWAP2 SWAP1 SWAP3 AND SWAP3 DUP4 SWAP2 PUSH32 0x8BE0079C531659141344CD1FD0A4F28419497F9722A3DAAFE3B4186F6B6457E0 SWAP2 SWAP1 LOG3 POP POP JUMP JUMPDEST POP DUP1 SLOAD PUSH0 DUP3 SSTORE SWAP1 PUSH0 MSTORE PUSH1 0x20 PUSH0 KECCAK256 SWAP1 DUP2 ADD SWAP1 PUSH2 0x150E SWAP2 SWAP1 PUSH2 0x1BBF JUMP JUMPDEST POP DUP1 SLOAD PUSH0 DUP3 SSTORE SWAP1 PUSH0 MSTORE PUSH1 0x20 PUSH0 KECCAK256 SWAP1 DUP2 ADD SWAP1 PUSH2 0x150E SWAP2 SWAP1 PUSH2 0x1BD3 JUMP JUMPDEST POP DUP1 SLOAD PUSH0 DUP3 SSTORE PUSH1 0x3 MUL SWAP1 PUSH0 MSTORE PUSH1 0x20 PUSH0 KECCAK256 SWAP1 DUP2 ADD SWAP1 PUSH2 0x150E SWAP2 SWAP1 PUSH2 0x1BF2 JUMP JUMPDEST DUP3 DUP1 SLOAD DUP3 DUP3 SSTORE SWAP1 PUSH0 MSTORE PUSH1 0x20 PUSH0 KECCAK256 SWAP1 DUP2 ADD SWAP3 DUP3 ISZERO PUSH2 0x1B76 JUMPI SWAP2 PUSH1 0x20 MUL DUP3 ADD JUMPDEST DUP3 DUP2 GT ISZERO PUSH2 0x1B76 JUMPI DUP3 MLOAD DUP3 SLOAD PUSH1 0x1 PUSH1 0x1 PUSH1 0xA0 SHL SUB NOT AND PUSH1 0x1 PUSH1 0x1 PUSH1 0xA0 SHL SUB SWAP1 SWAP2 AND OR DUP3 SSTORE PUSH1 0x20 SWAP1 SWAP3 ADD SWAP2 PUSH1 0x1 SWAP1 SWAP2 ADD SWAP1 PUSH2 0x1B41 JUMP JUMPDEST POP PUSH2 0x1B82 SWAP3 SWAP2 POP PUSH2 0x1BBF JUMP JUMPDEST POP SWAP1 JUMP JUMPDEST DUP3 DUP1 SLOAD DUP3 DUP3 SSTORE SWAP1 PUSH0 MSTORE PUSH1 0x20 PUSH0 KECCAK256 SWAP1 DUP2 ADD SWAP3 DUP3 ISZERO PUSH2 0x1B76 JUMPI SWAP2 PUSH1 0x20 MUL DUP3 ADD JUMPDEST DUP3 DUP2 GT ISZERO PUSH2 0x1B76 JUMPI DUP3 MLOAD DUP3 SSTORE SWAP2 PUSH1 0x20 ADD SWAP2 SWAP1 PUSH1 0x1 ADD SWAP1 PUSH2 0x1BA4 JUMP JUMPDEST JUMPDEST DUP1 DUP3 GT ISZERO PUSH2 0x1B82 JUMPI PUSH0 DUP2 SSTORE PUSH1 0x1 ADD PUSH2 0x1BC0 JUMP JUMPDEST JUMPDEST DUP1 DUP3 GT ISZERO PUSH2 0x1B82 JUMPI DUP1 SLOAD PUSH1 0x1 PUSH1 0x1 PUSH1 0xA0 SHL SUB NOT AND DUP2 SSTORE PUSH1 0x1 ADD PUSH2 0x1BD4 JUMP JUMPDEST JUMPDEST DUP1 DUP3 GT ISZERO PUSH2 0x1B82 JUMPI DUP1 SLOAD PUSH1 0x1 PUSH1 0x1 PUSH1 0xA0 SHL SUB NOT SWAP1 DUP2 AND DUP3 SSTORE PUSH0 PUSH1 0x1 DUP4 ADD SSTORE PUSH1 0x2 DUP3 ADD DUP1 SLOAD SWAP1 SWAP2 AND SWAP1 SSTORE PUSH1 0x3 ADD PUSH2 0x1BF3 JUMP JUMPDEST PUSH4 0x4E487B71 PUSH1 0xE0 SHL PUSH0 MSTORE PUSH1 0x21 PUSH1 0x4 MSTORE PUSH1 0x24 PUSH0 REVERT JUMPDEST PUSH1 0x20 DUP2 ADD PUSH1 0x3 DUP4 LT PUSH2 0x1C58 JUMPI PUSH4 0x4E487B71 PUSH1 0xE0 SHL PUSH0 MSTORE PUSH1 0x21 PUSH1 0x4 MSTORE PUSH1 0x24 PUSH0 REVERT JUMPDEST SWAP2 SWAP1 MSTORE SWAP1 JUMP JUMPDEST PUSH0 PUSH1 0x20 DUP3 DUP5 SUB SLT ISZERO PUSH2 0x1C6E JUMPI PUSH0 DUP1 REVERT JUMPDEST POP CALLDATALOAD SWAP2 SWAP1 POP JUMP JUMPDEST PUSH4 0x4E487B71 PUSH1 0xE0 SHL PUSH0 MSTORE PUSH1 0x41 PUSH1 0x4 MSTORE PUSH1 0x24 PUSH0 REVERT JUMPDEST PUSH1 0x40 MLOAD PUSH1 0x1F DUP3 ADD PUSH1 0x1F NOT AND DUP2 ADD PUSH8 0xFFFFFFFFFFFFFFFF DUP2 GT DUP3 DUP3 LT OR ISZERO PUSH2 0x1CB2 JUMPI PUSH2 0x1CB2 PUSH2 0x1C75 JUMP JUMPDEST PUSH1 0x40 MSTORE SWAP2 SWAP1 POP JUMP JUMPDEST PUSH0 PUSH8 0xFFFFFFFFFFFFFFFF DUP3 GT ISZERO PUSH2 0x1CD3 JUMPI PUSH2 0x1CD3 PUSH2 0x1C75 JUMP JUMPDEST POP PUSH1 0x5 SHL PUSH1 0x20 ADD SWAP1 JUMP JUMPDEST DUP1 CALLDATALOAD PUSH1 0x1 PUSH1 0x1 PUSH1 0xA0 SHL SUB DUP2 AND DUP2 EQ PUSH2 0x1CF3 JUMPI PUSH0 DUP1 REVERT JUMPDEST SWAP2 SWAP1 POP JUMP JUMPDEST PUSH0 DUP3 PUSH1 0x1F DUP4 ADD SLT PUSH2 0x1D07 JUMPI PUSH0 DUP1 REVERT JUMPDEST DUP2 CALLDATALOAD PUSH1 0x20 PUSH2 0x1D1C PUSH2 0x1D17 DUP4 PUSH2 0x1CBA JUMP JUMPDEST PUSH2 0x1C89 JUMP JUMPDEST DUP1 DUP4 DUP3 MSTORE PUSH1 0x20 DUP3 ADD SWAP2 POP PUSH1 0x20 DUP5 PUSH1 0x5 SHL DUP8 ADD ADD SWAP4 POP DUP7 DUP5 GT ISZERO PUSH2 0x1D3D JUMPI PUSH0 DUP1 REVERT JUMPDEST PUSH1 0x20 DUP7 ADD JUMPDEST DUP5 DUP2 LT ISZERO PUSH2 0x1D59 JUMPI DUP1 CALLDATALOAD DUP4 MSTORE SWAP2 DUP4 ADD SWAP2 DUP4 ADD PUSH2 0x1D42 JUMP JUMPDEST POP SWAP7 SWAP6 POP POP POP POP POP POP JUMP JUMPDEST PUSH0 DUP1 DUP4 PUSH1 0x1F DUP5 ADD SLT PUSH2 0x1D74 JUMPI PUSH0 DUP1 REVERT JUMPDEST POP DUP2 CALLDATALOAD PUSH8 0xFFFFFFFFFFFFFFFF DUP2 GT ISZERO PUSH2 0x1D8B JUMPI PUSH0 DUP1 REVERT JUMPDEST PUSH1 0x20 DUP4 ADD SWAP2 POP DUP4 PUSH1 0x20 DUP3 PUSH1 0x6 SHL DUP6 ADD ADD GT ISZERO PUSH2 0x1DA5 JUMPI PUSH0 DUP1 REVERT JUMPDEST SWAP3 POP SWAP3 SWAP1 POP JUMP JUMPDEST PUSH0 DUP1 DUP4 PUSH1 0x1F DUP5 ADD SLT PUSH2 0x1DBC JUMPI PUSH0 DUP1 REVERT JUMPDEST POP DUP2 CALLDATALOAD PUSH8 0xFFFFFFFFFFFFFFFF DUP2 GT ISZERO PUSH2 0x1DD3 JUMPI PUSH0 DUP1 REVERT JUMPDEST PUSH1 0x20 DUP4 ADD SWAP2 POP DUP4 PUSH1 0x20 PUSH1 0x60 DUP4 MUL DUP6 ADD ADD GT ISZERO PUSH2 0x1DA5 JUMPI PUSH0 DUP1 REVERT JUMPDEST PUSH0 DUP1 PUSH0 DUP1 PUSH0 DUP1 PUSH0 PUSH1 0xA0 DUP9 DUP11 SUB SLT ISZERO PUSH2 0x1E03 JUMPI PUSH0 DUP1 REVERT JUMPDEST DUP8 CALLDATALOAD SWAP7 POP PUSH1 0x20 DUP1 DUP10 ADD CALLDATALOAD PUSH8 0xFFFFFFFFFFFFFFFF DUP1 DUP3 GT ISZERO PUSH2 0x1E22 JUMPI PUSH0 DUP1 REVERT JUMPDEST DUP2 DUP12 ADD SWAP2 POP DUP12 PUSH1 0x1F DUP4 ADD SLT PUSH2 0x1E35 JUMPI PUSH0 DUP1 REVERT JUMPDEST DUP2 CALLDATALOAD PUSH2 0x1E43 PUSH2 0x1D17 DUP3 PUSH2 0x1CBA JUMP JUMPDEST DUP2 DUP2 MSTORE PUSH1 0x5 SWAP2 SWAP1 SWAP2 SHL DUP4 ADD DUP5 ADD SWAP1 DUP5 DUP2 ADD SWAP1 DUP15 DUP4 GT ISZERO PUSH2 0x1E61 JUMPI PUSH0 DUP1 REVERT JUMPDEST SWAP4 DUP6 ADD SWAP4 JUMPDEST DUP3 DUP6 LT ISZERO PUSH2 0x1E86 JUMPI PUSH2 0x1E77 DUP6 PUSH2 0x1CDD JUMP JUMPDEST DUP3 MSTORE SWAP4 DUP6 ADD SWAP4 SWAP1 DUP6 ADD SWAP1 PUSH2 0x1E66 JUMP JUMPDEST SWAP11 POP POP POP PUSH1 0x40 DUP12 ADD CALLDATALOAD SWAP3 POP DUP1 DUP4 GT ISZERO PUSH2 0x1E9D JUMPI PUSH0 DUP1 REVERT JUMPDEST PUSH2 0x1EA9 DUP13 DUP5 DUP14 ADD PUSH2 0x1CF8 JUMP JUMPDEST SWAP8 POP PUSH1 0x60 DUP12 ADD CALLDATALOAD SWAP3 POP DUP1 DUP4 GT ISZERO PUSH2 0x1EBE JUMPI PUSH0 DUP1 REVERT JUMPDEST PUSH2 0x1ECA DUP13 DUP5 DUP14 ADD PUSH2 0x1D64 JUMP JUMPDEST SWAP1 SWAP8 POP SWAP6 POP PUSH1 0x80 DUP12 ADD CALLDATALOAD SWAP3 POP DUP7 SWAP2 POP DUP1 DUP4 GT ISZERO PUSH2 0x1EE5 JUMPI PUSH0 DUP1 REVERT JUMPDEST POP POP PUSH2 0x1EF3 DUP11 DUP3 DUP12 ADD PUSH2 0x1DAC JUMP JUMPDEST SWAP9 SWAP12 SWAP8 SWAP11 POP SWAP6 SWAP9 POP SWAP4 SWAP7 SWAP3 SWAP6 SWAP3 SWAP4 POP POP POP JUMP JUMPDEST PUSH0 DUP2 MLOAD DUP1 DUP5 MSTORE PUSH1 0x20 DUP1 DUP6 ADD SWAP5 POP PUSH1 0x20 DUP5 ADD PUSH0 JUMPDEST DUP4 DUP2 LT ISZERO PUSH2 0x1F3E JUMPI DUP2 MLOAD PUSH1 0x1 PUSH1 0x1 PUSH1 0xA0 SHL SUB AND DUP8 MSTORE SWAP6 DUP3 ADD SWAP6 SWAP1 DUP3 ADD SWAP1 PUSH1 0x1 ADD PUSH2 0x1F19 JUMP JUMPDEST POP SWAP5 SWAP6 SWAP5 POP POP POP POP POP JUMP JUMPDEST PUSH0 DUP2 MLOAD DUP1 DUP5 MSTORE PUSH1 0x20 DUP1 DUP6 ADD SWAP5 POP PUSH1 0x20 DUP5 ADD PUSH0 JUMPDEST DUP4 DUP2 LT ISZERO PUSH2 0x1F3E JUMPI DUP2 MLOAD DUP8 MSTORE SWAP6 DUP3 ADD SWAP6 SWAP1 DUP3 ADD SWAP1 PUSH1 0x1 ADD PUSH2 0x1F5C JUMP JUMPDEST PUSH0 DUP2 MLOAD DUP1 DUP5 MSTORE PUSH1 0x20 DUP1 DUP6 ADD SWAP5 POP PUSH1 0x20 DUP5 ADD PUSH0 JUMPDEST DUP4 DUP2 LT ISZERO PUSH2 0x1F3E JUMPI DUP2 MLOAD DUP1 MLOAD PUSH1 0x1 PUSH1 0x1 PUSH1 0xA0 SHL SUB AND DUP9 MSTORE DUP4 ADD MLOAD DUP4 DUP9 ADD MSTORE PUSH1 0x40 SWAP1 SWAP7 ADD SWAP6 SWAP1 DUP3 ADD SWAP1 PUSH1 0x1 ADD PUSH2 0x1F8B JUMP JUMPDEST PUSH0 DUP2 MLOAD DUP1 DUP5 MSTORE PUSH1 0x20 DUP1 DUP6 ADD SWAP5 POP PUSH1 0x20 DUP5 ADD PUSH0 JUMPDEST DUP4 DUP2 LT ISZERO PUSH2 0x1F3E JUMPI DUP2 MLOAD DUP1 MLOAD PUSH1 0x1 PUSH1 0x1 PUSH1 0xA0 SHL SUB SWAP1 DUP2 AND DUP10 MSTORE DUP5 DUP3 ADD MLOAD DUP6 DUP11 ADD MSTORE PUSH1 0x40 SWAP2 DUP3 ADD MLOAD AND SWAP1 DUP9 ADD MSTORE PUSH1 0x60 SWAP1 SWAP7 ADD SWAP6 SWAP1 DUP3 ADD SWAP1 PUSH1 0x1 ADD PUSH2 0x1FCE JUMP JUMPDEST PUSH1 0x20 DUP2 MSTORE PUSH2 0x2026 PUSH1 0x20 DUP3 ADD DUP4 MLOAD PUSH1 0x1 PUSH1 0x1 PUSH1 0xA0 SHL SUB AND SWAP1 MSTORE JUMP JUMPDEST PUSH1 0x20 DUP3 ADD MLOAD PUSH1 0x40 DUP3 ADD MSTORE PUSH1 0x40 DUP3 ADD MLOAD PUSH1 0x60 DUP3 ADD MSTORE PUSH0 PUSH1 0x60 DUP4 ADD MLOAD PUSH2 0x204E PUSH1 0x80 DUP5 ADD DUP3 ISZERO ISZERO SWAP1 MSTORE JUMP JUMPDEST POP PUSH1 0x80 DUP4 ADD MLOAD DUP1 ISZERO ISZERO PUSH1 0xA0 DUP5 ADD MSTORE POP PUSH1 0xA0 DUP4 ADD MLOAD PUSH1 0xC0 DUP4 ADD MSTORE PUSH1 0xC0 DUP4 ADD MLOAD PUSH2 0x140 DUP1 PUSH1 0xE0 DUP6 ADD MSTORE PUSH2 0x2083 PUSH2 0x160 DUP6 ADD DUP4 PUSH2 0x1F06 JUMP JUMPDEST SWAP2 POP PUSH1 0xE0 DUP6 ADD MLOAD PUSH1 0x1F NOT PUSH2 0x100 DUP2 DUP8 DUP7 SUB ADD DUP2 DUP9 ADD MSTORE PUSH2 0x20A3 DUP6 DUP5 PUSH2 0x1F49 JUMP JUMPDEST SWAP5 POP DUP1 DUP9 ADD MLOAD SWAP3 POP POP PUSH2 0x120 DUP2 DUP8 DUP7 SUB ADD DUP2 DUP9 ADD MSTORE PUSH2 0x20C2 DUP6 DUP5 PUSH2 0x1F78 JUMP JUMPDEST SWAP1 DUP9 ADD MLOAD DUP8 DUP3 SUB SWAP1 SWAP3 ADD DUP5 DUP9 ADD MSTORE SWAP4 POP SWAP1 POP PUSH2 0x20DE DUP4 DUP3 PUSH2 0x1FBB JUMP JUMPDEST SWAP7 SWAP6 POP POP POP POP POP POP JUMP JUMPDEST PUSH0 PUSH1 0x20 DUP3 DUP5 SUB SLT ISZERO PUSH2 0x20F8 JUMPI PUSH0 DUP1 REVERT JUMPDEST PUSH2 0x2101 DUP3 PUSH2 0x1CDD JUMP JUMPDEST SWAP4 SWAP3 POP POP POP JUMP JUMPDEST PUSH1 0x20 DUP1 DUP3 MSTORE PUSH1 0x23 SWAP1 DUP3 ADD MSTORE PUSH32 0x57696C6C3A20496E76616C696420737461746520666F72207468697320616374 PUSH1 0x40 DUP3 ADD MSTORE PUSH3 0x34B7B7 PUSH1 0xE9 SHL PUSH1 0x60 DUP3 ADD MSTORE PUSH1 0x80 ADD SWAP1 JUMP JUMPDEST PUSH4 0x4E487B71 PUSH1 0xE0 SHL PUSH0 MSTORE PUSH1 0x32 PUSH1 0x4 MSTORE PUSH1 0x24 PUSH0 REVERT JUMPDEST PUSH1 0x1 PUSH1 0x1 PUSH1 0xA0 SHL SUB SWAP4 DUP5 AND DUP2 MSTORE SWAP2 SWAP1 SWAP3 AND PUSH1 0x20 DUP3 ADD MSTORE PUSH1 0x40 DUP2 ADD SWAP2 SWAP1 SWAP2 MSTORE PUSH1 0x60 ADD SWAP1 JUMP JUMPDEST PUSH0 PUSH1 0x20 DUP3 DUP5 SUB SLT ISZERO PUSH2 0x2193 JUMPI PUSH0 DUP1 REVERT JUMPDEST DUP2 MLOAD DUP1 ISZERO ISZERO DUP2 EQ PUSH2 0x2101 JUMPI PUSH0 DUP1 REVERT JUMPDEST PUSH4 0x4E487B71 PUSH1 0xE0 SHL PUSH0 MSTORE PUSH1 0x11 PUSH1 0x4 MSTORE PUSH1 0x24 PUSH0 REVERT JUMPDEST DUP1 DUP3 ADD DUP1 DUP3 GT ISZERO PUSH2 0x21C9 JUMPI PUSH2 0x21C9 PUSH2 0x21A2 JUMP JUMPDEST SWAP3 SWAP2 POP POP JUMP JUMPDEST DUP1 DUP3 MUL DUP2 ISZERO DUP3 DUP3 DIV DUP5 EQ OR PUSH2 0x21C9 JUMPI PUSH2 0x21C9 PUSH2 0x21A2 JUMP JUMPDEST PUSH0 DUP3 PUSH2 0x2200 JUMPI PUSH4 0x4E487B71 PUSH1 0xE0 SHL PUSH0 MSTORE PUSH1 0x12 PUSH1 0x4 MSTORE PUSH1 0x24 PUSH0 REVERT JUMPDEST POP DIV SWAP1 JUMP JUMPDEST DUP2 DUP2 SUB DUP2 DUP2 GT ISZERO PUSH2 0x21C9 JUMPI PUSH2 0x21C9 PUSH2 0x21A2 JUMP JUMPDEST PUSH0 PUSH1 0x20 DUP3 DUP5 SUB SLT ISZERO PUSH2 0x2228 JUMPI PUSH0 DUP1 REVERT JUMPDEST POP MLOAD SWAP2 SWAP1 POP JUMP INVALID LOG2 PUSH5 0x6970667358 0x22 SLT KECCAK256 0x21 SWAP11 MUL PUSH5 0xAA261C65D5 INVALID SWAP5 0xAA SWAP5 0xD3 0xDF GT SWAP15 0xE5 DELEGATECALL 0xC0 0xF7 0xC1 0x22 SELFDESTRUCT ISZERO 0xAC NUMBER LOG1 DUP16 0xFC MLOAD 0xE PUSH5 0x736F6C6343 STOP ADDMOD XOR STOP CALLER "
				},
				"gasEstimates": {
					"creation": {
						"codeDepositCost": "1761000",
						"executionCost": "infinite",
						"totalCost": "infinite"
					},
					"external": {
						"EXECUTION_FEE_BPS()": "284",
						"cancelAndWithdraw()": "infinite",
						"currentState()": "2374",
						"distributionPercentages(uint256)": "4640",
						"emptyWillForEdit()": "infinite",
						"erc20Assets(uint256)": "4678",
						"erc721Assets(uint256)": "9003",
						"execute()": "infinite",
						"executorAddress()": "infinite",
						"fundAndConfigure(uint256,address[],uint256[],(address,uint256)[],(address,uint256,address)[])": "infinite",
						"getWillDetails()": "infinite",
						"hasDiary()": "infinite",
						"heirs(uint256)": "4657",
						"initialize(uint256,address[],uint256[],(address,uint256)[],(address,uint256,address)[])": "infinite",
						"interval()": "2383",
						"lastUpdate()": "2338",
						"owner()": "2374",
						"ping()": "27682",
						"renounceOwnership()": "infinite",
						"sourceContract()": "infinite",
						"transferOwnership(address)": "28461"
					},
					"internal": {
						"_configure(address[] memory,uint256[] memory,struct Will.Erc20Distribution calldata[] calldata,struct Will.NftDistribution calldata[] calldata)": "infinite",
						"_returnAllAssets()": "infinite"
					}
				},
				"methodIdentifiers": {
					"EXECUTION_FEE_BPS()": "2395d975",
					"cancelAndWithdraw()": "6b892b22",
					"currentState()": "0c3f6acf",
					"distributionPercentages(uint256)": "1f99966a",
					"emptyWillForEdit()": "3027439c",
					"erc20Assets(uint256)": "9379f517",
					"erc721Assets(uint256)": "e15724a5",
					"execute()": "61461954",
					"executorAddress()": "a8e9a539",
					"fundAndConfigure(uint256,address[],uint256[],(address,uint256)[],(address,uint256,address)[])": "55952bef",
					"getWillDetails()": "cc4f9d5b",
					"hasDiary()": "eed35fea",
					"heirs(uint256)": "1c0795c3",
					"initialize(uint256,address[],uint256[],(address,uint256)[],(address,uint256,address)[])": "75d33fa1",
					"interval()": "947a36fb",
					"lastUpdate()": "c0463711",
					"owner()": "8da5cb5b",
					"ping()": "5c36b186",
					"renounceOwnership()": "715018a6",
					"sourceContract()": "a444ae41",
					"transferOwnership(address)": "f2fde38b"
				}
			},
			"storageLayout": {
				"storage": [
					{
						"astId": 8,
						"contract": "Will.sol:Will",
						"label": "_owner",
						"offset": 0,
						"slot": "0",
						"type": "t_address"
					},
					{
						"astId": 398,
						"contract": "Will.sol:Will",
						"label": "_status",
						"offset": 0,
						"slot": "1",
						"type": "t_uint256"
					},
					{
						"astId": 510,
						"contract": "Will.sol:Will",
						"label": "currentState",
						"offset": 0,
						"slot": "2",
						"type": "t_enum(WillState)507"
					},
					{
						"astId": 518,
						"contract": "Will.sol:Will",
						"label": "lastUpdate",
						"offset": 0,
						"slot": "3",
						"type": "t_uint256"
					},
					{
						"astId": 520,
						"contract": "Will.sol:Will",
						"label": "interval",
						"offset": 0,
						"slot": "4",
						"type": "t_uint256"
					},
					{
						"astId": 529,
						"contract": "Will.sol:Will",
						"label": "heirs",
						"offset": 0,
						"slot": "5",
						"type": "t_array(t_address)dyn_storage"
					},
					{
						"astId": 532,
						"contract": "Will.sol:Will",
						"label": "distributionPercentages",
						"offset": 0,
						"slot": "6",
						"type": "t_array(t_uint256)dyn_storage"
					},
					{
						"astId": 536,
						"contract": "Will.sol:Will",
						"label": "erc20Assets",
						"offset": 0,
						"slot": "7",
						"type": "t_array(t_struct(Erc20Asset)483_storage)dyn_storage"
					},
					{
						"astId": 540,
						"contract": "Will.sol:Will",
						"label": "erc721Assets",
						"offset": 0,
						"slot": "8",
						"type": "t_array(t_struct(Erc721Asset)491_storage)dyn_storage"
					}
				],
				"types": {
					"t_address": {
						"encoding": "inplace",
						"label": "address",
						"numberOfBytes": "20"
					},
					"t_array(t_address)dyn_storage": {
						"base": "t_address",
						"encoding": "dynamic_array",
						"label": "address[]",
						"numberOfBytes": "32"
					},
					"t_array(t_struct(Erc20Asset)483_storage)dyn_storage": {
						"base": "t_struct(Erc20Asset)483_storage",
						"encoding": "dynamic_array",
						"label": "struct Will.Erc20Asset[]",
						"numberOfBytes": "32"
					},
					"t_array(t_struct(Erc721Asset)491_storage)dyn_storage": {
						"base": "t_struct(Erc721Asset)491_storage",
						"encoding": "dynamic_array",
						"label": "struct Will.Erc721Asset[]",
						"numberOfBytes": "32"
					},
					"t_array(t_uint256)dyn_storage": {
						"base": "t_uint256",
						"encoding": "dynamic_array",
						"label": "uint256[]",
						"numberOfBytes": "32"
					},
					"t_contract(IERC20)225": {
						"encoding": "inplace",
						"label": "contract IERC20",
						"numberOfBytes": "20"
					},
					"t_contract(IERC721)342": {
						"encoding": "inplace",
						"label": "contract IERC721",
						"numberOfBytes": "20"
					},
					"t_enum(WillState)507": {
						"encoding": "inplace",
						"label": "enum Will.WillState",
						"numberOfBytes": "1"
					},
					"t_struct(Erc20Asset)483_storage": {
						"encoding": "inplace",
						"label": "struct Will.Erc20Asset",
						"members": [
							{
								"astId": 482,
								"contract": "Will.sol:Will",
								"label": "token",
								"offset": 0,
								"slot": "0",
								"type": "t_contract(IERC20)225"
							}
						],
						"numberOfBytes": "32"
					},
					"t_struct(Erc721Asset)491_storage": {
						"encoding": "inplace",
						"label": "struct Will.Erc721Asset",
						"members": [
							{
								"astId": 486,
								"contract": "Will.sol:Will",
								"label": "token",
								"offset": 0,
								"slot": "0",
								"type": "t_contract(IERC721)342"
							},
							{
								"astId": 488,
								"contract": "Will.sol:Will",
								"label": "tokenId",
								"offset": 0,
								"slot": "1",
								"type": "t_uint256"
							},
							{
								"astId": 490,
								"contract": "Will.sol:Will",
								"label": "heir",
								"offset": 0,
								"slot": "2",
								"type": "t_address"
							}
						],
						"numberOfBytes": "96"
					},
					"t_uint256": {
						"encoding": "inplace",
						"label": "uint256",
						"numberOfBytes": "32"
					}
				}
			},
			"userdoc": {
				"kind": "user",
				"methods": {},
				"version": 1
			}
		}
	}
}