{
	"data": {
		"bytecode": {
			"linkReferences": {},
			"object": "608060405234801561000f575f5ffd5b5060405161392838038061392883398181016040528101906100319190610266565b806040518060400160405280601a81526020017f44796e616d696320596f755475626520436f6c6c656374696f6e0000000000008152506040518060400160405280600481526020017f4459544300000000000000000000000000000000000000000000000000000000815250815f90816100ac91906104ce565b5080600190816100bc91906104ce565b5050505f73ffffffffffffffffffffffffffffffffffffffff168173ffffffffffffffffffffffffffffffffffffffff160361012f575f6040517f1e4fbdf700000000000000000000000000000000000000000000000000000000815260040161012691906105ac565b60405180910390fd5b61013e8161014560201b60201c565b50506105c5565b5f600a5f9054906101000a900473ffffffffffffffffffffffffffffffffffffffff16905081600a5f6101000a81548173ffffffffffffffffffffffffffffffffffffffff021916908373ffffffffffffffffffffffffffffffffffffffff1602179055508173ffffffffffffffffffffffffffffffffffffffff168173ffffffffffffffffffffffffffffffffffffffff167f8be0079c531659141344cd1fd0a4f28419497f9722a3daafe3b4186f6b6457e060405160405180910390a35050565b5f5ffd5b5f73ffffffffffffffffffffffffffffffffffffffff82169050919050565b5f6102358261020c565b9050919050565b6102458161022b565b811461024f575f5ffd5b50565b5f815190506102608161023c565b92915050565b5f6020828403121561027b5761027a610208565b5b5f61028884828501610252565b91505092915050565b5f81519050919050565b7f4e487b71000000000000000000000000000000000000000000000000000000005f52604160045260245ffd5b7f4e487b71000000000000000000000000000000000000000000000000000000005f52602260045260245ffd5b5f600282049050600182168061030c57607f821691505b60208210810361031f5761031e6102c8565b5b50919050565b5f819050815f5260205f209050919050565b5f6020601f8301049050919050565b5f82821b905092915050565b5f600883026103817fffffffffffffffffffffffffffffffffffffffffffffffffffffffffffffffff82610346565b61038b8683610346565b95508019841693508086168417925050509392505050565b5f819050919050565b5f819050919050565b5f6103cf6103ca6103c5846103a3565b6103ac565b6103a3565b9050919050565b5f819050919050565b6103e8836103b5565b6103fc6103f4826103d6565b848454610352565b825550505050565b5f5f905090565b610413610404565b61041e8184846103df565b505050565b5b81811015610441576104365f8261040b565b600181019050610424565b5050565b601f8211156104865761045781610325565b61046084610337565b8101602085101561046f578190505b61048361047b85610337565b830182610423565b50505b505050565b5f82821c905092915050565b5f6104a65f198460080261048b565b1980831691505092915050565b5f6104be8383610497565b9150826002028217905092915050565b6104d782610291565b67ffffffffffffffff8111156104f0576104ef61029b565b5b6104fa82546102f5565b610505828285610445565b5f60209050601f831160018114610536575f8415610524578287015190505b61052e85826104b3565b865550610595565b601f19841661054486610325565b5f5b8281101561056b57848901518255600182019150602085019450602081019050610546565b868310156105885784890151610584601f891682610497565b8355505b6001600288020188555050505b505050505050565b6105a68161022b565b82525050565b5f6020820190506105bf5f83018461059d565b92915050565b613356806105d25f395ff3fe608060405234801561000f575f5ffd5b5060043610610140575f3560e01c8063715018a6116100b6578063acbb85e51161007a578063acbb85e514610372578063b88d4fde146103a2578063c87b56dd146103be578063caa0f92a146103ee578063e985e9c51461040c578063f2fde38b1461043c57610140565b8063715018a6146102f45780637503714b146102fe5780638da5cb5b1461031a57806395d89b4114610338578063a22cb4651461035657610140565b806323b872dd1161010857806323b872dd146101fc5780632f745c591461021857806342842e0e146102485780634f6ccce7146102645780636352211e1461029457806370a08231146102c457610140565b806301ffc9a71461014457806306fdde0314610174578063081812fc14610192578063095ea7b3146101c257806318160ddd146101de575b5f5ffd5b61015e6004803603810190610159919061227c565b610458565b60405161016b91906122c1565b60405180910390f35b61017c6104d1565b604051610189919061234a565b60405180910390f35b6101ac60048036038101906101a7919061239d565b610560565b6040516101b99190612407565b60405180910390f35b6101dc60048036038101906101d7919061244a565b61057b565b005b6101e6610591565b6040516101f39190612497565b60405180910390f35b610216600480360381019061021191906124b0565b61059d565b005b610232600480360381019061022d919061244a565b61069c565b60405161023f9190612497565b60405180910390f35b610262600480360381019061025d91906124b0565b610740565b005b61027e6004803603810190610279919061239d565b61075f565b60405161028b9190612497565b60405180910390f35b6102ae60048036038101906102a9919061239d565b6107d1565b6040516102bb9190612407565b60405180910390f35b6102de60048036038101906102d99190612500565b6107e2565b6040516102eb9190612497565b60405180910390f35b6102fc610898565b005b61031860048036038101906103139190612657565b6108ab565b005b610322610941565b60405161032f9190612407565b60405180910390f35b610340610969565b60405161034d919061234a565b60405180910390f35b610370600480360381019061036b91906126db565b6109f9565b005b61038c6004803603810190610387919061239d565b610a0f565b604051610399919061234a565b60405180910390f35b6103bc60048036038101906103b791906127b7565b610aba565b005b6103d860048036038101906103d3919061239d565b610adf565b6040516103e5919061234a565b60405180910390f35b6103f6610c71565b6040516104039190612497565b60405180910390f35b61042660048036038101906104219190612837565b610c7a565b60405161043391906122c1565b60405180910390f35b61045660048036038101906104519190612500565b610d08565b005b5f7f780e9d63000000000000000000000000000000000000000000000000000000007bffffffffffffffffffffffffffffffffffffffffffffffffffffffff1916827bffffffffffffffffffffffffffffffffffffffffffffffffffffffff191614806104ca57506104c982610d8c565b5b9050919050565b60605f80546104df906128a2565b80601f016020809104026020016040519081016040528092919081815260200182805461050b906128a2565b80156105565780601f1061052d57610100808354040283529160200191610556565b820191905f5260205f20905b81548152906001019060200180831161053957829003601f168201915b5050505050905090565b5f61056a82610e6d565b5061057482610ef3565b9050919050565b61058d8282610588610f2c565b610f33565b5050565b5f600880549050905090565b5f73ffffffffffffffffffffffffffffffffffffffff168273ffffffffffffffffffffffffffffffffffffffff160361060d575f6040517f64a0ae920000000000000000000000000000000000000000000000000000000081526004016106049190612407565b60405180910390fd5b5f610620838361061b610f2c565b610f45565b90508373ffffffffffffffffffffffffffffffffffffffff168173ffffffffffffffffffffffffffffffffffffffff1614610696578382826040517f64283d7b00000000000000000000000000000000000000000000000000000000815260040161068d939291906128d2565b60405180910390fd5b50505050565b5f6106a6836107e2565b82106106eb5782826040517fa57d13dc0000000000000000000000000000000000000000000000000000000081526004016106e2929190612907565b60405180910390fd5b60065f8473ffffffffffffffffffffffffffffffffffffffff1673ffffffffffffffffffffffffffffffffffffffff1681526020019081526020015f205f8381526020019081526020015f2054905092915050565b61075a83838360405180602001604052805f815250610aba565b505050565b5f610768610591565b82106107ad575f826040517fa57d13dc0000000000000000000000000000000000000000000000000000000081526004016107a4929190612907565b60405180910390fd5b600882815481106107c1576107c061292e565b5b905f5260205f2001549050919050565b5f6107db82610e6d565b9050919050565b5f5f73ffffffffffffffffffffffffffffffffffffffff168273ffffffffffffffffffffffffffffffffffffffff1603610853575f6040517f89c62b6400000000000000000000000000000000000000000000000000000000815260040161084a9190612407565b60405180910390fd5b60035f8373ffffffffffffffffffffffffffffffffffffffff1673ffffffffffffffffffffffffffffffffffffffff1681526020019081526020015f20549050919050565b6108a061105f565b6108a95f6110e6565b565b6108b361105f565b5f8151116108f6576040517f08c379a00000000000000000000000000000000000000000000000000000000081526004016108ed906129a5565b60405180910390fd5b5f600c54905081600b5f8381526020019081526020015f20908161091a9190612b63565b5061092583826111a9565b600c5f81548092919061093790612c5f565b9190505550505050565b5f600a5f9054906101000a900473ffffffffffffffffffffffffffffffffffffffff16905090565b606060018054610978906128a2565b80601f01602080910402602001604051908101604052809291908181526020018280546109a4906128a2565b80156109ef5780601f106109c6576101008083540402835291602001916109ef565b820191905f5260205f20905b8154815290600101906020018083116109d257829003601f168201915b5050505050905090565b610a0b610a04610f2c565b83836111c6565b5050565b6060610a1a826107d1565b50600b5f8381526020019081526020015f208054610a37906128a2565b80601f0160208091040260200160405190810160405280929190818152602001828054610a63906128a2565b8015610aae5780601f10610a8557610100808354040283529160200191610aae565b820191905f5260205f20905b815481529060010190602001808311610a9157829003601f168201915b50505050509050919050565b610ac584848461059d565b610ad9610ad0610f2c565b8585858561132f565b50505050565b6060610aea826107d1565b505f600b5f8481526020019081526020015f208054610b08906128a2565b80601f0160208091040260200160405190810160405280929190818152602001828054610b34906128a2565b8015610b7f5780601f10610b5657610100808354040283529160200191610b7f565b820191905f5260205f20905b815481529060010190602001808311610b6257829003601f168201915b505050505090505f815111610bc9576040517f08c379a0000000000000000000000000000000000000000000000000000000008152600401610bc090612d16565b60405180910390fd5b5f81604051602001610bdb9190612e02565b60405160208183030381529060405290505f82604051602001610bfe9190612e78565b60405160208183030381529060405290505f610c44610c1c876114db565b8484604051602001610c309392919061300d565b6040516020818303038152906040526115a5565b905080604051602001610c5791906130b3565b604051602081830303815290604052945050505050919050565b5f600c54905090565b5f60055f8473ffffffffffffffffffffffffffffffffffffffff1673ffffffffffffffffffffffffffffffffffffffff1681526020019081526020015f205f8373ffffffffffffffffffffffffffffffffffffffff1673ffffffffffffffffffffffffffffffffffffffff1681526020019081526020015f205f9054906101000a900460ff16905092915050565b610d1061105f565b5f73ffffffffffffffffffffffffffffffffffffffff168173ffffffffffffffffffffffffffffffffffffffff1603610d80575f6040517f1e4fbdf7000000000000000000000000000000000000000000000000000000008152600401610d779190612407565b60405180910390fd5b610d89816110e6565b50565b5f7f80ac58cd000000000000000000000000000000000000000000000000000000007bffffffffffffffffffffffffffffffffffffffffffffffffffffffff1916827bffffffffffffffffffffffffffffffffffffffffffffffffffffffff19161480610e5657507f5b5e139f000000000000000000000000000000000000000000000000000000007bffffffffffffffffffffffffffffffffffffffffffffffffffffffff1916827bffffffffffffffffffffffffffffffffffffffffffffffffffffffff1916145b80610e665750610e65826115d2565b5b9050919050565b5f5f610e788361163b565b90505f73ffffffffffffffffffffffffffffffffffffffff168173ffffffffffffffffffffffffffffffffffffffff1603610eea57826040517f7e273289000000000000000000000000000000000000000000000000000000008152600401610ee19190612497565b60405180910390fd5b80915050919050565b5f60045f8381526020019081526020015f205f9054906101000a900473ffffffffffffffffffffffffffffffffffffffff169050919050565b5f33905090565b610f408383836001611674565b505050565b5f5f610f52858585611833565b90505f73ffffffffffffffffffffffffffffffffffffffff168173ffffffffffffffffffffffffffffffffffffffff1603610f9557610f9084611a3e565b610fd4565b8473ffffffffffffffffffffffffffffffffffffffff168173ffffffffffffffffffffffffffffffffffffffff1614610fd357610fd28185611a82565b5b5b5f73ffffffffffffffffffffffffffffffffffffffff168573ffffffffffffffffffffffffffffffffffffffff16036110155761101084611b59565b611054565b8473ffffffffffffffffffffffffffffffffffffffff168173ffffffffffffffffffffffffffffffffffffffff1614611053576110528585611c19565b5b5b809150509392505050565b611067610f2c565b73ffffffffffffffffffffffffffffffffffffffff16611085610941565b73ffffffffffffffffffffffffffffffffffffffff16146110e4576110a8610f2c565b6040517f118cdaa70000000000000000000000000000000000000000000000000000000081526004016110db9190612407565b60405180910390fd5b565b5f600a5f9054906101000a900473ffffffffffffffffffffffffffffffffffffffff16905081600a5f6101000a81548173ffffffffffffffffffffffffffffffffffffffff021916908373ffffffffffffffffffffffffffffffffffffffff1602179055508173ffffffffffffffffffffffffffffffffffffffff168173ffffffffffffffffffffffffffffffffffffffff167f8be0079c531659141344cd1fd0a4f28419497f9722a3daafe3b4186f6b6457e060405160405180910390a35050565b6111c2828260405180602001604052805f815250611c9d565b5050565b5f73ffffffffffffffffffffffffffffffffffffffff168273ffffffffffffffffffffffffffffffffffffffff160361123657816040517f5b08ba1800000000000000000000000000000000000000000000000000000000815260040161122d9190612407565b60405180910390fd5b8060055f8573ffffffffffffffffffffffffffffffffffffffff1673ffffffffffffffffffffffffffffffffffffffff1681526020019081526020015f205f8473ffffffffffffffffffffffffffffffffffffffff1673ffffffffffffffffffffffffffffffffffffffff1681526020019081526020015f205f6101000a81548160ff0219169083151502179055508173ffffffffffffffffffffffffffffffffffffffff168373ffffffffffffffffffffffffffffffffffffffff167f17307eab39ab6107e8899845ad3d59bd9653f200f220920489ca2b5937696c318360405161132291906122c1565b60405180910390a3505050565b5f8373ffffffffffffffffffffffffffffffffffffffff163b11156114d4578273ffffffffffffffffffffffffffffffffffffffff1663150b7a02868685856040518563ffffffff1660e01b815260040161138d9493929190613126565b6020604051808303815f875af19250505080156113c857506040513d601f19601f820116820180604052508101906113c59190613184565b60015b611449573d805f81146113f6576040519150601f19603f3d011682016040523d82523d5f602084013e6113fb565b606091505b505f81510361144157836040517f64a0ae920000000000000000000000000000000000000000000000000000000081526004016114389190612407565b60405180910390fd5b805181602001fd5b63150b7a0260e01b7bffffffffffffffffffffffffffffffffffffffffffffffffffffffff1916817bffffffffffffffffffffffffffffffffffffffffffffffffffffffff1916146114d257836040517f64a0ae920000000000000000000000000000000000000000000000000000000081526004016114c99190612407565b60405180910390fd5b505b5050505050565b60605f60016114e984611cc0565b0190505f8167ffffffffffffffff81111561150757611506612533565b5b6040519080825280601f01601f1916602001820160405280156115395781602001600182028036833780820191505090505b5090505f82602001820190505b60011561159a578080600190039150507f3031323334353637383961626364656600000000000000000000000000000000600a86061a8153600a858161158f5761158e6131af565b5b0494505f8503611546575b819350505050919050565b60606115cb826040518060600160405280604081526020016132e1604091396001611e11565b9050919050565b5f7f01ffc9a7000000000000000000000000000000000000000000000000000000007bffffffffffffffffffffffffffffffffffffffffffffffffffffffff1916827bffffffffffffffffffffffffffffffffffffffffffffffffffffffff1916149050919050565b5f60025f8381526020019081526020015f205f9054906101000a900473ffffffffffffffffffffffffffffffffffffffff169050919050565b80806116ac57505f73ffffffffffffffffffffffffffffffffffffffff168273ffffffffffffffffffffffffffffffffffffffff1614155b156117de575f6116bb84610e6d565b90505f73ffffffffffffffffffffffffffffffffffffffff168373ffffffffffffffffffffffffffffffffffffffff161415801561172557508273ffffffffffffffffffffffffffffffffffffffff168173ffffffffffffffffffffffffffffffffffffffff1614155b801561173857506117368184610c7a565b155b1561177a57826040517fa9fbf51f0000000000000000000000000000000000000000000000000000000081526004016117719190612407565b60405180910390fd5b81156117dc57838573ffffffffffffffffffffffffffffffffffffffff168273ffffffffffffffffffffffffffffffffffffffff167f8c5be1e5ebec7d5bd14f71427d1e84f3dd0314c0f7b2291e5b200ac8c7c3b92560405160405180910390a45b505b8360045f8581526020019081526020015f205f6101000a81548173ffffffffffffffffffffffffffffffffffffffff021916908373ffffffffffffffffffffffffffffffffffffffff16021790555050505050565b5f5f61183e8461163b565b90505f73ffffffffffffffffffffffffffffffffffffffff168373ffffffffffffffffffffffffffffffffffffffff161461187f5761187e818486611fa0565b5b5f73ffffffffffffffffffffffffffffffffffffffff168173ffffffffffffffffffffffffffffffffffffffff161461190a576118be5f855f5f611674565b600160035f8373ffffffffffffffffffffffffffffffffffffffff1673ffffffffffffffffffffffffffffffffffffffff1681526020019081526020015f205f82825403925050819055505b5f73ffffffffffffffffffffffffffffffffffffffff168573ffffffffffffffffffffffffffffffffffffffff161461198957600160035f8773ffffffffffffffffffffffffffffffffffffffff1673ffffffffffffffffffffffffffffffffffffffff1681526020019081526020015f205f82825401925050819055505b8460025f8681526020019081526020015f205f6101000a81548173ffffffffffffffffffffffffffffffffffffffff021916908373ffffffffffffffffffffffffffffffffffffffff160217905550838573ffffffffffffffffffffffffffffffffffffffff168273ffffffffffffffffffffffffffffffffffffffff167fddf252ad1be2c89b69c2b068fc378daa952ba7f163c4a11628f55a4df523b3ef60405160405180910390a4809150509392505050565b60088054905060095f8381526020019081526020015f2081905550600881908060018154018082558091505060019003905f5260205f20015f909190919091505550565b5f611a8c836107e2565b90505f60075f8481526020019081526020015f205490505f60065f8673ffffffffffffffffffffffffffffffffffffffff1673ffffffffffffffffffffffffffffffffffffffff1681526020019081526020015f209050828214611b2b575f815f8581526020019081526020015f2054905080825f8581526020019081526020015f20819055508260075f8381526020019081526020015f2081905550505b60075f8581526020019081526020015f205f9055805f8481526020019081526020015f205f90555050505050565b5f6001600880549050611b6c91906131dc565b90505f60095f8481526020019081526020015f205490505f60088381548110611b9857611b9761292e565b5b905f5260205f20015490508060088381548110611bb857611bb761292e565b5b905f5260205f2001819055508160095f8381526020019081526020015f208190555060095f8581526020019081526020015f205f90556008805480611c0057611bff61320f565b5b600190038181905f5260205f20015f9055905550505050565b5f6001611c25846107e2565b611c2f91906131dc565b90508160065f8573ffffffffffffffffffffffffffffffffffffffff1673ffffffffffffffffffffffffffffffffffffffff1681526020019081526020015f205f8381526020019081526020015f20819055508060075f8481526020019081526020015f2081905550505050565b611ca78383612063565b611cbb611cb2610f2c565b5f85858561132f565b505050565b5f5f5f90507a184f03e93ff9f4daa797ed6e38ed64bf6a1f0100000000000000008310611d1c577a184f03e93ff9f4daa797ed6e38ed64bf6a1f0100000000000000008381611d1257611d116131af565b5b0492506040810190505b6d04ee2d6d415b85acef81000000008310611d59576d04ee2d6d415b85acef81000000008381611d4f57611d4e6131af565b5b0492506020810190505b662386f26fc100008310611d8857662386f26fc100008381611d7e57611d7d6131af565b5b0492506010810190505b6305f5e1008310611db1576305f5e1008381611da757611da66131af565b5b0492506008810190505b6127108310611dd6576127108381611dcc57611dcb6131af565b5b0492506004810190505b60648310611df95760648381611def57611dee6131af565b5b0492506002810190505b600a8310611e08576001810190505b80915050919050565b60605f845103611e315760405180602001604052805f8152509050611f99565b5f82611e62576003600286516004611e49919061323c565b611e53919061327d565b611e5d91906132b0565b611e89565b600360028651611e72919061327d565b611e7c91906132b0565b6004611e88919061323c565b5b90505f8167ffffffffffffffff811115611ea657611ea5612533565b5b6040519080825280601f01601f191660200182016040528015611ed85781602001600182028036833780820191505090505b509050600185016020820187885189016020810180515f82525b82841015611f4d576003840193508351603f8160121c168701518653600186019550603f81600c1c168701518653600186019550603f8160061c168701518653600186019550603f8116870151865360018601955050611ef2565b8082528915611f8d5760038c510660018114611f705760028114611f8357611f8b565b603d6001870353603d6002870353611f8b565b603d60018703535b505b50505050505080925050505b9392505050565b611fab838383612156565b61205e575f73ffffffffffffffffffffffffffffffffffffffff168373ffffffffffffffffffffffffffffffffffffffff160361201f57806040517f7e2732890000000000000000000000000000000000000000000000000000000081526004016120169190612497565b60405180910390fd5b81816040517f177e802f000000000000000000000000000000000000000000000000000000008152600401612055929190612907565b60405180910390fd5b505050565b5f73ffffffffffffffffffffffffffffffffffffffff168273ffffffffffffffffffffffffffffffffffffffff16036120d3575f6040517f64a0ae920000000000000000000000000000000000000000000000000000000081526004016120ca9190612407565b60405180910390fd5b5f6120df83835f610f45565b90505f73ffffffffffffffffffffffffffffffffffffffff168173ffffffffffffffffffffffffffffffffffffffff1614612151575f6040517f73c6ac6e0000000000000000000000000000000000000000000000000000000081526004016121489190612407565b60405180910390fd5b505050565b5f5f73ffffffffffffffffffffffffffffffffffffffff168373ffffffffffffffffffffffffffffffffffffffff161415801561220d57508273ffffffffffffffffffffffffffffffffffffffff168473ffffffffffffffffffffffffffffffffffffffff1614806121ce57506121cd8484610c7a565b5b8061220c57508273ffffffffffffffffffffffffffffffffffffffff166121f483610ef3565b73ffffffffffffffffffffffffffffffffffffffff16145b5b90509392505050565b5f604051905090565b5f5ffd5b5f5ffd5b5f7fffffffff0000000000000000000000000000000000000000000000000000000082169050919050565b61225b81612227565b8114612265575f5ffd5b50565b5f8135905061227681612252565b92915050565b5f602082840312156122915761229061221f565b5b5f61229e84828501612268565b91505092915050565b5f8115159050919050565b6122bb816122a7565b82525050565b5f6020820190506122d45f8301846122b2565b92915050565b5f81519050919050565b5f82825260208201905092915050565b8281835e5f83830152505050565b5f601f19601f8301169050919050565b5f61231c826122da565b61232681856122e4565b93506123368185602086016122f4565b61233f81612302565b840191505092915050565b5f6020820190508181035f8301526123628184612312565b905092915050565b5f819050919050565b61237c8161236a565b8114612386575f5ffd5b50565b5f8135905061239781612373565b92915050565b5f602082840312156123b2576123b161221f565b5b5f6123bf84828501612389565b91505092915050565b5f73ffffffffffffffffffffffffffffffffffffffff82169050919050565b5f6123f1826123c8565b9050919050565b612401816123e7565b82525050565b5f60208201905061241a5f8301846123f8565b92915050565b612429816123e7565b8114612433575f5ffd5b50565b5f8135905061244481612420565b92915050565b5f5f604083850312156124605761245f61221f565b5b5f61246d85828601612436565b925050602061247e85828601612389565b9150509250929050565b6124918161236a565b82525050565b5f6020820190506124aa5f830184612488565b92915050565b5f5f5f606084860312156124c7576124c661221f565b5b5f6124d486828701612436565b93505060206124e586828701612436565b92505060406124f686828701612389565b9150509250925092565b5f602082840312156125155761251461221f565b5b5f61252284828501612436565b91505092915050565b5f5ffd5b5f5ffd5b7f4e487b71000000000000000000000000000000000000000000000000000000005f52604160045260245ffd5b61256982612302565b810181811067ffffffffffffffff8211171561258857612587612533565b5b80604052505050565b5f61259a612216565b90506125a68282612560565b919050565b5f67ffffffffffffffff8211156125c5576125c4612533565b5b6125ce82612302565b9050602081019050919050565b828183375f83830152505050565b5f6125fb6125f6846125ab565b612591565b9050828152602081018484840111156126175761261661252f565b5b6126228482856125db565b509392505050565b5f82601f83011261263e5761263d61252b565b5b813561264e8482602086016125e9565b91505092915050565b5f5f6040838503121561266d5761266c61221f565b5b5f61267a85828601612436565b925050602083013567ffffffffffffffff81111561269b5761269a612223565b5b6126a78582860161262a565b9150509250929050565b6126ba816122a7565b81146126c4575f5ffd5b50565b5f813590506126d5816126b1565b92915050565b5f5f604083850312156126f1576126f061221f565b5b5f6126fe85828601612436565b925050602061270f858286016126c7565b9150509250929050565b5f67ffffffffffffffff82111561273357612732612533565b5b61273c82612302565b9050602081019050919050565b5f61275b61275684612719565b612591565b9050828152602081018484840111156127775761277661252f565b5b6127828482856125db565b509392505050565b5f82601f83011261279e5761279d61252b565b5b81356127ae848260208601612749565b91505092915050565b5f5f5f5f608085870312156127cf576127ce61221f565b5b5f6127dc87828801612436565b94505060206127ed87828801612436565b93505060406127fe87828801612389565b925050606085013567ffffffffffffffff81111561281f5761281e612223565b5b61282b8782880161278a565b91505092959194509250565b5f5f6040838503121561284d5761284c61221f565b5b5f61285a85828601612436565b925050602061286b85828601612436565b9150509250929050565b7f4e487b71000000000000000000000000000000000000000000000000000000005f52602260045260245ffd5b5f60028204905060018216806128b957607f821691505b6020821081036128cc576128cb612875565b5b50919050565b5f6060820190506128e55f8301866123f8565b6128f26020830185612488565b6128ff60408301846123f8565b949350505050565b5f60408201905061291a5f8301856123f8565b6129276020830184612488565b9392505050565b7f4e487b71000000000000000000000000000000000000000000000000000000005f52603260045260245ffd5b7f566964656f2049442063616e6e6f7420626520656d70747900000000000000005f82015250565b5f61298f6018836122e4565b915061299a8261295b565b602082019050919050565b5f6020820190508181035f8301526129bc81612983565b9050919050565b5f819050815f5260205f209050919050565b5f6020601f8301049050919050565b5f82821b905092915050565b5f60088302612a1f7fffffffffffffffffffffffffffffffffffffffffffffffffffffffffffffffff826129e4565b612a2986836129e4565b95508019841693508086168417925050509392505050565b5f819050919050565b5f612a64612a5f612a5a8461236a565b612a41565b61236a565b9050919050565b5f819050919050565b612a7d83612a4a565b612a91612a8982612a6b565b8484546129f0565b825550505050565b5f5f905090565b612aa8612a99565b612ab3818484612a74565b505050565b5b81811015612ad657612acb5f82612aa0565b600181019050612ab9565b5050565b601f821115612b1b57612aec816129c3565b612af5846129d5565b81016020851015612b04578190505b612b18612b10856129d5565b830182612ab8565b50505b505050565b5f82821c905092915050565b5f612b3b5f1984600802612b20565b1980831691505092915050565b5f612b538383612b2c565b9150826002028217905092915050565b612b6c826122da565b67ffffffffffffffff811115612b8557612b84612533565b5b612b8f82546128a2565b612b9a828285612ada565b5f60209050601f831160018114612bcb575f8415612bb9578287015190505b612bc38582612b48565b865550612c2a565b601f198416612bd9866129c3565b5f5b82811015612c0057848901518255600182019150602085019450602081019050612bdb565b86831015612c1d5784890151612c19601f891682612b2c565b8355505b6001600288020188555050505b505050505050565b7f4e487b71000000000000000000000000000000000000000000000000000000005f52601160045260245ffd5b5f612c698261236a565b91507fffffffffffffffffffffffffffffffffffffffffffffffffffffffffffffffff8203612c9b57612c9a612c32565b5b600182019050919050565b7f546f6b656e5552493a20496e76616c696420746f6b656e204944206f722076695f8201527f64656f204944206e6f7420666f756e6400000000000000000000000000000000602082015250565b5f612d006030836122e4565b9150612d0b82612ca6565b604082019050919050565b5f6020820190508181035f830152612d2d81612cf4565b9050919050565b5f81905092915050565b7f68747470733a2f2f696d672e796f75747562652e636f6d2f76692f00000000005f82015250565b5f612d72601b83612d34565b9150612d7d82612d3e565b601b82019050919050565b5f612d92826122da565b612d9c8185612d34565b9350612dac8185602086016122f4565b80840191505092915050565b7f2f687164656661756c742e6a70670000000000000000000000000000000000005f82015250565b5f612dec600e83612d34565b9150612df782612db8565b600e82019050919050565b5f612e0c82612d66565b9150612e188284612d88565b9150612e2382612de0565b915081905092915050565b7f68747470733a2f2f7777772e796f75747562652e636f6d2f656d6265642f00005f82015250565b5f612e62601e83612d34565b9150612e6d82612e2e565b601e82019050919050565b5f612e8282612e56565b9150612e8e8284612d88565b915081905092915050565b7f7b226e616d65223a2022596f7554756265204e465420230000000000000000005f82015250565b5f612ecd601783612d34565b9150612ed882612e99565b601782019050919050565b7f222c20226465736372697074696f6e223a2022412064796e616d6963616c6c795f8201527f206d696e746564204e46542066726f6d20612067726f77696e6720636f6c6c6560208201527f6374696f6e2e222c2022696d616765223a202200000000000000000000000000604082015250565b5f612f63605383612d34565b9150612f6e82612ee3565b605382019050919050565b7f222c2022616e696d6174696f6e5f75726c223a202200000000000000000000005f82015250565b5f612fad601583612d34565b9150612fb882612f79565b601582019050919050565b7f227d0000000000000000000000000000000000000000000000000000000000005f82015250565b5f612ff7600283612d34565b915061300282612fc3565b600282019050919050565b5f61301782612ec1565b91506130238286612d88565b915061302e82612f57565b915061303a8285612d88565b915061304582612fa1565b91506130518284612d88565b915061305c82612feb565b9150819050949350505050565b7f646174613a6170706c69636174696f6e2f6a736f6e3b6261736536342c0000005f82015250565b5f61309d601d83612d34565b91506130a882613069565b601d82019050919050565b5f6130bd82613091565b91506130c98284612d88565b915081905092915050565b5f81519050919050565b5f82825260208201905092915050565b5f6130f8826130d4565b61310281856130de565b93506131128185602086016122f4565b61311b81612302565b840191505092915050565b5f6080820190506131395f8301876123f8565b61314660208301866123f8565b6131536040830185612488565b818103606083015261316581846130ee565b905095945050505050565b5f8151905061317e81612252565b92915050565b5f602082840312156131995761319861221f565b5b5f6131a684828501613170565b91505092915050565b7f4e487b71000000000000000000000000000000000000000000000000000000005f52601260045260245ffd5b5f6131e68261236a565b91506131f18361236a565b925082820390508181111561320957613208612c32565b5b92915050565b7f4e487b71000000000000000000000000000000000000000000000000000000005f52603160045260245ffd5b5f6132468261236a565b91506132518361236a565b925082820261325f8161236a565b9150828204841483151761327657613275612c32565b5b5092915050565b5f6132878261236a565b91506132928361236a565b92508282019050808211156132aa576132a9612c32565b5b92915050565b5f6132ba8261236a565b91506132c58361236a565b9250826132d5576132d46131af565b5b82820490509291505056fe4142434445464748494a4b4c4d4e4f505152535455565758595a6162636465666768696a6b6c6d6e6f707172737475767778797a303132333435363738392b2fa2646970667358221220e1f8f20b15a4387806d0381c90f35a97f98f289bcb30f1ec182cbb9942f9db1664736f6c634300081e0033",
			"opcodes": "PUSH1 0x80 PUSH1 0x40 MSTORE CALLVALUE DUP1 ISZERO PUSH2 0xF JUMPI PUSH0 PUSH0 REVERT JUMPDEST POP PUSH1 0x40 MLOAD PUSH2 0x3928 CODESIZE SUB DUP1 PUSH2 0x3928 DUP4 CODECOPY DUP2 DUP2 ADD PUSH1 0x40 MSTORE DUP2 ADD SWAP1 PUSH2 0x31 SWAP2 SWAP1 PUSH2 0x266 JUMP JUMPDEST DUP1 PUSH1 0x40 MLOAD DUP1 PUSH1 0x40 ADD PUSH1 0x40 MSTORE DUP1 PUSH1 0x1A DUP2 MSTORE PUSH1 0x20 ADD PUSH32 0x44796E616D696320596F755475626520436F6C6C656374696F6E000000000000 DUP2 MSTORE POP PUSH1 0x40 MLOAD DUP1 PUSH1 0x40 ADD PUSH1 0x40 MSTORE DUP1 PUSH1 0x4 DUP2 MSTORE PUSH1 0x20 ADD PUSH32 0x4459544300000000000000000000000000000000000000000000000000000000 DUP2 MSTORE POP DUP2 PUSH0 SWAP1 DUP2 PUSH2 0xAC SWAP2 SWAP1 PUSH2 0x4CE JUMP JUMPDEST POP DUP1 PUSH1 0x1 SWAP1 DUP2 PUSH2 0xBC SWAP2 SWAP1 PUSH2 0x4CE JUMP JUMPDEST POP POP POP PUSH0 PUSH20 0xFFFFFFFFFFFFFFFFFFFFFFFFFFFFFFFFFFFFFFFF AND DUP2 PUSH20 0xFFFFFFFFFFFFFFFFFFFFFFFFFFFFFFFFFFFFFFFF AND SUB PUSH2 0x12F JUMPI PUSH0 PUSH1 0x40 MLOAD PUSH32 0x1E4FBDF700000000000000000000000000000000000000000000000000000000 DUP2 MSTORE PUSH1 0x4 ADD PUSH2 0x126 SWAP2 SWAP1 PUSH2 0x5AC JUMP JUMPDEST PUSH1 0x40 MLOAD DUP1 SWAP2 SUB SWAP1 REVERT JUMPDEST PUSH2 0x13E DUP2 PUSH2 0x145 PUSH1 0x20 SHL PUSH1 0x20 SHR JUMP JUMPDEST POP POP PUSH2 0x5C5 JUMP JUMPDEST PUSH0 PUSH1 0xA PUSH0 SWAP1 SLOAD SWAP1 PUSH2 0x100 EXP SWAP1 DIV PUSH20 0xFFFFFFFFFFFFFFFFFFFFFFFFFFFFFFFFFFFFFFFF AND SWAP1 POP DUP2 PUSH1 0xA PUSH0 PUSH2 0x100 EXP DUP2 SLOAD DUP2 PUSH20 0xFFFFFFFFFFFFFFFFFFFFFFFFFFFFFFFFFFFFFFFF MUL NOT AND SWAP1 DUP4 PUSH20 0xFFFFFFFFFFFFFFFFFFFFFFFFFFFFFFFFFFFFFFFF AND MUL OR SWAP1 SSTORE POP DUP2 PUSH20 0xFFFFFFFFFFFFFFFFFFFFFFFFFFFFFFFFFFFFFFFF AND DUP2 PUSH20 0xFFFFFFFFFFFFFFFFFFFFFFFFFFFFFFFFFFFFFFFF AND PUSH32 0x8BE0079C531659141344CD1FD0A4F28419497F9722A3DAAFE3B4186F6B6457E0 PUSH1 0x40 MLOAD PUSH1 0x40 MLOAD DUP1 SWAP2 SUB SWAP1 LOG3 POP POP JUMP JUMPDEST PUSH0 PUSH0 REVERT JUMPDEST PUSH0 PUSH20 0xFFFFFFFFFFFFFFFFFFFFFFFFFFFFFFFFFFFFFFFF DUP3 AND SWAP1 POP SWAP2 SWAP1 POP JUMP JUMPDEST PUSH0 PUSH2 0x235 DUP3 PUSH2 0x20C JUMP JUMPDEST SWAP1 POP SWAP2 SWAP1 POP JUMP JUMPDEST PUSH2 0x245 DUP2 PUSH2 0x22B JUMP JUMPDEST DUP2 EQ PUSH2 0x24F JUMPI PUSH0 PUSH0 REVERT JUMPDEST POP JUMP JUMPDEST PUSH0 DUP2 MLOAD SWAP1 POP PUSH2 0x260 DUP2 PUSH2 0x23C JUMP JUMPDEST SWAP3 SWAP2 POP POP JUMP JUMPDEST PUSH0 PUSH1 0x20 DUP3 DUP5 SUB SLT ISZERO PUSH2 0x27B JUMPI PUSH2 0x27A PUSH2 0x208 JUMP JUMPDEST JUMPDEST PUSH0 PUSH2 0x288 DUP5 DUP3 DUP6 ADD PUSH2 0x252 JUMP JUMPDEST SWAP2 POP POP SWAP3 SWAP2 POP POP JUMP JUMPDEST PUSH0 DUP2 MLOAD SWAP1 POP SWAP2 SWAP1 POP JUMP JUMPDEST PUSH32 0x4E487B7100000000000000000000000000000000000000000000000000000000 PUSH0 MSTORE PUSH1 0x41 PUSH1 0x4 MSTORE PUSH1 0x24 PUSH0 REVERT JUMPDEST PUSH32 0x4E487B7100000000000000000000000000000000000000000000000000000000 PUSH0 MSTORE PUSH1 0x22 PUSH1 0x4 MSTORE PUSH1 0x24 PUSH0 REVERT JUMPDEST PUSH0 PUSH1 0x2 DUP3 DIV SWAP1 POP PUSH1 0x1 DUP3 AND DUP1 PUSH2 0x30C JUMPI PUSH1 0x7F DUP3 AND SWAP2 POP JUMPDEST PUSH1 0x20 DUP3 LT DUP2 SUB PUSH2 0x31F JUMPI PUSH2 0x31E PUSH2 0x2C8 JUMP JUMPDEST JUMPDEST POP SWAP2 SWAP1 POP JUMP JUMPDEST PUSH0 DUP2 SWAP1 POP DUP2 PUSH0 MSTORE PUSH1 0x20 PUSH0 KECCAK256 SWAP1 POP SWAP2 SWAP1 POP JUMP JUMPDEST PUSH0 PUSH1 0x20 PUSH1 0x1F DUP4 ADD DIV SWAP1 POP SWAP2 SWAP1 POP JUMP JUMPDEST PUSH0 DUP3 DUP3 SHL SWAP1 POP SWAP3 SWAP2 POP POP JUMP JUMPDEST PUSH0 PUSH1 0x8 DUP4 MUL PUSH2 0x381 PUSH32 0xFFFFFFFFFFFFFFFFFFFFFFFFFFFFFFFFFFFFFFFFFFFFFFFFFFFFFFFFFFFFFFFF DUP3 PUSH2 0x346 JUMP JUMPDEST PUSH2 0x38B DUP7 DUP4 PUSH2 0x346 JUMP JUMPDEST SWAP6 POP DUP1 NOT DUP5 AND SWAP4 POP DUP1 DUP7 AND DUP5 OR SWAP3 POP POP POP SWAP4 SWAP3 POP POP POP JUMP JUMPDEST PUSH0 DUP2 SWAP1 POP SWAP2 SWAP1 POP JUMP JUMPDEST PUSH0 DUP2 SWAP1 POP SWAP2 SWAP1 POP JUMP JUMPDEST PUSH0 PUSH2 0x3CF PUSH2 0x3CA PUSH2 0x3C5 DUP5 PUSH2 0x3A3 JUMP JUMPDEST PUSH2 0x3AC JUMP JUMPDEST PUSH2 0x3A3 JUMP JUMPDEST SWAP1 POP SWAP2 SWAP1 POP JUMP JUMPDEST PUSH0 DUP2 SWAP1 POP SWAP2 SWAP1 POP JUMP JUMPDEST PUSH2 0x3E8 DUP4 PUSH2 0x3B5 JUMP JUMPDEST PUSH2 0x3FC PUSH2 0x3F4 DUP3 PUSH2 0x3D6 JUMP JUMPDEST DUP5 DUP5 SLOAD PUSH2 0x352 JUMP JUMPDEST DUP3 SSTORE POP POP POP POP JUMP JUMPDEST PUSH0 PUSH0 SWAP1 POP SWAP1 JUMP JUMPDEST PUSH2 0x413 PUSH2 0x404 JUMP JUMPDEST PUSH2 0x41E DUP2 DUP5 DUP5 PUSH2 0x3DF JUMP JUMPDEST POP POP POP JUMP JUMPDEST JUMPDEST DUP2 DUP2 LT ISZERO PUSH2 0x441 JUMPI PUSH2 0x436 PUSH0 DUP3 PUSH2 0x40B JUMP JUMPDEST PUSH1 0x1 DUP2 ADD SWAP1 POP PUSH2 0x424 JUMP JUMPDEST POP POP JUMP JUMPDEST PUSH1 0x1F DUP3 GT ISZERO PUSH2 0x486 JUMPI PUSH2 0x457 DUP2 PUSH2 0x325 JUMP JUMPDEST PUSH2 0x460 DUP5 PUSH2 0x337 JUMP JUMPDEST DUP2 ADD PUSH1 0x20 DUP6 LT ISZERO PUSH2 0x46F JUMPI DUP2 SWAP1 POP JUMPDEST PUSH2 0x483 PUSH2 0x47B DUP6 PUSH2 0x337 JUMP JUMPDEST DUP4 ADD DUP3 PUSH2 0x423 JUMP JUMPDEST POP POP JUMPDEST POP POP POP JUMP JUMPDEST PUSH0 DUP3 DUP3 SHR SWAP1 POP SWAP3 SWAP2 POP POP JUMP JUMPDEST PUSH0 PUSH2 0x4A6 PUSH0 NOT DUP5 PUSH1 0x8 MUL PUSH2 0x48B JUMP JUMPDEST NOT DUP1 DUP4 AND SWAP2 POP POP SWAP3 SWAP2 POP POP JUMP JUMPDEST PUSH0 PUSH2 0x4BE DUP4 DUP4 PUSH2 0x497 JUMP JUMPDEST SWAP2 POP DUP3 PUSH1 0x2 MUL DUP3 OR SWAP1 POP SWAP3 SWAP2 POP POP JUMP JUMPDEST PUSH2 0x4D7 DUP3 PUSH2 0x291 JUMP JUMPDEST PUSH8 0xFFFFFFFFFFFFFFFF DUP2 GT ISZERO PUSH2 0x4F0 JUMPI PUSH2 0x4EF PUSH2 0x29B JUMP JUMPDEST JUMPDEST PUSH2 0x4FA DUP3 SLOAD PUSH2 0x2F5 JUMP JUMPDEST PUSH2 0x505 DUP3 DUP3 DUP6 PUSH2 0x445 JUMP JUMPDEST PUSH0 PUSH1 0x20 SWAP1 POP PUSH1 0x1F DUP4 GT PUSH1 0x1 DUP2 EQ PUSH2 0x536 JUMPI PUSH0 DUP5 ISZERO PUSH2 0x524 JUMPI DUP3 DUP8 ADD MLOAD SWAP1 POP JUMPDEST PUSH2 0x52E DUP6 DUP3 PUSH2 0x4B3 JUMP JUMPDEST DUP7 SSTORE POP PUSH2 0x595 JUMP JUMPDEST PUSH1 0x1F NOT DUP5 AND PUSH2 0x544 DUP7 PUSH2 0x325 JUMP JUMPDEST PUSH0 JUMPDEST DUP3 DUP2 LT ISZERO PUSH2 0x56B JUMPI DUP5 DUP10 ADD MLOAD DUP3 SSTORE PUSH1 0x1 DUP3 ADD SWAP2 POP PUSH1 0x20 DUP6 ADD SWAP5 POP PUSH1 0x20 DUP2 ADD SWAP1 POP PUSH2 0x546 JUMP JUMPDEST DUP7 DUP4 LT ISZERO PUSH2 0x588 JUMPI DUP5 DUP10 ADD MLOAD PUSH2 0x584 PUSH1 0x1F DUP10 AND DUP3 PUSH2 0x497 JUMP JUMPDEST DUP4 SSTORE POP JUMPDEST PUSH1 0x1 PUSH1 0x2 DUP9 MUL ADD DUP9 SSTORE POP POP POP JUMPDEST POP POP POP POP POP POP JUMP JUMPDEST PUSH2 0x5A6 DUP2 PUSH2 0x22B JUMP JUMPDEST DUP3 MSTORE POP POP JUMP JUMPDEST PUSH0 PUSH1 0x20 DUP3 ADD SWAP1 POP PUSH2 0x5BF PUSH0 DUP4 ADD DUP5 PUSH2 0x59D JUMP JUMPDEST SWAP3 SWAP2 POP POP JUMP JUMPDEST PUSH2 0x3356 DUP1 PUSH2 0x5D2 PUSH0 CODECOPY PUSH0 RETURN INVALID PUSH1 0x80 PUSH1 0x40 MSTORE CALLVALUE DUP1 ISZERO PUSH2 0xF JUMPI PUSH0 PUSH0 REVERT JUMPDEST POP PUSH1 0x4 CALLDATASIZE LT PUSH2 0x140 JUMPI PUSH0 CALLDATALOAD PUSH1 0xE0 SHR DUP1 PUSH4 0x715018A6 GT PUSH2 0xB6 JUMPI DUP1 PUSH4 0xACBB85E5 GT PUSH2 0x7A JUMPI DUP1 PUSH4 0xACBB85E5 EQ PUSH2 0x372 JUMPI DUP1 PUSH4 0xB88D4FDE EQ PUSH2 0x3A2 JUMPI DUP1 PUSH4 0xC87B56DD EQ PUSH2 0x3BE JUMPI DUP1 PUSH4 0xCAA0F92A EQ PUSH2 0x3EE JUMPI DUP1 PUSH4 0xE985E9C5 EQ PUSH2 0x40C JUMPI DUP1 PUSH4 0xF2FDE38B EQ PUSH2 0x43C JUMPI PUSH2 0x140 JUMP JUMPDEST DUP1 PUSH4 0x715018A6 EQ PUSH2 0x2F4 JUMPI DUP1 PUSH4 0x7503714B EQ PUSH2 0x2FE JUMPI DUP1 PUSH4 0x8DA5CB5B EQ PUSH2 0x31A JUMPI DUP1 PUSH4 0x95D89B41 EQ PUSH2 0x338 JUMPI DUP1 PUSH4 0xA22CB465 EQ PUSH2 0x356 JUMPI PUSH2 0x140 JUMP JUMPDEST DUP1 PUSH4 0x23B872DD GT PUSH2 0x108 JUMPI DUP1 PUSH4 0x23B872DD EQ PUSH2 0x1FC JUMPI DUP1 PUSH4 0x2F745C59 EQ PUSH2 0x218 JUMPI DUP1 PUSH4 0x42842E0E EQ PUSH2 0x248 JUMPI DUP1 PUSH4 0x4F6CCCE7 EQ PUSH2 0x264 JUMPI DUP1 PUSH4 0x6352211E EQ PUSH2 0x294 JUMPI DUP1 PUSH4 0x70A08231 EQ PUSH2 0x2C4 JUMPI PUSH2 0x140 JUMP JUMPDEST DUP1 PUSH4 0x1FFC9A7 EQ PUSH2 0x144 JUMPI DUP1 PUSH4 0x6FDDE03 EQ PUSH2 0x174 JUMPI DUP1 PUSH4 0x81812FC EQ PUSH2 0x192 JUMPI DUP1 PUSH4 0x95EA7B3 EQ PUSH2 0x1C2 JUMPI DUP1 PUSH4 0x18160DDD EQ PUSH2 0x1DE JUMPI JUMPDEST PUSH0 PUSH0 REVERT JUMPDEST PUSH2 0x15E PUSH1 0x4 DUP1 CALLDATASIZE SUB DUP2 ADD SWAP1 PUSH2 0x159 SWAP2 SWAP1 PUSH2 0x227C JUMP JUMPDEST PUSH2 0x458 JUMP JUMPDEST PUSH1 0x40 MLOAD PUSH2 0x16B SWAP2 SWAP1 PUSH2 0x22C1 JUMP JUMPDEST PUSH1 0x40 MLOAD DUP1 SWAP2 SUB SWAP1 RETURN JUMPDEST PUSH2 0x17C PUSH2 0x4D1 JUMP JUMPDEST PUSH1 0x40 MLOAD PUSH2 0x189 SWAP2 SWAP1 PUSH2 0x234A JUMP JUMPDEST PUSH1 0x40 MLOAD DUP1 SWAP2 SUB SWAP1 RETURN JUMPDEST PUSH2 0x1AC PUSH1 0x4 DUP1 CALLDATASIZE SUB DUP2 ADD SWAP1 PUSH2 0x1A7 SWAP2 SWAP1 PUSH2 0x239D JUMP JUMPDEST PUSH2 0x560 JUMP JUMPDEST PUSH1 0x40 MLOAD PUSH2 0x1B9 SWAP2 SWAP1 PUSH2 0x2407 JUMP JUMPDEST PUSH1 0x40 MLOAD DUP1 SWAP2 SUB SWAP1 RETURN JUMPDEST PUSH2 0x1DC PUSH1 0x4 DUP1 CALLDATASIZE SUB DUP2 ADD SWAP1 PUSH2 0x1D7 SWAP2 SWAP1 PUSH2 0x244A JUMP JUMPDEST PUSH2 0x57B JUMP JUMPDEST STOP JUMPDEST PUSH2 0x1E6 PUSH2 0x591 JUMP JUMPDEST PUSH1 0x40 MLOAD PUSH2 0x1F3 SWAP2 SWAP1 PUSH2 0x2497 JUMP JUMPDEST PUSH1 0x40 MLOAD DUP1 SWAP2 SUB SWAP1 RETURN JUMPDEST PUSH2 0x216 PUSH1 0x4 DUP1 CALLDATASIZE SUB DUP2 ADD SWAP1 PUSH2 0x211 SWAP2 SWAP1 PUSH2 0x24B0 JUMP JUMPDEST PUSH2 0x59D JUMP JUMPDEST STOP JUMPDEST PUSH2 0x232 PUSH1 0x4 DUP1 CALLDATASIZE SUB DUP2 ADD SWAP1 PUSH2 0x22D SWAP2 SWAP1 PUSH2 0x244A JUMP JUMPDEST PUSH2 0x69C JUMP JUMPDEST PUSH1 0x40 MLOAD PUSH2 0x23F SWAP2 SWAP1 PUSH2 0x2497 JUMP JUMPDEST PUSH1 0x40 MLOAD DUP1 SWAP2 SUB SWAP1 RETURN JUMPDEST PUSH2 0x262 PUSH1 0x4 DUP1 CALLDATASIZE SUB DUP2 ADD SWAP1 PUSH2 0x25D SWAP2 SWAP1 PUSH2 0x24B0 JUMP JUMPDEST PUSH2 0x740 JUMP JUMPDEST STOP JUMPDEST PUSH2 0x27E PUSH1 0x4 DUP1 CALLDATASIZE SUB DUP2 ADD SWAP1 PUSH2 0x279 SWAP2 SWAP1 PUSH2 0x239D JUMP JUMPDEST PUSH2 0x75F JUMP JUMPDEST PUSH1 0x40 MLOAD PUSH2 0x28B SWAP2 SWAP1 PUSH2 0x2497 JUMP JUMPDEST PUSH1 0x40 MLOAD DUP1 SWAP2 SUB SWAP1 RETURN JUMPDEST PUSH2 0x2AE PUSH1 0x4 DUP1 CALLDATASIZE SUB DUP2 ADD SWAP1 PUSH2 0x2A9 SWAP2 SWAP1 PUSH2 0x239D JUMP JUMPDEST PUSH2 0x7D1 JUMP JUMPDEST PUSH1 0x40 MLOAD PUSH2 0x2BB SWAP2 SWAP1 PUSH2 0x2407 JUMP JUMPDEST PUSH1 0x40 MLOAD DUP1 SWAP2 SUB SWAP1 RETURN JUMPDEST PUSH2 0x2DE PUSH1 0x4 DUP1 CALLDATASIZE SUB DUP2 ADD SWAP1 PUSH2 0x2D9 SWAP2 SWAP1 PUSH2 0x2500 JUMP JUMPDEST PUSH2 0x7E2 JUMP JUMPDEST PUSH1 0x40 MLOAD PUSH2 0x2EB SWAP2 SWAP1 PUSH2 0x2497 JUMP JUMPDEST PUSH1 0x40 MLOAD DUP1 SWAP2 SUB SWAP1 RETURN JUMPDEST PUSH2 0x2FC PUSH2 0x898 JUMP JUMPDEST STOP JUMPDEST PUSH2 0x318 PUSH1 0x4 DUP1 CALLDATASIZE SUB DUP2 ADD SWAP1 PUSH2 0x313 SWAP2 SWAP1 PUSH2 0x2657 JUMP JUMPDEST PUSH2 0x8AB JUMP JUMPDEST STOP JUMPDEST PUSH2 0x322 PUSH2 0x941 JUMP JUMPDEST PUSH1 0x40 MLOAD PUSH2 0x32F SWAP2 SWAP1 PUSH2 0x2407 JUMP JUMPDEST PUSH1 0x40 MLOAD DUP1 SWAP2 SUB SWAP1 RETURN JUMPDEST PUSH2 0x340 PUSH2 0x969 JUMP JUMPDEST PUSH1 0x40 MLOAD PUSH2 0x34D SWAP2 SWAP1 PUSH2 0x234A JUMP JUMPDEST PUSH1 0x40 MLOAD DUP1 SWAP2 SUB SWAP1 RETURN JUMPDEST PUSH2 0x370 PUSH1 0x4 DUP1 CALLDATASIZE SUB DUP2 ADD SWAP1 PUSH2 0x36B SWAP2 SWAP1 PUSH2 0x26DB JUMP JUMPDEST PUSH2 0x9F9 JUMP JUMPDEST STOP JUMPDEST PUSH2 0x38C PUSH1 0x4 DUP1 CALLDATASIZE SUB DUP2 ADD SWAP1 PUSH2 0x387 SWAP2 SWAP1 PUSH2 0x239D JUMP JUMPDEST PUSH2 0xA0F JUMP JUMPDEST PUSH1 0x40 MLOAD PUSH2 0x399 SWAP2 SWAP1 PUSH2 0x234A JUMP JUMPDEST PUSH1 0x40 MLOAD DUP1 SWAP2 SUB SWAP1 RETURN JUMPDEST PUSH2 0x3BC PUSH1 0x4 DUP1 CALLDATASIZE SUB DUP2 ADD SWAP1 PUSH2 0x3B7 SWAP2 SWAP1 PUSH2 0x27B7 JUMP JUMPDEST PUSH2 0xABA JUMP JUMPDEST STOP JUMPDEST PUSH2 0x3D8 PUSH1 0x4 DUP1 CALLDATASIZE SUB DUP2 ADD SWAP1 PUSH2 0x3D3 SWAP2 SWAP1 PUSH2 0x239D JUMP JUMPDEST PUSH2 0xADF JUMP JUMPDEST PUSH1 0x40 MLOAD PUSH2 0x3E5 SWAP2 SWAP1 PUSH2 0x234A JUMP JUMPDEST PUSH1 0x40 MLOAD DUP1 SWAP2 SUB SWAP1 RETURN JUMPDEST PUSH2 0x3F6 PUSH2 0xC71 JUMP JUMPDEST PUSH1 0x40 MLOAD PUSH2 0x403 SWAP2 SWAP1 PUSH2 0x2497 JUMP JUMPDEST PUSH1 0x40 MLOAD DUP1 SWAP2 SUB SWAP1 RETURN JUMPDEST PUSH2 0x426 PUSH1 0x4 DUP1 CALLDATASIZE SUB DUP2 ADD SWAP1 PUSH2 0x421 SWAP2 SWAP1 PUSH2 0x2837 JUMP JUMPDEST PUSH2 0xC7A JUMP JUMPDEST PUSH1 0x40 MLOAD PUSH2 0x433 SWAP2 SWAP1 PUSH2 0x22C1 JUMP JUMPDEST PUSH1 0x40 MLOAD DUP1 SWAP2 SUB SWAP1 RETURN JUMPDEST PUSH2 0x456 PUSH1 0x4 DUP1 CALLDATASIZE SUB DUP2 ADD SWAP1 PUSH2 0x451 SWAP2 SWAP1 PUSH2 0x2500 JUMP JUMPDEST PUSH2 0xD08 JUMP JUMPDEST STOP JUMPDEST PUSH0 PUSH32 0x780E9D6300000000000000000000000000000000000000000000000000000000 PUSH28 0xFFFFFFFFFFFFFFFFFFFFFFFFFFFFFFFFFFFFFFFFFFFFFFFFFFFFFFFF NOT AND DUP3 PUSH28 0xFFFFFFFFFFFFFFFFFFFFFFFFFFFFFFFFFFFFFFFFFFFFFFFFFFFFFFFF NOT AND EQ DUP1 PUSH2 0x4CA JUMPI POP PUSH2 0x4C9 DUP3 PUSH2 0xD8C JUMP JUMPDEST JUMPDEST SWAP1 POP SWAP2 SWAP1 POP JUMP JUMPDEST PUSH1 0x60 PUSH0 DUP1 SLOAD PUSH2 0x4DF SWAP1 PUSH2 0x28A2 JUMP JUMPDEST DUP1 PUSH1 0x1F ADD PUSH1 0x20 DUP1 SWAP2 DIV MUL PUSH1 0x20 ADD PUSH1 0x40 MLOAD SWAP1 DUP2 ADD PUSH1 0x40 MSTORE DUP1 SWAP3 SWAP2 SWAP1 DUP2 DUP2 MSTORE PUSH1 0x20 ADD DUP3 DUP1 SLOAD PUSH2 0x50B SWAP1 PUSH2 0x28A2 JUMP JUMPDEST DUP1 ISZERO PUSH2 0x556 JUMPI DUP1 PUSH1 0x1F LT PUSH2 0x52D JUMPI PUSH2 0x100 DUP1 DUP4 SLOAD DIV MUL DUP4 MSTORE SWAP2 PUSH1 0x20 ADD SWAP2 PUSH2 0x556 JUMP JUMPDEST DUP3 ADD SWAP2 SWAP1 PUSH0 MSTORE PUSH1 0x20 PUSH0 KECCAK256 SWAP1 JUMPDEST DUP2 SLOAD DUP2 MSTORE SWAP1 PUSH1 0x1 ADD SWAP1 PUSH1 0x20 ADD DUP1 DUP4 GT PUSH2 0x539 JUMPI DUP3 SWAP1 SUB PUSH1 0x1F AND DUP3 ADD SWAP2 JUMPDEST POP POP POP POP POP SWAP1 POP SWAP1 JUMP JUMPDEST PUSH0 PUSH2 0x56A DUP3 PUSH2 0xE6D JUMP JUMPDEST POP PUSH2 0x574 DUP3 PUSH2 0xEF3 JUMP JUMPDEST SWAP1 POP SWAP2 SWAP1 POP JUMP JUMPDEST PUSH2 0x58D DUP3 DUP3 PUSH2 0x588 PUSH2 0xF2C JUMP JUMPDEST PUSH2 0xF33 JUMP JUMPDEST POP POP JUMP JUMPDEST PUSH0 PUSH1 0x8 DUP1 SLOAD SWAP1 POP SWAP1 POP SWAP1 JUMP JUMPDEST PUSH0 PUSH20 0xFFFFFFFFFFFFFFFFFFFFFFFFFFFFFFFFFFFFFFFF AND DUP3 PUSH20 0xFFFFFFFFFFFFFFFFFFFFFFFFFFFFFFFFFFFFFFFF AND SUB PUSH2 0x60D JUMPI PUSH0 PUSH1 0x40 MLOAD PUSH32 0x64A0AE9200000000000000000000000000000000000000000000000000000000 DUP2 MSTORE PUSH1 0x4 ADD PUSH2 0x604 SWAP2 SWAP1 PUSH2 0x2407 JUMP JUMPDEST PUSH1 0x40 MLOAD DUP1 SWAP2 SUB SWAP1 REVERT JUMPDEST PUSH0 PUSH2 0x620 DUP4 DUP4 PUSH2 0x61B PUSH2 0xF2C JUMP JUMPDEST PUSH2 0xF45 JUMP JUMPDEST SWAP1 POP DUP4 PUSH20 0xFFFFFFFFFFFFFFFFFFFFFFFFFFFFFFFFFFFFFFFF AND DUP2 PUSH20 0xFFFFFFFFFFFFFFFFFFFFFFFFFFFFFFFFFFFFFFFF AND EQ PUSH2 0x696 JUMPI DUP4 DUP3 DUP3 PUSH1 0x40 MLOAD PUSH32 0x64283D7B00000000000000000000000000000000000000000000000000000000 DUP2 MSTORE PUSH1 0x4 ADD PUSH2 0x68D SWAP4 SWAP3 SWAP2 SWAP1 PUSH2 0x28D2 JUMP JUMPDEST PUSH1 0x40 MLOAD DUP1 SWAP2 SUB SWAP1 REVERT JUMPDEST POP POP POP POP JUMP JUMPDEST PUSH0 PUSH2 0x6A6 DUP4 PUSH2 0x7E2 JUMP JUMPDEST DUP3 LT PUSH2 0x6EB JUMPI DUP3 DUP3 PUSH1 0x40 MLOAD PUSH32 0xA57D13DC00000000000000000000000000000000000000000000000000000000 DUP2 MSTORE PUSH1 0x4 ADD PUSH2 0x6E2 SWAP3 SWAP2 SWAP1 PUSH2 0x2907 JUMP JUMPDEST PUSH1 0x40 MLOAD DUP1 SWAP2 SUB SWAP1 REVERT JUMPDEST PUSH1 0x6 PUSH0 DUP5 PUSH20 0xFFFFFFFFFFFFFFFFFFFFFFFFFFFFFFFFFFFFFFFF AND PUSH20 0xFFFFFFFFFFFFFFFFFFFFFFFFFFFFFFFFFFFFFFFF AND DUP2 MSTORE PUSH1 0x20 ADD SWAP1 DUP2 MSTORE PUSH1 0x20 ADD PUSH0 KECCAK256 PUSH0 DUP4 DUP2 MSTORE PUSH1 0x20 ADD SWAP1 DUP2 MSTORE PUSH1 0x20 ADD PUSH0 KECCAK256 SLOAD SWAP1 POP SWAP3 SWAP2 POP POP JUMP JUMPDEST PUSH2 0x75A DUP4 DUP4 DUP4 PUSH1 0x40 MLOAD DUP1 PUSH1 0x20 ADD PUSH1 0x40 MSTORE DUP1 PUSH0 DUP2 MSTORE POP PUSH2 0xABA JUMP JUMPDEST POP POP POP JUMP JUMPDEST PUSH0 PUSH2 0x768 PUSH2 0x591 JUMP JUMPDEST DUP3 LT PUSH2 0x7AD JUMPI PUSH0 DUP3 PUSH1 0x40 MLOAD PUSH32 0xA57D13DC00000000000000000000000000000000000000000000000000000000 DUP2 MSTORE PUSH1 0x4 ADD PUSH2 0x7A4 SWAP3 SWAP2 SWAP1 PUSH2 0x2907 JUMP JUMPDEST PUSH1 0x40 MLOAD DUP1 SWAP2 SUB SWAP1 REVERT JUMPDEST PUSH1 0x8 DUP3 DUP2 SLOAD DUP2 LT PUSH2 0x7C1 JUMPI PUSH2 0x7C0 PUSH2 0x292E JUMP JUMPDEST JUMPDEST SWAP1 PUSH0 MSTORE PUSH1 0x20 PUSH0 KECCAK256 ADD SLOAD SWAP1 POP SWAP2 SWAP1 POP JUMP JUMPDEST PUSH0 PUSH2 0x7DB DUP3 PUSH2 0xE6D JUMP JUMPDEST SWAP1 POP SWAP2 SWAP1 POP JUMP JUMPDEST PUSH0 PUSH0 PUSH20 0xFFFFFFFFFFFFFFFFFFFFFFFFFFFFFFFFFFFFFFFF AND DUP3 PUSH20 0xFFFFFFFFFFFFFFFFFFFFFFFFFFFFFFFFFFFFFFFF AND SUB PUSH2 0x853 JUMPI PUSH0 PUSH1 0x40 MLOAD PUSH32 0x89C62B6400000000000000000000000000000000000000000000000000000000 DUP2 MSTORE PUSH1 0x4 ADD PUSH2 0x84A SWAP2 SWAP1 PUSH2 0x2407 JUMP JUMPDEST PUSH1 0x40 MLOAD DUP1 SWAP2 SUB SWAP1 REVERT JUMPDEST PUSH1 0x3 PUSH0 DUP4 PUSH20 0xFFFFFFFFFFFFFFFFFFFFFFFFFFFFFFFFFFFFFFFF AND PUSH20 0xFFFFFFFFFFFFFFFFFFFFFFFFFFFFFFFFFFFFFFFF AND DUP2 MSTORE PUSH1 0x20 ADD SWAP1 DUP2 MSTORE PUSH1 0x20 ADD PUSH0 KECCAK256 SLOAD SWAP1 POP SWAP2 SWAP1 POP JUMP JUMPDEST PUSH2 0x8A0 PUSH2 0x105F JUMP JUMPDEST PUSH2 0x8A9 PUSH0 PUSH2 0x10E6 JUMP JUMPDEST JUMP JUMPDEST PUSH2 0x8B3 PUSH2 0x105F JUMP JUMPDEST PUSH0 DUP2 MLOAD GT PUSH2 0x8F6 JUMPI PUSH1 0x40 MLOAD PUSH32 0x8C379A000000000000000000000000000000000000000000000000000000000 DUP2 MSTORE PUSH1 0x4 ADD PUSH2 0x8ED SWAP1 PUSH2 0x29A5 JUMP JUMPDEST PUSH1 0x40 MLOAD DUP1 SWAP2 SUB SWAP1 REVERT JUMPDEST PUSH0 PUSH1 0xC SLOAD SWAP1 POP DUP2 PUSH1 0xB PUSH0 DUP4 DUP2 MSTORE PUSH1 0x20 ADD SWAP1 DUP2 MSTORE PUSH1 0x20 ADD PUSH0 KECCAK256 SWAP1 DUP2 PUSH2 0x91A SWAP2 SWAP1 PUSH2 0x2B63 JUMP JUMPDEST POP PUSH2 0x925 DUP4 DUP3 PUSH2 0x11A9 JUMP JUMPDEST PUSH1 0xC PUSH0 DUP2 SLOAD DUP1 SWAP3 SWAP2 SWAP1 PUSH2 0x937 SWAP1 PUSH2 0x2C5F JUMP JUMPDEST SWAP2 SWAP1 POP SSTORE POP POP POP POP JUMP JUMPDEST PUSH0 PUSH1 0xA PUSH0 SWAP1 SLOAD SWAP1 PUSH2 0x100 EXP SWAP1 DIV PUSH20 0xFFFFFFFFFFFFFFFFFFFFFFFFFFFFFFFFFFFFFFFF AND SWAP1 POP SWAP1 JUMP JUMPDEST PUSH1 0x60 PUSH1 0x1 DUP1 SLOAD PUSH2 0x978 SWAP1 PUSH2 0x28A2 JUMP JUMPDEST DUP1 PUSH1 0x1F ADD PUSH1 0x20 DUP1 SWAP2 DIV MUL PUSH1 0x20 ADD PUSH1 0x40 MLOAD SWAP1 DUP2 ADD PUSH1 0x40 MSTORE DUP1 SWAP3 SWAP2 SWAP1 DUP2 DUP2 MSTORE PUSH1 0x20 ADD DUP3 DUP1 SLOAD PUSH2 0x9A4 SWAP1 PUSH2 0x28A2 JUMP JUMPDEST DUP1 ISZERO PUSH2 0x9EF JUMPI DUP1 PUSH1 0x1F LT PUSH2 0x9C6 JUMPI PUSH2 0x100 DUP1 DUP4 SLOAD DIV MUL DUP4 MSTORE SWAP2 PUSH1 0x20 ADD SWAP2 PUSH2 0x9EF JUMP JUMPDEST DUP3 ADD SWAP2 SWAP1 PUSH0 MSTORE PUSH1 0x20 PUSH0 KECCAK256 SWAP1 JUMPDEST DUP2 SLOAD DUP2 MSTORE SWAP1 PUSH1 0x1 ADD SWAP1 PUSH1 0x20 ADD DUP1 DUP4 GT PUSH2 0x9D2 JUMPI DUP3 SWAP1 SUB PUSH1 0x1F AND DUP3 ADD SWAP2 JUMPDEST POP POP POP POP POP SWAP1 POP SWAP1 JUMP JUMPDEST PUSH2 0xA0B PUSH2 0xA04 PUSH2 0xF2C JUMP JUMPDEST DUP4 DUP4 PUSH2 0x11C6 JUMP JUMPDEST POP POP JUMP JUMPDEST PUSH1 0x60 PUSH2 0xA1A DUP3 PUSH2 0x7D1 JUMP JUMPDEST POP PUSH1 0xB PUSH0 DUP4 DUP2 MSTORE PUSH1 0x20 ADD SWAP1 DUP2 MSTORE PUSH1 0x20 ADD PUSH0 KECCAK256 DUP1 SLOAD PUSH2 0xA37 SWAP1 PUSH2 0x28A2 JUMP JUMPDEST DUP1 PUSH1 0x1F ADD PUSH1 0x20 DUP1 SWAP2 DIV MUL PUSH1 0x20 ADD PUSH1 0x40 MLOAD SWAP1 DUP2 ADD PUSH1 0x40 MSTORE DUP1 SWAP3 SWAP2 SWAP1 DUP2 DUP2 MSTORE PUSH1 0x20 ADD DUP3 DUP1 SLOAD PUSH2 0xA63 SWAP1 PUSH2 0x28A2 JUMP JUMPDEST DUP1 ISZERO PUSH2 0xAAE JUMPI DUP1 PUSH1 0x1F LT PUSH2 0xA85 JUMPI PUSH2 0x100 DUP1 DUP4 SLOAD DIV MUL DUP4 MSTORE SWAP2 PUSH1 0x20 ADD SWAP2 PUSH2 0xAAE JUMP JUMPDEST DUP3 ADD SWAP2 SWAP1 PUSH0 MSTORE PUSH1 0x20 PUSH0 KECCAK256 SWAP1 JUMPDEST DUP2 SLOAD DUP2 MSTORE SWAP1 PUSH1 0x1 ADD SWAP1 PUSH1 0x20 ADD DUP1 DUP4 GT PUSH2 0xA91 JUMPI DUP3 SWAP1 SUB PUSH1 0x1F AND DUP3 ADD SWAP2 JUMPDEST POP POP POP POP POP SWAP1 POP SWAP2 SWAP1 POP JUMP JUMPDEST PUSH2 0xAC5 DUP5 DUP5 DUP5 PUSH2 0x59D JUMP JUMPDEST PUSH2 0xAD9 PUSH2 0xAD0 PUSH2 0xF2C JUMP JUMPDEST DUP6 DUP6 DUP6 DUP6 PUSH2 0x132F JUMP JUMPDEST POP POP POP POP JUMP JUMPDEST PUSH1 0x60 PUSH2 0xAEA DUP3 PUSH2 0x7D1 JUMP JUMPDEST POP PUSH0 PUSH1 0xB PUSH0 DUP5 DUP2 MSTORE PUSH1 0x20 ADD SWAP1 DUP2 MSTORE PUSH1 0x20 ADD PUSH0 KECCAK256 DUP1 SLOAD PUSH2 0xB08 SWAP1 PUSH2 0x28A2 JUMP JUMPDEST DUP1 PUSH1 0x1F ADD PUSH1 0x20 DUP1 SWAP2 DIV MUL PUSH1 0x20 ADD PUSH1 0x40 MLOAD SWAP1 DUP2 ADD PUSH1 0x40 MSTORE DUP1 SWAP3 SWAP2 SWAP1 DUP2 DUP2 MSTORE PUSH1 0x20 ADD DUP3 DUP1 SLOAD PUSH2 0xB34 SWAP1 PUSH2 0x28A2 JUMP JUMPDEST DUP1 ISZERO PUSH2 0xB7F JUMPI DUP1 PUSH1 0x1F LT PUSH2 0xB56 JUMPI PUSH2 0x100 DUP1 DUP4 SLOAD DIV MUL DUP4 MSTORE SWAP2 PUSH1 0x20 ADD SWAP2 PUSH2 0xB7F JUMP JUMPDEST DUP3 ADD SWAP2 SWAP1 PUSH0 MSTORE PUSH1 0x20 PUSH0 KECCAK256 SWAP1 JUMPDEST DUP2 SLOAD DUP2 MSTORE SWAP1 PUSH1 0x1 ADD SWAP1 PUSH1 0x20 ADD DUP1 DUP4 GT PUSH2 0xB62 JUMPI DUP3 SWAP1 SUB PUSH1 0x1F AND DUP3 ADD SWAP2 JUMPDEST POP POP POP POP POP SWAP1 POP PUSH0 DUP2 MLOAD GT PUSH2 0xBC9 JUMPI PUSH1 0x40 MLOAD PUSH32 0x8C379A000000000000000000000000000000000000000000000000000000000 DUP2 MSTORE PUSH1 0x4 ADD PUSH2 0xBC0 SWAP1 PUSH2 0x2D16 JUMP JUMPDEST PUSH1 0x40 MLOAD DUP1 SWAP2 SUB SWAP1 REVERT JUMPDEST PUSH0 DUP2 PUSH1 0x40 MLOAD PUSH1 0x20 ADD PUSH2 0xBDB SWAP2 SWAP1 PUSH2 0x2E02 JUMP JUMPDEST PUSH1 0x40 MLOAD PUSH1 0x20 DUP2 DUP4 SUB SUB DUP2 MSTORE SWAP1 PUSH1 0x40 MSTORE SWAP1 POP PUSH0 DUP3 PUSH1 0x40 MLOAD PUSH1 0x20 ADD PUSH2 0xBFE SWAP2 SWAP1 PUSH2 0x2E78 JUMP JUMPDEST PUSH1 0x40 MLOAD PUSH1 0x20 DUP2 DUP4 SUB SUB DUP2 MSTORE SWAP1 PUSH1 0x40 MSTORE SWAP1 POP PUSH0 PUSH2 0xC44 PUSH2 0xC1C DUP8 PUSH2 0x14DB JUMP JUMPDEST DUP5 DUP5 PUSH1 0x40 MLOAD PUSH1 0x20 ADD PUSH2 0xC30 SWAP4 SWAP3 SWAP2 SWAP1 PUSH2 0x300D JUMP JUMPDEST PUSH1 0x40 MLOAD PUSH1 0x20 DUP2 DUP4 SUB SUB DUP2 MSTORE SWAP1 PUSH1 0x40 MSTORE PUSH2 0x15A5 JUMP JUMPDEST SWAP1 POP DUP1 PUSH1 0x40 MLOAD PUSH1 0x20 ADD PUSH2 0xC57 SWAP2 SWAP1 PUSH2 0x30B3 JUMP JUMPDEST PUSH1 0x40 MLOAD PUSH1 0x20 DUP2 DUP4 SUB SUB DUP2 MSTORE SWAP1 PUSH1 0x40 MSTORE SWAP5 POP POP POP POP POP SWAP2 SWAP1 POP JUMP JUMPDEST PUSH0 PUSH1 0xC SLOAD SWAP1 POP SWAP1 JUMP JUMPDEST PUSH0 PUSH1 0x5 PUSH0 DUP5 PUSH20 0xFFFFFFFFFFFFFFFFFFFFFFFFFFFFFFFFFFFFFFFF AND PUSH20 0xFFFFFFFFFFFFFFFFFFFFFFFFFFFFFFFFFFFFFFFF AND DUP2 MSTORE PUSH1 0x20 ADD SWAP1 DUP2 MSTORE PUSH1 0x20 ADD PUSH0 KECCAK256 PUSH0 DUP4 PUSH20 0xFFFFFFFFFFFFFFFFFFFFFFFFFFFFFFFFFFFFFFFF AND PUSH20 0xFFFFFFFFFFFFFFFFFFFFFFFFFFFFFFFFFFFFFFFF AND DUP2 MSTORE PUSH1 0x20 ADD SWAP1 DUP2 MSTORE PUSH1 0x20 ADD PUSH0 KECCAK256 PUSH0 SWAP1 SLOAD SWAP1 PUSH2 0x100 EXP SWAP1 DIV PUSH1 0xFF AND SWAP1 POP SWAP3 SWAP2 POP POP JUMP JUMPDEST PUSH2 0xD10 PUSH2 0x105F JUMP JUMPDEST PUSH0 PUSH20 0xFFFFFFFFFFFFFFFFFFFFFFFFFFFFFFFFFFFFFFFF AND DUP2 PUSH20 0xFFFFFFFFFFFFFFFFFFFFFFFFFFFFFFFFFFFFFFFF AND SUB PUSH2 0xD80 JUMPI PUSH0 PUSH1 0x40 MLOAD PUSH32 0x1E4FBDF700000000000000000000000000000000000000000000000000000000 DUP2 MSTORE PUSH1 0x4 ADD PUSH2 0xD77 SWAP2 SWAP1 PUSH2 0x2407 JUMP JUMPDEST PUSH1 0x40 MLOAD DUP1 SWAP2 SUB SWAP1 REVERT JUMPDEST PUSH2 0xD89 DUP2 PUSH2 0x10E6 JUMP JUMPDEST POP JUMP JUMPDEST PUSH0 PUSH32 0x80AC58CD00000000000000000000000000000000000000000000000000000000 PUSH28 0xFFFFFFFFFFFFFFFFFFFFFFFFFFFFFFFFFFFFFFFFFFFFFFFFFFFFFFFF NOT AND DUP3 PUSH28 0xFFFFFFFFFFFFFFFFFFFFFFFFFFFFFFFFFFFFFFFFFFFFFFFFFFFFFFFF NOT AND EQ DUP1 PUSH2 0xE56 JUMPI POP PUSH32 0x5B5E139F00000000000000000000000000000000000000000000000000000000 PUSH28 0xFFFFFFFFFFFFFFFFFFFFFFFFFFFFFFFFFFFFFFFFFFFFFFFFFFFFFFFF NOT AND DUP3 PUSH28 0xFFFFFFFFFFFFFFFFFFFFFFFFFFFFFFFFFFFFFFFFFFFFFFFFFFFFFFFF NOT AND EQ JUMPDEST DUP1 PUSH2 0xE66 JUMPI POP PUSH2 0xE65 DUP3 PUSH2 0x15D2 JUMP JUMPDEST JUMPDEST SWAP1 POP SWAP2 SWAP1 POP JUMP JUMPDEST PUSH0 PUSH0 PUSH2 0xE78 DUP4 PUSH2 0x163B JUMP JUMPDEST SWAP1 POP PUSH0 PUSH20 0xFFFFFFFFFFFFFFFFFFFFFFFFFFFFFFFFFFFFFFFF AND DUP2 PUSH20 0xFFFFFFFFFFFFFFFFFFFFFFFFFFFFFFFFFFFFFFFF AND SUB PUSH2 0xEEA JUMPI DUP3 PUSH1 0x40 MLOAD PUSH32 0x7E27328900000000000000000000000000000000000000000000000000000000 DUP2 MSTORE PUSH1 0x4 ADD PUSH2 0xEE1 SWAP2 SWAP1 PUSH2 0x2497 JUMP JUMPDEST PUSH1 0x40 MLOAD DUP1 SWAP2 SUB SWAP1 REVERT JUMPDEST DUP1 SWAP2 POP POP SWAP2 SWAP1 POP JUMP JUMPDEST PUSH0 PUSH1 0x4 PUSH0 DUP4 DUP2 MSTORE PUSH1 0x20 ADD SWAP1 DUP2 MSTORE PUSH1 0x20 ADD PUSH0 KECCAK256 PUSH0 SWAP1 SLOAD SWAP1 PUSH2 0x100 EXP SWAP1 DIV PUSH20 0xFFFFFFFFFFFFFFFFFFFFFFFFFFFFFFFFFFFFFFFF AND SWAP1 POP SWAP2 SWAP1 POP JUMP JUMPDEST PUSH0 CALLER SWAP1 POP SWAP1 JUMP JUMPDEST PUSH2 0xF40 DUP4 DUP4 DUP4 PUSH1 0x1 PUSH2 0x1674 JUMP JUMPDEST POP POP POP JUMP JUMPDEST PUSH0 PUSH0 PUSH2 0xF52 DUP6 DUP6 DUP6 PUSH2 0x1833 JUMP JUMPDEST SWAP1 POP PUSH0 PUSH20 0xFFFFFFFFFFFFFFFFFFFFFFFFFFFFFFFFFFFFFFFF AND DUP2 PUSH20 0xFFFFFFFFFFFFFFFFFFFFFFFFFFFFFFFFFFFFFFFF AND SUB PUSH2 0xF95 JUMPI PUSH2 0xF90 DUP5 PUSH2 0x1A3E JUMP JUMPDEST PUSH2 0xFD4 JUMP JUMPDEST DUP5 PUSH20 0xFFFFFFFFFFFFFFFFFFFFFFFFFFFFFFFFFFFFFFFF AND DUP2 PUSH20 0xFFFFFFFFFFFFFFFFFFFFFFFFFFFFFFFFFFFFFFFF AND EQ PUSH2 0xFD3 JUMPI PUSH2 0xFD2 DUP2 DUP6 PUSH2 0x1A82 JUMP JUMPDEST JUMPDEST JUMPDEST PUSH0 PUSH20 0xFFFFFFFFFFFFFFFFFFFFFFFFFFFFFFFFFFFFFFFF AND DUP6 PUSH20 0xFFFFFFFFFFFFFFFFFFFFFFFFFFFFFFFFFFFFFFFF AND SUB PUSH2 0x1015 JUMPI PUSH2 0x1010 DUP5 PUSH2 0x1B59 JUMP JUMPDEST PUSH2 0x1054 JUMP JUMPDEST DUP5 PUSH20 0xFFFFFFFFFFFFFFFFFFFFFFFFFFFFFFFFFFFFFFFF AND DUP2 PUSH20 0xFFFFFFFFFFFFFFFFFFFFFFFFFFFFFFFFFFFFFFFF AND EQ PUSH2 0x1053 JUMPI PUSH2 0x1052 DUP6 DUP6 PUSH2 0x1C19 JUMP JUMPDEST JUMPDEST JUMPDEST DUP1 SWAP2 POP POP SWAP4 SWAP3 POP POP POP JUMP JUMPDEST PUSH2 0x1067 PUSH2 0xF2C JUMP JUMPDEST PUSH20 0xFFFFFFFFFFFFFFFFFFFFFFFFFFFFFFFFFFFFFFFF AND PUSH2 0x1085 PUSH2 0x941 JUMP JUMPDEST PUSH20 0xFFFFFFFFFFFFFFFFFFFFFFFFFFFFFFFFFFFFFFFF AND EQ PUSH2 0x10E4 JUMPI PUSH2 0x10A8 PUSH2 0xF2C JUMP JUMPDEST PUSH1 0x40 MLOAD PUSH32 0x118CDAA700000000000000000000000000000000000000000000000000000000 DUP2 MSTORE PUSH1 0x4 ADD PUSH2 0x10DB SWAP2 SWAP1 PUSH2 0x2407 JUMP JUMPDEST PUSH1 0x40 MLOAD DUP1 SWAP2 SUB SWAP1 REVERT JUMPDEST JUMP JUMPDEST PUSH0 PUSH1 0xA PUSH0 SWAP1 SLOAD SWAP1 PUSH2 0x100 EXP SWAP1 DIV PUSH20 0xFFFFFFFFFFFFFFFFFFFFFFFFFFFFFFFFFFFFFFFF AND SWAP1 POP DUP2 PUSH1 0xA PUSH0 PUSH2 0x100 EXP DUP2 SLOAD DUP2 PUSH20 0xFFFFFFFFFFFFFFFFFFFFFFFFFFFFFFFFFFFFFFFF MUL NOT AND SWAP1 DUP4 PUSH20 0xFFFFFFFFFFFFFFFFFFFFFFFFFFFFFFFFFFFFFFFF AND MUL OR SWAP1 SSTORE POP DUP2 PUSH20 0xFFFFFFFFFFFFFFFFFFFFFFFFFFFFFFFFFFFFFFFF AND DUP2 PUSH20 0xFFFFFFFFFFFFFFFFFFFFFFFFFFFFFFFFFFFFFFFF AND PUSH32 0x8BE0079C531659141344CD1FD0A4F28419497F9722A3DAAFE3B4186F6B6457E0 PUSH1 0x40 MLOAD PUSH1 0x40 MLOAD DUP1 SWAP2 SUB SWAP1 LOG3 POP POP JUMP JUMPDEST PUSH2 0x11C2 DUP3 DUP3 PUSH1 0x40 MLOAD DUP1 PUSH1 0x20 ADD PUSH1 0x40 MSTORE DUP1 PUSH0 DUP2 MSTORE POP PUSH2 0x1C9D JUMP JUMPDEST POP POP JUMP JUMPDEST PUSH0 PUSH20 0xFFFFFFFFFFFFFFFFFFFFFFFFFFFFFFFFFFFFFFFF AND DUP3 PUSH20 0xFFFFFFFFFFFFFFFFFFFFFFFFFFFFFFFFFFFFFFFF AND SUB PUSH2 0x1236 JUMPI DUP2 PUSH1 0x40 MLOAD PUSH32 0x5B08BA1800000000000000000000000000000000000000000000000000000000 DUP2 MSTORE PUSH1 0x4 ADD PUSH2 0x122D SWAP2 SWAP1 PUSH2 0x2407 JUMP JUMPDEST PUSH1 0x40 MLOAD DUP1 SWAP2 SUB SWAP1 REVERT JUMPDEST DUP1 PUSH1 0x5 PUSH0 DUP6 PUSH20 0xFFFFFFFFFFFFFFFFFFFFFFFFFFFFFFFFFFFFFFFF AND PUSH20 0xFFFFFFFFFFFFFFFFFFFFFFFFFFFFFFFFFFFFFFFF AND DUP2 MSTORE PUSH1 0x20 ADD SWAP1 DUP2 MSTORE PUSH1 0x20 ADD PUSH0 KECCAK256 PUSH0 DUP5 PUSH20 0xFFFFFFFFFFFFFFFFFFFFFFFFFFFFFFFFFFFFFFFF AND PUSH20 0xFFFFFFFFFFFFFFFFFFFFFFFFFFFFFFFFFFFFFFFF AND DUP2 MSTORE PUSH1 0x20 ADD SWAP1 DUP2 MSTORE PUSH1 0x20 ADD PUSH0 KECCAK256 PUSH0 PUSH2 0x100 EXP DUP2 SLOAD DUP2 PUSH1 0xFF MUL NOT AND SWAP1 DUP4 ISZERO ISZERO MUL OR SWAP1 SSTORE POP DUP2 PUSH20 0xFFFFFFFFFFFFFFFFFFFFFFFFFFFFFFFFFFFFFFFF AND DUP4 PUSH20 0xFFFFFFFFFFFFFFFFFFFFFFFFFFFFFFFFFFFFFFFF AND PUSH32 0x17307EAB39AB6107E8899845AD3D59BD9653F200F220920489CA2B5937696C31 DUP4 PUSH1 0x40 MLOAD PUSH2 0x1322 SWAP2 SWAP1 PUSH2 0x22C1 JUMP JUMPDEST PUSH1 0x40 MLOAD DUP1 SWAP2 SUB SWAP1 LOG3 POP POP POP JUMP JUMPDEST PUSH0 DUP4 PUSH20 0xFFFFFFFFFFFFFFFFFFFFFFFFFFFFFFFFFFFFFFFF AND EXTCODESIZE GT ISZERO PUSH2 0x14D4 JUMPI DUP3 PUSH20 0xFFFFFFFFFFFFFFFFFFFFFFFFFFFFFFFFFFFFFFFF AND PUSH4 0x150B7A02 DUP7 DUP7 DUP6 DUP6 PUSH1 0x40 MLOAD DUP6 PUSH4 0xFFFFFFFF AND PUSH1 0xE0 SHL DUP2 MSTORE PUSH1 0x4 ADD PUSH2 0x138D SWAP5 SWAP4 SWAP3 SWAP2 SWAP1 PUSH2 0x3126 JUMP JUMPDEST PUSH1 0x20 PUSH1 0x40 MLOAD DUP1 DUP4 SUB DUP2 PUSH0 DUP8 GAS CALL SWAP3 POP POP POP DUP1 ISZERO PUSH2 0x13C8 JUMPI POP PUSH1 0x40 MLOAD RETURNDATASIZE PUSH1 0x1F NOT PUSH1 0x1F DUP3 ADD AND DUP3 ADD DUP1 PUSH1 0x40 MSTORE POP DUP2 ADD SWAP1 PUSH2 0x13C5 SWAP2 SWAP1 PUSH2 0x3184 JUMP JUMPDEST PUSH1 0x1 JUMPDEST PUSH2 0x1449 JUMPI RETURNDATASIZE DUP1 PUSH0 DUP2 EQ PUSH2 0x13F6 JUMPI PUSH1 0x40 MLOAD SWAP2 POP PUSH1 0x1F NOT PUSH1 0x3F RETURNDATASIZE ADD AND DUP3 ADD PUSH1 0x40 MSTORE RETURNDATASIZE DUP3 MSTORE RETURNDATASIZE PUSH0 PUSH1 0x20 DUP5 ADD RETURNDATACOPY PUSH2 0x13FB JUMP JUMPDEST PUSH1 0x60 SWAP2 POP JUMPDEST POP PUSH0 DUP2 MLOAD SUB PUSH2 0x1441 JUMPI DUP4 PUSH1 0x40 MLOAD PUSH32 0x64A0AE9200000000000000000000000000000000000000000000000000000000 DUP2 MSTORE PUSH1 0x4 ADD PUSH2 0x1438 SWAP2 SWAP1 PUSH2 0x2407 JUMP JUMPDEST PUSH1 0x40 MLOAD DUP1 SWAP2 SUB SWAP1 REVERT JUMPDEST DUP1 MLOAD DUP2 PUSH1 0x20 ADD REVERT JUMPDEST PUSH4 0x150B7A02 PUSH1 0xE0 SHL PUSH28 0xFFFFFFFFFFFFFFFFFFFFFFFFFFFFFFFFFFFFFFFFFFFFFFFFFFFFFFFF NOT AND DUP2 PUSH28 0xFFFFFFFFFFFFFFFFFFFFFFFFFFFFFFFFFFFFFFFFFFFFFFFFFFFFFFFF NOT AND EQ PUSH2 0x14D2 JUMPI DUP4 PUSH1 0x40 MLOAD PUSH32 0x64A0AE9200000000000000000000000000000000000000000000000000000000 DUP2 MSTORE PUSH1 0x4 ADD PUSH2 0x14C9 SWAP2 SWAP1 PUSH2 0x2407 JUMP JUMPDEST PUSH1 0x40 MLOAD DUP1 SWAP2 SUB SWAP1 REVERT JUMPDEST POP JUMPDEST POP POP POP POP POP JUMP JUMPDEST PUSH1 0x60 PUSH0 PUSH1 0x1 PUSH2 0x14E9 DUP5 PUSH2 0x1CC0 JUMP JUMPDEST ADD SWAP1 POP PUSH0 DUP2 PUSH8 0xFFFFFFFFFFFFFFFF DUP2 GT ISZERO PUSH2 0x1507 JUMPI PUSH2 0x1506 PUSH2 0x2533 JUMP JUMPDEST JUMPDEST PUSH1 0x40 MLOAD SWAP1 DUP1 DUP3 MSTORE DUP1 PUSH1 0x1F ADD PUSH1 0x1F NOT AND PUSH1 0x20 ADD DUP3 ADD PUSH1 0x40 MSTORE DUP1 ISZERO PUSH2 0x1539 JUMPI DUP2 PUSH1 0x20 ADD PUSH1 0x1 DUP3 MUL DUP1 CALLDATASIZE DUP4 CALLDATACOPY DUP1 DUP3 ADD SWAP2 POP POP SWAP1 POP JUMPDEST POP SWAP1 POP PUSH0 DUP3 PUSH1 0x20 ADD DUP3 ADD SWAP1 POP JUMPDEST PUSH1 0x1 ISZERO PUSH2 0x159A JUMPI DUP1 DUP1 PUSH1 0x1 SWAP1 SUB SWAP2 POP POP PUSH32 0x3031323334353637383961626364656600000000000000000000000000000000 PUSH1 0xA DUP7 MOD BYTE DUP2 MSTORE8 PUSH1 0xA DUP6 DUP2 PUSH2 0x158F JUMPI PUSH2 0x158E PUSH2 0x31AF JUMP JUMPDEST JUMPDEST DIV SWAP5 POP PUSH0 DUP6 SUB PUSH2 0x1546 JUMPI JUMPDEST DUP2 SWAP4 POP POP POP POP SWAP2 SWAP1 POP JUMP JUMPDEST PUSH1 0x60 PUSH2 0x15CB DUP3 PUSH1 0x40 MLOAD DUP1 PUSH1 0x60 ADD PUSH1 0x40 MSTORE DUP1 PUSH1 0x40 DUP2 MSTORE PUSH1 0x20 ADD PUSH2 0x32E1 PUSH1 0x40 SWAP2 CODECOPY PUSH1 0x1 PUSH2 0x1E11 JUMP JUMPDEST SWAP1 POP SWAP2 SWAP1 POP JUMP JUMPDEST PUSH0 PUSH32 0x1FFC9A700000000000000000000000000000000000000000000000000000000 PUSH28 0xFFFFFFFFFFFFFFFFFFFFFFFFFFFFFFFFFFFFFFFFFFFFFFFFFFFFFFFF NOT AND DUP3 PUSH28 0xFFFFFFFFFFFFFFFFFFFFFFFFFFFFFFFFFFFFFFFFFFFFFFFFFFFFFFFF NOT AND EQ SWAP1 POP SWAP2 SWAP1 POP JUMP JUMPDEST PUSH0 PUSH1 0x2 PUSH0 DUP4 DUP2 MSTORE PUSH1 0x20 ADD SWAP1 DUP2 MSTORE PUSH1 0x20 ADD PUSH0 KECCAK256 PUSH0 SWAP1 SLOAD SWAP1 PUSH2 0x100 EXP SWAP1 DIV PUSH20 0xFFFFFFFFFFFFFFFFFFFFFFFFFFFFFFFFFFFFFFFF AND SWAP1 POP SWAP2 SWAP1 POP JUMP JUMPDEST DUP1 DUP1 PUSH2 0x16AC JUMPI POP PUSH0 PUSH20 0xFFFFFFFFFFFFFFFFFFFFFFFFFFFFFFFFFFFFFFFF AND DUP3 PUSH20 0xFFFFFFFFFFFFFFFFFFFFFFFFFFFFFFFFFFFFFFFF AND EQ ISZERO JUMPDEST ISZERO PUSH2 0x17DE JUMPI PUSH0 PUSH2 0x16BB DUP5 PUSH2 0xE6D JUMP JUMPDEST SWAP1 POP PUSH0 PUSH20 0xFFFFFFFFFFFFFFFFFFFFFFFFFFFFFFFFFFFFFFFF AND DUP4 PUSH20 0xFFFFFFFFFFFFFFFFFFFFFFFFFFFFFFFFFFFFFFFF AND EQ ISZERO DUP1 ISZERO PUSH2 0x1725 JUMPI POP DUP3 PUSH20 0xFFFFFFFFFFFFFFFFFFFFFFFFFFFFFFFFFFFFFFFF AND DUP2 PUSH20 0xFFFFFFFFFFFFFFFFFFFFFFFFFFFFFFFFFFFFFFFF AND EQ ISZERO JUMPDEST DUP1 ISZERO PUSH2 0x1738 JUMPI POP PUSH2 0x1736 DUP2 DUP5 PUSH2 0xC7A JUMP JUMPDEST ISZERO JUMPDEST ISZERO PUSH2 0x177A JUMPI DUP3 PUSH1 0x40 MLOAD PUSH32 0xA9FBF51F00000000000000000000000000000000000000000000000000000000 DUP2 MSTORE PUSH1 0x4 ADD PUSH2 0x1771 SWAP2 SWAP1 PUSH2 0x2407 JUMP JUMPDEST PUSH1 0x40 MLOAD DUP1 SWAP2 SUB SWAP1 REVERT JUMPDEST DUP2 ISZERO PUSH2 0x17DC JUMPI DUP4 DUP6 PUSH20 0xFFFFFFFFFFFFFFFFFFFFFFFFFFFFFFFFFFFFFFFF AND DUP3 PUSH20 0xFFFFFFFFFFFFFFFFFFFFFFFFFFFFFFFFFFFFFFFF AND PUSH32 0x8C5BE1E5EBEC7D5BD14F71427D1E84F3DD0314C0F7B2291E5B200AC8C7C3B925 PUSH1 0x40 MLOAD PUSH1 0x40 MLOAD DUP1 SWAP2 SUB SWAP1 LOG4 JUMPDEST POP JUMPDEST DUP4 PUSH1 0x4 PUSH0 DUP6 DUP2 MSTORE PUSH1 0x20 ADD SWAP1 DUP2 MSTORE PUSH1 0x20 ADD PUSH0 KECCAK256 PUSH0 PUSH2 0x100 EXP DUP2 SLOAD DUP2 PUSH20 0xFFFFFFFFFFFFFFFFFFFFFFFFFFFFFFFFFFFFFFFF MUL NOT AND SWAP1 DUP4 PUSH20 0xFFFFFFFFFFFFFFFFFFFFFFFFFFFFFFFFFFFFFFFF AND MUL OR SWAP1 SSTORE POP POP POP POP POP JUMP JUMPDEST PUSH0 PUSH0 PUSH2 0x183E DUP5 PUSH2 0x163B JUMP JUMPDEST SWAP1 POP PUSH0 PUSH20 0xFFFFFFFFFFFFFFFFFFFFFFFFFFFFFFFFFFFFFFFF AND DUP4 PUSH20 0xFFFFFFFFFFFFFFFFFFFFFFFFFFFFFFFFFFFFFFFF AND EQ PUSH2 0x187F JUMPI PUSH2 0x187E DUP2 DUP5 DUP7 PUSH2 0x1FA0 JUMP JUMPDEST JUMPDEST PUSH0 PUSH20 0xFFFFFFFFFFFFFFFFFFFFFFFFFFFFFFFFFFFFFFFF AND DUP2 PUSH20 0xFFFFFFFFFFFFFFFFFFFFFFFFFFFFFFFFFFFFFFFF AND EQ PUSH2 0x190A JUMPI PUSH2 0x18BE PUSH0 DUP6 PUSH0 PUSH0 PUSH2 0x1674 JUMP JUMPDEST PUSH1 0x1 PUSH1 0x3 PUSH0 DUP4 PUSH20 0xFFFFFFFFFFFFFFFFFFFFFFFFFFFFFFFFFFFFFFFF AND PUSH20 0xFFFFFFFFFFFFFFFFFFFFFFFFFFFFFFFFFFFFFFFF AND DUP2 MSTORE PUSH1 0x20 ADD SWAP1 DUP2 MSTORE PUSH1 0x20 ADD PUSH0 KECCAK256 PUSH0 DUP3 DUP3 SLOAD SUB SWAP3 POP POP DUP2 SWAP1 SSTORE POP JUMPDEST PUSH0 PUSH20 0xFFFFFFFFFFFFFFFFFFFFFFFFFFFFFFFFFFFFFFFF AND DUP6 PUSH20 0xFFFFFFFFFFFFFFFFFFFFFFFFFFFFFFFFFFFFFFFF AND EQ PUSH2 0x1989 JUMPI PUSH1 0x1 PUSH1 0x3 PUSH0 DUP8 PUSH20 0xFFFFFFFFFFFFFFFFFFFFFFFFFFFFFFFFFFFFFFFF AND PUSH20 0xFFFFFFFFFFFFFFFFFFFFFFFFFFFFFFFFFFFFFFFF AND DUP2 MSTORE PUSH1 0x20 ADD SWAP1 DUP2 MSTORE PUSH1 0x20 ADD PUSH0 KECCAK256 PUSH0 DUP3 DUP3 SLOAD ADD SWAP3 POP POP DUP2 SWAP1 SSTORE POP JUMPDEST DUP5 PUSH1 0x2 PUSH0 DUP7 DUP2 MSTORE PUSH1 0x20 ADD SWAP1 DUP2 MSTORE PUSH1 0x20 ADD PUSH0 KECCAK256 PUSH0 PUSH2 0x100 EXP DUP2 SLOAD DUP2 PUSH20 0xFFFFFFFFFFFFFFFFFFFFFFFFFFFFFFFFFFFFFFFF MUL NOT AND SWAP1 DUP4 PUSH20 0xFFFFFFFFFFFFFFFFFFFFFFFFFFFFFFFFFFFFFFFF AND MUL OR SWAP1 SSTORE POP DUP4 DUP6 PUSH20 0xFFFFFFFFFFFFFFFFFFFFFFFFFFFFFFFFFFFFFFFF AND DUP3 PUSH20 0xFFFFFFFFFFFFFFFFFFFFFFFFFFFFFFFFFFFFFFFF AND PUSH32 0xDDF252AD1BE2C89B69C2B068FC378DAA952BA7F163C4A11628F55A4DF523B3EF PUSH1 0x40 MLOAD PUSH1 0x40 MLOAD DUP1 SWAP2 SUB SWAP1 LOG4 DUP1 SWAP2 POP POP SWAP4 SWAP3 POP POP POP JUMP JUMPDEST PUSH1 0x8 DUP1 SLOAD SWAP1 POP PUSH1 0x9 PUSH0 DUP4 DUP2 MSTORE PUSH1 0x20 ADD SWAP1 DUP2 MSTORE PUSH1 0x20 ADD PUSH0 KECCAK256 DUP2 SWAP1 SSTORE POP PUSH1 0x8 DUP2 SWAP1 DUP1 PUSH1 0x1 DUP2 SLOAD ADD DUP1 DUP3 SSTORE DUP1 SWAP2 POP POP PUSH1 0x1 SWAP1 SUB SWAP1 PUSH0 MSTORE PUSH1 0x20 PUSH0 KECCAK256 ADD PUSH0 SWAP1 SWAP2 SWAP1 SWAP2 SWAP1 SWAP2 POP SSTORE POP JUMP JUMPDEST PUSH0 PUSH2 0x1A8C DUP4 PUSH2 0x7E2 JUMP JUMPDEST SWAP1 POP PUSH0 PUSH1 0x7 PUSH0 DUP5 DUP2 MSTORE PUSH1 0x20 ADD SWAP1 DUP2 MSTORE PUSH1 0x20 ADD PUSH0 KECCAK256 SLOAD SWAP1 POP PUSH0 PUSH1 0x6 PUSH0 DUP7 PUSH20 0xFFFFFFFFFFFFFFFFFFFFFFFFFFFFFFFFFFFFFFFF AND PUSH20 0xFFFFFFFFFFFFFFFFFFFFFFFFFFFFFFFFFFFFFFFF AND DUP2 MSTORE PUSH1 0x20 ADD SWAP1 DUP2 MSTORE PUSH1 0x20 ADD PUSH0 KECCAK256 SWAP1 POP DUP3 DUP3 EQ PUSH2 0x1B2B JUMPI PUSH0 DUP2 PUSH0 DUP6 DUP2 MSTORE PUSH1 0x20 ADD SWAP1 DUP2 MSTORE PUSH1 0x20 ADD PUSH0 KECCAK256 SLOAD SWAP1 POP DUP1 DUP3 PUSH0 DUP6 DUP2 MSTORE PUSH1 0x20 ADD SWAP1 DUP2 MSTORE PUSH1 0x20 ADD PUSH0 KECCAK256 DUP2 SWAP1 SSTORE POP DUP3 PUSH1 0x7 PUSH0 DUP4 DUP2 MSTORE PUSH1 0x20 ADD SWAP1 DUP2 MSTORE PUSH1 0x20 ADD PUSH0 KECCAK256 DUP2 SWAP1 SSTORE POP POP JUMPDEST PUSH1 0x7 PUSH0 DUP6 DUP2 MSTORE PUSH1 0x20 ADD SWAP1 DUP2 MSTORE PUSH1 0x20 ADD PUSH0 KECCAK256 PUSH0 SWAP1 SSTORE DUP1 PUSH0 DUP5 DUP2 MSTORE PUSH1 0x20 ADD SWAP1 DUP2 MSTORE PUSH1 0x20 ADD PUSH0 KECCAK256 PUSH0 SWAP1 SSTORE POP POP POP POP POP JUMP JUMPDEST PUSH0 PUSH1 0x1 PUSH1 0x8 DUP1 SLOAD SWAP1 POP PUSH2 0x1B6C SWAP2 SWAP1 PUSH2 0x31DC JUMP JUMPDEST SWAP1 POP PUSH0 PUSH1 0x9 PUSH0 DUP5 DUP2 MSTORE PUSH1 0x20 ADD SWAP1 DUP2 MSTORE PUSH1 0x20 ADD PUSH0 KECCAK256 SLOAD SWAP1 POP PUSH0 PUSH1 0x8 DUP4 DUP2 SLOAD DUP2 LT PUSH2 0x1B98 JUMPI PUSH2 0x1B97 PUSH2 0x292E JUMP JUMPDEST JUMPDEST SWAP1 PUSH0 MSTORE PUSH1 0x20 PUSH0 KECCAK256 ADD SLOAD SWAP1 POP DUP1 PUSH1 0x8 DUP4 DUP2 SLOAD DUP2 LT PUSH2 0x1BB8 JUMPI PUSH2 0x1BB7 PUSH2 0x292E JUMP JUMPDEST JUMPDEST SWAP1 PUSH0 MSTORE PUSH1 0x20 PUSH0 KECCAK256 ADD DUP2 SWAP1 SSTORE POP DUP2 PUSH1 0x9 PUSH0 DUP4 DUP2 MSTORE PUSH1 0x20 ADD SWAP1 DUP2 MSTORE PUSH1 0x20 ADD PUSH0 KECCAK256 DUP2 SWAP1 SSTORE POP PUSH1 0x9 PUSH0 DUP6 DUP2 MSTORE PUSH1 0x20 ADD SWAP1 DUP2 MSTORE PUSH1 0x20 ADD PUSH0 KECCAK256 PUSH0 SWAP1 SSTORE PUSH1 0x8 DUP1 SLOAD DUP1 PUSH2 0x1C00 JUMPI PUSH2 0x1BFF PUSH2 0x320F JUMP JUMPDEST JUMPDEST PUSH1 0x1 SWAP1 SUB DUP2 DUP2 SWAP1 PUSH0 MSTORE PUSH1 0x20 PUSH0 KECCAK256 ADD PUSH0 SWAP1 SSTORE SWAP1 SSTORE POP POP POP POP JUMP JUMPDEST PUSH0 PUSH1 0x1 PUSH2 0x1C25 DUP5 PUSH2 0x7E2 JUMP JUMPDEST PUSH2 0x1C2F SWAP2 SWAP1 PUSH2 0x31DC JUMP JUMPDEST SWAP1 POP DUP2 PUSH1 0x6 PUSH0 DUP6 PUSH20 0xFFFFFFFFFFFFFFFFFFFFFFFFFFFFFFFFFFFFFFFF AND PUSH20 0xFFFFFFFFFFFFFFFFFFFFFFFFFFFFFFFFFFFFFFFF AND DUP2 MSTORE PUSH1 0x20 ADD SWAP1 DUP2 MSTORE PUSH1 0x20 ADD PUSH0 KECCAK256 PUSH0 DUP4 DUP2 MSTORE PUSH1 0x20 ADD SWAP1 DUP2 MSTORE PUSH1 0x20 ADD PUSH0 KECCAK256 DUP2 SWAP1 SSTORE POP DUP1 PUSH1 0x7 PUSH0 DUP5 DUP2 MSTORE PUSH1 0x20 ADD SWAP1 DUP2 MSTORE PUSH1 0x20 ADD PUSH0 KECCAK256 DUP2 SWAP1 SSTORE POP POP POP POP JUMP JUMPDEST PUSH2 0x1CA7 DUP4 DUP4 PUSH2 0x2063 JUMP JUMPDEST PUSH2 0x1CBB PUSH2 0x1CB2 PUSH2 0xF2C JUMP JUMPDEST PUSH0 DUP6 DUP6 DUP6 PUSH2 0x132F JUMP JUMPDEST POP POP POP JUMP JUMPDEST PUSH0 PUSH0 PUSH0 SWAP1 POP PUSH27 0x184F03E93FF9F4DAA797ED6E38ED64BF6A1F010000000000000000 DUP4 LT PUSH2 0x1D1C JUMPI PUSH27 0x184F03E93FF9F4DAA797ED6E38ED64BF6A1F010000000000000000 DUP4 DUP2 PUSH2 0x1D12 JUMPI PUSH2 0x1D11 PUSH2 0x31AF JUMP JUMPDEST JUMPDEST DIV SWAP3 POP PUSH1 0x40 DUP2 ADD SWAP1 POP JUMPDEST PUSH14 0x4EE2D6D415B85ACEF8100000000 DUP4 LT PUSH2 0x1D59 JUMPI PUSH14 0x4EE2D6D415B85ACEF8100000000 DUP4 DUP2 PUSH2 0x1D4F JUMPI PUSH2 0x1D4E PUSH2 0x31AF JUMP JUMPDEST JUMPDEST DIV SWAP3 POP PUSH1 0x20 DUP2 ADD SWAP1 POP JUMPDEST PUSH7 0x2386F26FC10000 DUP4 LT PUSH2 0x1D88 JUMPI PUSH7 0x2386F26FC10000 DUP4 DUP2 PUSH2 0x1D7E JUMPI PUSH2 0x1D7D PUSH2 0x31AF JUMP JUMPDEST JUMPDEST DIV SWAP3 POP PUSH1 0x10 DUP2 ADD SWAP1 POP JUMPDEST PUSH4 0x5F5E100 DUP4 LT PUSH2 0x1DB1 JUMPI PUSH4 0x5F5E100 DUP4 DUP2 PUSH2 0x1DA7 JUMPI PUSH2 0x1DA6 PUSH2 0x31AF JUMP JUMPDEST JUMPDEST DIV SWAP3 POP PUSH1 0x8 DUP2 ADD SWAP1 POP JUMPDEST PUSH2 0x2710 DUP4 LT PUSH2 0x1DD6 JUMPI PUSH2 0x2710 DUP4 DUP2 PUSH2 0x1DCC JUMPI PUSH2 0x1DCB PUSH2 0x31AF JUMP JUMPDEST JUMPDEST DIV SWAP3 POP PUSH1 0x4 DUP2 ADD SWAP1 POP JUMPDEST PUSH1 0x64 DUP4 LT PUSH2 0x1DF9 JUMPI PUSH1 0x64 DUP4 DUP2 PUSH2 0x1DEF JUMPI PUSH2 0x1DEE PUSH2 0x31AF JUMP JUMPDEST JUMPDEST DIV SWAP3 POP PUSH1 0x2 DUP2 ADD SWAP1 POP JUMPDEST PUSH1 0xA DUP4 LT PUSH2 0x1E08 JUMPI PUSH1 0x1 DUP2 ADD SWAP1 POP JUMPDEST DUP1 SWAP2 POP POP SWAP2 SWAP1 POP JUMP JUMPDEST PUSH1 0x60 PUSH0 DUP5 MLOAD SUB PUSH2 0x1E31 JUMPI PUSH1 0x40 MLOAD DUP1 PUSH1 0x20 ADD PUSH1 0x40 MSTORE DUP1 PUSH0 DUP2 MSTORE POP SWAP1 POP PUSH2 0x1F99 JUMP JUMPDEST PUSH0 DUP3 PUSH2 0x1E62 JUMPI PUSH1 0x3 PUSH1 0x2 DUP7 MLOAD PUSH1 0x4 PUSH2 0x1E49 SWAP2 SWAP1 PUSH2 0x323C JUMP JUMPDEST PUSH2 0x1E53 SWAP2 SWAP1 PUSH2 0x327D JUMP JUMPDEST PUSH2 0x1E5D SWAP2 SWAP1 PUSH2 0x32B0 JUMP JUMPDEST PUSH2 0x1E89 JUMP JUMPDEST PUSH1 0x3 PUSH1 0x2 DUP7 MLOAD PUSH2 0x1E72 SWAP2 SWAP1 PUSH2 0x327D JUMP JUMPDEST PUSH2 0x1E7C SWAP2 SWAP1 PUSH2 0x32B0 JUMP JUMPDEST PUSH1 0x4 PUSH2 0x1E88 SWAP2 SWAP1 PUSH2 0x323C JUMP JUMPDEST JUMPDEST SWAP1 POP PUSH0 DUP2 PUSH8 0xFFFFFFFFFFFFFFFF DUP2 GT ISZERO PUSH2 0x1EA6 JUMPI PUSH2 0x1EA5 PUSH2 0x2533 JUMP JUMPDEST JUMPDEST PUSH1 0x40 MLOAD SWAP1 DUP1 DUP3 MSTORE DUP1 PUSH1 0x1F ADD PUSH1 0x1F NOT AND PUSH1 0x20 ADD DUP3 ADD PUSH1 0x40 MSTORE DUP1 ISZERO PUSH2 0x1ED8 JUMPI DUP2 PUSH1 0x20 ADD PUSH1 0x1 DUP3 MUL DUP1 CALLDATASIZE DUP4 CALLDATACOPY DUP1 DUP3 ADD SWAP2 POP POP SWAP1 POP JUMPDEST POP SWAP1 POP PUSH1 0x1 DUP6 ADD PUSH1 0x20 DUP3 ADD DUP8 DUP9 MLOAD DUP10 ADD PUSH1 0x20 DUP2 ADD DUP1 MLOAD PUSH0 DUP3 MSTORE JUMPDEST DUP3 DUP5 LT ISZERO PUSH2 0x1F4D JUMPI PUSH1 0x3 DUP5 ADD SWAP4 POP DUP4 MLOAD PUSH1 0x3F DUP2 PUSH1 0x12 SHR AND DUP8 ADD MLOAD DUP7 MSTORE8 PUSH1 0x1 DUP7 ADD SWAP6 POP PUSH1 0x3F DUP2 PUSH1 0xC SHR AND DUP8 ADD MLOAD DUP7 MSTORE8 PUSH1 0x1 DUP7 ADD SWAP6 POP PUSH1 0x3F DUP2 PUSH1 0x6 SHR AND DUP8 ADD MLOAD DUP7 MSTORE8 PUSH1 0x1 DUP7 ADD SWAP6 POP PUSH1 0x3F DUP2 AND DUP8 ADD MLOAD DUP7 MSTORE8 PUSH1 0x1 DUP7 ADD SWAP6 POP POP PUSH2 0x1EF2 JUMP JUMPDEST DUP1 DUP3 MSTORE DUP10 ISZERO PUSH2 0x1F8D JUMPI PUSH1 0x3 DUP13 MLOAD MOD PUSH1 0x1 DUP2 EQ PUSH2 0x1F70 JUMPI PUSH1 0x2 DUP2 EQ PUSH2 0x1F83 JUMPI PUSH2 0x1F8B JUMP JUMPDEST PUSH1 0x3D PUSH1 0x1 DUP8 SUB MSTORE8 PUSH1 0x3D PUSH1 0x2 DUP8 SUB MSTORE8 PUSH2 0x1F8B JUMP JUMPDEST PUSH1 0x3D PUSH1 0x1 DUP8 SUB MSTORE8 JUMPDEST POP JUMPDEST POP POP POP POP POP POP DUP1 SWAP3 POP POP POP JUMPDEST SWAP4 SWAP3 POP POP POP JUMP JUMPDEST PUSH2 0x1FAB DUP4 DUP4 DUP4 PUSH2 0x2156 JUMP JUMPDEST PUSH2 0x205E JUMPI PUSH0 PUSH20 0xFFFFFFFFFFFFFFFFFFFFFFFFFFFFFFFFFFFFFFFF AND DUP4 PUSH20 0xFFFFFFFFFFFFFFFFFFFFFFFFFFFFFFFFFFFFFFFF AND SUB PUSH2 0x201F JUMPI DUP1 PUSH1 0x40 MLOAD PUSH32 0x7E27328900000000000000000000000000000000000000000000000000000000 DUP2 MSTORE PUSH1 0x4 ADD PUSH2 0x2016 SWAP2 SWAP1 PUSH2 0x2497 JUMP JUMPDEST PUSH1 0x40 MLOAD DUP1 SWAP2 SUB SWAP1 REVERT JUMPDEST DUP2 DUP2 PUSH1 0x40 MLOAD PUSH32 0x177E802F00000000000000000000000000000000000000000000000000000000 DUP2 MSTORE PUSH1 0x4 ADD PUSH2 0x2055 SWAP3 SWAP2 SWAP1 PUSH2 0x2907 JUMP JUMPDEST PUSH1 0x40 MLOAD DUP1 SWAP2 SUB SWAP1 REVERT JUMPDEST POP POP POP JUMP JUMPDEST PUSH0 PUSH20 0xFFFFFFFFFFFFFFFFFFFFFFFFFFFFFFFFFFFFFFFF AND DUP3 PUSH20 0xFFFFFFFFFFFFFFFFFFFFFFFFFFFFFFFFFFFFFFFF AND SUB PUSH2 0x20D3 JUMPI PUSH0 PUSH1 0x40 MLOAD PUSH32 0x64A0AE9200000000000000000000000000000000000000000000000000000000 DUP2 MSTORE PUSH1 0x4 ADD PUSH2 0x20CA SWAP2 SWAP1 PUSH2 0x2407 JUMP JUMPDEST PUSH1 0x40 MLOAD DUP1 SWAP2 SUB SWAP1 REVERT JUMPDEST PUSH0 PUSH2 0x20DF DUP4 DUP4 PUSH0 PUSH2 0xF45 JUMP JUMPDEST SWAP1 POP PUSH0 PUSH20 0xFFFFFFFFFFFFFFFFFFFFFFFFFFFFFFFFFFFFFFFF AND DUP2 PUSH20 0xFFFFFFFFFFFFFFFFFFFFFFFFFFFFFFFFFFFFFFFF AND EQ PUSH2 0x2151 JUMPI PUSH0 PUSH1 0x40 MLOAD PUSH32 0x73C6AC6E00000000000000000000000000000000000000000000000000000000 DUP2 MSTORE PUSH1 0x4 ADD PUSH2 0x2148 SWAP2 SWAP1 PUSH2 0x2407 JUMP JUMPDEST PUSH1 0x40 MLOAD DUP1 SWAP2 SUB SWAP1 REVERT JUMPDEST POP POP POP JUMP JUMPDEST PUSH0 PUSH0 PUSH20 0xFFFFFFFFFFFFFFFFFFFFFFFFFFFFFFFFFFFFFFFF AND DUP4 PUSH20 0xFFFFFFFFFFFFFFFFFFFFFFFFFFFFFFFFFFFFFFFF AND EQ ISZERO DUP1 ISZERO PUSH2 0x220D JUMPI POP DUP3 PUSH20 0xFFFFFFFFFFFFFFFFFFFFFFFFFFFFFFFFFFFFFFFF AND DUP5 PUSH20 0xFFFFFFFFFFFFFFFFFFFFFFFFFFFFFFFFFFFFFFFF AND EQ DUP1 PUSH2 0x21CE JUMPI POP PUSH2 0x21CD DUP5 DUP5 PUSH2 0xC7A JUMP JUMPDEST JUMPDEST DUP1 PUSH2 0x220C JUMPI POP DUP3 PUSH20 0xFFFFFFFFFFFFFFFFFFFFFFFFFFFFFFFFFFFFFFFF AND PUSH2 0x21F4 DUP4 PUSH2 0xEF3 JUMP JUMPDEST PUSH20 0xFFFFFFFFFFFFFFFFFFFFFFFFFFFFFFFFFFFFFFFF AND EQ JUMPDEST JUMPDEST SWAP1 POP SWAP4 SWAP3 POP POP POP JUMP JUMPDEST PUSH0 PUSH1 0x40 MLOAD SWAP1 POP SWAP1 JUMP JUMPDEST PUSH0 PUSH0 REVERT JUMPDEST PUSH0 PUSH0 REVERT JUMPDEST PUSH0 PUSH32 0xFFFFFFFF00000000000000000000000000000000000000000000000000000000 DUP3 AND SWAP1 POP SWAP2 SWAP1 POP JUMP JUMPDEST PUSH2 0x225B DUP2 PUSH2 0x2227 JUMP JUMPDEST DUP2 EQ PUSH2 0x2265 JUMPI PUSH0 PUSH0 REVERT JUMPDEST POP JUMP JUMPDEST PUSH0 DUP2 CALLDATALOAD SWAP1 POP PUSH2 0x2276 DUP2 PUSH2 0x2252 JUMP JUMPDEST SWAP3 SWAP2 POP POP JUMP JUMPDEST PUSH0 PUSH1 0x20 DUP3 DUP5 SUB SLT ISZERO PUSH2 0x2291 JUMPI PUSH2 0x2290 PUSH2 0x221F JUMP JUMPDEST JUMPDEST PUSH0 PUSH2 0x229E DUP5 DUP3 DUP6 ADD PUSH2 0x2268 JUMP JUMPDEST SWAP2 POP POP SWAP3 SWAP2 POP POP JUMP JUMPDEST PUSH0 DUP2 ISZERO ISZERO SWAP1 POP SWAP2 SWAP1 POP JUMP JUMPDEST PUSH2 0x22BB DUP2 PUSH2 0x22A7 JUMP JUMPDEST DUP3 MSTORE POP POP JUMP JUMPDEST PUSH0 PUSH1 0x20 DUP3 ADD SWAP1 POP PUSH2 0x22D4 PUSH0 DUP4 ADD DUP5 PUSH2 0x22B2 JUMP JUMPDEST SWAP3 SWAP2 POP POP JUMP JUMPDEST PUSH0 DUP2 MLOAD SWAP1 POP SWAP2 SWAP1 POP JUMP JUMPDEST PUSH0 DUP3 DUP3 MSTORE PUSH1 0x20 DUP3 ADD SWAP1 POP SWAP3 SWAP2 POP POP JUMP JUMPDEST DUP3 DUP2 DUP4 MCOPY PUSH0 DUP4 DUP4 ADD MSTORE POP POP POP JUMP JUMPDEST PUSH0 PUSH1 0x1F NOT PUSH1 0x1F DUP4 ADD AND SWAP1 POP SWAP2 SWAP1 POP JUMP JUMPDEST PUSH0 PUSH2 0x231C DUP3 PUSH2 0x22DA JUMP JUMPDEST PUSH2 0x2326 DUP2 DUP6 PUSH2 0x22E4 JUMP JUMPDEST SWAP4 POP PUSH2 0x2336 DUP2 DUP6 PUSH1 0x20 DUP7 ADD PUSH2 0x22F4 JUMP JUMPDEST PUSH2 0x233F DUP2 PUSH2 0x2302 JUMP JUMPDEST DUP5 ADD SWAP2 POP POP SWAP3 SWAP2 POP POP JUMP JUMPDEST PUSH0 PUSH1 0x20 DUP3 ADD SWAP1 POP DUP2 DUP2 SUB PUSH0 DUP4 ADD MSTORE PUSH2 0x2362 DUP2 DUP5 PUSH2 0x2312 JUMP JUMPDEST SWAP1 POP SWAP3 SWAP2 POP POP JUMP JUMPDEST PUSH0 DUP2 SWAP1 POP SWAP2 SWAP1 POP JUMP JUMPDEST PUSH2 0x237C DUP2 PUSH2 0x236A JUMP JUMPDEST DUP2 EQ PUSH2 0x2386 JUMPI PUSH0 PUSH0 REVERT JUMPDEST POP JUMP JUMPDEST PUSH0 DUP2 CALLDATALOAD SWAP1 POP PUSH2 0x2397 DUP2 PUSH2 0x2373 JUMP JUMPDEST SWAP3 SWAP2 POP POP JUMP JUMPDEST PUSH0 PUSH1 0x20 DUP3 DUP5 SUB SLT ISZERO PUSH2 0x23B2 JUMPI PUSH2 0x23B1 PUSH2 0x221F JUMP JUMPDEST JUMPDEST PUSH0 PUSH2 0x23BF DUP5 DUP3 DUP6 ADD PUSH2 0x2389 JUMP JUMPDEST SWAP2 POP POP SWAP3 SWAP2 POP POP JUMP JUMPDEST PUSH0 PUSH20 0xFFFFFFFFFFFFFFFFFFFFFFFFFFFFFFFFFFFFFFFF DUP3 AND SWAP1 POP SWAP2 SWAP1 POP JUMP JUMPDEST PUSH0 PUSH2 0x23F1 DUP3 PUSH2 0x23C8 JUMP JUMPDEST SWAP1 POP SWAP2 SWAP1 POP JUMP JUMPDEST PUSH2 0x2401 DUP2 PUSH2 0x23E7 JUMP JUMPDEST DUP3 MSTORE POP POP JUMP JUMPDEST PUSH0 PUSH1 0x20 DUP3 ADD SWAP1 POP PUSH2 0x241A PUSH0 DUP4 ADD DUP5 PUSH2 0x23F8 JUMP JUMPDEST SWAP3 SWAP2 POP POP JUMP JUMPDEST PUSH2 0x2429 DUP2 PUSH2 0x23E7 JUMP JUMPDEST DUP2 EQ PUSH2 0x2433 JUMPI PUSH0 PUSH0 REVERT JUMPDEST POP JUMP JUMPDEST PUSH0 DUP2 CALLDATALOAD SWAP1 POP PUSH2 0x2444 DUP2 PUSH2 0x2420 JUMP JUMPDEST SWAP3 SWAP2 POP POP JUMP JUMPDEST PUSH0 PUSH0 PUSH1 0x40 DUP4 DUP6 SUB SLT ISZERO PUSH2 0x2460 JUMPI PUSH2 0x245F PUSH2 0x221F JUMP JUMPDEST JUMPDEST PUSH0 PUSH2 0x246D DUP6 DUP3 DUP7 ADD PUSH2 0x2436 JUMP JUMPDEST SWAP3 POP POP PUSH1 0x20 PUSH2 0x247E DUP6 DUP3 DUP7 ADD PUSH2 0x2389 JUMP JUMPDEST SWAP2 POP POP SWAP3 POP SWAP3 SWAP1 POP JUMP JUMPDEST PUSH2 0x2491 DUP2 PUSH2 0x236A JUMP JUMPDEST DUP3 MSTORE POP POP JUMP JUMPDEST PUSH0 PUSH1 0x20 DUP3 ADD SWAP1 POP PUSH2 0x24AA PUSH0 DUP4 ADD DUP5 PUSH2 0x2488 JUMP JUMPDEST SWAP3 SWAP2 POP POP JUMP JUMPDEST PUSH0 PUSH0 PUSH0 PUSH1 0x60 DUP5 DUP7 SUB SLT ISZERO PUSH2 0x24C7 JUMPI PUSH2 0x24C6 PUSH2 0x221F JUMP JUMPDEST JUMPDEST PUSH0 PUSH2 0x24D4 DUP7 DUP3 DUP8 ADD PUSH2 0x2436 JUMP JUMPDEST SWAP4 POP POP PUSH1 0x20 PUSH2 0x24E5 DUP7 DUP3 DUP8 ADD PUSH2 0x2436 JUMP JUMPDEST SWAP3 POP POP PUSH1 0x40 PUSH2 0x24F6 DUP7 DUP3 DUP8 ADD PUSH2 0x2389 JUMP JUMPDEST SWAP2 POP POP SWAP3 POP SWAP3 POP SWAP3 JUMP JUMPDEST PUSH0 PUSH1 0x20 DUP3 DUP5 SUB SLT ISZERO PUSH2 0x2515 JUMPI PUSH2 0x2514 PUSH2 0x221F JUMP JUMPDEST JUMPDEST PUSH0 PUSH2 0x2522 DUP5 DUP3 DUP6 ADD PUSH2 0x2436 JUMP JUMPDEST SWAP2 POP POP SWAP3 SWAP2 POP POP JUMP JUMPDEST PUSH0 PUSH0 REVERT JUMPDEST PUSH0 PUSH0 REVERT JUMPDEST PUSH32 0x4E487B7100000000000000000000000000000000000000000000000000000000 PUSH0 MSTORE PUSH1 0x41 PUSH1 0x4 MSTORE PUSH1 0x24 PUSH0 REVERT JUMPDEST PUSH2 0x2569 DUP3 PUSH2 0x2302 JUMP JUMPDEST DUP2 ADD DUP2 DUP2 LT PUSH8 0xFFFFFFFFFFFFFFFF DUP3 GT OR ISZERO PUSH2 0x2588 JUMPI PUSH2 0x2587 PUSH2 0x2533 JUMP JUMPDEST JUMPDEST DUP1 PUSH1 0x40 MSTORE POP POP POP JUMP JUMPDEST PUSH0 PUSH2 0x259A PUSH2 0x2216 JUMP JUMPDEST SWAP1 POP PUSH2 0x25A6 DUP3 DUP3 PUSH2 0x2560 JUMP JUMPDEST SWAP2 SWAP1 POP JUMP JUMPDEST PUSH0 PUSH8 0xFFFFFFFFFFFFFFFF DUP3 GT ISZERO PUSH2 0x25C5 JUMPI PUSH2 0x25C4 PUSH2 0x2533 JUMP JUMPDEST JUMPDEST PUSH2 0x25CE DUP3 PUSH2 0x2302 JUMP JUMPDEST SWAP1 POP PUSH1 0x20 DUP2 ADD SWAP1 POP SWAP2 SWAP1 POP JUMP JUMPDEST DUP3 DUP2 DUP4 CALLDATACOPY PUSH0 DUP4 DUP4 ADD MSTORE POP POP POP JUMP JUMPDEST PUSH0 PUSH2 0x25FB PUSH2 0x25F6 DUP5 PUSH2 0x25AB JUMP JUMPDEST PUSH2 0x2591 JUMP JUMPDEST SWAP1 POP DUP3 DUP2 MSTORE PUSH1 0x20 DUP2 ADD DUP5 DUP5 DUP5 ADD GT ISZERO PUSH2 0x2617 JUMPI PUSH2 0x2616 PUSH2 0x252F JUMP JUMPDEST JUMPDEST PUSH2 0x2622 DUP5 DUP3 DUP6 PUSH2 0x25DB JUMP JUMPDEST POP SWAP4 SWAP3 POP POP POP JUMP JUMPDEST PUSH0 DUP3 PUSH1 0x1F DUP4 ADD SLT PUSH2 0x263E JUMPI PUSH2 0x263D PUSH2 0x252B JUMP JUMPDEST JUMPDEST DUP2 CALLDATALOAD PUSH2 0x264E DUP5 DUP3 PUSH1 0x20 DUP7 ADD PUSH2 0x25E9 JUMP JUMPDEST SWAP2 POP POP SWAP3 SWAP2 POP POP JUMP JUMPDEST PUSH0 PUSH0 PUSH1 0x40 DUP4 DUP6 SUB SLT ISZERO PUSH2 0x266D JUMPI PUSH2 0x266C PUSH2 0x221F JUMP JUMPDEST JUMPDEST PUSH0 PUSH2 0x267A DUP6 DUP3 DUP7 ADD PUSH2 0x2436 JUMP JUMPDEST SWAP3 POP POP PUSH1 0x20 DUP4 ADD CALLDATALOAD PUSH8 0xFFFFFFFFFFFFFFFF DUP2 GT ISZERO PUSH2 0x269B JUMPI PUSH2 0x269A PUSH2 0x2223 JUMP JUMPDEST JUMPDEST PUSH2 0x26A7 DUP6 DUP3 DUP7 ADD PUSH2 0x262A JUMP JUMPDEST SWAP2 POP POP SWAP3 POP SWAP3 SWAP1 POP JUMP JUMPDEST PUSH2 0x26BA DUP2 PUSH2 0x22A7 JUMP JUMPDEST DUP2 EQ PUSH2 0x26C4 JUMPI PUSH0 PUSH0 REVERT JUMPDEST POP JUMP JUMPDEST PUSH0 DUP2 CALLDATALOAD SWAP1 POP PUSH2 0x26D5 DUP2 PUSH2 0x26B1 JUMP JUMPDEST SWAP3 SWAP2 POP POP JUMP JUMPDEST PUSH0 PUSH0 PUSH1 0x40 DUP4 DUP6 SUB SLT ISZERO PUSH2 0x26F1 JUMPI PUSH2 0x26F0 PUSH2 0x221F JUMP JUMPDEST JUMPDEST PUSH0 PUSH2 0x26FE DUP6 DUP3 DUP7 ADD PUSH2 0x2436 JUMP JUMPDEST SWAP3 POP POP PUSH1 0x20 PUSH2 0x270F DUP6 DUP3 DUP7 ADD PUSH2 0x26C7 JUMP JUMPDEST SWAP2 POP POP SWAP3 POP SWAP3 SWAP1 POP JUMP JUMPDEST PUSH0 PUSH8 0xFFFFFFFFFFFFFFFF DUP3 GT ISZERO PUSH2 0x2733 JUMPI PUSH2 0x2732 PUSH2 0x2533 JUMP JUMPDEST JUMPDEST PUSH2 0x273C DUP3 PUSH2 0x2302 JUMP JUMPDEST SWAP1 POP PUSH1 0x20 DUP2 ADD SWAP1 POP SWAP2 SWAP1 POP JUMP JUMPDEST PUSH0 PUSH2 0x275B PUSH2 0x2756 DUP5 PUSH2 0x2719 JUMP JUMPDEST PUSH2 0x2591 JUMP JUMPDEST SWAP1 POP DUP3 DUP2 MSTORE PUSH1 0x20 DUP2 ADD DUP5 DUP5 DUP5 ADD GT ISZERO PUSH2 0x2777 JUMPI PUSH2 0x2776 PUSH2 0x252F JUMP JUMPDEST JUMPDEST PUSH2 0x2782 DUP5 DUP3 DUP6 PUSH2 0x25DB JUMP JUMPDEST POP SWAP4 SWAP3 POP POP POP JUMP JUMPDEST PUSH0 DUP3 PUSH1 0x1F DUP4 ADD SLT PUSH2 0x279E JUMPI PUSH2 0x279D PUSH2 0x252B JUMP JUMPDEST JUMPDEST DUP2 CALLDATALOAD PUSH2 0x27AE DUP5 DUP3 PUSH1 0x20 DUP7 ADD PUSH2 0x2749 JUMP JUMPDEST SWAP2 POP POP SWAP3 SWAP2 POP POP JUMP JUMPDEST PUSH0 PUSH0 PUSH0 PUSH0 PUSH1 0x80 DUP6 DUP8 SUB SLT ISZERO PUSH2 0x27CF JUMPI PUSH2 0x27CE PUSH2 0x221F JUMP JUMPDEST JUMPDEST PUSH0 PUSH2 0x27DC DUP8 DUP3 DUP9 ADD PUSH2 0x2436 JUMP JUMPDEST SWAP5 POP POP PUSH1 0x20 PUSH2 0x27ED DUP8 DUP3 DUP9 ADD PUSH2 0x2436 JUMP JUMPDEST SWAP4 POP POP PUSH1 0x40 PUSH2 0x27FE DUP8 DUP3 DUP9 ADD PUSH2 0x2389 JUMP JUMPDEST SWAP3 POP POP PUSH1 0x60 DUP6 ADD CALLDATALOAD PUSH8 0xFFFFFFFFFFFFFFFF DUP2 GT ISZERO PUSH2 0x281F JUMPI PUSH2 0x281E PUSH2 0x2223 JUMP JUMPDEST JUMPDEST PUSH2 0x282B DUP8 DUP3 DUP9 ADD PUSH2 0x278A JUMP JUMPDEST SWAP2 POP POP SWAP3 SWAP6 SWAP2 SWAP5 POP SWAP3 POP JUMP JUMPDEST PUSH0 PUSH0 PUSH1 0x40 DUP4 DUP6 SUB SLT ISZERO PUSH2 0x284D JUMPI PUSH2 0x284C PUSH2 0x221F JUMP JUMPDEST JUMPDEST PUSH0 PUSH2 0x285A DUP6 DUP3 DUP7 ADD PUSH2 0x2436 JUMP JUMPDEST SWAP3 POP POP PUSH1 0x20 PUSH2 0x286B DUP6 DUP3 DUP7 ADD PUSH2 0x2436 JUMP JUMPDEST SWAP2 POP POP SWAP3 POP SWAP3 SWAP1 POP JUMP JUMPDEST PUSH32 0x4E487B7100000000000000000000000000000000000000000000000000000000 PUSH0 MSTORE PUSH1 0x22 PUSH1 0x4 MSTORE PUSH1 0x24 PUSH0 REVERT JUMPDEST PUSH0 PUSH1 0x2 DUP3 DIV SWAP1 POP PUSH1 0x1 DUP3 AND DUP1 PUSH2 0x28B9 JUMPI PUSH1 0x7F DUP3 AND SWAP2 POP JUMPDEST PUSH1 0x20 DUP3 LT DUP2 SUB PUSH2 0x28CC JUMPI PUSH2 0x28CB PUSH2 0x2875 JUMP JUMPDEST JUMPDEST POP SWAP2 SWAP1 POP JUMP JUMPDEST PUSH0 PUSH1 0x60 DUP3 ADD SWAP1 POP PUSH2 0x28E5 PUSH0 DUP4 ADD DUP7 PUSH2 0x23F8 JUMP JUMPDEST PUSH2 0x28F2 PUSH1 0x20 DUP4 ADD DUP6 PUSH2 0x2488 JUMP JUMPDEST PUSH2 0x28FF PUSH1 0x40 DUP4 ADD DUP5 PUSH2 0x23F8 JUMP JUMPDEST SWAP5 SWAP4 POP POP POP POP JUMP JUMPDEST PUSH0 PUSH1 0x40 DUP3 ADD SWAP1 POP PUSH2 0x291A PUSH0 DUP4 ADD DUP6 PUSH2 0x23F8 JUMP JUMPDEST PUSH2 0x2927 PUSH1 0x20 DUP4 ADD DUP5 PUSH2 0x2488 JUMP JUMPDEST SWAP4 SWAP3 POP POP POP JUMP JUMPDEST PUSH32 0x4E487B7100000000000000000000000000000000000000000000000000000000 PUSH0 MSTORE PUSH1 0x32 PUSH1 0x4 MSTORE PUSH1 0x24 PUSH0 REVERT JUMPDEST PUSH32 0x566964656F2049442063616E6E6F7420626520656D7074790000000000000000 PUSH0 DUP3 ADD MSTORE POP JUMP JUMPDEST PUSH0 PUSH2 0x298F PUSH1 0x18 DUP4 PUSH2 0x22E4 JUMP JUMPDEST SWAP2 POP PUSH2 0x299A DUP3 PUSH2 0x295B JUMP JUMPDEST PUSH1 0x20 DUP3 ADD SWAP1 POP SWAP2 SWAP1 POP JUMP JUMPDEST PUSH0 PUSH1 0x20 DUP3 ADD SWAP1 POP DUP2 DUP2 SUB PUSH0 DUP4 ADD MSTORE PUSH2 0x29BC DUP2 PUSH2 0x2983 JUMP JUMPDEST SWAP1 POP SWAP2 SWAP1 POP JUMP JUMPDEST PUSH0 DUP2 SWAP1 POP DUP2 PUSH0 MSTORE PUSH1 0x20 PUSH0 KECCAK256 SWAP1 POP SWAP2 SWAP1 POP JUMP JUMPDEST PUSH0 PUSH1 0x20 PUSH1 0x1F DUP4 ADD DIV SWAP1 POP SWAP2 SWAP1 POP JUMP JUMPDEST PUSH0 DUP3 DUP3 SHL SWAP1 POP SWAP3 SWAP2 POP POP JUMP JUMPDEST PUSH0 PUSH1 0x8 DUP4 MUL PUSH2 0x2A1F PUSH32 0xFFFFFFFFFFFFFFFFFFFFFFFFFFFFFFFFFFFFFFFFFFFFFFFFFFFFFFFFFFFFFFFF DUP3 PUSH2 0x29E4 JUMP JUMPDEST PUSH2 0x2A29 DUP7 DUP4 PUSH2 0x29E4 JUMP JUMPDEST SWAP6 POP DUP1 NOT DUP5 AND SWAP4 POP DUP1 DUP7 AND DUP5 OR SWAP3 POP POP POP SWAP4 SWAP3 POP POP POP JUMP JUMPDEST PUSH0 DUP2 SWAP1 POP SWAP2 SWAP1 POP JUMP JUMPDEST PUSH0 PUSH2 0x2A64 PUSH2 0x2A5F PUSH2 0x2A5A DUP5 PUSH2 0x236A JUMP JUMPDEST PUSH2 0x2A41 JUMP JUMPDEST PUSH2 0x236A JUMP JUMPDEST SWAP1 POP SWAP2 SWAP1 POP JUMP JUMPDEST PUSH0 DUP2 SWAP1 POP SWAP2 SWAP1 POP JUMP JUMPDEST PUSH2 0x2A7D DUP4 PUSH2 0x2A4A JUMP JUMPDEST PUSH2 0x2A91 PUSH2 0x2A89 DUP3 PUSH2 0x2A6B JUMP JUMPDEST DUP5 DUP5 SLOAD PUSH2 0x29F0 JUMP JUMPDEST DUP3 SSTORE POP POP POP POP JUMP JUMPDEST PUSH0 PUSH0 SWAP1 POP SWAP1 JUMP JUMPDEST PUSH2 0x2AA8 PUSH2 0x2A99 JUMP JUMPDEST PUSH2 0x2AB3 DUP2 DUP5 DUP5 PUSH2 0x2A74 JUMP JUMPDEST POP POP POP JUMP JUMPDEST JUMPDEST DUP2 DUP2 LT ISZERO PUSH2 0x2AD6 JUMPI PUSH2 0x2ACB PUSH0 DUP3 PUSH2 0x2AA0 JUMP JUMPDEST PUSH1 0x1 DUP2 ADD SWAP1 POP PUSH2 0x2AB9 JUMP JUMPDEST POP POP JUMP JUMPDEST PUSH1 0x1F DUP3 GT ISZERO PUSH2 0x2B1B JUMPI PUSH2 0x2AEC DUP2 PUSH2 0x29C3 JUMP JUMPDEST PUSH2 0x2AF5 DUP5 PUSH2 0x29D5 JUMP JUMPDEST DUP2 ADD PUSH1 0x20 DUP6 LT ISZERO PUSH2 0x2B04 JUMPI DUP2 SWAP1 POP JUMPDEST PUSH2 0x2B18 PUSH2 0x2B10 DUP6 PUSH2 0x29D5 JUMP JUMPDEST DUP4 ADD DUP3 PUSH2 0x2AB8 JUMP JUMPDEST POP POP JUMPDEST POP POP POP JUMP JUMPDEST PUSH0 DUP3 DUP3 SHR SWAP1 POP SWAP3 SWAP2 POP POP JUMP JUMPDEST PUSH0 PUSH2 0x2B3B PUSH0 NOT DUP5 PUSH1 0x8 MUL PUSH2 0x2B20 JUMP JUMPDEST NOT DUP1 DUP4 AND SWAP2 POP POP SWAP3 SWAP2 POP POP JUMP JUMPDEST PUSH0 PUSH2 0x2B53 DUP4 DUP4 PUSH2 0x2B2C JUMP JUMPDEST SWAP2 POP DUP3 PUSH1 0x2 MUL DUP3 OR SWAP1 POP SWAP3 SWAP2 POP POP JUMP JUMPDEST PUSH2 0x2B6C DUP3 PUSH2 0x22DA JUMP JUMPDEST PUSH8 0xFFFFFFFFFFFFFFFF DUP2 GT ISZERO PUSH2 0x2B85 JUMPI PUSH2 0x2B84 PUSH2 0x2533 JUMP JUMPDEST JUMPDEST PUSH2 0x2B8F DUP3 SLOAD PUSH2 0x28A2 JUMP JUMPDEST PUSH2 0x2B9A DUP3 DUP3 DUP6 PUSH2 0x2ADA JUMP JUMPDEST PUSH0 PUSH1 0x20 SWAP1 POP PUSH1 0x1F DUP4 GT PUSH1 0x1 DUP2 EQ PUSH2 0x2BCB JUMPI PUSH0 DUP5 ISZERO PUSH2 0x2BB9 JUMPI DUP3 DUP8 ADD MLOAD SWAP1 POP JUMPDEST PUSH2 0x2BC3 DUP6 DUP3 PUSH2 0x2B48 JUMP JUMPDEST DUP7 SSTORE POP PUSH2 0x2C2A JUMP JUMPDEST PUSH1 0x1F NOT DUP5 AND PUSH2 0x2BD9 DUP7 PUSH2 0x29C3 JUMP JUMPDEST PUSH0 JUMPDEST DUP3 DUP2 LT ISZERO PUSH2 0x2C00 JUMPI DUP5 DUP10 ADD MLOAD DUP3 SSTORE PUSH1 0x1 DUP3 ADD SWAP2 POP PUSH1 0x20 DUP6 ADD SWAP5 POP PUSH1 0x20 DUP2 ADD SWAP1 POP PUSH2 0x2BDB JUMP JUMPDEST DUP7 DUP4 LT ISZERO PUSH2 0x2C1D JUMPI DUP5 DUP10 ADD MLOAD PUSH2 0x2C19 PUSH1 0x1F DUP10 AND DUP3 PUSH2 0x2B2C JUMP JUMPDEST DUP4 SSTORE POP JUMPDEST PUSH1 0x1 PUSH1 0x2 DUP9 MUL ADD DUP9 SSTORE POP POP POP JUMPDEST POP POP POP POP POP POP JUMP JUMPDEST PUSH32 0x4E487B7100000000000000000000000000000000000000000000000000000000 PUSH0 MSTORE PUSH1 0x11 PUSH1 0x4 MSTORE PUSH1 0x24 PUSH0 REVERT JUMPDEST PUSH0 PUSH2 0x2C69 DUP3 PUSH2 0x236A JUMP JUMPDEST SWAP2 POP PUSH32 0xFFFFFFFFFFFFFFFFFFFFFFFFFFFFFFFFFFFFFFFFFFFFFFFFFFFFFFFFFFFFFFFF DUP3 SUB PUSH2 0x2C9B JUMPI PUSH2 0x2C9A PUSH2 0x2C32 JUMP JUMPDEST JUMPDEST PUSH1 0x1 DUP3 ADD SWAP1 POP SWAP2 SWAP1 POP JUMP JUMPDEST PUSH32 0x546F6B656E5552493A20496E76616C696420746F6B656E204944206F72207669 PUSH0 DUP3 ADD MSTORE PUSH32 0x64656F204944206E6F7420666F756E6400000000000000000000000000000000 PUSH1 0x20 DUP3 ADD MSTORE POP JUMP JUMPDEST PUSH0 PUSH2 0x2D00 PUSH1 0x30 DUP4 PUSH2 0x22E4 JUMP JUMPDEST SWAP2 POP PUSH2 0x2D0B DUP3 PUSH2 0x2CA6 JUMP JUMPDEST PUSH1 0x40 DUP3 ADD SWAP1 POP SWAP2 SWAP1 POP JUMP JUMPDEST PUSH0 PUSH1 0x20 DUP3 ADD SWAP1 POP DUP2 DUP2 SUB PUSH0 DUP4 ADD MSTORE PUSH2 0x2D2D DUP2 PUSH2 0x2CF4 JUMP JUMPDEST SWAP1 POP SWAP2 SWAP1 POP JUMP JUMPDEST PUSH0 DUP2 SWAP1 POP SWAP3 SWAP2 POP POP JUMP JUMPDEST PUSH32 0x68747470733A2F2F696D672E796F75747562652E636F6D2F76692F0000000000 PUSH0 DUP3 ADD MSTORE POP JUMP JUMPDEST PUSH0 PUSH2 0x2D72 PUSH1 0x1B DUP4 PUSH2 0x2D34 JUMP JUMPDEST SWAP2 POP PUSH2 0x2D7D DUP3 PUSH2 0x2D3E JUMP JUMPDEST PUSH1 0x1B DUP3 ADD SWAP1 POP SWAP2 SWAP1 POP JUMP JUMPDEST PUSH0 PUSH2 0x2D92 DUP3 PUSH2 0x22DA JUMP JUMPDEST PUSH2 0x2D9C DUP2 DUP6 PUSH2 0x2D34 JUMP JUMPDEST SWAP4 POP PUSH2 0x2DAC DUP2 DUP6 PUSH1 0x20 DUP7 ADD PUSH2 0x22F4 JUMP JUMPDEST DUP1 DUP5 ADD SWAP2 POP POP SWAP3 SWAP2 POP POP JUMP JUMPDEST PUSH32 0x2F687164656661756C742E6A7067000000000000000000000000000000000000 PUSH0 DUP3 ADD MSTORE POP JUMP JUMPDEST PUSH0 PUSH2 0x2DEC PUSH1 0xE DUP4 PUSH2 0x2D34 JUMP JUMPDEST SWAP2 POP PUSH2 0x2DF7 DUP3 PUSH2 0x2DB8 JUMP JUMPDEST PUSH1 0xE DUP3 ADD SWAP1 POP SWAP2 SWAP1 POP JUMP JUMPDEST PUSH0 PUSH2 0x2E0C DUP3 PUSH2 0x2D66 JUMP JUMPDEST SWAP2 POP PUSH2 0x2E18 DUP3 DUP5 PUSH2 0x2D88 JUMP JUMPDEST SWAP2 POP PUSH2 0x2E23 DUP3 PUSH2 0x2DE0 JUMP JUMPDEST SWAP2 POP DUP2 SWAP1 POP SWAP3 SWAP2 POP POP JUMP JUMPDEST PUSH32 0x68747470733A2F2F7777772E796F75747562652E636F6D2F656D6265642F0000 PUSH0 DUP3 ADD MSTORE POP JUMP JUMPDEST PUSH0 PUSH2 0x2E62 PUSH1 0x1E DUP4 PUSH2 0x2D34 JUMP JUMPDEST SWAP2 POP PUSH2 0x2E6D DUP3 PUSH2 0x2E2E JUMP JUMPDEST PUSH1 0x1E DUP3 ADD SWAP1 POP SWAP2 SWAP1 POP JUMP JUMPDEST PUSH0 PUSH2 0x2E82 DUP3 PUSH2 0x2E56 JUMP JUMPDEST SWAP2 POP PUSH2 0x2E8E DUP3 DUP5 PUSH2 0x2D88 JUMP JUMPDEST SWAP2 POP DUP2 SWAP1 POP SWAP3 SWAP2 POP POP JUMP JUMPDEST PUSH32 0x7B226E616D65223A2022596F7554756265204E46542023000000000000000000 PUSH0 DUP3 ADD MSTORE POP JUMP JUMPDEST PUSH0 PUSH2 0x2ECD PUSH1 0x17 DUP4 PUSH2 0x2D34 JUMP JUMPDEST SWAP2 POP PUSH2 0x2ED8 DUP3 PUSH2 0x2E99 JUMP JUMPDEST PUSH1 0x17 DUP3 ADD SWAP1 POP SWAP2 SWAP1 POP JUMP JUMPDEST PUSH32 0x222C20226465736372697074696F6E223A2022412064796E616D6963616C6C79 PUSH0 DUP3 ADD MSTORE PUSH32 0x206D696E746564204E46542066726F6D20612067726F77696E6720636F6C6C65 PUSH1 0x20 DUP3 ADD MSTORE PUSH32 0x6374696F6E2E222C2022696D616765223A202200000000000000000000000000 PUSH1 0x40 DUP3 ADD MSTORE POP JUMP JUMPDEST PUSH0 PUSH2 0x2F63 PUSH1 0x53 DUP4 PUSH2 0x2D34 JUMP JUMPDEST SWAP2 POP PUSH2 0x2F6E DUP3 PUSH2 0x2EE3 JUMP JUMPDEST PUSH1 0x53 DUP3 ADD SWAP1 POP SWAP2 SWAP1 POP JUMP JUMPDEST PUSH32 0x222C2022616E696D6174696F6E5F75726C223A20220000000000000000000000 PUSH0 DUP3 ADD MSTORE POP JUMP JUMPDEST PUSH0 PUSH2 0x2FAD PUSH1 0x15 DUP4 PUSH2 0x2D34 JUMP JUMPDEST SWAP2 POP PUSH2 0x2FB8 DUP3 PUSH2 0x2F79 JUMP JUMPDEST PUSH1 0x15 DUP3 ADD SWAP1 POP SWAP2 SWAP1 POP JUMP JUMPDEST PUSH32 0x227D000000000000000000000000000000000000000000000000000000000000 PUSH0 DUP3 ADD MSTORE POP JUMP JUMPDEST PUSH0 PUSH2 0x2FF7 PUSH1 0x2 DUP4 PUSH2 0x2D34 JUMP JUMPDEST SWAP2 POP PUSH2 0x3002 DUP3 PUSH2 0x2FC3 JUMP JUMPDEST PUSH1 0x2 DUP3 ADD SWAP1 POP SWAP2 SWAP1 POP JUMP JUMPDEST PUSH0 PUSH2 0x3017 DUP3 PUSH2 0x2EC1 JUMP JUMPDEST SWAP2 POP PUSH2 0x3023 DUP3 DUP7 PUSH2 0x2D88 JUMP JUMPDEST SWAP2 POP PUSH2 0x302E DUP3 PUSH2 0x2F57 JUMP JUMPDEST SWAP2 POP PUSH2 0x303A DUP3 DUP6 PUSH2 0x2D88 JUMP JUMPDEST SWAP2 POP PUSH2 0x3045 DUP3 PUSH2 0x2FA1 JUMP JUMPDEST SWAP2 POP PUSH2 0x3051 DUP3 DUP5 PUSH2 0x2D88 JUMP JUMPDEST SWAP2 POP PUSH2 0x305C DUP3 PUSH2 0x2FEB JUMP JUMPDEST SWAP2 POP DUP2 SWAP1 POP SWAP5 SWAP4 POP POP POP POP JUMP JUMPDEST PUSH32 0x646174613A6170706C69636174696F6E2F6A736F6E3B6261736536342C000000 PUSH0 DUP3 ADD MSTORE POP JUMP JUMPDEST PUSH0 PUSH2 0x309D PUSH1 0x1D DUP4 PUSH2 0x2D34 JUMP JUMPDEST SWAP2 POP PUSH2 0x30A8 DUP3 PUSH2 0x3069 JUMP JUMPDEST PUSH1 0x1D DUP3 ADD SWAP1 POP SWAP2 SWAP1 POP JUMP JUMPDEST PUSH0 PUSH2 0x30BD DUP3 PUSH2 0x3091 JUMP JUMPDEST SWAP2 POP PUSH2 0x30C9 DUP3 DUP5 PUSH2 0x2D88 JUMP JUMPDEST SWAP2 POP DUP2 SWAP1 POP SWAP3 SWAP2 POP POP JUMP JUMPDEST PUSH0 DUP2 MLOAD SWAP1 POP SWAP2 SWAP1 POP JUMP JUMPDEST PUSH0 DUP3 DUP3 MSTORE PUSH1 0x20 DUP3 ADD SWAP1 POP SWAP3 SWAP2 POP POP JUMP JUMPDEST PUSH0 PUSH2 0x30F8 DUP3 PUSH2 0x30D4 JUMP JUMPDEST PUSH2 0x3102 DUP2 DUP6 PUSH2 0x30DE JUMP JUMPDEST SWAP4 POP PUSH2 0x3112 DUP2 DUP6 PUSH1 0x20 DUP7 ADD PUSH2 0x22F4 JUMP JUMPDEST PUSH2 0x311B DUP2 PUSH2 0x2302 JUMP JUMPDEST DUP5 ADD SWAP2 POP POP SWAP3 SWAP2 POP POP JUMP JUMPDEST PUSH0 PUSH1 0x80 DUP3 ADD SWAP1 POP PUSH2 0x3139 PUSH0 DUP4 ADD DUP8 PUSH2 0x23F8 JUMP JUMPDEST PUSH2 0x3146 PUSH1 0x20 DUP4 ADD DUP7 PUSH2 0x23F8 JUMP JUMPDEST PUSH2 0x3153 PUSH1 0x40 DUP4 ADD DUP6 PUSH2 0x2488 JUMP JUMPDEST DUP2 DUP2 SUB PUSH1 0x60 DUP4 ADD MSTORE PUSH2 0x3165 DUP2 DUP5 PUSH2 0x30EE JUMP JUMPDEST SWAP1 POP SWAP6 SWAP5 POP POP POP POP POP JUMP JUMPDEST PUSH0 DUP2 MLOAD SWAP1 POP PUSH2 0x317E DUP2 PUSH2 0x2252 JUMP JUMPDEST SWAP3 SWAP2 POP POP JUMP JUMPDEST PUSH0 PUSH1 0x20 DUP3 DUP5 SUB SLT ISZERO PUSH2 0x3199 JUMPI PUSH2 0x3198 PUSH2 0x221F JUMP JUMPDEST JUMPDEST PUSH0 PUSH2 0x31A6 DUP5 DUP3 DUP6 ADD PUSH2 0x3170 JUMP JUMPDEST SWAP2 POP POP SWAP3 SWAP2 POP POP JUMP JUMPDEST PUSH32 0x4E487B7100000000000000000000000000000000000000000000000000000000 PUSH0 MSTORE PUSH1 0x12 PUSH1 0x4 MSTORE PUSH1 0x24 PUSH0 REVERT JUMPDEST PUSH0 PUSH2 0x31E6 DUP3 PUSH2 0x236A JUMP JUMPDEST SWAP2 POP PUSH2 0x31F1 DUP4 PUSH2 0x236A JUMP JUMPDEST SWAP3 POP DUP3 DUP3 SUB SWAP1 POP DUP2 DUP2 GT ISZERO PUSH2 0x3209 JUMPI PUSH2 0x3208 PUSH2 0x2C32 JUMP JUMPDEST JUMPDEST SWAP3 SWAP2 POP POP JUMP JUMPDEST PUSH32 0x4E487B7100000000000000000000000000000000000000000000000000000000 PUSH0 MSTORE PUSH1 0x31 PUSH1 0x4 MSTORE PUSH1 0x24 PUSH0 REVERT JUMPDEST PUSH0 PUSH2 0x3246 DUP3 PUSH2 0x236A JUMP JUMPDEST SWAP2 POP PUSH2 0x3251 DUP4 PUSH2 0x236A JUMP JUMPDEST SWAP3 POP DUP3 DUP3 MUL PUSH2 0x325F DUP2 PUSH2 0x236A JUMP JUMPDEST SWAP2 POP DUP3 DUP3 DIV DUP5 EQ DUP4 ISZERO OR PUSH2 0x3276 JUMPI PUSH2 0x3275 PUSH2 0x2C32 JUMP JUMPDEST JUMPDEST POP SWAP3 SWAP2 POP POP JUMP JUMPDEST PUSH0 PUSH2 0x3287 DUP3 PUSH2 0x236A JUMP JUMPDEST SWAP2 POP PUSH2 0x3292 DUP4 PUSH2 0x236A JUMP JUMPDEST SWAP3 POP DUP3 DUP3 ADD SWAP1 POP DUP1 DUP3 GT ISZERO PUSH2 0x32AA JUMPI PUSH2 0x32A9 PUSH2 0x2C32 JUMP JUMPDEST JUMPDEST SWAP3 SWAP2 POP POP JUMP JUMPDEST PUSH0 PUSH2 0x32BA DUP3 PUSH2 0x236A JUMP JUMPDEST SWAP2 POP PUSH2 0x32C5 DUP4 PUSH2 0x236A JUMP JUMPDEST SWAP3 POP DUP3 PUSH2 0x32D5 JUMPI PUSH2 0x32D4 PUSH2 0x31AF JUMP JUMPDEST JUMPDEST DUP3 DUP3 DIV SWAP1 POP SWAP3 SWAP2 POP POP JUMP INVALID COINBASE TIMESTAMP NUMBER PREVRANDAO GASLIMIT CHAINID SELFBALANCE BASEFEE BLOBHASH BLOBBASEFEE 0x4B 0x4C 0x4D 0x4E 0x4F POP MLOAD MSTORE MSTORE8 SLOAD SSTORE JUMP JUMPI PC MSIZE GAS PUSH2 0x6263 PUSH5 0x6566676869 PUSH11 0x6B6C6D6E6F707172737475 PUSH23 0x7778797A303132333435363738392B2FA2646970667358 0x22 SLT KECCAK256 RJUMPI 0xF8F2 SIGNEXTEND ISZERO LOG4 CODESIZE PUSH25 0x6D0381C90F35A97F98F289BCB30F1EC182CBB9942F9DB1664 PUSH20 0x6F6C634300081E00330000000000000000000000 "
		},
		"gasEstimates": {
			"creation": {
				"codeDepositCost": "2628400",
				"executionCost": "infinite",
				"totalCost": "infinite"
			},
			"external": {
				"approve(address,uint256)": "infinite",
				"balanceOf(address)": "infinite",
				"getApproved(uint256)": "infinite",
				"getNextTokenId()": "2520",
				"getVideoId(uint256)": "infinite",
				"isApprovedForAll(address,address)": "infinite",
				"mintVideo(address,string)": "infinite",
				"name()": "infinite",
				"owner()": "2582",
				"ownerOf(uint256)": "infinite",
				"renounceOwnership()": "infinite",
				"safeTransferFrom(address,address,uint256)": "infinite",
				"safeTransferFrom(address,address,uint256,bytes)": "infinite",
				"setApprovalForAll(address,bool)": "infinite",
				"supportsInterface(bytes4)": "875",
				"symbol()": "infinite",
				"tokenByIndex(uint256)": "infinite",
				"tokenOfOwnerByIndex(address,uint256)": "infinite",
				"tokenURI(uint256)": "infinite",
				"totalSupply()": "2552",
				"transferFrom(address,address,uint256)": "infinite",
				"transferOwnership(address)": "infinite"
			}
		},
		"methodIdentifiers": {
			"approve(address,uint256)": "095ea7b3",
			"balanceOf(address)": "70a08231",
			"getApproved(uint256)": "081812fc",
			"getNextTokenId()": "caa0f92a",
			"getVideoId(uint256)": "acbb85e5",
			"isApprovedForAll(address,address)": "e985e9c5",
			"mintVideo(address,string)": "7503714b",
			"name()": "06fdde03",
			"owner()": "8da5cb5b",
			"ownerOf(uint256)": "6352211e",
			"renounceOwnership()": "715018a6",
			"safeTransferFrom(address,address,uint256)": "42842e0e",
			"safeTransferFrom(address,address,uint256,bytes)": "b88d4fde",
			"setApprovalForAll(address,bool)": "a22cb465",
			"supportsInterface(bytes4)": "01ffc9a7",
			"symbol()": "95d89b41",
			"tokenByIndex(uint256)": "4f6ccce7",
			"tokenOfOwnerByIndex(address,uint256)": "2f745c59",
			"tokenURI(uint256)": "c87b56dd",
			"totalSupply()": "18160ddd",
			"transferFrom(address,address,uint256)": "23b872dd",
			"transferOwnership(address)": "f2fde38b"
		}
	},
	"abi": [
		{
			"inputs": [
				{
					"internalType": "address",
					"name": "initialOwner",
					"type": "address"
				}
			],
			"stateMutability": "nonpayable",
			"type": "constructor"
		},
		{
			"inputs": [],
			"name": "ERC721EnumerableForbiddenBatchMint",
			"type": "error"
		},
		{
			"inputs": [
				{
					"internalType": "address",
					"name": "sender",
					"type": "address"
				},
				{
					"internalType": "uint256",
					"name": "tokenId",
					"type": "uint256"
				},
				{
					"internalType": "address",
					"name": "owner",
					"type": "address"
				}
			],
			"name": "ERC721IncorrectOwner",
			"type": "error"
		},
		{
			"inputs": [
				{
					"internalType": "address",
					"name": "operator",
					"type": "address"
				},
				{
					"internalType": "uint256",
					"name": "tokenId",
					"type": "uint256"
				}
			],
			"name": "ERC721InsufficientApproval",
			"type": "error"
		},
		{
			"inputs": [
				{
					"internalType": "address",
					"name": "approver",
					"type": "address"
				}
			],
			"name": "ERC721InvalidApprover",
			"type": "error"
		},
		{
			"inputs": [
				{
					"internalType": "address",
					"name": "operator",
					"type": "address"
				}
			],
			"name": "ERC721InvalidOperator",
			"type": "error"
		},
		{
			"inputs": [
				{
					"internalType": "address",
					"name": "owner",
					"type": "address"
				}
			],
			"name": "ERC721InvalidOwner",
			"type": "error"
		},
		{
			"inputs": [
				{
					"internalType": "address",
					"name": "receiver",
					"type": "address"
				}
			],
			"name": "ERC721InvalidReceiver",
			"type": "error"
		},
		{
			"inputs": [
				{
					"internalType": "address",
					"name": "sender",
					"type": "address"
				}
			],
			"name": "ERC721InvalidSender",
			"type": "error"
		},
		{
			"inputs": [
				{
					"internalType": "uint256",
					"name": "tokenId",
					"type": "uint256"
				}
			],
			"name": "ERC721NonexistentToken",
			"type": "error"
		},
		{
			"inputs": [
				{
					"internalType": "address",
					"name": "owner",
					"type": "address"
				},
				{
					"internalType": "uint256",
					"name": "index",
					"type": "uint256"
				}
			],
			"name": "ERC721OutOfBoundsIndex",
			"type": "error"
		},
		{
			"inputs": [
				{
					"internalType": "address",
					"name": "owner",
					"type": "address"
				}
			],
			"name": "OwnableInvalidOwner",
			"type": "error"
		},
		{
			"inputs": [
				{
					"internalType": "address",
					"name": "account",
					"type": "address"
				}
			],
			"name": "OwnableUnauthorizedAccount",
			"type": "error"
		},
		{
			"anonymous": false,
			"inputs": [
				{
					"indexed": true,
					"internalType": "address",
					"name": "owner",
					"type": "address"
				},
				{
					"indexed": true,
					"internalType": "address",
					"name": "approved",
					"type": "address"
				},
				{
					"indexed": true,
					"internalType": "uint256",
					"name": "tokenId",
					"type": "uint256"
				}
			],
			"name": "Approval",
			"type": "event"
		},
		{
			"anonymous": false,
			"inputs": [
				{
					"indexed": true,
					"internalType": "address",
					"name": "owner",
					"type": "address"
				},
				{
					"indexed": true,
					"internalType": "address",
					"name": "operator",
					"type": "address"
				},
				{
					"indexed": false,
					"internalType": "bool",
					"name": "approved",
					"type": "bool"
				}
			],
			"name": "ApprovalForAll",
			"type": "event"
		},
		{
			"anonymous": false,
			"inputs": [
				{
					"indexed": true,
					"internalType": "address",
					"name": "previousOwner",
					"type": "address"
				},
				{
					"indexed": true,
					"internalType": "address",
					"name": "newOwner",
					"type": "address"
				}
			],
			"name": "OwnershipTransferred",
			"type": "event"
		},
		{
			"anonymous": false,
			"inputs": [
				{
					"indexed": true,
					"internalType": "address",
					"name": "from",
					"type": "address"
				},
				{
					"indexed": true,
					"internalType": "address",
					"name": "to",
					"type": "address"
				},
				{
					"indexed": true,
					"internalType": "uint256",
					"name": "tokenId",
					"type": "uint256"
				}
			],
			"name": "Transfer",
			"type": "event"
		},
		{
			"inputs": [
				{
					"internalType": "address",
					"name": "to",
					"type": "address"
				},
				{
					"internalType": "uint256",
					"name": "tokenId",
					"type": "uint256"
				}
			],
			"name": "approve",
			"outputs": [],
			"stateMutability": "nonpayable",
			"type": "function"
		},
		{
			"inputs": [
				{
					"internalType": "address",
					"name": "owner",
					"type": "address"
				}
			],
			"name": "balanceOf",
			"outputs": [
				{
					"internalType": "uint256",
					"name": "",
					"type": "uint256"
				}
			],
			"stateMutability": "view",
			"type": "function"
		},
		{
			"inputs": [
				{
					"internalType": "uint256",
					"name": "tokenId",
					"type": "uint256"
				}
			],
			"name": "getApproved",
			"outputs": [
				{
					"internalType": "address",
					"name": "",
					"type": "address"
				}
			],
			"stateMutability": "view",
			"type": "function"
		},
		{
			"inputs": [],
			"name": "getNextTokenId",
			"outputs": [
				{
					"internalType": "uint256",
					"name": "",
					"type": "uint256"
				}
			],
			"stateMutability": "view",
			"type": "function"
		},
		{
			"inputs": [
				{
					"internalType": "uint256",
					"name": "tokenId",
					"type": "uint256"
				}
			],
			"name": "getVideoId",
			"outputs": [
				{
					"internalType": "string",
					"name": "",
					"type": "string"
				}
			],
			"stateMutability": "view",
			"type": "function"
		},
		{
			"inputs": [
				{
					"internalType": "address",
					"name": "owner",
					"type": "address"
				},
				{
					"internalType": "address",
					"name": "operator",
					"type": "address"
				}
			],
			"name": "isApprovedForAll",
			"outputs": [
				{
					"internalType": "bool",
					"name": "",
					"type": "bool"
				}
			],
			"stateMutability": "view",
			"type": "function"
		},
		{
			"inputs": [
				{
					"internalType": "address",
					"name": "to",
					"type": "address"
				},
				{
					"internalType": "string",
					"name": "videoId",
					"type": "string"
				}
			],
			"name": "mintVideo",
			"outputs": [],
			"stateMutability": "nonpayable",
			"type": "function"
		},
		{
			"inputs": [],
			"name": "name",
			"outputs": [
				{
					"internalType": "string",
					"name": "",
					"type": "string"
				}
			],
			"stateMutability": "view",
			"type": "function"
		},
		{
			"inputs": [],
			"name": "owner",
			"outputs": [
				{
					"internalType": "address",
					"name": "",
					"type": "address"
				}
			],
			"stateMutability": "view",
			"type": "function"
		},
		{
			"inputs": [
				{
					"internalType": "uint256",
					"name": "tokenId",
					"type": "uint256"
				}
			],
			"name": "ownerOf",
			"outputs": [
				{
					"internalType": "address",
					"name": "",
					"type": "address"
				}
			],
			"stateMutability": "view",
			"type": "function"
		},
		{
			"inputs": [],
			"name": "renounceOwnership",
			"outputs": [],
			"stateMutability": "nonpayable",
			"type": "function"
		},
		{
			"inputs": [
				{
					"internalType": "address",
					"name": "from",
					"type": "address"
				},
				{
					"internalType": "address",
					"name": "to",
					"type": "address"
				},
				{
					"internalType": "uint256",
					"name": "tokenId",
					"type": "uint256"
				}
			],
			"name": "safeTransferFrom",
			"outputs": [],
			"stateMutability": "nonpayable",
			"type": "function"
		},
		{
			"inputs": [
				{
					"internalType": "address",
					"name": "from",
					"type": "address"
				},
				{
					"internalType": "address",
					"name": "to",
					"type": "address"
				},
				{
					"internalType": "uint256",
					"name": "tokenId",
					"type": "uint256"
				},
				{
					"internalType": "bytes",
					"name": "data",
					"type": "bytes"
				}
			],
			"name": "safeTransferFrom",
			"outputs": [],
			"stateMutability": "nonpayable",
			"type": "function"
		},
		{
			"inputs": [
				{
					"internalType": "address",
					"name": "operator",
					"type": "address"
				},
				{
					"internalType": "bool",
					"name": "approved",
					"type": "bool"
				}
			],
			"name": "setApprovalForAll",
			"outputs": [],
			"stateMutability": "nonpayable",
			"type": "function"
		},
		{
			"inputs": [
				{
					"internalType": "bytes4",
					"name": "interfaceId",
					"type": "bytes4"
				}
			],
			"name": "supportsInterface",
			"outputs": [
				{
					"internalType": "bool",
					"name": "",
					"type": "bool"
				}
			],
			"stateMutability": "view",
			"type": "function"
		},
		{
			"inputs": [],
			"name": "symbol",
			"outputs": [
				{
					"internalType": "string",
					"name": "",
					"type": "string"
				}
			],
			"stateMutability": "view",
			"type": "function"
		},
		{
			"inputs": [
				{
					"internalType": "uint256",
					"name": "index",
					"type": "uint256"
				}
			],
			"name": "tokenByIndex",
			"outputs": [
				{
					"internalType": "uint256",
					"name": "",
					"type": "uint256"
				}
			],
			"stateMutability": "view",
			"type": "function"
		},
		{
			"inputs": [
				{
					"internalType": "address",
					"name": "owner",
					"type": "address"
				},
				{
					"internalType": "uint256",
					"name": "index",
					"type": "uint256"
				}
			],
			"name": "tokenOfOwnerByIndex",
			"outputs": [
				{
					"internalType": "uint256",
					"name": "",
					"type": "uint256"
				}
			],
			"stateMutability": "view",
			"type": "function"
		},
		{
			"inputs": [
				{
					"internalType": "uint256",
					"name": "tokenId",
					"type": "uint256"
				}
			],
			"name": "tokenURI",
			"outputs": [
				{
					"internalType": "string",
					"name": "",
					"type": "string"
				}
			],
			"stateMutability": "view",
			"type": "function"
		},
		{
			"inputs": [],
			"name": "totalSupply",
			"outputs": [
				{
					"internalType": "uint256",
					"name": "",
					"type": "uint256"
				}
			],
			"stateMutability": "view",
			"type": "function"
		},
		{
			"inputs": [
				{
					"internalType": "address",
					"name": "from",
					"type": "address"
				},
				{
					"internalType": "address",
					"name": "to",
					"type": "address"
				},
				{
					"internalType": "uint256",
					"name": "tokenId",
					"type": "uint256"
				}
			],
			"name": "transferFrom",
			"outputs": [],
			"stateMutability": "nonpayable",
			"type": "function"
		},
		{
			"inputs": [
				{
					"internalType": "address",
					"name": "newOwner",
					"type": "address"
				}
			],
			"name": "transferOwnership",
			"outputs": [],
			"stateMutability": "nonpayable",
			"type": "function"
		}
	]
}