{
	"data": {
		"bytecode": {
			"linkReferences": {},
			"object": "608060405234801562000010575f80fd5b5060405162003f3c38038062003f3c8339810160408190526200003391620001f9565b6001600160a01b038516158015906200005457506001600160a01b03841615155b80156200006957506001600160a01b03831615155b80156200007e57506001600160a01b03821615155b620000e45760405162461bcd60e51b815260206004820152602b60248201527f536f757263653a20436f2d666f756e646572206164647265737365732063616e60448201526a6e6f74206265207a65726f60a81b60648201526084015b60405180910390fd5b6040805180820182526001600160a01b038088168083528782166020938401819052600280546001600160a01b0319908116909317905560038054831690911790558351808501909452868216808552868316949093018490526004805482169093179092556005805490921690921790558116620001a65760405162461bcd60e51b815260206004820152601f60248201527f536f757263653a204578656375746f722063616e6e6f74206265207a65726f006044820152606401620000db565b600680546001600160a01b0319166001600160a01b03929092169190911790555050670429d069189e000060015550620002659050565b80516001600160a01b0381168114620001f4575f80fd5b919050565b5f805f805f60a086880312156200020e575f80fd5b6200021986620001dd565b94506200022960208701620001dd565b93506200023960408701620001dd565b92506200024960608701620001dd565b91506200025960808701620001dd565b90509295509295909350565b613cc980620002735f395ff3fe608060405260043610620000ee575f3560e01c8063961645231162000086578063a8e9a539116200005e578063a8e9a5391462000286578063bf516f6314620002a7578063c2513f1114620002cb578063c2db55ea14620002ef575f80fd5b8063961645231462000229578063a010f2a1146200023e578063a658dd6b1462000262575f80fd5b8063476343ee11620000c6578063476343ee146200018657806368a4c6aa146200019d578063750a165614620001ee57806380921e141462000212575f80fd5b80630983872714620000fa57806315e32f96146200012457806325494a03146200013d575f80fd5b36620000f657005b5f80fd5b34801562000106575f80fd5b506200011160015481565b6040519081526020015b60405180910390f35b6200013b6200013536600462000fd7565b62000317565b005b34801562000149575f80fd5b5060025460035462000165916001600160a01b03908116911682565b604080516001600160a01b039384168152929091166020830152016200011b565b34801562000192575f80fd5b506200013b62000478565b348015620001a9575f80fd5b50620001d5620001bb3660046200100b565b5f602081905290815260409020546001600160a01b031681565b6040516001600160a01b0390911681526020016200011b565b348015620001fa575f80fd5b506200013b6200020c3660046200102e565b62000706565b6200013b62000223366004620011d5565b62000836565b34801562000235575f80fd5b50620001115f81565b3480156200024a575f80fd5b506200013b6200025c3660046200102e565b62000b9d565b3480156200026e575f80fd5b506200013b620002803660046200100b565b62000cc6565b34801562000292575f80fd5b50600654620001d5906001600160a01b031681565b348015620002b3575f80fd5b506200013b620002c536600462000fd7565b62000de8565b348015620002d7575f80fd5b506200013b620002e93660046200100b565b62000ead565b348015620002fb575f80fd5b5060045460055462000165916001600160a01b03908116911682565b6001543414620003825760405162461bcd60e51b815260206004820152602b60248201527f4d73672e76616c7565206d7573742065786163746c7920636f7665722074686560448201526a103234b0b93c903332b29760a91b60648201526084015b60405180910390fd5b335f908152602081905260409020546001600160a01b031615620003ba5760405162461bcd60e51b81526004016200037990620012fd565b5f338230600154600160065f9054906101000a90046001600160a01b0316604051620003e69062000fc9565b620003f7969594939291906200133f565b604051809103905ff08015801562000411573d5f803e3d5ffd5b50335f818152602081815260409182902080546001600160a01b0319166001600160a01b03861690811790915591516001815293945090927fd94b8d77522fc436b0bdfa0909a24735541697f55e4ff15f693d401e8dd9cf68910160405180910390a35050565b6002546001600160a01b03163314806200049c57506003546001600160a01b031633145b80620004b257506004546001600160a01b031633145b80620004c857506005546001600160a01b031633145b620004e75760405162461bcd60e51b8152600401620003799062001379565b47806200052e5760405162461bcd60e51b81526020600482015260146024820152732737903332b2b9903a37903bb4ba34323930bb9760611b604482015260640162000379565b5f60646200053e83605a620013cf565b6200054a9190620013ef565b90505f6200055982846200140f565b6002546040519192505f916001600160a01b039091169084908381818185875af1925050503d805f8114620005aa576040519150601f19603f3d011682016040523d82523d5f602084013e620005af565b606091505b5050905080620006115760405162461bcd60e51b815260206004820152602660248201527f455448207472616e7366657220746f20436f2d466f756e646572204f6e65206660448201526530b4b632b21760d11b606482015260840162000379565b6004546040515f916001600160a01b03169084908381818185875af1925050503d805f81146200065d576040519150601f19603f3d011682016040523d82523d5f602084013e62000662565b606091505b5050905080620006c45760405162461bcd60e51b815260206004820152602660248201527f455448207472616e7366657220746f20436f2d466f756e6465722054776f206660448201526530b4b632b21760d11b606482015260840162000379565b604080518581526020810185905233917fdeb5099d7943aa2b4c1142e5d53d2f7636aa8f7bd130ec79816f151572bcdf45910160405180910390a25050505050565b6002546001600160a01b03163314806200072a57506003546001600160a01b031633145b620007845760405162461bcd60e51b8152602060048201526024808201527f536f757263653a2043616c6c6572206973206e6f7420436f2d466f756e646572604482015263204f6e6560e01b606482015260840162000379565b6001600160a01b03821615801590620007a557506001600160a01b03811615155b620007c45760405162461bcd60e51b8152600401620003799062001425565b600280546001600160a01b038481166001600160a01b03199283168117909355600380549185169190921681179091556040805192835260208301919091526001917ff2756662321c17d77ed333bfad7f4ed60dc8e8a1c0028ce3fd5b65629d6f44ab91015b60405180910390a25050565b335f908152602081905260409020546001600160a01b0316156200086e5760405162461bcd60e51b81526004016200037990620012fd565b5f6200087b81346200140f565b90505f813388305f8060065f9054906101000a90046001600160a01b0316604051620008a79062000fc9565b620008b8969594939291906200133f565b6040518091039082f0905080158015620008d4573d5f803e3d5ffd5b50335f90815260208190526040812080546001600160a01b0319166001600160a01b0384161790559091505b8581101562000a10575f8787838181106200091f576200091f62001469565b90506040020160200135111562000a075786868281811062000945576200094562001469565b6200095d92602060409092020190810191506200100b565b6001600160a01b03166323b872dd33848a8a8681811062000982576200098262001469565b6040805160e088901b6001600160e01b03191681526001600160a01b0396871660048201529490951660248501529093020160200135604482015260640190506020604051808303815f875af1158015620009df573d5f803e3d5ffd5b505050506040513d601f19601f8201168201806040525081019062000a0591906200147d565b505b60010162000900565b505f5b8381101562000aea5784848281811062000a315762000a3162001469565b62000a4992602060609092020190810191506200100b565b6001600160a01b03166323b872dd338488888681811062000a6e5762000a6e62001469565b6040516001600160e01b031960e088901b1681526001600160a01b039586166004820152949093166024850152506020606090920201013560448201526064015f604051808303815f87803b15801562000ac6575f80fd5b505af115801562000ad9573d5f803e3d5ffd5b50506001909201915062000a139050565b5060405163abe21b5960e01b81526001600160a01b0382169063abe21b599062000b23908c908c908b908b908b908b9060040162001551565b5f604051808303815f87803b15801562000b3b575f80fd5b505af115801562000b4e573d5f803e3d5ffd5b50506040515f81526001600160a01b03841692503391507fd94b8d77522fc436b0bdfa0909a24735541697f55e4ff15f693d401e8dd9cf689060200160405180910390a3505050505050505050565b6004546001600160a01b031633148062000bc157506005546001600160a01b031633145b62000c1b5760405162461bcd60e51b8152602060048201526024808201527f536f757263653a2043616c6c6572206973206e6f7420436f2d466f756e6465726044820152632054776f60e01b606482015260840162000379565b6001600160a01b0382161580159062000c3c57506001600160a01b03811615155b62000c5b5760405162461bcd60e51b8152600401620003799062001425565b600480546001600160a01b038481166001600160a01b03199283168117909355600580549185169190921681179091556040805192835260208301919091526002917ff2756662321c17d77ed333bfad7f4ed60dc8e8a1c0028ce3fd5b65629d6f44ab91016200082a565b6001600160a01b038082165f90815260208190526040902054168062000d2f5760405162461bcd60e51b815260206004820152601c60248201527f4e6f2077696c6c20666f756e6420666f72207468697320757365722e00000000604482015260640162000379565b336001600160a01b0382161462000d945760405162461bcd60e51b815260206004820152602260248201527f43616c6c6572206973206e6f742074686520726567697374657265642077696c604482015261361760f11b606482015260840162000379565b6001600160a01b038083165f8181526020819052604080822080546001600160a01b031916905551928416927f24c44eb8275b2359785575db44a95eb6b553cf6939b59528954e64756f23acab9190a35050565b6002546001600160a01b031633148062000e0c57506003546001600160a01b031633145b8062000e2257506004546001600160a01b031633145b8062000e3857506005546001600160a01b031633145b8062000e4e57506006546001600160a01b031633145b62000ea85760405162461bcd60e51b815260206004820152602360248201527f536f757263653a2043616c6c65722063616e6e6f74207365742064696172792060448201526266656560e81b606482015260840162000379565b600155565b6002546001600160a01b031633148062000ed157506003546001600160a01b031633145b8062000ee757506004546001600160a01b031633145b8062000efd57506005546001600160a01b031633145b62000f1c5760405162461bcd60e51b8152600401620003799062001379565b6001600160a01b03811662000f805760405162461bcd60e51b815260206004820152602360248201527f536f757263653a204e6577206578656375746f722063616e6e6f74206265207a60448201526265726f60e81b606482015260840162000379565b600680546001600160a01b0319166001600160a01b0383169081179091556040517fa5cbf15053a72004f628487ca44b7fea1537b628ee203354d256eb80e308efa8905f90a250565b61268c806200160883390190565b5f6020828403121562000fe8575f80fd5b5035919050565b80356001600160a01b038116811462001006575f80fd5b919050565b5f602082840312156200101c575f80fd5b620010278262000fef565b9392505050565b5f806040838503121562001040575f80fd5b6200104b8362000fef565b91506200105b6020840162000fef565b90509250929050565b634e487b7160e01b5f52604160045260245ffd5b604051601f8201601f1916810167ffffffffffffffff81118282101715620010a457620010a462001064565b604052919050565b5f67ffffffffffffffff821115620010c857620010c862001064565b5060051b60200190565b5f82601f830112620010e2575f80fd5b81356020620010fb620010f583620010ac565b62001078565b8083825260208201915060208460051b8701019350868411156200111d575f80fd5b602086015b848110156200113b578035835291830191830162001122565b509695505050505050565b5f8083601f84011262001157575f80fd5b50813567ffffffffffffffff8111156200116f575f80fd5b6020830191508360208260061b85010111156200118a575f80fd5b9250929050565b5f8083601f840112620011a2575f80fd5b50813567ffffffffffffffff811115620011ba575f80fd5b6020830191508360206060830285010111156200118a575f80fd5b5f805f805f805f60a0888a031215620011ec575f80fd5b873567ffffffffffffffff8082111562001204575f80fd5b818a0191508a601f83011262001218575f80fd5b813560206200122b620010f583620010ac565b82815260059290921b8401810191818101908e8411156200124a575f80fd5b948201945b838610156200127357620012638662000fef565b825294820194908201906200124f565b9b50508b01359250508082111562001289575f80fd5b620012978b838c01620010d2565b975060408a0135965060608a0135915080821115620012b4575f80fd5b620012c28b838c0162001146565b909650945060808a0135915080821115620012db575f80fd5b50620012ea8a828b0162001191565b989b979a50959850939692959293505050565b60208082526022908201527f5573657220616c72656164792068617320616e206578697374696e672077696c604082015261361760f11b606082015260800190565b6001600160a01b0396871681526020810195909552928516604085015260608401919091521515608083015290911660a082015260c00190565b60208082526022908201527f536f757263653a2043616c6c6572206973206e6f74206120636f2d666f756e6460408201526132b960f11b606082015260800190565b634e487b7160e01b5f52601160045260245ffd5b8082028115828204841417620013e957620013e9620013bb565b92915050565b5f826200140a57634e487b7160e01b5f52601260045260245ffd5b500490565b81810381811115620013e957620013e9620013bb565b60208082526024908201527f536f757263653a204e6577206164647265737365732063616e6e6f74206265206040820152637a65726f60e01b606082015260800190565b634e487b7160e01b5f52603260045260245ffd5b5f602082840312156200148e575f80fd5b8151801515811462001027575f80fd5b8183525f60208085019450825f5b85811015620014e6576001600160a01b03620014c88362000fef565b168752818301358388015260409687019690910190600101620014ac565b509495945050505050565b8183525f60208085019450825f5b85811015620014e6576001600160a01b03806200151c8462000fef565b16885283830135848901526040816200153782860162000fef565b1690890152506060968701969190910190600101620014ff565b608080825287519082018190525f9060209060a0840190828b01845b82811015620015945781516001600160a01b0316845292840192908401906001016200156d565b505050838103828501528851808252898301918301905f5b81811015620015ca57835183529284019291840191600101620015ac565b50508481036040860152620015e181898b6200149e565b925050508281036060840152620015fa818587620014f1565b999850505050505050505056fe6101206040526040516200268c3803806200268c833981016040819052620000279162000106565b856001600160a01b0381166200005657604051631e4fbdf760e01b81525f600482015260240160405180910390fd5b62000061816200009b565b50600180556080949094526001600160a01b0392831660a05260c091909152151560e0521661010052506002805460ff1916905562000176565b5f80546001600160a01b038381166001600160a01b0319831681178455604051919092169283917f8be0079c531659141344cd1fd0a4f28419497f9722a3daafe3b4186f6b6457e09190a35050565b80516001600160a01b038116811462000101575f80fd5b919050565b5f805f805f8060c087890312156200011c575f80fd5b6200012787620000ea565b9550602087015194506200013e60408801620000ea565b935060608701519250608087015180151581146200015a575f80fd5b91506200016a60a08801620000ea565b90509295509295509295565b60805160a05160c05160e05161010051612484620002085f395f818161030701526106d601525f818161040b01526115d601525f818161036e01528181610d2401528181610d4a01528181610de50152610f3e01525f81816102d40152818161076d01528181610dbb01528181610e9b015261123201525f81816102a10152818161063c015261158501526124845ff3fe608060405260043610610131575f3560e01c80639379f517116100a8578063c04637111161006d578063c046371114610348578063c7c85baa1461035d578063cc4f9d5b14610390578063e15724a5146103b1578063eed35fea146103fa578063f2fde38b1461043d575f80fd5b80639379f51714610271578063947a36fb14610290578063a444ae41146102c3578063a8e9a539146102f6578063abe21b5914610329575f80fd5b80635c36b186116100f95780635c36b186146101f257806361461954146102065780636b892b221461021a578063715018a61461022e5780638bf58f79146102425780638da5cb5b14610255575f80fd5b80630c3f6acf146101355780631c0795c3146101645780631f99966a1461019b5780632395d975146101c85780633027439c146101dc575b5f80fd5b348015610140575f80fd5b5060025461014e9060ff1681565b60405161015b9190611e65565b60405180910390f35b34801561016f575f80fd5b5061018361017e366004611e8b565b61045c565b6040516001600160a01b03909116815260200161015b565b3480156101a6575f80fd5b506101ba6101b5366004611e8b565b610484565b60405190815260200161015b565b3480156101d3575f80fd5b506101ba603281565b3480156101e7575f80fd5b506101f06104a3565b005b3480156101fd575f80fd5b506101f0610572565b348015610211575f80fd5b506101f06105ed565b348015610225575f80fd5b506101f0610ccd565b348015610239575f80fd5b506101f0610f94565b6101f061025036600461201a565b610fa7565b348015610260575f80fd5b505f546001600160a01b0316610183565b34801561027c575f80fd5b5061018361028b366004611e8b565b6111e2565b34801561029b575f80fd5b506101ba7f000000000000000000000000000000000000000000000000000000000000000081565b3480156102ce575f80fd5b506101837f000000000000000000000000000000000000000000000000000000000000000081565b348015610301575f80fd5b506101837f000000000000000000000000000000000000000000000000000000000000000081565b348015610334575f80fd5b506101f061034336600461201a565b6111f1565b348015610353575f80fd5b506101ba60035481565b348015610368575f80fd5b506101ba7f000000000000000000000000000000000000000000000000000000000000000081565b34801561039b575f80fd5b506103a46112ad565b60405161015b919061222b565b3480156103bc575f80fd5b506103d06103cb366004611e8b565b6116c5565b604080516001600160a01b039485168152602081019390935292169181019190915260600161015b565b348015610405575f80fd5b5061042d7f000000000000000000000000000000000000000000000000000000000000000081565b604051901515815260200161015b565b348015610448575f80fd5b506101f0610457366004612307565b611701565b6004818154811061046b575f80fd5b5f918252602090912001546001600160a01b0316905081565b60058181548110610493575f80fd5b5f91825260209091200154905081565b6104ab61173e565b6001806002805460ff16908111156104c5576104c5611e51565b146104eb5760405162461bcd60e51b81526004016104e290612327565b60405180910390fd5b6104f361176a565b600260015561050061178d565b61050b60045f611cfc565b61051660055f611cfc565b61052160065f611d17565b61052c60075f611d32565b6002805460ff191690555f80546040516001600160a01b03909116917f5af2b6dcdccc1dd52ee38632afee0bc3ac6def619ed4132f2f9a40ff48ec74f291a25060018055565b61057a61173e565b6001806002805460ff169081111561059457610594611e51565b146105b15760405162461bcd60e51b81526004016104e290612327565b4260038190556040519081527f48257dc961b6f792c2b78a080dacfed693b660960a702de21cee364e20270e2f9060200160405180910390a150565b6001806002805460ff169081111561060757610607611e51565b146106245760405162461bcd60e51b81526004016104e290612327565b61062c61176a565b60026001556003545f90610661907f00000000000000000000000000000000000000000000000000000000000000009061237e565b9050804210156106b35760405162461bcd60e51b815260206004820152601b60248201527f477261636520706572696f6420686173206e6f7420656e6465642e000000000060448201526064016104e2565b5f6106c1620151808361237e565b90508042101561075157336001600160a01b037f000000000000000000000000000000000000000000000000000000000000000016146107515760405162461bcd60e51b815260206004820152602560248201527f4f6e6c792064657369676e61746564206578656375746f722063616e2063616c6044820152646c206e6f7760d81b60648201526084016104e2565b6002805460ff1916811790555f42821161076b573361078d565b7f00000000000000000000000000000000000000000000000000000000000000005b90505f47801561097b575f6127106107a6603284612397565b6107b091906123ae565b92508290505f6107c082846123cd565b90508115610869575f856001600160a01b0316836040515f6040518083038185875af1925050503d805f8114610811576040519150601f19603f3d011682016040523d82523d5f602084013e610816565b606091505b50509050806108675760405162461bcd60e51b815260206004820152601760248201527f45544820666565207472616e73666572206661696c656400000000000000000060448201526064016104e2565b505b5f5b600454811015610977575f60646005838154811061088b5761088b6123e0565b905f5260205f2001548461089f9190612397565b6108a991906123ae565b9050801561096e575f600483815481106108c5576108c56123e0565b5f9182526020822001546040516001600160a01b039091169184919081818185875af1925050503d805f8114610916576040519150601f19603f3d011682016040523d82523d5f602084013e61091b565b606091505b505090508061096c5760405162461bcd60e51b815260206004820152601b60248201527f455448207472616e7366657220746f2068656972206661696c6564000000000060448201526064016104e2565b505b5060010161086b565b5050505b5f5b600654811015610bb3575f6006828154811061099b5761099b6123e0565b5f9182526020822001546040516370a0823160e01b81523060048201526001600160a01b03909116925082906370a0823190602401602060405180830381865afa1580156109eb573d5f803e3d5ffd5b505050506040513d601f19601f82011682018060405250810190610a0f91906123f4565b90508015610ba9575f612710610a26603284612397565b610a3091906123ae565b90505f610a3d82846123cd565b90508115610ab75760405163a9059cbb60e01b81526001600160a01b0389811660048301526024820184905285169063a9059cbb906044016020604051808303815f875af1158015610a91573d5f803e3d5ffd5b505050506040513d601f19601f82011682018060405250810190610ab5919061240b565b505b5f5b600454811015610ba5575f606460058381548110610ad957610ad96123e0565b905f5260205f20015484610aed9190612397565b610af791906123ae565b90508015610b9c57856001600160a01b031663a9059cbb60048481548110610b2157610b216123e0565b5f9182526020909120015460405160e083901b6001600160e01b03191681526001600160a01b039091166004820152602481018490526044016020604051808303815f875af1158015610b76573d5f803e3d5ffd5b505050506040513d601f19601f82011682018060405250810190610b9a919061240b565b505b50600101610ab9565b5050505b505060010161097d565b505f5b600754811015610c78575f60078281548110610bd457610bd46123e0565b5f91825260209182902060408051606081018252600390930290910180546001600160a01b039081168085526001830154958501869052600290920154168383018190529151632142170760e11b8152929450926342842e0e92610c3e923092909160040161242a565b5f604051808303815f87803b158015610c55575f80fd5b505af1158015610c67573d5f803e3d5ffd5b505060019093019250610bb6915050565b5060408051338152602081018490526001600160a01b0385168183015290517f52ba16c8b985eff690a9de92094bd7486f89340e06e385ffb26de9c6eea384dc9181900360600190a150506001805550505050565b610cd561173e565b6001806002805460ff1690811115610cef57610cef611e51565b14610d0c5760405162461bcd60e51b81526004016104e290612327565b610d1461176a565b600260015547610d2261178d565b7f000000000000000000000000000000000000000000000000000000000000000015610e99577f0000000000000000000000000000000000000000000000000000000000000000811015610db85760405162461bcd60e51b815260206004820152601860248201527f496e73756666696369656e742045544820666f7220666565000000000000000060448201526064016104e2565b5f7f00000000000000000000000000000000000000000000000000000000000000006001600160a01b03167f00000000000000000000000000000000000000000000000000000000000000006040515f6040518083038185875af1925050503d805f8114610e41576040519150601f19603f3d011682016040523d82523d5f602084013e610e46565b606091505b5050905080610e975760405162461bcd60e51b815260206004820181905260248201527f5465726d696e6174696f6e20666565207472616e73666572206661696c65642e60448201526064016104e2565b505b7f00000000000000000000000000000000000000000000000000000000000000006001600160a01b031663a658dd6b610ed95f546001600160a01b031690565b6040516001600160e01b031960e084901b1681526001600160a01b0390911660048201526024015f604051808303815f87803b158015610f17575f80fd5b505af1158015610f29573d5f803e3d5ffd5b50506002805460ff19168117905550506040517f000000000000000000000000000000000000000000000000000000000000000081527fc41d93b8bfbf9fd7cf5bfe271fd649ab6a6fec0ea101c23b82a2a28eca2533a99060200160405180910390a1505060018055565b610f9c61173e565b610fa55f611a19565b565b610faf61173e565b5f806002805460ff1690811115610fc857610fc8611e51565b14610fe55760405162461bcd60e51b81526004016104e290612327565b5f5b848110156110ce575f868683818110611002576110026123e0565b9050604002016020013511156110c657858582818110611024576110246123e0565b61103a9260206040909202019081019150612307565b6001600160a01b03166323b872dd333089898681811061105c5761105c6123e0565b905060400201602001356040518463ffffffff1660e01b81526004016110849392919061242a565b6020604051808303815f875af11580156110a0573d5f803e3d5ffd5b505050506040513d601f19601f820116820180604052508101906110c4919061240b565b505b600101610fe7565b505f5b82811015611184578383828181106110eb576110eb6123e0565b6111019260206060909202019081019150612307565b6001600160a01b03166323b872dd3330878786818110611123576111236123e0565b905060600201602001356040518463ffffffff1660e01b815260040161114b9392919061242a565b5f604051808303815f87803b158015611162575f80fd5b505af1158015611174573d5f803e3d5ffd5b5050600190920191506110d19050565b50611193878787878787611a68565b6002805460ff19166001179055426003555f80546040516001600160a01b03909116917fbbf74fb4e3c300bf9f00e1603668149fd64853bfcd5f194270d2b043d9bdbc6191a250505050505050565b6006818154811061046b575f80fd5b5f806002805460ff169081111561120a5761120a611e51565b146112275760405162461bcd60e51b81526004016104e290612327565b336001600160a01b037f0000000000000000000000000000000000000000000000000000000000000000161461129f5760405162461bcd60e51b815260206004820152601f60248201527f57696c6c3a204e6f7420617574686f72697a656420627920666163746f72790060448201526064016104e2565b611193878787878787611a68565b61130a6040518061014001604052805f6001600160a01b031681526020015f81526020015f81526020015f151581526020015f151581526020015f8152602001606081526020016060815260200160608152602001606081525090565b6006545f9067ffffffffffffffff81111561132757611327611ea2565b60405190808252806020026020018201604052801561136b57816020015b604080518082019091525f80825260208201528152602001906001900390816113455790505b5090505f5b60065481101561143e575f6006828154811061138e5761138e6123e0565b5f91825260209182902001546040805180820182526001600160a01b0390921680835290516370a0823160e01b8152306004820152909350909182019083906370a0823190602401602060405180830381865afa1580156113f1573d5f803e3d5ffd5b505050506040513d601f19601f8201168201806040525081019061141591906123f4565b81525083838151811061142a5761142a6123e0565b602090810291909101015250600101611370565b506007545f9067ffffffffffffffff81111561145c5761145c611ea2565b6040519080825280602002602001820160405280156114a557816020015b604080516060810182525f80825260208083018290529282015282525f1990920191018161147a5790505b5090505f5b60075481101561155a575f600782815481106114c8576114c86123e0565b5f9182526020918290206040805160608082018352600390940290920180546001600160a01b03908116845260018201548487019081526002909201548116848401908152835195860184528451821686529151958501959095525190931692820192909252845191925090849084908110611546576115466123e0565b6020908102919091010152506001016114aa565b506040518061014001604052806115785f546001600160a01b031690565b6001600160a01b031681527f000000000000000000000000000000000000000000000000000000000000000060208201526003546040820152606001600280805460ff16908111156115cc576115cc611e51565b14151581526020017f000000000000000000000000000000000000000000000000000000000000000015158152602001478152602001600480548060200260200160405190810160405280929190818152602001828054801561165657602002820191905f5260205f20905b81546001600160a01b03168152600190910190602001808311611638575b5050505050815260200160058054806020026020016040519081016040528092919081815260200182805480156116aa57602002820191905f5260205f20905b815481526020019060010190808311611696575b50505050508152602001838152602001828152509250505090565b600781815481106116d4575f80fd5b5f9182526020909120600390910201805460018201546002909201546001600160a01b0391821693501683565b61170961173e565b6001600160a01b03811661173257604051631e4fbdf760e01b81525f60048201526024016104e2565b61173b81611a19565b50565b5f546001600160a01b03163314610fa55760405163118cdaa760e01b81523360048201526024016104e2565b600260015403610fa557604051633ee5aeb560e01b815260040160405180910390fd5b5f80546001600160a01b0316905b6006548110156118b1575f600682815481106117b9576117b96123e0565b5f9182526020822001546040516370a0823160e01b81523060048201526001600160a01b03909116925082906370a0823190602401602060405180830381865afa158015611809573d5f803e3d5ffd5b505050506040513d601f19601f8201168201806040525081019061182d91906123f4565b905080156118a75760405163a9059cbb60e01b81526001600160a01b0385811660048301526024820183905283169063a9059cbb906044016020604051808303815f875af1158015611881573d5f803e3d5ffd5b505050506040513d601f19601f820116820180604052508101906118a5919061240b565b505b505060010161179b565b505f5b600754811015611975575f600782815481106118d2576118d26123e0565b5f91825260209182902060408051606081018252600390930290910180546001600160a01b03908116808552600183015495850186905260029092015416838301529051632142170760e11b8152919350916342842e0e9161193b91309188919060040161242a565b5f604051808303815f87803b158015611952575f80fd5b505af1158015611964573d5f803e3d5ffd5b5050600190930192506118b4915050565b50478015611a15575f826001600160a01b0316826040515f6040518083038185875af1925050503d805f81146119c6576040519150601f19603f3d011682016040523d82523d5f602084013e6119cb565b606091505b5050905080611a135760405162461bcd60e51b815260206004820152601460248201527322aa24103a3930b739b332b9103330b4b632b21760611b60448201526064016104e2565b505b5050565b5f80546001600160a01b038381166001600160a01b0319831681178455604051919092169283917f8be0079c531659141344cd1fd0a4f28419497f9722a3daafe3b4186f6b6457e09190a35050565b8451865114611ab95760405162461bcd60e51b815260206004820152601c60248201527f48656972732f646973747269627574696f6e73206d69736d617463680000000060448201526064016104e2565b855115611b4e575f805b8651811015611afb57868181518110611ade57611ade6123e0565b602002602001015182611af1919061237e565b9150600101611ac3565b5080606414611b4c5760405162461bcd60e51b815260206004820152601c60248201527f446973747269627574696f6e206d7573742073756d20746f203130300000000060448201526064016104e2565b505b8551611b61906004906020890190611d50565b508451611b75906005906020880190611db3565b505f5b83811015611bf55760066040518060200160405280878785818110611b9f57611b9f6123e0565b611bb59260206040909202019081019150612307565b6001600160a01b039081169091528254600180820185555f94855260209094209251920180546001600160a01b0319169290911691909117905501611b78565b505f5b81811015611cf35760076040518060600160405280858585818110611c1f57611c1f6123e0565b611c359260206060909202019081019150612307565b6001600160a01b03168152602001858585818110611c5557611c556123e0565b905060600201602001358152602001858585818110611c7657611c766123e0565b9050606002016040016020810190611c8e9190612307565b6001600160a01b039081169091528254600181810185555f948552602094859020845160039093020180549284166001600160a01b03199384161781559484015185820155604090930151600290940180549490921693169290921790915501611bf8565b50505050505050565b5080545f8255905f5260205f209081019061173b9190611dec565b5080545f8255905f5260205f209081019061173b9190611e00565b5080545f8255600302905f5260205f209081019061173b9190611e1f565b828054828255905f5260205f20908101928215611da3579160200282015b82811115611da357825182546001600160a01b0319166001600160a01b03909116178255602090920191600190910190611d6e565b50611daf929150611dec565b5090565b828054828255905f5260205f20908101928215611da3579160200282015b82811115611da3578251825591602001919060010190611dd1565b5b80821115611daf575f8155600101611ded565b5b80821115611daf5780546001600160a01b0319168155600101611e01565b5b80821115611daf5780546001600160a01b031990811682555f60018301556002820180549091169055600301611e20565b634e487b7160e01b5f52602160045260245ffd5b6020810160038310611e8557634e487b7160e01b5f52602160045260245ffd5b91905290565b5f60208284031215611e9b575f80fd5b5035919050565b634e487b7160e01b5f52604160045260245ffd5b604051601f8201601f1916810167ffffffffffffffff81118282101715611edf57611edf611ea2565b604052919050565b5f67ffffffffffffffff821115611f0057611f00611ea2565b5060051b60200190565b80356001600160a01b0381168114611f20575f80fd5b919050565b5f82601f830112611f34575f80fd5b81356020611f49611f4483611ee7565b611eb6565b8083825260208201915060208460051b870101935086841115611f6a575f80fd5b602086015b84811015611f865780358352918301918301611f6f565b509695505050505050565b5f8083601f840112611fa1575f80fd5b50813567ffffffffffffffff811115611fb8575f80fd5b6020830191508360208260061b8501011115611fd2575f80fd5b9250929050565b5f8083601f840112611fe9575f80fd5b50813567ffffffffffffffff811115612000575f80fd5b602083019150836020606083028501011115611fd2575f80fd5b5f805f805f806080878903121561202f575f80fd5b863567ffffffffffffffff80821115612046575f80fd5b818901915089601f830112612059575f80fd5b81356020612069611f4483611ee7565b82815260059290921b8401810191818101908d841115612087575f80fd5b948201945b838610156120ac5761209d86611f0a565b8252948201949082019061208c565b9a50508a0135925050808211156120c1575f80fd5b6120cd8a838b01611f25565b965060408901359150808211156120e2575f80fd5b6120ee8a838b01611f91565b90965094506060890135915080821115612106575f80fd5b5061211389828a01611fd9565b979a9699509497509295939492505050565b5f815180845260208085019450602084015f5b8381101561215d5781516001600160a01b031687529582019590820190600101612138565b509495945050505050565b5f815180845260208085019450602084015f5b8381101561215d5781518752958201959082019060010161217b565b5f815180845260208085019450602084015f5b8381101561215d57815180516001600160a01b0316885283015183880152604090960195908201906001016121aa565b5f815180845260208085019450602084015f5b8381101561215d57815180516001600160a01b03908116895284820151858a01526040918201511690880152606090960195908201906001016121ed565b602081526122456020820183516001600160a01b03169052565b60208201516040820152604082015160608201525f606083015161226d608084018215159052565b50608083015180151560a08401525060a083015160c083015260c08301516101408060e08501526122a2610160850183612125565b915060e0850151601f196101008187860301818801526122c28584612168565b9450808801519250506101208187860301818801526122e18584612197565b9088015187820390920184880152935090506122fd83826121da565b9695505050505050565b5f60208284031215612317575f80fd5b61232082611f0a565b9392505050565b60208082526023908201527f57696c6c3a20496e76616c696420737461746520666f7220746869732061637460408201526234b7b760e91b606082015260800190565b634e487b7160e01b5f52601160045260245ffd5b808201808211156123915761239161236a565b92915050565b80820281158282048414176123915761239161236a565b5f826123c857634e487b7160e01b5f52601260045260245ffd5b500490565b818103818111156123915761239161236a565b634e487b7160e01b5f52603260045260245ffd5b5f60208284031215612404575f80fd5b5051919050565b5f6020828403121561241b575f80fd5b81518015158114612320575f80fd5b6001600160a01b03938416815291909216602082015260408101919091526060019056fea2646970667358221220556f6ba2314c4403821f64c63978659e41978b2f6949ddffb6f18c9a23bf8efb64736f6c63430008180033a2646970667358221220ce516f818743afa020e02fbee77d5d31624857f62cd2d3e9062b220166de50ce64736f6c63430008180033",
			"opcodes": "PUSH1 0x80 PUSH1 0x40 MSTORE CALLVALUE DUP1 ISZERO PUSH3 0x10 JUMPI PUSH0 DUP1 REVERT JUMPDEST POP PUSH1 0x40 MLOAD PUSH3 0x3F3C CODESIZE SUB DUP1 PUSH3 0x3F3C DUP4 CODECOPY DUP2 ADD PUSH1 0x40 DUP2 SWAP1 MSTORE PUSH3 0x33 SWAP2 PUSH3 0x1F9 JUMP JUMPDEST PUSH1 0x1 PUSH1 0x1 PUSH1 0xA0 SHL SUB DUP6 AND ISZERO DUP1 ISZERO SWAP1 PUSH3 0x54 JUMPI POP PUSH1 0x1 PUSH1 0x1 PUSH1 0xA0 SHL SUB DUP5 AND ISZERO ISZERO JUMPDEST DUP1 ISZERO PUSH3 0x69 JUMPI POP PUSH1 0x1 PUSH1 0x1 PUSH1 0xA0 SHL SUB DUP4 AND ISZERO ISZERO JUMPDEST DUP1 ISZERO PUSH3 0x7E JUMPI POP PUSH1 0x1 PUSH1 0x1 PUSH1 0xA0 SHL SUB DUP3 AND ISZERO ISZERO JUMPDEST PUSH3 0xE4 JUMPI PUSH1 0x40 MLOAD PUSH3 0x461BCD PUSH1 0xE5 SHL DUP2 MSTORE PUSH1 0x20 PUSH1 0x4 DUP3 ADD MSTORE PUSH1 0x2B PUSH1 0x24 DUP3 ADD MSTORE PUSH32 0x536F757263653A20436F2D666F756E646572206164647265737365732063616E PUSH1 0x44 DUP3 ADD MSTORE PUSH11 0x6E6F74206265207A65726F PUSH1 0xA8 SHL PUSH1 0x64 DUP3 ADD MSTORE PUSH1 0x84 ADD JUMPDEST PUSH1 0x40 MLOAD DUP1 SWAP2 SUB SWAP1 REVERT JUMPDEST PUSH1 0x40 DUP1 MLOAD DUP1 DUP3 ADD DUP3 MSTORE PUSH1 0x1 PUSH1 0x1 PUSH1 0xA0 SHL SUB DUP1 DUP9 AND DUP1 DUP4 MSTORE DUP8 DUP3 AND PUSH1 0x20 SWAP4 DUP5 ADD DUP2 SWAP1 MSTORE PUSH1 0x2 DUP1 SLOAD PUSH1 0x1 PUSH1 0x1 PUSH1 0xA0 SHL SUB NOT SWAP1 DUP2 AND SWAP1 SWAP4 OR SWAP1 SSTORE PUSH1 0x3 DUP1 SLOAD DUP4 AND SWAP1 SWAP2 OR SWAP1 SSTORE DUP4 MLOAD DUP1 DUP6 ADD SWAP1 SWAP5 MSTORE DUP7 DUP3 AND DUP1 DUP6 MSTORE DUP7 DUP4 AND SWAP5 SWAP1 SWAP4 ADD DUP5 SWAP1 MSTORE PUSH1 0x4 DUP1 SLOAD DUP3 AND SWAP1 SWAP4 OR SWAP1 SWAP3 SSTORE PUSH1 0x5 DUP1 SLOAD SWAP1 SWAP3 AND SWAP1 SWAP3 OR SWAP1 SSTORE DUP2 AND PUSH3 0x1A6 JUMPI PUSH1 0x40 MLOAD PUSH3 0x461BCD PUSH1 0xE5 SHL DUP2 MSTORE PUSH1 0x20 PUSH1 0x4 DUP3 ADD MSTORE PUSH1 0x1F PUSH1 0x24 DUP3 ADD MSTORE PUSH32 0x536F757263653A204578656375746F722063616E6E6F74206265207A65726F00 PUSH1 0x44 DUP3 ADD MSTORE PUSH1 0x64 ADD PUSH3 0xDB JUMP JUMPDEST PUSH1 0x6 DUP1 SLOAD PUSH1 0x1 PUSH1 0x1 PUSH1 0xA0 SHL SUB NOT AND PUSH1 0x1 PUSH1 0x1 PUSH1 0xA0 SHL SUB SWAP3 SWAP1 SWAP3 AND SWAP2 SWAP1 SWAP2 OR SWAP1 SSTORE POP POP PUSH8 0x429D069189E0000 PUSH1 0x1 SSTORE POP PUSH3 0x265 SWAP1 POP JUMP JUMPDEST DUP1 MLOAD PUSH1 0x1 PUSH1 0x1 PUSH1 0xA0 SHL SUB DUP2 AND DUP2 EQ PUSH3 0x1F4 JUMPI PUSH0 DUP1 REVERT JUMPDEST SWAP2 SWAP1 POP JUMP JUMPDEST PUSH0 DUP1 PUSH0 DUP1 PUSH0 PUSH1 0xA0 DUP7 DUP9 SUB SLT ISZERO PUSH3 0x20E JUMPI PUSH0 DUP1 REVERT JUMPDEST PUSH3 0x219 DUP7 PUSH3 0x1DD JUMP JUMPDEST SWAP5 POP PUSH3 0x229 PUSH1 0x20 DUP8 ADD PUSH3 0x1DD JUMP JUMPDEST SWAP4 POP PUSH3 0x239 PUSH1 0x40 DUP8 ADD PUSH3 0x1DD JUMP JUMPDEST SWAP3 POP PUSH3 0x249 PUSH1 0x60 DUP8 ADD PUSH3 0x1DD JUMP JUMPDEST SWAP2 POP PUSH3 0x259 PUSH1 0x80 DUP8 ADD PUSH3 0x1DD JUMP JUMPDEST SWAP1 POP SWAP3 SWAP6 POP SWAP3 SWAP6 SWAP1 SWAP4 POP JUMP JUMPDEST PUSH2 0x3CC9 DUP1 PUSH3 0x273 PUSH0 CODECOPY PUSH0 RETURN INVALID PUSH1 0x80 PUSH1 0x40 MSTORE PUSH1 0x4 CALLDATASIZE LT PUSH3 0xEE JUMPI PUSH0 CALLDATALOAD PUSH1 0xE0 SHR DUP1 PUSH4 0x96164523 GT PUSH3 0x86 JUMPI DUP1 PUSH4 0xA8E9A539 GT PUSH3 0x5E JUMPI DUP1 PUSH4 0xA8E9A539 EQ PUSH3 0x286 JUMPI DUP1 PUSH4 0xBF516F63 EQ PUSH3 0x2A7 JUMPI DUP1 PUSH4 0xC2513F11 EQ PUSH3 0x2CB JUMPI DUP1 PUSH4 0xC2DB55EA EQ PUSH3 0x2EF JUMPI PUSH0 DUP1 REVERT JUMPDEST DUP1 PUSH4 0x96164523 EQ PUSH3 0x229 JUMPI DUP1 PUSH4 0xA010F2A1 EQ PUSH3 0x23E JUMPI DUP1 PUSH4 0xA658DD6B EQ PUSH3 0x262 JUMPI PUSH0 DUP1 REVERT JUMPDEST DUP1 PUSH4 0x476343EE GT PUSH3 0xC6 JUMPI DUP1 PUSH4 0x476343EE EQ PUSH3 0x186 JUMPI DUP1 PUSH4 0x68A4C6AA EQ PUSH3 0x19D JUMPI DUP1 PUSH4 0x750A1656 EQ PUSH3 0x1EE JUMPI DUP1 PUSH4 0x80921E14 EQ PUSH3 0x212 JUMPI PUSH0 DUP1 REVERT JUMPDEST DUP1 PUSH4 0x9838727 EQ PUSH3 0xFA JUMPI DUP1 PUSH4 0x15E32F96 EQ PUSH3 0x124 JUMPI DUP1 PUSH4 0x25494A03 EQ PUSH3 0x13D JUMPI PUSH0 DUP1 REVERT JUMPDEST CALLDATASIZE PUSH3 0xF6 JUMPI STOP JUMPDEST PUSH0 DUP1 REVERT JUMPDEST CALLVALUE DUP1 ISZERO PUSH3 0x106 JUMPI PUSH0 DUP1 REVERT JUMPDEST POP PUSH3 0x111 PUSH1 0x1 SLOAD DUP2 JUMP JUMPDEST PUSH1 0x40 MLOAD SWAP1 DUP2 MSTORE PUSH1 0x20 ADD JUMPDEST PUSH1 0x40 MLOAD DUP1 SWAP2 SUB SWAP1 RETURN JUMPDEST PUSH3 0x13B PUSH3 0x135 CALLDATASIZE PUSH1 0x4 PUSH3 0xFD7 JUMP JUMPDEST PUSH3 0x317 JUMP JUMPDEST STOP JUMPDEST CALLVALUE DUP1 ISZERO PUSH3 0x149 JUMPI PUSH0 DUP1 REVERT JUMPDEST POP PUSH1 0x2 SLOAD PUSH1 0x3 SLOAD PUSH3 0x165 SWAP2 PUSH1 0x1 PUSH1 0x1 PUSH1 0xA0 SHL SUB SWAP1 DUP2 AND SWAP2 AND DUP3 JUMP JUMPDEST PUSH1 0x40 DUP1 MLOAD PUSH1 0x1 PUSH1 0x1 PUSH1 0xA0 SHL SUB SWAP4 DUP5 AND DUP2 MSTORE SWAP3 SWAP1 SWAP2 AND PUSH1 0x20 DUP4 ADD MSTORE ADD PUSH3 0x11B JUMP JUMPDEST CALLVALUE DUP1 ISZERO PUSH3 0x192 JUMPI PUSH0 DUP1 REVERT JUMPDEST POP PUSH3 0x13B PUSH3 0x478 JUMP JUMPDEST CALLVALUE DUP1 ISZERO PUSH3 0x1A9 JUMPI PUSH0 DUP1 REVERT JUMPDEST POP PUSH3 0x1D5 PUSH3 0x1BB CALLDATASIZE PUSH1 0x4 PUSH3 0x100B JUMP JUMPDEST PUSH0 PUSH1 0x20 DUP2 SWAP1 MSTORE SWAP1 DUP2 MSTORE PUSH1 0x40 SWAP1 KECCAK256 SLOAD PUSH1 0x1 PUSH1 0x1 PUSH1 0xA0 SHL SUB AND DUP2 JUMP JUMPDEST PUSH1 0x40 MLOAD PUSH1 0x1 PUSH1 0x1 PUSH1 0xA0 SHL SUB SWAP1 SWAP2 AND DUP2 MSTORE PUSH1 0x20 ADD PUSH3 0x11B JUMP JUMPDEST CALLVALUE DUP1 ISZERO PUSH3 0x1FA JUMPI PUSH0 DUP1 REVERT JUMPDEST POP PUSH3 0x13B PUSH3 0x20C CALLDATASIZE PUSH1 0x4 PUSH3 0x102E JUMP JUMPDEST PUSH3 0x706 JUMP JUMPDEST PUSH3 0x13B PUSH3 0x223 CALLDATASIZE PUSH1 0x4 PUSH3 0x11D5 JUMP JUMPDEST PUSH3 0x836 JUMP JUMPDEST CALLVALUE DUP1 ISZERO PUSH3 0x235 JUMPI PUSH0 DUP1 REVERT JUMPDEST POP PUSH3 0x111 PUSH0 DUP2 JUMP JUMPDEST CALLVALUE DUP1 ISZERO PUSH3 0x24A JUMPI PUSH0 DUP1 REVERT JUMPDEST POP PUSH3 0x13B PUSH3 0x25C CALLDATASIZE PUSH1 0x4 PUSH3 0x102E JUMP JUMPDEST PUSH3 0xB9D JUMP JUMPDEST CALLVALUE DUP1 ISZERO PUSH3 0x26E JUMPI PUSH0 DUP1 REVERT JUMPDEST POP PUSH3 0x13B PUSH3 0x280 CALLDATASIZE PUSH1 0x4 PUSH3 0x100B JUMP JUMPDEST PUSH3 0xCC6 JUMP JUMPDEST CALLVALUE DUP1 ISZERO PUSH3 0x292 JUMPI PUSH0 DUP1 REVERT JUMPDEST POP PUSH1 0x6 SLOAD PUSH3 0x1D5 SWAP1 PUSH1 0x1 PUSH1 0x1 PUSH1 0xA0 SHL SUB AND DUP2 JUMP JUMPDEST CALLVALUE DUP1 ISZERO PUSH3 0x2B3 JUMPI PUSH0 DUP1 REVERT JUMPDEST POP PUSH3 0x13B PUSH3 0x2C5 CALLDATASIZE PUSH1 0x4 PUSH3 0xFD7 JUMP JUMPDEST PUSH3 0xDE8 JUMP JUMPDEST CALLVALUE DUP1 ISZERO PUSH3 0x2D7 JUMPI PUSH0 DUP1 REVERT JUMPDEST POP PUSH3 0x13B PUSH3 0x2E9 CALLDATASIZE PUSH1 0x4 PUSH3 0x100B JUMP JUMPDEST PUSH3 0xEAD JUMP JUMPDEST CALLVALUE DUP1 ISZERO PUSH3 0x2FB JUMPI PUSH0 DUP1 REVERT JUMPDEST POP PUSH1 0x4 SLOAD PUSH1 0x5 SLOAD PUSH3 0x165 SWAP2 PUSH1 0x1 PUSH1 0x1 PUSH1 0xA0 SHL SUB SWAP1 DUP2 AND SWAP2 AND DUP3 JUMP JUMPDEST PUSH1 0x1 SLOAD CALLVALUE EQ PUSH3 0x382 JUMPI PUSH1 0x40 MLOAD PUSH3 0x461BCD PUSH1 0xE5 SHL DUP2 MSTORE PUSH1 0x20 PUSH1 0x4 DUP3 ADD MSTORE PUSH1 0x2B PUSH1 0x24 DUP3 ADD MSTORE PUSH32 0x4D73672E76616C7565206D7573742065786163746C7920636F76657220746865 PUSH1 0x44 DUP3 ADD MSTORE PUSH11 0x103234B0B93C903332B297 PUSH1 0xA9 SHL PUSH1 0x64 DUP3 ADD MSTORE PUSH1 0x84 ADD JUMPDEST PUSH1 0x40 MLOAD DUP1 SWAP2 SUB SWAP1 REVERT JUMPDEST CALLER PUSH0 SWAP1 DUP2 MSTORE PUSH1 0x20 DUP2 SWAP1 MSTORE PUSH1 0x40 SWAP1 KECCAK256 SLOAD PUSH1 0x1 PUSH1 0x1 PUSH1 0xA0 SHL SUB AND ISZERO PUSH3 0x3BA JUMPI PUSH1 0x40 MLOAD PUSH3 0x461BCD PUSH1 0xE5 SHL DUP2 MSTORE PUSH1 0x4 ADD PUSH3 0x379 SWAP1 PUSH3 0x12FD JUMP JUMPDEST PUSH0 CALLER DUP3 ADDRESS PUSH1 0x1 SLOAD PUSH1 0x1 PUSH1 0x6 PUSH0 SWAP1 SLOAD SWAP1 PUSH2 0x100 EXP SWAP1 DIV PUSH1 0x1 PUSH1 0x1 PUSH1 0xA0 SHL SUB AND PUSH1 0x40 MLOAD PUSH3 0x3E6 SWAP1 PUSH3 0xFC9 JUMP JUMPDEST PUSH3 0x3F7 SWAP7 SWAP6 SWAP5 SWAP4 SWAP3 SWAP2 SWAP1 PUSH3 0x133F JUMP JUMPDEST PUSH1 0x40 MLOAD DUP1 SWAP2 SUB SWAP1 PUSH0 CREATE DUP1 ISZERO DUP1 ISZERO PUSH3 0x411 JUMPI RETURNDATASIZE PUSH0 DUP1 RETURNDATACOPY RETURNDATASIZE PUSH0 REVERT JUMPDEST POP CALLER PUSH0 DUP2 DUP2 MSTORE PUSH1 0x20 DUP2 DUP2 MSTORE PUSH1 0x40 SWAP2 DUP3 SWAP1 KECCAK256 DUP1 SLOAD PUSH1 0x1 PUSH1 0x1 PUSH1 0xA0 SHL SUB NOT AND PUSH1 0x1 PUSH1 0x1 PUSH1 0xA0 SHL SUB DUP7 AND SWAP1 DUP2 OR SWAP1 SWAP2 SSTORE SWAP2 MLOAD PUSH1 0x1 DUP2 MSTORE SWAP4 SWAP5 POP SWAP1 SWAP3 PUSH32 0xD94B8D77522FC436B0BDFA0909A24735541697F55E4FF15F693D401E8DD9CF68 SWAP2 ADD PUSH1 0x40 MLOAD DUP1 SWAP2 SUB SWAP1 LOG3 POP POP JUMP JUMPDEST PUSH1 0x2 SLOAD PUSH1 0x1 PUSH1 0x1 PUSH1 0xA0 SHL SUB AND CALLER EQ DUP1 PUSH3 0x49C JUMPI POP PUSH1 0x3 SLOAD PUSH1 0x1 PUSH1 0x1 PUSH1 0xA0 SHL SUB AND CALLER EQ JUMPDEST DUP1 PUSH3 0x4B2 JUMPI POP PUSH1 0x4 SLOAD PUSH1 0x1 PUSH1 0x1 PUSH1 0xA0 SHL SUB AND CALLER EQ JUMPDEST DUP1 PUSH3 0x4C8 JUMPI POP PUSH1 0x5 SLOAD PUSH1 0x1 PUSH1 0x1 PUSH1 0xA0 SHL SUB AND CALLER EQ JUMPDEST PUSH3 0x4E7 JUMPI PUSH1 0x40 MLOAD PUSH3 0x461BCD PUSH1 0xE5 SHL DUP2 MSTORE PUSH1 0x4 ADD PUSH3 0x379 SWAP1 PUSH3 0x1379 JUMP JUMPDEST SELFBALANCE DUP1 PUSH3 0x52E JUMPI PUSH1 0x40 MLOAD PUSH3 0x461BCD PUSH1 0xE5 SHL DUP2 MSTORE PUSH1 0x20 PUSH1 0x4 DUP3 ADD MSTORE PUSH1 0x14 PUSH1 0x24 DUP3 ADD MSTORE PUSH20 0x2737903332B2B9903A37903BB4BA34323930BB97 PUSH1 0x61 SHL PUSH1 0x44 DUP3 ADD MSTORE PUSH1 0x64 ADD PUSH3 0x379 JUMP JUMPDEST PUSH0 PUSH1 0x64 PUSH3 0x53E DUP4 PUSH1 0x5A PUSH3 0x13CF JUMP JUMPDEST PUSH3 0x54A SWAP2 SWAP1 PUSH3 0x13EF JUMP JUMPDEST SWAP1 POP PUSH0 PUSH3 0x559 DUP3 DUP5 PUSH3 0x140F JUMP JUMPDEST PUSH1 0x2 SLOAD PUSH1 0x40 MLOAD SWAP2 SWAP3 POP PUSH0 SWAP2 PUSH1 0x1 PUSH1 0x1 PUSH1 0xA0 SHL SUB SWAP1 SWAP2 AND SWAP1 DUP5 SWAP1 DUP4 DUP2 DUP2 DUP2 DUP6 DUP8 GAS CALL SWAP3 POP POP POP RETURNDATASIZE DUP1 PUSH0 DUP2 EQ PUSH3 0x5AA JUMPI PUSH1 0x40 MLOAD SWAP2 POP PUSH1 0x1F NOT PUSH1 0x3F RETURNDATASIZE ADD AND DUP3 ADD PUSH1 0x40 MSTORE RETURNDATASIZE DUP3 MSTORE RETURNDATASIZE PUSH0 PUSH1 0x20 DUP5 ADD RETURNDATACOPY PUSH3 0x5AF JUMP JUMPDEST PUSH1 0x60 SWAP2 POP JUMPDEST POP POP SWAP1 POP DUP1 PUSH3 0x611 JUMPI PUSH1 0x40 MLOAD PUSH3 0x461BCD PUSH1 0xE5 SHL DUP2 MSTORE PUSH1 0x20 PUSH1 0x4 DUP3 ADD MSTORE PUSH1 0x26 PUSH1 0x24 DUP3 ADD MSTORE PUSH32 0x455448207472616E7366657220746F20436F2D466F756E646572204F6E652066 PUSH1 0x44 DUP3 ADD MSTORE PUSH6 0x30B4B632B217 PUSH1 0xD1 SHL PUSH1 0x64 DUP3 ADD MSTORE PUSH1 0x84 ADD PUSH3 0x379 JUMP JUMPDEST PUSH1 0x4 SLOAD PUSH1 0x40 MLOAD PUSH0 SWAP2 PUSH1 0x1 PUSH1 0x1 PUSH1 0xA0 SHL SUB AND SWAP1 DUP5 SWAP1 DUP4 DUP2 DUP2 DUP2 DUP6 DUP8 GAS CALL SWAP3 POP POP POP RETURNDATASIZE DUP1 PUSH0 DUP2 EQ PUSH3 0x65D JUMPI PUSH1 0x40 MLOAD SWAP2 POP PUSH1 0x1F NOT PUSH1 0x3F RETURNDATASIZE ADD AND DUP3 ADD PUSH1 0x40 MSTORE RETURNDATASIZE DUP3 MSTORE RETURNDATASIZE PUSH0 PUSH1 0x20 DUP5 ADD RETURNDATACOPY PUSH3 0x662 JUMP JUMPDEST PUSH1 0x60 SWAP2 POP JUMPDEST POP POP SWAP1 POP DUP1 PUSH3 0x6C4 JUMPI PUSH1 0x40 MLOAD PUSH3 0x461BCD PUSH1 0xE5 SHL DUP2 MSTORE PUSH1 0x20 PUSH1 0x4 DUP3 ADD MSTORE PUSH1 0x26 PUSH1 0x24 DUP3 ADD MSTORE PUSH32 0x455448207472616E7366657220746F20436F2D466F756E6465722054776F2066 PUSH1 0x44 DUP3 ADD MSTORE PUSH6 0x30B4B632B217 PUSH1 0xD1 SHL PUSH1 0x64 DUP3 ADD MSTORE PUSH1 0x84 ADD PUSH3 0x379 JUMP JUMPDEST PUSH1 0x40 DUP1 MLOAD DUP6 DUP2 MSTORE PUSH1 0x20 DUP2 ADD DUP6 SWAP1 MSTORE CALLER SWAP2 PUSH32 0xDEB5099D7943AA2B4C1142E5D53D2F7636AA8F7BD130EC79816F151572BCDF45 SWAP2 ADD PUSH1 0x40 MLOAD DUP1 SWAP2 SUB SWAP1 LOG2 POP POP POP POP POP JUMP JUMPDEST PUSH1 0x2 SLOAD PUSH1 0x1 PUSH1 0x1 PUSH1 0xA0 SHL SUB AND CALLER EQ DUP1 PUSH3 0x72A JUMPI POP PUSH1 0x3 SLOAD PUSH1 0x1 PUSH1 0x1 PUSH1 0xA0 SHL SUB AND CALLER EQ JUMPDEST PUSH3 0x784 JUMPI PUSH1 0x40 MLOAD PUSH3 0x461BCD PUSH1 0xE5 SHL DUP2 MSTORE PUSH1 0x20 PUSH1 0x4 DUP3 ADD MSTORE PUSH1 0x24 DUP1 DUP3 ADD MSTORE PUSH32 0x536F757263653A2043616C6C6572206973206E6F7420436F2D466F756E646572 PUSH1 0x44 DUP3 ADD MSTORE PUSH4 0x204F6E65 PUSH1 0xE0 SHL PUSH1 0x64 DUP3 ADD MSTORE PUSH1 0x84 ADD PUSH3 0x379 JUMP JUMPDEST PUSH1 0x1 PUSH1 0x1 PUSH1 0xA0 SHL SUB DUP3 AND ISZERO DUP1 ISZERO SWAP1 PUSH3 0x7A5 JUMPI POP PUSH1 0x1 PUSH1 0x1 PUSH1 0xA0 SHL SUB DUP2 AND ISZERO ISZERO JUMPDEST PUSH3 0x7C4 JUMPI PUSH1 0x40 MLOAD PUSH3 0x461BCD PUSH1 0xE5 SHL DUP2 MSTORE PUSH1 0x4 ADD PUSH3 0x379 SWAP1 PUSH3 0x1425 JUMP JUMPDEST PUSH1 0x2 DUP1 SLOAD PUSH1 0x1 PUSH1 0x1 PUSH1 0xA0 SHL SUB DUP5 DUP2 AND PUSH1 0x1 PUSH1 0x1 PUSH1 0xA0 SHL SUB NOT SWAP3 DUP4 AND DUP2 OR SWAP1 SWAP4 SSTORE PUSH1 0x3 DUP1 SLOAD SWAP2 DUP6 AND SWAP2 SWAP1 SWAP3 AND DUP2 OR SWAP1 SWAP2 SSTORE PUSH1 0x40 DUP1 MLOAD SWAP3 DUP4 MSTORE PUSH1 0x20 DUP4 ADD SWAP2 SWAP1 SWAP2 MSTORE PUSH1 0x1 SWAP2 PUSH32 0xF2756662321C17D77ED333BFAD7F4ED60DC8E8A1C0028CE3FD5B65629D6F44AB SWAP2 ADD JUMPDEST PUSH1 0x40 MLOAD DUP1 SWAP2 SUB SWAP1 LOG2 POP POP JUMP JUMPDEST CALLER PUSH0 SWAP1 DUP2 MSTORE PUSH1 0x20 DUP2 SWAP1 MSTORE PUSH1 0x40 SWAP1 KECCAK256 SLOAD PUSH1 0x1 PUSH1 0x1 PUSH1 0xA0 SHL SUB AND ISZERO PUSH3 0x86E JUMPI PUSH1 0x40 MLOAD PUSH3 0x461BCD PUSH1 0xE5 SHL DUP2 MSTORE PUSH1 0x4 ADD PUSH3 0x379 SWAP1 PUSH3 0x12FD JUMP JUMPDEST PUSH0 PUSH3 0x87B DUP2 CALLVALUE PUSH3 0x140F JUMP JUMPDEST SWAP1 POP PUSH0 DUP2 CALLER DUP9 ADDRESS PUSH0 DUP1 PUSH1 0x6 PUSH0 SWAP1 SLOAD SWAP1 PUSH2 0x100 EXP SWAP1 DIV PUSH1 0x1 PUSH1 0x1 PUSH1 0xA0 SHL SUB AND PUSH1 0x40 MLOAD PUSH3 0x8A7 SWAP1 PUSH3 0xFC9 JUMP JUMPDEST PUSH3 0x8B8 SWAP7 SWAP6 SWAP5 SWAP4 SWAP3 SWAP2 SWAP1 PUSH3 0x133F JUMP JUMPDEST PUSH1 0x40 MLOAD DUP1 SWAP2 SUB SWAP1 DUP3 CREATE SWAP1 POP DUP1 ISZERO DUP1 ISZERO PUSH3 0x8D4 JUMPI RETURNDATASIZE PUSH0 DUP1 RETURNDATACOPY RETURNDATASIZE PUSH0 REVERT JUMPDEST POP CALLER PUSH0 SWAP1 DUP2 MSTORE PUSH1 0x20 DUP2 SWAP1 MSTORE PUSH1 0x40 DUP2 KECCAK256 DUP1 SLOAD PUSH1 0x1 PUSH1 0x1 PUSH1 0xA0 SHL SUB NOT AND PUSH1 0x1 PUSH1 0x1 PUSH1 0xA0 SHL SUB DUP5 AND OR SWAP1 SSTORE SWAP1 SWAP2 POP JUMPDEST DUP6 DUP2 LT ISZERO PUSH3 0xA10 JUMPI PUSH0 DUP8 DUP8 DUP4 DUP2 DUP2 LT PUSH3 0x91F JUMPI PUSH3 0x91F PUSH3 0x1469 JUMP JUMPDEST SWAP1 POP PUSH1 0x40 MUL ADD PUSH1 0x20 ADD CALLDATALOAD GT ISZERO PUSH3 0xA07 JUMPI DUP7 DUP7 DUP3 DUP2 DUP2 LT PUSH3 0x945 JUMPI PUSH3 0x945 PUSH3 0x1469 JUMP JUMPDEST PUSH3 0x95D SWAP3 PUSH1 0x20 PUSH1 0x40 SWAP1 SWAP3 MUL ADD SWAP1 DUP2 ADD SWAP2 POP PUSH3 0x100B JUMP JUMPDEST PUSH1 0x1 PUSH1 0x1 PUSH1 0xA0 SHL SUB AND PUSH4 0x23B872DD CALLER DUP5 DUP11 DUP11 DUP7 DUP2 DUP2 LT PUSH3 0x982 JUMPI PUSH3 0x982 PUSH3 0x1469 JUMP JUMPDEST PUSH1 0x40 DUP1 MLOAD PUSH1 0xE0 DUP9 SWAP1 SHL PUSH1 0x1 PUSH1 0x1 PUSH1 0xE0 SHL SUB NOT AND DUP2 MSTORE PUSH1 0x1 PUSH1 0x1 PUSH1 0xA0 SHL SUB SWAP7 DUP8 AND PUSH1 0x4 DUP3 ADD MSTORE SWAP5 SWAP1 SWAP6 AND PUSH1 0x24 DUP6 ADD MSTORE SWAP1 SWAP4 MUL ADD PUSH1 0x20 ADD CALLDATALOAD PUSH1 0x44 DUP3 ADD MSTORE PUSH1 0x64 ADD SWAP1 POP PUSH1 0x20 PUSH1 0x40 MLOAD DUP1 DUP4 SUB DUP2 PUSH0 DUP8 GAS CALL ISZERO DUP1 ISZERO PUSH3 0x9DF JUMPI RETURNDATASIZE PUSH0 DUP1 RETURNDATACOPY RETURNDATASIZE PUSH0 REVERT JUMPDEST POP POP POP POP PUSH1 0x40 MLOAD RETURNDATASIZE PUSH1 0x1F NOT PUSH1 0x1F DUP3 ADD AND DUP3 ADD DUP1 PUSH1 0x40 MSTORE POP DUP2 ADD SWAP1 PUSH3 0xA05 SWAP2 SWAP1 PUSH3 0x147D JUMP JUMPDEST POP JUMPDEST PUSH1 0x1 ADD PUSH3 0x900 JUMP JUMPDEST POP PUSH0 JUMPDEST DUP4 DUP2 LT ISZERO PUSH3 0xAEA JUMPI DUP5 DUP5 DUP3 DUP2 DUP2 LT PUSH3 0xA31 JUMPI PUSH3 0xA31 PUSH3 0x1469 JUMP JUMPDEST PUSH3 0xA49 SWAP3 PUSH1 0x20 PUSH1 0x60 SWAP1 SWAP3 MUL ADD SWAP1 DUP2 ADD SWAP2 POP PUSH3 0x100B JUMP JUMPDEST PUSH1 0x1 PUSH1 0x1 PUSH1 0xA0 SHL SUB AND PUSH4 0x23B872DD CALLER DUP5 DUP9 DUP9 DUP7 DUP2 DUP2 LT PUSH3 0xA6E JUMPI PUSH3 0xA6E PUSH3 0x1469 JUMP JUMPDEST PUSH1 0x40 MLOAD PUSH1 0x1 PUSH1 0x1 PUSH1 0xE0 SHL SUB NOT PUSH1 0xE0 DUP9 SWAP1 SHL AND DUP2 MSTORE PUSH1 0x1 PUSH1 0x1 PUSH1 0xA0 SHL SUB SWAP6 DUP7 AND PUSH1 0x4 DUP3 ADD MSTORE SWAP5 SWAP1 SWAP4 AND PUSH1 0x24 DUP6 ADD MSTORE POP PUSH1 0x20 PUSH1 0x60 SWAP1 SWAP3 MUL ADD ADD CALLDATALOAD PUSH1 0x44 DUP3 ADD MSTORE PUSH1 0x64 ADD PUSH0 PUSH1 0x40 MLOAD DUP1 DUP4 SUB DUP2 PUSH0 DUP8 DUP1 EXTCODESIZE ISZERO DUP1 ISZERO PUSH3 0xAC6 JUMPI PUSH0 DUP1 REVERT JUMPDEST POP GAS CALL ISZERO DUP1 ISZERO PUSH3 0xAD9 JUMPI RETURNDATASIZE PUSH0 DUP1 RETURNDATACOPY RETURNDATASIZE PUSH0 REVERT JUMPDEST POP POP PUSH1 0x1 SWAP1 SWAP3 ADD SWAP2 POP PUSH3 0xA13 SWAP1 POP JUMP JUMPDEST POP PUSH1 0x40 MLOAD PUSH4 0xABE21B59 PUSH1 0xE0 SHL DUP2 MSTORE PUSH1 0x1 PUSH1 0x1 PUSH1 0xA0 SHL SUB DUP3 AND SWAP1 PUSH4 0xABE21B59 SWAP1 PUSH3 0xB23 SWAP1 DUP13 SWAP1 DUP13 SWAP1 DUP12 SWAP1 DUP12 SWAP1 DUP12 SWAP1 DUP12 SWAP1 PUSH1 0x4 ADD PUSH3 0x1551 JUMP JUMPDEST PUSH0 PUSH1 0x40 MLOAD DUP1 DUP4 SUB DUP2 PUSH0 DUP8 DUP1 EXTCODESIZE ISZERO DUP1 ISZERO PUSH3 0xB3B JUMPI PUSH0 DUP1 REVERT JUMPDEST POP GAS CALL ISZERO DUP1 ISZERO PUSH3 0xB4E JUMPI RETURNDATASIZE PUSH0 DUP1 RETURNDATACOPY RETURNDATASIZE PUSH0 REVERT JUMPDEST POP POP PUSH1 0x40 MLOAD PUSH0 DUP2 MSTORE PUSH1 0x1 PUSH1 0x1 PUSH1 0xA0 SHL SUB DUP5 AND SWAP3 POP CALLER SWAP2 POP PUSH32 0xD94B8D77522FC436B0BDFA0909A24735541697F55E4FF15F693D401E8DD9CF68 SWAP1 PUSH1 0x20 ADD PUSH1 0x40 MLOAD DUP1 SWAP2 SUB SWAP1 LOG3 POP POP POP POP POP POP POP POP POP JUMP JUMPDEST PUSH1 0x4 SLOAD PUSH1 0x1 PUSH1 0x1 PUSH1 0xA0 SHL SUB AND CALLER EQ DUP1 PUSH3 0xBC1 JUMPI POP PUSH1 0x5 SLOAD PUSH1 0x1 PUSH1 0x1 PUSH1 0xA0 SHL SUB AND CALLER EQ JUMPDEST PUSH3 0xC1B JUMPI PUSH1 0x40 MLOAD PUSH3 0x461BCD PUSH1 0xE5 SHL DUP2 MSTORE PUSH1 0x20 PUSH1 0x4 DUP3 ADD MSTORE PUSH1 0x24 DUP1 DUP3 ADD MSTORE PUSH32 0x536F757263653A2043616C6C6572206973206E6F7420436F2D466F756E646572 PUSH1 0x44 DUP3 ADD MSTORE PUSH4 0x2054776F PUSH1 0xE0 SHL PUSH1 0x64 DUP3 ADD MSTORE PUSH1 0x84 ADD PUSH3 0x379 JUMP JUMPDEST PUSH1 0x1 PUSH1 0x1 PUSH1 0xA0 SHL SUB DUP3 AND ISZERO DUP1 ISZERO SWAP1 PUSH3 0xC3C JUMPI POP PUSH1 0x1 PUSH1 0x1 PUSH1 0xA0 SHL SUB DUP2 AND ISZERO ISZERO JUMPDEST PUSH3 0xC5B JUMPI PUSH1 0x40 MLOAD PUSH3 0x461BCD PUSH1 0xE5 SHL DUP2 MSTORE PUSH1 0x4 ADD PUSH3 0x379 SWAP1 PUSH3 0x1425 JUMP JUMPDEST PUSH1 0x4 DUP1 SLOAD PUSH1 0x1 PUSH1 0x1 PUSH1 0xA0 SHL SUB DUP5 DUP2 AND PUSH1 0x1 PUSH1 0x1 PUSH1 0xA0 SHL SUB NOT SWAP3 DUP4 AND DUP2 OR SWAP1 SWAP4 SSTORE PUSH1 0x5 DUP1 SLOAD SWAP2 DUP6 AND SWAP2 SWAP1 SWAP3 AND DUP2 OR SWAP1 SWAP2 SSTORE PUSH1 0x40 DUP1 MLOAD SWAP3 DUP4 MSTORE PUSH1 0x20 DUP4 ADD SWAP2 SWAP1 SWAP2 MSTORE PUSH1 0x2 SWAP2 PUSH32 0xF2756662321C17D77ED333BFAD7F4ED60DC8E8A1C0028CE3FD5B65629D6F44AB SWAP2 ADD PUSH3 0x82A JUMP JUMPDEST PUSH1 0x1 PUSH1 0x1 PUSH1 0xA0 SHL SUB DUP1 DUP3 AND PUSH0 SWAP1 DUP2 MSTORE PUSH1 0x20 DUP2 SWAP1 MSTORE PUSH1 0x40 SWAP1 KECCAK256 SLOAD AND DUP1 PUSH3 0xD2F JUMPI PUSH1 0x40 MLOAD PUSH3 0x461BCD PUSH1 0xE5 SHL DUP2 MSTORE PUSH1 0x20 PUSH1 0x4 DUP3 ADD MSTORE PUSH1 0x1C PUSH1 0x24 DUP3 ADD MSTORE PUSH32 0x4E6F2077696C6C20666F756E6420666F72207468697320757365722E00000000 PUSH1 0x44 DUP3 ADD MSTORE PUSH1 0x64 ADD PUSH3 0x379 JUMP JUMPDEST CALLER PUSH1 0x1 PUSH1 0x1 PUSH1 0xA0 SHL SUB DUP3 AND EQ PUSH3 0xD94 JUMPI PUSH1 0x40 MLOAD PUSH3 0x461BCD PUSH1 0xE5 SHL DUP2 MSTORE PUSH1 0x20 PUSH1 0x4 DUP3 ADD MSTORE PUSH1 0x22 PUSH1 0x24 DUP3 ADD MSTORE PUSH32 0x43616C6C6572206973206E6F742074686520726567697374657265642077696C PUSH1 0x44 DUP3 ADD MSTORE PUSH2 0x3617 PUSH1 0xF1 SHL PUSH1 0x64 DUP3 ADD MSTORE PUSH1 0x84 ADD PUSH3 0x379 JUMP JUMPDEST PUSH1 0x1 PUSH1 0x1 PUSH1 0xA0 SHL SUB DUP1 DUP4 AND PUSH0 DUP2 DUP2 MSTORE PUSH1 0x20 DUP2 SWAP1 MSTORE PUSH1 0x40 DUP1 DUP3 KECCAK256 DUP1 SLOAD PUSH1 0x1 PUSH1 0x1 PUSH1 0xA0 SHL SUB NOT AND SWAP1 SSTORE MLOAD SWAP3 DUP5 AND SWAP3 PUSH32 0x24C44EB8275B2359785575DB44A95EB6B553CF6939B59528954E64756F23ACAB SWAP2 SWAP1 LOG3 POP POP JUMP JUMPDEST PUSH1 0x2 SLOAD PUSH1 0x1 PUSH1 0x1 PUSH1 0xA0 SHL SUB AND CALLER EQ DUP1 PUSH3 0xE0C JUMPI POP PUSH1 0x3 SLOAD PUSH1 0x1 PUSH1 0x1 PUSH1 0xA0 SHL SUB AND CALLER EQ JUMPDEST DUP1 PUSH3 0xE22 JUMPI POP PUSH1 0x4 SLOAD PUSH1 0x1 PUSH1 0x1 PUSH1 0xA0 SHL SUB AND CALLER EQ JUMPDEST DUP1 PUSH3 0xE38 JUMPI POP PUSH1 0x5 SLOAD PUSH1 0x1 PUSH1 0x1 PUSH1 0xA0 SHL SUB AND CALLER EQ JUMPDEST DUP1 PUSH3 0xE4E JUMPI POP PUSH1 0x6 SLOAD PUSH1 0x1 PUSH1 0x1 PUSH1 0xA0 SHL SUB AND CALLER EQ JUMPDEST PUSH3 0xEA8 JUMPI PUSH1 0x40 MLOAD PUSH3 0x461BCD PUSH1 0xE5 SHL DUP2 MSTORE PUSH1 0x20 PUSH1 0x4 DUP3 ADD MSTORE PUSH1 0x23 PUSH1 0x24 DUP3 ADD MSTORE PUSH32 0x536F757263653A2043616C6C65722063616E6E6F742073657420646961727920 PUSH1 0x44 DUP3 ADD MSTORE PUSH3 0x666565 PUSH1 0xE8 SHL PUSH1 0x64 DUP3 ADD MSTORE PUSH1 0x84 ADD PUSH3 0x379 JUMP JUMPDEST PUSH1 0x1 SSTORE JUMP JUMPDEST PUSH1 0x2 SLOAD PUSH1 0x1 PUSH1 0x1 PUSH1 0xA0 SHL SUB AND CALLER EQ DUP1 PUSH3 0xED1 JUMPI POP PUSH1 0x3 SLOAD PUSH1 0x1 PUSH1 0x1 PUSH1 0xA0 SHL SUB AND CALLER EQ JUMPDEST DUP1 PUSH3 0xEE7 JUMPI POP PUSH1 0x4 SLOAD PUSH1 0x1 PUSH1 0x1 PUSH1 0xA0 SHL SUB AND CALLER EQ JUMPDEST DUP1 PUSH3 0xEFD JUMPI POP PUSH1 0x5 SLOAD PUSH1 0x1 PUSH1 0x1 PUSH1 0xA0 SHL SUB AND CALLER EQ JUMPDEST PUSH3 0xF1C JUMPI PUSH1 0x40 MLOAD PUSH3 0x461BCD PUSH1 0xE5 SHL DUP2 MSTORE PUSH1 0x4 ADD PUSH3 0x379 SWAP1 PUSH3 0x1379 JUMP JUMPDEST PUSH1 0x1 PUSH1 0x1 PUSH1 0xA0 SHL SUB DUP2 AND PUSH3 0xF80 JUMPI PUSH1 0x40 MLOAD PUSH3 0x461BCD PUSH1 0xE5 SHL DUP2 MSTORE PUSH1 0x20 PUSH1 0x4 DUP3 ADD MSTORE PUSH1 0x23 PUSH1 0x24 DUP3 ADD MSTORE PUSH32 0x536F757263653A204E6577206578656375746F722063616E6E6F74206265207A PUSH1 0x44 DUP3 ADD MSTORE PUSH3 0x65726F PUSH1 0xE8 SHL PUSH1 0x64 DUP3 ADD MSTORE PUSH1 0x84 ADD PUSH3 0x379 JUMP JUMPDEST PUSH1 0x6 DUP1 SLOAD PUSH1 0x1 PUSH1 0x1 PUSH1 0xA0 SHL SUB NOT AND PUSH1 0x1 PUSH1 0x1 PUSH1 0xA0 SHL SUB DUP4 AND SWAP1 DUP2 OR SWAP1 SWAP2 SSTORE PUSH1 0x40 MLOAD PUSH32 0xA5CBF15053A72004F628487CA44B7FEA1537B628EE203354D256EB80E308EFA8 SWAP1 PUSH0 SWAP1 LOG2 POP JUMP JUMPDEST PUSH2 0x268C DUP1 PUSH3 0x1608 DUP4 CODECOPY ADD SWAP1 JUMP JUMPDEST PUSH0 PUSH1 0x20 DUP3 DUP5 SUB SLT ISZERO PUSH3 0xFE8 JUMPI PUSH0 DUP1 REVERT JUMPDEST POP CALLDATALOAD SWAP2 SWAP1 POP JUMP JUMPDEST DUP1 CALLDATALOAD PUSH1 0x1 PUSH1 0x1 PUSH1 0xA0 SHL SUB DUP2 AND DUP2 EQ PUSH3 0x1006 JUMPI PUSH0 DUP1 REVERT JUMPDEST SWAP2 SWAP1 POP JUMP JUMPDEST PUSH0 PUSH1 0x20 DUP3 DUP5 SUB SLT ISZERO PUSH3 0x101C JUMPI PUSH0 DUP1 REVERT JUMPDEST PUSH3 0x1027 DUP3 PUSH3 0xFEF JUMP JUMPDEST SWAP4 SWAP3 POP POP POP JUMP JUMPDEST PUSH0 DUP1 PUSH1 0x40 DUP4 DUP6 SUB SLT ISZERO PUSH3 0x1040 JUMPI PUSH0 DUP1 REVERT JUMPDEST PUSH3 0x104B DUP4 PUSH3 0xFEF JUMP JUMPDEST SWAP2 POP PUSH3 0x105B PUSH1 0x20 DUP5 ADD PUSH3 0xFEF JUMP JUMPDEST SWAP1 POP SWAP3 POP SWAP3 SWAP1 POP JUMP JUMPDEST PUSH4 0x4E487B71 PUSH1 0xE0 SHL PUSH0 MSTORE PUSH1 0x41 PUSH1 0x4 MSTORE PUSH1 0x24 PUSH0 REVERT JUMPDEST PUSH1 0x40 MLOAD PUSH1 0x1F DUP3 ADD PUSH1 0x1F NOT AND DUP2 ADD PUSH8 0xFFFFFFFFFFFFFFFF DUP2 GT DUP3 DUP3 LT OR ISZERO PUSH3 0x10A4 JUMPI PUSH3 0x10A4 PUSH3 0x1064 JUMP JUMPDEST PUSH1 0x40 MSTORE SWAP2 SWAP1 POP JUMP JUMPDEST PUSH0 PUSH8 0xFFFFFFFFFFFFFFFF DUP3 GT ISZERO PUSH3 0x10C8 JUMPI PUSH3 0x10C8 PUSH3 0x1064 JUMP JUMPDEST POP PUSH1 0x5 SHL PUSH1 0x20 ADD SWAP1 JUMP JUMPDEST PUSH0 DUP3 PUSH1 0x1F DUP4 ADD SLT PUSH3 0x10E2 JUMPI PUSH0 DUP1 REVERT JUMPDEST DUP2 CALLDATALOAD PUSH1 0x20 PUSH3 0x10FB PUSH3 0x10F5 DUP4 PUSH3 0x10AC JUMP JUMPDEST PUSH3 0x1078 JUMP JUMPDEST DUP1 DUP4 DUP3 MSTORE PUSH1 0x20 DUP3 ADD SWAP2 POP PUSH1 0x20 DUP5 PUSH1 0x5 SHL DUP8 ADD ADD SWAP4 POP DUP7 DUP5 GT ISZERO PUSH3 0x111D JUMPI PUSH0 DUP1 REVERT JUMPDEST PUSH1 0x20 DUP7 ADD JUMPDEST DUP5 DUP2 LT ISZERO PUSH3 0x113B JUMPI DUP1 CALLDATALOAD DUP4 MSTORE SWAP2 DUP4 ADD SWAP2 DUP4 ADD PUSH3 0x1122 JUMP JUMPDEST POP SWAP7 SWAP6 POP POP POP POP POP POP JUMP JUMPDEST PUSH0 DUP1 DUP4 PUSH1 0x1F DUP5 ADD SLT PUSH3 0x1157 JUMPI PUSH0 DUP1 REVERT JUMPDEST POP DUP2 CALLDATALOAD PUSH8 0xFFFFFFFFFFFFFFFF DUP2 GT ISZERO PUSH3 0x116F JUMPI PUSH0 DUP1 REVERT JUMPDEST PUSH1 0x20 DUP4 ADD SWAP2 POP DUP4 PUSH1 0x20 DUP3 PUSH1 0x6 SHL DUP6 ADD ADD GT ISZERO PUSH3 0x118A JUMPI PUSH0 DUP1 REVERT JUMPDEST SWAP3 POP SWAP3 SWAP1 POP JUMP JUMPDEST PUSH0 DUP1 DUP4 PUSH1 0x1F DUP5 ADD SLT PUSH3 0x11A2 JUMPI PUSH0 DUP1 REVERT JUMPDEST POP DUP2 CALLDATALOAD PUSH8 0xFFFFFFFFFFFFFFFF DUP2 GT ISZERO PUSH3 0x11BA JUMPI PUSH0 DUP1 REVERT JUMPDEST PUSH1 0x20 DUP4 ADD SWAP2 POP DUP4 PUSH1 0x20 PUSH1 0x60 DUP4 MUL DUP6 ADD ADD GT ISZERO PUSH3 0x118A JUMPI PUSH0 DUP1 REVERT JUMPDEST PUSH0 DUP1 PUSH0 DUP1 PUSH0 DUP1 PUSH0 PUSH1 0xA0 DUP9 DUP11 SUB SLT ISZERO PUSH3 0x11EC JUMPI PUSH0 DUP1 REVERT JUMPDEST DUP8 CALLDATALOAD PUSH8 0xFFFFFFFFFFFFFFFF DUP1 DUP3 GT ISZERO PUSH3 0x1204 JUMPI PUSH0 DUP1 REVERT JUMPDEST DUP2 DUP11 ADD SWAP2 POP DUP11 PUSH1 0x1F DUP4 ADD SLT PUSH3 0x1218 JUMPI PUSH0 DUP1 REVERT JUMPDEST DUP2 CALLDATALOAD PUSH1 0x20 PUSH3 0x122B PUSH3 0x10F5 DUP4 PUSH3 0x10AC JUMP JUMPDEST DUP3 DUP2 MSTORE PUSH1 0x5 SWAP3 SWAP1 SWAP3 SHL DUP5 ADD DUP2 ADD SWAP2 DUP2 DUP2 ADD SWAP1 DUP15 DUP5 GT ISZERO PUSH3 0x124A JUMPI PUSH0 DUP1 REVERT JUMPDEST SWAP5 DUP3 ADD SWAP5 JUMPDEST DUP4 DUP7 LT ISZERO PUSH3 0x1273 JUMPI PUSH3 0x1263 DUP7 PUSH3 0xFEF JUMP JUMPDEST DUP3 MSTORE SWAP5 DUP3 ADD SWAP5 SWAP1 DUP3 ADD SWAP1 PUSH3 0x124F JUMP JUMPDEST SWAP12 POP POP DUP12 ADD CALLDATALOAD SWAP3 POP POP DUP1 DUP3 GT ISZERO PUSH3 0x1289 JUMPI PUSH0 DUP1 REVERT JUMPDEST PUSH3 0x1297 DUP12 DUP4 DUP13 ADD PUSH3 0x10D2 JUMP JUMPDEST SWAP8 POP PUSH1 0x40 DUP11 ADD CALLDATALOAD SWAP7 POP PUSH1 0x60 DUP11 ADD CALLDATALOAD SWAP2 POP DUP1 DUP3 GT ISZERO PUSH3 0x12B4 JUMPI PUSH0 DUP1 REVERT JUMPDEST PUSH3 0x12C2 DUP12 DUP4 DUP13 ADD PUSH3 0x1146 JUMP JUMPDEST SWAP1 SWAP7 POP SWAP5 POP PUSH1 0x80 DUP11 ADD CALLDATALOAD SWAP2 POP DUP1 DUP3 GT ISZERO PUSH3 0x12DB JUMPI PUSH0 DUP1 REVERT JUMPDEST POP PUSH3 0x12EA DUP11 DUP3 DUP12 ADD PUSH3 0x1191 JUMP JUMPDEST SWAP9 SWAP12 SWAP8 SWAP11 POP SWAP6 SWAP9 POP SWAP4 SWAP7 SWAP3 SWAP6 SWAP3 SWAP4 POP POP POP JUMP JUMPDEST PUSH1 0x20 DUP1 DUP3 MSTORE PUSH1 0x22 SWAP1 DUP3 ADD MSTORE PUSH32 0x5573657220616C72656164792068617320616E206578697374696E672077696C PUSH1 0x40 DUP3 ADD MSTORE PUSH2 0x3617 PUSH1 0xF1 SHL PUSH1 0x60 DUP3 ADD MSTORE PUSH1 0x80 ADD SWAP1 JUMP JUMPDEST PUSH1 0x1 PUSH1 0x1 PUSH1 0xA0 SHL SUB SWAP7 DUP8 AND DUP2 MSTORE PUSH1 0x20 DUP2 ADD SWAP6 SWAP1 SWAP6 MSTORE SWAP3 DUP6 AND PUSH1 0x40 DUP6 ADD MSTORE PUSH1 0x60 DUP5 ADD SWAP2 SWAP1 SWAP2 MSTORE ISZERO ISZERO PUSH1 0x80 DUP4 ADD MSTORE SWAP1 SWAP2 AND PUSH1 0xA0 DUP3 ADD MSTORE PUSH1 0xC0 ADD SWAP1 JUMP JUMPDEST PUSH1 0x20 DUP1 DUP3 MSTORE PUSH1 0x22 SWAP1 DUP3 ADD MSTORE PUSH32 0x536F757263653A2043616C6C6572206973206E6F74206120636F2D666F756E64 PUSH1 0x40 DUP3 ADD MSTORE PUSH2 0x32B9 PUSH1 0xF1 SHL PUSH1 0x60 DUP3 ADD MSTORE PUSH1 0x80 ADD SWAP1 JUMP JUMPDEST PUSH4 0x4E487B71 PUSH1 0xE0 SHL PUSH0 MSTORE PUSH1 0x11 PUSH1 0x4 MSTORE PUSH1 0x24 PUSH0 REVERT JUMPDEST DUP1 DUP3 MUL DUP2 ISZERO DUP3 DUP3 DIV DUP5 EQ OR PUSH3 0x13E9 JUMPI PUSH3 0x13E9 PUSH3 0x13BB JUMP JUMPDEST SWAP3 SWAP2 POP POP JUMP JUMPDEST PUSH0 DUP3 PUSH3 0x140A JUMPI PUSH4 0x4E487B71 PUSH1 0xE0 SHL PUSH0 MSTORE PUSH1 0x12 PUSH1 0x4 MSTORE PUSH1 0x24 PUSH0 REVERT JUMPDEST POP DIV SWAP1 JUMP JUMPDEST DUP2 DUP2 SUB DUP2 DUP2 GT ISZERO PUSH3 0x13E9 JUMPI PUSH3 0x13E9 PUSH3 0x13BB JUMP JUMPDEST PUSH1 0x20 DUP1 DUP3 MSTORE PUSH1 0x24 SWAP1 DUP3 ADD MSTORE PUSH32 0x536F757263653A204E6577206164647265737365732063616E6E6F7420626520 PUSH1 0x40 DUP3 ADD MSTORE PUSH4 0x7A65726F PUSH1 0xE0 SHL PUSH1 0x60 DUP3 ADD MSTORE PUSH1 0x80 ADD SWAP1 JUMP JUMPDEST PUSH4 0x4E487B71 PUSH1 0xE0 SHL PUSH0 MSTORE PUSH1 0x32 PUSH1 0x4 MSTORE PUSH1 0x24 PUSH0 REVERT JUMPDEST PUSH0 PUSH1 0x20 DUP3 DUP5 SUB SLT ISZERO PUSH3 0x148E JUMPI PUSH0 DUP1 REVERT JUMPDEST DUP2 MLOAD DUP1 ISZERO ISZERO DUP2 EQ PUSH3 0x1027 JUMPI PUSH0 DUP1 REVERT JUMPDEST DUP2 DUP4 MSTORE PUSH0 PUSH1 0x20 DUP1 DUP6 ADD SWAP5 POP DUP3 PUSH0 JUMPDEST DUP6 DUP2 LT ISZERO PUSH3 0x14E6 JUMPI PUSH1 0x1 PUSH1 0x1 PUSH1 0xA0 SHL SUB PUSH3 0x14C8 DUP4 PUSH3 0xFEF JUMP JUMPDEST AND DUP8 MSTORE DUP2 DUP4 ADD CALLDATALOAD DUP4 DUP9 ADD MSTORE PUSH1 0x40 SWAP7 DUP8 ADD SWAP7 SWAP1 SWAP2 ADD SWAP1 PUSH1 0x1 ADD PUSH3 0x14AC JUMP JUMPDEST POP SWAP5 SWAP6 SWAP5 POP POP POP POP POP JUMP JUMPDEST DUP2 DUP4 MSTORE PUSH0 PUSH1 0x20 DUP1 DUP6 ADD SWAP5 POP DUP3 PUSH0 JUMPDEST DUP6 DUP2 LT ISZERO PUSH3 0x14E6 JUMPI PUSH1 0x1 PUSH1 0x1 PUSH1 0xA0 SHL SUB DUP1 PUSH3 0x151C DUP5 PUSH3 0xFEF JUMP JUMPDEST AND DUP9 MSTORE DUP4 DUP4 ADD CALLDATALOAD DUP5 DUP10 ADD MSTORE PUSH1 0x40 DUP2 PUSH3 0x1537 DUP3 DUP7 ADD PUSH3 0xFEF JUMP JUMPDEST AND SWAP1 DUP10 ADD MSTORE POP PUSH1 0x60 SWAP7 DUP8 ADD SWAP7 SWAP2 SWAP1 SWAP2 ADD SWAP1 PUSH1 0x1 ADD PUSH3 0x14FF JUMP JUMPDEST PUSH1 0x80 DUP1 DUP3 MSTORE DUP8 MLOAD SWAP1 DUP3 ADD DUP2 SWAP1 MSTORE PUSH0 SWAP1 PUSH1 0x20 SWAP1 PUSH1 0xA0 DUP5 ADD SWAP1 DUP3 DUP12 ADD DUP5 JUMPDEST DUP3 DUP2 LT ISZERO PUSH3 0x1594 JUMPI DUP2 MLOAD PUSH1 0x1 PUSH1 0x1 PUSH1 0xA0 SHL SUB AND DUP5 MSTORE SWAP3 DUP5 ADD SWAP3 SWAP1 DUP5 ADD SWAP1 PUSH1 0x1 ADD PUSH3 0x156D JUMP JUMPDEST POP POP POP DUP4 DUP2 SUB DUP3 DUP6 ADD MSTORE DUP9 MLOAD DUP1 DUP3 MSTORE DUP10 DUP4 ADD SWAP2 DUP4 ADD SWAP1 PUSH0 JUMPDEST DUP2 DUP2 LT ISZERO PUSH3 0x15CA JUMPI DUP4 MLOAD DUP4 MSTORE SWAP3 DUP5 ADD SWAP3 SWAP2 DUP5 ADD SWAP2 PUSH1 0x1 ADD PUSH3 0x15AC JUMP JUMPDEST POP POP DUP5 DUP2 SUB PUSH1 0x40 DUP7 ADD MSTORE PUSH3 0x15E1 DUP2 DUP10 DUP12 PUSH3 0x149E JUMP JUMPDEST SWAP3 POP POP POP DUP3 DUP2 SUB PUSH1 0x60 DUP5 ADD MSTORE PUSH3 0x15FA DUP2 DUP6 DUP8 PUSH3 0x14F1 JUMP JUMPDEST SWAP10 SWAP9 POP POP POP POP POP POP POP POP POP JUMP INVALID PUSH2 0x120 PUSH1 0x40 MSTORE PUSH1 0x40 MLOAD PUSH3 0x268C CODESIZE SUB DUP1 PUSH3 0x268C DUP4 CODECOPY DUP2 ADD PUSH1 0x40 DUP2 SWAP1 MSTORE PUSH3 0x27 SWAP2 PUSH3 0x106 JUMP JUMPDEST DUP6 PUSH1 0x1 PUSH1 0x1 PUSH1 0xA0 SHL SUB DUP2 AND PUSH3 0x56 JUMPI PUSH1 0x40 MLOAD PUSH4 0x1E4FBDF7 PUSH1 0xE0 SHL DUP2 MSTORE PUSH0 PUSH1 0x4 DUP3 ADD MSTORE PUSH1 0x24 ADD PUSH1 0x40 MLOAD DUP1 SWAP2 SUB SWAP1 REVERT JUMPDEST PUSH3 0x61 DUP2 PUSH3 0x9B JUMP JUMPDEST POP PUSH1 0x1 DUP1 SSTORE PUSH1 0x80 SWAP5 SWAP1 SWAP5 MSTORE PUSH1 0x1 PUSH1 0x1 PUSH1 0xA0 SHL SUB SWAP3 DUP4 AND PUSH1 0xA0 MSTORE PUSH1 0xC0 SWAP2 SWAP1 SWAP2 MSTORE ISZERO ISZERO PUSH1 0xE0 MSTORE AND PUSH2 0x100 MSTORE POP PUSH1 0x2 DUP1 SLOAD PUSH1 0xFF NOT AND SWAP1 SSTORE PUSH3 0x176 JUMP JUMPDEST PUSH0 DUP1 SLOAD PUSH1 0x1 PUSH1 0x1 PUSH1 0xA0 SHL SUB DUP4 DUP2 AND PUSH1 0x1 PUSH1 0x1 PUSH1 0xA0 SHL SUB NOT DUP4 AND DUP2 OR DUP5 SSTORE PUSH1 0x40 MLOAD SWAP2 SWAP1 SWAP3 AND SWAP3 DUP4 SWAP2 PUSH32 0x8BE0079C531659141344CD1FD0A4F28419497F9722A3DAAFE3B4186F6B6457E0 SWAP2 SWAP1 LOG3 POP POP JUMP JUMPDEST DUP1 MLOAD PUSH1 0x1 PUSH1 0x1 PUSH1 0xA0 SHL SUB DUP2 AND DUP2 EQ PUSH3 0x101 JUMPI PUSH0 DUP1 REVERT JUMPDEST SWAP2 SWAP1 POP JUMP JUMPDEST PUSH0 DUP1 PUSH0 DUP1 PUSH0 DUP1 PUSH1 0xC0 DUP8 DUP10 SUB SLT ISZERO PUSH3 0x11C JUMPI PUSH0 DUP1 REVERT JUMPDEST PUSH3 0x127 DUP8 PUSH3 0xEA JUMP JUMPDEST SWAP6 POP PUSH1 0x20 DUP8 ADD MLOAD SWAP5 POP PUSH3 0x13E PUSH1 0x40 DUP9 ADD PUSH3 0xEA JUMP JUMPDEST SWAP4 POP PUSH1 0x60 DUP8 ADD MLOAD SWAP3 POP PUSH1 0x80 DUP8 ADD MLOAD DUP1 ISZERO ISZERO DUP2 EQ PUSH3 0x15A JUMPI PUSH0 DUP1 REVERT JUMPDEST SWAP2 POP PUSH3 0x16A PUSH1 0xA0 DUP9 ADD PUSH3 0xEA JUMP JUMPDEST SWAP1 POP SWAP3 SWAP6 POP SWAP3 SWAP6 POP SWAP3 SWAP6 JUMP JUMPDEST PUSH1 0x80 MLOAD PUSH1 0xA0 MLOAD PUSH1 0xC0 MLOAD PUSH1 0xE0 MLOAD PUSH2 0x100 MLOAD PUSH2 0x2484 PUSH3 0x208 PUSH0 CODECOPY PUSH0 DUP2 DUP2 PUSH2 0x307 ADD MSTORE PUSH2 0x6D6 ADD MSTORE PUSH0 DUP2 DUP2 PUSH2 0x40B ADD MSTORE PUSH2 0x15D6 ADD MSTORE PUSH0 DUP2 DUP2 PUSH2 0x36E ADD MSTORE DUP2 DUP2 PUSH2 0xD24 ADD MSTORE DUP2 DUP2 PUSH2 0xD4A ADD MSTORE DUP2 DUP2 PUSH2 0xDE5 ADD MSTORE PUSH2 0xF3E ADD MSTORE PUSH0 DUP2 DUP2 PUSH2 0x2D4 ADD MSTORE DUP2 DUP2 PUSH2 0x76D ADD MSTORE DUP2 DUP2 PUSH2 0xDBB ADD MSTORE DUP2 DUP2 PUSH2 0xE9B ADD MSTORE PUSH2 0x1232 ADD MSTORE PUSH0 DUP2 DUP2 PUSH2 0x2A1 ADD MSTORE DUP2 DUP2 PUSH2 0x63C ADD MSTORE PUSH2 0x1585 ADD MSTORE PUSH2 0x2484 PUSH0 RETURN INVALID PUSH1 0x80 PUSH1 0x40 MSTORE PUSH1 0x4 CALLDATASIZE LT PUSH2 0x131 JUMPI PUSH0 CALLDATALOAD PUSH1 0xE0 SHR DUP1 PUSH4 0x9379F517 GT PUSH2 0xA8 JUMPI DUP1 PUSH4 0xC0463711 GT PUSH2 0x6D JUMPI DUP1 PUSH4 0xC0463711 EQ PUSH2 0x348 JUMPI DUP1 PUSH4 0xC7C85BAA EQ PUSH2 0x35D JUMPI DUP1 PUSH4 0xCC4F9D5B EQ PUSH2 0x390 JUMPI DUP1 PUSH4 0xE15724A5 EQ PUSH2 0x3B1 JUMPI DUP1 PUSH4 0xEED35FEA EQ PUSH2 0x3FA JUMPI DUP1 PUSH4 0xF2FDE38B EQ PUSH2 0x43D JUMPI PUSH0 DUP1 REVERT JUMPDEST DUP1 PUSH4 0x9379F517 EQ PUSH2 0x271 JUMPI DUP1 PUSH4 0x947A36FB EQ PUSH2 0x290 JUMPI DUP1 PUSH4 0xA444AE41 EQ PUSH2 0x2C3 JUMPI DUP1 PUSH4 0xA8E9A539 EQ PUSH2 0x2F6 JUMPI DUP1 PUSH4 0xABE21B59 EQ PUSH2 0x329 JUMPI PUSH0 DUP1 REVERT JUMPDEST DUP1 PUSH4 0x5C36B186 GT PUSH2 0xF9 JUMPI DUP1 PUSH4 0x5C36B186 EQ PUSH2 0x1F2 JUMPI DUP1 PUSH4 0x61461954 EQ PUSH2 0x206 JUMPI DUP1 PUSH4 0x6B892B22 EQ PUSH2 0x21A JUMPI DUP1 PUSH4 0x715018A6 EQ PUSH2 0x22E JUMPI DUP1 PUSH4 0x8BF58F79 EQ PUSH2 0x242 JUMPI DUP1 PUSH4 0x8DA5CB5B EQ PUSH2 0x255 JUMPI PUSH0 DUP1 REVERT JUMPDEST DUP1 PUSH4 0xC3F6ACF EQ PUSH2 0x135 JUMPI DUP1 PUSH4 0x1C0795C3 EQ PUSH2 0x164 JUMPI DUP1 PUSH4 0x1F99966A EQ PUSH2 0x19B JUMPI DUP1 PUSH4 0x2395D975 EQ PUSH2 0x1C8 JUMPI DUP1 PUSH4 0x3027439C EQ PUSH2 0x1DC JUMPI JUMPDEST PUSH0 DUP1 REVERT JUMPDEST CALLVALUE DUP1 ISZERO PUSH2 0x140 JUMPI PUSH0 DUP1 REVERT JUMPDEST POP PUSH1 0x2 SLOAD PUSH2 0x14E SWAP1 PUSH1 0xFF AND DUP2 JUMP JUMPDEST PUSH1 0x40 MLOAD PUSH2 0x15B SWAP2 SWAP1 PUSH2 0x1E65 JUMP JUMPDEST PUSH1 0x40 MLOAD DUP1 SWAP2 SUB SWAP1 RETURN JUMPDEST CALLVALUE DUP1 ISZERO PUSH2 0x16F JUMPI PUSH0 DUP1 REVERT JUMPDEST POP PUSH2 0x183 PUSH2 0x17E CALLDATASIZE PUSH1 0x4 PUSH2 0x1E8B JUMP JUMPDEST PUSH2 0x45C JUMP JUMPDEST PUSH1 0x40 MLOAD PUSH1 0x1 PUSH1 0x1 PUSH1 0xA0 SHL SUB SWAP1 SWAP2 AND DUP2 MSTORE PUSH1 0x20 ADD PUSH2 0x15B JUMP JUMPDEST CALLVALUE DUP1 ISZERO PUSH2 0x1A6 JUMPI PUSH0 DUP1 REVERT JUMPDEST POP PUSH2 0x1BA PUSH2 0x1B5 CALLDATASIZE PUSH1 0x4 PUSH2 0x1E8B JUMP JUMPDEST PUSH2 0x484 JUMP JUMPDEST PUSH1 0x40 MLOAD SWAP1 DUP2 MSTORE PUSH1 0x20 ADD PUSH2 0x15B JUMP JUMPDEST CALLVALUE DUP1 ISZERO PUSH2 0x1D3 JUMPI PUSH0 DUP1 REVERT JUMPDEST POP PUSH2 0x1BA PUSH1 0x32 DUP2 JUMP JUMPDEST CALLVALUE DUP1 ISZERO PUSH2 0x1E7 JUMPI PUSH0 DUP1 REVERT JUMPDEST POP PUSH2 0x1F0 PUSH2 0x4A3 JUMP JUMPDEST STOP JUMPDEST CALLVALUE DUP1 ISZERO PUSH2 0x1FD JUMPI PUSH0 DUP1 REVERT JUMPDEST POP PUSH2 0x1F0 PUSH2 0x572 JUMP JUMPDEST CALLVALUE DUP1 ISZERO PUSH2 0x211 JUMPI PUSH0 DUP1 REVERT JUMPDEST POP PUSH2 0x1F0 PUSH2 0x5ED JUMP JUMPDEST CALLVALUE DUP1 ISZERO PUSH2 0x225 JUMPI PUSH0 DUP1 REVERT JUMPDEST POP PUSH2 0x1F0 PUSH2 0xCCD JUMP JUMPDEST CALLVALUE DUP1 ISZERO PUSH2 0x239 JUMPI PUSH0 DUP1 REVERT JUMPDEST POP PUSH2 0x1F0 PUSH2 0xF94 JUMP JUMPDEST PUSH2 0x1F0 PUSH2 0x250 CALLDATASIZE PUSH1 0x4 PUSH2 0x201A JUMP JUMPDEST PUSH2 0xFA7 JUMP JUMPDEST CALLVALUE DUP1 ISZERO PUSH2 0x260 JUMPI PUSH0 DUP1 REVERT JUMPDEST POP PUSH0 SLOAD PUSH1 0x1 PUSH1 0x1 PUSH1 0xA0 SHL SUB AND PUSH2 0x183 JUMP JUMPDEST CALLVALUE DUP1 ISZERO PUSH2 0x27C JUMPI PUSH0 DUP1 REVERT JUMPDEST POP PUSH2 0x183 PUSH2 0x28B CALLDATASIZE PUSH1 0x4 PUSH2 0x1E8B JUMP JUMPDEST PUSH2 0x11E2 JUMP JUMPDEST CALLVALUE DUP1 ISZERO PUSH2 0x29B JUMPI PUSH0 DUP1 REVERT JUMPDEST POP PUSH2 0x1BA PUSH32 0x0 DUP2 JUMP JUMPDEST CALLVALUE DUP1 ISZERO PUSH2 0x2CE JUMPI PUSH0 DUP1 REVERT JUMPDEST POP PUSH2 0x183 PUSH32 0x0 DUP2 JUMP JUMPDEST CALLVALUE DUP1 ISZERO PUSH2 0x301 JUMPI PUSH0 DUP1 REVERT JUMPDEST POP PUSH2 0x183 PUSH32 0x0 DUP2 JUMP JUMPDEST CALLVALUE DUP1 ISZERO PUSH2 0x334 JUMPI PUSH0 DUP1 REVERT JUMPDEST POP PUSH2 0x1F0 PUSH2 0x343 CALLDATASIZE PUSH1 0x4 PUSH2 0x201A JUMP JUMPDEST PUSH2 0x11F1 JUMP JUMPDEST CALLVALUE DUP1 ISZERO PUSH2 0x353 JUMPI PUSH0 DUP1 REVERT JUMPDEST POP PUSH2 0x1BA PUSH1 0x3 SLOAD DUP2 JUMP JUMPDEST CALLVALUE DUP1 ISZERO PUSH2 0x368 JUMPI PUSH0 DUP1 REVERT JUMPDEST POP PUSH2 0x1BA PUSH32 0x0 DUP2 JUMP JUMPDEST CALLVALUE DUP1 ISZERO PUSH2 0x39B JUMPI PUSH0 DUP1 REVERT JUMPDEST POP PUSH2 0x3A4 PUSH2 0x12AD JUMP JUMPDEST PUSH1 0x40 MLOAD PUSH2 0x15B SWAP2 SWAP1 PUSH2 0x222B JUMP JUMPDEST CALLVALUE DUP1 ISZERO PUSH2 0x3BC JUMPI PUSH0 DUP1 REVERT JUMPDEST POP PUSH2 0x3D0 PUSH2 0x3CB CALLDATASIZE PUSH1 0x4 PUSH2 0x1E8B JUMP JUMPDEST PUSH2 0x16C5 JUMP JUMPDEST PUSH1 0x40 DUP1 MLOAD PUSH1 0x1 PUSH1 0x1 PUSH1 0xA0 SHL SUB SWAP5 DUP6 AND DUP2 MSTORE PUSH1 0x20 DUP2 ADD SWAP4 SWAP1 SWAP4 MSTORE SWAP3 AND SWAP2 DUP2 ADD SWAP2 SWAP1 SWAP2 MSTORE PUSH1 0x60 ADD PUSH2 0x15B JUMP JUMPDEST CALLVALUE DUP1 ISZERO PUSH2 0x405 JUMPI PUSH0 DUP1 REVERT JUMPDEST POP PUSH2 0x42D PUSH32 0x0 DUP2 JUMP JUMPDEST PUSH1 0x40 MLOAD SWAP1 ISZERO ISZERO DUP2 MSTORE PUSH1 0x20 ADD PUSH2 0x15B JUMP JUMPDEST CALLVALUE DUP1 ISZERO PUSH2 0x448 JUMPI PUSH0 DUP1 REVERT JUMPDEST POP PUSH2 0x1F0 PUSH2 0x457 CALLDATASIZE PUSH1 0x4 PUSH2 0x2307 JUMP JUMPDEST PUSH2 0x1701 JUMP JUMPDEST PUSH1 0x4 DUP2 DUP2 SLOAD DUP2 LT PUSH2 0x46B JUMPI PUSH0 DUP1 REVERT JUMPDEST PUSH0 SWAP2 DUP3 MSTORE PUSH1 0x20 SWAP1 SWAP2 KECCAK256 ADD SLOAD PUSH1 0x1 PUSH1 0x1 PUSH1 0xA0 SHL SUB AND SWAP1 POP DUP2 JUMP JUMPDEST PUSH1 0x5 DUP2 DUP2 SLOAD DUP2 LT PUSH2 0x493 JUMPI PUSH0 DUP1 REVERT JUMPDEST PUSH0 SWAP2 DUP3 MSTORE PUSH1 0x20 SWAP1 SWAP2 KECCAK256 ADD SLOAD SWAP1 POP DUP2 JUMP JUMPDEST PUSH2 0x4AB PUSH2 0x173E JUMP JUMPDEST PUSH1 0x1 DUP1 PUSH1 0x2 DUP1 SLOAD PUSH1 0xFF AND SWAP1 DUP2 GT ISZERO PUSH2 0x4C5 JUMPI PUSH2 0x4C5 PUSH2 0x1E51 JUMP JUMPDEST EQ PUSH2 0x4EB JUMPI PUSH1 0x40 MLOAD PUSH3 0x461BCD PUSH1 0xE5 SHL DUP2 MSTORE PUSH1 0x4 ADD PUSH2 0x4E2 SWAP1 PUSH2 0x2327 JUMP JUMPDEST PUSH1 0x40 MLOAD DUP1 SWAP2 SUB SWAP1 REVERT JUMPDEST PUSH2 0x4F3 PUSH2 0x176A JUMP JUMPDEST PUSH1 0x2 PUSH1 0x1 SSTORE PUSH2 0x500 PUSH2 0x178D JUMP JUMPDEST PUSH2 0x50B PUSH1 0x4 PUSH0 PUSH2 0x1CFC JUMP JUMPDEST PUSH2 0x516 PUSH1 0x5 PUSH0 PUSH2 0x1CFC JUMP JUMPDEST PUSH2 0x521 PUSH1 0x6 PUSH0 PUSH2 0x1D17 JUMP JUMPDEST PUSH2 0x52C PUSH1 0x7 PUSH0 PUSH2 0x1D32 JUMP JUMPDEST PUSH1 0x2 DUP1 SLOAD PUSH1 0xFF NOT AND SWAP1 SSTORE PUSH0 DUP1 SLOAD PUSH1 0x40 MLOAD PUSH1 0x1 PUSH1 0x1 PUSH1 0xA0 SHL SUB SWAP1 SWAP2 AND SWAP2 PUSH32 0x5AF2B6DCDCCC1DD52EE38632AFEE0BC3AC6DEF619ED4132F2F9A40FF48EC74F2 SWAP2 LOG2 POP PUSH1 0x1 DUP1 SSTORE JUMP JUMPDEST PUSH2 0x57A PUSH2 0x173E JUMP JUMPDEST PUSH1 0x1 DUP1 PUSH1 0x2 DUP1 SLOAD PUSH1 0xFF AND SWAP1 DUP2 GT ISZERO PUSH2 0x594 JUMPI PUSH2 0x594 PUSH2 0x1E51 JUMP JUMPDEST EQ PUSH2 0x5B1 JUMPI PUSH1 0x40 MLOAD PUSH3 0x461BCD PUSH1 0xE5 SHL DUP2 MSTORE PUSH1 0x4 ADD PUSH2 0x4E2 SWAP1 PUSH2 0x2327 JUMP JUMPDEST TIMESTAMP PUSH1 0x3 DUP2 SWAP1 SSTORE PUSH1 0x40 MLOAD SWAP1 DUP2 MSTORE PUSH32 0x48257DC961B6F792C2B78A080DACFED693B660960A702DE21CEE364E20270E2F SWAP1 PUSH1 0x20 ADD PUSH1 0x40 MLOAD DUP1 SWAP2 SUB SWAP1 LOG1 POP JUMP JUMPDEST PUSH1 0x1 DUP1 PUSH1 0x2 DUP1 SLOAD PUSH1 0xFF AND SWAP1 DUP2 GT ISZERO PUSH2 0x607 JUMPI PUSH2 0x607 PUSH2 0x1E51 JUMP JUMPDEST EQ PUSH2 0x624 JUMPI PUSH1 0x40 MLOAD PUSH3 0x461BCD PUSH1 0xE5 SHL DUP2 MSTORE PUSH1 0x4 ADD PUSH2 0x4E2 SWAP1 PUSH2 0x2327 JUMP JUMPDEST PUSH2 0x62C PUSH2 0x176A JUMP JUMPDEST PUSH1 0x2 PUSH1 0x1 SSTORE PUSH1 0x3 SLOAD PUSH0 SWAP1 PUSH2 0x661 SWAP1 PUSH32 0x0 SWAP1 PUSH2 0x237E JUMP JUMPDEST SWAP1 POP DUP1 TIMESTAMP LT ISZERO PUSH2 0x6B3 JUMPI PUSH1 0x40 MLOAD PUSH3 0x461BCD PUSH1 0xE5 SHL DUP2 MSTORE PUSH1 0x20 PUSH1 0x4 DUP3 ADD MSTORE PUSH1 0x1B PUSH1 0x24 DUP3 ADD MSTORE PUSH32 0x477261636520706572696F6420686173206E6F7420656E6465642E0000000000 PUSH1 0x44 DUP3 ADD MSTORE PUSH1 0x64 ADD PUSH2 0x4E2 JUMP JUMPDEST PUSH0 PUSH2 0x6C1 PUSH3 0x15180 DUP4 PUSH2 0x237E JUMP JUMPDEST SWAP1 POP DUP1 TIMESTAMP LT ISZERO PUSH2 0x751 JUMPI CALLER PUSH1 0x1 PUSH1 0x1 PUSH1 0xA0 SHL SUB PUSH32 0x0 AND EQ PUSH2 0x751 JUMPI PUSH1 0x40 MLOAD PUSH3 0x461BCD PUSH1 0xE5 SHL DUP2 MSTORE PUSH1 0x20 PUSH1 0x4 DUP3 ADD MSTORE PUSH1 0x25 PUSH1 0x24 DUP3 ADD MSTORE PUSH32 0x4F6E6C792064657369676E61746564206578656375746F722063616E2063616C PUSH1 0x44 DUP3 ADD MSTORE PUSH5 0x6C206E6F77 PUSH1 0xD8 SHL PUSH1 0x64 DUP3 ADD MSTORE PUSH1 0x84 ADD PUSH2 0x4E2 JUMP JUMPDEST PUSH1 0x2 DUP1 SLOAD PUSH1 0xFF NOT AND DUP2 OR SWAP1 SSTORE PUSH0 TIMESTAMP DUP3 GT PUSH2 0x76B JUMPI CALLER PUSH2 0x78D JUMP JUMPDEST PUSH32 0x0 JUMPDEST SWAP1 POP PUSH0 SELFBALANCE DUP1 ISZERO PUSH2 0x97B JUMPI PUSH0 PUSH2 0x2710 PUSH2 0x7A6 PUSH1 0x32 DUP5 PUSH2 0x2397 JUMP JUMPDEST PUSH2 0x7B0 SWAP2 SWAP1 PUSH2 0x23AE JUMP JUMPDEST SWAP3 POP DUP3 SWAP1 POP PUSH0 PUSH2 0x7C0 DUP3 DUP5 PUSH2 0x23CD JUMP JUMPDEST SWAP1 POP DUP2 ISZERO PUSH2 0x869 JUMPI PUSH0 DUP6 PUSH1 0x1 PUSH1 0x1 PUSH1 0xA0 SHL SUB AND DUP4 PUSH1 0x40 MLOAD PUSH0 PUSH1 0x40 MLOAD DUP1 DUP4 SUB DUP2 DUP6 DUP8 GAS CALL SWAP3 POP POP POP RETURNDATASIZE DUP1 PUSH0 DUP2 EQ PUSH2 0x811 JUMPI PUSH1 0x40 MLOAD SWAP2 POP PUSH1 0x1F NOT PUSH1 0x3F RETURNDATASIZE ADD AND DUP3 ADD PUSH1 0x40 MSTORE RETURNDATASIZE DUP3 MSTORE RETURNDATASIZE PUSH0 PUSH1 0x20 DUP5 ADD RETURNDATACOPY PUSH2 0x816 JUMP JUMPDEST PUSH1 0x60 SWAP2 POP JUMPDEST POP POP SWAP1 POP DUP1 PUSH2 0x867 JUMPI PUSH1 0x40 MLOAD PUSH3 0x461BCD PUSH1 0xE5 SHL DUP2 MSTORE PUSH1 0x20 PUSH1 0x4 DUP3 ADD MSTORE PUSH1 0x17 PUSH1 0x24 DUP3 ADD MSTORE PUSH32 0x45544820666565207472616E73666572206661696C6564000000000000000000 PUSH1 0x44 DUP3 ADD MSTORE PUSH1 0x64 ADD PUSH2 0x4E2 JUMP JUMPDEST POP JUMPDEST PUSH0 JUMPDEST PUSH1 0x4 SLOAD DUP2 LT ISZERO PUSH2 0x977 JUMPI PUSH0 PUSH1 0x64 PUSH1 0x5 DUP4 DUP2 SLOAD DUP2 LT PUSH2 0x88B JUMPI PUSH2 0x88B PUSH2 0x23E0 JUMP JUMPDEST SWAP1 PUSH0 MSTORE PUSH1 0x20 PUSH0 KECCAK256 ADD SLOAD DUP5 PUSH2 0x89F SWAP2 SWAP1 PUSH2 0x2397 JUMP JUMPDEST PUSH2 0x8A9 SWAP2 SWAP1 PUSH2 0x23AE JUMP JUMPDEST SWAP1 POP DUP1 ISZERO PUSH2 0x96E JUMPI PUSH0 PUSH1 0x4 DUP4 DUP2 SLOAD DUP2 LT PUSH2 0x8C5 JUMPI PUSH2 0x8C5 PUSH2 0x23E0 JUMP JUMPDEST PUSH0 SWAP2 DUP3 MSTORE PUSH1 0x20 DUP3 KECCAK256 ADD SLOAD PUSH1 0x40 MLOAD PUSH1 0x1 PUSH1 0x1 PUSH1 0xA0 SHL SUB SWAP1 SWAP2 AND SWAP2 DUP5 SWAP2 SWAP1 DUP2 DUP2 DUP2 DUP6 DUP8 GAS CALL SWAP3 POP POP POP RETURNDATASIZE DUP1 PUSH0 DUP2 EQ PUSH2 0x916 JUMPI PUSH1 0x40 MLOAD SWAP2 POP PUSH1 0x1F NOT PUSH1 0x3F RETURNDATASIZE ADD AND DUP3 ADD PUSH1 0x40 MSTORE RETURNDATASIZE DUP3 MSTORE RETURNDATASIZE PUSH0 PUSH1 0x20 DUP5 ADD RETURNDATACOPY PUSH2 0x91B JUMP JUMPDEST PUSH1 0x60 SWAP2 POP JUMPDEST POP POP SWAP1 POP DUP1 PUSH2 0x96C JUMPI PUSH1 0x40 MLOAD PUSH3 0x461BCD PUSH1 0xE5 SHL DUP2 MSTORE PUSH1 0x20 PUSH1 0x4 DUP3 ADD MSTORE PUSH1 0x1B PUSH1 0x24 DUP3 ADD MSTORE PUSH32 0x455448207472616E7366657220746F2068656972206661696C65640000000000 PUSH1 0x44 DUP3 ADD MSTORE PUSH1 0x64 ADD PUSH2 0x4E2 JUMP JUMPDEST POP JUMPDEST POP PUSH1 0x1 ADD PUSH2 0x86B JUMP JUMPDEST POP POP POP JUMPDEST PUSH0 JUMPDEST PUSH1 0x6 SLOAD DUP2 LT ISZERO PUSH2 0xBB3 JUMPI PUSH0 PUSH1 0x6 DUP3 DUP2 SLOAD DUP2 LT PUSH2 0x99B JUMPI PUSH2 0x99B PUSH2 0x23E0 JUMP JUMPDEST PUSH0 SWAP2 DUP3 MSTORE PUSH1 0x20 DUP3 KECCAK256 ADD SLOAD PUSH1 0x40 MLOAD PUSH4 0x70A08231 PUSH1 0xE0 SHL DUP2 MSTORE ADDRESS PUSH1 0x4 DUP3 ADD MSTORE PUSH1 0x1 PUSH1 0x1 PUSH1 0xA0 SHL SUB SWAP1 SWAP2 AND SWAP3 POP DUP3 SWAP1 PUSH4 0x70A08231 SWAP1 PUSH1 0x24 ADD PUSH1 0x20 PUSH1 0x40 MLOAD DUP1 DUP4 SUB DUP2 DUP7 GAS STATICCALL ISZERO DUP1 ISZERO PUSH2 0x9EB JUMPI RETURNDATASIZE PUSH0 DUP1 RETURNDATACOPY RETURNDATASIZE PUSH0 REVERT JUMPDEST POP POP POP POP PUSH1 0x40 MLOAD RETURNDATASIZE PUSH1 0x1F NOT PUSH1 0x1F DUP3 ADD AND DUP3 ADD DUP1 PUSH1 0x40 MSTORE POP DUP2 ADD SWAP1 PUSH2 0xA0F SWAP2 SWAP1 PUSH2 0x23F4 JUMP JUMPDEST SWAP1 POP DUP1 ISZERO PUSH2 0xBA9 JUMPI PUSH0 PUSH2 0x2710 PUSH2 0xA26 PUSH1 0x32 DUP5 PUSH2 0x2397 JUMP JUMPDEST PUSH2 0xA30 SWAP2 SWAP1 PUSH2 0x23AE JUMP JUMPDEST SWAP1 POP PUSH0 PUSH2 0xA3D DUP3 DUP5 PUSH2 0x23CD JUMP JUMPDEST SWAP1 POP DUP2 ISZERO PUSH2 0xAB7 JUMPI PUSH1 0x40 MLOAD PUSH4 0xA9059CBB PUSH1 0xE0 SHL DUP2 MSTORE PUSH1 0x1 PUSH1 0x1 PUSH1 0xA0 SHL SUB DUP10 DUP2 AND PUSH1 0x4 DUP4 ADD MSTORE PUSH1 0x24 DUP3 ADD DUP5 SWAP1 MSTORE DUP6 AND SWAP1 PUSH4 0xA9059CBB SWAP1 PUSH1 0x44 ADD PUSH1 0x20 PUSH1 0x40 MLOAD DUP1 DUP4 SUB DUP2 PUSH0 DUP8 GAS CALL ISZERO DUP1 ISZERO PUSH2 0xA91 JUMPI RETURNDATASIZE PUSH0 DUP1 RETURNDATACOPY RETURNDATASIZE PUSH0 REVERT JUMPDEST POP POP POP POP PUSH1 0x40 MLOAD RETURNDATASIZE PUSH1 0x1F NOT PUSH1 0x1F DUP3 ADD AND DUP3 ADD DUP1 PUSH1 0x40 MSTORE POP DUP2 ADD SWAP1 PUSH2 0xAB5 SWAP2 SWAP1 PUSH2 0x240B JUMP JUMPDEST POP JUMPDEST PUSH0 JUMPDEST PUSH1 0x4 SLOAD DUP2 LT ISZERO PUSH2 0xBA5 JUMPI PUSH0 PUSH1 0x64 PUSH1 0x5 DUP4 DUP2 SLOAD DUP2 LT PUSH2 0xAD9 JUMPI PUSH2 0xAD9 PUSH2 0x23E0 JUMP JUMPDEST SWAP1 PUSH0 MSTORE PUSH1 0x20 PUSH0 KECCAK256 ADD SLOAD DUP5 PUSH2 0xAED SWAP2 SWAP1 PUSH2 0x2397 JUMP JUMPDEST PUSH2 0xAF7 SWAP2 SWAP1 PUSH2 0x23AE JUMP JUMPDEST SWAP1 POP DUP1 ISZERO PUSH2 0xB9C JUMPI DUP6 PUSH1 0x1 PUSH1 0x1 PUSH1 0xA0 SHL SUB AND PUSH4 0xA9059CBB PUSH1 0x4 DUP5 DUP2 SLOAD DUP2 LT PUSH2 0xB21 JUMPI PUSH2 0xB21 PUSH2 0x23E0 JUMP JUMPDEST PUSH0 SWAP2 DUP3 MSTORE PUSH1 0x20 SWAP1 SWAP2 KECCAK256 ADD SLOAD PUSH1 0x40 MLOAD PUSH1 0xE0 DUP4 SWAP1 SHL PUSH1 0x1 PUSH1 0x1 PUSH1 0xE0 SHL SUB NOT AND DUP2 MSTORE PUSH1 0x1 PUSH1 0x1 PUSH1 0xA0 SHL SUB SWAP1 SWAP2 AND PUSH1 0x4 DUP3 ADD MSTORE PUSH1 0x24 DUP2 ADD DUP5 SWAP1 MSTORE PUSH1 0x44 ADD PUSH1 0x20 PUSH1 0x40 MLOAD DUP1 DUP4 SUB DUP2 PUSH0 DUP8 GAS CALL ISZERO DUP1 ISZERO PUSH2 0xB76 JUMPI RETURNDATASIZE PUSH0 DUP1 RETURNDATACOPY RETURNDATASIZE PUSH0 REVERT JUMPDEST POP POP POP POP PUSH1 0x40 MLOAD RETURNDATASIZE PUSH1 0x1F NOT PUSH1 0x1F DUP3 ADD AND DUP3 ADD DUP1 PUSH1 0x40 MSTORE POP DUP2 ADD SWAP1 PUSH2 0xB9A SWAP2 SWAP1 PUSH2 0x240B JUMP JUMPDEST POP JUMPDEST POP PUSH1 0x1 ADD PUSH2 0xAB9 JUMP JUMPDEST POP POP POP JUMPDEST POP POP PUSH1 0x1 ADD PUSH2 0x97D JUMP JUMPDEST POP PUSH0 JUMPDEST PUSH1 0x7 SLOAD DUP2 LT ISZERO PUSH2 0xC78 JUMPI PUSH0 PUSH1 0x7 DUP3 DUP2 SLOAD DUP2 LT PUSH2 0xBD4 JUMPI PUSH2 0xBD4 PUSH2 0x23E0 JUMP JUMPDEST PUSH0 SWAP2 DUP3 MSTORE PUSH1 0x20 SWAP2 DUP3 SWAP1 KECCAK256 PUSH1 0x40 DUP1 MLOAD PUSH1 0x60 DUP2 ADD DUP3 MSTORE PUSH1 0x3 SWAP1 SWAP4 MUL SWAP1 SWAP2 ADD DUP1 SLOAD PUSH1 0x1 PUSH1 0x1 PUSH1 0xA0 SHL SUB SWAP1 DUP2 AND DUP1 DUP6 MSTORE PUSH1 0x1 DUP4 ADD SLOAD SWAP6 DUP6 ADD DUP7 SWAP1 MSTORE PUSH1 0x2 SWAP1 SWAP3 ADD SLOAD AND DUP4 DUP4 ADD DUP2 SWAP1 MSTORE SWAP2 MLOAD PUSH4 0x21421707 PUSH1 0xE1 SHL DUP2 MSTORE SWAP3 SWAP5 POP SWAP3 PUSH4 0x42842E0E SWAP3 PUSH2 0xC3E SWAP3 ADDRESS SWAP3 SWAP1 SWAP2 PUSH1 0x4 ADD PUSH2 0x242A JUMP JUMPDEST PUSH0 PUSH1 0x40 MLOAD DUP1 DUP4 SUB DUP2 PUSH0 DUP8 DUP1 EXTCODESIZE ISZERO DUP1 ISZERO PUSH2 0xC55 JUMPI PUSH0 DUP1 REVERT JUMPDEST POP GAS CALL ISZERO DUP1 ISZERO PUSH2 0xC67 JUMPI RETURNDATASIZE PUSH0 DUP1 RETURNDATACOPY RETURNDATASIZE PUSH0 REVERT JUMPDEST POP POP PUSH1 0x1 SWAP1 SWAP4 ADD SWAP3 POP PUSH2 0xBB6 SWAP2 POP POP JUMP JUMPDEST POP PUSH1 0x40 DUP1 MLOAD CALLER DUP2 MSTORE PUSH1 0x20 DUP2 ADD DUP5 SWAP1 MSTORE PUSH1 0x1 PUSH1 0x1 PUSH1 0xA0 SHL SUB DUP6 AND DUP2 DUP4 ADD MSTORE SWAP1 MLOAD PUSH32 0x52BA16C8B985EFF690A9DE92094BD7486F89340E06E385FFB26DE9C6EEA384DC SWAP2 DUP2 SWAP1 SUB PUSH1 0x60 ADD SWAP1 LOG1 POP POP PUSH1 0x1 DUP1 SSTORE POP POP POP POP JUMP JUMPDEST PUSH2 0xCD5 PUSH2 0x173E JUMP JUMPDEST PUSH1 0x1 DUP1 PUSH1 0x2 DUP1 SLOAD PUSH1 0xFF AND SWAP1 DUP2 GT ISZERO PUSH2 0xCEF JUMPI PUSH2 0xCEF PUSH2 0x1E51 JUMP JUMPDEST EQ PUSH2 0xD0C JUMPI PUSH1 0x40 MLOAD PUSH3 0x461BCD PUSH1 0xE5 SHL DUP2 MSTORE PUSH1 0x4 ADD PUSH2 0x4E2 SWAP1 PUSH2 0x2327 JUMP JUMPDEST PUSH2 0xD14 PUSH2 0x176A JUMP JUMPDEST PUSH1 0x2 PUSH1 0x1 SSTORE SELFBALANCE PUSH2 0xD22 PUSH2 0x178D JUMP JUMPDEST PUSH32 0x0 ISZERO PUSH2 0xE99 JUMPI PUSH32 0x0 DUP2 LT ISZERO PUSH2 0xDB8 JUMPI PUSH1 0x40 MLOAD PUSH3 0x461BCD PUSH1 0xE5 SHL DUP2 MSTORE PUSH1 0x20 PUSH1 0x4 DUP3 ADD MSTORE PUSH1 0x18 PUSH1 0x24 DUP3 ADD MSTORE PUSH32 0x496E73756666696369656E742045544820666F72206665650000000000000000 PUSH1 0x44 DUP3 ADD MSTORE PUSH1 0x64 ADD PUSH2 0x4E2 JUMP JUMPDEST PUSH0 PUSH32 0x0 PUSH1 0x1 PUSH1 0x1 PUSH1 0xA0 SHL SUB AND PUSH32 0x0 PUSH1 0x40 MLOAD PUSH0 PUSH1 0x40 MLOAD DUP1 DUP4 SUB DUP2 DUP6 DUP8 GAS CALL SWAP3 POP POP POP RETURNDATASIZE DUP1 PUSH0 DUP2 EQ PUSH2 0xE41 JUMPI PUSH1 0x40 MLOAD SWAP2 POP PUSH1 0x1F NOT PUSH1 0x3F RETURNDATASIZE ADD AND DUP3 ADD PUSH1 0x40 MSTORE RETURNDATASIZE DUP3 MSTORE RETURNDATASIZE PUSH0 PUSH1 0x20 DUP5 ADD RETURNDATACOPY PUSH2 0xE46 JUMP JUMPDEST PUSH1 0x60 SWAP2 POP JUMPDEST POP POP SWAP1 POP DUP1 PUSH2 0xE97 JUMPI PUSH1 0x40 MLOAD PUSH3 0x461BCD PUSH1 0xE5 SHL DUP2 MSTORE PUSH1 0x20 PUSH1 0x4 DUP3 ADD DUP2 SWAP1 MSTORE PUSH1 0x24 DUP3 ADD MSTORE PUSH32 0x5465726D696E6174696F6E20666565207472616E73666572206661696C65642E PUSH1 0x44 DUP3 ADD MSTORE PUSH1 0x64 ADD PUSH2 0x4E2 JUMP JUMPDEST POP JUMPDEST PUSH32 0x0 PUSH1 0x1 PUSH1 0x1 PUSH1 0xA0 SHL SUB AND PUSH4 0xA658DD6B PUSH2 0xED9 PUSH0 SLOAD PUSH1 0x1 PUSH1 0x1 PUSH1 0xA0 SHL SUB AND SWAP1 JUMP JUMPDEST PUSH1 0x40 MLOAD PUSH1 0x1 PUSH1 0x1 PUSH1 0xE0 SHL SUB NOT PUSH1 0xE0 DUP5 SWAP1 SHL AND DUP2 MSTORE PUSH1 0x1 PUSH1 0x1 PUSH1 0xA0 SHL SUB SWAP1 SWAP2 AND PUSH1 0x4 DUP3 ADD MSTORE PUSH1 0x24 ADD PUSH0 PUSH1 0x40 MLOAD DUP1 DUP4 SUB DUP2 PUSH0 DUP8 DUP1 EXTCODESIZE ISZERO DUP1 ISZERO PUSH2 0xF17 JUMPI PUSH0 DUP1 REVERT JUMPDEST POP GAS CALL ISZERO DUP1 ISZERO PUSH2 0xF29 JUMPI RETURNDATASIZE PUSH0 DUP1 RETURNDATACOPY RETURNDATASIZE PUSH0 REVERT JUMPDEST POP POP PUSH1 0x2 DUP1 SLOAD PUSH1 0xFF NOT AND DUP2 OR SWAP1 SSTORE POP POP PUSH1 0x40 MLOAD PUSH32 0x0 DUP2 MSTORE PUSH32 0xC41D93B8BFBF9FD7CF5BFE271FD649AB6A6FEC0EA101C23B82A2A28ECA2533A9 SWAP1 PUSH1 0x20 ADD PUSH1 0x40 MLOAD DUP1 SWAP2 SUB SWAP1 LOG1 POP POP PUSH1 0x1 DUP1 SSTORE JUMP JUMPDEST PUSH2 0xF9C PUSH2 0x173E JUMP JUMPDEST PUSH2 0xFA5 PUSH0 PUSH2 0x1A19 JUMP JUMPDEST JUMP JUMPDEST PUSH2 0xFAF PUSH2 0x173E JUMP JUMPDEST PUSH0 DUP1 PUSH1 0x2 DUP1 SLOAD PUSH1 0xFF AND SWAP1 DUP2 GT ISZERO PUSH2 0xFC8 JUMPI PUSH2 0xFC8 PUSH2 0x1E51 JUMP JUMPDEST EQ PUSH2 0xFE5 JUMPI PUSH1 0x40 MLOAD PUSH3 0x461BCD PUSH1 0xE5 SHL DUP2 MSTORE PUSH1 0x4 ADD PUSH2 0x4E2 SWAP1 PUSH2 0x2327 JUMP JUMPDEST PUSH0 JUMPDEST DUP5 DUP2 LT ISZERO PUSH2 0x10CE JUMPI PUSH0 DUP7 DUP7 DUP4 DUP2 DUP2 LT PUSH2 0x1002 JUMPI PUSH2 0x1002 PUSH2 0x23E0 JUMP JUMPDEST SWAP1 POP PUSH1 0x40 MUL ADD PUSH1 0x20 ADD CALLDATALOAD GT ISZERO PUSH2 0x10C6 JUMPI DUP6 DUP6 DUP3 DUP2 DUP2 LT PUSH2 0x1024 JUMPI PUSH2 0x1024 PUSH2 0x23E0 JUMP JUMPDEST PUSH2 0x103A SWAP3 PUSH1 0x20 PUSH1 0x40 SWAP1 SWAP3 MUL ADD SWAP1 DUP2 ADD SWAP2 POP PUSH2 0x2307 JUMP JUMPDEST PUSH1 0x1 PUSH1 0x1 PUSH1 0xA0 SHL SUB AND PUSH4 0x23B872DD CALLER ADDRESS DUP10 DUP10 DUP7 DUP2 DUP2 LT PUSH2 0x105C JUMPI PUSH2 0x105C PUSH2 0x23E0 JUMP JUMPDEST SWAP1 POP PUSH1 0x40 MUL ADD PUSH1 0x20 ADD CALLDATALOAD PUSH1 0x40 MLOAD DUP5 PUSH4 0xFFFFFFFF AND PUSH1 0xE0 SHL DUP2 MSTORE PUSH1 0x4 ADD PUSH2 0x1084 SWAP4 SWAP3 SWAP2 SWAP1 PUSH2 0x242A JUMP JUMPDEST PUSH1 0x20 PUSH1 0x40 MLOAD DUP1 DUP4 SUB DUP2 PUSH0 DUP8 GAS CALL ISZERO DUP1 ISZERO PUSH2 0x10A0 JUMPI RETURNDATASIZE PUSH0 DUP1 RETURNDATACOPY RETURNDATASIZE PUSH0 REVERT JUMPDEST POP POP POP POP PUSH1 0x40 MLOAD RETURNDATASIZE PUSH1 0x1F NOT PUSH1 0x1F DUP3 ADD AND DUP3 ADD DUP1 PUSH1 0x40 MSTORE POP DUP2 ADD SWAP1 PUSH2 0x10C4 SWAP2 SWAP1 PUSH2 0x240B JUMP JUMPDEST POP JUMPDEST PUSH1 0x1 ADD PUSH2 0xFE7 JUMP JUMPDEST POP PUSH0 JUMPDEST DUP3 DUP2 LT ISZERO PUSH2 0x1184 JUMPI DUP4 DUP4 DUP3 DUP2 DUP2 LT PUSH2 0x10EB JUMPI PUSH2 0x10EB PUSH2 0x23E0 JUMP JUMPDEST PUSH2 0x1101 SWAP3 PUSH1 0x20 PUSH1 0x60 SWAP1 SWAP3 MUL ADD SWAP1 DUP2 ADD SWAP2 POP PUSH2 0x2307 JUMP JUMPDEST PUSH1 0x1 PUSH1 0x1 PUSH1 0xA0 SHL SUB AND PUSH4 0x23B872DD CALLER ADDRESS DUP8 DUP8 DUP7 DUP2 DUP2 LT PUSH2 0x1123 JUMPI PUSH2 0x1123 PUSH2 0x23E0 JUMP JUMPDEST SWAP1 POP PUSH1 0x60 MUL ADD PUSH1 0x20 ADD CALLDATALOAD PUSH1 0x40 MLOAD DUP5 PUSH4 0xFFFFFFFF AND PUSH1 0xE0 SHL DUP2 MSTORE PUSH1 0x4 ADD PUSH2 0x114B SWAP4 SWAP3 SWAP2 SWAP1 PUSH2 0x242A JUMP JUMPDEST PUSH0 PUSH1 0x40 MLOAD DUP1 DUP4 SUB DUP2 PUSH0 DUP8 DUP1 EXTCODESIZE ISZERO DUP1 ISZERO PUSH2 0x1162 JUMPI PUSH0 DUP1 REVERT JUMPDEST POP GAS CALL ISZERO DUP1 ISZERO PUSH2 0x1174 JUMPI RETURNDATASIZE PUSH0 DUP1 RETURNDATACOPY RETURNDATASIZE PUSH0 REVERT JUMPDEST POP POP PUSH1 0x1 SWAP1 SWAP3 ADD SWAP2 POP PUSH2 0x10D1 SWAP1 POP JUMP JUMPDEST POP PUSH2 0x1193 DUP8 DUP8 DUP8 DUP8 DUP8 DUP8 PUSH2 0x1A68 JUMP JUMPDEST PUSH1 0x2 DUP1 SLOAD PUSH1 0xFF NOT AND PUSH1 0x1 OR SWAP1 SSTORE TIMESTAMP PUSH1 0x3 SSTORE PUSH0 DUP1 SLOAD PUSH1 0x40 MLOAD PUSH1 0x1 PUSH1 0x1 PUSH1 0xA0 SHL SUB SWAP1 SWAP2 AND SWAP2 PUSH32 0xBBF74FB4E3C300BF9F00E1603668149FD64853BFCD5F194270D2B043D9BDBC61 SWAP2 LOG2 POP POP POP POP POP POP POP JUMP JUMPDEST PUSH1 0x6 DUP2 DUP2 SLOAD DUP2 LT PUSH2 0x46B JUMPI PUSH0 DUP1 REVERT JUMPDEST PUSH0 DUP1 PUSH1 0x2 DUP1 SLOAD PUSH1 0xFF AND SWAP1 DUP2 GT ISZERO PUSH2 0x120A JUMPI PUSH2 0x120A PUSH2 0x1E51 JUMP JUMPDEST EQ PUSH2 0x1227 JUMPI PUSH1 0x40 MLOAD PUSH3 0x461BCD PUSH1 0xE5 SHL DUP2 MSTORE PUSH1 0x4 ADD PUSH2 0x4E2 SWAP1 PUSH2 0x2327 JUMP JUMPDEST CALLER PUSH1 0x1 PUSH1 0x1 PUSH1 0xA0 SHL SUB PUSH32 0x0 AND EQ PUSH2 0x129F JUMPI PUSH1 0x40 MLOAD PUSH3 0x461BCD PUSH1 0xE5 SHL DUP2 MSTORE PUSH1 0x20 PUSH1 0x4 DUP3 ADD MSTORE PUSH1 0x1F PUSH1 0x24 DUP3 ADD MSTORE PUSH32 0x57696C6C3A204E6F7420617574686F72697A656420627920666163746F727900 PUSH1 0x44 DUP3 ADD MSTORE PUSH1 0x64 ADD PUSH2 0x4E2 JUMP JUMPDEST PUSH2 0x1193 DUP8 DUP8 DUP8 DUP8 DUP8 DUP8 PUSH2 0x1A68 JUMP JUMPDEST PUSH2 0x130A PUSH1 0x40 MLOAD DUP1 PUSH2 0x140 ADD PUSH1 0x40 MSTORE DUP1 PUSH0 PUSH1 0x1 PUSH1 0x1 PUSH1 0xA0 SHL SUB AND DUP2 MSTORE PUSH1 0x20 ADD PUSH0 DUP2 MSTORE PUSH1 0x20 ADD PUSH0 DUP2 MSTORE PUSH1 0x20 ADD PUSH0 ISZERO ISZERO DUP2 MSTORE PUSH1 0x20 ADD PUSH0 ISZERO ISZERO DUP2 MSTORE PUSH1 0x20 ADD PUSH0 DUP2 MSTORE PUSH1 0x20 ADD PUSH1 0x60 DUP2 MSTORE PUSH1 0x20 ADD PUSH1 0x60 DUP2 MSTORE PUSH1 0x20 ADD PUSH1 0x60 DUP2 MSTORE PUSH1 0x20 ADD PUSH1 0x60 DUP2 MSTORE POP SWAP1 JUMP JUMPDEST PUSH1 0x6 SLOAD PUSH0 SWAP1 PUSH8 0xFFFFFFFFFFFFFFFF DUP2 GT ISZERO PUSH2 0x1327 JUMPI PUSH2 0x1327 PUSH2 0x1EA2 JUMP JUMPDEST PUSH1 0x40 MLOAD SWAP1 DUP1 DUP3 MSTORE DUP1 PUSH1 0x20 MUL PUSH1 0x20 ADD DUP3 ADD PUSH1 0x40 MSTORE DUP1 ISZERO PUSH2 0x136B JUMPI DUP2 PUSH1 0x20 ADD JUMPDEST PUSH1 0x40 DUP1 MLOAD DUP1 DUP3 ADD SWAP1 SWAP2 MSTORE PUSH0 DUP1 DUP3 MSTORE PUSH1 0x20 DUP3 ADD MSTORE DUP2 MSTORE PUSH1 0x20 ADD SWAP1 PUSH1 0x1 SWAP1 SUB SWAP1 DUP2 PUSH2 0x1345 JUMPI SWAP1 POP JUMPDEST POP SWAP1 POP PUSH0 JUMPDEST PUSH1 0x6 SLOAD DUP2 LT ISZERO PUSH2 0x143E JUMPI PUSH0 PUSH1 0x6 DUP3 DUP2 SLOAD DUP2 LT PUSH2 0x138E JUMPI PUSH2 0x138E PUSH2 0x23E0 JUMP JUMPDEST PUSH0 SWAP2 DUP3 MSTORE PUSH1 0x20 SWAP2 DUP3 SWAP1 KECCAK256 ADD SLOAD PUSH1 0x40 DUP1 MLOAD DUP1 DUP3 ADD DUP3 MSTORE PUSH1 0x1 PUSH1 0x1 PUSH1 0xA0 SHL SUB SWAP1 SWAP3 AND DUP1 DUP4 MSTORE SWAP1 MLOAD PUSH4 0x70A08231 PUSH1 0xE0 SHL DUP2 MSTORE ADDRESS PUSH1 0x4 DUP3 ADD MSTORE SWAP1 SWAP4 POP SWAP1 SWAP2 DUP3 ADD SWAP1 DUP4 SWAP1 PUSH4 0x70A08231 SWAP1 PUSH1 0x24 ADD PUSH1 0x20 PUSH1 0x40 MLOAD DUP1 DUP4 SUB DUP2 DUP7 GAS STATICCALL ISZERO DUP1 ISZERO PUSH2 0x13F1 JUMPI RETURNDATASIZE PUSH0 DUP1 RETURNDATACOPY RETURNDATASIZE PUSH0 REVERT JUMPDEST POP POP POP POP PUSH1 0x40 MLOAD RETURNDATASIZE PUSH1 0x1F NOT PUSH1 0x1F DUP3 ADD AND DUP3 ADD DUP1 PUSH1 0x40 MSTORE POP DUP2 ADD SWAP1 PUSH2 0x1415 SWAP2 SWAP1 PUSH2 0x23F4 JUMP JUMPDEST DUP2 MSTORE POP DUP4 DUP4 DUP2 MLOAD DUP2 LT PUSH2 0x142A JUMPI PUSH2 0x142A PUSH2 0x23E0 JUMP JUMPDEST PUSH1 0x20 SWAP1 DUP2 MUL SWAP2 SWAP1 SWAP2 ADD ADD MSTORE POP PUSH1 0x1 ADD PUSH2 0x1370 JUMP JUMPDEST POP PUSH1 0x7 SLOAD PUSH0 SWAP1 PUSH8 0xFFFFFFFFFFFFFFFF DUP2 GT ISZERO PUSH2 0x145C JUMPI PUSH2 0x145C PUSH2 0x1EA2 JUMP JUMPDEST PUSH1 0x40 MLOAD SWAP1 DUP1 DUP3 MSTORE DUP1 PUSH1 0x20 MUL PUSH1 0x20 ADD DUP3 ADD PUSH1 0x40 MSTORE DUP1 ISZERO PUSH2 0x14A5 JUMPI DUP2 PUSH1 0x20 ADD JUMPDEST PUSH1 0x40 DUP1 MLOAD PUSH1 0x60 DUP2 ADD DUP3 MSTORE PUSH0 DUP1 DUP3 MSTORE PUSH1 0x20 DUP1 DUP4 ADD DUP3 SWAP1 MSTORE SWAP3 DUP3 ADD MSTORE DUP3 MSTORE PUSH0 NOT SWAP1 SWAP3 ADD SWAP2 ADD DUP2 PUSH2 0x147A JUMPI SWAP1 POP JUMPDEST POP SWAP1 POP PUSH0 JUMPDEST PUSH1 0x7 SLOAD DUP2 LT ISZERO PUSH2 0x155A JUMPI PUSH0 PUSH1 0x7 DUP3 DUP2 SLOAD DUP2 LT PUSH2 0x14C8 JUMPI PUSH2 0x14C8 PUSH2 0x23E0 JUMP JUMPDEST PUSH0 SWAP2 DUP3 MSTORE PUSH1 0x20 SWAP2 DUP3 SWAP1 KECCAK256 PUSH1 0x40 DUP1 MLOAD PUSH1 0x60 DUP1 DUP3 ADD DUP4 MSTORE PUSH1 0x3 SWAP1 SWAP5 MUL SWAP1 SWAP3 ADD DUP1 SLOAD PUSH1 0x1 PUSH1 0x1 PUSH1 0xA0 SHL SUB SWAP1 DUP2 AND DUP5 MSTORE PUSH1 0x1 DUP3 ADD SLOAD DUP5 DUP8 ADD SWAP1 DUP2 MSTORE PUSH1 0x2 SWAP1 SWAP3 ADD SLOAD DUP2 AND DUP5 DUP5 ADD SWAP1 DUP2 MSTORE DUP4 MLOAD SWAP6 DUP7 ADD DUP5 MSTORE DUP5 MLOAD DUP3 AND DUP7 MSTORE SWAP2 MLOAD SWAP6 DUP6 ADD SWAP6 SWAP1 SWAP6 MSTORE MLOAD SWAP1 SWAP4 AND SWAP3 DUP3 ADD SWAP3 SWAP1 SWAP3 MSTORE DUP5 MLOAD SWAP2 SWAP3 POP SWAP1 DUP5 SWAP1 DUP5 SWAP1 DUP2 LT PUSH2 0x1546 JUMPI PUSH2 0x1546 PUSH2 0x23E0 JUMP JUMPDEST PUSH1 0x20 SWAP1 DUP2 MUL SWAP2 SWAP1 SWAP2 ADD ADD MSTORE POP PUSH1 0x1 ADD PUSH2 0x14AA JUMP JUMPDEST POP PUSH1 0x40 MLOAD DUP1 PUSH2 0x140 ADD PUSH1 0x40 MSTORE DUP1 PUSH2 0x1578 PUSH0 SLOAD PUSH1 0x1 PUSH1 0x1 PUSH1 0xA0 SHL SUB AND SWAP1 JUMP JUMPDEST PUSH1 0x1 PUSH1 0x1 PUSH1 0xA0 SHL SUB AND DUP2 MSTORE PUSH32 0x0 PUSH1 0x20 DUP3 ADD MSTORE PUSH1 0x3 SLOAD PUSH1 0x40 DUP3 ADD MSTORE PUSH1 0x60 ADD PUSH1 0x2 DUP1 DUP1 SLOAD PUSH1 0xFF AND SWAP1 DUP2 GT ISZERO PUSH2 0x15CC JUMPI PUSH2 0x15CC PUSH2 0x1E51 JUMP JUMPDEST EQ ISZERO ISZERO DUP2 MSTORE PUSH1 0x20 ADD PUSH32 0x0 ISZERO ISZERO DUP2 MSTORE PUSH1 0x20 ADD SELFBALANCE DUP2 MSTORE PUSH1 0x20 ADD PUSH1 0x4 DUP1 SLOAD DUP1 PUSH1 0x20 MUL PUSH1 0x20 ADD PUSH1 0x40 MLOAD SWAP1 DUP2 ADD PUSH1 0x40 MSTORE DUP1 SWAP3 SWAP2 SWAP1 DUP2 DUP2 MSTORE PUSH1 0x20 ADD DUP3 DUP1 SLOAD DUP1 ISZERO PUSH2 0x1656 JUMPI PUSH1 0x20 MUL DUP3 ADD SWAP2 SWAP1 PUSH0 MSTORE PUSH1 0x20 PUSH0 KECCAK256 SWAP1 JUMPDEST DUP2 SLOAD PUSH1 0x1 PUSH1 0x1 PUSH1 0xA0 SHL SUB AND DUP2 MSTORE PUSH1 0x1 SWAP1 SWAP2 ADD SWAP1 PUSH1 0x20 ADD DUP1 DUP4 GT PUSH2 0x1638 JUMPI JUMPDEST POP POP POP POP POP DUP2 MSTORE PUSH1 0x20 ADD PUSH1 0x5 DUP1 SLOAD DUP1 PUSH1 0x20 MUL PUSH1 0x20 ADD PUSH1 0x40 MLOAD SWAP1 DUP2 ADD PUSH1 0x40 MSTORE DUP1 SWAP3 SWAP2 SWAP1 DUP2 DUP2 MSTORE PUSH1 0x20 ADD DUP3 DUP1 SLOAD DUP1 ISZERO PUSH2 0x16AA JUMPI PUSH1 0x20 MUL DUP3 ADD SWAP2 SWAP1 PUSH0 MSTORE PUSH1 0x20 PUSH0 KECCAK256 SWAP1 JUMPDEST DUP2 SLOAD DUP2 MSTORE PUSH1 0x20 ADD SWAP1 PUSH1 0x1 ADD SWAP1 DUP1 DUP4 GT PUSH2 0x1696 JUMPI JUMPDEST POP POP POP POP POP DUP2 MSTORE PUSH1 0x20 ADD DUP4 DUP2 MSTORE PUSH1 0x20 ADD DUP3 DUP2 MSTORE POP SWAP3 POP POP POP SWAP1 JUMP JUMPDEST PUSH1 0x7 DUP2 DUP2 SLOAD DUP2 LT PUSH2 0x16D4 JUMPI PUSH0 DUP1 REVERT JUMPDEST PUSH0 SWAP2 DUP3 MSTORE PUSH1 0x20 SWAP1 SWAP2 KECCAK256 PUSH1 0x3 SWAP1 SWAP2 MUL ADD DUP1 SLOAD PUSH1 0x1 DUP3 ADD SLOAD PUSH1 0x2 SWAP1 SWAP3 ADD SLOAD PUSH1 0x1 PUSH1 0x1 PUSH1 0xA0 SHL SUB SWAP2 DUP3 AND SWAP4 POP AND DUP4 JUMP JUMPDEST PUSH2 0x1709 PUSH2 0x173E JUMP JUMPDEST PUSH1 0x1 PUSH1 0x1 PUSH1 0xA0 SHL SUB DUP2 AND PUSH2 0x1732 JUMPI PUSH1 0x40 MLOAD PUSH4 0x1E4FBDF7 PUSH1 0xE0 SHL DUP2 MSTORE PUSH0 PUSH1 0x4 DUP3 ADD MSTORE PUSH1 0x24 ADD PUSH2 0x4E2 JUMP JUMPDEST PUSH2 0x173B DUP2 PUSH2 0x1A19 JUMP JUMPDEST POP JUMP JUMPDEST PUSH0 SLOAD PUSH1 0x1 PUSH1 0x1 PUSH1 0xA0 SHL SUB AND CALLER EQ PUSH2 0xFA5 JUMPI PUSH1 0x40 MLOAD PUSH4 0x118CDAA7 PUSH1 0xE0 SHL DUP2 MSTORE CALLER PUSH1 0x4 DUP3 ADD MSTORE PUSH1 0x24 ADD PUSH2 0x4E2 JUMP JUMPDEST PUSH1 0x2 PUSH1 0x1 SLOAD SUB PUSH2 0xFA5 JUMPI PUSH1 0x40 MLOAD PUSH4 0x3EE5AEB5 PUSH1 0xE0 SHL DUP2 MSTORE PUSH1 0x4 ADD PUSH1 0x40 MLOAD DUP1 SWAP2 SUB SWAP1 REVERT JUMPDEST PUSH0 DUP1 SLOAD PUSH1 0x1 PUSH1 0x1 PUSH1 0xA0 SHL SUB AND SWAP1 JUMPDEST PUSH1 0x6 SLOAD DUP2 LT ISZERO PUSH2 0x18B1 JUMPI PUSH0 PUSH1 0x6 DUP3 DUP2 SLOAD DUP2 LT PUSH2 0x17B9 JUMPI PUSH2 0x17B9 PUSH2 0x23E0 JUMP JUMPDEST PUSH0 SWAP2 DUP3 MSTORE PUSH1 0x20 DUP3 KECCAK256 ADD SLOAD PUSH1 0x40 MLOAD PUSH4 0x70A08231 PUSH1 0xE0 SHL DUP2 MSTORE ADDRESS PUSH1 0x4 DUP3 ADD MSTORE PUSH1 0x1 PUSH1 0x1 PUSH1 0xA0 SHL SUB SWAP1 SWAP2 AND SWAP3 POP DUP3 SWAP1 PUSH4 0x70A08231 SWAP1 PUSH1 0x24 ADD PUSH1 0x20 PUSH1 0x40 MLOAD DUP1 DUP4 SUB DUP2 DUP7 GAS STATICCALL ISZERO DUP1 ISZERO PUSH2 0x1809 JUMPI RETURNDATASIZE PUSH0 DUP1 RETURNDATACOPY RETURNDATASIZE PUSH0 REVERT JUMPDEST POP POP POP POP PUSH1 0x40 MLOAD RETURNDATASIZE PUSH1 0x1F NOT PUSH1 0x1F DUP3 ADD AND DUP3 ADD DUP1 PUSH1 0x40 MSTORE POP DUP2 ADD SWAP1 PUSH2 0x182D SWAP2 SWAP1 PUSH2 0x23F4 JUMP JUMPDEST SWAP1 POP DUP1 ISZERO PUSH2 0x18A7 JUMPI PUSH1 0x40 MLOAD PUSH4 0xA9059CBB PUSH1 0xE0 SHL DUP2 MSTORE PUSH1 0x1 PUSH1 0x1 PUSH1 0xA0 SHL SUB DUP6 DUP2 AND PUSH1 0x4 DUP4 ADD MSTORE PUSH1 0x24 DUP3 ADD DUP4 SWAP1 MSTORE DUP4 AND SWAP1 PUSH4 0xA9059CBB SWAP1 PUSH1 0x44 ADD PUSH1 0x20 PUSH1 0x40 MLOAD DUP1 DUP4 SUB DUP2 PUSH0 DUP8 GAS CALL ISZERO DUP1 ISZERO PUSH2 0x1881 JUMPI RETURNDATASIZE PUSH0 DUP1 RETURNDATACOPY RETURNDATASIZE PUSH0 REVERT JUMPDEST POP POP POP POP PUSH1 0x40 MLOAD RETURNDATASIZE PUSH1 0x1F NOT PUSH1 0x1F DUP3 ADD AND DUP3 ADD DUP1 PUSH1 0x40 MSTORE POP DUP2 ADD SWAP1 PUSH2 0x18A5 SWAP2 SWAP1 PUSH2 0x240B JUMP JUMPDEST POP JUMPDEST POP POP PUSH1 0x1 ADD PUSH2 0x179B JUMP JUMPDEST POP PUSH0 JUMPDEST PUSH1 0x7 SLOAD DUP2 LT ISZERO PUSH2 0x1975 JUMPI PUSH0 PUSH1 0x7 DUP3 DUP2 SLOAD DUP2 LT PUSH2 0x18D2 JUMPI PUSH2 0x18D2 PUSH2 0x23E0 JUMP JUMPDEST PUSH0 SWAP2 DUP3 MSTORE PUSH1 0x20 SWAP2 DUP3 SWAP1 KECCAK256 PUSH1 0x40 DUP1 MLOAD PUSH1 0x60 DUP2 ADD DUP3 MSTORE PUSH1 0x3 SWAP1 SWAP4 MUL SWAP1 SWAP2 ADD DUP1 SLOAD PUSH1 0x1 PUSH1 0x1 PUSH1 0xA0 SHL SUB SWAP1 DUP2 AND DUP1 DUP6 MSTORE PUSH1 0x1 DUP4 ADD SLOAD SWAP6 DUP6 ADD DUP7 SWAP1 MSTORE PUSH1 0x2 SWAP1 SWAP3 ADD SLOAD AND DUP4 DUP4 ADD MSTORE SWAP1 MLOAD PUSH4 0x21421707 PUSH1 0xE1 SHL DUP2 MSTORE SWAP2 SWAP4 POP SWAP2 PUSH4 0x42842E0E SWAP2 PUSH2 0x193B SWAP2 ADDRESS SWAP2 DUP9 SWAP2 SWAP1 PUSH1 0x4 ADD PUSH2 0x242A JUMP JUMPDEST PUSH0 PUSH1 0x40 MLOAD DUP1 DUP4 SUB DUP2 PUSH0 DUP8 DUP1 EXTCODESIZE ISZERO DUP1 ISZERO PUSH2 0x1952 JUMPI PUSH0 DUP1 REVERT JUMPDEST POP GAS CALL ISZERO DUP1 ISZERO PUSH2 0x1964 JUMPI RETURNDATASIZE PUSH0 DUP1 RETURNDATACOPY RETURNDATASIZE PUSH0 REVERT JUMPDEST POP POP PUSH1 0x1 SWAP1 SWAP4 ADD SWAP3 POP PUSH2 0x18B4 SWAP2 POP POP JUMP JUMPDEST POP SELFBALANCE DUP1 ISZERO PUSH2 0x1A15 JUMPI PUSH0 DUP3 PUSH1 0x1 PUSH1 0x1 PUSH1 0xA0 SHL SUB AND DUP3 PUSH1 0x40 MLOAD PUSH0 PUSH1 0x40 MLOAD DUP1 DUP4 SUB DUP2 DUP6 DUP8 GAS CALL SWAP3 POP POP POP RETURNDATASIZE DUP1 PUSH0 DUP2 EQ PUSH2 0x19C6 JUMPI PUSH1 0x40 MLOAD SWAP2 POP PUSH1 0x1F NOT PUSH1 0x3F RETURNDATASIZE ADD AND DUP3 ADD PUSH1 0x40 MSTORE RETURNDATASIZE DUP3 MSTORE RETURNDATASIZE PUSH0 PUSH1 0x20 DUP5 ADD RETURNDATACOPY PUSH2 0x19CB JUMP JUMPDEST PUSH1 0x60 SWAP2 POP JUMPDEST POP POP SWAP1 POP DUP1 PUSH2 0x1A13 JUMPI PUSH1 0x40 MLOAD PUSH3 0x461BCD PUSH1 0xE5 SHL DUP2 MSTORE PUSH1 0x20 PUSH1 0x4 DUP3 ADD MSTORE PUSH1 0x14 PUSH1 0x24 DUP3 ADD MSTORE PUSH20 0x22AA24103A3930B739B332B9103330B4B632B217 PUSH1 0x61 SHL PUSH1 0x44 DUP3 ADD MSTORE PUSH1 0x64 ADD PUSH2 0x4E2 JUMP JUMPDEST POP JUMPDEST POP POP JUMP JUMPDEST PUSH0 DUP1 SLOAD PUSH1 0x1 PUSH1 0x1 PUSH1 0xA0 SHL SUB DUP4 DUP2 AND PUSH1 0x1 PUSH1 0x1 PUSH1 0xA0 SHL SUB NOT DUP4 AND DUP2 OR DUP5 SSTORE PUSH1 0x40 MLOAD SWAP2 SWAP1 SWAP3 AND SWAP3 DUP4 SWAP2 PUSH32 0x8BE0079C531659141344CD1FD0A4F28419497F9722A3DAAFE3B4186F6B6457E0 SWAP2 SWAP1 LOG3 POP POP JUMP JUMPDEST DUP5 MLOAD DUP7 MLOAD EQ PUSH2 0x1AB9 JUMPI PUSH1 0x40 MLOAD PUSH3 0x461BCD PUSH1 0xE5 SHL DUP2 MSTORE PUSH1 0x20 PUSH1 0x4 DUP3 ADD MSTORE PUSH1 0x1C PUSH1 0x24 DUP3 ADD MSTORE PUSH32 0x48656972732F646973747269627574696F6E73206D69736D6174636800000000 PUSH1 0x44 DUP3 ADD MSTORE PUSH1 0x64 ADD PUSH2 0x4E2 JUMP JUMPDEST DUP6 MLOAD ISZERO PUSH2 0x1B4E JUMPI PUSH0 DUP1 JUMPDEST DUP7 MLOAD DUP2 LT ISZERO PUSH2 0x1AFB JUMPI DUP7 DUP2 DUP2 MLOAD DUP2 LT PUSH2 0x1ADE JUMPI PUSH2 0x1ADE PUSH2 0x23E0 JUMP JUMPDEST PUSH1 0x20 MUL PUSH1 0x20 ADD ADD MLOAD DUP3 PUSH2 0x1AF1 SWAP2 SWAP1 PUSH2 0x237E JUMP JUMPDEST SWAP2 POP PUSH1 0x1 ADD PUSH2 0x1AC3 JUMP JUMPDEST POP DUP1 PUSH1 0x64 EQ PUSH2 0x1B4C JUMPI PUSH1 0x40 MLOAD PUSH3 0x461BCD PUSH1 0xE5 SHL DUP2 MSTORE PUSH1 0x20 PUSH1 0x4 DUP3 ADD MSTORE PUSH1 0x1C PUSH1 0x24 DUP3 ADD MSTORE PUSH32 0x446973747269627574696F6E206D7573742073756D20746F2031303000000000 PUSH1 0x44 DUP3 ADD MSTORE PUSH1 0x64 ADD PUSH2 0x4E2 JUMP JUMPDEST POP JUMPDEST DUP6 MLOAD PUSH2 0x1B61 SWAP1 PUSH1 0x4 SWAP1 PUSH1 0x20 DUP10 ADD SWAP1 PUSH2 0x1D50 JUMP JUMPDEST POP DUP5 MLOAD PUSH2 0x1B75 SWAP1 PUSH1 0x5 SWAP1 PUSH1 0x20 DUP9 ADD SWAP1 PUSH2 0x1DB3 JUMP JUMPDEST POP PUSH0 JUMPDEST DUP4 DUP2 LT ISZERO PUSH2 0x1BF5 JUMPI PUSH1 0x6 PUSH1 0x40 MLOAD DUP1 PUSH1 0x20 ADD PUSH1 0x40 MSTORE DUP1 DUP8 DUP8 DUP6 DUP2 DUP2 LT PUSH2 0x1B9F JUMPI PUSH2 0x1B9F PUSH2 0x23E0 JUMP JUMPDEST PUSH2 0x1BB5 SWAP3 PUSH1 0x20 PUSH1 0x40 SWAP1 SWAP3 MUL ADD SWAP1 DUP2 ADD SWAP2 POP PUSH2 0x2307 JUMP JUMPDEST PUSH1 0x1 PUSH1 0x1 PUSH1 0xA0 SHL SUB SWAP1 DUP2 AND SWAP1 SWAP2 MSTORE DUP3 SLOAD PUSH1 0x1 DUP1 DUP3 ADD DUP6 SSTORE PUSH0 SWAP5 DUP6 MSTORE PUSH1 0x20 SWAP1 SWAP5 KECCAK256 SWAP3 MLOAD SWAP3 ADD DUP1 SLOAD PUSH1 0x1 PUSH1 0x1 PUSH1 0xA0 SHL SUB NOT AND SWAP3 SWAP1 SWAP2 AND SWAP2 SWAP1 SWAP2 OR SWAP1 SSTORE ADD PUSH2 0x1B78 JUMP JUMPDEST POP PUSH0 JUMPDEST DUP2 DUP2 LT ISZERO PUSH2 0x1CF3 JUMPI PUSH1 0x7 PUSH1 0x40 MLOAD DUP1 PUSH1 0x60 ADD PUSH1 0x40 MSTORE DUP1 DUP6 DUP6 DUP6 DUP2 DUP2 LT PUSH2 0x1C1F JUMPI PUSH2 0x1C1F PUSH2 0x23E0 JUMP JUMPDEST PUSH2 0x1C35 SWAP3 PUSH1 0x20 PUSH1 0x60 SWAP1 SWAP3 MUL ADD SWAP1 DUP2 ADD SWAP2 POP PUSH2 0x2307 JUMP JUMPDEST PUSH1 0x1 PUSH1 0x1 PUSH1 0xA0 SHL SUB AND DUP2 MSTORE PUSH1 0x20 ADD DUP6 DUP6 DUP6 DUP2 DUP2 LT PUSH2 0x1C55 JUMPI PUSH2 0x1C55 PUSH2 0x23E0 JUMP JUMPDEST SWAP1 POP PUSH1 0x60 MUL ADD PUSH1 0x20 ADD CALLDATALOAD DUP2 MSTORE PUSH1 0x20 ADD DUP6 DUP6 DUP6 DUP2 DUP2 LT PUSH2 0x1C76 JUMPI PUSH2 0x1C76 PUSH2 0x23E0 JUMP JUMPDEST SWAP1 POP PUSH1 0x60 MUL ADD PUSH1 0x40 ADD PUSH1 0x20 DUP2 ADD SWAP1 PUSH2 0x1C8E SWAP2 SWAP1 PUSH2 0x2307 JUMP JUMPDEST PUSH1 0x1 PUSH1 0x1 PUSH1 0xA0 SHL SUB SWAP1 DUP2 AND SWAP1 SWAP2 MSTORE DUP3 SLOAD PUSH1 0x1 DUP2 DUP2 ADD DUP6 SSTORE PUSH0 SWAP5 DUP6 MSTORE PUSH1 0x20 SWAP5 DUP6 SWAP1 KECCAK256 DUP5 MLOAD PUSH1 0x3 SWAP1 SWAP4 MUL ADD DUP1 SLOAD SWAP3 DUP5 AND PUSH1 0x1 PUSH1 0x1 PUSH1 0xA0 SHL SUB NOT SWAP4 DUP5 AND OR DUP2 SSTORE SWAP5 DUP5 ADD MLOAD DUP6 DUP3 ADD SSTORE PUSH1 0x40 SWAP1 SWAP4 ADD MLOAD PUSH1 0x2 SWAP1 SWAP5 ADD DUP1 SLOAD SWAP5 SWAP1 SWAP3 AND SWAP4 AND SWAP3 SWAP1 SWAP3 OR SWAP1 SWAP2 SSTORE ADD PUSH2 0x1BF8 JUMP JUMPDEST POP POP POP POP POP POP POP JUMP JUMPDEST POP DUP1 SLOAD PUSH0 DUP3 SSTORE SWAP1 PUSH0 MSTORE PUSH1 0x20 PUSH0 KECCAK256 SWAP1 DUP2 ADD SWAP1 PUSH2 0x173B SWAP2 SWAP1 PUSH2 0x1DEC JUMP JUMPDEST POP DUP1 SLOAD PUSH0 DUP3 SSTORE SWAP1 PUSH0 MSTORE PUSH1 0x20 PUSH0 KECCAK256 SWAP1 DUP2 ADD SWAP1 PUSH2 0x173B SWAP2 SWAP1 PUSH2 0x1E00 JUMP JUMPDEST POP DUP1 SLOAD PUSH0 DUP3 SSTORE PUSH1 0x3 MUL SWAP1 PUSH0 MSTORE PUSH1 0x20 PUSH0 KECCAK256 SWAP1 DUP2 ADD SWAP1 PUSH2 0x173B SWAP2 SWAP1 PUSH2 0x1E1F JUMP JUMPDEST DUP3 DUP1 SLOAD DUP3 DUP3 SSTORE SWAP1 PUSH0 MSTORE PUSH1 0x20 PUSH0 KECCAK256 SWAP1 DUP2 ADD SWAP3 DUP3 ISZERO PUSH2 0x1DA3 JUMPI SWAP2 PUSH1 0x20 MUL DUP3 ADD JUMPDEST DUP3 DUP2 GT ISZERO PUSH2 0x1DA3 JUMPI DUP3 MLOAD DUP3 SLOAD PUSH1 0x1 PUSH1 0x1 PUSH1 0xA0 SHL SUB NOT AND PUSH1 0x1 PUSH1 0x1 PUSH1 0xA0 SHL SUB SWAP1 SWAP2 AND OR DUP3 SSTORE PUSH1 0x20 SWAP1 SWAP3 ADD SWAP2 PUSH1 0x1 SWAP1 SWAP2 ADD SWAP1 PUSH2 0x1D6E JUMP JUMPDEST POP PUSH2 0x1DAF SWAP3 SWAP2 POP PUSH2 0x1DEC JUMP JUMPDEST POP SWAP1 JUMP JUMPDEST DUP3 DUP1 SLOAD DUP3 DUP3 SSTORE SWAP1 PUSH0 MSTORE PUSH1 0x20 PUSH0 KECCAK256 SWAP1 DUP2 ADD SWAP3 DUP3 ISZERO PUSH2 0x1DA3 JUMPI SWAP2 PUSH1 0x20 MUL DUP3 ADD JUMPDEST DUP3 DUP2 GT ISZERO PUSH2 0x1DA3 JUMPI DUP3 MLOAD DUP3 SSTORE SWAP2 PUSH1 0x20 ADD SWAP2 SWAP1 PUSH1 0x1 ADD SWAP1 PUSH2 0x1DD1 JUMP JUMPDEST JUMPDEST DUP1 DUP3 GT ISZERO PUSH2 0x1DAF JUMPI PUSH0 DUP2 SSTORE PUSH1 0x1 ADD PUSH2 0x1DED JUMP JUMPDEST JUMPDEST DUP1 DUP3 GT ISZERO PUSH2 0x1DAF JUMPI DUP1 SLOAD PUSH1 0x1 PUSH1 0x1 PUSH1 0xA0 SHL SUB NOT AND DUP2 SSTORE PUSH1 0x1 ADD PUSH2 0x1E01 JUMP JUMPDEST JUMPDEST DUP1 DUP3 GT ISZERO PUSH2 0x1DAF JUMPI DUP1 SLOAD PUSH1 0x1 PUSH1 0x1 PUSH1 0xA0 SHL SUB NOT SWAP1 DUP2 AND DUP3 SSTORE PUSH0 PUSH1 0x1 DUP4 ADD SSTORE PUSH1 0x2 DUP3 ADD DUP1 SLOAD SWAP1 SWAP2 AND SWAP1 SSTORE PUSH1 0x3 ADD PUSH2 0x1E20 JUMP JUMPDEST PUSH4 0x4E487B71 PUSH1 0xE0 SHL PUSH0 MSTORE PUSH1 0x21 PUSH1 0x4 MSTORE PUSH1 0x24 PUSH0 REVERT JUMPDEST PUSH1 0x20 DUP2 ADD PUSH1 0x3 DUP4 LT PUSH2 0x1E85 JUMPI PUSH4 0x4E487B71 PUSH1 0xE0 SHL PUSH0 MSTORE PUSH1 0x21 PUSH1 0x4 MSTORE PUSH1 0x24 PUSH0 REVERT JUMPDEST SWAP2 SWAP1 MSTORE SWAP1 JUMP JUMPDEST PUSH0 PUSH1 0x20 DUP3 DUP5 SUB SLT ISZERO PUSH2 0x1E9B JUMPI PUSH0 DUP1 REVERT JUMPDEST POP CALLDATALOAD SWAP2 SWAP1 POP JUMP JUMPDEST PUSH4 0x4E487B71 PUSH1 0xE0 SHL PUSH0 MSTORE PUSH1 0x41 PUSH1 0x4 MSTORE PUSH1 0x24 PUSH0 REVERT JUMPDEST PUSH1 0x40 MLOAD PUSH1 0x1F DUP3 ADD PUSH1 0x1F NOT AND DUP2 ADD PUSH8 0xFFFFFFFFFFFFFFFF DUP2 GT DUP3 DUP3 LT OR ISZERO PUSH2 0x1EDF JUMPI PUSH2 0x1EDF PUSH2 0x1EA2 JUMP JUMPDEST PUSH1 0x40 MSTORE SWAP2 SWAP1 POP JUMP JUMPDEST PUSH0 PUSH8 0xFFFFFFFFFFFFFFFF DUP3 GT ISZERO PUSH2 0x1F00 JUMPI PUSH2 0x1F00 PUSH2 0x1EA2 JUMP JUMPDEST POP PUSH1 0x5 SHL PUSH1 0x20 ADD SWAP1 JUMP JUMPDEST DUP1 CALLDATALOAD PUSH1 0x1 PUSH1 0x1 PUSH1 0xA0 SHL SUB DUP2 AND DUP2 EQ PUSH2 0x1F20 JUMPI PUSH0 DUP1 REVERT JUMPDEST SWAP2 SWAP1 POP JUMP JUMPDEST PUSH0 DUP3 PUSH1 0x1F DUP4 ADD SLT PUSH2 0x1F34 JUMPI PUSH0 DUP1 REVERT JUMPDEST DUP2 CALLDATALOAD PUSH1 0x20 PUSH2 0x1F49 PUSH2 0x1F44 DUP4 PUSH2 0x1EE7 JUMP JUMPDEST PUSH2 0x1EB6 JUMP JUMPDEST DUP1 DUP4 DUP3 MSTORE PUSH1 0x20 DUP3 ADD SWAP2 POP PUSH1 0x20 DUP5 PUSH1 0x5 SHL DUP8 ADD ADD SWAP4 POP DUP7 DUP5 GT ISZERO PUSH2 0x1F6A JUMPI PUSH0 DUP1 REVERT JUMPDEST PUSH1 0x20 DUP7 ADD JUMPDEST DUP5 DUP2 LT ISZERO PUSH2 0x1F86 JUMPI DUP1 CALLDATALOAD DUP4 MSTORE SWAP2 DUP4 ADD SWAP2 DUP4 ADD PUSH2 0x1F6F JUMP JUMPDEST POP SWAP7 SWAP6 POP POP POP POP POP POP JUMP JUMPDEST PUSH0 DUP1 DUP4 PUSH1 0x1F DUP5 ADD SLT PUSH2 0x1FA1 JUMPI PUSH0 DUP1 REVERT JUMPDEST POP DUP2 CALLDATALOAD PUSH8 0xFFFFFFFFFFFFFFFF DUP2 GT ISZERO PUSH2 0x1FB8 JUMPI PUSH0 DUP1 REVERT JUMPDEST PUSH1 0x20 DUP4 ADD SWAP2 POP DUP4 PUSH1 0x20 DUP3 PUSH1 0x6 SHL DUP6 ADD ADD GT ISZERO PUSH2 0x1FD2 JUMPI PUSH0 DUP1 REVERT JUMPDEST SWAP3 POP SWAP3 SWAP1 POP JUMP JUMPDEST PUSH0 DUP1 DUP4 PUSH1 0x1F DUP5 ADD SLT PUSH2 0x1FE9 JUMPI PUSH0 DUP1 REVERT JUMPDEST POP DUP2 CALLDATALOAD PUSH8 0xFFFFFFFFFFFFFFFF DUP2 GT ISZERO PUSH2 0x2000 JUMPI PUSH0 DUP1 REVERT JUMPDEST PUSH1 0x20 DUP4 ADD SWAP2 POP DUP4 PUSH1 0x20 PUSH1 0x60 DUP4 MUL DUP6 ADD ADD GT ISZERO PUSH2 0x1FD2 JUMPI PUSH0 DUP1 REVERT JUMPDEST PUSH0 DUP1 PUSH0 DUP1 PUSH0 DUP1 PUSH1 0x80 DUP8 DUP10 SUB SLT ISZERO PUSH2 0x202F JUMPI PUSH0 DUP1 REVERT JUMPDEST DUP7 CALLDATALOAD PUSH8 0xFFFFFFFFFFFFFFFF DUP1 DUP3 GT ISZERO PUSH2 0x2046 JUMPI PUSH0 DUP1 REVERT JUMPDEST DUP2 DUP10 ADD SWAP2 POP DUP10 PUSH1 0x1F DUP4 ADD SLT PUSH2 0x2059 JUMPI PUSH0 DUP1 REVERT JUMPDEST DUP2 CALLDATALOAD PUSH1 0x20 PUSH2 0x2069 PUSH2 0x1F44 DUP4 PUSH2 0x1EE7 JUMP JUMPDEST DUP3 DUP2 MSTORE PUSH1 0x5 SWAP3 SWAP1 SWAP3 SHL DUP5 ADD DUP2 ADD SWAP2 DUP2 DUP2 ADD SWAP1 DUP14 DUP5 GT ISZERO PUSH2 0x2087 JUMPI PUSH0 DUP1 REVERT JUMPDEST SWAP5 DUP3 ADD SWAP5 JUMPDEST DUP4 DUP7 LT ISZERO PUSH2 0x20AC JUMPI PUSH2 0x209D DUP7 PUSH2 0x1F0A JUMP JUMPDEST DUP3 MSTORE SWAP5 DUP3 ADD SWAP5 SWAP1 DUP3 ADD SWAP1 PUSH2 0x208C JUMP JUMPDEST SWAP11 POP POP DUP11 ADD CALLDATALOAD SWAP3 POP POP DUP1 DUP3 GT ISZERO PUSH2 0x20C1 JUMPI PUSH0 DUP1 REVERT JUMPDEST PUSH2 0x20CD DUP11 DUP4 DUP12 ADD PUSH2 0x1F25 JUMP JUMPDEST SWAP7 POP PUSH1 0x40 DUP10 ADD CALLDATALOAD SWAP2 POP DUP1 DUP3 GT ISZERO PUSH2 0x20E2 JUMPI PUSH0 DUP1 REVERT JUMPDEST PUSH2 0x20EE DUP11 DUP4 DUP12 ADD PUSH2 0x1F91 JUMP JUMPDEST SWAP1 SWAP7 POP SWAP5 POP PUSH1 0x60 DUP10 ADD CALLDATALOAD SWAP2 POP DUP1 DUP3 GT ISZERO PUSH2 0x2106 JUMPI PUSH0 DUP1 REVERT JUMPDEST POP PUSH2 0x2113 DUP10 DUP3 DUP11 ADD PUSH2 0x1FD9 JUMP JUMPDEST SWAP8 SWAP11 SWAP7 SWAP10 POP SWAP5 SWAP8 POP SWAP3 SWAP6 SWAP4 SWAP5 SWAP3 POP POP POP JUMP JUMPDEST PUSH0 DUP2 MLOAD DUP1 DUP5 MSTORE PUSH1 0x20 DUP1 DUP6 ADD SWAP5 POP PUSH1 0x20 DUP5 ADD PUSH0 JUMPDEST DUP4 DUP2 LT ISZERO PUSH2 0x215D JUMPI DUP2 MLOAD PUSH1 0x1 PUSH1 0x1 PUSH1 0xA0 SHL SUB AND DUP8 MSTORE SWAP6 DUP3 ADD SWAP6 SWAP1 DUP3 ADD SWAP1 PUSH1 0x1 ADD PUSH2 0x2138 JUMP JUMPDEST POP SWAP5 SWAP6 SWAP5 POP POP POP POP POP JUMP JUMPDEST PUSH0 DUP2 MLOAD DUP1 DUP5 MSTORE PUSH1 0x20 DUP1 DUP6 ADD SWAP5 POP PUSH1 0x20 DUP5 ADD PUSH0 JUMPDEST DUP4 DUP2 LT ISZERO PUSH2 0x215D JUMPI DUP2 MLOAD DUP8 MSTORE SWAP6 DUP3 ADD SWAP6 SWAP1 DUP3 ADD SWAP1 PUSH1 0x1 ADD PUSH2 0x217B JUMP JUMPDEST PUSH0 DUP2 MLOAD DUP1 DUP5 MSTORE PUSH1 0x20 DUP1 DUP6 ADD SWAP5 POP PUSH1 0x20 DUP5 ADD PUSH0 JUMPDEST DUP4 DUP2 LT ISZERO PUSH2 0x215D JUMPI DUP2 MLOAD DUP1 MLOAD PUSH1 0x1 PUSH1 0x1 PUSH1 0xA0 SHL SUB AND DUP9 MSTORE DUP4 ADD MLOAD DUP4 DUP9 ADD MSTORE PUSH1 0x40 SWAP1 SWAP7 ADD SWAP6 SWAP1 DUP3 ADD SWAP1 PUSH1 0x1 ADD PUSH2 0x21AA JUMP JUMPDEST PUSH0 DUP2 MLOAD DUP1 DUP5 MSTORE PUSH1 0x20 DUP1 DUP6 ADD SWAP5 POP PUSH1 0x20 DUP5 ADD PUSH0 JUMPDEST DUP4 DUP2 LT ISZERO PUSH2 0x215D JUMPI DUP2 MLOAD DUP1 MLOAD PUSH1 0x1 PUSH1 0x1 PUSH1 0xA0 SHL SUB SWAP1 DUP2 AND DUP10 MSTORE DUP5 DUP3 ADD MLOAD DUP6 DUP11 ADD MSTORE PUSH1 0x40 SWAP2 DUP3 ADD MLOAD AND SWAP1 DUP9 ADD MSTORE PUSH1 0x60 SWAP1 SWAP7 ADD SWAP6 SWAP1 DUP3 ADD SWAP1 PUSH1 0x1 ADD PUSH2 0x21ED JUMP JUMPDEST PUSH1 0x20 DUP2 MSTORE PUSH2 0x2245 PUSH1 0x20 DUP3 ADD DUP4 MLOAD PUSH1 0x1 PUSH1 0x1 PUSH1 0xA0 SHL SUB AND SWAP1 MSTORE JUMP JUMPDEST PUSH1 0x20 DUP3 ADD MLOAD PUSH1 0x40 DUP3 ADD MSTORE PUSH1 0x40 DUP3 ADD MLOAD PUSH1 0x60 DUP3 ADD MSTORE PUSH0 PUSH1 0x60 DUP4 ADD MLOAD PUSH2 0x226D PUSH1 0x80 DUP5 ADD DUP3 ISZERO ISZERO SWAP1 MSTORE JUMP JUMPDEST POP PUSH1 0x80 DUP4 ADD MLOAD DUP1 ISZERO ISZERO PUSH1 0xA0 DUP5 ADD MSTORE POP PUSH1 0xA0 DUP4 ADD MLOAD PUSH1 0xC0 DUP4 ADD MSTORE PUSH1 0xC0 DUP4 ADD MLOAD PUSH2 0x140 DUP1 PUSH1 0xE0 DUP6 ADD MSTORE PUSH2 0x22A2 PUSH2 0x160 DUP6 ADD DUP4 PUSH2 0x2125 JUMP JUMPDEST SWAP2 POP PUSH1 0xE0 DUP6 ADD MLOAD PUSH1 0x1F NOT PUSH2 0x100 DUP2 DUP8 DUP7 SUB ADD DUP2 DUP9 ADD MSTORE PUSH2 0x22C2 DUP6 DUP5 PUSH2 0x2168 JUMP JUMPDEST SWAP5 POP DUP1 DUP9 ADD MLOAD SWAP3 POP POP PUSH2 0x120 DUP2 DUP8 DUP7 SUB ADD DUP2 DUP9 ADD MSTORE PUSH2 0x22E1 DUP6 DUP5 PUSH2 0x2197 JUMP JUMPDEST SWAP1 DUP9 ADD MLOAD DUP8 DUP3 SUB SWAP1 SWAP3 ADD DUP5 DUP9 ADD MSTORE SWAP4 POP SWAP1 POP PUSH2 0x22FD DUP4 DUP3 PUSH2 0x21DA JUMP JUMPDEST SWAP7 SWAP6 POP POP POP POP POP POP JUMP JUMPDEST PUSH0 PUSH1 0x20 DUP3 DUP5 SUB SLT ISZERO PUSH2 0x2317 JUMPI PUSH0 DUP1 REVERT JUMPDEST PUSH2 0x2320 DUP3 PUSH2 0x1F0A JUMP JUMPDEST SWAP4 SWAP3 POP POP POP JUMP JUMPDEST PUSH1 0x20 DUP1 DUP3 MSTORE PUSH1 0x23 SWAP1 DUP3 ADD MSTORE PUSH32 0x57696C6C3A20496E76616C696420737461746520666F72207468697320616374 PUSH1 0x40 DUP3 ADD MSTORE PUSH3 0x34B7B7 PUSH1 0xE9 SHL PUSH1 0x60 DUP3 ADD MSTORE PUSH1 0x80 ADD SWAP1 JUMP JUMPDEST PUSH4 0x4E487B71 PUSH1 0xE0 SHL PUSH0 MSTORE PUSH1 0x11 PUSH1 0x4 MSTORE PUSH1 0x24 PUSH0 REVERT JUMPDEST DUP1 DUP3 ADD DUP1 DUP3 GT ISZERO PUSH2 0x2391 JUMPI PUSH2 0x2391 PUSH2 0x236A JUMP JUMPDEST SWAP3 SWAP2 POP POP JUMP JUMPDEST DUP1 DUP3 MUL DUP2 ISZERO DUP3 DUP3 DIV DUP5 EQ OR PUSH2 0x2391 JUMPI PUSH2 0x2391 PUSH2 0x236A JUMP JUMPDEST PUSH0 DUP3 PUSH2 0x23C8 JUMPI PUSH4 0x4E487B71 PUSH1 0xE0 SHL PUSH0 MSTORE PUSH1 0x12 PUSH1 0x4 MSTORE PUSH1 0x24 PUSH0 REVERT JUMPDEST POP DIV SWAP1 JUMP JUMPDEST DUP2 DUP2 SUB DUP2 DUP2 GT ISZERO PUSH2 0x2391 JUMPI PUSH2 0x2391 PUSH2 0x236A JUMP JUMPDEST PUSH4 0x4E487B71 PUSH1 0xE0 SHL PUSH0 MSTORE PUSH1 0x32 PUSH1 0x4 MSTORE PUSH1 0x24 PUSH0 REVERT JUMPDEST PUSH0 PUSH1 0x20 DUP3 DUP5 SUB SLT ISZERO PUSH2 0x2404 JUMPI PUSH0 DUP1 REVERT JUMPDEST POP MLOAD SWAP2 SWAP1 POP JUMP JUMPDEST PUSH0 PUSH1 0x20 DUP3 DUP5 SUB SLT ISZERO PUSH2 0x241B JUMPI PUSH0 DUP1 REVERT JUMPDEST DUP2 MLOAD DUP1 ISZERO ISZERO DUP2 EQ PUSH2 0x2320 JUMPI PUSH0 DUP1 REVERT JUMPDEST PUSH1 0x1 PUSH1 0x1 PUSH1 0xA0 SHL SUB SWAP4 DUP5 AND DUP2 MSTORE SWAP2 SWAP1 SWAP3 AND PUSH1 0x20 DUP3 ADD MSTORE PUSH1 0x40 DUP2 ADD SWAP2 SWAP1 SWAP2 MSTORE PUSH1 0x60 ADD SWAP1 JUMP INVALID LOG2 PUSH5 0x6970667358 0x22 SLT KECCAK256 SSTORE PUSH16 0x6BA2314C4403821F64C63978659E4197 DUP12 0x2F PUSH10 0x49DDFFB6F18C9A23BF8E 0xFB PUSH5 0x736F6C6343 STOP ADDMOD XOR STOP CALLER LOG2 PUSH5 0x6970667358 0x22 SLT KECCAK256 0xCE MLOAD PUSH16 0x818743AFA020E02FBEE77D5D31624857 0xF6 0x2C 0xD2 0xD3 0xE9 MOD 0x2B 0x22 ADD PUSH7 0xDE50CE64736F6C PUSH4 0x43000818 STOP CALLER "
		},
		"gasEstimates": {
			"creation": {
				"codeDepositCost": "3112200",
				"executionCost": "infinite",
				"totalCost": "infinite"
			},
			"external": {
				"basePlatformFee()": "205",
				"clearWillRecord(address)": "28475",
				"coFounderOne()": "4546",
				"coFounderTwo()": "4566",
				"createWill(address[],uint256[],uint256,(address,uint256)[],(address,uint256,address)[])": "infinite",
				"createWillDiary(uint256)": "infinite",
				"diaryPlatformFee()": "2307",
				"executorAddress()": "2358",
				"setDiaryPlatformFee(uint256)": "33086",
				"setExecutorAddress(address)": "34383",
				"updateCoFounderOneAddresses(address,address)": "infinite",
				"updateCoFounderTwoAddresses(address,address)": "infinite",
				"userWills(address)": "2603",
				"withdrawFees()": "infinite"
			}
		},
		"methodIdentifiers": {
			"basePlatformFee()": "96164523",
			"clearWillRecord(address)": "a658dd6b",
			"coFounderOne()": "25494a03",
			"coFounderTwo()": "c2db55ea",
			"createWill(address[],uint256[],uint256,(address,uint256)[],(address,uint256,address)[])": "80921e14",
			"createWillDiary(uint256)": "15e32f96",
			"diaryPlatformFee()": "09838727",
			"executorAddress()": "a8e9a539",
			"setDiaryPlatformFee(uint256)": "bf516f63",
			"setExecutorAddress(address)": "c2513f11",
			"updateCoFounderOneAddresses(address,address)": "750a1656",
			"updateCoFounderTwoAddresses(address,address)": "a010f2a1",
			"userWills(address)": "68a4c6aa",
			"withdrawFees()": "476343ee"
		}
	},
	"abi": [
		{
			"inputs": [
				{
					"internalType": "address",
					"name": "_coFounderOnePrimary",
					"type": "address"
				},
				{
					"internalType": "address",
					"name": "_coFounderOneSecondary",
					"type": "address"
				},
				{
					"internalType": "address",
					"name": "_coFounderTwoPrimary",
					"type": "address"
				},
				{
					"internalType": "address",
					"name": "_coFounderTwoSecondary",
					"type": "address"
				},
				{
					"internalType": "address",
					"name": "_initialExecutor",
					"type": "address"
				}
			],
			"stateMutability": "nonpayable",
			"type": "constructor"
		},
		{
			"anonymous": false,
			"inputs": [
				{
					"indexed": true,
					"internalType": "uint8",
					"name": "coFounderId",
					"type": "uint8"
				},
				{
					"indexed": false,
					"internalType": "address",
					"name": "newPrimary",
					"type": "address"
				},
				{
					"indexed": false,
					"internalType": "address",
					"name": "newSecondary",
					"type": "address"
				}
			],
			"name": "CoFounderAddressesUpdated",
			"type": "event"
		},
		{
			"anonymous": false,
			"inputs": [
				{
					"indexed": true,
					"internalType": "address",
					"name": "newExecutor",
					"type": "address"
				}
			],
			"name": "ExecutorAddressUpdated",
			"type": "event"
		},
		{
			"anonymous": false,
			"inputs": [
				{
					"indexed": true,
					"internalType": "address",
					"name": "caller",
					"type": "address"
				},
				{
					"indexed": false,
					"internalType": "uint256",
					"name": "amountForCoFounderOne",
					"type": "uint256"
				},
				{
					"indexed": false,
					"internalType": "uint256",
					"name": "amountForCoFounderTwo",
					"type": "uint256"
				}
			],
			"name": "FeesWithdrawn",
			"type": "event"
		},
		{
			"anonymous": false,
			"inputs": [
				{
					"indexed": true,
					"internalType": "address",
					"name": "user",
					"type": "address"
				},
				{
					"indexed": true,
					"internalType": "address",
					"name": "willAddress",
					"type": "address"
				}
			],
			"name": "WillCleared",
			"type": "event"
		},
		{
			"anonymous": false,
			"inputs": [
				{
					"indexed": true,
					"internalType": "address",
					"name": "user",
					"type": "address"
				},
				{
					"indexed": true,
					"internalType": "address",
					"name": "willAddress",
					"type": "address"
				},
				{
					"indexed": false,
					"internalType": "bool",
					"name": "hasDiary",
					"type": "bool"
				}
			],
			"name": "WillCreated",
			"type": "event"
		},
		{
			"inputs": [],
			"name": "basePlatformFee",
			"outputs": [
				{
					"internalType": "uint256",
					"name": "",
					"type": "uint256"
				}
			],
			"stateMutability": "view",
			"type": "function"
		},
		{
			"inputs": [
				{
					"internalType": "address",
					"name": "_user",
					"type": "address"
				}
			],
			"name": "clearWillRecord",
			"outputs": [],
			"stateMutability": "nonpayable",
			"type": "function"
		},
		{
			"inputs": [],
			"name": "coFounderOne",
			"outputs": [
				{
					"internalType": "address",
					"name": "primary",
					"type": "address"
				},
				{
					"internalType": "address",
					"name": "secondary",
					"type": "address"
				}
			],
			"stateMutability": "view",
			"type": "function"
		},
		{
			"inputs": [],
			"name": "coFounderTwo",
			"outputs": [
				{
					"internalType": "address",
					"name": "primary",
					"type": "address"
				},
				{
					"internalType": "address",
					"name": "secondary",
					"type": "address"
				}
			],
			"stateMutability": "view",
			"type": "function"
		},
		{
			"inputs": [
				{
					"internalType": "address[]",
					"name": "heirs",
					"type": "address[]"
				},
				{
					"internalType": "uint256[]",
					"name": "distribution",
					"type": "uint256[]"
				},
				{
					"internalType": "uint256",
					"name": "interval",
					"type": "uint256"
				},
				{
					"components": [
						{
							"internalType": "address",
							"name": "tokenContract",
							"type": "address"
						},
						{
							"internalType": "uint256",
							"name": "amount",
							"type": "uint256"
						}
					],
					"internalType": "struct Will.Erc20Distribution[]",
					"name": "erc20s",
					"type": "tuple[]"
				},
				{
					"components": [
						{
							"internalType": "address",
							"name": "tokenContract",
							"type": "address"
						},
						{
							"internalType": "uint256",
							"name": "tokenId",
							"type": "uint256"
						},
						{
							"internalType": "address",
							"name": "heir",
							"type": "address"
						}
					],
					"internalType": "struct Will.NftDistribution[]",
					"name": "nfts",
					"type": "tuple[]"
				}
			],
			"name": "createWill",
			"outputs": [],
			"stateMutability": "payable",
			"type": "function"
		},
		{
			"inputs": [
				{
					"internalType": "uint256",
					"name": "interval",
					"type": "uint256"
				}
			],
			"name": "createWillDiary",
			"outputs": [],
			"stateMutability": "payable",
			"type": "function"
		},
		{
			"inputs": [],
			"name": "diaryPlatformFee",
			"outputs": [
				{
					"internalType": "uint256",
					"name": "",
					"type": "uint256"
				}
			],
			"stateMutability": "view",
			"type": "function"
		},
		{
			"inputs": [],
			"name": "executorAddress",
			"outputs": [
				{
					"internalType": "address",
					"name": "",
					"type": "address"
				}
			],
			"stateMutability": "view",
			"type": "function"
		},
		{
			"inputs": [
				{
					"internalType": "uint256",
					"name": "_newFee",
					"type": "uint256"
				}
			],
			"name": "setDiaryPlatformFee",
			"outputs": [],
			"stateMutability": "nonpayable",
			"type": "function"
		},
		{
			"inputs": [
				{
					"internalType": "address",
					"name": "_newExecutor",
					"type": "address"
				}
			],
			"name": "setExecutorAddress",
			"outputs": [],
			"stateMutability": "nonpayable",
			"type": "function"
		},
		{
			"inputs": [
				{
					"internalType": "address",
					"name": "_newPrimary",
					"type": "address"
				},
				{
					"internalType": "address",
					"name": "_newSecondary",
					"type": "address"
				}
			],
			"name": "updateCoFounderOneAddresses",
			"outputs": [],
			"stateMutability": "nonpayable",
			"type": "function"
		},
		{
			"inputs": [
				{
					"internalType": "address",
					"name": "_newPrimary",
					"type": "address"
				},
				{
					"internalType": "address",
					"name": "_newSecondary",
					"type": "address"
				}
			],
			"name": "updateCoFounderTwoAddresses",
			"outputs": [],
			"stateMutability": "nonpayable",
			"type": "function"
		},
		{
			"inputs": [
				{
					"internalType": "address",
					"name": "",
					"type": "address"
				}
			],
			"name": "userWills",
			"outputs": [
				{
					"internalType": "address",
					"name": "",
					"type": "address"
				}
			],
			"stateMutability": "view",
			"type": "function"
		},
		{
			"inputs": [],
			"name": "withdrawFees",
			"outputs": [],
			"stateMutability": "nonpayable",
			"type": "function"
		},
		{
			"stateMutability": "payable",
			"type": "receive"
		}
	]
}