{
	"data": {
		"bytecode": {
			"linkReferences": {},
			"object": "608060405234801562000010575f80fd5b5060405162003aed38038062003aed8339810160408190526200003391620001f9565b6001600160a01b038516158015906200005457506001600160a01b03841615155b80156200006957506001600160a01b03831615155b80156200007e57506001600160a01b03821615155b620000e45760405162461bcd60e51b815260206004820152602b60248201527f536f757263653a20436f2d666f756e646572206164647265737365732063616e60448201526a6e6f74206265207a65726f60a81b60648201526084015b60405180910390fd5b6040805180820182526001600160a01b038088168083528782166020938401819052600280546001600160a01b0319908116909317905560038054831690911790558351808501909452868216808552868316949093018490526004805482169093179092556005805490921690921790558116620001a65760405162461bcd60e51b815260206004820152601f60248201527f536f757263653a204578656375746f722063616e6e6f74206265207a65726f006044820152606401620000db565b600680546001600160a01b0319166001600160a01b03929092169190911790555050670429d069189e000060015550620002659050565b80516001600160a01b0381168114620001f4575f80fd5b919050565b5f805f805f60a086880312156200020e575f80fd5b6200021986620001dd565b94506200022960208701620001dd565b93506200023960408701620001dd565b92506200024960608701620001dd565b91506200025960808701620001dd565b90509295509295909350565b61387a80620002735f395ff3fe608060405260043610620000d2575f3560e01c8063a010f2a11162000086578063a8e9a539116200005e578063a8e9a5391462000253578063bf516f631462000274578063c2513f111462000298578063c2db55ea14620002bc575f80fd5b8063a010f2a114620001f4578063a1666e461462000218578063a658dd6b146200022f575f80fd5b80630983872714620000de57806325494a031462000108578063476343ee146200015157806368a4c6aa146200016a578063750a165614620001bb5780639616452314620001df575f80fd5b36620000da57005b5f80fd5b348015620000ea575f80fd5b50620000f560015481565b6040519081526020015b60405180910390f35b34801562000114575f80fd5b5060025460035462000130916001600160a01b03908116911682565b604080516001600160a01b03938416815292909116602083015201620000ff565b3480156200015d575f80fd5b5062000168620002e4565b005b34801562000176575f80fd5b50620001a26200018836600462000f45565b5f602081905290815260409020546001600160a01b031681565b6040516001600160a01b039091168152602001620000ff565b348015620001c7575f80fd5b5062000168620001d936600462000f68565b6200057b565b348015620001eb575f80fd5b50620000f55f81565b34801562000200575f80fd5b50620001686200021236600462000f68565b620006ab565b620001686200022936600462001199565b620007d4565b3480156200023b575f80fd5b50620001686200024d36600462000f45565b62000c18565b3480156200025f575f80fd5b50600654620001a2906001600160a01b031681565b34801562000280575f80fd5b50620001686200029236600462001272565b62000d3a565b348015620002a4575f80fd5b5062000168620002b636600462000f45565b62000dff565b348015620002c8575f80fd5b5060045460055462000130916001600160a01b03908116911682565b6002546001600160a01b03163314806200030857506003546001600160a01b031633145b806200031e57506004546001600160a01b031633145b806200033457506005546001600160a01b031633145b6200035c5760405162461bcd60e51b815260040162000353906200128a565b60405180910390fd5b4780620003a35760405162461bcd60e51b81526020600482015260146024820152732737903332b2b9903a37903bb4ba34323930bb9760611b604482015260640162000353565b5f6064620003b383605a620012e0565b620003bf919062001300565b90505f620003ce828462001320565b6002546040519192505f916001600160a01b039091169084908381818185875af1925050503d805f81146200041f576040519150601f19603f3d011682016040523d82523d5f602084013e62000424565b606091505b5050905080620004865760405162461bcd60e51b815260206004820152602660248201527f455448207472616e7366657220746f20436f2d466f756e646572204f6e65206660448201526530b4b632b21760d11b606482015260840162000353565b6004546040515f916001600160a01b03169084908381818185875af1925050503d805f8114620004d2576040519150601f19603f3d011682016040523d82523d5f602084013e620004d7565b606091505b5050905080620005395760405162461bcd60e51b815260206004820152602660248201527f455448207472616e7366657220746f20436f2d466f756e6465722054776f206660448201526530b4b632b21760d11b606482015260840162000353565b604080518581526020810185905233917fdeb5099d7943aa2b4c1142e5d53d2f7636aa8f7bd130ec79816f151572bcdf45910160405180910390a25050505050565b6002546001600160a01b03163314806200059f57506003546001600160a01b031633145b620005f95760405162461bcd60e51b8152602060048201526024808201527f536f757263653a2043616c6c6572206973206e6f7420436f2d466f756e646572604482015263204f6e6560e01b606482015260840162000353565b6001600160a01b038216158015906200061a57506001600160a01b03811615155b620006395760405162461bcd60e51b8152600401620003539062001336565b600280546001600160a01b038481166001600160a01b03199283168117909355600380549185169190921681179091556040805192835260208301919091526001917ff2756662321c17d77ed333bfad7f4ed60dc8e8a1c0028ce3fd5b65629d6f44ab91015b60405180910390a25050565b6004546001600160a01b0316331480620006cf57506005546001600160a01b031633145b620007295760405162461bcd60e51b8152602060048201526024808201527f536f757263653a2043616c6c6572206973206e6f7420436f2d466f756e6465726044820152632054776f60e01b606482015260840162000353565b6001600160a01b038216158015906200074a57506001600160a01b03811615155b620007695760405162461bcd60e51b8152600401620003539062001336565b600480546001600160a01b038481166001600160a01b03199283168117909355600580549185169190921681179091556040805192835260208301919091526002917ff2756662321c17d77ed333bfad7f4ed60dc8e8a1c0028ce3fd5b65629d6f44ab91016200069f565b5f81620007e2575f620007e6565b6001545b905080341015620008525760405162461bcd60e51b815260206004820152602f60248201527f4d73672e76616c7565206d75737420636f76657220746865207265717569726560448201526e3210383630ba3337b936903332b29760891b606482015260840162000353565b335f908152602081905260409020546001600160a01b031615620008c45760405162461bcd60e51b815260206004820152602260248201527f5573657220616c72656164792068617320616e206578697374696e672077696c604482015261361760f11b606482015260840162000353565b5f620008d1823462001320565b90505f81338a30868860065f9054906101000a90046001600160a01b0316604051620008fd9062000f1b565b6001600160a01b0396871681526020810195909552928516604085015260608401919091521515608083015290911660a082015260c0016040518091039082f090508015801562000950573d5f803e3d5ffd5b50335f908152602081905260409081902080546001600160a01b0319166001600160a01b038416908117909155905163abe21b5960e01b81529192509063abe21b5990620009ad908e908e908d908d908d908d906004016200142d565b5f604051808303815f87803b158015620009c5575f80fd5b505af1158015620009d8573d5f803e3d5ffd5b505050505f5b8781101562000aee575f898983818110620009fd57620009fd620014e3565b90506040020160200135111562000ae55788888281811062000a235762000a23620014e3565b62000a3b926020604090920201908101915062000f45565b6001600160a01b03166323b872dd33848c8c8681811062000a605762000a60620014e3565b6040805160e088901b6001600160e01b03191681526001600160a01b0396871660048201529490951660248501529093020160200135604482015260640190506020604051808303815f875af115801562000abd573d5f803e3d5ffd5b505050506040513d601f19601f8201168201806040525081019062000ae39190620014f7565b505b600101620009de565b505f5b8581101562000bc85786868281811062000b0f5762000b0f620014e3565b62000b27926020606090920201908101915062000f45565b6001600160a01b03166323b872dd33848a8a8681811062000b4c5762000b4c620014e3565b6040516001600160e01b031960e088901b1681526001600160a01b039586166004820152949093166024850152506020606090920201013560448201526064015f604051808303815f87803b15801562000ba4575f80fd5b505af115801562000bb7573d5f803e3d5ffd5b50506001909201915062000af19050565b5060405184151581526001600160a01b0382169033907fd94b8d77522fc436b0bdfa0909a24735541697f55e4ff15f693d401e8dd9cf689060200160405180910390a35050505050505050505050565b6001600160a01b038082165f90815260208190526040902054168062000c815760405162461bcd60e51b815260206004820152601c60248201527f4e6f2077696c6c20666f756e6420666f72207468697320757365722e00000000604482015260640162000353565b336001600160a01b0382161462000ce65760405162461bcd60e51b815260206004820152602260248201527f43616c6c6572206973206e6f742074686520726567697374657265642077696c604482015261361760f11b606482015260840162000353565b6001600160a01b038083165f8181526020819052604080822080546001600160a01b031916905551928416927f24c44eb8275b2359785575db44a95eb6b553cf6939b59528954e64756f23acab9190a35050565b6002546001600160a01b031633148062000d5e57506003546001600160a01b031633145b8062000d7457506004546001600160a01b031633145b8062000d8a57506005546001600160a01b031633145b8062000da057506006546001600160a01b031633145b62000dfa5760405162461bcd60e51b815260206004820152602360248201527f536f757263653a2043616c6c65722063616e6e6f74207365742064696172792060448201526266656560e81b606482015260840162000353565b600155565b6002546001600160a01b031633148062000e2357506003546001600160a01b031633145b8062000e3957506004546001600160a01b031633145b8062000e4f57506005546001600160a01b031633145b62000e6e5760405162461bcd60e51b815260040162000353906200128a565b6001600160a01b03811662000ed25760405162461bcd60e51b815260206004820152602360248201527f536f757263653a204e6577206578656375746f722063616e6e6f74206265207a60448201526265726f60e81b606482015260840162000353565b600680546001600160a01b0319166001600160a01b0383169081179091556040517fa5cbf15053a72004f628487ca44b7fea1537b628ee203354d256eb80e308efa8905f90a250565b61232f806200151683390190565b80356001600160a01b038116811462000f40575f80fd5b919050565b5f6020828403121562000f56575f80fd5b62000f618262000f29565b9392505050565b5f806040838503121562000f7a575f80fd5b62000f858362000f29565b915062000f956020840162000f29565b90509250929050565b634e487b7160e01b5f52604160045260245ffd5b604051601f8201601f1916810167ffffffffffffffff8111828210171562000fde5762000fde62000f9e565b604052919050565b5f67ffffffffffffffff82111562001002576200100262000f9e565b5060051b60200190565b5f82601f8301126200101c575f80fd5b81356020620010356200102f8362000fe6565b62000fb2565b8083825260208201915060208460051b87010193508684111562001057575f80fd5b602086015b848110156200107e57620010708162000f29565b83529183019183016200105c565b509695505050505050565b5f82601f83011262001099575f80fd5b81356020620010ac6200102f8362000fe6565b8083825260208201915060208460051b870101935086841115620010ce575f80fd5b602086015b848110156200107e5780358352918301918301620010d3565b5f8083601f840112620010fd575f80fd5b50813567ffffffffffffffff81111562001115575f80fd5b6020830191508360208260061b850101111562001130575f80fd5b9250929050565b5f8083601f84011262001148575f80fd5b50813567ffffffffffffffff81111562001160575f80fd5b60208301915083602060608302850101111562001130575f80fd5b801515811462001189575f80fd5b50565b803562000f40816200117b565b5f805f805f805f8060c0898b031215620011b1575f80fd5b883567ffffffffffffffff80821115620011c9575f80fd5b620011d78c838d016200100c565b995060208b0135915080821115620011ed575f80fd5b620011fb8c838d0162001089565b985060408b0135975060608b013591508082111562001218575f80fd5b620012268c838d01620010ec565b909750955060808b01359150808211156200123f575f80fd5b506200124e8b828c0162001137565b909450925062001263905060a08a016200118c565b90509295985092959890939650565b5f6020828403121562001283575f80fd5b5035919050565b60208082526022908201527f536f757263653a2043616c6c6572206973206e6f74206120636f2d666f756e6460408201526132b960f11b606082015260800190565b634e487b7160e01b5f52601160045260245ffd5b8082028115828204841417620012fa57620012fa620012cc565b92915050565b5f826200131b57634e487b7160e01b5f52601260045260245ffd5b500490565b81810381811115620012fa57620012fa620012cc565b60208082526024908201527f536f757263653a204e6577206164647265737365732063616e6e6f74206265206040820152637a65726f60e01b606082015260800190565b8183525f60208085019450825f5b85811015620013c2576001600160a01b03620013a48362000f29565b16875281830135838801526040968701969091019060010162001388565b509495945050505050565b8183525f60208085019450825f5b85811015620013c2576001600160a01b0380620013f88462000f29565b16885283830135848901526040816200141382860162000f29565b1690890152506060968701969190910190600101620013db565b608080825287519082018190525f9060209060a0840190828b01845b82811015620014705781516001600160a01b03168452928401929084019060010162001449565b505050838103828501528851808252898301918301905f5b81811015620014a65783518352928401929184019160010162001488565b50508481036040860152620014bd81898b6200137a565b925050508281036060840152620014d6818587620013cd565b9998505050505050505050565b634e487b7160e01b5f52603260045260245ffd5b5f6020828403121562001508575f80fd5b815162000f61816200117b56fe6101206040526040516200232f3803806200232f8339810160408190526200002791620000fc565b856001600160a01b0381166200005657604051631e4fbdf760e01b81525f600482015260240160405180910390fd5b620000618162000091565b50600180556080949094526001600160a01b0392831660a05260c091909152151560e0521661010052506200016c565b5f80546001600160a01b038381166001600160a01b0319831681178455604051919092169283917f8be0079c531659141344cd1fd0a4f28419497f9722a3daafe3b4186f6b6457e09190a35050565b80516001600160a01b0381168114620000f7575f80fd5b919050565b5f805f805f8060c0878903121562000112575f80fd5b6200011d87620000e0565b9550602087015194506200013460408801620000e0565b9350606087015192506080870151801515811462000150575f80fd5b91506200016060a08801620000e0565b90509295509295509295565b60805160a05160c05160e0516101005161212a620002055f395f818161023901526104e401525f81816102f5015261178201525f818161027c01528181610bb201528181610bd801528181610c81015261103501525f8181610212015281816105c801528181610c5701528181610d54015261110b01525f81816101eb0152818161044301528181610581015261173e015261212a5ff3fe608060405234801561000f575f80fd5b5060043610610127575f3560e01c8063947a36fb116100a9578063c7c85baa1161006e578063c7c85baa14610277578063cc4f9d5b1461029e578063e15724a5146102b3578063eed35fea146102f0578063f2fde38b14610317575f80fd5b8063947a36fb146101e6578063a444ae411461020d578063a8e9a53914610234578063abe21b591461025b578063c04637111461026e575f80fd5b806361461954116100ef57806361461954146101ab5780636b892b22146101b3578063715018a6146101bb5780638da5cb5b146101c35780639379f517146101d3575f80fd5b80631c0795c31461012b5780631f99966a1461015b5780632395d9751461017c57806331a38c89146101845780635c36b186146101a1575b5f80fd5b61013e610139366004611a38565b61032a565b6040516001600160a01b0390911681526020015b60405180910390f35b61016e610169366004611a38565b610352565b604051908152602001610152565b61016e603281565b6002546101919060ff1681565b6040519015158152602001610152565b6101a9610371565b005b6101a9610410565b6101a9610b32565b6101a961108b565b5f546001600160a01b031661013e565b61013e6101e1366004611a38565b61109e565b61016e7f000000000000000000000000000000000000000000000000000000000000000081565b61013e7f000000000000000000000000000000000000000000000000000000000000000081565b61013e7f000000000000000000000000000000000000000000000000000000000000000081565b6101a9610269366004611ca8565b6110ad565b61016e60035481565b61016e7f000000000000000000000000000000000000000000000000000000000000000081565b6102a6611463565b6040516101529190611eae565b6102c66102c1366004611a38565b611871565b604080516001600160a01b0394851681526020810193909352921691810191909152606001610152565b6101917f000000000000000000000000000000000000000000000000000000000000000081565b6101a9610325366004611f8a565b6118ad565b60048181548110610339575f80fd5b5f918252602090912001546001600160a01b0316905081565b60058181548110610361575f80fd5b5f91825260209091200154905081565b60025460ff161561039d5760405162461bcd60e51b815260040161039490611faa565b60405180910390fd5b336103af5f546001600160a01b031690565b6001600160a01b0316146103d55760405162461bcd60e51b815260040161039490611fee565b4260038190556040519081527f48257dc961b6f792c2b78a080dacfed693b660960a702de21cee364e20270e2f9060200160405180910390a1565b6104186118ea565b600260018190555460ff16156104405760405162461bcd60e51b815260040161039490611faa565b5f7f000000000000000000000000000000000000000000000000000000000000000060035461046f9190612048565b9050804210156104c15760405162461bcd60e51b815260206004820152601b60248201527f477261636520706572696f6420686173206e6f7420656e6465642e00000000006044820152606401610394565b5f6104cf6201518083612048565b90508042101561056957336001600160a01b037f000000000000000000000000000000000000000000000000000000000000000016146105695760405162461bcd60e51b815260206004820152602f60248201527f4f6e6c79207468652064657369676e61746564206578656375746f722063616e60448201526e1031b0b636103a3434b9903737bb9760891b6064820152608401610394565b6002805460ff191660011790556003545f906105a6907f000000000000000000000000000000000000000000000000000000000000000090612048565b90505f6105b66201518083612048565b90505f8142106105c657336105e8565b7f00000000000000000000000000000000000000000000000000000000000000005b90505f4780156107d6575f612710610601603284612061565b61060b9190612078565b92508290505f61061b8284612097565b905081156106c4575f856001600160a01b0316836040515f6040518083038185875af1925050503d805f811461066c576040519150601f19603f3d011682016040523d82523d5f602084013e610671565b606091505b50509050806106c25760405162461bcd60e51b815260206004820152601860248201527f45544820666565207472616e73666572206661696c65642e00000000000000006044820152606401610394565b505b5f5b6004548110156107d2575f6064600583815481106106e6576106e66120aa565b905f5260205f200154846106fa9190612061565b6107049190612078565b905080156107c9575f60048381548110610720576107206120aa565b5f9182526020822001546040516001600160a01b039091169184919081818185875af1925050503d805f8114610771576040519150601f19603f3d011682016040523d82523d5f602084013e610776565b606091505b50509050806107c75760405162461bcd60e51b815260206004820152601c60248201527f455448207472616e7366657220746f2068656972206661696c65642e000000006044820152606401610394565b505b506001016106c6565b5050505b5f5b600654811015610a0e575f600682815481106107f6576107f66120aa565b5f9182526020822001546040516370a0823160e01b81523060048201526001600160a01b03909116925082906370a0823190602401602060405180830381865afa158015610846573d5f803e3d5ffd5b505050506040513d601f19601f8201168201806040525081019061086a91906120be565b90508015610a04575f612710610881603284612061565b61088b9190612078565b90505f6108988284612097565b905081156109125760405163a9059cbb60e01b81526001600160a01b0389811660048301526024820184905285169063a9059cbb906044016020604051808303815f875af11580156108ec573d5f803e3d5ffd5b505050506040513d601f19601f8201168201806040525081019061091091906120d5565b505b5f5b600454811015610a00575f606460058381548110610934576109346120aa565b905f5260205f200154846109489190612061565b6109529190612078565b905080156109f757856001600160a01b031663a9059cbb6004848154811061097c5761097c6120aa565b5f9182526020909120015460405160e083901b6001600160e01b03191681526001600160a01b039091166004820152602481018490526044016020604051808303815f875af11580156109d1573d5f803e3d5ffd5b505050506040513d601f19601f820116820180604052508101906109f591906120d5565b505b50600101610914565b5050505b50506001016107d8565b505f5b600754811015610adc575f60078281548110610a2f57610a2f6120aa565b5f9182526020918290206040805160608101825260039390930290910180546001600160a01b039081168085526001830154958501869052600290920154168383018190529151632142170760e11b8152306004820152602481019290925260448201939093529092506342842e0e906064015f604051808303815f87803b158015610ab9575f80fd5b505af1158015610acb573d5f803e3d5ffd5b505060019093019250610a11915050565b5060408051338152602081018490526001600160a01b0385168183015290517f52ba16c8b985eff690a9de92094bd7486f89340e06e385ffb26de9c6eea384dc9181900360600190a15050600180555050505050565b60025460ff1615610b555760405162461bcd60e51b815260040161039490611faa565b33610b675f546001600160a01b031690565b6001600160a01b031614610b8d5760405162461bcd60e51b815260040161039490611fee565b610b956118ea565b60026001818155815460ff19161790555f546001600160a01b03167f000000000000000000000000000000000000000000000000000000000000000015610d35577f0000000000000000000000000000000000000000000000000000000000000000471015610c545760405162461bcd60e51b815260206004820152602560248201527f496e73756666696369656e742045544820666f72207465726d696e6174696f6e604482015264103332b29760d91b6064820152608401610394565b5f7f00000000000000000000000000000000000000000000000000000000000000006001600160a01b03167f00000000000000000000000000000000000000000000000000000000000000006040515f6040518083038185875af1925050503d805f8114610cdd576040519150601f19603f3d011682016040523d82523d5f602084013e610ce2565b606091505b5050905080610d335760405162461bcd60e51b815260206004820181905260248201527f5465726d696e6174696f6e20666565207472616e73666572206661696c65642e6044820152606401610394565b505b60405163a658dd6b60e01b81526001600160a01b0382811660048301527f0000000000000000000000000000000000000000000000000000000000000000169063a658dd6b906024015f604051808303815f87803b158015610d95575f80fd5b505af1158015610da7573d5f803e3d5ffd5b505050505f5b600654811015610ec3575f60068281548110610dcb57610dcb6120aa565b5f9182526020822001546040516370a0823160e01b81523060048201526001600160a01b03909116925082906370a0823190602401602060405180830381865afa158015610e1b573d5f803e3d5ffd5b505050506040513d601f19601f82011682018060405250810190610e3f91906120be565b90508015610eb95760405163a9059cbb60e01b81526001600160a01b0385811660048301526024820183905283169063a9059cbb906044016020604051808303815f875af1158015610e93573d5f803e3d5ffd5b505050506040513d601f19601f82011682018060405250810190610eb791906120d5565b505b5050600101610dad565b505f5b600754811015610f90575f60078281548110610ee457610ee46120aa565b5f9182526020918290206040805160608101825260039390930290910180546001600160a01b0390811680855260018301549585018690526002909201548116848401529151632142170760e11b8152306004820152918716602483015260448201939093529092506342842e0e906064015f604051808303815f87803b158015610f6d575f80fd5b505af1158015610f7f573d5f803e3d5ffd5b505060019093019250610ec6915050565b50478015611030575f826001600160a01b0316826040515f6040518083038185875af1925050503d805f8114610fe1576040519150601f19603f3d011682016040523d82523d5f602084013e610fe6565b606091505b505090508061102e5760405162461bcd60e51b815260206004820152601460248201527322aa24103a3930b739b332b9103330b4b632b21760611b6044820152606401610394565b505b6040517f000000000000000000000000000000000000000000000000000000000000000081527fc41d93b8bfbf9fd7cf5bfe271fd649ab6a6fec0ea101c23b82a2a28eca2533a99060200160405180910390a1505060018055565b61109361190d565b61109c5f611939565b565b60068181548110610339575f80fd5b60085460ff16156111005760405162461bcd60e51b815260206004820152601960248201527f57696c6c3a20616c726561647920696e697469616c697a6564000000000000006044820152606401610394565b336001600160a01b037f000000000000000000000000000000000000000000000000000000000000000016146111785760405162461bcd60e51b815260206004820152601b60248201527f57696c6c3a206e6f742063616c6c656420627920666163746f727900000000006044820152606401610394565b6008805460ff1916600117905582518451146111e75760405162461bcd60e51b815260206004820152602860248201527f486569727320616e6420646973747269627574696f6e73206c656e677468206d60448201526734b9b6b0ba31b41760c11b6064820152608401610394565b5f8451116112305760405162461bcd60e51b81526020600482015260166024820152752432b4b9399031b0b73737ba1031329032b6b83a3c9760511b6044820152606401610394565b5f805b845181101561126b5784818151811061124e5761124e6120aa565b6020026020010151826112619190612048565b9150600101611233565b50806064146112ce5760405162461bcd60e51b815260206004820152602960248201527f446973747269627574696f6e2070657263656e7461676573206d75737420737560448201526836903a37901898181760b91b6064820152608401610394565b4260035584516112e5906004906020880190611988565b5083516112f99060059060208701906119eb565b505f5b83518110156113725760066040518060200160405280868481518110611324576113246120aa565b602090810291909101810151516001600160a01b039081169092528354600180820186555f9586529190942092519290930180546001600160a01b03191692909116919091179055016112fc565b505f5b825181101561145b576007604051806060016040528085848151811061139d5761139d6120aa565b60200260200101515f01516001600160a01b031681526020018584815181106113c8576113c86120aa565b60200260200101516020015181526020018584815181106113eb576113eb6120aa565b6020908102919091018101516040908101516001600160a01b039081169093528454600180820187555f96875295839020855160039092020180546001600160a01b0319908116928616929092178155928501518387015593015160029091018054909316911617905501611375565b505050505050565b6114c06040518061014001604052805f6001600160a01b031681526020015f81526020015f81526020015f151581526020015f151581526020015f8152602001606081526020016060815260200160608152602001606081525090565b6006545f9067ffffffffffffffff8111156114dd576114dd611a4f565b60405190808252806020026020018201604052801561152157816020015b604080518082019091525f80825260208201528152602001906001900390816114fb5790505b5090505f5b6006548110156115f4575f60068281548110611544576115446120aa565b5f91825260209182902001546040805180820182526001600160a01b0390921680835290516370a0823160e01b8152306004820152909350909182019083906370a0823190602401602060405180830381865afa1580156115a7573d5f803e3d5ffd5b505050506040513d601f19601f820116820180604052508101906115cb91906120be565b8152508383815181106115e0576115e06120aa565b602090810291909101015250600101611526565b506007545f9067ffffffffffffffff81111561161257611612611a4f565b60405190808252806020026020018201604052801561165b57816020015b604080516060810182525f80825260208083018290529282015282525f199092019101816116305790505b5090505f5b600754811015611710575f6007828154811061167e5761167e6120aa565b5f9182526020918290206040805160608082018352600390940290920180546001600160a01b039081168452600182015484870190815260029092015481168484019081528351958601845284518216865291519585019590955251909316928201929092528451919250908490849081106116fc576116fc6120aa565b602090810291909101015250600101611660565b5060405180610140016040528061172e5f546001600160a01b031690565b6001600160a01b031681526020017f00000000000000000000000000000000000000000000000000000000000000008152602001600354815260200160025f9054906101000a900460ff16151581526020017f000000000000000000000000000000000000000000000000000000000000000015158152602001478152602001600480548060200260200160405190810160405280929190818152602001828054801561180257602002820191905f5260205f20905b81546001600160a01b031681526001909101906020018083116117e4575b50505050508152602001600580548060200260200160405190810160405280929190818152602001828054801561185657602002820191905f5260205f20905b815481526020019060010190808311611842575b50505050508152602001838152602001828152509250505090565b60078181548110611880575f80fd5b5f9182526020909120600390910201805460018201546002909201546001600160a01b0391821693501683565b6118b561190d565b6001600160a01b0381166118de57604051631e4fbdf760e01b81525f6004820152602401610394565b6118e781611939565b50565b60026001540361109c57604051633ee5aeb560e01b815260040160405180910390fd5b5f546001600160a01b0316331461109c5760405163118cdaa760e01b8152336004820152602401610394565b5f80546001600160a01b038381166001600160a01b0319831681178455604051919092169283917f8be0079c531659141344cd1fd0a4f28419497f9722a3daafe3b4186f6b6457e09190a35050565b828054828255905f5260205f209081019282156119db579160200282015b828111156119db57825182546001600160a01b0319166001600160a01b039091161782556020909201916001909101906119a6565b506119e7929150611a24565b5090565b828054828255905f5260205f209081019282156119db579160200282015b828111156119db578251825591602001919060010190611a09565b5b808211156119e7575f8155600101611a25565b5f60208284031215611a48575f80fd5b5035919050565b634e487b7160e01b5f52604160045260245ffd5b6040805190810167ffffffffffffffff81118282101715611a8657611a86611a4f565b60405290565b6040516060810167ffffffffffffffff81118282101715611a8657611a86611a4f565b604051601f8201601f1916810167ffffffffffffffff81118282101715611ad857611ad8611a4f565b604052919050565b5f67ffffffffffffffff821115611af957611af9611a4f565b5060051b60200190565b80356001600160a01b0381168114611b19575f80fd5b919050565b5f82601f830112611b2d575f80fd5b81356020611b42611b3d83611ae0565b611aaf565b8083825260208201915060208460051b870101935086841115611b63575f80fd5b602086015b84811015611b7f5780358352918301918301611b68565b509695505050505050565b5f82601f830112611b99575f80fd5b81356020611ba9611b3d83611ae0565b82815260069290921b84018101918181019086841115611bc7575f80fd5b8286015b84811015611b7f5760408189031215611be2575f80fd5b611bea611a63565b611bf382611b03565b81528185013585820152835291830191604001611bcb565b5f82601f830112611c1a575f80fd5b81356020611c2a611b3d83611ae0565b82815260609283028501820192828201919087851115611c48575f80fd5b8387015b85811015611c9b5781818a031215611c62575f80fd5b611c6a611a8c565b611c7382611b03565b815285820135868201526040611c8a818401611b03565b908201528452928401928101611c4c565b5090979650505050505050565b5f805f8060808587031215611cbb575f80fd5b843567ffffffffffffffff80821115611cd2575f80fd5b818701915087601f830112611ce5575f80fd5b81356020611cf5611b3d83611ae0565b82815260059290921b8401810191818101908b841115611d13575f80fd5b948201945b83861015611d3857611d2986611b03565b82529482019490820190611d18565b98505088013592505080821115611d4d575f80fd5b611d5988838901611b1e565b94506040870135915080821115611d6e575f80fd5b611d7a88838901611b8a565b93506060870135915080821115611d8f575f80fd5b50611d9c87828801611c0b565b91505092959194509250565b5f815180845260208085019450602084015f5b83811015611de05781516001600160a01b031687529582019590820190600101611dbb565b509495945050505050565b5f815180845260208085019450602084015f5b83811015611de057815187529582019590820190600101611dfe565b5f815180845260208085019450602084015f5b83811015611de057815180516001600160a01b031688528301518388015260409096019590820190600101611e2d565b5f815180845260208085019450602084015f5b83811015611de057815180516001600160a01b03908116895284820151858a0152604091820151169088015260609096019590820190600101611e70565b60208152611ec86020820183516001600160a01b03169052565b60208201516040820152604082015160608201525f6060830151611ef0608084018215159052565b50608083015180151560a08401525060a083015160c083015260c08301516101408060e0850152611f25610160850183611da8565b915060e0850151601f19610100818786030181880152611f458584611deb565b945080880151925050610120818786030181880152611f648584611e1a565b908801518782039092018488015293509050611f808382611e5d565b9695505050505050565b5f60208284031215611f9a575f80fd5b611fa382611b03565b9392505050565b60208082526024908201527f57696c6c20686173206265656e206578656375746564206f722063616e63656c6040820152633632b21760e11b606082015260800190565b60208082526026908201527f4f6e6c7920746865206f776e65722063616e2063616c6c20746869732066756e60408201526531ba34b7b71760d11b606082015260800190565b634e487b7160e01b5f52601160045260245ffd5b8082018082111561205b5761205b612034565b92915050565b808202811582820484141761205b5761205b612034565b5f8261209257634e487b7160e01b5f52601260045260245ffd5b500490565b8181038181111561205b5761205b612034565b634e487b7160e01b5f52603260045260245ffd5b5f602082840312156120ce575f80fd5b5051919050565b5f602082840312156120e5575f80fd5b81518015158114611fa3575f80fdfea26469706673582212204fb0e8bbbf8280d99906b9526b26aadc5c63063f0a9c1112b70563a96164275a64736f6c63430008180033a264697066735822122028b3b94a5d986350779f418cb2decc1d22ab336dacaa77f46926c5e2741024ef64736f6c63430008180033",
			"opcodes": "PUSH1 0x80 PUSH1 0x40 MSTORE CALLVALUE DUP1 ISZERO PUSH3 0x10 JUMPI PUSH0 DUP1 REVERT JUMPDEST POP PUSH1 0x40 MLOAD PUSH3 0x3AED CODESIZE SUB DUP1 PUSH3 0x3AED DUP4 CODECOPY DUP2 ADD PUSH1 0x40 DUP2 SWAP1 MSTORE PUSH3 0x33 SWAP2 PUSH3 0x1F9 JUMP JUMPDEST PUSH1 0x1 PUSH1 0x1 PUSH1 0xA0 SHL SUB DUP6 AND ISZERO DUP1 ISZERO SWAP1 PUSH3 0x54 JUMPI POP PUSH1 0x1 PUSH1 0x1 PUSH1 0xA0 SHL SUB DUP5 AND ISZERO ISZERO JUMPDEST DUP1 ISZERO PUSH3 0x69 JUMPI POP PUSH1 0x1 PUSH1 0x1 PUSH1 0xA0 SHL SUB DUP4 AND ISZERO ISZERO JUMPDEST DUP1 ISZERO PUSH3 0x7E JUMPI POP PUSH1 0x1 PUSH1 0x1 PUSH1 0xA0 SHL SUB DUP3 AND ISZERO ISZERO JUMPDEST PUSH3 0xE4 JUMPI PUSH1 0x40 MLOAD PUSH3 0x461BCD PUSH1 0xE5 SHL DUP2 MSTORE PUSH1 0x20 PUSH1 0x4 DUP3 ADD MSTORE PUSH1 0x2B PUSH1 0x24 DUP3 ADD MSTORE PUSH32 0x536F757263653A20436F2D666F756E646572206164647265737365732063616E PUSH1 0x44 DUP3 ADD MSTORE PUSH11 0x6E6F74206265207A65726F PUSH1 0xA8 SHL PUSH1 0x64 DUP3 ADD MSTORE PUSH1 0x84 ADD JUMPDEST PUSH1 0x40 MLOAD DUP1 SWAP2 SUB SWAP1 REVERT JUMPDEST PUSH1 0x40 DUP1 MLOAD DUP1 DUP3 ADD DUP3 MSTORE PUSH1 0x1 PUSH1 0x1 PUSH1 0xA0 SHL SUB DUP1 DUP9 AND DUP1 DUP4 MSTORE DUP8 DUP3 AND PUSH1 0x20 SWAP4 DUP5 ADD DUP2 SWAP1 MSTORE PUSH1 0x2 DUP1 SLOAD PUSH1 0x1 PUSH1 0x1 PUSH1 0xA0 SHL SUB NOT SWAP1 DUP2 AND SWAP1 SWAP4 OR SWAP1 SSTORE PUSH1 0x3 DUP1 SLOAD DUP4 AND SWAP1 SWAP2 OR SWAP1 SSTORE DUP4 MLOAD DUP1 DUP6 ADD SWAP1 SWAP5 MSTORE DUP7 DUP3 AND DUP1 DUP6 MSTORE DUP7 DUP4 AND SWAP5 SWAP1 SWAP4 ADD DUP5 SWAP1 MSTORE PUSH1 0x4 DUP1 SLOAD DUP3 AND SWAP1 SWAP4 OR SWAP1 SWAP3 SSTORE PUSH1 0x5 DUP1 SLOAD SWAP1 SWAP3 AND SWAP1 SWAP3 OR SWAP1 SSTORE DUP2 AND PUSH3 0x1A6 JUMPI PUSH1 0x40 MLOAD PUSH3 0x461BCD PUSH1 0xE5 SHL DUP2 MSTORE PUSH1 0x20 PUSH1 0x4 DUP3 ADD MSTORE PUSH1 0x1F PUSH1 0x24 DUP3 ADD MSTORE PUSH32 0x536F757263653A204578656375746F722063616E6E6F74206265207A65726F00 PUSH1 0x44 DUP3 ADD MSTORE PUSH1 0x64 ADD PUSH3 0xDB JUMP JUMPDEST PUSH1 0x6 DUP1 SLOAD PUSH1 0x1 PUSH1 0x1 PUSH1 0xA0 SHL SUB NOT AND PUSH1 0x1 PUSH1 0x1 PUSH1 0xA0 SHL SUB SWAP3 SWAP1 SWAP3 AND SWAP2 SWAP1 SWAP2 OR SWAP1 SSTORE POP POP PUSH8 0x429D069189E0000 PUSH1 0x1 SSTORE POP PUSH3 0x265 SWAP1 POP JUMP JUMPDEST DUP1 MLOAD PUSH1 0x1 PUSH1 0x1 PUSH1 0xA0 SHL SUB DUP2 AND DUP2 EQ PUSH3 0x1F4 JUMPI PUSH0 DUP1 REVERT JUMPDEST SWAP2 SWAP1 POP JUMP JUMPDEST PUSH0 DUP1 PUSH0 DUP1 PUSH0 PUSH1 0xA0 DUP7 DUP9 SUB SLT ISZERO PUSH3 0x20E JUMPI PUSH0 DUP1 REVERT JUMPDEST PUSH3 0x219 DUP7 PUSH3 0x1DD JUMP JUMPDEST SWAP5 POP PUSH3 0x229 PUSH1 0x20 DUP8 ADD PUSH3 0x1DD JUMP JUMPDEST SWAP4 POP PUSH3 0x239 PUSH1 0x40 DUP8 ADD PUSH3 0x1DD JUMP JUMPDEST SWAP3 POP PUSH3 0x249 PUSH1 0x60 DUP8 ADD PUSH3 0x1DD JUMP JUMPDEST SWAP2 POP PUSH3 0x259 PUSH1 0x80 DUP8 ADD PUSH3 0x1DD JUMP JUMPDEST SWAP1 POP SWAP3 SWAP6 POP SWAP3 SWAP6 SWAP1 SWAP4 POP JUMP JUMPDEST PUSH2 0x387A DUP1 PUSH3 0x273 PUSH0 CODECOPY PUSH0 RETURN INVALID PUSH1 0x80 PUSH1 0x40 MSTORE PUSH1 0x4 CALLDATASIZE LT PUSH3 0xD2 JUMPI PUSH0 CALLDATALOAD PUSH1 0xE0 SHR DUP1 PUSH4 0xA010F2A1 GT PUSH3 0x86 JUMPI DUP1 PUSH4 0xA8E9A539 GT PUSH3 0x5E JUMPI DUP1 PUSH4 0xA8E9A539 EQ PUSH3 0x253 JUMPI DUP1 PUSH4 0xBF516F63 EQ PUSH3 0x274 JUMPI DUP1 PUSH4 0xC2513F11 EQ PUSH3 0x298 JUMPI DUP1 PUSH4 0xC2DB55EA EQ PUSH3 0x2BC JUMPI PUSH0 DUP1 REVERT JUMPDEST DUP1 PUSH4 0xA010F2A1 EQ PUSH3 0x1F4 JUMPI DUP1 PUSH4 0xA1666E46 EQ PUSH3 0x218 JUMPI DUP1 PUSH4 0xA658DD6B EQ PUSH3 0x22F JUMPI PUSH0 DUP1 REVERT JUMPDEST DUP1 PUSH4 0x9838727 EQ PUSH3 0xDE JUMPI DUP1 PUSH4 0x25494A03 EQ PUSH3 0x108 JUMPI DUP1 PUSH4 0x476343EE EQ PUSH3 0x151 JUMPI DUP1 PUSH4 0x68A4C6AA EQ PUSH3 0x16A JUMPI DUP1 PUSH4 0x750A1656 EQ PUSH3 0x1BB JUMPI DUP1 PUSH4 0x96164523 EQ PUSH3 0x1DF JUMPI PUSH0 DUP1 REVERT JUMPDEST CALLDATASIZE PUSH3 0xDA JUMPI STOP JUMPDEST PUSH0 DUP1 REVERT JUMPDEST CALLVALUE DUP1 ISZERO PUSH3 0xEA JUMPI PUSH0 DUP1 REVERT JUMPDEST POP PUSH3 0xF5 PUSH1 0x1 SLOAD DUP2 JUMP JUMPDEST PUSH1 0x40 MLOAD SWAP1 DUP2 MSTORE PUSH1 0x20 ADD JUMPDEST PUSH1 0x40 MLOAD DUP1 SWAP2 SUB SWAP1 RETURN JUMPDEST CALLVALUE DUP1 ISZERO PUSH3 0x114 JUMPI PUSH0 DUP1 REVERT JUMPDEST POP PUSH1 0x2 SLOAD PUSH1 0x3 SLOAD PUSH3 0x130 SWAP2 PUSH1 0x1 PUSH1 0x1 PUSH1 0xA0 SHL SUB SWAP1 DUP2 AND SWAP2 AND DUP3 JUMP JUMPDEST PUSH1 0x40 DUP1 MLOAD PUSH1 0x1 PUSH1 0x1 PUSH1 0xA0 SHL SUB SWAP4 DUP5 AND DUP2 MSTORE SWAP3 SWAP1 SWAP2 AND PUSH1 0x20 DUP4 ADD MSTORE ADD PUSH3 0xFF JUMP JUMPDEST CALLVALUE DUP1 ISZERO PUSH3 0x15D JUMPI PUSH0 DUP1 REVERT JUMPDEST POP PUSH3 0x168 PUSH3 0x2E4 JUMP JUMPDEST STOP JUMPDEST CALLVALUE DUP1 ISZERO PUSH3 0x176 JUMPI PUSH0 DUP1 REVERT JUMPDEST POP PUSH3 0x1A2 PUSH3 0x188 CALLDATASIZE PUSH1 0x4 PUSH3 0xF45 JUMP JUMPDEST PUSH0 PUSH1 0x20 DUP2 SWAP1 MSTORE SWAP1 DUP2 MSTORE PUSH1 0x40 SWAP1 KECCAK256 SLOAD PUSH1 0x1 PUSH1 0x1 PUSH1 0xA0 SHL SUB AND DUP2 JUMP JUMPDEST PUSH1 0x40 MLOAD PUSH1 0x1 PUSH1 0x1 PUSH1 0xA0 SHL SUB SWAP1 SWAP2 AND DUP2 MSTORE PUSH1 0x20 ADD PUSH3 0xFF JUMP JUMPDEST CALLVALUE DUP1 ISZERO PUSH3 0x1C7 JUMPI PUSH0 DUP1 REVERT JUMPDEST POP PUSH3 0x168 PUSH3 0x1D9 CALLDATASIZE PUSH1 0x4 PUSH3 0xF68 JUMP JUMPDEST PUSH3 0x57B JUMP JUMPDEST CALLVALUE DUP1 ISZERO PUSH3 0x1EB JUMPI PUSH0 DUP1 REVERT JUMPDEST POP PUSH3 0xF5 PUSH0 DUP2 JUMP JUMPDEST CALLVALUE DUP1 ISZERO PUSH3 0x200 JUMPI PUSH0 DUP1 REVERT JUMPDEST POP PUSH3 0x168 PUSH3 0x212 CALLDATASIZE PUSH1 0x4 PUSH3 0xF68 JUMP JUMPDEST PUSH3 0x6AB JUMP JUMPDEST PUSH3 0x168 PUSH3 0x229 CALLDATASIZE PUSH1 0x4 PUSH3 0x1199 JUMP JUMPDEST PUSH3 0x7D4 JUMP JUMPDEST CALLVALUE DUP1 ISZERO PUSH3 0x23B JUMPI PUSH0 DUP1 REVERT JUMPDEST POP PUSH3 0x168 PUSH3 0x24D CALLDATASIZE PUSH1 0x4 PUSH3 0xF45 JUMP JUMPDEST PUSH3 0xC18 JUMP JUMPDEST CALLVALUE DUP1 ISZERO PUSH3 0x25F JUMPI PUSH0 DUP1 REVERT JUMPDEST POP PUSH1 0x6 SLOAD PUSH3 0x1A2 SWAP1 PUSH1 0x1 PUSH1 0x1 PUSH1 0xA0 SHL SUB AND DUP2 JUMP JUMPDEST CALLVALUE DUP1 ISZERO PUSH3 0x280 JUMPI PUSH0 DUP1 REVERT JUMPDEST POP PUSH3 0x168 PUSH3 0x292 CALLDATASIZE PUSH1 0x4 PUSH3 0x1272 JUMP JUMPDEST PUSH3 0xD3A JUMP JUMPDEST CALLVALUE DUP1 ISZERO PUSH3 0x2A4 JUMPI PUSH0 DUP1 REVERT JUMPDEST POP PUSH3 0x168 PUSH3 0x2B6 CALLDATASIZE PUSH1 0x4 PUSH3 0xF45 JUMP JUMPDEST PUSH3 0xDFF JUMP JUMPDEST CALLVALUE DUP1 ISZERO PUSH3 0x2C8 JUMPI PUSH0 DUP1 REVERT JUMPDEST POP PUSH1 0x4 SLOAD PUSH1 0x5 SLOAD PUSH3 0x130 SWAP2 PUSH1 0x1 PUSH1 0x1 PUSH1 0xA0 SHL SUB SWAP1 DUP2 AND SWAP2 AND DUP3 JUMP JUMPDEST PUSH1 0x2 SLOAD PUSH1 0x1 PUSH1 0x1 PUSH1 0xA0 SHL SUB AND CALLER EQ DUP1 PUSH3 0x308 JUMPI POP PUSH1 0x3 SLOAD PUSH1 0x1 PUSH1 0x1 PUSH1 0xA0 SHL SUB AND CALLER EQ JUMPDEST DUP1 PUSH3 0x31E JUMPI POP PUSH1 0x4 SLOAD PUSH1 0x1 PUSH1 0x1 PUSH1 0xA0 SHL SUB AND CALLER EQ JUMPDEST DUP1 PUSH3 0x334 JUMPI POP PUSH1 0x5 SLOAD PUSH1 0x1 PUSH1 0x1 PUSH1 0xA0 SHL SUB AND CALLER EQ JUMPDEST PUSH3 0x35C JUMPI PUSH1 0x40 MLOAD PUSH3 0x461BCD PUSH1 0xE5 SHL DUP2 MSTORE PUSH1 0x4 ADD PUSH3 0x353 SWAP1 PUSH3 0x128A JUMP JUMPDEST PUSH1 0x40 MLOAD DUP1 SWAP2 SUB SWAP1 REVERT JUMPDEST SELFBALANCE DUP1 PUSH3 0x3A3 JUMPI PUSH1 0x40 MLOAD PUSH3 0x461BCD PUSH1 0xE5 SHL DUP2 MSTORE PUSH1 0x20 PUSH1 0x4 DUP3 ADD MSTORE PUSH1 0x14 PUSH1 0x24 DUP3 ADD MSTORE PUSH20 0x2737903332B2B9903A37903BB4BA34323930BB97 PUSH1 0x61 SHL PUSH1 0x44 DUP3 ADD MSTORE PUSH1 0x64 ADD PUSH3 0x353 JUMP JUMPDEST PUSH0 PUSH1 0x64 PUSH3 0x3B3 DUP4 PUSH1 0x5A PUSH3 0x12E0 JUMP JUMPDEST PUSH3 0x3BF SWAP2 SWAP1 PUSH3 0x1300 JUMP JUMPDEST SWAP1 POP PUSH0 PUSH3 0x3CE DUP3 DUP5 PUSH3 0x1320 JUMP JUMPDEST PUSH1 0x2 SLOAD PUSH1 0x40 MLOAD SWAP2 SWAP3 POP PUSH0 SWAP2 PUSH1 0x1 PUSH1 0x1 PUSH1 0xA0 SHL SUB SWAP1 SWAP2 AND SWAP1 DUP5 SWAP1 DUP4 DUP2 DUP2 DUP2 DUP6 DUP8 GAS CALL SWAP3 POP POP POP RETURNDATASIZE DUP1 PUSH0 DUP2 EQ PUSH3 0x41F JUMPI PUSH1 0x40 MLOAD SWAP2 POP PUSH1 0x1F NOT PUSH1 0x3F RETURNDATASIZE ADD AND DUP3 ADD PUSH1 0x40 MSTORE RETURNDATASIZE DUP3 MSTORE RETURNDATASIZE PUSH0 PUSH1 0x20 DUP5 ADD RETURNDATACOPY PUSH3 0x424 JUMP JUMPDEST PUSH1 0x60 SWAP2 POP JUMPDEST POP POP SWAP1 POP DUP1 PUSH3 0x486 JUMPI PUSH1 0x40 MLOAD PUSH3 0x461BCD PUSH1 0xE5 SHL DUP2 MSTORE PUSH1 0x20 PUSH1 0x4 DUP3 ADD MSTORE PUSH1 0x26 PUSH1 0x24 DUP3 ADD MSTORE PUSH32 0x455448207472616E7366657220746F20436F2D466F756E646572204F6E652066 PUSH1 0x44 DUP3 ADD MSTORE PUSH6 0x30B4B632B217 PUSH1 0xD1 SHL PUSH1 0x64 DUP3 ADD MSTORE PUSH1 0x84 ADD PUSH3 0x353 JUMP JUMPDEST PUSH1 0x4 SLOAD PUSH1 0x40 MLOAD PUSH0 SWAP2 PUSH1 0x1 PUSH1 0x1 PUSH1 0xA0 SHL SUB AND SWAP1 DUP5 SWAP1 DUP4 DUP2 DUP2 DUP2 DUP6 DUP8 GAS CALL SWAP3 POP POP POP RETURNDATASIZE DUP1 PUSH0 DUP2 EQ PUSH3 0x4D2 JUMPI PUSH1 0x40 MLOAD SWAP2 POP PUSH1 0x1F NOT PUSH1 0x3F RETURNDATASIZE ADD AND DUP3 ADD PUSH1 0x40 MSTORE RETURNDATASIZE DUP3 MSTORE RETURNDATASIZE PUSH0 PUSH1 0x20 DUP5 ADD RETURNDATACOPY PUSH3 0x4D7 JUMP JUMPDEST PUSH1 0x60 SWAP2 POP JUMPDEST POP POP SWAP1 POP DUP1 PUSH3 0x539 JUMPI PUSH1 0x40 MLOAD PUSH3 0x461BCD PUSH1 0xE5 SHL DUP2 MSTORE PUSH1 0x20 PUSH1 0x4 DUP3 ADD MSTORE PUSH1 0x26 PUSH1 0x24 DUP3 ADD MSTORE PUSH32 0x455448207472616E7366657220746F20436F2D466F756E6465722054776F2066 PUSH1 0x44 DUP3 ADD MSTORE PUSH6 0x30B4B632B217 PUSH1 0xD1 SHL PUSH1 0x64 DUP3 ADD MSTORE PUSH1 0x84 ADD PUSH3 0x353 JUMP JUMPDEST PUSH1 0x40 DUP1 MLOAD DUP6 DUP2 MSTORE PUSH1 0x20 DUP2 ADD DUP6 SWAP1 MSTORE CALLER SWAP2 PUSH32 0xDEB5099D7943AA2B4C1142E5D53D2F7636AA8F7BD130EC79816F151572BCDF45 SWAP2 ADD PUSH1 0x40 MLOAD DUP1 SWAP2 SUB SWAP1 LOG2 POP POP POP POP POP JUMP JUMPDEST PUSH1 0x2 SLOAD PUSH1 0x1 PUSH1 0x1 PUSH1 0xA0 SHL SUB AND CALLER EQ DUP1 PUSH3 0x59F JUMPI POP PUSH1 0x3 SLOAD PUSH1 0x1 PUSH1 0x1 PUSH1 0xA0 SHL SUB AND CALLER EQ JUMPDEST PUSH3 0x5F9 JUMPI PUSH1 0x40 MLOAD PUSH3 0x461BCD PUSH1 0xE5 SHL DUP2 MSTORE PUSH1 0x20 PUSH1 0x4 DUP3 ADD MSTORE PUSH1 0x24 DUP1 DUP3 ADD MSTORE PUSH32 0x536F757263653A2043616C6C6572206973206E6F7420436F2D466F756E646572 PUSH1 0x44 DUP3 ADD MSTORE PUSH4 0x204F6E65 PUSH1 0xE0 SHL PUSH1 0x64 DUP3 ADD MSTORE PUSH1 0x84 ADD PUSH3 0x353 JUMP JUMPDEST PUSH1 0x1 PUSH1 0x1 PUSH1 0xA0 SHL SUB DUP3 AND ISZERO DUP1 ISZERO SWAP1 PUSH3 0x61A JUMPI POP PUSH1 0x1 PUSH1 0x1 PUSH1 0xA0 SHL SUB DUP2 AND ISZERO ISZERO JUMPDEST PUSH3 0x639 JUMPI PUSH1 0x40 MLOAD PUSH3 0x461BCD PUSH1 0xE5 SHL DUP2 MSTORE PUSH1 0x4 ADD PUSH3 0x353 SWAP1 PUSH3 0x1336 JUMP JUMPDEST PUSH1 0x2 DUP1 SLOAD PUSH1 0x1 PUSH1 0x1 PUSH1 0xA0 SHL SUB DUP5 DUP2 AND PUSH1 0x1 PUSH1 0x1 PUSH1 0xA0 SHL SUB NOT SWAP3 DUP4 AND DUP2 OR SWAP1 SWAP4 SSTORE PUSH1 0x3 DUP1 SLOAD SWAP2 DUP6 AND SWAP2 SWAP1 SWAP3 AND DUP2 OR SWAP1 SWAP2 SSTORE PUSH1 0x40 DUP1 MLOAD SWAP3 DUP4 MSTORE PUSH1 0x20 DUP4 ADD SWAP2 SWAP1 SWAP2 MSTORE PUSH1 0x1 SWAP2 PUSH32 0xF2756662321C17D77ED333BFAD7F4ED60DC8E8A1C0028CE3FD5B65629D6F44AB SWAP2 ADD JUMPDEST PUSH1 0x40 MLOAD DUP1 SWAP2 SUB SWAP1 LOG2 POP POP JUMP JUMPDEST PUSH1 0x4 SLOAD PUSH1 0x1 PUSH1 0x1 PUSH1 0xA0 SHL SUB AND CALLER EQ DUP1 PUSH3 0x6CF JUMPI POP PUSH1 0x5 SLOAD PUSH1 0x1 PUSH1 0x1 PUSH1 0xA0 SHL SUB AND CALLER EQ JUMPDEST PUSH3 0x729 JUMPI PUSH1 0x40 MLOAD PUSH3 0x461BCD PUSH1 0xE5 SHL DUP2 MSTORE PUSH1 0x20 PUSH1 0x4 DUP3 ADD MSTORE PUSH1 0x24 DUP1 DUP3 ADD MSTORE PUSH32 0x536F757263653A2043616C6C6572206973206E6F7420436F2D466F756E646572 PUSH1 0x44 DUP3 ADD MSTORE PUSH4 0x2054776F PUSH1 0xE0 SHL PUSH1 0x64 DUP3 ADD MSTORE PUSH1 0x84 ADD PUSH3 0x353 JUMP JUMPDEST PUSH1 0x1 PUSH1 0x1 PUSH1 0xA0 SHL SUB DUP3 AND ISZERO DUP1 ISZERO SWAP1 PUSH3 0x74A JUMPI POP PUSH1 0x1 PUSH1 0x1 PUSH1 0xA0 SHL SUB DUP2 AND ISZERO ISZERO JUMPDEST PUSH3 0x769 JUMPI PUSH1 0x40 MLOAD PUSH3 0x461BCD PUSH1 0xE5 SHL DUP2 MSTORE PUSH1 0x4 ADD PUSH3 0x353 SWAP1 PUSH3 0x1336 JUMP JUMPDEST PUSH1 0x4 DUP1 SLOAD PUSH1 0x1 PUSH1 0x1 PUSH1 0xA0 SHL SUB DUP5 DUP2 AND PUSH1 0x1 PUSH1 0x1 PUSH1 0xA0 SHL SUB NOT SWAP3 DUP4 AND DUP2 OR SWAP1 SWAP4 SSTORE PUSH1 0x5 DUP1 SLOAD SWAP2 DUP6 AND SWAP2 SWAP1 SWAP3 AND DUP2 OR SWAP1 SWAP2 SSTORE PUSH1 0x40 DUP1 MLOAD SWAP3 DUP4 MSTORE PUSH1 0x20 DUP4 ADD SWAP2 SWAP1 SWAP2 MSTORE PUSH1 0x2 SWAP2 PUSH32 0xF2756662321C17D77ED333BFAD7F4ED60DC8E8A1C0028CE3FD5B65629D6F44AB SWAP2 ADD PUSH3 0x69F JUMP JUMPDEST PUSH0 DUP2 PUSH3 0x7E2 JUMPI PUSH0 PUSH3 0x7E6 JUMP JUMPDEST PUSH1 0x1 SLOAD JUMPDEST SWAP1 POP DUP1 CALLVALUE LT ISZERO PUSH3 0x852 JUMPI PUSH1 0x40 MLOAD PUSH3 0x461BCD PUSH1 0xE5 SHL DUP2 MSTORE PUSH1 0x20 PUSH1 0x4 DUP3 ADD MSTORE PUSH1 0x2F PUSH1 0x24 DUP3 ADD MSTORE PUSH32 0x4D73672E76616C7565206D75737420636F766572207468652072657175697265 PUSH1 0x44 DUP3 ADD MSTORE PUSH15 0x3210383630BA3337B936903332B297 PUSH1 0x89 SHL PUSH1 0x64 DUP3 ADD MSTORE PUSH1 0x84 ADD PUSH3 0x353 JUMP JUMPDEST CALLER PUSH0 SWAP1 DUP2 MSTORE PUSH1 0x20 DUP2 SWAP1 MSTORE PUSH1 0x40 SWAP1 KECCAK256 SLOAD PUSH1 0x1 PUSH1 0x1 PUSH1 0xA0 SHL SUB AND ISZERO PUSH3 0x8C4 JUMPI PUSH1 0x40 MLOAD PUSH3 0x461BCD PUSH1 0xE5 SHL DUP2 MSTORE PUSH1 0x20 PUSH1 0x4 DUP3 ADD MSTORE PUSH1 0x22 PUSH1 0x24 DUP3 ADD MSTORE PUSH32 0x5573657220616C72656164792068617320616E206578697374696E672077696C PUSH1 0x44 DUP3 ADD MSTORE PUSH2 0x3617 PUSH1 0xF1 SHL PUSH1 0x64 DUP3 ADD MSTORE PUSH1 0x84 ADD PUSH3 0x353 JUMP JUMPDEST PUSH0 PUSH3 0x8D1 DUP3 CALLVALUE PUSH3 0x1320 JUMP JUMPDEST SWAP1 POP PUSH0 DUP2 CALLER DUP11 ADDRESS DUP7 DUP9 PUSH1 0x6 PUSH0 SWAP1 SLOAD SWAP1 PUSH2 0x100 EXP SWAP1 DIV PUSH1 0x1 PUSH1 0x1 PUSH1 0xA0 SHL SUB AND PUSH1 0x40 MLOAD PUSH3 0x8FD SWAP1 PUSH3 0xF1B JUMP JUMPDEST PUSH1 0x1 PUSH1 0x1 PUSH1 0xA0 SHL SUB SWAP7 DUP8 AND DUP2 MSTORE PUSH1 0x20 DUP2 ADD SWAP6 SWAP1 SWAP6 MSTORE SWAP3 DUP6 AND PUSH1 0x40 DUP6 ADD MSTORE PUSH1 0x60 DUP5 ADD SWAP2 SWAP1 SWAP2 MSTORE ISZERO ISZERO PUSH1 0x80 DUP4 ADD MSTORE SWAP1 SWAP2 AND PUSH1 0xA0 DUP3 ADD MSTORE PUSH1 0xC0 ADD PUSH1 0x40 MLOAD DUP1 SWAP2 SUB SWAP1 DUP3 CREATE SWAP1 POP DUP1 ISZERO DUP1 ISZERO PUSH3 0x950 JUMPI RETURNDATASIZE PUSH0 DUP1 RETURNDATACOPY RETURNDATASIZE PUSH0 REVERT JUMPDEST POP CALLER PUSH0 SWAP1 DUP2 MSTORE PUSH1 0x20 DUP2 SWAP1 MSTORE PUSH1 0x40 SWAP1 DUP2 SWAP1 KECCAK256 DUP1 SLOAD PUSH1 0x1 PUSH1 0x1 PUSH1 0xA0 SHL SUB NOT AND PUSH1 0x1 PUSH1 0x1 PUSH1 0xA0 SHL SUB DUP5 AND SWAP1 DUP2 OR SWAP1 SWAP2 SSTORE SWAP1 MLOAD PUSH4 0xABE21B59 PUSH1 0xE0 SHL DUP2 MSTORE SWAP2 SWAP3 POP SWAP1 PUSH4 0xABE21B59 SWAP1 PUSH3 0x9AD SWAP1 DUP15 SWAP1 DUP15 SWAP1 DUP14 SWAP1 DUP14 SWAP1 DUP14 SWAP1 DUP14 SWAP1 PUSH1 0x4 ADD PUSH3 0x142D JUMP JUMPDEST PUSH0 PUSH1 0x40 MLOAD DUP1 DUP4 SUB DUP2 PUSH0 DUP8 DUP1 EXTCODESIZE ISZERO DUP1 ISZERO PUSH3 0x9C5 JUMPI PUSH0 DUP1 REVERT JUMPDEST POP GAS CALL ISZERO DUP1 ISZERO PUSH3 0x9D8 JUMPI RETURNDATASIZE PUSH0 DUP1 RETURNDATACOPY RETURNDATASIZE PUSH0 REVERT JUMPDEST POP POP POP POP PUSH0 JUMPDEST DUP8 DUP2 LT ISZERO PUSH3 0xAEE JUMPI PUSH0 DUP10 DUP10 DUP4 DUP2 DUP2 LT PUSH3 0x9FD JUMPI PUSH3 0x9FD PUSH3 0x14E3 JUMP JUMPDEST SWAP1 POP PUSH1 0x40 MUL ADD PUSH1 0x20 ADD CALLDATALOAD GT ISZERO PUSH3 0xAE5 JUMPI DUP9 DUP9 DUP3 DUP2 DUP2 LT PUSH3 0xA23 JUMPI PUSH3 0xA23 PUSH3 0x14E3 JUMP JUMPDEST PUSH3 0xA3B SWAP3 PUSH1 0x20 PUSH1 0x40 SWAP1 SWAP3 MUL ADD SWAP1 DUP2 ADD SWAP2 POP PUSH3 0xF45 JUMP JUMPDEST PUSH1 0x1 PUSH1 0x1 PUSH1 0xA0 SHL SUB AND PUSH4 0x23B872DD CALLER DUP5 DUP13 DUP13 DUP7 DUP2 DUP2 LT PUSH3 0xA60 JUMPI PUSH3 0xA60 PUSH3 0x14E3 JUMP JUMPDEST PUSH1 0x40 DUP1 MLOAD PUSH1 0xE0 DUP9 SWAP1 SHL PUSH1 0x1 PUSH1 0x1 PUSH1 0xE0 SHL SUB NOT AND DUP2 MSTORE PUSH1 0x1 PUSH1 0x1 PUSH1 0xA0 SHL SUB SWAP7 DUP8 AND PUSH1 0x4 DUP3 ADD MSTORE SWAP5 SWAP1 SWAP6 AND PUSH1 0x24 DUP6 ADD MSTORE SWAP1 SWAP4 MUL ADD PUSH1 0x20 ADD CALLDATALOAD PUSH1 0x44 DUP3 ADD MSTORE PUSH1 0x64 ADD SWAP1 POP PUSH1 0x20 PUSH1 0x40 MLOAD DUP1 DUP4 SUB DUP2 PUSH0 DUP8 GAS CALL ISZERO DUP1 ISZERO PUSH3 0xABD JUMPI RETURNDATASIZE PUSH0 DUP1 RETURNDATACOPY RETURNDATASIZE PUSH0 REVERT JUMPDEST POP POP POP POP PUSH1 0x40 MLOAD RETURNDATASIZE PUSH1 0x1F NOT PUSH1 0x1F DUP3 ADD AND DUP3 ADD DUP1 PUSH1 0x40 MSTORE POP DUP2 ADD SWAP1 PUSH3 0xAE3 SWAP2 SWAP1 PUSH3 0x14F7 JUMP JUMPDEST POP JUMPDEST PUSH1 0x1 ADD PUSH3 0x9DE JUMP JUMPDEST POP PUSH0 JUMPDEST DUP6 DUP2 LT ISZERO PUSH3 0xBC8 JUMPI DUP7 DUP7 DUP3 DUP2 DUP2 LT PUSH3 0xB0F JUMPI PUSH3 0xB0F PUSH3 0x14E3 JUMP JUMPDEST PUSH3 0xB27 SWAP3 PUSH1 0x20 PUSH1 0x60 SWAP1 SWAP3 MUL ADD SWAP1 DUP2 ADD SWAP2 POP PUSH3 0xF45 JUMP JUMPDEST PUSH1 0x1 PUSH1 0x1 PUSH1 0xA0 SHL SUB AND PUSH4 0x23B872DD CALLER DUP5 DUP11 DUP11 DUP7 DUP2 DUP2 LT PUSH3 0xB4C JUMPI PUSH3 0xB4C PUSH3 0x14E3 JUMP JUMPDEST PUSH1 0x40 MLOAD PUSH1 0x1 PUSH1 0x1 PUSH1 0xE0 SHL SUB NOT PUSH1 0xE0 DUP9 SWAP1 SHL AND DUP2 MSTORE PUSH1 0x1 PUSH1 0x1 PUSH1 0xA0 SHL SUB SWAP6 DUP7 AND PUSH1 0x4 DUP3 ADD MSTORE SWAP5 SWAP1 SWAP4 AND PUSH1 0x24 DUP6 ADD MSTORE POP PUSH1 0x20 PUSH1 0x60 SWAP1 SWAP3 MUL ADD ADD CALLDATALOAD PUSH1 0x44 DUP3 ADD MSTORE PUSH1 0x64 ADD PUSH0 PUSH1 0x40 MLOAD DUP1 DUP4 SUB DUP2 PUSH0 DUP8 DUP1 EXTCODESIZE ISZERO DUP1 ISZERO PUSH3 0xBA4 JUMPI PUSH0 DUP1 REVERT JUMPDEST POP GAS CALL ISZERO DUP1 ISZERO PUSH3 0xBB7 JUMPI RETURNDATASIZE PUSH0 DUP1 RETURNDATACOPY RETURNDATASIZE PUSH0 REVERT JUMPDEST POP POP PUSH1 0x1 SWAP1 SWAP3 ADD SWAP2 POP PUSH3 0xAF1 SWAP1 POP JUMP JUMPDEST POP PUSH1 0x40 MLOAD DUP5 ISZERO ISZERO DUP2 MSTORE PUSH1 0x1 PUSH1 0x1 PUSH1 0xA0 SHL SUB DUP3 AND SWAP1 CALLER SWAP1 PUSH32 0xD94B8D77522FC436B0BDFA0909A24735541697F55E4FF15F693D401E8DD9CF68 SWAP1 PUSH1 0x20 ADD PUSH1 0x40 MLOAD DUP1 SWAP2 SUB SWAP1 LOG3 POP POP POP POP POP POP POP POP POP POP POP JUMP JUMPDEST PUSH1 0x1 PUSH1 0x1 PUSH1 0xA0 SHL SUB DUP1 DUP3 AND PUSH0 SWAP1 DUP2 MSTORE PUSH1 0x20 DUP2 SWAP1 MSTORE PUSH1 0x40 SWAP1 KECCAK256 SLOAD AND DUP1 PUSH3 0xC81 JUMPI PUSH1 0x40 MLOAD PUSH3 0x461BCD PUSH1 0xE5 SHL DUP2 MSTORE PUSH1 0x20 PUSH1 0x4 DUP3 ADD MSTORE PUSH1 0x1C PUSH1 0x24 DUP3 ADD MSTORE PUSH32 0x4E6F2077696C6C20666F756E6420666F72207468697320757365722E00000000 PUSH1 0x44 DUP3 ADD MSTORE PUSH1 0x64 ADD PUSH3 0x353 JUMP JUMPDEST CALLER PUSH1 0x1 PUSH1 0x1 PUSH1 0xA0 SHL SUB DUP3 AND EQ PUSH3 0xCE6 JUMPI PUSH1 0x40 MLOAD PUSH3 0x461BCD PUSH1 0xE5 SHL DUP2 MSTORE PUSH1 0x20 PUSH1 0x4 DUP3 ADD MSTORE PUSH1 0x22 PUSH1 0x24 DUP3 ADD MSTORE PUSH32 0x43616C6C6572206973206E6F742074686520726567697374657265642077696C PUSH1 0x44 DUP3 ADD MSTORE PUSH2 0x3617 PUSH1 0xF1 SHL PUSH1 0x64 DUP3 ADD MSTORE PUSH1 0x84 ADD PUSH3 0x353 JUMP JUMPDEST PUSH1 0x1 PUSH1 0x1 PUSH1 0xA0 SHL SUB DUP1 DUP4 AND PUSH0 DUP2 DUP2 MSTORE PUSH1 0x20 DUP2 SWAP1 MSTORE PUSH1 0x40 DUP1 DUP3 KECCAK256 DUP1 SLOAD PUSH1 0x1 PUSH1 0x1 PUSH1 0xA0 SHL SUB NOT AND SWAP1 SSTORE MLOAD SWAP3 DUP5 AND SWAP3 PUSH32 0x24C44EB8275B2359785575DB44A95EB6B553CF6939B59528954E64756F23ACAB SWAP2 SWAP1 LOG3 POP POP JUMP JUMPDEST PUSH1 0x2 SLOAD PUSH1 0x1 PUSH1 0x1 PUSH1 0xA0 SHL SUB AND CALLER EQ DUP1 PUSH3 0xD5E JUMPI POP PUSH1 0x3 SLOAD PUSH1 0x1 PUSH1 0x1 PUSH1 0xA0 SHL SUB AND CALLER EQ JUMPDEST DUP1 PUSH3 0xD74 JUMPI POP PUSH1 0x4 SLOAD PUSH1 0x1 PUSH1 0x1 PUSH1 0xA0 SHL SUB AND CALLER EQ JUMPDEST DUP1 PUSH3 0xD8A JUMPI POP PUSH1 0x5 SLOAD PUSH1 0x1 PUSH1 0x1 PUSH1 0xA0 SHL SUB AND CALLER EQ JUMPDEST DUP1 PUSH3 0xDA0 JUMPI POP PUSH1 0x6 SLOAD PUSH1 0x1 PUSH1 0x1 PUSH1 0xA0 SHL SUB AND CALLER EQ JUMPDEST PUSH3 0xDFA JUMPI PUSH1 0x40 MLOAD PUSH3 0x461BCD PUSH1 0xE5 SHL DUP2 MSTORE PUSH1 0x20 PUSH1 0x4 DUP3 ADD MSTORE PUSH1 0x23 PUSH1 0x24 DUP3 ADD MSTORE PUSH32 0x536F757263653A2043616C6C65722063616E6E6F742073657420646961727920 PUSH1 0x44 DUP3 ADD MSTORE PUSH3 0x666565 PUSH1 0xE8 SHL PUSH1 0x64 DUP3 ADD MSTORE PUSH1 0x84 ADD PUSH3 0x353 JUMP JUMPDEST PUSH1 0x1 SSTORE JUMP JUMPDEST PUSH1 0x2 SLOAD PUSH1 0x1 PUSH1 0x1 PUSH1 0xA0 SHL SUB AND CALLER EQ DUP1 PUSH3 0xE23 JUMPI POP PUSH1 0x3 SLOAD PUSH1 0x1 PUSH1 0x1 PUSH1 0xA0 SHL SUB AND CALLER EQ JUMPDEST DUP1 PUSH3 0xE39 JUMPI POP PUSH1 0x4 SLOAD PUSH1 0x1 PUSH1 0x1 PUSH1 0xA0 SHL SUB AND CALLER EQ JUMPDEST DUP1 PUSH3 0xE4F JUMPI POP PUSH1 0x5 SLOAD PUSH1 0x1 PUSH1 0x1 PUSH1 0xA0 SHL SUB AND CALLER EQ JUMPDEST PUSH3 0xE6E JUMPI PUSH1 0x40 MLOAD PUSH3 0x461BCD PUSH1 0xE5 SHL DUP2 MSTORE PUSH1 0x4 ADD PUSH3 0x353 SWAP1 PUSH3 0x128A JUMP JUMPDEST PUSH1 0x1 PUSH1 0x1 PUSH1 0xA0 SHL SUB DUP2 AND PUSH3 0xED2 JUMPI PUSH1 0x40 MLOAD PUSH3 0x461BCD PUSH1 0xE5 SHL DUP2 MSTORE PUSH1 0x20 PUSH1 0x4 DUP3 ADD MSTORE PUSH1 0x23 PUSH1 0x24 DUP3 ADD MSTORE PUSH32 0x536F757263653A204E6577206578656375746F722063616E6E6F74206265207A PUSH1 0x44 DUP3 ADD MSTORE PUSH3 0x65726F PUSH1 0xE8 SHL PUSH1 0x64 DUP3 ADD MSTORE PUSH1 0x84 ADD PUSH3 0x353 JUMP JUMPDEST PUSH1 0x6 DUP1 SLOAD PUSH1 0x1 PUSH1 0x1 PUSH1 0xA0 SHL SUB NOT AND PUSH1 0x1 PUSH1 0x1 PUSH1 0xA0 SHL SUB DUP4 AND SWAP1 DUP2 OR SWAP1 SWAP2 SSTORE PUSH1 0x40 MLOAD PUSH32 0xA5CBF15053A72004F628487CA44B7FEA1537B628EE203354D256EB80E308EFA8 SWAP1 PUSH0 SWAP1 LOG2 POP JUMP JUMPDEST PUSH2 0x232F DUP1 PUSH3 0x1516 DUP4 CODECOPY ADD SWAP1 JUMP JUMPDEST DUP1 CALLDATALOAD PUSH1 0x1 PUSH1 0x1 PUSH1 0xA0 SHL SUB DUP2 AND DUP2 EQ PUSH3 0xF40 JUMPI PUSH0 DUP1 REVERT JUMPDEST SWAP2 SWAP1 POP JUMP JUMPDEST PUSH0 PUSH1 0x20 DUP3 DUP5 SUB SLT ISZERO PUSH3 0xF56 JUMPI PUSH0 DUP1 REVERT JUMPDEST PUSH3 0xF61 DUP3 PUSH3 0xF29 JUMP JUMPDEST SWAP4 SWAP3 POP POP POP JUMP JUMPDEST PUSH0 DUP1 PUSH1 0x40 DUP4 DUP6 SUB SLT ISZERO PUSH3 0xF7A JUMPI PUSH0 DUP1 REVERT JUMPDEST PUSH3 0xF85 DUP4 PUSH3 0xF29 JUMP JUMPDEST SWAP2 POP PUSH3 0xF95 PUSH1 0x20 DUP5 ADD PUSH3 0xF29 JUMP JUMPDEST SWAP1 POP SWAP3 POP SWAP3 SWAP1 POP JUMP JUMPDEST PUSH4 0x4E487B71 PUSH1 0xE0 SHL PUSH0 MSTORE PUSH1 0x41 PUSH1 0x4 MSTORE PUSH1 0x24 PUSH0 REVERT JUMPDEST PUSH1 0x40 MLOAD PUSH1 0x1F DUP3 ADD PUSH1 0x1F NOT AND DUP2 ADD PUSH8 0xFFFFFFFFFFFFFFFF DUP2 GT DUP3 DUP3 LT OR ISZERO PUSH3 0xFDE JUMPI PUSH3 0xFDE PUSH3 0xF9E JUMP JUMPDEST PUSH1 0x40 MSTORE SWAP2 SWAP1 POP JUMP JUMPDEST PUSH0 PUSH8 0xFFFFFFFFFFFFFFFF DUP3 GT ISZERO PUSH3 0x1002 JUMPI PUSH3 0x1002 PUSH3 0xF9E JUMP JUMPDEST POP PUSH1 0x5 SHL PUSH1 0x20 ADD SWAP1 JUMP JUMPDEST PUSH0 DUP3 PUSH1 0x1F DUP4 ADD SLT PUSH3 0x101C JUMPI PUSH0 DUP1 REVERT JUMPDEST DUP2 CALLDATALOAD PUSH1 0x20 PUSH3 0x1035 PUSH3 0x102F DUP4 PUSH3 0xFE6 JUMP JUMPDEST PUSH3 0xFB2 JUMP JUMPDEST DUP1 DUP4 DUP3 MSTORE PUSH1 0x20 DUP3 ADD SWAP2 POP PUSH1 0x20 DUP5 PUSH1 0x5 SHL DUP8 ADD ADD SWAP4 POP DUP7 DUP5 GT ISZERO PUSH3 0x1057 JUMPI PUSH0 DUP1 REVERT JUMPDEST PUSH1 0x20 DUP7 ADD JUMPDEST DUP5 DUP2 LT ISZERO PUSH3 0x107E JUMPI PUSH3 0x1070 DUP2 PUSH3 0xF29 JUMP JUMPDEST DUP4 MSTORE SWAP2 DUP4 ADD SWAP2 DUP4 ADD PUSH3 0x105C JUMP JUMPDEST POP SWAP7 SWAP6 POP POP POP POP POP POP JUMP JUMPDEST PUSH0 DUP3 PUSH1 0x1F DUP4 ADD SLT PUSH3 0x1099 JUMPI PUSH0 DUP1 REVERT JUMPDEST DUP2 CALLDATALOAD PUSH1 0x20 PUSH3 0x10AC PUSH3 0x102F DUP4 PUSH3 0xFE6 JUMP JUMPDEST DUP1 DUP4 DUP3 MSTORE PUSH1 0x20 DUP3 ADD SWAP2 POP PUSH1 0x20 DUP5 PUSH1 0x5 SHL DUP8 ADD ADD SWAP4 POP DUP7 DUP5 GT ISZERO PUSH3 0x10CE JUMPI PUSH0 DUP1 REVERT JUMPDEST PUSH1 0x20 DUP7 ADD JUMPDEST DUP5 DUP2 LT ISZERO PUSH3 0x107E JUMPI DUP1 CALLDATALOAD DUP4 MSTORE SWAP2 DUP4 ADD SWAP2 DUP4 ADD PUSH3 0x10D3 JUMP JUMPDEST PUSH0 DUP1 DUP4 PUSH1 0x1F DUP5 ADD SLT PUSH3 0x10FD JUMPI PUSH0 DUP1 REVERT JUMPDEST POP DUP2 CALLDATALOAD PUSH8 0xFFFFFFFFFFFFFFFF DUP2 GT ISZERO PUSH3 0x1115 JUMPI PUSH0 DUP1 REVERT JUMPDEST PUSH1 0x20 DUP4 ADD SWAP2 POP DUP4 PUSH1 0x20 DUP3 PUSH1 0x6 SHL DUP6 ADD ADD GT ISZERO PUSH3 0x1130 JUMPI PUSH0 DUP1 REVERT JUMPDEST SWAP3 POP SWAP3 SWAP1 POP JUMP JUMPDEST PUSH0 DUP1 DUP4 PUSH1 0x1F DUP5 ADD SLT PUSH3 0x1148 JUMPI PUSH0 DUP1 REVERT JUMPDEST POP DUP2 CALLDATALOAD PUSH8 0xFFFFFFFFFFFFFFFF DUP2 GT ISZERO PUSH3 0x1160 JUMPI PUSH0 DUP1 REVERT JUMPDEST PUSH1 0x20 DUP4 ADD SWAP2 POP DUP4 PUSH1 0x20 PUSH1 0x60 DUP4 MUL DUP6 ADD ADD GT ISZERO PUSH3 0x1130 JUMPI PUSH0 DUP1 REVERT JUMPDEST DUP1 ISZERO ISZERO DUP2 EQ PUSH3 0x1189 JUMPI PUSH0 DUP1 REVERT JUMPDEST POP JUMP JUMPDEST DUP1 CALLDATALOAD PUSH3 0xF40 DUP2 PUSH3 0x117B JUMP JUMPDEST PUSH0 DUP1 PUSH0 DUP1 PUSH0 DUP1 PUSH0 DUP1 PUSH1 0xC0 DUP10 DUP12 SUB SLT ISZERO PUSH3 0x11B1 JUMPI PUSH0 DUP1 REVERT JUMPDEST DUP9 CALLDATALOAD PUSH8 0xFFFFFFFFFFFFFFFF DUP1 DUP3 GT ISZERO PUSH3 0x11C9 JUMPI PUSH0 DUP1 REVERT JUMPDEST PUSH3 0x11D7 DUP13 DUP4 DUP14 ADD PUSH3 0x100C JUMP JUMPDEST SWAP10 POP PUSH1 0x20 DUP12 ADD CALLDATALOAD SWAP2 POP DUP1 DUP3 GT ISZERO PUSH3 0x11ED JUMPI PUSH0 DUP1 REVERT JUMPDEST PUSH3 0x11FB DUP13 DUP4 DUP14 ADD PUSH3 0x1089 JUMP JUMPDEST SWAP9 POP PUSH1 0x40 DUP12 ADD CALLDATALOAD SWAP8 POP PUSH1 0x60 DUP12 ADD CALLDATALOAD SWAP2 POP DUP1 DUP3 GT ISZERO PUSH3 0x1218 JUMPI PUSH0 DUP1 REVERT JUMPDEST PUSH3 0x1226 DUP13 DUP4 DUP14 ADD PUSH3 0x10EC JUMP JUMPDEST SWAP1 SWAP8 POP SWAP6 POP PUSH1 0x80 DUP12 ADD CALLDATALOAD SWAP2 POP DUP1 DUP3 GT ISZERO PUSH3 0x123F JUMPI PUSH0 DUP1 REVERT JUMPDEST POP PUSH3 0x124E DUP12 DUP3 DUP13 ADD PUSH3 0x1137 JUMP JUMPDEST SWAP1 SWAP5 POP SWAP3 POP PUSH3 0x1263 SWAP1 POP PUSH1 0xA0 DUP11 ADD PUSH3 0x118C JUMP JUMPDEST SWAP1 POP SWAP3 SWAP6 SWAP9 POP SWAP3 SWAP6 SWAP9 SWAP1 SWAP4 SWAP7 POP JUMP JUMPDEST PUSH0 PUSH1 0x20 DUP3 DUP5 SUB SLT ISZERO PUSH3 0x1283 JUMPI PUSH0 DUP1 REVERT JUMPDEST POP CALLDATALOAD SWAP2 SWAP1 POP JUMP JUMPDEST PUSH1 0x20 DUP1 DUP3 MSTORE PUSH1 0x22 SWAP1 DUP3 ADD MSTORE PUSH32 0x536F757263653A2043616C6C6572206973206E6F74206120636F2D666F756E64 PUSH1 0x40 DUP3 ADD MSTORE PUSH2 0x32B9 PUSH1 0xF1 SHL PUSH1 0x60 DUP3 ADD MSTORE PUSH1 0x80 ADD SWAP1 JUMP JUMPDEST PUSH4 0x4E487B71 PUSH1 0xE0 SHL PUSH0 MSTORE PUSH1 0x11 PUSH1 0x4 MSTORE PUSH1 0x24 PUSH0 REVERT JUMPDEST DUP1 DUP3 MUL DUP2 ISZERO DUP3 DUP3 DIV DUP5 EQ OR PUSH3 0x12FA JUMPI PUSH3 0x12FA PUSH3 0x12CC JUMP JUMPDEST SWAP3 SWAP2 POP POP JUMP JUMPDEST PUSH0 DUP3 PUSH3 0x131B JUMPI PUSH4 0x4E487B71 PUSH1 0xE0 SHL PUSH0 MSTORE PUSH1 0x12 PUSH1 0x4 MSTORE PUSH1 0x24 PUSH0 REVERT JUMPDEST POP DIV SWAP1 JUMP JUMPDEST DUP2 DUP2 SUB DUP2 DUP2 GT ISZERO PUSH3 0x12FA JUMPI PUSH3 0x12FA PUSH3 0x12CC JUMP JUMPDEST PUSH1 0x20 DUP1 DUP3 MSTORE PUSH1 0x24 SWAP1 DUP3 ADD MSTORE PUSH32 0x536F757263653A204E6577206164647265737365732063616E6E6F7420626520 PUSH1 0x40 DUP3 ADD MSTORE PUSH4 0x7A65726F PUSH1 0xE0 SHL PUSH1 0x60 DUP3 ADD MSTORE PUSH1 0x80 ADD SWAP1 JUMP JUMPDEST DUP2 DUP4 MSTORE PUSH0 PUSH1 0x20 DUP1 DUP6 ADD SWAP5 POP DUP3 PUSH0 JUMPDEST DUP6 DUP2 LT ISZERO PUSH3 0x13C2 JUMPI PUSH1 0x1 PUSH1 0x1 PUSH1 0xA0 SHL SUB PUSH3 0x13A4 DUP4 PUSH3 0xF29 JUMP JUMPDEST AND DUP8 MSTORE DUP2 DUP4 ADD CALLDATALOAD DUP4 DUP9 ADD MSTORE PUSH1 0x40 SWAP7 DUP8 ADD SWAP7 SWAP1 SWAP2 ADD SWAP1 PUSH1 0x1 ADD PUSH3 0x1388 JUMP JUMPDEST POP SWAP5 SWAP6 SWAP5 POP POP POP POP POP JUMP JUMPDEST DUP2 DUP4 MSTORE PUSH0 PUSH1 0x20 DUP1 DUP6 ADD SWAP5 POP DUP3 PUSH0 JUMPDEST DUP6 DUP2 LT ISZERO PUSH3 0x13C2 JUMPI PUSH1 0x1 PUSH1 0x1 PUSH1 0xA0 SHL SUB DUP1 PUSH3 0x13F8 DUP5 PUSH3 0xF29 JUMP JUMPDEST AND DUP9 MSTORE DUP4 DUP4 ADD CALLDATALOAD DUP5 DUP10 ADD MSTORE PUSH1 0x40 DUP2 PUSH3 0x1413 DUP3 DUP7 ADD PUSH3 0xF29 JUMP JUMPDEST AND SWAP1 DUP10 ADD MSTORE POP PUSH1 0x60 SWAP7 DUP8 ADD SWAP7 SWAP2 SWAP1 SWAP2 ADD SWAP1 PUSH1 0x1 ADD PUSH3 0x13DB JUMP JUMPDEST PUSH1 0x80 DUP1 DUP3 MSTORE DUP8 MLOAD SWAP1 DUP3 ADD DUP2 SWAP1 MSTORE PUSH0 SWAP1 PUSH1 0x20 SWAP1 PUSH1 0xA0 DUP5 ADD SWAP1 DUP3 DUP12 ADD DUP5 JUMPDEST DUP3 DUP2 LT ISZERO PUSH3 0x1470 JUMPI DUP2 MLOAD PUSH1 0x1 PUSH1 0x1 PUSH1 0xA0 SHL SUB AND DUP5 MSTORE SWAP3 DUP5 ADD SWAP3 SWAP1 DUP5 ADD SWAP1 PUSH1 0x1 ADD PUSH3 0x1449 JUMP JUMPDEST POP POP POP DUP4 DUP2 SUB DUP3 DUP6 ADD MSTORE DUP9 MLOAD DUP1 DUP3 MSTORE DUP10 DUP4 ADD SWAP2 DUP4 ADD SWAP1 PUSH0 JUMPDEST DUP2 DUP2 LT ISZERO PUSH3 0x14A6 JUMPI DUP4 MLOAD DUP4 MSTORE SWAP3 DUP5 ADD SWAP3 SWAP2 DUP5 ADD SWAP2 PUSH1 0x1 ADD PUSH3 0x1488 JUMP JUMPDEST POP POP DUP5 DUP2 SUB PUSH1 0x40 DUP7 ADD MSTORE PUSH3 0x14BD DUP2 DUP10 DUP12 PUSH3 0x137A JUMP JUMPDEST SWAP3 POP POP POP DUP3 DUP2 SUB PUSH1 0x60 DUP5 ADD MSTORE PUSH3 0x14D6 DUP2 DUP6 DUP8 PUSH3 0x13CD JUMP JUMPDEST SWAP10 SWAP9 POP POP POP POP POP POP POP POP POP JUMP JUMPDEST PUSH4 0x4E487B71 PUSH1 0xE0 SHL PUSH0 MSTORE PUSH1 0x32 PUSH1 0x4 MSTORE PUSH1 0x24 PUSH0 REVERT JUMPDEST PUSH0 PUSH1 0x20 DUP3 DUP5 SUB SLT ISZERO PUSH3 0x1508 JUMPI PUSH0 DUP1 REVERT JUMPDEST DUP2 MLOAD PUSH3 0xF61 DUP2 PUSH3 0x117B JUMP INVALID PUSH2 0x120 PUSH1 0x40 MSTORE PUSH1 0x40 MLOAD PUSH3 0x232F CODESIZE SUB DUP1 PUSH3 0x232F DUP4 CODECOPY DUP2 ADD PUSH1 0x40 DUP2 SWAP1 MSTORE PUSH3 0x27 SWAP2 PUSH3 0xFC JUMP JUMPDEST DUP6 PUSH1 0x1 PUSH1 0x1 PUSH1 0xA0 SHL SUB DUP2 AND PUSH3 0x56 JUMPI PUSH1 0x40 MLOAD PUSH4 0x1E4FBDF7 PUSH1 0xE0 SHL DUP2 MSTORE PUSH0 PUSH1 0x4 DUP3 ADD MSTORE PUSH1 0x24 ADD PUSH1 0x40 MLOAD DUP1 SWAP2 SUB SWAP1 REVERT JUMPDEST PUSH3 0x61 DUP2 PUSH3 0x91 JUMP JUMPDEST POP PUSH1 0x1 DUP1 SSTORE PUSH1 0x80 SWAP5 SWAP1 SWAP5 MSTORE PUSH1 0x1 PUSH1 0x1 PUSH1 0xA0 SHL SUB SWAP3 DUP4 AND PUSH1 0xA0 MSTORE PUSH1 0xC0 SWAP2 SWAP1 SWAP2 MSTORE ISZERO ISZERO PUSH1 0xE0 MSTORE AND PUSH2 0x100 MSTORE POP PUSH3 0x16C JUMP JUMPDEST PUSH0 DUP1 SLOAD PUSH1 0x1 PUSH1 0x1 PUSH1 0xA0 SHL SUB DUP4 DUP2 AND PUSH1 0x1 PUSH1 0x1 PUSH1 0xA0 SHL SUB NOT DUP4 AND DUP2 OR DUP5 SSTORE PUSH1 0x40 MLOAD SWAP2 SWAP1 SWAP3 AND SWAP3 DUP4 SWAP2 PUSH32 0x8BE0079C531659141344CD1FD0A4F28419497F9722A3DAAFE3B4186F6B6457E0 SWAP2 SWAP1 LOG3 POP POP JUMP JUMPDEST DUP1 MLOAD PUSH1 0x1 PUSH1 0x1 PUSH1 0xA0 SHL SUB DUP2 AND DUP2 EQ PUSH3 0xF7 JUMPI PUSH0 DUP1 REVERT JUMPDEST SWAP2 SWAP1 POP JUMP JUMPDEST PUSH0 DUP1 PUSH0 DUP1 PUSH0 DUP1 PUSH1 0xC0 DUP8 DUP10 SUB SLT ISZERO PUSH3 0x112 JUMPI PUSH0 DUP1 REVERT JUMPDEST PUSH3 0x11D DUP8 PUSH3 0xE0 JUMP JUMPDEST SWAP6 POP PUSH1 0x20 DUP8 ADD MLOAD SWAP5 POP PUSH3 0x134 PUSH1 0x40 DUP9 ADD PUSH3 0xE0 JUMP JUMPDEST SWAP4 POP PUSH1 0x60 DUP8 ADD MLOAD SWAP3 POP PUSH1 0x80 DUP8 ADD MLOAD DUP1 ISZERO ISZERO DUP2 EQ PUSH3 0x150 JUMPI PUSH0 DUP1 REVERT JUMPDEST SWAP2 POP PUSH3 0x160 PUSH1 0xA0 DUP9 ADD PUSH3 0xE0 JUMP JUMPDEST SWAP1 POP SWAP3 SWAP6 POP SWAP3 SWAP6 POP SWAP3 SWAP6 JUMP JUMPDEST PUSH1 0x80 MLOAD PUSH1 0xA0 MLOAD PUSH1 0xC0 MLOAD PUSH1 0xE0 MLOAD PUSH2 0x100 MLOAD PUSH2 0x212A PUSH3 0x205 PUSH0 CODECOPY PUSH0 DUP2 DUP2 PUSH2 0x239 ADD MSTORE PUSH2 0x4E4 ADD MSTORE PUSH0 DUP2 DUP2 PUSH2 0x2F5 ADD MSTORE PUSH2 0x1782 ADD MSTORE PUSH0 DUP2 DUP2 PUSH2 0x27C ADD MSTORE DUP2 DUP2 PUSH2 0xBB2 ADD MSTORE DUP2 DUP2 PUSH2 0xBD8 ADD MSTORE DUP2 DUP2 PUSH2 0xC81 ADD MSTORE PUSH2 0x1035 ADD MSTORE PUSH0 DUP2 DUP2 PUSH2 0x212 ADD MSTORE DUP2 DUP2 PUSH2 0x5C8 ADD MSTORE DUP2 DUP2 PUSH2 0xC57 ADD MSTORE DUP2 DUP2 PUSH2 0xD54 ADD MSTORE PUSH2 0x110B ADD MSTORE PUSH0 DUP2 DUP2 PUSH2 0x1EB ADD MSTORE DUP2 DUP2 PUSH2 0x443 ADD MSTORE DUP2 DUP2 PUSH2 0x581 ADD MSTORE PUSH2 0x173E ADD MSTORE PUSH2 0x212A PUSH0 RETURN INVALID PUSH1 0x80 PUSH1 0x40 MSTORE CALLVALUE DUP1 ISZERO PUSH2 0xF JUMPI PUSH0 DUP1 REVERT JUMPDEST POP PUSH1 0x4 CALLDATASIZE LT PUSH2 0x127 JUMPI PUSH0 CALLDATALOAD PUSH1 0xE0 SHR DUP1 PUSH4 0x947A36FB GT PUSH2 0xA9 JUMPI DUP1 PUSH4 0xC7C85BAA GT PUSH2 0x6E JUMPI DUP1 PUSH4 0xC7C85BAA EQ PUSH2 0x277 JUMPI DUP1 PUSH4 0xCC4F9D5B EQ PUSH2 0x29E JUMPI DUP1 PUSH4 0xE15724A5 EQ PUSH2 0x2B3 JUMPI DUP1 PUSH4 0xEED35FEA EQ PUSH2 0x2F0 JUMPI DUP1 PUSH4 0xF2FDE38B EQ PUSH2 0x317 JUMPI PUSH0 DUP1 REVERT JUMPDEST DUP1 PUSH4 0x947A36FB EQ PUSH2 0x1E6 JUMPI DUP1 PUSH4 0xA444AE41 EQ PUSH2 0x20D JUMPI DUP1 PUSH4 0xA8E9A539 EQ PUSH2 0x234 JUMPI DUP1 PUSH4 0xABE21B59 EQ PUSH2 0x25B JUMPI DUP1 PUSH4 0xC0463711 EQ PUSH2 0x26E JUMPI PUSH0 DUP1 REVERT JUMPDEST DUP1 PUSH4 0x61461954 GT PUSH2 0xEF JUMPI DUP1 PUSH4 0x61461954 EQ PUSH2 0x1AB JUMPI DUP1 PUSH4 0x6B892B22 EQ PUSH2 0x1B3 JUMPI DUP1 PUSH4 0x715018A6 EQ PUSH2 0x1BB JUMPI DUP1 PUSH4 0x8DA5CB5B EQ PUSH2 0x1C3 JUMPI DUP1 PUSH4 0x9379F517 EQ PUSH2 0x1D3 JUMPI PUSH0 DUP1 REVERT JUMPDEST DUP1 PUSH4 0x1C0795C3 EQ PUSH2 0x12B JUMPI DUP1 PUSH4 0x1F99966A EQ PUSH2 0x15B JUMPI DUP1 PUSH4 0x2395D975 EQ PUSH2 0x17C JUMPI DUP1 PUSH4 0x31A38C89 EQ PUSH2 0x184 JUMPI DUP1 PUSH4 0x5C36B186 EQ PUSH2 0x1A1 JUMPI JUMPDEST PUSH0 DUP1 REVERT JUMPDEST PUSH2 0x13E PUSH2 0x139 CALLDATASIZE PUSH1 0x4 PUSH2 0x1A38 JUMP JUMPDEST PUSH2 0x32A JUMP JUMPDEST PUSH1 0x40 MLOAD PUSH1 0x1 PUSH1 0x1 PUSH1 0xA0 SHL SUB SWAP1 SWAP2 AND DUP2 MSTORE PUSH1 0x20 ADD JUMPDEST PUSH1 0x40 MLOAD DUP1 SWAP2 SUB SWAP1 RETURN JUMPDEST PUSH2 0x16E PUSH2 0x169 CALLDATASIZE PUSH1 0x4 PUSH2 0x1A38 JUMP JUMPDEST PUSH2 0x352 JUMP JUMPDEST PUSH1 0x40 MLOAD SWAP1 DUP2 MSTORE PUSH1 0x20 ADD PUSH2 0x152 JUMP JUMPDEST PUSH2 0x16E PUSH1 0x32 DUP2 JUMP JUMPDEST PUSH1 0x2 SLOAD PUSH2 0x191 SWAP1 PUSH1 0xFF AND DUP2 JUMP JUMPDEST PUSH1 0x40 MLOAD SWAP1 ISZERO ISZERO DUP2 MSTORE PUSH1 0x20 ADD PUSH2 0x152 JUMP JUMPDEST PUSH2 0x1A9 PUSH2 0x371 JUMP JUMPDEST STOP JUMPDEST PUSH2 0x1A9 PUSH2 0x410 JUMP JUMPDEST PUSH2 0x1A9 PUSH2 0xB32 JUMP JUMPDEST PUSH2 0x1A9 PUSH2 0x108B JUMP JUMPDEST PUSH0 SLOAD PUSH1 0x1 PUSH1 0x1 PUSH1 0xA0 SHL SUB AND PUSH2 0x13E JUMP JUMPDEST PUSH2 0x13E PUSH2 0x1E1 CALLDATASIZE PUSH1 0x4 PUSH2 0x1A38 JUMP JUMPDEST PUSH2 0x109E JUMP JUMPDEST PUSH2 0x16E PUSH32 0x0 DUP2 JUMP JUMPDEST PUSH2 0x13E PUSH32 0x0 DUP2 JUMP JUMPDEST PUSH2 0x13E PUSH32 0x0 DUP2 JUMP JUMPDEST PUSH2 0x1A9 PUSH2 0x269 CALLDATASIZE PUSH1 0x4 PUSH2 0x1CA8 JUMP JUMPDEST PUSH2 0x10AD JUMP JUMPDEST PUSH2 0x16E PUSH1 0x3 SLOAD DUP2 JUMP JUMPDEST PUSH2 0x16E PUSH32 0x0 DUP2 JUMP JUMPDEST PUSH2 0x2A6 PUSH2 0x1463 JUMP JUMPDEST PUSH1 0x40 MLOAD PUSH2 0x152 SWAP2 SWAP1 PUSH2 0x1EAE JUMP JUMPDEST PUSH2 0x2C6 PUSH2 0x2C1 CALLDATASIZE PUSH1 0x4 PUSH2 0x1A38 JUMP JUMPDEST PUSH2 0x1871 JUMP JUMPDEST PUSH1 0x40 DUP1 MLOAD PUSH1 0x1 PUSH1 0x1 PUSH1 0xA0 SHL SUB SWAP5 DUP6 AND DUP2 MSTORE PUSH1 0x20 DUP2 ADD SWAP4 SWAP1 SWAP4 MSTORE SWAP3 AND SWAP2 DUP2 ADD SWAP2 SWAP1 SWAP2 MSTORE PUSH1 0x60 ADD PUSH2 0x152 JUMP JUMPDEST PUSH2 0x191 PUSH32 0x0 DUP2 JUMP JUMPDEST PUSH2 0x1A9 PUSH2 0x325 CALLDATASIZE PUSH1 0x4 PUSH2 0x1F8A JUMP JUMPDEST PUSH2 0x18AD JUMP JUMPDEST PUSH1 0x4 DUP2 DUP2 SLOAD DUP2 LT PUSH2 0x339 JUMPI PUSH0 DUP1 REVERT JUMPDEST PUSH0 SWAP2 DUP3 MSTORE PUSH1 0x20 SWAP1 SWAP2 KECCAK256 ADD SLOAD PUSH1 0x1 PUSH1 0x1 PUSH1 0xA0 SHL SUB AND SWAP1 POP DUP2 JUMP JUMPDEST PUSH1 0x5 DUP2 DUP2 SLOAD DUP2 LT PUSH2 0x361 JUMPI PUSH0 DUP1 REVERT JUMPDEST PUSH0 SWAP2 DUP3 MSTORE PUSH1 0x20 SWAP1 SWAP2 KECCAK256 ADD SLOAD SWAP1 POP DUP2 JUMP JUMPDEST PUSH1 0x2 SLOAD PUSH1 0xFF AND ISZERO PUSH2 0x39D JUMPI PUSH1 0x40 MLOAD PUSH3 0x461BCD PUSH1 0xE5 SHL DUP2 MSTORE PUSH1 0x4 ADD PUSH2 0x394 SWAP1 PUSH2 0x1FAA JUMP JUMPDEST PUSH1 0x40 MLOAD DUP1 SWAP2 SUB SWAP1 REVERT JUMPDEST CALLER PUSH2 0x3AF PUSH0 SLOAD PUSH1 0x1 PUSH1 0x1 PUSH1 0xA0 SHL SUB AND SWAP1 JUMP JUMPDEST PUSH1 0x1 PUSH1 0x1 PUSH1 0xA0 SHL SUB AND EQ PUSH2 0x3D5 JUMPI PUSH1 0x40 MLOAD PUSH3 0x461BCD PUSH1 0xE5 SHL DUP2 MSTORE PUSH1 0x4 ADD PUSH2 0x394 SWAP1 PUSH2 0x1FEE JUMP JUMPDEST TIMESTAMP PUSH1 0x3 DUP2 SWAP1 SSTORE PUSH1 0x40 MLOAD SWAP1 DUP2 MSTORE PUSH32 0x48257DC961B6F792C2B78A080DACFED693B660960A702DE21CEE364E20270E2F SWAP1 PUSH1 0x20 ADD PUSH1 0x40 MLOAD DUP1 SWAP2 SUB SWAP1 LOG1 JUMP JUMPDEST PUSH2 0x418 PUSH2 0x18EA JUMP JUMPDEST PUSH1 0x2 PUSH1 0x1 DUP2 SWAP1 SSTORE SLOAD PUSH1 0xFF AND ISZERO PUSH2 0x440 JUMPI PUSH1 0x40 MLOAD PUSH3 0x461BCD PUSH1 0xE5 SHL DUP2 MSTORE PUSH1 0x4 ADD PUSH2 0x394 SWAP1 PUSH2 0x1FAA JUMP JUMPDEST PUSH0 PUSH32 0x0 PUSH1 0x3 SLOAD PUSH2 0x46F SWAP2 SWAP1 PUSH2 0x2048 JUMP JUMPDEST SWAP1 POP DUP1 TIMESTAMP LT ISZERO PUSH2 0x4C1 JUMPI PUSH1 0x40 MLOAD PUSH3 0x461BCD PUSH1 0xE5 SHL DUP2 MSTORE PUSH1 0x20 PUSH1 0x4 DUP3 ADD MSTORE PUSH1 0x1B PUSH1 0x24 DUP3 ADD MSTORE PUSH32 0x477261636520706572696F6420686173206E6F7420656E6465642E0000000000 PUSH1 0x44 DUP3 ADD MSTORE PUSH1 0x64 ADD PUSH2 0x394 JUMP JUMPDEST PUSH0 PUSH2 0x4CF PUSH3 0x15180 DUP4 PUSH2 0x2048 JUMP JUMPDEST SWAP1 POP DUP1 TIMESTAMP LT ISZERO PUSH2 0x569 JUMPI CALLER PUSH1 0x1 PUSH1 0x1 PUSH1 0xA0 SHL SUB PUSH32 0x0 AND EQ PUSH2 0x569 JUMPI PUSH1 0x40 MLOAD PUSH3 0x461BCD PUSH1 0xE5 SHL DUP2 MSTORE PUSH1 0x20 PUSH1 0x4 DUP3 ADD MSTORE PUSH1 0x2F PUSH1 0x24 DUP3 ADD MSTORE PUSH32 0x4F6E6C79207468652064657369676E61746564206578656375746F722063616E PUSH1 0x44 DUP3 ADD MSTORE PUSH15 0x1031B0B636103A3434B9903737BB97 PUSH1 0x89 SHL PUSH1 0x64 DUP3 ADD MSTORE PUSH1 0x84 ADD PUSH2 0x394 JUMP JUMPDEST PUSH1 0x2 DUP1 SLOAD PUSH1 0xFF NOT AND PUSH1 0x1 OR SWAP1 SSTORE PUSH1 0x3 SLOAD PUSH0 SWAP1 PUSH2 0x5A6 SWAP1 PUSH32 0x0 SWAP1 PUSH2 0x2048 JUMP JUMPDEST SWAP1 POP PUSH0 PUSH2 0x5B6 PUSH3 0x15180 DUP4 PUSH2 0x2048 JUMP JUMPDEST SWAP1 POP PUSH0 DUP2 TIMESTAMP LT PUSH2 0x5C6 JUMPI CALLER PUSH2 0x5E8 JUMP JUMPDEST PUSH32 0x0 JUMPDEST SWAP1 POP PUSH0 SELFBALANCE DUP1 ISZERO PUSH2 0x7D6 JUMPI PUSH0 PUSH2 0x2710 PUSH2 0x601 PUSH1 0x32 DUP5 PUSH2 0x2061 JUMP JUMPDEST PUSH2 0x60B SWAP2 SWAP1 PUSH2 0x2078 JUMP JUMPDEST SWAP3 POP DUP3 SWAP1 POP PUSH0 PUSH2 0x61B DUP3 DUP5 PUSH2 0x2097 JUMP JUMPDEST SWAP1 POP DUP2 ISZERO PUSH2 0x6C4 JUMPI PUSH0 DUP6 PUSH1 0x1 PUSH1 0x1 PUSH1 0xA0 SHL SUB AND DUP4 PUSH1 0x40 MLOAD PUSH0 PUSH1 0x40 MLOAD DUP1 DUP4 SUB DUP2 DUP6 DUP8 GAS CALL SWAP3 POP POP POP RETURNDATASIZE DUP1 PUSH0 DUP2 EQ PUSH2 0x66C JUMPI PUSH1 0x40 MLOAD SWAP2 POP PUSH1 0x1F NOT PUSH1 0x3F RETURNDATASIZE ADD AND DUP3 ADD PUSH1 0x40 MSTORE RETURNDATASIZE DUP3 MSTORE RETURNDATASIZE PUSH0 PUSH1 0x20 DUP5 ADD RETURNDATACOPY PUSH2 0x671 JUMP JUMPDEST PUSH1 0x60 SWAP2 POP JUMPDEST POP POP SWAP1 POP DUP1 PUSH2 0x6C2 JUMPI PUSH1 0x40 MLOAD PUSH3 0x461BCD PUSH1 0xE5 SHL DUP2 MSTORE PUSH1 0x20 PUSH1 0x4 DUP3 ADD MSTORE PUSH1 0x18 PUSH1 0x24 DUP3 ADD MSTORE PUSH32 0x45544820666565207472616E73666572206661696C65642E0000000000000000 PUSH1 0x44 DUP3 ADD MSTORE PUSH1 0x64 ADD PUSH2 0x394 JUMP JUMPDEST POP JUMPDEST PUSH0 JUMPDEST PUSH1 0x4 SLOAD DUP2 LT ISZERO PUSH2 0x7D2 JUMPI PUSH0 PUSH1 0x64 PUSH1 0x5 DUP4 DUP2 SLOAD DUP2 LT PUSH2 0x6E6 JUMPI PUSH2 0x6E6 PUSH2 0x20AA JUMP JUMPDEST SWAP1 PUSH0 MSTORE PUSH1 0x20 PUSH0 KECCAK256 ADD SLOAD DUP5 PUSH2 0x6FA SWAP2 SWAP1 PUSH2 0x2061 JUMP JUMPDEST PUSH2 0x704 SWAP2 SWAP1 PUSH2 0x2078 JUMP JUMPDEST SWAP1 POP DUP1 ISZERO PUSH2 0x7C9 JUMPI PUSH0 PUSH1 0x4 DUP4 DUP2 SLOAD DUP2 LT PUSH2 0x720 JUMPI PUSH2 0x720 PUSH2 0x20AA JUMP JUMPDEST PUSH0 SWAP2 DUP3 MSTORE PUSH1 0x20 DUP3 KECCAK256 ADD SLOAD PUSH1 0x40 MLOAD PUSH1 0x1 PUSH1 0x1 PUSH1 0xA0 SHL SUB SWAP1 SWAP2 AND SWAP2 DUP5 SWAP2 SWAP1 DUP2 DUP2 DUP2 DUP6 DUP8 GAS CALL SWAP3 POP POP POP RETURNDATASIZE DUP1 PUSH0 DUP2 EQ PUSH2 0x771 JUMPI PUSH1 0x40 MLOAD SWAP2 POP PUSH1 0x1F NOT PUSH1 0x3F RETURNDATASIZE ADD AND DUP3 ADD PUSH1 0x40 MSTORE RETURNDATASIZE DUP3 MSTORE RETURNDATASIZE PUSH0 PUSH1 0x20 DUP5 ADD RETURNDATACOPY PUSH2 0x776 JUMP JUMPDEST PUSH1 0x60 SWAP2 POP JUMPDEST POP POP SWAP1 POP DUP1 PUSH2 0x7C7 JUMPI PUSH1 0x40 MLOAD PUSH3 0x461BCD PUSH1 0xE5 SHL DUP2 MSTORE PUSH1 0x20 PUSH1 0x4 DUP3 ADD MSTORE PUSH1 0x1C PUSH1 0x24 DUP3 ADD MSTORE PUSH32 0x455448207472616E7366657220746F2068656972206661696C65642E00000000 PUSH1 0x44 DUP3 ADD MSTORE PUSH1 0x64 ADD PUSH2 0x394 JUMP JUMPDEST POP JUMPDEST POP PUSH1 0x1 ADD PUSH2 0x6C6 JUMP JUMPDEST POP POP POP JUMPDEST PUSH0 JUMPDEST PUSH1 0x6 SLOAD DUP2 LT ISZERO PUSH2 0xA0E JUMPI PUSH0 PUSH1 0x6 DUP3 DUP2 SLOAD DUP2 LT PUSH2 0x7F6 JUMPI PUSH2 0x7F6 PUSH2 0x20AA JUMP JUMPDEST PUSH0 SWAP2 DUP3 MSTORE PUSH1 0x20 DUP3 KECCAK256 ADD SLOAD PUSH1 0x40 MLOAD PUSH4 0x70A08231 PUSH1 0xE0 SHL DUP2 MSTORE ADDRESS PUSH1 0x4 DUP3 ADD MSTORE PUSH1 0x1 PUSH1 0x1 PUSH1 0xA0 SHL SUB SWAP1 SWAP2 AND SWAP3 POP DUP3 SWAP1 PUSH4 0x70A08231 SWAP1 PUSH1 0x24 ADD PUSH1 0x20 PUSH1 0x40 MLOAD DUP1 DUP4 SUB DUP2 DUP7 GAS STATICCALL ISZERO DUP1 ISZERO PUSH2 0x846 JUMPI RETURNDATASIZE PUSH0 DUP1 RETURNDATACOPY RETURNDATASIZE PUSH0 REVERT JUMPDEST POP POP POP POP PUSH1 0x40 MLOAD RETURNDATASIZE PUSH1 0x1F NOT PUSH1 0x1F DUP3 ADD AND DUP3 ADD DUP1 PUSH1 0x40 MSTORE POP DUP2 ADD SWAP1 PUSH2 0x86A SWAP2 SWAP1 PUSH2 0x20BE JUMP JUMPDEST SWAP1 POP DUP1 ISZERO PUSH2 0xA04 JUMPI PUSH0 PUSH2 0x2710 PUSH2 0x881 PUSH1 0x32 DUP5 PUSH2 0x2061 JUMP JUMPDEST PUSH2 0x88B SWAP2 SWAP1 PUSH2 0x2078 JUMP JUMPDEST SWAP1 POP PUSH0 PUSH2 0x898 DUP3 DUP5 PUSH2 0x2097 JUMP JUMPDEST SWAP1 POP DUP2 ISZERO PUSH2 0x912 JUMPI PUSH1 0x40 MLOAD PUSH4 0xA9059CBB PUSH1 0xE0 SHL DUP2 MSTORE PUSH1 0x1 PUSH1 0x1 PUSH1 0xA0 SHL SUB DUP10 DUP2 AND PUSH1 0x4 DUP4 ADD MSTORE PUSH1 0x24 DUP3 ADD DUP5 SWAP1 MSTORE DUP6 AND SWAP1 PUSH4 0xA9059CBB SWAP1 PUSH1 0x44 ADD PUSH1 0x20 PUSH1 0x40 MLOAD DUP1 DUP4 SUB DUP2 PUSH0 DUP8 GAS CALL ISZERO DUP1 ISZERO PUSH2 0x8EC JUMPI RETURNDATASIZE PUSH0 DUP1 RETURNDATACOPY RETURNDATASIZE PUSH0 REVERT JUMPDEST POP POP POP POP PUSH1 0x40 MLOAD RETURNDATASIZE PUSH1 0x1F NOT PUSH1 0x1F DUP3 ADD AND DUP3 ADD DUP1 PUSH1 0x40 MSTORE POP DUP2 ADD SWAP1 PUSH2 0x910 SWAP2 SWAP1 PUSH2 0x20D5 JUMP JUMPDEST POP JUMPDEST PUSH0 JUMPDEST PUSH1 0x4 SLOAD DUP2 LT ISZERO PUSH2 0xA00 JUMPI PUSH0 PUSH1 0x64 PUSH1 0x5 DUP4 DUP2 SLOAD DUP2 LT PUSH2 0x934 JUMPI PUSH2 0x934 PUSH2 0x20AA JUMP JUMPDEST SWAP1 PUSH0 MSTORE PUSH1 0x20 PUSH0 KECCAK256 ADD SLOAD DUP5 PUSH2 0x948 SWAP2 SWAP1 PUSH2 0x2061 JUMP JUMPDEST PUSH2 0x952 SWAP2 SWAP1 PUSH2 0x2078 JUMP JUMPDEST SWAP1 POP DUP1 ISZERO PUSH2 0x9F7 JUMPI DUP6 PUSH1 0x1 PUSH1 0x1 PUSH1 0xA0 SHL SUB AND PUSH4 0xA9059CBB PUSH1 0x4 DUP5 DUP2 SLOAD DUP2 LT PUSH2 0x97C JUMPI PUSH2 0x97C PUSH2 0x20AA JUMP JUMPDEST PUSH0 SWAP2 DUP3 MSTORE PUSH1 0x20 SWAP1 SWAP2 KECCAK256 ADD SLOAD PUSH1 0x40 MLOAD PUSH1 0xE0 DUP4 SWAP1 SHL PUSH1 0x1 PUSH1 0x1 PUSH1 0xE0 SHL SUB NOT AND DUP2 MSTORE PUSH1 0x1 PUSH1 0x1 PUSH1 0xA0 SHL SUB SWAP1 SWAP2 AND PUSH1 0x4 DUP3 ADD MSTORE PUSH1 0x24 DUP2 ADD DUP5 SWAP1 MSTORE PUSH1 0x44 ADD PUSH1 0x20 PUSH1 0x40 MLOAD DUP1 DUP4 SUB DUP2 PUSH0 DUP8 GAS CALL ISZERO DUP1 ISZERO PUSH2 0x9D1 JUMPI RETURNDATASIZE PUSH0 DUP1 RETURNDATACOPY RETURNDATASIZE PUSH0 REVERT JUMPDEST POP POP POP POP PUSH1 0x40 MLOAD RETURNDATASIZE PUSH1 0x1F NOT PUSH1 0x1F DUP3 ADD AND DUP3 ADD DUP1 PUSH1 0x40 MSTORE POP DUP2 ADD SWAP1 PUSH2 0x9F5 SWAP2 SWAP1 PUSH2 0x20D5 JUMP JUMPDEST POP JUMPDEST POP PUSH1 0x1 ADD PUSH2 0x914 JUMP JUMPDEST POP POP POP JUMPDEST POP POP PUSH1 0x1 ADD PUSH2 0x7D8 JUMP JUMPDEST POP PUSH0 JUMPDEST PUSH1 0x7 SLOAD DUP2 LT ISZERO PUSH2 0xADC JUMPI PUSH0 PUSH1 0x7 DUP3 DUP2 SLOAD DUP2 LT PUSH2 0xA2F JUMPI PUSH2 0xA2F PUSH2 0x20AA JUMP JUMPDEST PUSH0 SWAP2 DUP3 MSTORE PUSH1 0x20 SWAP2 DUP3 SWAP1 KECCAK256 PUSH1 0x40 DUP1 MLOAD PUSH1 0x60 DUP2 ADD DUP3 MSTORE PUSH1 0x3 SWAP4 SWAP1 SWAP4 MUL SWAP1 SWAP2 ADD DUP1 SLOAD PUSH1 0x1 PUSH1 0x1 PUSH1 0xA0 SHL SUB SWAP1 DUP2 AND DUP1 DUP6 MSTORE PUSH1 0x1 DUP4 ADD SLOAD SWAP6 DUP6 ADD DUP7 SWAP1 MSTORE PUSH1 0x2 SWAP1 SWAP3 ADD SLOAD AND DUP4 DUP4 ADD DUP2 SWAP1 MSTORE SWAP2 MLOAD PUSH4 0x21421707 PUSH1 0xE1 SHL DUP2 MSTORE ADDRESS PUSH1 0x4 DUP3 ADD MSTORE PUSH1 0x24 DUP2 ADD SWAP3 SWAP1 SWAP3 MSTORE PUSH1 0x44 DUP3 ADD SWAP4 SWAP1 SWAP4 MSTORE SWAP1 SWAP3 POP PUSH4 0x42842E0E SWAP1 PUSH1 0x64 ADD PUSH0 PUSH1 0x40 MLOAD DUP1 DUP4 SUB DUP2 PUSH0 DUP8 DUP1 EXTCODESIZE ISZERO DUP1 ISZERO PUSH2 0xAB9 JUMPI PUSH0 DUP1 REVERT JUMPDEST POP GAS CALL ISZERO DUP1 ISZERO PUSH2 0xACB JUMPI RETURNDATASIZE PUSH0 DUP1 RETURNDATACOPY RETURNDATASIZE PUSH0 REVERT JUMPDEST POP POP PUSH1 0x1 SWAP1 SWAP4 ADD SWAP3 POP PUSH2 0xA11 SWAP2 POP POP JUMP JUMPDEST POP PUSH1 0x40 DUP1 MLOAD CALLER DUP2 MSTORE PUSH1 0x20 DUP2 ADD DUP5 SWAP1 MSTORE PUSH1 0x1 PUSH1 0x1 PUSH1 0xA0 SHL SUB DUP6 AND DUP2 DUP4 ADD MSTORE SWAP1 MLOAD PUSH32 0x52BA16C8B985EFF690A9DE92094BD7486F89340E06E385FFB26DE9C6EEA384DC SWAP2 DUP2 SWAP1 SUB PUSH1 0x60 ADD SWAP1 LOG1 POP POP PUSH1 0x1 DUP1 SSTORE POP POP POP POP POP JUMP JUMPDEST PUSH1 0x2 SLOAD PUSH1 0xFF AND ISZERO PUSH2 0xB55 JUMPI PUSH1 0x40 MLOAD PUSH3 0x461BCD PUSH1 0xE5 SHL DUP2 MSTORE PUSH1 0x4 ADD PUSH2 0x394 SWAP1 PUSH2 0x1FAA JUMP JUMPDEST CALLER PUSH2 0xB67 PUSH0 SLOAD PUSH1 0x1 PUSH1 0x1 PUSH1 0xA0 SHL SUB AND SWAP1 JUMP JUMPDEST PUSH1 0x1 PUSH1 0x1 PUSH1 0xA0 SHL SUB AND EQ PUSH2 0xB8D JUMPI PUSH1 0x40 MLOAD PUSH3 0x461BCD PUSH1 0xE5 SHL DUP2 MSTORE PUSH1 0x4 ADD PUSH2 0x394 SWAP1 PUSH2 0x1FEE JUMP JUMPDEST PUSH2 0xB95 PUSH2 0x18EA JUMP JUMPDEST PUSH1 0x2 PUSH1 0x1 DUP2 DUP2 SSTORE DUP2 SLOAD PUSH1 0xFF NOT AND OR SWAP1 SSTORE PUSH0 SLOAD PUSH1 0x1 PUSH1 0x1 PUSH1 0xA0 SHL SUB AND PUSH32 0x0 ISZERO PUSH2 0xD35 JUMPI PUSH32 0x0 SELFBALANCE LT ISZERO PUSH2 0xC54 JUMPI PUSH1 0x40 MLOAD PUSH3 0x461BCD PUSH1 0xE5 SHL DUP2 MSTORE PUSH1 0x20 PUSH1 0x4 DUP3 ADD MSTORE PUSH1 0x25 PUSH1 0x24 DUP3 ADD MSTORE PUSH32 0x496E73756666696369656E742045544820666F72207465726D696E6174696F6E PUSH1 0x44 DUP3 ADD MSTORE PUSH5 0x103332B297 PUSH1 0xD9 SHL PUSH1 0x64 DUP3 ADD MSTORE PUSH1 0x84 ADD PUSH2 0x394 JUMP JUMPDEST PUSH0 PUSH32 0x0 PUSH1 0x1 PUSH1 0x1 PUSH1 0xA0 SHL SUB AND PUSH32 0x0 PUSH1 0x40 MLOAD PUSH0 PUSH1 0x40 MLOAD DUP1 DUP4 SUB DUP2 DUP6 DUP8 GAS CALL SWAP3 POP POP POP RETURNDATASIZE DUP1 PUSH0 DUP2 EQ PUSH2 0xCDD JUMPI PUSH1 0x40 MLOAD SWAP2 POP PUSH1 0x1F NOT PUSH1 0x3F RETURNDATASIZE ADD AND DUP3 ADD PUSH1 0x40 MSTORE RETURNDATASIZE DUP3 MSTORE RETURNDATASIZE PUSH0 PUSH1 0x20 DUP5 ADD RETURNDATACOPY PUSH2 0xCE2 JUMP JUMPDEST PUSH1 0x60 SWAP2 POP JUMPDEST POP POP SWAP1 POP DUP1 PUSH2 0xD33 JUMPI PUSH1 0x40 MLOAD PUSH3 0x461BCD PUSH1 0xE5 SHL DUP2 MSTORE PUSH1 0x20 PUSH1 0x4 DUP3 ADD DUP2 SWAP1 MSTORE PUSH1 0x24 DUP3 ADD MSTORE PUSH32 0x5465726D696E6174696F6E20666565207472616E73666572206661696C65642E PUSH1 0x44 DUP3 ADD MSTORE PUSH1 0x64 ADD PUSH2 0x394 JUMP JUMPDEST POP JUMPDEST PUSH1 0x40 MLOAD PUSH4 0xA658DD6B PUSH1 0xE0 SHL DUP2 MSTORE PUSH1 0x1 PUSH1 0x1 PUSH1 0xA0 SHL SUB DUP3 DUP2 AND PUSH1 0x4 DUP4 ADD MSTORE PUSH32 0x0 AND SWAP1 PUSH4 0xA658DD6B SWAP1 PUSH1 0x24 ADD PUSH0 PUSH1 0x40 MLOAD DUP1 DUP4 SUB DUP2 PUSH0 DUP8 DUP1 EXTCODESIZE ISZERO DUP1 ISZERO PUSH2 0xD95 JUMPI PUSH0 DUP1 REVERT JUMPDEST POP GAS CALL ISZERO DUP1 ISZERO PUSH2 0xDA7 JUMPI RETURNDATASIZE PUSH0 DUP1 RETURNDATACOPY RETURNDATASIZE PUSH0 REVERT JUMPDEST POP POP POP POP PUSH0 JUMPDEST PUSH1 0x6 SLOAD DUP2 LT ISZERO PUSH2 0xEC3 JUMPI PUSH0 PUSH1 0x6 DUP3 DUP2 SLOAD DUP2 LT PUSH2 0xDCB JUMPI PUSH2 0xDCB PUSH2 0x20AA JUMP JUMPDEST PUSH0 SWAP2 DUP3 MSTORE PUSH1 0x20 DUP3 KECCAK256 ADD SLOAD PUSH1 0x40 MLOAD PUSH4 0x70A08231 PUSH1 0xE0 SHL DUP2 MSTORE ADDRESS PUSH1 0x4 DUP3 ADD MSTORE PUSH1 0x1 PUSH1 0x1 PUSH1 0xA0 SHL SUB SWAP1 SWAP2 AND SWAP3 POP DUP3 SWAP1 PUSH4 0x70A08231 SWAP1 PUSH1 0x24 ADD PUSH1 0x20 PUSH1 0x40 MLOAD DUP1 DUP4 SUB DUP2 DUP7 GAS STATICCALL ISZERO DUP1 ISZERO PUSH2 0xE1B JUMPI RETURNDATASIZE PUSH0 DUP1 RETURNDATACOPY RETURNDATASIZE PUSH0 REVERT JUMPDEST POP POP POP POP PUSH1 0x40 MLOAD RETURNDATASIZE PUSH1 0x1F NOT PUSH1 0x1F DUP3 ADD AND DUP3 ADD DUP1 PUSH1 0x40 MSTORE POP DUP2 ADD SWAP1 PUSH2 0xE3F SWAP2 SWAP1 PUSH2 0x20BE JUMP JUMPDEST SWAP1 POP DUP1 ISZERO PUSH2 0xEB9 JUMPI PUSH1 0x40 MLOAD PUSH4 0xA9059CBB PUSH1 0xE0 SHL DUP2 MSTORE PUSH1 0x1 PUSH1 0x1 PUSH1 0xA0 SHL SUB DUP6 DUP2 AND PUSH1 0x4 DUP4 ADD MSTORE PUSH1 0x24 DUP3 ADD DUP4 SWAP1 MSTORE DUP4 AND SWAP1 PUSH4 0xA9059CBB SWAP1 PUSH1 0x44 ADD PUSH1 0x20 PUSH1 0x40 MLOAD DUP1 DUP4 SUB DUP2 PUSH0 DUP8 GAS CALL ISZERO DUP1 ISZERO PUSH2 0xE93 JUMPI RETURNDATASIZE PUSH0 DUP1 RETURNDATACOPY RETURNDATASIZE PUSH0 REVERT JUMPDEST POP POP POP POP PUSH1 0x40 MLOAD RETURNDATASIZE PUSH1 0x1F NOT PUSH1 0x1F DUP3 ADD AND DUP3 ADD DUP1 PUSH1 0x40 MSTORE POP DUP2 ADD SWAP1 PUSH2 0xEB7 SWAP2 SWAP1 PUSH2 0x20D5 JUMP JUMPDEST POP JUMPDEST POP POP PUSH1 0x1 ADD PUSH2 0xDAD JUMP JUMPDEST POP PUSH0 JUMPDEST PUSH1 0x7 SLOAD DUP2 LT ISZERO PUSH2 0xF90 JUMPI PUSH0 PUSH1 0x7 DUP3 DUP2 SLOAD DUP2 LT PUSH2 0xEE4 JUMPI PUSH2 0xEE4 PUSH2 0x20AA JUMP JUMPDEST PUSH0 SWAP2 DUP3 MSTORE PUSH1 0x20 SWAP2 DUP3 SWAP1 KECCAK256 PUSH1 0x40 DUP1 MLOAD PUSH1 0x60 DUP2 ADD DUP3 MSTORE PUSH1 0x3 SWAP4 SWAP1 SWAP4 MUL SWAP1 SWAP2 ADD DUP1 SLOAD PUSH1 0x1 PUSH1 0x1 PUSH1 0xA0 SHL SUB SWAP1 DUP2 AND DUP1 DUP6 MSTORE PUSH1 0x1 DUP4 ADD SLOAD SWAP6 DUP6 ADD DUP7 SWAP1 MSTORE PUSH1 0x2 SWAP1 SWAP3 ADD SLOAD DUP2 AND DUP5 DUP5 ADD MSTORE SWAP2 MLOAD PUSH4 0x21421707 PUSH1 0xE1 SHL DUP2 MSTORE ADDRESS PUSH1 0x4 DUP3 ADD MSTORE SWAP2 DUP8 AND PUSH1 0x24 DUP4 ADD MSTORE PUSH1 0x44 DUP3 ADD SWAP4 SWAP1 SWAP4 MSTORE SWAP1 SWAP3 POP PUSH4 0x42842E0E SWAP1 PUSH1 0x64 ADD PUSH0 PUSH1 0x40 MLOAD DUP1 DUP4 SUB DUP2 PUSH0 DUP8 DUP1 EXTCODESIZE ISZERO DUP1 ISZERO PUSH2 0xF6D JUMPI PUSH0 DUP1 REVERT JUMPDEST POP GAS CALL ISZERO DUP1 ISZERO PUSH2 0xF7F JUMPI RETURNDATASIZE PUSH0 DUP1 RETURNDATACOPY RETURNDATASIZE PUSH0 REVERT JUMPDEST POP POP PUSH1 0x1 SWAP1 SWAP4 ADD SWAP3 POP PUSH2 0xEC6 SWAP2 POP POP JUMP JUMPDEST POP SELFBALANCE DUP1 ISZERO PUSH2 0x1030 JUMPI PUSH0 DUP3 PUSH1 0x1 PUSH1 0x1 PUSH1 0xA0 SHL SUB AND DUP3 PUSH1 0x40 MLOAD PUSH0 PUSH1 0x40 MLOAD DUP1 DUP4 SUB DUP2 DUP6 DUP8 GAS CALL SWAP3 POP POP POP RETURNDATASIZE DUP1 PUSH0 DUP2 EQ PUSH2 0xFE1 JUMPI PUSH1 0x40 MLOAD SWAP2 POP PUSH1 0x1F NOT PUSH1 0x3F RETURNDATASIZE ADD AND DUP3 ADD PUSH1 0x40 MSTORE RETURNDATASIZE DUP3 MSTORE RETURNDATASIZE PUSH0 PUSH1 0x20 DUP5 ADD RETURNDATACOPY PUSH2 0xFE6 JUMP JUMPDEST PUSH1 0x60 SWAP2 POP JUMPDEST POP POP SWAP1 POP DUP1 PUSH2 0x102E JUMPI PUSH1 0x40 MLOAD PUSH3 0x461BCD PUSH1 0xE5 SHL DUP2 MSTORE PUSH1 0x20 PUSH1 0x4 DUP3 ADD MSTORE PUSH1 0x14 PUSH1 0x24 DUP3 ADD MSTORE PUSH20 0x22AA24103A3930B739B332B9103330B4B632B217 PUSH1 0x61 SHL PUSH1 0x44 DUP3 ADD MSTORE PUSH1 0x64 ADD PUSH2 0x394 JUMP JUMPDEST POP JUMPDEST PUSH1 0x40 MLOAD PUSH32 0x0 DUP2 MSTORE PUSH32 0xC41D93B8BFBF9FD7CF5BFE271FD649AB6A6FEC0EA101C23B82A2A28ECA2533A9 SWAP1 PUSH1 0x20 ADD PUSH1 0x40 MLOAD DUP1 SWAP2 SUB SWAP1 LOG1 POP POP PUSH1 0x1 DUP1 SSTORE JUMP JUMPDEST PUSH2 0x1093 PUSH2 0x190D JUMP JUMPDEST PUSH2 0x109C PUSH0 PUSH2 0x1939 JUMP JUMPDEST JUMP JUMPDEST PUSH1 0x6 DUP2 DUP2 SLOAD DUP2 LT PUSH2 0x339 JUMPI PUSH0 DUP1 REVERT JUMPDEST PUSH1 0x8 SLOAD PUSH1 0xFF AND ISZERO PUSH2 0x1100 JUMPI PUSH1 0x40 MLOAD PUSH3 0x461BCD PUSH1 0xE5 SHL DUP2 MSTORE PUSH1 0x20 PUSH1 0x4 DUP3 ADD MSTORE PUSH1 0x19 PUSH1 0x24 DUP3 ADD MSTORE PUSH32 0x57696C6C3A20616C726561647920696E697469616C697A656400000000000000 PUSH1 0x44 DUP3 ADD MSTORE PUSH1 0x64 ADD PUSH2 0x394 JUMP JUMPDEST CALLER PUSH1 0x1 PUSH1 0x1 PUSH1 0xA0 SHL SUB PUSH32 0x0 AND EQ PUSH2 0x1178 JUMPI PUSH1 0x40 MLOAD PUSH3 0x461BCD PUSH1 0xE5 SHL DUP2 MSTORE PUSH1 0x20 PUSH1 0x4 DUP3 ADD MSTORE PUSH1 0x1B PUSH1 0x24 DUP3 ADD MSTORE PUSH32 0x57696C6C3A206E6F742063616C6C656420627920666163746F72790000000000 PUSH1 0x44 DUP3 ADD MSTORE PUSH1 0x64 ADD PUSH2 0x394 JUMP JUMPDEST PUSH1 0x8 DUP1 SLOAD PUSH1 0xFF NOT AND PUSH1 0x1 OR SWAP1 SSTORE DUP3 MLOAD DUP5 MLOAD EQ PUSH2 0x11E7 JUMPI PUSH1 0x40 MLOAD PUSH3 0x461BCD PUSH1 0xE5 SHL DUP2 MSTORE PUSH1 0x20 PUSH1 0x4 DUP3 ADD MSTORE PUSH1 0x28 PUSH1 0x24 DUP3 ADD MSTORE PUSH32 0x486569727320616E6420646973747269627574696F6E73206C656E677468206D PUSH1 0x44 DUP3 ADD MSTORE PUSH8 0x34B9B6B0BA31B417 PUSH1 0xC1 SHL PUSH1 0x64 DUP3 ADD MSTORE PUSH1 0x84 ADD PUSH2 0x394 JUMP JUMPDEST PUSH0 DUP5 MLOAD GT PUSH2 0x1230 JUMPI PUSH1 0x40 MLOAD PUSH3 0x461BCD PUSH1 0xE5 SHL DUP2 MSTORE PUSH1 0x20 PUSH1 0x4 DUP3 ADD MSTORE PUSH1 0x16 PUSH1 0x24 DUP3 ADD MSTORE PUSH22 0x2432B4B9399031B0B73737BA1031329032B6B83A3C97 PUSH1 0x51 SHL PUSH1 0x44 DUP3 ADD MSTORE PUSH1 0x64 ADD PUSH2 0x394 JUMP JUMPDEST PUSH0 DUP1 JUMPDEST DUP5 MLOAD DUP2 LT ISZERO PUSH2 0x126B JUMPI DUP5 DUP2 DUP2 MLOAD DUP2 LT PUSH2 0x124E JUMPI PUSH2 0x124E PUSH2 0x20AA JUMP JUMPDEST PUSH1 0x20 MUL PUSH1 0x20 ADD ADD MLOAD DUP3 PUSH2 0x1261 SWAP2 SWAP1 PUSH2 0x2048 JUMP JUMPDEST SWAP2 POP PUSH1 0x1 ADD PUSH2 0x1233 JUMP JUMPDEST POP DUP1 PUSH1 0x64 EQ PUSH2 0x12CE JUMPI PUSH1 0x40 MLOAD PUSH3 0x461BCD PUSH1 0xE5 SHL DUP2 MSTORE PUSH1 0x20 PUSH1 0x4 DUP3 ADD MSTORE PUSH1 0x29 PUSH1 0x24 DUP3 ADD MSTORE PUSH32 0x446973747269627574696F6E2070657263656E7461676573206D757374207375 PUSH1 0x44 DUP3 ADD MSTORE PUSH9 0x36903A379018981817 PUSH1 0xB9 SHL PUSH1 0x64 DUP3 ADD MSTORE PUSH1 0x84 ADD PUSH2 0x394 JUMP JUMPDEST TIMESTAMP PUSH1 0x3 SSTORE DUP5 MLOAD PUSH2 0x12E5 SWAP1 PUSH1 0x4 SWAP1 PUSH1 0x20 DUP9 ADD SWAP1 PUSH2 0x1988 JUMP JUMPDEST POP DUP4 MLOAD PUSH2 0x12F9 SWAP1 PUSH1 0x5 SWAP1 PUSH1 0x20 DUP8 ADD SWAP1 PUSH2 0x19EB JUMP JUMPDEST POP PUSH0 JUMPDEST DUP4 MLOAD DUP2 LT ISZERO PUSH2 0x1372 JUMPI PUSH1 0x6 PUSH1 0x40 MLOAD DUP1 PUSH1 0x20 ADD PUSH1 0x40 MSTORE DUP1 DUP7 DUP5 DUP2 MLOAD DUP2 LT PUSH2 0x1324 JUMPI PUSH2 0x1324 PUSH2 0x20AA JUMP JUMPDEST PUSH1 0x20 SWAP1 DUP2 MUL SWAP2 SWAP1 SWAP2 ADD DUP2 ADD MLOAD MLOAD PUSH1 0x1 PUSH1 0x1 PUSH1 0xA0 SHL SUB SWAP1 DUP2 AND SWAP1 SWAP3 MSTORE DUP4 SLOAD PUSH1 0x1 DUP1 DUP3 ADD DUP7 SSTORE PUSH0 SWAP6 DUP7 MSTORE SWAP2 SWAP1 SWAP5 KECCAK256 SWAP3 MLOAD SWAP3 SWAP1 SWAP4 ADD DUP1 SLOAD PUSH1 0x1 PUSH1 0x1 PUSH1 0xA0 SHL SUB NOT AND SWAP3 SWAP1 SWAP2 AND SWAP2 SWAP1 SWAP2 OR SWAP1 SSTORE ADD PUSH2 0x12FC JUMP JUMPDEST POP PUSH0 JUMPDEST DUP3 MLOAD DUP2 LT ISZERO PUSH2 0x145B JUMPI PUSH1 0x7 PUSH1 0x40 MLOAD DUP1 PUSH1 0x60 ADD PUSH1 0x40 MSTORE DUP1 DUP6 DUP5 DUP2 MLOAD DUP2 LT PUSH2 0x139D JUMPI PUSH2 0x139D PUSH2 0x20AA JUMP JUMPDEST PUSH1 0x20 MUL PUSH1 0x20 ADD ADD MLOAD PUSH0 ADD MLOAD PUSH1 0x1 PUSH1 0x1 PUSH1 0xA0 SHL SUB AND DUP2 MSTORE PUSH1 0x20 ADD DUP6 DUP5 DUP2 MLOAD DUP2 LT PUSH2 0x13C8 JUMPI PUSH2 0x13C8 PUSH2 0x20AA JUMP JUMPDEST PUSH1 0x20 MUL PUSH1 0x20 ADD ADD MLOAD PUSH1 0x20 ADD MLOAD DUP2 MSTORE PUSH1 0x20 ADD DUP6 DUP5 DUP2 MLOAD DUP2 LT PUSH2 0x13EB JUMPI PUSH2 0x13EB PUSH2 0x20AA JUMP JUMPDEST PUSH1 0x20 SWAP1 DUP2 MUL SWAP2 SWAP1 SWAP2 ADD DUP2 ADD MLOAD PUSH1 0x40 SWAP1 DUP2 ADD MLOAD PUSH1 0x1 PUSH1 0x1 PUSH1 0xA0 SHL SUB SWAP1 DUP2 AND SWAP1 SWAP4 MSTORE DUP5 SLOAD PUSH1 0x1 DUP1 DUP3 ADD DUP8 SSTORE PUSH0 SWAP7 DUP8 MSTORE SWAP6 DUP4 SWAP1 KECCAK256 DUP6 MLOAD PUSH1 0x3 SWAP1 SWAP3 MUL ADD DUP1 SLOAD PUSH1 0x1 PUSH1 0x1 PUSH1 0xA0 SHL SUB NOT SWAP1 DUP2 AND SWAP3 DUP7 AND SWAP3 SWAP1 SWAP3 OR DUP2 SSTORE SWAP3 DUP6 ADD MLOAD DUP4 DUP8 ADD SSTORE SWAP4 ADD MLOAD PUSH1 0x2 SWAP1 SWAP2 ADD DUP1 SLOAD SWAP1 SWAP4 AND SWAP2 AND OR SWAP1 SSTORE ADD PUSH2 0x1375 JUMP JUMPDEST POP POP POP POP POP POP JUMP JUMPDEST PUSH2 0x14C0 PUSH1 0x40 MLOAD DUP1 PUSH2 0x140 ADD PUSH1 0x40 MSTORE DUP1 PUSH0 PUSH1 0x1 PUSH1 0x1 PUSH1 0xA0 SHL SUB AND DUP2 MSTORE PUSH1 0x20 ADD PUSH0 DUP2 MSTORE PUSH1 0x20 ADD PUSH0 DUP2 MSTORE PUSH1 0x20 ADD PUSH0 ISZERO ISZERO DUP2 MSTORE PUSH1 0x20 ADD PUSH0 ISZERO ISZERO DUP2 MSTORE PUSH1 0x20 ADD PUSH0 DUP2 MSTORE PUSH1 0x20 ADD PUSH1 0x60 DUP2 MSTORE PUSH1 0x20 ADD PUSH1 0x60 DUP2 MSTORE PUSH1 0x20 ADD PUSH1 0x60 DUP2 MSTORE PUSH1 0x20 ADD PUSH1 0x60 DUP2 MSTORE POP SWAP1 JUMP JUMPDEST PUSH1 0x6 SLOAD PUSH0 SWAP1 PUSH8 0xFFFFFFFFFFFFFFFF DUP2 GT ISZERO PUSH2 0x14DD JUMPI PUSH2 0x14DD PUSH2 0x1A4F JUMP JUMPDEST PUSH1 0x40 MLOAD SWAP1 DUP1 DUP3 MSTORE DUP1 PUSH1 0x20 MUL PUSH1 0x20 ADD DUP3 ADD PUSH1 0x40 MSTORE DUP1 ISZERO PUSH2 0x1521 JUMPI DUP2 PUSH1 0x20 ADD JUMPDEST PUSH1 0x40 DUP1 MLOAD DUP1 DUP3 ADD SWAP1 SWAP2 MSTORE PUSH0 DUP1 DUP3 MSTORE PUSH1 0x20 DUP3 ADD MSTORE DUP2 MSTORE PUSH1 0x20 ADD SWAP1 PUSH1 0x1 SWAP1 SUB SWAP1 DUP2 PUSH2 0x14FB JUMPI SWAP1 POP JUMPDEST POP SWAP1 POP PUSH0 JUMPDEST PUSH1 0x6 SLOAD DUP2 LT ISZERO PUSH2 0x15F4 JUMPI PUSH0 PUSH1 0x6 DUP3 DUP2 SLOAD DUP2 LT PUSH2 0x1544 JUMPI PUSH2 0x1544 PUSH2 0x20AA JUMP JUMPDEST PUSH0 SWAP2 DUP3 MSTORE PUSH1 0x20 SWAP2 DUP3 SWAP1 KECCAK256 ADD SLOAD PUSH1 0x40 DUP1 MLOAD DUP1 DUP3 ADD DUP3 MSTORE PUSH1 0x1 PUSH1 0x1 PUSH1 0xA0 SHL SUB SWAP1 SWAP3 AND DUP1 DUP4 MSTORE SWAP1 MLOAD PUSH4 0x70A08231 PUSH1 0xE0 SHL DUP2 MSTORE ADDRESS PUSH1 0x4 DUP3 ADD MSTORE SWAP1 SWAP4 POP SWAP1 SWAP2 DUP3 ADD SWAP1 DUP4 SWAP1 PUSH4 0x70A08231 SWAP1 PUSH1 0x24 ADD PUSH1 0x20 PUSH1 0x40 MLOAD DUP1 DUP4 SUB DUP2 DUP7 GAS STATICCALL ISZERO DUP1 ISZERO PUSH2 0x15A7 JUMPI RETURNDATASIZE PUSH0 DUP1 RETURNDATACOPY RETURNDATASIZE PUSH0 REVERT JUMPDEST POP POP POP POP PUSH1 0x40 MLOAD RETURNDATASIZE PUSH1 0x1F NOT PUSH1 0x1F DUP3 ADD AND DUP3 ADD DUP1 PUSH1 0x40 MSTORE POP DUP2 ADD SWAP1 PUSH2 0x15CB SWAP2 SWAP1 PUSH2 0x20BE JUMP JUMPDEST DUP2 MSTORE POP DUP4 DUP4 DUP2 MLOAD DUP2 LT PUSH2 0x15E0 JUMPI PUSH2 0x15E0 PUSH2 0x20AA JUMP JUMPDEST PUSH1 0x20 SWAP1 DUP2 MUL SWAP2 SWAP1 SWAP2 ADD ADD MSTORE POP PUSH1 0x1 ADD PUSH2 0x1526 JUMP JUMPDEST POP PUSH1 0x7 SLOAD PUSH0 SWAP1 PUSH8 0xFFFFFFFFFFFFFFFF DUP2 GT ISZERO PUSH2 0x1612 JUMPI PUSH2 0x1612 PUSH2 0x1A4F JUMP JUMPDEST PUSH1 0x40 MLOAD SWAP1 DUP1 DUP3 MSTORE DUP1 PUSH1 0x20 MUL PUSH1 0x20 ADD DUP3 ADD PUSH1 0x40 MSTORE DUP1 ISZERO PUSH2 0x165B JUMPI DUP2 PUSH1 0x20 ADD JUMPDEST PUSH1 0x40 DUP1 MLOAD PUSH1 0x60 DUP2 ADD DUP3 MSTORE PUSH0 DUP1 DUP3 MSTORE PUSH1 0x20 DUP1 DUP4 ADD DUP3 SWAP1 MSTORE SWAP3 DUP3 ADD MSTORE DUP3 MSTORE PUSH0 NOT SWAP1 SWAP3 ADD SWAP2 ADD DUP2 PUSH2 0x1630 JUMPI SWAP1 POP JUMPDEST POP SWAP1 POP PUSH0 JUMPDEST PUSH1 0x7 SLOAD DUP2 LT ISZERO PUSH2 0x1710 JUMPI PUSH0 PUSH1 0x7 DUP3 DUP2 SLOAD DUP2 LT PUSH2 0x167E JUMPI PUSH2 0x167E PUSH2 0x20AA JUMP JUMPDEST PUSH0 SWAP2 DUP3 MSTORE PUSH1 0x20 SWAP2 DUP3 SWAP1 KECCAK256 PUSH1 0x40 DUP1 MLOAD PUSH1 0x60 DUP1 DUP3 ADD DUP4 MSTORE PUSH1 0x3 SWAP1 SWAP5 MUL SWAP1 SWAP3 ADD DUP1 SLOAD PUSH1 0x1 PUSH1 0x1 PUSH1 0xA0 SHL SUB SWAP1 DUP2 AND DUP5 MSTORE PUSH1 0x1 DUP3 ADD SLOAD DUP5 DUP8 ADD SWAP1 DUP2 MSTORE PUSH1 0x2 SWAP1 SWAP3 ADD SLOAD DUP2 AND DUP5 DUP5 ADD SWAP1 DUP2 MSTORE DUP4 MLOAD SWAP6 DUP7 ADD DUP5 MSTORE DUP5 MLOAD DUP3 AND DUP7 MSTORE SWAP2 MLOAD SWAP6 DUP6 ADD SWAP6 SWAP1 SWAP6 MSTORE MLOAD SWAP1 SWAP4 AND SWAP3 DUP3 ADD SWAP3 SWAP1 SWAP3 MSTORE DUP5 MLOAD SWAP2 SWAP3 POP SWAP1 DUP5 SWAP1 DUP5 SWAP1 DUP2 LT PUSH2 0x16FC JUMPI PUSH2 0x16FC PUSH2 0x20AA JUMP JUMPDEST PUSH1 0x20 SWAP1 DUP2 MUL SWAP2 SWAP1 SWAP2 ADD ADD MSTORE POP PUSH1 0x1 ADD PUSH2 0x1660 JUMP JUMPDEST POP PUSH1 0x40 MLOAD DUP1 PUSH2 0x140 ADD PUSH1 0x40 MSTORE DUP1 PUSH2 0x172E PUSH0 SLOAD PUSH1 0x1 PUSH1 0x1 PUSH1 0xA0 SHL SUB AND SWAP1 JUMP JUMPDEST PUSH1 0x1 PUSH1 0x1 PUSH1 0xA0 SHL SUB AND DUP2 MSTORE PUSH1 0x20 ADD PUSH32 0x0 DUP2 MSTORE PUSH1 0x20 ADD PUSH1 0x3 SLOAD DUP2 MSTORE PUSH1 0x20 ADD PUSH1 0x2 PUSH0 SWAP1 SLOAD SWAP1 PUSH2 0x100 EXP SWAP1 DIV PUSH1 0xFF AND ISZERO ISZERO DUP2 MSTORE PUSH1 0x20 ADD PUSH32 0x0 ISZERO ISZERO DUP2 MSTORE PUSH1 0x20 ADD SELFBALANCE DUP2 MSTORE PUSH1 0x20 ADD PUSH1 0x4 DUP1 SLOAD DUP1 PUSH1 0x20 MUL PUSH1 0x20 ADD PUSH1 0x40 MLOAD SWAP1 DUP2 ADD PUSH1 0x40 MSTORE DUP1 SWAP3 SWAP2 SWAP1 DUP2 DUP2 MSTORE PUSH1 0x20 ADD DUP3 DUP1 SLOAD DUP1 ISZERO PUSH2 0x1802 JUMPI PUSH1 0x20 MUL DUP3 ADD SWAP2 SWAP1 PUSH0 MSTORE PUSH1 0x20 PUSH0 KECCAK256 SWAP1 JUMPDEST DUP2 SLOAD PUSH1 0x1 PUSH1 0x1 PUSH1 0xA0 SHL SUB AND DUP2 MSTORE PUSH1 0x1 SWAP1 SWAP2 ADD SWAP1 PUSH1 0x20 ADD DUP1 DUP4 GT PUSH2 0x17E4 JUMPI JUMPDEST POP POP POP POP POP DUP2 MSTORE PUSH1 0x20 ADD PUSH1 0x5 DUP1 SLOAD DUP1 PUSH1 0x20 MUL PUSH1 0x20 ADD PUSH1 0x40 MLOAD SWAP1 DUP2 ADD PUSH1 0x40 MSTORE DUP1 SWAP3 SWAP2 SWAP1 DUP2 DUP2 MSTORE PUSH1 0x20 ADD DUP3 DUP1 SLOAD DUP1 ISZERO PUSH2 0x1856 JUMPI PUSH1 0x20 MUL DUP3 ADD SWAP2 SWAP1 PUSH0 MSTORE PUSH1 0x20 PUSH0 KECCAK256 SWAP1 JUMPDEST DUP2 SLOAD DUP2 MSTORE PUSH1 0x20 ADD SWAP1 PUSH1 0x1 ADD SWAP1 DUP1 DUP4 GT PUSH2 0x1842 JUMPI JUMPDEST POP POP POP POP POP DUP2 MSTORE PUSH1 0x20 ADD DUP4 DUP2 MSTORE PUSH1 0x20 ADD DUP3 DUP2 MSTORE POP SWAP3 POP POP POP SWAP1 JUMP JUMPDEST PUSH1 0x7 DUP2 DUP2 SLOAD DUP2 LT PUSH2 0x1880 JUMPI PUSH0 DUP1 REVERT JUMPDEST PUSH0 SWAP2 DUP3 MSTORE PUSH1 0x20 SWAP1 SWAP2 KECCAK256 PUSH1 0x3 SWAP1 SWAP2 MUL ADD DUP1 SLOAD PUSH1 0x1 DUP3 ADD SLOAD PUSH1 0x2 SWAP1 SWAP3 ADD SLOAD PUSH1 0x1 PUSH1 0x1 PUSH1 0xA0 SHL SUB SWAP2 DUP3 AND SWAP4 POP AND DUP4 JUMP JUMPDEST PUSH2 0x18B5 PUSH2 0x190D JUMP JUMPDEST PUSH1 0x1 PUSH1 0x1 PUSH1 0xA0 SHL SUB DUP2 AND PUSH2 0x18DE JUMPI PUSH1 0x40 MLOAD PUSH4 0x1E4FBDF7 PUSH1 0xE0 SHL DUP2 MSTORE PUSH0 PUSH1 0x4 DUP3 ADD MSTORE PUSH1 0x24 ADD PUSH2 0x394 JUMP JUMPDEST PUSH2 0x18E7 DUP2 PUSH2 0x1939 JUMP JUMPDEST POP JUMP JUMPDEST PUSH1 0x2 PUSH1 0x1 SLOAD SUB PUSH2 0x109C JUMPI PUSH1 0x40 MLOAD PUSH4 0x3EE5AEB5 PUSH1 0xE0 SHL DUP2 MSTORE PUSH1 0x4 ADD PUSH1 0x40 MLOAD DUP1 SWAP2 SUB SWAP1 REVERT JUMPDEST PUSH0 SLOAD PUSH1 0x1 PUSH1 0x1 PUSH1 0xA0 SHL SUB AND CALLER EQ PUSH2 0x109C JUMPI PUSH1 0x40 MLOAD PUSH4 0x118CDAA7 PUSH1 0xE0 SHL DUP2 MSTORE CALLER PUSH1 0x4 DUP3 ADD MSTORE PUSH1 0x24 ADD PUSH2 0x394 JUMP JUMPDEST PUSH0 DUP1 SLOAD PUSH1 0x1 PUSH1 0x1 PUSH1 0xA0 SHL SUB DUP4 DUP2 AND PUSH1 0x1 PUSH1 0x1 PUSH1 0xA0 SHL SUB NOT DUP4 AND DUP2 OR DUP5 SSTORE PUSH1 0x40 MLOAD SWAP2 SWAP1 SWAP3 AND SWAP3 DUP4 SWAP2 PUSH32 0x8BE0079C531659141344CD1FD0A4F28419497F9722A3DAAFE3B4186F6B6457E0 SWAP2 SWAP1 LOG3 POP POP JUMP JUMPDEST DUP3 DUP1 SLOAD DUP3 DUP3 SSTORE SWAP1 PUSH0 MSTORE PUSH1 0x20 PUSH0 KECCAK256 SWAP1 DUP2 ADD SWAP3 DUP3 ISZERO PUSH2 0x19DB JUMPI SWAP2 PUSH1 0x20 MUL DUP3 ADD JUMPDEST DUP3 DUP2 GT ISZERO PUSH2 0x19DB JUMPI DUP3 MLOAD DUP3 SLOAD PUSH1 0x1 PUSH1 0x1 PUSH1 0xA0 SHL SUB NOT AND PUSH1 0x1 PUSH1 0x1 PUSH1 0xA0 SHL SUB SWAP1 SWAP2 AND OR DUP3 SSTORE PUSH1 0x20 SWAP1 SWAP3 ADD SWAP2 PUSH1 0x1 SWAP1 SWAP2 ADD SWAP1 PUSH2 0x19A6 JUMP JUMPDEST POP PUSH2 0x19E7 SWAP3 SWAP2 POP PUSH2 0x1A24 JUMP JUMPDEST POP SWAP1 JUMP JUMPDEST DUP3 DUP1 SLOAD DUP3 DUP3 SSTORE SWAP1 PUSH0 MSTORE PUSH1 0x20 PUSH0 KECCAK256 SWAP1 DUP2 ADD SWAP3 DUP3 ISZERO PUSH2 0x19DB JUMPI SWAP2 PUSH1 0x20 MUL DUP3 ADD JUMPDEST DUP3 DUP2 GT ISZERO PUSH2 0x19DB JUMPI DUP3 MLOAD DUP3 SSTORE SWAP2 PUSH1 0x20 ADD SWAP2 SWAP1 PUSH1 0x1 ADD SWAP1 PUSH2 0x1A09 JUMP JUMPDEST JUMPDEST DUP1 DUP3 GT ISZERO PUSH2 0x19E7 JUMPI PUSH0 DUP2 SSTORE PUSH1 0x1 ADD PUSH2 0x1A25 JUMP JUMPDEST PUSH0 PUSH1 0x20 DUP3 DUP5 SUB SLT ISZERO PUSH2 0x1A48 JUMPI PUSH0 DUP1 REVERT JUMPDEST POP CALLDATALOAD SWAP2 SWAP1 POP JUMP JUMPDEST PUSH4 0x4E487B71 PUSH1 0xE0 SHL PUSH0 MSTORE PUSH1 0x41 PUSH1 0x4 MSTORE PUSH1 0x24 PUSH0 REVERT JUMPDEST PUSH1 0x40 DUP1 MLOAD SWAP1 DUP2 ADD PUSH8 0xFFFFFFFFFFFFFFFF DUP2 GT DUP3 DUP3 LT OR ISZERO PUSH2 0x1A86 JUMPI PUSH2 0x1A86 PUSH2 0x1A4F JUMP JUMPDEST PUSH1 0x40 MSTORE SWAP1 JUMP JUMPDEST PUSH1 0x40 MLOAD PUSH1 0x60 DUP2 ADD PUSH8 0xFFFFFFFFFFFFFFFF DUP2 GT DUP3 DUP3 LT OR ISZERO PUSH2 0x1A86 JUMPI PUSH2 0x1A86 PUSH2 0x1A4F JUMP JUMPDEST PUSH1 0x40 MLOAD PUSH1 0x1F DUP3 ADD PUSH1 0x1F NOT AND DUP2 ADD PUSH8 0xFFFFFFFFFFFFFFFF DUP2 GT DUP3 DUP3 LT OR ISZERO PUSH2 0x1AD8 JUMPI PUSH2 0x1AD8 PUSH2 0x1A4F JUMP JUMPDEST PUSH1 0x40 MSTORE SWAP2 SWAP1 POP JUMP JUMPDEST PUSH0 PUSH8 0xFFFFFFFFFFFFFFFF DUP3 GT ISZERO PUSH2 0x1AF9 JUMPI PUSH2 0x1AF9 PUSH2 0x1A4F JUMP JUMPDEST POP PUSH1 0x5 SHL PUSH1 0x20 ADD SWAP1 JUMP JUMPDEST DUP1 CALLDATALOAD PUSH1 0x1 PUSH1 0x1 PUSH1 0xA0 SHL SUB DUP2 AND DUP2 EQ PUSH2 0x1B19 JUMPI PUSH0 DUP1 REVERT JUMPDEST SWAP2 SWAP1 POP JUMP JUMPDEST PUSH0 DUP3 PUSH1 0x1F DUP4 ADD SLT PUSH2 0x1B2D JUMPI PUSH0 DUP1 REVERT JUMPDEST DUP2 CALLDATALOAD PUSH1 0x20 PUSH2 0x1B42 PUSH2 0x1B3D DUP4 PUSH2 0x1AE0 JUMP JUMPDEST PUSH2 0x1AAF JUMP JUMPDEST DUP1 DUP4 DUP3 MSTORE PUSH1 0x20 DUP3 ADD SWAP2 POP PUSH1 0x20 DUP5 PUSH1 0x5 SHL DUP8 ADD ADD SWAP4 POP DUP7 DUP5 GT ISZERO PUSH2 0x1B63 JUMPI PUSH0 DUP1 REVERT JUMPDEST PUSH1 0x20 DUP7 ADD JUMPDEST DUP5 DUP2 LT ISZERO PUSH2 0x1B7F JUMPI DUP1 CALLDATALOAD DUP4 MSTORE SWAP2 DUP4 ADD SWAP2 DUP4 ADD PUSH2 0x1B68 JUMP JUMPDEST POP SWAP7 SWAP6 POP POP POP POP POP POP JUMP JUMPDEST PUSH0 DUP3 PUSH1 0x1F DUP4 ADD SLT PUSH2 0x1B99 JUMPI PUSH0 DUP1 REVERT JUMPDEST DUP2 CALLDATALOAD PUSH1 0x20 PUSH2 0x1BA9 PUSH2 0x1B3D DUP4 PUSH2 0x1AE0 JUMP JUMPDEST DUP3 DUP2 MSTORE PUSH1 0x6 SWAP3 SWAP1 SWAP3 SHL DUP5 ADD DUP2 ADD SWAP2 DUP2 DUP2 ADD SWAP1 DUP7 DUP5 GT ISZERO PUSH2 0x1BC7 JUMPI PUSH0 DUP1 REVERT JUMPDEST DUP3 DUP7 ADD JUMPDEST DUP5 DUP2 LT ISZERO PUSH2 0x1B7F JUMPI PUSH1 0x40 DUP2 DUP10 SUB SLT ISZERO PUSH2 0x1BE2 JUMPI PUSH0 DUP1 REVERT JUMPDEST PUSH2 0x1BEA PUSH2 0x1A63 JUMP JUMPDEST PUSH2 0x1BF3 DUP3 PUSH2 0x1B03 JUMP JUMPDEST DUP2 MSTORE DUP2 DUP6 ADD CALLDATALOAD DUP6 DUP3 ADD MSTORE DUP4 MSTORE SWAP2 DUP4 ADD SWAP2 PUSH1 0x40 ADD PUSH2 0x1BCB JUMP JUMPDEST PUSH0 DUP3 PUSH1 0x1F DUP4 ADD SLT PUSH2 0x1C1A JUMPI PUSH0 DUP1 REVERT JUMPDEST DUP2 CALLDATALOAD PUSH1 0x20 PUSH2 0x1C2A PUSH2 0x1B3D DUP4 PUSH2 0x1AE0 JUMP JUMPDEST DUP3 DUP2 MSTORE PUSH1 0x60 SWAP3 DUP4 MUL DUP6 ADD DUP3 ADD SWAP3 DUP3 DUP3 ADD SWAP2 SWAP1 DUP8 DUP6 GT ISZERO PUSH2 0x1C48 JUMPI PUSH0 DUP1 REVERT JUMPDEST DUP4 DUP8 ADD JUMPDEST DUP6 DUP2 LT ISZERO PUSH2 0x1C9B JUMPI DUP2 DUP2 DUP11 SUB SLT ISZERO PUSH2 0x1C62 JUMPI PUSH0 DUP1 REVERT JUMPDEST PUSH2 0x1C6A PUSH2 0x1A8C JUMP JUMPDEST PUSH2 0x1C73 DUP3 PUSH2 0x1B03 JUMP JUMPDEST DUP2 MSTORE DUP6 DUP3 ADD CALLDATALOAD DUP7 DUP3 ADD MSTORE PUSH1 0x40 PUSH2 0x1C8A DUP2 DUP5 ADD PUSH2 0x1B03 JUMP JUMPDEST SWAP1 DUP3 ADD MSTORE DUP5 MSTORE SWAP3 DUP5 ADD SWAP3 DUP2 ADD PUSH2 0x1C4C JUMP JUMPDEST POP SWAP1 SWAP8 SWAP7 POP POP POP POP POP POP POP JUMP JUMPDEST PUSH0 DUP1 PUSH0 DUP1 PUSH1 0x80 DUP6 DUP8 SUB SLT ISZERO PUSH2 0x1CBB JUMPI PUSH0 DUP1 REVERT JUMPDEST DUP5 CALLDATALOAD PUSH8 0xFFFFFFFFFFFFFFFF DUP1 DUP3 GT ISZERO PUSH2 0x1CD2 JUMPI PUSH0 DUP1 REVERT JUMPDEST DUP2 DUP8 ADD SWAP2 POP DUP8 PUSH1 0x1F DUP4 ADD SLT PUSH2 0x1CE5 JUMPI PUSH0 DUP1 REVERT JUMPDEST DUP2 CALLDATALOAD PUSH1 0x20 PUSH2 0x1CF5 PUSH2 0x1B3D DUP4 PUSH2 0x1AE0 JUMP JUMPDEST DUP3 DUP2 MSTORE PUSH1 0x5 SWAP3 SWAP1 SWAP3 SHL DUP5 ADD DUP2 ADD SWAP2 DUP2 DUP2 ADD SWAP1 DUP12 DUP5 GT ISZERO PUSH2 0x1D13 JUMPI PUSH0 DUP1 REVERT JUMPDEST SWAP5 DUP3 ADD SWAP5 JUMPDEST DUP4 DUP7 LT ISZERO PUSH2 0x1D38 JUMPI PUSH2 0x1D29 DUP7 PUSH2 0x1B03 JUMP JUMPDEST DUP3 MSTORE SWAP5 DUP3 ADD SWAP5 SWAP1 DUP3 ADD SWAP1 PUSH2 0x1D18 JUMP JUMPDEST SWAP9 POP POP DUP9 ADD CALLDATALOAD SWAP3 POP POP DUP1 DUP3 GT ISZERO PUSH2 0x1D4D JUMPI PUSH0 DUP1 REVERT JUMPDEST PUSH2 0x1D59 DUP9 DUP4 DUP10 ADD PUSH2 0x1B1E JUMP JUMPDEST SWAP5 POP PUSH1 0x40 DUP8 ADD CALLDATALOAD SWAP2 POP DUP1 DUP3 GT ISZERO PUSH2 0x1D6E JUMPI PUSH0 DUP1 REVERT JUMPDEST PUSH2 0x1D7A DUP9 DUP4 DUP10 ADD PUSH2 0x1B8A JUMP JUMPDEST SWAP4 POP PUSH1 0x60 DUP8 ADD CALLDATALOAD SWAP2 POP DUP1 DUP3 GT ISZERO PUSH2 0x1D8F JUMPI PUSH0 DUP1 REVERT JUMPDEST POP PUSH2 0x1D9C DUP8 DUP3 DUP9 ADD PUSH2 0x1C0B JUMP JUMPDEST SWAP2 POP POP SWAP3 SWAP6 SWAP2 SWAP5 POP SWAP3 POP JUMP JUMPDEST PUSH0 DUP2 MLOAD DUP1 DUP5 MSTORE PUSH1 0x20 DUP1 DUP6 ADD SWAP5 POP PUSH1 0x20 DUP5 ADD PUSH0 JUMPDEST DUP4 DUP2 LT ISZERO PUSH2 0x1DE0 JUMPI DUP2 MLOAD PUSH1 0x1 PUSH1 0x1 PUSH1 0xA0 SHL SUB AND DUP8 MSTORE SWAP6 DUP3 ADD SWAP6 SWAP1 DUP3 ADD SWAP1 PUSH1 0x1 ADD PUSH2 0x1DBB JUMP JUMPDEST POP SWAP5 SWAP6 SWAP5 POP POP POP POP POP JUMP JUMPDEST PUSH0 DUP2 MLOAD DUP1 DUP5 MSTORE PUSH1 0x20 DUP1 DUP6 ADD SWAP5 POP PUSH1 0x20 DUP5 ADD PUSH0 JUMPDEST DUP4 DUP2 LT ISZERO PUSH2 0x1DE0 JUMPI DUP2 MLOAD DUP8 MSTORE SWAP6 DUP3 ADD SWAP6 SWAP1 DUP3 ADD SWAP1 PUSH1 0x1 ADD PUSH2 0x1DFE JUMP JUMPDEST PUSH0 DUP2 MLOAD DUP1 DUP5 MSTORE PUSH1 0x20 DUP1 DUP6 ADD SWAP5 POP PUSH1 0x20 DUP5 ADD PUSH0 JUMPDEST DUP4 DUP2 LT ISZERO PUSH2 0x1DE0 JUMPI DUP2 MLOAD DUP1 MLOAD PUSH1 0x1 PUSH1 0x1 PUSH1 0xA0 SHL SUB AND DUP9 MSTORE DUP4 ADD MLOAD DUP4 DUP9 ADD MSTORE PUSH1 0x40 SWAP1 SWAP7 ADD SWAP6 SWAP1 DUP3 ADD SWAP1 PUSH1 0x1 ADD PUSH2 0x1E2D JUMP JUMPDEST PUSH0 DUP2 MLOAD DUP1 DUP5 MSTORE PUSH1 0x20 DUP1 DUP6 ADD SWAP5 POP PUSH1 0x20 DUP5 ADD PUSH0 JUMPDEST DUP4 DUP2 LT ISZERO PUSH2 0x1DE0 JUMPI DUP2 MLOAD DUP1 MLOAD PUSH1 0x1 PUSH1 0x1 PUSH1 0xA0 SHL SUB SWAP1 DUP2 AND DUP10 MSTORE DUP5 DUP3 ADD MLOAD DUP6 DUP11 ADD MSTORE PUSH1 0x40 SWAP2 DUP3 ADD MLOAD AND SWAP1 DUP9 ADD MSTORE PUSH1 0x60 SWAP1 SWAP7 ADD SWAP6 SWAP1 DUP3 ADD SWAP1 PUSH1 0x1 ADD PUSH2 0x1E70 JUMP JUMPDEST PUSH1 0x20 DUP2 MSTORE PUSH2 0x1EC8 PUSH1 0x20 DUP3 ADD DUP4 MLOAD PUSH1 0x1 PUSH1 0x1 PUSH1 0xA0 SHL SUB AND SWAP1 MSTORE JUMP JUMPDEST PUSH1 0x20 DUP3 ADD MLOAD PUSH1 0x40 DUP3 ADD MSTORE PUSH1 0x40 DUP3 ADD MLOAD PUSH1 0x60 DUP3 ADD MSTORE PUSH0 PUSH1 0x60 DUP4 ADD MLOAD PUSH2 0x1EF0 PUSH1 0x80 DUP5 ADD DUP3 ISZERO ISZERO SWAP1 MSTORE JUMP JUMPDEST POP PUSH1 0x80 DUP4 ADD MLOAD DUP1 ISZERO ISZERO PUSH1 0xA0 DUP5 ADD MSTORE POP PUSH1 0xA0 DUP4 ADD MLOAD PUSH1 0xC0 DUP4 ADD MSTORE PUSH1 0xC0 DUP4 ADD MLOAD PUSH2 0x140 DUP1 PUSH1 0xE0 DUP6 ADD MSTORE PUSH2 0x1F25 PUSH2 0x160 DUP6 ADD DUP4 PUSH2 0x1DA8 JUMP JUMPDEST SWAP2 POP PUSH1 0xE0 DUP6 ADD MLOAD PUSH1 0x1F NOT PUSH2 0x100 DUP2 DUP8 DUP7 SUB ADD DUP2 DUP9 ADD MSTORE PUSH2 0x1F45 DUP6 DUP5 PUSH2 0x1DEB JUMP JUMPDEST SWAP5 POP DUP1 DUP9 ADD MLOAD SWAP3 POP POP PUSH2 0x120 DUP2 DUP8 DUP7 SUB ADD DUP2 DUP9 ADD MSTORE PUSH2 0x1F64 DUP6 DUP5 PUSH2 0x1E1A JUMP JUMPDEST SWAP1 DUP9 ADD MLOAD DUP8 DUP3 SUB SWAP1 SWAP3 ADD DUP5 DUP9 ADD MSTORE SWAP4 POP SWAP1 POP PUSH2 0x1F80 DUP4 DUP3 PUSH2 0x1E5D JUMP JUMPDEST SWAP7 SWAP6 POP POP POP POP POP POP JUMP JUMPDEST PUSH0 PUSH1 0x20 DUP3 DUP5 SUB SLT ISZERO PUSH2 0x1F9A JUMPI PUSH0 DUP1 REVERT JUMPDEST PUSH2 0x1FA3 DUP3 PUSH2 0x1B03 JUMP JUMPDEST SWAP4 SWAP3 POP POP POP JUMP JUMPDEST PUSH1 0x20 DUP1 DUP3 MSTORE PUSH1 0x24 SWAP1 DUP3 ADD MSTORE PUSH32 0x57696C6C20686173206265656E206578656375746564206F722063616E63656C PUSH1 0x40 DUP3 ADD MSTORE PUSH4 0x3632B217 PUSH1 0xE1 SHL PUSH1 0x60 DUP3 ADD MSTORE PUSH1 0x80 ADD SWAP1 JUMP JUMPDEST PUSH1 0x20 DUP1 DUP3 MSTORE PUSH1 0x26 SWAP1 DUP3 ADD MSTORE PUSH32 0x4F6E6C7920746865206F776E65722063616E2063616C6C20746869732066756E PUSH1 0x40 DUP3 ADD MSTORE PUSH6 0x31BA34B7B717 PUSH1 0xD1 SHL PUSH1 0x60 DUP3 ADD MSTORE PUSH1 0x80 ADD SWAP1 JUMP JUMPDEST PUSH4 0x4E487B71 PUSH1 0xE0 SHL PUSH0 MSTORE PUSH1 0x11 PUSH1 0x4 MSTORE PUSH1 0x24 PUSH0 REVERT JUMPDEST DUP1 DUP3 ADD DUP1 DUP3 GT ISZERO PUSH2 0x205B JUMPI PUSH2 0x205B PUSH2 0x2034 JUMP JUMPDEST SWAP3 SWAP2 POP POP JUMP JUMPDEST DUP1 DUP3 MUL DUP2 ISZERO DUP3 DUP3 DIV DUP5 EQ OR PUSH2 0x205B JUMPI PUSH2 0x205B PUSH2 0x2034 JUMP JUMPDEST PUSH0 DUP3 PUSH2 0x2092 JUMPI PUSH4 0x4E487B71 PUSH1 0xE0 SHL PUSH0 MSTORE PUSH1 0x12 PUSH1 0x4 MSTORE PUSH1 0x24 PUSH0 REVERT JUMPDEST POP DIV SWAP1 JUMP JUMPDEST DUP2 DUP2 SUB DUP2 DUP2 GT ISZERO PUSH2 0x205B JUMPI PUSH2 0x205B PUSH2 0x2034 JUMP JUMPDEST PUSH4 0x4E487B71 PUSH1 0xE0 SHL PUSH0 MSTORE PUSH1 0x32 PUSH1 0x4 MSTORE PUSH1 0x24 PUSH0 REVERT JUMPDEST PUSH0 PUSH1 0x20 DUP3 DUP5 SUB SLT ISZERO PUSH2 0x20CE JUMPI PUSH0 DUP1 REVERT JUMPDEST POP MLOAD SWAP2 SWAP1 POP JUMP JUMPDEST PUSH0 PUSH1 0x20 DUP3 DUP5 SUB SLT ISZERO PUSH2 0x20E5 JUMPI PUSH0 DUP1 REVERT JUMPDEST DUP2 MLOAD DUP1 ISZERO ISZERO DUP2 EQ PUSH2 0x1FA3 JUMPI PUSH0 DUP1 REVERT INVALID LOG2 PUSH5 0x6970667358 0x22 SLT KECCAK256 0x4F 0xB0 0xE8 0xBB 0xBF DUP3 DUP1 0xD9 SWAP10 MOD 0xB9 MSTORE PUSH12 0x26AADC5C63063F0A9C1112B7 SDIV PUSH4 0xA9616427 GAS PUSH5 0x736F6C6343 STOP ADDMOD XOR STOP CALLER LOG2 PUSH5 0x6970667358 0x22 SLT KECCAK256 0x28 0xB3 0xB9 BLOBBASEFEE TSTORE SWAP9 PUSH4 0x50779F41 DUP13 0xB2 0xDE 0xCC SAR 0x22 0xAB CALLER PUSH14 0xACAA77F46926C5E2741024EF6473 PUSH16 0x6C634300081800330000000000000000 "
		},
		"gasEstimates": {
			"creation": {
				"codeDepositCost": "2891600",
				"executionCost": "infinite",
				"totalCost": "infinite"
			},
			"external": {
				"basePlatformFee()": "293",
				"clearWillRecord(address)": "28475",
				"coFounderOne()": "4501",
				"coFounderTwo()": "4566",
				"createWill(address[],uint256[],uint256,(address,uint256)[],(address,uint256,address)[],bool)": "infinite",
				"diaryPlatformFee()": "2284",
				"executorAddress()": "2358",
				"setDiaryPlatformFee(uint256)": "33086",
				"setExecutorAddress(address)": "34383",
				"updateCoFounderOneAddresses(address,address)": "infinite",
				"updateCoFounderTwoAddresses(address,address)": "infinite",
				"userWills(address)": "2625",
				"withdrawFees()": "infinite"
			}
		},
		"methodIdentifiers": {
			"basePlatformFee()": "96164523",
			"clearWillRecord(address)": "a658dd6b",
			"coFounderOne()": "25494a03",
			"coFounderTwo()": "c2db55ea",
			"createWill(address[],uint256[],uint256,(address,uint256)[],(address,uint256,address)[],bool)": "a1666e46",
			"diaryPlatformFee()": "09838727",
			"executorAddress()": "a8e9a539",
			"setDiaryPlatformFee(uint256)": "bf516f63",
			"setExecutorAddress(address)": "c2513f11",
			"updateCoFounderOneAddresses(address,address)": "750a1656",
			"updateCoFounderTwoAddresses(address,address)": "a010f2a1",
			"userWills(address)": "68a4c6aa",
			"withdrawFees()": "476343ee"
		}
	},
	"abi": [
		{
			"inputs": [
				{
					"internalType": "address",
					"name": "_coFounderOnePrimary",
					"type": "address"
				},
				{
					"internalType": "address",
					"name": "_coFounderOneSecondary",
					"type": "address"
				},
				{
					"internalType": "address",
					"name": "_coFounderTwoPrimary",
					"type": "address"
				},
				{
					"internalType": "address",
					"name": "_coFounderTwoSecondary",
					"type": "address"
				},
				{
					"internalType": "address",
					"name": "_initialExecutor",
					"type": "address"
				}
			],
			"stateMutability": "nonpayable",
			"type": "constructor"
		},
		{
			"anonymous": false,
			"inputs": [
				{
					"indexed": true,
					"internalType": "uint8",
					"name": "coFounderId",
					"type": "uint8"
				},
				{
					"indexed": false,
					"internalType": "address",
					"name": "newPrimary",
					"type": "address"
				},
				{
					"indexed": false,
					"internalType": "address",
					"name": "newSecondary",
					"type": "address"
				}
			],
			"name": "CoFounderAddressesUpdated",
			"type": "event"
		},
		{
			"anonymous": false,
			"inputs": [
				{
					"indexed": true,
					"internalType": "address",
					"name": "newExecutor",
					"type": "address"
				}
			],
			"name": "ExecutorAddressUpdated",
			"type": "event"
		},
		{
			"anonymous": false,
			"inputs": [
				{
					"indexed": true,
					"internalType": "address",
					"name": "caller",
					"type": "address"
				},
				{
					"indexed": false,
					"internalType": "uint256",
					"name": "amountForCoFounderOne",
					"type": "uint256"
				},
				{
					"indexed": false,
					"internalType": "uint256",
					"name": "amountForCoFounderTwo",
					"type": "uint256"
				}
			],
			"name": "FeesWithdrawn",
			"type": "event"
		},
		{
			"anonymous": false,
			"inputs": [
				{
					"indexed": true,
					"internalType": "address",
					"name": "user",
					"type": "address"
				},
				{
					"indexed": true,
					"internalType": "address",
					"name": "willAddress",
					"type": "address"
				}
			],
			"name": "WillCleared",
			"type": "event"
		},
		{
			"anonymous": false,
			"inputs": [
				{
					"indexed": true,
					"internalType": "address",
					"name": "user",
					"type": "address"
				},
				{
					"indexed": true,
					"internalType": "address",
					"name": "willAddress",
					"type": "address"
				},
				{
					"indexed": false,
					"internalType": "bool",
					"name": "hasDiary",
					"type": "bool"
				}
			],
			"name": "WillCreated",
			"type": "event"
		},
		{
			"inputs": [],
			"name": "basePlatformFee",
			"outputs": [
				{
					"internalType": "uint256",
					"name": "",
					"type": "uint256"
				}
			],
			"stateMutability": "view",
			"type": "function"
		},
		{
			"inputs": [
				{
					"internalType": "address",
					"name": "_user",
					"type": "address"
				}
			],
			"name": "clearWillRecord",
			"outputs": [],
			"stateMutability": "nonpayable",
			"type": "function"
		},
		{
			"inputs": [],
			"name": "coFounderOne",
			"outputs": [
				{
					"internalType": "address",
					"name": "primary",
					"type": "address"
				},
				{
					"internalType": "address",
					"name": "secondary",
					"type": "address"
				}
			],
			"stateMutability": "view",
			"type": "function"
		},
		{
			"inputs": [],
			"name": "coFounderTwo",
			"outputs": [
				{
					"internalType": "address",
					"name": "primary",
					"type": "address"
				},
				{
					"internalType": "address",
					"name": "secondary",
					"type": "address"
				}
			],
			"stateMutability": "view",
			"type": "function"
		},
		{
			"inputs": [
				{
					"internalType": "address[]",
					"name": "heirs",
					"type": "address[]"
				},
				{
					"internalType": "uint256[]",
					"name": "distribution",
					"type": "uint256[]"
				},
				{
					"internalType": "uint256",
					"name": "interval",
					"type": "uint256"
				},
				{
					"components": [
						{
							"internalType": "address",
							"name": "tokenContract",
							"type": "address"
						},
						{
							"internalType": "uint256",
							"name": "amount",
							"type": "uint256"
						}
					],
					"internalType": "struct Will.Erc20Distribution[]",
					"name": "erc20s",
					"type": "tuple[]"
				},
				{
					"components": [
						{
							"internalType": "address",
							"name": "tokenContract",
							"type": "address"
						},
						{
							"internalType": "uint256",
							"name": "tokenId",
							"type": "uint256"
						},
						{
							"internalType": "address",
							"name": "heir",
							"type": "address"
						}
					],
					"internalType": "struct Will.NftDistribution[]",
					"name": "nfts",
					"type": "tuple[]"
				},
				{
					"internalType": "bool",
					"name": "_hasDiary",
					"type": "bool"
				}
			],
			"name": "createWill",
			"outputs": [],
			"stateMutability": "payable",
			"type": "function"
		},
		{
			"inputs": [],
			"name": "diaryPlatformFee",
			"outputs": [
				{
					"internalType": "uint256",
					"name": "",
					"type": "uint256"
				}
			],
			"stateMutability": "view",
			"type": "function"
		},
		{
			"inputs": [],
			"name": "executorAddress",
			"outputs": [
				{
					"internalType": "address",
					"name": "",
					"type": "address"
				}
			],
			"stateMutability": "view",
			"type": "function"
		},
		{
			"inputs": [
				{
					"internalType": "uint256",
					"name": "_newFee",
					"type": "uint256"
				}
			],
			"name": "setDiaryPlatformFee",
			"outputs": [],
			"stateMutability": "nonpayable",
			"type": "function"
		},
		{
			"inputs": [
				{
					"internalType": "address",
					"name": "_newExecutor",
					"type": "address"
				}
			],
			"name": "setExecutorAddress",
			"outputs": [],
			"stateMutability": "nonpayable",
			"type": "function"
		},
		{
			"inputs": [
				{
					"internalType": "address",
					"name": "_newPrimary",
					"type": "address"
				},
				{
					"internalType": "address",
					"name": "_newSecondary",
					"type": "address"
				}
			],
			"name": "updateCoFounderOneAddresses",
			"outputs": [],
			"stateMutability": "nonpayable",
			"type": "function"
		},
		{
			"inputs": [
				{
					"internalType": "address",
					"name": "_newPrimary",
					"type": "address"
				},
				{
					"internalType": "address",
					"name": "_newSecondary",
					"type": "address"
				}
			],
			"name": "updateCoFounderTwoAddresses",
			"outputs": [],
			"stateMutability": "nonpayable",
			"type": "function"
		},
		{
			"inputs": [
				{
					"internalType": "address",
					"name": "",
					"type": "address"
				}
			],
			"name": "userWills",
			"outputs": [
				{
					"internalType": "address",
					"name": "",
					"type": "address"
				}
			],
			"stateMutability": "view",
			"type": "function"
		},
		{
			"inputs": [],
			"name": "withdrawFees",
			"outputs": [],
			"stateMutability": "nonpayable",
			"type": "function"
		},
		{
			"stateMutability": "payable",
			"type": "receive"
		}
	]
}