{
	"data": {
		"bytecode": {
			"linkReferences": {},
			"object": "60e06040526040516200240b3803806200240b8339810160408190526200002691620000f9565b836001600160a01b0381166200005557604051631e4fbdf760e01b81525f600482015260240160405180910390fd5b62000060816200008e565b50600180556001600160a01b0392831660805290151560a0521660c052506002805460ff1916905562000158565b5f80546001600160a01b038381166001600160a01b0319831681178455604051919092169283917f8be0079c531659141344cd1fd0a4f28419497f9722a3daafe3b4186f6b6457e09190a35050565b80516001600160a01b0381168114620000f4575f80fd5b919050565b5f805f80608085870312156200010d575f80fd5b6200011885620000dd565b93506200012860208601620000dd565b9250604085015180151581146200013d575f80fd5b91506200014d60608601620000dd565b905092959194509250565b60805160a05160c051612265620001a65f395f81816102fd01526108a101525f81816103af01526113a901525f81816102ca0152818161093801528181610eee015261100f01526122655ff3fe608060405260043610610126575f3560e01c806375d33fa1116100a8578063a8e9a5391161006d578063a8e9a539146102ec578063c04637111461031f578063cc4f9d5b14610334578063e15724a514610355578063eed35fea1461039e578063f2fde38b146103e1575f80fd5b806375d33fa11461024a5780638da5cb5b146102695780639379f51714610285578063947a36fb146102a4578063a444ae41146102b9575f80fd5b806355952bef116100ee57806355952bef146101e75780635c36b186146101fa578063614619541461020e5780636b892b2214610222578063715018a614610236575f80fd5b80630c3f6acf1461012a5780631c0795c3146101595780631f99966a146101905780632395d975146101bd5780633027439c146101d1575b5f80fd5b348015610135575f80fd5b506002546101439060ff1681565b6040516101509190611c38565b60405180910390f35b348015610164575f80fd5b50610178610173366004611c5e565b610400565b6040516001600160a01b039091168152602001610150565b34801561019b575f80fd5b506101af6101aa366004611c5e565b610428565b604051908152602001610150565b3480156101c8575f80fd5b506101af603281565b3480156101dc575f80fd5b506101e5610447565b005b6101e56101f5366004611ded565b61051b565b348015610205575f80fd5b506101e561075c565b348015610219575f80fd5b506101e56107d7565b34801561022d575f80fd5b506101e5610e98565b348015610241575f80fd5b506101e5610fbb565b348015610255575f80fd5b506101e5610264366004611ded565b610fce565b348015610274575f80fd5b505f546001600160a01b0316610178565b348015610290575f80fd5b5061017861029f366004611c5e565b61108f565b3480156102af575f80fd5b506101af60045481565b3480156102c4575f80fd5b506101787f000000000000000000000000000000000000000000000000000000000000000081565b3480156102f7575f80fd5b506101787f000000000000000000000000000000000000000000000000000000000000000081565b34801561032a575f80fd5b506101af60035481565b34801561033f575f80fd5b5061034861109e565b604051610150919061200c565b348015610360575f80fd5b5061037461036f366004611c5e565b611498565b604080516001600160a01b0394851681526020810193909352921691810191909152606001610150565b3480156103a9575f80fd5b506103d17f000000000000000000000000000000000000000000000000000000000000000081565b6040519015158152602001610150565b3480156103ec575f80fd5b506101e56103fb3660046120e8565b6114d4565b6005818154811061040f575f80fd5b5f918252602090912001546001600160a01b0316905081565b60068181548110610437575f80fd5b5f91825260209091200154905081565b61044f611511565b6001806002805460ff169081111561046957610469611c24565b1461048f5760405162461bcd60e51b815260040161048690612108565b60405180910390fd5b61049761153d565b60026001556104a4611560565b6104af60055f611acf565b6104ba60065f611acf565b6104c560075f611aea565b6104d060085f611b05565b5f60048190556002805460ff1916905580546040516001600160a01b03909116917f5af2b6dcdccc1dd52ee38632afee0bc3ac6def619ed4132f2f9a40ff48ec74f291a25060018055565b610523611511565b5f806002805460ff169081111561053c5761053c611c24565b146105595760405162461bcd60e51b815260040161048690612108565b60048890555f5b84811015610647575f86868381811061057b5761057b61214b565b90506040020160200135111561063f5785858281811061059d5761059d61214b565b6105b392602060409092020190810191506120e8565b6001600160a01b03166323b872dd33308989868181106105d5576105d561214b565b905060400201602001356040518463ffffffff1660e01b81526004016105fd9392919061215f565b6020604051808303815f875af1158015610619573d5f803e3d5ffd5b505050506040513d601f19601f8201168201806040525081019061063d9190612183565b505b600101610560565b505f5b828110156106fd578383828181106106645761066461214b565b61067a92602060609092020190810191506120e8565b6001600160a01b03166323b872dd333087878681811061069c5761069c61214b565b905060600201602001356040518463ffffffff1660e01b81526004016106c49392919061215f565b5f604051808303815f87803b1580156106db575f80fd5b505af11580156106ed573d5f803e3d5ffd5b50506001909201915061064a9050565b5061070c8787878787876117ec565b6002805460ff19166001179055426003555f80546040516001600160a01b03909116917fbbf74fb4e3c300bf9f00e1603668149fd64853bfcd5f194270d2b043d9bdbc6191a25050505050505050565b610764611511565b6001806002805460ff169081111561077e5761077e611c24565b1461079b5760405162461bcd60e51b815260040161048690612108565b4260038190556040519081527f48257dc961b6f792c2b78a080dacfed693b660960a702de21cee364e20270e2f9060200160405180910390a150565b6001806002805460ff16908111156107f1576107f1611c24565b1461080e5760405162461bcd60e51b815260040161048690612108565b61081661153d565b60026001556004546003545f9161082c916121b6565b90508042101561087e5760405162461bcd60e51b815260206004820152601b60248201527f477261636520706572696f6420686173206e6f7420656e6465642e00000000006044820152606401610486565b5f61088c62015180836121b6565b90508042101561091c57336001600160a01b037f0000000000000000000000000000000000000000000000000000000000000000161461091c5760405162461bcd60e51b815260206004820152602560248201527f4f6e6c792064657369676e61746564206578656375746f722063616e2063616c6044820152646c206e6f7760d81b6064820152608401610486565b6002805460ff1916811790555f4282116109365733610958565b7f00000000000000000000000000000000000000000000000000000000000000005b90505f478015610b46575f6127106109716032846121cf565b61097b91906121e6565b92508290505f61098b8284612205565b90508115610a34575f856001600160a01b0316836040515f6040518083038185875af1925050503d805f81146109dc576040519150601f19603f3d011682016040523d82523d5f602084013e6109e1565b606091505b5050905080610a325760405162461bcd60e51b815260206004820152601760248201527f45544820666565207472616e73666572206661696c65640000000000000000006044820152606401610486565b505b5f5b600554811015610b42575f606460068381548110610a5657610a5661214b565b905f5260205f20015484610a6a91906121cf565b610a7491906121e6565b90508015610b39575f60058381548110610a9057610a9061214b565b5f9182526020822001546040516001600160a01b039091169184919081818185875af1925050503d805f8114610ae1576040519150601f19603f3d011682016040523d82523d5f602084013e610ae6565b606091505b5050905080610b375760405162461bcd60e51b815260206004820152601b60248201527f455448207472616e7366657220746f2068656972206661696c656400000000006044820152606401610486565b505b50600101610a36565b5050505b5f5b600754811015610d7e575f60078281548110610b6657610b6661214b565b5f9182526020822001546040516370a0823160e01b81523060048201526001600160a01b03909116925082906370a0823190602401602060405180830381865afa158015610bb6573d5f803e3d5ffd5b505050506040513d601f19601f82011682018060405250810190610bda9190612218565b90508015610d74575f612710610bf16032846121cf565b610bfb91906121e6565b90505f610c088284612205565b90508115610c825760405163a9059cbb60e01b81526001600160a01b0389811660048301526024820184905285169063a9059cbb906044016020604051808303815f875af1158015610c5c573d5f803e3d5ffd5b505050506040513d601f19601f82011682018060405250810190610c809190612183565b505b5f5b600554811015610d70575f606460068381548110610ca457610ca461214b565b905f5260205f20015484610cb891906121cf565b610cc291906121e6565b90508015610d6757856001600160a01b031663a9059cbb60058481548110610cec57610cec61214b565b5f9182526020909120015460405160e083901b6001600160e01b03191681526001600160a01b039091166004820152602481018490526044016020604051808303815f875af1158015610d41573d5f803e3d5ffd5b505050506040513d601f19601f82011682018060405250810190610d659190612183565b505b50600101610c84565b5050505b5050600101610b48565b505f5b600854811015610e43575f60088281548110610d9f57610d9f61214b565b5f91825260209182902060408051606081018252600390930290910180546001600160a01b039081168085526001830154958501869052600290920154168383018190529151632142170760e11b8152929450926342842e0e92610e09923092909160040161215f565b5f604051808303815f87803b158015610e20575f80fd5b505af1158015610e32573d5f803e3d5ffd5b505060019093019250610d81915050565b5060408051338152602081018490526001600160a01b0385168183015290517f52ba16c8b985eff690a9de92094bd7486f89340e06e385ffb26de9c6eea384dc9181900360600190a150506001805550505050565b610ea0611511565b6001806002805460ff1690811115610eba57610eba611c24565b14610ed75760405162461bcd60e51b815260040161048690612108565b610edf61153d565b6002600155610eec611560565b7f00000000000000000000000000000000000000000000000000000000000000006001600160a01b031663a658dd6b610f2c5f546001600160a01b031690565b6040516001600160e01b031960e084901b1681526001600160a01b0390911660048201526024015f604051808303815f87803b158015610f6a575f80fd5b505af1158015610f7c573d5f803e3d5ffd5b50506002805460ff19168117905550506040517f63b958841f79ab97cb5456da181454b9932c0e15a3b17f1cbd27e2a8bc610437905f90a15060018055565b610fc3611511565b610fcc5f611a80565b565b5f806002805460ff1690811115610fe757610fe7611c24565b146110045760405162461bcd60e51b815260040161048690612108565b336001600160a01b037f0000000000000000000000000000000000000000000000000000000000000000161461107c5760405162461bcd60e51b815260206004820152601f60248201527f57696c6c3a204e6f7420617574686f72697a656420627920666163746f7279006044820152606401610486565b600488905561070c8787878787876117ec565b6007818154811061040f575f80fd5b6110fb6040518061014001604052805f6001600160a01b031681526020015f81526020015f81526020015f151581526020015f151581526020015f8152602001606081526020016060815260200160608152602001606081525090565b6007545f9067ffffffffffffffff81111561111857611118611c75565b60405190808252806020026020018201604052801561115c57816020015b604080518082019091525f80825260208201528152602001906001900390816111365790505b5090505f5b60075481101561122f575f6007828154811061117f5761117f61214b565b5f91825260209182902001546040805180820182526001600160a01b0390921680835290516370a0823160e01b8152306004820152909350909182019083906370a0823190602401602060405180830381865afa1580156111e2573d5f803e3d5ffd5b505050506040513d601f19601f820116820180604052508101906112069190612218565b81525083838151811061121b5761121b61214b565b602090810291909101015250600101611161565b506008545f9067ffffffffffffffff81111561124d5761124d611c75565b60405190808252806020026020018201604052801561129657816020015b604080516060810182525f80825260208083018290529282015282525f1990920191018161126b5790505b5090505f5b60085481101561134b575f600882815481106112b9576112b961214b565b5f9182526020918290206040805160608082018352600390940290920180546001600160a01b039081168452600182015484870190815260029092015481168484019081528351958601845284518216865291519585019590955251909316928201929092528451919250908490849081106113375761133761214b565b60209081029190910101525060010161129b565b506040518061014001604052806113695f546001600160a01b031690565b6001600160a01b0316815260045460208201526003546040820152606001600280805460ff169081111561139f5761139f611c24565b14151581526020017f000000000000000000000000000000000000000000000000000000000000000015158152602001478152602001600580548060200260200160405190810160405280929190818152602001828054801561142957602002820191905f5260205f20905b81546001600160a01b0316815260019091019060200180831161140b575b50505050508152602001600680548060200260200160405190810160405280929190818152602001828054801561147d57602002820191905f5260205f20905b815481526020019060010190808311611469575b50505050508152602001838152602001828152509250505090565b600881815481106114a7575f80fd5b5f9182526020909120600390910201805460018201546002909201546001600160a01b0391821693501683565b6114dc611511565b6001600160a01b03811661150557604051631e4fbdf760e01b81525f6004820152602401610486565b61150e81611a80565b50565b5f546001600160a01b03163314610fcc5760405163118cdaa760e01b8152336004820152602401610486565b600260015403610fcc57604051633ee5aeb560e01b815260040160405180910390fd5b5f80546001600160a01b0316905b600754811015611684575f6007828154811061158c5761158c61214b565b5f9182526020822001546040516370a0823160e01b81523060048201526001600160a01b03909116925082906370a0823190602401602060405180830381865afa1580156115dc573d5f803e3d5ffd5b505050506040513d601f19601f820116820180604052508101906116009190612218565b9050801561167a5760405163a9059cbb60e01b81526001600160a01b0385811660048301526024820183905283169063a9059cbb906044016020604051808303815f875af1158015611654573d5f803e3d5ffd5b505050506040513d601f19601f820116820180604052508101906116789190612183565b505b505060010161156e565b505f5b600854811015611748575f600882815481106116a5576116a561214b565b5f91825260209182902060408051606081018252600390930290910180546001600160a01b03908116808552600183015495850186905260029092015416838301529051632142170760e11b8152919350916342842e0e9161170e91309188919060040161215f565b5f604051808303815f87803b158015611725575f80fd5b505af1158015611737573d5f803e3d5ffd5b505060019093019250611687915050565b504780156117e8575f826001600160a01b0316826040515f6040518083038185875af1925050503d805f8114611799576040519150601f19603f3d011682016040523d82523d5f602084013e61179e565b606091505b50509050806117e65760405162461bcd60e51b815260206004820152601460248201527322aa24103a3930b739b332b9103330b4b632b21760611b6044820152606401610486565b505b5050565b845186511461183d5760405162461bcd60e51b815260206004820152601c60248201527f48656972732f646973747269627574696f6e73206d69736d61746368000000006044820152606401610486565b8551156118d2575f805b865181101561187f578681815181106118625761186261214b565b60200260200101518261187591906121b6565b9150600101611847565b50806064146118d05760405162461bcd60e51b815260206004820152601c60248201527f446973747269627574696f6e206d7573742073756d20746f20313030000000006044820152606401610486565b505b85516118e5906005906020890190611b23565b5084516118f9906006906020880190611b86565b505f5b8381101561197957600760405180602001604052808787858181106119235761192361214b565b61193992602060409092020190810191506120e8565b6001600160a01b039081169091528254600180820185555f94855260209094209251920180546001600160a01b03191692909116919091179055016118fc565b505f5b81811015611a7757600860405180606001604052808585858181106119a3576119a361214b565b6119b992602060609092020190810191506120e8565b6001600160a01b031681526020018585858181106119d9576119d961214b565b9050606002016020013581526020018585858181106119fa576119fa61214b565b9050606002016040016020810190611a1291906120e8565b6001600160a01b039081169091528254600181810185555f948552602094859020845160039093020180549284166001600160a01b0319938416178155948401518582015560409093015160029094018054949092169316929092179091550161197c565b50505050505050565b5f80546001600160a01b038381166001600160a01b0319831681178455604051919092169283917f8be0079c531659141344cd1fd0a4f28419497f9722a3daafe3b4186f6b6457e09190a35050565b5080545f8255905f5260205f209081019061150e9190611bbf565b5080545f8255905f5260205f209081019061150e9190611bd3565b5080545f8255600302905f5260205f209081019061150e9190611bf2565b828054828255905f5260205f20908101928215611b76579160200282015b82811115611b7657825182546001600160a01b0319166001600160a01b03909116178255602090920191600190910190611b41565b50611b82929150611bbf565b5090565b828054828255905f5260205f20908101928215611b76579160200282015b82811115611b76578251825591602001919060010190611ba4565b5b80821115611b82575f8155600101611bc0565b5b80821115611b825780546001600160a01b0319168155600101611bd4565b5b80821115611b825780546001600160a01b031990811682555f60018301556002820180549091169055600301611bf3565b634e487b7160e01b5f52602160045260245ffd5b6020810160038310611c5857634e487b7160e01b5f52602160045260245ffd5b91905290565b5f60208284031215611c6e575f80fd5b5035919050565b634e487b7160e01b5f52604160045260245ffd5b604051601f8201601f1916810167ffffffffffffffff81118282101715611cb257611cb2611c75565b604052919050565b5f67ffffffffffffffff821115611cd357611cd3611c75565b5060051b60200190565b80356001600160a01b0381168114611cf3575f80fd5b919050565b5f82601f830112611d07575f80fd5b81356020611d1c611d1783611cba565b611c89565b8083825260208201915060208460051b870101935086841115611d3d575f80fd5b602086015b84811015611d595780358352918301918301611d42565b509695505050505050565b5f8083601f840112611d74575f80fd5b50813567ffffffffffffffff811115611d8b575f80fd5b6020830191508360208260061b8501011115611da5575f80fd5b9250929050565b5f8083601f840112611dbc575f80fd5b50813567ffffffffffffffff811115611dd3575f80fd5b602083019150836020606083028501011115611da5575f80fd5b5f805f805f805f60a0888a031215611e03575f80fd5b8735965060208089013567ffffffffffffffff80821115611e22575f80fd5b818b0191508b601f830112611e35575f80fd5b8135611e43611d1782611cba565b81815260059190911b8301840190848101908e831115611e61575f80fd5b938501935b82851015611e8657611e7785611cdd565b82529385019390850190611e66565b9a50505060408b0135925080831115611e9d575f80fd5b611ea98c848d01611cf8565b975060608b0135925080831115611ebe575f80fd5b611eca8c848d01611d64565b909750955060808b0135925086915080831115611ee5575f80fd5b5050611ef38a828b01611dac565b989b979a50959850939692959293505050565b5f815180845260208085019450602084015f5b83811015611f3e5781516001600160a01b031687529582019590820190600101611f19565b509495945050505050565b5f815180845260208085019450602084015f5b83811015611f3e57815187529582019590820190600101611f5c565b5f815180845260208085019450602084015f5b83811015611f3e57815180516001600160a01b031688528301518388015260409096019590820190600101611f8b565b5f815180845260208085019450602084015f5b83811015611f3e57815180516001600160a01b03908116895284820151858a0152604091820151169088015260609096019590820190600101611fce565b602081526120266020820183516001600160a01b03169052565b60208201516040820152604082015160608201525f606083015161204e608084018215159052565b50608083015180151560a08401525060a083015160c083015260c08301516101408060e0850152612083610160850183611f06565b915060e0850151601f196101008187860301818801526120a38584611f49565b9450808801519250506101208187860301818801526120c28584611f78565b9088015187820390920184880152935090506120de8382611fbb565b9695505050505050565b5f602082840312156120f8575f80fd5b61210182611cdd565b9392505050565b60208082526023908201527f57696c6c3a20496e76616c696420737461746520666f7220746869732061637460408201526234b7b760e91b606082015260800190565b634e487b7160e01b5f52603260045260245ffd5b6001600160a01b039384168152919092166020820152604081019190915260600190565b5f60208284031215612193575f80fd5b81518015158114612101575f80fd5b634e487b7160e01b5f52601160045260245ffd5b808201808211156121c9576121c96121a2565b92915050565b80820281158282048414176121c9576121c96121a2565b5f8261220057634e487b7160e01b5f52601260045260245ffd5b500490565b818103818111156121c9576121c96121a2565b5f60208284031215612228575f80fd5b505191905056fea2646970667358221220219a0264aa261c65d5fe94aa94d3df119ee5f4c0f7c122ff15ac43a18ffc510e64736f6c63430008180033",
			"opcodes": "PUSH1 0xE0 PUSH1 0x40 MSTORE PUSH1 0x40 MLOAD PUSH3 0x240B CODESIZE SUB DUP1 PUSH3 0x240B DUP4 CODECOPY DUP2 ADD PUSH1 0x40 DUP2 SWAP1 MSTORE PUSH3 0x26 SWAP2 PUSH3 0xF9 JUMP JUMPDEST DUP4 PUSH1 0x1 PUSH1 0x1 PUSH1 0xA0 SHL SUB DUP2 AND PUSH3 0x55 JUMPI PUSH1 0x40 MLOAD PUSH4 0x1E4FBDF7 PUSH1 0xE0 SHL DUP2 MSTORE PUSH0 PUSH1 0x4 DUP3 ADD MSTORE PUSH1 0x24 ADD PUSH1 0x40 MLOAD DUP1 SWAP2 SUB SWAP1 REVERT JUMPDEST PUSH3 0x60 DUP2 PUSH3 0x8E JUMP JUMPDEST POP PUSH1 0x1 DUP1 SSTORE PUSH1 0x1 PUSH1 0x1 PUSH1 0xA0 SHL SUB SWAP3 DUP4 AND PUSH1 0x80 MSTORE SWAP1 ISZERO ISZERO PUSH1 0xA0 MSTORE AND PUSH1 0xC0 MSTORE POP PUSH1 0x2 DUP1 SLOAD PUSH1 0xFF NOT AND SWAP1 SSTORE PUSH3 0x158 JUMP JUMPDEST PUSH0 DUP1 SLOAD PUSH1 0x1 PUSH1 0x1 PUSH1 0xA0 SHL SUB DUP4 DUP2 AND PUSH1 0x1 PUSH1 0x1 PUSH1 0xA0 SHL SUB NOT DUP4 AND DUP2 OR DUP5 SSTORE PUSH1 0x40 MLOAD SWAP2 SWAP1 SWAP3 AND SWAP3 DUP4 SWAP2 PUSH32 0x8BE0079C531659141344CD1FD0A4F28419497F9722A3DAAFE3B4186F6B6457E0 SWAP2 SWAP1 LOG3 POP POP JUMP JUMPDEST DUP1 MLOAD PUSH1 0x1 PUSH1 0x1 PUSH1 0xA0 SHL SUB DUP2 AND DUP2 EQ PUSH3 0xF4 JUMPI PUSH0 DUP1 REVERT JUMPDEST SWAP2 SWAP1 POP JUMP JUMPDEST PUSH0 DUP1 PUSH0 DUP1 PUSH1 0x80 DUP6 DUP8 SUB SLT ISZERO PUSH3 0x10D JUMPI PUSH0 DUP1 REVERT JUMPDEST PUSH3 0x118 DUP6 PUSH3 0xDD JUMP JUMPDEST SWAP4 POP PUSH3 0x128 PUSH1 0x20 DUP7 ADD PUSH3 0xDD JUMP JUMPDEST SWAP3 POP PUSH1 0x40 DUP6 ADD MLOAD DUP1 ISZERO ISZERO DUP2 EQ PUSH3 0x13D JUMPI PUSH0 DUP1 REVERT JUMPDEST SWAP2 POP PUSH3 0x14D PUSH1 0x60 DUP7 ADD PUSH3 0xDD JUMP JUMPDEST SWAP1 POP SWAP3 SWAP6 SWAP2 SWAP5 POP SWAP3 POP JUMP JUMPDEST PUSH1 0x80 MLOAD PUSH1 0xA0 MLOAD PUSH1 0xC0 MLOAD PUSH2 0x2265 PUSH3 0x1A6 PUSH0 CODECOPY PUSH0 DUP2 DUP2 PUSH2 0x2FD ADD MSTORE PUSH2 0x8A1 ADD MSTORE PUSH0 DUP2 DUP2 PUSH2 0x3AF ADD MSTORE PUSH2 0x13A9 ADD MSTORE PUSH0 DUP2 DUP2 PUSH2 0x2CA ADD MSTORE DUP2 DUP2 PUSH2 0x938 ADD MSTORE DUP2 DUP2 PUSH2 0xEEE ADD MSTORE PUSH2 0x100F ADD MSTORE PUSH2 0x2265 PUSH0 RETURN INVALID PUSH1 0x80 PUSH1 0x40 MSTORE PUSH1 0x4 CALLDATASIZE LT PUSH2 0x126 JUMPI PUSH0 CALLDATALOAD PUSH1 0xE0 SHR DUP1 PUSH4 0x75D33FA1 GT PUSH2 0xA8 JUMPI DUP1 PUSH4 0xA8E9A539 GT PUSH2 0x6D JUMPI DUP1 PUSH4 0xA8E9A539 EQ PUSH2 0x2EC JUMPI DUP1 PUSH4 0xC0463711 EQ PUSH2 0x31F JUMPI DUP1 PUSH4 0xCC4F9D5B EQ PUSH2 0x334 JUMPI DUP1 PUSH4 0xE15724A5 EQ PUSH2 0x355 JUMPI DUP1 PUSH4 0xEED35FEA EQ PUSH2 0x39E JUMPI DUP1 PUSH4 0xF2FDE38B EQ PUSH2 0x3E1 JUMPI PUSH0 DUP1 REVERT JUMPDEST DUP1 PUSH4 0x75D33FA1 EQ PUSH2 0x24A JUMPI DUP1 PUSH4 0x8DA5CB5B EQ PUSH2 0x269 JUMPI DUP1 PUSH4 0x9379F517 EQ PUSH2 0x285 JUMPI DUP1 PUSH4 0x947A36FB EQ PUSH2 0x2A4 JUMPI DUP1 PUSH4 0xA444AE41 EQ PUSH2 0x2B9 JUMPI PUSH0 DUP1 REVERT JUMPDEST DUP1 PUSH4 0x55952BEF GT PUSH2 0xEE JUMPI DUP1 PUSH4 0x55952BEF EQ PUSH2 0x1E7 JUMPI DUP1 PUSH4 0x5C36B186 EQ PUSH2 0x1FA JUMPI DUP1 PUSH4 0x61461954 EQ PUSH2 0x20E JUMPI DUP1 PUSH4 0x6B892B22 EQ PUSH2 0x222 JUMPI DUP1 PUSH4 0x715018A6 EQ PUSH2 0x236 JUMPI PUSH0 DUP1 REVERT JUMPDEST DUP1 PUSH4 0xC3F6ACF EQ PUSH2 0x12A JUMPI DUP1 PUSH4 0x1C0795C3 EQ PUSH2 0x159 JUMPI DUP1 PUSH4 0x1F99966A EQ PUSH2 0x190 JUMPI DUP1 PUSH4 0x2395D975 EQ PUSH2 0x1BD JUMPI DUP1 PUSH4 0x3027439C EQ PUSH2 0x1D1 JUMPI JUMPDEST PUSH0 DUP1 REVERT JUMPDEST CALLVALUE DUP1 ISZERO PUSH2 0x135 JUMPI PUSH0 DUP1 REVERT JUMPDEST POP PUSH1 0x2 SLOAD PUSH2 0x143 SWAP1 PUSH1 0xFF AND DUP2 JUMP JUMPDEST PUSH1 0x40 MLOAD PUSH2 0x150 SWAP2 SWAP1 PUSH2 0x1C38 JUMP JUMPDEST PUSH1 0x40 MLOAD DUP1 SWAP2 SUB SWAP1 RETURN JUMPDEST CALLVALUE DUP1 ISZERO PUSH2 0x164 JUMPI PUSH0 DUP1 REVERT JUMPDEST POP PUSH2 0x178 PUSH2 0x173 CALLDATASIZE PUSH1 0x4 PUSH2 0x1C5E JUMP JUMPDEST PUSH2 0x400 JUMP JUMPDEST PUSH1 0x40 MLOAD PUSH1 0x1 PUSH1 0x1 PUSH1 0xA0 SHL SUB SWAP1 SWAP2 AND DUP2 MSTORE PUSH1 0x20 ADD PUSH2 0x150 JUMP JUMPDEST CALLVALUE DUP1 ISZERO PUSH2 0x19B JUMPI PUSH0 DUP1 REVERT JUMPDEST POP PUSH2 0x1AF PUSH2 0x1AA CALLDATASIZE PUSH1 0x4 PUSH2 0x1C5E JUMP JUMPDEST PUSH2 0x428 JUMP JUMPDEST PUSH1 0x40 MLOAD SWAP1 DUP2 MSTORE PUSH1 0x20 ADD PUSH2 0x150 JUMP JUMPDEST CALLVALUE DUP1 ISZERO PUSH2 0x1C8 JUMPI PUSH0 DUP1 REVERT JUMPDEST POP PUSH2 0x1AF PUSH1 0x32 DUP2 JUMP JUMPDEST CALLVALUE DUP1 ISZERO PUSH2 0x1DC JUMPI PUSH0 DUP1 REVERT JUMPDEST POP PUSH2 0x1E5 PUSH2 0x447 JUMP JUMPDEST STOP JUMPDEST PUSH2 0x1E5 PUSH2 0x1F5 CALLDATASIZE PUSH1 0x4 PUSH2 0x1DED JUMP JUMPDEST PUSH2 0x51B JUMP JUMPDEST CALLVALUE DUP1 ISZERO PUSH2 0x205 JUMPI PUSH0 DUP1 REVERT JUMPDEST POP PUSH2 0x1E5 PUSH2 0x75C JUMP JUMPDEST CALLVALUE DUP1 ISZERO PUSH2 0x219 JUMPI PUSH0 DUP1 REVERT JUMPDEST POP PUSH2 0x1E5 PUSH2 0x7D7 JUMP JUMPDEST CALLVALUE DUP1 ISZERO PUSH2 0x22D JUMPI PUSH0 DUP1 REVERT JUMPDEST POP PUSH2 0x1E5 PUSH2 0xE98 JUMP JUMPDEST CALLVALUE DUP1 ISZERO PUSH2 0x241 JUMPI PUSH0 DUP1 REVERT JUMPDEST POP PUSH2 0x1E5 PUSH2 0xFBB JUMP JUMPDEST CALLVALUE DUP1 ISZERO PUSH2 0x255 JUMPI PUSH0 DUP1 REVERT JUMPDEST POP PUSH2 0x1E5 PUSH2 0x264 CALLDATASIZE PUSH1 0x4 PUSH2 0x1DED JUMP JUMPDEST PUSH2 0xFCE JUMP JUMPDEST CALLVALUE DUP1 ISZERO PUSH2 0x274 JUMPI PUSH0 DUP1 REVERT JUMPDEST POP PUSH0 SLOAD PUSH1 0x1 PUSH1 0x1 PUSH1 0xA0 SHL SUB AND PUSH2 0x178 JUMP JUMPDEST CALLVALUE DUP1 ISZERO PUSH2 0x290 JUMPI PUSH0 DUP1 REVERT JUMPDEST POP PUSH2 0x178 PUSH2 0x29F CALLDATASIZE PUSH1 0x4 PUSH2 0x1C5E JUMP JUMPDEST PUSH2 0x108F JUMP JUMPDEST CALLVALUE DUP1 ISZERO PUSH2 0x2AF JUMPI PUSH0 DUP1 REVERT JUMPDEST POP PUSH2 0x1AF PUSH1 0x4 SLOAD DUP2 JUMP JUMPDEST CALLVALUE DUP1 ISZERO PUSH2 0x2C4 JUMPI PUSH0 DUP1 REVERT JUMPDEST POP PUSH2 0x178 PUSH32 0x0 DUP2 JUMP JUMPDEST CALLVALUE DUP1 ISZERO PUSH2 0x2F7 JUMPI PUSH0 DUP1 REVERT JUMPDEST POP PUSH2 0x178 PUSH32 0x0 DUP2 JUMP JUMPDEST CALLVALUE DUP1 ISZERO PUSH2 0x32A JUMPI PUSH0 DUP1 REVERT JUMPDEST POP PUSH2 0x1AF PUSH1 0x3 SLOAD DUP2 JUMP JUMPDEST CALLVALUE DUP1 ISZERO PUSH2 0x33F JUMPI PUSH0 DUP1 REVERT JUMPDEST POP PUSH2 0x348 PUSH2 0x109E JUMP JUMPDEST PUSH1 0x40 MLOAD PUSH2 0x150 SWAP2 SWAP1 PUSH2 0x200C JUMP JUMPDEST CALLVALUE DUP1 ISZERO PUSH2 0x360 JUMPI PUSH0 DUP1 REVERT JUMPDEST POP PUSH2 0x374 PUSH2 0x36F CALLDATASIZE PUSH1 0x4 PUSH2 0x1C5E JUMP JUMPDEST PUSH2 0x1498 JUMP JUMPDEST PUSH1 0x40 DUP1 MLOAD PUSH1 0x1 PUSH1 0x1 PUSH1 0xA0 SHL SUB SWAP5 DUP6 AND DUP2 MSTORE PUSH1 0x20 DUP2 ADD SWAP4 SWAP1 SWAP4 MSTORE SWAP3 AND SWAP2 DUP2 ADD SWAP2 SWAP1 SWAP2 MSTORE PUSH1 0x60 ADD PUSH2 0x150 JUMP JUMPDEST CALLVALUE DUP1 ISZERO PUSH2 0x3A9 JUMPI PUSH0 DUP1 REVERT JUMPDEST POP PUSH2 0x3D1 PUSH32 0x0 DUP2 JUMP JUMPDEST PUSH1 0x40 MLOAD SWAP1 ISZERO ISZERO DUP2 MSTORE PUSH1 0x20 ADD PUSH2 0x150 JUMP JUMPDEST CALLVALUE DUP1 ISZERO PUSH2 0x3EC JUMPI PUSH0 DUP1 REVERT JUMPDEST POP PUSH2 0x1E5 PUSH2 0x3FB CALLDATASIZE PUSH1 0x4 PUSH2 0x20E8 JUMP JUMPDEST PUSH2 0x14D4 JUMP JUMPDEST PUSH1 0x5 DUP2 DUP2 SLOAD DUP2 LT PUSH2 0x40F JUMPI PUSH0 DUP1 REVERT JUMPDEST PUSH0 SWAP2 DUP3 MSTORE PUSH1 0x20 SWAP1 SWAP2 KECCAK256 ADD SLOAD PUSH1 0x1 PUSH1 0x1 PUSH1 0xA0 SHL SUB AND SWAP1 POP DUP2 JUMP JUMPDEST PUSH1 0x6 DUP2 DUP2 SLOAD DUP2 LT PUSH2 0x437 JUMPI PUSH0 DUP1 REVERT JUMPDEST PUSH0 SWAP2 DUP3 MSTORE PUSH1 0x20 SWAP1 SWAP2 KECCAK256 ADD SLOAD SWAP1 POP DUP2 JUMP JUMPDEST PUSH2 0x44F PUSH2 0x1511 JUMP JUMPDEST PUSH1 0x1 DUP1 PUSH1 0x2 DUP1 SLOAD PUSH1 0xFF AND SWAP1 DUP2 GT ISZERO PUSH2 0x469 JUMPI PUSH2 0x469 PUSH2 0x1C24 JUMP JUMPDEST EQ PUSH2 0x48F JUMPI PUSH1 0x40 MLOAD PUSH3 0x461BCD PUSH1 0xE5 SHL DUP2 MSTORE PUSH1 0x4 ADD PUSH2 0x486 SWAP1 PUSH2 0x2108 JUMP JUMPDEST PUSH1 0x40 MLOAD DUP1 SWAP2 SUB SWAP1 REVERT JUMPDEST PUSH2 0x497 PUSH2 0x153D JUMP JUMPDEST PUSH1 0x2 PUSH1 0x1 SSTORE PUSH2 0x4A4 PUSH2 0x1560 JUMP JUMPDEST PUSH2 0x4AF PUSH1 0x5 PUSH0 PUSH2 0x1ACF JUMP JUMPDEST PUSH2 0x4BA PUSH1 0x6 PUSH0 PUSH2 0x1ACF JUMP JUMPDEST PUSH2 0x4C5 PUSH1 0x7 PUSH0 PUSH2 0x1AEA JUMP JUMPDEST PUSH2 0x4D0 PUSH1 0x8 PUSH0 PUSH2 0x1B05 JUMP JUMPDEST PUSH0 PUSH1 0x4 DUP2 SWAP1 SSTORE PUSH1 0x2 DUP1 SLOAD PUSH1 0xFF NOT AND SWAP1 SSTORE DUP1 SLOAD PUSH1 0x40 MLOAD PUSH1 0x1 PUSH1 0x1 PUSH1 0xA0 SHL SUB SWAP1 SWAP2 AND SWAP2 PUSH32 0x5AF2B6DCDCCC1DD52EE38632AFEE0BC3AC6DEF619ED4132F2F9A40FF48EC74F2 SWAP2 LOG2 POP PUSH1 0x1 DUP1 SSTORE JUMP JUMPDEST PUSH2 0x523 PUSH2 0x1511 JUMP JUMPDEST PUSH0 DUP1 PUSH1 0x2 DUP1 SLOAD PUSH1 0xFF AND SWAP1 DUP2 GT ISZERO PUSH2 0x53C JUMPI PUSH2 0x53C PUSH2 0x1C24 JUMP JUMPDEST EQ PUSH2 0x559 JUMPI PUSH1 0x40 MLOAD PUSH3 0x461BCD PUSH1 0xE5 SHL DUP2 MSTORE PUSH1 0x4 ADD PUSH2 0x486 SWAP1 PUSH2 0x2108 JUMP JUMPDEST PUSH1 0x4 DUP9 SWAP1 SSTORE PUSH0 JUMPDEST DUP5 DUP2 LT ISZERO PUSH2 0x647 JUMPI PUSH0 DUP7 DUP7 DUP4 DUP2 DUP2 LT PUSH2 0x57B JUMPI PUSH2 0x57B PUSH2 0x214B JUMP JUMPDEST SWAP1 POP PUSH1 0x40 MUL ADD PUSH1 0x20 ADD CALLDATALOAD GT ISZERO PUSH2 0x63F JUMPI DUP6 DUP6 DUP3 DUP2 DUP2 LT PUSH2 0x59D JUMPI PUSH2 0x59D PUSH2 0x214B JUMP JUMPDEST PUSH2 0x5B3 SWAP3 PUSH1 0x20 PUSH1 0x40 SWAP1 SWAP3 MUL ADD SWAP1 DUP2 ADD SWAP2 POP PUSH2 0x20E8 JUMP JUMPDEST PUSH1 0x1 PUSH1 0x1 PUSH1 0xA0 SHL SUB AND PUSH4 0x23B872DD CALLER ADDRESS DUP10 DUP10 DUP7 DUP2 DUP2 LT PUSH2 0x5D5 JUMPI PUSH2 0x5D5 PUSH2 0x214B JUMP JUMPDEST SWAP1 POP PUSH1 0x40 MUL ADD PUSH1 0x20 ADD CALLDATALOAD PUSH1 0x40 MLOAD DUP5 PUSH4 0xFFFFFFFF AND PUSH1 0xE0 SHL DUP2 MSTORE PUSH1 0x4 ADD PUSH2 0x5FD SWAP4 SWAP3 SWAP2 SWAP1 PUSH2 0x215F JUMP JUMPDEST PUSH1 0x20 PUSH1 0x40 MLOAD DUP1 DUP4 SUB DUP2 PUSH0 DUP8 GAS CALL ISZERO DUP1 ISZERO PUSH2 0x619 JUMPI RETURNDATASIZE PUSH0 DUP1 RETURNDATACOPY RETURNDATASIZE PUSH0 REVERT JUMPDEST POP POP POP POP PUSH1 0x40 MLOAD RETURNDATASIZE PUSH1 0x1F NOT PUSH1 0x1F DUP3 ADD AND DUP3 ADD DUP1 PUSH1 0x40 MSTORE POP DUP2 ADD SWAP1 PUSH2 0x63D SWAP2 SWAP1 PUSH2 0x2183 JUMP JUMPDEST POP JUMPDEST PUSH1 0x1 ADD PUSH2 0x560 JUMP JUMPDEST POP PUSH0 JUMPDEST DUP3 DUP2 LT ISZERO PUSH2 0x6FD JUMPI DUP4 DUP4 DUP3 DUP2 DUP2 LT PUSH2 0x664 JUMPI PUSH2 0x664 PUSH2 0x214B JUMP JUMPDEST PUSH2 0x67A SWAP3 PUSH1 0x20 PUSH1 0x60 SWAP1 SWAP3 MUL ADD SWAP1 DUP2 ADD SWAP2 POP PUSH2 0x20E8 JUMP JUMPDEST PUSH1 0x1 PUSH1 0x1 PUSH1 0xA0 SHL SUB AND PUSH4 0x23B872DD CALLER ADDRESS DUP8 DUP8 DUP7 DUP2 DUP2 LT PUSH2 0x69C JUMPI PUSH2 0x69C PUSH2 0x214B JUMP JUMPDEST SWAP1 POP PUSH1 0x60 MUL ADD PUSH1 0x20 ADD CALLDATALOAD PUSH1 0x40 MLOAD DUP5 PUSH4 0xFFFFFFFF AND PUSH1 0xE0 SHL DUP2 MSTORE PUSH1 0x4 ADD PUSH2 0x6C4 SWAP4 SWAP3 SWAP2 SWAP1 PUSH2 0x215F JUMP JUMPDEST PUSH0 PUSH1 0x40 MLOAD DUP1 DUP4 SUB DUP2 PUSH0 DUP8 DUP1 EXTCODESIZE ISZERO DUP1 ISZERO PUSH2 0x6DB JUMPI PUSH0 DUP1 REVERT JUMPDEST POP GAS CALL ISZERO DUP1 ISZERO PUSH2 0x6ED JUMPI RETURNDATASIZE PUSH0 DUP1 RETURNDATACOPY RETURNDATASIZE PUSH0 REVERT JUMPDEST POP POP PUSH1 0x1 SWAP1 SWAP3 ADD SWAP2 POP PUSH2 0x64A SWAP1 POP JUMP JUMPDEST POP PUSH2 0x70C DUP8 DUP8 DUP8 DUP8 DUP8 DUP8 PUSH2 0x17EC JUMP JUMPDEST PUSH1 0x2 DUP1 SLOAD PUSH1 0xFF NOT AND PUSH1 0x1 OR SWAP1 SSTORE TIMESTAMP PUSH1 0x3 SSTORE PUSH0 DUP1 SLOAD PUSH1 0x40 MLOAD PUSH1 0x1 PUSH1 0x1 PUSH1 0xA0 SHL SUB SWAP1 SWAP2 AND SWAP2 PUSH32 0xBBF74FB4E3C300BF9F00E1603668149FD64853BFCD5F194270D2B043D9BDBC61 SWAP2 LOG2 POP POP POP POP POP POP POP POP JUMP JUMPDEST PUSH2 0x764 PUSH2 0x1511 JUMP JUMPDEST PUSH1 0x1 DUP1 PUSH1 0x2 DUP1 SLOAD PUSH1 0xFF AND SWAP1 DUP2 GT ISZERO PUSH2 0x77E JUMPI PUSH2 0x77E PUSH2 0x1C24 JUMP JUMPDEST EQ PUSH2 0x79B JUMPI PUSH1 0x40 MLOAD PUSH3 0x461BCD PUSH1 0xE5 SHL DUP2 MSTORE PUSH1 0x4 ADD PUSH2 0x486 SWAP1 PUSH2 0x2108 JUMP JUMPDEST TIMESTAMP PUSH1 0x3 DUP2 SWAP1 SSTORE PUSH1 0x40 MLOAD SWAP1 DUP2 MSTORE PUSH32 0x48257DC961B6F792C2B78A080DACFED693B660960A702DE21CEE364E20270E2F SWAP1 PUSH1 0x20 ADD PUSH1 0x40 MLOAD DUP1 SWAP2 SUB SWAP1 LOG1 POP JUMP JUMPDEST PUSH1 0x1 DUP1 PUSH1 0x2 DUP1 SLOAD PUSH1 0xFF AND SWAP1 DUP2 GT ISZERO PUSH2 0x7F1 JUMPI PUSH2 0x7F1 PUSH2 0x1C24 JUMP JUMPDEST EQ PUSH2 0x80E JUMPI PUSH1 0x40 MLOAD PUSH3 0x461BCD PUSH1 0xE5 SHL DUP2 MSTORE PUSH1 0x4 ADD PUSH2 0x486 SWAP1 PUSH2 0x2108 JUMP JUMPDEST PUSH2 0x816 PUSH2 0x153D JUMP JUMPDEST PUSH1 0x2 PUSH1 0x1 SSTORE PUSH1 0x4 SLOAD PUSH1 0x3 SLOAD PUSH0 SWAP2 PUSH2 0x82C SWAP2 PUSH2 0x21B6 JUMP JUMPDEST SWAP1 POP DUP1 TIMESTAMP LT ISZERO PUSH2 0x87E JUMPI PUSH1 0x40 MLOAD PUSH3 0x461BCD PUSH1 0xE5 SHL DUP2 MSTORE PUSH1 0x20 PUSH1 0x4 DUP3 ADD MSTORE PUSH1 0x1B PUSH1 0x24 DUP3 ADD MSTORE PUSH32 0x477261636520706572696F6420686173206E6F7420656E6465642E0000000000 PUSH1 0x44 DUP3 ADD MSTORE PUSH1 0x64 ADD PUSH2 0x486 JUMP JUMPDEST PUSH0 PUSH2 0x88C PUSH3 0x15180 DUP4 PUSH2 0x21B6 JUMP JUMPDEST SWAP1 POP DUP1 TIMESTAMP LT ISZERO PUSH2 0x91C JUMPI CALLER PUSH1 0x1 PUSH1 0x1 PUSH1 0xA0 SHL SUB PUSH32 0x0 AND EQ PUSH2 0x91C JUMPI PUSH1 0x40 MLOAD PUSH3 0x461BCD PUSH1 0xE5 SHL DUP2 MSTORE PUSH1 0x20 PUSH1 0x4 DUP3 ADD MSTORE PUSH1 0x25 PUSH1 0x24 DUP3 ADD MSTORE PUSH32 0x4F6E6C792064657369676E61746564206578656375746F722063616E2063616C PUSH1 0x44 DUP3 ADD MSTORE PUSH5 0x6C206E6F77 PUSH1 0xD8 SHL PUSH1 0x64 DUP3 ADD MSTORE PUSH1 0x84 ADD PUSH2 0x486 JUMP JUMPDEST PUSH1 0x2 DUP1 SLOAD PUSH1 0xFF NOT AND DUP2 OR SWAP1 SSTORE PUSH0 TIMESTAMP DUP3 GT PUSH2 0x936 JUMPI CALLER PUSH2 0x958 JUMP JUMPDEST PUSH32 0x0 JUMPDEST SWAP1 POP PUSH0 SELFBALANCE DUP1 ISZERO PUSH2 0xB46 JUMPI PUSH0 PUSH2 0x2710 PUSH2 0x971 PUSH1 0x32 DUP5 PUSH2 0x21CF JUMP JUMPDEST PUSH2 0x97B SWAP2 SWAP1 PUSH2 0x21E6 JUMP JUMPDEST SWAP3 POP DUP3 SWAP1 POP PUSH0 PUSH2 0x98B DUP3 DUP5 PUSH2 0x2205 JUMP JUMPDEST SWAP1 POP DUP2 ISZERO PUSH2 0xA34 JUMPI PUSH0 DUP6 PUSH1 0x1 PUSH1 0x1 PUSH1 0xA0 SHL SUB AND DUP4 PUSH1 0x40 MLOAD PUSH0 PUSH1 0x40 MLOAD DUP1 DUP4 SUB DUP2 DUP6 DUP8 GAS CALL SWAP3 POP POP POP RETURNDATASIZE DUP1 PUSH0 DUP2 EQ PUSH2 0x9DC JUMPI PUSH1 0x40 MLOAD SWAP2 POP PUSH1 0x1F NOT PUSH1 0x3F RETURNDATASIZE ADD AND DUP3 ADD PUSH1 0x40 MSTORE RETURNDATASIZE DUP3 MSTORE RETURNDATASIZE PUSH0 PUSH1 0x20 DUP5 ADD RETURNDATACOPY PUSH2 0x9E1 JUMP JUMPDEST PUSH1 0x60 SWAP2 POP JUMPDEST POP POP SWAP1 POP DUP1 PUSH2 0xA32 JUMPI PUSH1 0x40 MLOAD PUSH3 0x461BCD PUSH1 0xE5 SHL DUP2 MSTORE PUSH1 0x20 PUSH1 0x4 DUP3 ADD MSTORE PUSH1 0x17 PUSH1 0x24 DUP3 ADD MSTORE PUSH32 0x45544820666565207472616E73666572206661696C6564000000000000000000 PUSH1 0x44 DUP3 ADD MSTORE PUSH1 0x64 ADD PUSH2 0x486 JUMP JUMPDEST POP JUMPDEST PUSH0 JUMPDEST PUSH1 0x5 SLOAD DUP2 LT ISZERO PUSH2 0xB42 JUMPI PUSH0 PUSH1 0x64 PUSH1 0x6 DUP4 DUP2 SLOAD DUP2 LT PUSH2 0xA56 JUMPI PUSH2 0xA56 PUSH2 0x214B JUMP JUMPDEST SWAP1 PUSH0 MSTORE PUSH1 0x20 PUSH0 KECCAK256 ADD SLOAD DUP5 PUSH2 0xA6A SWAP2 SWAP1 PUSH2 0x21CF JUMP JUMPDEST PUSH2 0xA74 SWAP2 SWAP1 PUSH2 0x21E6 JUMP JUMPDEST SWAP1 POP DUP1 ISZERO PUSH2 0xB39 JUMPI PUSH0 PUSH1 0x5 DUP4 DUP2 SLOAD DUP2 LT PUSH2 0xA90 JUMPI PUSH2 0xA90 PUSH2 0x214B JUMP JUMPDEST PUSH0 SWAP2 DUP3 MSTORE PUSH1 0x20 DUP3 KECCAK256 ADD SLOAD PUSH1 0x40 MLOAD PUSH1 0x1 PUSH1 0x1 PUSH1 0xA0 SHL SUB SWAP1 SWAP2 AND SWAP2 DUP5 SWAP2 SWAP1 DUP2 DUP2 DUP2 DUP6 DUP8 GAS CALL SWAP3 POP POP POP RETURNDATASIZE DUP1 PUSH0 DUP2 EQ PUSH2 0xAE1 JUMPI PUSH1 0x40 MLOAD SWAP2 POP PUSH1 0x1F NOT PUSH1 0x3F RETURNDATASIZE ADD AND DUP3 ADD PUSH1 0x40 MSTORE RETURNDATASIZE DUP3 MSTORE RETURNDATASIZE PUSH0 PUSH1 0x20 DUP5 ADD RETURNDATACOPY PUSH2 0xAE6 JUMP JUMPDEST PUSH1 0x60 SWAP2 POP JUMPDEST POP POP SWAP1 POP DUP1 PUSH2 0xB37 JUMPI PUSH1 0x40 MLOAD PUSH3 0x461BCD PUSH1 0xE5 SHL DUP2 MSTORE PUSH1 0x20 PUSH1 0x4 DUP3 ADD MSTORE PUSH1 0x1B PUSH1 0x24 DUP3 ADD MSTORE PUSH32 0x455448207472616E7366657220746F2068656972206661696C65640000000000 PUSH1 0x44 DUP3 ADD MSTORE PUSH1 0x64 ADD PUSH2 0x486 JUMP JUMPDEST POP JUMPDEST POP PUSH1 0x1 ADD PUSH2 0xA36 JUMP JUMPDEST POP POP POP JUMPDEST PUSH0 JUMPDEST PUSH1 0x7 SLOAD DUP2 LT ISZERO PUSH2 0xD7E JUMPI PUSH0 PUSH1 0x7 DUP3 DUP2 SLOAD DUP2 LT PUSH2 0xB66 JUMPI PUSH2 0xB66 PUSH2 0x214B JUMP JUMPDEST PUSH0 SWAP2 DUP3 MSTORE PUSH1 0x20 DUP3 KECCAK256 ADD SLOAD PUSH1 0x40 MLOAD PUSH4 0x70A08231 PUSH1 0xE0 SHL DUP2 MSTORE ADDRESS PUSH1 0x4 DUP3 ADD MSTORE PUSH1 0x1 PUSH1 0x1 PUSH1 0xA0 SHL SUB SWAP1 SWAP2 AND SWAP3 POP DUP3 SWAP1 PUSH4 0x70A08231 SWAP1 PUSH1 0x24 ADD PUSH1 0x20 PUSH1 0x40 MLOAD DUP1 DUP4 SUB DUP2 DUP7 GAS STATICCALL ISZERO DUP1 ISZERO PUSH2 0xBB6 JUMPI RETURNDATASIZE PUSH0 DUP1 RETURNDATACOPY RETURNDATASIZE PUSH0 REVERT JUMPDEST POP POP POP POP PUSH1 0x40 MLOAD RETURNDATASIZE PUSH1 0x1F NOT PUSH1 0x1F DUP3 ADD AND DUP3 ADD DUP1 PUSH1 0x40 MSTORE POP DUP2 ADD SWAP1 PUSH2 0xBDA SWAP2 SWAP1 PUSH2 0x2218 JUMP JUMPDEST SWAP1 POP DUP1 ISZERO PUSH2 0xD74 JUMPI PUSH0 PUSH2 0x2710 PUSH2 0xBF1 PUSH1 0x32 DUP5 PUSH2 0x21CF JUMP JUMPDEST PUSH2 0xBFB SWAP2 SWAP1 PUSH2 0x21E6 JUMP JUMPDEST SWAP1 POP PUSH0 PUSH2 0xC08 DUP3 DUP5 PUSH2 0x2205 JUMP JUMPDEST SWAP1 POP DUP2 ISZERO PUSH2 0xC82 JUMPI PUSH1 0x40 MLOAD PUSH4 0xA9059CBB PUSH1 0xE0 SHL DUP2 MSTORE PUSH1 0x1 PUSH1 0x1 PUSH1 0xA0 SHL SUB DUP10 DUP2 AND PUSH1 0x4 DUP4 ADD MSTORE PUSH1 0x24 DUP3 ADD DUP5 SWAP1 MSTORE DUP6 AND SWAP1 PUSH4 0xA9059CBB SWAP1 PUSH1 0x44 ADD PUSH1 0x20 PUSH1 0x40 MLOAD DUP1 DUP4 SUB DUP2 PUSH0 DUP8 GAS CALL ISZERO DUP1 ISZERO PUSH2 0xC5C JUMPI RETURNDATASIZE PUSH0 DUP1 RETURNDATACOPY RETURNDATASIZE PUSH0 REVERT JUMPDEST POP POP POP POP PUSH1 0x40 MLOAD RETURNDATASIZE PUSH1 0x1F NOT PUSH1 0x1F DUP3 ADD AND DUP3 ADD DUP1 PUSH1 0x40 MSTORE POP DUP2 ADD SWAP1 PUSH2 0xC80 SWAP2 SWAP1 PUSH2 0x2183 JUMP JUMPDEST POP JUMPDEST PUSH0 JUMPDEST PUSH1 0x5 SLOAD DUP2 LT ISZERO PUSH2 0xD70 JUMPI PUSH0 PUSH1 0x64 PUSH1 0x6 DUP4 DUP2 SLOAD DUP2 LT PUSH2 0xCA4 JUMPI PUSH2 0xCA4 PUSH2 0x214B JUMP JUMPDEST SWAP1 PUSH0 MSTORE PUSH1 0x20 PUSH0 KECCAK256 ADD SLOAD DUP5 PUSH2 0xCB8 SWAP2 SWAP1 PUSH2 0x21CF JUMP JUMPDEST PUSH2 0xCC2 SWAP2 SWAP1 PUSH2 0x21E6 JUMP JUMPDEST SWAP1 POP DUP1 ISZERO PUSH2 0xD67 JUMPI DUP6 PUSH1 0x1 PUSH1 0x1 PUSH1 0xA0 SHL SUB AND PUSH4 0xA9059CBB PUSH1 0x5 DUP5 DUP2 SLOAD DUP2 LT PUSH2 0xCEC JUMPI PUSH2 0xCEC PUSH2 0x214B JUMP JUMPDEST PUSH0 SWAP2 DUP3 MSTORE PUSH1 0x20 SWAP1 SWAP2 KECCAK256 ADD SLOAD PUSH1 0x40 MLOAD PUSH1 0xE0 DUP4 SWAP1 SHL PUSH1 0x1 PUSH1 0x1 PUSH1 0xE0 SHL SUB NOT AND DUP2 MSTORE PUSH1 0x1 PUSH1 0x1 PUSH1 0xA0 SHL SUB SWAP1 SWAP2 AND PUSH1 0x4 DUP3 ADD MSTORE PUSH1 0x24 DUP2 ADD DUP5 SWAP1 MSTORE PUSH1 0x44 ADD PUSH1 0x20 PUSH1 0x40 MLOAD DUP1 DUP4 SUB DUP2 PUSH0 DUP8 GAS CALL ISZERO DUP1 ISZERO PUSH2 0xD41 JUMPI RETURNDATASIZE PUSH0 DUP1 RETURNDATACOPY RETURNDATASIZE PUSH0 REVERT JUMPDEST POP POP POP POP PUSH1 0x40 MLOAD RETURNDATASIZE PUSH1 0x1F NOT PUSH1 0x1F DUP3 ADD AND DUP3 ADD DUP1 PUSH1 0x40 MSTORE POP DUP2 ADD SWAP1 PUSH2 0xD65 SWAP2 SWAP1 PUSH2 0x2183 JUMP JUMPDEST POP JUMPDEST POP PUSH1 0x1 ADD PUSH2 0xC84 JUMP JUMPDEST POP POP POP JUMPDEST POP POP PUSH1 0x1 ADD PUSH2 0xB48 JUMP JUMPDEST POP PUSH0 JUMPDEST PUSH1 0x8 SLOAD DUP2 LT ISZERO PUSH2 0xE43 JUMPI PUSH0 PUSH1 0x8 DUP3 DUP2 SLOAD DUP2 LT PUSH2 0xD9F JUMPI PUSH2 0xD9F PUSH2 0x214B JUMP JUMPDEST PUSH0 SWAP2 DUP3 MSTORE PUSH1 0x20 SWAP2 DUP3 SWAP1 KECCAK256 PUSH1 0x40 DUP1 MLOAD PUSH1 0x60 DUP2 ADD DUP3 MSTORE PUSH1 0x3 SWAP1 SWAP4 MUL SWAP1 SWAP2 ADD DUP1 SLOAD PUSH1 0x1 PUSH1 0x1 PUSH1 0xA0 SHL SUB SWAP1 DUP2 AND DUP1 DUP6 MSTORE PUSH1 0x1 DUP4 ADD SLOAD SWAP6 DUP6 ADD DUP7 SWAP1 MSTORE PUSH1 0x2 SWAP1 SWAP3 ADD SLOAD AND DUP4 DUP4 ADD DUP2 SWAP1 MSTORE SWAP2 MLOAD PUSH4 0x21421707 PUSH1 0xE1 SHL DUP2 MSTORE SWAP3 SWAP5 POP SWAP3 PUSH4 0x42842E0E SWAP3 PUSH2 0xE09 SWAP3 ADDRESS SWAP3 SWAP1 SWAP2 PUSH1 0x4 ADD PUSH2 0x215F JUMP JUMPDEST PUSH0 PUSH1 0x40 MLOAD DUP1 DUP4 SUB DUP2 PUSH0 DUP8 DUP1 EXTCODESIZE ISZERO DUP1 ISZERO PUSH2 0xE20 JUMPI PUSH0 DUP1 REVERT JUMPDEST POP GAS CALL ISZERO DUP1 ISZERO PUSH2 0xE32 JUMPI RETURNDATASIZE PUSH0 DUP1 RETURNDATACOPY RETURNDATASIZE PUSH0 REVERT JUMPDEST POP POP PUSH1 0x1 SWAP1 SWAP4 ADD SWAP3 POP PUSH2 0xD81 SWAP2 POP POP JUMP JUMPDEST POP PUSH1 0x40 DUP1 MLOAD CALLER DUP2 MSTORE PUSH1 0x20 DUP2 ADD DUP5 SWAP1 MSTORE PUSH1 0x1 PUSH1 0x1 PUSH1 0xA0 SHL SUB DUP6 AND DUP2 DUP4 ADD MSTORE SWAP1 MLOAD PUSH32 0x52BA16C8B985EFF690A9DE92094BD7486F89340E06E385FFB26DE9C6EEA384DC SWAP2 DUP2 SWAP1 SUB PUSH1 0x60 ADD SWAP1 LOG1 POP POP PUSH1 0x1 DUP1 SSTORE POP POP POP POP JUMP JUMPDEST PUSH2 0xEA0 PUSH2 0x1511 JUMP JUMPDEST PUSH1 0x1 DUP1 PUSH1 0x2 DUP1 SLOAD PUSH1 0xFF AND SWAP1 DUP2 GT ISZERO PUSH2 0xEBA JUMPI PUSH2 0xEBA PUSH2 0x1C24 JUMP JUMPDEST EQ PUSH2 0xED7 JUMPI PUSH1 0x40 MLOAD PUSH3 0x461BCD PUSH1 0xE5 SHL DUP2 MSTORE PUSH1 0x4 ADD PUSH2 0x486 SWAP1 PUSH2 0x2108 JUMP JUMPDEST PUSH2 0xEDF PUSH2 0x153D JUMP JUMPDEST PUSH1 0x2 PUSH1 0x1 SSTORE PUSH2 0xEEC PUSH2 0x1560 JUMP JUMPDEST PUSH32 0x0 PUSH1 0x1 PUSH1 0x1 PUSH1 0xA0 SHL SUB AND PUSH4 0xA658DD6B PUSH2 0xF2C PUSH0 SLOAD PUSH1 0x1 PUSH1 0x1 PUSH1 0xA0 SHL SUB AND SWAP1 JUMP JUMPDEST PUSH1 0x40 MLOAD PUSH1 0x1 PUSH1 0x1 PUSH1 0xE0 SHL SUB NOT PUSH1 0xE0 DUP5 SWAP1 SHL AND DUP2 MSTORE PUSH1 0x1 PUSH1 0x1 PUSH1 0xA0 SHL SUB SWAP1 SWAP2 AND PUSH1 0x4 DUP3 ADD MSTORE PUSH1 0x24 ADD PUSH0 PUSH1 0x40 MLOAD DUP1 DUP4 SUB DUP2 PUSH0 DUP8 DUP1 EXTCODESIZE ISZERO DUP1 ISZERO PUSH2 0xF6A JUMPI PUSH0 DUP1 REVERT JUMPDEST POP GAS CALL ISZERO DUP1 ISZERO PUSH2 0xF7C JUMPI RETURNDATASIZE PUSH0 DUP1 RETURNDATACOPY RETURNDATASIZE PUSH0 REVERT JUMPDEST POP POP PUSH1 0x2 DUP1 SLOAD PUSH1 0xFF NOT AND DUP2 OR SWAP1 SSTORE POP POP PUSH1 0x40 MLOAD PUSH32 0x63B958841F79AB97CB5456DA181454B9932C0E15A3B17F1CBD27E2A8BC610437 SWAP1 PUSH0 SWAP1 LOG1 POP PUSH1 0x1 DUP1 SSTORE JUMP JUMPDEST PUSH2 0xFC3 PUSH2 0x1511 JUMP JUMPDEST PUSH2 0xFCC PUSH0 PUSH2 0x1A80 JUMP JUMPDEST JUMP JUMPDEST PUSH0 DUP1 PUSH1 0x2 DUP1 SLOAD PUSH1 0xFF AND SWAP1 DUP2 GT ISZERO PUSH2 0xFE7 JUMPI PUSH2 0xFE7 PUSH2 0x1C24 JUMP JUMPDEST EQ PUSH2 0x1004 JUMPI PUSH1 0x40 MLOAD PUSH3 0x461BCD PUSH1 0xE5 SHL DUP2 MSTORE PUSH1 0x4 ADD PUSH2 0x486 SWAP1 PUSH2 0x2108 JUMP JUMPDEST CALLER PUSH1 0x1 PUSH1 0x1 PUSH1 0xA0 SHL SUB PUSH32 0x0 AND EQ PUSH2 0x107C JUMPI PUSH1 0x40 MLOAD PUSH3 0x461BCD PUSH1 0xE5 SHL DUP2 MSTORE PUSH1 0x20 PUSH1 0x4 DUP3 ADD MSTORE PUSH1 0x1F PUSH1 0x24 DUP3 ADD MSTORE PUSH32 0x57696C6C3A204E6F7420617574686F72697A656420627920666163746F727900 PUSH1 0x44 DUP3 ADD MSTORE PUSH1 0x64 ADD PUSH2 0x486 JUMP JUMPDEST PUSH1 0x4 DUP9 SWAP1 SSTORE PUSH2 0x70C DUP8 DUP8 DUP8 DUP8 DUP8 DUP8 PUSH2 0x17EC JUMP JUMPDEST PUSH1 0x7 DUP2 DUP2 SLOAD DUP2 LT PUSH2 0x40F JUMPI PUSH0 DUP1 REVERT JUMPDEST PUSH2 0x10FB PUSH1 0x40 MLOAD DUP1 PUSH2 0x140 ADD PUSH1 0x40 MSTORE DUP1 PUSH0 PUSH1 0x1 PUSH1 0x1 PUSH1 0xA0 SHL SUB AND DUP2 MSTORE PUSH1 0x20 ADD PUSH0 DUP2 MSTORE PUSH1 0x20 ADD PUSH0 DUP2 MSTORE PUSH1 0x20 ADD PUSH0 ISZERO ISZERO DUP2 MSTORE PUSH1 0x20 ADD PUSH0 ISZERO ISZERO DUP2 MSTORE PUSH1 0x20 ADD PUSH0 DUP2 MSTORE PUSH1 0x20 ADD PUSH1 0x60 DUP2 MSTORE PUSH1 0x20 ADD PUSH1 0x60 DUP2 MSTORE PUSH1 0x20 ADD PUSH1 0x60 DUP2 MSTORE PUSH1 0x20 ADD PUSH1 0x60 DUP2 MSTORE POP SWAP1 JUMP JUMPDEST PUSH1 0x7 SLOAD PUSH0 SWAP1 PUSH8 0xFFFFFFFFFFFFFFFF DUP2 GT ISZERO PUSH2 0x1118 JUMPI PUSH2 0x1118 PUSH2 0x1C75 JUMP JUMPDEST PUSH1 0x40 MLOAD SWAP1 DUP1 DUP3 MSTORE DUP1 PUSH1 0x20 MUL PUSH1 0x20 ADD DUP3 ADD PUSH1 0x40 MSTORE DUP1 ISZERO PUSH2 0x115C JUMPI DUP2 PUSH1 0x20 ADD JUMPDEST PUSH1 0x40 DUP1 MLOAD DUP1 DUP3 ADD SWAP1 SWAP2 MSTORE PUSH0 DUP1 DUP3 MSTORE PUSH1 0x20 DUP3 ADD MSTORE DUP2 MSTORE PUSH1 0x20 ADD SWAP1 PUSH1 0x1 SWAP1 SUB SWAP1 DUP2 PUSH2 0x1136 JUMPI SWAP1 POP JUMPDEST POP SWAP1 POP PUSH0 JUMPDEST PUSH1 0x7 SLOAD DUP2 LT ISZERO PUSH2 0x122F JUMPI PUSH0 PUSH1 0x7 DUP3 DUP2 SLOAD DUP2 LT PUSH2 0x117F JUMPI PUSH2 0x117F PUSH2 0x214B JUMP JUMPDEST PUSH0 SWAP2 DUP3 MSTORE PUSH1 0x20 SWAP2 DUP3 SWAP1 KECCAK256 ADD SLOAD PUSH1 0x40 DUP1 MLOAD DUP1 DUP3 ADD DUP3 MSTORE PUSH1 0x1 PUSH1 0x1 PUSH1 0xA0 SHL SUB SWAP1 SWAP3 AND DUP1 DUP4 MSTORE SWAP1 MLOAD PUSH4 0x70A08231 PUSH1 0xE0 SHL DUP2 MSTORE ADDRESS PUSH1 0x4 DUP3 ADD MSTORE SWAP1 SWAP4 POP SWAP1 SWAP2 DUP3 ADD SWAP1 DUP4 SWAP1 PUSH4 0x70A08231 SWAP1 PUSH1 0x24 ADD PUSH1 0x20 PUSH1 0x40 MLOAD DUP1 DUP4 SUB DUP2 DUP7 GAS STATICCALL ISZERO DUP1 ISZERO PUSH2 0x11E2 JUMPI RETURNDATASIZE PUSH0 DUP1 RETURNDATACOPY RETURNDATASIZE PUSH0 REVERT JUMPDEST POP POP POP POP PUSH1 0x40 MLOAD RETURNDATASIZE PUSH1 0x1F NOT PUSH1 0x1F DUP3 ADD AND DUP3 ADD DUP1 PUSH1 0x40 MSTORE POP DUP2 ADD SWAP1 PUSH2 0x1206 SWAP2 SWAP1 PUSH2 0x2218 JUMP JUMPDEST DUP2 MSTORE POP DUP4 DUP4 DUP2 MLOAD DUP2 LT PUSH2 0x121B JUMPI PUSH2 0x121B PUSH2 0x214B JUMP JUMPDEST PUSH1 0x20 SWAP1 DUP2 MUL SWAP2 SWAP1 SWAP2 ADD ADD MSTORE POP PUSH1 0x1 ADD PUSH2 0x1161 JUMP JUMPDEST POP PUSH1 0x8 SLOAD PUSH0 SWAP1 PUSH8 0xFFFFFFFFFFFFFFFF DUP2 GT ISZERO PUSH2 0x124D JUMPI PUSH2 0x124D PUSH2 0x1C75 JUMP JUMPDEST PUSH1 0x40 MLOAD SWAP1 DUP1 DUP3 MSTORE DUP1 PUSH1 0x20 MUL PUSH1 0x20 ADD DUP3 ADD PUSH1 0x40 MSTORE DUP1 ISZERO PUSH2 0x1296 JUMPI DUP2 PUSH1 0x20 ADD JUMPDEST PUSH1 0x40 DUP1 MLOAD PUSH1 0x60 DUP2 ADD DUP3 MSTORE PUSH0 DUP1 DUP3 MSTORE PUSH1 0x20 DUP1 DUP4 ADD DUP3 SWAP1 MSTORE SWAP3 DUP3 ADD MSTORE DUP3 MSTORE PUSH0 NOT SWAP1 SWAP3 ADD SWAP2 ADD DUP2 PUSH2 0x126B JUMPI SWAP1 POP JUMPDEST POP SWAP1 POP PUSH0 JUMPDEST PUSH1 0x8 SLOAD DUP2 LT ISZERO PUSH2 0x134B JUMPI PUSH0 PUSH1 0x8 DUP3 DUP2 SLOAD DUP2 LT PUSH2 0x12B9 JUMPI PUSH2 0x12B9 PUSH2 0x214B JUMP JUMPDEST PUSH0 SWAP2 DUP3 MSTORE PUSH1 0x20 SWAP2 DUP3 SWAP1 KECCAK256 PUSH1 0x40 DUP1 MLOAD PUSH1 0x60 DUP1 DUP3 ADD DUP4 MSTORE PUSH1 0x3 SWAP1 SWAP5 MUL SWAP1 SWAP3 ADD DUP1 SLOAD PUSH1 0x1 PUSH1 0x1 PUSH1 0xA0 SHL SUB SWAP1 DUP2 AND DUP5 MSTORE PUSH1 0x1 DUP3 ADD SLOAD DUP5 DUP8 ADD SWAP1 DUP2 MSTORE PUSH1 0x2 SWAP1 SWAP3 ADD SLOAD DUP2 AND DUP5 DUP5 ADD SWAP1 DUP2 MSTORE DUP4 MLOAD SWAP6 DUP7 ADD DUP5 MSTORE DUP5 MLOAD DUP3 AND DUP7 MSTORE SWAP2 MLOAD SWAP6 DUP6 ADD SWAP6 SWAP1 SWAP6 MSTORE MLOAD SWAP1 SWAP4 AND SWAP3 DUP3 ADD SWAP3 SWAP1 SWAP3 MSTORE DUP5 MLOAD SWAP2 SWAP3 POP SWAP1 DUP5 SWAP1 DUP5 SWAP1 DUP2 LT PUSH2 0x1337 JUMPI PUSH2 0x1337 PUSH2 0x214B JUMP JUMPDEST PUSH1 0x20 SWAP1 DUP2 MUL SWAP2 SWAP1 SWAP2 ADD ADD MSTORE POP PUSH1 0x1 ADD PUSH2 0x129B JUMP JUMPDEST POP PUSH1 0x40 MLOAD DUP1 PUSH2 0x140 ADD PUSH1 0x40 MSTORE DUP1 PUSH2 0x1369 PUSH0 SLOAD PUSH1 0x1 PUSH1 0x1 PUSH1 0xA0 SHL SUB AND SWAP1 JUMP JUMPDEST PUSH1 0x1 PUSH1 0x1 PUSH1 0xA0 SHL SUB AND DUP2 MSTORE PUSH1 0x4 SLOAD PUSH1 0x20 DUP3 ADD MSTORE PUSH1 0x3 SLOAD PUSH1 0x40 DUP3 ADD MSTORE PUSH1 0x60 ADD PUSH1 0x2 DUP1 DUP1 SLOAD PUSH1 0xFF AND SWAP1 DUP2 GT ISZERO PUSH2 0x139F JUMPI PUSH2 0x139F PUSH2 0x1C24 JUMP JUMPDEST EQ ISZERO ISZERO DUP2 MSTORE PUSH1 0x20 ADD PUSH32 0x0 ISZERO ISZERO DUP2 MSTORE PUSH1 0x20 ADD SELFBALANCE DUP2 MSTORE PUSH1 0x20 ADD PUSH1 0x5 DUP1 SLOAD DUP1 PUSH1 0x20 MUL PUSH1 0x20 ADD PUSH1 0x40 MLOAD SWAP1 DUP2 ADD PUSH1 0x40 MSTORE DUP1 SWAP3 SWAP2 SWAP1 DUP2 DUP2 MSTORE PUSH1 0x20 ADD DUP3 DUP1 SLOAD DUP1 ISZERO PUSH2 0x1429 JUMPI PUSH1 0x20 MUL DUP3 ADD SWAP2 SWAP1 PUSH0 MSTORE PUSH1 0x20 PUSH0 KECCAK256 SWAP1 JUMPDEST DUP2 SLOAD PUSH1 0x1 PUSH1 0x1 PUSH1 0xA0 SHL SUB AND DUP2 MSTORE PUSH1 0x1 SWAP1 SWAP2 ADD SWAP1 PUSH1 0x20 ADD DUP1 DUP4 GT PUSH2 0x140B JUMPI JUMPDEST POP POP POP POP POP DUP2 MSTORE PUSH1 0x20 ADD PUSH1 0x6 DUP1 SLOAD DUP1 PUSH1 0x20 MUL PUSH1 0x20 ADD PUSH1 0x40 MLOAD SWAP1 DUP2 ADD PUSH1 0x40 MSTORE DUP1 SWAP3 SWAP2 SWAP1 DUP2 DUP2 MSTORE PUSH1 0x20 ADD DUP3 DUP1 SLOAD DUP1 ISZERO PUSH2 0x147D JUMPI PUSH1 0x20 MUL DUP3 ADD SWAP2 SWAP1 PUSH0 MSTORE PUSH1 0x20 PUSH0 KECCAK256 SWAP1 JUMPDEST DUP2 SLOAD DUP2 MSTORE PUSH1 0x20 ADD SWAP1 PUSH1 0x1 ADD SWAP1 DUP1 DUP4 GT PUSH2 0x1469 JUMPI JUMPDEST POP POP POP POP POP DUP2 MSTORE PUSH1 0x20 ADD DUP4 DUP2 MSTORE PUSH1 0x20 ADD DUP3 DUP2 MSTORE POP SWAP3 POP POP POP SWAP1 JUMP JUMPDEST PUSH1 0x8 DUP2 DUP2 SLOAD DUP2 LT PUSH2 0x14A7 JUMPI PUSH0 DUP1 REVERT JUMPDEST PUSH0 SWAP2 DUP3 MSTORE PUSH1 0x20 SWAP1 SWAP2 KECCAK256 PUSH1 0x3 SWAP1 SWAP2 MUL ADD DUP1 SLOAD PUSH1 0x1 DUP3 ADD SLOAD PUSH1 0x2 SWAP1 SWAP3 ADD SLOAD PUSH1 0x1 PUSH1 0x1 PUSH1 0xA0 SHL SUB SWAP2 DUP3 AND SWAP4 POP AND DUP4 JUMP JUMPDEST PUSH2 0x14DC PUSH2 0x1511 JUMP JUMPDEST PUSH1 0x1 PUSH1 0x1 PUSH1 0xA0 SHL SUB DUP2 AND PUSH2 0x1505 JUMPI PUSH1 0x40 MLOAD PUSH4 0x1E4FBDF7 PUSH1 0xE0 SHL DUP2 MSTORE PUSH0 PUSH1 0x4 DUP3 ADD MSTORE PUSH1 0x24 ADD PUSH2 0x486 JUMP JUMPDEST PUSH2 0x150E DUP2 PUSH2 0x1A80 JUMP JUMPDEST POP JUMP JUMPDEST PUSH0 SLOAD PUSH1 0x1 PUSH1 0x1 PUSH1 0xA0 SHL SUB AND CALLER EQ PUSH2 0xFCC JUMPI PUSH1 0x40 MLOAD PUSH4 0x118CDAA7 PUSH1 0xE0 SHL DUP2 MSTORE CALLER PUSH1 0x4 DUP3 ADD MSTORE PUSH1 0x24 ADD PUSH2 0x486 JUMP JUMPDEST PUSH1 0x2 PUSH1 0x1 SLOAD SUB PUSH2 0xFCC JUMPI PUSH1 0x40 MLOAD PUSH4 0x3EE5AEB5 PUSH1 0xE0 SHL DUP2 MSTORE PUSH1 0x4 ADD PUSH1 0x40 MLOAD DUP1 SWAP2 SUB SWAP1 REVERT JUMPDEST PUSH0 DUP1 SLOAD PUSH1 0x1 PUSH1 0x1 PUSH1 0xA0 SHL SUB AND SWAP1 JUMPDEST PUSH1 0x7 SLOAD DUP2 LT ISZERO PUSH2 0x1684 JUMPI PUSH0 PUSH1 0x7 DUP3 DUP2 SLOAD DUP2 LT PUSH2 0x158C JUMPI PUSH2 0x158C PUSH2 0x214B JUMP JUMPDEST PUSH0 SWAP2 DUP3 MSTORE PUSH1 0x20 DUP3 KECCAK256 ADD SLOAD PUSH1 0x40 MLOAD PUSH4 0x70A08231 PUSH1 0xE0 SHL DUP2 MSTORE ADDRESS PUSH1 0x4 DUP3 ADD MSTORE PUSH1 0x1 PUSH1 0x1 PUSH1 0xA0 SHL SUB SWAP1 SWAP2 AND SWAP3 POP DUP3 SWAP1 PUSH4 0x70A08231 SWAP1 PUSH1 0x24 ADD PUSH1 0x20 PUSH1 0x40 MLOAD DUP1 DUP4 SUB DUP2 DUP7 GAS STATICCALL ISZERO DUP1 ISZERO PUSH2 0x15DC JUMPI RETURNDATASIZE PUSH0 DUP1 RETURNDATACOPY RETURNDATASIZE PUSH0 REVERT JUMPDEST POP POP POP POP PUSH1 0x40 MLOAD RETURNDATASIZE PUSH1 0x1F NOT PUSH1 0x1F DUP3 ADD AND DUP3 ADD DUP1 PUSH1 0x40 MSTORE POP DUP2 ADD SWAP1 PUSH2 0x1600 SWAP2 SWAP1 PUSH2 0x2218 JUMP JUMPDEST SWAP1 POP DUP1 ISZERO PUSH2 0x167A JUMPI PUSH1 0x40 MLOAD PUSH4 0xA9059CBB PUSH1 0xE0 SHL DUP2 MSTORE PUSH1 0x1 PUSH1 0x1 PUSH1 0xA0 SHL SUB DUP6 DUP2 AND PUSH1 0x4 DUP4 ADD MSTORE PUSH1 0x24 DUP3 ADD DUP4 SWAP1 MSTORE DUP4 AND SWAP1 PUSH4 0xA9059CBB SWAP1 PUSH1 0x44 ADD PUSH1 0x20 PUSH1 0x40 MLOAD DUP1 DUP4 SUB DUP2 PUSH0 DUP8 GAS CALL ISZERO DUP1 ISZERO PUSH2 0x1654 JUMPI RETURNDATASIZE PUSH0 DUP1 RETURNDATACOPY RETURNDATASIZE PUSH0 REVERT JUMPDEST POP POP POP POP PUSH1 0x40 MLOAD RETURNDATASIZE PUSH1 0x1F NOT PUSH1 0x1F DUP3 ADD AND DUP3 ADD DUP1 PUSH1 0x40 MSTORE POP DUP2 ADD SWAP1 PUSH2 0x1678 SWAP2 SWAP1 PUSH2 0x2183 JUMP JUMPDEST POP JUMPDEST POP POP PUSH1 0x1 ADD PUSH2 0x156E JUMP JUMPDEST POP PUSH0 JUMPDEST PUSH1 0x8 SLOAD DUP2 LT ISZERO PUSH2 0x1748 JUMPI PUSH0 PUSH1 0x8 DUP3 DUP2 SLOAD DUP2 LT PUSH2 0x16A5 JUMPI PUSH2 0x16A5 PUSH2 0x214B JUMP JUMPDEST PUSH0 SWAP2 DUP3 MSTORE PUSH1 0x20 SWAP2 DUP3 SWAP1 KECCAK256 PUSH1 0x40 DUP1 MLOAD PUSH1 0x60 DUP2 ADD DUP3 MSTORE PUSH1 0x3 SWAP1 SWAP4 MUL SWAP1 SWAP2 ADD DUP1 SLOAD PUSH1 0x1 PUSH1 0x1 PUSH1 0xA0 SHL SUB SWAP1 DUP2 AND DUP1 DUP6 MSTORE PUSH1 0x1 DUP4 ADD SLOAD SWAP6 DUP6 ADD DUP7 SWAP1 MSTORE PUSH1 0x2 SWAP1 SWAP3 ADD SLOAD AND DUP4 DUP4 ADD MSTORE SWAP1 MLOAD PUSH4 0x21421707 PUSH1 0xE1 SHL DUP2 MSTORE SWAP2 SWAP4 POP SWAP2 PUSH4 0x42842E0E SWAP2 PUSH2 0x170E SWAP2 ADDRESS SWAP2 DUP9 SWAP2 SWAP1 PUSH1 0x4 ADD PUSH2 0x215F JUMP JUMPDEST PUSH0 PUSH1 0x40 MLOAD DUP1 DUP4 SUB DUP2 PUSH0 DUP8 DUP1 EXTCODESIZE ISZERO DUP1 ISZERO PUSH2 0x1725 JUMPI PUSH0 DUP1 REVERT JUMPDEST POP GAS CALL ISZERO DUP1 ISZERO PUSH2 0x1737 JUMPI RETURNDATASIZE PUSH0 DUP1 RETURNDATACOPY RETURNDATASIZE PUSH0 REVERT JUMPDEST POP POP PUSH1 0x1 SWAP1 SWAP4 ADD SWAP3 POP PUSH2 0x1687 SWAP2 POP POP JUMP JUMPDEST POP SELFBALANCE DUP1 ISZERO PUSH2 0x17E8 JUMPI PUSH0 DUP3 PUSH1 0x1 PUSH1 0x1 PUSH1 0xA0 SHL SUB AND DUP3 PUSH1 0x40 MLOAD PUSH0 PUSH1 0x40 MLOAD DUP1 DUP4 SUB DUP2 DUP6 DUP8 GAS CALL SWAP3 POP POP POP RETURNDATASIZE DUP1 PUSH0 DUP2 EQ PUSH2 0x1799 JUMPI PUSH1 0x40 MLOAD SWAP2 POP PUSH1 0x1F NOT PUSH1 0x3F RETURNDATASIZE ADD AND DUP3 ADD PUSH1 0x40 MSTORE RETURNDATASIZE DUP3 MSTORE RETURNDATASIZE PUSH0 PUSH1 0x20 DUP5 ADD RETURNDATACOPY PUSH2 0x179E JUMP JUMPDEST PUSH1 0x60 SWAP2 POP JUMPDEST POP POP SWAP1 POP DUP1 PUSH2 0x17E6 JUMPI PUSH1 0x40 MLOAD PUSH3 0x461BCD PUSH1 0xE5 SHL DUP2 MSTORE PUSH1 0x20 PUSH1 0x4 DUP3 ADD MSTORE PUSH1 0x14 PUSH1 0x24 DUP3 ADD MSTORE PUSH20 0x22AA24103A3930B739B332B9103330B4B632B217 PUSH1 0x61 SHL PUSH1 0x44 DUP3 ADD MSTORE PUSH1 0x64 ADD PUSH2 0x486 JUMP JUMPDEST POP JUMPDEST POP POP JUMP JUMPDEST DUP5 MLOAD DUP7 MLOAD EQ PUSH2 0x183D JUMPI PUSH1 0x40 MLOAD PUSH3 0x461BCD PUSH1 0xE5 SHL DUP2 MSTORE PUSH1 0x20 PUSH1 0x4 DUP3 ADD MSTORE PUSH1 0x1C PUSH1 0x24 DUP3 ADD MSTORE PUSH32 0x48656972732F646973747269627574696F6E73206D69736D6174636800000000 PUSH1 0x44 DUP3 ADD MSTORE PUSH1 0x64 ADD PUSH2 0x486 JUMP JUMPDEST DUP6 MLOAD ISZERO PUSH2 0x18D2 JUMPI PUSH0 DUP1 JUMPDEST DUP7 MLOAD DUP2 LT ISZERO PUSH2 0x187F JUMPI DUP7 DUP2 DUP2 MLOAD DUP2 LT PUSH2 0x1862 JUMPI PUSH2 0x1862 PUSH2 0x214B JUMP JUMPDEST PUSH1 0x20 MUL PUSH1 0x20 ADD ADD MLOAD DUP3 PUSH2 0x1875 SWAP2 SWAP1 PUSH2 0x21B6 JUMP JUMPDEST SWAP2 POP PUSH1 0x1 ADD PUSH2 0x1847 JUMP JUMPDEST POP DUP1 PUSH1 0x64 EQ PUSH2 0x18D0 JUMPI PUSH1 0x40 MLOAD PUSH3 0x461BCD PUSH1 0xE5 SHL DUP2 MSTORE PUSH1 0x20 PUSH1 0x4 DUP3 ADD MSTORE PUSH1 0x1C PUSH1 0x24 DUP3 ADD MSTORE PUSH32 0x446973747269627574696F6E206D7573742073756D20746F2031303000000000 PUSH1 0x44 DUP3 ADD MSTORE PUSH1 0x64 ADD PUSH2 0x486 JUMP JUMPDEST POP JUMPDEST DUP6 MLOAD PUSH2 0x18E5 SWAP1 PUSH1 0x5 SWAP1 PUSH1 0x20 DUP10 ADD SWAP1 PUSH2 0x1B23 JUMP JUMPDEST POP DUP5 MLOAD PUSH2 0x18F9 SWAP1 PUSH1 0x6 SWAP1 PUSH1 0x20 DUP9 ADD SWAP1 PUSH2 0x1B86 JUMP JUMPDEST POP PUSH0 JUMPDEST DUP4 DUP2 LT ISZERO PUSH2 0x1979 JUMPI PUSH1 0x7 PUSH1 0x40 MLOAD DUP1 PUSH1 0x20 ADD PUSH1 0x40 MSTORE DUP1 DUP8 DUP8 DUP6 DUP2 DUP2 LT PUSH2 0x1923 JUMPI PUSH2 0x1923 PUSH2 0x214B JUMP JUMPDEST PUSH2 0x1939 SWAP3 PUSH1 0x20 PUSH1 0x40 SWAP1 SWAP3 MUL ADD SWAP1 DUP2 ADD SWAP2 POP PUSH2 0x20E8 JUMP JUMPDEST PUSH1 0x1 PUSH1 0x1 PUSH1 0xA0 SHL SUB SWAP1 DUP2 AND SWAP1 SWAP2 MSTORE DUP3 SLOAD PUSH1 0x1 DUP1 DUP3 ADD DUP6 SSTORE PUSH0 SWAP5 DUP6 MSTORE PUSH1 0x20 SWAP1 SWAP5 KECCAK256 SWAP3 MLOAD SWAP3 ADD DUP1 SLOAD PUSH1 0x1 PUSH1 0x1 PUSH1 0xA0 SHL SUB NOT AND SWAP3 SWAP1 SWAP2 AND SWAP2 SWAP1 SWAP2 OR SWAP1 SSTORE ADD PUSH2 0x18FC JUMP JUMPDEST POP PUSH0 JUMPDEST DUP2 DUP2 LT ISZERO PUSH2 0x1A77 JUMPI PUSH1 0x8 PUSH1 0x40 MLOAD DUP1 PUSH1 0x60 ADD PUSH1 0x40 MSTORE DUP1 DUP6 DUP6 DUP6 DUP2 DUP2 LT PUSH2 0x19A3 JUMPI PUSH2 0x19A3 PUSH2 0x214B JUMP JUMPDEST PUSH2 0x19B9 SWAP3 PUSH1 0x20 PUSH1 0x60 SWAP1 SWAP3 MUL ADD SWAP1 DUP2 ADD SWAP2 POP PUSH2 0x20E8 JUMP JUMPDEST PUSH1 0x1 PUSH1 0x1 PUSH1 0xA0 SHL SUB AND DUP2 MSTORE PUSH1 0x20 ADD DUP6 DUP6 DUP6 DUP2 DUP2 LT PUSH2 0x19D9 JUMPI PUSH2 0x19D9 PUSH2 0x214B JUMP JUMPDEST SWAP1 POP PUSH1 0x60 MUL ADD PUSH1 0x20 ADD CALLDATALOAD DUP2 MSTORE PUSH1 0x20 ADD DUP6 DUP6 DUP6 DUP2 DUP2 LT PUSH2 0x19FA JUMPI PUSH2 0x19FA PUSH2 0x214B JUMP JUMPDEST SWAP1 POP PUSH1 0x60 MUL ADD PUSH1 0x40 ADD PUSH1 0x20 DUP2 ADD SWAP1 PUSH2 0x1A12 SWAP2 SWAP1 PUSH2 0x20E8 JUMP JUMPDEST PUSH1 0x1 PUSH1 0x1 PUSH1 0xA0 SHL SUB SWAP1 DUP2 AND SWAP1 SWAP2 MSTORE DUP3 SLOAD PUSH1 0x1 DUP2 DUP2 ADD DUP6 SSTORE PUSH0 SWAP5 DUP6 MSTORE PUSH1 0x20 SWAP5 DUP6 SWAP1 KECCAK256 DUP5 MLOAD PUSH1 0x3 SWAP1 SWAP4 MUL ADD DUP1 SLOAD SWAP3 DUP5 AND PUSH1 0x1 PUSH1 0x1 PUSH1 0xA0 SHL SUB NOT SWAP4 DUP5 AND OR DUP2 SSTORE SWAP5 DUP5 ADD MLOAD DUP6 DUP3 ADD SSTORE PUSH1 0x40 SWAP1 SWAP4 ADD MLOAD PUSH1 0x2 SWAP1 SWAP5 ADD DUP1 SLOAD SWAP5 SWAP1 SWAP3 AND SWAP4 AND SWAP3 SWAP1 SWAP3 OR SWAP1 SWAP2 SSTORE ADD PUSH2 0x197C JUMP JUMPDEST POP POP POP POP POP POP POP JUMP JUMPDEST PUSH0 DUP1 SLOAD PUSH1 0x1 PUSH1 0x1 PUSH1 0xA0 SHL SUB DUP4 DUP2 AND PUSH1 0x1 PUSH1 0x1 PUSH1 0xA0 SHL SUB NOT DUP4 AND DUP2 OR DUP5 SSTORE PUSH1 0x40 MLOAD SWAP2 SWAP1 SWAP3 AND SWAP3 DUP4 SWAP2 PUSH32 0x8BE0079C531659141344CD1FD0A4F28419497F9722A3DAAFE3B4186F6B6457E0 SWAP2 SWAP1 LOG3 POP POP JUMP JUMPDEST POP DUP1 SLOAD PUSH0 DUP3 SSTORE SWAP1 PUSH0 MSTORE PUSH1 0x20 PUSH0 KECCAK256 SWAP1 DUP2 ADD SWAP1 PUSH2 0x150E SWAP2 SWAP1 PUSH2 0x1BBF JUMP JUMPDEST POP DUP1 SLOAD PUSH0 DUP3 SSTORE SWAP1 PUSH0 MSTORE PUSH1 0x20 PUSH0 KECCAK256 SWAP1 DUP2 ADD SWAP1 PUSH2 0x150E SWAP2 SWAP1 PUSH2 0x1BD3 JUMP JUMPDEST POP DUP1 SLOAD PUSH0 DUP3 SSTORE PUSH1 0x3 MUL SWAP1 PUSH0 MSTORE PUSH1 0x20 PUSH0 KECCAK256 SWAP1 DUP2 ADD SWAP1 PUSH2 0x150E SWAP2 SWAP1 PUSH2 0x1BF2 JUMP JUMPDEST DUP3 DUP1 SLOAD DUP3 DUP3 SSTORE SWAP1 PUSH0 MSTORE PUSH1 0x20 PUSH0 KECCAK256 SWAP1 DUP2 ADD SWAP3 DUP3 ISZERO PUSH2 0x1B76 JUMPI SWAP2 PUSH1 0x20 MUL DUP3 ADD JUMPDEST DUP3 DUP2 GT ISZERO PUSH2 0x1B76 JUMPI DUP3 MLOAD DUP3 SLOAD PUSH1 0x1 PUSH1 0x1 PUSH1 0xA0 SHL SUB NOT AND PUSH1 0x1 PUSH1 0x1 PUSH1 0xA0 SHL SUB SWAP1 SWAP2 AND OR DUP3 SSTORE PUSH1 0x20 SWAP1 SWAP3 ADD SWAP2 PUSH1 0x1 SWAP1 SWAP2 ADD SWAP1 PUSH2 0x1B41 JUMP JUMPDEST POP PUSH2 0x1B82 SWAP3 SWAP2 POP PUSH2 0x1BBF JUMP JUMPDEST POP SWAP1 JUMP JUMPDEST DUP3 DUP1 SLOAD DUP3 DUP3 SSTORE SWAP1 PUSH0 MSTORE PUSH1 0x20 PUSH0 KECCAK256 SWAP1 DUP2 ADD SWAP3 DUP3 ISZERO PUSH2 0x1B76 JUMPI SWAP2 PUSH1 0x20 MUL DUP3 ADD JUMPDEST DUP3 DUP2 GT ISZERO PUSH2 0x1B76 JUMPI DUP3 MLOAD DUP3 SSTORE SWAP2 PUSH1 0x20 ADD SWAP2 SWAP1 PUSH1 0x1 ADD SWAP1 PUSH2 0x1BA4 JUMP JUMPDEST JUMPDEST DUP1 DUP3 GT ISZERO PUSH2 0x1B82 JUMPI PUSH0 DUP2 SSTORE PUSH1 0x1 ADD PUSH2 0x1BC0 JUMP JUMPDEST JUMPDEST DUP1 DUP3 GT ISZERO PUSH2 0x1B82 JUMPI DUP1 SLOAD PUSH1 0x1 PUSH1 0x1 PUSH1 0xA0 SHL SUB NOT AND DUP2 SSTORE PUSH1 0x1 ADD PUSH2 0x1BD4 JUMP JUMPDEST JUMPDEST DUP1 DUP3 GT ISZERO PUSH2 0x1B82 JUMPI DUP1 SLOAD PUSH1 0x1 PUSH1 0x1 PUSH1 0xA0 SHL SUB NOT SWAP1 DUP2 AND DUP3 SSTORE PUSH0 PUSH1 0x1 DUP4 ADD SSTORE PUSH1 0x2 DUP3 ADD DUP1 SLOAD SWAP1 SWAP2 AND SWAP1 SSTORE PUSH1 0x3 ADD PUSH2 0x1BF3 JUMP JUMPDEST PUSH4 0x4E487B71 PUSH1 0xE0 SHL PUSH0 MSTORE PUSH1 0x21 PUSH1 0x4 MSTORE PUSH1 0x24 PUSH0 REVERT JUMPDEST PUSH1 0x20 DUP2 ADD PUSH1 0x3 DUP4 LT PUSH2 0x1C58 JUMPI PUSH4 0x4E487B71 PUSH1 0xE0 SHL PUSH0 MSTORE PUSH1 0x21 PUSH1 0x4 MSTORE PUSH1 0x24 PUSH0 REVERT JUMPDEST SWAP2 SWAP1 MSTORE SWAP1 JUMP JUMPDEST PUSH0 PUSH1 0x20 DUP3 DUP5 SUB SLT ISZERO PUSH2 0x1C6E JUMPI PUSH0 DUP1 REVERT JUMPDEST POP CALLDATALOAD SWAP2 SWAP1 POP JUMP JUMPDEST PUSH4 0x4E487B71 PUSH1 0xE0 SHL PUSH0 MSTORE PUSH1 0x41 PUSH1 0x4 MSTORE PUSH1 0x24 PUSH0 REVERT JUMPDEST PUSH1 0x40 MLOAD PUSH1 0x1F DUP3 ADD PUSH1 0x1F NOT AND DUP2 ADD PUSH8 0xFFFFFFFFFFFFFFFF DUP2 GT DUP3 DUP3 LT OR ISZERO PUSH2 0x1CB2 JUMPI PUSH2 0x1CB2 PUSH2 0x1C75 JUMP JUMPDEST PUSH1 0x40 MSTORE SWAP2 SWAP1 POP JUMP JUMPDEST PUSH0 PUSH8 0xFFFFFFFFFFFFFFFF DUP3 GT ISZERO PUSH2 0x1CD3 JUMPI PUSH2 0x1CD3 PUSH2 0x1C75 JUMP JUMPDEST POP PUSH1 0x5 SHL PUSH1 0x20 ADD SWAP1 JUMP JUMPDEST DUP1 CALLDATALOAD PUSH1 0x1 PUSH1 0x1 PUSH1 0xA0 SHL SUB DUP2 AND DUP2 EQ PUSH2 0x1CF3 JUMPI PUSH0 DUP1 REVERT JUMPDEST SWAP2 SWAP1 POP JUMP JUMPDEST PUSH0 DUP3 PUSH1 0x1F DUP4 ADD SLT PUSH2 0x1D07 JUMPI PUSH0 DUP1 REVERT JUMPDEST DUP2 CALLDATALOAD PUSH1 0x20 PUSH2 0x1D1C PUSH2 0x1D17 DUP4 PUSH2 0x1CBA JUMP JUMPDEST PUSH2 0x1C89 JUMP JUMPDEST DUP1 DUP4 DUP3 MSTORE PUSH1 0x20 DUP3 ADD SWAP2 POP PUSH1 0x20 DUP5 PUSH1 0x5 SHL DUP8 ADD ADD SWAP4 POP DUP7 DUP5 GT ISZERO PUSH2 0x1D3D JUMPI PUSH0 DUP1 REVERT JUMPDEST PUSH1 0x20 DUP7 ADD JUMPDEST DUP5 DUP2 LT ISZERO PUSH2 0x1D59 JUMPI DUP1 CALLDATALOAD DUP4 MSTORE SWAP2 DUP4 ADD SWAP2 DUP4 ADD PUSH2 0x1D42 JUMP JUMPDEST POP SWAP7 SWAP6 POP POP POP POP POP POP JUMP JUMPDEST PUSH0 DUP1 DUP4 PUSH1 0x1F DUP5 ADD SLT PUSH2 0x1D74 JUMPI PUSH0 DUP1 REVERT JUMPDEST POP DUP2 CALLDATALOAD PUSH8 0xFFFFFFFFFFFFFFFF DUP2 GT ISZERO PUSH2 0x1D8B JUMPI PUSH0 DUP1 REVERT JUMPDEST PUSH1 0x20 DUP4 ADD SWAP2 POP DUP4 PUSH1 0x20 DUP3 PUSH1 0x6 SHL DUP6 ADD ADD GT ISZERO PUSH2 0x1DA5 JUMPI PUSH0 DUP1 REVERT JUMPDEST SWAP3 POP SWAP3 SWAP1 POP JUMP JUMPDEST PUSH0 DUP1 DUP4 PUSH1 0x1F DUP5 ADD SLT PUSH2 0x1DBC JUMPI PUSH0 DUP1 REVERT JUMPDEST POP DUP2 CALLDATALOAD PUSH8 0xFFFFFFFFFFFFFFFF DUP2 GT ISZERO PUSH2 0x1DD3 JUMPI PUSH0 DUP1 REVERT JUMPDEST PUSH1 0x20 DUP4 ADD SWAP2 POP DUP4 PUSH1 0x20 PUSH1 0x60 DUP4 MUL DUP6 ADD ADD GT ISZERO PUSH2 0x1DA5 JUMPI PUSH0 DUP1 REVERT JUMPDEST PUSH0 DUP1 PUSH0 DUP1 PUSH0 DUP1 PUSH0 PUSH1 0xA0 DUP9 DUP11 SUB SLT ISZERO PUSH2 0x1E03 JUMPI PUSH0 DUP1 REVERT JUMPDEST DUP8 CALLDATALOAD SWAP7 POP PUSH1 0x20 DUP1 DUP10 ADD CALLDATALOAD PUSH8 0xFFFFFFFFFFFFFFFF DUP1 DUP3 GT ISZERO PUSH2 0x1E22 JUMPI PUSH0 DUP1 REVERT JUMPDEST DUP2 DUP12 ADD SWAP2 POP DUP12 PUSH1 0x1F DUP4 ADD SLT PUSH2 0x1E35 JUMPI PUSH0 DUP1 REVERT JUMPDEST DUP2 CALLDATALOAD PUSH2 0x1E43 PUSH2 0x1D17 DUP3 PUSH2 0x1CBA JUMP JUMPDEST DUP2 DUP2 MSTORE PUSH1 0x5 SWAP2 SWAP1 SWAP2 SHL DUP4 ADD DUP5 ADD SWAP1 DUP5 DUP2 ADD SWAP1 DUP15 DUP4 GT ISZERO PUSH2 0x1E61 JUMPI PUSH0 DUP1 REVERT JUMPDEST SWAP4 DUP6 ADD SWAP4 JUMPDEST DUP3 DUP6 LT ISZERO PUSH2 0x1E86 JUMPI PUSH2 0x1E77 DUP6 PUSH2 0x1CDD JUMP JUMPDEST DUP3 MSTORE SWAP4 DUP6 ADD SWAP4 SWAP1 DUP6 ADD SWAP1 PUSH2 0x1E66 JUMP JUMPDEST SWAP11 POP POP POP PUSH1 0x40 DUP12 ADD CALLDATALOAD SWAP3 POP DUP1 DUP4 GT ISZERO PUSH2 0x1E9D JUMPI PUSH0 DUP1 REVERT JUMPDEST PUSH2 0x1EA9 DUP13 DUP5 DUP14 ADD PUSH2 0x1CF8 JUMP JUMPDEST SWAP8 POP PUSH1 0x60 DUP12 ADD CALLDATALOAD SWAP3 POP DUP1 DUP4 GT ISZERO PUSH2 0x1EBE JUMPI PUSH0 DUP1 REVERT JUMPDEST PUSH2 0x1ECA DUP13 DUP5 DUP14 ADD PUSH2 0x1D64 JUMP JUMPDEST SWAP1 SWAP8 POP SWAP6 POP PUSH1 0x80 DUP12 ADD CALLDATALOAD SWAP3 POP DUP7 SWAP2 POP DUP1 DUP4 GT ISZERO PUSH2 0x1EE5 JUMPI PUSH0 DUP1 REVERT JUMPDEST POP POP PUSH2 0x1EF3 DUP11 DUP3 DUP12 ADD PUSH2 0x1DAC JUMP JUMPDEST SWAP9 SWAP12 SWAP8 SWAP11 POP SWAP6 SWAP9 POP SWAP4 SWAP7 SWAP3 SWAP6 SWAP3 SWAP4 POP POP POP JUMP JUMPDEST PUSH0 DUP2 MLOAD DUP1 DUP5 MSTORE PUSH1 0x20 DUP1 DUP6 ADD SWAP5 POP PUSH1 0x20 DUP5 ADD PUSH0 JUMPDEST DUP4 DUP2 LT ISZERO PUSH2 0x1F3E JUMPI DUP2 MLOAD PUSH1 0x1 PUSH1 0x1 PUSH1 0xA0 SHL SUB AND DUP8 MSTORE SWAP6 DUP3 ADD SWAP6 SWAP1 DUP3 ADD SWAP1 PUSH1 0x1 ADD PUSH2 0x1F19 JUMP JUMPDEST POP SWAP5 SWAP6 SWAP5 POP POP POP POP POP JUMP JUMPDEST PUSH0 DUP2 MLOAD DUP1 DUP5 MSTORE PUSH1 0x20 DUP1 DUP6 ADD SWAP5 POP PUSH1 0x20 DUP5 ADD PUSH0 JUMPDEST DUP4 DUP2 LT ISZERO PUSH2 0x1F3E JUMPI DUP2 MLOAD DUP8 MSTORE SWAP6 DUP3 ADD SWAP6 SWAP1 DUP3 ADD SWAP1 PUSH1 0x1 ADD PUSH2 0x1F5C JUMP JUMPDEST PUSH0 DUP2 MLOAD DUP1 DUP5 MSTORE PUSH1 0x20 DUP1 DUP6 ADD SWAP5 POP PUSH1 0x20 DUP5 ADD PUSH0 JUMPDEST DUP4 DUP2 LT ISZERO PUSH2 0x1F3E JUMPI DUP2 MLOAD DUP1 MLOAD PUSH1 0x1 PUSH1 0x1 PUSH1 0xA0 SHL SUB AND DUP9 MSTORE DUP4 ADD MLOAD DUP4 DUP9 ADD MSTORE PUSH1 0x40 SWAP1 SWAP7 ADD SWAP6 SWAP1 DUP3 ADD SWAP1 PUSH1 0x1 ADD PUSH2 0x1F8B JUMP JUMPDEST PUSH0 DUP2 MLOAD DUP1 DUP5 MSTORE PUSH1 0x20 DUP1 DUP6 ADD SWAP5 POP PUSH1 0x20 DUP5 ADD PUSH0 JUMPDEST DUP4 DUP2 LT ISZERO PUSH2 0x1F3E JUMPI DUP2 MLOAD DUP1 MLOAD PUSH1 0x1 PUSH1 0x1 PUSH1 0xA0 SHL SUB SWAP1 DUP2 AND DUP10 MSTORE DUP5 DUP3 ADD MLOAD DUP6 DUP11 ADD MSTORE PUSH1 0x40 SWAP2 DUP3 ADD MLOAD AND SWAP1 DUP9 ADD MSTORE PUSH1 0x60 SWAP1 SWAP7 ADD SWAP6 SWAP1 DUP3 ADD SWAP1 PUSH1 0x1 ADD PUSH2 0x1FCE JUMP JUMPDEST PUSH1 0x20 DUP2 MSTORE PUSH2 0x2026 PUSH1 0x20 DUP3 ADD DUP4 MLOAD PUSH1 0x1 PUSH1 0x1 PUSH1 0xA0 SHL SUB AND SWAP1 MSTORE JUMP JUMPDEST PUSH1 0x20 DUP3 ADD MLOAD PUSH1 0x40 DUP3 ADD MSTORE PUSH1 0x40 DUP3 ADD MLOAD PUSH1 0x60 DUP3 ADD MSTORE PUSH0 PUSH1 0x60 DUP4 ADD MLOAD PUSH2 0x204E PUSH1 0x80 DUP5 ADD DUP3 ISZERO ISZERO SWAP1 MSTORE JUMP JUMPDEST POP PUSH1 0x80 DUP4 ADD MLOAD DUP1 ISZERO ISZERO PUSH1 0xA0 DUP5 ADD MSTORE POP PUSH1 0xA0 DUP4 ADD MLOAD PUSH1 0xC0 DUP4 ADD MSTORE PUSH1 0xC0 DUP4 ADD MLOAD PUSH2 0x140 DUP1 PUSH1 0xE0 DUP6 ADD MSTORE PUSH2 0x2083 PUSH2 0x160 DUP6 ADD DUP4 PUSH2 0x1F06 JUMP JUMPDEST SWAP2 POP PUSH1 0xE0 DUP6 ADD MLOAD PUSH1 0x1F NOT PUSH2 0x100 DUP2 DUP8 DUP7 SUB ADD DUP2 DUP9 ADD MSTORE PUSH2 0x20A3 DUP6 DUP5 PUSH2 0x1F49 JUMP JUMPDEST SWAP5 POP DUP1 DUP9 ADD MLOAD SWAP3 POP POP PUSH2 0x120 DUP2 DUP8 DUP7 SUB ADD DUP2 DUP9 ADD MSTORE PUSH2 0x20C2 DUP6 DUP5 PUSH2 0x1F78 JUMP JUMPDEST SWAP1 DUP9 ADD MLOAD DUP8 DUP3 SUB SWAP1 SWAP3 ADD DUP5 DUP9 ADD MSTORE SWAP4 POP SWAP1 POP PUSH2 0x20DE DUP4 DUP3 PUSH2 0x1FBB JUMP JUMPDEST SWAP7 SWAP6 POP POP POP POP POP POP JUMP JUMPDEST PUSH0 PUSH1 0x20 DUP3 DUP5 SUB SLT ISZERO PUSH2 0x20F8 JUMPI PUSH0 DUP1 REVERT JUMPDEST PUSH2 0x2101 DUP3 PUSH2 0x1CDD JUMP JUMPDEST SWAP4 SWAP3 POP POP POP JUMP JUMPDEST PUSH1 0x20 DUP1 DUP3 MSTORE PUSH1 0x23 SWAP1 DUP3 ADD MSTORE PUSH32 0x57696C6C3A20496E76616C696420737461746520666F72207468697320616374 PUSH1 0x40 DUP3 ADD MSTORE PUSH3 0x34B7B7 PUSH1 0xE9 SHL PUSH1 0x60 DUP3 ADD MSTORE PUSH1 0x80 ADD SWAP1 JUMP JUMPDEST PUSH4 0x4E487B71 PUSH1 0xE0 SHL PUSH0 MSTORE PUSH1 0x32 PUSH1 0x4 MSTORE PUSH1 0x24 PUSH0 REVERT JUMPDEST PUSH1 0x1 PUSH1 0x1 PUSH1 0xA0 SHL SUB SWAP4 DUP5 AND DUP2 MSTORE SWAP2 SWAP1 SWAP3 AND PUSH1 0x20 DUP3 ADD MSTORE PUSH1 0x40 DUP2 ADD SWAP2 SWAP1 SWAP2 MSTORE PUSH1 0x60 ADD SWAP1 JUMP JUMPDEST PUSH0 PUSH1 0x20 DUP3 DUP5 SUB SLT ISZERO PUSH2 0x2193 JUMPI PUSH0 DUP1 REVERT JUMPDEST DUP2 MLOAD DUP1 ISZERO ISZERO DUP2 EQ PUSH2 0x2101 JUMPI PUSH0 DUP1 REVERT JUMPDEST PUSH4 0x4E487B71 PUSH1 0xE0 SHL PUSH0 MSTORE PUSH1 0x11 PUSH1 0x4 MSTORE PUSH1 0x24 PUSH0 REVERT JUMPDEST DUP1 DUP3 ADD DUP1 DUP3 GT ISZERO PUSH2 0x21C9 JUMPI PUSH2 0x21C9 PUSH2 0x21A2 JUMP JUMPDEST SWAP3 SWAP2 POP POP JUMP JUMPDEST DUP1 DUP3 MUL DUP2 ISZERO DUP3 DUP3 DIV DUP5 EQ OR PUSH2 0x21C9 JUMPI PUSH2 0x21C9 PUSH2 0x21A2 JUMP JUMPDEST PUSH0 DUP3 PUSH2 0x2200 JUMPI PUSH4 0x4E487B71 PUSH1 0xE0 SHL PUSH0 MSTORE PUSH1 0x12 PUSH1 0x4 MSTORE PUSH1 0x24 PUSH0 REVERT JUMPDEST POP DIV SWAP1 JUMP JUMPDEST DUP2 DUP2 SUB DUP2 DUP2 GT ISZERO PUSH2 0x21C9 JUMPI PUSH2 0x21C9 PUSH2 0x21A2 JUMP JUMPDEST PUSH0 PUSH1 0x20 DUP3 DUP5 SUB SLT ISZERO PUSH2 0x2228 JUMPI PUSH0 DUP1 REVERT JUMPDEST POP MLOAD SWAP2 SWAP1 POP JUMP INVALID LOG2 PUSH5 0x6970667358 0x22 SLT KECCAK256 0x21 SWAP11 MUL PUSH5 0xAA261C65D5 INVALID SWAP5 0xAA SWAP5 0xD3 0xDF GT SWAP15 0xE5 DELEGATECALL 0xC0 0xF7 0xC1 0x22 SELFDESTRUCT ISZERO 0xAC NUMBER LOG1 DUP16 0xFC MLOAD 0xE PUSH5 0x736F6C6343 STOP ADDMOD XOR STOP CALLER "
		},
		"gasEstimates": {
			"creation": {
				"codeDepositCost": "1761000",
				"executionCost": "infinite",
				"totalCost": "infinite"
			},
			"external": {
				"EXECUTION_FEE_BPS()": "284",
				"cancelAndWithdraw()": "infinite",
				"currentState()": "2374",
				"distributionPercentages(uint256)": "4640",
				"emptyWillForEdit()": "infinite",
				"erc20Assets(uint256)": "4678",
				"erc721Assets(uint256)": "9003",
				"execute()": "infinite",
				"executorAddress()": "infinite",
				"fundAndConfigure(uint256,address[],uint256[],(address,uint256)[],(address,uint256,address)[])": "infinite",
				"getWillDetails()": "infinite",
				"hasDiary()": "infinite",
				"heirs(uint256)": "4657",
				"initialize(uint256,address[],uint256[],(address,uint256)[],(address,uint256,address)[])": "infinite",
				"interval()": "2383",
				"lastUpdate()": "2338",
				"owner()": "2374",
				"ping()": "27682",
				"renounceOwnership()": "infinite",
				"sourceContract()": "infinite",
				"transferOwnership(address)": "28461"
			},
			"internal": {
				"_configure(address[] memory,uint256[] memory,struct Will.Erc20Distribution calldata[] calldata,struct Will.NftDistribution calldata[] calldata)": "infinite",
				"_returnAllAssets()": "infinite"
			}
		},
		"methodIdentifiers": {
			"EXECUTION_FEE_BPS()": "2395d975",
			"cancelAndWithdraw()": "6b892b22",
			"currentState()": "0c3f6acf",
			"distributionPercentages(uint256)": "1f99966a",
			"emptyWillForEdit()": "3027439c",
			"erc20Assets(uint256)": "9379f517",
			"erc721Assets(uint256)": "e15724a5",
			"execute()": "61461954",
			"executorAddress()": "a8e9a539",
			"fundAndConfigure(uint256,address[],uint256[],(address,uint256)[],(address,uint256,address)[])": "55952bef",
			"getWillDetails()": "cc4f9d5b",
			"hasDiary()": "eed35fea",
			"heirs(uint256)": "1c0795c3",
			"initialize(uint256,address[],uint256[],(address,uint256)[],(address,uint256,address)[])": "75d33fa1",
			"interval()": "947a36fb",
			"lastUpdate()": "c0463711",
			"owner()": "8da5cb5b",
			"ping()": "5c36b186",
			"renounceOwnership()": "715018a6",
			"sourceContract()": "a444ae41",
			"transferOwnership(address)": "f2fde38b"
		}
	},
	"abi": [
		{
			"inputs": [
				{
					"internalType": "address",
					"name": "initialOwner",
					"type": "address"
				},
				{
					"internalType": "address",
					"name": "_sourceContract",
					"type": "address"
				},
				{
					"internalType": "bool",
					"name": "_hasDiary",
					"type": "bool"
				},
				{
					"internalType": "address",
					"name": "_executorAddress",
					"type": "address"
				}
			],
			"stateMutability": "payable",
			"type": "constructor"
		},
		{
			"inputs": [
				{
					"internalType": "address",
					"name": "owner",
					"type": "address"
				}
			],
			"name": "OwnableInvalidOwner",
			"type": "error"
		},
		{
			"inputs": [
				{
					"internalType": "address",
					"name": "account",
					"type": "address"
				}
			],
			"name": "OwnableUnauthorizedAccount",
			"type": "error"
		},
		{
			"inputs": [],
			"name": "ReentrancyGuardReentrantCall",
			"type": "error"
		},
		{
			"anonymous": false,
			"inputs": [],
			"name": "Cancelled",
			"type": "event"
		},
		{
			"anonymous": false,
			"inputs": [
				{
					"indexed": false,
					"internalType": "address",
					"name": "executor",
					"type": "address"
				},
				{
					"indexed": false,
					"internalType": "uint256",
					"name": "ethFee",
					"type": "uint256"
				},
				{
					"indexed": false,
					"internalType": "address",
					"name": "feeRecipient",
					"type": "address"
				}
			],
			"name": "Executed",
			"type": "event"
		},
		{
			"anonymous": false,
			"inputs": [
				{
					"indexed": true,
					"internalType": "address",
					"name": "previousOwner",
					"type": "address"
				},
				{
					"indexed": true,
					"internalType": "address",
					"name": "newOwner",
					"type": "address"
				}
			],
			"name": "OwnershipTransferred",
			"type": "event"
		},
		{
			"anonymous": false,
			"inputs": [
				{
					"indexed": false,
					"internalType": "uint256",
					"name": "newLastUpdate",
					"type": "uint256"
				}
			],
			"name": "Ping",
			"type": "event"
		},
		{
			"anonymous": false,
			"inputs": [
				{
					"indexed": true,
					"internalType": "address",
					"name": "owner",
					"type": "address"
				}
			],
			"name": "WillConfigured",
			"type": "event"
		},
		{
			"anonymous": false,
			"inputs": [
				{
					"indexed": true,
					"internalType": "address",
					"name": "owner",
					"type": "address"
				}
			],
			"name": "WillEmptied",
			"type": "event"
		},
		{
			"inputs": [],
			"name": "EXECUTION_FEE_BPS",
			"outputs": [
				{
					"internalType": "uint256",
					"name": "",
					"type": "uint256"
				}
			],
			"stateMutability": "view",
			"type": "function"
		},
		{
			"inputs": [],
			"name": "cancelAndWithdraw",
			"outputs": [],
			"stateMutability": "nonpayable",
			"type": "function"
		},
		{
			"inputs": [],
			"name": "currentState",
			"outputs": [
				{
					"internalType": "enum Will.WillState",
					"name": "",
					"type": "uint8"
				}
			],
			"stateMutability": "view",
			"type": "function"
		},
		{
			"inputs": [
				{
					"internalType": "uint256",
					"name": "",
					"type": "uint256"
				}
			],
			"name": "distributionPercentages",
			"outputs": [
				{
					"internalType": "uint256",
					"name": "",
					"type": "uint256"
				}
			],
			"stateMutability": "view",
			"type": "function"
		},
		{
			"inputs": [],
			"name": "emptyWillForEdit",
			"outputs": [],
			"stateMutability": "nonpayable",
			"type": "function"
		},
		{
			"inputs": [
				{
					"internalType": "uint256",
					"name": "",
					"type": "uint256"
				}
			],
			"name": "erc20Assets",
			"outputs": [
				{
					"internalType": "contract IERC20",
					"name": "token",
					"type": "address"
				}
			],
			"stateMutability": "view",
			"type": "function"
		},
		{
			"inputs": [
				{
					"internalType": "uint256",
					"name": "",
					"type": "uint256"
				}
			],
			"name": "erc721Assets",
			"outputs": [
				{
					"internalType": "contract IERC721",
					"name": "token",
					"type": "address"
				},
				{
					"internalType": "uint256",
					"name": "tokenId",
					"type": "uint256"
				},
				{
					"internalType": "address",
					"name": "heir",
					"type": "address"
				}
			],
			"stateMutability": "view",
			"type": "function"
		},
		{
			"inputs": [],
			"name": "execute",
			"outputs": [],
			"stateMutability": "nonpayable",
			"type": "function"
		},
		{
			"inputs": [],
			"name": "executorAddress",
			"outputs": [
				{
					"internalType": "address",
					"name": "",
					"type": "address"
				}
			],
			"stateMutability": "view",
			"type": "function"
		},
		{
			"inputs": [
				{
					"internalType": "uint256",
					"name": "_interval",
					"type": "uint256"
				},
				{
					"internalType": "address[]",
					"name": "_heirs",
					"type": "address[]"
				},
				{
					"internalType": "uint256[]",
					"name": "_distro",
					"type": "uint256[]"
				},
				{
					"components": [
						{
							"internalType": "address",
							"name": "tokenContract",
							"type": "address"
						},
						{
							"internalType": "uint256",
							"name": "amount",
							"type": "uint256"
						}
					],
					"internalType": "struct Will.Erc20Distribution[]",
					"name": "_erc20s",
					"type": "tuple[]"
				},
				{
					"components": [
						{
							"internalType": "address",
							"name": "tokenContract",
							"type": "address"
						},
						{
							"internalType": "uint256",
							"name": "tokenId",
							"type": "uint256"
						},
						{
							"internalType": "address",
							"name": "heir",
							"type": "address"
						}
					],
					"internalType": "struct Will.NftDistribution[]",
					"name": "_nfts",
					"type": "tuple[]"
				}
			],
			"name": "fundAndConfigure",
			"outputs": [],
			"stateMutability": "payable",
			"type": "function"
		},
		{
			"inputs": [],
			"name": "getWillDetails",
			"outputs": [
				{
					"components": [
						{
							"internalType": "address",
							"name": "owner",
							"type": "address"
						},
						{
							"internalType": "uint256",
							"name": "interval",
							"type": "uint256"
						},
						{
							"internalType": "uint256",
							"name": "lastUpdate",
							"type": "uint256"
						},
						{
							"internalType": "bool",
							"name": "executed",
							"type": "bool"
						},
						{
							"internalType": "bool",
							"name": "hasDiary",
							"type": "bool"
						},
						{
							"internalType": "uint256",
							"name": "ethBalance",
							"type": "uint256"
						},
						{
							"internalType": "address[]",
							"name": "heirs",
							"type": "address[]"
						},
						{
							"internalType": "uint256[]",
							"name": "distributionPercentages",
							"type": "uint256[]"
						},
						{
							"components": [
								{
									"internalType": "address",
									"name": "tokenContract",
									"type": "address"
								},
								{
									"internalType": "uint256",
									"name": "balance",
									"type": "uint256"
								}
							],
							"internalType": "struct Erc20Detail[]",
							"name": "erc20Details",
							"type": "tuple[]"
						},
						{
							"components": [
								{
									"internalType": "address",
									"name": "tokenContract",
									"type": "address"
								},
								{
									"internalType": "uint256",
									"name": "tokenId",
									"type": "uint256"
								},
								{
									"internalType": "address",
									"name": "heir",
									"type": "address"
								}
							],
							"internalType": "struct Erc721Detail[]",
							"name": "erc721Details",
							"type": "tuple[]"
						}
					],
					"internalType": "struct WillDetails",
					"name": "",
					"type": "tuple"
				}
			],
			"stateMutability": "view",
			"type": "function"
		},
		{
			"inputs": [],
			"name": "hasDiary",
			"outputs": [
				{
					"internalType": "bool",
					"name": "",
					"type": "bool"
				}
			],
			"stateMutability": "view",
			"type": "function"
		},
		{
			"inputs": [
				{
					"internalType": "uint256",
					"name": "",
					"type": "uint256"
				}
			],
			"name": "heirs",
			"outputs": [
				{
					"internalType": "address",
					"name": "",
					"type": "address"
				}
			],
			"stateMutability": "view",
			"type": "function"
		},
		{
			"inputs": [
				{
					"internalType": "uint256",
					"name": "_interval",
					"type": "uint256"
				},
				{
					"internalType": "address[]",
					"name": "_heirs",
					"type": "address[]"
				},
				{
					"internalType": "uint256[]",
					"name": "_distro",
					"type": "uint256[]"
				},
				{
					"components": [
						{
							"internalType": "address",
							"name": "tokenContract",
							"type": "address"
						},
						{
							"internalType": "uint256",
							"name": "amount",
							"type": "uint256"
						}
					],
					"internalType": "struct Will.Erc20Distribution[]",
					"name": "_erc20s",
					"type": "tuple[]"
				},
				{
					"components": [
						{
							"internalType": "address",
							"name": "tokenContract",
							"type": "address"
						},
						{
							"internalType": "uint256",
							"name": "tokenId",
							"type": "uint256"
						},
						{
							"internalType": "address",
							"name": "heir",
							"type": "address"
						}
					],
					"internalType": "struct Will.NftDistribution[]",
					"name": "_nfts",
					"type": "tuple[]"
				}
			],
			"name": "initialize",
			"outputs": [],
			"stateMutability": "nonpayable",
			"type": "function"
		},
		{
			"inputs": [],
			"name": "interval",
			"outputs": [
				{
					"internalType": "uint256",
					"name": "",
					"type": "uint256"
				}
			],
			"stateMutability": "view",
			"type": "function"
		},
		{
			"inputs": [],
			"name": "lastUpdate",
			"outputs": [
				{
					"internalType": "uint256",
					"name": "",
					"type": "uint256"
				}
			],
			"stateMutability": "view",
			"type": "function"
		},
		{
			"inputs": [],
			"name": "owner",
			"outputs": [
				{
					"internalType": "address",
					"name": "",
					"type": "address"
				}
			],
			"stateMutability": "view",
			"type": "function"
		},
		{
			"inputs": [],
			"name": "ping",
			"outputs": [],
			"stateMutability": "nonpayable",
			"type": "function"
		},
		{
			"inputs": [],
			"name": "renounceOwnership",
			"outputs": [],
			"stateMutability": "nonpayable",
			"type": "function"
		},
		{
			"inputs": [],
			"name": "sourceContract",
			"outputs": [
				{
					"internalType": "address",
					"name": "",
					"type": "address"
				}
			],
			"stateMutability": "view",
			"type": "function"
		},
		{
			"inputs": [
				{
					"internalType": "address",
					"name": "newOwner",
					"type": "address"
				}
			],
			"name": "transferOwnership",
			"outputs": [],
			"stateMutability": "nonpayable",
			"type": "function"
		}
	]
}